{
  "contracts/test/ve_dist_test.sol": {
    "ve_dist_test": {
      "abi": [
        {
          "inputs": [],
          "name": "checkpoint_token",
          "outputs": [],
          "stateMutability": "nonpayable",
          "type": "function"
        },
        {
          "inputs": [],
          "name": "checkpoint_total_supply",
          "outputs": [],
          "stateMutability": "nonpayable",
          "type": "function"
        }
      ],
      "evm": {
        "bytecode": {
          "linkReferences": {},
          "object": "6080604052348015600f57600080fd5b50606f80601d6000396000f3fe6080604052348015600f57600080fd5b506004361060325760003560e01c8063811a40fe146037578063b21ed502146037575b600080fd5b00fea264697066735822122060ff3818fcc32e92c0dae4d7e04d626c11337738b91aedf458930d3a26c0b6fd64736f6c634300080b0033",
          "opcodes": "PUSH1 0x80 PUSH1 0x40 MSTORE CALLVALUE DUP1 ISZERO PUSH1 0xF JUMPI PUSH1 0x0 DUP1 REVERT JUMPDEST POP PUSH1 0x6F DUP1 PUSH1 0x1D PUSH1 0x0 CODECOPY PUSH1 0x0 RETURN INVALID PUSH1 0x80 PUSH1 0x40 MSTORE CALLVALUE DUP1 ISZERO PUSH1 0xF JUMPI PUSH1 0x0 DUP1 REVERT JUMPDEST POP PUSH1 0x4 CALLDATASIZE LT PUSH1 0x32 JUMPI PUSH1 0x0 CALLDATALOAD PUSH1 0xE0 SHR DUP1 PUSH4 0x811A40FE EQ PUSH1 0x37 JUMPI DUP1 PUSH4 0xB21ED502 EQ PUSH1 0x37 JUMPI JUMPDEST PUSH1 0x0 DUP1 REVERT JUMPDEST STOP INVALID LOG2 PUSH5 0x6970667358 0x22 SLT KECCAK256 PUSH1 0xFF CODESIZE XOR 0xFC 0xC3 0x2E SWAP3 0xC0 0xDA 0xE4 0xD7 0xE0 0x4D PUSH3 0x6C1133 PUSH24 0x38B91AEDF458930D3A26C0B6FD64736F6C634300080B0033 "
        },
        "methodIdentifiers": {
          "checkpoint_token()": "811a40fe",
          "checkpoint_total_supply()": "b21ed502"
        }
      }
    }
  }
}