{
  "contracts/FetchFormula.sol": {
    "FetchFormula": {
      "abi": [
        {
          "inputs": [
            {
              "internalType": "uint256",
              "name": "_lockTime",
              "type": "uint256"
            }
          ],
          "name": "bonusPercent",
          "outputs": [
            {
              "internalType": "uint256",
              "name": "",
              "type": "uint256"
            }
          ],
          "stateMutability": "view",
          "type": "function"
        }
      ],
      "evm": {
        "bytecode": {
          "linkReferences": {},
          "object": "608060405234801561001057600080fd5b506101d8806100206000396000f3fe608060405234801561001057600080fd5b506004361061002b5760003560e01c8063faf1ebfd14610030575b600080fd5b61004361003e366004610189565b610055565b60405190815260200160405180910390f35b600062093a80821015801561006c57506212750082105b1561007957506001919050565b62127500821015801561008e575062278d0082105b1561009b57506002919050565b62278d0082101580156100b05750624f1a0082105b156100bd57506005919050565b624f1a0082101580156100d257506276a70082105b156100df5750600f919050565b6276a70082101580156100f4575062ed4e0082105b1561010157506032919050565b62ed4e00821015801561011757506301e1338082105b156101245750607d919050565b6301e13380821015801561013b57506303c2670082105b15610148575060c8919050565b63039ada00821015801561015f5750630784ce0082105b1561016d575061015e919050565b630784ce0082106101815750610320919050565b506000919050565b60006020828403121561019b57600080fd5b503591905056fea2646970667358221220e32ba858bd2c1e4f99424db16bcb2c4a880708f0040a40c94d6027a8dcc83f1664736f6c634300080b0033",
          "opcodes": "PUSH1 0x80 PUSH1 0x40 MSTORE CALLVALUE DUP1 ISZERO PUSH2 0x10 JUMPI PUSH1 0x0 DUP1 REVERT JUMPDEST POP PUSH2 0x1D8 DUP1 PUSH2 0x20 PUSH1 0x0 CODECOPY PUSH1 0x0 RETURN INVALID PUSH1 0x80 PUSH1 0x40 MSTORE CALLVALUE DUP1 ISZERO PUSH2 0x10 JUMPI PUSH1 0x0 DUP1 REVERT JUMPDEST POP PUSH1 0x4 CALLDATASIZE LT PUSH2 0x2B JUMPI PUSH1 0x0 CALLDATALOAD PUSH1 0xE0 SHR DUP1 PUSH4 0xFAF1EBFD EQ PUSH2 0x30 JUMPI JUMPDEST PUSH1 0x0 DUP1 REVERT JUMPDEST PUSH2 0x43 PUSH2 0x3E CALLDATASIZE PUSH1 0x4 PUSH2 0x189 JUMP JUMPDEST PUSH2 0x55 JUMP JUMPDEST PUSH1 0x40 MLOAD SWAP1 DUP2 MSTORE PUSH1 0x20 ADD PUSH1 0x40 MLOAD DUP1 SWAP2 SUB SWAP1 RETURN JUMPDEST PUSH1 0x0 PUSH3 0x93A80 DUP3 LT ISZERO DUP1 ISZERO PUSH2 0x6C JUMPI POP PUSH3 0x127500 DUP3 LT JUMPDEST ISZERO PUSH2 0x79 JUMPI POP PUSH1 0x1 SWAP2 SWAP1 POP JUMP JUMPDEST PUSH3 0x127500 DUP3 LT ISZERO DUP1 ISZERO PUSH2 0x8E JUMPI POP PUSH3 0x278D00 DUP3 LT JUMPDEST ISZERO PUSH2 0x9B JUMPI POP PUSH1 0x2 SWAP2 SWAP1 POP JUMP JUMPDEST PUSH3 0x278D00 DUP3 LT ISZERO DUP1 ISZERO PUSH2 0xB0 JUMPI POP PUSH3 0x4F1A00 DUP3 LT JUMPDEST ISZERO PUSH2 0xBD JUMPI POP PUSH1 0x5 SWAP2 SWAP1 POP JUMP JUMPDEST PUSH3 0x4F1A00 DUP3 LT ISZERO DUP1 ISZERO PUSH2 0xD2 JUMPI POP PUSH3 0x76A700 DUP3 LT JUMPDEST ISZERO PUSH2 0xDF JUMPI POP PUSH1 0xF SWAP2 SWAP1 POP JUMP JUMPDEST PUSH3 0x76A700 DUP3 LT ISZERO DUP1 ISZERO PUSH2 0xF4 JUMPI POP PUSH3 0xED4E00 DUP3 LT JUMPDEST ISZERO PUSH2 0x101 JUMPI POP PUSH1 0x32 SWAP2 SWAP1 POP JUMP JUMPDEST PUSH3 0xED4E00 DUP3 LT ISZERO DUP1 ISZERO PUSH2 0x117 JUMPI POP PUSH4 0x1E13380 DUP3 LT JUMPDEST ISZERO PUSH2 0x124 JUMPI POP PUSH1 0x7D SWAP2 SWAP1 POP JUMP JUMPDEST PUSH4 0x1E13380 DUP3 LT ISZERO DUP1 ISZERO PUSH2 0x13B JUMPI POP PUSH4 0x3C26700 DUP3 LT JUMPDEST ISZERO PUSH2 0x148 JUMPI POP PUSH1 0xC8 SWAP2 SWAP1 POP JUMP JUMPDEST PUSH4 0x39ADA00 DUP3 LT ISZERO DUP1 ISZERO PUSH2 0x15F JUMPI POP PUSH4 0x784CE00 DUP3 LT JUMPDEST ISZERO PUSH2 0x16D JUMPI POP PUSH2 0x15E SWAP2 SWAP1 POP JUMP JUMPDEST PUSH4 0x784CE00 DUP3 LT PUSH2 0x181 JUMPI POP PUSH2 0x320 SWAP2 SWAP1 POP JUMP JUMPDEST POP PUSH1 0x0 SWAP2 SWAP1 POP JUMP JUMPDEST PUSH1 0x0 PUSH1 0x20 DUP3 DUP5 SUB SLT ISZERO PUSH2 0x19B JUMPI PUSH1 0x0 DUP1 REVERT JUMPDEST POP CALLDATALOAD SWAP2 SWAP1 POP JUMP INVALID LOG2 PUSH5 0x6970667358 0x22 SLT KECCAK256 0xE3 0x2B 0xA8 PC 0xBD 0x2C 0x1E 0x4F SWAP10 TIMESTAMP 0x4D 0xB1 PUSH12 0xCB2C4A880708F0040A40C94D PUSH1 0x27 0xA8 0xDC 0xC8 EXTCODEHASH AND PUSH5 0x736F6C6343 STOP ADDMOD SIGNEXTEND STOP CALLER "
        },
        "methodIdentifiers": {
          "bonusPercent(uint256)": "faf1ebfd"
        }
      }
    }
  }
}