{
  "contracts/solidly_library.sol": {
    "solidly_library": {
      "abi": [
        {
          "inputs": [
            {
              "internalType": "address",
              "name": "_router",
              "type": "address"
            }
          ],
          "stateMutability": "nonpayable",
          "type": "constructor"
        },
        {
          "inputs": [
            {
              "internalType": "uint256",
              "name": "amountIn",
              "type": "uint256"
            },
            {
              "internalType": "address",
              "name": "tokenIn",
              "type": "address"
            },
            {
              "internalType": "address",
              "name": "tokenOut",
              "type": "address"
            },
            {
              "internalType": "bool",
              "name": "stable",
              "type": "bool"
            }
          ],
          "name": "getAmountOut",
          "outputs": [
            {
              "internalType": "uint256",
              "name": "",
              "type": "uint256"
            }
          ],
          "stateMutability": "view",
          "type": "function"
        },
        {
          "inputs": [
            {
              "internalType": "address",
              "name": "tokenIn",
              "type": "address"
            },
            {
              "internalType": "address",
              "name": "tokenOut",
              "type": "address"
            },
            {
              "internalType": "bool",
              "name": "stable",
              "type": "bool"
            }
          ],
          "name": "getMinimumValue",
          "outputs": [
            {
              "internalType": "uint256",
              "name": "",
              "type": "uint256"
            },
            {
              "internalType": "uint256",
              "name": "",
              "type": "uint256"
            },
            {
              "internalType": "uint256",
              "name": "",
              "type": "uint256"
            }
          ],
          "stateMutability": "view",
          "type": "function"
        },
        {
          "inputs": [
            {
              "internalType": "address",
              "name": "tokenIn",
              "type": "address"
            },
            {
              "internalType": "address",
              "name": "tokenOut",
              "type": "address"
            },
            {
              "internalType": "bool",
              "name": "stable",
              "type": "bool"
            }
          ],
          "name": "getSample",
          "outputs": [
            {
              "internalType": "uint256",
              "name": "",
              "type": "uint256"
            }
          ],
          "stateMutability": "view",
          "type": "function"
        },
        {
          "inputs": [
            {
              "internalType": "uint256",
              "name": "amountIn",
              "type": "uint256"
            },
            {
              "internalType": "address",
              "name": "tokenIn",
              "type": "address"
            },
            {
              "internalType": "address",
              "name": "tokenOut",
              "type": "address"
            },
            {
              "internalType": "bool",
              "name": "stable",
              "type": "bool"
            }
          ],
          "name": "getTradeDiff",
          "outputs": [
            {
              "internalType": "uint256",
              "name": "a",
              "type": "uint256"
            },
            {
              "internalType": "uint256",
              "name": "b",
              "type": "uint256"
            }
          ],
          "stateMutability": "view",
          "type": "function"
        },
        {
          "inputs": [
            {
              "internalType": "uint256",
              "name": "amountIn",
              "type": "uint256"
            },
            {
              "internalType": "address",
              "name": "tokenIn",
              "type": "address"
            },
            {
              "internalType": "address",
              "name": "pair",
              "type": "address"
            }
          ],
          "name": "getTradeDiff",
          "outputs": [
            {
              "internalType": "uint256",
              "name": "a",
              "type": "uint256"
            },
            {
              "internalType": "uint256",
              "name": "b",
              "type": "uint256"
            }
          ],
          "stateMutability": "view",
          "type": "function"
        },
        {
          "inputs": [],
          "name": "router",
          "outputs": [
            {
              "internalType": "contract solidly_router",
              "name": "",
              "type": "address"
            }
          ],
          "stateMutability": "view",
          "type": "function"
        }
      ],
      "evm": {
        "bytecode": {
          "linkReferences": {},
          "object": "608060405234801561001057600080fd5b50604051610fc3380380610fc383398101604081905261002f91610054565b600080546001600160a01b0319166001600160a01b0392909216919091179055610084565b60006020828403121561006657600080fd5b81516001600160a01b038116811461007d57600080fd5b9392505050565b610f30806100936000396000f3fe608060405234801561001057600080fd5b50600436106100625760003560e01c80635250073314610067578063865db5e21461009a578063be3b428e146100c2578063da214231146100e3578063ec323c00146100f6578063f887ea4014610109575b600080fd5b61007a610075366004610ccf565b610134565b604080519384526020840192909252908201526060015b60405180910390f35b6100ad6100a8366004610d1a565b610280565b60408051928352602083019190915201610091565b6100d56100d0366004610ccf565b61042a565b604051908152602001610091565b6100d56100f1366004610d1a565b6105a4565b6100ad610104366004610d6d565b6106d0565b60005461011c906001600160a01b031681565b6040516001600160a01b039091168152602001610091565b6000805460405163260f701f60e11b815282918291829182918291829182916001600160a01b031690634c1ee03e90610175908e908e908e90600401610da4565b602060405180830381865afa158015610192573d6000803e3d6000fd5b505050506040513d601f19601f820116820180604052508101906101b69190610dc8565b6001600160a01b031663392f37e96040518163ffffffff1660e01b815260040160e060405180830381865afa1580156101f3573d6000803e3d6000fd5b505050506040513d601f19601f820116820180604052508101906102179190610de5565b5095505094509450945094506000816001600160a01b03168c6001600160a01b03161461025857836102498785610e6f565b6102539190610e8e565b61026d565b826102638686610e6f565b61026d9190610e8e565b9c939b5091995091975050505050505050565b6000805460405163260f701f60e11b815282918291829182918291829182916001600160a01b031690634c1ee03e906102c1908e908e908e90600401610da4565b602060405180830381865afa1580156102de573d6000803e3d6000fd5b505050506040513d601f19601f820116820180604052508101906103029190610dc8565b6001600160a01b031663392f37e96040518163ffffffff1660e01b815260040160e060405180830381865afa15801561033f573d6000803e3d6000fd5b505050506040513d601f19601f820116820180604052508101906103639190610de5565b509550955095509550955095506000816001600160a01b03168c6001600160a01b0316146103a557846103968886610e6f565b6103a09190610e8e565b6103ba565b836103b08787610e6f565b6103ba9190610e8e565b9050806103cd828e8888878d8d8b610804565b6103df90670de0b6b3a7640000610e6f565b6103e99190610e8e565b98508c6103fc8e8e8888878d8d8b610804565b61040e90670de0b6b3a7640000610e6f565b6104189190610e8e565b97505050505050505094509492505050565b6000805460405163260f701f60e11b81528291829182918291829182916001600160a01b0390911690634c1ee03e9061046b908d908d908d90600401610da4565b602060405180830381865afa158015610488573d6000803e3d6000fd5b505050506040513d601f19601f820116820180604052508101906104ac9190610dc8565b6001600160a01b031663392f37e96040518163ffffffff1660e01b815260040160e060405180830381865afa1580156104e9573d6000803e3d6000fd5b505050506040513d601f19601f8201168201806040525081019061050d9190610de5565b509550955095509550955095506000816001600160a01b03168b6001600160a01b03161461054f57846105408886610e6f565b61054a9190610e8e565b610564565b8361055a8787610e6f565b6105649190610e8e565b905080610577828d8888878d8d8b610804565b61058990670de0b6b3a7640000610e6f565b6105939190610e8e565b9750505050505050505b9392505050565b6000805460405163260f701f60e11b81528291829182918291829182916001600160a01b0390911690634c1ee03e906105e5908d908d908d90600401610da4565b602060405180830381865afa158015610602573d6000803e3d6000fd5b505050506040513d601f19601f820116820180604052508101906106269190610dc8565b6001600160a01b031663392f37e96040518163ffffffff1660e01b815260040160e060405180830381865afa158015610663573d6000803e3d6000fd5b505050506040513d601f19601f820116820180604052508101906106879190610de5565b509550955095509550955095508a6106a58c8c8787868c8c8a610804565b6106b790670de0b6b3a7640000610e6f565b6106c19190610e8e565b9b9a5050505050505050505050565b600080600080600080600080886001600160a01b031663392f37e96040518163ffffffff1660e01b815260040160e060405180830381865afa15801561071a573d6000803e3d6000fd5b505050506040513d601f19601f8201168201806040525081019061073e9190610de5565b509550955095509550955095506000816001600160a01b03168b6001600160a01b03161461078057846107718886610e6f565b61077b9190610e8e565b610795565b8361078b8787610e6f565b6107959190610e8e565b9050806107a8828d8888878d8d8b610804565b6107ba90670de0b6b3a7640000610e6f565b6107c49190610e8e565b98508b6107d78d8d8888878d8d8b610804565b6107e990670de0b6b3a7640000610e6f565b6107f39190610e8e565b975050505050505050935093915050565b6000811561094a57600061081b88888588886109a4565b90508461083089670de0b6b3a7640000610e6f565b61083a9190610e8e565b97508361084f88670de0b6b3a7640000610e6f565b6108599190610e8e565b9650600080876001600160a01b03168b6001600160a01b03161461087e57888a610881565b89895b91509150876001600160a01b03168b6001600160a01b0316146108c057856108b18d670de0b6b3a7640000610e6f565b6108bb9190610e8e565b6108dd565b866108d38d670de0b6b3a7640000610e6f565b6108dd9190610e8e565b9b5060006108f56108ee848f610eb0565b8584610a95565b6108ff9083610ec8565b9050670de0b6b3a7640000896001600160a01b03168d6001600160a01b031614610929578861092b565b875b6109359083610e6f565b61093f9190610e8e565b945050505050610998565b600080866001600160a01b03168a6001600160a01b03161461096d578789610970565b88885b909250905061097f8b83610eb0565b610989828d610e6f565b6109939190610e8e565b925050505b98975050505050505050565b60008315610a7f576000836109c188670de0b6b3a7640000610e6f565b6109cb9190610e8e565b90506000836109e288670de0b6b3a7640000610e6f565b6109ec9190610e8e565b90506000670de0b6b3a7640000610a038385610e6f565b610a0d9190610e8e565b90506000670de0b6b3a7640000610a248480610e6f565b610a2e9190610e8e565b670de0b6b3a7640000610a418680610e6f565b610a4b9190610e8e565b610a559190610eb0565b9050670de0b6b3a7640000610a6a8284610e6f565b610a749190610e8e565b945050505050610a8c565b610a898587610e6f565b90505b95945050505050565b6000805b60ff811015610b9b57826000610aaf8783610ba4565b905085811015610aff576000610ac58887610c41565b610acf8389610ec8565b610ae190670de0b6b3a7640000610e6f565b610aeb9190610e8e565b9050610af78187610eb0565b955050610b41565b6000610b0b8887610c41565b610b158884610ec8565b610b2790670de0b6b3a7640000610e6f565b610b319190610e8e565b9050610b3d8187610ec8565b9550505b81851115610b6a576001610b558387610ec8565b11610b655784935050505061059d565b610b86565b6001610b768684610ec8565b11610b865784935050505061059d565b50508080610b9390610edf565b915050610a99565b50909392505050565b6000670de0b6b3a764000082818581610bbd8280610e6f565b610bc79190610e8e565b610bd19190610e6f565b610bdb9190610e8e565b610be59190610e6f565b610bef9190610e8e565b670de0b6b3a7640000808481610c058280610e6f565b610c0f9190610e8e565b610c199190610e6f565b610c239190610e8e565b610c2d9086610e6f565b610c379190610e8e565b61059d9190610eb0565b6000670de0b6b3a76400008381610c588280610e6f565b610c629190610e8e565b610c6c9190610e6f565b610c769190610e8e565b670de0b6b3a764000080610c8a8580610e6f565b610c949190610e8e565b610c9f866003610e6f565b610c2d9190610e6f565b6001600160a01b0381168114610cbe57600080fd5b50565b8015158114610cbe57600080fd5b600080600060608486031215610ce457600080fd5b8335610cef81610ca9565b92506020840135610cff81610ca9565b91506040840135610d0f81610cc1565b809150509250925092565b60008060008060808587031215610d3057600080fd5b843593506020850135610d4281610ca9565b92506040850135610d5281610ca9565b91506060850135610d6281610cc1565b939692955090935050565b600080600060608486031215610d8257600080fd5b833592506020840135610d9481610ca9565b91506040840135610d0f81610ca9565b6001600160a01b039384168152919092166020820152901515604082015260600190565b600060208284031215610dda57600080fd5b815161059d81610ca9565b600080600080600080600060e0888a031215610e0057600080fd5b875196506020880151955060408801519450606088015193506080880151610e2781610cc1565b60a0890151909350610e3881610ca9565b60c0890151909250610e4981610ca9565b8091505092959891949750929550565b634e487b7160e01b600052601160045260246000fd5b6000816000190483118215151615610e8957610e89610e59565b500290565b600082610eab57634e487b7160e01b600052601260045260246000fd5b500490565b60008219821115610ec357610ec3610e59565b500190565b600082821015610eda57610eda610e59565b500390565b6000600019821415610ef357610ef3610e59565b506001019056fea26469706673582212200f04c86fe7f5daafc12edb8863f49d13910b82bdfe2854a28126037da02b8f5d64736f6c634300080b0033",
          "opcodes": "PUSH1 0x80 PUSH1 0x40 MSTORE CALLVALUE DUP1 ISZERO PUSH2 0x10 JUMPI PUSH1 0x0 DUP1 REVERT JUMPDEST POP PUSH1 0x40 MLOAD PUSH2 0xFC3 CODESIZE SUB DUP1 PUSH2 0xFC3 DUP4 CODECOPY DUP2 ADD PUSH1 0x40 DUP2 SWAP1 MSTORE PUSH2 0x2F SWAP2 PUSH2 0x54 JUMP JUMPDEST PUSH1 0x0 DUP1 SLOAD PUSH1 0x1 PUSH1 0x1 PUSH1 0xA0 SHL SUB NOT AND PUSH1 0x1 PUSH1 0x1 PUSH1 0xA0 SHL SUB SWAP3 SWAP1 SWAP3 AND SWAP2 SWAP1 SWAP2 OR SWAP1 SSTORE PUSH2 0x84 JUMP JUMPDEST PUSH1 0x0 PUSH1 0x20 DUP3 DUP5 SUB SLT ISZERO PUSH2 0x66 JUMPI PUSH1 0x0 DUP1 REVERT JUMPDEST DUP2 MLOAD PUSH1 0x1 PUSH1 0x1 PUSH1 0xA0 SHL SUB DUP2 AND DUP2 EQ PUSH2 0x7D JUMPI PUSH1 0x0 DUP1 REVERT JUMPDEST SWAP4 SWAP3 POP POP POP JUMP JUMPDEST PUSH2 0xF30 DUP1 PUSH2 0x93 PUSH1 0x0 CODECOPY PUSH1 0x0 RETURN INVALID PUSH1 0x80 PUSH1 0x40 MSTORE CALLVALUE DUP1 ISZERO PUSH2 0x10 JUMPI PUSH1 0x0 DUP1 REVERT JUMPDEST POP PUSH1 0x4 CALLDATASIZE LT PUSH2 0x62 JUMPI PUSH1 0x0 CALLDATALOAD PUSH1 0xE0 SHR DUP1 PUSH4 0x52500733 EQ PUSH2 0x67 JUMPI DUP1 PUSH4 0x865DB5E2 EQ PUSH2 0x9A JUMPI DUP1 PUSH4 0xBE3B428E EQ PUSH2 0xC2 JUMPI DUP1 PUSH4 0xDA214231 EQ PUSH2 0xE3 JUMPI DUP1 PUSH4 0xEC323C00 EQ PUSH2 0xF6 JUMPI DUP1 PUSH4 0xF887EA40 EQ PUSH2 0x109 JUMPI JUMPDEST PUSH1 0x0 DUP1 REVERT JUMPDEST PUSH2 0x7A PUSH2 0x75 CALLDATASIZE PUSH1 0x4 PUSH2 0xCCF JUMP JUMPDEST PUSH2 0x134 JUMP JUMPDEST PUSH1 0x40 DUP1 MLOAD SWAP4 DUP5 MSTORE PUSH1 0x20 DUP5 ADD SWAP3 SWAP1 SWAP3 MSTORE SWAP1 DUP3 ADD MSTORE PUSH1 0x60 ADD JUMPDEST PUSH1 0x40 MLOAD DUP1 SWAP2 SUB SWAP1 RETURN JUMPDEST PUSH2 0xAD PUSH2 0xA8 CALLDATASIZE PUSH1 0x4 PUSH2 0xD1A JUMP JUMPDEST PUSH2 0x280 JUMP JUMPDEST PUSH1 0x40 DUP1 MLOAD SWAP3 DUP4 MSTORE PUSH1 0x20 DUP4 ADD SWAP2 SWAP1 SWAP2 MSTORE ADD PUSH2 0x91 JUMP JUMPDEST PUSH2 0xD5 PUSH2 0xD0 CALLDATASIZE PUSH1 0x4 PUSH2 0xCCF JUMP JUMPDEST PUSH2 0x42A JUMP JUMPDEST PUSH1 0x40 MLOAD SWAP1 DUP2 MSTORE PUSH1 0x20 ADD PUSH2 0x91 JUMP JUMPDEST PUSH2 0xD5 PUSH2 0xF1 CALLDATASIZE PUSH1 0x4 PUSH2 0xD1A JUMP JUMPDEST PUSH2 0x5A4 JUMP JUMPDEST PUSH2 0xAD PUSH2 0x104 CALLDATASIZE PUSH1 0x4 PUSH2 0xD6D JUMP JUMPDEST PUSH2 0x6D0 JUMP JUMPDEST PUSH1 0x0 SLOAD PUSH2 0x11C SWAP1 PUSH1 0x1 PUSH1 0x1 PUSH1 0xA0 SHL SUB AND DUP2 JUMP JUMPDEST PUSH1 0x40 MLOAD PUSH1 0x1 PUSH1 0x1 PUSH1 0xA0 SHL SUB SWAP1 SWAP2 AND DUP2 MSTORE PUSH1 0x20 ADD PUSH2 0x91 JUMP JUMPDEST PUSH1 0x0 DUP1 SLOAD PUSH1 0x40 MLOAD PUSH4 0x260F701F PUSH1 0xE1 SHL DUP2 MSTORE DUP3 SWAP2 DUP3 SWAP2 DUP3 SWAP2 DUP3 SWAP2 DUP3 SWAP2 DUP3 SWAP2 DUP3 SWAP2 PUSH1 0x1 PUSH1 0x1 PUSH1 0xA0 SHL SUB AND SWAP1 PUSH4 0x4C1EE03E SWAP1 PUSH2 0x175 SWAP1 DUP15 SWAP1 DUP15 SWAP1 DUP15 SWAP1 PUSH1 0x4 ADD PUSH2 0xDA4 JUMP JUMPDEST PUSH1 0x20 PUSH1 0x40 MLOAD DUP1 DUP4 SUB DUP2 DUP7 GAS STATICCALL ISZERO DUP1 ISZERO PUSH2 0x192 JUMPI RETURNDATASIZE PUSH1 0x0 DUP1 RETURNDATACOPY RETURNDATASIZE PUSH1 0x0 REVERT JUMPDEST POP POP POP POP PUSH1 0x40 MLOAD RETURNDATASIZE PUSH1 0x1F NOT PUSH1 0x1F DUP3 ADD AND DUP3 ADD DUP1 PUSH1 0x40 MSTORE POP DUP2 ADD SWAP1 PUSH2 0x1B6 SWAP2 SWAP1 PUSH2 0xDC8 JUMP JUMPDEST PUSH1 0x1 PUSH1 0x1 PUSH1 0xA0 SHL SUB AND PUSH4 0x392F37E9 PUSH1 0x40 MLOAD DUP2 PUSH4 0xFFFFFFFF AND PUSH1 0xE0 SHL DUP2 MSTORE PUSH1 0x4 ADD PUSH1 0xE0 PUSH1 0x40 MLOAD DUP1 DUP4 SUB DUP2 DUP7 GAS STATICCALL ISZERO DUP1 ISZERO PUSH2 0x1F3 JUMPI RETURNDATASIZE PUSH1 0x0 DUP1 RETURNDATACOPY RETURNDATASIZE PUSH1 0x0 REVERT JUMPDEST POP POP POP POP PUSH1 0x40 MLOAD RETURNDATASIZE PUSH1 0x1F NOT PUSH1 0x1F DUP3 ADD AND DUP3 ADD DUP1 PUSH1 0x40 MSTORE POP DUP2 ADD SWAP1 PUSH2 0x217 SWAP2 SWAP1 PUSH2 0xDE5 JUMP JUMPDEST POP SWAP6 POP POP SWAP5 POP SWAP5 POP SWAP5 POP SWAP5 POP PUSH1 0x0 DUP2 PUSH1 0x1 PUSH1 0x1 PUSH1 0xA0 SHL SUB AND DUP13 PUSH1 0x1 PUSH1 0x1 PUSH1 0xA0 SHL SUB AND EQ PUSH2 0x258 JUMPI DUP4 PUSH2 0x249 DUP8 DUP6 PUSH2 0xE6F JUMP JUMPDEST PUSH2 0x253 SWAP2 SWAP1 PUSH2 0xE8E JUMP JUMPDEST PUSH2 0x26D JUMP JUMPDEST DUP3 PUSH2 0x263 DUP7 DUP7 PUSH2 0xE6F JUMP JUMPDEST PUSH2 0x26D SWAP2 SWAP1 PUSH2 0xE8E JUMP JUMPDEST SWAP13 SWAP4 SWAP12 POP SWAP2 SWAP10 POP SWAP2 SWAP8 POP POP POP POP POP POP POP POP JUMP JUMPDEST PUSH1 0x0 DUP1 SLOAD PUSH1 0x40 MLOAD PUSH4 0x260F701F PUSH1 0xE1 SHL DUP2 MSTORE DUP3 SWAP2 DUP3 SWAP2 DUP3 SWAP2 DUP3 SWAP2 DUP3 SWAP2 DUP3 SWAP2 DUP3 SWAP2 PUSH1 0x1 PUSH1 0x1 PUSH1 0xA0 SHL SUB AND SWAP1 PUSH4 0x4C1EE03E SWAP1 PUSH2 0x2C1 SWAP1 DUP15 SWAP1 DUP15 SWAP1 DUP15 SWAP1 PUSH1 0x4 ADD PUSH2 0xDA4 JUMP JUMPDEST PUSH1 0x20 PUSH1 0x40 MLOAD DUP1 DUP4 SUB DUP2 DUP7 GAS STATICCALL ISZERO DUP1 ISZERO PUSH2 0x2DE JUMPI RETURNDATASIZE PUSH1 0x0 DUP1 RETURNDATACOPY RETURNDATASIZE PUSH1 0x0 REVERT JUMPDEST POP POP POP POP PUSH1 0x40 MLOAD RETURNDATASIZE PUSH1 0x1F NOT PUSH1 0x1F DUP3 ADD AND DUP3 ADD DUP1 PUSH1 0x40 MSTORE POP DUP2 ADD SWAP1 PUSH2 0x302 SWAP2 SWAP1 PUSH2 0xDC8 JUMP JUMPDEST PUSH1 0x1 PUSH1 0x1 PUSH1 0xA0 SHL SUB AND PUSH4 0x392F37E9 PUSH1 0x40 MLOAD DUP2 PUSH4 0xFFFFFFFF AND PUSH1 0xE0 SHL DUP2 MSTORE PUSH1 0x4 ADD PUSH1 0xE0 PUSH1 0x40 MLOAD DUP1 DUP4 SUB DUP2 DUP7 GAS STATICCALL ISZERO DUP1 ISZERO PUSH2 0x33F JUMPI RETURNDATASIZE PUSH1 0x0 DUP1 RETURNDATACOPY RETURNDATASIZE PUSH1 0x0 REVERT JUMPDEST POP POP POP POP PUSH1 0x40 MLOAD RETURNDATASIZE PUSH1 0x1F NOT PUSH1 0x1F DUP3 ADD AND DUP3 ADD DUP1 PUSH1 0x40 MSTORE POP DUP2 ADD SWAP1 PUSH2 0x363 SWAP2 SWAP1 PUSH2 0xDE5 JUMP JUMPDEST POP SWAP6 POP SWAP6 POP SWAP6 POP SWAP6 POP SWAP6 POP SWAP6 POP PUSH1 0x0 DUP2 PUSH1 0x1 PUSH1 0x1 PUSH1 0xA0 SHL SUB AND DUP13 PUSH1 0x1 PUSH1 0x1 PUSH1 0xA0 SHL SUB AND EQ PUSH2 0x3A5 JUMPI DUP5 PUSH2 0x396 DUP9 DUP7 PUSH2 0xE6F JUMP JUMPDEST PUSH2 0x3A0 SWAP2 SWAP1 PUSH2 0xE8E JUMP JUMPDEST PUSH2 0x3BA JUMP JUMPDEST DUP4 PUSH2 0x3B0 DUP8 DUP8 PUSH2 0xE6F JUMP JUMPDEST PUSH2 0x3BA SWAP2 SWAP1 PUSH2 0xE8E JUMP JUMPDEST SWAP1 POP DUP1 PUSH2 0x3CD DUP3 DUP15 DUP9 DUP9 DUP8 DUP14 DUP14 DUP12 PUSH2 0x804 JUMP JUMPDEST PUSH2 0x3DF SWAP1 PUSH8 0xDE0B6B3A7640000 PUSH2 0xE6F JUMP JUMPDEST PUSH2 0x3E9 SWAP2 SWAP1 PUSH2 0xE8E JUMP JUMPDEST SWAP9 POP DUP13 PUSH2 0x3FC DUP15 DUP15 DUP9 DUP9 DUP8 DUP14 DUP14 DUP12 PUSH2 0x804 JUMP JUMPDEST PUSH2 0x40E SWAP1 PUSH8 0xDE0B6B3A7640000 PUSH2 0xE6F JUMP JUMPDEST PUSH2 0x418 SWAP2 SWAP1 PUSH2 0xE8E JUMP JUMPDEST SWAP8 POP POP POP POP POP POP POP POP SWAP5 POP SWAP5 SWAP3 POP POP POP JUMP JUMPDEST PUSH1 0x0 DUP1 SLOAD PUSH1 0x40 MLOAD PUSH4 0x260F701F PUSH1 0xE1 SHL DUP2 MSTORE DUP3 SWAP2 DUP3 SWAP2 DUP3 SWAP2 DUP3 SWAP2 DUP3 SWAP2 DUP3 SWAP2 PUSH1 0x1 PUSH1 0x1 PUSH1 0xA0 SHL SUB SWAP1 SWAP2 AND SWAP1 PUSH4 0x4C1EE03E SWAP1 PUSH2 0x46B SWAP1 DUP14 SWAP1 DUP14 SWAP1 DUP14 SWAP1 PUSH1 0x4 ADD PUSH2 0xDA4 JUMP JUMPDEST PUSH1 0x20 PUSH1 0x40 MLOAD DUP1 DUP4 SUB DUP2 DUP7 GAS STATICCALL ISZERO DUP1 ISZERO PUSH2 0x488 JUMPI RETURNDATASIZE PUSH1 0x0 DUP1 RETURNDATACOPY RETURNDATASIZE PUSH1 0x0 REVERT JUMPDEST POP POP POP POP PUSH1 0x40 MLOAD RETURNDATASIZE PUSH1 0x1F NOT PUSH1 0x1F DUP3 ADD AND DUP3 ADD DUP1 PUSH1 0x40 MSTORE POP DUP2 ADD SWAP1 PUSH2 0x4AC SWAP2 SWAP1 PUSH2 0xDC8 JUMP JUMPDEST PUSH1 0x1 PUSH1 0x1 PUSH1 0xA0 SHL SUB AND PUSH4 0x392F37E9 PUSH1 0x40 MLOAD DUP2 PUSH4 0xFFFFFFFF AND PUSH1 0xE0 SHL DUP2 MSTORE PUSH1 0x4 ADD PUSH1 0xE0 PUSH1 0x40 MLOAD DUP1 DUP4 SUB DUP2 DUP7 GAS STATICCALL ISZERO DUP1 ISZERO PUSH2 0x4E9 JUMPI RETURNDATASIZE PUSH1 0x0 DUP1 RETURNDATACOPY RETURNDATASIZE PUSH1 0x0 REVERT JUMPDEST POP POP POP POP PUSH1 0x40 MLOAD RETURNDATASIZE PUSH1 0x1F NOT PUSH1 0x1F DUP3 ADD AND DUP3 ADD DUP1 PUSH1 0x40 MSTORE POP DUP2 ADD SWAP1 PUSH2 0x50D SWAP2 SWAP1 PUSH2 0xDE5 JUMP JUMPDEST POP SWAP6 POP SWAP6 POP SWAP6 POP SWAP6 POP SWAP6 POP SWAP6 POP PUSH1 0x0 DUP2 PUSH1 0x1 PUSH1 0x1 PUSH1 0xA0 SHL SUB AND DUP12 PUSH1 0x1 PUSH1 0x1 PUSH1 0xA0 SHL SUB AND EQ PUSH2 0x54F JUMPI DUP5 PUSH2 0x540 DUP9 DUP7 PUSH2 0xE6F JUMP JUMPDEST PUSH2 0x54A SWAP2 SWAP1 PUSH2 0xE8E JUMP JUMPDEST PUSH2 0x564 JUMP JUMPDEST DUP4 PUSH2 0x55A DUP8 DUP8 PUSH2 0xE6F JUMP JUMPDEST PUSH2 0x564 SWAP2 SWAP1 PUSH2 0xE8E JUMP JUMPDEST SWAP1 POP DUP1 PUSH2 0x577 DUP3 DUP14 DUP9 DUP9 DUP8 DUP14 DUP14 DUP12 PUSH2 0x804 JUMP JUMPDEST PUSH2 0x589 SWAP1 PUSH8 0xDE0B6B3A7640000 PUSH2 0xE6F JUMP JUMPDEST PUSH2 0x593 SWAP2 SWAP1 PUSH2 0xE8E JUMP JUMPDEST SWAP8 POP POP POP POP POP POP POP POP JUMPDEST SWAP4 SWAP3 POP POP POP JUMP JUMPDEST PUSH1 0x0 DUP1 SLOAD PUSH1 0x40 MLOAD PUSH4 0x260F701F PUSH1 0xE1 SHL DUP2 MSTORE DUP3 SWAP2 DUP3 SWAP2 DUP3 SWAP2 DUP3 SWAP2 DUP3 SWAP2 DUP3 SWAP2 PUSH1 0x1 PUSH1 0x1 PUSH1 0xA0 SHL SUB SWAP1 SWAP2 AND SWAP1 PUSH4 0x4C1EE03E SWAP1 PUSH2 0x5E5 SWAP1 DUP14 SWAP1 DUP14 SWAP1 DUP14 SWAP1 PUSH1 0x4 ADD PUSH2 0xDA4 JUMP JUMPDEST PUSH1 0x20 PUSH1 0x40 MLOAD DUP1 DUP4 SUB DUP2 DUP7 GAS STATICCALL ISZERO DUP1 ISZERO PUSH2 0x602 JUMPI RETURNDATASIZE PUSH1 0x0 DUP1 RETURNDATACOPY RETURNDATASIZE PUSH1 0x0 REVERT JUMPDEST POP POP POP POP PUSH1 0x40 MLOAD RETURNDATASIZE PUSH1 0x1F NOT PUSH1 0x1F DUP3 ADD AND DUP3 ADD DUP1 PUSH1 0x40 MSTORE POP DUP2 ADD SWAP1 PUSH2 0x626 SWAP2 SWAP1 PUSH2 0xDC8 JUMP JUMPDEST PUSH1 0x1 PUSH1 0x1 PUSH1 0xA0 SHL SUB AND PUSH4 0x392F37E9 PUSH1 0x40 MLOAD DUP2 PUSH4 0xFFFFFFFF AND PUSH1 0xE0 SHL DUP2 MSTORE PUSH1 0x4 ADD PUSH1 0xE0 PUSH1 0x40 MLOAD DUP1 DUP4 SUB DUP2 DUP7 GAS STATICCALL ISZERO DUP1 ISZERO PUSH2 0x663 JUMPI RETURNDATASIZE PUSH1 0x0 DUP1 RETURNDATACOPY RETURNDATASIZE PUSH1 0x0 REVERT JUMPDEST POP POP POP POP PUSH1 0x40 MLOAD RETURNDATASIZE PUSH1 0x1F NOT PUSH1 0x1F DUP3 ADD AND DUP3 ADD DUP1 PUSH1 0x40 MSTORE POP DUP2 ADD SWAP1 PUSH2 0x687 SWAP2 SWAP1 PUSH2 0xDE5 JUMP JUMPDEST POP SWAP6 POP SWAP6 POP SWAP6 POP SWAP6 POP SWAP6 POP SWAP6 POP DUP11 PUSH2 0x6A5 DUP13 DUP13 DUP8 DUP8 DUP7 DUP13 DUP13 DUP11 PUSH2 0x804 JUMP JUMPDEST PUSH2 0x6B7 SWAP1 PUSH8 0xDE0B6B3A7640000 PUSH2 0xE6F JUMP JUMPDEST PUSH2 0x6C1 SWAP2 SWAP1 PUSH2 0xE8E JUMP JUMPDEST SWAP12 SWAP11 POP POP POP POP POP POP POP POP POP POP POP JUMP JUMPDEST PUSH1 0x0 DUP1 PUSH1 0x0 DUP1 PUSH1 0x0 DUP1 PUSH1 0x0 DUP1 DUP9 PUSH1 0x1 PUSH1 0x1 PUSH1 0xA0 SHL SUB AND PUSH4 0x392F37E9 PUSH1 0x40 MLOAD DUP2 PUSH4 0xFFFFFFFF AND PUSH1 0xE0 SHL DUP2 MSTORE PUSH1 0x4 ADD PUSH1 0xE0 PUSH1 0x40 MLOAD DUP1 DUP4 SUB DUP2 DUP7 GAS STATICCALL ISZERO DUP1 ISZERO PUSH2 0x71A JUMPI RETURNDATASIZE PUSH1 0x0 DUP1 RETURNDATACOPY RETURNDATASIZE PUSH1 0x0 REVERT JUMPDEST POP POP POP POP PUSH1 0x40 MLOAD RETURNDATASIZE PUSH1 0x1F NOT PUSH1 0x1F DUP3 ADD AND DUP3 ADD DUP1 PUSH1 0x40 MSTORE POP DUP2 ADD SWAP1 PUSH2 0x73E SWAP2 SWAP1 PUSH2 0xDE5 JUMP JUMPDEST POP SWAP6 POP SWAP6 POP SWAP6 POP SWAP6 POP SWAP6 POP SWAP6 POP PUSH1 0x0 DUP2 PUSH1 0x1 PUSH1 0x1 PUSH1 0xA0 SHL SUB AND DUP12 PUSH1 0x1 PUSH1 0x1 PUSH1 0xA0 SHL SUB AND EQ PUSH2 0x780 JUMPI DUP5 PUSH2 0x771 DUP9 DUP7 PUSH2 0xE6F JUMP JUMPDEST PUSH2 0x77B SWAP2 SWAP1 PUSH2 0xE8E JUMP JUMPDEST PUSH2 0x795 JUMP JUMPDEST DUP4 PUSH2 0x78B DUP8 DUP8 PUSH2 0xE6F JUMP JUMPDEST PUSH2 0x795 SWAP2 SWAP1 PUSH2 0xE8E JUMP JUMPDEST SWAP1 POP DUP1 PUSH2 0x7A8 DUP3 DUP14 DUP9 DUP9 DUP8 DUP14 DUP14 DUP12 PUSH2 0x804 JUMP JUMPDEST PUSH2 0x7BA SWAP1 PUSH8 0xDE0B6B3A7640000 PUSH2 0xE6F JUMP JUMPDEST PUSH2 0x7C4 SWAP2 SWAP1 PUSH2 0xE8E JUMP JUMPDEST SWAP9 POP DUP12 PUSH2 0x7D7 DUP14 DUP14 DUP9 DUP9 DUP8 DUP14 DUP14 DUP12 PUSH2 0x804 JUMP JUMPDEST PUSH2 0x7E9 SWAP1 PUSH8 0xDE0B6B3A7640000 PUSH2 0xE6F JUMP JUMPDEST PUSH2 0x7F3 SWAP2 SWAP1 PUSH2 0xE8E JUMP JUMPDEST SWAP8 POP POP POP POP POP POP POP POP SWAP4 POP SWAP4 SWAP2 POP POP JUMP JUMPDEST PUSH1 0x0 DUP2 ISZERO PUSH2 0x94A JUMPI PUSH1 0x0 PUSH2 0x81B DUP9 DUP9 DUP6 DUP9 DUP9 PUSH2 0x9A4 JUMP JUMPDEST SWAP1 POP DUP5 PUSH2 0x830 DUP10 PUSH8 0xDE0B6B3A7640000 PUSH2 0xE6F JUMP JUMPDEST PUSH2 0x83A SWAP2 SWAP1 PUSH2 0xE8E JUMP JUMPDEST SWAP8 POP DUP4 PUSH2 0x84F DUP9 PUSH8 0xDE0B6B3A7640000 PUSH2 0xE6F JUMP JUMPDEST PUSH2 0x859 SWAP2 SWAP1 PUSH2 0xE8E JUMP JUMPDEST SWAP7 POP PUSH1 0x0 DUP1 DUP8 PUSH1 0x1 PUSH1 0x1 PUSH1 0xA0 SHL SUB AND DUP12 PUSH1 0x1 PUSH1 0x1 PUSH1 0xA0 SHL SUB AND EQ PUSH2 0x87E JUMPI DUP9 DUP11 PUSH2 0x881 JUMP JUMPDEST DUP10 DUP10 JUMPDEST SWAP2 POP SWAP2 POP DUP8 PUSH1 0x1 PUSH1 0x1 PUSH1 0xA0 SHL SUB AND DUP12 PUSH1 0x1 PUSH1 0x1 PUSH1 0xA0 SHL SUB AND EQ PUSH2 0x8C0 JUMPI DUP6 PUSH2 0x8B1 DUP14 PUSH8 0xDE0B6B3A7640000 PUSH2 0xE6F JUMP JUMPDEST PUSH2 0x8BB SWAP2 SWAP1 PUSH2 0xE8E JUMP JUMPDEST PUSH2 0x8DD JUMP JUMPDEST DUP7 PUSH2 0x8D3 DUP14 PUSH8 0xDE0B6B3A7640000 PUSH2 0xE6F JUMP JUMPDEST PUSH2 0x8DD SWAP2 SWAP1 PUSH2 0xE8E JUMP JUMPDEST SWAP12 POP PUSH1 0x0 PUSH2 0x8F5 PUSH2 0x8EE DUP5 DUP16 PUSH2 0xEB0 JUMP JUMPDEST DUP6 DUP5 PUSH2 0xA95 JUMP JUMPDEST PUSH2 0x8FF SWAP1 DUP4 PUSH2 0xEC8 JUMP JUMPDEST SWAP1 POP PUSH8 0xDE0B6B3A7640000 DUP10 PUSH1 0x1 PUSH1 0x1 PUSH1 0xA0 SHL SUB AND DUP14 PUSH1 0x1 PUSH1 0x1 PUSH1 0xA0 SHL SUB AND EQ PUSH2 0x929 JUMPI DUP9 PUSH2 0x92B JUMP JUMPDEST DUP8 JUMPDEST PUSH2 0x935 SWAP1 DUP4 PUSH2 0xE6F JUMP JUMPDEST PUSH2 0x93F SWAP2 SWAP1 PUSH2 0xE8E JUMP JUMPDEST SWAP5 POP POP POP POP POP PUSH2 0x998 JUMP JUMPDEST PUSH1 0x0 DUP1 DUP7 PUSH1 0x1 PUSH1 0x1 PUSH1 0xA0 SHL SUB AND DUP11 PUSH1 0x1 PUSH1 0x1 PUSH1 0xA0 SHL SUB AND EQ PUSH2 0x96D JUMPI DUP8 DUP10 PUSH2 0x970 JUMP JUMPDEST DUP9 DUP9 JUMPDEST SWAP1 SWAP3 POP SWAP1 POP PUSH2 0x97F DUP12 DUP4 PUSH2 0xEB0 JUMP JUMPDEST PUSH2 0x989 DUP3 DUP14 PUSH2 0xE6F JUMP JUMPDEST PUSH2 0x993 SWAP2 SWAP1 PUSH2 0xE8E JUMP JUMPDEST SWAP3 POP POP POP JUMPDEST SWAP9 SWAP8 POP POP POP POP POP POP POP POP JUMP JUMPDEST PUSH1 0x0 DUP4 ISZERO PUSH2 0xA7F JUMPI PUSH1 0x0 DUP4 PUSH2 0x9C1 DUP9 PUSH8 0xDE0B6B3A7640000 PUSH2 0xE6F JUMP JUMPDEST PUSH2 0x9CB SWAP2 SWAP1 PUSH2 0xE8E JUMP JUMPDEST SWAP1 POP PUSH1 0x0 DUP4 PUSH2 0x9E2 DUP9 PUSH8 0xDE0B6B3A7640000 PUSH2 0xE6F JUMP JUMPDEST PUSH2 0x9EC SWAP2 SWAP1 PUSH2 0xE8E JUMP JUMPDEST SWAP1 POP PUSH1 0x0 PUSH8 0xDE0B6B3A7640000 PUSH2 0xA03 DUP4 DUP6 PUSH2 0xE6F JUMP JUMPDEST PUSH2 0xA0D SWAP2 SWAP1 PUSH2 0xE8E JUMP JUMPDEST SWAP1 POP PUSH1 0x0 PUSH8 0xDE0B6B3A7640000 PUSH2 0xA24 DUP5 DUP1 PUSH2 0xE6F JUMP JUMPDEST PUSH2 0xA2E SWAP2 SWAP1 PUSH2 0xE8E JUMP JUMPDEST PUSH8 0xDE0B6B3A7640000 PUSH2 0xA41 DUP7 DUP1 PUSH2 0xE6F JUMP JUMPDEST PUSH2 0xA4B SWAP2 SWAP1 PUSH2 0xE8E JUMP JUMPDEST PUSH2 0xA55 SWAP2 SWAP1 PUSH2 0xEB0 JUMP JUMPDEST SWAP1 POP PUSH8 0xDE0B6B3A7640000 PUSH2 0xA6A DUP3 DUP5 PUSH2 0xE6F JUMP JUMPDEST PUSH2 0xA74 SWAP2 SWAP1 PUSH2 0xE8E JUMP JUMPDEST SWAP5 POP POP POP POP POP PUSH2 0xA8C JUMP JUMPDEST PUSH2 0xA89 DUP6 DUP8 PUSH2 0xE6F JUMP JUMPDEST SWAP1 POP JUMPDEST SWAP6 SWAP5 POP POP POP POP POP JUMP JUMPDEST PUSH1 0x0 DUP1 JUMPDEST PUSH1 0xFF DUP2 LT ISZERO PUSH2 0xB9B JUMPI DUP3 PUSH1 0x0 PUSH2 0xAAF DUP8 DUP4 PUSH2 0xBA4 JUMP JUMPDEST SWAP1 POP DUP6 DUP2 LT ISZERO PUSH2 0xAFF JUMPI PUSH1 0x0 PUSH2 0xAC5 DUP9 DUP8 PUSH2 0xC41 JUMP JUMPDEST PUSH2 0xACF DUP4 DUP10 PUSH2 0xEC8 JUMP JUMPDEST PUSH2 0xAE1 SWAP1 PUSH8 0xDE0B6B3A7640000 PUSH2 0xE6F JUMP JUMPDEST PUSH2 0xAEB SWAP2 SWAP1 PUSH2 0xE8E JUMP JUMPDEST SWAP1 POP PUSH2 0xAF7 DUP2 DUP8 PUSH2 0xEB0 JUMP JUMPDEST SWAP6 POP POP PUSH2 0xB41 JUMP JUMPDEST PUSH1 0x0 PUSH2 0xB0B DUP9 DUP8 PUSH2 0xC41 JUMP JUMPDEST PUSH2 0xB15 DUP9 DUP5 PUSH2 0xEC8 JUMP JUMPDEST PUSH2 0xB27 SWAP1 PUSH8 0xDE0B6B3A7640000 PUSH2 0xE6F JUMP JUMPDEST PUSH2 0xB31 SWAP2 SWAP1 PUSH2 0xE8E JUMP JUMPDEST SWAP1 POP PUSH2 0xB3D DUP2 DUP8 PUSH2 0xEC8 JUMP JUMPDEST SWAP6 POP POP JUMPDEST DUP2 DUP6 GT ISZERO PUSH2 0xB6A JUMPI PUSH1 0x1 PUSH2 0xB55 DUP4 DUP8 PUSH2 0xEC8 JUMP JUMPDEST GT PUSH2 0xB65 JUMPI DUP5 SWAP4 POP POP POP POP PUSH2 0x59D JUMP JUMPDEST PUSH2 0xB86 JUMP JUMPDEST PUSH1 0x1 PUSH2 0xB76 DUP7 DUP5 PUSH2 0xEC8 JUMP JUMPDEST GT PUSH2 0xB86 JUMPI DUP5 SWAP4 POP POP POP POP PUSH2 0x59D JUMP JUMPDEST POP POP DUP1 DUP1 PUSH2 0xB93 SWAP1 PUSH2 0xEDF JUMP JUMPDEST SWAP2 POP POP PUSH2 0xA99 JUMP JUMPDEST POP SWAP1 SWAP4 SWAP3 POP POP POP JUMP JUMPDEST PUSH1 0x0 PUSH8 0xDE0B6B3A7640000 DUP3 DUP2 DUP6 DUP2 PUSH2 0xBBD DUP3 DUP1 PUSH2 0xE6F JUMP JUMPDEST PUSH2 0xBC7 SWAP2 SWAP1 PUSH2 0xE8E JUMP JUMPDEST PUSH2 0xBD1 SWAP2 SWAP1 PUSH2 0xE6F JUMP JUMPDEST PUSH2 0xBDB SWAP2 SWAP1 PUSH2 0xE8E JUMP JUMPDEST PUSH2 0xBE5 SWAP2 SWAP1 PUSH2 0xE6F JUMP JUMPDEST PUSH2 0xBEF SWAP2 SWAP1 PUSH2 0xE8E JUMP JUMPDEST PUSH8 0xDE0B6B3A7640000 DUP1 DUP5 DUP2 PUSH2 0xC05 DUP3 DUP1 PUSH2 0xE6F JUMP JUMPDEST PUSH2 0xC0F SWAP2 SWAP1 PUSH2 0xE8E JUMP JUMPDEST PUSH2 0xC19 SWAP2 SWAP1 PUSH2 0xE6F JUMP JUMPDEST PUSH2 0xC23 SWAP2 SWAP1 PUSH2 0xE8E JUMP JUMPDEST PUSH2 0xC2D SWAP1 DUP7 PUSH2 0xE6F JUMP JUMPDEST PUSH2 0xC37 SWAP2 SWAP1 PUSH2 0xE8E JUMP JUMPDEST PUSH2 0x59D SWAP2 SWAP1 PUSH2 0xEB0 JUMP JUMPDEST PUSH1 0x0 PUSH8 0xDE0B6B3A7640000 DUP4 DUP2 PUSH2 0xC58 DUP3 DUP1 PUSH2 0xE6F JUMP JUMPDEST PUSH2 0xC62 SWAP2 SWAP1 PUSH2 0xE8E JUMP JUMPDEST PUSH2 0xC6C SWAP2 SWAP1 PUSH2 0xE6F JUMP JUMPDEST PUSH2 0xC76 SWAP2 SWAP1 PUSH2 0xE8E JUMP JUMPDEST PUSH8 0xDE0B6B3A7640000 DUP1 PUSH2 0xC8A DUP6 DUP1 PUSH2 0xE6F JUMP JUMPDEST PUSH2 0xC94 SWAP2 SWAP1 PUSH2 0xE8E JUMP JUMPDEST PUSH2 0xC9F DUP7 PUSH1 0x3 PUSH2 0xE6F JUMP JUMPDEST PUSH2 0xC2D SWAP2 SWAP1 PUSH2 0xE6F JUMP JUMPDEST PUSH1 0x1 PUSH1 0x1 PUSH1 0xA0 SHL SUB DUP2 AND DUP2 EQ PUSH2 0xCBE JUMPI PUSH1 0x0 DUP1 REVERT JUMPDEST POP JUMP JUMPDEST DUP1 ISZERO ISZERO DUP2 EQ PUSH2 0xCBE JUMPI PUSH1 0x0 DUP1 REVERT JUMPDEST PUSH1 0x0 DUP1 PUSH1 0x0 PUSH1 0x60 DUP5 DUP7 SUB SLT ISZERO PUSH2 0xCE4 JUMPI PUSH1 0x0 DUP1 REVERT JUMPDEST DUP4 CALLDATALOAD PUSH2 0xCEF DUP2 PUSH2 0xCA9 JUMP JUMPDEST SWAP3 POP PUSH1 0x20 DUP5 ADD CALLDATALOAD PUSH2 0xCFF DUP2 PUSH2 0xCA9 JUMP JUMPDEST SWAP2 POP PUSH1 0x40 DUP5 ADD CALLDATALOAD PUSH2 0xD0F DUP2 PUSH2 0xCC1 JUMP JUMPDEST DUP1 SWAP2 POP POP SWAP3 POP SWAP3 POP SWAP3 JUMP JUMPDEST PUSH1 0x0 DUP1 PUSH1 0x0 DUP1 PUSH1 0x80 DUP6 DUP8 SUB SLT ISZERO PUSH2 0xD30 JUMPI PUSH1 0x0 DUP1 REVERT JUMPDEST DUP5 CALLDATALOAD SWAP4 POP PUSH1 0x20 DUP6 ADD CALLDATALOAD PUSH2 0xD42 DUP2 PUSH2 0xCA9 JUMP JUMPDEST SWAP3 POP PUSH1 0x40 DUP6 ADD CALLDATALOAD PUSH2 0xD52 DUP2 PUSH2 0xCA9 JUMP JUMPDEST SWAP2 POP PUSH1 0x60 DUP6 ADD CALLDATALOAD PUSH2 0xD62 DUP2 PUSH2 0xCC1 JUMP JUMPDEST SWAP4 SWAP7 SWAP3 SWAP6 POP SWAP1 SWAP4 POP POP JUMP JUMPDEST PUSH1 0x0 DUP1 PUSH1 0x0 PUSH1 0x60 DUP5 DUP7 SUB SLT ISZERO PUSH2 0xD82 JUMPI PUSH1 0x0 DUP1 REVERT JUMPDEST DUP4 CALLDATALOAD SWAP3 POP PUSH1 0x20 DUP5 ADD CALLDATALOAD PUSH2 0xD94 DUP2 PUSH2 0xCA9 JUMP JUMPDEST SWAP2 POP PUSH1 0x40 DUP5 ADD CALLDATALOAD PUSH2 0xD0F DUP2 PUSH2 0xCA9 JUMP JUMPDEST PUSH1 0x1 PUSH1 0x1 PUSH1 0xA0 SHL SUB SWAP4 DUP5 AND DUP2 MSTORE SWAP2 SWAP1 SWAP3 AND PUSH1 0x20 DUP3 ADD MSTORE SWAP1 ISZERO ISZERO PUSH1 0x40 DUP3 ADD MSTORE PUSH1 0x60 ADD SWAP1 JUMP JUMPDEST PUSH1 0x0 PUSH1 0x20 DUP3 DUP5 SUB SLT ISZERO PUSH2 0xDDA JUMPI PUSH1 0x0 DUP1 REVERT JUMPDEST DUP2 MLOAD PUSH2 0x59D DUP2 PUSH2 0xCA9 JUMP JUMPDEST PUSH1 0x0 DUP1 PUSH1 0x0 DUP1 PUSH1 0x0 DUP1 PUSH1 0x0 PUSH1 0xE0 DUP9 DUP11 SUB SLT ISZERO PUSH2 0xE00 JUMPI PUSH1 0x0 DUP1 REVERT JUMPDEST DUP8 MLOAD SWAP7 POP PUSH1 0x20 DUP9 ADD MLOAD SWAP6 POP PUSH1 0x40 DUP9 ADD MLOAD SWAP5 POP PUSH1 0x60 DUP9 ADD MLOAD SWAP4 POP PUSH1 0x80 DUP9 ADD MLOAD PUSH2 0xE27 DUP2 PUSH2 0xCC1 JUMP JUMPDEST PUSH1 0xA0 DUP10 ADD MLOAD SWAP1 SWAP4 POP PUSH2 0xE38 DUP2 PUSH2 0xCA9 JUMP JUMPDEST PUSH1 0xC0 DUP10 ADD MLOAD SWAP1 SWAP3 POP PUSH2 0xE49 DUP2 PUSH2 0xCA9 JUMP JUMPDEST DUP1 SWAP2 POP POP SWAP3 SWAP6 SWAP9 SWAP2 SWAP5 SWAP8 POP SWAP3 SWAP6 POP JUMP JUMPDEST PUSH4 0x4E487B71 PUSH1 0xE0 SHL PUSH1 0x0 MSTORE PUSH1 0x11 PUSH1 0x4 MSTORE PUSH1 0x24 PUSH1 0x0 REVERT JUMPDEST PUSH1 0x0 DUP2 PUSH1 0x0 NOT DIV DUP4 GT DUP3 ISZERO ISZERO AND ISZERO PUSH2 0xE89 JUMPI PUSH2 0xE89 PUSH2 0xE59 JUMP JUMPDEST POP MUL SWAP1 JUMP JUMPDEST PUSH1 0x0 DUP3 PUSH2 0xEAB JUMPI PUSH4 0x4E487B71 PUSH1 0xE0 SHL PUSH1 0x0 MSTORE PUSH1 0x12 PUSH1 0x4 MSTORE PUSH1 0x24 PUSH1 0x0 REVERT JUMPDEST POP DIV SWAP1 JUMP JUMPDEST PUSH1 0x0 DUP3 NOT DUP3 GT ISZERO PUSH2 0xEC3 JUMPI PUSH2 0xEC3 PUSH2 0xE59 JUMP JUMPDEST POP ADD SWAP1 JUMP JUMPDEST PUSH1 0x0 DUP3 DUP3 LT ISZERO PUSH2 0xEDA JUMPI PUSH2 0xEDA PUSH2 0xE59 JUMP JUMPDEST POP SUB SWAP1 JUMP JUMPDEST PUSH1 0x0 PUSH1 0x0 NOT DUP3 EQ ISZERO PUSH2 0xEF3 JUMPI PUSH2 0xEF3 PUSH2 0xE59 JUMP JUMPDEST POP PUSH1 0x1 ADD SWAP1 JUMP INVALID LOG2 PUSH5 0x6970667358 0x22 SLT KECCAK256 0xF DIV 0xC8 PUSH16 0xE7F5DAAFC12EDB8863F49D13910B82BD INVALID 0x28 SLOAD LOG2 DUP2 0x26 SUB PUSH30 0xA02B8F5D64736F6C634300080B0033000000000000000000000000000000 "
        },
        "methodIdentifiers": {
          "getAmountOut(uint256,address,address,bool)": "da214231",
          "getMinimumValue(address,address,bool)": "52500733",
          "getSample(address,address,bool)": "be3b428e",
          "getTradeDiff(uint256,address,address)": "ec323c00",
          "getTradeDiff(uint256,address,address,bool)": "865db5e2",
          "router()": "f887ea40"
        }
      }
    }
  }
}