{
  "contracts/FetchFormulaMock.sol": {
    "FetchFormulaMock": {
      "abi": [
        {
          "inputs": [],
          "name": "bonus",
          "outputs": [
            {
              "internalType": "uint256",
              "name": "",
              "type": "uint256"
            }
          ],
          "stateMutability": "view",
          "type": "function"
        },
        {
          "inputs": [],
          "name": "bonusPercent",
          "outputs": [
            {
              "internalType": "uint256",
              "name": "",
              "type": "uint256"
            }
          ],
          "stateMutability": "view",
          "type": "function"
        },
        {
          "inputs": [
            {
              "internalType": "uint256",
              "name": "_bonus",
              "type": "uint256"
            }
          ],
          "name": "updateBonusPercent",
          "outputs": [],
          "stateMutability": "nonpayable",
          "type": "function"
        }
      ],
      "evm": {
        "bytecode": {
          "linkReferences": {},
          "object": "6080604052606460005534801561001557600080fd5b5060c2806100246000396000f3fe6080604052348015600f57600080fd5b5060043610603c5760003560e01c806375b4d78c146041578063becf3add14605b578063ee8e993c146062575b600080fd5b604960005481565b60405190815260200160405180910390f35b6000546049565b6072606d3660046074565b600055565b005b600060208284031215608557600080fd5b503591905056fea2646970667358221220869b1804245074e8690d99259ffd0e8333535ab4ff792de07b6b3b7d14b8bfd164736f6c634300080b0033",
          "opcodes": "PUSH1 0x80 PUSH1 0x40 MSTORE PUSH1 0x64 PUSH1 0x0 SSTORE CALLVALUE DUP1 ISZERO PUSH2 0x15 JUMPI PUSH1 0x0 DUP1 REVERT JUMPDEST POP PUSH1 0xC2 DUP1 PUSH2 0x24 PUSH1 0x0 CODECOPY PUSH1 0x0 RETURN INVALID PUSH1 0x80 PUSH1 0x40 MSTORE CALLVALUE DUP1 ISZERO PUSH1 0xF JUMPI PUSH1 0x0 DUP1 REVERT JUMPDEST POP PUSH1 0x4 CALLDATASIZE LT PUSH1 0x3C JUMPI PUSH1 0x0 CALLDATALOAD PUSH1 0xE0 SHR DUP1 PUSH4 0x75B4D78C EQ PUSH1 0x41 JUMPI DUP1 PUSH4 0xBECF3ADD EQ PUSH1 0x5B JUMPI DUP1 PUSH4 0xEE8E993C EQ PUSH1 0x62 JUMPI JUMPDEST PUSH1 0x0 DUP1 REVERT JUMPDEST PUSH1 0x49 PUSH1 0x0 SLOAD DUP2 JUMP JUMPDEST PUSH1 0x40 MLOAD SWAP1 DUP2 MSTORE PUSH1 0x20 ADD PUSH1 0x40 MLOAD DUP1 SWAP2 SUB SWAP1 RETURN JUMPDEST PUSH1 0x0 SLOAD PUSH1 0x49 JUMP JUMPDEST PUSH1 0x72 PUSH1 0x6D CALLDATASIZE PUSH1 0x4 PUSH1 0x74 JUMP JUMPDEST PUSH1 0x0 SSTORE JUMP JUMPDEST STOP JUMPDEST PUSH1 0x0 PUSH1 0x20 DUP3 DUP5 SUB SLT ISZERO PUSH1 0x85 JUMPI PUSH1 0x0 DUP1 REVERT JUMPDEST POP CALLDATALOAD SWAP2 SWAP1 POP JUMP INVALID LOG2 PUSH5 0x6970667358 0x22 SLT KECCAK256 DUP7 SWAP12 XOR DIV 0x24 POP PUSH21 0xE8690D99259FFD0E8333535AB4FF792DE07B6B3B7D EQ 0xB8 0xBF 0xD1 PUSH5 0x736F6C6343 STOP ADDMOD SIGNEXTEND STOP CALLER "
        },
        "methodIdentifiers": {
          "bonus()": "75b4d78c",
          "bonusPercent()": "becf3add",
          "updateBonusPercent(uint256)": "ee8e993c"
        }
      }
    }
  }
}