{
  "contracts/BaseV1-periphery.sol": {
    "BaseV1Router01": {
      "abi": [
        {
          "inputs": [
            {
              "internalType": "address",
              "name": "_factory",
              "type": "address"
            },
            {
              "internalType": "address",
              "name": "_wftm",
              "type": "address"
            }
          ],
          "stateMutability": "nonpayable",
          "type": "constructor"
        },
        {
          "inputs": [
            {
              "internalType": "uint256[]",
              "name": "amounts",
              "type": "uint256[]"
            },
            {
              "components": [
                {
                  "internalType": "address",
                  "name": "from",
                  "type": "address"
                },
                {
                  "internalType": "address",
                  "name": "to",
                  "type": "address"
                },
                {
                  "internalType": "bool",
                  "name": "stable",
                  "type": "bool"
                }
              ],
              "internalType": "struct BaseV1Router01.route[]",
              "name": "routes",
              "type": "tuple[]"
            },
            {
              "internalType": "address",
              "name": "to",
              "type": "address"
            },
            {
              "internalType": "uint256",
              "name": "deadline",
              "type": "uint256"
            }
          ],
          "name": "UNSAFE_swapExactTokensForTokens",
          "outputs": [
            {
              "internalType": "uint256[]",
              "name": "",
              "type": "uint256[]"
            }
          ],
          "stateMutability": "nonpayable",
          "type": "function"
        },
        {
          "inputs": [
            {
              "internalType": "address",
              "name": "tokenA",
              "type": "address"
            },
            {
              "internalType": "address",
              "name": "tokenB",
              "type": "address"
            },
            {
              "internalType": "bool",
              "name": "stable",
              "type": "bool"
            },
            {
              "internalType": "uint256",
              "name": "amountADesired",
              "type": "uint256"
            },
            {
              "internalType": "uint256",
              "name": "amountBDesired",
              "type": "uint256"
            },
            {
              "internalType": "uint256",
              "name": "amountAMin",
              "type": "uint256"
            },
            {
              "internalType": "uint256",
              "name": "amountBMin",
              "type": "uint256"
            },
            {
              "internalType": "address",
              "name": "to",
              "type": "address"
            },
            {
              "internalType": "uint256",
              "name": "deadline",
              "type": "uint256"
            }
          ],
          "name": "addLiquidity",
          "outputs": [
            {
              "internalType": "uint256",
              "name": "amountA",
              "type": "uint256"
            },
            {
              "internalType": "uint256",
              "name": "amountB",
              "type": "uint256"
            },
            {
              "internalType": "uint256",
              "name": "liquidity",
              "type": "uint256"
            }
          ],
          "stateMutability": "nonpayable",
          "type": "function"
        },
        {
          "inputs": [
            {
              "internalType": "address",
              "name": "token",
              "type": "address"
            },
            {
              "internalType": "bool",
              "name": "stable",
              "type": "bool"
            },
            {
              "internalType": "uint256",
              "name": "amountTokenDesired",
              "type": "uint256"
            },
            {
              "internalType": "uint256",
              "name": "amountTokenMin",
              "type": "uint256"
            },
            {
              "internalType": "uint256",
              "name": "amountFTMMin",
              "type": "uint256"
            },
            {
              "internalType": "address",
              "name": "to",
              "type": "address"
            },
            {
              "internalType": "uint256",
              "name": "deadline",
              "type": "uint256"
            }
          ],
          "name": "addLiquidityFTM",
          "outputs": [
            {
              "internalType": "uint256",
              "name": "amountToken",
              "type": "uint256"
            },
            {
              "internalType": "uint256",
              "name": "amountFTM",
              "type": "uint256"
            },
            {
              "internalType": "uint256",
              "name": "liquidity",
              "type": "uint256"
            }
          ],
          "stateMutability": "payable",
          "type": "function"
        },
        {
          "inputs": [],
          "name": "factory",
          "outputs": [
            {
              "internalType": "address",
              "name": "",
              "type": "address"
            }
          ],
          "stateMutability": "view",
          "type": "function"
        },
        {
          "inputs": [
            {
              "internalType": "uint256",
              "name": "amountIn",
              "type": "uint256"
            },
            {
              "internalType": "address",
              "name": "tokenIn",
              "type": "address"
            },
            {
              "internalType": "address",
              "name": "tokenOut",
              "type": "address"
            }
          ],
          "name": "getAmountOut",
          "outputs": [
            {
              "internalType": "uint256",
              "name": "amount",
              "type": "uint256"
            },
            {
              "internalType": "bool",
              "name": "stable",
              "type": "bool"
            }
          ],
          "stateMutability": "view",
          "type": "function"
        },
        {
          "inputs": [
            {
              "internalType": "uint256",
              "name": "amountIn",
              "type": "uint256"
            },
            {
              "components": [
                {
                  "internalType": "address",
                  "name": "from",
                  "type": "address"
                },
                {
                  "internalType": "address",
                  "name": "to",
                  "type": "address"
                },
                {
                  "internalType": "bool",
                  "name": "stable",
                  "type": "bool"
                }
              ],
              "internalType": "struct BaseV1Router01.route[]",
              "name": "routes",
              "type": "tuple[]"
            }
          ],
          "name": "getAmountsOut",
          "outputs": [
            {
              "internalType": "uint256[]",
              "name": "amounts",
              "type": "uint256[]"
            }
          ],
          "stateMutability": "view",
          "type": "function"
        },
        {
          "inputs": [
            {
              "internalType": "address",
              "name": "tokenA",
              "type": "address"
            },
            {
              "internalType": "address",
              "name": "tokenB",
              "type": "address"
            },
            {
              "internalType": "bool",
              "name": "stable",
              "type": "bool"
            }
          ],
          "name": "getReserves",
          "outputs": [
            {
              "internalType": "uint256",
              "name": "reserveA",
              "type": "uint256"
            },
            {
              "internalType": "uint256",
              "name": "reserveB",
              "type": "uint256"
            }
          ],
          "stateMutability": "view",
          "type": "function"
        },
        {
          "inputs": [
            {
              "internalType": "address",
              "name": "pair",
              "type": "address"
            }
          ],
          "name": "isPair",
          "outputs": [
            {
              "internalType": "bool",
              "name": "",
              "type": "bool"
            }
          ],
          "stateMutability": "view",
          "type": "function"
        },
        {
          "inputs": [
            {
              "internalType": "address",
              "name": "tokenA",
              "type": "address"
            },
            {
              "internalType": "address",
              "name": "tokenB",
              "type": "address"
            },
            {
              "internalType": "bool",
              "name": "stable",
              "type": "bool"
            }
          ],
          "name": "pairFor",
          "outputs": [
            {
              "internalType": "address",
              "name": "pair",
              "type": "address"
            }
          ],
          "stateMutability": "view",
          "type": "function"
        },
        {
          "inputs": [
            {
              "internalType": "address",
              "name": "tokenA",
              "type": "address"
            },
            {
              "internalType": "address",
              "name": "tokenB",
              "type": "address"
            },
            {
              "internalType": "bool",
              "name": "stable",
              "type": "bool"
            },
            {
              "internalType": "uint256",
              "name": "amountADesired",
              "type": "uint256"
            },
            {
              "internalType": "uint256",
              "name": "amountBDesired",
              "type": "uint256"
            }
          ],
          "name": "quoteAddLiquidity",
          "outputs": [
            {
              "internalType": "uint256",
              "name": "amountA",
              "type": "uint256"
            },
            {
              "internalType": "uint256",
              "name": "amountB",
              "type": "uint256"
            },
            {
              "internalType": "uint256",
              "name": "liquidity",
              "type": "uint256"
            }
          ],
          "stateMutability": "view",
          "type": "function"
        },
        {
          "inputs": [
            {
              "internalType": "address",
              "name": "tokenA",
              "type": "address"
            },
            {
              "internalType": "address",
              "name": "tokenB",
              "type": "address"
            },
            {
              "internalType": "bool",
              "name": "stable",
              "type": "bool"
            },
            {
              "internalType": "uint256",
              "name": "liquidity",
              "type": "uint256"
            }
          ],
          "name": "quoteRemoveLiquidity",
          "outputs": [
            {
              "internalType": "uint256",
              "name": "amountA",
              "type": "uint256"
            },
            {
              "internalType": "uint256",
              "name": "amountB",
              "type": "uint256"
            }
          ],
          "stateMutability": "view",
          "type": "function"
        },
        {
          "inputs": [
            {
              "internalType": "address",
              "name": "tokenA",
              "type": "address"
            },
            {
              "internalType": "address",
              "name": "tokenB",
              "type": "address"
            },
            {
              "internalType": "bool",
              "name": "stable",
              "type": "bool"
            },
            {
              "internalType": "uint256",
              "name": "liquidity",
              "type": "uint256"
            },
            {
              "internalType": "uint256",
              "name": "amountAMin",
              "type": "uint256"
            },
            {
              "internalType": "uint256",
              "name": "amountBMin",
              "type": "uint256"
            },
            {
              "internalType": "address",
              "name": "to",
              "type": "address"
            },
            {
              "internalType": "uint256",
              "name": "deadline",
              "type": "uint256"
            }
          ],
          "name": "removeLiquidity",
          "outputs": [
            {
              "internalType": "uint256",
              "name": "amountA",
              "type": "uint256"
            },
            {
              "internalType": "uint256",
              "name": "amountB",
              "type": "uint256"
            }
          ],
          "stateMutability": "nonpayable",
          "type": "function"
        },
        {
          "inputs": [
            {
              "internalType": "address",
              "name": "token",
              "type": "address"
            },
            {
              "internalType": "bool",
              "name": "stable",
              "type": "bool"
            },
            {
              "internalType": "uint256",
              "name": "liquidity",
              "type": "uint256"
            },
            {
              "internalType": "uint256",
              "name": "amountTokenMin",
              "type": "uint256"
            },
            {
              "internalType": "uint256",
              "name": "amountFTMMin",
              "type": "uint256"
            },
            {
              "internalType": "address",
              "name": "to",
              "type": "address"
            },
            {
              "internalType": "uint256",
              "name": "deadline",
              "type": "uint256"
            }
          ],
          "name": "removeLiquidityFTM",
          "outputs": [
            {
              "internalType": "uint256",
              "name": "amountToken",
              "type": "uint256"
            },
            {
              "internalType": "uint256",
              "name": "amountFTM",
              "type": "uint256"
            }
          ],
          "stateMutability": "nonpayable",
          "type": "function"
        },
        {
          "inputs": [
            {
              "internalType": "address",
              "name": "token",
              "type": "address"
            },
            {
              "internalType": "bool",
              "name": "stable",
              "type": "bool"
            },
            {
              "internalType": "uint256",
              "name": "liquidity",
              "type": "uint256"
            },
            {
              "internalType": "uint256",
              "name": "amountTokenMin",
              "type": "uint256"
            },
            {
              "internalType": "uint256",
              "name": "amountFTMMin",
              "type": "uint256"
            },
            {
              "internalType": "address",
              "name": "to",
              "type": "address"
            },
            {
              "internalType": "uint256",
              "name": "deadline",
              "type": "uint256"
            },
            {
              "internalType": "bool",
              "name": "approveMax",
              "type": "bool"
            },
            {
              "internalType": "uint8",
              "name": "v",
              "type": "uint8"
            },
            {
              "internalType": "bytes32",
              "name": "r",
              "type": "bytes32"
            },
            {
              "internalType": "bytes32",
              "name": "s",
              "type": "bytes32"
            }
          ],
          "name": "removeLiquidityFTMWithPermit",
          "outputs": [
            {
              "internalType": "uint256",
              "name": "amountToken",
              "type": "uint256"
            },
            {
              "internalType": "uint256",
              "name": "amountFTM",
              "type": "uint256"
            }
          ],
          "stateMutability": "nonpayable",
          "type": "function"
        },
        {
          "inputs": [
            {
              "internalType": "address",
              "name": "tokenA",
              "type": "address"
            },
            {
              "internalType": "address",
              "name": "tokenB",
              "type": "address"
            },
            {
              "internalType": "bool",
              "name": "stable",
              "type": "bool"
            },
            {
              "internalType": "uint256",
              "name": "liquidity",
              "type": "uint256"
            },
            {
              "internalType": "uint256",
              "name": "amountAMin",
              "type": "uint256"
            },
            {
              "internalType": "uint256",
              "name": "amountBMin",
              "type": "uint256"
            },
            {
              "internalType": "address",
              "name": "to",
              "type": "address"
            },
            {
              "internalType": "uint256",
              "name": "deadline",
              "type": "uint256"
            },
            {
              "internalType": "bool",
              "name": "approveMax",
              "type": "bool"
            },
            {
              "internalType": "uint8",
              "name": "v",
              "type": "uint8"
            },
            {
              "internalType": "bytes32",
              "name": "r",
              "type": "bytes32"
            },
            {
              "internalType": "bytes32",
              "name": "s",
              "type": "bytes32"
            }
          ],
          "name": "removeLiquidityWithPermit",
          "outputs": [
            {
              "internalType": "uint256",
              "name": "amountA",
              "type": "uint256"
            },
            {
              "internalType": "uint256",
              "name": "amountB",
              "type": "uint256"
            }
          ],
          "stateMutability": "nonpayable",
          "type": "function"
        },
        {
          "inputs": [
            {
              "internalType": "address",
              "name": "tokenA",
              "type": "address"
            },
            {
              "internalType": "address",
              "name": "tokenB",
              "type": "address"
            }
          ],
          "name": "sortTokens",
          "outputs": [
            {
              "internalType": "address",
              "name": "token0",
              "type": "address"
            },
            {
              "internalType": "address",
              "name": "token1",
              "type": "address"
            }
          ],
          "stateMutability": "pure",
          "type": "function"
        },
        {
          "inputs": [
            {
              "internalType": "uint256",
              "name": "amountOutMin",
              "type": "uint256"
            },
            {
              "components": [
                {
                  "internalType": "address",
                  "name": "from",
                  "type": "address"
                },
                {
                  "internalType": "address",
                  "name": "to",
                  "type": "address"
                },
                {
                  "internalType": "bool",
                  "name": "stable",
                  "type": "bool"
                }
              ],
              "internalType": "struct BaseV1Router01.route[]",
              "name": "routes",
              "type": "tuple[]"
            },
            {
              "internalType": "address",
              "name": "to",
              "type": "address"
            },
            {
              "internalType": "uint256",
              "name": "deadline",
              "type": "uint256"
            }
          ],
          "name": "swapExactFTMForTokens",
          "outputs": [
            {
              "internalType": "uint256[]",
              "name": "amounts",
              "type": "uint256[]"
            }
          ],
          "stateMutability": "payable",
          "type": "function"
        },
        {
          "inputs": [
            {
              "internalType": "uint256",
              "name": "amountIn",
              "type": "uint256"
            },
            {
              "internalType": "uint256",
              "name": "amountOutMin",
              "type": "uint256"
            },
            {
              "components": [
                {
                  "internalType": "address",
                  "name": "from",
                  "type": "address"
                },
                {
                  "internalType": "address",
                  "name": "to",
                  "type": "address"
                },
                {
                  "internalType": "bool",
                  "name": "stable",
                  "type": "bool"
                }
              ],
              "internalType": "struct BaseV1Router01.route[]",
              "name": "routes",
              "type": "tuple[]"
            },
            {
              "internalType": "address",
              "name": "to",
              "type": "address"
            },
            {
              "internalType": "uint256",
              "name": "deadline",
              "type": "uint256"
            }
          ],
          "name": "swapExactTokensForFTM",
          "outputs": [
            {
              "internalType": "uint256[]",
              "name": "amounts",
              "type": "uint256[]"
            }
          ],
          "stateMutability": "nonpayable",
          "type": "function"
        },
        {
          "inputs": [
            {
              "internalType": "uint256",
              "name": "amountIn",
              "type": "uint256"
            },
            {
              "internalType": "uint256",
              "name": "amountOutMin",
              "type": "uint256"
            },
            {
              "components": [
                {
                  "internalType": "address",
                  "name": "from",
                  "type": "address"
                },
                {
                  "internalType": "address",
                  "name": "to",
                  "type": "address"
                },
                {
                  "internalType": "bool",
                  "name": "stable",
                  "type": "bool"
                }
              ],
              "internalType": "struct BaseV1Router01.route[]",
              "name": "routes",
              "type": "tuple[]"
            },
            {
              "internalType": "address",
              "name": "to",
              "type": "address"
            },
            {
              "internalType": "uint256",
              "name": "deadline",
              "type": "uint256"
            }
          ],
          "name": "swapExactTokensForTokens",
          "outputs": [
            {
              "internalType": "uint256[]",
              "name": "amounts",
              "type": "uint256[]"
            }
          ],
          "stateMutability": "nonpayable",
          "type": "function"
        },
        {
          "inputs": [
            {
              "internalType": "uint256",
              "name": "amountIn",
              "type": "uint256"
            },
            {
              "internalType": "uint256",
              "name": "amountOutMin",
              "type": "uint256"
            },
            {
              "internalType": "address",
              "name": "tokenFrom",
              "type": "address"
            },
            {
              "internalType": "address",
              "name": "tokenTo",
              "type": "address"
            },
            {
              "internalType": "bool",
              "name": "stable",
              "type": "bool"
            },
            {
              "internalType": "address",
              "name": "to",
              "type": "address"
            },
            {
              "internalType": "uint256",
              "name": "deadline",
              "type": "uint256"
            }
          ],
          "name": "swapExactTokensForTokensSimple",
          "outputs": [
            {
              "internalType": "uint256[]",
              "name": "amounts",
              "type": "uint256[]"
            }
          ],
          "stateMutability": "nonpayable",
          "type": "function"
        },
        {
          "inputs": [],
          "name": "wftm",
          "outputs": [
            {
              "internalType": "contract IWFTM",
              "name": "",
              "type": "address"
            }
          ],
          "stateMutability": "view",
          "type": "function"
        },
        {
          "stateMutability": "payable",
          "type": "receive"
        }
      ],
      "evm": {
        "bytecode": {
          "linkReferences": {},
          "object": "60e06040523480156200001157600080fd5b50604051620039fc380380620039fc8339810160408190526200003491620000d8565b6001600160a01b038216608081905260408051631355724960e31b81529051639aab9248916004808201926020929091908290030181865afa1580156200007f573d6000803e3d6000fd5b505050506040513d601f19601f82011682018060405250810190620000a5919062000110565b60c0526001600160a01b031660a052506200012a565b80516001600160a01b0381168114620000d357600080fd5b919050565b60008060408385031215620000ec57600080fd5b620000f783620000bb565b91506200010760208401620000bb565b90509250929050565b6000602082840312156200012357600080fd5b5051919050565b60805160a05160c051613808620001f46000396000610a7501526000818161013e0152818161049d01528181610c1b01528181610c5101528181610c8601528181610d1b015281816118e801528181611abb01528181611bc401528181611c1401528181611c9a01528181611e2201528181611f350152611fc30152600081816103a60152818161089301528181610a3a01528181610f480152818161105c015281816114940152818161160801528181611d8a015281816125f0015261269101526138086000f3fe60806040526004361061012e5760003560e01c80639881fcb4116100ab578063cc1d17731161006f578063cc1d1773146103e8578063d28254b814610408578063e5e31b1314610428578063e8ef468114610458578063f41766d81461046b578063f4f45b461461048b57600080fd5b80639881fcb41461033457806398a0fb3c14610354578063a32b1fcd14610374578063c45a015514610394578063c6b9577e146103c857600080fd5b8063578caf32116100f2578063578caf32146102715780635a47ddc31461029f5780635e1e6325146102bf5780635e60dab5146102f45780637301e3c81461031457600080fd5b80630dede6c41461017257806313dcfc59146101ac5780634386e63c146101d95780634c1ee03e146101f9578063544caa561461023157600080fd5b3661016d57336001600160a01b037f0000000000000000000000000000000000000000000000000000000000000000161461016b5761016b612afc565b005b600080fd5b34801561017e57600080fd5b5061019261018d366004612b43565b6104bf565b604080519283526020830191909152015b60405180910390f35b3480156101b857600080fd5b506101cc6101c7366004612bc8565b610679565b6040516101a39190612c43565b3480156101e557600080fd5b506101926101f4366004612c87565b61088c565b34801561020557600080fd5b50610219610214366004612cd8565b6109f3565b6040516001600160a01b0390911681526020016101a3565b34801561023d57600080fd5b5061025161024c366004612d23565b610afb565b604080516001600160a01b039384168152929091166020830152016101a3565b61028461027f366004612d5c565b610bef565b604080519384526020840192909252908201526060016101a3565b3480156102ab57600080fd5b506102846102ba366004612db7565b610e30565b3480156102cb57600080fd5b506102df6102da366004612e46565b610f10565b604080519283529015156020830152016101a3565b34801561030057600080fd5b5061019261030f366004612cd8565b611164565b34801561032057600080fd5b506101cc61032f366004612f2d565b61122e565b34801561034057600080fd5b506101cc61034f366004613080565b61137e565b34801561036057600080fd5b5061028461036f366004613126565b611600565b34801561038057600080fd5b5061019261038f366004613192565b611800565b3480156103a057600080fd5b506102197f000000000000000000000000000000000000000000000000000000000000000081565b3480156103d457600080fd5b506101cc6103e336600461324e565b6118bb565b3480156103f457600080fd5b50610192610403366004612d5c565b611b9a565b34801561041457600080fd5b506101926104233660046132c1565b611c8f565b34801561043457600080fd5b5061044861044336600461336b565b611d68565b60405190151581526020016101a3565b6101cc610466366004613388565b611dfd565b34801561047757600080fd5b506101cc61048636600461324e565b612147565b34801561049757600080fd5b506102197f000000000000000000000000000000000000000000000000000000000000000081565b60008082428110156104ec5760405162461bcd60e51b81526004016104e3906133de565b60405180910390fd5b60006104f98c8c8c6109f3565b6040516323b872dd60e01b81523360048201526001600160a01b03821660248201819052604482018c90529192506323b872dd906064016020604051808303816000875af115801561054f573d6000803e3d6000fd5b505050506040513d601f19601f82011682018060405250810190610573919061340d565b61057c57600080fd5b60405163226bf2d160e21b81526001600160a01b03878116600483015260009182918416906389afcb449060240160408051808303816000875af11580156105c8573d6000803e3d6000fd5b505050506040513d601f19601f820116820180604052508101906105ec919061342a565b9150915060006105fc8f8f610afb565b509050806001600160a01b03168f6001600160a01b03161461061f578183610622565b82825b90975095508a8710156106475760405162461bcd60e51b81526004016104e39061344e565b898610156106675760405162461bcd60e51b81526004016104e390613491565b50505050509850989650505050505050565b6060814281101561069c5760405162461bcd60e51b81526004016104e3906133de565b604080516001808252818301909252600091816020015b60408051606081018252600080825260208083018290529282015282526000199092019101816106b357905050905087816000815181106106f6576106f66134d4565b6020026020010151600001906001600160a01b031690816001600160a01b031681525050868160008151811061072e5761072e6134d4565b6020026020010151602001906001600160a01b031690816001600160a01b0316815250508581600081518110610766576107666134d4565b60209081029190910101519015156040909101526107848a8261137e565b92508883600185516107969190613500565b815181106107a6576107a66134d4565b602002602001015110156107cc5760405162461bcd60e51b81526004016104e390613517565b610874816000815181106107e2576107e26134d4565b6020026020010151600001513361085484600081518110610805576108056134d4565b60200260200101516000015185600081518110610824576108246134d4565b60200260200101516020015186600081518110610843576108436134d4565b6020026020010151604001516109f3565b86600081518110610867576108676134d4565b602002602001015161226c565b61087f838287612364565b5050979650505050505050565b60008060007f00000000000000000000000000000000000000000000000000000000000000006001600160a01b0316636801cc308888886040518463ffffffff1660e01b81526004016108e19392919061355f565b602060405180830381865afa1580156108fe573d6000803e3d6000fd5b505050506040513d601f19601f820116820180604052508101906109229190613583565b90506001600160a01b03811661093f5760008092509250506109ea565b60008061094d898989611164565b915091506000836001600160a01b03166318160ddd6040518163ffffffff1660e01b8152600401602060405180830381865afa158015610991573d6000803e3d6000fd5b505050506040513d601f19601f820116820180604052508101906109b591906135a0565b9050806109c284896135b9565b6109cc91906135d8565b9550806109d983896135b9565b6109e391906135d8565b9450505050505b94509492505050565b6000806000610a028686610afb565b6040516bffffffffffffffffffffffff19606084811b8216602084015283901b16603482015286151560f81b604882015291935091507f000000000000000000000000000000000000000000000000000000000000000090604901604051602081830303815290604052805190602001207f0000000000000000000000000000000000000000000000000000000000000000604051602001610ad9939291906001600160f81b0319815260609390931b6bffffffffffffffffffffffff191660018401526015830191909152603582015260550190565b60408051601f1981840301815291905280516020909101209695505050505050565b600080826001600160a01b0316846001600160a01b03161415610b6a5760405162461bcd60e51b815260206004820152602160248201527f426173655631526f757465723a204944454e544943414c5f41444452455353456044820152605360f81b60648201526084016104e3565b826001600160a01b0316846001600160a01b031610610b8a578284610b8d565b83835b90925090506001600160a01b038216610be85760405162461bcd60e51b815260206004820152601a60248201527f426173655631526f757465723a205a45524f5f4144445245535300000000000060448201526064016104e3565b9250929050565b60008060008342811015610c155760405162461bcd60e51b81526004016104e3906133de565b610c448b7f00000000000000000000000000000000000000000000000000000000000000008c8c348d8d6125b9565b90945092506000610c768c7f00000000000000000000000000000000000000000000000000000000000000008d6109f3565b9050610c848c33838861226c565b7f00000000000000000000000000000000000000000000000000000000000000006001600160a01b031663d0e30db0856040518263ffffffff1660e01b81526004016000604051808303818588803b158015610cdf57600080fd5b505af1158015610cf3573d6000803e3d6000fd5b505060405163a9059cbb60e01b81526001600160a01b038581166004830152602482018990527f000000000000000000000000000000000000000000000000000000000000000016935063a9059cbb925060440190506020604051808303816000875af1158015610d68573d6000803e3d6000fd5b505050506040513d601f19601f82011682018060405250810190610d8c919061340d565b610d9857610d98612afc565b6040516335313c2160e11b81526001600160a01b038881166004830152821690636a627842906024016020604051808303816000875af1158015610de0573d6000803e3d6000fd5b505050506040513d601f19601f82011682018060405250810190610e0491906135a0565b925083341115610e2157610e2133610e1c8634613500565b6127d7565b50509750975097945050505050565b60008060008342811015610e565760405162461bcd60e51b81526004016104e3906133de565b610e658d8d8d8d8d8d8d6125b9565b90945092506000610e778e8e8e6109f3565b9050610e858e33838861226c565b610e918d33838761226c565b6040516335313c2160e11b81526001600160a01b038881166004830152821690636a627842906024016020604051808303816000875af1158015610ed9573d6000803e3d6000fd5b505050506040513d601f19601f82011682018060405250810190610efd91906135a0565b9250505099509950999650505050505050565b6000806000610f21858560016109f3565b60405163e5e31b1360e01b81526001600160a01b03828116600483015291925060009182917f00000000000000000000000000000000000000000000000000000000000000009091169063e5e31b1390602401602060405180830381865afa158015610f91573d6000803e3d6000fd5b505050506040513d601f19601f82011682018060405250810190610fb5919061340d565b1561102e576040516378a051ad60e11b8152600481018990526001600160a01b03888116602483015284169063f140a35a90604401602060405180830381865afa158015611007573d6000803e3d6000fd5b505050506040513d601f19601f8201168201806040525081019061102b91906135a0565b91505b61103a878760006109f3565b60405163e5e31b1360e01b81526001600160a01b0380831660048301529194507f00000000000000000000000000000000000000000000000000000000000000009091169063e5e31b1390602401602060405180830381865afa1580156110a5573d6000803e3d6000fd5b505050506040513d601f19601f820116820180604052508101906110c9919061340d565b15611142576040516378a051ad60e11b8152600481018990526001600160a01b03888116602483015284169063f140a35a90604401602060405180830381865afa15801561111b573d6000803e3d6000fd5b505050506040513d601f19601f8201168201806040525081019061113f91906135a0565b90505b80821161115157806000611155565b8160015b94509450505050935093915050565b60008060006111738686610afb565b5090506000806111848888886109f3565b6001600160a01b0316630902f1ac6040518163ffffffff1660e01b8152600401606060405180830381865afa1580156111c1573d6000803e3d6000fd5b505050506040513d601f19601f820116820180604052508101906111e59190613611565b506001600160701b031691506001600160701b03169150826001600160a01b0316886001600160a01b03161461121c57808261121f565b81815b90999098509650505050505050565b606081428110156112515760405162461bcd60e51b81526004016104e3906133de565b61131386866000818110611267576112676134d4565b61127d926020606090920201908101915061336b565b3361130089896000818110611294576112946134d4565b6112aa926020606090920201908101915061336b565b8a8a60008181106112bd576112bd6134d4565b90506060020160200160208101906112d5919061336b565b8b8b60008181106112e8576112e86134d4565b90506060020160400160208101906102149190613656565b8a600081518110610867576108676134d4565b611370878787808060200260200160405190810160405280939291908181526020016000905b828210156113655761135660608302860136819003810190613673565b81526020019060010190611339565b505050505086612364565b8691505b5095945050505050565b60606001825110156113a25760405162461bcd60e51b81526004016104e39061368f565b81516113af9060016136c6565b67ffffffffffffffff8111156113c7576113c7612e7d565b6040519080825280602002602001820160405280156113f0578160200160208202803683370190505b5090508281600081518110611407576114076134d4565b60200260200101818152505060005b82518110156115f9576000611472848381518110611436576114366134d4565b602002602001015160000151858481518110611454576114546134d4565b602002602001015160200151868581518110610843576108436134d4565b60405163e5e31b1360e01b81526001600160a01b0380831660048301529192507f00000000000000000000000000000000000000000000000000000000000000009091169063e5e31b1390602401602060405180830381865afa1580156114dd573d6000803e3d6000fd5b505050506040513d601f19601f82011682018060405250810190611501919061340d565b156115e657806001600160a01b031663f140a35a848481518110611527576115276134d4565b6020026020010151868581518110611541576115416134d4565b6020026020010151600001516040518363ffffffff1660e01b815260040161157c9291909182526001600160a01b0316602082015260400190565b602060405180830381865afa158015611599573d6000803e3d6000fd5b505050506040513d601f19601f820116820180604052508101906115bd91906135a0565b836115c98460016136c6565b815181106115d9576115d96134d4565b6020026020010181815250505b50806115f1816136de565b915050611416565b5092915050565b6000806000807f00000000000000000000000000000000000000000000000000000000000000006001600160a01b0316636801cc308a8a8a6040518463ffffffff1660e01b81526004016116569392919061355f565b602060405180830381865afa158015611673573d6000803e3d6000fd5b505050506040513d601f19601f820116820180604052508101906116979190613583565b9050600080806001600160a01b0384161561172157836001600160a01b03166318160ddd6040518163ffffffff1660e01b8152600401602060405180830381865afa1580156116ea573d6000803e3d6000fd5b505050506040513d601f19601f8201168201806040525081019061170e91906135a0565b905061171b8c8c8c611164565b90935091505b8215801561172d575081155b1561175e578896508795506103e861174d611748888a6135b9565b6128a5565b6117579190613500565b94506117f1565b600061176b8a8585612915565b90508881116117b3578997509550856117ac84611788848b6135b9565b61179291906135d8565b8461179d858b6135b9565b6117a791906135d8565b6129f5565b95506117ef565b60006117c08a8587612915565b98508997508890506117eb856117d685846135b9565b6117e091906135d8565b8561179d868c6135b9565b9650505b505b50505050955095509592505050565b60008060006118108f8f8f6109f3565b905060008761181f578c611823565b6000195b60405163d505accf60e01b81529091506001600160a01b0383169063d505accf9061185e903390309086908f908e908e908e906004016136f9565b600060405180830381600087803b15801561187857600080fd5b505af115801561188c573d6000803e3d6000fd5b50505050506118a18f8f8f8f8f8f8f8f6104bf565b8093508194505050509c509c9a5050505050505050505050565b606081428110156118de5760405162461bcd60e51b81526004016104e3906133de565b6001600160a01b037f0000000000000000000000000000000000000000000000000000000000000000168686611915600182613500565b818110611924576119246134d4565b905060600201602001602081019061193c919061336b565b6001600160a01b0316146119625760405162461bcd60e51b81526004016104e39061368f565b6119be888787808060200260200160405190810160405280939291908181526020016000905b828210156119b4576119a560608302860136819003810190613673565b81526020019060010190611988565b505050505061137e565b91508682600184516119d09190613500565b815181106119e0576119e06134d4565b60200260200101511015611a065760405162461bcd60e51b81526004016104e390613517565b611a5c86866000818110611a1c57611a1c6134d4565b611a32926020606090920201908101915061336b565b33611a4989896000818110611294576112946134d4565b85600081518110610867576108676134d4565b611ab9828787808060200260200160405190810160405280939291908181526020016000905b82821015611aae57611a9f60608302860136819003810190613673565b81526020019060010190611a82565b505050505030612364565b7f00000000000000000000000000000000000000000000000000000000000000006001600160a01b0316632e1a7d4d8360018551611af79190613500565b81518110611b0757611b076134d4565b60200260200101516040518263ffffffff1660e01b8152600401611b2d91815260200190565b600060405180830381600087803b158015611b4757600080fd5b505af1158015611b5b573d6000803e3d6000fd5b50505050611b8f848360018551611b729190613500565b81518110611b8257611b826134d4565b60200260200101516127d7565b509695505050505050565b6000808242811015611bbe5760405162461bcd60e51b81526004016104e3906133de565b611bee8a7f00000000000000000000000000000000000000000000000000000000000000008b8b8b8b308b6104bf565b9093509150611bfe8a8685612a0d565b604051632e1a7d4d60e01b8152600481018390527f00000000000000000000000000000000000000000000000000000000000000006001600160a01b031690632e1a7d4d90602401600060405180830381600087803b158015611c6057600080fd5b505af1158015611c74573d6000803e3d6000fd5b50505050611c8285836127d7565b5097509795505050505050565b6000806000611cbf8e7f00000000000000000000000000000000000000000000000000000000000000008f6109f3565b9050600087611cce578c611cd2565b6000195b60405163d505accf60e01b81529091506001600160a01b0383169063d505accf90611d0d903390309086908f908e908e908e906004016136f9565b600060405180830381600087803b158015611d2757600080fd5b505af1158015611d3b573d6000803e3d6000fd5b50505050611d4e8f8f8f8f8f8f8f611b9a565b809450819550505050509b509b9950505050505050505050565b60405163e5e31b1360e01b81526001600160a01b0382811660048301526000917f00000000000000000000000000000000000000000000000000000000000000009091169063e5e31b1390602401602060405180830381865afa158015611dd3573d6000803e3d6000fd5b505050506040513d601f19601f82011682018060405250810190611df7919061340d565b92915050565b60608142811015611e205760405162461bcd60e51b81526004016104e3906133de565b7f00000000000000000000000000000000000000000000000000000000000000006001600160a01b031686866000818110611e5d57611e5d6134d4565b611e73926020606090920201908101915061336b565b6001600160a01b031614611e995760405162461bcd60e51b81526004016104e39061368f565b611eeb348787808060200260200160405190810160405280939291908181526020016000905b828210156119b457611edc60608302860136819003810190613673565b81526020019060010190611ebf565b9150868260018451611efd9190613500565b81518110611f0d57611f0d6134d4565b60200260200101511015611f335760405162461bcd60e51b81526004016104e390613517565b7f00000000000000000000000000000000000000000000000000000000000000006001600160a01b031663d0e30db083600081518110611f7557611f756134d4565b60200260200101516040518263ffffffff1660e01b81526004016000604051808303818588803b158015611fa857600080fd5b505af1158015611fbc573d6000803e3d6000fd5b50505050507f00000000000000000000000000000000000000000000000000000000000000006001600160a01b031663a9059cbb61205a88886000818110612006576120066134d4565b61201c926020606090920201908101915061336b565b8989600081811061202f5761202f6134d4565b9050606002016020016020810190612047919061336b565b8a8a60008181106112e8576112e86134d4565b8460008151811061206d5761206d6134d4565b60200260200101516040518363ffffffff1660e01b81526004016120a69291906001600160a01b03929092168252602082015260400190565b6020604051808303816000875af11580156120c5573d6000803e3d6000fd5b505050506040513d601f19601f820116820180604052508101906120e9919061340d565b6120f5576120f5612afc565b611374828787808060200260200160405190810160405280939291908181526020016000905b828210156113655761213860608302860136819003810190613673565b8152602001906001019061211b565b6060814281101561216a5760405162461bcd60e51b81526004016104e3906133de565b6121bc888787808060200260200160405190810160405280939291908181526020016000905b828210156119b4576121ad60608302860136819003810190613673565b81526020019060010190612190565b91508682600184516121ce9190613500565b815181106121de576121de6134d4565b602002602001015110156122045760405162461bcd60e51b81526004016104e390613517565b61221a86866000818110611a1c57611a1c6134d4565b611b8f828787808060200260200160405190810160405280939291908181526020016000905b828210156113655761225d60608302860136819003810190613673565b81526020019060010190612240565b6000846001600160a01b03163b1161228357600080fd5b604080516001600160a01b0385811660248301528481166044830152606480830185905283518084039091018152608490920183526020820180516001600160e01b03166323b872dd60e01b17905291516000928392908816916122e79190613766565b6000604051808303816000865af19150503d8060008114612324576040519150601f19603f3d011682016040523d82523d6000602084013e612329565b606091505b5091509150818015612353575080511580612353575080806020019051810190612353919061340d565b61235c57600080fd5b505050505050565b60005b82518110156125b35760006123b6848381518110612387576123876134d4565b6020026020010151600001518584815181106123a5576123a56134d4565b602002602001015160200151610afb565b5090506000856123c78460016136c6565b815181106123d7576123d76134d4565b60200260200101519050600080836001600160a01b0316878681518110612400576124006134d4565b6020026020010151600001516001600160a01b03161461242257826000612426565b6000835b9150915060006001885161243a9190613500565b861061244657866124b9565b6124b9886124558860016136c6565b81518110612465576124656134d4565b6020026020010151600001518988600161247f91906136c6565b8151811061248f5761248f6134d4565b6020026020010151602001518a8960016124a991906136c6565b81518110610843576108436134d4565b905061250c8887815181106124d0576124d06134d4565b6020026020010151600001518988815181106124ee576124ee6134d4565b6020026020010151602001518a8981518110610843576108436134d4565b6001600160a01b031663022c0d9f84848460006040519080825280601f01601f191660200182016040528015612549576020820181803683370190505b506040518563ffffffff1660e01b81526004016125699493929190613782565b600060405180830381600087803b15801561258357600080fd5b505af1158015612597573d6000803e3d6000fd5b50505050505050505080806125ab906136de565b915050612367565b50505050565b600080838610156125c957600080fd5b828510156125d657600080fd5b6040516306801cc360e41b81526000906001600160a01b037f00000000000000000000000000000000000000000000000000000000000000001690636801cc3090612629908d908d908d9060040161355f565b602060405180830381865afa158015612646573d6000803e3d6000fd5b505050506040513d601f19601f8201168201806040525081019061266a9190613583565b90506001600160a01b038116612710576040516320b7f73960e21b81526001600160a01b037f000000000000000000000000000000000000000000000000000000000000000016906382dfdce4906126ca908d908d908d9060040161355f565b6020604051808303816000875af11580156126e9573d6000803e3d6000fd5b505050506040513d601f19601f8201168201806040525081019061270d9190613583565b90505b60008061271e8c8c8c611164565b91509150816000148015612730575080155b15612740578894508793506127c8565b600061274d8a8484612915565b905088811161278157868110156127765760405162461bcd60e51b81526004016104e390613491565b8995509350836127c6565b600061278e8a8486612915565b90508a8111156127a0576127a0612afc565b888110156127c05760405162461bcd60e51b81526004016104e39061344e565b95508894505b505b50505097509795505050505050565b604080516000808252602082019092526001600160a01b0384169083906040516128019190613766565b60006040518083038185875af1925050503d806000811461283e576040519150601f19603f3d011682016040523d82523d6000602084013e612843565b606091505b50509050806128a05760405162461bcd60e51b815260206004820152602360248201527f5472616e7366657248656c7065723a204554485f5452414e534645525f46414960448201526213115160ea1b60648201526084016104e3565b505050565b6000600382111561290657508060006128bf6002836135d8565b6128ca9060016136c6565b90505b81811015612900579050806002816128e581866135d8565b6128ef91906136c6565b6128f991906135d8565b90506128cd565b50919050565b8115612910575060015b919050565b60008084116129705760405162461bcd60e51b815260206004820152602160248201527f426173655631526f757465723a20494e53554646494349454e545f414d4f554e6044820152601560fa1b60648201526084016104e3565b6000831180156129805750600082115b6129d85760405162461bcd60e51b8152602060048201526024808201527f426173655631526f757465723a20494e53554646494349454e545f4c495155496044820152634449545960e01b60648201526084016104e3565b826129e383866135b9565b6129ed91906135d8565b949350505050565b6000818310612a045781612a06565b825b9392505050565b6000836001600160a01b03163b11612a2457600080fd5b604080516001600160a01b038481166024830152604480830185905283518084039091018152606490920183526020820180516001600160e01b031663a9059cbb60e01b1790529151600092839290871691612a809190613766565b6000604051808303816000865af19150503d8060008114612abd576040519150601f19603f3d011682016040523d82523d6000602084013e612ac2565b606091505b5091509150818015612aec575080511580612aec575080806020019051810190612aec919061340d565b612af557600080fd5b5050505050565b634e487b7160e01b600052600160045260246000fd5b6001600160a01b0381168114612b2757600080fd5b50565b803561291081612b12565b8015158114612b2757600080fd5b600080600080600080600080610100898b031215612b6057600080fd5b8835612b6b81612b12565b97506020890135612b7b81612b12565b96506040890135612b8b81612b35565b9550606089013594506080890135935060a0890135925060c0890135612bb081612b12565b8092505060e089013590509295985092959890939650565b600080600080600080600060e0888a031215612be357600080fd5b87359650602088013595506040880135612bfc81612b12565b94506060880135612c0c81612b12565b93506080880135612c1c81612b35565b925060a0880135612c2c81612b12565b8092505060c0880135905092959891949750929550565b6020808252825182820181905260009190848201906040850190845b81811015612c7b57835183529284019291840191600101612c5f565b50909695505050505050565b60008060008060808587031215612c9d57600080fd5b8435612ca881612b12565b93506020850135612cb881612b12565b92506040850135612cc881612b35565b9396929550929360600135925050565b600080600060608486031215612ced57600080fd5b8335612cf881612b12565b92506020840135612d0881612b12565b91506040840135612d1881612b35565b809150509250925092565b60008060408385031215612d3657600080fd5b8235612d4181612b12565b91506020830135612d5181612b12565b809150509250929050565b600080600080600080600060e0888a031215612d7757600080fd5b8735612d8281612b12565b96506020880135612d9281612b35565b955060408801359450606088013593506080880135925060a0880135612c2c81612b12565b60008060008060008060008060006101208a8c031215612dd657600080fd5b8935612de181612b12565b985060208a0135612df181612b12565b975060408a0135612e0181612b35565b965060608a0135955060808a0135945060a08a0135935060c08a0135925060e08a0135612e2d81612b12565b809250506101008a013590509295985092959850929598565b600080600060608486031215612e5b57600080fd5b833592506020840135612e6d81612b12565b91506040840135612d1881612b12565b634e487b7160e01b600052604160045260246000fd5b604051601f8201601f1916810167ffffffffffffffff81118282101715612ebc57612ebc612e7d565b604052919050565b600067ffffffffffffffff821115612ede57612ede612e7d565b5060051b60200190565b60008083601f840112612efa57600080fd5b50813567ffffffffffffffff811115612f1257600080fd5b602083019150836020606083028501011115610be857600080fd5b600080600080600060808688031215612f4557600080fd5b853567ffffffffffffffff80821115612f5d57600080fd5b818801915088601f830112612f7157600080fd5b81356020612f86612f8183612ec4565b612e93565b82815260059290921b8401810191818101908c841115612fa557600080fd5b948201945b83861015612fc357853582529482019490820190612faa565b99505089013592505080821115612fd957600080fd5b50612fe688828901612ee8565b9095509350612ff9905060408701612b2a565b949793965091946060013592915050565b60006060828403121561301c57600080fd5b6040516060810181811067ffffffffffffffff8211171561303f5761303f612e7d565b604052905080823561305081612b12565b8152602083013561306081612b12565b6020820152604083013561307381612b35565b6040919091015292915050565b6000806040838503121561309357600080fd5b8235915060208084013567ffffffffffffffff8111156130b257600080fd5b8401601f810186136130c357600080fd5b80356130d1612f8182612ec4565b818152606091820283018401918482019190898411156130f057600080fd5b938501935b83851015613116576131078a8661300a565b835293840193918501916130f5565b5080955050505050509250929050565b600080600080600060a0868803121561313e57600080fd5b853561314981612b12565b9450602086013561315981612b12565b9350604086013561316981612b35565b94979396509394606081013594506080013592915050565b803560ff8116811461291057600080fd5b6000806000806000806000806000806000806101808d8f0312156131b557600080fd5b8c356131c081612b12565b9b5060208d01356131d081612b12565b9a5060408d01356131e081612b35565b995060608d0135985060808d0135975060a08d0135965060c08d013561320581612b12565b955060e08d013594506101008d013561321d81612b35565b935061322c6101208e01613181565b92506101408d013591506101608d013590509295989b509295989b509295989b565b60008060008060008060a0878903121561326757600080fd5b8635955060208701359450604087013567ffffffffffffffff81111561328c57600080fd5b61329889828a01612ee8565b90955093505060608701356132ac81612b12565b80925050608087013590509295509295509295565b60008060008060008060008060008060006101608c8e0312156132e357600080fd5b8b356132ee81612b12565b9a5060208c01356132fe81612b35565b995060408c0135985060608c0135975060808c0135965060a08c013561332381612b12565b955060c08c0135945060e08c013561333a81612b35565b93506133496101008d01613181565b92506101208c013591506101408c013590509295989b509295989b9093969950565b60006020828403121561337d57600080fd5b8135612a0681612b12565b6000806000806000608086880312156133a057600080fd5b85359450602086013567ffffffffffffffff8111156133be57600080fd5b6133ca88828901612ee8565b9095509350506040860135612ff981612b12565b60208082526015908201527410985cd9558c549bdd5d195c8e8811561412549151605a1b604082015260600190565b60006020828403121561341f57600080fd5b8151612a0681612b35565b6000806040838503121561343d57600080fd5b505080516020909101519092909150565b60208082526023908201527f426173655631526f757465723a20494e53554646494349454e545f415f414d4f60408201526215539560ea1b606082015260800190565b60208082526023908201527f426173655631526f757465723a20494e53554646494349454e545f425f414d4f60408201526215539560ea1b606082015260800190565b634e487b7160e01b600052603260045260246000fd5b634e487b7160e01b600052601160045260246000fd5b600082821015613512576135126134ea565b500390565b60208082526028908201527f426173655631526f757465723a20494e53554646494349454e545f4f555450556040820152671517d05353d5539560c21b606082015260800190565b6001600160a01b039384168152919092166020820152901515604082015260600190565b60006020828403121561359557600080fd5b8151612a0681612b12565b6000602082840312156135b257600080fd5b5051919050565b60008160001904831182151516156135d3576135d36134ea565b500290565b6000826135f557634e487b7160e01b600052601260045260246000fd5b500490565b80516001600160701b038116811461291057600080fd5b60008060006060848603121561362657600080fd5b61362f846135fa565b925061363d602085016135fa565b9150604084015163ffffffff81168114612d1857600080fd5b60006020828403121561366857600080fd5b8135612a0681612b35565b60006060828403121561368557600080fd5b612a06838361300a565b6020808252601a908201527f426173655631526f757465723a20494e56414c49445f50415448000000000000604082015260600190565b600082198211156136d9576136d96134ea565b500190565b60006000198214156136f2576136f26134ea565b5060010190565b6001600160a01b0397881681529590961660208601526040850193909352606084019190915260ff16608083015260a082015260c081019190915260e00190565b60005b8381101561375557818101518382015260200161373d565b838111156125b35750506000910152565b6000825161377881846020870161373a565b9190910192915050565b84815283602082015260018060a01b038316604082015260806060820152600082518060808401526137bb8160a085016020870161373a565b601f01601f19169190910160a0019594505050505056fea26469706673582212200f3aa645c5b29b4bc05fb1f0d5494f0b22be90e7075d6cf76ff7b5037193f2e164736f6c634300080b0033",
          "opcodes": "PUSH1 0xE0 PUSH1 0x40 MSTORE CALLVALUE DUP1 ISZERO PUSH3 0x11 JUMPI PUSH1 0x0 DUP1 REVERT JUMPDEST POP PUSH1 0x40 MLOAD PUSH3 0x39FC CODESIZE SUB DUP1 PUSH3 0x39FC DUP4 CODECOPY DUP2 ADD PUSH1 0x40 DUP2 SWAP1 MSTORE PUSH3 0x34 SWAP2 PUSH3 0xD8 JUMP JUMPDEST PUSH1 0x1 PUSH1 0x1 PUSH1 0xA0 SHL SUB DUP3 AND PUSH1 0x80 DUP2 SWAP1 MSTORE PUSH1 0x40 DUP1 MLOAD PUSH4 0x13557249 PUSH1 0xE3 SHL DUP2 MSTORE SWAP1 MLOAD PUSH4 0x9AAB9248 SWAP2 PUSH1 0x4 DUP1 DUP3 ADD SWAP3 PUSH1 0x20 SWAP3 SWAP1 SWAP2 SWAP1 DUP3 SWAP1 SUB ADD DUP2 DUP7 GAS STATICCALL ISZERO DUP1 ISZERO PUSH3 0x7F JUMPI RETURNDATASIZE PUSH1 0x0 DUP1 RETURNDATACOPY RETURNDATASIZE PUSH1 0x0 REVERT JUMPDEST POP POP POP POP PUSH1 0x40 MLOAD RETURNDATASIZE PUSH1 0x1F NOT PUSH1 0x1F DUP3 ADD AND DUP3 ADD DUP1 PUSH1 0x40 MSTORE POP DUP2 ADD SWAP1 PUSH3 0xA5 SWAP2 SWAP1 PUSH3 0x110 JUMP JUMPDEST PUSH1 0xC0 MSTORE PUSH1 0x1 PUSH1 0x1 PUSH1 0xA0 SHL SUB AND PUSH1 0xA0 MSTORE POP PUSH3 0x12A JUMP JUMPDEST DUP1 MLOAD PUSH1 0x1 PUSH1 0x1 PUSH1 0xA0 SHL SUB DUP2 AND DUP2 EQ PUSH3 0xD3 JUMPI PUSH1 0x0 DUP1 REVERT JUMPDEST SWAP2 SWAP1 POP JUMP JUMPDEST PUSH1 0x0 DUP1 PUSH1 0x40 DUP4 DUP6 SUB SLT ISZERO PUSH3 0xEC JUMPI PUSH1 0x0 DUP1 REVERT JUMPDEST PUSH3 0xF7 DUP4 PUSH3 0xBB JUMP JUMPDEST SWAP2 POP PUSH3 0x107 PUSH1 0x20 DUP5 ADD PUSH3 0xBB JUMP JUMPDEST SWAP1 POP SWAP3 POP SWAP3 SWAP1 POP JUMP JUMPDEST PUSH1 0x0 PUSH1 0x20 DUP3 DUP5 SUB SLT ISZERO PUSH3 0x123 JUMPI PUSH1 0x0 DUP1 REVERT JUMPDEST POP MLOAD SWAP2 SWAP1 POP JUMP JUMPDEST PUSH1 0x80 MLOAD PUSH1 0xA0 MLOAD PUSH1 0xC0 MLOAD PUSH2 0x3808 PUSH3 0x1F4 PUSH1 0x0 CODECOPY PUSH1 0x0 PUSH2 0xA75 ADD MSTORE PUSH1 0x0 DUP2 DUP2 PUSH2 0x13E ADD MSTORE DUP2 DUP2 PUSH2 0x49D ADD MSTORE DUP2 DUP2 PUSH2 0xC1B ADD MSTORE DUP2 DUP2 PUSH2 0xC51 ADD MSTORE DUP2 DUP2 PUSH2 0xC86 ADD MSTORE DUP2 DUP2 PUSH2 0xD1B ADD MSTORE DUP2 DUP2 PUSH2 0x18E8 ADD MSTORE DUP2 DUP2 PUSH2 0x1ABB ADD MSTORE DUP2 DUP2 PUSH2 0x1BC4 ADD MSTORE DUP2 DUP2 PUSH2 0x1C14 ADD MSTORE DUP2 DUP2 PUSH2 0x1C9A ADD MSTORE DUP2 DUP2 PUSH2 0x1E22 ADD MSTORE DUP2 DUP2 PUSH2 0x1F35 ADD MSTORE PUSH2 0x1FC3 ADD MSTORE PUSH1 0x0 DUP2 DUP2 PUSH2 0x3A6 ADD MSTORE DUP2 DUP2 PUSH2 0x893 ADD MSTORE DUP2 DUP2 PUSH2 0xA3A ADD MSTORE DUP2 DUP2 PUSH2 0xF48 ADD MSTORE DUP2 DUP2 PUSH2 0x105C ADD MSTORE DUP2 DUP2 PUSH2 0x1494 ADD MSTORE DUP2 DUP2 PUSH2 0x1608 ADD MSTORE DUP2 DUP2 PUSH2 0x1D8A ADD MSTORE DUP2 DUP2 PUSH2 0x25F0 ADD MSTORE PUSH2 0x2691 ADD MSTORE PUSH2 0x3808 PUSH1 0x0 RETURN INVALID PUSH1 0x80 PUSH1 0x40 MSTORE PUSH1 0x4 CALLDATASIZE LT PUSH2 0x12E JUMPI PUSH1 0x0 CALLDATALOAD PUSH1 0xE0 SHR DUP1 PUSH4 0x9881FCB4 GT PUSH2 0xAB JUMPI DUP1 PUSH4 0xCC1D1773 GT PUSH2 0x6F JUMPI DUP1 PUSH4 0xCC1D1773 EQ PUSH2 0x3E8 JUMPI DUP1 PUSH4 0xD28254B8 EQ PUSH2 0x408 JUMPI DUP1 PUSH4 0xE5E31B13 EQ PUSH2 0x428 JUMPI DUP1 PUSH4 0xE8EF4681 EQ PUSH2 0x458 JUMPI DUP1 PUSH4 0xF41766D8 EQ PUSH2 0x46B JUMPI DUP1 PUSH4 0xF4F45B46 EQ PUSH2 0x48B JUMPI PUSH1 0x0 DUP1 REVERT JUMPDEST DUP1 PUSH4 0x9881FCB4 EQ PUSH2 0x334 JUMPI DUP1 PUSH4 0x98A0FB3C EQ PUSH2 0x354 JUMPI DUP1 PUSH4 0xA32B1FCD EQ PUSH2 0x374 JUMPI DUP1 PUSH4 0xC45A0155 EQ PUSH2 0x394 JUMPI DUP1 PUSH4 0xC6B9577E EQ PUSH2 0x3C8 JUMPI PUSH1 0x0 DUP1 REVERT JUMPDEST DUP1 PUSH4 0x578CAF32 GT PUSH2 0xF2 JUMPI DUP1 PUSH4 0x578CAF32 EQ PUSH2 0x271 JUMPI DUP1 PUSH4 0x5A47DDC3 EQ PUSH2 0x29F JUMPI DUP1 PUSH4 0x5E1E6325 EQ PUSH2 0x2BF JUMPI DUP1 PUSH4 0x5E60DAB5 EQ PUSH2 0x2F4 JUMPI DUP1 PUSH4 0x7301E3C8 EQ PUSH2 0x314 JUMPI PUSH1 0x0 DUP1 REVERT JUMPDEST DUP1 PUSH4 0xDEDE6C4 EQ PUSH2 0x172 JUMPI DUP1 PUSH4 0x13DCFC59 EQ PUSH2 0x1AC JUMPI DUP1 PUSH4 0x4386E63C EQ PUSH2 0x1D9 JUMPI DUP1 PUSH4 0x4C1EE03E EQ PUSH2 0x1F9 JUMPI DUP1 PUSH4 0x544CAA56 EQ PUSH2 0x231 JUMPI PUSH1 0x0 DUP1 REVERT JUMPDEST CALLDATASIZE PUSH2 0x16D JUMPI CALLER PUSH1 0x1 PUSH1 0x1 PUSH1 0xA0 SHL SUB PUSH32 0x0 AND EQ PUSH2 0x16B JUMPI PUSH2 0x16B PUSH2 0x2AFC JUMP JUMPDEST STOP JUMPDEST PUSH1 0x0 DUP1 REVERT JUMPDEST CALLVALUE DUP1 ISZERO PUSH2 0x17E JUMPI PUSH1 0x0 DUP1 REVERT JUMPDEST POP PUSH2 0x192 PUSH2 0x18D CALLDATASIZE PUSH1 0x4 PUSH2 0x2B43 JUMP JUMPDEST PUSH2 0x4BF JUMP JUMPDEST PUSH1 0x40 DUP1 MLOAD SWAP3 DUP4 MSTORE PUSH1 0x20 DUP4 ADD SWAP2 SWAP1 SWAP2 MSTORE ADD JUMPDEST PUSH1 0x40 MLOAD DUP1 SWAP2 SUB SWAP1 RETURN JUMPDEST CALLVALUE DUP1 ISZERO PUSH2 0x1B8 JUMPI PUSH1 0x0 DUP1 REVERT JUMPDEST POP PUSH2 0x1CC PUSH2 0x1C7 CALLDATASIZE PUSH1 0x4 PUSH2 0x2BC8 JUMP JUMPDEST PUSH2 0x679 JUMP JUMPDEST PUSH1 0x40 MLOAD PUSH2 0x1A3 SWAP2 SWAP1 PUSH2 0x2C43 JUMP JUMPDEST CALLVALUE DUP1 ISZERO PUSH2 0x1E5 JUMPI PUSH1 0x0 DUP1 REVERT JUMPDEST POP PUSH2 0x192 PUSH2 0x1F4 CALLDATASIZE PUSH1 0x4 PUSH2 0x2C87 JUMP JUMPDEST PUSH2 0x88C JUMP JUMPDEST CALLVALUE DUP1 ISZERO PUSH2 0x205 JUMPI PUSH1 0x0 DUP1 REVERT JUMPDEST POP PUSH2 0x219 PUSH2 0x214 CALLDATASIZE PUSH1 0x4 PUSH2 0x2CD8 JUMP JUMPDEST PUSH2 0x9F3 JUMP JUMPDEST PUSH1 0x40 MLOAD PUSH1 0x1 PUSH1 0x1 PUSH1 0xA0 SHL SUB SWAP1 SWAP2 AND DUP2 MSTORE PUSH1 0x20 ADD PUSH2 0x1A3 JUMP JUMPDEST CALLVALUE DUP1 ISZERO PUSH2 0x23D JUMPI PUSH1 0x0 DUP1 REVERT JUMPDEST POP PUSH2 0x251 PUSH2 0x24C CALLDATASIZE PUSH1 0x4 PUSH2 0x2D23 JUMP JUMPDEST PUSH2 0xAFB JUMP JUMPDEST PUSH1 0x40 DUP1 MLOAD PUSH1 0x1 PUSH1 0x1 PUSH1 0xA0 SHL SUB SWAP4 DUP5 AND DUP2 MSTORE SWAP3 SWAP1 SWAP2 AND PUSH1 0x20 DUP4 ADD MSTORE ADD PUSH2 0x1A3 JUMP JUMPDEST PUSH2 0x284 PUSH2 0x27F CALLDATASIZE PUSH1 0x4 PUSH2 0x2D5C JUMP JUMPDEST PUSH2 0xBEF JUMP JUMPDEST PUSH1 0x40 DUP1 MLOAD SWAP4 DUP5 MSTORE PUSH1 0x20 DUP5 ADD SWAP3 SWAP1 SWAP3 MSTORE SWAP1 DUP3 ADD MSTORE PUSH1 0x60 ADD PUSH2 0x1A3 JUMP JUMPDEST CALLVALUE DUP1 ISZERO PUSH2 0x2AB JUMPI PUSH1 0x0 DUP1 REVERT JUMPDEST POP PUSH2 0x284 PUSH2 0x2BA CALLDATASIZE PUSH1 0x4 PUSH2 0x2DB7 JUMP JUMPDEST PUSH2 0xE30 JUMP JUMPDEST CALLVALUE DUP1 ISZERO PUSH2 0x2CB JUMPI PUSH1 0x0 DUP1 REVERT JUMPDEST POP PUSH2 0x2DF PUSH2 0x2DA CALLDATASIZE PUSH1 0x4 PUSH2 0x2E46 JUMP JUMPDEST PUSH2 0xF10 JUMP JUMPDEST PUSH1 0x40 DUP1 MLOAD SWAP3 DUP4 MSTORE SWAP1 ISZERO ISZERO PUSH1 0x20 DUP4 ADD MSTORE ADD PUSH2 0x1A3 JUMP JUMPDEST CALLVALUE DUP1 ISZERO PUSH2 0x300 JUMPI PUSH1 0x0 DUP1 REVERT JUMPDEST POP PUSH2 0x192 PUSH2 0x30F CALLDATASIZE PUSH1 0x4 PUSH2 0x2CD8 JUMP JUMPDEST PUSH2 0x1164 JUMP JUMPDEST CALLVALUE DUP1 ISZERO PUSH2 0x320 JUMPI PUSH1 0x0 DUP1 REVERT JUMPDEST POP PUSH2 0x1CC PUSH2 0x32F CALLDATASIZE PUSH1 0x4 PUSH2 0x2F2D JUMP JUMPDEST PUSH2 0x122E JUMP JUMPDEST CALLVALUE DUP1 ISZERO PUSH2 0x340 JUMPI PUSH1 0x0 DUP1 REVERT JUMPDEST POP PUSH2 0x1CC PUSH2 0x34F CALLDATASIZE PUSH1 0x4 PUSH2 0x3080 JUMP JUMPDEST PUSH2 0x137E JUMP JUMPDEST CALLVALUE DUP1 ISZERO PUSH2 0x360 JUMPI PUSH1 0x0 DUP1 REVERT JUMPDEST POP PUSH2 0x284 PUSH2 0x36F CALLDATASIZE PUSH1 0x4 PUSH2 0x3126 JUMP JUMPDEST PUSH2 0x1600 JUMP JUMPDEST CALLVALUE DUP1 ISZERO PUSH2 0x380 JUMPI PUSH1 0x0 DUP1 REVERT JUMPDEST POP PUSH2 0x192 PUSH2 0x38F CALLDATASIZE PUSH1 0x4 PUSH2 0x3192 JUMP JUMPDEST PUSH2 0x1800 JUMP JUMPDEST CALLVALUE DUP1 ISZERO PUSH2 0x3A0 JUMPI PUSH1 0x0 DUP1 REVERT JUMPDEST POP PUSH2 0x219 PUSH32 0x0 DUP2 JUMP JUMPDEST CALLVALUE DUP1 ISZERO PUSH2 0x3D4 JUMPI PUSH1 0x0 DUP1 REVERT JUMPDEST POP PUSH2 0x1CC PUSH2 0x3E3 CALLDATASIZE PUSH1 0x4 PUSH2 0x324E JUMP JUMPDEST PUSH2 0x18BB JUMP JUMPDEST CALLVALUE DUP1 ISZERO PUSH2 0x3F4 JUMPI PUSH1 0x0 DUP1 REVERT JUMPDEST POP PUSH2 0x192 PUSH2 0x403 CALLDATASIZE PUSH1 0x4 PUSH2 0x2D5C JUMP JUMPDEST PUSH2 0x1B9A JUMP JUMPDEST CALLVALUE DUP1 ISZERO PUSH2 0x414 JUMPI PUSH1 0x0 DUP1 REVERT JUMPDEST POP PUSH2 0x192 PUSH2 0x423 CALLDATASIZE PUSH1 0x4 PUSH2 0x32C1 JUMP JUMPDEST PUSH2 0x1C8F JUMP JUMPDEST CALLVALUE DUP1 ISZERO PUSH2 0x434 JUMPI PUSH1 0x0 DUP1 REVERT JUMPDEST POP PUSH2 0x448 PUSH2 0x443 CALLDATASIZE PUSH1 0x4 PUSH2 0x336B JUMP JUMPDEST PUSH2 0x1D68 JUMP JUMPDEST PUSH1 0x40 MLOAD SWAP1 ISZERO ISZERO DUP2 MSTORE PUSH1 0x20 ADD PUSH2 0x1A3 JUMP JUMPDEST PUSH2 0x1CC PUSH2 0x466 CALLDATASIZE PUSH1 0x4 PUSH2 0x3388 JUMP JUMPDEST PUSH2 0x1DFD JUMP JUMPDEST CALLVALUE DUP1 ISZERO PUSH2 0x477 JUMPI PUSH1 0x0 DUP1 REVERT JUMPDEST POP PUSH2 0x1CC PUSH2 0x486 CALLDATASIZE PUSH1 0x4 PUSH2 0x324E JUMP JUMPDEST PUSH2 0x2147 JUMP JUMPDEST CALLVALUE DUP1 ISZERO PUSH2 0x497 JUMPI PUSH1 0x0 DUP1 REVERT JUMPDEST POP PUSH2 0x219 PUSH32 0x0 DUP2 JUMP JUMPDEST PUSH1 0x0 DUP1 DUP3 TIMESTAMP DUP2 LT ISZERO PUSH2 0x4EC JUMPI PUSH1 0x40 MLOAD PUSH3 0x461BCD PUSH1 0xE5 SHL DUP2 MSTORE PUSH1 0x4 ADD PUSH2 0x4E3 SWAP1 PUSH2 0x33DE JUMP JUMPDEST PUSH1 0x40 MLOAD DUP1 SWAP2 SUB SWAP1 REVERT JUMPDEST PUSH1 0x0 PUSH2 0x4F9 DUP13 DUP13 DUP13 PUSH2 0x9F3 JUMP JUMPDEST PUSH1 0x40 MLOAD PUSH4 0x23B872DD PUSH1 0xE0 SHL DUP2 MSTORE CALLER PUSH1 0x4 DUP3 ADD MSTORE PUSH1 0x1 PUSH1 0x1 PUSH1 0xA0 SHL SUB DUP3 AND PUSH1 0x24 DUP3 ADD DUP2 SWAP1 MSTORE PUSH1 0x44 DUP3 ADD DUP13 SWAP1 MSTORE SWAP2 SWAP3 POP PUSH4 0x23B872DD SWAP1 PUSH1 0x64 ADD PUSH1 0x20 PUSH1 0x40 MLOAD DUP1 DUP4 SUB DUP2 PUSH1 0x0 DUP8 GAS CALL ISZERO DUP1 ISZERO PUSH2 0x54F JUMPI RETURNDATASIZE PUSH1 0x0 DUP1 RETURNDATACOPY RETURNDATASIZE PUSH1 0x0 REVERT JUMPDEST POP POP POP POP PUSH1 0x40 MLOAD RETURNDATASIZE PUSH1 0x1F NOT PUSH1 0x1F DUP3 ADD AND DUP3 ADD DUP1 PUSH1 0x40 MSTORE POP DUP2 ADD SWAP1 PUSH2 0x573 SWAP2 SWAP1 PUSH2 0x340D JUMP JUMPDEST PUSH2 0x57C JUMPI PUSH1 0x0 DUP1 REVERT JUMPDEST PUSH1 0x40 MLOAD PUSH4 0x226BF2D1 PUSH1 0xE2 SHL DUP2 MSTORE PUSH1 0x1 PUSH1 0x1 PUSH1 0xA0 SHL SUB DUP8 DUP2 AND PUSH1 0x4 DUP4 ADD MSTORE PUSH1 0x0 SWAP2 DUP3 SWAP2 DUP5 AND SWAP1 PUSH4 0x89AFCB44 SWAP1 PUSH1 0x24 ADD PUSH1 0x40 DUP1 MLOAD DUP1 DUP4 SUB DUP2 PUSH1 0x0 DUP8 GAS CALL ISZERO DUP1 ISZERO PUSH2 0x5C8 JUMPI RETURNDATASIZE PUSH1 0x0 DUP1 RETURNDATACOPY RETURNDATASIZE PUSH1 0x0 REVERT JUMPDEST POP POP POP POP PUSH1 0x40 MLOAD RETURNDATASIZE PUSH1 0x1F NOT PUSH1 0x1F DUP3 ADD AND DUP3 ADD DUP1 PUSH1 0x40 MSTORE POP DUP2 ADD SWAP1 PUSH2 0x5EC SWAP2 SWAP1 PUSH2 0x342A JUMP JUMPDEST SWAP2 POP SWAP2 POP PUSH1 0x0 PUSH2 0x5FC DUP16 DUP16 PUSH2 0xAFB JUMP JUMPDEST POP SWAP1 POP DUP1 PUSH1 0x1 PUSH1 0x1 PUSH1 0xA0 SHL SUB AND DUP16 PUSH1 0x1 PUSH1 0x1 PUSH1 0xA0 SHL SUB AND EQ PUSH2 0x61F JUMPI DUP2 DUP4 PUSH2 0x622 JUMP JUMPDEST DUP3 DUP3 JUMPDEST SWAP1 SWAP8 POP SWAP6 POP DUP11 DUP8 LT ISZERO PUSH2 0x647 JUMPI PUSH1 0x40 MLOAD PUSH3 0x461BCD PUSH1 0xE5 SHL DUP2 MSTORE PUSH1 0x4 ADD PUSH2 0x4E3 SWAP1 PUSH2 0x344E JUMP JUMPDEST DUP10 DUP7 LT ISZERO PUSH2 0x667 JUMPI PUSH1 0x40 MLOAD PUSH3 0x461BCD PUSH1 0xE5 SHL DUP2 MSTORE PUSH1 0x4 ADD PUSH2 0x4E3 SWAP1 PUSH2 0x3491 JUMP JUMPDEST POP POP POP POP POP SWAP9 POP SWAP9 SWAP7 POP POP POP POP POP POP POP JUMP JUMPDEST PUSH1 0x60 DUP2 TIMESTAMP DUP2 LT ISZERO PUSH2 0x69C JUMPI PUSH1 0x40 MLOAD PUSH3 0x461BCD PUSH1 0xE5 SHL DUP2 MSTORE PUSH1 0x4 ADD PUSH2 0x4E3 SWAP1 PUSH2 0x33DE JUMP JUMPDEST PUSH1 0x40 DUP1 MLOAD PUSH1 0x1 DUP1 DUP3 MSTORE DUP2 DUP4 ADD SWAP1 SWAP3 MSTORE PUSH1 0x0 SWAP2 DUP2 PUSH1 0x20 ADD JUMPDEST PUSH1 0x40 DUP1 MLOAD PUSH1 0x60 DUP2 ADD DUP3 MSTORE PUSH1 0x0 DUP1 DUP3 MSTORE PUSH1 0x20 DUP1 DUP4 ADD DUP3 SWAP1 MSTORE SWAP3 DUP3 ADD MSTORE DUP3 MSTORE PUSH1 0x0 NOT SWAP1 SWAP3 ADD SWAP2 ADD DUP2 PUSH2 0x6B3 JUMPI SWAP1 POP POP SWAP1 POP DUP8 DUP2 PUSH1 0x0 DUP2 MLOAD DUP2 LT PUSH2 0x6F6 JUMPI PUSH2 0x6F6 PUSH2 0x34D4 JUMP JUMPDEST PUSH1 0x20 MUL PUSH1 0x20 ADD ADD MLOAD PUSH1 0x0 ADD SWAP1 PUSH1 0x1 PUSH1 0x1 PUSH1 0xA0 SHL SUB AND SWAP1 DUP2 PUSH1 0x1 PUSH1 0x1 PUSH1 0xA0 SHL SUB AND DUP2 MSTORE POP POP DUP7 DUP2 PUSH1 0x0 DUP2 MLOAD DUP2 LT PUSH2 0x72E JUMPI PUSH2 0x72E PUSH2 0x34D4 JUMP JUMPDEST PUSH1 0x20 MUL PUSH1 0x20 ADD ADD MLOAD PUSH1 0x20 ADD SWAP1 PUSH1 0x1 PUSH1 0x1 PUSH1 0xA0 SHL SUB AND SWAP1 DUP2 PUSH1 0x1 PUSH1 0x1 PUSH1 0xA0 SHL SUB AND DUP2 MSTORE POP POP DUP6 DUP2 PUSH1 0x0 DUP2 MLOAD DUP2 LT PUSH2 0x766 JUMPI PUSH2 0x766 PUSH2 0x34D4 JUMP JUMPDEST PUSH1 0x20 SWAP1 DUP2 MUL SWAP2 SWAP1 SWAP2 ADD ADD MLOAD SWAP1 ISZERO ISZERO PUSH1 0x40 SWAP1 SWAP2 ADD MSTORE PUSH2 0x784 DUP11 DUP3 PUSH2 0x137E JUMP JUMPDEST SWAP3 POP DUP9 DUP4 PUSH1 0x1 DUP6 MLOAD PUSH2 0x796 SWAP2 SWAP1 PUSH2 0x3500 JUMP JUMPDEST DUP2 MLOAD DUP2 LT PUSH2 0x7A6 JUMPI PUSH2 0x7A6 PUSH2 0x34D4 JUMP JUMPDEST PUSH1 0x20 MUL PUSH1 0x20 ADD ADD MLOAD LT ISZERO PUSH2 0x7CC JUMPI PUSH1 0x40 MLOAD PUSH3 0x461BCD PUSH1 0xE5 SHL DUP2 MSTORE PUSH1 0x4 ADD PUSH2 0x4E3 SWAP1 PUSH2 0x3517 JUMP JUMPDEST PUSH2 0x874 DUP2 PUSH1 0x0 DUP2 MLOAD DUP2 LT PUSH2 0x7E2 JUMPI PUSH2 0x7E2 PUSH2 0x34D4 JUMP JUMPDEST PUSH1 0x20 MUL PUSH1 0x20 ADD ADD MLOAD PUSH1 0x0 ADD MLOAD CALLER PUSH2 0x854 DUP5 PUSH1 0x0 DUP2 MLOAD DUP2 LT PUSH2 0x805 JUMPI PUSH2 0x805 PUSH2 0x34D4 JUMP JUMPDEST PUSH1 0x20 MUL PUSH1 0x20 ADD ADD MLOAD PUSH1 0x0 ADD MLOAD DUP6 PUSH1 0x0 DUP2 MLOAD DUP2 LT PUSH2 0x824 JUMPI PUSH2 0x824 PUSH2 0x34D4 JUMP JUMPDEST PUSH1 0x20 MUL PUSH1 0x20 ADD ADD MLOAD PUSH1 0x20 ADD MLOAD DUP7 PUSH1 0x0 DUP2 MLOAD DUP2 LT PUSH2 0x843 JUMPI PUSH2 0x843 PUSH2 0x34D4 JUMP JUMPDEST PUSH1 0x20 MUL PUSH1 0x20 ADD ADD MLOAD PUSH1 0x40 ADD MLOAD PUSH2 0x9F3 JUMP JUMPDEST DUP7 PUSH1 0x0 DUP2 MLOAD DUP2 LT PUSH2 0x867 JUMPI PUSH2 0x867 PUSH2 0x34D4 JUMP JUMPDEST PUSH1 0x20 MUL PUSH1 0x20 ADD ADD MLOAD PUSH2 0x226C JUMP JUMPDEST PUSH2 0x87F DUP4 DUP3 DUP8 PUSH2 0x2364 JUMP JUMPDEST POP POP SWAP8 SWAP7 POP POP POP POP POP POP POP JUMP JUMPDEST PUSH1 0x0 DUP1 PUSH1 0x0 PUSH32 0x0 PUSH1 0x1 PUSH1 0x1 PUSH1 0xA0 SHL SUB AND PUSH4 0x6801CC30 DUP9 DUP9 DUP9 PUSH1 0x40 MLOAD DUP5 PUSH4 0xFFFFFFFF AND PUSH1 0xE0 SHL DUP2 MSTORE PUSH1 0x4 ADD PUSH2 0x8E1 SWAP4 SWAP3 SWAP2 SWAP1 PUSH2 0x355F JUMP JUMPDEST PUSH1 0x20 PUSH1 0x40 MLOAD DUP1 DUP4 SUB DUP2 DUP7 GAS STATICCALL ISZERO DUP1 ISZERO PUSH2 0x8FE JUMPI RETURNDATASIZE PUSH1 0x0 DUP1 RETURNDATACOPY RETURNDATASIZE PUSH1 0x0 REVERT JUMPDEST POP POP POP POP PUSH1 0x40 MLOAD RETURNDATASIZE PUSH1 0x1F NOT PUSH1 0x1F DUP3 ADD AND DUP3 ADD DUP1 PUSH1 0x40 MSTORE POP DUP2 ADD SWAP1 PUSH2 0x922 SWAP2 SWAP1 PUSH2 0x3583 JUMP JUMPDEST SWAP1 POP PUSH1 0x1 PUSH1 0x1 PUSH1 0xA0 SHL SUB DUP2 AND PUSH2 0x93F JUMPI PUSH1 0x0 DUP1 SWAP3 POP SWAP3 POP POP PUSH2 0x9EA JUMP JUMPDEST PUSH1 0x0 DUP1 PUSH2 0x94D DUP10 DUP10 DUP10 PUSH2 0x1164 JUMP JUMPDEST SWAP2 POP SWAP2 POP PUSH1 0x0 DUP4 PUSH1 0x1 PUSH1 0x1 PUSH1 0xA0 SHL SUB AND PUSH4 0x18160DDD PUSH1 0x40 MLOAD DUP2 PUSH4 0xFFFFFFFF AND PUSH1 0xE0 SHL DUP2 MSTORE PUSH1 0x4 ADD PUSH1 0x20 PUSH1 0x40 MLOAD DUP1 DUP4 SUB DUP2 DUP7 GAS STATICCALL ISZERO DUP1 ISZERO PUSH2 0x991 JUMPI RETURNDATASIZE PUSH1 0x0 DUP1 RETURNDATACOPY RETURNDATASIZE PUSH1 0x0 REVERT JUMPDEST POP POP POP POP PUSH1 0x40 MLOAD RETURNDATASIZE PUSH1 0x1F NOT PUSH1 0x1F DUP3 ADD AND DUP3 ADD DUP1 PUSH1 0x40 MSTORE POP DUP2 ADD SWAP1 PUSH2 0x9B5 SWAP2 SWAP1 PUSH2 0x35A0 JUMP JUMPDEST SWAP1 POP DUP1 PUSH2 0x9C2 DUP5 DUP10 PUSH2 0x35B9 JUMP JUMPDEST PUSH2 0x9CC SWAP2 SWAP1 PUSH2 0x35D8 JUMP JUMPDEST SWAP6 POP DUP1 PUSH2 0x9D9 DUP4 DUP10 PUSH2 0x35B9 JUMP JUMPDEST PUSH2 0x9E3 SWAP2 SWAP1 PUSH2 0x35D8 JUMP JUMPDEST SWAP5 POP POP POP POP POP JUMPDEST SWAP5 POP SWAP5 SWAP3 POP POP POP JUMP JUMPDEST PUSH1 0x0 DUP1 PUSH1 0x0 PUSH2 0xA02 DUP7 DUP7 PUSH2 0xAFB JUMP JUMPDEST PUSH1 0x40 MLOAD PUSH12 0xFFFFFFFFFFFFFFFFFFFFFFFF NOT PUSH1 0x60 DUP5 DUP2 SHL DUP3 AND PUSH1 0x20 DUP5 ADD MSTORE DUP4 SWAP1 SHL AND PUSH1 0x34 DUP3 ADD MSTORE DUP7 ISZERO ISZERO PUSH1 0xF8 SHL PUSH1 0x48 DUP3 ADD MSTORE SWAP2 SWAP4 POP SWAP2 POP PUSH32 0x0 SWAP1 PUSH1 0x49 ADD PUSH1 0x40 MLOAD PUSH1 0x20 DUP2 DUP4 SUB SUB DUP2 MSTORE SWAP1 PUSH1 0x40 MSTORE DUP1 MLOAD SWAP1 PUSH1 0x20 ADD KECCAK256 PUSH32 0x0 PUSH1 0x40 MLOAD PUSH1 0x20 ADD PUSH2 0xAD9 SWAP4 SWAP3 SWAP2 SWAP1 PUSH1 0x1 PUSH1 0x1 PUSH1 0xF8 SHL SUB NOT DUP2 MSTORE PUSH1 0x60 SWAP4 SWAP1 SWAP4 SHL PUSH12 0xFFFFFFFFFFFFFFFFFFFFFFFF NOT AND PUSH1 0x1 DUP5 ADD MSTORE PUSH1 0x15 DUP4 ADD SWAP2 SWAP1 SWAP2 MSTORE PUSH1 0x35 DUP3 ADD MSTORE PUSH1 0x55 ADD SWAP1 JUMP JUMPDEST PUSH1 0x40 DUP1 MLOAD PUSH1 0x1F NOT DUP2 DUP5 SUB ADD DUP2 MSTORE SWAP2 SWAP1 MSTORE DUP1 MLOAD PUSH1 0x20 SWAP1 SWAP2 ADD KECCAK256 SWAP7 SWAP6 POP POP POP POP POP POP JUMP JUMPDEST PUSH1 0x0 DUP1 DUP3 PUSH1 0x1 PUSH1 0x1 PUSH1 0xA0 SHL SUB AND DUP5 PUSH1 0x1 PUSH1 0x1 PUSH1 0xA0 SHL SUB AND EQ ISZERO PUSH2 0xB6A JUMPI PUSH1 0x40 MLOAD PUSH3 0x461BCD PUSH1 0xE5 SHL DUP2 MSTORE PUSH1 0x20 PUSH1 0x4 DUP3 ADD MSTORE PUSH1 0x21 PUSH1 0x24 DUP3 ADD MSTORE PUSH32 0x426173655631526F757465723A204944454E544943414C5F4144445245535345 PUSH1 0x44 DUP3 ADD MSTORE PUSH1 0x53 PUSH1 0xF8 SHL PUSH1 0x64 DUP3 ADD MSTORE PUSH1 0x84 ADD PUSH2 0x4E3 JUMP JUMPDEST DUP3 PUSH1 0x1 PUSH1 0x1 PUSH1 0xA0 SHL SUB AND DUP5 PUSH1 0x1 PUSH1 0x1 PUSH1 0xA0 SHL SUB AND LT PUSH2 0xB8A JUMPI DUP3 DUP5 PUSH2 0xB8D JUMP JUMPDEST DUP4 DUP4 JUMPDEST SWAP1 SWAP3 POP SWAP1 POP PUSH1 0x1 PUSH1 0x1 PUSH1 0xA0 SHL SUB DUP3 AND PUSH2 0xBE8 JUMPI PUSH1 0x40 MLOAD PUSH3 0x461BCD PUSH1 0xE5 SHL DUP2 MSTORE PUSH1 0x20 PUSH1 0x4 DUP3 ADD MSTORE PUSH1 0x1A PUSH1 0x24 DUP3 ADD MSTORE PUSH32 0x426173655631526F757465723A205A45524F5F41444452455353000000000000 PUSH1 0x44 DUP3 ADD MSTORE PUSH1 0x64 ADD PUSH2 0x4E3 JUMP JUMPDEST SWAP3 POP SWAP3 SWAP1 POP JUMP JUMPDEST PUSH1 0x0 DUP1 PUSH1 0x0 DUP4 TIMESTAMP DUP2 LT ISZERO PUSH2 0xC15 JUMPI PUSH1 0x40 MLOAD PUSH3 0x461BCD PUSH1 0xE5 SHL DUP2 MSTORE PUSH1 0x4 ADD PUSH2 0x4E3 SWAP1 PUSH2 0x33DE JUMP JUMPDEST PUSH2 0xC44 DUP12 PUSH32 0x0 DUP13 DUP13 CALLVALUE DUP14 DUP14 PUSH2 0x25B9 JUMP JUMPDEST SWAP1 SWAP5 POP SWAP3 POP PUSH1 0x0 PUSH2 0xC76 DUP13 PUSH32 0x0 DUP14 PUSH2 0x9F3 JUMP JUMPDEST SWAP1 POP PUSH2 0xC84 DUP13 CALLER DUP4 DUP9 PUSH2 0x226C JUMP JUMPDEST PUSH32 0x0 PUSH1 0x1 PUSH1 0x1 PUSH1 0xA0 SHL SUB AND PUSH4 0xD0E30DB0 DUP6 PUSH1 0x40 MLOAD DUP3 PUSH4 0xFFFFFFFF AND PUSH1 0xE0 SHL DUP2 MSTORE PUSH1 0x4 ADD PUSH1 0x0 PUSH1 0x40 MLOAD DUP1 DUP4 SUB DUP2 DUP6 DUP9 DUP1 EXTCODESIZE ISZERO DUP1 ISZERO PUSH2 0xCDF JUMPI PUSH1 0x0 DUP1 REVERT JUMPDEST POP GAS CALL ISZERO DUP1 ISZERO PUSH2 0xCF3 JUMPI RETURNDATASIZE PUSH1 0x0 DUP1 RETURNDATACOPY RETURNDATASIZE PUSH1 0x0 REVERT JUMPDEST POP POP PUSH1 0x40 MLOAD PUSH4 0xA9059CBB PUSH1 0xE0 SHL DUP2 MSTORE PUSH1 0x1 PUSH1 0x1 PUSH1 0xA0 SHL SUB DUP6 DUP2 AND PUSH1 0x4 DUP4 ADD MSTORE PUSH1 0x24 DUP3 ADD DUP10 SWAP1 MSTORE PUSH32 0x0 AND SWAP4 POP PUSH4 0xA9059CBB SWAP3 POP PUSH1 0x44 ADD SWAP1 POP PUSH1 0x20 PUSH1 0x40 MLOAD DUP1 DUP4 SUB DUP2 PUSH1 0x0 DUP8 GAS CALL ISZERO DUP1 ISZERO PUSH2 0xD68 JUMPI RETURNDATASIZE PUSH1 0x0 DUP1 RETURNDATACOPY RETURNDATASIZE PUSH1 0x0 REVERT JUMPDEST POP POP POP POP PUSH1 0x40 MLOAD RETURNDATASIZE PUSH1 0x1F NOT PUSH1 0x1F DUP3 ADD AND DUP3 ADD DUP1 PUSH1 0x40 MSTORE POP DUP2 ADD SWAP1 PUSH2 0xD8C SWAP2 SWAP1 PUSH2 0x340D JUMP JUMPDEST PUSH2 0xD98 JUMPI PUSH2 0xD98 PUSH2 0x2AFC JUMP JUMPDEST PUSH1 0x40 MLOAD PUSH4 0x35313C21 PUSH1 0xE1 SHL DUP2 MSTORE PUSH1 0x1 PUSH1 0x1 PUSH1 0xA0 SHL SUB DUP9 DUP2 AND PUSH1 0x4 DUP4 ADD MSTORE DUP3 AND SWAP1 PUSH4 0x6A627842 SWAP1 PUSH1 0x24 ADD PUSH1 0x20 PUSH1 0x40 MLOAD DUP1 DUP4 SUB DUP2 PUSH1 0x0 DUP8 GAS CALL ISZERO DUP1 ISZERO PUSH2 0xDE0 JUMPI RETURNDATASIZE PUSH1 0x0 DUP1 RETURNDATACOPY RETURNDATASIZE PUSH1 0x0 REVERT JUMPDEST POP POP POP POP PUSH1 0x40 MLOAD RETURNDATASIZE PUSH1 0x1F NOT PUSH1 0x1F DUP3 ADD AND DUP3 ADD DUP1 PUSH1 0x40 MSTORE POP DUP2 ADD SWAP1 PUSH2 0xE04 SWAP2 SWAP1 PUSH2 0x35A0 JUMP JUMPDEST SWAP3 POP DUP4 CALLVALUE GT ISZERO PUSH2 0xE21 JUMPI PUSH2 0xE21 CALLER PUSH2 0xE1C DUP7 CALLVALUE PUSH2 0x3500 JUMP JUMPDEST PUSH2 0x27D7 JUMP JUMPDEST POP POP SWAP8 POP SWAP8 POP SWAP8 SWAP5 POP POP POP POP POP JUMP JUMPDEST PUSH1 0x0 DUP1 PUSH1 0x0 DUP4 TIMESTAMP DUP2 LT ISZERO PUSH2 0xE56 JUMPI PUSH1 0x40 MLOAD PUSH3 0x461BCD PUSH1 0xE5 SHL DUP2 MSTORE PUSH1 0x4 ADD PUSH2 0x4E3 SWAP1 PUSH2 0x33DE JUMP JUMPDEST PUSH2 0xE65 DUP14 DUP14 DUP14 DUP14 DUP14 DUP14 DUP14 PUSH2 0x25B9 JUMP JUMPDEST SWAP1 SWAP5 POP SWAP3 POP PUSH1 0x0 PUSH2 0xE77 DUP15 DUP15 DUP15 PUSH2 0x9F3 JUMP JUMPDEST SWAP1 POP PUSH2 0xE85 DUP15 CALLER DUP4 DUP9 PUSH2 0x226C JUMP JUMPDEST PUSH2 0xE91 DUP14 CALLER DUP4 DUP8 PUSH2 0x226C JUMP JUMPDEST PUSH1 0x40 MLOAD PUSH4 0x35313C21 PUSH1 0xE1 SHL DUP2 MSTORE PUSH1 0x1 PUSH1 0x1 PUSH1 0xA0 SHL SUB DUP9 DUP2 AND PUSH1 0x4 DUP4 ADD MSTORE DUP3 AND SWAP1 PUSH4 0x6A627842 SWAP1 PUSH1 0x24 ADD PUSH1 0x20 PUSH1 0x40 MLOAD DUP1 DUP4 SUB DUP2 PUSH1 0x0 DUP8 GAS CALL ISZERO DUP1 ISZERO PUSH2 0xED9 JUMPI RETURNDATASIZE PUSH1 0x0 DUP1 RETURNDATACOPY RETURNDATASIZE PUSH1 0x0 REVERT JUMPDEST POP POP POP POP PUSH1 0x40 MLOAD RETURNDATASIZE PUSH1 0x1F NOT PUSH1 0x1F DUP3 ADD AND DUP3 ADD DUP1 PUSH1 0x40 MSTORE POP DUP2 ADD SWAP1 PUSH2 0xEFD SWAP2 SWAP1 PUSH2 0x35A0 JUMP JUMPDEST SWAP3 POP POP POP SWAP10 POP SWAP10 POP SWAP10 SWAP7 POP POP POP POP POP POP POP JUMP JUMPDEST PUSH1 0x0 DUP1 PUSH1 0x0 PUSH2 0xF21 DUP6 DUP6 PUSH1 0x1 PUSH2 0x9F3 JUMP JUMPDEST PUSH1 0x40 MLOAD PUSH4 0xE5E31B13 PUSH1 0xE0 SHL DUP2 MSTORE PUSH1 0x1 PUSH1 0x1 PUSH1 0xA0 SHL SUB DUP3 DUP2 AND PUSH1 0x4 DUP4 ADD MSTORE SWAP2 SWAP3 POP PUSH1 0x0 SWAP2 DUP3 SWAP2 PUSH32 0x0 SWAP1 SWAP2 AND SWAP1 PUSH4 0xE5E31B13 SWAP1 PUSH1 0x24 ADD PUSH1 0x20 PUSH1 0x40 MLOAD DUP1 DUP4 SUB DUP2 DUP7 GAS STATICCALL ISZERO DUP1 ISZERO PUSH2 0xF91 JUMPI RETURNDATASIZE PUSH1 0x0 DUP1 RETURNDATACOPY RETURNDATASIZE PUSH1 0x0 REVERT JUMPDEST POP POP POP POP PUSH1 0x40 MLOAD RETURNDATASIZE PUSH1 0x1F NOT PUSH1 0x1F DUP3 ADD AND DUP3 ADD DUP1 PUSH1 0x40 MSTORE POP DUP2 ADD SWAP1 PUSH2 0xFB5 SWAP2 SWAP1 PUSH2 0x340D JUMP JUMPDEST ISZERO PUSH2 0x102E JUMPI PUSH1 0x40 MLOAD PUSH4 0x78A051AD PUSH1 0xE1 SHL DUP2 MSTORE PUSH1 0x4 DUP2 ADD DUP10 SWAP1 MSTORE PUSH1 0x1 PUSH1 0x1 PUSH1 0xA0 SHL SUB DUP9 DUP2 AND PUSH1 0x24 DUP4 ADD MSTORE DUP5 AND SWAP1 PUSH4 0xF140A35A SWAP1 PUSH1 0x44 ADD PUSH1 0x20 PUSH1 0x40 MLOAD DUP1 DUP4 SUB DUP2 DUP7 GAS STATICCALL ISZERO DUP1 ISZERO PUSH2 0x1007 JUMPI RETURNDATASIZE PUSH1 0x0 DUP1 RETURNDATACOPY RETURNDATASIZE PUSH1 0x0 REVERT JUMPDEST POP POP POP POP PUSH1 0x40 MLOAD RETURNDATASIZE PUSH1 0x1F NOT PUSH1 0x1F DUP3 ADD AND DUP3 ADD DUP1 PUSH1 0x40 MSTORE POP DUP2 ADD SWAP1 PUSH2 0x102B SWAP2 SWAP1 PUSH2 0x35A0 JUMP JUMPDEST SWAP2 POP JUMPDEST PUSH2 0x103A DUP8 DUP8 PUSH1 0x0 PUSH2 0x9F3 JUMP JUMPDEST PUSH1 0x40 MLOAD PUSH4 0xE5E31B13 PUSH1 0xE0 SHL DUP2 MSTORE PUSH1 0x1 PUSH1 0x1 PUSH1 0xA0 SHL SUB DUP1 DUP4 AND PUSH1 0x4 DUP4 ADD MSTORE SWAP2 SWAP5 POP PUSH32 0x0 SWAP1 SWAP2 AND SWAP1 PUSH4 0xE5E31B13 SWAP1 PUSH1 0x24 ADD PUSH1 0x20 PUSH1 0x40 MLOAD DUP1 DUP4 SUB DUP2 DUP7 GAS STATICCALL ISZERO DUP1 ISZERO PUSH2 0x10A5 JUMPI RETURNDATASIZE PUSH1 0x0 DUP1 RETURNDATACOPY RETURNDATASIZE PUSH1 0x0 REVERT JUMPDEST POP POP POP POP PUSH1 0x40 MLOAD RETURNDATASIZE PUSH1 0x1F NOT PUSH1 0x1F DUP3 ADD AND DUP3 ADD DUP1 PUSH1 0x40 MSTORE POP DUP2 ADD SWAP1 PUSH2 0x10C9 SWAP2 SWAP1 PUSH2 0x340D JUMP JUMPDEST ISZERO PUSH2 0x1142 JUMPI PUSH1 0x40 MLOAD PUSH4 0x78A051AD PUSH1 0xE1 SHL DUP2 MSTORE PUSH1 0x4 DUP2 ADD DUP10 SWAP1 MSTORE PUSH1 0x1 PUSH1 0x1 PUSH1 0xA0 SHL SUB DUP9 DUP2 AND PUSH1 0x24 DUP4 ADD MSTORE DUP5 AND SWAP1 PUSH4 0xF140A35A SWAP1 PUSH1 0x44 ADD PUSH1 0x20 PUSH1 0x40 MLOAD DUP1 DUP4 SUB DUP2 DUP7 GAS STATICCALL ISZERO DUP1 ISZERO PUSH2 0x111B JUMPI RETURNDATASIZE PUSH1 0x0 DUP1 RETURNDATACOPY RETURNDATASIZE PUSH1 0x0 REVERT JUMPDEST POP POP POP POP PUSH1 0x40 MLOAD RETURNDATASIZE PUSH1 0x1F NOT PUSH1 0x1F DUP3 ADD AND DUP3 ADD DUP1 PUSH1 0x40 MSTORE POP DUP2 ADD SWAP1 PUSH2 0x113F SWAP2 SWAP1 PUSH2 0x35A0 JUMP JUMPDEST SWAP1 POP JUMPDEST DUP1 DUP3 GT PUSH2 0x1151 JUMPI DUP1 PUSH1 0x0 PUSH2 0x1155 JUMP JUMPDEST DUP2 PUSH1 0x1 JUMPDEST SWAP5 POP SWAP5 POP POP POP POP SWAP4 POP SWAP4 SWAP2 POP POP JUMP JUMPDEST PUSH1 0x0 DUP1 PUSH1 0x0 PUSH2 0x1173 DUP7 DUP7 PUSH2 0xAFB JUMP JUMPDEST POP SWAP1 POP PUSH1 0x0 DUP1 PUSH2 0x1184 DUP9 DUP9 DUP9 PUSH2 0x9F3 JUMP JUMPDEST PUSH1 0x1 PUSH1 0x1 PUSH1 0xA0 SHL SUB AND PUSH4 0x902F1AC PUSH1 0x40 MLOAD DUP2 PUSH4 0xFFFFFFFF AND PUSH1 0xE0 SHL DUP2 MSTORE PUSH1 0x4 ADD PUSH1 0x60 PUSH1 0x40 MLOAD DUP1 DUP4 SUB DUP2 DUP7 GAS STATICCALL ISZERO DUP1 ISZERO PUSH2 0x11C1 JUMPI RETURNDATASIZE PUSH1 0x0 DUP1 RETURNDATACOPY RETURNDATASIZE PUSH1 0x0 REVERT JUMPDEST POP POP POP POP PUSH1 0x40 MLOAD RETURNDATASIZE PUSH1 0x1F NOT PUSH1 0x1F DUP3 ADD AND DUP3 ADD DUP1 PUSH1 0x40 MSTORE POP DUP2 ADD SWAP1 PUSH2 0x11E5 SWAP2 SWAP1 PUSH2 0x3611 JUMP JUMPDEST POP PUSH1 0x1 PUSH1 0x1 PUSH1 0x70 SHL SUB AND SWAP2 POP PUSH1 0x1 PUSH1 0x1 PUSH1 0x70 SHL SUB AND SWAP2 POP DUP3 PUSH1 0x1 PUSH1 0x1 PUSH1 0xA0 SHL SUB AND DUP9 PUSH1 0x1 PUSH1 0x1 PUSH1 0xA0 SHL SUB AND EQ PUSH2 0x121C JUMPI DUP1 DUP3 PUSH2 0x121F JUMP JUMPDEST DUP2 DUP2 JUMPDEST SWAP1 SWAP10 SWAP1 SWAP9 POP SWAP7 POP POP POP POP POP POP POP JUMP JUMPDEST PUSH1 0x60 DUP2 TIMESTAMP DUP2 LT ISZERO PUSH2 0x1251 JUMPI PUSH1 0x40 MLOAD PUSH3 0x461BCD PUSH1 0xE5 SHL DUP2 MSTORE PUSH1 0x4 ADD PUSH2 0x4E3 SWAP1 PUSH2 0x33DE JUMP JUMPDEST PUSH2 0x1313 DUP7 DUP7 PUSH1 0x0 DUP2 DUP2 LT PUSH2 0x1267 JUMPI PUSH2 0x1267 PUSH2 0x34D4 JUMP JUMPDEST PUSH2 0x127D SWAP3 PUSH1 0x20 PUSH1 0x60 SWAP1 SWAP3 MUL ADD SWAP1 DUP2 ADD SWAP2 POP PUSH2 0x336B JUMP JUMPDEST CALLER PUSH2 0x1300 DUP10 DUP10 PUSH1 0x0 DUP2 DUP2 LT PUSH2 0x1294 JUMPI PUSH2 0x1294 PUSH2 0x34D4 JUMP JUMPDEST PUSH2 0x12AA SWAP3 PUSH1 0x20 PUSH1 0x60 SWAP1 SWAP3 MUL ADD SWAP1 DUP2 ADD SWAP2 POP PUSH2 0x336B JUMP JUMPDEST DUP11 DUP11 PUSH1 0x0 DUP2 DUP2 LT PUSH2 0x12BD JUMPI PUSH2 0x12BD PUSH2 0x34D4 JUMP JUMPDEST SWAP1 POP PUSH1 0x60 MUL ADD PUSH1 0x20 ADD PUSH1 0x20 DUP2 ADD SWAP1 PUSH2 0x12D5 SWAP2 SWAP1 PUSH2 0x336B JUMP JUMPDEST DUP12 DUP12 PUSH1 0x0 DUP2 DUP2 LT PUSH2 0x12E8 JUMPI PUSH2 0x12E8 PUSH2 0x34D4 JUMP JUMPDEST SWAP1 POP PUSH1 0x60 MUL ADD PUSH1 0x40 ADD PUSH1 0x20 DUP2 ADD SWAP1 PUSH2 0x214 SWAP2 SWAP1 PUSH2 0x3656 JUMP JUMPDEST DUP11 PUSH1 0x0 DUP2 MLOAD DUP2 LT PUSH2 0x867 JUMPI PUSH2 0x867 PUSH2 0x34D4 JUMP JUMPDEST PUSH2 0x1370 DUP8 DUP8 DUP8 DUP1 DUP1 PUSH1 0x20 MUL PUSH1 0x20 ADD PUSH1 0x40 MLOAD SWAP1 DUP2 ADD PUSH1 0x40 MSTORE DUP1 SWAP4 SWAP3 SWAP2 SWAP1 DUP2 DUP2 MSTORE PUSH1 0x20 ADD PUSH1 0x0 SWAP1 JUMPDEST DUP3 DUP3 LT ISZERO PUSH2 0x1365 JUMPI PUSH2 0x1356 PUSH1 0x60 DUP4 MUL DUP7 ADD CALLDATASIZE DUP2 SWAP1 SUB DUP2 ADD SWAP1 PUSH2 0x3673 JUMP JUMPDEST DUP2 MSTORE PUSH1 0x20 ADD SWAP1 PUSH1 0x1 ADD SWAP1 PUSH2 0x1339 JUMP JUMPDEST POP POP POP POP POP DUP7 PUSH2 0x2364 JUMP JUMPDEST DUP7 SWAP2 POP JUMPDEST POP SWAP6 SWAP5 POP POP POP POP POP JUMP JUMPDEST PUSH1 0x60 PUSH1 0x1 DUP3 MLOAD LT ISZERO PUSH2 0x13A2 JUMPI PUSH1 0x40 MLOAD PUSH3 0x461BCD PUSH1 0xE5 SHL DUP2 MSTORE PUSH1 0x4 ADD PUSH2 0x4E3 SWAP1 PUSH2 0x368F JUMP JUMPDEST DUP2 MLOAD PUSH2 0x13AF SWAP1 PUSH1 0x1 PUSH2 0x36C6 JUMP JUMPDEST PUSH8 0xFFFFFFFFFFFFFFFF DUP2 GT ISZERO PUSH2 0x13C7 JUMPI PUSH2 0x13C7 PUSH2 0x2E7D JUMP JUMPDEST PUSH1 0x40 MLOAD SWAP1 DUP1 DUP3 MSTORE DUP1 PUSH1 0x20 MUL PUSH1 0x20 ADD DUP3 ADD PUSH1 0x40 MSTORE DUP1 ISZERO PUSH2 0x13F0 JUMPI DUP2 PUSH1 0x20 ADD PUSH1 0x20 DUP3 MUL DUP1 CALLDATASIZE DUP4 CALLDATACOPY ADD SWAP1 POP JUMPDEST POP SWAP1 POP DUP3 DUP2 PUSH1 0x0 DUP2 MLOAD DUP2 LT PUSH2 0x1407 JUMPI PUSH2 0x1407 PUSH2 0x34D4 JUMP JUMPDEST PUSH1 0x20 MUL PUSH1 0x20 ADD ADD DUP2 DUP2 MSTORE POP POP PUSH1 0x0 JUMPDEST DUP3 MLOAD DUP2 LT ISZERO PUSH2 0x15F9 JUMPI PUSH1 0x0 PUSH2 0x1472 DUP5 DUP4 DUP2 MLOAD DUP2 LT PUSH2 0x1436 JUMPI PUSH2 0x1436 PUSH2 0x34D4 JUMP JUMPDEST PUSH1 0x20 MUL PUSH1 0x20 ADD ADD MLOAD PUSH1 0x0 ADD MLOAD DUP6 DUP5 DUP2 MLOAD DUP2 LT PUSH2 0x1454 JUMPI PUSH2 0x1454 PUSH2 0x34D4 JUMP JUMPDEST PUSH1 0x20 MUL PUSH1 0x20 ADD ADD MLOAD PUSH1 0x20 ADD MLOAD DUP7 DUP6 DUP2 MLOAD DUP2 LT PUSH2 0x843 JUMPI PUSH2 0x843 PUSH2 0x34D4 JUMP JUMPDEST PUSH1 0x40 MLOAD PUSH4 0xE5E31B13 PUSH1 0xE0 SHL DUP2 MSTORE PUSH1 0x1 PUSH1 0x1 PUSH1 0xA0 SHL SUB DUP1 DUP4 AND PUSH1 0x4 DUP4 ADD MSTORE SWAP2 SWAP3 POP PUSH32 0x0 SWAP1 SWAP2 AND SWAP1 PUSH4 0xE5E31B13 SWAP1 PUSH1 0x24 ADD PUSH1 0x20 PUSH1 0x40 MLOAD DUP1 DUP4 SUB DUP2 DUP7 GAS STATICCALL ISZERO DUP1 ISZERO PUSH2 0x14DD JUMPI RETURNDATASIZE PUSH1 0x0 DUP1 RETURNDATACOPY RETURNDATASIZE PUSH1 0x0 REVERT JUMPDEST POP POP POP POP PUSH1 0x40 MLOAD RETURNDATASIZE PUSH1 0x1F NOT PUSH1 0x1F DUP3 ADD AND DUP3 ADD DUP1 PUSH1 0x40 MSTORE POP DUP2 ADD SWAP1 PUSH2 0x1501 SWAP2 SWAP1 PUSH2 0x340D JUMP JUMPDEST ISZERO PUSH2 0x15E6 JUMPI DUP1 PUSH1 0x1 PUSH1 0x1 PUSH1 0xA0 SHL SUB AND PUSH4 0xF140A35A DUP5 DUP5 DUP2 MLOAD DUP2 LT PUSH2 0x1527 JUMPI PUSH2 0x1527 PUSH2 0x34D4 JUMP JUMPDEST PUSH1 0x20 MUL PUSH1 0x20 ADD ADD MLOAD DUP7 DUP6 DUP2 MLOAD DUP2 LT PUSH2 0x1541 JUMPI PUSH2 0x1541 PUSH2 0x34D4 JUMP JUMPDEST PUSH1 0x20 MUL PUSH1 0x20 ADD ADD MLOAD PUSH1 0x0 ADD MLOAD PUSH1 0x40 MLOAD DUP4 PUSH4 0xFFFFFFFF AND PUSH1 0xE0 SHL DUP2 MSTORE PUSH1 0x4 ADD PUSH2 0x157C SWAP3 SWAP2 SWAP1 SWAP2 DUP3 MSTORE PUSH1 0x1 PUSH1 0x1 PUSH1 0xA0 SHL SUB AND PUSH1 0x20 DUP3 ADD MSTORE PUSH1 0x40 ADD SWAP1 JUMP JUMPDEST PUSH1 0x20 PUSH1 0x40 MLOAD DUP1 DUP4 SUB DUP2 DUP7 GAS STATICCALL ISZERO DUP1 ISZERO PUSH2 0x1599 JUMPI RETURNDATASIZE PUSH1 0x0 DUP1 RETURNDATACOPY RETURNDATASIZE PUSH1 0x0 REVERT JUMPDEST POP POP POP POP PUSH1 0x40 MLOAD RETURNDATASIZE PUSH1 0x1F NOT PUSH1 0x1F DUP3 ADD AND DUP3 ADD DUP1 PUSH1 0x40 MSTORE POP DUP2 ADD SWAP1 PUSH2 0x15BD SWAP2 SWAP1 PUSH2 0x35A0 JUMP JUMPDEST DUP4 PUSH2 0x15C9 DUP5 PUSH1 0x1 PUSH2 0x36C6 JUMP JUMPDEST DUP2 MLOAD DUP2 LT PUSH2 0x15D9 JUMPI PUSH2 0x15D9 PUSH2 0x34D4 JUMP JUMPDEST PUSH1 0x20 MUL PUSH1 0x20 ADD ADD DUP2 DUP2 MSTORE POP POP JUMPDEST POP DUP1 PUSH2 0x15F1 DUP2 PUSH2 0x36DE JUMP JUMPDEST SWAP2 POP POP PUSH2 0x1416 JUMP JUMPDEST POP SWAP3 SWAP2 POP POP JUMP JUMPDEST PUSH1 0x0 DUP1 PUSH1 0x0 DUP1 PUSH32 0x0 PUSH1 0x1 PUSH1 0x1 PUSH1 0xA0 SHL SUB AND PUSH4 0x6801CC30 DUP11 DUP11 DUP11 PUSH1 0x40 MLOAD DUP5 PUSH4 0xFFFFFFFF AND PUSH1 0xE0 SHL DUP2 MSTORE PUSH1 0x4 ADD PUSH2 0x1656 SWAP4 SWAP3 SWAP2 SWAP1 PUSH2 0x355F JUMP JUMPDEST PUSH1 0x20 PUSH1 0x40 MLOAD DUP1 DUP4 SUB DUP2 DUP7 GAS STATICCALL ISZERO DUP1 ISZERO PUSH2 0x1673 JUMPI RETURNDATASIZE PUSH1 0x0 DUP1 RETURNDATACOPY RETURNDATASIZE PUSH1 0x0 REVERT JUMPDEST POP POP POP POP PUSH1 0x40 MLOAD RETURNDATASIZE PUSH1 0x1F NOT PUSH1 0x1F DUP3 ADD AND DUP3 ADD DUP1 PUSH1 0x40 MSTORE POP DUP2 ADD SWAP1 PUSH2 0x1697 SWAP2 SWAP1 PUSH2 0x3583 JUMP JUMPDEST SWAP1 POP PUSH1 0x0 DUP1 DUP1 PUSH1 0x1 PUSH1 0x1 PUSH1 0xA0 SHL SUB DUP5 AND ISZERO PUSH2 0x1721 JUMPI DUP4 PUSH1 0x1 PUSH1 0x1 PUSH1 0xA0 SHL SUB AND PUSH4 0x18160DDD PUSH1 0x40 MLOAD DUP2 PUSH4 0xFFFFFFFF AND PUSH1 0xE0 SHL DUP2 MSTORE PUSH1 0x4 ADD PUSH1 0x20 PUSH1 0x40 MLOAD DUP1 DUP4 SUB DUP2 DUP7 GAS STATICCALL ISZERO DUP1 ISZERO PUSH2 0x16EA JUMPI RETURNDATASIZE PUSH1 0x0 DUP1 RETURNDATACOPY RETURNDATASIZE PUSH1 0x0 REVERT JUMPDEST POP POP POP POP PUSH1 0x40 MLOAD RETURNDATASIZE PUSH1 0x1F NOT PUSH1 0x1F DUP3 ADD AND DUP3 ADD DUP1 PUSH1 0x40 MSTORE POP DUP2 ADD SWAP1 PUSH2 0x170E SWAP2 SWAP1 PUSH2 0x35A0 JUMP JUMPDEST SWAP1 POP PUSH2 0x171B DUP13 DUP13 DUP13 PUSH2 0x1164 JUMP JUMPDEST SWAP1 SWAP4 POP SWAP2 POP JUMPDEST DUP3 ISZERO DUP1 ISZERO PUSH2 0x172D JUMPI POP DUP2 ISZERO JUMPDEST ISZERO PUSH2 0x175E JUMPI DUP9 SWAP7 POP DUP8 SWAP6 POP PUSH2 0x3E8 PUSH2 0x174D PUSH2 0x1748 DUP9 DUP11 PUSH2 0x35B9 JUMP JUMPDEST PUSH2 0x28A5 JUMP JUMPDEST PUSH2 0x1757 SWAP2 SWAP1 PUSH2 0x3500 JUMP JUMPDEST SWAP5 POP PUSH2 0x17F1 JUMP JUMPDEST PUSH1 0x0 PUSH2 0x176B DUP11 DUP6 DUP6 PUSH2 0x2915 JUMP JUMPDEST SWAP1 POP DUP9 DUP2 GT PUSH2 0x17B3 JUMPI DUP10 SWAP8 POP SWAP6 POP DUP6 PUSH2 0x17AC DUP5 PUSH2 0x1788 DUP5 DUP12 PUSH2 0x35B9 JUMP JUMPDEST PUSH2 0x1792 SWAP2 SWAP1 PUSH2 0x35D8 JUMP JUMPDEST DUP5 PUSH2 0x179D DUP6 DUP12 PUSH2 0x35B9 JUMP JUMPDEST PUSH2 0x17A7 SWAP2 SWAP1 PUSH2 0x35D8 JUMP JUMPDEST PUSH2 0x29F5 JUMP JUMPDEST SWAP6 POP PUSH2 0x17EF JUMP JUMPDEST PUSH1 0x0 PUSH2 0x17C0 DUP11 DUP6 DUP8 PUSH2 0x2915 JUMP JUMPDEST SWAP9 POP DUP10 SWAP8 POP DUP9 SWAP1 POP PUSH2 0x17EB DUP6 PUSH2 0x17D6 DUP6 DUP5 PUSH2 0x35B9 JUMP JUMPDEST PUSH2 0x17E0 SWAP2 SWAP1 PUSH2 0x35D8 JUMP JUMPDEST DUP6 PUSH2 0x179D DUP7 DUP13 PUSH2 0x35B9 JUMP JUMPDEST SWAP7 POP POP JUMPDEST POP JUMPDEST POP POP POP POP SWAP6 POP SWAP6 POP SWAP6 SWAP3 POP POP POP JUMP JUMPDEST PUSH1 0x0 DUP1 PUSH1 0x0 PUSH2 0x1810 DUP16 DUP16 DUP16 PUSH2 0x9F3 JUMP JUMPDEST SWAP1 POP PUSH1 0x0 DUP8 PUSH2 0x181F JUMPI DUP13 PUSH2 0x1823 JUMP JUMPDEST PUSH1 0x0 NOT JUMPDEST PUSH1 0x40 MLOAD PUSH4 0xD505ACCF PUSH1 0xE0 SHL DUP2 MSTORE SWAP1 SWAP2 POP PUSH1 0x1 PUSH1 0x1 PUSH1 0xA0 SHL SUB DUP4 AND SWAP1 PUSH4 0xD505ACCF SWAP1 PUSH2 0x185E SWAP1 CALLER SWAP1 ADDRESS SWAP1 DUP7 SWAP1 DUP16 SWAP1 DUP15 SWAP1 DUP15 SWAP1 DUP15 SWAP1 PUSH1 0x4 ADD PUSH2 0x36F9 JUMP JUMPDEST PUSH1 0x0 PUSH1 0x40 MLOAD DUP1 DUP4 SUB DUP2 PUSH1 0x0 DUP8 DUP1 EXTCODESIZE ISZERO DUP1 ISZERO PUSH2 0x1878 JUMPI PUSH1 0x0 DUP1 REVERT JUMPDEST POP GAS CALL ISZERO DUP1 ISZERO PUSH2 0x188C JUMPI RETURNDATASIZE PUSH1 0x0 DUP1 RETURNDATACOPY RETURNDATASIZE PUSH1 0x0 REVERT JUMPDEST POP POP POP POP POP PUSH2 0x18A1 DUP16 DUP16 DUP16 DUP16 DUP16 DUP16 DUP16 DUP16 PUSH2 0x4BF JUMP JUMPDEST DUP1 SWAP4 POP DUP2 SWAP5 POP POP POP POP SWAP13 POP SWAP13 SWAP11 POP POP POP POP POP POP POP POP POP POP POP JUMP JUMPDEST PUSH1 0x60 DUP2 TIMESTAMP DUP2 LT ISZERO PUSH2 0x18DE JUMPI PUSH1 0x40 MLOAD PUSH3 0x461BCD PUSH1 0xE5 SHL DUP2 MSTORE PUSH1 0x4 ADD PUSH2 0x4E3 SWAP1 PUSH2 0x33DE JUMP JUMPDEST PUSH1 0x1 PUSH1 0x1 PUSH1 0xA0 SHL SUB PUSH32 0x0 AND DUP7 DUP7 PUSH2 0x1915 PUSH1 0x1 DUP3 PUSH2 0x3500 JUMP JUMPDEST DUP2 DUP2 LT PUSH2 0x1924 JUMPI PUSH2 0x1924 PUSH2 0x34D4 JUMP JUMPDEST SWAP1 POP PUSH1 0x60 MUL ADD PUSH1 0x20 ADD PUSH1 0x20 DUP2 ADD SWAP1 PUSH2 0x193C SWAP2 SWAP1 PUSH2 0x336B JUMP JUMPDEST PUSH1 0x1 PUSH1 0x1 PUSH1 0xA0 SHL SUB AND EQ PUSH2 0x1962 JUMPI PUSH1 0x40 MLOAD PUSH3 0x461BCD PUSH1 0xE5 SHL DUP2 MSTORE PUSH1 0x4 ADD PUSH2 0x4E3 SWAP1 PUSH2 0x368F JUMP JUMPDEST PUSH2 0x19BE DUP9 DUP8 DUP8 DUP1 DUP1 PUSH1 0x20 MUL PUSH1 0x20 ADD PUSH1 0x40 MLOAD SWAP1 DUP2 ADD PUSH1 0x40 MSTORE DUP1 SWAP4 SWAP3 SWAP2 SWAP1 DUP2 DUP2 MSTORE PUSH1 0x20 ADD PUSH1 0x0 SWAP1 JUMPDEST DUP3 DUP3 LT ISZERO PUSH2 0x19B4 JUMPI PUSH2 0x19A5 PUSH1 0x60 DUP4 MUL DUP7 ADD CALLDATASIZE DUP2 SWAP1 SUB DUP2 ADD SWAP1 PUSH2 0x3673 JUMP JUMPDEST DUP2 MSTORE PUSH1 0x20 ADD SWAP1 PUSH1 0x1 ADD SWAP1 PUSH2 0x1988 JUMP JUMPDEST POP POP POP POP POP PUSH2 0x137E JUMP JUMPDEST SWAP2 POP DUP7 DUP3 PUSH1 0x1 DUP5 MLOAD PUSH2 0x19D0 SWAP2 SWAP1 PUSH2 0x3500 JUMP JUMPDEST DUP2 MLOAD DUP2 LT PUSH2 0x19E0 JUMPI PUSH2 0x19E0 PUSH2 0x34D4 JUMP JUMPDEST PUSH1 0x20 MUL PUSH1 0x20 ADD ADD MLOAD LT ISZERO PUSH2 0x1A06 JUMPI PUSH1 0x40 MLOAD PUSH3 0x461BCD PUSH1 0xE5 SHL DUP2 MSTORE PUSH1 0x4 ADD PUSH2 0x4E3 SWAP1 PUSH2 0x3517 JUMP JUMPDEST PUSH2 0x1A5C DUP7 DUP7 PUSH1 0x0 DUP2 DUP2 LT PUSH2 0x1A1C JUMPI PUSH2 0x1A1C PUSH2 0x34D4 JUMP JUMPDEST PUSH2 0x1A32 SWAP3 PUSH1 0x20 PUSH1 0x60 SWAP1 SWAP3 MUL ADD SWAP1 DUP2 ADD SWAP2 POP PUSH2 0x336B JUMP JUMPDEST CALLER PUSH2 0x1A49 DUP10 DUP10 PUSH1 0x0 DUP2 DUP2 LT PUSH2 0x1294 JUMPI PUSH2 0x1294 PUSH2 0x34D4 JUMP JUMPDEST DUP6 PUSH1 0x0 DUP2 MLOAD DUP2 LT PUSH2 0x867 JUMPI PUSH2 0x867 PUSH2 0x34D4 JUMP JUMPDEST PUSH2 0x1AB9 DUP3 DUP8 DUP8 DUP1 DUP1 PUSH1 0x20 MUL PUSH1 0x20 ADD PUSH1 0x40 MLOAD SWAP1 DUP2 ADD PUSH1 0x40 MSTORE DUP1 SWAP4 SWAP3 SWAP2 SWAP1 DUP2 DUP2 MSTORE PUSH1 0x20 ADD PUSH1 0x0 SWAP1 JUMPDEST DUP3 DUP3 LT ISZERO PUSH2 0x1AAE JUMPI PUSH2 0x1A9F PUSH1 0x60 DUP4 MUL DUP7 ADD CALLDATASIZE DUP2 SWAP1 SUB DUP2 ADD SWAP1 PUSH2 0x3673 JUMP JUMPDEST DUP2 MSTORE PUSH1 0x20 ADD SWAP1 PUSH1 0x1 ADD SWAP1 PUSH2 0x1A82 JUMP JUMPDEST POP POP POP POP POP ADDRESS PUSH2 0x2364 JUMP JUMPDEST PUSH32 0x0 PUSH1 0x1 PUSH1 0x1 PUSH1 0xA0 SHL SUB AND PUSH4 0x2E1A7D4D DUP4 PUSH1 0x1 DUP6 MLOAD PUSH2 0x1AF7 SWAP2 SWAP1 PUSH2 0x3500 JUMP JUMPDEST DUP2 MLOAD DUP2 LT PUSH2 0x1B07 JUMPI PUSH2 0x1B07 PUSH2 0x34D4 JUMP JUMPDEST PUSH1 0x20 MUL PUSH1 0x20 ADD ADD MLOAD PUSH1 0x40 MLOAD DUP3 PUSH4 0xFFFFFFFF AND PUSH1 0xE0 SHL DUP2 MSTORE PUSH1 0x4 ADD PUSH2 0x1B2D SWAP2 DUP2 MSTORE PUSH1 0x20 ADD SWAP1 JUMP JUMPDEST PUSH1 0x0 PUSH1 0x40 MLOAD DUP1 DUP4 SUB DUP2 PUSH1 0x0 DUP8 DUP1 EXTCODESIZE ISZERO DUP1 ISZERO PUSH2 0x1B47 JUMPI PUSH1 0x0 DUP1 REVERT JUMPDEST POP GAS CALL ISZERO DUP1 ISZERO PUSH2 0x1B5B JUMPI RETURNDATASIZE PUSH1 0x0 DUP1 RETURNDATACOPY RETURNDATASIZE PUSH1 0x0 REVERT JUMPDEST POP POP POP POP PUSH2 0x1B8F DUP5 DUP4 PUSH1 0x1 DUP6 MLOAD PUSH2 0x1B72 SWAP2 SWAP1 PUSH2 0x3500 JUMP JUMPDEST DUP2 MLOAD DUP2 LT PUSH2 0x1B82 JUMPI PUSH2 0x1B82 PUSH2 0x34D4 JUMP JUMPDEST PUSH1 0x20 MUL PUSH1 0x20 ADD ADD MLOAD PUSH2 0x27D7 JUMP JUMPDEST POP SWAP7 SWAP6 POP POP POP POP POP POP JUMP JUMPDEST PUSH1 0x0 DUP1 DUP3 TIMESTAMP DUP2 LT ISZERO PUSH2 0x1BBE JUMPI PUSH1 0x40 MLOAD PUSH3 0x461BCD PUSH1 0xE5 SHL DUP2 MSTORE PUSH1 0x4 ADD PUSH2 0x4E3 SWAP1 PUSH2 0x33DE JUMP JUMPDEST PUSH2 0x1BEE DUP11 PUSH32 0x0 DUP12 DUP12 DUP12 DUP12 ADDRESS DUP12 PUSH2 0x4BF JUMP JUMPDEST SWAP1 SWAP4 POP SWAP2 POP PUSH2 0x1BFE DUP11 DUP7 DUP6 PUSH2 0x2A0D JUMP JUMPDEST PUSH1 0x40 MLOAD PUSH4 0x2E1A7D4D PUSH1 0xE0 SHL DUP2 MSTORE PUSH1 0x4 DUP2 ADD DUP4 SWAP1 MSTORE PUSH32 0x0 PUSH1 0x1 PUSH1 0x1 PUSH1 0xA0 SHL SUB AND SWAP1 PUSH4 0x2E1A7D4D SWAP1 PUSH1 0x24 ADD PUSH1 0x0 PUSH1 0x40 MLOAD DUP1 DUP4 SUB DUP2 PUSH1 0x0 DUP8 DUP1 EXTCODESIZE ISZERO DUP1 ISZERO PUSH2 0x1C60 JUMPI PUSH1 0x0 DUP1 REVERT JUMPDEST POP GAS CALL ISZERO DUP1 ISZERO PUSH2 0x1C74 JUMPI RETURNDATASIZE PUSH1 0x0 DUP1 RETURNDATACOPY RETURNDATASIZE PUSH1 0x0 REVERT JUMPDEST POP POP POP POP PUSH2 0x1C82 DUP6 DUP4 PUSH2 0x27D7 JUMP JUMPDEST POP SWAP8 POP SWAP8 SWAP6 POP POP POP POP POP POP JUMP JUMPDEST PUSH1 0x0 DUP1 PUSH1 0x0 PUSH2 0x1CBF DUP15 PUSH32 0x0 DUP16 PUSH2 0x9F3 JUMP JUMPDEST SWAP1 POP PUSH1 0x0 DUP8 PUSH2 0x1CCE JUMPI DUP13 PUSH2 0x1CD2 JUMP JUMPDEST PUSH1 0x0 NOT JUMPDEST PUSH1 0x40 MLOAD PUSH4 0xD505ACCF PUSH1 0xE0 SHL DUP2 MSTORE SWAP1 SWAP2 POP PUSH1 0x1 PUSH1 0x1 PUSH1 0xA0 SHL SUB DUP4 AND SWAP1 PUSH4 0xD505ACCF SWAP1 PUSH2 0x1D0D SWAP1 CALLER SWAP1 ADDRESS SWAP1 DUP7 SWAP1 DUP16 SWAP1 DUP15 SWAP1 DUP15 SWAP1 DUP15 SWAP1 PUSH1 0x4 ADD PUSH2 0x36F9 JUMP JUMPDEST PUSH1 0x0 PUSH1 0x40 MLOAD DUP1 DUP4 SUB DUP2 PUSH1 0x0 DUP8 DUP1 EXTCODESIZE ISZERO DUP1 ISZERO PUSH2 0x1D27 JUMPI PUSH1 0x0 DUP1 REVERT JUMPDEST POP GAS CALL ISZERO DUP1 ISZERO PUSH2 0x1D3B JUMPI RETURNDATASIZE PUSH1 0x0 DUP1 RETURNDATACOPY RETURNDATASIZE PUSH1 0x0 REVERT JUMPDEST POP POP POP POP PUSH2 0x1D4E DUP16 DUP16 DUP16 DUP16 DUP16 DUP16 DUP16 PUSH2 0x1B9A JUMP JUMPDEST DUP1 SWAP5 POP DUP2 SWAP6 POP POP POP POP POP SWAP12 POP SWAP12 SWAP10 POP POP POP POP POP POP POP POP POP POP JUMP JUMPDEST PUSH1 0x40 MLOAD PUSH4 0xE5E31B13 PUSH1 0xE0 SHL DUP2 MSTORE PUSH1 0x1 PUSH1 0x1 PUSH1 0xA0 SHL SUB DUP3 DUP2 AND PUSH1 0x4 DUP4 ADD MSTORE PUSH1 0x0 SWAP2 PUSH32 0x0 SWAP1 SWAP2 AND SWAP1 PUSH4 0xE5E31B13 SWAP1 PUSH1 0x24 ADD PUSH1 0x20 PUSH1 0x40 MLOAD DUP1 DUP4 SUB DUP2 DUP7 GAS STATICCALL ISZERO DUP1 ISZERO PUSH2 0x1DD3 JUMPI RETURNDATASIZE PUSH1 0x0 DUP1 RETURNDATACOPY RETURNDATASIZE PUSH1 0x0 REVERT JUMPDEST POP POP POP POP PUSH1 0x40 MLOAD RETURNDATASIZE PUSH1 0x1F NOT PUSH1 0x1F DUP3 ADD AND DUP3 ADD DUP1 PUSH1 0x40 MSTORE POP DUP2 ADD SWAP1 PUSH2 0x1DF7 SWAP2 SWAP1 PUSH2 0x340D JUMP JUMPDEST SWAP3 SWAP2 POP POP JUMP JUMPDEST PUSH1 0x60 DUP2 TIMESTAMP DUP2 LT ISZERO PUSH2 0x1E20 JUMPI PUSH1 0x40 MLOAD PUSH3 0x461BCD PUSH1 0xE5 SHL DUP2 MSTORE PUSH1 0x4 ADD PUSH2 0x4E3 SWAP1 PUSH2 0x33DE JUMP JUMPDEST PUSH32 0x0 PUSH1 0x1 PUSH1 0x1 PUSH1 0xA0 SHL SUB AND DUP7 DUP7 PUSH1 0x0 DUP2 DUP2 LT PUSH2 0x1E5D JUMPI PUSH2 0x1E5D PUSH2 0x34D4 JUMP JUMPDEST PUSH2 0x1E73 SWAP3 PUSH1 0x20 PUSH1 0x60 SWAP1 SWAP3 MUL ADD SWAP1 DUP2 ADD SWAP2 POP PUSH2 0x336B JUMP JUMPDEST PUSH1 0x1 PUSH1 0x1 PUSH1 0xA0 SHL SUB AND EQ PUSH2 0x1E99 JUMPI PUSH1 0x40 MLOAD PUSH3 0x461BCD PUSH1 0xE5 SHL DUP2 MSTORE PUSH1 0x4 ADD PUSH2 0x4E3 SWAP1 PUSH2 0x368F JUMP JUMPDEST PUSH2 0x1EEB CALLVALUE DUP8 DUP8 DUP1 DUP1 PUSH1 0x20 MUL PUSH1 0x20 ADD PUSH1 0x40 MLOAD SWAP1 DUP2 ADD PUSH1 0x40 MSTORE DUP1 SWAP4 SWAP3 SWAP2 SWAP1 DUP2 DUP2 MSTORE PUSH1 0x20 ADD PUSH1 0x0 SWAP1 JUMPDEST DUP3 DUP3 LT ISZERO PUSH2 0x19B4 JUMPI PUSH2 0x1EDC PUSH1 0x60 DUP4 MUL DUP7 ADD CALLDATASIZE DUP2 SWAP1 SUB DUP2 ADD SWAP1 PUSH2 0x3673 JUMP JUMPDEST DUP2 MSTORE PUSH1 0x20 ADD SWAP1 PUSH1 0x1 ADD SWAP1 PUSH2 0x1EBF JUMP JUMPDEST SWAP2 POP DUP7 DUP3 PUSH1 0x1 DUP5 MLOAD PUSH2 0x1EFD SWAP2 SWAP1 PUSH2 0x3500 JUMP JUMPDEST DUP2 MLOAD DUP2 LT PUSH2 0x1F0D JUMPI PUSH2 0x1F0D PUSH2 0x34D4 JUMP JUMPDEST PUSH1 0x20 MUL PUSH1 0x20 ADD ADD MLOAD LT ISZERO PUSH2 0x1F33 JUMPI PUSH1 0x40 MLOAD PUSH3 0x461BCD PUSH1 0xE5 SHL DUP2 MSTORE PUSH1 0x4 ADD PUSH2 0x4E3 SWAP1 PUSH2 0x3517 JUMP JUMPDEST PUSH32 0x0 PUSH1 0x1 PUSH1 0x1 PUSH1 0xA0 SHL SUB AND PUSH4 0xD0E30DB0 DUP4 PUSH1 0x0 DUP2 MLOAD DUP2 LT PUSH2 0x1F75 JUMPI PUSH2 0x1F75 PUSH2 0x34D4 JUMP JUMPDEST PUSH1 0x20 MUL PUSH1 0x20 ADD ADD MLOAD PUSH1 0x40 MLOAD DUP3 PUSH4 0xFFFFFFFF AND PUSH1 0xE0 SHL DUP2 MSTORE PUSH1 0x4 ADD PUSH1 0x0 PUSH1 0x40 MLOAD DUP1 DUP4 SUB DUP2 DUP6 DUP9 DUP1 EXTCODESIZE ISZERO DUP1 ISZERO PUSH2 0x1FA8 JUMPI PUSH1 0x0 DUP1 REVERT JUMPDEST POP GAS CALL ISZERO DUP1 ISZERO PUSH2 0x1FBC JUMPI RETURNDATASIZE PUSH1 0x0 DUP1 RETURNDATACOPY RETURNDATASIZE PUSH1 0x0 REVERT JUMPDEST POP POP POP POP POP PUSH32 0x0 PUSH1 0x1 PUSH1 0x1 PUSH1 0xA0 SHL SUB AND PUSH4 0xA9059CBB PUSH2 0x205A DUP9 DUP9 PUSH1 0x0 DUP2 DUP2 LT PUSH2 0x2006 JUMPI PUSH2 0x2006 PUSH2 0x34D4 JUMP JUMPDEST PUSH2 0x201C SWAP3 PUSH1 0x20 PUSH1 0x60 SWAP1 SWAP3 MUL ADD SWAP1 DUP2 ADD SWAP2 POP PUSH2 0x336B JUMP JUMPDEST DUP10 DUP10 PUSH1 0x0 DUP2 DUP2 LT PUSH2 0x202F JUMPI PUSH2 0x202F PUSH2 0x34D4 JUMP JUMPDEST SWAP1 POP PUSH1 0x60 MUL ADD PUSH1 0x20 ADD PUSH1 0x20 DUP2 ADD SWAP1 PUSH2 0x2047 SWAP2 SWAP1 PUSH2 0x336B JUMP JUMPDEST DUP11 DUP11 PUSH1 0x0 DUP2 DUP2 LT PUSH2 0x12E8 JUMPI PUSH2 0x12E8 PUSH2 0x34D4 JUMP JUMPDEST DUP5 PUSH1 0x0 DUP2 MLOAD DUP2 LT PUSH2 0x206D JUMPI PUSH2 0x206D PUSH2 0x34D4 JUMP JUMPDEST PUSH1 0x20 MUL PUSH1 0x20 ADD ADD MLOAD PUSH1 0x40 MLOAD DUP4 PUSH4 0xFFFFFFFF AND PUSH1 0xE0 SHL DUP2 MSTORE PUSH1 0x4 ADD PUSH2 0x20A6 SWAP3 SWAP2 SWAP1 PUSH1 0x1 PUSH1 0x1 PUSH1 0xA0 SHL SUB SWAP3 SWAP1 SWAP3 AND DUP3 MSTORE PUSH1 0x20 DUP3 ADD MSTORE PUSH1 0x40 ADD SWAP1 JUMP JUMPDEST PUSH1 0x20 PUSH1 0x40 MLOAD DUP1 DUP4 SUB DUP2 PUSH1 0x0 DUP8 GAS CALL ISZERO DUP1 ISZERO PUSH2 0x20C5 JUMPI RETURNDATASIZE PUSH1 0x0 DUP1 RETURNDATACOPY RETURNDATASIZE PUSH1 0x0 REVERT JUMPDEST POP POP POP POP PUSH1 0x40 MLOAD RETURNDATASIZE PUSH1 0x1F NOT PUSH1 0x1F DUP3 ADD AND DUP3 ADD DUP1 PUSH1 0x40 MSTORE POP DUP2 ADD SWAP1 PUSH2 0x20E9 SWAP2 SWAP1 PUSH2 0x340D JUMP JUMPDEST PUSH2 0x20F5 JUMPI PUSH2 0x20F5 PUSH2 0x2AFC JUMP JUMPDEST PUSH2 0x1374 DUP3 DUP8 DUP8 DUP1 DUP1 PUSH1 0x20 MUL PUSH1 0x20 ADD PUSH1 0x40 MLOAD SWAP1 DUP2 ADD PUSH1 0x40 MSTORE DUP1 SWAP4 SWAP3 SWAP2 SWAP1 DUP2 DUP2 MSTORE PUSH1 0x20 ADD PUSH1 0x0 SWAP1 JUMPDEST DUP3 DUP3 LT ISZERO PUSH2 0x1365 JUMPI PUSH2 0x2138 PUSH1 0x60 DUP4 MUL DUP7 ADD CALLDATASIZE DUP2 SWAP1 SUB DUP2 ADD SWAP1 PUSH2 0x3673 JUMP JUMPDEST DUP2 MSTORE PUSH1 0x20 ADD SWAP1 PUSH1 0x1 ADD SWAP1 PUSH2 0x211B JUMP JUMPDEST PUSH1 0x60 DUP2 TIMESTAMP DUP2 LT ISZERO PUSH2 0x216A JUMPI PUSH1 0x40 MLOAD PUSH3 0x461BCD PUSH1 0xE5 SHL DUP2 MSTORE PUSH1 0x4 ADD PUSH2 0x4E3 SWAP1 PUSH2 0x33DE JUMP JUMPDEST PUSH2 0x21BC DUP9 DUP8 DUP8 DUP1 DUP1 PUSH1 0x20 MUL PUSH1 0x20 ADD PUSH1 0x40 MLOAD SWAP1 DUP2 ADD PUSH1 0x40 MSTORE DUP1 SWAP4 SWAP3 SWAP2 SWAP1 DUP2 DUP2 MSTORE PUSH1 0x20 ADD PUSH1 0x0 SWAP1 JUMPDEST DUP3 DUP3 LT ISZERO PUSH2 0x19B4 JUMPI PUSH2 0x21AD PUSH1 0x60 DUP4 MUL DUP7 ADD CALLDATASIZE DUP2 SWAP1 SUB DUP2 ADD SWAP1 PUSH2 0x3673 JUMP JUMPDEST DUP2 MSTORE PUSH1 0x20 ADD SWAP1 PUSH1 0x1 ADD SWAP1 PUSH2 0x2190 JUMP JUMPDEST SWAP2 POP DUP7 DUP3 PUSH1 0x1 DUP5 MLOAD PUSH2 0x21CE SWAP2 SWAP1 PUSH2 0x3500 JUMP JUMPDEST DUP2 MLOAD DUP2 LT PUSH2 0x21DE JUMPI PUSH2 0x21DE PUSH2 0x34D4 JUMP JUMPDEST PUSH1 0x20 MUL PUSH1 0x20 ADD ADD MLOAD LT ISZERO PUSH2 0x2204 JUMPI PUSH1 0x40 MLOAD PUSH3 0x461BCD PUSH1 0xE5 SHL DUP2 MSTORE PUSH1 0x4 ADD PUSH2 0x4E3 SWAP1 PUSH2 0x3517 JUMP JUMPDEST PUSH2 0x221A DUP7 DUP7 PUSH1 0x0 DUP2 DUP2 LT PUSH2 0x1A1C JUMPI PUSH2 0x1A1C PUSH2 0x34D4 JUMP JUMPDEST PUSH2 0x1B8F DUP3 DUP8 DUP8 DUP1 DUP1 PUSH1 0x20 MUL PUSH1 0x20 ADD PUSH1 0x40 MLOAD SWAP1 DUP2 ADD PUSH1 0x40 MSTORE DUP1 SWAP4 SWAP3 SWAP2 SWAP1 DUP2 DUP2 MSTORE PUSH1 0x20 ADD PUSH1 0x0 SWAP1 JUMPDEST DUP3 DUP3 LT ISZERO PUSH2 0x1365 JUMPI PUSH2 0x225D PUSH1 0x60 DUP4 MUL DUP7 ADD CALLDATASIZE DUP2 SWAP1 SUB DUP2 ADD SWAP1 PUSH2 0x3673 JUMP JUMPDEST DUP2 MSTORE PUSH1 0x20 ADD SWAP1 PUSH1 0x1 ADD SWAP1 PUSH2 0x2240 JUMP JUMPDEST PUSH1 0x0 DUP5 PUSH1 0x1 PUSH1 0x1 PUSH1 0xA0 SHL SUB AND EXTCODESIZE GT PUSH2 0x2283 JUMPI PUSH1 0x0 DUP1 REVERT JUMPDEST PUSH1 0x40 DUP1 MLOAD PUSH1 0x1 PUSH1 0x1 PUSH1 0xA0 SHL SUB DUP6 DUP2 AND PUSH1 0x24 DUP4 ADD MSTORE DUP5 DUP2 AND PUSH1 0x44 DUP4 ADD MSTORE PUSH1 0x64 DUP1 DUP4 ADD DUP6 SWAP1 MSTORE DUP4 MLOAD DUP1 DUP5 SUB SWAP1 SWAP2 ADD DUP2 MSTORE PUSH1 0x84 SWAP1 SWAP3 ADD DUP4 MSTORE PUSH1 0x20 DUP3 ADD DUP1 MLOAD PUSH1 0x1 PUSH1 0x1 PUSH1 0xE0 SHL SUB AND PUSH4 0x23B872DD PUSH1 0xE0 SHL OR SWAP1 MSTORE SWAP2 MLOAD PUSH1 0x0 SWAP3 DUP4 SWAP3 SWAP1 DUP9 AND SWAP2 PUSH2 0x22E7 SWAP2 SWAP1 PUSH2 0x3766 JUMP JUMPDEST PUSH1 0x0 PUSH1 0x40 MLOAD DUP1 DUP4 SUB DUP2 PUSH1 0x0 DUP7 GAS CALL SWAP2 POP POP RETURNDATASIZE DUP1 PUSH1 0x0 DUP2 EQ PUSH2 0x2324 JUMPI PUSH1 0x40 MLOAD SWAP2 POP PUSH1 0x1F NOT PUSH1 0x3F RETURNDATASIZE ADD AND DUP3 ADD PUSH1 0x40 MSTORE RETURNDATASIZE DUP3 MSTORE RETURNDATASIZE PUSH1 0x0 PUSH1 0x20 DUP5 ADD RETURNDATACOPY PUSH2 0x2329 JUMP JUMPDEST PUSH1 0x60 SWAP2 POP JUMPDEST POP SWAP2 POP SWAP2 POP DUP2 DUP1 ISZERO PUSH2 0x2353 JUMPI POP DUP1 MLOAD ISZERO DUP1 PUSH2 0x2353 JUMPI POP DUP1 DUP1 PUSH1 0x20 ADD SWAP1 MLOAD DUP2 ADD SWAP1 PUSH2 0x2353 SWAP2 SWAP1 PUSH2 0x340D JUMP JUMPDEST PUSH2 0x235C JUMPI PUSH1 0x0 DUP1 REVERT JUMPDEST POP POP POP POP POP POP JUMP JUMPDEST PUSH1 0x0 JUMPDEST DUP3 MLOAD DUP2 LT ISZERO PUSH2 0x25B3 JUMPI PUSH1 0x0 PUSH2 0x23B6 DUP5 DUP4 DUP2 MLOAD DUP2 LT PUSH2 0x2387 JUMPI PUSH2 0x2387 PUSH2 0x34D4 JUMP JUMPDEST PUSH1 0x20 MUL PUSH1 0x20 ADD ADD MLOAD PUSH1 0x0 ADD MLOAD DUP6 DUP5 DUP2 MLOAD DUP2 LT PUSH2 0x23A5 JUMPI PUSH2 0x23A5 PUSH2 0x34D4 JUMP JUMPDEST PUSH1 0x20 MUL PUSH1 0x20 ADD ADD MLOAD PUSH1 0x20 ADD MLOAD PUSH2 0xAFB JUMP JUMPDEST POP SWAP1 POP PUSH1 0x0 DUP6 PUSH2 0x23C7 DUP5 PUSH1 0x1 PUSH2 0x36C6 JUMP JUMPDEST DUP2 MLOAD DUP2 LT PUSH2 0x23D7 JUMPI PUSH2 0x23D7 PUSH2 0x34D4 JUMP JUMPDEST PUSH1 0x20 MUL PUSH1 0x20 ADD ADD MLOAD SWAP1 POP PUSH1 0x0 DUP1 DUP4 PUSH1 0x1 PUSH1 0x1 PUSH1 0xA0 SHL SUB AND DUP8 DUP7 DUP2 MLOAD DUP2 LT PUSH2 0x2400 JUMPI PUSH2 0x2400 PUSH2 0x34D4 JUMP JUMPDEST PUSH1 0x20 MUL PUSH1 0x20 ADD ADD MLOAD PUSH1 0x0 ADD MLOAD PUSH1 0x1 PUSH1 0x1 PUSH1 0xA0 SHL SUB AND EQ PUSH2 0x2422 JUMPI DUP3 PUSH1 0x0 PUSH2 0x2426 JUMP JUMPDEST PUSH1 0x0 DUP4 JUMPDEST SWAP2 POP SWAP2 POP PUSH1 0x0 PUSH1 0x1 DUP9 MLOAD PUSH2 0x243A SWAP2 SWAP1 PUSH2 0x3500 JUMP JUMPDEST DUP7 LT PUSH2 0x2446 JUMPI DUP7 PUSH2 0x24B9 JUMP JUMPDEST PUSH2 0x24B9 DUP9 PUSH2 0x2455 DUP9 PUSH1 0x1 PUSH2 0x36C6 JUMP JUMPDEST DUP2 MLOAD DUP2 LT PUSH2 0x2465 JUMPI PUSH2 0x2465 PUSH2 0x34D4 JUMP JUMPDEST PUSH1 0x20 MUL PUSH1 0x20 ADD ADD MLOAD PUSH1 0x0 ADD MLOAD DUP10 DUP9 PUSH1 0x1 PUSH2 0x247F SWAP2 SWAP1 PUSH2 0x36C6 JUMP JUMPDEST DUP2 MLOAD DUP2 LT PUSH2 0x248F JUMPI PUSH2 0x248F PUSH2 0x34D4 JUMP JUMPDEST PUSH1 0x20 MUL PUSH1 0x20 ADD ADD MLOAD PUSH1 0x20 ADD MLOAD DUP11 DUP10 PUSH1 0x1 PUSH2 0x24A9 SWAP2 SWAP1 PUSH2 0x36C6 JUMP JUMPDEST DUP2 MLOAD DUP2 LT PUSH2 0x843 JUMPI PUSH2 0x843 PUSH2 0x34D4 JUMP JUMPDEST SWAP1 POP PUSH2 0x250C DUP9 DUP8 DUP2 MLOAD DUP2 LT PUSH2 0x24D0 JUMPI PUSH2 0x24D0 PUSH2 0x34D4 JUMP JUMPDEST PUSH1 0x20 MUL PUSH1 0x20 ADD ADD MLOAD PUSH1 0x0 ADD MLOAD DUP10 DUP9 DUP2 MLOAD DUP2 LT PUSH2 0x24EE JUMPI PUSH2 0x24EE PUSH2 0x34D4 JUMP JUMPDEST PUSH1 0x20 MUL PUSH1 0x20 ADD ADD MLOAD PUSH1 0x20 ADD MLOAD DUP11 DUP10 DUP2 MLOAD DUP2 LT PUSH2 0x843 JUMPI PUSH2 0x843 PUSH2 0x34D4 JUMP JUMPDEST PUSH1 0x1 PUSH1 0x1 PUSH1 0xA0 SHL SUB AND PUSH4 0x22C0D9F DUP5 DUP5 DUP5 PUSH1 0x0 PUSH1 0x40 MLOAD SWAP1 DUP1 DUP3 MSTORE DUP1 PUSH1 0x1F ADD PUSH1 0x1F NOT AND PUSH1 0x20 ADD DUP3 ADD PUSH1 0x40 MSTORE DUP1 ISZERO PUSH2 0x2549 JUMPI PUSH1 0x20 DUP3 ADD DUP2 DUP1 CALLDATASIZE DUP4 CALLDATACOPY ADD SWAP1 POP JUMPDEST POP PUSH1 0x40 MLOAD DUP6 PUSH4 0xFFFFFFFF AND PUSH1 0xE0 SHL DUP2 MSTORE PUSH1 0x4 ADD PUSH2 0x2569 SWAP5 SWAP4 SWAP3 SWAP2 SWAP1 PUSH2 0x3782 JUMP JUMPDEST PUSH1 0x0 PUSH1 0x40 MLOAD DUP1 DUP4 SUB DUP2 PUSH1 0x0 DUP8 DUP1 EXTCODESIZE ISZERO DUP1 ISZERO PUSH2 0x2583 JUMPI PUSH1 0x0 DUP1 REVERT JUMPDEST POP GAS CALL ISZERO DUP1 ISZERO PUSH2 0x2597 JUMPI RETURNDATASIZE PUSH1 0x0 DUP1 RETURNDATACOPY RETURNDATASIZE PUSH1 0x0 REVERT JUMPDEST POP POP POP POP POP POP POP POP POP DUP1 DUP1 PUSH2 0x25AB SWAP1 PUSH2 0x36DE JUMP JUMPDEST SWAP2 POP POP PUSH2 0x2367 JUMP JUMPDEST POP POP POP POP JUMP JUMPDEST PUSH1 0x0 DUP1 DUP4 DUP7 LT ISZERO PUSH2 0x25C9 JUMPI PUSH1 0x0 DUP1 REVERT JUMPDEST DUP3 DUP6 LT ISZERO PUSH2 0x25D6 JUMPI PUSH1 0x0 DUP1 REVERT JUMPDEST PUSH1 0x40 MLOAD PUSH4 0x6801CC3 PUSH1 0xE4 SHL DUP2 MSTORE PUSH1 0x0 SWAP1 PUSH1 0x1 PUSH1 0x1 PUSH1 0xA0 SHL SUB PUSH32 0x0 AND SWAP1 PUSH4 0x6801CC30 SWAP1 PUSH2 0x2629 SWAP1 DUP14 SWAP1 DUP14 SWAP1 DUP14 SWAP1 PUSH1 0x4 ADD PUSH2 0x355F JUMP JUMPDEST PUSH1 0x20 PUSH1 0x40 MLOAD DUP1 DUP4 SUB DUP2 DUP7 GAS STATICCALL ISZERO DUP1 ISZERO PUSH2 0x2646 JUMPI RETURNDATASIZE PUSH1 0x0 DUP1 RETURNDATACOPY RETURNDATASIZE PUSH1 0x0 REVERT JUMPDEST POP POP POP POP PUSH1 0x40 MLOAD RETURNDATASIZE PUSH1 0x1F NOT PUSH1 0x1F DUP3 ADD AND DUP3 ADD DUP1 PUSH1 0x40 MSTORE POP DUP2 ADD SWAP1 PUSH2 0x266A SWAP2 SWAP1 PUSH2 0x3583 JUMP JUMPDEST SWAP1 POP PUSH1 0x1 PUSH1 0x1 PUSH1 0xA0 SHL SUB DUP2 AND PUSH2 0x2710 JUMPI PUSH1 0x40 MLOAD PUSH4 0x20B7F739 PUSH1 0xE2 SHL DUP2 MSTORE PUSH1 0x1 PUSH1 0x1 PUSH1 0xA0 SHL SUB PUSH32 0x0 AND SWAP1 PUSH4 0x82DFDCE4 SWAP1 PUSH2 0x26CA SWAP1 DUP14 SWAP1 DUP14 SWAP1 DUP14 SWAP1 PUSH1 0x4 ADD PUSH2 0x355F JUMP JUMPDEST PUSH1 0x20 PUSH1 0x40 MLOAD DUP1 DUP4 SUB DUP2 PUSH1 0x0 DUP8 GAS CALL ISZERO DUP1 ISZERO PUSH2 0x26E9 JUMPI RETURNDATASIZE PUSH1 0x0 DUP1 RETURNDATACOPY RETURNDATASIZE PUSH1 0x0 REVERT JUMPDEST POP POP POP POP PUSH1 0x40 MLOAD RETURNDATASIZE PUSH1 0x1F NOT PUSH1 0x1F DUP3 ADD AND DUP3 ADD DUP1 PUSH1 0x40 MSTORE POP DUP2 ADD SWAP1 PUSH2 0x270D SWAP2 SWAP1 PUSH2 0x3583 JUMP JUMPDEST SWAP1 POP JUMPDEST PUSH1 0x0 DUP1 PUSH2 0x271E DUP13 DUP13 DUP13 PUSH2 0x1164 JUMP JUMPDEST SWAP2 POP SWAP2 POP DUP2 PUSH1 0x0 EQ DUP1 ISZERO PUSH2 0x2730 JUMPI POP DUP1 ISZERO JUMPDEST ISZERO PUSH2 0x2740 JUMPI DUP9 SWAP5 POP DUP8 SWAP4 POP PUSH2 0x27C8 JUMP JUMPDEST PUSH1 0x0 PUSH2 0x274D DUP11 DUP5 DUP5 PUSH2 0x2915 JUMP JUMPDEST SWAP1 POP DUP9 DUP2 GT PUSH2 0x2781 JUMPI DUP7 DUP2 LT ISZERO PUSH2 0x2776 JUMPI PUSH1 0x40 MLOAD PUSH3 0x461BCD PUSH1 0xE5 SHL DUP2 MSTORE PUSH1 0x4 ADD PUSH2 0x4E3 SWAP1 PUSH2 0x3491 JUMP JUMPDEST DUP10 SWAP6 POP SWAP4 POP DUP4 PUSH2 0x27C6 JUMP JUMPDEST PUSH1 0x0 PUSH2 0x278E DUP11 DUP5 DUP7 PUSH2 0x2915 JUMP JUMPDEST SWAP1 POP DUP11 DUP2 GT ISZERO PUSH2 0x27A0 JUMPI PUSH2 0x27A0 PUSH2 0x2AFC JUMP JUMPDEST DUP9 DUP2 LT ISZERO PUSH2 0x27C0 JUMPI PUSH1 0x40 MLOAD PUSH3 0x461BCD PUSH1 0xE5 SHL DUP2 MSTORE PUSH1 0x4 ADD PUSH2 0x4E3 SWAP1 PUSH2 0x344E JUMP JUMPDEST SWAP6 POP DUP9 SWAP5 POP JUMPDEST POP JUMPDEST POP POP POP SWAP8 POP SWAP8 SWAP6 POP POP POP POP POP POP JUMP JUMPDEST PUSH1 0x40 DUP1 MLOAD PUSH1 0x0 DUP1 DUP3 MSTORE PUSH1 0x20 DUP3 ADD SWAP1 SWAP3 MSTORE PUSH1 0x1 PUSH1 0x1 PUSH1 0xA0 SHL SUB DUP5 AND SWAP1 DUP4 SWAP1 PUSH1 0x40 MLOAD PUSH2 0x2801 SWAP2 SWAP1 PUSH2 0x3766 JUMP JUMPDEST PUSH1 0x0 PUSH1 0x40 MLOAD DUP1 DUP4 SUB DUP2 DUP6 DUP8 GAS CALL SWAP3 POP POP POP RETURNDATASIZE DUP1 PUSH1 0x0 DUP2 EQ PUSH2 0x283E JUMPI PUSH1 0x40 MLOAD SWAP2 POP PUSH1 0x1F NOT PUSH1 0x3F RETURNDATASIZE ADD AND DUP3 ADD PUSH1 0x40 MSTORE RETURNDATASIZE DUP3 MSTORE RETURNDATASIZE PUSH1 0x0 PUSH1 0x20 DUP5 ADD RETURNDATACOPY PUSH2 0x2843 JUMP JUMPDEST PUSH1 0x60 SWAP2 POP JUMPDEST POP POP SWAP1 POP DUP1 PUSH2 0x28A0 JUMPI PUSH1 0x40 MLOAD PUSH3 0x461BCD PUSH1 0xE5 SHL DUP2 MSTORE PUSH1 0x20 PUSH1 0x4 DUP3 ADD MSTORE PUSH1 0x23 PUSH1 0x24 DUP3 ADD MSTORE PUSH32 0x5472616E7366657248656C7065723A204554485F5452414E534645525F464149 PUSH1 0x44 DUP3 ADD MSTORE PUSH3 0x131151 PUSH1 0xEA SHL PUSH1 0x64 DUP3 ADD MSTORE PUSH1 0x84 ADD PUSH2 0x4E3 JUMP JUMPDEST POP POP POP JUMP JUMPDEST PUSH1 0x0 PUSH1 0x3 DUP3 GT ISZERO PUSH2 0x2906 JUMPI POP DUP1 PUSH1 0x0 PUSH2 0x28BF PUSH1 0x2 DUP4 PUSH2 0x35D8 JUMP JUMPDEST PUSH2 0x28CA SWAP1 PUSH1 0x1 PUSH2 0x36C6 JUMP JUMPDEST SWAP1 POP JUMPDEST DUP2 DUP2 LT ISZERO PUSH2 0x2900 JUMPI SWAP1 POP DUP1 PUSH1 0x2 DUP2 PUSH2 0x28E5 DUP2 DUP7 PUSH2 0x35D8 JUMP JUMPDEST PUSH2 0x28EF SWAP2 SWAP1 PUSH2 0x36C6 JUMP JUMPDEST PUSH2 0x28F9 SWAP2 SWAP1 PUSH2 0x35D8 JUMP JUMPDEST SWAP1 POP PUSH2 0x28CD JUMP JUMPDEST POP SWAP2 SWAP1 POP JUMP JUMPDEST DUP2 ISZERO PUSH2 0x2910 JUMPI POP PUSH1 0x1 JUMPDEST SWAP2 SWAP1 POP JUMP JUMPDEST PUSH1 0x0 DUP1 DUP5 GT PUSH2 0x2970 JUMPI PUSH1 0x40 MLOAD PUSH3 0x461BCD PUSH1 0xE5 SHL DUP2 MSTORE PUSH1 0x20 PUSH1 0x4 DUP3 ADD MSTORE PUSH1 0x21 PUSH1 0x24 DUP3 ADD MSTORE PUSH32 0x426173655631526F757465723A20494E53554646494349454E545F414D4F554E PUSH1 0x44 DUP3 ADD MSTORE PUSH1 0x15 PUSH1 0xFA SHL PUSH1 0x64 DUP3 ADD MSTORE PUSH1 0x84 ADD PUSH2 0x4E3 JUMP JUMPDEST PUSH1 0x0 DUP4 GT DUP1 ISZERO PUSH2 0x2980 JUMPI POP PUSH1 0x0 DUP3 GT JUMPDEST PUSH2 0x29D8 JUMPI PUSH1 0x40 MLOAD PUSH3 0x461BCD PUSH1 0xE5 SHL DUP2 MSTORE PUSH1 0x20 PUSH1 0x4 DUP3 ADD MSTORE PUSH1 0x24 DUP1 DUP3 ADD MSTORE PUSH32 0x426173655631526F757465723A20494E53554646494349454E545F4C49515549 PUSH1 0x44 DUP3 ADD MSTORE PUSH4 0x44495459 PUSH1 0xE0 SHL PUSH1 0x64 DUP3 ADD MSTORE PUSH1 0x84 ADD PUSH2 0x4E3 JUMP JUMPDEST DUP3 PUSH2 0x29E3 DUP4 DUP7 PUSH2 0x35B9 JUMP JUMPDEST PUSH2 0x29ED SWAP2 SWAP1 PUSH2 0x35D8 JUMP JUMPDEST SWAP5 SWAP4 POP POP POP POP JUMP JUMPDEST PUSH1 0x0 DUP2 DUP4 LT PUSH2 0x2A04 JUMPI DUP2 PUSH2 0x2A06 JUMP JUMPDEST DUP3 JUMPDEST SWAP4 SWAP3 POP POP POP JUMP JUMPDEST PUSH1 0x0 DUP4 PUSH1 0x1 PUSH1 0x1 PUSH1 0xA0 SHL SUB AND EXTCODESIZE GT PUSH2 0x2A24 JUMPI PUSH1 0x0 DUP1 REVERT JUMPDEST PUSH1 0x40 DUP1 MLOAD PUSH1 0x1 PUSH1 0x1 PUSH1 0xA0 SHL SUB DUP5 DUP2 AND PUSH1 0x24 DUP4 ADD MSTORE PUSH1 0x44 DUP1 DUP4 ADD DUP6 SWAP1 MSTORE DUP4 MLOAD DUP1 DUP5 SUB SWAP1 SWAP2 ADD DUP2 MSTORE PUSH1 0x64 SWAP1 SWAP3 ADD DUP4 MSTORE PUSH1 0x20 DUP3 ADD DUP1 MLOAD PUSH1 0x1 PUSH1 0x1 PUSH1 0xE0 SHL SUB AND PUSH4 0xA9059CBB PUSH1 0xE0 SHL OR SWAP1 MSTORE SWAP2 MLOAD PUSH1 0x0 SWAP3 DUP4 SWAP3 SWAP1 DUP8 AND SWAP2 PUSH2 0x2A80 SWAP2 SWAP1 PUSH2 0x3766 JUMP JUMPDEST PUSH1 0x0 PUSH1 0x40 MLOAD DUP1 DUP4 SUB DUP2 PUSH1 0x0 DUP7 GAS CALL SWAP2 POP POP RETURNDATASIZE DUP1 PUSH1 0x0 DUP2 EQ PUSH2 0x2ABD JUMPI PUSH1 0x40 MLOAD SWAP2 POP PUSH1 0x1F NOT PUSH1 0x3F RETURNDATASIZE ADD AND DUP3 ADD PUSH1 0x40 MSTORE RETURNDATASIZE DUP3 MSTORE RETURNDATASIZE PUSH1 0x0 PUSH1 0x20 DUP5 ADD RETURNDATACOPY PUSH2 0x2AC2 JUMP JUMPDEST PUSH1 0x60 SWAP2 POP JUMPDEST POP SWAP2 POP SWAP2 POP DUP2 DUP1 ISZERO PUSH2 0x2AEC JUMPI POP DUP1 MLOAD ISZERO DUP1 PUSH2 0x2AEC JUMPI POP DUP1 DUP1 PUSH1 0x20 ADD SWAP1 MLOAD DUP2 ADD SWAP1 PUSH2 0x2AEC SWAP2 SWAP1 PUSH2 0x340D JUMP JUMPDEST PUSH2 0x2AF5 JUMPI PUSH1 0x0 DUP1 REVERT JUMPDEST POP POP POP POP POP JUMP JUMPDEST PUSH4 0x4E487B71 PUSH1 0xE0 SHL PUSH1 0x0 MSTORE PUSH1 0x1 PUSH1 0x4 MSTORE PUSH1 0x24 PUSH1 0x0 REVERT JUMPDEST PUSH1 0x1 PUSH1 0x1 PUSH1 0xA0 SHL SUB DUP2 AND DUP2 EQ PUSH2 0x2B27 JUMPI PUSH1 0x0 DUP1 REVERT JUMPDEST POP JUMP JUMPDEST DUP1 CALLDATALOAD PUSH2 0x2910 DUP2 PUSH2 0x2B12 JUMP JUMPDEST DUP1 ISZERO ISZERO DUP2 EQ PUSH2 0x2B27 JUMPI PUSH1 0x0 DUP1 REVERT JUMPDEST PUSH1 0x0 DUP1 PUSH1 0x0 DUP1 PUSH1 0x0 DUP1 PUSH1 0x0 DUP1 PUSH2 0x100 DUP10 DUP12 SUB SLT ISZERO PUSH2 0x2B60 JUMPI PUSH1 0x0 DUP1 REVERT JUMPDEST DUP9 CALLDATALOAD PUSH2 0x2B6B DUP2 PUSH2 0x2B12 JUMP JUMPDEST SWAP8 POP PUSH1 0x20 DUP10 ADD CALLDATALOAD PUSH2 0x2B7B DUP2 PUSH2 0x2B12 JUMP JUMPDEST SWAP7 POP PUSH1 0x40 DUP10 ADD CALLDATALOAD PUSH2 0x2B8B DUP2 PUSH2 0x2B35 JUMP JUMPDEST SWAP6 POP PUSH1 0x60 DUP10 ADD CALLDATALOAD SWAP5 POP PUSH1 0x80 DUP10 ADD CALLDATALOAD SWAP4 POP PUSH1 0xA0 DUP10 ADD CALLDATALOAD SWAP3 POP PUSH1 0xC0 DUP10 ADD CALLDATALOAD PUSH2 0x2BB0 DUP2 PUSH2 0x2B12 JUMP JUMPDEST DUP1 SWAP3 POP POP PUSH1 0xE0 DUP10 ADD CALLDATALOAD SWAP1 POP SWAP3 SWAP6 SWAP9 POP SWAP3 SWAP6 SWAP9 SWAP1 SWAP4 SWAP7 POP JUMP JUMPDEST PUSH1 0x0 DUP1 PUSH1 0x0 DUP1 PUSH1 0x0 DUP1 PUSH1 0x0 PUSH1 0xE0 DUP9 DUP11 SUB SLT ISZERO PUSH2 0x2BE3 JUMPI PUSH1 0x0 DUP1 REVERT JUMPDEST DUP8 CALLDATALOAD SWAP7 POP PUSH1 0x20 DUP9 ADD CALLDATALOAD SWAP6 POP PUSH1 0x40 DUP9 ADD CALLDATALOAD PUSH2 0x2BFC DUP2 PUSH2 0x2B12 JUMP JUMPDEST SWAP5 POP PUSH1 0x60 DUP9 ADD CALLDATALOAD PUSH2 0x2C0C DUP2 PUSH2 0x2B12 JUMP JUMPDEST SWAP4 POP PUSH1 0x80 DUP9 ADD CALLDATALOAD PUSH2 0x2C1C DUP2 PUSH2 0x2B35 JUMP JUMPDEST SWAP3 POP PUSH1 0xA0 DUP9 ADD CALLDATALOAD PUSH2 0x2C2C DUP2 PUSH2 0x2B12 JUMP JUMPDEST DUP1 SWAP3 POP POP PUSH1 0xC0 DUP9 ADD CALLDATALOAD SWAP1 POP SWAP3 SWAP6 SWAP9 SWAP2 SWAP5 SWAP8 POP SWAP3 SWAP6 POP JUMP JUMPDEST PUSH1 0x20 DUP1 DUP3 MSTORE DUP3 MLOAD DUP3 DUP3 ADD DUP2 SWAP1 MSTORE PUSH1 0x0 SWAP2 SWAP1 DUP5 DUP3 ADD SWAP1 PUSH1 0x40 DUP6 ADD SWAP1 DUP5 JUMPDEST DUP2 DUP2 LT ISZERO PUSH2 0x2C7B JUMPI DUP4 MLOAD DUP4 MSTORE SWAP3 DUP5 ADD SWAP3 SWAP2 DUP5 ADD SWAP2 PUSH1 0x1 ADD PUSH2 0x2C5F JUMP JUMPDEST POP SWAP1 SWAP7 SWAP6 POP POP POP POP POP POP JUMP JUMPDEST PUSH1 0x0 DUP1 PUSH1 0x0 DUP1 PUSH1 0x80 DUP6 DUP8 SUB SLT ISZERO PUSH2 0x2C9D JUMPI PUSH1 0x0 DUP1 REVERT JUMPDEST DUP5 CALLDATALOAD PUSH2 0x2CA8 DUP2 PUSH2 0x2B12 JUMP JUMPDEST SWAP4 POP PUSH1 0x20 DUP6 ADD CALLDATALOAD PUSH2 0x2CB8 DUP2 PUSH2 0x2B12 JUMP JUMPDEST SWAP3 POP PUSH1 0x40 DUP6 ADD CALLDATALOAD PUSH2 0x2CC8 DUP2 PUSH2 0x2B35 JUMP JUMPDEST SWAP4 SWAP7 SWAP3 SWAP6 POP SWAP3 SWAP4 PUSH1 0x60 ADD CALLDATALOAD SWAP3 POP POP JUMP JUMPDEST PUSH1 0x0 DUP1 PUSH1 0x0 PUSH1 0x60 DUP5 DUP7 SUB SLT ISZERO PUSH2 0x2CED JUMPI PUSH1 0x0 DUP1 REVERT JUMPDEST DUP4 CALLDATALOAD PUSH2 0x2CF8 DUP2 PUSH2 0x2B12 JUMP JUMPDEST SWAP3 POP PUSH1 0x20 DUP5 ADD CALLDATALOAD PUSH2 0x2D08 DUP2 PUSH2 0x2B12 JUMP JUMPDEST SWAP2 POP PUSH1 0x40 DUP5 ADD CALLDATALOAD PUSH2 0x2D18 DUP2 PUSH2 0x2B35 JUMP JUMPDEST DUP1 SWAP2 POP POP SWAP3 POP SWAP3 POP SWAP3 JUMP JUMPDEST PUSH1 0x0 DUP1 PUSH1 0x40 DUP4 DUP6 SUB SLT ISZERO PUSH2 0x2D36 JUMPI PUSH1 0x0 DUP1 REVERT JUMPDEST DUP3 CALLDATALOAD PUSH2 0x2D41 DUP2 PUSH2 0x2B12 JUMP JUMPDEST SWAP2 POP PUSH1 0x20 DUP4 ADD CALLDATALOAD PUSH2 0x2D51 DUP2 PUSH2 0x2B12 JUMP JUMPDEST DUP1 SWAP2 POP POP SWAP3 POP SWAP3 SWAP1 POP JUMP JUMPDEST PUSH1 0x0 DUP1 PUSH1 0x0 DUP1 PUSH1 0x0 DUP1 PUSH1 0x0 PUSH1 0xE0 DUP9 DUP11 SUB SLT ISZERO PUSH2 0x2D77 JUMPI PUSH1 0x0 DUP1 REVERT JUMPDEST DUP8 CALLDATALOAD PUSH2 0x2D82 DUP2 PUSH2 0x2B12 JUMP JUMPDEST SWAP7 POP PUSH1 0x20 DUP9 ADD CALLDATALOAD PUSH2 0x2D92 DUP2 PUSH2 0x2B35 JUMP JUMPDEST SWAP6 POP PUSH1 0x40 DUP9 ADD CALLDATALOAD SWAP5 POP PUSH1 0x60 DUP9 ADD CALLDATALOAD SWAP4 POP PUSH1 0x80 DUP9 ADD CALLDATALOAD SWAP3 POP PUSH1 0xA0 DUP9 ADD CALLDATALOAD PUSH2 0x2C2C DUP2 PUSH2 0x2B12 JUMP JUMPDEST PUSH1 0x0 DUP1 PUSH1 0x0 DUP1 PUSH1 0x0 DUP1 PUSH1 0x0 DUP1 PUSH1 0x0 PUSH2 0x120 DUP11 DUP13 SUB SLT ISZERO PUSH2 0x2DD6 JUMPI PUSH1 0x0 DUP1 REVERT JUMPDEST DUP10 CALLDATALOAD PUSH2 0x2DE1 DUP2 PUSH2 0x2B12 JUMP JUMPDEST SWAP9 POP PUSH1 0x20 DUP11 ADD CALLDATALOAD PUSH2 0x2DF1 DUP2 PUSH2 0x2B12 JUMP JUMPDEST SWAP8 POP PUSH1 0x40 DUP11 ADD CALLDATALOAD PUSH2 0x2E01 DUP2 PUSH2 0x2B35 JUMP JUMPDEST SWAP7 POP PUSH1 0x60 DUP11 ADD CALLDATALOAD SWAP6 POP PUSH1 0x80 DUP11 ADD CALLDATALOAD SWAP5 POP PUSH1 0xA0 DUP11 ADD CALLDATALOAD SWAP4 POP PUSH1 0xC0 DUP11 ADD CALLDATALOAD SWAP3 POP PUSH1 0xE0 DUP11 ADD CALLDATALOAD PUSH2 0x2E2D DUP2 PUSH2 0x2B12 JUMP JUMPDEST DUP1 SWAP3 POP POP PUSH2 0x100 DUP11 ADD CALLDATALOAD SWAP1 POP SWAP3 SWAP6 SWAP9 POP SWAP3 SWAP6 SWAP9 POP SWAP3 SWAP6 SWAP9 JUMP JUMPDEST PUSH1 0x0 DUP1 PUSH1 0x0 PUSH1 0x60 DUP5 DUP7 SUB SLT ISZERO PUSH2 0x2E5B JUMPI PUSH1 0x0 DUP1 REVERT JUMPDEST DUP4 CALLDATALOAD SWAP3 POP PUSH1 0x20 DUP5 ADD CALLDATALOAD PUSH2 0x2E6D DUP2 PUSH2 0x2B12 JUMP JUMPDEST SWAP2 POP PUSH1 0x40 DUP5 ADD CALLDATALOAD PUSH2 0x2D18 DUP2 PUSH2 0x2B12 JUMP JUMPDEST PUSH4 0x4E487B71 PUSH1 0xE0 SHL PUSH1 0x0 MSTORE PUSH1 0x41 PUSH1 0x4 MSTORE PUSH1 0x24 PUSH1 0x0 REVERT JUMPDEST PUSH1 0x40 MLOAD PUSH1 0x1F DUP3 ADD PUSH1 0x1F NOT AND DUP2 ADD PUSH8 0xFFFFFFFFFFFFFFFF DUP2 GT DUP3 DUP3 LT OR ISZERO PUSH2 0x2EBC JUMPI PUSH2 0x2EBC PUSH2 0x2E7D JUMP JUMPDEST PUSH1 0x40 MSTORE SWAP2 SWAP1 POP JUMP JUMPDEST PUSH1 0x0 PUSH8 0xFFFFFFFFFFFFFFFF DUP3 GT ISZERO PUSH2 0x2EDE JUMPI PUSH2 0x2EDE PUSH2 0x2E7D JUMP JUMPDEST POP PUSH1 0x5 SHL PUSH1 0x20 ADD SWAP1 JUMP JUMPDEST PUSH1 0x0 DUP1 DUP4 PUSH1 0x1F DUP5 ADD SLT PUSH2 0x2EFA JUMPI PUSH1 0x0 DUP1 REVERT JUMPDEST POP DUP2 CALLDATALOAD PUSH8 0xFFFFFFFFFFFFFFFF DUP2 GT ISZERO PUSH2 0x2F12 JUMPI PUSH1 0x0 DUP1 REVERT JUMPDEST PUSH1 0x20 DUP4 ADD SWAP2 POP DUP4 PUSH1 0x20 PUSH1 0x60 DUP4 MUL DUP6 ADD ADD GT ISZERO PUSH2 0xBE8 JUMPI PUSH1 0x0 DUP1 REVERT JUMPDEST PUSH1 0x0 DUP1 PUSH1 0x0 DUP1 PUSH1 0x0 PUSH1 0x80 DUP7 DUP9 SUB SLT ISZERO PUSH2 0x2F45 JUMPI PUSH1 0x0 DUP1 REVERT JUMPDEST DUP6 CALLDATALOAD PUSH8 0xFFFFFFFFFFFFFFFF DUP1 DUP3 GT ISZERO PUSH2 0x2F5D JUMPI PUSH1 0x0 DUP1 REVERT JUMPDEST DUP2 DUP9 ADD SWAP2 POP DUP9 PUSH1 0x1F DUP4 ADD SLT PUSH2 0x2F71 JUMPI PUSH1 0x0 DUP1 REVERT JUMPDEST DUP2 CALLDATALOAD PUSH1 0x20 PUSH2 0x2F86 PUSH2 0x2F81 DUP4 PUSH2 0x2EC4 JUMP JUMPDEST PUSH2 0x2E93 JUMP JUMPDEST DUP3 DUP2 MSTORE PUSH1 0x5 SWAP3 SWAP1 SWAP3 SHL DUP5 ADD DUP2 ADD SWAP2 DUP2 DUP2 ADD SWAP1 DUP13 DUP5 GT ISZERO PUSH2 0x2FA5 JUMPI PUSH1 0x0 DUP1 REVERT JUMPDEST SWAP5 DUP3 ADD SWAP5 JUMPDEST DUP4 DUP7 LT ISZERO PUSH2 0x2FC3 JUMPI DUP6 CALLDATALOAD DUP3 MSTORE SWAP5 DUP3 ADD SWAP5 SWAP1 DUP3 ADD SWAP1 PUSH2 0x2FAA JUMP JUMPDEST SWAP10 POP POP DUP10 ADD CALLDATALOAD SWAP3 POP POP DUP1 DUP3 GT ISZERO PUSH2 0x2FD9 JUMPI PUSH1 0x0 DUP1 REVERT JUMPDEST POP PUSH2 0x2FE6 DUP9 DUP3 DUP10 ADD PUSH2 0x2EE8 JUMP JUMPDEST SWAP1 SWAP6 POP SWAP4 POP PUSH2 0x2FF9 SWAP1 POP PUSH1 0x40 DUP8 ADD PUSH2 0x2B2A JUMP JUMPDEST SWAP5 SWAP8 SWAP4 SWAP7 POP SWAP2 SWAP5 PUSH1 0x60 ADD CALLDATALOAD SWAP3 SWAP2 POP POP JUMP JUMPDEST PUSH1 0x0 PUSH1 0x60 DUP3 DUP5 SUB SLT ISZERO PUSH2 0x301C JUMPI PUSH1 0x0 DUP1 REVERT JUMPDEST PUSH1 0x40 MLOAD PUSH1 0x60 DUP2 ADD DUP2 DUP2 LT PUSH8 0xFFFFFFFFFFFFFFFF DUP3 GT OR ISZERO PUSH2 0x303F JUMPI PUSH2 0x303F PUSH2 0x2E7D JUMP JUMPDEST PUSH1 0x40 MSTORE SWAP1 POP DUP1 DUP3 CALLDATALOAD PUSH2 0x3050 DUP2 PUSH2 0x2B12 JUMP JUMPDEST DUP2 MSTORE PUSH1 0x20 DUP4 ADD CALLDATALOAD PUSH2 0x3060 DUP2 PUSH2 0x2B12 JUMP JUMPDEST PUSH1 0x20 DUP3 ADD MSTORE PUSH1 0x40 DUP4 ADD CALLDATALOAD PUSH2 0x3073 DUP2 PUSH2 0x2B35 JUMP JUMPDEST PUSH1 0x40 SWAP2 SWAP1 SWAP2 ADD MSTORE SWAP3 SWAP2 POP POP JUMP JUMPDEST PUSH1 0x0 DUP1 PUSH1 0x40 DUP4 DUP6 SUB SLT ISZERO PUSH2 0x3093 JUMPI PUSH1 0x0 DUP1 REVERT JUMPDEST DUP3 CALLDATALOAD SWAP2 POP PUSH1 0x20 DUP1 DUP5 ADD CALLDATALOAD PUSH8 0xFFFFFFFFFFFFFFFF DUP2 GT ISZERO PUSH2 0x30B2 JUMPI PUSH1 0x0 DUP1 REVERT JUMPDEST DUP5 ADD PUSH1 0x1F DUP2 ADD DUP7 SGT PUSH2 0x30C3 JUMPI PUSH1 0x0 DUP1 REVERT JUMPDEST DUP1 CALLDATALOAD PUSH2 0x30D1 PUSH2 0x2F81 DUP3 PUSH2 0x2EC4 JUMP JUMPDEST DUP2 DUP2 MSTORE PUSH1 0x60 SWAP2 DUP3 MUL DUP4 ADD DUP5 ADD SWAP2 DUP5 DUP3 ADD SWAP2 SWAP1 DUP10 DUP5 GT ISZERO PUSH2 0x30F0 JUMPI PUSH1 0x0 DUP1 REVERT JUMPDEST SWAP4 DUP6 ADD SWAP4 JUMPDEST DUP4 DUP6 LT ISZERO PUSH2 0x3116 JUMPI PUSH2 0x3107 DUP11 DUP7 PUSH2 0x300A JUMP JUMPDEST DUP4 MSTORE SWAP4 DUP5 ADD SWAP4 SWAP2 DUP6 ADD SWAP2 PUSH2 0x30F5 JUMP JUMPDEST POP DUP1 SWAP6 POP POP POP POP POP POP SWAP3 POP SWAP3 SWAP1 POP JUMP JUMPDEST PUSH1 0x0 DUP1 PUSH1 0x0 DUP1 PUSH1 0x0 PUSH1 0xA0 DUP7 DUP9 SUB SLT ISZERO PUSH2 0x313E JUMPI PUSH1 0x0 DUP1 REVERT JUMPDEST DUP6 CALLDATALOAD PUSH2 0x3149 DUP2 PUSH2 0x2B12 JUMP JUMPDEST SWAP5 POP PUSH1 0x20 DUP7 ADD CALLDATALOAD PUSH2 0x3159 DUP2 PUSH2 0x2B12 JUMP JUMPDEST SWAP4 POP PUSH1 0x40 DUP7 ADD CALLDATALOAD PUSH2 0x3169 DUP2 PUSH2 0x2B35 JUMP JUMPDEST SWAP5 SWAP8 SWAP4 SWAP7 POP SWAP4 SWAP5 PUSH1 0x60 DUP2 ADD CALLDATALOAD SWAP5 POP PUSH1 0x80 ADD CALLDATALOAD SWAP3 SWAP2 POP POP JUMP JUMPDEST DUP1 CALLDATALOAD PUSH1 0xFF DUP2 AND DUP2 EQ PUSH2 0x2910 JUMPI PUSH1 0x0 DUP1 REVERT JUMPDEST PUSH1 0x0 DUP1 PUSH1 0x0 DUP1 PUSH1 0x0 DUP1 PUSH1 0x0 DUP1 PUSH1 0x0 DUP1 PUSH1 0x0 DUP1 PUSH2 0x180 DUP14 DUP16 SUB SLT ISZERO PUSH2 0x31B5 JUMPI PUSH1 0x0 DUP1 REVERT JUMPDEST DUP13 CALLDATALOAD PUSH2 0x31C0 DUP2 PUSH2 0x2B12 JUMP JUMPDEST SWAP12 POP PUSH1 0x20 DUP14 ADD CALLDATALOAD PUSH2 0x31D0 DUP2 PUSH2 0x2B12 JUMP JUMPDEST SWAP11 POP PUSH1 0x40 DUP14 ADD CALLDATALOAD PUSH2 0x31E0 DUP2 PUSH2 0x2B35 JUMP JUMPDEST SWAP10 POP PUSH1 0x60 DUP14 ADD CALLDATALOAD SWAP9 POP PUSH1 0x80 DUP14 ADD CALLDATALOAD SWAP8 POP PUSH1 0xA0 DUP14 ADD CALLDATALOAD SWAP7 POP PUSH1 0xC0 DUP14 ADD CALLDATALOAD PUSH2 0x3205 DUP2 PUSH2 0x2B12 JUMP JUMPDEST SWAP6 POP PUSH1 0xE0 DUP14 ADD CALLDATALOAD SWAP5 POP PUSH2 0x100 DUP14 ADD CALLDATALOAD PUSH2 0x321D DUP2 PUSH2 0x2B35 JUMP JUMPDEST SWAP4 POP PUSH2 0x322C PUSH2 0x120 DUP15 ADD PUSH2 0x3181 JUMP JUMPDEST SWAP3 POP PUSH2 0x140 DUP14 ADD CALLDATALOAD SWAP2 POP PUSH2 0x160 DUP14 ADD CALLDATALOAD SWAP1 POP SWAP3 SWAP6 SWAP9 SWAP12 POP SWAP3 SWAP6 SWAP9 SWAP12 POP SWAP3 SWAP6 SWAP9 SWAP12 JUMP JUMPDEST PUSH1 0x0 DUP1 PUSH1 0x0 DUP1 PUSH1 0x0 DUP1 PUSH1 0xA0 DUP8 DUP10 SUB SLT ISZERO PUSH2 0x3267 JUMPI PUSH1 0x0 DUP1 REVERT JUMPDEST DUP7 CALLDATALOAD SWAP6 POP PUSH1 0x20 DUP8 ADD CALLDATALOAD SWAP5 POP PUSH1 0x40 DUP8 ADD CALLDATALOAD PUSH8 0xFFFFFFFFFFFFFFFF DUP2 GT ISZERO PUSH2 0x328C JUMPI PUSH1 0x0 DUP1 REVERT JUMPDEST PUSH2 0x3298 DUP10 DUP3 DUP11 ADD PUSH2 0x2EE8 JUMP JUMPDEST SWAP1 SWAP6 POP SWAP4 POP POP PUSH1 0x60 DUP8 ADD CALLDATALOAD PUSH2 0x32AC DUP2 PUSH2 0x2B12 JUMP JUMPDEST DUP1 SWAP3 POP POP PUSH1 0x80 DUP8 ADD CALLDATALOAD SWAP1 POP SWAP3 SWAP6 POP SWAP3 SWAP6 POP SWAP3 SWAP6 JUMP JUMPDEST PUSH1 0x0 DUP1 PUSH1 0x0 DUP1 PUSH1 0x0 DUP1 PUSH1 0x0 DUP1 PUSH1 0x0 DUP1 PUSH1 0x0 PUSH2 0x160 DUP13 DUP15 SUB SLT ISZERO PUSH2 0x32E3 JUMPI PUSH1 0x0 DUP1 REVERT JUMPDEST DUP12 CALLDATALOAD PUSH2 0x32EE DUP2 PUSH2 0x2B12 JUMP JUMPDEST SWAP11 POP PUSH1 0x20 DUP13 ADD CALLDATALOAD PUSH2 0x32FE DUP2 PUSH2 0x2B35 JUMP JUMPDEST SWAP10 POP PUSH1 0x40 DUP13 ADD CALLDATALOAD SWAP9 POP PUSH1 0x60 DUP13 ADD CALLDATALOAD SWAP8 POP PUSH1 0x80 DUP13 ADD CALLDATALOAD SWAP7 POP PUSH1 0xA0 DUP13 ADD CALLDATALOAD PUSH2 0x3323 DUP2 PUSH2 0x2B12 JUMP JUMPDEST SWAP6 POP PUSH1 0xC0 DUP13 ADD CALLDATALOAD SWAP5 POP PUSH1 0xE0 DUP13 ADD CALLDATALOAD PUSH2 0x333A DUP2 PUSH2 0x2B35 JUMP JUMPDEST SWAP4 POP PUSH2 0x3349 PUSH2 0x100 DUP14 ADD PUSH2 0x3181 JUMP JUMPDEST SWAP3 POP PUSH2 0x120 DUP13 ADD CALLDATALOAD SWAP2 POP PUSH2 0x140 DUP13 ADD CALLDATALOAD SWAP1 POP SWAP3 SWAP6 SWAP9 SWAP12 POP SWAP3 SWAP6 SWAP9 SWAP12 SWAP1 SWAP4 SWAP7 SWAP10 POP JUMP JUMPDEST PUSH1 0x0 PUSH1 0x20 DUP3 DUP5 SUB SLT ISZERO PUSH2 0x337D JUMPI PUSH1 0x0 DUP1 REVERT JUMPDEST DUP2 CALLDATALOAD PUSH2 0x2A06 DUP2 PUSH2 0x2B12 JUMP JUMPDEST PUSH1 0x0 DUP1 PUSH1 0x0 DUP1 PUSH1 0x0 PUSH1 0x80 DUP7 DUP9 SUB SLT ISZERO PUSH2 0x33A0 JUMPI PUSH1 0x0 DUP1 REVERT JUMPDEST DUP6 CALLDATALOAD SWAP5 POP PUSH1 0x20 DUP7 ADD CALLDATALOAD PUSH8 0xFFFFFFFFFFFFFFFF DUP2 GT ISZERO PUSH2 0x33BE JUMPI PUSH1 0x0 DUP1 REVERT JUMPDEST PUSH2 0x33CA DUP9 DUP3 DUP10 ADD PUSH2 0x2EE8 JUMP JUMPDEST SWAP1 SWAP6 POP SWAP4 POP POP PUSH1 0x40 DUP7 ADD CALLDATALOAD PUSH2 0x2FF9 DUP2 PUSH2 0x2B12 JUMP JUMPDEST PUSH1 0x20 DUP1 DUP3 MSTORE PUSH1 0x15 SWAP1 DUP3 ADD MSTORE PUSH21 0x10985CD9558C549BDD5D195C8E8811561412549151 PUSH1 0x5A SHL PUSH1 0x40 DUP3 ADD MSTORE PUSH1 0x60 ADD SWAP1 JUMP JUMPDEST PUSH1 0x0 PUSH1 0x20 DUP3 DUP5 SUB SLT ISZERO PUSH2 0x341F JUMPI PUSH1 0x0 DUP1 REVERT JUMPDEST DUP2 MLOAD PUSH2 0x2A06 DUP2 PUSH2 0x2B35 JUMP JUMPDEST PUSH1 0x0 DUP1 PUSH1 0x40 DUP4 DUP6 SUB SLT ISZERO PUSH2 0x343D JUMPI PUSH1 0x0 DUP1 REVERT JUMPDEST POP POP DUP1 MLOAD PUSH1 0x20 SWAP1 SWAP2 ADD MLOAD SWAP1 SWAP3 SWAP1 SWAP2 POP JUMP JUMPDEST PUSH1 0x20 DUP1 DUP3 MSTORE PUSH1 0x23 SWAP1 DUP3 ADD MSTORE PUSH32 0x426173655631526F757465723A20494E53554646494349454E545F415F414D4F PUSH1 0x40 DUP3 ADD MSTORE PUSH3 0x155395 PUSH1 0xEA SHL PUSH1 0x60 DUP3 ADD MSTORE PUSH1 0x80 ADD SWAP1 JUMP JUMPDEST PUSH1 0x20 DUP1 DUP3 MSTORE PUSH1 0x23 SWAP1 DUP3 ADD MSTORE PUSH32 0x426173655631526F757465723A20494E53554646494349454E545F425F414D4F PUSH1 0x40 DUP3 ADD MSTORE PUSH3 0x155395 PUSH1 0xEA SHL PUSH1 0x60 DUP3 ADD MSTORE PUSH1 0x80 ADD SWAP1 JUMP JUMPDEST PUSH4 0x4E487B71 PUSH1 0xE0 SHL PUSH1 0x0 MSTORE PUSH1 0x32 PUSH1 0x4 MSTORE PUSH1 0x24 PUSH1 0x0 REVERT JUMPDEST PUSH4 0x4E487B71 PUSH1 0xE0 SHL PUSH1 0x0 MSTORE PUSH1 0x11 PUSH1 0x4 MSTORE PUSH1 0x24 PUSH1 0x0 REVERT JUMPDEST PUSH1 0x0 DUP3 DUP3 LT ISZERO PUSH2 0x3512 JUMPI PUSH2 0x3512 PUSH2 0x34EA JUMP JUMPDEST POP SUB SWAP1 JUMP JUMPDEST PUSH1 0x20 DUP1 DUP3 MSTORE PUSH1 0x28 SWAP1 DUP3 ADD MSTORE PUSH32 0x426173655631526F757465723A20494E53554646494349454E545F4F55545055 PUSH1 0x40 DUP3 ADD MSTORE PUSH8 0x1517D05353D55395 PUSH1 0xC2 SHL PUSH1 0x60 DUP3 ADD MSTORE PUSH1 0x80 ADD SWAP1 JUMP JUMPDEST PUSH1 0x1 PUSH1 0x1 PUSH1 0xA0 SHL SUB SWAP4 DUP5 AND DUP2 MSTORE SWAP2 SWAP1 SWAP3 AND PUSH1 0x20 DUP3 ADD MSTORE SWAP1 ISZERO ISZERO PUSH1 0x40 DUP3 ADD MSTORE PUSH1 0x60 ADD SWAP1 JUMP JUMPDEST PUSH1 0x0 PUSH1 0x20 DUP3 DUP5 SUB SLT ISZERO PUSH2 0x3595 JUMPI PUSH1 0x0 DUP1 REVERT JUMPDEST DUP2 MLOAD PUSH2 0x2A06 DUP2 PUSH2 0x2B12 JUMP JUMPDEST PUSH1 0x0 PUSH1 0x20 DUP3 DUP5 SUB SLT ISZERO PUSH2 0x35B2 JUMPI PUSH1 0x0 DUP1 REVERT JUMPDEST POP MLOAD SWAP2 SWAP1 POP JUMP JUMPDEST PUSH1 0x0 DUP2 PUSH1 0x0 NOT DIV DUP4 GT DUP3 ISZERO ISZERO AND ISZERO PUSH2 0x35D3 JUMPI PUSH2 0x35D3 PUSH2 0x34EA JUMP JUMPDEST POP MUL SWAP1 JUMP JUMPDEST PUSH1 0x0 DUP3 PUSH2 0x35F5 JUMPI PUSH4 0x4E487B71 PUSH1 0xE0 SHL PUSH1 0x0 MSTORE PUSH1 0x12 PUSH1 0x4 MSTORE PUSH1 0x24 PUSH1 0x0 REVERT JUMPDEST POP DIV SWAP1 JUMP JUMPDEST DUP1 MLOAD PUSH1 0x1 PUSH1 0x1 PUSH1 0x70 SHL SUB DUP2 AND DUP2 EQ PUSH2 0x2910 JUMPI PUSH1 0x0 DUP1 REVERT JUMPDEST PUSH1 0x0 DUP1 PUSH1 0x0 PUSH1 0x60 DUP5 DUP7 SUB SLT ISZERO PUSH2 0x3626 JUMPI PUSH1 0x0 DUP1 REVERT JUMPDEST PUSH2 0x362F DUP5 PUSH2 0x35FA JUMP JUMPDEST SWAP3 POP PUSH2 0x363D PUSH1 0x20 DUP6 ADD PUSH2 0x35FA JUMP JUMPDEST SWAP2 POP PUSH1 0x40 DUP5 ADD MLOAD PUSH4 0xFFFFFFFF DUP2 AND DUP2 EQ PUSH2 0x2D18 JUMPI PUSH1 0x0 DUP1 REVERT JUMPDEST PUSH1 0x0 PUSH1 0x20 DUP3 DUP5 SUB SLT ISZERO PUSH2 0x3668 JUMPI PUSH1 0x0 DUP1 REVERT JUMPDEST DUP2 CALLDATALOAD PUSH2 0x2A06 DUP2 PUSH2 0x2B35 JUMP JUMPDEST PUSH1 0x0 PUSH1 0x60 DUP3 DUP5 SUB SLT ISZERO PUSH2 0x3685 JUMPI PUSH1 0x0 DUP1 REVERT JUMPDEST PUSH2 0x2A06 DUP4 DUP4 PUSH2 0x300A JUMP JUMPDEST PUSH1 0x20 DUP1 DUP3 MSTORE PUSH1 0x1A SWAP1 DUP3 ADD MSTORE PUSH32 0x426173655631526F757465723A20494E56414C49445F50415448000000000000 PUSH1 0x40 DUP3 ADD MSTORE PUSH1 0x60 ADD SWAP1 JUMP JUMPDEST PUSH1 0x0 DUP3 NOT DUP3 GT ISZERO PUSH2 0x36D9 JUMPI PUSH2 0x36D9 PUSH2 0x34EA JUMP JUMPDEST POP ADD SWAP1 JUMP JUMPDEST PUSH1 0x0 PUSH1 0x0 NOT DUP3 EQ ISZERO PUSH2 0x36F2 JUMPI PUSH2 0x36F2 PUSH2 0x34EA JUMP JUMPDEST POP PUSH1 0x1 ADD SWAP1 JUMP JUMPDEST PUSH1 0x1 PUSH1 0x1 PUSH1 0xA0 SHL SUB SWAP8 DUP9 AND DUP2 MSTORE SWAP6 SWAP1 SWAP7 AND PUSH1 0x20 DUP7 ADD MSTORE PUSH1 0x40 DUP6 ADD SWAP4 SWAP1 SWAP4 MSTORE PUSH1 0x60 DUP5 ADD SWAP2 SWAP1 SWAP2 MSTORE PUSH1 0xFF AND PUSH1 0x80 DUP4 ADD MSTORE PUSH1 0xA0 DUP3 ADD MSTORE PUSH1 0xC0 DUP2 ADD SWAP2 SWAP1 SWAP2 MSTORE PUSH1 0xE0 ADD SWAP1 JUMP JUMPDEST PUSH1 0x0 JUMPDEST DUP4 DUP2 LT ISZERO PUSH2 0x3755 JUMPI DUP2 DUP2 ADD MLOAD DUP4 DUP3 ADD MSTORE PUSH1 0x20 ADD PUSH2 0x373D JUMP JUMPDEST DUP4 DUP2 GT ISZERO PUSH2 0x25B3 JUMPI POP POP PUSH1 0x0 SWAP2 ADD MSTORE JUMP JUMPDEST PUSH1 0x0 DUP3 MLOAD PUSH2 0x3778 DUP2 DUP5 PUSH1 0x20 DUP8 ADD PUSH2 0x373A JUMP JUMPDEST SWAP2 SWAP1 SWAP2 ADD SWAP3 SWAP2 POP POP JUMP JUMPDEST DUP5 DUP2 MSTORE DUP4 PUSH1 0x20 DUP3 ADD MSTORE PUSH1 0x1 DUP1 PUSH1 0xA0 SHL SUB DUP4 AND PUSH1 0x40 DUP3 ADD MSTORE PUSH1 0x80 PUSH1 0x60 DUP3 ADD MSTORE PUSH1 0x0 DUP3 MLOAD DUP1 PUSH1 0x80 DUP5 ADD MSTORE PUSH2 0x37BB DUP2 PUSH1 0xA0 DUP6 ADD PUSH1 0x20 DUP8 ADD PUSH2 0x373A JUMP JUMPDEST PUSH1 0x1F ADD PUSH1 0x1F NOT AND SWAP2 SWAP1 SWAP2 ADD PUSH1 0xA0 ADD SWAP6 SWAP5 POP POP POP POP POP JUMP INVALID LOG2 PUSH5 0x6970667358 0x22 SLT KECCAK256 0xF GASPRICE 0xA6 GASLIMIT 0xC5 0xB2 SWAP12 0x4B 0xC0 0x5F 0xB1 CREATE 0xD5 0x49 0x4F SIGNEXTEND 0x22 0xBE SWAP1 0xE7 SMOD 0x5D PUSH13 0xF76FF7B5037193F2E164736F6C PUSH4 0x4300080B STOP CALLER "
        },
        "methodIdentifiers": {
          "UNSAFE_swapExactTokensForTokens(uint256[],(address,address,bool)[],address,uint256)": "7301e3c8",
          "addLiquidity(address,address,bool,uint256,uint256,uint256,uint256,address,uint256)": "5a47ddc3",
          "addLiquidityFTM(address,bool,uint256,uint256,uint256,address,uint256)": "578caf32",
          "factory()": "c45a0155",
          "getAmountOut(uint256,address,address)": "5e1e6325",
          "getAmountsOut(uint256,(address,address,bool)[])": "9881fcb4",
          "getReserves(address,address,bool)": "5e60dab5",
          "isPair(address)": "e5e31b13",
          "pairFor(address,address,bool)": "4c1ee03e",
          "quoteAddLiquidity(address,address,bool,uint256,uint256)": "98a0fb3c",
          "quoteRemoveLiquidity(address,address,bool,uint256)": "4386e63c",
          "removeLiquidity(address,address,bool,uint256,uint256,uint256,address,uint256)": "0dede6c4",
          "removeLiquidityFTM(address,bool,uint256,uint256,uint256,address,uint256)": "cc1d1773",
          "removeLiquidityFTMWithPermit(address,bool,uint256,uint256,uint256,address,uint256,bool,uint8,bytes32,bytes32)": "d28254b8",
          "removeLiquidityWithPermit(address,address,bool,uint256,uint256,uint256,address,uint256,bool,uint8,bytes32,bytes32)": "a32b1fcd",
          "sortTokens(address,address)": "544caa56",
          "swapExactFTMForTokens(uint256,(address,address,bool)[],address,uint256)": "e8ef4681",
          "swapExactTokensForFTM(uint256,uint256,(address,address,bool)[],address,uint256)": "c6b9577e",
          "swapExactTokensForTokens(uint256,uint256,(address,address,bool)[],address,uint256)": "f41766d8",
          "swapExactTokensForTokensSimple(uint256,uint256,address,address,bool,address,uint256)": "13dcfc59",
          "wftm()": "f4f45b46"
        }
      }
    }
  }
}