{
  "contracts/test/voter_test.sol": {
    "voter_test": {
      "abi": [
        {
          "inputs": [
            {
              "internalType": "uint256",
              "name": "tokenId",
              "type": "uint256"
            },
            {
              "internalType": "address",
              "name": "account",
              "type": "address"
            }
          ],
          "name": "attachTokenToGauge",
          "outputs": [],
          "stateMutability": "nonpayable",
          "type": "function"
        },
        {
          "inputs": [
            {
              "internalType": "uint256",
              "name": "tokenId",
              "type": "uint256"
            },
            {
              "internalType": "address",
              "name": "account",
              "type": "address"
            }
          ],
          "name": "detachTokenFromGauge",
          "outputs": [],
          "stateMutability": "nonpayable",
          "type": "function"
        },
        {
          "inputs": [
            {
              "internalType": "address",
              "name": "_gauge",
              "type": "address"
            }
          ],
          "name": "distribute",
          "outputs": [],
          "stateMutability": "nonpayable",
          "type": "function"
        },
        {
          "inputs": [
            {
              "internalType": "uint256",
              "name": "tokenId",
              "type": "uint256"
            },
            {
              "internalType": "address",
              "name": "account",
              "type": "address"
            },
            {
              "internalType": "uint256",
              "name": "amount",
              "type": "uint256"
            }
          ],
          "name": "emitDeposit",
          "outputs": [],
          "stateMutability": "nonpayable",
          "type": "function"
        },
        {
          "inputs": [
            {
              "internalType": "uint256",
              "name": "tokenId",
              "type": "uint256"
            },
            {
              "internalType": "address",
              "name": "account",
              "type": "address"
            },
            {
              "internalType": "uint256",
              "name": "amount",
              "type": "uint256"
            }
          ],
          "name": "emitWithdraw",
          "outputs": [],
          "stateMutability": "nonpayable",
          "type": "function"
        },
        {
          "inputs": [
            {
              "internalType": "uint256",
              "name": "amount",
              "type": "uint256"
            }
          ],
          "name": "notifyRewardAmount",
          "outputs": [],
          "stateMutability": "nonpayable",
          "type": "function"
        },
        {
          "inputs": [
            {
              "internalType": "uint256",
              "name": "_totalWeight",
              "type": "uint256"
            }
          ],
          "name": "setTotalWeight",
          "outputs": [],
          "stateMutability": "nonpayable",
          "type": "function"
        },
        {
          "inputs": [],
          "name": "totalWeight",
          "outputs": [
            {
              "internalType": "uint256",
              "name": "",
              "type": "uint256"
            }
          ],
          "stateMutability": "view",
          "type": "function"
        }
      ],
      "evm": {
        "bytecode": {
          "linkReferences": {},
          "object": "608060405234801561001057600080fd5b506101ef806100206000396000f3fe608060405234801561001057600080fd5b50600436106100885760003560e01c8063698473e31161005b578063698473e3146100b357806396c82e57146100d3578063a61c713a146100ee578063ea94ee44146100ee57600080fd5b80630dd084891461008d5780633c6b16ab146100a2578063411b1f77146100b357806363453ae1146100c5575b600080fd5b6100a061009b366004610101565b600055565b005b6100a06100b0366004610101565b50565b6100a06100c1366004610136565b5050565b6100a06100b0366004610162565b6100dc60005481565b60405190815260200160405180910390f35b6100a06100fc366004610184565b505050565b60006020828403121561011357600080fd5b5035919050565b80356001600160a01b038116811461013157600080fd5b919050565b6000806040838503121561014957600080fd5b823591506101596020840161011a565b90509250929050565b60006020828403121561017457600080fd5b61017d8261011a565b9392505050565b60008060006060848603121561019957600080fd5b833592506101a96020850161011a565b915060408401359050925092509256fea26469706673582212202ddcb0c72ce1387b1c7a7998c58eab509c5a35bbff2f9ce8746376ec3c06796064736f6c634300080b0033",
          "opcodes": "PUSH1 0x80 PUSH1 0x40 MSTORE CALLVALUE DUP1 ISZERO PUSH2 0x10 JUMPI PUSH1 0x0 DUP1 REVERT JUMPDEST POP PUSH2 0x1EF DUP1 PUSH2 0x20 PUSH1 0x0 CODECOPY PUSH1 0x0 RETURN INVALID PUSH1 0x80 PUSH1 0x40 MSTORE CALLVALUE DUP1 ISZERO PUSH2 0x10 JUMPI PUSH1 0x0 DUP1 REVERT JUMPDEST POP PUSH1 0x4 CALLDATASIZE LT PUSH2 0x88 JUMPI PUSH1 0x0 CALLDATALOAD PUSH1 0xE0 SHR DUP1 PUSH4 0x698473E3 GT PUSH2 0x5B JUMPI DUP1 PUSH4 0x698473E3 EQ PUSH2 0xB3 JUMPI DUP1 PUSH4 0x96C82E57 EQ PUSH2 0xD3 JUMPI DUP1 PUSH4 0xA61C713A EQ PUSH2 0xEE JUMPI DUP1 PUSH4 0xEA94EE44 EQ PUSH2 0xEE JUMPI PUSH1 0x0 DUP1 REVERT JUMPDEST DUP1 PUSH4 0xDD08489 EQ PUSH2 0x8D JUMPI DUP1 PUSH4 0x3C6B16AB EQ PUSH2 0xA2 JUMPI DUP1 PUSH4 0x411B1F77 EQ PUSH2 0xB3 JUMPI DUP1 PUSH4 0x63453AE1 EQ PUSH2 0xC5 JUMPI JUMPDEST PUSH1 0x0 DUP1 REVERT JUMPDEST PUSH2 0xA0 PUSH2 0x9B CALLDATASIZE PUSH1 0x4 PUSH2 0x101 JUMP JUMPDEST PUSH1 0x0 SSTORE JUMP JUMPDEST STOP JUMPDEST PUSH2 0xA0 PUSH2 0xB0 CALLDATASIZE PUSH1 0x4 PUSH2 0x101 JUMP JUMPDEST POP JUMP JUMPDEST PUSH2 0xA0 PUSH2 0xC1 CALLDATASIZE PUSH1 0x4 PUSH2 0x136 JUMP JUMPDEST POP POP JUMP JUMPDEST PUSH2 0xA0 PUSH2 0xB0 CALLDATASIZE PUSH1 0x4 PUSH2 0x162 JUMP JUMPDEST PUSH2 0xDC PUSH1 0x0 SLOAD DUP2 JUMP JUMPDEST PUSH1 0x40 MLOAD SWAP1 DUP2 MSTORE PUSH1 0x20 ADD PUSH1 0x40 MLOAD DUP1 SWAP2 SUB SWAP1 RETURN JUMPDEST PUSH2 0xA0 PUSH2 0xFC CALLDATASIZE PUSH1 0x4 PUSH2 0x184 JUMP JUMPDEST POP POP POP JUMP JUMPDEST PUSH1 0x0 PUSH1 0x20 DUP3 DUP5 SUB SLT ISZERO PUSH2 0x113 JUMPI PUSH1 0x0 DUP1 REVERT JUMPDEST POP CALLDATALOAD SWAP2 SWAP1 POP JUMP JUMPDEST DUP1 CALLDATALOAD PUSH1 0x1 PUSH1 0x1 PUSH1 0xA0 SHL SUB DUP2 AND DUP2 EQ PUSH2 0x131 JUMPI PUSH1 0x0 DUP1 REVERT JUMPDEST SWAP2 SWAP1 POP JUMP JUMPDEST PUSH1 0x0 DUP1 PUSH1 0x40 DUP4 DUP6 SUB SLT ISZERO PUSH2 0x149 JUMPI PUSH1 0x0 DUP1 REVERT JUMPDEST DUP3 CALLDATALOAD SWAP2 POP PUSH2 0x159 PUSH1 0x20 DUP5 ADD PUSH2 0x11A JUMP JUMPDEST SWAP1 POP SWAP3 POP SWAP3 SWAP1 POP JUMP JUMPDEST PUSH1 0x0 PUSH1 0x20 DUP3 DUP5 SUB SLT ISZERO PUSH2 0x174 JUMPI PUSH1 0x0 DUP1 REVERT JUMPDEST PUSH2 0x17D DUP3 PUSH2 0x11A JUMP JUMPDEST SWAP4 SWAP3 POP POP POP JUMP JUMPDEST PUSH1 0x0 DUP1 PUSH1 0x0 PUSH1 0x60 DUP5 DUP7 SUB SLT ISZERO PUSH2 0x199 JUMPI PUSH1 0x0 DUP1 REVERT JUMPDEST DUP4 CALLDATALOAD SWAP3 POP PUSH2 0x1A9 PUSH1 0x20 DUP6 ADD PUSH2 0x11A JUMP JUMPDEST SWAP2 POP PUSH1 0x40 DUP5 ADD CALLDATALOAD SWAP1 POP SWAP3 POP SWAP3 POP SWAP3 JUMP INVALID LOG2 PUSH5 0x6970667358 0x22 SLT KECCAK256 0x2D 0xDC 0xB0 0xC7 0x2C 0xE1 CODESIZE PUSH28 0x1C7A7998C58EAB509C5A35BBFF2F9CE8746376EC3C06796064736F6C PUSH4 0x4300080B STOP CALLER "
        },
        "methodIdentifiers": {
          "attachTokenToGauge(uint256,address)": "698473e3",
          "detachTokenFromGauge(uint256,address)": "411b1f77",
          "distribute(address)": "63453ae1",
          "emitDeposit(uint256,address,uint256)": "a61c713a",
          "emitWithdraw(uint256,address,uint256)": "ea94ee44",
          "notifyRewardAmount(uint256)": "3c6b16ab",
          "setTotalWeight(uint256)": "0dd08489",
          "totalWeight()": "96c82e57"
        }
      }
    }
  }
}