{
  "contracts/BaseV1-minter.sol": {
    "BaseV1Minter": {
      "abi": [
        {
          "inputs": [
            {
              "internalType": "address",
              "name": "__voter",
              "type": "address"
            },
            {
              "internalType": "address",
              "name": "__ve",
              "type": "address"
            },
            {
              "internalType": "address",
              "name": "__ve_dist",
              "type": "address"
            }
          ],
          "stateMutability": "nonpayable",
          "type": "constructor"
        },
        {
          "anonymous": false,
          "inputs": [
            {
              "indexed": true,
              "internalType": "address",
              "name": "sender",
              "type": "address"
            },
            {
              "indexed": false,
              "internalType": "uint256",
              "name": "weekly",
              "type": "uint256"
            },
            {
              "indexed": false,
              "internalType": "uint256",
              "name": "circulating_supply",
              "type": "uint256"
            },
            {
              "indexed": false,
              "internalType": "uint256",
              "name": "circulating_emission",
              "type": "uint256"
            }
          ],
          "name": "Mint",
          "type": "event"
        },
        {
          "inputs": [],
          "name": "USDC_USDT_gauge",
          "outputs": [
            {
              "internalType": "address",
              "name": "",
              "type": "address"
            }
          ],
          "stateMutability": "view",
          "type": "function"
        },
        {
          "inputs": [],
          "name": "USDC_yMeta_gauge",
          "outputs": [
            {
              "internalType": "address",
              "name": "",
              "type": "address"
            }
          ],
          "stateMutability": "view",
          "type": "function"
        },
        {
          "inputs": [],
          "name": "_token",
          "outputs": [
            {
              "internalType": "contract underlying",
              "name": "",
              "type": "address"
            }
          ],
          "stateMutability": "view",
          "type": "function"
        },
        {
          "inputs": [],
          "name": "_ve",
          "outputs": [
            {
              "internalType": "contract ve",
              "name": "",
              "type": "address"
            }
          ],
          "stateMutability": "view",
          "type": "function"
        },
        {
          "inputs": [],
          "name": "_ve_dist",
          "outputs": [
            {
              "internalType": "contract ve_dist",
              "name": "",
              "type": "address"
            }
          ],
          "stateMutability": "view",
          "type": "function"
        },
        {
          "inputs": [],
          "name": "_voter",
          "outputs": [
            {
              "internalType": "contract voter",
              "name": "",
              "type": "address"
            }
          ],
          "stateMutability": "view",
          "type": "function"
        },
        {
          "inputs": [],
          "name": "active_period",
          "outputs": [
            {
              "internalType": "uint256",
              "name": "",
              "type": "uint256"
            }
          ],
          "stateMutability": "view",
          "type": "function"
        },
        {
          "inputs": [],
          "name": "calculate_emission",
          "outputs": [
            {
              "internalType": "uint256",
              "name": "",
              "type": "uint256"
            }
          ],
          "stateMutability": "view",
          "type": "function"
        },
        {
          "inputs": [
            {
              "internalType": "uint256",
              "name": "_minted",
              "type": "uint256"
            }
          ],
          "name": "calculate_growth",
          "outputs": [
            {
              "internalType": "uint256",
              "name": "",
              "type": "uint256"
            }
          ],
          "stateMutability": "view",
          "type": "function"
        },
        {
          "inputs": [],
          "name": "circulating_emission",
          "outputs": [
            {
              "internalType": "uint256",
              "name": "",
              "type": "uint256"
            }
          ],
          "stateMutability": "view",
          "type": "function"
        },
        {
          "inputs": [],
          "name": "circulating_supply",
          "outputs": [
            {
              "internalType": "uint256",
              "name": "",
              "type": "uint256"
            }
          ],
          "stateMutability": "view",
          "type": "function"
        },
        {
          "inputs": [],
          "name": "fetch",
          "outputs": [
            {
              "internalType": "address",
              "name": "",
              "type": "address"
            }
          ],
          "stateMutability": "view",
          "type": "function"
        },
        {
          "inputs": [
            {
              "internalType": "address",
              "name": "_fetch",
              "type": "address"
            },
            {
              "internalType": "uint256",
              "name": "max",
              "type": "uint256"
            },
            {
              "internalType": "address",
              "name": "_USDC_USDT_gauge",
              "type": "address"
            },
            {
              "internalType": "address",
              "name": "_USDC_yMeta_gauge",
              "type": "address"
            },
            {
              "internalType": "address",
              "name": "_votersLock",
              "type": "address"
            },
            {
              "internalType": "address",
              "name": "_teamWallet",
              "type": "address"
            }
          ],
          "name": "initialize",
          "outputs": [],
          "stateMutability": "nonpayable",
          "type": "function"
        },
        {
          "inputs": [
            {
              "internalType": "uint256",
              "name": "_amount",
              "type": "uint256"
            }
          ],
          "name": "mintForFetch",
          "outputs": [],
          "stateMutability": "nonpayable",
          "type": "function"
        },
        {
          "inputs": [],
          "name": "teamWallet",
          "outputs": [
            {
              "internalType": "address",
              "name": "",
              "type": "address"
            }
          ],
          "stateMutability": "view",
          "type": "function"
        },
        {
          "inputs": [],
          "name": "update_period",
          "outputs": [
            {
              "internalType": "uint256",
              "name": "",
              "type": "uint256"
            }
          ],
          "stateMutability": "nonpayable",
          "type": "function"
        },
        {
          "inputs": [],
          "name": "votersLock",
          "outputs": [
            {
              "internalType": "address",
              "name": "",
              "type": "address"
            }
          ],
          "stateMutability": "view",
          "type": "function"
        },
        {
          "inputs": [],
          "name": "weekly",
          "outputs": [
            {
              "internalType": "uint256",
              "name": "",
              "type": "uint256"
            }
          ],
          "stateMutability": "view",
          "type": "function"
        },
        {
          "inputs": [],
          "name": "weekly_emission",
          "outputs": [
            {
              "internalType": "uint256",
              "name": "",
              "type": "uint256"
            }
          ],
          "stateMutability": "view",
          "type": "function"
        }
      ],
      "evm": {
        "bytecode": {
          "linkReferences": {},
          "object": "6101006040526a108b2a2c280290940000006000553480156200002157600080fd5b506040516200149338038062001493833981016040819052620000449162000141565b600280546001600160a01b0319163317905560408051637e062a3560e11b815290516001600160a01b0384169163fc0c546a9160048083019260209291908290030181865afa1580156200009c573d6000803e3d6000fd5b505050506040513d601f19601f82011682018060405250810190620000c291906200018b565b6001600160a01b0390811660805283811660a05282811660c052811660e05262093a8080620000f3816002620001c6565b620000ff9042620001e8565b6200010b919062000203565b620001179190620001c6565b6001555062000226915050565b80516001600160a01b03811681146200013c57600080fd5b919050565b6000806000606084860312156200015757600080fd5b620001628462000124565b9250620001726020850162000124565b9150620001826040850162000124565b90509250925092565b6000602082840312156200019e57600080fd5b620001a98262000124565b9392505050565b634e487b7160e01b600052601160045260246000fd5b6000816000190483118215151615620001e357620001e3620001b0565b500290565b60008219821115620001fe57620001fe620001b0565b500190565b6000826200022157634e487b7160e01b600052601260045260246000fd5b500490565b60805160a05160c05160e0516111ae620002e56000396000818161017a01528181610a5a01528181610ad20152610b4501526000818161020b015281816105530152610742015260006101a9015260008181610297015281816102ed015281816103fe015281816104d00152818161061b015281816107c4015281816109170152818161099601528181610a2d01528181610c2c01528181610cd101528181610d4301528181610de901528181610e5d0152610ef501526111ae6000f3fe608060405234801561001057600080fd5b50600436106101215760003560e01c80638dd598fb116100ad578063cfc6c8ff11610071578063cfc6c8ff14610279578063d139960814610281578063e038c75a1461028a578063ecd0c0c314610292578063ed29fc11146102b957600080fd5b80638dd598fb146102065780638e01fbfa1461022d5780639bab5bab14610240578063a2dc2ab714610253578063a95c372d1461026657600080fd5b806336d96faf116100f457806336d96faf1461019c5780633db9b42a146101a457806344e9d755146101cb57806344f2ee6e146101de57806359927044146101f357600080fd5b80631eebae8014610126578063254c7f1d1461014157806326cfc17b1461016c5780632c6b2f0c14610175575b600080fd5b61012e6102c1565b6040519081526020015b60405180910390f35b600654610154906001600160a01b031681565b6040516001600160a01b039091168152602001610138565b61012e60005481565b6101547f000000000000000000000000000000000000000000000000000000000000000081565b61012e6102e9565b6101547f000000000000000000000000000000000000000000000000000000000000000081565b600554610154906001600160a01b031681565b6101f16101ec366004611001565b61039a565b005b600754610154906001600160a01b031681565b6101547f000000000000000000000000000000000000000000000000000000000000000081565b61012e61023b366004611001565b6104cc565b600454610154906001600160a01b031681565b6101f1610261366004611031565b6105ed565b600354610154906001600160a01b031681565b61012e610724565b61012e60015481565b61012e61073e565b6101547f000000000000000000000000000000000000000000000000000000000000000081565b61012e61084e565b60006103e860026102d061073e565b6102da91906110b4565b6102e491906110d3565b905090565b60007f00000000000000000000000000000000000000000000000000000000000000006001600160a01b03166318160ddd6040518163ffffffff1660e01b8152600401602060405180830381865afa158015610349573d6000803e3d6000fd5b505050506040513d601f19601f8201168201806040525081019061036d91906110f5565b606461037761073e565b606260005461038691906110b4565b61039091906110b4565b6102da91906110d3565b6003546001600160a01b031633146103e45760405162461bcd60e51b815260206004820152600960248201526809cdee840cccae8c6d60bb1b604482015260640160405180910390fd5b6003546040516340c10f1960e01b81526001600160a01b037f00000000000000000000000000000000000000000000000000000000000000008116926340c10f1992610439929190911690859060040161110e565b600060405180830381600087803b15801561045357600080fd5b505af1158015610467573d6000803e3d6000fd5b50506003546001600160a01b031691507fb4c03061fb5b7fed76389d5af8f2e0ddb09f8c70d1333abbb62582835e10accb9050826104a361073e565b6104ab6102c1565b6040805193845260208401929092529082015260600160405180910390a250565b60007f00000000000000000000000000000000000000000000000000000000000000006001600160a01b03166318160ddd6040518163ffffffff1660e01b8152600401602060405180830381865afa15801561052c573d6000803e3d6000fd5b505050506040513d601f19601f8201168201806040525081019061055091906110f5565b827f00000000000000000000000000000000000000000000000000000000000000006001600160a01b03166318160ddd6040518163ffffffff1660e01b8152600401602060405180830381865afa1580156105af573d6000803e3d6000fd5b505050506040513d601f19601f820116820180604052508101906105d391906110f5565b6105dd91906110b4565b6105e791906110d3565b92915050565b6002546001600160a01b0316331461060457600080fd5b6040516340c10f1960e01b81526001600160a01b037f000000000000000000000000000000000000000000000000000000000000000016906340c10f1990610652903090899060040161110e565b600060405180830381600087803b15801561066c57600080fd5b505af1158015610680573d6000803e3d6000fd5b5050600380546001600160a01b038a166001600160a01b0319918216179091556002805490911690555062093a809050806106bb8142611127565b6106c591906110d3565b6106cf91906110b4565b600155600480546001600160a01b039586166001600160a01b03199182161790915560058054948616948216949094179093556006805492851692841692909217909155600780549190931691161790555050565b60006102e46107316102e9565b6107396102c1565b610fe8565b60007f00000000000000000000000000000000000000000000000000000000000000006001600160a01b03166318160ddd6040518163ffffffff1660e01b8152600401602060405180830381865afa15801561079e573d6000803e3d6000fd5b505050506040513d601f19601f820116820180604052508101906107c291906110f5565b7f00000000000000000000000000000000000000000000000000000000000000006001600160a01b03166318160ddd6040518163ffffffff1660e01b8152600401602060405180830381865afa158015610820573d6000803e3d6000fd5b505050506040513d601f19601f8201168201806040525081019061084491906110f5565b6102e4919061113f565b60015460009061086162093a8082611127565b421015801561087957506002546001600160a01b0316155b15610fe35762093a8061088c81426110d3565b61089691906110b4565b600181905590506108a5610724565b6000818155906108b7906064906110d3565b6108c29060146110b4565b905060006108d78260005461023b9190611127565b9050600082600054836108ea9190611127565b6108f49190611127565b6040516370a0823160e01b81523060048201529091506000906001600160a01b037f000000000000000000000000000000000000000000000000000000000000000016906370a0823190602401602060405180830381865afa15801561095e573d6000803e3d6000fd5b505050506040513d601f19601f8201168201806040525081019061098291906110f5565b905081811015610a16576001600160a01b037f0000000000000000000000000000000000000000000000000000000000000000166340c10f19306109c6848661113f565b6040518363ffffffff1660e01b81526004016109e392919061110e565b600060405180830381600087803b1580156109fd57600080fd5b505af1158015610a11573d6000803e3d6000fd5b505050505b60405163a9059cbb60e01b81526001600160a01b037f0000000000000000000000000000000000000000000000000000000000000000169063a9059cbb90610a84907f000000000000000000000000000000000000000000000000000000000000000090879060040161110e565b6020604051808303816000875af1158015610aa3573d6000803e3d6000fd5b505050506040513d601f19601f82011682018060405250810190610ac79190611156565b610ad057600080fd5b7f00000000000000000000000000000000000000000000000000000000000000006001600160a01b031663811a40fe6040518163ffffffff1660e01b8152600401600060405180830381600087803b158015610b2b57600080fd5b505af1158015610b3f573d6000803e3d6000fd5b505050507f00000000000000000000000000000000000000000000000000000000000000006001600160a01b031663b21ed5026040518163ffffffff1660e01b8152600401600060405180830381600087803b158015610b9e57600080fd5b505af1158015610bb2573d6000803e3d6000fd5b5050505060006064600054610bc791906110d3565b610bd290600a6110b4565b905060006064600054610be591906110d3565b610bf09060286110b4565b905060006064600054610c0391906110d3565b610c0e9060326110b4565b6004805460405163095ea7b360e01b81529293506001600160a01b037f000000000000000000000000000000000000000000000000000000000000000081169363095ea7b393610c64939092169188910161110e565b6020604051808303816000875af1158015610c83573d6000803e3d6000fd5b505050506040513d601f19601f82011682018060405250810190610ca79190611156565b506004805460405163b66503cf60e01b81526001600160a01b039091169163b66503cf91610cf9917f00000000000000000000000000000000000000000000000000000000000000009188910161110e565b600060405180830381600087803b158015610d1357600080fd5b505af1158015610d27573d6000803e3d6000fd5b505060055460405163095ea7b360e01b81526001600160a01b037f00000000000000000000000000000000000000000000000000000000000000008116945063095ea7b39350610d7d921690869060040161110e565b6020604051808303816000875af1158015610d9c573d6000803e3d6000fd5b505050506040513d601f19601f82011682018060405250810190610dc09190611156565b5060055460405163b66503cf60e01b81526001600160a01b039091169063b66503cf90610e13907f000000000000000000000000000000000000000000000000000000000000000090869060040161110e565b600060405180830381600087803b158015610e2d57600080fd5b505af1158015610e41573d6000803e3d6000fd5b505060065460405163a9059cbb60e01b81526001600160a01b037f00000000000000000000000000000000000000000000000000000000000000008116945063a9059cbb9350610e97921690859060040161110e565b6020604051808303816000875af1158015610eb6573d6000803e3d6000fd5b505050506040513d601f19601f82011682018060405250810190610eda9190611156565b5060075460405163a9059cbb60e01b81526001600160a01b037f000000000000000000000000000000000000000000000000000000000000000081169263a9059cbb92610f309291909116908b9060040161110e565b6020604051808303816000875af1158015610f4f573d6000803e3d6000fd5b505050506040513d601f19601f82011682018060405250810190610f739190611156565b50336001600160a01b03167fb4c03061fb5b7fed76389d5af8f2e0ddb09f8c70d1333abbb62582835e10accb88600054610fad9190611127565b610fb561073e565b610fbd6102c1565b6040805193845260208401929092529082015260600160405180910390a2505050505050505b919050565b600081831015610ff85781610ffa565b825b9392505050565b60006020828403121561101357600080fd5b5035919050565b80356001600160a01b0381168114610fe357600080fd5b60008060008060008060c0878903121561104a57600080fd5b6110538761101a565b9550602087013594506110686040880161101a565b93506110766060880161101a565b92506110846080880161101a565b915061109260a0880161101a565b90509295509295509295565b634e487b7160e01b600052601160045260246000fd5b60008160001904831182151516156110ce576110ce61109e565b500290565b6000826110f057634e487b7160e01b600052601260045260246000fd5b500490565b60006020828403121561110757600080fd5b5051919050565b6001600160a01b03929092168252602082015260400190565b6000821982111561113a5761113a61109e565b500190565b6000828210156111515761115161109e565b500390565b60006020828403121561116857600080fd5b81518015158114610ffa57600080fdfea2646970667358221220a440eb68b59a3b988ebdb51928ca3488c3cc1cc455584b811e118df1f53c57ca64736f6c634300080b0033",
          "opcodes": "PUSH2 0x100 PUSH1 0x40 MSTORE PUSH11 0x108B2A2C28029094000000 PUSH1 0x0 SSTORE CALLVALUE DUP1 ISZERO PUSH3 0x21 JUMPI PUSH1 0x0 DUP1 REVERT JUMPDEST POP PUSH1 0x40 MLOAD PUSH3 0x1493 CODESIZE SUB DUP1 PUSH3 0x1493 DUP4 CODECOPY DUP2 ADD PUSH1 0x40 DUP2 SWAP1 MSTORE PUSH3 0x44 SWAP2 PUSH3 0x141 JUMP JUMPDEST PUSH1 0x2 DUP1 SLOAD PUSH1 0x1 PUSH1 0x1 PUSH1 0xA0 SHL SUB NOT AND CALLER OR SWAP1 SSTORE PUSH1 0x40 DUP1 MLOAD PUSH4 0x7E062A35 PUSH1 0xE1 SHL DUP2 MSTORE SWAP1 MLOAD PUSH1 0x1 PUSH1 0x1 PUSH1 0xA0 SHL SUB DUP5 AND SWAP2 PUSH4 0xFC0C546A SWAP2 PUSH1 0x4 DUP1 DUP4 ADD SWAP3 PUSH1 0x20 SWAP3 SWAP2 SWAP1 DUP3 SWAP1 SUB ADD DUP2 DUP7 GAS STATICCALL ISZERO DUP1 ISZERO PUSH3 0x9C JUMPI RETURNDATASIZE PUSH1 0x0 DUP1 RETURNDATACOPY RETURNDATASIZE PUSH1 0x0 REVERT JUMPDEST POP POP POP POP PUSH1 0x40 MLOAD RETURNDATASIZE PUSH1 0x1F NOT PUSH1 0x1F DUP3 ADD AND DUP3 ADD DUP1 PUSH1 0x40 MSTORE POP DUP2 ADD SWAP1 PUSH3 0xC2 SWAP2 SWAP1 PUSH3 0x18B JUMP JUMPDEST PUSH1 0x1 PUSH1 0x1 PUSH1 0xA0 SHL SUB SWAP1 DUP2 AND PUSH1 0x80 MSTORE DUP4 DUP2 AND PUSH1 0xA0 MSTORE DUP3 DUP2 AND PUSH1 0xC0 MSTORE DUP2 AND PUSH1 0xE0 MSTORE PUSH3 0x93A80 DUP1 PUSH3 0xF3 DUP2 PUSH1 0x2 PUSH3 0x1C6 JUMP JUMPDEST PUSH3 0xFF SWAP1 TIMESTAMP PUSH3 0x1E8 JUMP JUMPDEST PUSH3 0x10B SWAP2 SWAP1 PUSH3 0x203 JUMP JUMPDEST PUSH3 0x117 SWAP2 SWAP1 PUSH3 0x1C6 JUMP JUMPDEST PUSH1 0x1 SSTORE POP PUSH3 0x226 SWAP2 POP POP JUMP JUMPDEST DUP1 MLOAD PUSH1 0x1 PUSH1 0x1 PUSH1 0xA0 SHL SUB DUP2 AND DUP2 EQ PUSH3 0x13C JUMPI PUSH1 0x0 DUP1 REVERT JUMPDEST SWAP2 SWAP1 POP JUMP JUMPDEST PUSH1 0x0 DUP1 PUSH1 0x0 PUSH1 0x60 DUP5 DUP7 SUB SLT ISZERO PUSH3 0x157 JUMPI PUSH1 0x0 DUP1 REVERT JUMPDEST PUSH3 0x162 DUP5 PUSH3 0x124 JUMP JUMPDEST SWAP3 POP PUSH3 0x172 PUSH1 0x20 DUP6 ADD PUSH3 0x124 JUMP JUMPDEST SWAP2 POP PUSH3 0x182 PUSH1 0x40 DUP6 ADD PUSH3 0x124 JUMP JUMPDEST SWAP1 POP SWAP3 POP SWAP3 POP SWAP3 JUMP JUMPDEST PUSH1 0x0 PUSH1 0x20 DUP3 DUP5 SUB SLT ISZERO PUSH3 0x19E JUMPI PUSH1 0x0 DUP1 REVERT JUMPDEST PUSH3 0x1A9 DUP3 PUSH3 0x124 JUMP JUMPDEST SWAP4 SWAP3 POP POP POP JUMP JUMPDEST PUSH4 0x4E487B71 PUSH1 0xE0 SHL PUSH1 0x0 MSTORE PUSH1 0x11 PUSH1 0x4 MSTORE PUSH1 0x24 PUSH1 0x0 REVERT JUMPDEST PUSH1 0x0 DUP2 PUSH1 0x0 NOT DIV DUP4 GT DUP3 ISZERO ISZERO AND ISZERO PUSH3 0x1E3 JUMPI PUSH3 0x1E3 PUSH3 0x1B0 JUMP JUMPDEST POP MUL SWAP1 JUMP JUMPDEST PUSH1 0x0 DUP3 NOT DUP3 GT ISZERO PUSH3 0x1FE JUMPI PUSH3 0x1FE PUSH3 0x1B0 JUMP JUMPDEST POP ADD SWAP1 JUMP JUMPDEST PUSH1 0x0 DUP3 PUSH3 0x221 JUMPI PUSH4 0x4E487B71 PUSH1 0xE0 SHL PUSH1 0x0 MSTORE PUSH1 0x12 PUSH1 0x4 MSTORE PUSH1 0x24 PUSH1 0x0 REVERT JUMPDEST POP DIV SWAP1 JUMP JUMPDEST PUSH1 0x80 MLOAD PUSH1 0xA0 MLOAD PUSH1 0xC0 MLOAD PUSH1 0xE0 MLOAD PUSH2 0x11AE PUSH3 0x2E5 PUSH1 0x0 CODECOPY PUSH1 0x0 DUP2 DUP2 PUSH2 0x17A ADD MSTORE DUP2 DUP2 PUSH2 0xA5A ADD MSTORE DUP2 DUP2 PUSH2 0xAD2 ADD MSTORE PUSH2 0xB45 ADD MSTORE PUSH1 0x0 DUP2 DUP2 PUSH2 0x20B ADD MSTORE DUP2 DUP2 PUSH2 0x553 ADD MSTORE PUSH2 0x742 ADD MSTORE PUSH1 0x0 PUSH2 0x1A9 ADD MSTORE PUSH1 0x0 DUP2 DUP2 PUSH2 0x297 ADD MSTORE DUP2 DUP2 PUSH2 0x2ED ADD MSTORE DUP2 DUP2 PUSH2 0x3FE ADD MSTORE DUP2 DUP2 PUSH2 0x4D0 ADD MSTORE DUP2 DUP2 PUSH2 0x61B ADD MSTORE DUP2 DUP2 PUSH2 0x7C4 ADD MSTORE DUP2 DUP2 PUSH2 0x917 ADD MSTORE DUP2 DUP2 PUSH2 0x996 ADD MSTORE DUP2 DUP2 PUSH2 0xA2D ADD MSTORE DUP2 DUP2 PUSH2 0xC2C ADD MSTORE DUP2 DUP2 PUSH2 0xCD1 ADD MSTORE DUP2 DUP2 PUSH2 0xD43 ADD MSTORE DUP2 DUP2 PUSH2 0xDE9 ADD MSTORE DUP2 DUP2 PUSH2 0xE5D ADD MSTORE PUSH2 0xEF5 ADD MSTORE PUSH2 0x11AE PUSH1 0x0 RETURN INVALID PUSH1 0x80 PUSH1 0x40 MSTORE CALLVALUE DUP1 ISZERO PUSH2 0x10 JUMPI PUSH1 0x0 DUP1 REVERT JUMPDEST POP PUSH1 0x4 CALLDATASIZE LT PUSH2 0x121 JUMPI PUSH1 0x0 CALLDATALOAD PUSH1 0xE0 SHR DUP1 PUSH4 0x8DD598FB GT PUSH2 0xAD JUMPI DUP1 PUSH4 0xCFC6C8FF GT PUSH2 0x71 JUMPI DUP1 PUSH4 0xCFC6C8FF EQ PUSH2 0x279 JUMPI DUP1 PUSH4 0xD1399608 EQ PUSH2 0x281 JUMPI DUP1 PUSH4 0xE038C75A EQ PUSH2 0x28A JUMPI DUP1 PUSH4 0xECD0C0C3 EQ PUSH2 0x292 JUMPI DUP1 PUSH4 0xED29FC11 EQ PUSH2 0x2B9 JUMPI PUSH1 0x0 DUP1 REVERT JUMPDEST DUP1 PUSH4 0x8DD598FB EQ PUSH2 0x206 JUMPI DUP1 PUSH4 0x8E01FBFA EQ PUSH2 0x22D JUMPI DUP1 PUSH4 0x9BAB5BAB EQ PUSH2 0x240 JUMPI DUP1 PUSH4 0xA2DC2AB7 EQ PUSH2 0x253 JUMPI DUP1 PUSH4 0xA95C372D EQ PUSH2 0x266 JUMPI PUSH1 0x0 DUP1 REVERT JUMPDEST DUP1 PUSH4 0x36D96FAF GT PUSH2 0xF4 JUMPI DUP1 PUSH4 0x36D96FAF EQ PUSH2 0x19C JUMPI DUP1 PUSH4 0x3DB9B42A EQ PUSH2 0x1A4 JUMPI DUP1 PUSH4 0x44E9D755 EQ PUSH2 0x1CB JUMPI DUP1 PUSH4 0x44F2EE6E EQ PUSH2 0x1DE JUMPI DUP1 PUSH4 0x59927044 EQ PUSH2 0x1F3 JUMPI PUSH1 0x0 DUP1 REVERT JUMPDEST DUP1 PUSH4 0x1EEBAE80 EQ PUSH2 0x126 JUMPI DUP1 PUSH4 0x254C7F1D EQ PUSH2 0x141 JUMPI DUP1 PUSH4 0x26CFC17B EQ PUSH2 0x16C JUMPI DUP1 PUSH4 0x2C6B2F0C EQ PUSH2 0x175 JUMPI JUMPDEST PUSH1 0x0 DUP1 REVERT JUMPDEST PUSH2 0x12E PUSH2 0x2C1 JUMP JUMPDEST PUSH1 0x40 MLOAD SWAP1 DUP2 MSTORE PUSH1 0x20 ADD JUMPDEST PUSH1 0x40 MLOAD DUP1 SWAP2 SUB SWAP1 RETURN JUMPDEST PUSH1 0x6 SLOAD PUSH2 0x154 SWAP1 PUSH1 0x1 PUSH1 0x1 PUSH1 0xA0 SHL SUB AND DUP2 JUMP JUMPDEST PUSH1 0x40 MLOAD PUSH1 0x1 PUSH1 0x1 PUSH1 0xA0 SHL SUB SWAP1 SWAP2 AND DUP2 MSTORE PUSH1 0x20 ADD PUSH2 0x138 JUMP JUMPDEST PUSH2 0x12E PUSH1 0x0 SLOAD DUP2 JUMP JUMPDEST PUSH2 0x154 PUSH32 0x0 DUP2 JUMP JUMPDEST PUSH2 0x12E PUSH2 0x2E9 JUMP JUMPDEST PUSH2 0x154 PUSH32 0x0 DUP2 JUMP JUMPDEST PUSH1 0x5 SLOAD PUSH2 0x154 SWAP1 PUSH1 0x1 PUSH1 0x1 PUSH1 0xA0 SHL SUB AND DUP2 JUMP JUMPDEST PUSH2 0x1F1 PUSH2 0x1EC CALLDATASIZE PUSH1 0x4 PUSH2 0x1001 JUMP JUMPDEST PUSH2 0x39A JUMP JUMPDEST STOP JUMPDEST PUSH1 0x7 SLOAD PUSH2 0x154 SWAP1 PUSH1 0x1 PUSH1 0x1 PUSH1 0xA0 SHL SUB AND DUP2 JUMP JUMPDEST PUSH2 0x154 PUSH32 0x0 DUP2 JUMP JUMPDEST PUSH2 0x12E PUSH2 0x23B CALLDATASIZE PUSH1 0x4 PUSH2 0x1001 JUMP JUMPDEST PUSH2 0x4CC JUMP JUMPDEST PUSH1 0x4 SLOAD PUSH2 0x154 SWAP1 PUSH1 0x1 PUSH1 0x1 PUSH1 0xA0 SHL SUB AND DUP2 JUMP JUMPDEST PUSH2 0x1F1 PUSH2 0x261 CALLDATASIZE PUSH1 0x4 PUSH2 0x1031 JUMP JUMPDEST PUSH2 0x5ED JUMP JUMPDEST PUSH1 0x3 SLOAD PUSH2 0x154 SWAP1 PUSH1 0x1 PUSH1 0x1 PUSH1 0xA0 SHL SUB AND DUP2 JUMP JUMPDEST PUSH2 0x12E PUSH2 0x724 JUMP JUMPDEST PUSH2 0x12E PUSH1 0x1 SLOAD DUP2 JUMP JUMPDEST PUSH2 0x12E PUSH2 0x73E JUMP JUMPDEST PUSH2 0x154 PUSH32 0x0 DUP2 JUMP JUMPDEST PUSH2 0x12E PUSH2 0x84E JUMP JUMPDEST PUSH1 0x0 PUSH2 0x3E8 PUSH1 0x2 PUSH2 0x2D0 PUSH2 0x73E JUMP JUMPDEST PUSH2 0x2DA SWAP2 SWAP1 PUSH2 0x10B4 JUMP JUMPDEST PUSH2 0x2E4 SWAP2 SWAP1 PUSH2 0x10D3 JUMP JUMPDEST SWAP1 POP SWAP1 JUMP JUMPDEST PUSH1 0x0 PUSH32 0x0 PUSH1 0x1 PUSH1 0x1 PUSH1 0xA0 SHL SUB AND PUSH4 0x18160DDD PUSH1 0x40 MLOAD DUP2 PUSH4 0xFFFFFFFF AND PUSH1 0xE0 SHL DUP2 MSTORE PUSH1 0x4 ADD PUSH1 0x20 PUSH1 0x40 MLOAD DUP1 DUP4 SUB DUP2 DUP7 GAS STATICCALL ISZERO DUP1 ISZERO PUSH2 0x349 JUMPI RETURNDATASIZE PUSH1 0x0 DUP1 RETURNDATACOPY RETURNDATASIZE PUSH1 0x0 REVERT JUMPDEST POP POP POP POP PUSH1 0x40 MLOAD RETURNDATASIZE PUSH1 0x1F NOT PUSH1 0x1F DUP3 ADD AND DUP3 ADD DUP1 PUSH1 0x40 MSTORE POP DUP2 ADD SWAP1 PUSH2 0x36D SWAP2 SWAP1 PUSH2 0x10F5 JUMP JUMPDEST PUSH1 0x64 PUSH2 0x377 PUSH2 0x73E JUMP JUMPDEST PUSH1 0x62 PUSH1 0x0 SLOAD PUSH2 0x386 SWAP2 SWAP1 PUSH2 0x10B4 JUMP JUMPDEST PUSH2 0x390 SWAP2 SWAP1 PUSH2 0x10B4 JUMP JUMPDEST PUSH2 0x2DA SWAP2 SWAP1 PUSH2 0x10D3 JUMP JUMPDEST PUSH1 0x3 SLOAD PUSH1 0x1 PUSH1 0x1 PUSH1 0xA0 SHL SUB AND CALLER EQ PUSH2 0x3E4 JUMPI PUSH1 0x40 MLOAD PUSH3 0x461BCD PUSH1 0xE5 SHL DUP2 MSTORE PUSH1 0x20 PUSH1 0x4 DUP3 ADD MSTORE PUSH1 0x9 PUSH1 0x24 DUP3 ADD MSTORE PUSH9 0x9CDEE840CCCAE8C6D PUSH1 0xBB SHL PUSH1 0x44 DUP3 ADD MSTORE PUSH1 0x64 ADD PUSH1 0x40 MLOAD DUP1 SWAP2 SUB SWAP1 REVERT JUMPDEST PUSH1 0x3 SLOAD PUSH1 0x40 MLOAD PUSH4 0x40C10F19 PUSH1 0xE0 SHL DUP2 MSTORE PUSH1 0x1 PUSH1 0x1 PUSH1 0xA0 SHL SUB PUSH32 0x0 DUP2 AND SWAP3 PUSH4 0x40C10F19 SWAP3 PUSH2 0x439 SWAP3 SWAP2 SWAP1 SWAP2 AND SWAP1 DUP6 SWAP1 PUSH1 0x4 ADD PUSH2 0x110E JUMP JUMPDEST PUSH1 0x0 PUSH1 0x40 MLOAD DUP1 DUP4 SUB DUP2 PUSH1 0x0 DUP8 DUP1 EXTCODESIZE ISZERO DUP1 ISZERO PUSH2 0x453 JUMPI PUSH1 0x0 DUP1 REVERT JUMPDEST POP GAS CALL ISZERO DUP1 ISZERO PUSH2 0x467 JUMPI RETURNDATASIZE PUSH1 0x0 DUP1 RETURNDATACOPY RETURNDATASIZE PUSH1 0x0 REVERT JUMPDEST POP POP PUSH1 0x3 SLOAD PUSH1 0x1 PUSH1 0x1 PUSH1 0xA0 SHL SUB AND SWAP2 POP PUSH32 0xB4C03061FB5B7FED76389D5AF8F2E0DDB09F8C70D1333ABBB62582835E10ACCB SWAP1 POP DUP3 PUSH2 0x4A3 PUSH2 0x73E JUMP JUMPDEST PUSH2 0x4AB PUSH2 0x2C1 JUMP JUMPDEST PUSH1 0x40 DUP1 MLOAD SWAP4 DUP5 MSTORE PUSH1 0x20 DUP5 ADD SWAP3 SWAP1 SWAP3 MSTORE SWAP1 DUP3 ADD MSTORE PUSH1 0x60 ADD PUSH1 0x40 MLOAD DUP1 SWAP2 SUB SWAP1 LOG2 POP JUMP JUMPDEST PUSH1 0x0 PUSH32 0x0 PUSH1 0x1 PUSH1 0x1 PUSH1 0xA0 SHL SUB AND PUSH4 0x18160DDD PUSH1 0x40 MLOAD DUP2 PUSH4 0xFFFFFFFF AND PUSH1 0xE0 SHL DUP2 MSTORE PUSH1 0x4 ADD PUSH1 0x20 PUSH1 0x40 MLOAD DUP1 DUP4 SUB DUP2 DUP7 GAS STATICCALL ISZERO DUP1 ISZERO PUSH2 0x52C JUMPI RETURNDATASIZE PUSH1 0x0 DUP1 RETURNDATACOPY RETURNDATASIZE PUSH1 0x0 REVERT JUMPDEST POP POP POP POP PUSH1 0x40 MLOAD RETURNDATASIZE PUSH1 0x1F NOT PUSH1 0x1F DUP3 ADD AND DUP3 ADD DUP1 PUSH1 0x40 MSTORE POP DUP2 ADD SWAP1 PUSH2 0x550 SWAP2 SWAP1 PUSH2 0x10F5 JUMP JUMPDEST DUP3 PUSH32 0x0 PUSH1 0x1 PUSH1 0x1 PUSH1 0xA0 SHL SUB AND PUSH4 0x18160DDD PUSH1 0x40 MLOAD DUP2 PUSH4 0xFFFFFFFF AND PUSH1 0xE0 SHL DUP2 MSTORE PUSH1 0x4 ADD PUSH1 0x20 PUSH1 0x40 MLOAD DUP1 DUP4 SUB DUP2 DUP7 GAS STATICCALL ISZERO DUP1 ISZERO PUSH2 0x5AF JUMPI RETURNDATASIZE PUSH1 0x0 DUP1 RETURNDATACOPY RETURNDATASIZE PUSH1 0x0 REVERT JUMPDEST POP POP POP POP PUSH1 0x40 MLOAD RETURNDATASIZE PUSH1 0x1F NOT PUSH1 0x1F DUP3 ADD AND DUP3 ADD DUP1 PUSH1 0x40 MSTORE POP DUP2 ADD SWAP1 PUSH2 0x5D3 SWAP2 SWAP1 PUSH2 0x10F5 JUMP JUMPDEST PUSH2 0x5DD SWAP2 SWAP1 PUSH2 0x10B4 JUMP JUMPDEST PUSH2 0x5E7 SWAP2 SWAP1 PUSH2 0x10D3 JUMP JUMPDEST SWAP3 SWAP2 POP POP JUMP JUMPDEST PUSH1 0x2 SLOAD PUSH1 0x1 PUSH1 0x1 PUSH1 0xA0 SHL SUB AND CALLER EQ PUSH2 0x604 JUMPI PUSH1 0x0 DUP1 REVERT JUMPDEST PUSH1 0x40 MLOAD PUSH4 0x40C10F19 PUSH1 0xE0 SHL DUP2 MSTORE PUSH1 0x1 PUSH1 0x1 PUSH1 0xA0 SHL SUB PUSH32 0x0 AND SWAP1 PUSH4 0x40C10F19 SWAP1 PUSH2 0x652 SWAP1 ADDRESS SWAP1 DUP10 SWAP1 PUSH1 0x4 ADD PUSH2 0x110E JUMP JUMPDEST PUSH1 0x0 PUSH1 0x40 MLOAD DUP1 DUP4 SUB DUP2 PUSH1 0x0 DUP8 DUP1 EXTCODESIZE ISZERO DUP1 ISZERO PUSH2 0x66C JUMPI PUSH1 0x0 DUP1 REVERT JUMPDEST POP GAS CALL ISZERO DUP1 ISZERO PUSH2 0x680 JUMPI RETURNDATASIZE PUSH1 0x0 DUP1 RETURNDATACOPY RETURNDATASIZE PUSH1 0x0 REVERT JUMPDEST POP POP PUSH1 0x3 DUP1 SLOAD PUSH1 0x1 PUSH1 0x1 PUSH1 0xA0 SHL SUB DUP11 AND PUSH1 0x1 PUSH1 0x1 PUSH1 0xA0 SHL SUB NOT SWAP2 DUP3 AND OR SWAP1 SWAP2 SSTORE PUSH1 0x2 DUP1 SLOAD SWAP1 SWAP2 AND SWAP1 SSTORE POP PUSH3 0x93A80 SWAP1 POP DUP1 PUSH2 0x6BB DUP2 TIMESTAMP PUSH2 0x1127 JUMP JUMPDEST PUSH2 0x6C5 SWAP2 SWAP1 PUSH2 0x10D3 JUMP JUMPDEST PUSH2 0x6CF SWAP2 SWAP1 PUSH2 0x10B4 JUMP JUMPDEST PUSH1 0x1 SSTORE PUSH1 0x4 DUP1 SLOAD PUSH1 0x1 PUSH1 0x1 PUSH1 0xA0 SHL SUB SWAP6 DUP7 AND PUSH1 0x1 PUSH1 0x1 PUSH1 0xA0 SHL SUB NOT SWAP2 DUP3 AND OR SWAP1 SWAP2 SSTORE PUSH1 0x5 DUP1 SLOAD SWAP5 DUP7 AND SWAP5 DUP3 AND SWAP5 SWAP1 SWAP5 OR SWAP1 SWAP4 SSTORE PUSH1 0x6 DUP1 SLOAD SWAP3 DUP6 AND SWAP3 DUP5 AND SWAP3 SWAP1 SWAP3 OR SWAP1 SWAP2 SSTORE PUSH1 0x7 DUP1 SLOAD SWAP2 SWAP1 SWAP4 AND SWAP2 AND OR SWAP1 SSTORE POP POP JUMP JUMPDEST PUSH1 0x0 PUSH2 0x2E4 PUSH2 0x731 PUSH2 0x2E9 JUMP JUMPDEST PUSH2 0x739 PUSH2 0x2C1 JUMP JUMPDEST PUSH2 0xFE8 JUMP JUMPDEST PUSH1 0x0 PUSH32 0x0 PUSH1 0x1 PUSH1 0x1 PUSH1 0xA0 SHL SUB AND PUSH4 0x18160DDD PUSH1 0x40 MLOAD DUP2 PUSH4 0xFFFFFFFF AND PUSH1 0xE0 SHL DUP2 MSTORE PUSH1 0x4 ADD PUSH1 0x20 PUSH1 0x40 MLOAD DUP1 DUP4 SUB DUP2 DUP7 GAS STATICCALL ISZERO DUP1 ISZERO PUSH2 0x79E JUMPI RETURNDATASIZE PUSH1 0x0 DUP1 RETURNDATACOPY RETURNDATASIZE PUSH1 0x0 REVERT JUMPDEST POP POP POP POP PUSH1 0x40 MLOAD RETURNDATASIZE PUSH1 0x1F NOT PUSH1 0x1F DUP3 ADD AND DUP3 ADD DUP1 PUSH1 0x40 MSTORE POP DUP2 ADD SWAP1 PUSH2 0x7C2 SWAP2 SWAP1 PUSH2 0x10F5 JUMP JUMPDEST PUSH32 0x0 PUSH1 0x1 PUSH1 0x1 PUSH1 0xA0 SHL SUB AND PUSH4 0x18160DDD PUSH1 0x40 MLOAD DUP2 PUSH4 0xFFFFFFFF AND PUSH1 0xE0 SHL DUP2 MSTORE PUSH1 0x4 ADD PUSH1 0x20 PUSH1 0x40 MLOAD DUP1 DUP4 SUB DUP2 DUP7 GAS STATICCALL ISZERO DUP1 ISZERO PUSH2 0x820 JUMPI RETURNDATASIZE PUSH1 0x0 DUP1 RETURNDATACOPY RETURNDATASIZE PUSH1 0x0 REVERT JUMPDEST POP POP POP POP PUSH1 0x40 MLOAD RETURNDATASIZE PUSH1 0x1F NOT PUSH1 0x1F DUP3 ADD AND DUP3 ADD DUP1 PUSH1 0x40 MSTORE POP DUP2 ADD SWAP1 PUSH2 0x844 SWAP2 SWAP1 PUSH2 0x10F5 JUMP JUMPDEST PUSH2 0x2E4 SWAP2 SWAP1 PUSH2 0x113F JUMP JUMPDEST PUSH1 0x1 SLOAD PUSH1 0x0 SWAP1 PUSH2 0x861 PUSH3 0x93A80 DUP3 PUSH2 0x1127 JUMP JUMPDEST TIMESTAMP LT ISZERO DUP1 ISZERO PUSH2 0x879 JUMPI POP PUSH1 0x2 SLOAD PUSH1 0x1 PUSH1 0x1 PUSH1 0xA0 SHL SUB AND ISZERO JUMPDEST ISZERO PUSH2 0xFE3 JUMPI PUSH3 0x93A80 PUSH2 0x88C DUP2 TIMESTAMP PUSH2 0x10D3 JUMP JUMPDEST PUSH2 0x896 SWAP2 SWAP1 PUSH2 0x10B4 JUMP JUMPDEST PUSH1 0x1 DUP2 SWAP1 SSTORE SWAP1 POP PUSH2 0x8A5 PUSH2 0x724 JUMP JUMPDEST PUSH1 0x0 DUP2 DUP2 SSTORE SWAP1 PUSH2 0x8B7 SWAP1 PUSH1 0x64 SWAP1 PUSH2 0x10D3 JUMP JUMPDEST PUSH2 0x8C2 SWAP1 PUSH1 0x14 PUSH2 0x10B4 JUMP JUMPDEST SWAP1 POP PUSH1 0x0 PUSH2 0x8D7 DUP3 PUSH1 0x0 SLOAD PUSH2 0x23B SWAP2 SWAP1 PUSH2 0x1127 JUMP JUMPDEST SWAP1 POP PUSH1 0x0 DUP3 PUSH1 0x0 SLOAD DUP4 PUSH2 0x8EA SWAP2 SWAP1 PUSH2 0x1127 JUMP JUMPDEST PUSH2 0x8F4 SWAP2 SWAP1 PUSH2 0x1127 JUMP JUMPDEST PUSH1 0x40 MLOAD PUSH4 0x70A08231 PUSH1 0xE0 SHL DUP2 MSTORE ADDRESS PUSH1 0x4 DUP3 ADD MSTORE SWAP1 SWAP2 POP PUSH1 0x0 SWAP1 PUSH1 0x1 PUSH1 0x1 PUSH1 0xA0 SHL SUB PUSH32 0x0 AND SWAP1 PUSH4 0x70A08231 SWAP1 PUSH1 0x24 ADD PUSH1 0x20 PUSH1 0x40 MLOAD DUP1 DUP4 SUB DUP2 DUP7 GAS STATICCALL ISZERO DUP1 ISZERO PUSH2 0x95E JUMPI RETURNDATASIZE PUSH1 0x0 DUP1 RETURNDATACOPY RETURNDATASIZE PUSH1 0x0 REVERT JUMPDEST POP POP POP POP PUSH1 0x40 MLOAD RETURNDATASIZE PUSH1 0x1F NOT PUSH1 0x1F DUP3 ADD AND DUP3 ADD DUP1 PUSH1 0x40 MSTORE POP DUP2 ADD SWAP1 PUSH2 0x982 SWAP2 SWAP1 PUSH2 0x10F5 JUMP JUMPDEST SWAP1 POP DUP2 DUP2 LT ISZERO PUSH2 0xA16 JUMPI PUSH1 0x1 PUSH1 0x1 PUSH1 0xA0 SHL SUB PUSH32 0x0 AND PUSH4 0x40C10F19 ADDRESS PUSH2 0x9C6 DUP5 DUP7 PUSH2 0x113F JUMP JUMPDEST PUSH1 0x40 MLOAD DUP4 PUSH4 0xFFFFFFFF AND PUSH1 0xE0 SHL DUP2 MSTORE PUSH1 0x4 ADD PUSH2 0x9E3 SWAP3 SWAP2 SWAP1 PUSH2 0x110E JUMP JUMPDEST PUSH1 0x0 PUSH1 0x40 MLOAD DUP1 DUP4 SUB DUP2 PUSH1 0x0 DUP8 DUP1 EXTCODESIZE ISZERO DUP1 ISZERO PUSH2 0x9FD JUMPI PUSH1 0x0 DUP1 REVERT JUMPDEST POP GAS CALL ISZERO DUP1 ISZERO PUSH2 0xA11 JUMPI RETURNDATASIZE PUSH1 0x0 DUP1 RETURNDATACOPY RETURNDATASIZE PUSH1 0x0 REVERT JUMPDEST POP POP POP POP JUMPDEST PUSH1 0x40 MLOAD PUSH4 0xA9059CBB PUSH1 0xE0 SHL DUP2 MSTORE PUSH1 0x1 PUSH1 0x1 PUSH1 0xA0 SHL SUB PUSH32 0x0 AND SWAP1 PUSH4 0xA9059CBB SWAP1 PUSH2 0xA84 SWAP1 PUSH32 0x0 SWAP1 DUP8 SWAP1 PUSH1 0x4 ADD PUSH2 0x110E JUMP JUMPDEST PUSH1 0x20 PUSH1 0x40 MLOAD DUP1 DUP4 SUB DUP2 PUSH1 0x0 DUP8 GAS CALL ISZERO DUP1 ISZERO PUSH2 0xAA3 JUMPI RETURNDATASIZE PUSH1 0x0 DUP1 RETURNDATACOPY RETURNDATASIZE PUSH1 0x0 REVERT JUMPDEST POP POP POP POP PUSH1 0x40 MLOAD RETURNDATASIZE PUSH1 0x1F NOT PUSH1 0x1F DUP3 ADD AND DUP3 ADD DUP1 PUSH1 0x40 MSTORE POP DUP2 ADD SWAP1 PUSH2 0xAC7 SWAP2 SWAP1 PUSH2 0x1156 JUMP JUMPDEST PUSH2 0xAD0 JUMPI PUSH1 0x0 DUP1 REVERT JUMPDEST PUSH32 0x0 PUSH1 0x1 PUSH1 0x1 PUSH1 0xA0 SHL SUB AND PUSH4 0x811A40FE PUSH1 0x40 MLOAD DUP2 PUSH4 0xFFFFFFFF AND PUSH1 0xE0 SHL DUP2 MSTORE PUSH1 0x4 ADD PUSH1 0x0 PUSH1 0x40 MLOAD DUP1 DUP4 SUB DUP2 PUSH1 0x0 DUP8 DUP1 EXTCODESIZE ISZERO DUP1 ISZERO PUSH2 0xB2B JUMPI PUSH1 0x0 DUP1 REVERT JUMPDEST POP GAS CALL ISZERO DUP1 ISZERO PUSH2 0xB3F JUMPI RETURNDATASIZE PUSH1 0x0 DUP1 RETURNDATACOPY RETURNDATASIZE PUSH1 0x0 REVERT JUMPDEST POP POP POP POP PUSH32 0x0 PUSH1 0x1 PUSH1 0x1 PUSH1 0xA0 SHL SUB AND PUSH4 0xB21ED502 PUSH1 0x40 MLOAD DUP2 PUSH4 0xFFFFFFFF AND PUSH1 0xE0 SHL DUP2 MSTORE PUSH1 0x4 ADD PUSH1 0x0 PUSH1 0x40 MLOAD DUP1 DUP4 SUB DUP2 PUSH1 0x0 DUP8 DUP1 EXTCODESIZE ISZERO DUP1 ISZERO PUSH2 0xB9E JUMPI PUSH1 0x0 DUP1 REVERT JUMPDEST POP GAS CALL ISZERO DUP1 ISZERO PUSH2 0xBB2 JUMPI RETURNDATASIZE PUSH1 0x0 DUP1 RETURNDATACOPY RETURNDATASIZE PUSH1 0x0 REVERT JUMPDEST POP POP POP POP PUSH1 0x0 PUSH1 0x64 PUSH1 0x0 SLOAD PUSH2 0xBC7 SWAP2 SWAP1 PUSH2 0x10D3 JUMP JUMPDEST PUSH2 0xBD2 SWAP1 PUSH1 0xA PUSH2 0x10B4 JUMP JUMPDEST SWAP1 POP PUSH1 0x0 PUSH1 0x64 PUSH1 0x0 SLOAD PUSH2 0xBE5 SWAP2 SWAP1 PUSH2 0x10D3 JUMP JUMPDEST PUSH2 0xBF0 SWAP1 PUSH1 0x28 PUSH2 0x10B4 JUMP JUMPDEST SWAP1 POP PUSH1 0x0 PUSH1 0x64 PUSH1 0x0 SLOAD PUSH2 0xC03 SWAP2 SWAP1 PUSH2 0x10D3 JUMP JUMPDEST PUSH2 0xC0E SWAP1 PUSH1 0x32 PUSH2 0x10B4 JUMP JUMPDEST PUSH1 0x4 DUP1 SLOAD PUSH1 0x40 MLOAD PUSH4 0x95EA7B3 PUSH1 0xE0 SHL DUP2 MSTORE SWAP3 SWAP4 POP PUSH1 0x1 PUSH1 0x1 PUSH1 0xA0 SHL SUB PUSH32 0x0 DUP2 AND SWAP4 PUSH4 0x95EA7B3 SWAP4 PUSH2 0xC64 SWAP4 SWAP1 SWAP3 AND SWAP2 DUP9 SWAP2 ADD PUSH2 0x110E JUMP JUMPDEST PUSH1 0x20 PUSH1 0x40 MLOAD DUP1 DUP4 SUB DUP2 PUSH1 0x0 DUP8 GAS CALL ISZERO DUP1 ISZERO PUSH2 0xC83 JUMPI RETURNDATASIZE PUSH1 0x0 DUP1 RETURNDATACOPY RETURNDATASIZE PUSH1 0x0 REVERT JUMPDEST POP POP POP POP PUSH1 0x40 MLOAD RETURNDATASIZE PUSH1 0x1F NOT PUSH1 0x1F DUP3 ADD AND DUP3 ADD DUP1 PUSH1 0x40 MSTORE POP DUP2 ADD SWAP1 PUSH2 0xCA7 SWAP2 SWAP1 PUSH2 0x1156 JUMP JUMPDEST POP PUSH1 0x4 DUP1 SLOAD PUSH1 0x40 MLOAD PUSH4 0xB66503CF PUSH1 0xE0 SHL DUP2 MSTORE PUSH1 0x1 PUSH1 0x1 PUSH1 0xA0 SHL SUB SWAP1 SWAP2 AND SWAP2 PUSH4 0xB66503CF SWAP2 PUSH2 0xCF9 SWAP2 PUSH32 0x0 SWAP2 DUP9 SWAP2 ADD PUSH2 0x110E JUMP JUMPDEST PUSH1 0x0 PUSH1 0x40 MLOAD DUP1 DUP4 SUB DUP2 PUSH1 0x0 DUP8 DUP1 EXTCODESIZE ISZERO DUP1 ISZERO PUSH2 0xD13 JUMPI PUSH1 0x0 DUP1 REVERT JUMPDEST POP GAS CALL ISZERO DUP1 ISZERO PUSH2 0xD27 JUMPI RETURNDATASIZE PUSH1 0x0 DUP1 RETURNDATACOPY RETURNDATASIZE PUSH1 0x0 REVERT JUMPDEST POP POP PUSH1 0x5 SLOAD PUSH1 0x40 MLOAD PUSH4 0x95EA7B3 PUSH1 0xE0 SHL DUP2 MSTORE PUSH1 0x1 PUSH1 0x1 PUSH1 0xA0 SHL SUB PUSH32 0x0 DUP2 AND SWAP5 POP PUSH4 0x95EA7B3 SWAP4 POP PUSH2 0xD7D SWAP3 AND SWAP1 DUP7 SWAP1 PUSH1 0x4 ADD PUSH2 0x110E JUMP JUMPDEST PUSH1 0x20 PUSH1 0x40 MLOAD DUP1 DUP4 SUB DUP2 PUSH1 0x0 DUP8 GAS CALL ISZERO DUP1 ISZERO PUSH2 0xD9C JUMPI RETURNDATASIZE PUSH1 0x0 DUP1 RETURNDATACOPY RETURNDATASIZE PUSH1 0x0 REVERT JUMPDEST POP POP POP POP PUSH1 0x40 MLOAD RETURNDATASIZE PUSH1 0x1F NOT PUSH1 0x1F DUP3 ADD AND DUP3 ADD DUP1 PUSH1 0x40 MSTORE POP DUP2 ADD SWAP1 PUSH2 0xDC0 SWAP2 SWAP1 PUSH2 0x1156 JUMP JUMPDEST POP PUSH1 0x5 SLOAD PUSH1 0x40 MLOAD PUSH4 0xB66503CF PUSH1 0xE0 SHL DUP2 MSTORE PUSH1 0x1 PUSH1 0x1 PUSH1 0xA0 SHL SUB SWAP1 SWAP2 AND SWAP1 PUSH4 0xB66503CF SWAP1 PUSH2 0xE13 SWAP1 PUSH32 0x0 SWAP1 DUP7 SWAP1 PUSH1 0x4 ADD PUSH2 0x110E JUMP JUMPDEST PUSH1 0x0 PUSH1 0x40 MLOAD DUP1 DUP4 SUB DUP2 PUSH1 0x0 DUP8 DUP1 EXTCODESIZE ISZERO DUP1 ISZERO PUSH2 0xE2D JUMPI PUSH1 0x0 DUP1 REVERT JUMPDEST POP GAS CALL ISZERO DUP1 ISZERO PUSH2 0xE41 JUMPI RETURNDATASIZE PUSH1 0x0 DUP1 RETURNDATACOPY RETURNDATASIZE PUSH1 0x0 REVERT JUMPDEST POP POP PUSH1 0x6 SLOAD PUSH1 0x40 MLOAD PUSH4 0xA9059CBB PUSH1 0xE0 SHL DUP2 MSTORE PUSH1 0x1 PUSH1 0x1 PUSH1 0xA0 SHL SUB PUSH32 0x0 DUP2 AND SWAP5 POP PUSH4 0xA9059CBB SWAP4 POP PUSH2 0xE97 SWAP3 AND SWAP1 DUP6 SWAP1 PUSH1 0x4 ADD PUSH2 0x110E JUMP JUMPDEST PUSH1 0x20 PUSH1 0x40 MLOAD DUP1 DUP4 SUB DUP2 PUSH1 0x0 DUP8 GAS CALL ISZERO DUP1 ISZERO PUSH2 0xEB6 JUMPI RETURNDATASIZE PUSH1 0x0 DUP1 RETURNDATACOPY RETURNDATASIZE PUSH1 0x0 REVERT JUMPDEST POP POP POP POP PUSH1 0x40 MLOAD RETURNDATASIZE PUSH1 0x1F NOT PUSH1 0x1F DUP3 ADD AND DUP3 ADD DUP1 PUSH1 0x40 MSTORE POP DUP2 ADD SWAP1 PUSH2 0xEDA SWAP2 SWAP1 PUSH2 0x1156 JUMP JUMPDEST POP PUSH1 0x7 SLOAD PUSH1 0x40 MLOAD PUSH4 0xA9059CBB PUSH1 0xE0 SHL DUP2 MSTORE PUSH1 0x1 PUSH1 0x1 PUSH1 0xA0 SHL SUB PUSH32 0x0 DUP2 AND SWAP3 PUSH4 0xA9059CBB SWAP3 PUSH2 0xF30 SWAP3 SWAP2 SWAP1 SWAP2 AND SWAP1 DUP12 SWAP1 PUSH1 0x4 ADD PUSH2 0x110E JUMP JUMPDEST PUSH1 0x20 PUSH1 0x40 MLOAD DUP1 DUP4 SUB DUP2 PUSH1 0x0 DUP8 GAS CALL ISZERO DUP1 ISZERO PUSH2 0xF4F JUMPI RETURNDATASIZE PUSH1 0x0 DUP1 RETURNDATACOPY RETURNDATASIZE PUSH1 0x0 REVERT JUMPDEST POP POP POP POP PUSH1 0x40 MLOAD RETURNDATASIZE PUSH1 0x1F NOT PUSH1 0x1F DUP3 ADD AND DUP3 ADD DUP1 PUSH1 0x40 MSTORE POP DUP2 ADD SWAP1 PUSH2 0xF73 SWAP2 SWAP1 PUSH2 0x1156 JUMP JUMPDEST POP CALLER PUSH1 0x1 PUSH1 0x1 PUSH1 0xA0 SHL SUB AND PUSH32 0xB4C03061FB5B7FED76389D5AF8F2E0DDB09F8C70D1333ABBB62582835E10ACCB DUP9 PUSH1 0x0 SLOAD PUSH2 0xFAD SWAP2 SWAP1 PUSH2 0x1127 JUMP JUMPDEST PUSH2 0xFB5 PUSH2 0x73E JUMP JUMPDEST PUSH2 0xFBD PUSH2 0x2C1 JUMP JUMPDEST PUSH1 0x40 DUP1 MLOAD SWAP4 DUP5 MSTORE PUSH1 0x20 DUP5 ADD SWAP3 SWAP1 SWAP3 MSTORE SWAP1 DUP3 ADD MSTORE PUSH1 0x60 ADD PUSH1 0x40 MLOAD DUP1 SWAP2 SUB SWAP1 LOG2 POP POP POP POP POP POP POP JUMPDEST SWAP2 SWAP1 POP JUMP JUMPDEST PUSH1 0x0 DUP2 DUP4 LT ISZERO PUSH2 0xFF8 JUMPI DUP2 PUSH2 0xFFA JUMP JUMPDEST DUP3 JUMPDEST SWAP4 SWAP3 POP POP POP JUMP JUMPDEST PUSH1 0x0 PUSH1 0x20 DUP3 DUP5 SUB SLT ISZERO PUSH2 0x1013 JUMPI PUSH1 0x0 DUP1 REVERT JUMPDEST POP CALLDATALOAD SWAP2 SWAP1 POP JUMP JUMPDEST DUP1 CALLDATALOAD PUSH1 0x1 PUSH1 0x1 PUSH1 0xA0 SHL SUB DUP2 AND DUP2 EQ PUSH2 0xFE3 JUMPI PUSH1 0x0 DUP1 REVERT JUMPDEST PUSH1 0x0 DUP1 PUSH1 0x0 DUP1 PUSH1 0x0 DUP1 PUSH1 0xC0 DUP8 DUP10 SUB SLT ISZERO PUSH2 0x104A JUMPI PUSH1 0x0 DUP1 REVERT JUMPDEST PUSH2 0x1053 DUP8 PUSH2 0x101A JUMP JUMPDEST SWAP6 POP PUSH1 0x20 DUP8 ADD CALLDATALOAD SWAP5 POP PUSH2 0x1068 PUSH1 0x40 DUP9 ADD PUSH2 0x101A JUMP JUMPDEST SWAP4 POP PUSH2 0x1076 PUSH1 0x60 DUP9 ADD PUSH2 0x101A JUMP JUMPDEST SWAP3 POP PUSH2 0x1084 PUSH1 0x80 DUP9 ADD PUSH2 0x101A JUMP JUMPDEST SWAP2 POP PUSH2 0x1092 PUSH1 0xA0 DUP9 ADD PUSH2 0x101A JUMP JUMPDEST SWAP1 POP SWAP3 SWAP6 POP SWAP3 SWAP6 POP SWAP3 SWAP6 JUMP JUMPDEST PUSH4 0x4E487B71 PUSH1 0xE0 SHL PUSH1 0x0 MSTORE PUSH1 0x11 PUSH1 0x4 MSTORE PUSH1 0x24 PUSH1 0x0 REVERT JUMPDEST PUSH1 0x0 DUP2 PUSH1 0x0 NOT DIV DUP4 GT DUP3 ISZERO ISZERO AND ISZERO PUSH2 0x10CE JUMPI PUSH2 0x10CE PUSH2 0x109E JUMP JUMPDEST POP MUL SWAP1 JUMP JUMPDEST PUSH1 0x0 DUP3 PUSH2 0x10F0 JUMPI PUSH4 0x4E487B71 PUSH1 0xE0 SHL PUSH1 0x0 MSTORE PUSH1 0x12 PUSH1 0x4 MSTORE PUSH1 0x24 PUSH1 0x0 REVERT JUMPDEST POP DIV SWAP1 JUMP JUMPDEST PUSH1 0x0 PUSH1 0x20 DUP3 DUP5 SUB SLT ISZERO PUSH2 0x1107 JUMPI PUSH1 0x0 DUP1 REVERT JUMPDEST POP MLOAD SWAP2 SWAP1 POP JUMP JUMPDEST PUSH1 0x1 PUSH1 0x1 PUSH1 0xA0 SHL SUB SWAP3 SWAP1 SWAP3 AND DUP3 MSTORE PUSH1 0x20 DUP3 ADD MSTORE PUSH1 0x40 ADD SWAP1 JUMP JUMPDEST PUSH1 0x0 DUP3 NOT DUP3 GT ISZERO PUSH2 0x113A JUMPI PUSH2 0x113A PUSH2 0x109E JUMP JUMPDEST POP ADD SWAP1 JUMP JUMPDEST PUSH1 0x0 DUP3 DUP3 LT ISZERO PUSH2 0x1151 JUMPI PUSH2 0x1151 PUSH2 0x109E JUMP JUMPDEST POP SUB SWAP1 JUMP JUMPDEST PUSH1 0x0 PUSH1 0x20 DUP3 DUP5 SUB SLT ISZERO PUSH2 0x1168 JUMPI PUSH1 0x0 DUP1 REVERT JUMPDEST DUP2 MLOAD DUP1 ISZERO ISZERO DUP2 EQ PUSH2 0xFFA JUMPI PUSH1 0x0 DUP1 REVERT INVALID LOG2 PUSH5 0x6970667358 0x22 SLT KECCAK256 LOG4 BLOCKHASH 0xEB PUSH9 0xB59A3B988EBDB51928 0xCA CALLVALUE DUP9 0xC3 0xCC SHR 0xC4 SSTORE PC 0x4B DUP2 0x1E GT DUP14 CALL CREATE2 EXTCODECOPY JUMPI 0xCA PUSH5 0x736F6C6343 STOP ADDMOD SIGNEXTEND STOP CALLER "
        },
        "methodIdentifiers": {
          "USDC_USDT_gauge()": "9bab5bab",
          "USDC_yMeta_gauge()": "44e9d755",
          "_token()": "ecd0c0c3",
          "_ve()": "8dd598fb",
          "_ve_dist()": "2c6b2f0c",
          "_voter()": "3db9b42a",
          "active_period()": "d1399608",
          "calculate_emission()": "36d96faf",
          "calculate_growth(uint256)": "8e01fbfa",
          "circulating_emission()": "1eebae80",
          "circulating_supply()": "e038c75a",
          "fetch()": "a95c372d",
          "initialize(address,uint256,address,address,address,address)": "a2dc2ab7",
          "mintForFetch(uint256)": "44f2ee6e",
          "teamWallet()": "59927044",
          "update_period()": "ed29fc11",
          "votersLock()": "254c7f1d",
          "weekly()": "26cfc17b",
          "weekly_emission()": "cfc6c8ff"
        }
      }
    }
  }
}