{
  "contracts/Fetch.sol": {
    "Fetch": {
      "abi": [
        {
          "inputs": [
            {
              "internalType": "address",
              "name": "_dexRouter",
              "type": "address"
            },
            {
              "internalType": "address",
              "name": "_token",
              "type": "address"
            },
            {
              "internalType": "address",
              "name": "_beneficiary",
              "type": "address"
            },
            {
              "internalType": "address",
              "name": "_minter",
              "type": "address"
            },
            {
              "internalType": "address",
              "name": "_VE",
              "type": "address"
            },
            {
              "internalType": "address",
              "name": "_treasury",
              "type": "address"
            },
            {
              "internalType": "address",
              "name": "_formula",
              "type": "address"
            },
            {
              "internalType": "uint256",
              "name": "_minLockTime",
              "type": "uint256"
            }
          ],
          "stateMutability": "nonpayable",
          "type": "constructor"
        },
        {
          "anonymous": false,
          "inputs": [
            {
              "indexed": true,
              "internalType": "address",
              "name": "previousOwner",
              "type": "address"
            },
            {
              "indexed": true,
              "internalType": "address",
              "name": "newOwner",
              "type": "address"
            }
          ],
          "name": "OwnershipTransferred",
          "type": "event"
        },
        {
          "inputs": [],
          "name": "VE",
          "outputs": [
            {
              "internalType": "contract IVE",
              "name": "",
              "type": "address"
            }
          ],
          "stateMutability": "view",
          "type": "function"
        },
        {
          "inputs": [],
          "name": "WETH",
          "outputs": [
            {
              "internalType": "address",
              "name": "",
              "type": "address"
            }
          ],
          "stateMutability": "view",
          "type": "function"
        },
        {
          "inputs": [],
          "name": "beneficiary",
          "outputs": [
            {
              "internalType": "address",
              "name": "",
              "type": "address"
            }
          ],
          "stateMutability": "view",
          "type": "function"
        },
        {
          "inputs": [
            {
              "internalType": "uint256",
              "name": "ethInput",
              "type": "uint256"
            }
          ],
          "name": "calculateToSplit",
          "outputs": [
            {
              "internalType": "uint256",
              "name": "ethToDex",
              "type": "uint256"
            },
            {
              "internalType": "uint256",
              "name": "ethToSale",
              "type": "uint256"
            }
          ],
          "stateMutability": "view",
          "type": "function"
        },
        {
          "inputs": [
            {
              "internalType": "uint256",
              "name": "_lockTime",
              "type": "uint256"
            }
          ],
          "name": "convert",
          "outputs": [],
          "stateMutability": "payable",
          "type": "function"
        },
        {
          "inputs": [
            {
              "internalType": "address",
              "name": "receiver",
              "type": "address"
            },
            {
              "internalType": "uint256",
              "name": "_lockTime",
              "type": "uint256"
            }
          ],
          "name": "convertFor",
          "outputs": [],
          "stateMutability": "payable",
          "type": "function"
        },
        {
          "inputs": [
            {
              "internalType": "uint256",
              "name": "_amount",
              "type": "uint256"
            },
            {
              "internalType": "uint256",
              "name": "_lockTime",
              "type": "uint256"
            }
          ],
          "name": "depositToken",
          "outputs": [],
          "stateMutability": "nonpayable",
          "type": "function"
        },
        {
          "inputs": [],
          "name": "dexRouter",
          "outputs": [
            {
              "internalType": "address",
              "name": "",
              "type": "address"
            }
          ],
          "stateMutability": "view",
          "type": "function"
        },
        {
          "inputs": [],
          "name": "formula",
          "outputs": [
            {
              "internalType": "contract IFetchFormula",
              "name": "",
              "type": "address"
            }
          ],
          "stateMutability": "view",
          "type": "function"
        },
        {
          "inputs": [
            {
              "internalType": "uint256",
              "name": "_ethAmount",
              "type": "uint256"
            }
          ],
          "name": "getTokenPrice",
          "outputs": [
            {
              "internalType": "uint256",
              "name": "",
              "type": "uint256"
            }
          ],
          "stateMutability": "view",
          "type": "function"
        },
        {
          "inputs": [],
          "name": "minLockTime",
          "outputs": [
            {
              "internalType": "uint256",
              "name": "",
              "type": "uint256"
            }
          ],
          "stateMutability": "view",
          "type": "function"
        },
        {
          "inputs": [],
          "name": "minter",
          "outputs": [
            {
              "internalType": "contract IMinter",
              "name": "",
              "type": "address"
            }
          ],
          "stateMutability": "view",
          "type": "function"
        },
        {
          "inputs": [],
          "name": "owner",
          "outputs": [
            {
              "internalType": "address",
              "name": "",
              "type": "address"
            }
          ],
          "stateMutability": "view",
          "type": "function"
        },
        {
          "inputs": [],
          "name": "percentToDex",
          "outputs": [
            {
              "internalType": "uint256",
              "name": "",
              "type": "uint256"
            }
          ],
          "stateMutability": "view",
          "type": "function"
        },
        {
          "inputs": [],
          "name": "percentToSale",
          "outputs": [
            {
              "internalType": "uint256",
              "name": "",
              "type": "uint256"
            }
          ],
          "stateMutability": "view",
          "type": "function"
        },
        {
          "inputs": [],
          "name": "renounceOwnership",
          "outputs": [],
          "stateMutability": "nonpayable",
          "type": "function"
        },
        {
          "inputs": [],
          "name": "token",
          "outputs": [
            {
              "internalType": "address",
              "name": "",
              "type": "address"
            }
          ],
          "stateMutability": "view",
          "type": "function"
        },
        {
          "inputs": [
            {
              "internalType": "address",
              "name": "newOwner",
              "type": "address"
            }
          ],
          "name": "transferOwnership",
          "outputs": [],
          "stateMutability": "nonpayable",
          "type": "function"
        },
        {
          "inputs": [],
          "name": "treasury",
          "outputs": [
            {
              "internalType": "address",
              "name": "",
              "type": "address"
            }
          ],
          "stateMutability": "view",
          "type": "function"
        },
        {
          "inputs": [
            {
              "internalType": "address",
              "name": "_formula",
              "type": "address"
            }
          ],
          "name": "updateFormula",
          "outputs": [],
          "stateMutability": "nonpayable",
          "type": "function"
        },
        {
          "inputs": [
            {
              "internalType": "address",
              "name": "_minter",
              "type": "address"
            }
          ],
          "name": "updateMinter",
          "outputs": [],
          "stateMutability": "nonpayable",
          "type": "function"
        },
        {
          "inputs": [
            {
              "internalType": "uint256",
              "name": "_percentToDex",
              "type": "uint256"
            },
            {
              "internalType": "uint256",
              "name": "_percentToSale",
              "type": "uint256"
            }
          ],
          "name": "updateSplitPercent",
          "outputs": [],
          "stateMutability": "nonpayable",
          "type": "function"
        },
        {
          "inputs": [],
          "name": "withdraw",
          "outputs": [],
          "stateMutability": "nonpayable",
          "type": "function"
        },
        {
          "stateMutability": "payable",
          "type": "receive"
        }
      ],
      "evm": {
        "bytecode": {
          "linkReferences": {},
          "object": "6080604052602160055560436006553480156200001b57600080fd5b5060405162001a3a38038062001a3a8339810160408190526200003e91620001be565b620000493362000151565b600380546001600160a01b0319166001600160a01b038a1690811790915560408051637a7a2da360e11b8152905163f4f45b46916004808201926020929091908290030181865afa158015620000a3573d6000803e3d6000fd5b505050506040513d601f19601f82011682018060405250810190620000c991906200025d565b600180546001600160a01b03199081166001600160a01b039384161790915560048054821699831699909917909855600780548916978216979097179096556008805488169587169590951790945560028054871693861693909317909255600980548616918516919091179055600a8054909416921691909117909155600b555062000282565b600080546001600160a01b038381166001600160a01b0319831681178455604051919092169283917f8be0079c531659141344cd1fd0a4f28419497f9722a3daafe3b4186f6b6457e09190a35050565b80516001600160a01b0381168114620001b957600080fd5b919050565b600080600080600080600080610100898b031215620001dc57600080fd5b620001e789620001a1565b9750620001f760208a01620001a1565b96506200020760408a01620001a1565b95506200021760608a01620001a1565b94506200022760808a01620001a1565b93506200023760a08a01620001a1565b92506200024760c08a01620001a1565b915060e089015190509295985092959890939650565b6000602082840312156200027057600080fd5b6200027b82620001a1565b9392505050565b6117a880620002926000396000f3fe6080604052600436106101445760003560e01c80639d2d04d1116100b6578063c757e5b51161006f578063c757e5b51461036c578063c863657d1461038c578063d5b49a71146103ac578063dfa53724146103cc578063f2fde38b146103e2578063fc0c546a1461040257600080fd5b80639d2d04d1146102d0578063a3908e1b146102f0578063a60ff76614610303578063aaa0736214610319578063ad5c46481461032c578063c457fb371461034c57600080fd5b80634b75f54f116101085780634b75f54f146102195780634eb03f6e146102395780634f783ed01461025957806361d027b31461027d578063715018a61461029d5780638da5cb5b146102b257600080fd5b806307546172146101505780630758d9241461018d57806338af3eed146101ad5780633a5b08e7146101cd5780633ccfd60b1461020257600080fd5b3661014b57005b600080fd5b34801561015c57600080fd5b50600854610170906001600160a01b031681565b6040516001600160a01b0390911681526020015b60405180910390f35b34801561019957600080fd5b50600354610170906001600160a01b031681565b3480156101b957600080fd5b50600754610170906001600160a01b031681565b3480156101d957600080fd5b506101ed6101e83660046113d5565b610422565b60408051928352602083019190915201610184565b34801561020e57600080fd5b50610217610438565b005b34801561022557600080fd5b50600a54610170906001600160a01b031681565b34801561024557600080fd5b5061021761025436600461140a565b6104a8565b34801561026557600080fd5b5061026f60065481565b604051908152602001610184565b34801561028957600080fd5b50600954610170906001600160a01b031681565b3480156102a957600080fd5b506102176104f4565b3480156102be57600080fd5b506000546001600160a01b0316610170565b3480156102dc57600080fd5b506102176102eb366004611425565b61052a565b6102176102fe3660046113d5565b610796565b34801561030f57600080fd5b5061026f600b5481565b610217610327366004611447565b6107a0565b34801561033857600080fd5b50600154610170906001600160a01b031681565b34801561035857600080fd5b5061026f6103673660046113d5565b6107ae565b34801561037857600080fd5b50610217610387366004611425565b610932565b34801561039857600080fd5b50600254610170906001600160a01b031681565b3480156103b857600080fd5b506102176103c736600461140a565b6109b4565b3480156103d857600080fd5b5061026f60055481565b3480156103ee57600080fd5b506102176103fd36600461140a565b610a00565b34801561040e57600080fd5b50600454610170906001600160a01b031681565b60008061042e83610a98565b9094909350915050565b6000546001600160a01b0316331461046b5760405162461bcd60e51b815260040161046290611471565b60405180910390fd5b600080546040516001600160a01b03909116914780156108fc02929091818181858888f193505050501580156104a5573d6000803e3d6000fd5b50565b6000546001600160a01b031633146104d25760405162461bcd60e51b815260040161046290611471565b600880546001600160a01b0319166001600160a01b0392909216919091179055565b6000546001600160a01b0316331461051e5760405162461bcd60e51b815260040161046290611471565b6105286000610ad1565b565b600480546040516323b872dd60e01b81523392810192909252306024830152604482018490526001600160a01b0316906323b872dd906064016020604051808303816000875af1158015610582573d6000803e3d6000fd5b505050506040513d601f19601f820116820180604052508101906105a691906114a6565b50600a5460405163faf1ebfd60e01b8152600481018390526000916001600160a01b03169063faf1ebfd90602401602060405180830381865afa1580156105f1573d6000803e3d6000fd5b505050506040513d601f19601f8201168201806040525081019061061591906114c8565b905060008115610694576106348261062e866064610b21565b90610b6c565b600854604051632279773760e11b8152600481018390529192506001600160a01b0316906344f2ee6e90602401600060405180830381600087803b15801561067b57600080fd5b505af115801561068f573d6000803e3d6000fd5b505050505b60006106a08583610beb565b6004805460025460405163095ea7b360e01b81526001600160a01b039182169381019390935260248301849052929350919091169063095ea7b3906044016020604051808303816000875af11580156106fd573d6000803e3d6000fd5b505050506040513d601f19601f8201168201806040525081019061072191906114a6565b5060025460405163d4e54c3b60e01b8152600481018390526293a80060248201523360448201526001600160a01b039091169063d4e54c3b90606401600060405180830381600087803b15801561077757600080fd5b505af115801561078b573d6000803e3d6000fd5b505050505050505050565b6104a53382610c4a565b6107aa8282610c4a565b5050565b604080516001808252818301909252600091829190816020015b60408051606081018252600080825260208083018290529282015282526000199092019101816107c857505060015481519192506001600160a01b0316908290600090610817576108176114f7565b60209081029190910101516001600160a01b03918216905260045482519116908290600090610848576108486114f7565b6020026020010151602001906001600160a01b031690816001600160a01b031681525050600081600081518110610881576108816114f7565b602090810291909101015190151560409182015260035490516326207f2d60e21b81526000916001600160a01b031690639881fcb4906108c7908790869060040161156c565b600060405180830381865afa1580156108e4573d6000803e3d6000fd5b505050506040513d6000823e601f3d908101601f1916820160405261090c919081019061158d565b905080600181518110610921576109216114f7565b602002602001015192505050919050565b6000546001600160a01b0316331461095c5760405162461bcd60e51b815260040161046290611471565b60006109688284611661565b9050806064146109a85760405162461bcd60e51b815260206004820152600b60248201526a15dc9bdb99c81d1bdd185b60aa1b6044820152606401610462565b50600591909155600655565b6000546001600160a01b031633146109de5760405162461bcd60e51b815260040161046290611471565b600a80546001600160a01b0319166001600160a01b0392909216919091179055565b6000546001600160a01b03163314610a2a5760405162461bcd60e51b815260040161046290611471565b6001600160a01b038116610a8f5760405162461bcd60e51b815260206004820152602660248201527f4f776e61626c653a206e6577206f776e657220697320746865207a65726f206160448201526564647265737360d01b6064820152608401610462565b6104a581610ad1565b600080610ab560055461062e606486610b2190919063ffffffff16565b600654909250610aca9061062e856064610b21565b9050915091565b600080546001600160a01b038381166001600160a01b0319831681178455604051919092169283917f8be0079c531659141344cd1fd0a4f28419497f9722a3daafe3b4186f6b6457e09190a35050565b6000610b6383836040518060400160405280601a81526020017f536166654d6174683a206469766973696f6e206279207a65726f000000000000815250610f6a565b90505b92915050565b600082610b7b57506000610b66565b6000610b878385611679565b905082610b948583611698565b14610b635760405162461bcd60e51b815260206004820152602160248201527f536166654d6174683a206d756c7469706c69636174696f6e206f766572666c6f6044820152607760f81b6064820152608401610462565b600080610bf88385611661565b905083811015610b635760405162461bcd60e51b815260206004820152601b60248201527f536166654d6174683a206164646974696f6e206f766572666c6f7700000000006044820152606401610462565b600b54811015610c8c5760405162461bcd60e51b815260206004820152600d60248201526c6d696e206c6f636b2074696d6560981b6044820152606401610462565b60003411610cc85760405162461bcd60e51b81526020600482015260096024820152680f4cae4e4de40cae8d60bb1b6044820152606401610462565b610cd134610fa1565b600a5460405163faf1ebfd60e01b8152600481018390526000916001600160a01b03169063faf1ebfd90602401602060405180830381865afa158015610d1b573d6000803e3d6000fd5b505050506040513d601f19601f82011682018060405250810190610d3f91906114c8565b90508015610dc7576000610d52346107ae565b90506000610d658361062e846064610b21565b600854604051632279773760e11b8152600481018390529192506001600160a01b0316906344f2ee6e90602401600060405180830381600087803b158015610dac57600080fd5b505af1158015610dc0573d6000803e3d6000fd5b5050505050505b600480546040516370a0823160e01b815230928101929092526000916001600160a01b03909116906370a0823190602401602060405180830381865afa158015610e15573d6000803e3d6000fd5b505050506040513d601f19601f82011682018060405250810190610e3991906114c8565b905060008111610e795760405162461bcd60e51b815260206004820152600b60248201526a1b9bdd081cddd85c1c195960aa1b6044820152606401610462565b6004805460025460405163095ea7b360e01b81526001600160a01b039182169381019390935260248301849052169063095ea7b3906044016020604051808303816000875af1158015610ed0573d6000803e3d6000fd5b505050506040513d601f19601f82011682018060405250810190610ef491906114a6565b5060025460405163d4e54c3b60e01b8152600481018390526293a80060248201526001600160a01b0386811660448301529091169063d4e54c3b90606401600060405180830381600087803b158015610f4c57600080fd5b505af1158015610f60573d6000803e3d6000fd5b5050505050505050565b60008183610f8b5760405162461bcd60e51b815260040161046291906116ba565b506000610f988486611698565b95945050505050565b600080610fad83610422565b90925090508115610fd557600354600454610fd5916001600160a01b03908116911684610fe9565b8015610fe457610fe481611161565b505050565b604080516001808252818301909252600091816020015b604080516060810182526000808252602080830182905292820152825260001990920191018161100057505060015481519192506001600160a01b031690829060009061104f5761104f6114f7565b6020026020010151600001906001600160a01b031690816001600160a01b0316815250508281600081518110611087576110876114f7565b6020026020010151602001906001600160a01b031690816001600160a01b0316815250506000816000815181106110c0576110c06114f7565b60209081029190910101519015156040909101526001600160a01b03841663e8ef468183600184306110f442610708611661565b6040518663ffffffff1660e01b8152600401611113949392919061170f565b60006040518083038185885af1158015611131573d6000803e3d6000fd5b50505050506040513d6000823e601f3d908101601f1916820160405261115a919081019061158d565b5050505050565b600061116c826107ae565b600854604051632279773760e11b8152600481018390529192506001600160a01b0316906344f2ee6e90602401600060405180830381600087803b1580156111b357600080fd5b505af11580156111c7573d6000803e3d6000fd5b5050505060006111e1600284610b2190919063ffffffff16565b6007546040519192506001600160a01b03169082156108fc029083906000818181858888f1935050505015801561121c573d6000803e3d6000fd5b50610fe481600061122c826107ae565b600854604051632279773760e11b8152600481018390529192506001600160a01b0316906344f2ee6e90602401600060405180830381600087803b15801561127357600080fd5b505af1158015611287573d6000803e3d6000fd5b50506004805460035460405163095ea7b360e01b81526001600160a01b03918216938101939093526024830186905216925063095ea7b391506044016020604051808303816000875af11580156112e2573d6000803e3d6000fd5b505050506040513d601f19601f8201168201806040525081019061130691906114a6565b506003546004546009546001600160a01b039283169263578caf32928692908216916000918791839182911661133e42610384611661565b60405160e08a901b6001600160e01b03191681526001600160a01b039788166004820152951515602487015260448601949094526064850192909252608484015290921660a482015260c481019190915260e40160606040518083038185885af11580156113b0573d6000803e3d6000fd5b50505050506040513d601f19601f8201168201806040525081019061115a9190611744565b6000602082840312156113e757600080fd5b5035919050565b80356001600160a01b038116811461140557600080fd5b919050565b60006020828403121561141c57600080fd5b610b63826113ee565b6000806040838503121561143857600080fd5b50508035926020909101359150565b6000806040838503121561145a57600080fd5b611463836113ee565b946020939093013593505050565b6020808252818101527f4f776e61626c653a2063616c6c6572206973206e6f7420746865206f776e6572604082015260600190565b6000602082840312156114b857600080fd5b81518015158114610b6357600080fd5b6000602082840312156114da57600080fd5b5051919050565b634e487b7160e01b600052604160045260246000fd5b634e487b7160e01b600052603260045260246000fd5b600081518084526020808501945080840160005b8381101561156157815180516001600160a01b03908116895284820151168489015260409081015115159088015260609096019590820190600101611521565b509495945050505050565b828152604060208201526000611585604083018461150d565b949350505050565b600060208083850312156115a057600080fd5b825167ffffffffffffffff808211156115b857600080fd5b818501915085601f8301126115cc57600080fd5b8151818111156115de576115de6114e1565b8060051b604051601f19603f83011681018181108582111715611603576116036114e1565b60405291825284820192508381018501918883111561162157600080fd5b938501935b8285101561163f57845184529385019392850192611626565b98975050505050505050565b634e487b7160e01b600052601160045260246000fd5b600082198211156116745761167461164b565b500190565b60008160001904831182151516156116935761169361164b565b500290565b6000826116b557634e487b7160e01b600052601260045260246000fd5b500490565b600060208083528351808285015260005b818110156116e7578581018301518582016040015282016116cb565b818111156116f9576000604083870101525b50601f01601f1916929092016040019392505050565b848152608060208201526000611728608083018661150d565b6001600160a01b03949094166040830152506060015292915050565b60008060006060848603121561175957600080fd5b835192506020840151915060408401519050925092509256fea2646970667358221220fa4421e3ecb164431ca505fccd1b24d30d50c4e1d363f3112d291045a2f933d464736f6c634300080b0033",
          "opcodes": "PUSH1 0x80 PUSH1 0x40 MSTORE PUSH1 0x21 PUSH1 0x5 SSTORE PUSH1 0x43 PUSH1 0x6 SSTORE CALLVALUE DUP1 ISZERO PUSH3 0x1B JUMPI PUSH1 0x0 DUP1 REVERT JUMPDEST POP PUSH1 0x40 MLOAD PUSH3 0x1A3A CODESIZE SUB DUP1 PUSH3 0x1A3A DUP4 CODECOPY DUP2 ADD PUSH1 0x40 DUP2 SWAP1 MSTORE PUSH3 0x3E SWAP2 PUSH3 0x1BE JUMP JUMPDEST PUSH3 0x49 CALLER PUSH3 0x151 JUMP JUMPDEST PUSH1 0x3 DUP1 SLOAD PUSH1 0x1 PUSH1 0x1 PUSH1 0xA0 SHL SUB NOT AND PUSH1 0x1 PUSH1 0x1 PUSH1 0xA0 SHL SUB DUP11 AND SWAP1 DUP2 OR SWAP1 SWAP2 SSTORE PUSH1 0x40 DUP1 MLOAD PUSH4 0x7A7A2DA3 PUSH1 0xE1 SHL DUP2 MSTORE SWAP1 MLOAD PUSH4 0xF4F45B46 SWAP2 PUSH1 0x4 DUP1 DUP3 ADD SWAP3 PUSH1 0x20 SWAP3 SWAP1 SWAP2 SWAP1 DUP3 SWAP1 SUB ADD DUP2 DUP7 GAS STATICCALL ISZERO DUP1 ISZERO PUSH3 0xA3 JUMPI RETURNDATASIZE PUSH1 0x0 DUP1 RETURNDATACOPY RETURNDATASIZE PUSH1 0x0 REVERT JUMPDEST POP POP POP POP PUSH1 0x40 MLOAD RETURNDATASIZE PUSH1 0x1F NOT PUSH1 0x1F DUP3 ADD AND DUP3 ADD DUP1 PUSH1 0x40 MSTORE POP DUP2 ADD SWAP1 PUSH3 0xC9 SWAP2 SWAP1 PUSH3 0x25D JUMP JUMPDEST PUSH1 0x1 DUP1 SLOAD PUSH1 0x1 PUSH1 0x1 PUSH1 0xA0 SHL SUB NOT SWAP1 DUP2 AND PUSH1 0x1 PUSH1 0x1 PUSH1 0xA0 SHL SUB SWAP4 DUP5 AND OR SWAP1 SWAP2 SSTORE PUSH1 0x4 DUP1 SLOAD DUP3 AND SWAP10 DUP4 AND SWAP10 SWAP1 SWAP10 OR SWAP1 SWAP9 SSTORE PUSH1 0x7 DUP1 SLOAD DUP10 AND SWAP8 DUP3 AND SWAP8 SWAP1 SWAP8 OR SWAP1 SWAP7 SSTORE PUSH1 0x8 DUP1 SLOAD DUP9 AND SWAP6 DUP8 AND SWAP6 SWAP1 SWAP6 OR SWAP1 SWAP5 SSTORE PUSH1 0x2 DUP1 SLOAD DUP8 AND SWAP4 DUP7 AND SWAP4 SWAP1 SWAP4 OR SWAP1 SWAP3 SSTORE PUSH1 0x9 DUP1 SLOAD DUP7 AND SWAP2 DUP6 AND SWAP2 SWAP1 SWAP2 OR SWAP1 SSTORE PUSH1 0xA DUP1 SLOAD SWAP1 SWAP5 AND SWAP3 AND SWAP2 SWAP1 SWAP2 OR SWAP1 SWAP2 SSTORE PUSH1 0xB SSTORE POP PUSH3 0x282 JUMP JUMPDEST PUSH1 0x0 DUP1 SLOAD PUSH1 0x1 PUSH1 0x1 PUSH1 0xA0 SHL SUB DUP4 DUP2 AND PUSH1 0x1 PUSH1 0x1 PUSH1 0xA0 SHL SUB NOT DUP4 AND DUP2 OR DUP5 SSTORE PUSH1 0x40 MLOAD SWAP2 SWAP1 SWAP3 AND SWAP3 DUP4 SWAP2 PUSH32 0x8BE0079C531659141344CD1FD0A4F28419497F9722A3DAAFE3B4186F6B6457E0 SWAP2 SWAP1 LOG3 POP POP JUMP JUMPDEST DUP1 MLOAD PUSH1 0x1 PUSH1 0x1 PUSH1 0xA0 SHL SUB DUP2 AND DUP2 EQ PUSH3 0x1B9 JUMPI PUSH1 0x0 DUP1 REVERT JUMPDEST SWAP2 SWAP1 POP JUMP JUMPDEST PUSH1 0x0 DUP1 PUSH1 0x0 DUP1 PUSH1 0x0 DUP1 PUSH1 0x0 DUP1 PUSH2 0x100 DUP10 DUP12 SUB SLT ISZERO PUSH3 0x1DC JUMPI PUSH1 0x0 DUP1 REVERT JUMPDEST PUSH3 0x1E7 DUP10 PUSH3 0x1A1 JUMP JUMPDEST SWAP8 POP PUSH3 0x1F7 PUSH1 0x20 DUP11 ADD PUSH3 0x1A1 JUMP JUMPDEST SWAP7 POP PUSH3 0x207 PUSH1 0x40 DUP11 ADD PUSH3 0x1A1 JUMP JUMPDEST SWAP6 POP PUSH3 0x217 PUSH1 0x60 DUP11 ADD PUSH3 0x1A1 JUMP JUMPDEST SWAP5 POP PUSH3 0x227 PUSH1 0x80 DUP11 ADD PUSH3 0x1A1 JUMP JUMPDEST SWAP4 POP PUSH3 0x237 PUSH1 0xA0 DUP11 ADD PUSH3 0x1A1 JUMP JUMPDEST SWAP3 POP PUSH3 0x247 PUSH1 0xC0 DUP11 ADD PUSH3 0x1A1 JUMP JUMPDEST SWAP2 POP PUSH1 0xE0 DUP10 ADD MLOAD SWAP1 POP SWAP3 SWAP6 SWAP9 POP SWAP3 SWAP6 SWAP9 SWAP1 SWAP4 SWAP7 POP JUMP JUMPDEST PUSH1 0x0 PUSH1 0x20 DUP3 DUP5 SUB SLT ISZERO PUSH3 0x270 JUMPI PUSH1 0x0 DUP1 REVERT JUMPDEST PUSH3 0x27B DUP3 PUSH3 0x1A1 JUMP JUMPDEST SWAP4 SWAP3 POP POP POP JUMP JUMPDEST PUSH2 0x17A8 DUP1 PUSH3 0x292 PUSH1 0x0 CODECOPY PUSH1 0x0 RETURN INVALID PUSH1 0x80 PUSH1 0x40 MSTORE PUSH1 0x4 CALLDATASIZE LT PUSH2 0x144 JUMPI PUSH1 0x0 CALLDATALOAD PUSH1 0xE0 SHR DUP1 PUSH4 0x9D2D04D1 GT PUSH2 0xB6 JUMPI DUP1 PUSH4 0xC757E5B5 GT PUSH2 0x6F JUMPI DUP1 PUSH4 0xC757E5B5 EQ PUSH2 0x36C JUMPI DUP1 PUSH4 0xC863657D EQ PUSH2 0x38C JUMPI DUP1 PUSH4 0xD5B49A71 EQ PUSH2 0x3AC JUMPI DUP1 PUSH4 0xDFA53724 EQ PUSH2 0x3CC JUMPI DUP1 PUSH4 0xF2FDE38B EQ PUSH2 0x3E2 JUMPI DUP1 PUSH4 0xFC0C546A EQ PUSH2 0x402 JUMPI PUSH1 0x0 DUP1 REVERT JUMPDEST DUP1 PUSH4 0x9D2D04D1 EQ PUSH2 0x2D0 JUMPI DUP1 PUSH4 0xA3908E1B EQ PUSH2 0x2F0 JUMPI DUP1 PUSH4 0xA60FF766 EQ PUSH2 0x303 JUMPI DUP1 PUSH4 0xAAA07362 EQ PUSH2 0x319 JUMPI DUP1 PUSH4 0xAD5C4648 EQ PUSH2 0x32C JUMPI DUP1 PUSH4 0xC457FB37 EQ PUSH2 0x34C JUMPI PUSH1 0x0 DUP1 REVERT JUMPDEST DUP1 PUSH4 0x4B75F54F GT PUSH2 0x108 JUMPI DUP1 PUSH4 0x4B75F54F EQ PUSH2 0x219 JUMPI DUP1 PUSH4 0x4EB03F6E EQ PUSH2 0x239 JUMPI DUP1 PUSH4 0x4F783ED0 EQ PUSH2 0x259 JUMPI DUP1 PUSH4 0x61D027B3 EQ PUSH2 0x27D JUMPI DUP1 PUSH4 0x715018A6 EQ PUSH2 0x29D JUMPI DUP1 PUSH4 0x8DA5CB5B EQ PUSH2 0x2B2 JUMPI PUSH1 0x0 DUP1 REVERT JUMPDEST DUP1 PUSH4 0x7546172 EQ PUSH2 0x150 JUMPI DUP1 PUSH4 0x758D924 EQ PUSH2 0x18D JUMPI DUP1 PUSH4 0x38AF3EED EQ PUSH2 0x1AD JUMPI DUP1 PUSH4 0x3A5B08E7 EQ PUSH2 0x1CD JUMPI DUP1 PUSH4 0x3CCFD60B EQ PUSH2 0x202 JUMPI PUSH1 0x0 DUP1 REVERT JUMPDEST CALLDATASIZE PUSH2 0x14B JUMPI STOP JUMPDEST PUSH1 0x0 DUP1 REVERT JUMPDEST CALLVALUE DUP1 ISZERO PUSH2 0x15C JUMPI PUSH1 0x0 DUP1 REVERT JUMPDEST POP PUSH1 0x8 SLOAD PUSH2 0x170 SWAP1 PUSH1 0x1 PUSH1 0x1 PUSH1 0xA0 SHL SUB AND DUP2 JUMP JUMPDEST PUSH1 0x40 MLOAD PUSH1 0x1 PUSH1 0x1 PUSH1 0xA0 SHL SUB SWAP1 SWAP2 AND DUP2 MSTORE PUSH1 0x20 ADD JUMPDEST PUSH1 0x40 MLOAD DUP1 SWAP2 SUB SWAP1 RETURN JUMPDEST CALLVALUE DUP1 ISZERO PUSH2 0x199 JUMPI PUSH1 0x0 DUP1 REVERT JUMPDEST POP PUSH1 0x3 SLOAD PUSH2 0x170 SWAP1 PUSH1 0x1 PUSH1 0x1 PUSH1 0xA0 SHL SUB AND DUP2 JUMP JUMPDEST CALLVALUE DUP1 ISZERO PUSH2 0x1B9 JUMPI PUSH1 0x0 DUP1 REVERT JUMPDEST POP PUSH1 0x7 SLOAD PUSH2 0x170 SWAP1 PUSH1 0x1 PUSH1 0x1 PUSH1 0xA0 SHL SUB AND DUP2 JUMP JUMPDEST CALLVALUE DUP1 ISZERO PUSH2 0x1D9 JUMPI PUSH1 0x0 DUP1 REVERT JUMPDEST POP PUSH2 0x1ED PUSH2 0x1E8 CALLDATASIZE PUSH1 0x4 PUSH2 0x13D5 JUMP JUMPDEST PUSH2 0x422 JUMP JUMPDEST PUSH1 0x40 DUP1 MLOAD SWAP3 DUP4 MSTORE PUSH1 0x20 DUP4 ADD SWAP2 SWAP1 SWAP2 MSTORE ADD PUSH2 0x184 JUMP JUMPDEST CALLVALUE DUP1 ISZERO PUSH2 0x20E JUMPI PUSH1 0x0 DUP1 REVERT JUMPDEST POP PUSH2 0x217 PUSH2 0x438 JUMP JUMPDEST STOP JUMPDEST CALLVALUE DUP1 ISZERO PUSH2 0x225 JUMPI PUSH1 0x0 DUP1 REVERT JUMPDEST POP PUSH1 0xA SLOAD PUSH2 0x170 SWAP1 PUSH1 0x1 PUSH1 0x1 PUSH1 0xA0 SHL SUB AND DUP2 JUMP JUMPDEST CALLVALUE DUP1 ISZERO PUSH2 0x245 JUMPI PUSH1 0x0 DUP1 REVERT JUMPDEST POP PUSH2 0x217 PUSH2 0x254 CALLDATASIZE PUSH1 0x4 PUSH2 0x140A JUMP JUMPDEST PUSH2 0x4A8 JUMP JUMPDEST CALLVALUE DUP1 ISZERO PUSH2 0x265 JUMPI PUSH1 0x0 DUP1 REVERT JUMPDEST POP PUSH2 0x26F PUSH1 0x6 SLOAD DUP2 JUMP JUMPDEST PUSH1 0x40 MLOAD SWAP1 DUP2 MSTORE PUSH1 0x20 ADD PUSH2 0x184 JUMP JUMPDEST CALLVALUE DUP1 ISZERO PUSH2 0x289 JUMPI PUSH1 0x0 DUP1 REVERT JUMPDEST POP PUSH1 0x9 SLOAD PUSH2 0x170 SWAP1 PUSH1 0x1 PUSH1 0x1 PUSH1 0xA0 SHL SUB AND DUP2 JUMP JUMPDEST CALLVALUE DUP1 ISZERO PUSH2 0x2A9 JUMPI PUSH1 0x0 DUP1 REVERT JUMPDEST POP PUSH2 0x217 PUSH2 0x4F4 JUMP JUMPDEST CALLVALUE DUP1 ISZERO PUSH2 0x2BE JUMPI PUSH1 0x0 DUP1 REVERT JUMPDEST POP PUSH1 0x0 SLOAD PUSH1 0x1 PUSH1 0x1 PUSH1 0xA0 SHL SUB AND PUSH2 0x170 JUMP JUMPDEST CALLVALUE DUP1 ISZERO PUSH2 0x2DC JUMPI PUSH1 0x0 DUP1 REVERT JUMPDEST POP PUSH2 0x217 PUSH2 0x2EB CALLDATASIZE PUSH1 0x4 PUSH2 0x1425 JUMP JUMPDEST PUSH2 0x52A JUMP JUMPDEST PUSH2 0x217 PUSH2 0x2FE CALLDATASIZE PUSH1 0x4 PUSH2 0x13D5 JUMP JUMPDEST PUSH2 0x796 JUMP JUMPDEST CALLVALUE DUP1 ISZERO PUSH2 0x30F JUMPI PUSH1 0x0 DUP1 REVERT JUMPDEST POP PUSH2 0x26F PUSH1 0xB SLOAD DUP2 JUMP JUMPDEST PUSH2 0x217 PUSH2 0x327 CALLDATASIZE PUSH1 0x4 PUSH2 0x1447 JUMP JUMPDEST PUSH2 0x7A0 JUMP JUMPDEST CALLVALUE DUP1 ISZERO PUSH2 0x338 JUMPI PUSH1 0x0 DUP1 REVERT JUMPDEST POP PUSH1 0x1 SLOAD PUSH2 0x170 SWAP1 PUSH1 0x1 PUSH1 0x1 PUSH1 0xA0 SHL SUB AND DUP2 JUMP JUMPDEST CALLVALUE DUP1 ISZERO PUSH2 0x358 JUMPI PUSH1 0x0 DUP1 REVERT JUMPDEST POP PUSH2 0x26F PUSH2 0x367 CALLDATASIZE PUSH1 0x4 PUSH2 0x13D5 JUMP JUMPDEST PUSH2 0x7AE JUMP JUMPDEST CALLVALUE DUP1 ISZERO PUSH2 0x378 JUMPI PUSH1 0x0 DUP1 REVERT JUMPDEST POP PUSH2 0x217 PUSH2 0x387 CALLDATASIZE PUSH1 0x4 PUSH2 0x1425 JUMP JUMPDEST PUSH2 0x932 JUMP JUMPDEST CALLVALUE DUP1 ISZERO PUSH2 0x398 JUMPI PUSH1 0x0 DUP1 REVERT JUMPDEST POP PUSH1 0x2 SLOAD PUSH2 0x170 SWAP1 PUSH1 0x1 PUSH1 0x1 PUSH1 0xA0 SHL SUB AND DUP2 JUMP JUMPDEST CALLVALUE DUP1 ISZERO PUSH2 0x3B8 JUMPI PUSH1 0x0 DUP1 REVERT JUMPDEST POP PUSH2 0x217 PUSH2 0x3C7 CALLDATASIZE PUSH1 0x4 PUSH2 0x140A JUMP JUMPDEST PUSH2 0x9B4 JUMP JUMPDEST CALLVALUE DUP1 ISZERO PUSH2 0x3D8 JUMPI PUSH1 0x0 DUP1 REVERT JUMPDEST POP PUSH2 0x26F PUSH1 0x5 SLOAD DUP2 JUMP JUMPDEST CALLVALUE DUP1 ISZERO PUSH2 0x3EE JUMPI PUSH1 0x0 DUP1 REVERT JUMPDEST POP PUSH2 0x217 PUSH2 0x3FD CALLDATASIZE PUSH1 0x4 PUSH2 0x140A JUMP JUMPDEST PUSH2 0xA00 JUMP JUMPDEST CALLVALUE DUP1 ISZERO PUSH2 0x40E JUMPI PUSH1 0x0 DUP1 REVERT JUMPDEST POP PUSH1 0x4 SLOAD PUSH2 0x170 SWAP1 PUSH1 0x1 PUSH1 0x1 PUSH1 0xA0 SHL SUB AND DUP2 JUMP JUMPDEST PUSH1 0x0 DUP1 PUSH2 0x42E DUP4 PUSH2 0xA98 JUMP JUMPDEST SWAP1 SWAP5 SWAP1 SWAP4 POP SWAP2 POP POP JUMP JUMPDEST PUSH1 0x0 SLOAD PUSH1 0x1 PUSH1 0x1 PUSH1 0xA0 SHL SUB AND CALLER EQ PUSH2 0x46B JUMPI PUSH1 0x40 MLOAD PUSH3 0x461BCD PUSH1 0xE5 SHL DUP2 MSTORE PUSH1 0x4 ADD PUSH2 0x462 SWAP1 PUSH2 0x1471 JUMP JUMPDEST PUSH1 0x40 MLOAD DUP1 SWAP2 SUB SWAP1 REVERT JUMPDEST PUSH1 0x0 DUP1 SLOAD PUSH1 0x40 MLOAD PUSH1 0x1 PUSH1 0x1 PUSH1 0xA0 SHL SUB SWAP1 SWAP2 AND SWAP2 SELFBALANCE DUP1 ISZERO PUSH2 0x8FC MUL SWAP3 SWAP1 SWAP2 DUP2 DUP2 DUP2 DUP6 DUP9 DUP9 CALL SWAP4 POP POP POP POP ISZERO DUP1 ISZERO PUSH2 0x4A5 JUMPI RETURNDATASIZE PUSH1 0x0 DUP1 RETURNDATACOPY RETURNDATASIZE PUSH1 0x0 REVERT JUMPDEST POP JUMP JUMPDEST PUSH1 0x0 SLOAD PUSH1 0x1 PUSH1 0x1 PUSH1 0xA0 SHL SUB AND CALLER EQ PUSH2 0x4D2 JUMPI PUSH1 0x40 MLOAD PUSH3 0x461BCD PUSH1 0xE5 SHL DUP2 MSTORE PUSH1 0x4 ADD PUSH2 0x462 SWAP1 PUSH2 0x1471 JUMP JUMPDEST PUSH1 0x8 DUP1 SLOAD PUSH1 0x1 PUSH1 0x1 PUSH1 0xA0 SHL SUB NOT AND PUSH1 0x1 PUSH1 0x1 PUSH1 0xA0 SHL SUB SWAP3 SWAP1 SWAP3 AND SWAP2 SWAP1 SWAP2 OR SWAP1 SSTORE JUMP JUMPDEST PUSH1 0x0 SLOAD PUSH1 0x1 PUSH1 0x1 PUSH1 0xA0 SHL SUB AND CALLER EQ PUSH2 0x51E JUMPI PUSH1 0x40 MLOAD PUSH3 0x461BCD PUSH1 0xE5 SHL DUP2 MSTORE PUSH1 0x4 ADD PUSH2 0x462 SWAP1 PUSH2 0x1471 JUMP JUMPDEST PUSH2 0x528 PUSH1 0x0 PUSH2 0xAD1 JUMP JUMPDEST JUMP JUMPDEST PUSH1 0x4 DUP1 SLOAD PUSH1 0x40 MLOAD PUSH4 0x23B872DD PUSH1 0xE0 SHL DUP2 MSTORE CALLER SWAP3 DUP2 ADD SWAP3 SWAP1 SWAP3 MSTORE ADDRESS PUSH1 0x24 DUP4 ADD MSTORE PUSH1 0x44 DUP3 ADD DUP5 SWAP1 MSTORE PUSH1 0x1 PUSH1 0x1 PUSH1 0xA0 SHL SUB AND SWAP1 PUSH4 0x23B872DD SWAP1 PUSH1 0x64 ADD PUSH1 0x20 PUSH1 0x40 MLOAD DUP1 DUP4 SUB DUP2 PUSH1 0x0 DUP8 GAS CALL ISZERO DUP1 ISZERO PUSH2 0x582 JUMPI RETURNDATASIZE PUSH1 0x0 DUP1 RETURNDATACOPY RETURNDATASIZE PUSH1 0x0 REVERT JUMPDEST POP POP POP POP PUSH1 0x40 MLOAD RETURNDATASIZE PUSH1 0x1F NOT PUSH1 0x1F DUP3 ADD AND DUP3 ADD DUP1 PUSH1 0x40 MSTORE POP DUP2 ADD SWAP1 PUSH2 0x5A6 SWAP2 SWAP1 PUSH2 0x14A6 JUMP JUMPDEST POP PUSH1 0xA SLOAD PUSH1 0x40 MLOAD PUSH4 0xFAF1EBFD PUSH1 0xE0 SHL DUP2 MSTORE PUSH1 0x4 DUP2 ADD DUP4 SWAP1 MSTORE PUSH1 0x0 SWAP2 PUSH1 0x1 PUSH1 0x1 PUSH1 0xA0 SHL SUB AND SWAP1 PUSH4 0xFAF1EBFD SWAP1 PUSH1 0x24 ADD PUSH1 0x20 PUSH1 0x40 MLOAD DUP1 DUP4 SUB DUP2 DUP7 GAS STATICCALL ISZERO DUP1 ISZERO PUSH2 0x5F1 JUMPI RETURNDATASIZE PUSH1 0x0 DUP1 RETURNDATACOPY RETURNDATASIZE PUSH1 0x0 REVERT JUMPDEST POP POP POP POP PUSH1 0x40 MLOAD RETURNDATASIZE PUSH1 0x1F NOT PUSH1 0x1F DUP3 ADD AND DUP3 ADD DUP1 PUSH1 0x40 MSTORE POP DUP2 ADD SWAP1 PUSH2 0x615 SWAP2 SWAP1 PUSH2 0x14C8 JUMP JUMPDEST SWAP1 POP PUSH1 0x0 DUP2 ISZERO PUSH2 0x694 JUMPI PUSH2 0x634 DUP3 PUSH2 0x62E DUP7 PUSH1 0x64 PUSH2 0xB21 JUMP JUMPDEST SWAP1 PUSH2 0xB6C JUMP JUMPDEST PUSH1 0x8 SLOAD PUSH1 0x40 MLOAD PUSH4 0x22797737 PUSH1 0xE1 SHL DUP2 MSTORE PUSH1 0x4 DUP2 ADD DUP4 SWAP1 MSTORE SWAP2 SWAP3 POP PUSH1 0x1 PUSH1 0x1 PUSH1 0xA0 SHL SUB AND SWAP1 PUSH4 0x44F2EE6E SWAP1 PUSH1 0x24 ADD PUSH1 0x0 PUSH1 0x40 MLOAD DUP1 DUP4 SUB DUP2 PUSH1 0x0 DUP8 DUP1 EXTCODESIZE ISZERO DUP1 ISZERO PUSH2 0x67B JUMPI PUSH1 0x0 DUP1 REVERT JUMPDEST POP GAS CALL ISZERO DUP1 ISZERO PUSH2 0x68F JUMPI RETURNDATASIZE PUSH1 0x0 DUP1 RETURNDATACOPY RETURNDATASIZE PUSH1 0x0 REVERT JUMPDEST POP POP POP POP JUMPDEST PUSH1 0x0 PUSH2 0x6A0 DUP6 DUP4 PUSH2 0xBEB JUMP JUMPDEST PUSH1 0x4 DUP1 SLOAD PUSH1 0x2 SLOAD PUSH1 0x40 MLOAD PUSH4 0x95EA7B3 PUSH1 0xE0 SHL DUP2 MSTORE PUSH1 0x1 PUSH1 0x1 PUSH1 0xA0 SHL SUB SWAP2 DUP3 AND SWAP4 DUP2 ADD SWAP4 SWAP1 SWAP4 MSTORE PUSH1 0x24 DUP4 ADD DUP5 SWAP1 MSTORE SWAP3 SWAP4 POP SWAP2 SWAP1 SWAP2 AND SWAP1 PUSH4 0x95EA7B3 SWAP1 PUSH1 0x44 ADD PUSH1 0x20 PUSH1 0x40 MLOAD DUP1 DUP4 SUB DUP2 PUSH1 0x0 DUP8 GAS CALL ISZERO DUP1 ISZERO PUSH2 0x6FD JUMPI RETURNDATASIZE PUSH1 0x0 DUP1 RETURNDATACOPY RETURNDATASIZE PUSH1 0x0 REVERT JUMPDEST POP POP POP POP PUSH1 0x40 MLOAD RETURNDATASIZE PUSH1 0x1F NOT PUSH1 0x1F DUP3 ADD AND DUP3 ADD DUP1 PUSH1 0x40 MSTORE POP DUP2 ADD SWAP1 PUSH2 0x721 SWAP2 SWAP1 PUSH2 0x14A6 JUMP JUMPDEST POP PUSH1 0x2 SLOAD PUSH1 0x40 MLOAD PUSH4 0xD4E54C3B PUSH1 0xE0 SHL DUP2 MSTORE PUSH1 0x4 DUP2 ADD DUP4 SWAP1 MSTORE PUSH3 0x93A800 PUSH1 0x24 DUP3 ADD MSTORE CALLER PUSH1 0x44 DUP3 ADD MSTORE PUSH1 0x1 PUSH1 0x1 PUSH1 0xA0 SHL SUB SWAP1 SWAP2 AND SWAP1 PUSH4 0xD4E54C3B SWAP1 PUSH1 0x64 ADD PUSH1 0x0 PUSH1 0x40 MLOAD DUP1 DUP4 SUB DUP2 PUSH1 0x0 DUP8 DUP1 EXTCODESIZE ISZERO DUP1 ISZERO PUSH2 0x777 JUMPI PUSH1 0x0 DUP1 REVERT JUMPDEST POP GAS CALL ISZERO DUP1 ISZERO PUSH2 0x78B JUMPI RETURNDATASIZE PUSH1 0x0 DUP1 RETURNDATACOPY RETURNDATASIZE PUSH1 0x0 REVERT JUMPDEST POP POP POP POP POP POP POP POP POP JUMP JUMPDEST PUSH2 0x4A5 CALLER DUP3 PUSH2 0xC4A JUMP JUMPDEST PUSH2 0x7AA DUP3 DUP3 PUSH2 0xC4A JUMP JUMPDEST POP POP JUMP JUMPDEST PUSH1 0x40 DUP1 MLOAD PUSH1 0x1 DUP1 DUP3 MSTORE DUP2 DUP4 ADD SWAP1 SWAP3 MSTORE PUSH1 0x0 SWAP2 DUP3 SWAP2 SWAP1 DUP2 PUSH1 0x20 ADD JUMPDEST PUSH1 0x40 DUP1 MLOAD PUSH1 0x60 DUP2 ADD DUP3 MSTORE PUSH1 0x0 DUP1 DUP3 MSTORE PUSH1 0x20 DUP1 DUP4 ADD DUP3 SWAP1 MSTORE SWAP3 DUP3 ADD MSTORE DUP3 MSTORE PUSH1 0x0 NOT SWAP1 SWAP3 ADD SWAP2 ADD DUP2 PUSH2 0x7C8 JUMPI POP POP PUSH1 0x1 SLOAD DUP2 MLOAD SWAP2 SWAP3 POP PUSH1 0x1 PUSH1 0x1 PUSH1 0xA0 SHL SUB AND SWAP1 DUP3 SWAP1 PUSH1 0x0 SWAP1 PUSH2 0x817 JUMPI PUSH2 0x817 PUSH2 0x14F7 JUMP JUMPDEST PUSH1 0x20 SWAP1 DUP2 MUL SWAP2 SWAP1 SWAP2 ADD ADD MLOAD PUSH1 0x1 PUSH1 0x1 PUSH1 0xA0 SHL SUB SWAP2 DUP3 AND SWAP1 MSTORE PUSH1 0x4 SLOAD DUP3 MLOAD SWAP2 AND SWAP1 DUP3 SWAP1 PUSH1 0x0 SWAP1 PUSH2 0x848 JUMPI PUSH2 0x848 PUSH2 0x14F7 JUMP JUMPDEST PUSH1 0x20 MUL PUSH1 0x20 ADD ADD MLOAD PUSH1 0x20 ADD SWAP1 PUSH1 0x1 PUSH1 0x1 PUSH1 0xA0 SHL SUB AND SWAP1 DUP2 PUSH1 0x1 PUSH1 0x1 PUSH1 0xA0 SHL SUB AND DUP2 MSTORE POP POP PUSH1 0x0 DUP2 PUSH1 0x0 DUP2 MLOAD DUP2 LT PUSH2 0x881 JUMPI PUSH2 0x881 PUSH2 0x14F7 JUMP JUMPDEST PUSH1 0x20 SWAP1 DUP2 MUL SWAP2 SWAP1 SWAP2 ADD ADD MLOAD SWAP1 ISZERO ISZERO PUSH1 0x40 SWAP2 DUP3 ADD MSTORE PUSH1 0x3 SLOAD SWAP1 MLOAD PUSH4 0x26207F2D PUSH1 0xE2 SHL DUP2 MSTORE PUSH1 0x0 SWAP2 PUSH1 0x1 PUSH1 0x1 PUSH1 0xA0 SHL SUB AND SWAP1 PUSH4 0x9881FCB4 SWAP1 PUSH2 0x8C7 SWAP1 DUP8 SWAP1 DUP7 SWAP1 PUSH1 0x4 ADD PUSH2 0x156C JUMP JUMPDEST PUSH1 0x0 PUSH1 0x40 MLOAD DUP1 DUP4 SUB DUP2 DUP7 GAS STATICCALL ISZERO DUP1 ISZERO PUSH2 0x8E4 JUMPI RETURNDATASIZE PUSH1 0x0 DUP1 RETURNDATACOPY RETURNDATASIZE PUSH1 0x0 REVERT JUMPDEST POP POP POP POP PUSH1 0x40 MLOAD RETURNDATASIZE PUSH1 0x0 DUP3 RETURNDATACOPY PUSH1 0x1F RETURNDATASIZE SWAP1 DUP2 ADD PUSH1 0x1F NOT AND DUP3 ADD PUSH1 0x40 MSTORE PUSH2 0x90C SWAP2 SWAP1 DUP2 ADD SWAP1 PUSH2 0x158D JUMP JUMPDEST SWAP1 POP DUP1 PUSH1 0x1 DUP2 MLOAD DUP2 LT PUSH2 0x921 JUMPI PUSH2 0x921 PUSH2 0x14F7 JUMP JUMPDEST PUSH1 0x20 MUL PUSH1 0x20 ADD ADD MLOAD SWAP3 POP POP POP SWAP2 SWAP1 POP JUMP JUMPDEST PUSH1 0x0 SLOAD PUSH1 0x1 PUSH1 0x1 PUSH1 0xA0 SHL SUB AND CALLER EQ PUSH2 0x95C JUMPI PUSH1 0x40 MLOAD PUSH3 0x461BCD PUSH1 0xE5 SHL DUP2 MSTORE PUSH1 0x4 ADD PUSH2 0x462 SWAP1 PUSH2 0x1471 JUMP JUMPDEST PUSH1 0x0 PUSH2 0x968 DUP3 DUP5 PUSH2 0x1661 JUMP JUMPDEST SWAP1 POP DUP1 PUSH1 0x64 EQ PUSH2 0x9A8 JUMPI PUSH1 0x40 MLOAD PUSH3 0x461BCD PUSH1 0xE5 SHL DUP2 MSTORE PUSH1 0x20 PUSH1 0x4 DUP3 ADD MSTORE PUSH1 0xB PUSH1 0x24 DUP3 ADD MSTORE PUSH11 0x15DC9BDB99C81D1BDD185B PUSH1 0xAA SHL PUSH1 0x44 DUP3 ADD MSTORE PUSH1 0x64 ADD PUSH2 0x462 JUMP JUMPDEST POP PUSH1 0x5 SWAP2 SWAP1 SWAP2 SSTORE PUSH1 0x6 SSTORE JUMP JUMPDEST PUSH1 0x0 SLOAD PUSH1 0x1 PUSH1 0x1 PUSH1 0xA0 SHL SUB AND CALLER EQ PUSH2 0x9DE JUMPI PUSH1 0x40 MLOAD PUSH3 0x461BCD PUSH1 0xE5 SHL DUP2 MSTORE PUSH1 0x4 ADD PUSH2 0x462 SWAP1 PUSH2 0x1471 JUMP JUMPDEST PUSH1 0xA DUP1 SLOAD PUSH1 0x1 PUSH1 0x1 PUSH1 0xA0 SHL SUB NOT AND PUSH1 0x1 PUSH1 0x1 PUSH1 0xA0 SHL SUB SWAP3 SWAP1 SWAP3 AND SWAP2 SWAP1 SWAP2 OR SWAP1 SSTORE JUMP JUMPDEST PUSH1 0x0 SLOAD PUSH1 0x1 PUSH1 0x1 PUSH1 0xA0 SHL SUB AND CALLER EQ PUSH2 0xA2A JUMPI PUSH1 0x40 MLOAD PUSH3 0x461BCD PUSH1 0xE5 SHL DUP2 MSTORE PUSH1 0x4 ADD PUSH2 0x462 SWAP1 PUSH2 0x1471 JUMP JUMPDEST PUSH1 0x1 PUSH1 0x1 PUSH1 0xA0 SHL SUB DUP2 AND PUSH2 0xA8F JUMPI PUSH1 0x40 MLOAD PUSH3 0x461BCD PUSH1 0xE5 SHL DUP2 MSTORE PUSH1 0x20 PUSH1 0x4 DUP3 ADD MSTORE PUSH1 0x26 PUSH1 0x24 DUP3 ADD MSTORE PUSH32 0x4F776E61626C653A206E6577206F776E657220697320746865207A65726F2061 PUSH1 0x44 DUP3 ADD MSTORE PUSH6 0x646472657373 PUSH1 0xD0 SHL PUSH1 0x64 DUP3 ADD MSTORE PUSH1 0x84 ADD PUSH2 0x462 JUMP JUMPDEST PUSH2 0x4A5 DUP2 PUSH2 0xAD1 JUMP JUMPDEST PUSH1 0x0 DUP1 PUSH2 0xAB5 PUSH1 0x5 SLOAD PUSH2 0x62E PUSH1 0x64 DUP7 PUSH2 0xB21 SWAP1 SWAP2 SWAP1 PUSH4 0xFFFFFFFF AND JUMP JUMPDEST PUSH1 0x6 SLOAD SWAP1 SWAP3 POP PUSH2 0xACA SWAP1 PUSH2 0x62E DUP6 PUSH1 0x64 PUSH2 0xB21 JUMP JUMPDEST SWAP1 POP SWAP2 POP SWAP2 JUMP JUMPDEST PUSH1 0x0 DUP1 SLOAD PUSH1 0x1 PUSH1 0x1 PUSH1 0xA0 SHL SUB DUP4 DUP2 AND PUSH1 0x1 PUSH1 0x1 PUSH1 0xA0 SHL SUB NOT DUP4 AND DUP2 OR DUP5 SSTORE PUSH1 0x40 MLOAD SWAP2 SWAP1 SWAP3 AND SWAP3 DUP4 SWAP2 PUSH32 0x8BE0079C531659141344CD1FD0A4F28419497F9722A3DAAFE3B4186F6B6457E0 SWAP2 SWAP1 LOG3 POP POP JUMP JUMPDEST PUSH1 0x0 PUSH2 0xB63 DUP4 DUP4 PUSH1 0x40 MLOAD DUP1 PUSH1 0x40 ADD PUSH1 0x40 MSTORE DUP1 PUSH1 0x1A DUP2 MSTORE PUSH1 0x20 ADD PUSH32 0x536166654D6174683A206469766973696F6E206279207A65726F000000000000 DUP2 MSTORE POP PUSH2 0xF6A JUMP JUMPDEST SWAP1 POP JUMPDEST SWAP3 SWAP2 POP POP JUMP JUMPDEST PUSH1 0x0 DUP3 PUSH2 0xB7B JUMPI POP PUSH1 0x0 PUSH2 0xB66 JUMP JUMPDEST PUSH1 0x0 PUSH2 0xB87 DUP4 DUP6 PUSH2 0x1679 JUMP JUMPDEST SWAP1 POP DUP3 PUSH2 0xB94 DUP6 DUP4 PUSH2 0x1698 JUMP JUMPDEST EQ PUSH2 0xB63 JUMPI PUSH1 0x40 MLOAD PUSH3 0x461BCD PUSH1 0xE5 SHL DUP2 MSTORE PUSH1 0x20 PUSH1 0x4 DUP3 ADD MSTORE PUSH1 0x21 PUSH1 0x24 DUP3 ADD MSTORE PUSH32 0x536166654D6174683A206D756C7469706C69636174696F6E206F766572666C6F PUSH1 0x44 DUP3 ADD MSTORE PUSH1 0x77 PUSH1 0xF8 SHL PUSH1 0x64 DUP3 ADD MSTORE PUSH1 0x84 ADD PUSH2 0x462 JUMP JUMPDEST PUSH1 0x0 DUP1 PUSH2 0xBF8 DUP4 DUP6 PUSH2 0x1661 JUMP JUMPDEST SWAP1 POP DUP4 DUP2 LT ISZERO PUSH2 0xB63 JUMPI PUSH1 0x40 MLOAD PUSH3 0x461BCD PUSH1 0xE5 SHL DUP2 MSTORE PUSH1 0x20 PUSH1 0x4 DUP3 ADD MSTORE PUSH1 0x1B PUSH1 0x24 DUP3 ADD MSTORE PUSH32 0x536166654D6174683A206164646974696F6E206F766572666C6F770000000000 PUSH1 0x44 DUP3 ADD MSTORE PUSH1 0x64 ADD PUSH2 0x462 JUMP JUMPDEST PUSH1 0xB SLOAD DUP2 LT ISZERO PUSH2 0xC8C JUMPI PUSH1 0x40 MLOAD PUSH3 0x461BCD PUSH1 0xE5 SHL DUP2 MSTORE PUSH1 0x20 PUSH1 0x4 DUP3 ADD MSTORE PUSH1 0xD PUSH1 0x24 DUP3 ADD MSTORE PUSH13 0x6D696E206C6F636B2074696D65 PUSH1 0x98 SHL PUSH1 0x44 DUP3 ADD MSTORE PUSH1 0x64 ADD PUSH2 0x462 JUMP JUMPDEST PUSH1 0x0 CALLVALUE GT PUSH2 0xCC8 JUMPI PUSH1 0x40 MLOAD PUSH3 0x461BCD PUSH1 0xE5 SHL DUP2 MSTORE PUSH1 0x20 PUSH1 0x4 DUP3 ADD MSTORE PUSH1 0x9 PUSH1 0x24 DUP3 ADD MSTORE PUSH9 0xF4CAE4E4DE40CAE8D PUSH1 0xBB SHL PUSH1 0x44 DUP3 ADD MSTORE PUSH1 0x64 ADD PUSH2 0x462 JUMP JUMPDEST PUSH2 0xCD1 CALLVALUE PUSH2 0xFA1 JUMP JUMPDEST PUSH1 0xA SLOAD PUSH1 0x40 MLOAD PUSH4 0xFAF1EBFD PUSH1 0xE0 SHL DUP2 MSTORE PUSH1 0x4 DUP2 ADD DUP4 SWAP1 MSTORE PUSH1 0x0 SWAP2 PUSH1 0x1 PUSH1 0x1 PUSH1 0xA0 SHL SUB AND SWAP1 PUSH4 0xFAF1EBFD SWAP1 PUSH1 0x24 ADD PUSH1 0x20 PUSH1 0x40 MLOAD DUP1 DUP4 SUB DUP2 DUP7 GAS STATICCALL ISZERO DUP1 ISZERO PUSH2 0xD1B JUMPI RETURNDATASIZE PUSH1 0x0 DUP1 RETURNDATACOPY RETURNDATASIZE PUSH1 0x0 REVERT JUMPDEST POP POP POP POP PUSH1 0x40 MLOAD RETURNDATASIZE PUSH1 0x1F NOT PUSH1 0x1F DUP3 ADD AND DUP3 ADD DUP1 PUSH1 0x40 MSTORE POP DUP2 ADD SWAP1 PUSH2 0xD3F SWAP2 SWAP1 PUSH2 0x14C8 JUMP JUMPDEST SWAP1 POP DUP1 ISZERO PUSH2 0xDC7 JUMPI PUSH1 0x0 PUSH2 0xD52 CALLVALUE PUSH2 0x7AE JUMP JUMPDEST SWAP1 POP PUSH1 0x0 PUSH2 0xD65 DUP4 PUSH2 0x62E DUP5 PUSH1 0x64 PUSH2 0xB21 JUMP JUMPDEST PUSH1 0x8 SLOAD PUSH1 0x40 MLOAD PUSH4 0x22797737 PUSH1 0xE1 SHL DUP2 MSTORE PUSH1 0x4 DUP2 ADD DUP4 SWAP1 MSTORE SWAP2 SWAP3 POP PUSH1 0x1 PUSH1 0x1 PUSH1 0xA0 SHL SUB AND SWAP1 PUSH4 0x44F2EE6E SWAP1 PUSH1 0x24 ADD PUSH1 0x0 PUSH1 0x40 MLOAD DUP1 DUP4 SUB DUP2 PUSH1 0x0 DUP8 DUP1 EXTCODESIZE ISZERO DUP1 ISZERO PUSH2 0xDAC JUMPI PUSH1 0x0 DUP1 REVERT JUMPDEST POP GAS CALL ISZERO DUP1 ISZERO PUSH2 0xDC0 JUMPI RETURNDATASIZE PUSH1 0x0 DUP1 RETURNDATACOPY RETURNDATASIZE PUSH1 0x0 REVERT JUMPDEST POP POP POP POP POP POP JUMPDEST PUSH1 0x4 DUP1 SLOAD PUSH1 0x40 MLOAD PUSH4 0x70A08231 PUSH1 0xE0 SHL DUP2 MSTORE ADDRESS SWAP3 DUP2 ADD SWAP3 SWAP1 SWAP3 MSTORE PUSH1 0x0 SWAP2 PUSH1 0x1 PUSH1 0x1 PUSH1 0xA0 SHL SUB SWAP1 SWAP2 AND SWAP1 PUSH4 0x70A08231 SWAP1 PUSH1 0x24 ADD PUSH1 0x20 PUSH1 0x40 MLOAD DUP1 DUP4 SUB DUP2 DUP7 GAS STATICCALL ISZERO DUP1 ISZERO PUSH2 0xE15 JUMPI RETURNDATASIZE PUSH1 0x0 DUP1 RETURNDATACOPY RETURNDATASIZE PUSH1 0x0 REVERT JUMPDEST POP POP POP POP PUSH1 0x40 MLOAD RETURNDATASIZE PUSH1 0x1F NOT PUSH1 0x1F DUP3 ADD AND DUP3 ADD DUP1 PUSH1 0x40 MSTORE POP DUP2 ADD SWAP1 PUSH2 0xE39 SWAP2 SWAP1 PUSH2 0x14C8 JUMP JUMPDEST SWAP1 POP PUSH1 0x0 DUP2 GT PUSH2 0xE79 JUMPI PUSH1 0x40 MLOAD PUSH3 0x461BCD PUSH1 0xE5 SHL DUP2 MSTORE PUSH1 0x20 PUSH1 0x4 DUP3 ADD MSTORE PUSH1 0xB PUSH1 0x24 DUP3 ADD MSTORE PUSH11 0x1B9BDD081CDDD85C1C1959 PUSH1 0xAA SHL PUSH1 0x44 DUP3 ADD MSTORE PUSH1 0x64 ADD PUSH2 0x462 JUMP JUMPDEST PUSH1 0x4 DUP1 SLOAD PUSH1 0x2 SLOAD PUSH1 0x40 MLOAD PUSH4 0x95EA7B3 PUSH1 0xE0 SHL DUP2 MSTORE PUSH1 0x1 PUSH1 0x1 PUSH1 0xA0 SHL SUB SWAP2 DUP3 AND SWAP4 DUP2 ADD SWAP4 SWAP1 SWAP4 MSTORE PUSH1 0x24 DUP4 ADD DUP5 SWAP1 MSTORE AND SWAP1 PUSH4 0x95EA7B3 SWAP1 PUSH1 0x44 ADD PUSH1 0x20 PUSH1 0x40 MLOAD DUP1 DUP4 SUB DUP2 PUSH1 0x0 DUP8 GAS CALL ISZERO DUP1 ISZERO PUSH2 0xED0 JUMPI RETURNDATASIZE PUSH1 0x0 DUP1 RETURNDATACOPY RETURNDATASIZE PUSH1 0x0 REVERT JUMPDEST POP POP POP POP PUSH1 0x40 MLOAD RETURNDATASIZE PUSH1 0x1F NOT PUSH1 0x1F DUP3 ADD AND DUP3 ADD DUP1 PUSH1 0x40 MSTORE POP DUP2 ADD SWAP1 PUSH2 0xEF4 SWAP2 SWAP1 PUSH2 0x14A6 JUMP JUMPDEST POP PUSH1 0x2 SLOAD PUSH1 0x40 MLOAD PUSH4 0xD4E54C3B PUSH1 0xE0 SHL DUP2 MSTORE PUSH1 0x4 DUP2 ADD DUP4 SWAP1 MSTORE PUSH3 0x93A800 PUSH1 0x24 DUP3 ADD MSTORE PUSH1 0x1 PUSH1 0x1 PUSH1 0xA0 SHL SUB DUP7 DUP2 AND PUSH1 0x44 DUP4 ADD MSTORE SWAP1 SWAP2 AND SWAP1 PUSH4 0xD4E54C3B SWAP1 PUSH1 0x64 ADD PUSH1 0x0 PUSH1 0x40 MLOAD DUP1 DUP4 SUB DUP2 PUSH1 0x0 DUP8 DUP1 EXTCODESIZE ISZERO DUP1 ISZERO PUSH2 0xF4C JUMPI PUSH1 0x0 DUP1 REVERT JUMPDEST POP GAS CALL ISZERO DUP1 ISZERO PUSH2 0xF60 JUMPI RETURNDATASIZE PUSH1 0x0 DUP1 RETURNDATACOPY RETURNDATASIZE PUSH1 0x0 REVERT JUMPDEST POP POP POP POP POP POP POP POP JUMP JUMPDEST PUSH1 0x0 DUP2 DUP4 PUSH2 0xF8B JUMPI PUSH1 0x40 MLOAD PUSH3 0x461BCD PUSH1 0xE5 SHL DUP2 MSTORE PUSH1 0x4 ADD PUSH2 0x462 SWAP2 SWAP1 PUSH2 0x16BA JUMP JUMPDEST POP PUSH1 0x0 PUSH2 0xF98 DUP5 DUP7 PUSH2 0x1698 JUMP JUMPDEST SWAP6 SWAP5 POP POP POP POP POP JUMP JUMPDEST PUSH1 0x0 DUP1 PUSH2 0xFAD DUP4 PUSH2 0x422 JUMP JUMPDEST SWAP1 SWAP3 POP SWAP1 POP DUP2 ISZERO PUSH2 0xFD5 JUMPI PUSH1 0x3 SLOAD PUSH1 0x4 SLOAD PUSH2 0xFD5 SWAP2 PUSH1 0x1 PUSH1 0x1 PUSH1 0xA0 SHL SUB SWAP1 DUP2 AND SWAP2 AND DUP5 PUSH2 0xFE9 JUMP JUMPDEST DUP1 ISZERO PUSH2 0xFE4 JUMPI PUSH2 0xFE4 DUP2 PUSH2 0x1161 JUMP JUMPDEST POP POP POP JUMP JUMPDEST PUSH1 0x40 DUP1 MLOAD PUSH1 0x1 DUP1 DUP3 MSTORE DUP2 DUP4 ADD SWAP1 SWAP3 MSTORE PUSH1 0x0 SWAP2 DUP2 PUSH1 0x20 ADD JUMPDEST PUSH1 0x40 DUP1 MLOAD PUSH1 0x60 DUP2 ADD DUP3 MSTORE PUSH1 0x0 DUP1 DUP3 MSTORE PUSH1 0x20 DUP1 DUP4 ADD DUP3 SWAP1 MSTORE SWAP3 DUP3 ADD MSTORE DUP3 MSTORE PUSH1 0x0 NOT SWAP1 SWAP3 ADD SWAP2 ADD DUP2 PUSH2 0x1000 JUMPI POP POP PUSH1 0x1 SLOAD DUP2 MLOAD SWAP2 SWAP3 POP PUSH1 0x1 PUSH1 0x1 PUSH1 0xA0 SHL SUB AND SWAP1 DUP3 SWAP1 PUSH1 0x0 SWAP1 PUSH2 0x104F JUMPI PUSH2 0x104F PUSH2 0x14F7 JUMP JUMPDEST PUSH1 0x20 MUL PUSH1 0x20 ADD ADD MLOAD PUSH1 0x0 ADD SWAP1 PUSH1 0x1 PUSH1 0x1 PUSH1 0xA0 SHL SUB AND SWAP1 DUP2 PUSH1 0x1 PUSH1 0x1 PUSH1 0xA0 SHL SUB AND DUP2 MSTORE POP POP DUP3 DUP2 PUSH1 0x0 DUP2 MLOAD DUP2 LT PUSH2 0x1087 JUMPI PUSH2 0x1087 PUSH2 0x14F7 JUMP JUMPDEST PUSH1 0x20 MUL PUSH1 0x20 ADD ADD MLOAD PUSH1 0x20 ADD SWAP1 PUSH1 0x1 PUSH1 0x1 PUSH1 0xA0 SHL SUB AND SWAP1 DUP2 PUSH1 0x1 PUSH1 0x1 PUSH1 0xA0 SHL SUB AND DUP2 MSTORE POP POP PUSH1 0x0 DUP2 PUSH1 0x0 DUP2 MLOAD DUP2 LT PUSH2 0x10C0 JUMPI PUSH2 0x10C0 PUSH2 0x14F7 JUMP JUMPDEST PUSH1 0x20 SWAP1 DUP2 MUL SWAP2 SWAP1 SWAP2 ADD ADD MLOAD SWAP1 ISZERO ISZERO PUSH1 0x40 SWAP1 SWAP2 ADD MSTORE PUSH1 0x1 PUSH1 0x1 PUSH1 0xA0 SHL SUB DUP5 AND PUSH4 0xE8EF4681 DUP4 PUSH1 0x1 DUP5 ADDRESS PUSH2 0x10F4 TIMESTAMP PUSH2 0x708 PUSH2 0x1661 JUMP JUMPDEST PUSH1 0x40 MLOAD DUP7 PUSH4 0xFFFFFFFF AND PUSH1 0xE0 SHL DUP2 MSTORE PUSH1 0x4 ADD PUSH2 0x1113 SWAP5 SWAP4 SWAP3 SWAP2 SWAP1 PUSH2 0x170F JUMP JUMPDEST PUSH1 0x0 PUSH1 0x40 MLOAD DUP1 DUP4 SUB DUP2 DUP6 DUP9 GAS CALL ISZERO DUP1 ISZERO PUSH2 0x1131 JUMPI RETURNDATASIZE PUSH1 0x0 DUP1 RETURNDATACOPY RETURNDATASIZE PUSH1 0x0 REVERT JUMPDEST POP POP POP POP POP PUSH1 0x40 MLOAD RETURNDATASIZE PUSH1 0x0 DUP3 RETURNDATACOPY PUSH1 0x1F RETURNDATASIZE SWAP1 DUP2 ADD PUSH1 0x1F NOT AND DUP3 ADD PUSH1 0x40 MSTORE PUSH2 0x115A SWAP2 SWAP1 DUP2 ADD SWAP1 PUSH2 0x158D JUMP JUMPDEST POP POP POP POP POP JUMP JUMPDEST PUSH1 0x0 PUSH2 0x116C DUP3 PUSH2 0x7AE JUMP JUMPDEST PUSH1 0x8 SLOAD PUSH1 0x40 MLOAD PUSH4 0x22797737 PUSH1 0xE1 SHL DUP2 MSTORE PUSH1 0x4 DUP2 ADD DUP4 SWAP1 MSTORE SWAP2 SWAP3 POP PUSH1 0x1 PUSH1 0x1 PUSH1 0xA0 SHL SUB AND SWAP1 PUSH4 0x44F2EE6E SWAP1 PUSH1 0x24 ADD PUSH1 0x0 PUSH1 0x40 MLOAD DUP1 DUP4 SUB DUP2 PUSH1 0x0 DUP8 DUP1 EXTCODESIZE ISZERO DUP1 ISZERO PUSH2 0x11B3 JUMPI PUSH1 0x0 DUP1 REVERT JUMPDEST POP GAS CALL ISZERO DUP1 ISZERO PUSH2 0x11C7 JUMPI RETURNDATASIZE PUSH1 0x0 DUP1 RETURNDATACOPY RETURNDATASIZE PUSH1 0x0 REVERT JUMPDEST POP POP POP POP PUSH1 0x0 PUSH2 0x11E1 PUSH1 0x2 DUP5 PUSH2 0xB21 SWAP1 SWAP2 SWAP1 PUSH4 0xFFFFFFFF AND JUMP JUMPDEST PUSH1 0x7 SLOAD PUSH1 0x40 MLOAD SWAP2 SWAP3 POP PUSH1 0x1 PUSH1 0x1 PUSH1 0xA0 SHL SUB AND SWAP1 DUP3 ISZERO PUSH2 0x8FC MUL SWAP1 DUP4 SWAP1 PUSH1 0x0 DUP2 DUP2 DUP2 DUP6 DUP9 DUP9 CALL SWAP4 POP POP POP POP ISZERO DUP1 ISZERO PUSH2 0x121C JUMPI RETURNDATASIZE PUSH1 0x0 DUP1 RETURNDATACOPY RETURNDATASIZE PUSH1 0x0 REVERT JUMPDEST POP PUSH2 0xFE4 DUP2 PUSH1 0x0 PUSH2 0x122C DUP3 PUSH2 0x7AE JUMP JUMPDEST PUSH1 0x8 SLOAD PUSH1 0x40 MLOAD PUSH4 0x22797737 PUSH1 0xE1 SHL DUP2 MSTORE PUSH1 0x4 DUP2 ADD DUP4 SWAP1 MSTORE SWAP2 SWAP3 POP PUSH1 0x1 PUSH1 0x1 PUSH1 0xA0 SHL SUB AND SWAP1 PUSH4 0x44F2EE6E SWAP1 PUSH1 0x24 ADD PUSH1 0x0 PUSH1 0x40 MLOAD DUP1 DUP4 SUB DUP2 PUSH1 0x0 DUP8 DUP1 EXTCODESIZE ISZERO DUP1 ISZERO PUSH2 0x1273 JUMPI PUSH1 0x0 DUP1 REVERT JUMPDEST POP GAS CALL ISZERO DUP1 ISZERO PUSH2 0x1287 JUMPI RETURNDATASIZE PUSH1 0x0 DUP1 RETURNDATACOPY RETURNDATASIZE PUSH1 0x0 REVERT JUMPDEST POP POP PUSH1 0x4 DUP1 SLOAD PUSH1 0x3 SLOAD PUSH1 0x40 MLOAD PUSH4 0x95EA7B3 PUSH1 0xE0 SHL DUP2 MSTORE PUSH1 0x1 PUSH1 0x1 PUSH1 0xA0 SHL SUB SWAP2 DUP3 AND SWAP4 DUP2 ADD SWAP4 SWAP1 SWAP4 MSTORE PUSH1 0x24 DUP4 ADD DUP7 SWAP1 MSTORE AND SWAP3 POP PUSH4 0x95EA7B3 SWAP2 POP PUSH1 0x44 ADD PUSH1 0x20 PUSH1 0x40 MLOAD DUP1 DUP4 SUB DUP2 PUSH1 0x0 DUP8 GAS CALL ISZERO DUP1 ISZERO PUSH2 0x12E2 JUMPI RETURNDATASIZE PUSH1 0x0 DUP1 RETURNDATACOPY RETURNDATASIZE PUSH1 0x0 REVERT JUMPDEST POP POP POP POP PUSH1 0x40 MLOAD RETURNDATASIZE PUSH1 0x1F NOT PUSH1 0x1F DUP3 ADD AND DUP3 ADD DUP1 PUSH1 0x40 MSTORE POP DUP2 ADD SWAP1 PUSH2 0x1306 SWAP2 SWAP1 PUSH2 0x14A6 JUMP JUMPDEST POP PUSH1 0x3 SLOAD PUSH1 0x4 SLOAD PUSH1 0x9 SLOAD PUSH1 0x1 PUSH1 0x1 PUSH1 0xA0 SHL SUB SWAP3 DUP4 AND SWAP3 PUSH4 0x578CAF32 SWAP3 DUP7 SWAP3 SWAP1 DUP3 AND SWAP2 PUSH1 0x0 SWAP2 DUP8 SWAP2 DUP4 SWAP2 DUP3 SWAP2 AND PUSH2 0x133E TIMESTAMP PUSH2 0x384 PUSH2 0x1661 JUMP JUMPDEST PUSH1 0x40 MLOAD PUSH1 0xE0 DUP11 SWAP1 SHL PUSH1 0x1 PUSH1 0x1 PUSH1 0xE0 SHL SUB NOT AND DUP2 MSTORE PUSH1 0x1 PUSH1 0x1 PUSH1 0xA0 SHL SUB SWAP8 DUP9 AND PUSH1 0x4 DUP3 ADD MSTORE SWAP6 ISZERO ISZERO PUSH1 0x24 DUP8 ADD MSTORE PUSH1 0x44 DUP7 ADD SWAP5 SWAP1 SWAP5 MSTORE PUSH1 0x64 DUP6 ADD SWAP3 SWAP1 SWAP3 MSTORE PUSH1 0x84 DUP5 ADD MSTORE SWAP1 SWAP3 AND PUSH1 0xA4 DUP3 ADD MSTORE PUSH1 0xC4 DUP2 ADD SWAP2 SWAP1 SWAP2 MSTORE PUSH1 0xE4 ADD PUSH1 0x60 PUSH1 0x40 MLOAD DUP1 DUP4 SUB DUP2 DUP6 DUP9 GAS CALL ISZERO DUP1 ISZERO PUSH2 0x13B0 JUMPI RETURNDATASIZE PUSH1 0x0 DUP1 RETURNDATACOPY RETURNDATASIZE PUSH1 0x0 REVERT JUMPDEST POP POP POP POP POP PUSH1 0x40 MLOAD RETURNDATASIZE PUSH1 0x1F NOT PUSH1 0x1F DUP3 ADD AND DUP3 ADD DUP1 PUSH1 0x40 MSTORE POP DUP2 ADD SWAP1 PUSH2 0x115A SWAP2 SWAP1 PUSH2 0x1744 JUMP JUMPDEST PUSH1 0x0 PUSH1 0x20 DUP3 DUP5 SUB SLT ISZERO PUSH2 0x13E7 JUMPI PUSH1 0x0 DUP1 REVERT JUMPDEST POP CALLDATALOAD SWAP2 SWAP1 POP JUMP JUMPDEST DUP1 CALLDATALOAD PUSH1 0x1 PUSH1 0x1 PUSH1 0xA0 SHL SUB DUP2 AND DUP2 EQ PUSH2 0x1405 JUMPI PUSH1 0x0 DUP1 REVERT JUMPDEST SWAP2 SWAP1 POP JUMP JUMPDEST PUSH1 0x0 PUSH1 0x20 DUP3 DUP5 SUB SLT ISZERO PUSH2 0x141C JUMPI PUSH1 0x0 DUP1 REVERT JUMPDEST PUSH2 0xB63 DUP3 PUSH2 0x13EE JUMP JUMPDEST PUSH1 0x0 DUP1 PUSH1 0x40 DUP4 DUP6 SUB SLT ISZERO PUSH2 0x1438 JUMPI PUSH1 0x0 DUP1 REVERT JUMPDEST POP POP DUP1 CALLDATALOAD SWAP3 PUSH1 0x20 SWAP1 SWAP2 ADD CALLDATALOAD SWAP2 POP JUMP JUMPDEST PUSH1 0x0 DUP1 PUSH1 0x40 DUP4 DUP6 SUB SLT ISZERO PUSH2 0x145A JUMPI PUSH1 0x0 DUP1 REVERT JUMPDEST PUSH2 0x1463 DUP4 PUSH2 0x13EE JUMP JUMPDEST SWAP5 PUSH1 0x20 SWAP4 SWAP1 SWAP4 ADD CALLDATALOAD SWAP4 POP POP POP JUMP JUMPDEST PUSH1 0x20 DUP1 DUP3 MSTORE DUP2 DUP2 ADD MSTORE PUSH32 0x4F776E61626C653A2063616C6C6572206973206E6F7420746865206F776E6572 PUSH1 0x40 DUP3 ADD MSTORE PUSH1 0x60 ADD SWAP1 JUMP JUMPDEST PUSH1 0x0 PUSH1 0x20 DUP3 DUP5 SUB SLT ISZERO PUSH2 0x14B8 JUMPI PUSH1 0x0 DUP1 REVERT JUMPDEST DUP2 MLOAD DUP1 ISZERO ISZERO DUP2 EQ PUSH2 0xB63 JUMPI PUSH1 0x0 DUP1 REVERT JUMPDEST PUSH1 0x0 PUSH1 0x20 DUP3 DUP5 SUB SLT ISZERO PUSH2 0x14DA JUMPI PUSH1 0x0 DUP1 REVERT JUMPDEST POP MLOAD SWAP2 SWAP1 POP JUMP JUMPDEST PUSH4 0x4E487B71 PUSH1 0xE0 SHL PUSH1 0x0 MSTORE PUSH1 0x41 PUSH1 0x4 MSTORE PUSH1 0x24 PUSH1 0x0 REVERT JUMPDEST PUSH4 0x4E487B71 PUSH1 0xE0 SHL PUSH1 0x0 MSTORE PUSH1 0x32 PUSH1 0x4 MSTORE PUSH1 0x24 PUSH1 0x0 REVERT JUMPDEST PUSH1 0x0 DUP2 MLOAD DUP1 DUP5 MSTORE PUSH1 0x20 DUP1 DUP6 ADD SWAP5 POP DUP1 DUP5 ADD PUSH1 0x0 JUMPDEST DUP4 DUP2 LT ISZERO PUSH2 0x1561 JUMPI DUP2 MLOAD DUP1 MLOAD PUSH1 0x1 PUSH1 0x1 PUSH1 0xA0 SHL SUB SWAP1 DUP2 AND DUP10 MSTORE DUP5 DUP3 ADD MLOAD AND DUP5 DUP10 ADD MSTORE PUSH1 0x40 SWAP1 DUP2 ADD MLOAD ISZERO ISZERO SWAP1 DUP9 ADD MSTORE PUSH1 0x60 SWAP1 SWAP7 ADD SWAP6 SWAP1 DUP3 ADD SWAP1 PUSH1 0x1 ADD PUSH2 0x1521 JUMP JUMPDEST POP SWAP5 SWAP6 SWAP5 POP POP POP POP POP JUMP JUMPDEST DUP3 DUP2 MSTORE PUSH1 0x40 PUSH1 0x20 DUP3 ADD MSTORE PUSH1 0x0 PUSH2 0x1585 PUSH1 0x40 DUP4 ADD DUP5 PUSH2 0x150D JUMP JUMPDEST SWAP5 SWAP4 POP POP POP POP JUMP JUMPDEST PUSH1 0x0 PUSH1 0x20 DUP1 DUP4 DUP6 SUB SLT ISZERO PUSH2 0x15A0 JUMPI PUSH1 0x0 DUP1 REVERT JUMPDEST DUP3 MLOAD PUSH8 0xFFFFFFFFFFFFFFFF DUP1 DUP3 GT ISZERO PUSH2 0x15B8 JUMPI PUSH1 0x0 DUP1 REVERT JUMPDEST DUP2 DUP6 ADD SWAP2 POP DUP6 PUSH1 0x1F DUP4 ADD SLT PUSH2 0x15CC JUMPI PUSH1 0x0 DUP1 REVERT JUMPDEST DUP2 MLOAD DUP2 DUP2 GT ISZERO PUSH2 0x15DE JUMPI PUSH2 0x15DE PUSH2 0x14E1 JUMP JUMPDEST DUP1 PUSH1 0x5 SHL PUSH1 0x40 MLOAD PUSH1 0x1F NOT PUSH1 0x3F DUP4 ADD AND DUP2 ADD DUP2 DUP2 LT DUP6 DUP3 GT OR ISZERO PUSH2 0x1603 JUMPI PUSH2 0x1603 PUSH2 0x14E1 JUMP JUMPDEST PUSH1 0x40 MSTORE SWAP2 DUP3 MSTORE DUP5 DUP3 ADD SWAP3 POP DUP4 DUP2 ADD DUP6 ADD SWAP2 DUP9 DUP4 GT ISZERO PUSH2 0x1621 JUMPI PUSH1 0x0 DUP1 REVERT JUMPDEST SWAP4 DUP6 ADD SWAP4 JUMPDEST DUP3 DUP6 LT ISZERO PUSH2 0x163F JUMPI DUP5 MLOAD DUP5 MSTORE SWAP4 DUP6 ADD SWAP4 SWAP3 DUP6 ADD SWAP3 PUSH2 0x1626 JUMP JUMPDEST SWAP9 SWAP8 POP POP POP POP POP POP POP POP JUMP JUMPDEST PUSH4 0x4E487B71 PUSH1 0xE0 SHL PUSH1 0x0 MSTORE PUSH1 0x11 PUSH1 0x4 MSTORE PUSH1 0x24 PUSH1 0x0 REVERT JUMPDEST PUSH1 0x0 DUP3 NOT DUP3 GT ISZERO PUSH2 0x1674 JUMPI PUSH2 0x1674 PUSH2 0x164B JUMP JUMPDEST POP ADD SWAP1 JUMP JUMPDEST PUSH1 0x0 DUP2 PUSH1 0x0 NOT DIV DUP4 GT DUP3 ISZERO ISZERO AND ISZERO PUSH2 0x1693 JUMPI PUSH2 0x1693 PUSH2 0x164B JUMP JUMPDEST POP MUL SWAP1 JUMP JUMPDEST PUSH1 0x0 DUP3 PUSH2 0x16B5 JUMPI PUSH4 0x4E487B71 PUSH1 0xE0 SHL PUSH1 0x0 MSTORE PUSH1 0x12 PUSH1 0x4 MSTORE PUSH1 0x24 PUSH1 0x0 REVERT JUMPDEST POP DIV SWAP1 JUMP JUMPDEST PUSH1 0x0 PUSH1 0x20 DUP1 DUP4 MSTORE DUP4 MLOAD DUP1 DUP3 DUP6 ADD MSTORE PUSH1 0x0 JUMPDEST DUP2 DUP2 LT ISZERO PUSH2 0x16E7 JUMPI DUP6 DUP2 ADD DUP4 ADD MLOAD DUP6 DUP3 ADD PUSH1 0x40 ADD MSTORE DUP3 ADD PUSH2 0x16CB JUMP JUMPDEST DUP2 DUP2 GT ISZERO PUSH2 0x16F9 JUMPI PUSH1 0x0 PUSH1 0x40 DUP4 DUP8 ADD ADD MSTORE JUMPDEST POP PUSH1 0x1F ADD PUSH1 0x1F NOT AND SWAP3 SWAP1 SWAP3 ADD PUSH1 0x40 ADD SWAP4 SWAP3 POP POP POP JUMP JUMPDEST DUP5 DUP2 MSTORE PUSH1 0x80 PUSH1 0x20 DUP3 ADD MSTORE PUSH1 0x0 PUSH2 0x1728 PUSH1 0x80 DUP4 ADD DUP7 PUSH2 0x150D JUMP JUMPDEST PUSH1 0x1 PUSH1 0x1 PUSH1 0xA0 SHL SUB SWAP5 SWAP1 SWAP5 AND PUSH1 0x40 DUP4 ADD MSTORE POP PUSH1 0x60 ADD MSTORE SWAP3 SWAP2 POP POP JUMP JUMPDEST PUSH1 0x0 DUP1 PUSH1 0x0 PUSH1 0x60 DUP5 DUP7 SUB SLT ISZERO PUSH2 0x1759 JUMPI PUSH1 0x0 DUP1 REVERT JUMPDEST DUP4 MLOAD SWAP3 POP PUSH1 0x20 DUP5 ADD MLOAD SWAP2 POP PUSH1 0x40 DUP5 ADD MLOAD SWAP1 POP SWAP3 POP SWAP3 POP SWAP3 JUMP INVALID LOG2 PUSH5 0x6970667358 0x22 SLT KECCAK256 STATICCALL DIFFICULTY 0x21 0xE3 0xEC 0xB1 PUSH5 0x431CA505FC 0xCD SHL 0x24 0xD3 0xD POP 0xC4 0xE1 0xD3 PUSH4 0xF3112D29 LT GASLIMIT LOG2 0xF9 CALLER 0xD4 PUSH5 0x736F6C6343 STOP ADDMOD SIGNEXTEND STOP CALLER "
        },
        "methodIdentifiers": {
          "VE()": "c863657d",
          "WETH()": "ad5c4648",
          "beneficiary()": "38af3eed",
          "calculateToSplit(uint256)": "3a5b08e7",
          "convert(uint256)": "a3908e1b",
          "convertFor(address,uint256)": "aaa07362",
          "depositToken(uint256,uint256)": "9d2d04d1",
          "dexRouter()": "0758d924",
          "formula()": "4b75f54f",
          "getTokenPrice(uint256)": "c457fb37",
          "minLockTime()": "a60ff766",
          "minter()": "07546172",
          "owner()": "8da5cb5b",
          "percentToDex()": "dfa53724",
          "percentToSale()": "4f783ed0",
          "renounceOwnership()": "715018a6",
          "token()": "fc0c546a",
          "transferOwnership(address)": "f2fde38b",
          "treasury()": "61d027b3",
          "updateFormula(address)": "d5b49a71",
          "updateMinter(address)": "4eb03f6e",
          "updateSplitPercent(uint256,uint256)": "c757e5b5",
          "withdraw()": "3ccfd60b"
        }
      }
    }
  }
}