{
  "contracts/BaseV1-bribes.sol": {
    "BaseV1BribeFactory": {
      "abi": [
        {
          "inputs": [],
          "name": "createBribe",
          "outputs": [
            {
              "internalType": "address",
              "name": "",
              "type": "address"
            }
          ],
          "stateMutability": "nonpayable",
          "type": "function"
        },
        {
          "inputs": [],
          "name": "last_gauge",
          "outputs": [
            {
              "internalType": "address",
              "name": "",
              "type": "address"
            }
          ],
          "stateMutability": "view",
          "type": "function"
        }
      ],
      "evm": {
        "bytecode": {
          "linkReferences": {},
          "object": "608060405234801561001057600080fd5b50612776806100206000396000f3fe608060405234801561001057600080fd5b50600436106100365760003560e01c8063730a8bdb1461003b578063d27b9a781461006a575b600080fd5b60005461004e906001600160a01b031681565b6040516001600160a01b03909116815260200160405180910390f35b61004e60003360405161007c906100cd565b6001600160a01b039091168152602001604051809103906000f0801580156100a8573d6000803e3d6000fd5b50600080546001600160a01b0319166001600160a01b03929092169182179055919050565b612666806100db8339019056fe60c060405260016010553480156200001657600080fd5b5060405162002666380380620026668339810160408190526200003991620000bd565b6001600160a01b038116608081905260408051638dd598fb60e01b81529051638dd598fb916004808201926020929091908290030181865afa15801562000084573d6000803e3d6000fd5b505050506040513d601f19601f82011682018060405250810190620000aa9190620000bd565b6001600160a01b031660a05250620000ef565b600060208284031215620000d057600080fd5b81516001600160a01b0381168114620000e857600080fd5b9392505050565b60805160a05161252e62000138600039600081816103bb01528181610ca901526114af0152600081816104c801528181610a3e01528181610c6601526113c1015261252e6000f3fe608060405234801561001057600080fd5b50600436106102065760003560e01c80639e2bf22c1161011a578063e6886396116100ad578063f301af421161007c578063f301af4214610559578063f32077231461056c578063f5f8d3651461057f578063f7412baf14610592578063fd314098146105b957600080fd5b8063e68863961461050a578063e8111a1214610512578063f12297771461051b578063f25e55a51461052e57600080fd5b8063aaf5eb68116100e9578063aaf5eb68146104a1578063b66503cf146104b0578063c45a0155146104c3578063da09d19d146104ea57600080fd5b80639e2bf22c14610448578063a28d4c9c1461045b578063a7852afa1461046e578063aa4796521461048157600080fd5b80634d5ce0381161019d57806376f4be361161016c57806376f4be36146103a35780638dd598fb146103b657806399bcc052146103f55780639cc7f708146104085780639ce43f901461042857600080fd5b80634d5ce03814610328578063505897931461035b5780635a45d0521461037b578063638634ee1461039057600080fd5b80632ce9aead116101d95780632ce9aead146102985780633b881999146102b85780633e491d47146102e357806349dcc204146102f657600080fd5b806301316ddf1461020b57806318160ddd146102575780631be052891461026e578063221ca18c14610278575b600080fd5b61023d610219366004612243565b600e6020908152600092835260408084209091529082529020805460019091015482565b604080519283526020830191909152015b60405180910390f35b61026060085481565b60405190815260200161024e565b61026062093a8081565b61026061028636600461226f565b60006020819052908152604090205481565b6102606102a636600461226f565b60026020526000908152604090205481565b6102606102c6366004612243565b600560209081526000928352604080842090915290825290205481565b6102606102f1366004612243565b6105cc565b61023d61030436600461228c565b600a6020908152600092835260408084209091529082529020805460019091015482565b61034b61033636600461226f565b60076020526000908152604090205460ff1681565b604051901515815260200161024e565b6102606103693660046122ae565b600b6020526000908152604090205481565b61038e610389366004612243565b610834565b005b61026061039e36600461226f565b61086c565b6102606103b13660046122ae565b610890565b6103dd7f000000000000000000000000000000000000000000000000000000000000000081565b6040516001600160a01b03909116815260200161024e565b61026061040336600461226f565b6109c2565b6102606104163660046122ae565b60096020526000908152604090205481565b61026061043636600461226f565b60036020526000908152604090205481565b61038e61045636600461228c565b610a33565b61026061046936600461228c565b610b04565b61038e61047c3660046122dd565b610c47565b61026061048f36600461226f565b600f6020526000908152604090205481565b610260670de0b6b3a764000081565b61038e6104be366004612243565b610f87565b6103dd7f000000000000000000000000000000000000000000000000000000000000000081565b6102606104f836600461226f565b60016020526000908152604090205481565b600654610260565b610260600d5481565b61026061052936600461226f565b6112ce565b61026061053c366004612243565b600460209081526000928352604080842090915290825290205481565b6103dd6105673660046122ae565b61138c565b61038e61057a36600461228c565b6113b6565b61038e61058d3660046122dd565b61147f565b61023d6105a03660046122ae565b600c602052600090815260409020805460019091015482565b61023d6105c7366004612243565b611786565b6001600160a01b0382166000818152600460209081526040808320858452825280832054938352600e82528083208380529091528120549091829161061191906119a5565b6000848152600b602052604090205490915061063157600091505061082e565b600061063d8483610b04565b6000858152600b60205260408120549192509061065c906001906123c4565b90506000600161066c84846123c4565b111561077257825b61067f6001846123c4565b811015610770576000878152600a60208181526040808420858552808352818520825180840190935280548352600190810154838501528c865293909252929182906106cc9086906123db565b8152602001908152602001600020604051806040016040529081600082015481526020016001820154815250509050600061070b8b8460000151611786565b509050600061071e8c8460000151611786565b509050670de0b6b3a764000061073483836123c4565b856020015161074391906123f3565b61074d9190612412565b61075790876123db565b955050505050808061076890612434565b915050610674565b505b6000868152600a602090815260408083208584528252808320815180830190925280548083526001909101549282019290925291906107b2908a90611786565b506001600160a01b038a1660009081526005602090815260408083208c8452909152902054909150670de0b6b3a7640000906107ef9083906119a5565b6107f88b6112ce565b61080291906123c4565b836020015161081191906123f3565b61081b9190612412565b61082590846123db565b96505050505050505b92915050565b61083e82826119bc565b6001600160a01b03909316600090815260036020908152604080832060029092529091209390935590915550565b6001600160a01b03811660009081526001602052604081205461082e904290611b1b565b600d54600090806108a45750600092915050565b82600c60006108b46001856123c4565b815260200190815260200160002060000154116108dd576108d66001826123c4565b9392505050565b60008052600c6020527f13649b2456f1b42fef0f0040b3aaeabcd21a76a0f3f5defd4f583839455116e8548310156109185750600092915050565b6000806109266001846123c4565b90505b818111156109ba576000600261093f84846123c4565b6109499190612412565b61095390836123c4565b6000818152600c6020908152604091829020825180840190935280548084526001909101549183019190915291925090871415610994575095945050505050565b80518711156109a5578193506109b3565b6109b06001836123c4565b92505b5050610929565b509392505050565b6001600160a01b03811660009081526001602052604081205442106109e957506000919050565b6001600160a01b038216600090815260016020526040812054610a0d9042906123c4565b6001600160a01b0384166000908152602081905260409020549091506108d690826123f3565b336001600160a01b037f00000000000000000000000000000000000000000000000000000000000000001614610a6857600080fd5b8160086000828254610a7a91906123c4565b909155505060008181526009602052604081208054849290610a9d9084906123c4565b9091555050600081815260096020526040902054610abc908290611b2a565b610ac4611c03565b604080518281526020810184905233917ff279e6a1f5e320cca91135676d9cb6e44ca8a08c0b88342bcdb1144f6511b56891015b60405180910390a25050565b6000828152600b602052604081205480610b2257600091505061082e565b6000848152600a602052604081208491610b3d6001856123c4565b81526020019081526020016000206000015411610b6757610b5f6001826123c4565b91505061082e565b6000848152600a60209081526040808320838052909152902054831015610b9257600091505061082e565b600080610ba06001846123c4565b90505b81811115610c3e5760006002610bb984846123c4565b610bc39190612412565b610bcd90836123c4565b6000888152600a60209081526040808320848452825291829020825180840190935280548084526001909101549183019190915291925090871415610c185750935061082e92505050565b8051871115610c2957819350610c37565b610c346001836123c4565b92505b5050610ba3565b50949350505050565b601054600114610c5657600080fd5b6002601055336001600160a01b037f00000000000000000000000000000000000000000000000000000000000000001614610c9057600080fd5b6040516331a9108f60e11b8152600481018390526000907f00000000000000000000000000000000000000000000000000000000000000006001600160a01b031690636352211e90602401602060405180830381865afa158015610cf8573d6000803e3d6000fd5b505050506040513d601f19601f82011682018060405250810190610d1c919061244f565b905060005b8251811015610f7c57610d4c838281518110610d3f57610d3f61246c565b6020026020010151611ca7565b60036000868581518110610d6257610d6261246c565b60200260200101516001600160a01b03166001600160a01b03168152602001908152602001600020600060026000888781518110610da257610da261246c565b60200260200101516001600160a01b03166001600160a01b0316815260200190815260200160002060008491905055839190505550506000610dfd848381518110610def57610def61246c565b6020026020010151866105cc565b90504260046000868581518110610e1657610e1661246c565b60200260200101516001600160a01b03166001600160a01b0316815260200190815260200160002060008781526020019081526020016000208190555060036000858481518110610e6957610e6961246c565b60200260200101516001600160a01b03166001600160a01b031681526020019081526020016000205460056000868581518110610ea857610ea861246c565b6020908102919091018101516001600160a01b0316825281810192909252604090810160009081208982529092529020558015610f0357610f03848381518110610ef457610ef461246c565b60200260200101518483611e8a565b838281518110610f1557610f1561246c565b60200260200101516001600160a01b0316836001600160a01b03167f9aa05b3d70a9e3e2f004f039648839560576334fb45c81f91b6db03ad9e2efc983604051610f6191815260200190565b60405180910390a35080610f7481612434565b915050610d21565b505060016010555050565b601054600114610f9657600080fd5b600260105580610fa557600080fd5b6001600160a01b038216600090815260208190526040902054610fce57610fce82600042611f79565b610fd782611ca7565b6001600160a01b03841660009081526003602090815260408083206002835281842094909455939092556001909152205442106110455761101a82333084612068565b61102762093a8082612412565b6001600160a01b0383166000908152602081905260409020556110de565b6001600160a01b0382166000908152600160205260408120546110699042906123c4565b6001600160a01b0384166000908152602081905260408120549192509061109090836123f3565b905080831161109e57600080fd5b6110aa84333086612068565b62093a806110b882856123db565b6110c29190612412565b6001600160a01b03851660009081526020819052604090205550505b6001600160a01b03821660009081526020819052604090205461110057600080fd5b6040516370a0823160e01b81523060048201526000906001600160a01b038416906370a0823190602401602060405180830381865afa158015611147573d6000803e3d6000fd5b505050506040513d601f19601f8201168201806040525081019061116b9190612482565b905061117a62093a8082612412565b6001600160a01b03841660009081526020819052604090205411156111e55760405162461bcd60e51b815260206004820152601860248201527f50726f76696465642072657761726420746f6f20686967680000000000000000604482015260640160405180910390fd5b6111f262093a80426123db565b6001600160a01b03841660009081526001602090815260408083209390935560079052205460ff16611284576001600160a01b0383166000818152600760205260408120805460ff191660019081179091556006805491820181559091527ff652222313e28459528d920b65115c16c04f3efc82aaedc97be59f3f377c0d3f0180546001600160a01b03191690911790555b6040518281526001600160a01b0384169033907ff70d5c697de7ea828df48e5c4573cb2194c659f1901f70110c52b066dcf508269060200160405180910390a35050600160105550565b6000600854600014156112f757506001600160a01b031660009081526003602052604090205490565b6008546001600160a01b0383166000908152602081815260408083205460028352818420546001909352922054670de0b6b3a7640000929161133891611b1b565b6113418661086c565b61134b91906123c4565b61135591906123f3565b61135f91906123f3565b6113699190612412565b6001600160a01b03831660009081526003602052604090205461082e91906123db565b6006818154811061139c57600080fd5b6000918252602090912001546001600160a01b0316905081565b336001600160a01b037f000000000000000000000000000000000000000000000000000000000000000016146113eb57600080fd5b81600860008282546113fd91906123db565b9091555050600081815260096020526040812080548492906114209084906123db565b909155505060008181526009602052604090205461143f908290611b2a565b611447611c03565b604080518281526020810184905233917f90890809c654f11d6e72a28fa60149770a0d11ec6c92319d6ceb2bb0a4ea1a159101610af8565b60105460011461148e57600080fd5b600260105560405163430c208160e01b8152336004820152602481018390527f00000000000000000000000000000000000000000000000000000000000000006001600160a01b03169063430c208190604401602060405180830381865afa1580156114fe573d6000803e3d6000fd5b505050506040513d601f19601f82011682018060405250810190611522919061249b565b61152b57600080fd5b60005b815181101561177c5761154c828281518110610d3f57610d3f61246c565b600360008585815181106115625761156261246c565b60200260200101516001600160a01b03166001600160a01b031681526020019081526020016000206000600260008787815181106115a2576115a261246c565b60200260200101516001600160a01b03166001600160a01b03168152602001908152602001600020600084919050558391905055505060006115fd8383815181106115ef576115ef61246c565b6020026020010151856105cc565b905042600460008585815181106116165761161661246c565b60200260200101516001600160a01b03166001600160a01b03168152602001908152602001600020600086815260200190815260200160002081905550600360008484815181106116695761166961246c565b60200260200101516001600160a01b03166001600160a01b0316815260200190815260200160002054600560008585815181106116a8576116a861246c565b6020908102919091018101516001600160a01b0316825281810192909252604090810160009081208882529092529020558015611703576117038383815181106116f4576116f461246c565b60200260200101513383611e8a565b8282815181106117155761171561246c565b60200260200101516001600160a01b0316336001600160a01b03167f9aa05b3d70a9e3e2f004f039648839560576334fb45c81f91b6db03ad9e2efc98360405161176191815260200190565b60405180910390a3508061177481612434565b91505061152e565b5050600160105550565b6001600160a01b0382166000908152600f60205260408120548190806117b357600080925092505061199e565b6001600160a01b0385166000908152600e6020526040812085916117d86001856123c4565b81526020019081526020016000206000015411611875576001600160a01b0385166000908152600e60205260408120906118136001846123c4565b815260200190815260200160002060010154600e6000876001600160a01b03166001600160a01b03168152602001908152602001600020600060018461185991906123c4565b815260200190815260200160002060000154925092505061199e565b6001600160a01b0385166000908152600e602090815260408083208380529091529020548410156118ad57600080925092505061199e565b6000806118bb6001846123c4565b90505b8181111561196d57600060026118d484846123c4565b6118de9190612412565b6118e890836123c4565b6001600160a01b0389166000908152600e602090815260408083208484528252918290208251808401909352805480845260019091015491830191909152919250908814156119475760208101519051909650945061199e9350505050565b805188111561195857819350611966565b6119636001836123c4565b92505b50506118be565b506001600160a01b0386166000908152600e6020908152604080832093835292905220600181015490549093509150505b9250929050565b6000818310156119b557816108d6565b5090919050565b6001600160a01b0382166000908152600260209081526040808320546003909252822054600d54839291906119f4579250905061199e565b6001600160a01b038616600090815260208190526040902054611a1d57925042915061199e9050565b6000611a2883610890565b90506000611a446001600d54611a3e91906123c4565b88611b1b565b9050815b81811015611b0c576000818152600c60209081526040918290208251808401909352805483526001015490820181905215611af9576000600c81611a8d8560016123db565b8152602001908152602001600020604051806040016040529081600082015481526020016001820154815250509050600080611ad88d8460000151866000015187602001518d612160565b9092509050611ae782896123db565b9750611af48d8983611f79565b975050505b5080611b0481612434565b915050611a48565b50919792965091945050505050565b60008183106119b557816108d6565b6000828152600b602052604090205442908015801590611b7457506000848152600a602052604081208391611b606001856123c4565b815260200190815260200160002060000154145b15611bad576000848152600a602052604081208491611b946001856123c4565b8152602081019190915260400160002060010155611bfd565b60408051808201825283815260208082018681526000888152600a8352848120868252909252929020905181559051600191820155611bed9082906123db565b6000858152600b60205260409020555b50505050565b600d54428115801590611c35575080600c6000611c216001866123c4565b815260200190815260200160002060000154145b15611c6457600854600c6000611c4c6001866123c4565b81526020810191909152604001600020600101555050565b60408051808201825282815260085460208083019182526000868152600c90915292909220905181559051600191820155611ca09083906123db565b600d555050565b6001600160a01b0381166000908152600260209081526040808320546003909252822054600d5483929190611cdf5794909350915050565b6001600160a01b038516600090815260208190526040902054611d06579442945092505050565b6000611d1183610890565b905060006001600d54611d2491906123c4565b90506001611d3283836123c4565b1115611e0a57815b611d456001836123c4565b811015611e08576000818152600c60209081526040918290208251808401909352805483526001015490820181905215611df5576000600c81611d898560016123db565b8152602001908152602001600020604051806040016040529081600082015481526020016001820154815250509050600080611dd48c8460000151866000015187602001518d612160565b9092509050611de382896123db565b9750611df08c8983611f79565b975050505b5080611e0081612434565b915050611d3a565b505b6000818152600c60209081526040918290208251808401909352805483526001015490820181905215611e7c576000611e5d89611e468b61086c565b8451611e52908a6119a5565b85602001518a612160565b509050611e6a81866123db565b9450611e77898642611f79565b429550505b509196929550919350505050565b6000836001600160a01b03163b11611ea157600080fd5b604080516001600160a01b038481166024830152604480830185905283518084039091018152606490920183526020820180516001600160e01b031663a9059cbb60e01b1790529151600092839290871691611efd91906124bd565b6000604051808303816000865af19150503d8060008114611f3a576040519150601f19603f3d011682016040523d82523d6000602084013e611f3f565b606091505b5091509150818015611f69575080511580611f69575080806020019051810190611f69919061249b565b611f7257600080fd5b5050505050565b6001600160a01b0383166000908152600f60205260409020548015801590611fd557506001600160a01b0384166000908152600e602052604081208391611fc16001856123c4565b815260200190815260200160002060000154145b15611fff576001600160a01b0384166000908152600e602052604081208491611b946001856123c4565b60408051808201825283815260208082018681526001600160a01b0388166000908152600e83528481208682529092529290209051815590516001918201556120499082906123db565b6001600160a01b0385166000908152600f602052604090205550505050565b6000846001600160a01b03163b1161207f57600080fd5b604080516001600160a01b0385811660248301528481166044830152606480830185905283518084039091018152608490920183526020820180516001600160e01b03166323b872dd60e01b17905291516000928392908816916120e391906124bd565b6000604051808303816000865af19150503d8060008114612120576040519150601f19603f3d011682016040523d82523d6000602084013e612125565b606091505b509150915081801561214f57508051158061214f57508080602001905181019061214f919061249b565b61215857600080fd5b505050505050565b600080600061216f87856119a5565b6001600160a01b0389166000908152602081905260409020549091508590670de0b6b3a7640000906121c26121a48a896119a5565b6001600160a01b038d16600090815260016020526040902054611b1b565b6001600160a01b038c166000908152600160205260409020546121e6908690611b1b565b6121f091906123c4565b6121fa91906123f3565b61220491906123f3565b61220e9190612412565b9890975095505050505050565b6001600160a01b038116811461223057600080fd5b50565b803561223e8161221b565b919050565b6000806040838503121561225657600080fd5b82356122618161221b565b946020939093013593505050565b60006020828403121561228157600080fd5b81356108d68161221b565b6000806040838503121561229f57600080fd5b50508035926020909101359150565b6000602082840312156122c057600080fd5b5035919050565b634e487b7160e01b600052604160045260246000fd5b600080604083850312156122f057600080fd5b8235915060208084013567ffffffffffffffff8082111561231057600080fd5b818601915086601f83011261232457600080fd5b813581811115612336576123366122c7565b8060051b604051601f19603f8301168101818110858211171561235b5761235b6122c7565b60405291825284820192508381018501918983111561237957600080fd5b938501935b8285101561239e5761238f85612233565b8452938501939285019261237e565b8096505050505050509250929050565b634e487b7160e01b600052601160045260246000fd5b6000828210156123d6576123d66123ae565b500390565b600082198211156123ee576123ee6123ae565b500190565b600081600019048311821515161561240d5761240d6123ae565b500290565b60008261242f57634e487b7160e01b600052601260045260246000fd5b500490565b6000600019821415612448576124486123ae565b5060010190565b60006020828403121561246157600080fd5b81516108d68161221b565b634e487b7160e01b600052603260045260246000fd5b60006020828403121561249457600080fd5b5051919050565b6000602082840312156124ad57600080fd5b815180151581146108d657600080fd5b6000825160005b818110156124de57602081860181015185830152016124c4565b818111156124ed576000828501525b50919091019291505056fea2646970667358221220020f224512da46c0dedd77919a4016c292d2e19e5eeee0ad98191be59a06391d64736f6c634300080b0033a26469706673582212203932407200c9509cb6290de73576f4c2be9ca0b2088451ed0f5eeb4f50acf12f64736f6c634300080b0033",
          "opcodes": "PUSH1 0x80 PUSH1 0x40 MSTORE CALLVALUE DUP1 ISZERO PUSH2 0x10 JUMPI PUSH1 0x0 DUP1 REVERT JUMPDEST POP PUSH2 0x2776 DUP1 PUSH2 0x20 PUSH1 0x0 CODECOPY PUSH1 0x0 RETURN INVALID PUSH1 0x80 PUSH1 0x40 MSTORE CALLVALUE DUP1 ISZERO PUSH2 0x10 JUMPI PUSH1 0x0 DUP1 REVERT JUMPDEST POP PUSH1 0x4 CALLDATASIZE LT PUSH2 0x36 JUMPI PUSH1 0x0 CALLDATALOAD PUSH1 0xE0 SHR DUP1 PUSH4 0x730A8BDB EQ PUSH2 0x3B JUMPI DUP1 PUSH4 0xD27B9A78 EQ PUSH2 0x6A JUMPI JUMPDEST PUSH1 0x0 DUP1 REVERT JUMPDEST PUSH1 0x0 SLOAD PUSH2 0x4E SWAP1 PUSH1 0x1 PUSH1 0x1 PUSH1 0xA0 SHL SUB AND DUP2 JUMP JUMPDEST PUSH1 0x40 MLOAD PUSH1 0x1 PUSH1 0x1 PUSH1 0xA0 SHL SUB SWAP1 SWAP2 AND DUP2 MSTORE PUSH1 0x20 ADD PUSH1 0x40 MLOAD DUP1 SWAP2 SUB SWAP1 RETURN JUMPDEST PUSH2 0x4E PUSH1 0x0 CALLER PUSH1 0x40 MLOAD PUSH2 0x7C SWAP1 PUSH2 0xCD JUMP JUMPDEST PUSH1 0x1 PUSH1 0x1 PUSH1 0xA0 SHL SUB SWAP1 SWAP2 AND DUP2 MSTORE PUSH1 0x20 ADD PUSH1 0x40 MLOAD DUP1 SWAP2 SUB SWAP1 PUSH1 0x0 CREATE DUP1 ISZERO DUP1 ISZERO PUSH2 0xA8 JUMPI RETURNDATASIZE PUSH1 0x0 DUP1 RETURNDATACOPY RETURNDATASIZE PUSH1 0x0 REVERT JUMPDEST POP PUSH1 0x0 DUP1 SLOAD PUSH1 0x1 PUSH1 0x1 PUSH1 0xA0 SHL SUB NOT AND PUSH1 0x1 PUSH1 0x1 PUSH1 0xA0 SHL SUB SWAP3 SWAP1 SWAP3 AND SWAP2 DUP3 OR SWAP1 SSTORE SWAP2 SWAP1 POP JUMP JUMPDEST PUSH2 0x2666 DUP1 PUSH2 0xDB DUP4 CODECOPY ADD SWAP1 JUMP INVALID PUSH1 0xC0 PUSH1 0x40 MSTORE PUSH1 0x1 PUSH1 0x10 SSTORE CALLVALUE DUP1 ISZERO PUSH3 0x16 JUMPI PUSH1 0x0 DUP1 REVERT JUMPDEST POP PUSH1 0x40 MLOAD PUSH3 0x2666 CODESIZE SUB DUP1 PUSH3 0x2666 DUP4 CODECOPY DUP2 ADD PUSH1 0x40 DUP2 SWAP1 MSTORE PUSH3 0x39 SWAP2 PUSH3 0xBD JUMP JUMPDEST PUSH1 0x1 PUSH1 0x1 PUSH1 0xA0 SHL SUB DUP2 AND PUSH1 0x80 DUP2 SWAP1 MSTORE PUSH1 0x40 DUP1 MLOAD PUSH4 0x8DD598FB PUSH1 0xE0 SHL DUP2 MSTORE SWAP1 MLOAD PUSH4 0x8DD598FB SWAP2 PUSH1 0x4 DUP1 DUP3 ADD SWAP3 PUSH1 0x20 SWAP3 SWAP1 SWAP2 SWAP1 DUP3 SWAP1 SUB ADD DUP2 DUP7 GAS STATICCALL ISZERO DUP1 ISZERO PUSH3 0x84 JUMPI RETURNDATASIZE PUSH1 0x0 DUP1 RETURNDATACOPY RETURNDATASIZE PUSH1 0x0 REVERT JUMPDEST POP POP POP POP PUSH1 0x40 MLOAD RETURNDATASIZE PUSH1 0x1F NOT PUSH1 0x1F DUP3 ADD AND DUP3 ADD DUP1 PUSH1 0x40 MSTORE POP DUP2 ADD SWAP1 PUSH3 0xAA SWAP2 SWAP1 PUSH3 0xBD JUMP JUMPDEST PUSH1 0x1 PUSH1 0x1 PUSH1 0xA0 SHL SUB AND PUSH1 0xA0 MSTORE POP PUSH3 0xEF JUMP JUMPDEST PUSH1 0x0 PUSH1 0x20 DUP3 DUP5 SUB SLT ISZERO PUSH3 0xD0 JUMPI PUSH1 0x0 DUP1 REVERT JUMPDEST DUP2 MLOAD PUSH1 0x1 PUSH1 0x1 PUSH1 0xA0 SHL SUB DUP2 AND DUP2 EQ PUSH3 0xE8 JUMPI PUSH1 0x0 DUP1 REVERT JUMPDEST SWAP4 SWAP3 POP POP POP JUMP JUMPDEST PUSH1 0x80 MLOAD PUSH1 0xA0 MLOAD PUSH2 0x252E PUSH3 0x138 PUSH1 0x0 CODECOPY PUSH1 0x0 DUP2 DUP2 PUSH2 0x3BB ADD MSTORE DUP2 DUP2 PUSH2 0xCA9 ADD MSTORE PUSH2 0x14AF ADD MSTORE PUSH1 0x0 DUP2 DUP2 PUSH2 0x4C8 ADD MSTORE DUP2 DUP2 PUSH2 0xA3E ADD MSTORE DUP2 DUP2 PUSH2 0xC66 ADD MSTORE PUSH2 0x13C1 ADD MSTORE PUSH2 0x252E PUSH1 0x0 RETURN INVALID PUSH1 0x80 PUSH1 0x40 MSTORE CALLVALUE DUP1 ISZERO PUSH2 0x10 JUMPI PUSH1 0x0 DUP1 REVERT JUMPDEST POP PUSH1 0x4 CALLDATASIZE LT PUSH2 0x206 JUMPI PUSH1 0x0 CALLDATALOAD PUSH1 0xE0 SHR DUP1 PUSH4 0x9E2BF22C GT PUSH2 0x11A JUMPI DUP1 PUSH4 0xE6886396 GT PUSH2 0xAD JUMPI DUP1 PUSH4 0xF301AF42 GT PUSH2 0x7C JUMPI DUP1 PUSH4 0xF301AF42 EQ PUSH2 0x559 JUMPI DUP1 PUSH4 0xF3207723 EQ PUSH2 0x56C JUMPI DUP1 PUSH4 0xF5F8D365 EQ PUSH2 0x57F JUMPI DUP1 PUSH4 0xF7412BAF EQ PUSH2 0x592 JUMPI DUP1 PUSH4 0xFD314098 EQ PUSH2 0x5B9 JUMPI PUSH1 0x0 DUP1 REVERT JUMPDEST DUP1 PUSH4 0xE6886396 EQ PUSH2 0x50A JUMPI DUP1 PUSH4 0xE8111A12 EQ PUSH2 0x512 JUMPI DUP1 PUSH4 0xF1229777 EQ PUSH2 0x51B JUMPI DUP1 PUSH4 0xF25E55A5 EQ PUSH2 0x52E JUMPI PUSH1 0x0 DUP1 REVERT JUMPDEST DUP1 PUSH4 0xAAF5EB68 GT PUSH2 0xE9 JUMPI DUP1 PUSH4 0xAAF5EB68 EQ PUSH2 0x4A1 JUMPI DUP1 PUSH4 0xB66503CF EQ PUSH2 0x4B0 JUMPI DUP1 PUSH4 0xC45A0155 EQ PUSH2 0x4C3 JUMPI DUP1 PUSH4 0xDA09D19D EQ PUSH2 0x4EA JUMPI PUSH1 0x0 DUP1 REVERT JUMPDEST DUP1 PUSH4 0x9E2BF22C EQ PUSH2 0x448 JUMPI DUP1 PUSH4 0xA28D4C9C EQ PUSH2 0x45B JUMPI DUP1 PUSH4 0xA7852AFA EQ PUSH2 0x46E JUMPI DUP1 PUSH4 0xAA479652 EQ PUSH2 0x481 JUMPI PUSH1 0x0 DUP1 REVERT JUMPDEST DUP1 PUSH4 0x4D5CE038 GT PUSH2 0x19D JUMPI DUP1 PUSH4 0x76F4BE36 GT PUSH2 0x16C JUMPI DUP1 PUSH4 0x76F4BE36 EQ PUSH2 0x3A3 JUMPI DUP1 PUSH4 0x8DD598FB EQ PUSH2 0x3B6 JUMPI DUP1 PUSH4 0x99BCC052 EQ PUSH2 0x3F5 JUMPI DUP1 PUSH4 0x9CC7F708 EQ PUSH2 0x408 JUMPI DUP1 PUSH4 0x9CE43F90 EQ PUSH2 0x428 JUMPI PUSH1 0x0 DUP1 REVERT JUMPDEST DUP1 PUSH4 0x4D5CE038 EQ PUSH2 0x328 JUMPI DUP1 PUSH4 0x50589793 EQ PUSH2 0x35B JUMPI DUP1 PUSH4 0x5A45D052 EQ PUSH2 0x37B JUMPI DUP1 PUSH4 0x638634EE EQ PUSH2 0x390 JUMPI PUSH1 0x0 DUP1 REVERT JUMPDEST DUP1 PUSH4 0x2CE9AEAD GT PUSH2 0x1D9 JUMPI DUP1 PUSH4 0x2CE9AEAD EQ PUSH2 0x298 JUMPI DUP1 PUSH4 0x3B881999 EQ PUSH2 0x2B8 JUMPI DUP1 PUSH4 0x3E491D47 EQ PUSH2 0x2E3 JUMPI DUP1 PUSH4 0x49DCC204 EQ PUSH2 0x2F6 JUMPI PUSH1 0x0 DUP1 REVERT JUMPDEST DUP1 PUSH4 0x1316DDF EQ PUSH2 0x20B JUMPI DUP1 PUSH4 0x18160DDD EQ PUSH2 0x257 JUMPI DUP1 PUSH4 0x1BE05289 EQ PUSH2 0x26E JUMPI DUP1 PUSH4 0x221CA18C EQ PUSH2 0x278 JUMPI JUMPDEST PUSH1 0x0 DUP1 REVERT JUMPDEST PUSH2 0x23D PUSH2 0x219 CALLDATASIZE PUSH1 0x4 PUSH2 0x2243 JUMP JUMPDEST PUSH1 0xE PUSH1 0x20 SWAP1 DUP2 MSTORE PUSH1 0x0 SWAP3 DUP4 MSTORE PUSH1 0x40 DUP1 DUP5 KECCAK256 SWAP1 SWAP2 MSTORE SWAP1 DUP3 MSTORE SWAP1 KECCAK256 DUP1 SLOAD PUSH1 0x1 SWAP1 SWAP2 ADD SLOAD DUP3 JUMP JUMPDEST PUSH1 0x40 DUP1 MLOAD SWAP3 DUP4 MSTORE PUSH1 0x20 DUP4 ADD SWAP2 SWAP1 SWAP2 MSTORE ADD JUMPDEST PUSH1 0x40 MLOAD DUP1 SWAP2 SUB SWAP1 RETURN JUMPDEST PUSH2 0x260 PUSH1 0x8 SLOAD DUP2 JUMP JUMPDEST PUSH1 0x40 MLOAD SWAP1 DUP2 MSTORE PUSH1 0x20 ADD PUSH2 0x24E JUMP JUMPDEST PUSH2 0x260 PUSH3 0x93A80 DUP2 JUMP JUMPDEST PUSH2 0x260 PUSH2 0x286 CALLDATASIZE PUSH1 0x4 PUSH2 0x226F JUMP JUMPDEST PUSH1 0x0 PUSH1 0x20 DUP2 SWAP1 MSTORE SWAP1 DUP2 MSTORE PUSH1 0x40 SWAP1 KECCAK256 SLOAD DUP2 JUMP JUMPDEST PUSH2 0x260 PUSH2 0x2A6 CALLDATASIZE PUSH1 0x4 PUSH2 0x226F JUMP JUMPDEST PUSH1 0x2 PUSH1 0x20 MSTORE PUSH1 0x0 SWAP1 DUP2 MSTORE PUSH1 0x40 SWAP1 KECCAK256 SLOAD DUP2 JUMP JUMPDEST PUSH2 0x260 PUSH2 0x2C6 CALLDATASIZE PUSH1 0x4 PUSH2 0x2243 JUMP JUMPDEST PUSH1 0x5 PUSH1 0x20 SWAP1 DUP2 MSTORE PUSH1 0x0 SWAP3 DUP4 MSTORE PUSH1 0x40 DUP1 DUP5 KECCAK256 SWAP1 SWAP2 MSTORE SWAP1 DUP3 MSTORE SWAP1 KECCAK256 SLOAD DUP2 JUMP JUMPDEST PUSH2 0x260 PUSH2 0x2F1 CALLDATASIZE PUSH1 0x4 PUSH2 0x2243 JUMP JUMPDEST PUSH2 0x5CC JUMP JUMPDEST PUSH2 0x23D PUSH2 0x304 CALLDATASIZE PUSH1 0x4 PUSH2 0x228C JUMP JUMPDEST PUSH1 0xA PUSH1 0x20 SWAP1 DUP2 MSTORE PUSH1 0x0 SWAP3 DUP4 MSTORE PUSH1 0x40 DUP1 DUP5 KECCAK256 SWAP1 SWAP2 MSTORE SWAP1 DUP3 MSTORE SWAP1 KECCAK256 DUP1 SLOAD PUSH1 0x1 SWAP1 SWAP2 ADD SLOAD DUP3 JUMP JUMPDEST PUSH2 0x34B PUSH2 0x336 CALLDATASIZE PUSH1 0x4 PUSH2 0x226F JUMP JUMPDEST PUSH1 0x7 PUSH1 0x20 MSTORE PUSH1 0x0 SWAP1 DUP2 MSTORE PUSH1 0x40 SWAP1 KECCAK256 SLOAD PUSH1 0xFF AND DUP2 JUMP JUMPDEST PUSH1 0x40 MLOAD SWAP1 ISZERO ISZERO DUP2 MSTORE PUSH1 0x20 ADD PUSH2 0x24E JUMP JUMPDEST PUSH2 0x260 PUSH2 0x369 CALLDATASIZE PUSH1 0x4 PUSH2 0x22AE JUMP JUMPDEST PUSH1 0xB PUSH1 0x20 MSTORE PUSH1 0x0 SWAP1 DUP2 MSTORE PUSH1 0x40 SWAP1 KECCAK256 SLOAD DUP2 JUMP JUMPDEST PUSH2 0x38E PUSH2 0x389 CALLDATASIZE PUSH1 0x4 PUSH2 0x2243 JUMP JUMPDEST PUSH2 0x834 JUMP JUMPDEST STOP JUMPDEST PUSH2 0x260 PUSH2 0x39E CALLDATASIZE PUSH1 0x4 PUSH2 0x226F JUMP JUMPDEST PUSH2 0x86C JUMP JUMPDEST PUSH2 0x260 PUSH2 0x3B1 CALLDATASIZE PUSH1 0x4 PUSH2 0x22AE JUMP JUMPDEST PUSH2 0x890 JUMP JUMPDEST PUSH2 0x3DD PUSH32 0x0 DUP2 JUMP JUMPDEST PUSH1 0x40 MLOAD PUSH1 0x1 PUSH1 0x1 PUSH1 0xA0 SHL SUB SWAP1 SWAP2 AND DUP2 MSTORE PUSH1 0x20 ADD PUSH2 0x24E JUMP JUMPDEST PUSH2 0x260 PUSH2 0x403 CALLDATASIZE PUSH1 0x4 PUSH2 0x226F JUMP JUMPDEST PUSH2 0x9C2 JUMP JUMPDEST PUSH2 0x260 PUSH2 0x416 CALLDATASIZE PUSH1 0x4 PUSH2 0x22AE JUMP JUMPDEST PUSH1 0x9 PUSH1 0x20 MSTORE PUSH1 0x0 SWAP1 DUP2 MSTORE PUSH1 0x40 SWAP1 KECCAK256 SLOAD DUP2 JUMP JUMPDEST PUSH2 0x260 PUSH2 0x436 CALLDATASIZE PUSH1 0x4 PUSH2 0x226F JUMP JUMPDEST PUSH1 0x3 PUSH1 0x20 MSTORE PUSH1 0x0 SWAP1 DUP2 MSTORE PUSH1 0x40 SWAP1 KECCAK256 SLOAD DUP2 JUMP JUMPDEST PUSH2 0x38E PUSH2 0x456 CALLDATASIZE PUSH1 0x4 PUSH2 0x228C JUMP JUMPDEST PUSH2 0xA33 JUMP JUMPDEST PUSH2 0x260 PUSH2 0x469 CALLDATASIZE PUSH1 0x4 PUSH2 0x228C JUMP JUMPDEST PUSH2 0xB04 JUMP JUMPDEST PUSH2 0x38E PUSH2 0x47C CALLDATASIZE PUSH1 0x4 PUSH2 0x22DD JUMP JUMPDEST PUSH2 0xC47 JUMP JUMPDEST PUSH2 0x260 PUSH2 0x48F CALLDATASIZE PUSH1 0x4 PUSH2 0x226F JUMP JUMPDEST PUSH1 0xF PUSH1 0x20 MSTORE PUSH1 0x0 SWAP1 DUP2 MSTORE PUSH1 0x40 SWAP1 KECCAK256 SLOAD DUP2 JUMP JUMPDEST PUSH2 0x260 PUSH8 0xDE0B6B3A7640000 DUP2 JUMP JUMPDEST PUSH2 0x38E PUSH2 0x4BE CALLDATASIZE PUSH1 0x4 PUSH2 0x2243 JUMP JUMPDEST PUSH2 0xF87 JUMP JUMPDEST PUSH2 0x3DD PUSH32 0x0 DUP2 JUMP JUMPDEST PUSH2 0x260 PUSH2 0x4F8 CALLDATASIZE PUSH1 0x4 PUSH2 0x226F JUMP JUMPDEST PUSH1 0x1 PUSH1 0x20 MSTORE PUSH1 0x0 SWAP1 DUP2 MSTORE PUSH1 0x40 SWAP1 KECCAK256 SLOAD DUP2 JUMP JUMPDEST PUSH1 0x6 SLOAD PUSH2 0x260 JUMP JUMPDEST PUSH2 0x260 PUSH1 0xD SLOAD DUP2 JUMP JUMPDEST PUSH2 0x260 PUSH2 0x529 CALLDATASIZE PUSH1 0x4 PUSH2 0x226F JUMP JUMPDEST PUSH2 0x12CE JUMP JUMPDEST PUSH2 0x260 PUSH2 0x53C CALLDATASIZE PUSH1 0x4 PUSH2 0x2243 JUMP JUMPDEST PUSH1 0x4 PUSH1 0x20 SWAP1 DUP2 MSTORE PUSH1 0x0 SWAP3 DUP4 MSTORE PUSH1 0x40 DUP1 DUP5 KECCAK256 SWAP1 SWAP2 MSTORE SWAP1 DUP3 MSTORE SWAP1 KECCAK256 SLOAD DUP2 JUMP JUMPDEST PUSH2 0x3DD PUSH2 0x567 CALLDATASIZE PUSH1 0x4 PUSH2 0x22AE JUMP JUMPDEST PUSH2 0x138C JUMP JUMPDEST PUSH2 0x38E PUSH2 0x57A CALLDATASIZE PUSH1 0x4 PUSH2 0x228C JUMP JUMPDEST PUSH2 0x13B6 JUMP JUMPDEST PUSH2 0x38E PUSH2 0x58D CALLDATASIZE PUSH1 0x4 PUSH2 0x22DD JUMP JUMPDEST PUSH2 0x147F JUMP JUMPDEST PUSH2 0x23D PUSH2 0x5A0 CALLDATASIZE PUSH1 0x4 PUSH2 0x22AE JUMP JUMPDEST PUSH1 0xC PUSH1 0x20 MSTORE PUSH1 0x0 SWAP1 DUP2 MSTORE PUSH1 0x40 SWAP1 KECCAK256 DUP1 SLOAD PUSH1 0x1 SWAP1 SWAP2 ADD SLOAD DUP3 JUMP JUMPDEST PUSH2 0x23D PUSH2 0x5C7 CALLDATASIZE PUSH1 0x4 PUSH2 0x2243 JUMP JUMPDEST PUSH2 0x1786 JUMP JUMPDEST PUSH1 0x1 PUSH1 0x1 PUSH1 0xA0 SHL SUB DUP3 AND PUSH1 0x0 DUP2 DUP2 MSTORE PUSH1 0x4 PUSH1 0x20 SWAP1 DUP2 MSTORE PUSH1 0x40 DUP1 DUP4 KECCAK256 DUP6 DUP5 MSTORE DUP3 MSTORE DUP1 DUP4 KECCAK256 SLOAD SWAP4 DUP4 MSTORE PUSH1 0xE DUP3 MSTORE DUP1 DUP4 KECCAK256 DUP4 DUP1 MSTORE SWAP1 SWAP2 MSTORE DUP2 KECCAK256 SLOAD SWAP1 SWAP2 DUP3 SWAP2 PUSH2 0x611 SWAP2 SWAP1 PUSH2 0x19A5 JUMP JUMPDEST PUSH1 0x0 DUP5 DUP2 MSTORE PUSH1 0xB PUSH1 0x20 MSTORE PUSH1 0x40 SWAP1 KECCAK256 SLOAD SWAP1 SWAP2 POP PUSH2 0x631 JUMPI PUSH1 0x0 SWAP2 POP POP PUSH2 0x82E JUMP JUMPDEST PUSH1 0x0 PUSH2 0x63D DUP5 DUP4 PUSH2 0xB04 JUMP JUMPDEST PUSH1 0x0 DUP6 DUP2 MSTORE PUSH1 0xB PUSH1 0x20 MSTORE PUSH1 0x40 DUP2 KECCAK256 SLOAD SWAP2 SWAP3 POP SWAP1 PUSH2 0x65C SWAP1 PUSH1 0x1 SWAP1 PUSH2 0x23C4 JUMP JUMPDEST SWAP1 POP PUSH1 0x0 PUSH1 0x1 PUSH2 0x66C DUP5 DUP5 PUSH2 0x23C4 JUMP JUMPDEST GT ISZERO PUSH2 0x772 JUMPI DUP3 JUMPDEST PUSH2 0x67F PUSH1 0x1 DUP5 PUSH2 0x23C4 JUMP JUMPDEST DUP2 LT ISZERO PUSH2 0x770 JUMPI PUSH1 0x0 DUP8 DUP2 MSTORE PUSH1 0xA PUSH1 0x20 DUP2 DUP2 MSTORE PUSH1 0x40 DUP1 DUP5 KECCAK256 DUP6 DUP6 MSTORE DUP1 DUP4 MSTORE DUP2 DUP6 KECCAK256 DUP3 MLOAD DUP1 DUP5 ADD SWAP1 SWAP4 MSTORE DUP1 SLOAD DUP4 MSTORE PUSH1 0x1 SWAP1 DUP2 ADD SLOAD DUP4 DUP6 ADD MSTORE DUP13 DUP7 MSTORE SWAP4 SWAP1 SWAP3 MSTORE SWAP3 SWAP2 DUP3 SWAP1 PUSH2 0x6CC SWAP1 DUP7 SWAP1 PUSH2 0x23DB JUMP JUMPDEST DUP2 MSTORE PUSH1 0x20 ADD SWAP1 DUP2 MSTORE PUSH1 0x20 ADD PUSH1 0x0 KECCAK256 PUSH1 0x40 MLOAD DUP1 PUSH1 0x40 ADD PUSH1 0x40 MSTORE SWAP1 DUP2 PUSH1 0x0 DUP3 ADD SLOAD DUP2 MSTORE PUSH1 0x20 ADD PUSH1 0x1 DUP3 ADD SLOAD DUP2 MSTORE POP POP SWAP1 POP PUSH1 0x0 PUSH2 0x70B DUP12 DUP5 PUSH1 0x0 ADD MLOAD PUSH2 0x1786 JUMP JUMPDEST POP SWAP1 POP PUSH1 0x0 PUSH2 0x71E DUP13 DUP5 PUSH1 0x0 ADD MLOAD PUSH2 0x1786 JUMP JUMPDEST POP SWAP1 POP PUSH8 0xDE0B6B3A7640000 PUSH2 0x734 DUP4 DUP4 PUSH2 0x23C4 JUMP JUMPDEST DUP6 PUSH1 0x20 ADD MLOAD PUSH2 0x743 SWAP2 SWAP1 PUSH2 0x23F3 JUMP JUMPDEST PUSH2 0x74D SWAP2 SWAP1 PUSH2 0x2412 JUMP JUMPDEST PUSH2 0x757 SWAP1 DUP8 PUSH2 0x23DB JUMP JUMPDEST SWAP6 POP POP POP POP POP DUP1 DUP1 PUSH2 0x768 SWAP1 PUSH2 0x2434 JUMP JUMPDEST SWAP2 POP POP PUSH2 0x674 JUMP JUMPDEST POP JUMPDEST PUSH1 0x0 DUP7 DUP2 MSTORE PUSH1 0xA PUSH1 0x20 SWAP1 DUP2 MSTORE PUSH1 0x40 DUP1 DUP4 KECCAK256 DUP6 DUP5 MSTORE DUP3 MSTORE DUP1 DUP4 KECCAK256 DUP2 MLOAD DUP1 DUP4 ADD SWAP1 SWAP3 MSTORE DUP1 SLOAD DUP1 DUP4 MSTORE PUSH1 0x1 SWAP1 SWAP2 ADD SLOAD SWAP3 DUP3 ADD SWAP3 SWAP1 SWAP3 MSTORE SWAP2 SWAP1 PUSH2 0x7B2 SWAP1 DUP11 SWAP1 PUSH2 0x1786 JUMP JUMPDEST POP PUSH1 0x1 PUSH1 0x1 PUSH1 0xA0 SHL SUB DUP11 AND PUSH1 0x0 SWAP1 DUP2 MSTORE PUSH1 0x5 PUSH1 0x20 SWAP1 DUP2 MSTORE PUSH1 0x40 DUP1 DUP4 KECCAK256 DUP13 DUP5 MSTORE SWAP1 SWAP2 MSTORE SWAP1 KECCAK256 SLOAD SWAP1 SWAP2 POP PUSH8 0xDE0B6B3A7640000 SWAP1 PUSH2 0x7EF SWAP1 DUP4 SWAP1 PUSH2 0x19A5 JUMP JUMPDEST PUSH2 0x7F8 DUP12 PUSH2 0x12CE JUMP JUMPDEST PUSH2 0x802 SWAP2 SWAP1 PUSH2 0x23C4 JUMP JUMPDEST DUP4 PUSH1 0x20 ADD MLOAD PUSH2 0x811 SWAP2 SWAP1 PUSH2 0x23F3 JUMP JUMPDEST PUSH2 0x81B SWAP2 SWAP1 PUSH2 0x2412 JUMP JUMPDEST PUSH2 0x825 SWAP1 DUP5 PUSH2 0x23DB JUMP JUMPDEST SWAP7 POP POP POP POP POP POP POP JUMPDEST SWAP3 SWAP2 POP POP JUMP JUMPDEST PUSH2 0x83E DUP3 DUP3 PUSH2 0x19BC JUMP JUMPDEST PUSH1 0x1 PUSH1 0x1 PUSH1 0xA0 SHL SUB SWAP1 SWAP4 AND PUSH1 0x0 SWAP1 DUP2 MSTORE PUSH1 0x3 PUSH1 0x20 SWAP1 DUP2 MSTORE PUSH1 0x40 DUP1 DUP4 KECCAK256 PUSH1 0x2 SWAP1 SWAP3 MSTORE SWAP1 SWAP2 KECCAK256 SWAP4 SWAP1 SWAP4 SSTORE SWAP1 SWAP2 SSTORE POP JUMP JUMPDEST PUSH1 0x1 PUSH1 0x1 PUSH1 0xA0 SHL SUB DUP2 AND PUSH1 0x0 SWAP1 DUP2 MSTORE PUSH1 0x1 PUSH1 0x20 MSTORE PUSH1 0x40 DUP2 KECCAK256 SLOAD PUSH2 0x82E SWAP1 TIMESTAMP SWAP1 PUSH2 0x1B1B JUMP JUMPDEST PUSH1 0xD SLOAD PUSH1 0x0 SWAP1 DUP1 PUSH2 0x8A4 JUMPI POP PUSH1 0x0 SWAP3 SWAP2 POP POP JUMP JUMPDEST DUP3 PUSH1 0xC PUSH1 0x0 PUSH2 0x8B4 PUSH1 0x1 DUP6 PUSH2 0x23C4 JUMP JUMPDEST DUP2 MSTORE PUSH1 0x20 ADD SWAP1 DUP2 MSTORE PUSH1 0x20 ADD PUSH1 0x0 KECCAK256 PUSH1 0x0 ADD SLOAD GT PUSH2 0x8DD JUMPI PUSH2 0x8D6 PUSH1 0x1 DUP3 PUSH2 0x23C4 JUMP JUMPDEST SWAP4 SWAP3 POP POP POP JUMP JUMPDEST PUSH1 0x0 DUP1 MSTORE PUSH1 0xC PUSH1 0x20 MSTORE PUSH32 0x13649B2456F1B42FEF0F0040B3AAEABCD21A76A0F3F5DEFD4F583839455116E8 SLOAD DUP4 LT ISZERO PUSH2 0x918 JUMPI POP PUSH1 0x0 SWAP3 SWAP2 POP POP JUMP JUMPDEST PUSH1 0x0 DUP1 PUSH2 0x926 PUSH1 0x1 DUP5 PUSH2 0x23C4 JUMP JUMPDEST SWAP1 POP JUMPDEST DUP2 DUP2 GT ISZERO PUSH2 0x9BA JUMPI PUSH1 0x0 PUSH1 0x2 PUSH2 0x93F DUP5 DUP5 PUSH2 0x23C4 JUMP JUMPDEST PUSH2 0x949 SWAP2 SWAP1 PUSH2 0x2412 JUMP JUMPDEST PUSH2 0x953 SWAP1 DUP4 PUSH2 0x23C4 JUMP JUMPDEST PUSH1 0x0 DUP2 DUP2 MSTORE PUSH1 0xC PUSH1 0x20 SWAP1 DUP2 MSTORE PUSH1 0x40 SWAP2 DUP3 SWAP1 KECCAK256 DUP3 MLOAD DUP1 DUP5 ADD SWAP1 SWAP4 MSTORE DUP1 SLOAD DUP1 DUP5 MSTORE PUSH1 0x1 SWAP1 SWAP2 ADD SLOAD SWAP2 DUP4 ADD SWAP2 SWAP1 SWAP2 MSTORE SWAP2 SWAP3 POP SWAP1 DUP8 EQ ISZERO PUSH2 0x994 JUMPI POP SWAP6 SWAP5 POP POP POP POP POP JUMP JUMPDEST DUP1 MLOAD DUP8 GT ISZERO PUSH2 0x9A5 JUMPI DUP2 SWAP4 POP PUSH2 0x9B3 JUMP JUMPDEST PUSH2 0x9B0 PUSH1 0x1 DUP4 PUSH2 0x23C4 JUMP JUMPDEST SWAP3 POP JUMPDEST POP POP PUSH2 0x929 JUMP JUMPDEST POP SWAP4 SWAP3 POP POP POP JUMP JUMPDEST PUSH1 0x1 PUSH1 0x1 PUSH1 0xA0 SHL SUB DUP2 AND PUSH1 0x0 SWAP1 DUP2 MSTORE PUSH1 0x1 PUSH1 0x20 MSTORE PUSH1 0x40 DUP2 KECCAK256 SLOAD TIMESTAMP LT PUSH2 0x9E9 JUMPI POP PUSH1 0x0 SWAP2 SWAP1 POP JUMP JUMPDEST PUSH1 0x1 PUSH1 0x1 PUSH1 0xA0 SHL SUB DUP3 AND PUSH1 0x0 SWAP1 DUP2 MSTORE PUSH1 0x1 PUSH1 0x20 MSTORE PUSH1 0x40 DUP2 KECCAK256 SLOAD PUSH2 0xA0D SWAP1 TIMESTAMP SWAP1 PUSH2 0x23C4 JUMP JUMPDEST PUSH1 0x1 PUSH1 0x1 PUSH1 0xA0 SHL SUB DUP5 AND PUSH1 0x0 SWAP1 DUP2 MSTORE PUSH1 0x20 DUP2 SWAP1 MSTORE PUSH1 0x40 SWAP1 KECCAK256 SLOAD SWAP1 SWAP2 POP PUSH2 0x8D6 SWAP1 DUP3 PUSH2 0x23F3 JUMP JUMPDEST CALLER PUSH1 0x1 PUSH1 0x1 PUSH1 0xA0 SHL SUB PUSH32 0x0 AND EQ PUSH2 0xA68 JUMPI PUSH1 0x0 DUP1 REVERT JUMPDEST DUP2 PUSH1 0x8 PUSH1 0x0 DUP3 DUP3 SLOAD PUSH2 0xA7A SWAP2 SWAP1 PUSH2 0x23C4 JUMP JUMPDEST SWAP1 SWAP2 SSTORE POP POP PUSH1 0x0 DUP2 DUP2 MSTORE PUSH1 0x9 PUSH1 0x20 MSTORE PUSH1 0x40 DUP2 KECCAK256 DUP1 SLOAD DUP5 SWAP3 SWAP1 PUSH2 0xA9D SWAP1 DUP5 SWAP1 PUSH2 0x23C4 JUMP JUMPDEST SWAP1 SWAP2 SSTORE POP POP PUSH1 0x0 DUP2 DUP2 MSTORE PUSH1 0x9 PUSH1 0x20 MSTORE PUSH1 0x40 SWAP1 KECCAK256 SLOAD PUSH2 0xABC SWAP1 DUP3 SWAP1 PUSH2 0x1B2A JUMP JUMPDEST PUSH2 0xAC4 PUSH2 0x1C03 JUMP JUMPDEST PUSH1 0x40 DUP1 MLOAD DUP3 DUP2 MSTORE PUSH1 0x20 DUP2 ADD DUP5 SWAP1 MSTORE CALLER SWAP2 PUSH32 0xF279E6A1F5E320CCA91135676D9CB6E44CA8A08C0B88342BCDB1144F6511B568 SWAP2 ADD JUMPDEST PUSH1 0x40 MLOAD DUP1 SWAP2 SUB SWAP1 LOG2 POP POP JUMP JUMPDEST PUSH1 0x0 DUP3 DUP2 MSTORE PUSH1 0xB PUSH1 0x20 MSTORE PUSH1 0x40 DUP2 KECCAK256 SLOAD DUP1 PUSH2 0xB22 JUMPI PUSH1 0x0 SWAP2 POP POP PUSH2 0x82E JUMP JUMPDEST PUSH1 0x0 DUP5 DUP2 MSTORE PUSH1 0xA PUSH1 0x20 MSTORE PUSH1 0x40 DUP2 KECCAK256 DUP5 SWAP2 PUSH2 0xB3D PUSH1 0x1 DUP6 PUSH2 0x23C4 JUMP JUMPDEST DUP2 MSTORE PUSH1 0x20 ADD SWAP1 DUP2 MSTORE PUSH1 0x20 ADD PUSH1 0x0 KECCAK256 PUSH1 0x0 ADD SLOAD GT PUSH2 0xB67 JUMPI PUSH2 0xB5F PUSH1 0x1 DUP3 PUSH2 0x23C4 JUMP JUMPDEST SWAP2 POP POP PUSH2 0x82E JUMP JUMPDEST PUSH1 0x0 DUP5 DUP2 MSTORE PUSH1 0xA PUSH1 0x20 SWAP1 DUP2 MSTORE PUSH1 0x40 DUP1 DUP4 KECCAK256 DUP4 DUP1 MSTORE SWAP1 SWAP2 MSTORE SWAP1 KECCAK256 SLOAD DUP4 LT ISZERO PUSH2 0xB92 JUMPI PUSH1 0x0 SWAP2 POP POP PUSH2 0x82E JUMP JUMPDEST PUSH1 0x0 DUP1 PUSH2 0xBA0 PUSH1 0x1 DUP5 PUSH2 0x23C4 JUMP JUMPDEST SWAP1 POP JUMPDEST DUP2 DUP2 GT ISZERO PUSH2 0xC3E JUMPI PUSH1 0x0 PUSH1 0x2 PUSH2 0xBB9 DUP5 DUP5 PUSH2 0x23C4 JUMP JUMPDEST PUSH2 0xBC3 SWAP2 SWAP1 PUSH2 0x2412 JUMP JUMPDEST PUSH2 0xBCD SWAP1 DUP4 PUSH2 0x23C4 JUMP JUMPDEST PUSH1 0x0 DUP9 DUP2 MSTORE PUSH1 0xA PUSH1 0x20 SWAP1 DUP2 MSTORE PUSH1 0x40 DUP1 DUP4 KECCAK256 DUP5 DUP5 MSTORE DUP3 MSTORE SWAP2 DUP3 SWAP1 KECCAK256 DUP3 MLOAD DUP1 DUP5 ADD SWAP1 SWAP4 MSTORE DUP1 SLOAD DUP1 DUP5 MSTORE PUSH1 0x1 SWAP1 SWAP2 ADD SLOAD SWAP2 DUP4 ADD SWAP2 SWAP1 SWAP2 MSTORE SWAP2 SWAP3 POP SWAP1 DUP8 EQ ISZERO PUSH2 0xC18 JUMPI POP SWAP4 POP PUSH2 0x82E SWAP3 POP POP POP JUMP JUMPDEST DUP1 MLOAD DUP8 GT ISZERO PUSH2 0xC29 JUMPI DUP2 SWAP4 POP PUSH2 0xC37 JUMP JUMPDEST PUSH2 0xC34 PUSH1 0x1 DUP4 PUSH2 0x23C4 JUMP JUMPDEST SWAP3 POP JUMPDEST POP POP PUSH2 0xBA3 JUMP JUMPDEST POP SWAP5 SWAP4 POP POP POP POP JUMP JUMPDEST PUSH1 0x10 SLOAD PUSH1 0x1 EQ PUSH2 0xC56 JUMPI PUSH1 0x0 DUP1 REVERT JUMPDEST PUSH1 0x2 PUSH1 0x10 SSTORE CALLER PUSH1 0x1 PUSH1 0x1 PUSH1 0xA0 SHL SUB PUSH32 0x0 AND EQ PUSH2 0xC90 JUMPI PUSH1 0x0 DUP1 REVERT JUMPDEST PUSH1 0x40 MLOAD PUSH4 0x31A9108F PUSH1 0xE1 SHL DUP2 MSTORE PUSH1 0x4 DUP2 ADD DUP4 SWAP1 MSTORE PUSH1 0x0 SWAP1 PUSH32 0x0 PUSH1 0x1 PUSH1 0x1 PUSH1 0xA0 SHL SUB AND SWAP1 PUSH4 0x6352211E SWAP1 PUSH1 0x24 ADD PUSH1 0x20 PUSH1 0x40 MLOAD DUP1 DUP4 SUB DUP2 DUP7 GAS STATICCALL ISZERO DUP1 ISZERO PUSH2 0xCF8 JUMPI RETURNDATASIZE PUSH1 0x0 DUP1 RETURNDATACOPY RETURNDATASIZE PUSH1 0x0 REVERT JUMPDEST POP POP POP POP PUSH1 0x40 MLOAD RETURNDATASIZE PUSH1 0x1F NOT PUSH1 0x1F DUP3 ADD AND DUP3 ADD DUP1 PUSH1 0x40 MSTORE POP DUP2 ADD SWAP1 PUSH2 0xD1C SWAP2 SWAP1 PUSH2 0x244F JUMP JUMPDEST SWAP1 POP PUSH1 0x0 JUMPDEST DUP3 MLOAD DUP2 LT ISZERO PUSH2 0xF7C JUMPI PUSH2 0xD4C DUP4 DUP3 DUP2 MLOAD DUP2 LT PUSH2 0xD3F JUMPI PUSH2 0xD3F PUSH2 0x246C JUMP JUMPDEST PUSH1 0x20 MUL PUSH1 0x20 ADD ADD MLOAD PUSH2 0x1CA7 JUMP JUMPDEST PUSH1 0x3 PUSH1 0x0 DUP7 DUP6 DUP2 MLOAD DUP2 LT PUSH2 0xD62 JUMPI PUSH2 0xD62 PUSH2 0x246C JUMP JUMPDEST PUSH1 0x20 MUL PUSH1 0x20 ADD ADD MLOAD PUSH1 0x1 PUSH1 0x1 PUSH1 0xA0 SHL SUB AND PUSH1 0x1 PUSH1 0x1 PUSH1 0xA0 SHL SUB AND DUP2 MSTORE PUSH1 0x20 ADD SWAP1 DUP2 MSTORE PUSH1 0x20 ADD PUSH1 0x0 KECCAK256 PUSH1 0x0 PUSH1 0x2 PUSH1 0x0 DUP9 DUP8 DUP2 MLOAD DUP2 LT PUSH2 0xDA2 JUMPI PUSH2 0xDA2 PUSH2 0x246C JUMP JUMPDEST PUSH1 0x20 MUL PUSH1 0x20 ADD ADD MLOAD PUSH1 0x1 PUSH1 0x1 PUSH1 0xA0 SHL SUB AND PUSH1 0x1 PUSH1 0x1 PUSH1 0xA0 SHL SUB AND DUP2 MSTORE PUSH1 0x20 ADD SWAP1 DUP2 MSTORE PUSH1 0x20 ADD PUSH1 0x0 KECCAK256 PUSH1 0x0 DUP5 SWAP2 SWAP1 POP SSTORE DUP4 SWAP2 SWAP1 POP SSTORE POP POP PUSH1 0x0 PUSH2 0xDFD DUP5 DUP4 DUP2 MLOAD DUP2 LT PUSH2 0xDEF JUMPI PUSH2 0xDEF PUSH2 0x246C JUMP JUMPDEST PUSH1 0x20 MUL PUSH1 0x20 ADD ADD MLOAD DUP7 PUSH2 0x5CC JUMP JUMPDEST SWAP1 POP TIMESTAMP PUSH1 0x4 PUSH1 0x0 DUP7 DUP6 DUP2 MLOAD DUP2 LT PUSH2 0xE16 JUMPI PUSH2 0xE16 PUSH2 0x246C JUMP JUMPDEST PUSH1 0x20 MUL PUSH1 0x20 ADD ADD MLOAD PUSH1 0x1 PUSH1 0x1 PUSH1 0xA0 SHL SUB AND PUSH1 0x1 PUSH1 0x1 PUSH1 0xA0 SHL SUB AND DUP2 MSTORE PUSH1 0x20 ADD SWAP1 DUP2 MSTORE PUSH1 0x20 ADD PUSH1 0x0 KECCAK256 PUSH1 0x0 DUP8 DUP2 MSTORE PUSH1 0x20 ADD SWAP1 DUP2 MSTORE PUSH1 0x20 ADD PUSH1 0x0 KECCAK256 DUP2 SWAP1 SSTORE POP PUSH1 0x3 PUSH1 0x0 DUP6 DUP5 DUP2 MLOAD DUP2 LT PUSH2 0xE69 JUMPI PUSH2 0xE69 PUSH2 0x246C JUMP JUMPDEST PUSH1 0x20 MUL PUSH1 0x20 ADD ADD MLOAD PUSH1 0x1 PUSH1 0x1 PUSH1 0xA0 SHL SUB AND PUSH1 0x1 PUSH1 0x1 PUSH1 0xA0 SHL SUB AND DUP2 MSTORE PUSH1 0x20 ADD SWAP1 DUP2 MSTORE PUSH1 0x20 ADD PUSH1 0x0 KECCAK256 SLOAD PUSH1 0x5 PUSH1 0x0 DUP7 DUP6 DUP2 MLOAD DUP2 LT PUSH2 0xEA8 JUMPI PUSH2 0xEA8 PUSH2 0x246C JUMP JUMPDEST PUSH1 0x20 SWAP1 DUP2 MUL SWAP2 SWAP1 SWAP2 ADD DUP2 ADD MLOAD PUSH1 0x1 PUSH1 0x1 PUSH1 0xA0 SHL SUB AND DUP3 MSTORE DUP2 DUP2 ADD SWAP3 SWAP1 SWAP3 MSTORE PUSH1 0x40 SWAP1 DUP2 ADD PUSH1 0x0 SWAP1 DUP2 KECCAK256 DUP10 DUP3 MSTORE SWAP1 SWAP3 MSTORE SWAP1 KECCAK256 SSTORE DUP1 ISZERO PUSH2 0xF03 JUMPI PUSH2 0xF03 DUP5 DUP4 DUP2 MLOAD DUP2 LT PUSH2 0xEF4 JUMPI PUSH2 0xEF4 PUSH2 0x246C JUMP JUMPDEST PUSH1 0x20 MUL PUSH1 0x20 ADD ADD MLOAD DUP5 DUP4 PUSH2 0x1E8A JUMP JUMPDEST DUP4 DUP3 DUP2 MLOAD DUP2 LT PUSH2 0xF15 JUMPI PUSH2 0xF15 PUSH2 0x246C JUMP JUMPDEST PUSH1 0x20 MUL PUSH1 0x20 ADD ADD MLOAD PUSH1 0x1 PUSH1 0x1 PUSH1 0xA0 SHL SUB AND DUP4 PUSH1 0x1 PUSH1 0x1 PUSH1 0xA0 SHL SUB AND PUSH32 0x9AA05B3D70A9E3E2F004F039648839560576334FB45C81F91B6DB03AD9E2EFC9 DUP4 PUSH1 0x40 MLOAD PUSH2 0xF61 SWAP2 DUP2 MSTORE PUSH1 0x20 ADD SWAP1 JUMP JUMPDEST PUSH1 0x40 MLOAD DUP1 SWAP2 SUB SWAP1 LOG3 POP DUP1 PUSH2 0xF74 DUP2 PUSH2 0x2434 JUMP JUMPDEST SWAP2 POP POP PUSH2 0xD21 JUMP JUMPDEST POP POP PUSH1 0x1 PUSH1 0x10 SSTORE POP POP JUMP JUMPDEST PUSH1 0x10 SLOAD PUSH1 0x1 EQ PUSH2 0xF96 JUMPI PUSH1 0x0 DUP1 REVERT JUMPDEST PUSH1 0x2 PUSH1 0x10 SSTORE DUP1 PUSH2 0xFA5 JUMPI PUSH1 0x0 DUP1 REVERT JUMPDEST PUSH1 0x1 PUSH1 0x1 PUSH1 0xA0 SHL SUB DUP3 AND PUSH1 0x0 SWAP1 DUP2 MSTORE PUSH1 0x20 DUP2 SWAP1 MSTORE PUSH1 0x40 SWAP1 KECCAK256 SLOAD PUSH2 0xFCE JUMPI PUSH2 0xFCE DUP3 PUSH1 0x0 TIMESTAMP PUSH2 0x1F79 JUMP JUMPDEST PUSH2 0xFD7 DUP3 PUSH2 0x1CA7 JUMP JUMPDEST PUSH1 0x1 PUSH1 0x1 PUSH1 0xA0 SHL SUB DUP5 AND PUSH1 0x0 SWAP1 DUP2 MSTORE PUSH1 0x3 PUSH1 0x20 SWAP1 DUP2 MSTORE PUSH1 0x40 DUP1 DUP4 KECCAK256 PUSH1 0x2 DUP4 MSTORE DUP2 DUP5 KECCAK256 SWAP5 SWAP1 SWAP5 SSTORE SWAP4 SWAP1 SWAP3 SSTORE PUSH1 0x1 SWAP1 SWAP2 MSTORE KECCAK256 SLOAD TIMESTAMP LT PUSH2 0x1045 JUMPI PUSH2 0x101A DUP3 CALLER ADDRESS DUP5 PUSH2 0x2068 JUMP JUMPDEST PUSH2 0x1027 PUSH3 0x93A80 DUP3 PUSH2 0x2412 JUMP JUMPDEST PUSH1 0x1 PUSH1 0x1 PUSH1 0xA0 SHL SUB DUP4 AND PUSH1 0x0 SWAP1 DUP2 MSTORE PUSH1 0x20 DUP2 SWAP1 MSTORE PUSH1 0x40 SWAP1 KECCAK256 SSTORE PUSH2 0x10DE JUMP JUMPDEST PUSH1 0x1 PUSH1 0x1 PUSH1 0xA0 SHL SUB DUP3 AND PUSH1 0x0 SWAP1 DUP2 MSTORE PUSH1 0x1 PUSH1 0x20 MSTORE PUSH1 0x40 DUP2 KECCAK256 SLOAD PUSH2 0x1069 SWAP1 TIMESTAMP SWAP1 PUSH2 0x23C4 JUMP JUMPDEST PUSH1 0x1 PUSH1 0x1 PUSH1 0xA0 SHL SUB DUP5 AND PUSH1 0x0 SWAP1 DUP2 MSTORE PUSH1 0x20 DUP2 SWAP1 MSTORE PUSH1 0x40 DUP2 KECCAK256 SLOAD SWAP2 SWAP3 POP SWAP1 PUSH2 0x1090 SWAP1 DUP4 PUSH2 0x23F3 JUMP JUMPDEST SWAP1 POP DUP1 DUP4 GT PUSH2 0x109E JUMPI PUSH1 0x0 DUP1 REVERT JUMPDEST PUSH2 0x10AA DUP5 CALLER ADDRESS DUP7 PUSH2 0x2068 JUMP JUMPDEST PUSH3 0x93A80 PUSH2 0x10B8 DUP3 DUP6 PUSH2 0x23DB JUMP JUMPDEST PUSH2 0x10C2 SWAP2 SWAP1 PUSH2 0x2412 JUMP JUMPDEST PUSH1 0x1 PUSH1 0x1 PUSH1 0xA0 SHL SUB DUP6 AND PUSH1 0x0 SWAP1 DUP2 MSTORE PUSH1 0x20 DUP2 SWAP1 MSTORE PUSH1 0x40 SWAP1 KECCAK256 SSTORE POP POP JUMPDEST PUSH1 0x1 PUSH1 0x1 PUSH1 0xA0 SHL SUB DUP3 AND PUSH1 0x0 SWAP1 DUP2 MSTORE PUSH1 0x20 DUP2 SWAP1 MSTORE PUSH1 0x40 SWAP1 KECCAK256 SLOAD PUSH2 0x1100 JUMPI PUSH1 0x0 DUP1 REVERT JUMPDEST PUSH1 0x40 MLOAD PUSH4 0x70A08231 PUSH1 0xE0 SHL DUP2 MSTORE ADDRESS PUSH1 0x4 DUP3 ADD MSTORE PUSH1 0x0 SWAP1 PUSH1 0x1 PUSH1 0x1 PUSH1 0xA0 SHL SUB DUP5 AND SWAP1 PUSH4 0x70A08231 SWAP1 PUSH1 0x24 ADD PUSH1 0x20 PUSH1 0x40 MLOAD DUP1 DUP4 SUB DUP2 DUP7 GAS STATICCALL ISZERO DUP1 ISZERO PUSH2 0x1147 JUMPI RETURNDATASIZE PUSH1 0x0 DUP1 RETURNDATACOPY RETURNDATASIZE PUSH1 0x0 REVERT JUMPDEST POP POP POP POP PUSH1 0x40 MLOAD RETURNDATASIZE PUSH1 0x1F NOT PUSH1 0x1F DUP3 ADD AND DUP3 ADD DUP1 PUSH1 0x40 MSTORE POP DUP2 ADD SWAP1 PUSH2 0x116B SWAP2 SWAP1 PUSH2 0x2482 JUMP JUMPDEST SWAP1 POP PUSH2 0x117A PUSH3 0x93A80 DUP3 PUSH2 0x2412 JUMP JUMPDEST PUSH1 0x1 PUSH1 0x1 PUSH1 0xA0 SHL SUB DUP5 AND PUSH1 0x0 SWAP1 DUP2 MSTORE PUSH1 0x20 DUP2 SWAP1 MSTORE PUSH1 0x40 SWAP1 KECCAK256 SLOAD GT ISZERO PUSH2 0x11E5 JUMPI PUSH1 0x40 MLOAD PUSH3 0x461BCD PUSH1 0xE5 SHL DUP2 MSTORE PUSH1 0x20 PUSH1 0x4 DUP3 ADD MSTORE PUSH1 0x18 PUSH1 0x24 DUP3 ADD MSTORE PUSH32 0x50726F76696465642072657761726420746F6F20686967680000000000000000 PUSH1 0x44 DUP3 ADD MSTORE PUSH1 0x64 ADD PUSH1 0x40 MLOAD DUP1 SWAP2 SUB SWAP1 REVERT JUMPDEST PUSH2 0x11F2 PUSH3 0x93A80 TIMESTAMP PUSH2 0x23DB JUMP JUMPDEST PUSH1 0x1 PUSH1 0x1 PUSH1 0xA0 SHL SUB DUP5 AND PUSH1 0x0 SWAP1 DUP2 MSTORE PUSH1 0x1 PUSH1 0x20 SWAP1 DUP2 MSTORE PUSH1 0x40 DUP1 DUP4 KECCAK256 SWAP4 SWAP1 SWAP4 SSTORE PUSH1 0x7 SWAP1 MSTORE KECCAK256 SLOAD PUSH1 0xFF AND PUSH2 0x1284 JUMPI PUSH1 0x1 PUSH1 0x1 PUSH1 0xA0 SHL SUB DUP4 AND PUSH1 0x0 DUP2 DUP2 MSTORE PUSH1 0x7 PUSH1 0x20 MSTORE PUSH1 0x40 DUP2 KECCAK256 DUP1 SLOAD PUSH1 0xFF NOT AND PUSH1 0x1 SWAP1 DUP2 OR SWAP1 SWAP2 SSTORE PUSH1 0x6 DUP1 SLOAD SWAP2 DUP3 ADD DUP2 SSTORE SWAP1 SWAP2 MSTORE PUSH32 0xF652222313E28459528D920B65115C16C04F3EFC82AAEDC97BE59F3F377C0D3F ADD DUP1 SLOAD PUSH1 0x1 PUSH1 0x1 PUSH1 0xA0 SHL SUB NOT AND SWAP1 SWAP2 OR SWAP1 SSTORE JUMPDEST PUSH1 0x40 MLOAD DUP3 DUP2 MSTORE PUSH1 0x1 PUSH1 0x1 PUSH1 0xA0 SHL SUB DUP5 AND SWAP1 CALLER SWAP1 PUSH32 0xF70D5C697DE7EA828DF48E5C4573CB2194C659F1901F70110C52B066DCF50826 SWAP1 PUSH1 0x20 ADD PUSH1 0x40 MLOAD DUP1 SWAP2 SUB SWAP1 LOG3 POP POP PUSH1 0x1 PUSH1 0x10 SSTORE POP JUMP JUMPDEST PUSH1 0x0 PUSH1 0x8 SLOAD PUSH1 0x0 EQ ISZERO PUSH2 0x12F7 JUMPI POP PUSH1 0x1 PUSH1 0x1 PUSH1 0xA0 SHL SUB AND PUSH1 0x0 SWAP1 DUP2 MSTORE PUSH1 0x3 PUSH1 0x20 MSTORE PUSH1 0x40 SWAP1 KECCAK256 SLOAD SWAP1 JUMP JUMPDEST PUSH1 0x8 SLOAD PUSH1 0x1 PUSH1 0x1 PUSH1 0xA0 SHL SUB DUP4 AND PUSH1 0x0 SWAP1 DUP2 MSTORE PUSH1 0x20 DUP2 DUP2 MSTORE PUSH1 0x40 DUP1 DUP4 KECCAK256 SLOAD PUSH1 0x2 DUP4 MSTORE DUP2 DUP5 KECCAK256 SLOAD PUSH1 0x1 SWAP1 SWAP4 MSTORE SWAP3 KECCAK256 SLOAD PUSH8 0xDE0B6B3A7640000 SWAP3 SWAP2 PUSH2 0x1338 SWAP2 PUSH2 0x1B1B JUMP JUMPDEST PUSH2 0x1341 DUP7 PUSH2 0x86C JUMP JUMPDEST PUSH2 0x134B SWAP2 SWAP1 PUSH2 0x23C4 JUMP JUMPDEST PUSH2 0x1355 SWAP2 SWAP1 PUSH2 0x23F3 JUMP JUMPDEST PUSH2 0x135F SWAP2 SWAP1 PUSH2 0x23F3 JUMP JUMPDEST PUSH2 0x1369 SWAP2 SWAP1 PUSH2 0x2412 JUMP JUMPDEST PUSH1 0x1 PUSH1 0x1 PUSH1 0xA0 SHL SUB DUP4 AND PUSH1 0x0 SWAP1 DUP2 MSTORE PUSH1 0x3 PUSH1 0x20 MSTORE PUSH1 0x40 SWAP1 KECCAK256 SLOAD PUSH2 0x82E SWAP2 SWAP1 PUSH2 0x23DB JUMP JUMPDEST PUSH1 0x6 DUP2 DUP2 SLOAD DUP2 LT PUSH2 0x139C JUMPI PUSH1 0x0 DUP1 REVERT JUMPDEST PUSH1 0x0 SWAP2 DUP3 MSTORE PUSH1 0x20 SWAP1 SWAP2 KECCAK256 ADD SLOAD PUSH1 0x1 PUSH1 0x1 PUSH1 0xA0 SHL SUB AND SWAP1 POP DUP2 JUMP JUMPDEST CALLER PUSH1 0x1 PUSH1 0x1 PUSH1 0xA0 SHL SUB PUSH32 0x0 AND EQ PUSH2 0x13EB JUMPI PUSH1 0x0 DUP1 REVERT JUMPDEST DUP2 PUSH1 0x8 PUSH1 0x0 DUP3 DUP3 SLOAD PUSH2 0x13FD SWAP2 SWAP1 PUSH2 0x23DB JUMP JUMPDEST SWAP1 SWAP2 SSTORE POP POP PUSH1 0x0 DUP2 DUP2 MSTORE PUSH1 0x9 PUSH1 0x20 MSTORE PUSH1 0x40 DUP2 KECCAK256 DUP1 SLOAD DUP5 SWAP3 SWAP1 PUSH2 0x1420 SWAP1 DUP5 SWAP1 PUSH2 0x23DB JUMP JUMPDEST SWAP1 SWAP2 SSTORE POP POP PUSH1 0x0 DUP2 DUP2 MSTORE PUSH1 0x9 PUSH1 0x20 MSTORE PUSH1 0x40 SWAP1 KECCAK256 SLOAD PUSH2 0x143F SWAP1 DUP3 SWAP1 PUSH2 0x1B2A JUMP JUMPDEST PUSH2 0x1447 PUSH2 0x1C03 JUMP JUMPDEST PUSH1 0x40 DUP1 MLOAD DUP3 DUP2 MSTORE PUSH1 0x20 DUP2 ADD DUP5 SWAP1 MSTORE CALLER SWAP2 PUSH32 0x90890809C654F11D6E72A28FA60149770A0D11EC6C92319D6CEB2BB0A4EA1A15 SWAP2 ADD PUSH2 0xAF8 JUMP JUMPDEST PUSH1 0x10 SLOAD PUSH1 0x1 EQ PUSH2 0x148E JUMPI PUSH1 0x0 DUP1 REVERT JUMPDEST PUSH1 0x2 PUSH1 0x10 SSTORE PUSH1 0x40 MLOAD PUSH4 0x430C2081 PUSH1 0xE0 SHL DUP2 MSTORE CALLER PUSH1 0x4 DUP3 ADD MSTORE PUSH1 0x24 DUP2 ADD DUP4 SWAP1 MSTORE PUSH32 0x0 PUSH1 0x1 PUSH1 0x1 PUSH1 0xA0 SHL SUB AND SWAP1 PUSH4 0x430C2081 SWAP1 PUSH1 0x44 ADD PUSH1 0x20 PUSH1 0x40 MLOAD DUP1 DUP4 SUB DUP2 DUP7 GAS STATICCALL ISZERO DUP1 ISZERO PUSH2 0x14FE JUMPI RETURNDATASIZE PUSH1 0x0 DUP1 RETURNDATACOPY RETURNDATASIZE PUSH1 0x0 REVERT JUMPDEST POP POP POP POP PUSH1 0x40 MLOAD RETURNDATASIZE PUSH1 0x1F NOT PUSH1 0x1F DUP3 ADD AND DUP3 ADD DUP1 PUSH1 0x40 MSTORE POP DUP2 ADD SWAP1 PUSH2 0x1522 SWAP2 SWAP1 PUSH2 0x249B JUMP JUMPDEST PUSH2 0x152B JUMPI PUSH1 0x0 DUP1 REVERT JUMPDEST PUSH1 0x0 JUMPDEST DUP2 MLOAD DUP2 LT ISZERO PUSH2 0x177C JUMPI PUSH2 0x154C DUP3 DUP3 DUP2 MLOAD DUP2 LT PUSH2 0xD3F JUMPI PUSH2 0xD3F PUSH2 0x246C JUMP JUMPDEST PUSH1 0x3 PUSH1 0x0 DUP6 DUP6 DUP2 MLOAD DUP2 LT PUSH2 0x1562 JUMPI PUSH2 0x1562 PUSH2 0x246C JUMP JUMPDEST PUSH1 0x20 MUL PUSH1 0x20 ADD ADD MLOAD PUSH1 0x1 PUSH1 0x1 PUSH1 0xA0 SHL SUB AND PUSH1 0x1 PUSH1 0x1 PUSH1 0xA0 SHL SUB AND DUP2 MSTORE PUSH1 0x20 ADD SWAP1 DUP2 MSTORE PUSH1 0x20 ADD PUSH1 0x0 KECCAK256 PUSH1 0x0 PUSH1 0x2 PUSH1 0x0 DUP8 DUP8 DUP2 MLOAD DUP2 LT PUSH2 0x15A2 JUMPI PUSH2 0x15A2 PUSH2 0x246C JUMP JUMPDEST PUSH1 0x20 MUL PUSH1 0x20 ADD ADD MLOAD PUSH1 0x1 PUSH1 0x1 PUSH1 0xA0 SHL SUB AND PUSH1 0x1 PUSH1 0x1 PUSH1 0xA0 SHL SUB AND DUP2 MSTORE PUSH1 0x20 ADD SWAP1 DUP2 MSTORE PUSH1 0x20 ADD PUSH1 0x0 KECCAK256 PUSH1 0x0 DUP5 SWAP2 SWAP1 POP SSTORE DUP4 SWAP2 SWAP1 POP SSTORE POP POP PUSH1 0x0 PUSH2 0x15FD DUP4 DUP4 DUP2 MLOAD DUP2 LT PUSH2 0x15EF JUMPI PUSH2 0x15EF PUSH2 0x246C JUMP JUMPDEST PUSH1 0x20 MUL PUSH1 0x20 ADD ADD MLOAD DUP6 PUSH2 0x5CC JUMP JUMPDEST SWAP1 POP TIMESTAMP PUSH1 0x4 PUSH1 0x0 DUP6 DUP6 DUP2 MLOAD DUP2 LT PUSH2 0x1616 JUMPI PUSH2 0x1616 PUSH2 0x246C JUMP JUMPDEST PUSH1 0x20 MUL PUSH1 0x20 ADD ADD MLOAD PUSH1 0x1 PUSH1 0x1 PUSH1 0xA0 SHL SUB AND PUSH1 0x1 PUSH1 0x1 PUSH1 0xA0 SHL SUB AND DUP2 MSTORE PUSH1 0x20 ADD SWAP1 DUP2 MSTORE PUSH1 0x20 ADD PUSH1 0x0 KECCAK256 PUSH1 0x0 DUP7 DUP2 MSTORE PUSH1 0x20 ADD SWAP1 DUP2 MSTORE PUSH1 0x20 ADD PUSH1 0x0 KECCAK256 DUP2 SWAP1 SSTORE POP PUSH1 0x3 PUSH1 0x0 DUP5 DUP5 DUP2 MLOAD DUP2 LT PUSH2 0x1669 JUMPI PUSH2 0x1669 PUSH2 0x246C JUMP JUMPDEST PUSH1 0x20 MUL PUSH1 0x20 ADD ADD MLOAD PUSH1 0x1 PUSH1 0x1 PUSH1 0xA0 SHL SUB AND PUSH1 0x1 PUSH1 0x1 PUSH1 0xA0 SHL SUB AND DUP2 MSTORE PUSH1 0x20 ADD SWAP1 DUP2 MSTORE PUSH1 0x20 ADD PUSH1 0x0 KECCAK256 SLOAD PUSH1 0x5 PUSH1 0x0 DUP6 DUP6 DUP2 MLOAD DUP2 LT PUSH2 0x16A8 JUMPI PUSH2 0x16A8 PUSH2 0x246C JUMP JUMPDEST PUSH1 0x20 SWAP1 DUP2 MUL SWAP2 SWAP1 SWAP2 ADD DUP2 ADD MLOAD PUSH1 0x1 PUSH1 0x1 PUSH1 0xA0 SHL SUB AND DUP3 MSTORE DUP2 DUP2 ADD SWAP3 SWAP1 SWAP3 MSTORE PUSH1 0x40 SWAP1 DUP2 ADD PUSH1 0x0 SWAP1 DUP2 KECCAK256 DUP9 DUP3 MSTORE SWAP1 SWAP3 MSTORE SWAP1 KECCAK256 SSTORE DUP1 ISZERO PUSH2 0x1703 JUMPI PUSH2 0x1703 DUP4 DUP4 DUP2 MLOAD DUP2 LT PUSH2 0x16F4 JUMPI PUSH2 0x16F4 PUSH2 0x246C JUMP JUMPDEST PUSH1 0x20 MUL PUSH1 0x20 ADD ADD MLOAD CALLER DUP4 PUSH2 0x1E8A JUMP JUMPDEST DUP3 DUP3 DUP2 MLOAD DUP2 LT PUSH2 0x1715 JUMPI PUSH2 0x1715 PUSH2 0x246C JUMP JUMPDEST PUSH1 0x20 MUL PUSH1 0x20 ADD ADD MLOAD PUSH1 0x1 PUSH1 0x1 PUSH1 0xA0 SHL SUB AND CALLER PUSH1 0x1 PUSH1 0x1 PUSH1 0xA0 SHL SUB AND PUSH32 0x9AA05B3D70A9E3E2F004F039648839560576334FB45C81F91B6DB03AD9E2EFC9 DUP4 PUSH1 0x40 MLOAD PUSH2 0x1761 SWAP2 DUP2 MSTORE PUSH1 0x20 ADD SWAP1 JUMP JUMPDEST PUSH1 0x40 MLOAD DUP1 SWAP2 SUB SWAP1 LOG3 POP DUP1 PUSH2 0x1774 DUP2 PUSH2 0x2434 JUMP JUMPDEST SWAP2 POP POP PUSH2 0x152E JUMP JUMPDEST POP POP PUSH1 0x1 PUSH1 0x10 SSTORE POP JUMP JUMPDEST PUSH1 0x1 PUSH1 0x1 PUSH1 0xA0 SHL SUB DUP3 AND PUSH1 0x0 SWAP1 DUP2 MSTORE PUSH1 0xF PUSH1 0x20 MSTORE PUSH1 0x40 DUP2 KECCAK256 SLOAD DUP2 SWAP1 DUP1 PUSH2 0x17B3 JUMPI PUSH1 0x0 DUP1 SWAP3 POP SWAP3 POP POP PUSH2 0x199E JUMP JUMPDEST PUSH1 0x1 PUSH1 0x1 PUSH1 0xA0 SHL SUB DUP6 AND PUSH1 0x0 SWAP1 DUP2 MSTORE PUSH1 0xE PUSH1 0x20 MSTORE PUSH1 0x40 DUP2 KECCAK256 DUP6 SWAP2 PUSH2 0x17D8 PUSH1 0x1 DUP6 PUSH2 0x23C4 JUMP JUMPDEST DUP2 MSTORE PUSH1 0x20 ADD SWAP1 DUP2 MSTORE PUSH1 0x20 ADD PUSH1 0x0 KECCAK256 PUSH1 0x0 ADD SLOAD GT PUSH2 0x1875 JUMPI PUSH1 0x1 PUSH1 0x1 PUSH1 0xA0 SHL SUB DUP6 AND PUSH1 0x0 SWAP1 DUP2 MSTORE PUSH1 0xE PUSH1 0x20 MSTORE PUSH1 0x40 DUP2 KECCAK256 SWAP1 PUSH2 0x1813 PUSH1 0x1 DUP5 PUSH2 0x23C4 JUMP JUMPDEST DUP2 MSTORE PUSH1 0x20 ADD SWAP1 DUP2 MSTORE PUSH1 0x20 ADD PUSH1 0x0 KECCAK256 PUSH1 0x1 ADD SLOAD PUSH1 0xE PUSH1 0x0 DUP8 PUSH1 0x1 PUSH1 0x1 PUSH1 0xA0 SHL SUB AND PUSH1 0x1 PUSH1 0x1 PUSH1 0xA0 SHL SUB AND DUP2 MSTORE PUSH1 0x20 ADD SWAP1 DUP2 MSTORE PUSH1 0x20 ADD PUSH1 0x0 KECCAK256 PUSH1 0x0 PUSH1 0x1 DUP5 PUSH2 0x1859 SWAP2 SWAP1 PUSH2 0x23C4 JUMP JUMPDEST DUP2 MSTORE PUSH1 0x20 ADD SWAP1 DUP2 MSTORE PUSH1 0x20 ADD PUSH1 0x0 KECCAK256 PUSH1 0x0 ADD SLOAD SWAP3 POP SWAP3 POP POP PUSH2 0x199E JUMP JUMPDEST PUSH1 0x1 PUSH1 0x1 PUSH1 0xA0 SHL SUB DUP6 AND PUSH1 0x0 SWAP1 DUP2 MSTORE PUSH1 0xE PUSH1 0x20 SWAP1 DUP2 MSTORE PUSH1 0x40 DUP1 DUP4 KECCAK256 DUP4 DUP1 MSTORE SWAP1 SWAP2 MSTORE SWAP1 KECCAK256 SLOAD DUP5 LT ISZERO PUSH2 0x18AD JUMPI PUSH1 0x0 DUP1 SWAP3 POP SWAP3 POP POP PUSH2 0x199E JUMP JUMPDEST PUSH1 0x0 DUP1 PUSH2 0x18BB PUSH1 0x1 DUP5 PUSH2 0x23C4 JUMP JUMPDEST SWAP1 POP JUMPDEST DUP2 DUP2 GT ISZERO PUSH2 0x196D JUMPI PUSH1 0x0 PUSH1 0x2 PUSH2 0x18D4 DUP5 DUP5 PUSH2 0x23C4 JUMP JUMPDEST PUSH2 0x18DE SWAP2 SWAP1 PUSH2 0x2412 JUMP JUMPDEST PUSH2 0x18E8 SWAP1 DUP4 PUSH2 0x23C4 JUMP JUMPDEST PUSH1 0x1 PUSH1 0x1 PUSH1 0xA0 SHL SUB DUP10 AND PUSH1 0x0 SWAP1 DUP2 MSTORE PUSH1 0xE PUSH1 0x20 SWAP1 DUP2 MSTORE PUSH1 0x40 DUP1 DUP4 KECCAK256 DUP5 DUP5 MSTORE DUP3 MSTORE SWAP2 DUP3 SWAP1 KECCAK256 DUP3 MLOAD DUP1 DUP5 ADD SWAP1 SWAP4 MSTORE DUP1 SLOAD DUP1 DUP5 MSTORE PUSH1 0x1 SWAP1 SWAP2 ADD SLOAD SWAP2 DUP4 ADD SWAP2 SWAP1 SWAP2 MSTORE SWAP2 SWAP3 POP SWAP1 DUP9 EQ ISZERO PUSH2 0x1947 JUMPI PUSH1 0x20 DUP2 ADD MLOAD SWAP1 MLOAD SWAP1 SWAP7 POP SWAP5 POP PUSH2 0x199E SWAP4 POP POP POP POP JUMP JUMPDEST DUP1 MLOAD DUP9 GT ISZERO PUSH2 0x1958 JUMPI DUP2 SWAP4 POP PUSH2 0x1966 JUMP JUMPDEST PUSH2 0x1963 PUSH1 0x1 DUP4 PUSH2 0x23C4 JUMP JUMPDEST SWAP3 POP JUMPDEST POP POP PUSH2 0x18BE JUMP JUMPDEST POP PUSH1 0x1 PUSH1 0x1 PUSH1 0xA0 SHL SUB DUP7 AND PUSH1 0x0 SWAP1 DUP2 MSTORE PUSH1 0xE PUSH1 0x20 SWAP1 DUP2 MSTORE PUSH1 0x40 DUP1 DUP4 KECCAK256 SWAP4 DUP4 MSTORE SWAP3 SWAP1 MSTORE KECCAK256 PUSH1 0x1 DUP2 ADD SLOAD SWAP1 SLOAD SWAP1 SWAP4 POP SWAP2 POP POP JUMPDEST SWAP3 POP SWAP3 SWAP1 POP JUMP JUMPDEST PUSH1 0x0 DUP2 DUP4 LT ISZERO PUSH2 0x19B5 JUMPI DUP2 PUSH2 0x8D6 JUMP JUMPDEST POP SWAP1 SWAP2 SWAP1 POP JUMP JUMPDEST PUSH1 0x1 PUSH1 0x1 PUSH1 0xA0 SHL SUB DUP3 AND PUSH1 0x0 SWAP1 DUP2 MSTORE PUSH1 0x2 PUSH1 0x20 SWAP1 DUP2 MSTORE PUSH1 0x40 DUP1 DUP4 KECCAK256 SLOAD PUSH1 0x3 SWAP1 SWAP3 MSTORE DUP3 KECCAK256 SLOAD PUSH1 0xD SLOAD DUP4 SWAP3 SWAP2 SWAP1 PUSH2 0x19F4 JUMPI SWAP3 POP SWAP1 POP PUSH2 0x199E JUMP JUMPDEST PUSH1 0x1 PUSH1 0x1 PUSH1 0xA0 SHL SUB DUP7 AND PUSH1 0x0 SWAP1 DUP2 MSTORE PUSH1 0x20 DUP2 SWAP1 MSTORE PUSH1 0x40 SWAP1 KECCAK256 SLOAD PUSH2 0x1A1D JUMPI SWAP3 POP TIMESTAMP SWAP2 POP PUSH2 0x199E SWAP1 POP JUMP JUMPDEST PUSH1 0x0 PUSH2 0x1A28 DUP4 PUSH2 0x890 JUMP JUMPDEST SWAP1 POP PUSH1 0x0 PUSH2 0x1A44 PUSH1 0x1 PUSH1 0xD SLOAD PUSH2 0x1A3E SWAP2 SWAP1 PUSH2 0x23C4 JUMP JUMPDEST DUP9 PUSH2 0x1B1B JUMP JUMPDEST SWAP1 POP DUP2 JUMPDEST DUP2 DUP2 LT ISZERO PUSH2 0x1B0C JUMPI PUSH1 0x0 DUP2 DUP2 MSTORE PUSH1 0xC PUSH1 0x20 SWAP1 DUP2 MSTORE PUSH1 0x40 SWAP2 DUP3 SWAP1 KECCAK256 DUP3 MLOAD DUP1 DUP5 ADD SWAP1 SWAP4 MSTORE DUP1 SLOAD DUP4 MSTORE PUSH1 0x1 ADD SLOAD SWAP1 DUP3 ADD DUP2 SWAP1 MSTORE ISZERO PUSH2 0x1AF9 JUMPI PUSH1 0x0 PUSH1 0xC DUP2 PUSH2 0x1A8D DUP6 PUSH1 0x1 PUSH2 0x23DB JUMP JUMPDEST DUP2 MSTORE PUSH1 0x20 ADD SWAP1 DUP2 MSTORE PUSH1 0x20 ADD PUSH1 0x0 KECCAK256 PUSH1 0x40 MLOAD DUP1 PUSH1 0x40 ADD PUSH1 0x40 MSTORE SWAP1 DUP2 PUSH1 0x0 DUP3 ADD SLOAD DUP2 MSTORE PUSH1 0x20 ADD PUSH1 0x1 DUP3 ADD SLOAD DUP2 MSTORE POP POP SWAP1 POP PUSH1 0x0 DUP1 PUSH2 0x1AD8 DUP14 DUP5 PUSH1 0x0 ADD MLOAD DUP7 PUSH1 0x0 ADD MLOAD DUP8 PUSH1 0x20 ADD MLOAD DUP14 PUSH2 0x2160 JUMP JUMPDEST SWAP1 SWAP3 POP SWAP1 POP PUSH2 0x1AE7 DUP3 DUP10 PUSH2 0x23DB JUMP JUMPDEST SWAP8 POP PUSH2 0x1AF4 DUP14 DUP10 DUP4 PUSH2 0x1F79 JUMP JUMPDEST SWAP8 POP POP POP JUMPDEST POP DUP1 PUSH2 0x1B04 DUP2 PUSH2 0x2434 JUMP JUMPDEST SWAP2 POP POP PUSH2 0x1A48 JUMP JUMPDEST POP SWAP2 SWAP8 SWAP3 SWAP7 POP SWAP2 SWAP5 POP POP POP POP POP JUMP JUMPDEST PUSH1 0x0 DUP2 DUP4 LT PUSH2 0x19B5 JUMPI DUP2 PUSH2 0x8D6 JUMP JUMPDEST PUSH1 0x0 DUP3 DUP2 MSTORE PUSH1 0xB PUSH1 0x20 MSTORE PUSH1 0x40 SWAP1 KECCAK256 SLOAD TIMESTAMP SWAP1 DUP1 ISZERO DUP1 ISZERO SWAP1 PUSH2 0x1B74 JUMPI POP PUSH1 0x0 DUP5 DUP2 MSTORE PUSH1 0xA PUSH1 0x20 MSTORE PUSH1 0x40 DUP2 KECCAK256 DUP4 SWAP2 PUSH2 0x1B60 PUSH1 0x1 DUP6 PUSH2 0x23C4 JUMP JUMPDEST DUP2 MSTORE PUSH1 0x20 ADD SWAP1 DUP2 MSTORE PUSH1 0x20 ADD PUSH1 0x0 KECCAK256 PUSH1 0x0 ADD SLOAD EQ JUMPDEST ISZERO PUSH2 0x1BAD JUMPI PUSH1 0x0 DUP5 DUP2 MSTORE PUSH1 0xA PUSH1 0x20 MSTORE PUSH1 0x40 DUP2 KECCAK256 DUP5 SWAP2 PUSH2 0x1B94 PUSH1 0x1 DUP6 PUSH2 0x23C4 JUMP JUMPDEST DUP2 MSTORE PUSH1 0x20 DUP2 ADD SWAP2 SWAP1 SWAP2 MSTORE PUSH1 0x40 ADD PUSH1 0x0 KECCAK256 PUSH1 0x1 ADD SSTORE PUSH2 0x1BFD JUMP JUMPDEST PUSH1 0x40 DUP1 MLOAD DUP1 DUP3 ADD DUP3 MSTORE DUP4 DUP2 MSTORE PUSH1 0x20 DUP1 DUP3 ADD DUP7 DUP2 MSTORE PUSH1 0x0 DUP9 DUP2 MSTORE PUSH1 0xA DUP4 MSTORE DUP5 DUP2 KECCAK256 DUP7 DUP3 MSTORE SWAP1 SWAP3 MSTORE SWAP3 SWAP1 KECCAK256 SWAP1 MLOAD DUP2 SSTORE SWAP1 MLOAD PUSH1 0x1 SWAP2 DUP3 ADD SSTORE PUSH2 0x1BED SWAP1 DUP3 SWAP1 PUSH2 0x23DB JUMP JUMPDEST PUSH1 0x0 DUP6 DUP2 MSTORE PUSH1 0xB PUSH1 0x20 MSTORE PUSH1 0x40 SWAP1 KECCAK256 SSTORE JUMPDEST POP POP POP POP JUMP JUMPDEST PUSH1 0xD SLOAD TIMESTAMP DUP2 ISZERO DUP1 ISZERO SWAP1 PUSH2 0x1C35 JUMPI POP DUP1 PUSH1 0xC PUSH1 0x0 PUSH2 0x1C21 PUSH1 0x1 DUP7 PUSH2 0x23C4 JUMP JUMPDEST DUP2 MSTORE PUSH1 0x20 ADD SWAP1 DUP2 MSTORE PUSH1 0x20 ADD PUSH1 0x0 KECCAK256 PUSH1 0x0 ADD SLOAD EQ JUMPDEST ISZERO PUSH2 0x1C64 JUMPI PUSH1 0x8 SLOAD PUSH1 0xC PUSH1 0x0 PUSH2 0x1C4C PUSH1 0x1 DUP7 PUSH2 0x23C4 JUMP JUMPDEST DUP2 MSTORE PUSH1 0x20 DUP2 ADD SWAP2 SWAP1 SWAP2 MSTORE PUSH1 0x40 ADD PUSH1 0x0 KECCAK256 PUSH1 0x1 ADD SSTORE POP POP JUMP JUMPDEST PUSH1 0x40 DUP1 MLOAD DUP1 DUP3 ADD DUP3 MSTORE DUP3 DUP2 MSTORE PUSH1 0x8 SLOAD PUSH1 0x20 DUP1 DUP4 ADD SWAP2 DUP3 MSTORE PUSH1 0x0 DUP7 DUP2 MSTORE PUSH1 0xC SWAP1 SWAP2 MSTORE SWAP3 SWAP1 SWAP3 KECCAK256 SWAP1 MLOAD DUP2 SSTORE SWAP1 MLOAD PUSH1 0x1 SWAP2 DUP3 ADD SSTORE PUSH2 0x1CA0 SWAP1 DUP4 SWAP1 PUSH2 0x23DB JUMP JUMPDEST PUSH1 0xD SSTORE POP POP JUMP JUMPDEST PUSH1 0x1 PUSH1 0x1 PUSH1 0xA0 SHL SUB DUP2 AND PUSH1 0x0 SWAP1 DUP2 MSTORE PUSH1 0x2 PUSH1 0x20 SWAP1 DUP2 MSTORE PUSH1 0x40 DUP1 DUP4 KECCAK256 SLOAD PUSH1 0x3 SWAP1 SWAP3 MSTORE DUP3 KECCAK256 SLOAD PUSH1 0xD SLOAD DUP4 SWAP3 SWAP2 SWAP1 PUSH2 0x1CDF JUMPI SWAP5 SWAP1 SWAP4 POP SWAP2 POP POP JUMP JUMPDEST PUSH1 0x1 PUSH1 0x1 PUSH1 0xA0 SHL SUB DUP6 AND PUSH1 0x0 SWAP1 DUP2 MSTORE PUSH1 0x20 DUP2 SWAP1 MSTORE PUSH1 0x40 SWAP1 KECCAK256 SLOAD PUSH2 0x1D06 JUMPI SWAP5 TIMESTAMP SWAP5 POP SWAP3 POP POP POP JUMP JUMPDEST PUSH1 0x0 PUSH2 0x1D11 DUP4 PUSH2 0x890 JUMP JUMPDEST SWAP1 POP PUSH1 0x0 PUSH1 0x1 PUSH1 0xD SLOAD PUSH2 0x1D24 SWAP2 SWAP1 PUSH2 0x23C4 JUMP JUMPDEST SWAP1 POP PUSH1 0x1 PUSH2 0x1D32 DUP4 DUP4 PUSH2 0x23C4 JUMP JUMPDEST GT ISZERO PUSH2 0x1E0A JUMPI DUP2 JUMPDEST PUSH2 0x1D45 PUSH1 0x1 DUP4 PUSH2 0x23C4 JUMP JUMPDEST DUP2 LT ISZERO PUSH2 0x1E08 JUMPI PUSH1 0x0 DUP2 DUP2 MSTORE PUSH1 0xC PUSH1 0x20 SWAP1 DUP2 MSTORE PUSH1 0x40 SWAP2 DUP3 SWAP1 KECCAK256 DUP3 MLOAD DUP1 DUP5 ADD SWAP1 SWAP4 MSTORE DUP1 SLOAD DUP4 MSTORE PUSH1 0x1 ADD SLOAD SWAP1 DUP3 ADD DUP2 SWAP1 MSTORE ISZERO PUSH2 0x1DF5 JUMPI PUSH1 0x0 PUSH1 0xC DUP2 PUSH2 0x1D89 DUP6 PUSH1 0x1 PUSH2 0x23DB JUMP JUMPDEST DUP2 MSTORE PUSH1 0x20 ADD SWAP1 DUP2 MSTORE PUSH1 0x20 ADD PUSH1 0x0 KECCAK256 PUSH1 0x40 MLOAD DUP1 PUSH1 0x40 ADD PUSH1 0x40 MSTORE SWAP1 DUP2 PUSH1 0x0 DUP3 ADD SLOAD DUP2 MSTORE PUSH1 0x20 ADD PUSH1 0x1 DUP3 ADD SLOAD DUP2 MSTORE POP POP SWAP1 POP PUSH1 0x0 DUP1 PUSH2 0x1DD4 DUP13 DUP5 PUSH1 0x0 ADD MLOAD DUP7 PUSH1 0x0 ADD MLOAD DUP8 PUSH1 0x20 ADD MLOAD DUP14 PUSH2 0x2160 JUMP JUMPDEST SWAP1 SWAP3 POP SWAP1 POP PUSH2 0x1DE3 DUP3 DUP10 PUSH2 0x23DB JUMP JUMPDEST SWAP8 POP PUSH2 0x1DF0 DUP13 DUP10 DUP4 PUSH2 0x1F79 JUMP JUMPDEST SWAP8 POP POP POP JUMPDEST POP DUP1 PUSH2 0x1E00 DUP2 PUSH2 0x2434 JUMP JUMPDEST SWAP2 POP POP PUSH2 0x1D3A JUMP JUMPDEST POP JUMPDEST PUSH1 0x0 DUP2 DUP2 MSTORE PUSH1 0xC PUSH1 0x20 SWAP1 DUP2 MSTORE PUSH1 0x40 SWAP2 DUP3 SWAP1 KECCAK256 DUP3 MLOAD DUP1 DUP5 ADD SWAP1 SWAP4 MSTORE DUP1 SLOAD DUP4 MSTORE PUSH1 0x1 ADD SLOAD SWAP1 DUP3 ADD DUP2 SWAP1 MSTORE ISZERO PUSH2 0x1E7C JUMPI PUSH1 0x0 PUSH2 0x1E5D DUP10 PUSH2 0x1E46 DUP12 PUSH2 0x86C JUMP JUMPDEST DUP5 MLOAD PUSH2 0x1E52 SWAP1 DUP11 PUSH2 0x19A5 JUMP JUMPDEST DUP6 PUSH1 0x20 ADD MLOAD DUP11 PUSH2 0x2160 JUMP JUMPDEST POP SWAP1 POP PUSH2 0x1E6A DUP2 DUP7 PUSH2 0x23DB JUMP JUMPDEST SWAP5 POP PUSH2 0x1E77 DUP10 DUP7 TIMESTAMP PUSH2 0x1F79 JUMP JUMPDEST TIMESTAMP SWAP6 POP POP JUMPDEST POP SWAP2 SWAP7 SWAP3 SWAP6 POP SWAP2 SWAP4 POP POP POP POP JUMP JUMPDEST PUSH1 0x0 DUP4 PUSH1 0x1 PUSH1 0x1 PUSH1 0xA0 SHL SUB AND EXTCODESIZE GT PUSH2 0x1EA1 JUMPI PUSH1 0x0 DUP1 REVERT JUMPDEST PUSH1 0x40 DUP1 MLOAD PUSH1 0x1 PUSH1 0x1 PUSH1 0xA0 SHL SUB DUP5 DUP2 AND PUSH1 0x24 DUP4 ADD MSTORE PUSH1 0x44 DUP1 DUP4 ADD DUP6 SWAP1 MSTORE DUP4 MLOAD DUP1 DUP5 SUB SWAP1 SWAP2 ADD DUP2 MSTORE PUSH1 0x64 SWAP1 SWAP3 ADD DUP4 MSTORE PUSH1 0x20 DUP3 ADD DUP1 MLOAD PUSH1 0x1 PUSH1 0x1 PUSH1 0xE0 SHL SUB AND PUSH4 0xA9059CBB PUSH1 0xE0 SHL OR SWAP1 MSTORE SWAP2 MLOAD PUSH1 0x0 SWAP3 DUP4 SWAP3 SWAP1 DUP8 AND SWAP2 PUSH2 0x1EFD SWAP2 SWAP1 PUSH2 0x24BD JUMP JUMPDEST PUSH1 0x0 PUSH1 0x40 MLOAD DUP1 DUP4 SUB DUP2 PUSH1 0x0 DUP7 GAS CALL SWAP2 POP POP RETURNDATASIZE DUP1 PUSH1 0x0 DUP2 EQ PUSH2 0x1F3A JUMPI PUSH1 0x40 MLOAD SWAP2 POP PUSH1 0x1F NOT PUSH1 0x3F RETURNDATASIZE ADD AND DUP3 ADD PUSH1 0x40 MSTORE RETURNDATASIZE DUP3 MSTORE RETURNDATASIZE PUSH1 0x0 PUSH1 0x20 DUP5 ADD RETURNDATACOPY PUSH2 0x1F3F JUMP JUMPDEST PUSH1 0x60 SWAP2 POP JUMPDEST POP SWAP2 POP SWAP2 POP DUP2 DUP1 ISZERO PUSH2 0x1F69 JUMPI POP DUP1 MLOAD ISZERO DUP1 PUSH2 0x1F69 JUMPI POP DUP1 DUP1 PUSH1 0x20 ADD SWAP1 MLOAD DUP2 ADD SWAP1 PUSH2 0x1F69 SWAP2 SWAP1 PUSH2 0x249B JUMP JUMPDEST PUSH2 0x1F72 JUMPI PUSH1 0x0 DUP1 REVERT JUMPDEST POP POP POP POP POP JUMP JUMPDEST PUSH1 0x1 PUSH1 0x1 PUSH1 0xA0 SHL SUB DUP4 AND PUSH1 0x0 SWAP1 DUP2 MSTORE PUSH1 0xF PUSH1 0x20 MSTORE PUSH1 0x40 SWAP1 KECCAK256 SLOAD DUP1 ISZERO DUP1 ISZERO SWAP1 PUSH2 0x1FD5 JUMPI POP PUSH1 0x1 PUSH1 0x1 PUSH1 0xA0 SHL SUB DUP5 AND PUSH1 0x0 SWAP1 DUP2 MSTORE PUSH1 0xE PUSH1 0x20 MSTORE PUSH1 0x40 DUP2 KECCAK256 DUP4 SWAP2 PUSH2 0x1FC1 PUSH1 0x1 DUP6 PUSH2 0x23C4 JUMP JUMPDEST DUP2 MSTORE PUSH1 0x20 ADD SWAP1 DUP2 MSTORE PUSH1 0x20 ADD PUSH1 0x0 KECCAK256 PUSH1 0x0 ADD SLOAD EQ JUMPDEST ISZERO PUSH2 0x1FFF JUMPI PUSH1 0x1 PUSH1 0x1 PUSH1 0xA0 SHL SUB DUP5 AND PUSH1 0x0 SWAP1 DUP2 MSTORE PUSH1 0xE PUSH1 0x20 MSTORE PUSH1 0x40 DUP2 KECCAK256 DUP5 SWAP2 PUSH2 0x1B94 PUSH1 0x1 DUP6 PUSH2 0x23C4 JUMP JUMPDEST PUSH1 0x40 DUP1 MLOAD DUP1 DUP3 ADD DUP3 MSTORE DUP4 DUP2 MSTORE PUSH1 0x20 DUP1 DUP3 ADD DUP7 DUP2 MSTORE PUSH1 0x1 PUSH1 0x1 PUSH1 0xA0 SHL SUB DUP9 AND PUSH1 0x0 SWAP1 DUP2 MSTORE PUSH1 0xE DUP4 MSTORE DUP5 DUP2 KECCAK256 DUP7 DUP3 MSTORE SWAP1 SWAP3 MSTORE SWAP3 SWAP1 KECCAK256 SWAP1 MLOAD DUP2 SSTORE SWAP1 MLOAD PUSH1 0x1 SWAP2 DUP3 ADD SSTORE PUSH2 0x2049 SWAP1 DUP3 SWAP1 PUSH2 0x23DB JUMP JUMPDEST PUSH1 0x1 PUSH1 0x1 PUSH1 0xA0 SHL SUB DUP6 AND PUSH1 0x0 SWAP1 DUP2 MSTORE PUSH1 0xF PUSH1 0x20 MSTORE PUSH1 0x40 SWAP1 KECCAK256 SSTORE POP POP POP POP JUMP JUMPDEST PUSH1 0x0 DUP5 PUSH1 0x1 PUSH1 0x1 PUSH1 0xA0 SHL SUB AND EXTCODESIZE GT PUSH2 0x207F JUMPI PUSH1 0x0 DUP1 REVERT JUMPDEST PUSH1 0x40 DUP1 MLOAD PUSH1 0x1 PUSH1 0x1 PUSH1 0xA0 SHL SUB DUP6 DUP2 AND PUSH1 0x24 DUP4 ADD MSTORE DUP5 DUP2 AND PUSH1 0x44 DUP4 ADD MSTORE PUSH1 0x64 DUP1 DUP4 ADD DUP6 SWAP1 MSTORE DUP4 MLOAD DUP1 DUP5 SUB SWAP1 SWAP2 ADD DUP2 MSTORE PUSH1 0x84 SWAP1 SWAP3 ADD DUP4 MSTORE PUSH1 0x20 DUP3 ADD DUP1 MLOAD PUSH1 0x1 PUSH1 0x1 PUSH1 0xE0 SHL SUB AND PUSH4 0x23B872DD PUSH1 0xE0 SHL OR SWAP1 MSTORE SWAP2 MLOAD PUSH1 0x0 SWAP3 DUP4 SWAP3 SWAP1 DUP9 AND SWAP2 PUSH2 0x20E3 SWAP2 SWAP1 PUSH2 0x24BD JUMP JUMPDEST PUSH1 0x0 PUSH1 0x40 MLOAD DUP1 DUP4 SUB DUP2 PUSH1 0x0 DUP7 GAS CALL SWAP2 POP POP RETURNDATASIZE DUP1 PUSH1 0x0 DUP2 EQ PUSH2 0x2120 JUMPI PUSH1 0x40 MLOAD SWAP2 POP PUSH1 0x1F NOT PUSH1 0x3F RETURNDATASIZE ADD AND DUP3 ADD PUSH1 0x40 MSTORE RETURNDATASIZE DUP3 MSTORE RETURNDATASIZE PUSH1 0x0 PUSH1 0x20 DUP5 ADD RETURNDATACOPY PUSH2 0x2125 JUMP JUMPDEST PUSH1 0x60 SWAP2 POP JUMPDEST POP SWAP2 POP SWAP2 POP DUP2 DUP1 ISZERO PUSH2 0x214F JUMPI POP DUP1 MLOAD ISZERO DUP1 PUSH2 0x214F JUMPI POP DUP1 DUP1 PUSH1 0x20 ADD SWAP1 MLOAD DUP2 ADD SWAP1 PUSH2 0x214F SWAP2 SWAP1 PUSH2 0x249B JUMP JUMPDEST PUSH2 0x2158 JUMPI PUSH1 0x0 DUP1 REVERT JUMPDEST POP POP POP POP POP POP JUMP JUMPDEST PUSH1 0x0 DUP1 PUSH1 0x0 PUSH2 0x216F DUP8 DUP6 PUSH2 0x19A5 JUMP JUMPDEST PUSH1 0x1 PUSH1 0x1 PUSH1 0xA0 SHL SUB DUP10 AND PUSH1 0x0 SWAP1 DUP2 MSTORE PUSH1 0x20 DUP2 SWAP1 MSTORE PUSH1 0x40 SWAP1 KECCAK256 SLOAD SWAP1 SWAP2 POP DUP6 SWAP1 PUSH8 0xDE0B6B3A7640000 SWAP1 PUSH2 0x21C2 PUSH2 0x21A4 DUP11 DUP10 PUSH2 0x19A5 JUMP JUMPDEST PUSH1 0x1 PUSH1 0x1 PUSH1 0xA0 SHL SUB DUP14 AND PUSH1 0x0 SWAP1 DUP2 MSTORE PUSH1 0x1 PUSH1 0x20 MSTORE PUSH1 0x40 SWAP1 KECCAK256 SLOAD PUSH2 0x1B1B JUMP JUMPDEST PUSH1 0x1 PUSH1 0x1 PUSH1 0xA0 SHL SUB DUP13 AND PUSH1 0x0 SWAP1 DUP2 MSTORE PUSH1 0x1 PUSH1 0x20 MSTORE PUSH1 0x40 SWAP1 KECCAK256 SLOAD PUSH2 0x21E6 SWAP1 DUP7 SWAP1 PUSH2 0x1B1B JUMP JUMPDEST PUSH2 0x21F0 SWAP2 SWAP1 PUSH2 0x23C4 JUMP JUMPDEST PUSH2 0x21FA SWAP2 SWAP1 PUSH2 0x23F3 JUMP JUMPDEST PUSH2 0x2204 SWAP2 SWAP1 PUSH2 0x23F3 JUMP JUMPDEST PUSH2 0x220E SWAP2 SWAP1 PUSH2 0x2412 JUMP JUMPDEST SWAP9 SWAP1 SWAP8 POP SWAP6 POP POP POP POP POP POP JUMP JUMPDEST PUSH1 0x1 PUSH1 0x1 PUSH1 0xA0 SHL SUB DUP2 AND DUP2 EQ PUSH2 0x2230 JUMPI PUSH1 0x0 DUP1 REVERT JUMPDEST POP JUMP JUMPDEST DUP1 CALLDATALOAD PUSH2 0x223E DUP2 PUSH2 0x221B JUMP JUMPDEST SWAP2 SWAP1 POP JUMP JUMPDEST PUSH1 0x0 DUP1 PUSH1 0x40 DUP4 DUP6 SUB SLT ISZERO PUSH2 0x2256 JUMPI PUSH1 0x0 DUP1 REVERT JUMPDEST DUP3 CALLDATALOAD PUSH2 0x2261 DUP2 PUSH2 0x221B JUMP JUMPDEST SWAP5 PUSH1 0x20 SWAP4 SWAP1 SWAP4 ADD CALLDATALOAD SWAP4 POP POP POP JUMP JUMPDEST PUSH1 0x0 PUSH1 0x20 DUP3 DUP5 SUB SLT ISZERO PUSH2 0x2281 JUMPI PUSH1 0x0 DUP1 REVERT JUMPDEST DUP2 CALLDATALOAD PUSH2 0x8D6 DUP2 PUSH2 0x221B JUMP JUMPDEST PUSH1 0x0 DUP1 PUSH1 0x40 DUP4 DUP6 SUB SLT ISZERO PUSH2 0x229F JUMPI PUSH1 0x0 DUP1 REVERT JUMPDEST POP POP DUP1 CALLDATALOAD SWAP3 PUSH1 0x20 SWAP1 SWAP2 ADD CALLDATALOAD SWAP2 POP JUMP JUMPDEST PUSH1 0x0 PUSH1 0x20 DUP3 DUP5 SUB SLT ISZERO PUSH2 0x22C0 JUMPI PUSH1 0x0 DUP1 REVERT JUMPDEST POP CALLDATALOAD SWAP2 SWAP1 POP JUMP JUMPDEST PUSH4 0x4E487B71 PUSH1 0xE0 SHL PUSH1 0x0 MSTORE PUSH1 0x41 PUSH1 0x4 MSTORE PUSH1 0x24 PUSH1 0x0 REVERT JUMPDEST PUSH1 0x0 DUP1 PUSH1 0x40 DUP4 DUP6 SUB SLT ISZERO PUSH2 0x22F0 JUMPI PUSH1 0x0 DUP1 REVERT JUMPDEST DUP3 CALLDATALOAD SWAP2 POP PUSH1 0x20 DUP1 DUP5 ADD CALLDATALOAD PUSH8 0xFFFFFFFFFFFFFFFF DUP1 DUP3 GT ISZERO PUSH2 0x2310 JUMPI PUSH1 0x0 DUP1 REVERT JUMPDEST DUP2 DUP7 ADD SWAP2 POP DUP7 PUSH1 0x1F DUP4 ADD SLT PUSH2 0x2324 JUMPI PUSH1 0x0 DUP1 REVERT JUMPDEST DUP2 CALLDATALOAD DUP2 DUP2 GT ISZERO PUSH2 0x2336 JUMPI PUSH2 0x2336 PUSH2 0x22C7 JUMP JUMPDEST DUP1 PUSH1 0x5 SHL PUSH1 0x40 MLOAD PUSH1 0x1F NOT PUSH1 0x3F DUP4 ADD AND DUP2 ADD DUP2 DUP2 LT DUP6 DUP3 GT OR ISZERO PUSH2 0x235B JUMPI PUSH2 0x235B PUSH2 0x22C7 JUMP JUMPDEST PUSH1 0x40 MSTORE SWAP2 DUP3 MSTORE DUP5 DUP3 ADD SWAP3 POP DUP4 DUP2 ADD DUP6 ADD SWAP2 DUP10 DUP4 GT ISZERO PUSH2 0x2379 JUMPI PUSH1 0x0 DUP1 REVERT JUMPDEST SWAP4 DUP6 ADD SWAP4 JUMPDEST DUP3 DUP6 LT ISZERO PUSH2 0x239E JUMPI PUSH2 0x238F DUP6 PUSH2 0x2233 JUMP JUMPDEST DUP5 MSTORE SWAP4 DUP6 ADD SWAP4 SWAP3 DUP6 ADD SWAP3 PUSH2 0x237E JUMP JUMPDEST DUP1 SWAP7 POP POP POP POP POP POP POP SWAP3 POP SWAP3 SWAP1 POP JUMP JUMPDEST PUSH4 0x4E487B71 PUSH1 0xE0 SHL PUSH1 0x0 MSTORE PUSH1 0x11 PUSH1 0x4 MSTORE PUSH1 0x24 PUSH1 0x0 REVERT JUMPDEST PUSH1 0x0 DUP3 DUP3 LT ISZERO PUSH2 0x23D6 JUMPI PUSH2 0x23D6 PUSH2 0x23AE JUMP JUMPDEST POP SUB SWAP1 JUMP JUMPDEST PUSH1 0x0 DUP3 NOT DUP3 GT ISZERO PUSH2 0x23EE JUMPI PUSH2 0x23EE PUSH2 0x23AE JUMP JUMPDEST POP ADD SWAP1 JUMP JUMPDEST PUSH1 0x0 DUP2 PUSH1 0x0 NOT DIV DUP4 GT DUP3 ISZERO ISZERO AND ISZERO PUSH2 0x240D JUMPI PUSH2 0x240D PUSH2 0x23AE JUMP JUMPDEST POP MUL SWAP1 JUMP JUMPDEST PUSH1 0x0 DUP3 PUSH2 0x242F JUMPI PUSH4 0x4E487B71 PUSH1 0xE0 SHL PUSH1 0x0 MSTORE PUSH1 0x12 PUSH1 0x4 MSTORE PUSH1 0x24 PUSH1 0x0 REVERT JUMPDEST POP DIV SWAP1 JUMP JUMPDEST PUSH1 0x0 PUSH1 0x0 NOT DUP3 EQ ISZERO PUSH2 0x2448 JUMPI PUSH2 0x2448 PUSH2 0x23AE JUMP JUMPDEST POP PUSH1 0x1 ADD SWAP1 JUMP JUMPDEST PUSH1 0x0 PUSH1 0x20 DUP3 DUP5 SUB SLT ISZERO PUSH2 0x2461 JUMPI PUSH1 0x0 DUP1 REVERT JUMPDEST DUP2 MLOAD PUSH2 0x8D6 DUP2 PUSH2 0x221B JUMP JUMPDEST PUSH4 0x4E487B71 PUSH1 0xE0 SHL PUSH1 0x0 MSTORE PUSH1 0x32 PUSH1 0x4 MSTORE PUSH1 0x24 PUSH1 0x0 REVERT JUMPDEST PUSH1 0x0 PUSH1 0x20 DUP3 DUP5 SUB SLT ISZERO PUSH2 0x2494 JUMPI PUSH1 0x0 DUP1 REVERT JUMPDEST POP MLOAD SWAP2 SWAP1 POP JUMP JUMPDEST PUSH1 0x0 PUSH1 0x20 DUP3 DUP5 SUB SLT ISZERO PUSH2 0x24AD JUMPI PUSH1 0x0 DUP1 REVERT JUMPDEST DUP2 MLOAD DUP1 ISZERO ISZERO DUP2 EQ PUSH2 0x8D6 JUMPI PUSH1 0x0 DUP1 REVERT JUMPDEST PUSH1 0x0 DUP3 MLOAD PUSH1 0x0 JUMPDEST DUP2 DUP2 LT ISZERO PUSH2 0x24DE JUMPI PUSH1 0x20 DUP2 DUP7 ADD DUP2 ADD MLOAD DUP6 DUP4 ADD MSTORE ADD PUSH2 0x24C4 JUMP JUMPDEST DUP2 DUP2 GT ISZERO PUSH2 0x24ED JUMPI PUSH1 0x0 DUP3 DUP6 ADD MSTORE JUMPDEST POP SWAP2 SWAP1 SWAP2 ADD SWAP3 SWAP2 POP POP JUMP INVALID LOG2 PUSH5 0x6970667358 0x22 SLT KECCAK256 MUL 0xF 0x22 GASLIMIT SLT 0xDA CHAINID 0xC0 0xDE 0xDD PUSH24 0x919A4016C292D2E19E5EEEE0AD98191BE59A06391D64736F PUSH13 0x634300080B0033A26469706673 PC 0x22 SLT KECCAK256 CODECOPY ORIGIN BLOCKHASH PUSH19 0xC9509CB6290DE73576F4C2BE9CA0B2088451 0xED 0xF 0x5E 0xEB 0x4F POP 0xAC CALL 0x2F PUSH5 0x736F6C6343 STOP ADDMOD SIGNEXTEND STOP CALLER "
        },
        "methodIdentifiers": {
          "createBribe()": "d27b9a78",
          "last_gauge()": "730a8bdb"
        }
      }
    }
  }
}