{
  "contracts/FetchFormula.sol": {
    "FetchFormula": {
      "abi": [
        {
          "inputs": [
            {
              "internalType": "uint256",
              "name": "_lockTime",
              "type": "uint256"
            }
          ],
          "name": "bonusPercent",
          "outputs": [
            {
              "internalType": "uint256",
              "name": "",
              "type": "uint256"
            }
          ],
          "stateMutability": "pure",
          "type": "function"
        }
      ],
      "evm": {
        "bytecode": {
          "linkReferences": {},
          "object": "608060405234801561001057600080fd5b50610172806100206000396000f3fe608060405234801561001057600080fd5b506004361061002b5760003560e01c8063faf1ebfd14610030575b600080fd5b61004361003e366004610123565b610055565b60405190815260200160405180910390f35b60006276a700821015801561006c575062ed4e0082105b1561007957506032919050565b62ed4e00821015801561008f57506301e1338082105b1561009c5750604b919050565b6301e1338082101580156100b357506303c2670082105b156100c057506064919050565b6303c2670082101580156100d757506305a39a8082105b156100e457506064919050565b6305a39a8082101580156100fb5750630784ce0082105b1561010857506064919050565b630784ce00821061011b57506064919050565b506000919050565b60006020828403121561013557600080fd5b503591905056fea26469706673582212200bc5421ef93e3a3109257a76902022214c26e628cb481561a2c1a4a39c452aac64736f6c634300080b0033",
          "opcodes": "PUSH1 0x80 PUSH1 0x40 MSTORE CALLVALUE DUP1 ISZERO PUSH2 0x10 JUMPI PUSH1 0x0 DUP1 REVERT JUMPDEST POP PUSH2 0x172 DUP1 PUSH2 0x20 PUSH1 0x0 CODECOPY PUSH1 0x0 RETURN INVALID PUSH1 0x80 PUSH1 0x40 MSTORE CALLVALUE DUP1 ISZERO PUSH2 0x10 JUMPI PUSH1 0x0 DUP1 REVERT JUMPDEST POP PUSH1 0x4 CALLDATASIZE LT PUSH2 0x2B JUMPI PUSH1 0x0 CALLDATALOAD PUSH1 0xE0 SHR DUP1 PUSH4 0xFAF1EBFD EQ PUSH2 0x30 JUMPI JUMPDEST PUSH1 0x0 DUP1 REVERT JUMPDEST PUSH2 0x43 PUSH2 0x3E CALLDATASIZE PUSH1 0x4 PUSH2 0x123 JUMP JUMPDEST PUSH2 0x55 JUMP JUMPDEST PUSH1 0x40 MLOAD SWAP1 DUP2 MSTORE PUSH1 0x20 ADD PUSH1 0x40 MLOAD DUP1 SWAP2 SUB SWAP1 RETURN JUMPDEST PUSH1 0x0 PUSH3 0x76A700 DUP3 LT ISZERO DUP1 ISZERO PUSH2 0x6C JUMPI POP PUSH3 0xED4E00 DUP3 LT JUMPDEST ISZERO PUSH2 0x79 JUMPI POP PUSH1 0x32 SWAP2 SWAP1 POP JUMP JUMPDEST PUSH3 0xED4E00 DUP3 LT ISZERO DUP1 ISZERO PUSH2 0x8F JUMPI POP PUSH4 0x1E13380 DUP3 LT JUMPDEST ISZERO PUSH2 0x9C JUMPI POP PUSH1 0x4B SWAP2 SWAP1 POP JUMP JUMPDEST PUSH4 0x1E13380 DUP3 LT ISZERO DUP1 ISZERO PUSH2 0xB3 JUMPI POP PUSH4 0x3C26700 DUP3 LT JUMPDEST ISZERO PUSH2 0xC0 JUMPI POP PUSH1 0x64 SWAP2 SWAP1 POP JUMP JUMPDEST PUSH4 0x3C26700 DUP3 LT ISZERO DUP1 ISZERO PUSH2 0xD7 JUMPI POP PUSH4 0x5A39A80 DUP3 LT JUMPDEST ISZERO PUSH2 0xE4 JUMPI POP PUSH1 0x64 SWAP2 SWAP1 POP JUMP JUMPDEST PUSH4 0x5A39A80 DUP3 LT ISZERO DUP1 ISZERO PUSH2 0xFB JUMPI POP PUSH4 0x784CE00 DUP3 LT JUMPDEST ISZERO PUSH2 0x108 JUMPI POP PUSH1 0x64 SWAP2 SWAP1 POP JUMP JUMPDEST PUSH4 0x784CE00 DUP3 LT PUSH2 0x11B JUMPI POP PUSH1 0x64 SWAP2 SWAP1 POP JUMP JUMPDEST POP PUSH1 0x0 SWAP2 SWAP1 POP JUMP JUMPDEST PUSH1 0x0 PUSH1 0x20 DUP3 DUP5 SUB SLT ISZERO PUSH2 0x135 JUMPI PUSH1 0x0 DUP1 REVERT JUMPDEST POP CALLDATALOAD SWAP2 SWAP1 POP JUMP INVALID LOG2 PUSH5 0x6970667358 0x22 SLT KECCAK256 SIGNEXTEND 0xC5 TIMESTAMP 0x1E 0xF9 RETURNDATACOPY GASPRICE BALANCE MULMOD 0x25 PUSH27 0x76902022214C26E628CB481561A2C1A4A39C452AAC64736F6C6343 STOP ADDMOD SIGNEXTEND STOP CALLER "
        },
        "methodIdentifiers": {
          "bonusPercent(uint256)": "faf1ebfd"
        }
      }
    }
  }
}