{
  "contracts/ve_temp.sol": {
    "ve": {
      "abi": [
        {
          "inputs": [
            {
              "internalType": "address",
              "name": "token_addr",
              "type": "address"
            }
          ],
          "stateMutability": "nonpayable",
          "type": "constructor"
        },
        {
          "anonymous": false,
          "inputs": [
            {
              "indexed": true,
              "internalType": "address",
              "name": "owner",
              "type": "address"
            },
            {
              "indexed": true,
              "internalType": "address",
              "name": "approved",
              "type": "address"
            },
            {
              "indexed": true,
              "internalType": "uint256",
              "name": "tokenId",
              "type": "uint256"
            }
          ],
          "name": "Approval",
          "type": "event"
        },
        {
          "anonymous": false,
          "inputs": [
            {
              "indexed": true,
              "internalType": "address",
              "name": "owner",
              "type": "address"
            },
            {
              "indexed": true,
              "internalType": "address",
              "name": "operator",
              "type": "address"
            },
            {
              "indexed": false,
              "internalType": "bool",
              "name": "approved",
              "type": "bool"
            }
          ],
          "name": "ApprovalForAll",
          "type": "event"
        },
        {
          "anonymous": false,
          "inputs": [
            {
              "indexed": true,
              "internalType": "address",
              "name": "provider",
              "type": "address"
            },
            {
              "indexed": false,
              "internalType": "uint256",
              "name": "tokenId",
              "type": "uint256"
            },
            {
              "indexed": false,
              "internalType": "uint256",
              "name": "value",
              "type": "uint256"
            },
            {
              "indexed": true,
              "internalType": "uint256",
              "name": "locktime",
              "type": "uint256"
            },
            {
              "indexed": false,
              "internalType": "enum ve.DepositType",
              "name": "deposit_type",
              "type": "uint8"
            },
            {
              "indexed": false,
              "internalType": "uint256",
              "name": "ts",
              "type": "uint256"
            }
          ],
          "name": "Deposit",
          "type": "event"
        },
        {
          "anonymous": false,
          "inputs": [
            {
              "indexed": false,
              "internalType": "uint256",
              "name": "prevSupply",
              "type": "uint256"
            },
            {
              "indexed": false,
              "internalType": "uint256",
              "name": "supply",
              "type": "uint256"
            }
          ],
          "name": "Supply",
          "type": "event"
        },
        {
          "anonymous": false,
          "inputs": [
            {
              "indexed": true,
              "internalType": "address",
              "name": "from",
              "type": "address"
            },
            {
              "indexed": true,
              "internalType": "address",
              "name": "to",
              "type": "address"
            },
            {
              "indexed": true,
              "internalType": "uint256",
              "name": "tokenId",
              "type": "uint256"
            }
          ],
          "name": "Transfer",
          "type": "event"
        },
        {
          "anonymous": false,
          "inputs": [
            {
              "indexed": true,
              "internalType": "address",
              "name": "provider",
              "type": "address"
            },
            {
              "indexed": false,
              "internalType": "uint256",
              "name": "tokenId",
              "type": "uint256"
            },
            {
              "indexed": false,
              "internalType": "uint256",
              "name": "value",
              "type": "uint256"
            },
            {
              "indexed": false,
              "internalType": "uint256",
              "name": "ts",
              "type": "uint256"
            }
          ],
          "name": "Withdraw",
          "type": "event"
        },
        {
          "inputs": [
            {
              "internalType": "uint256",
              "name": "_tokenId",
              "type": "uint256"
            }
          ],
          "name": "abstain",
          "outputs": [],
          "stateMutability": "nonpayable",
          "type": "function"
        },
        {
          "inputs": [
            {
              "internalType": "address",
              "name": "_approved",
              "type": "address"
            },
            {
              "internalType": "uint256",
              "name": "_tokenId",
              "type": "uint256"
            }
          ],
          "name": "approve",
          "outputs": [],
          "stateMutability": "nonpayable",
          "type": "function"
        },
        {
          "inputs": [
            {
              "internalType": "uint256",
              "name": "_tokenId",
              "type": "uint256"
            }
          ],
          "name": "attach",
          "outputs": [],
          "stateMutability": "nonpayable",
          "type": "function"
        },
        {
          "inputs": [
            {
              "internalType": "uint256",
              "name": "",
              "type": "uint256"
            }
          ],
          "name": "attachments",
          "outputs": [
            {
              "internalType": "uint256",
              "name": "",
              "type": "uint256"
            }
          ],
          "stateMutability": "view",
          "type": "function"
        },
        {
          "inputs": [
            {
              "internalType": "address",
              "name": "_owner",
              "type": "address"
            }
          ],
          "name": "balanceOf",
          "outputs": [
            {
              "internalType": "uint256",
              "name": "",
              "type": "uint256"
            }
          ],
          "stateMutability": "view",
          "type": "function"
        },
        {
          "inputs": [
            {
              "internalType": "uint256",
              "name": "_tokenId",
              "type": "uint256"
            },
            {
              "internalType": "uint256",
              "name": "_block",
              "type": "uint256"
            }
          ],
          "name": "balanceOfAtNFT",
          "outputs": [
            {
              "internalType": "uint256",
              "name": "",
              "type": "uint256"
            }
          ],
          "stateMutability": "view",
          "type": "function"
        },
        {
          "inputs": [
            {
              "internalType": "uint256",
              "name": "_tokenId",
              "type": "uint256"
            }
          ],
          "name": "balanceOfNFT",
          "outputs": [
            {
              "internalType": "uint256",
              "name": "",
              "type": "uint256"
            }
          ],
          "stateMutability": "view",
          "type": "function"
        },
        {
          "inputs": [
            {
              "internalType": "uint256",
              "name": "_tokenId",
              "type": "uint256"
            },
            {
              "internalType": "uint256",
              "name": "_t",
              "type": "uint256"
            }
          ],
          "name": "balanceOfNFTAt",
          "outputs": [
            {
              "internalType": "uint256",
              "name": "",
              "type": "uint256"
            }
          ],
          "stateMutability": "view",
          "type": "function"
        },
        {
          "inputs": [],
          "name": "block_number",
          "outputs": [
            {
              "internalType": "uint256",
              "name": "",
              "type": "uint256"
            }
          ],
          "stateMutability": "view",
          "type": "function"
        },
        {
          "inputs": [],
          "name": "checkpoint",
          "outputs": [],
          "stateMutability": "nonpayable",
          "type": "function"
        },
        {
          "inputs": [
            {
              "internalType": "uint256",
              "name": "_value",
              "type": "uint256"
            },
            {
              "internalType": "uint256",
              "name": "_lock_duration",
              "type": "uint256"
            }
          ],
          "name": "create_lock",
          "outputs": [
            {
              "internalType": "uint256",
              "name": "",
              "type": "uint256"
            }
          ],
          "stateMutability": "nonpayable",
          "type": "function"
        },
        {
          "inputs": [
            {
              "internalType": "uint256",
              "name": "_value",
              "type": "uint256"
            },
            {
              "internalType": "uint256",
              "name": "_lock_duration",
              "type": "uint256"
            },
            {
              "internalType": "address",
              "name": "_to",
              "type": "address"
            }
          ],
          "name": "create_lock_for",
          "outputs": [
            {
              "internalType": "uint256",
              "name": "",
              "type": "uint256"
            }
          ],
          "stateMutability": "nonpayable",
          "type": "function"
        },
        {
          "inputs": [],
          "name": "decimals",
          "outputs": [
            {
              "internalType": "uint8",
              "name": "",
              "type": "uint8"
            }
          ],
          "stateMutability": "view",
          "type": "function"
        },
        {
          "inputs": [
            {
              "internalType": "uint256",
              "name": "_tokenId",
              "type": "uint256"
            },
            {
              "internalType": "uint256",
              "name": "_value",
              "type": "uint256"
            }
          ],
          "name": "deposit_for",
          "outputs": [],
          "stateMutability": "nonpayable",
          "type": "function"
        },
        {
          "inputs": [
            {
              "internalType": "uint256",
              "name": "_tokenId",
              "type": "uint256"
            }
          ],
          "name": "detach",
          "outputs": [],
          "stateMutability": "nonpayable",
          "type": "function"
        },
        {
          "inputs": [],
          "name": "epoch",
          "outputs": [
            {
              "internalType": "uint256",
              "name": "",
              "type": "uint256"
            }
          ],
          "stateMutability": "view",
          "type": "function"
        },
        {
          "inputs": [
            {
              "internalType": "uint256",
              "name": "_tokenId",
              "type": "uint256"
            }
          ],
          "name": "getApproved",
          "outputs": [
            {
              "internalType": "address",
              "name": "",
              "type": "address"
            }
          ],
          "stateMutability": "view",
          "type": "function"
        },
        {
          "inputs": [
            {
              "internalType": "uint256",
              "name": "_tokenId",
              "type": "uint256"
            }
          ],
          "name": "get_last_user_slope",
          "outputs": [
            {
              "internalType": "int128",
              "name": "",
              "type": "int128"
            }
          ],
          "stateMutability": "view",
          "type": "function"
        },
        {
          "inputs": [
            {
              "internalType": "uint256",
              "name": "_tokenId",
              "type": "uint256"
            },
            {
              "internalType": "uint256",
              "name": "_value",
              "type": "uint256"
            }
          ],
          "name": "increase_amount",
          "outputs": [],
          "stateMutability": "nonpayable",
          "type": "function"
        },
        {
          "inputs": [
            {
              "internalType": "uint256",
              "name": "_tokenId",
              "type": "uint256"
            },
            {
              "internalType": "uint256",
              "name": "_lock_duration",
              "type": "uint256"
            }
          ],
          "name": "increase_unlock_time",
          "outputs": [],
          "stateMutability": "nonpayable",
          "type": "function"
        },
        {
          "inputs": [
            {
              "internalType": "address",
              "name": "_owner",
              "type": "address"
            },
            {
              "internalType": "address",
              "name": "_operator",
              "type": "address"
            }
          ],
          "name": "isApprovedForAll",
          "outputs": [
            {
              "internalType": "bool",
              "name": "",
              "type": "bool"
            }
          ],
          "stateMutability": "view",
          "type": "function"
        },
        {
          "inputs": [
            {
              "internalType": "address",
              "name": "_spender",
              "type": "address"
            },
            {
              "internalType": "uint256",
              "name": "_tokenId",
              "type": "uint256"
            }
          ],
          "name": "isApprovedOrOwner",
          "outputs": [
            {
              "internalType": "bool",
              "name": "",
              "type": "bool"
            }
          ],
          "stateMutability": "view",
          "type": "function"
        },
        {
          "inputs": [
            {
              "internalType": "uint256",
              "name": "",
              "type": "uint256"
            }
          ],
          "name": "locked",
          "outputs": [
            {
              "internalType": "int128",
              "name": "amount",
              "type": "int128"
            },
            {
              "internalType": "uint256",
              "name": "end",
              "type": "uint256"
            }
          ],
          "stateMutability": "view",
          "type": "function"
        },
        {
          "inputs": [
            {
              "internalType": "uint256",
              "name": "_tokenId",
              "type": "uint256"
            }
          ],
          "name": "locked__end",
          "outputs": [
            {
              "internalType": "uint256",
              "name": "",
              "type": "uint256"
            }
          ],
          "stateMutability": "view",
          "type": "function"
        },
        {
          "inputs": [
            {
              "internalType": "uint256",
              "name": "_from",
              "type": "uint256"
            },
            {
              "internalType": "uint256",
              "name": "_to",
              "type": "uint256"
            }
          ],
          "name": "merge",
          "outputs": [],
          "stateMutability": "nonpayable",
          "type": "function"
        },
        {
          "inputs": [],
          "name": "name",
          "outputs": [
            {
              "internalType": "string",
              "name": "",
              "type": "string"
            }
          ],
          "stateMutability": "view",
          "type": "function"
        },
        {
          "inputs": [
            {
              "internalType": "uint256",
              "name": "_tokenId",
              "type": "uint256"
            }
          ],
          "name": "ownerOf",
          "outputs": [
            {
              "internalType": "address",
              "name": "",
              "type": "address"
            }
          ],
          "stateMutability": "view",
          "type": "function"
        },
        {
          "inputs": [
            {
              "internalType": "uint256",
              "name": "",
              "type": "uint256"
            }
          ],
          "name": "ownership_change",
          "outputs": [
            {
              "internalType": "uint256",
              "name": "",
              "type": "uint256"
            }
          ],
          "stateMutability": "view",
          "type": "function"
        },
        {
          "inputs": [
            {
              "internalType": "uint256",
              "name": "",
              "type": "uint256"
            }
          ],
          "name": "point_history",
          "outputs": [
            {
              "internalType": "int128",
              "name": "bias",
              "type": "int128"
            },
            {
              "internalType": "int128",
              "name": "slope",
              "type": "int128"
            },
            {
              "internalType": "uint256",
              "name": "ts",
              "type": "uint256"
            },
            {
              "internalType": "uint256",
              "name": "blk",
              "type": "uint256"
            }
          ],
          "stateMutability": "view",
          "type": "function"
        },
        {
          "inputs": [
            {
              "internalType": "address",
              "name": "_from",
              "type": "address"
            },
            {
              "internalType": "address",
              "name": "_to",
              "type": "address"
            },
            {
              "internalType": "uint256",
              "name": "_tokenId",
              "type": "uint256"
            }
          ],
          "name": "safeTransferFrom",
          "outputs": [],
          "stateMutability": "nonpayable",
          "type": "function"
        },
        {
          "inputs": [
            {
              "internalType": "address",
              "name": "_from",
              "type": "address"
            },
            {
              "internalType": "address",
              "name": "_to",
              "type": "address"
            },
            {
              "internalType": "uint256",
              "name": "_tokenId",
              "type": "uint256"
            },
            {
              "internalType": "bytes",
              "name": "_data",
              "type": "bytes"
            }
          ],
          "name": "safeTransferFrom",
          "outputs": [],
          "stateMutability": "nonpayable",
          "type": "function"
        },
        {
          "inputs": [
            {
              "internalType": "address",
              "name": "_operator",
              "type": "address"
            },
            {
              "internalType": "bool",
              "name": "_approved",
              "type": "bool"
            }
          ],
          "name": "setApprovalForAll",
          "outputs": [],
          "stateMutability": "nonpayable",
          "type": "function"
        },
        {
          "inputs": [
            {
              "internalType": "address",
              "name": "_voter",
              "type": "address"
            }
          ],
          "name": "setVoter",
          "outputs": [],
          "stateMutability": "nonpayable",
          "type": "function"
        },
        {
          "inputs": [
            {
              "internalType": "uint256",
              "name": "",
              "type": "uint256"
            }
          ],
          "name": "slope_changes",
          "outputs": [
            {
              "internalType": "int128",
              "name": "",
              "type": "int128"
            }
          ],
          "stateMutability": "view",
          "type": "function"
        },
        {
          "inputs": [],
          "name": "supply",
          "outputs": [
            {
              "internalType": "uint256",
              "name": "",
              "type": "uint256"
            }
          ],
          "stateMutability": "view",
          "type": "function"
        },
        {
          "inputs": [
            {
              "internalType": "bytes4",
              "name": "_interfaceID",
              "type": "bytes4"
            }
          ],
          "name": "supportsInterface",
          "outputs": [
            {
              "internalType": "bool",
              "name": "",
              "type": "bool"
            }
          ],
          "stateMutability": "view",
          "type": "function"
        },
        {
          "inputs": [],
          "name": "symbol",
          "outputs": [
            {
              "internalType": "string",
              "name": "",
              "type": "string"
            }
          ],
          "stateMutability": "view",
          "type": "function"
        },
        {
          "inputs": [],
          "name": "token",
          "outputs": [
            {
              "internalType": "address",
              "name": "",
              "type": "address"
            }
          ],
          "stateMutability": "view",
          "type": "function"
        },
        {
          "inputs": [
            {
              "internalType": "address",
              "name": "_owner",
              "type": "address"
            },
            {
              "internalType": "uint256",
              "name": "_tokenIndex",
              "type": "uint256"
            }
          ],
          "name": "tokenOfOwnerByIndex",
          "outputs": [
            {
              "internalType": "uint256",
              "name": "",
              "type": "uint256"
            }
          ],
          "stateMutability": "view",
          "type": "function"
        },
        {
          "inputs": [
            {
              "internalType": "uint256",
              "name": "_tokenId",
              "type": "uint256"
            }
          ],
          "name": "tokenURI",
          "outputs": [
            {
              "internalType": "string",
              "name": "",
              "type": "string"
            }
          ],
          "stateMutability": "view",
          "type": "function"
        },
        {
          "inputs": [],
          "name": "totalSupply",
          "outputs": [
            {
              "internalType": "uint256",
              "name": "",
              "type": "uint256"
            }
          ],
          "stateMutability": "view",
          "type": "function"
        },
        {
          "inputs": [
            {
              "internalType": "uint256",
              "name": "_block",
              "type": "uint256"
            }
          ],
          "name": "totalSupplyAt",
          "outputs": [
            {
              "internalType": "uint256",
              "name": "",
              "type": "uint256"
            }
          ],
          "stateMutability": "view",
          "type": "function"
        },
        {
          "inputs": [
            {
              "internalType": "uint256",
              "name": "t",
              "type": "uint256"
            }
          ],
          "name": "totalSupplyAtT",
          "outputs": [
            {
              "internalType": "uint256",
              "name": "",
              "type": "uint256"
            }
          ],
          "stateMutability": "view",
          "type": "function"
        },
        {
          "inputs": [
            {
              "internalType": "address",
              "name": "_from",
              "type": "address"
            },
            {
              "internalType": "address",
              "name": "_to",
              "type": "address"
            },
            {
              "internalType": "uint256",
              "name": "_tokenId",
              "type": "uint256"
            }
          ],
          "name": "transferFrom",
          "outputs": [],
          "stateMutability": "nonpayable",
          "type": "function"
        },
        {
          "inputs": [
            {
              "internalType": "uint256",
              "name": "",
              "type": "uint256"
            }
          ],
          "name": "user_point_epoch",
          "outputs": [
            {
              "internalType": "uint256",
              "name": "",
              "type": "uint256"
            }
          ],
          "stateMutability": "view",
          "type": "function"
        },
        {
          "inputs": [
            {
              "internalType": "uint256",
              "name": "",
              "type": "uint256"
            },
            {
              "internalType": "uint256",
              "name": "",
              "type": "uint256"
            }
          ],
          "name": "user_point_history",
          "outputs": [
            {
              "internalType": "int128",
              "name": "bias",
              "type": "int128"
            },
            {
              "internalType": "int128",
              "name": "slope",
              "type": "int128"
            },
            {
              "internalType": "uint256",
              "name": "ts",
              "type": "uint256"
            },
            {
              "internalType": "uint256",
              "name": "blk",
              "type": "uint256"
            }
          ],
          "stateMutability": "view",
          "type": "function"
        },
        {
          "inputs": [
            {
              "internalType": "uint256",
              "name": "_tokenId",
              "type": "uint256"
            },
            {
              "internalType": "uint256",
              "name": "_idx",
              "type": "uint256"
            }
          ],
          "name": "user_point_history__ts",
          "outputs": [
            {
              "internalType": "uint256",
              "name": "",
              "type": "uint256"
            }
          ],
          "stateMutability": "view",
          "type": "function"
        },
        {
          "inputs": [],
          "name": "version",
          "outputs": [
            {
              "internalType": "string",
              "name": "",
              "type": "string"
            }
          ],
          "stateMutability": "view",
          "type": "function"
        },
        {
          "inputs": [
            {
              "internalType": "uint256",
              "name": "",
              "type": "uint256"
            }
          ],
          "name": "voted",
          "outputs": [
            {
              "internalType": "bool",
              "name": "",
              "type": "bool"
            }
          ],
          "stateMutability": "view",
          "type": "function"
        },
        {
          "inputs": [],
          "name": "voter",
          "outputs": [
            {
              "internalType": "address",
              "name": "",
              "type": "address"
            }
          ],
          "stateMutability": "view",
          "type": "function"
        },
        {
          "inputs": [
            {
              "internalType": "uint256",
              "name": "_tokenId",
              "type": "uint256"
            }
          ],
          "name": "voting",
          "outputs": [],
          "stateMutability": "nonpayable",
          "type": "function"
        },
        {
          "inputs": [
            {
              "internalType": "uint256",
              "name": "_tokenId",
              "type": "uint256"
            }
          ],
          "name": "withdraw",
          "outputs": [],
          "stateMutability": "nonpayable",
          "type": "function"
        }
      ],
      "evm": {
        "bytecode": {
          "linkReferences": {},
          "object": "60a06040526014805460ff191660011790553480156200001e57600080fd5b5060405162003dcd38038062003dcd833981016040819052620000419162000181565b6001600160a01b038116608052600a80546001600160a01b03191633179055437f17ef568e3e12ab5b9c7254a8d58478811de00f9e6eb34345acd53bf8fd09d3ee55427f17ef568e3e12ab5b9c7254a8d58478811de00f9e6eb34345acd53bf8fd09d3ed5560136020527f317681100331673b27c2499894e78912f138ae85f2dd790e454ff96a89cf2d77805460ff1990811660019081179092557f5829b1f18259a9cdcd4268c3b072804d2f8e3dedbb1b883db1fa2055bb26d84f8054821683179055635b5e139f60e01b60009081527f65cb089fa41783e5af12e88573d882f263c09532a373334f0b809825d5a904ab80549092169092179055600b546040519091309160008051602062003dad833981519152908290a4600b54604051600090309060008051602062003dad833981519152908390a450620001b3565b6000602082840312156200019457600080fd5b81516001600160a01b0381168114620001ac57600080fd5b9392505050565b608051613bd0620001dd6000396000818161087a01528181610bca01526128300152613bd06000f3fe608060405234801561001057600080fd5b506004361061030c5760003560e01c80638c2c9baf1161019d578063c87b56dd116100e9578063e7e242d4116100a2578063f8a057631161007c578063f8a057631461083e578063fbd3a29d14610862578063fc0c546a14610875578063fd4a77f11461089c57600080fd5b8063e7e242d4146107dc578063e985e9c5146107ef578063ee99fe281461082b57600080fd5b8063c87b56dd14610732578063d1c2babb14610745578063d1febfb914610758578063d4e54c3b14610796578063e0514aba146107a9578063e441135c146107bc57600080fd5b8063a183af5211610156578063b45a3c0e11610130578063b45a3c0e146106bc578063b88d4fde14610704578063c1f0fb9f14610717578063c2c4c5c11461072a57600080fd5b8063a183af5214610683578063a22cb46514610696578063a4d855df146106a957600080fd5b80638c2c9baf1461061e5780638fbb38ff14610631578063900cf0cf1461065457806395d89b411461036a578063981b24d01461065d578063986b7d8a1461067057600080fd5b8063313ce5671161025c57806354fd4d50116102155780636f548837116101ef5780636f548837146105b557806370a08231146105d55780637116c60c146105e857806371197484146105fb57600080fd5b806354fd4d50146105555780636352211e1461057957806365fc3873146105a257600080fd5b8063313ce567146104c957806342842e0e146104e3578063430c2081146104f6578063461f711c1461050957806346c96aac1461052f5780634bc2a6571461054257600080fd5b80631376f3da116102c957806323b872dd116102a357806323b872dd1461046757806325a58b561461047a5780632e1a7d4d146104805780632f745c591461049357600080fd5b80631376f3da1461041157806318160ddd1461044c5780631c984bc31461045457600080fd5b806301ffc9a714610311578063047fc9aa1461035357806306fdde031461036a578063081812fc1461039b578063095ea7b3146103dc5780630d6a2033146103f1575b600080fd5b61033e61031f36600461306b565b6001600160e01b03191660009081526013602052604090205460ff1690565b60405190151581526020015b60405180910390f35b61035c60005481565b60405190815260200161034a565b61038e604051806040016040528060058152602001641d9953919560da1b81525081565b60405161034a91906130e0565b6103c46103a93660046130f3565b6000908152600e60205260409020546001600160a01b031690565b6040516001600160a01b03909116815260200161034a565b6103ef6103ea366004613128565b6108af565b005b61035c6103ff3660046130f3565b60086020526000908152604090205481565b61042461041f366004613152565b610998565b60408051600f95860b81529390940b602084015292820152606081019190915260800161034a565b61035c6109df565b61035c610462366004613152565b6109ef565b6103ef610475366004613174565b610a22565b4361035c565b6103ef61048e3660046130f3565b610a33565b61035c6104a1366004613128565b6001600160a01b03919091166000908152601060209081526040808320938352929052205490565b6104d1601281565b60405160ff909116815260200161034a565b6103ef6104f1366004613174565b610ced565b61033e610504366004613128565b610d08565b61051c6105173660046130f3565b610d1b565b604051600f9190910b815260200161034a565b600a546103c4906001600160a01b031681565b6103ef6105503660046131b0565b610d5e565b61038e604051806040016040528060058152602001640312e302e360dc1b81525081565b6103c46105873660046130f3565b6000908152600d60205260409020546001600160a01b031690565b61035c6105b0366004613152565b610d97565b61035c6105c33660046130f3565b60026020526000908152604090205481565b61035c6105e33660046131b0565b610dd9565b61035c6105f63660046130f3565b610df7565b61051c6106093660046130f3565b600760205260009081526040902054600f0b81565b61035c61062c366004613152565b610e57565b61033e61063f3660046130f3565b60096020526000908152604090205460ff1681565b61035c60035481565b61035c61066b3660046130f3565b610e63565b6103ef61067e3660046130f3565b611005565b6103ef610691366004613152565b611049565b6103ef6106a43660046131d9565b611148565b6103ef6106b7366004613152565b6111cd565b6106ea6106ca3660046130f3565b60016020819052600091825260409091208054910154600f9190910b9082565b60408051600f9390930b835260208301919091520161034a565b6103ef610712366004613226565b6113af565b6103ef6107253660046130f3565b6114dc565b6103ef611560565b61038e6107403660046130f3565b6115a0565b6103ef610753366004613152565b61164d565b6104246107663660046130f3565b600460205260009081526040902080546001820154600290920154600f82810b93600160801b909304900b919084565b61035c6107a4366004613302565b6117b8565b61035c6107b7366004613152565b6117fb565b61035c6107ca3660046130f3565b60066020526000908152604090205481565b61035c6107ea3660046130f3565b611807565b61033e6107fd366004613337565b6001600160a01b03918216600090815260126020908152604080832093909416825291909152205460ff1690565b6103ef610839366004613152565b61182f565b61035c61084c3660046130f3565b6000908152600160208190526040909120015490565b6103ef6108703660046130f3565b611903565b6103c47f000000000000000000000000000000000000000000000000000000000000000081565b6103ef6108aa3660046130f3565b611934565b6000818152600d60205260409020546001600160a01b0316806108d157600080fd5b806001600160a01b0316836001600160a01b031614156108f057600080fd5b6000828152600d60209081526040808320546001600160a01b0385811685526012845282852033808752945291909320549216149060ff1681806109315750805b61093a57600080fd5b6000848152600e602052604080822080546001600160a01b0319166001600160a01b0389811691821790925591518793918716917f8c5be1e5ebec7d5bd14f71427d1e84f3dd0314c0f7b2291e5b200ac8c7c3b92591a45050505050565b600560205281600052604060002081633b9aca0081106109b757600080fd5b6003020180546001820154600290920154600f82810b9550600160801b90920490910b925084565b60006109ea42610df7565b905090565b600082815260056020526040812082633b9aca008110610a1157610a1161336a565b600302016001015490505b92915050565b610a2e83838333611980565b505050565b60145460ff16600114610a4557600080fd5b6014805460ff19166002179055610a5c3382611a46565b610a6857610a68613380565b600081815260086020526040902054158015610a93575060008181526009602052604090205460ff16155b610ab85760405162461bcd60e51b8152600401610aaf90613396565b60405180910390fd5b60008181526001602081815260409283902083518085019094528054600f0b845290910154908201819052421015610b2b5760405162461bcd60e51b8152602060048201526016602482015275546865206c6f636b206469646e27742065787069726560501b6044820152606401610aaf565b805160408051808201825260008082526020808301828152878352600191829052938220925183546001600160801b0319166001600160801b039091161783559251919092015554600f9190910b90610b8482826133ce565b600081905550610bae848460405180604001604052806000600f0b81526020016000815250611aac565b60405163a9059cbb60e01b8152336004820152602481018390527f00000000000000000000000000000000000000000000000000000000000000006001600160a01b03169063a9059cbb906044016020604051808303816000875af1158015610c1b573d6000803e3d6000fd5b505050506040513d601f19601f82011682018060405250810190610c3f91906133e5565b610c4b57610c4b613380565b610c54846120cb565b60408051858152602081018490524281830152905133917f02f25270a4d87bea75db541cdfe559334a275b4a233520ed6c0a2429667cca94919081900360600190a27f5e2aa66efd74cce82b21852e317e5490d9ecc9e6bb953ae24d90851258cc2f5c81610cc284826133ce565b6040805192835260208301919091520160405180910390a150506014805460ff191660011790555050565b610a2e838383604051806020016040528060008152506113af565b6000610d148383611a46565b9392505050565b6000818152600660209081526040808320546005909252822081633b9aca008110610d4857610d4861336a565b6003020154600160801b9004600f0b9392505050565b600a546001600160a01b03163314610d7557600080fd5b600a80546001600160a01b0319166001600160a01b0392909216919091179055565b60145460009060ff16600114610dac57600080fd5b6014805460ff19166002179055610dc483833361218a565b90506014805460ff1916600117905592915050565b6001600160a01b0381166000908152600f6020526040812054610a1c565b600354600081815260046020908152604080832081516080810183528154600f81810b8352600160801b909104900b93810193909352600181015491830191909152600201546060820152909190610e4f81856122db565b949350505050565b6000610d1483836123dd565b600043821115610e7557610e75613380565b6003546000610e8484836126b5565b600081815260046020908152604080832081516080810183528154600f81810b8352600160801b909104900b9381019390935260018101549183019190915260020154606082015291925083831015610f93576000600481610ee7866001613402565b8152602080820192909252604090810160002081516080810183528154600f81810b8352600160801b909104900b9381019390935260018101549183019190915260020154606080830182905285015191925014610f8d5782606001518160600151610f5391906133ce565b83604001518260400151610f6791906133ce565b6060850151610f76908a6133ce565b610f80919061341a565b610f8a919061344f565b91505b50610fe2565b43826060015114610fe2576060820151610fad90436133ce565b6040830151610fbc90426133ce565b6060840151610fcb90896133ce565b610fd5919061341a565b610fdf919061344f565b90505b610ffb82828460400151610ff69190613402565b6122db565b9695505050505050565b600a546001600160a01b0316331461101c57600080fd5b600081815260086020526040902054611037906001906133ce565b60009182526008602052604090912055565b60145460ff1660011461105b57600080fd5b6014805460ff191660021790556110723383611a46565b61107e5761107e613380565b60008281526001602081815260409283902083518085019094528054600f0b84529091015490820152816110b4576110b4613380565b60008160000151600f0b136111045760405162461bcd60e51b8152602060048201526016602482015275139bc8195e1a5cdd1a5b99c81b1bd8dac8199bdd5b9960521b6044820152606401610aaf565b428160200151116111275760405162461bcd60e51b8152600401610aaf90613463565b6111368383600084600261273f565b50506014805460ff1916600117905550565b6001600160a01b03821633141561116157611161613380565b3360008181526012602090815260408083206001600160a01b03871680855290835292819020805460ff191686151590811790915590519081529192917f17307eab39ab6107e8899845ad3d59bd9653f200f220920489ca2b5937696c31910160405180910390a35050565b60145460ff166001146111df57600080fd5b6014805460ff191660021790556111f63383611a46565b61120257611202613380565b600082815260016020818152604080842081518083019092528054600f0b825290920154908201529062093a808061123a8542613402565b611244919061344f565b61124e919061341a565b9050428260200151116112925760405162461bcd60e51b815260206004820152600c60248201526b131bd8dac8195e1c1a5c995960a21b6044820152606401610aaf565b60008260000151600f0b136112dd5760405162461bcd60e51b8152602060048201526011602482015270139bdd1a1a5b99c81a5cc81b1bd8dad959607a1b6044820152606401610aaf565b816020015181116113305760405162461bcd60e51b815260206004820152601f60248201527f43616e206f6e6c7920696e637265617365206c6f636b206475726174696f6e006044820152606401610aaf565b61133e630784ce0042613402565b81111561138d5760405162461bcd60e51b815260206004820152601e60248201527f566f74696e67206c6f636b2063616e2062652034207965617273206d617800006044820152606401610aaf565b61139c8460008385600361273f565b50506014805460ff191660011790555050565b6113bb84848433611980565b823b156114d657604051630a85bd0160e11b81526001600160a01b0384169063150b7a02906113f49033908890879087906004016134a7565b6020604051808303816000875af192505050801561142f575060408051601f3d908101601f1916820190925261142c918101906134da565b60015b6114d4573d80801561145d576040519150601f19603f3d011682016040523d82523d6000602084013e611462565b606091505b5080516114cc5760405162461bcd60e51b815260206004820152603260248201527f4552433732313a207472616e7366657220746f206e6f6e20455243373231526560448201527131b2b4bb32b91034b6b83632b6b2b73a32b960711b6064820152608401610aaf565b805181602001fd5b505b50505050565b600a546001600160a01b031633146114f357600080fd5b6000818152600c602052604090205442116115485760405162461bcd60e51b8152602060048201526015602482015274111958591b1a5b99481b9bdd08199a5b9a5cda1959605a1b6044820152606401610aaf565b6000908152600960205260409020805460ff19169055565b61159e600060405180604001604052806000600f0b8152602001600081525060405180604001604052806000600f0b81526020016000815250611aac565b565b6000818152600d60205260409020546060906001600160a01b03166116075760405162461bcd60e51b815260206004820152601b60248201527f517565727920666f72206e6f6e6578697374656e7420746f6b656e00000000006044820152606401610aaf565b60008281526001602081815260409283902083518085019094528054600f0b84529091015490820152610d148361163e8142612944565b60208401518451600f0b612a16565b600082815260086020526040902054158015611678575060008281526009602052604090205460ff16155b6116945760405162461bcd60e51b8152600401610aaf90613396565b808214156116a157600080fd5b6116ab3383611a46565b6116b457600080fd5b6116be3382611a46565b6116c757600080fd5b6000828152600160208181526040808420815180830183528154600f90810b82529185015481850190815287875285855283872084518086019095528054840b855290950154938301849052805194519095929490910b92111561172f578260200151611735565b83602001515b604080518082018252600080825260208083018281528b83526001808352858420945185546001600160801b0319166001600160801b0390911617855590519301929092558251808401909352808352908201529091506117999087908690611aac565b6117a2866120cb565b6117b085838386600461273f565b505050505050565b60145460009060ff166001146117cd57600080fd5b6014805460ff191660021790556117e584848461218a565b90506014805460ff191660011790559392505050565b6000610d148383612944565b60008181526002602052604081205443141561182557506000919050565b610a1c8242612944565b60145460ff1660011461184157600080fd5b6014805460ff1916600217905560008281526001602081815260409283902083518085019094528054600f0b845290910154908201528161188157600080fd5b60008160000151600f0b136118d15760405162461bcd60e51b8152602060048201526016602482015275139bc8195e1a5cdd1a5b99c81b1bd8dac8199bdd5b9960521b6044820152606401610aaf565b428160200151116118f45760405162461bcd60e51b8152600401610aaf90613463565b6111368383600084600061273f565b600a546001600160a01b0316331461191a57600080fd5b600081815260086020526040902054611037906001613402565b600a546001600160a01b0316331461194b57600080fd5b6119584262093a80613402565b6000918252600c6020908152604080842092909255600990529020805460ff19166001179055565b6000828152600860205260409020541580156119ab575060008281526009602052604090205460ff16155b6119c75760405162461bcd60e51b8152600401610aaf90613396565b6119d18183611a46565b6119da57600080fd5b6119e48483612b4d565b6119ee8483612bb4565b6119f88383612c35565b6000828152600260205260408082204390555183916001600160a01b0380871692908816917fddf252ad1be2c89b69c2b068fc378daa952ba7f163c4a11628f55a4df523b3ef91a450505050565b6000818152600d6020908152604080832054600e8352818420546001600160a01b039182168086526012855283862088841680885295529285205492938085149392909116149060ff168280611a995750815b80611aa15750805b979650505050505050565b60408051608081018252600080825260208201819052918101829052606081019190915260408051608081018252600080825260208201819052918101829052606081019190915260035460009081908715611c1857428760200151118015611b1c575060008760000151600f0b135b15611b61578651611b3290630784ce00906134f7565b600f0b602080870191909152870151611b4c9042906133ce565b8560200151611b5b9190613535565b600f0b85525b428660200151118015611b7b575060008660000151600f0b135b15611bc0578551611b9190630784ce00906134f7565b600f0b602080860191909152860151611bab9042906133ce565b8460200151611bba9190613535565b600f0b84525b602080880151600090815260078252604090205490870151600f9190910b935015611c1857866020015186602001511415611bfd57829150611c18565b602080870151600090815260079091526040902054600f0b91505b604080516080810182526000808252602082015242918101919091524360608201528115611c8d575060008181526004602090815260409182902082516080810184528154600f81810b8352600160801b909104900b9281019290925260018101549282019290925260029091015460608201525b604081015181600042831015611cda576040840151611cac90426133ce565b6060850151611cbb90436133ce565b611ccd90670de0b6b3a764000061341a565b611cd7919061344f565b90505b600062093a80611cea818661344f565b611cf4919061341a565b905060005b60ff811015611e6f57611d0f62093a8083613402565b9150600042831115611d2357429250611d37565b50600082815260076020526040902054600f0b5b611d4186846133ce565b8760200151611d509190613535565b87518890611d5f9083906135ca565b600f0b905250602087018051829190611d7990839061361a565b600f90810b90915288516000910b12159050611d9457600087525b60008760200151600f0b1215611dac57600060208801525b60408088018490528501519295508592670de0b6b3a764000090611dd090856133ce565b611dda908661341a565b611de4919061344f565b8560600151611df39190613402565b6060880152611e03600189613402565b975042831415611e195750436060870152611e6f565b6000888152600460209081526040918290208951918a01516001600160801b03908116600160801b029216919091178155908801516001820155606088015160029091015550611e6881613669565b9050611cf9565b505060038590558b15611efa5788602001518860200151611e9091906135ca565b84602001818151611ea1919061361a565b600f0b90525088518851611eb591906135ca565b84518590611ec490839061361a565b600f90810b90915260208601516000910b12159050611ee557600060208501525b60008460000151600f0b1215611efa57600084525b6000858152600460209081526040918290208651918701516001600160801b03908116600160801b02921691909117815590850151600182015560608501516002909101558b156120bd57428b602001511115611fb2576020890151611f60908861361a565b96508a602001518a602001511415611f84576020880151611f8190886135ca565b96505b60208b810151600090815260079091526040902080546001600160801b0319166001600160801b0389161790555b428a60200151111561200d578a602001518a60200151111561200d576020880151611fdd90876135ca565b60208b810151600090815260079091526040902080546001600160801b0319166001600160801b03831617905595505b60008c815260066020526040812054612027906001613402565b905080600660008f815260200190815260200160002081905550428960400181815250504389606001818152505088600560008f815260200190815260200160002082633b9aca00811061207d5761207d61336a565b825160208401516001600160801b03908116600160801b029116176003919091029190910190815560408201516001820155606090910151600290910155505b505050505050505050505050565b6120d53382611a46565b6121215760405162461bcd60e51b815260206004820181905260248201527f63616c6c6572206973206e6f74206f776e6572206e6f7220617070726f7665646044820152606401610aaf565b6000818152600d60205260408120546001600160a01b03169061214490836108af565b61214e3383612bb4565b60405182906000906001600160a01b038416907fddf252ad1be2c89b69c2b068fc378daa952ba7f163c4a11628f55a4df523b3ef908390a45050565b60008062093a808061219c8642613402565b6121a6919061344f565b6121b0919061341a565b9050600085116121bf57600080fd5b42811161221d5760405162461bcd60e51b815260206004820152602660248201527f43616e206f6e6c79206c6f636b20756e74696c2074696d6520696e207468652060448201526566757475726560d01b6064820152608401610aaf565b61222b630784ce0042613402565b81111561227a5760405162461bcd60e51b815260206004820152601e60248201527f566f74696e67206c6f636b2063616e2062652034207965617273206d617800006044820152606401610aaf565b600b6000815461228990613669565b90915550600b5461229a8482612ccb565b5060008181526001602081815260409283902083518085019094528054600f0b8452820154908301526122d29183918991869161273f565b95945050505050565b600080839050600062093a808083604001516122f7919061344f565b612301919061341a565b905060005b60ff8110156123b55761231c62093a8083613402565b915060008583111561233057859250612344565b50600082815260076020526040902054600f0b5b604084015161235390846133ce565b84602001516123629190613535565b845185906123719083906135ca565b600f0b9052508286141561238557506123b5565b8084602001818151612397919061361a565b600f0b90525050604083018290526123ae81613669565b9050612306565b5060008260000151600f0b12156123cb57600082525b50516001600160801b03169392505050565b6000438211156123ef576123ef613380565b600083815260066020526040812054815b60808110156124935781831061241557612493565b600060026124238486613402565b61242e906001613402565b612438919061344f565b6000888152600560205260409020909150869082633b9aca00811061245f5761245f61336a565b60030201600201541161247457809350612482565b61247f6001826133ce565b92505b5061248c81613669565b9050612400565b50600085815260056020526040812083633b9aca0081106124b6576124b661336a565b604080516080810182526003928302939093018054600f81810b8652600160801b909104900b602085015260018101549184019190915260020154606083015254909150600061250687836126b5565b600081815260046020908152604080832081516080810183528154600f81810b8352600160801b909104900b9381019390935260018101549183019190915260020154606082015291925080848410156125e557600060048161256a876001613402565b8152602080820192909252604090810160002081516080810183528154600f81810b8352600160801b909104900b938101939093526001810154918301919091526002015460608083018290528601519192506125c791906133ce565b9250836040015181604001516125dd91906133ce565b915050612609565b60608301516125f490436133ce565b915082604001514261260691906133ce565b90505b60408301518215612646578284606001518c61262591906133ce565b61262f908461341a565b612639919061344f565b6126439082613402565b90505b604087015161265590826133ce565b87602001516126649190613535565b875188906126739083906135ca565b600f90810b90915288516000910b1290506126a357505093516001600160801b03169650610a1c95505050505050565b60009950505050505050505050610a1c565b60008082815b6080811015612735578183106126d057612735565b600060026126de8486613402565b6126e9906001613402565b6126f3919061344f565b600081815260046020526040902060020154909150871061271657809350612724565b6127216001826133ce565b92505b5061272e81613669565b90506126bb565b5090949350505050565b600054829061274e8682613402565b6000908155604080518082019091528181526020810191909152825160208085015190830152600f0b815282518790849061278a90839061361a565b600f0b905250851561279e57602083018690525b6000888152600160208181526040909220855181546001600160801b0319166001600160801b03909116178155918501519101556127dd888285611aac565b3387158015906127ff575060048560048111156127fc576127fc613684565b14155b156128a9576040516323b872dd60e01b81526001600160a01b038281166004830152306024830152604482018a90527f000000000000000000000000000000000000000000000000000000000000000016906323b872dd906064016020604051808303816000875af1158015612879573d6000803e3d6000fd5b505050506040513d601f19601f8201168201806040525081019061289d91906133e5565b6128a9576128a9613380565b8360200151816001600160a01b03167fff04ccafc360e16b67d682d17bd9503c4c6b9a131f6be6325762dc9ffc7de6248b8b89426040516128ed949392919061369a565b60405180910390a37f5e2aa66efd74cce82b21852e317e5490d9ecc9e6bb953ae24d90851258cc2f5c836129218a82613402565b6040805192835260208301919091520160405180910390a1505050505050505050565b60008281526006602052604081205480612962576000915050610a1c565b600084815260056020526040812082633b9aca0081106129845761298461336a565b60408051608081018252600392909202929092018054600f81810b8452600160801b909104900b6020830152600181015492820183905260020154606082015291506129d090856136d8565b81602001516129df9190613535565b815182906129ee9083906135ca565b600f90810b90915282516000910b12159050612a0957600081525b51600f0b9150610a1c9050565b606060405180610120016040528060fd8152602001613a5e60fd9139905080612a3e86612d2e565b604051602001612a4f929190613717565b604051602081830303815290604052905080612a6a85612d2e565b604051602001612a7b929190613793565b604051602081830303815290604052905080612a9684612d2e565b604051602001612aa7929190613813565b604051602081830303815290604052905080612ac283612d2e565b604051602001612ad3929190613894565b60405160208183030381529060405290506000612b20612af287612d2e565b612afb84612e2c565b604051602001612b0c9291906138ef565b604051602081830303815290604052612e2c565b905080604051602001612b339190613a04565b604051602081830303815290604052915050949350505050565b6000818152600d60205260409020546001600160a01b03838116911614612b7657612b76613380565b6000818152600e60205260409020546001600160a01b031615612bb0576000818152600e6020526040902080546001600160a01b03191690555b5050565b6000818152600d60205260409020546001600160a01b03838116911614612bdd57612bdd613380565b6000818152600d6020526040902080546001600160a01b0319169055612c038282612f92565b6001600160a01b0382166000908152600f60205260408120805460019290612c2c9084906133ce565b90915550505050565b6000818152600d60205260409020546001600160a01b031615612c5a57612c5a613380565b6000818152600d6020908152604080832080546001600160a01b0319166001600160a01b038716908117909155808452600f80845282852080546010865284872081885286528487208890558787526011865293862093909355908452909152805460019290612c2c908490613402565b60006001600160a01b038316612ce357612ce3613380565b612ced8383612c35565b60405182906001600160a01b038516906000907fddf252ad1be2c89b69c2b068fc378daa952ba7f163c4a11628f55a4df523b3ef908290a450600192915050565b606081612d525750506040805180820190915260018152600360fc1b602082015290565b8160005b8115612d7c5780612d6681613669565b9150612d759050600a8361344f565b9150612d56565b60008167ffffffffffffffff811115612d9757612d97613210565b6040519080825280601f01601f191660200182016040528015612dc1576020820181803683370190505b5090505b8415610e4f57612dd66001836133ce565b9150612de3600a86613a49565b612dee906030613402565b60f81b818381518110612e0357612e0361336a565b60200101906001600160f81b031916908160001a905350612e25600a8661344f565b9450612dc5565b805160609080612e4c575050604080516020810190915260008152919050565b60006003612e5b836002613402565b612e65919061344f565b612e7090600461341a565b90506000612e7f826020613402565b67ffffffffffffffff811115612e9757612e97613210565b6040519080825280601f01601f191660200182016040528015612ec1576020820181803683370190505b5090506000604051806060016040528060408152602001613b5b604091399050600181016020830160005b86811015612f4d576003818a01810151603f601282901c8116860151600c83901c8216870151600684901c831688015192909316870151600891821b60ff94851601821b92841692909201901b91160160e01b835260049092019101612eec565b506003860660018114612f675760028114612f7857612f84565b613d3d60f01b600119830152612f84565b603d60f81b6000198301525b505050918152949350505050565b6001600160a01b0382166000908152600f6020526040812054612fb7906001906133ce565b60008381526011602052604090205490915080821415613007576001600160a01b0384166000908152601060209081526040808320858452825280832083905585835260119091528120556114d6565b6001600160a01b039390931660009081526010602090815260408083209383529281528282208054868452848420819055835260119091528282209490945592839055908252812055565b6001600160e01b03198116811461306857600080fd5b50565b60006020828403121561307d57600080fd5b8135610d1481613052565b60005b838110156130a357818101518382015260200161308b565b838111156114d65750506000910152565b600081518084526130cc816020860160208601613088565b601f01601f19169290920160200192915050565b602081526000610d1460208301846130b4565b60006020828403121561310557600080fd5b5035919050565b80356001600160a01b038116811461312357600080fd5b919050565b6000806040838503121561313b57600080fd5b6131448361310c565b946020939093013593505050565b6000806040838503121561316557600080fd5b50508035926020909101359150565b60008060006060848603121561318957600080fd5b6131928461310c565b92506131a06020850161310c565b9150604084013590509250925092565b6000602082840312156131c257600080fd5b610d148261310c565b801515811461306857600080fd5b600080604083850312156131ec57600080fd5b6131f58361310c565b91506020830135613205816131cb565b809150509250929050565b634e487b7160e01b600052604160045260246000fd5b6000806000806080858703121561323c57600080fd5b6132458561310c565b93506132536020860161310c565b925060408501359150606085013567ffffffffffffffff8082111561327757600080fd5b818701915087601f83011261328b57600080fd5b81358181111561329d5761329d613210565b604051601f8201601f19908116603f011681019083821181831017156132c5576132c5613210565b816040528281528a60208487010111156132de57600080fd5b82602086016020830137600060208483010152809550505050505092959194509250565b60008060006060848603121561331757600080fd5b833592506020840135915061332e6040850161310c565b90509250925092565b6000806040838503121561334a57600080fd5b6133538361310c565b91506133616020840161310c565b90509250929050565b634e487b7160e01b600052603260045260246000fd5b634e487b7160e01b600052600160045260246000fd5b602080825260089082015267185d1d1858da195960c21b604082015260600190565b634e487b7160e01b600052601160045260246000fd5b6000828210156133e0576133e06133b8565b500390565b6000602082840312156133f757600080fd5b8151610d14816131cb565b60008219821115613415576134156133b8565b500190565b6000816000190483118215151615613434576134346133b8565b500290565b634e487b7160e01b600052601260045260246000fd5b60008261345e5761345e613439565b500490565b60208082526024908201527f43616e6e6f742061646420746f2065787069726564206c6f636b2e20576974686040820152636472617760e01b606082015260800190565b6001600160a01b0385811682528416602082015260408101839052608060608201819052600090610ffb908301846130b4565b6000602082840312156134ec57600080fd5b8151610d1481613052565b600081600f0b83600f0b8061350e5761350e613439565b60016001607f1b031982146000198214161561352c5761352c6133b8565b90059392505050565b600081600f0b83600f0b60016001607f1b03600082136000841383830485118282161615613565576135656133b8565b60016001607f1b03196000851282811687830587121615613588576135886133b8565b600087129250858205871284841616156135a4576135a46133b8565b858505871281841616156135ba576135ba6133b8565b5050509290910295945050505050565b600081600f0b83600f0b600081128160016001607f1b0319018312811516156135f5576135f56133b8565b8160016001607f1b03018313811615613610576136106133b8565b5090039392505050565b600081600f0b83600f0b600082128260016001607f1b0303821381151615613644576136446133b8565b8260016001607f1b0319038212811615613660576136606133b8565b50019392505050565b600060001982141561367d5761367d6133b8565b5060010190565b634e487b7160e01b600052602160045260246000fd5b8481526020810184905260808101600584106136c657634e487b7160e01b600052602160045260246000fd5b60408201939093526060015292915050565b60008083128015600160ff1b8501841216156136f6576136f66133b8565b6001600160ff1b0384018313811615613711576137116133b8565b50500390565b60008351613729818460208801613088565b6503a37b5b2b7160d51b908301908152835161374c816006840160208801613088565b7f3c2f746578743e3c7465787420783d2231302220793d2234302220636c61737360069290910191820152671e913130b9b2911f60c11b6026820152602e01949350505050565b600083516137a5818460208801613088565b6903130b630b731b2a7b3160b51b90830190815283516137cc81600a840160208801613088565b7f3c2f746578743e3c7465787420783d2231302220793d2236302220636c617373600a9290910191820152671e913130b9b2911f60c11b602a820152603201949350505050565b60008351613825818460208801613088565b6a03637b1b5b2b22fb2b732160ad1b908301908152835161384d81600b840160208801613088565b7f3c2f746578743e3c7465787420783d2231302220793d2238302220636c617373600b9290910191820152671e913130b9b2911f60c11b602b820152603301949350505050565b600083516138a6818460208801613088565b6503b30b63ab2960d51b90830190815283516138c9816006840160208801613088565b6c1e17ba32bc3a1f1e17b9bb339f60991b60069290910191820152601301949350505050565b6f7b226e616d65223a20226c6f636b202360801b8152825160009061391b816010850160208801613088565b7f222c20226465736372697074696f6e223a2022536f6c69646c79206c6f636b736010918401918201527f2c2063616e206265207573656420746f20626f6f73742067617567652079696560308201527f6c64732c20766f7465206f6e20746f6b656e20656d697373696f6e2c20616e6460508201527f207265636569766520627269626573222c2022696d616765223a2022646174616070820152750e9a5b5859d94bdcdd99cade1b5b0ed8985cd94d8d0b60521b609082015283516139e98160a6840160208801613088565b61227d60f01b60a6929091019182015260a801949350505050565b7f646174613a6170706c69636174696f6e2f6a736f6e3b6261736536342c000000815260008251613a3c81601d850160208701613088565b91909101601d0192915050565b600082613a5857613a58613439565b50069056fe3c73766720786d6c6e733d22687474703a2f2f7777772e77332e6f72672f323030302f73766722207072657365727665417370656374526174696f3d22784d696e594d696e206d656574222076696577426f783d223020302033353020333530223e3c7374796c653e2e62617365207b2066696c6c3a2077686974653b20666f6e742d66616d696c793a2073657269663b20666f6e742d73697a653a20313470783b207d3c2f7374796c653e3c726563742077696474683d223130302522206865696768743d2231303025222066696c6c3d22626c61636b22202f3e3c7465787420783d2231302220793d2232302220636c6173733d2262617365223e4142434445464748494a4b4c4d4e4f505152535455565758595a6162636465666768696a6b6c6d6e6f707172737475767778797a303132333435363738392b2fa2646970667358221220cf00bb8ef9ab96bd8a55401f363ac9a96143652ca2b14590b8544dc654724fe864736f6c634300080b0033ddf252ad1be2c89b69c2b068fc378daa952ba7f163c4a11628f55a4df523b3ef",
          "opcodes": "PUSH1 0xA0 PUSH1 0x40 MSTORE PUSH1 0x14 DUP1 SLOAD PUSH1 0xFF NOT AND PUSH1 0x1 OR SWAP1 SSTORE CALLVALUE DUP1 ISZERO PUSH3 0x1E JUMPI PUSH1 0x0 DUP1 REVERT JUMPDEST POP PUSH1 0x40 MLOAD PUSH3 0x3DCD CODESIZE SUB DUP1 PUSH3 0x3DCD DUP4 CODECOPY DUP2 ADD PUSH1 0x40 DUP2 SWAP1 MSTORE PUSH3 0x41 SWAP2 PUSH3 0x181 JUMP JUMPDEST PUSH1 0x1 PUSH1 0x1 PUSH1 0xA0 SHL SUB DUP2 AND PUSH1 0x80 MSTORE PUSH1 0xA DUP1 SLOAD PUSH1 0x1 PUSH1 0x1 PUSH1 0xA0 SHL SUB NOT AND CALLER OR SWAP1 SSTORE NUMBER PUSH32 0x17EF568E3E12AB5B9C7254A8D58478811DE00F9E6EB34345ACD53BF8FD09D3EE SSTORE TIMESTAMP PUSH32 0x17EF568E3E12AB5B9C7254A8D58478811DE00F9E6EB34345ACD53BF8FD09D3ED SSTORE PUSH1 0x13 PUSH1 0x20 MSTORE PUSH32 0x317681100331673B27C2499894E78912F138AE85F2DD790E454FF96A89CF2D77 DUP1 SLOAD PUSH1 0xFF NOT SWAP1 DUP2 AND PUSH1 0x1 SWAP1 DUP2 OR SWAP1 SWAP3 SSTORE PUSH32 0x5829B1F18259A9CDCD4268C3B072804D2F8E3DEDBB1B883DB1FA2055BB26D84F DUP1 SLOAD DUP3 AND DUP4 OR SWAP1 SSTORE PUSH4 0x5B5E139F PUSH1 0xE0 SHL PUSH1 0x0 SWAP1 DUP2 MSTORE PUSH32 0x65CB089FA41783E5AF12E88573D882F263C09532A373334F0B809825D5A904AB DUP1 SLOAD SWAP1 SWAP3 AND SWAP1 SWAP3 OR SWAP1 SSTORE PUSH1 0xB SLOAD PUSH1 0x40 MLOAD SWAP1 SWAP2 ADDRESS SWAP2 PUSH1 0x0 DUP1 MLOAD PUSH1 0x20 PUSH3 0x3DAD DUP4 CODECOPY DUP2 MLOAD SWAP2 MSTORE SWAP1 DUP3 SWAP1 LOG4 PUSH1 0xB SLOAD PUSH1 0x40 MLOAD PUSH1 0x0 SWAP1 ADDRESS SWAP1 PUSH1 0x0 DUP1 MLOAD PUSH1 0x20 PUSH3 0x3DAD DUP4 CODECOPY DUP2 MLOAD SWAP2 MSTORE SWAP1 DUP4 SWAP1 LOG4 POP PUSH3 0x1B3 JUMP JUMPDEST PUSH1 0x0 PUSH1 0x20 DUP3 DUP5 SUB SLT ISZERO PUSH3 0x194 JUMPI PUSH1 0x0 DUP1 REVERT JUMPDEST DUP2 MLOAD PUSH1 0x1 PUSH1 0x1 PUSH1 0xA0 SHL SUB DUP2 AND DUP2 EQ PUSH3 0x1AC JUMPI PUSH1 0x0 DUP1 REVERT JUMPDEST SWAP4 SWAP3 POP POP POP JUMP JUMPDEST PUSH1 0x80 MLOAD PUSH2 0x3BD0 PUSH3 0x1DD PUSH1 0x0 CODECOPY PUSH1 0x0 DUP2 DUP2 PUSH2 0x87A ADD MSTORE DUP2 DUP2 PUSH2 0xBCA ADD MSTORE PUSH2 0x2830 ADD MSTORE PUSH2 0x3BD0 PUSH1 0x0 RETURN INVALID PUSH1 0x80 PUSH1 0x40 MSTORE CALLVALUE DUP1 ISZERO PUSH2 0x10 JUMPI PUSH1 0x0 DUP1 REVERT JUMPDEST POP PUSH1 0x4 CALLDATASIZE LT PUSH2 0x30C JUMPI PUSH1 0x0 CALLDATALOAD PUSH1 0xE0 SHR DUP1 PUSH4 0x8C2C9BAF GT PUSH2 0x19D JUMPI DUP1 PUSH4 0xC87B56DD GT PUSH2 0xE9 JUMPI DUP1 PUSH4 0xE7E242D4 GT PUSH2 0xA2 JUMPI DUP1 PUSH4 0xF8A05763 GT PUSH2 0x7C JUMPI DUP1 PUSH4 0xF8A05763 EQ PUSH2 0x83E JUMPI DUP1 PUSH4 0xFBD3A29D EQ PUSH2 0x862 JUMPI DUP1 PUSH4 0xFC0C546A EQ PUSH2 0x875 JUMPI DUP1 PUSH4 0xFD4A77F1 EQ PUSH2 0x89C JUMPI PUSH1 0x0 DUP1 REVERT JUMPDEST DUP1 PUSH4 0xE7E242D4 EQ PUSH2 0x7DC JUMPI DUP1 PUSH4 0xE985E9C5 EQ PUSH2 0x7EF JUMPI DUP1 PUSH4 0xEE99FE28 EQ PUSH2 0x82B JUMPI PUSH1 0x0 DUP1 REVERT JUMPDEST DUP1 PUSH4 0xC87B56DD EQ PUSH2 0x732 JUMPI DUP1 PUSH4 0xD1C2BABB EQ PUSH2 0x745 JUMPI DUP1 PUSH4 0xD1FEBFB9 EQ PUSH2 0x758 JUMPI DUP1 PUSH4 0xD4E54C3B EQ PUSH2 0x796 JUMPI DUP1 PUSH4 0xE0514ABA EQ PUSH2 0x7A9 JUMPI DUP1 PUSH4 0xE441135C EQ PUSH2 0x7BC JUMPI PUSH1 0x0 DUP1 REVERT JUMPDEST DUP1 PUSH4 0xA183AF52 GT PUSH2 0x156 JUMPI DUP1 PUSH4 0xB45A3C0E GT PUSH2 0x130 JUMPI DUP1 PUSH4 0xB45A3C0E EQ PUSH2 0x6BC JUMPI DUP1 PUSH4 0xB88D4FDE EQ PUSH2 0x704 JUMPI DUP1 PUSH4 0xC1F0FB9F EQ PUSH2 0x717 JUMPI DUP1 PUSH4 0xC2C4C5C1 EQ PUSH2 0x72A JUMPI PUSH1 0x0 DUP1 REVERT JUMPDEST DUP1 PUSH4 0xA183AF52 EQ PUSH2 0x683 JUMPI DUP1 PUSH4 0xA22CB465 EQ PUSH2 0x696 JUMPI DUP1 PUSH4 0xA4D855DF EQ PUSH2 0x6A9 JUMPI PUSH1 0x0 DUP1 REVERT JUMPDEST DUP1 PUSH4 0x8C2C9BAF EQ PUSH2 0x61E JUMPI DUP1 PUSH4 0x8FBB38FF EQ PUSH2 0x631 JUMPI DUP1 PUSH4 0x900CF0CF EQ PUSH2 0x654 JUMPI DUP1 PUSH4 0x95D89B41 EQ PUSH2 0x36A JUMPI DUP1 PUSH4 0x981B24D0 EQ PUSH2 0x65D JUMPI DUP1 PUSH4 0x986B7D8A EQ PUSH2 0x670 JUMPI PUSH1 0x0 DUP1 REVERT JUMPDEST DUP1 PUSH4 0x313CE567 GT PUSH2 0x25C JUMPI DUP1 PUSH4 0x54FD4D50 GT PUSH2 0x215 JUMPI DUP1 PUSH4 0x6F548837 GT PUSH2 0x1EF JUMPI DUP1 PUSH4 0x6F548837 EQ PUSH2 0x5B5 JUMPI DUP1 PUSH4 0x70A08231 EQ PUSH2 0x5D5 JUMPI DUP1 PUSH4 0x7116C60C EQ PUSH2 0x5E8 JUMPI DUP1 PUSH4 0x71197484 EQ PUSH2 0x5FB JUMPI PUSH1 0x0 DUP1 REVERT JUMPDEST DUP1 PUSH4 0x54FD4D50 EQ PUSH2 0x555 JUMPI DUP1 PUSH4 0x6352211E EQ PUSH2 0x579 JUMPI DUP1 PUSH4 0x65FC3873 EQ PUSH2 0x5A2 JUMPI PUSH1 0x0 DUP1 REVERT JUMPDEST DUP1 PUSH4 0x313CE567 EQ PUSH2 0x4C9 JUMPI DUP1 PUSH4 0x42842E0E EQ PUSH2 0x4E3 JUMPI DUP1 PUSH4 0x430C2081 EQ PUSH2 0x4F6 JUMPI DUP1 PUSH4 0x461F711C EQ PUSH2 0x509 JUMPI DUP1 PUSH4 0x46C96AAC EQ PUSH2 0x52F JUMPI DUP1 PUSH4 0x4BC2A657 EQ PUSH2 0x542 JUMPI PUSH1 0x0 DUP1 REVERT JUMPDEST DUP1 PUSH4 0x1376F3DA GT PUSH2 0x2C9 JUMPI DUP1 PUSH4 0x23B872DD GT PUSH2 0x2A3 JUMPI DUP1 PUSH4 0x23B872DD EQ PUSH2 0x467 JUMPI DUP1 PUSH4 0x25A58B56 EQ PUSH2 0x47A JUMPI DUP1 PUSH4 0x2E1A7D4D EQ PUSH2 0x480 JUMPI DUP1 PUSH4 0x2F745C59 EQ PUSH2 0x493 JUMPI PUSH1 0x0 DUP1 REVERT JUMPDEST DUP1 PUSH4 0x1376F3DA EQ PUSH2 0x411 JUMPI DUP1 PUSH4 0x18160DDD EQ PUSH2 0x44C JUMPI DUP1 PUSH4 0x1C984BC3 EQ PUSH2 0x454 JUMPI PUSH1 0x0 DUP1 REVERT JUMPDEST DUP1 PUSH4 0x1FFC9A7 EQ PUSH2 0x311 JUMPI DUP1 PUSH4 0x47FC9AA EQ PUSH2 0x353 JUMPI DUP1 PUSH4 0x6FDDE03 EQ PUSH2 0x36A JUMPI DUP1 PUSH4 0x81812FC EQ PUSH2 0x39B JUMPI DUP1 PUSH4 0x95EA7B3 EQ PUSH2 0x3DC JUMPI DUP1 PUSH4 0xD6A2033 EQ PUSH2 0x3F1 JUMPI JUMPDEST PUSH1 0x0 DUP1 REVERT JUMPDEST PUSH2 0x33E PUSH2 0x31F CALLDATASIZE PUSH1 0x4 PUSH2 0x306B JUMP JUMPDEST PUSH1 0x1 PUSH1 0x1 PUSH1 0xE0 SHL SUB NOT AND PUSH1 0x0 SWAP1 DUP2 MSTORE PUSH1 0x13 PUSH1 0x20 MSTORE PUSH1 0x40 SWAP1 KECCAK256 SLOAD PUSH1 0xFF AND SWAP1 JUMP JUMPDEST PUSH1 0x40 MLOAD SWAP1 ISZERO ISZERO DUP2 MSTORE PUSH1 0x20 ADD JUMPDEST PUSH1 0x40 MLOAD DUP1 SWAP2 SUB SWAP1 RETURN JUMPDEST PUSH2 0x35C PUSH1 0x0 SLOAD DUP2 JUMP JUMPDEST PUSH1 0x40 MLOAD SWAP1 DUP2 MSTORE PUSH1 0x20 ADD PUSH2 0x34A JUMP JUMPDEST PUSH2 0x38E PUSH1 0x40 MLOAD DUP1 PUSH1 0x40 ADD PUSH1 0x40 MSTORE DUP1 PUSH1 0x5 DUP2 MSTORE PUSH1 0x20 ADD PUSH5 0x1D99539195 PUSH1 0xDA SHL DUP2 MSTORE POP DUP2 JUMP JUMPDEST PUSH1 0x40 MLOAD PUSH2 0x34A SWAP2 SWAP1 PUSH2 0x30E0 JUMP JUMPDEST PUSH2 0x3C4 PUSH2 0x3A9 CALLDATASIZE PUSH1 0x4 PUSH2 0x30F3 JUMP JUMPDEST PUSH1 0x0 SWAP1 DUP2 MSTORE PUSH1 0xE PUSH1 0x20 MSTORE PUSH1 0x40 SWAP1 KECCAK256 SLOAD PUSH1 0x1 PUSH1 0x1 PUSH1 0xA0 SHL SUB AND SWAP1 JUMP JUMPDEST PUSH1 0x40 MLOAD PUSH1 0x1 PUSH1 0x1 PUSH1 0xA0 SHL SUB SWAP1 SWAP2 AND DUP2 MSTORE PUSH1 0x20 ADD PUSH2 0x34A JUMP JUMPDEST PUSH2 0x3EF PUSH2 0x3EA CALLDATASIZE PUSH1 0x4 PUSH2 0x3128 JUMP JUMPDEST PUSH2 0x8AF JUMP JUMPDEST STOP JUMPDEST PUSH2 0x35C PUSH2 0x3FF CALLDATASIZE PUSH1 0x4 PUSH2 0x30F3 JUMP JUMPDEST PUSH1 0x8 PUSH1 0x20 MSTORE PUSH1 0x0 SWAP1 DUP2 MSTORE PUSH1 0x40 SWAP1 KECCAK256 SLOAD DUP2 JUMP JUMPDEST PUSH2 0x424 PUSH2 0x41F CALLDATASIZE PUSH1 0x4 PUSH2 0x3152 JUMP JUMPDEST PUSH2 0x998 JUMP JUMPDEST PUSH1 0x40 DUP1 MLOAD PUSH1 0xF SWAP6 DUP7 SIGNEXTEND DUP2 MSTORE SWAP4 SWAP1 SWAP5 SIGNEXTEND PUSH1 0x20 DUP5 ADD MSTORE SWAP3 DUP3 ADD MSTORE PUSH1 0x60 DUP2 ADD SWAP2 SWAP1 SWAP2 MSTORE PUSH1 0x80 ADD PUSH2 0x34A JUMP JUMPDEST PUSH2 0x35C PUSH2 0x9DF JUMP JUMPDEST PUSH2 0x35C PUSH2 0x462 CALLDATASIZE PUSH1 0x4 PUSH2 0x3152 JUMP JUMPDEST PUSH2 0x9EF JUMP JUMPDEST PUSH2 0x3EF PUSH2 0x475 CALLDATASIZE PUSH1 0x4 PUSH2 0x3174 JUMP JUMPDEST PUSH2 0xA22 JUMP JUMPDEST NUMBER PUSH2 0x35C JUMP JUMPDEST PUSH2 0x3EF PUSH2 0x48E CALLDATASIZE PUSH1 0x4 PUSH2 0x30F3 JUMP JUMPDEST PUSH2 0xA33 JUMP JUMPDEST PUSH2 0x35C PUSH2 0x4A1 CALLDATASIZE PUSH1 0x4 PUSH2 0x3128 JUMP JUMPDEST PUSH1 0x1 PUSH1 0x1 PUSH1 0xA0 SHL SUB SWAP2 SWAP1 SWAP2 AND PUSH1 0x0 SWAP1 DUP2 MSTORE PUSH1 0x10 PUSH1 0x20 SWAP1 DUP2 MSTORE PUSH1 0x40 DUP1 DUP4 KECCAK256 SWAP4 DUP4 MSTORE SWAP3 SWAP1 MSTORE KECCAK256 SLOAD SWAP1 JUMP JUMPDEST PUSH2 0x4D1 PUSH1 0x12 DUP2 JUMP JUMPDEST PUSH1 0x40 MLOAD PUSH1 0xFF SWAP1 SWAP2 AND DUP2 MSTORE PUSH1 0x20 ADD PUSH2 0x34A JUMP JUMPDEST PUSH2 0x3EF PUSH2 0x4F1 CALLDATASIZE PUSH1 0x4 PUSH2 0x3174 JUMP JUMPDEST PUSH2 0xCED JUMP JUMPDEST PUSH2 0x33E PUSH2 0x504 CALLDATASIZE PUSH1 0x4 PUSH2 0x3128 JUMP JUMPDEST PUSH2 0xD08 JUMP JUMPDEST PUSH2 0x51C PUSH2 0x517 CALLDATASIZE PUSH1 0x4 PUSH2 0x30F3 JUMP JUMPDEST PUSH2 0xD1B JUMP JUMPDEST PUSH1 0x40 MLOAD PUSH1 0xF SWAP2 SWAP1 SWAP2 SIGNEXTEND DUP2 MSTORE PUSH1 0x20 ADD PUSH2 0x34A JUMP JUMPDEST PUSH1 0xA SLOAD PUSH2 0x3C4 SWAP1 PUSH1 0x1 PUSH1 0x1 PUSH1 0xA0 SHL SUB AND DUP2 JUMP JUMPDEST PUSH2 0x3EF PUSH2 0x550 CALLDATASIZE PUSH1 0x4 PUSH2 0x31B0 JUMP JUMPDEST PUSH2 0xD5E JUMP JUMPDEST PUSH2 0x38E PUSH1 0x40 MLOAD DUP1 PUSH1 0x40 ADD PUSH1 0x40 MSTORE DUP1 PUSH1 0x5 DUP2 MSTORE PUSH1 0x20 ADD PUSH5 0x312E302E3 PUSH1 0xDC SHL DUP2 MSTORE POP DUP2 JUMP JUMPDEST PUSH2 0x3C4 PUSH2 0x587 CALLDATASIZE PUSH1 0x4 PUSH2 0x30F3 JUMP JUMPDEST PUSH1 0x0 SWAP1 DUP2 MSTORE PUSH1 0xD PUSH1 0x20 MSTORE PUSH1 0x40 SWAP1 KECCAK256 SLOAD PUSH1 0x1 PUSH1 0x1 PUSH1 0xA0 SHL SUB AND SWAP1 JUMP JUMPDEST PUSH2 0x35C PUSH2 0x5B0 CALLDATASIZE PUSH1 0x4 PUSH2 0x3152 JUMP JUMPDEST PUSH2 0xD97 JUMP JUMPDEST PUSH2 0x35C PUSH2 0x5C3 CALLDATASIZE PUSH1 0x4 PUSH2 0x30F3 JUMP JUMPDEST PUSH1 0x2 PUSH1 0x20 MSTORE PUSH1 0x0 SWAP1 DUP2 MSTORE PUSH1 0x40 SWAP1 KECCAK256 SLOAD DUP2 JUMP JUMPDEST PUSH2 0x35C PUSH2 0x5E3 CALLDATASIZE PUSH1 0x4 PUSH2 0x31B0 JUMP JUMPDEST PUSH2 0xDD9 JUMP JUMPDEST PUSH2 0x35C PUSH2 0x5F6 CALLDATASIZE PUSH1 0x4 PUSH2 0x30F3 JUMP JUMPDEST PUSH2 0xDF7 JUMP JUMPDEST PUSH2 0x51C PUSH2 0x609 CALLDATASIZE PUSH1 0x4 PUSH2 0x30F3 JUMP JUMPDEST PUSH1 0x7 PUSH1 0x20 MSTORE PUSH1 0x0 SWAP1 DUP2 MSTORE PUSH1 0x40 SWAP1 KECCAK256 SLOAD PUSH1 0xF SIGNEXTEND DUP2 JUMP JUMPDEST PUSH2 0x35C PUSH2 0x62C CALLDATASIZE PUSH1 0x4 PUSH2 0x3152 JUMP JUMPDEST PUSH2 0xE57 JUMP JUMPDEST PUSH2 0x33E PUSH2 0x63F CALLDATASIZE PUSH1 0x4 PUSH2 0x30F3 JUMP JUMPDEST PUSH1 0x9 PUSH1 0x20 MSTORE PUSH1 0x0 SWAP1 DUP2 MSTORE PUSH1 0x40 SWAP1 KECCAK256 SLOAD PUSH1 0xFF AND DUP2 JUMP JUMPDEST PUSH2 0x35C PUSH1 0x3 SLOAD DUP2 JUMP JUMPDEST PUSH2 0x35C PUSH2 0x66B CALLDATASIZE PUSH1 0x4 PUSH2 0x30F3 JUMP JUMPDEST PUSH2 0xE63 JUMP JUMPDEST PUSH2 0x3EF PUSH2 0x67E CALLDATASIZE PUSH1 0x4 PUSH2 0x30F3 JUMP JUMPDEST PUSH2 0x1005 JUMP JUMPDEST PUSH2 0x3EF PUSH2 0x691 CALLDATASIZE PUSH1 0x4 PUSH2 0x3152 JUMP JUMPDEST PUSH2 0x1049 JUMP JUMPDEST PUSH2 0x3EF PUSH2 0x6A4 CALLDATASIZE PUSH1 0x4 PUSH2 0x31D9 JUMP JUMPDEST PUSH2 0x1148 JUMP JUMPDEST PUSH2 0x3EF PUSH2 0x6B7 CALLDATASIZE PUSH1 0x4 PUSH2 0x3152 JUMP JUMPDEST PUSH2 0x11CD JUMP JUMPDEST PUSH2 0x6EA PUSH2 0x6CA CALLDATASIZE PUSH1 0x4 PUSH2 0x30F3 JUMP JUMPDEST PUSH1 0x1 PUSH1 0x20 DUP2 SWAP1 MSTORE PUSH1 0x0 SWAP2 DUP3 MSTORE PUSH1 0x40 SWAP1 SWAP2 KECCAK256 DUP1 SLOAD SWAP2 ADD SLOAD PUSH1 0xF SWAP2 SWAP1 SWAP2 SIGNEXTEND SWAP1 DUP3 JUMP JUMPDEST PUSH1 0x40 DUP1 MLOAD PUSH1 0xF SWAP4 SWAP1 SWAP4 SIGNEXTEND DUP4 MSTORE PUSH1 0x20 DUP4 ADD SWAP2 SWAP1 SWAP2 MSTORE ADD PUSH2 0x34A JUMP JUMPDEST PUSH2 0x3EF PUSH2 0x712 CALLDATASIZE PUSH1 0x4 PUSH2 0x3226 JUMP JUMPDEST PUSH2 0x13AF JUMP JUMPDEST PUSH2 0x3EF PUSH2 0x725 CALLDATASIZE PUSH1 0x4 PUSH2 0x30F3 JUMP JUMPDEST PUSH2 0x14DC JUMP JUMPDEST PUSH2 0x3EF PUSH2 0x1560 JUMP JUMPDEST PUSH2 0x38E PUSH2 0x740 CALLDATASIZE PUSH1 0x4 PUSH2 0x30F3 JUMP JUMPDEST PUSH2 0x15A0 JUMP JUMPDEST PUSH2 0x3EF PUSH2 0x753 CALLDATASIZE PUSH1 0x4 PUSH2 0x3152 JUMP JUMPDEST PUSH2 0x164D JUMP JUMPDEST PUSH2 0x424 PUSH2 0x766 CALLDATASIZE PUSH1 0x4 PUSH2 0x30F3 JUMP JUMPDEST PUSH1 0x4 PUSH1 0x20 MSTORE PUSH1 0x0 SWAP1 DUP2 MSTORE PUSH1 0x40 SWAP1 KECCAK256 DUP1 SLOAD PUSH1 0x1 DUP3 ADD SLOAD PUSH1 0x2 SWAP1 SWAP3 ADD SLOAD PUSH1 0xF DUP3 DUP2 SIGNEXTEND SWAP4 PUSH1 0x1 PUSH1 0x80 SHL SWAP1 SWAP4 DIV SWAP1 SIGNEXTEND SWAP2 SWAP1 DUP5 JUMP JUMPDEST PUSH2 0x35C PUSH2 0x7A4 CALLDATASIZE PUSH1 0x4 PUSH2 0x3302 JUMP JUMPDEST PUSH2 0x17B8 JUMP JUMPDEST PUSH2 0x35C PUSH2 0x7B7 CALLDATASIZE PUSH1 0x4 PUSH2 0x3152 JUMP JUMPDEST PUSH2 0x17FB JUMP JUMPDEST PUSH2 0x35C PUSH2 0x7CA CALLDATASIZE PUSH1 0x4 PUSH2 0x30F3 JUMP JUMPDEST PUSH1 0x6 PUSH1 0x20 MSTORE PUSH1 0x0 SWAP1 DUP2 MSTORE PUSH1 0x40 SWAP1 KECCAK256 SLOAD DUP2 JUMP JUMPDEST PUSH2 0x35C PUSH2 0x7EA CALLDATASIZE PUSH1 0x4 PUSH2 0x30F3 JUMP JUMPDEST PUSH2 0x1807 JUMP JUMPDEST PUSH2 0x33E PUSH2 0x7FD CALLDATASIZE PUSH1 0x4 PUSH2 0x3337 JUMP JUMPDEST PUSH1 0x1 PUSH1 0x1 PUSH1 0xA0 SHL SUB SWAP2 DUP3 AND PUSH1 0x0 SWAP1 DUP2 MSTORE PUSH1 0x12 PUSH1 0x20 SWAP1 DUP2 MSTORE PUSH1 0x40 DUP1 DUP4 KECCAK256 SWAP4 SWAP1 SWAP5 AND DUP3 MSTORE SWAP2 SWAP1 SWAP2 MSTORE KECCAK256 SLOAD PUSH1 0xFF AND SWAP1 JUMP JUMPDEST PUSH2 0x3EF PUSH2 0x839 CALLDATASIZE PUSH1 0x4 PUSH2 0x3152 JUMP JUMPDEST PUSH2 0x182F JUMP JUMPDEST PUSH2 0x35C PUSH2 0x84C CALLDATASIZE PUSH1 0x4 PUSH2 0x30F3 JUMP JUMPDEST PUSH1 0x0 SWAP1 DUP2 MSTORE PUSH1 0x1 PUSH1 0x20 DUP2 SWAP1 MSTORE PUSH1 0x40 SWAP1 SWAP2 KECCAK256 ADD SLOAD SWAP1 JUMP JUMPDEST PUSH2 0x3EF PUSH2 0x870 CALLDATASIZE PUSH1 0x4 PUSH2 0x30F3 JUMP JUMPDEST PUSH2 0x1903 JUMP JUMPDEST PUSH2 0x3C4 PUSH32 0x0 DUP2 JUMP JUMPDEST PUSH2 0x3EF PUSH2 0x8AA CALLDATASIZE PUSH1 0x4 PUSH2 0x30F3 JUMP JUMPDEST PUSH2 0x1934 JUMP JUMPDEST PUSH1 0x0 DUP2 DUP2 MSTORE PUSH1 0xD PUSH1 0x20 MSTORE PUSH1 0x40 SWAP1 KECCAK256 SLOAD PUSH1 0x1 PUSH1 0x1 PUSH1 0xA0 SHL SUB AND DUP1 PUSH2 0x8D1 JUMPI PUSH1 0x0 DUP1 REVERT JUMPDEST DUP1 PUSH1 0x1 PUSH1 0x1 PUSH1 0xA0 SHL SUB AND DUP4 PUSH1 0x1 PUSH1 0x1 PUSH1 0xA0 SHL SUB AND EQ ISZERO PUSH2 0x8F0 JUMPI PUSH1 0x0 DUP1 REVERT JUMPDEST PUSH1 0x0 DUP3 DUP2 MSTORE PUSH1 0xD PUSH1 0x20 SWAP1 DUP2 MSTORE PUSH1 0x40 DUP1 DUP4 KECCAK256 SLOAD PUSH1 0x1 PUSH1 0x1 PUSH1 0xA0 SHL SUB DUP6 DUP2 AND DUP6 MSTORE PUSH1 0x12 DUP5 MSTORE DUP3 DUP6 KECCAK256 CALLER DUP1 DUP8 MSTORE SWAP5 MSTORE SWAP2 SWAP1 SWAP4 KECCAK256 SLOAD SWAP3 AND EQ SWAP1 PUSH1 0xFF AND DUP2 DUP1 PUSH2 0x931 JUMPI POP DUP1 JUMPDEST PUSH2 0x93A JUMPI PUSH1 0x0 DUP1 REVERT JUMPDEST PUSH1 0x0 DUP5 DUP2 MSTORE PUSH1 0xE PUSH1 0x20 MSTORE PUSH1 0x40 DUP1 DUP3 KECCAK256 DUP1 SLOAD PUSH1 0x1 PUSH1 0x1 PUSH1 0xA0 SHL SUB NOT AND PUSH1 0x1 PUSH1 0x1 PUSH1 0xA0 SHL SUB DUP10 DUP2 AND SWAP2 DUP3 OR SWAP1 SWAP3 SSTORE SWAP2 MLOAD DUP8 SWAP4 SWAP2 DUP8 AND SWAP2 PUSH32 0x8C5BE1E5EBEC7D5BD14F71427D1E84F3DD0314C0F7B2291E5B200AC8C7C3B925 SWAP2 LOG4 POP POP POP POP POP JUMP JUMPDEST PUSH1 0x5 PUSH1 0x20 MSTORE DUP2 PUSH1 0x0 MSTORE PUSH1 0x40 PUSH1 0x0 KECCAK256 DUP2 PUSH4 0x3B9ACA00 DUP2 LT PUSH2 0x9B7 JUMPI PUSH1 0x0 DUP1 REVERT JUMPDEST PUSH1 0x3 MUL ADD DUP1 SLOAD PUSH1 0x1 DUP3 ADD SLOAD PUSH1 0x2 SWAP1 SWAP3 ADD SLOAD PUSH1 0xF DUP3 DUP2 SIGNEXTEND SWAP6 POP PUSH1 0x1 PUSH1 0x80 SHL SWAP1 SWAP3 DIV SWAP1 SWAP2 SIGNEXTEND SWAP3 POP DUP5 JUMP JUMPDEST PUSH1 0x0 PUSH2 0x9EA TIMESTAMP PUSH2 0xDF7 JUMP JUMPDEST SWAP1 POP SWAP1 JUMP JUMPDEST PUSH1 0x0 DUP3 DUP2 MSTORE PUSH1 0x5 PUSH1 0x20 MSTORE PUSH1 0x40 DUP2 KECCAK256 DUP3 PUSH4 0x3B9ACA00 DUP2 LT PUSH2 0xA11 JUMPI PUSH2 0xA11 PUSH2 0x336A JUMP JUMPDEST PUSH1 0x3 MUL ADD PUSH1 0x1 ADD SLOAD SWAP1 POP JUMPDEST SWAP3 SWAP2 POP POP JUMP JUMPDEST PUSH2 0xA2E DUP4 DUP4 DUP4 CALLER PUSH2 0x1980 JUMP JUMPDEST POP POP POP JUMP JUMPDEST PUSH1 0x14 SLOAD PUSH1 0xFF AND PUSH1 0x1 EQ PUSH2 0xA45 JUMPI PUSH1 0x0 DUP1 REVERT JUMPDEST PUSH1 0x14 DUP1 SLOAD PUSH1 0xFF NOT AND PUSH1 0x2 OR SWAP1 SSTORE PUSH2 0xA5C CALLER DUP3 PUSH2 0x1A46 JUMP JUMPDEST PUSH2 0xA68 JUMPI PUSH2 0xA68 PUSH2 0x3380 JUMP JUMPDEST PUSH1 0x0 DUP2 DUP2 MSTORE PUSH1 0x8 PUSH1 0x20 MSTORE PUSH1 0x40 SWAP1 KECCAK256 SLOAD ISZERO DUP1 ISZERO PUSH2 0xA93 JUMPI POP PUSH1 0x0 DUP2 DUP2 MSTORE PUSH1 0x9 PUSH1 0x20 MSTORE PUSH1 0x40 SWAP1 KECCAK256 SLOAD PUSH1 0xFF AND ISZERO JUMPDEST PUSH2 0xAB8 JUMPI PUSH1 0x40 MLOAD PUSH3 0x461BCD PUSH1 0xE5 SHL DUP2 MSTORE PUSH1 0x4 ADD PUSH2 0xAAF SWAP1 PUSH2 0x3396 JUMP JUMPDEST PUSH1 0x40 MLOAD DUP1 SWAP2 SUB SWAP1 REVERT JUMPDEST PUSH1 0x0 DUP2 DUP2 MSTORE PUSH1 0x1 PUSH1 0x20 DUP2 DUP2 MSTORE PUSH1 0x40 SWAP3 DUP4 SWAP1 KECCAK256 DUP4 MLOAD DUP1 DUP6 ADD SWAP1 SWAP5 MSTORE DUP1 SLOAD PUSH1 0xF SIGNEXTEND DUP5 MSTORE SWAP1 SWAP2 ADD SLOAD SWAP1 DUP3 ADD DUP2 SWAP1 MSTORE TIMESTAMP LT ISZERO PUSH2 0xB2B JUMPI PUSH1 0x40 MLOAD PUSH3 0x461BCD PUSH1 0xE5 SHL DUP2 MSTORE PUSH1 0x20 PUSH1 0x4 DUP3 ADD MSTORE PUSH1 0x16 PUSH1 0x24 DUP3 ADD MSTORE PUSH22 0x546865206C6F636B206469646E277420657870697265 PUSH1 0x50 SHL PUSH1 0x44 DUP3 ADD MSTORE PUSH1 0x64 ADD PUSH2 0xAAF JUMP JUMPDEST DUP1 MLOAD PUSH1 0x40 DUP1 MLOAD DUP1 DUP3 ADD DUP3 MSTORE PUSH1 0x0 DUP1 DUP3 MSTORE PUSH1 0x20 DUP1 DUP4 ADD DUP3 DUP2 MSTORE DUP8 DUP4 MSTORE PUSH1 0x1 SWAP2 DUP3 SWAP1 MSTORE SWAP4 DUP3 KECCAK256 SWAP3 MLOAD DUP4 SLOAD PUSH1 0x1 PUSH1 0x1 PUSH1 0x80 SHL SUB NOT AND PUSH1 0x1 PUSH1 0x1 PUSH1 0x80 SHL SUB SWAP1 SWAP2 AND OR DUP4 SSTORE SWAP3 MLOAD SWAP2 SWAP1 SWAP3 ADD SSTORE SLOAD PUSH1 0xF SWAP2 SWAP1 SWAP2 SIGNEXTEND SWAP1 PUSH2 0xB84 DUP3 DUP3 PUSH2 0x33CE JUMP JUMPDEST PUSH1 0x0 DUP2 SWAP1 SSTORE POP PUSH2 0xBAE DUP5 DUP5 PUSH1 0x40 MLOAD DUP1 PUSH1 0x40 ADD PUSH1 0x40 MSTORE DUP1 PUSH1 0x0 PUSH1 0xF SIGNEXTEND DUP2 MSTORE PUSH1 0x20 ADD PUSH1 0x0 DUP2 MSTORE POP PUSH2 0x1AAC JUMP JUMPDEST PUSH1 0x40 MLOAD PUSH4 0xA9059CBB PUSH1 0xE0 SHL DUP2 MSTORE CALLER PUSH1 0x4 DUP3 ADD MSTORE PUSH1 0x24 DUP2 ADD DUP4 SWAP1 MSTORE PUSH32 0x0 PUSH1 0x1 PUSH1 0x1 PUSH1 0xA0 SHL SUB AND SWAP1 PUSH4 0xA9059CBB SWAP1 PUSH1 0x44 ADD PUSH1 0x20 PUSH1 0x40 MLOAD DUP1 DUP4 SUB DUP2 PUSH1 0x0 DUP8 GAS CALL ISZERO DUP1 ISZERO PUSH2 0xC1B JUMPI RETURNDATASIZE PUSH1 0x0 DUP1 RETURNDATACOPY RETURNDATASIZE PUSH1 0x0 REVERT JUMPDEST POP POP POP POP PUSH1 0x40 MLOAD RETURNDATASIZE PUSH1 0x1F NOT PUSH1 0x1F DUP3 ADD AND DUP3 ADD DUP1 PUSH1 0x40 MSTORE POP DUP2 ADD SWAP1 PUSH2 0xC3F SWAP2 SWAP1 PUSH2 0x33E5 JUMP JUMPDEST PUSH2 0xC4B JUMPI PUSH2 0xC4B PUSH2 0x3380 JUMP JUMPDEST PUSH2 0xC54 DUP5 PUSH2 0x20CB JUMP JUMPDEST PUSH1 0x40 DUP1 MLOAD DUP6 DUP2 MSTORE PUSH1 0x20 DUP2 ADD DUP5 SWAP1 MSTORE TIMESTAMP DUP2 DUP4 ADD MSTORE SWAP1 MLOAD CALLER SWAP2 PUSH32 0x2F25270A4D87BEA75DB541CDFE559334A275B4A233520ED6C0A2429667CCA94 SWAP2 SWAP1 DUP2 SWAP1 SUB PUSH1 0x60 ADD SWAP1 LOG2 PUSH32 0x5E2AA66EFD74CCE82B21852E317E5490D9ECC9E6BB953AE24D90851258CC2F5C DUP2 PUSH2 0xCC2 DUP5 DUP3 PUSH2 0x33CE JUMP JUMPDEST PUSH1 0x40 DUP1 MLOAD SWAP3 DUP4 MSTORE PUSH1 0x20 DUP4 ADD SWAP2 SWAP1 SWAP2 MSTORE ADD PUSH1 0x40 MLOAD DUP1 SWAP2 SUB SWAP1 LOG1 POP POP PUSH1 0x14 DUP1 SLOAD PUSH1 0xFF NOT AND PUSH1 0x1 OR SWAP1 SSTORE POP POP JUMP JUMPDEST PUSH2 0xA2E DUP4 DUP4 DUP4 PUSH1 0x40 MLOAD DUP1 PUSH1 0x20 ADD PUSH1 0x40 MSTORE DUP1 PUSH1 0x0 DUP2 MSTORE POP PUSH2 0x13AF JUMP JUMPDEST PUSH1 0x0 PUSH2 0xD14 DUP4 DUP4 PUSH2 0x1A46 JUMP JUMPDEST SWAP4 SWAP3 POP POP POP JUMP JUMPDEST PUSH1 0x0 DUP2 DUP2 MSTORE PUSH1 0x6 PUSH1 0x20 SWAP1 DUP2 MSTORE PUSH1 0x40 DUP1 DUP4 KECCAK256 SLOAD PUSH1 0x5 SWAP1 SWAP3 MSTORE DUP3 KECCAK256 DUP2 PUSH4 0x3B9ACA00 DUP2 LT PUSH2 0xD48 JUMPI PUSH2 0xD48 PUSH2 0x336A JUMP JUMPDEST PUSH1 0x3 MUL ADD SLOAD PUSH1 0x1 PUSH1 0x80 SHL SWAP1 DIV PUSH1 0xF SIGNEXTEND SWAP4 SWAP3 POP POP POP JUMP JUMPDEST PUSH1 0xA SLOAD PUSH1 0x1 PUSH1 0x1 PUSH1 0xA0 SHL SUB AND CALLER EQ PUSH2 0xD75 JUMPI PUSH1 0x0 DUP1 REVERT JUMPDEST PUSH1 0xA DUP1 SLOAD PUSH1 0x1 PUSH1 0x1 PUSH1 0xA0 SHL SUB NOT AND PUSH1 0x1 PUSH1 0x1 PUSH1 0xA0 SHL SUB SWAP3 SWAP1 SWAP3 AND SWAP2 SWAP1 SWAP2 OR SWAP1 SSTORE JUMP JUMPDEST PUSH1 0x14 SLOAD PUSH1 0x0 SWAP1 PUSH1 0xFF AND PUSH1 0x1 EQ PUSH2 0xDAC JUMPI PUSH1 0x0 DUP1 REVERT JUMPDEST PUSH1 0x14 DUP1 SLOAD PUSH1 0xFF NOT AND PUSH1 0x2 OR SWAP1 SSTORE PUSH2 0xDC4 DUP4 DUP4 CALLER PUSH2 0x218A JUMP JUMPDEST SWAP1 POP PUSH1 0x14 DUP1 SLOAD PUSH1 0xFF NOT AND PUSH1 0x1 OR SWAP1 SSTORE SWAP3 SWAP2 POP POP JUMP JUMPDEST PUSH1 0x1 PUSH1 0x1 PUSH1 0xA0 SHL SUB DUP2 AND PUSH1 0x0 SWAP1 DUP2 MSTORE PUSH1 0xF PUSH1 0x20 MSTORE PUSH1 0x40 DUP2 KECCAK256 SLOAD PUSH2 0xA1C JUMP JUMPDEST PUSH1 0x3 SLOAD PUSH1 0x0 DUP2 DUP2 MSTORE PUSH1 0x4 PUSH1 0x20 SWAP1 DUP2 MSTORE PUSH1 0x40 DUP1 DUP4 KECCAK256 DUP2 MLOAD PUSH1 0x80 DUP2 ADD DUP4 MSTORE DUP2 SLOAD PUSH1 0xF DUP2 DUP2 SIGNEXTEND DUP4 MSTORE PUSH1 0x1 PUSH1 0x80 SHL SWAP1 SWAP2 DIV SWAP1 SIGNEXTEND SWAP4 DUP2 ADD SWAP4 SWAP1 SWAP4 MSTORE PUSH1 0x1 DUP2 ADD SLOAD SWAP2 DUP4 ADD SWAP2 SWAP1 SWAP2 MSTORE PUSH1 0x2 ADD SLOAD PUSH1 0x60 DUP3 ADD MSTORE SWAP1 SWAP2 SWAP1 PUSH2 0xE4F DUP2 DUP6 PUSH2 0x22DB JUMP JUMPDEST SWAP5 SWAP4 POP POP POP POP JUMP JUMPDEST PUSH1 0x0 PUSH2 0xD14 DUP4 DUP4 PUSH2 0x23DD JUMP JUMPDEST PUSH1 0x0 NUMBER DUP3 GT ISZERO PUSH2 0xE75 JUMPI PUSH2 0xE75 PUSH2 0x3380 JUMP JUMPDEST PUSH1 0x3 SLOAD PUSH1 0x0 PUSH2 0xE84 DUP5 DUP4 PUSH2 0x26B5 JUMP JUMPDEST PUSH1 0x0 DUP2 DUP2 MSTORE PUSH1 0x4 PUSH1 0x20 SWAP1 DUP2 MSTORE PUSH1 0x40 DUP1 DUP4 KECCAK256 DUP2 MLOAD PUSH1 0x80 DUP2 ADD DUP4 MSTORE DUP2 SLOAD PUSH1 0xF DUP2 DUP2 SIGNEXTEND DUP4 MSTORE PUSH1 0x1 PUSH1 0x80 SHL SWAP1 SWAP2 DIV SWAP1 SIGNEXTEND SWAP4 DUP2 ADD SWAP4 SWAP1 SWAP4 MSTORE PUSH1 0x1 DUP2 ADD SLOAD SWAP2 DUP4 ADD SWAP2 SWAP1 SWAP2 MSTORE PUSH1 0x2 ADD SLOAD PUSH1 0x60 DUP3 ADD MSTORE SWAP2 SWAP3 POP DUP4 DUP4 LT ISZERO PUSH2 0xF93 JUMPI PUSH1 0x0 PUSH1 0x4 DUP2 PUSH2 0xEE7 DUP7 PUSH1 0x1 PUSH2 0x3402 JUMP JUMPDEST DUP2 MSTORE PUSH1 0x20 DUP1 DUP3 ADD SWAP3 SWAP1 SWAP3 MSTORE PUSH1 0x40 SWAP1 DUP2 ADD PUSH1 0x0 KECCAK256 DUP2 MLOAD PUSH1 0x80 DUP2 ADD DUP4 MSTORE DUP2 SLOAD PUSH1 0xF DUP2 DUP2 SIGNEXTEND DUP4 MSTORE PUSH1 0x1 PUSH1 0x80 SHL SWAP1 SWAP2 DIV SWAP1 SIGNEXTEND SWAP4 DUP2 ADD SWAP4 SWAP1 SWAP4 MSTORE PUSH1 0x1 DUP2 ADD SLOAD SWAP2 DUP4 ADD SWAP2 SWAP1 SWAP2 MSTORE PUSH1 0x2 ADD SLOAD PUSH1 0x60 DUP1 DUP4 ADD DUP3 SWAP1 MSTORE DUP6 ADD MLOAD SWAP2 SWAP3 POP EQ PUSH2 0xF8D JUMPI DUP3 PUSH1 0x60 ADD MLOAD DUP2 PUSH1 0x60 ADD MLOAD PUSH2 0xF53 SWAP2 SWAP1 PUSH2 0x33CE JUMP JUMPDEST DUP4 PUSH1 0x40 ADD MLOAD DUP3 PUSH1 0x40 ADD MLOAD PUSH2 0xF67 SWAP2 SWAP1 PUSH2 0x33CE JUMP JUMPDEST PUSH1 0x60 DUP6 ADD MLOAD PUSH2 0xF76 SWAP1 DUP11 PUSH2 0x33CE JUMP JUMPDEST PUSH2 0xF80 SWAP2 SWAP1 PUSH2 0x341A JUMP JUMPDEST PUSH2 0xF8A SWAP2 SWAP1 PUSH2 0x344F JUMP JUMPDEST SWAP2 POP JUMPDEST POP PUSH2 0xFE2 JUMP JUMPDEST NUMBER DUP3 PUSH1 0x60 ADD MLOAD EQ PUSH2 0xFE2 JUMPI PUSH1 0x60 DUP3 ADD MLOAD PUSH2 0xFAD SWAP1 NUMBER PUSH2 0x33CE JUMP JUMPDEST PUSH1 0x40 DUP4 ADD MLOAD PUSH2 0xFBC SWAP1 TIMESTAMP PUSH2 0x33CE JUMP JUMPDEST PUSH1 0x60 DUP5 ADD MLOAD PUSH2 0xFCB SWAP1 DUP10 PUSH2 0x33CE JUMP JUMPDEST PUSH2 0xFD5 SWAP2 SWAP1 PUSH2 0x341A JUMP JUMPDEST PUSH2 0xFDF SWAP2 SWAP1 PUSH2 0x344F JUMP JUMPDEST SWAP1 POP JUMPDEST PUSH2 0xFFB DUP3 DUP3 DUP5 PUSH1 0x40 ADD MLOAD PUSH2 0xFF6 SWAP2 SWAP1 PUSH2 0x3402 JUMP JUMPDEST PUSH2 0x22DB JUMP JUMPDEST SWAP7 SWAP6 POP POP POP POP POP POP JUMP JUMPDEST PUSH1 0xA SLOAD PUSH1 0x1 PUSH1 0x1 PUSH1 0xA0 SHL SUB AND CALLER EQ PUSH2 0x101C JUMPI PUSH1 0x0 DUP1 REVERT JUMPDEST PUSH1 0x0 DUP2 DUP2 MSTORE PUSH1 0x8 PUSH1 0x20 MSTORE PUSH1 0x40 SWAP1 KECCAK256 SLOAD PUSH2 0x1037 SWAP1 PUSH1 0x1 SWAP1 PUSH2 0x33CE JUMP JUMPDEST PUSH1 0x0 SWAP2 DUP3 MSTORE PUSH1 0x8 PUSH1 0x20 MSTORE PUSH1 0x40 SWAP1 SWAP2 KECCAK256 SSTORE JUMP JUMPDEST PUSH1 0x14 SLOAD PUSH1 0xFF AND PUSH1 0x1 EQ PUSH2 0x105B JUMPI PUSH1 0x0 DUP1 REVERT JUMPDEST PUSH1 0x14 DUP1 SLOAD PUSH1 0xFF NOT AND PUSH1 0x2 OR SWAP1 SSTORE PUSH2 0x1072 CALLER DUP4 PUSH2 0x1A46 JUMP JUMPDEST PUSH2 0x107E JUMPI PUSH2 0x107E PUSH2 0x3380 JUMP JUMPDEST PUSH1 0x0 DUP3 DUP2 MSTORE PUSH1 0x1 PUSH1 0x20 DUP2 DUP2 MSTORE PUSH1 0x40 SWAP3 DUP4 SWAP1 KECCAK256 DUP4 MLOAD DUP1 DUP6 ADD SWAP1 SWAP5 MSTORE DUP1 SLOAD PUSH1 0xF SIGNEXTEND DUP5 MSTORE SWAP1 SWAP2 ADD SLOAD SWAP1 DUP3 ADD MSTORE DUP2 PUSH2 0x10B4 JUMPI PUSH2 0x10B4 PUSH2 0x3380 JUMP JUMPDEST PUSH1 0x0 DUP2 PUSH1 0x0 ADD MLOAD PUSH1 0xF SIGNEXTEND SGT PUSH2 0x1104 JUMPI PUSH1 0x40 MLOAD PUSH3 0x461BCD PUSH1 0xE5 SHL DUP2 MSTORE PUSH1 0x20 PUSH1 0x4 DUP3 ADD MSTORE PUSH1 0x16 PUSH1 0x24 DUP3 ADD MSTORE PUSH22 0x139BC8195E1A5CDD1A5B99C81B1BD8DAC8199BDD5B99 PUSH1 0x52 SHL PUSH1 0x44 DUP3 ADD MSTORE PUSH1 0x64 ADD PUSH2 0xAAF JUMP JUMPDEST TIMESTAMP DUP2 PUSH1 0x20 ADD MLOAD GT PUSH2 0x1127 JUMPI PUSH1 0x40 MLOAD PUSH3 0x461BCD PUSH1 0xE5 SHL DUP2 MSTORE PUSH1 0x4 ADD PUSH2 0xAAF SWAP1 PUSH2 0x3463 JUMP JUMPDEST PUSH2 0x1136 DUP4 DUP4 PUSH1 0x0 DUP5 PUSH1 0x2 PUSH2 0x273F JUMP JUMPDEST POP POP PUSH1 0x14 DUP1 SLOAD PUSH1 0xFF NOT AND PUSH1 0x1 OR SWAP1 SSTORE POP JUMP JUMPDEST PUSH1 0x1 PUSH1 0x1 PUSH1 0xA0 SHL SUB DUP3 AND CALLER EQ ISZERO PUSH2 0x1161 JUMPI PUSH2 0x1161 PUSH2 0x3380 JUMP JUMPDEST CALLER PUSH1 0x0 DUP2 DUP2 MSTORE PUSH1 0x12 PUSH1 0x20 SWAP1 DUP2 MSTORE PUSH1 0x40 DUP1 DUP4 KECCAK256 PUSH1 0x1 PUSH1 0x1 PUSH1 0xA0 SHL SUB DUP8 AND DUP1 DUP6 MSTORE SWAP1 DUP4 MSTORE SWAP3 DUP2 SWAP1 KECCAK256 DUP1 SLOAD PUSH1 0xFF NOT AND DUP7 ISZERO ISZERO SWAP1 DUP2 OR SWAP1 SWAP2 SSTORE SWAP1 MLOAD SWAP1 DUP2 MSTORE SWAP2 SWAP3 SWAP2 PUSH32 0x17307EAB39AB6107E8899845AD3D59BD9653F200F220920489CA2B5937696C31 SWAP2 ADD PUSH1 0x40 MLOAD DUP1 SWAP2 SUB SWAP1 LOG3 POP POP JUMP JUMPDEST PUSH1 0x14 SLOAD PUSH1 0xFF AND PUSH1 0x1 EQ PUSH2 0x11DF JUMPI PUSH1 0x0 DUP1 REVERT JUMPDEST PUSH1 0x14 DUP1 SLOAD PUSH1 0xFF NOT AND PUSH1 0x2 OR SWAP1 SSTORE PUSH2 0x11F6 CALLER DUP4 PUSH2 0x1A46 JUMP JUMPDEST PUSH2 0x1202 JUMPI PUSH2 0x1202 PUSH2 0x3380 JUMP JUMPDEST PUSH1 0x0 DUP3 DUP2 MSTORE PUSH1 0x1 PUSH1 0x20 DUP2 DUP2 MSTORE PUSH1 0x40 DUP1 DUP5 KECCAK256 DUP2 MLOAD DUP1 DUP4 ADD SWAP1 SWAP3 MSTORE DUP1 SLOAD PUSH1 0xF SIGNEXTEND DUP3 MSTORE SWAP1 SWAP3 ADD SLOAD SWAP1 DUP3 ADD MSTORE SWAP1 PUSH3 0x93A80 DUP1 PUSH2 0x123A DUP6 TIMESTAMP PUSH2 0x3402 JUMP JUMPDEST PUSH2 0x1244 SWAP2 SWAP1 PUSH2 0x344F JUMP JUMPDEST PUSH2 0x124E SWAP2 SWAP1 PUSH2 0x341A JUMP JUMPDEST SWAP1 POP TIMESTAMP DUP3 PUSH1 0x20 ADD MLOAD GT PUSH2 0x1292 JUMPI PUSH1 0x40 MLOAD PUSH3 0x461BCD PUSH1 0xE5 SHL DUP2 MSTORE PUSH1 0x20 PUSH1 0x4 DUP3 ADD MSTORE PUSH1 0xC PUSH1 0x24 DUP3 ADD MSTORE PUSH12 0x131BD8DAC8195E1C1A5C9959 PUSH1 0xA2 SHL PUSH1 0x44 DUP3 ADD MSTORE PUSH1 0x64 ADD PUSH2 0xAAF JUMP JUMPDEST PUSH1 0x0 DUP3 PUSH1 0x0 ADD MLOAD PUSH1 0xF SIGNEXTEND SGT PUSH2 0x12DD JUMPI PUSH1 0x40 MLOAD PUSH3 0x461BCD PUSH1 0xE5 SHL DUP2 MSTORE PUSH1 0x20 PUSH1 0x4 DUP3 ADD MSTORE PUSH1 0x11 PUSH1 0x24 DUP3 ADD MSTORE PUSH17 0x139BDD1A1A5B99C81A5CC81B1BD8DAD959 PUSH1 0x7A SHL PUSH1 0x44 DUP3 ADD MSTORE PUSH1 0x64 ADD PUSH2 0xAAF JUMP JUMPDEST DUP2 PUSH1 0x20 ADD MLOAD DUP2 GT PUSH2 0x1330 JUMPI PUSH1 0x40 MLOAD PUSH3 0x461BCD PUSH1 0xE5 SHL DUP2 MSTORE PUSH1 0x20 PUSH1 0x4 DUP3 ADD MSTORE PUSH1 0x1F PUSH1 0x24 DUP3 ADD MSTORE PUSH32 0x43616E206F6E6C7920696E637265617365206C6F636B206475726174696F6E00 PUSH1 0x44 DUP3 ADD MSTORE PUSH1 0x64 ADD PUSH2 0xAAF JUMP JUMPDEST PUSH2 0x133E PUSH4 0x784CE00 TIMESTAMP PUSH2 0x3402 JUMP JUMPDEST DUP2 GT ISZERO PUSH2 0x138D JUMPI PUSH1 0x40 MLOAD PUSH3 0x461BCD PUSH1 0xE5 SHL DUP2 MSTORE PUSH1 0x20 PUSH1 0x4 DUP3 ADD MSTORE PUSH1 0x1E PUSH1 0x24 DUP3 ADD MSTORE PUSH32 0x566F74696E67206C6F636B2063616E2062652034207965617273206D61780000 PUSH1 0x44 DUP3 ADD MSTORE PUSH1 0x64 ADD PUSH2 0xAAF JUMP JUMPDEST PUSH2 0x139C DUP5 PUSH1 0x0 DUP4 DUP6 PUSH1 0x3 PUSH2 0x273F JUMP JUMPDEST POP POP PUSH1 0x14 DUP1 SLOAD PUSH1 0xFF NOT AND PUSH1 0x1 OR SWAP1 SSTORE POP POP JUMP JUMPDEST PUSH2 0x13BB DUP5 DUP5 DUP5 CALLER PUSH2 0x1980 JUMP JUMPDEST DUP3 EXTCODESIZE ISZERO PUSH2 0x14D6 JUMPI PUSH1 0x40 MLOAD PUSH4 0xA85BD01 PUSH1 0xE1 SHL DUP2 MSTORE PUSH1 0x1 PUSH1 0x1 PUSH1 0xA0 SHL SUB DUP5 AND SWAP1 PUSH4 0x150B7A02 SWAP1 PUSH2 0x13F4 SWAP1 CALLER SWAP1 DUP9 SWAP1 DUP8 SWAP1 DUP8 SWAP1 PUSH1 0x4 ADD PUSH2 0x34A7 JUMP JUMPDEST PUSH1 0x20 PUSH1 0x40 MLOAD DUP1 DUP4 SUB DUP2 PUSH1 0x0 DUP8 GAS CALL SWAP3 POP POP POP DUP1 ISZERO PUSH2 0x142F JUMPI POP PUSH1 0x40 DUP1 MLOAD PUSH1 0x1F RETURNDATASIZE SWAP1 DUP2 ADD PUSH1 0x1F NOT AND DUP3 ADD SWAP1 SWAP3 MSTORE PUSH2 0x142C SWAP2 DUP2 ADD SWAP1 PUSH2 0x34DA JUMP JUMPDEST PUSH1 0x1 JUMPDEST PUSH2 0x14D4 JUMPI RETURNDATASIZE DUP1 DUP1 ISZERO PUSH2 0x145D JUMPI PUSH1 0x40 MLOAD SWAP2 POP PUSH1 0x1F NOT PUSH1 0x3F RETURNDATASIZE ADD AND DUP3 ADD PUSH1 0x40 MSTORE RETURNDATASIZE DUP3 MSTORE RETURNDATASIZE PUSH1 0x0 PUSH1 0x20 DUP5 ADD RETURNDATACOPY PUSH2 0x1462 JUMP JUMPDEST PUSH1 0x60 SWAP2 POP JUMPDEST POP DUP1 MLOAD PUSH2 0x14CC JUMPI PUSH1 0x40 MLOAD PUSH3 0x461BCD PUSH1 0xE5 SHL DUP2 MSTORE PUSH1 0x20 PUSH1 0x4 DUP3 ADD MSTORE PUSH1 0x32 PUSH1 0x24 DUP3 ADD MSTORE PUSH32 0x4552433732313A207472616E7366657220746F206E6F6E204552433732315265 PUSH1 0x44 DUP3 ADD MSTORE PUSH18 0x31B2B4BB32B91034B6B83632B6B2B73A32B9 PUSH1 0x71 SHL PUSH1 0x64 DUP3 ADD MSTORE PUSH1 0x84 ADD PUSH2 0xAAF JUMP JUMPDEST DUP1 MLOAD DUP2 PUSH1 0x20 ADD REVERT JUMPDEST POP JUMPDEST POP POP POP POP JUMP JUMPDEST PUSH1 0xA SLOAD PUSH1 0x1 PUSH1 0x1 PUSH1 0xA0 SHL SUB AND CALLER EQ PUSH2 0x14F3 JUMPI PUSH1 0x0 DUP1 REVERT JUMPDEST PUSH1 0x0 DUP2 DUP2 MSTORE PUSH1 0xC PUSH1 0x20 MSTORE PUSH1 0x40 SWAP1 KECCAK256 SLOAD TIMESTAMP GT PUSH2 0x1548 JUMPI PUSH1 0x40 MLOAD PUSH3 0x461BCD PUSH1 0xE5 SHL DUP2 MSTORE PUSH1 0x20 PUSH1 0x4 DUP3 ADD MSTORE PUSH1 0x15 PUSH1 0x24 DUP3 ADD MSTORE PUSH21 0x111958591B1A5B99481B9BDD08199A5B9A5CDA1959 PUSH1 0x5A SHL PUSH1 0x44 DUP3 ADD MSTORE PUSH1 0x64 ADD PUSH2 0xAAF JUMP JUMPDEST PUSH1 0x0 SWAP1 DUP2 MSTORE PUSH1 0x9 PUSH1 0x20 MSTORE PUSH1 0x40 SWAP1 KECCAK256 DUP1 SLOAD PUSH1 0xFF NOT AND SWAP1 SSTORE JUMP JUMPDEST PUSH2 0x159E PUSH1 0x0 PUSH1 0x40 MLOAD DUP1 PUSH1 0x40 ADD PUSH1 0x40 MSTORE DUP1 PUSH1 0x0 PUSH1 0xF SIGNEXTEND DUP2 MSTORE PUSH1 0x20 ADD PUSH1 0x0 DUP2 MSTORE POP PUSH1 0x40 MLOAD DUP1 PUSH1 0x40 ADD PUSH1 0x40 MSTORE DUP1 PUSH1 0x0 PUSH1 0xF SIGNEXTEND DUP2 MSTORE PUSH1 0x20 ADD PUSH1 0x0 DUP2 MSTORE POP PUSH2 0x1AAC JUMP JUMPDEST JUMP JUMPDEST PUSH1 0x0 DUP2 DUP2 MSTORE PUSH1 0xD PUSH1 0x20 MSTORE PUSH1 0x40 SWAP1 KECCAK256 SLOAD PUSH1 0x60 SWAP1 PUSH1 0x1 PUSH1 0x1 PUSH1 0xA0 SHL SUB AND PUSH2 0x1607 JUMPI PUSH1 0x40 MLOAD PUSH3 0x461BCD PUSH1 0xE5 SHL DUP2 MSTORE PUSH1 0x20 PUSH1 0x4 DUP3 ADD MSTORE PUSH1 0x1B PUSH1 0x24 DUP3 ADD MSTORE PUSH32 0x517565727920666F72206E6F6E6578697374656E7420746F6B656E0000000000 PUSH1 0x44 DUP3 ADD MSTORE PUSH1 0x64 ADD PUSH2 0xAAF JUMP JUMPDEST PUSH1 0x0 DUP3 DUP2 MSTORE PUSH1 0x1 PUSH1 0x20 DUP2 DUP2 MSTORE PUSH1 0x40 SWAP3 DUP4 SWAP1 KECCAK256 DUP4 MLOAD DUP1 DUP6 ADD SWAP1 SWAP5 MSTORE DUP1 SLOAD PUSH1 0xF SIGNEXTEND DUP5 MSTORE SWAP1 SWAP2 ADD SLOAD SWAP1 DUP3 ADD MSTORE PUSH2 0xD14 DUP4 PUSH2 0x163E DUP2 TIMESTAMP PUSH2 0x2944 JUMP JUMPDEST PUSH1 0x20 DUP5 ADD MLOAD DUP5 MLOAD PUSH1 0xF SIGNEXTEND PUSH2 0x2A16 JUMP JUMPDEST PUSH1 0x0 DUP3 DUP2 MSTORE PUSH1 0x8 PUSH1 0x20 MSTORE PUSH1 0x40 SWAP1 KECCAK256 SLOAD ISZERO DUP1 ISZERO PUSH2 0x1678 JUMPI POP PUSH1 0x0 DUP3 DUP2 MSTORE PUSH1 0x9 PUSH1 0x20 MSTORE PUSH1 0x40 SWAP1 KECCAK256 SLOAD PUSH1 0xFF AND ISZERO JUMPDEST PUSH2 0x1694 JUMPI PUSH1 0x40 MLOAD PUSH3 0x461BCD PUSH1 0xE5 SHL DUP2 MSTORE PUSH1 0x4 ADD PUSH2 0xAAF SWAP1 PUSH2 0x3396 JUMP JUMPDEST DUP1 DUP3 EQ ISZERO PUSH2 0x16A1 JUMPI PUSH1 0x0 DUP1 REVERT JUMPDEST PUSH2 0x16AB CALLER DUP4 PUSH2 0x1A46 JUMP JUMPDEST PUSH2 0x16B4 JUMPI PUSH1 0x0 DUP1 REVERT JUMPDEST PUSH2 0x16BE CALLER DUP3 PUSH2 0x1A46 JUMP JUMPDEST PUSH2 0x16C7 JUMPI PUSH1 0x0 DUP1 REVERT JUMPDEST PUSH1 0x0 DUP3 DUP2 MSTORE PUSH1 0x1 PUSH1 0x20 DUP2 DUP2 MSTORE PUSH1 0x40 DUP1 DUP5 KECCAK256 DUP2 MLOAD DUP1 DUP4 ADD DUP4 MSTORE DUP2 SLOAD PUSH1 0xF SWAP1 DUP2 SIGNEXTEND DUP3 MSTORE SWAP2 DUP6 ADD SLOAD DUP2 DUP6 ADD SWAP1 DUP2 MSTORE DUP8 DUP8 MSTORE DUP6 DUP6 MSTORE DUP4 DUP8 KECCAK256 DUP5 MLOAD DUP1 DUP7 ADD SWAP1 SWAP6 MSTORE DUP1 SLOAD DUP5 SIGNEXTEND DUP6 MSTORE SWAP1 SWAP6 ADD SLOAD SWAP4 DUP4 ADD DUP5 SWAP1 MSTORE DUP1 MLOAD SWAP5 MLOAD SWAP1 SWAP6 SWAP3 SWAP5 SWAP1 SWAP2 SIGNEXTEND SWAP3 GT ISZERO PUSH2 0x172F JUMPI DUP3 PUSH1 0x20 ADD MLOAD PUSH2 0x1735 JUMP JUMPDEST DUP4 PUSH1 0x20 ADD MLOAD JUMPDEST PUSH1 0x40 DUP1 MLOAD DUP1 DUP3 ADD DUP3 MSTORE PUSH1 0x0 DUP1 DUP3 MSTORE PUSH1 0x20 DUP1 DUP4 ADD DUP3 DUP2 MSTORE DUP12 DUP4 MSTORE PUSH1 0x1 DUP1 DUP4 MSTORE DUP6 DUP5 KECCAK256 SWAP5 MLOAD DUP6 SLOAD PUSH1 0x1 PUSH1 0x1 PUSH1 0x80 SHL SUB NOT AND PUSH1 0x1 PUSH1 0x1 PUSH1 0x80 SHL SUB SWAP1 SWAP2 AND OR DUP6 SSTORE SWAP1 MLOAD SWAP4 ADD SWAP3 SWAP1 SWAP3 SSTORE DUP3 MLOAD DUP1 DUP5 ADD SWAP1 SWAP4 MSTORE DUP1 DUP4 MSTORE SWAP1 DUP3 ADD MSTORE SWAP1 SWAP2 POP PUSH2 0x1799 SWAP1 DUP8 SWAP1 DUP7 SWAP1 PUSH2 0x1AAC JUMP JUMPDEST PUSH2 0x17A2 DUP7 PUSH2 0x20CB JUMP JUMPDEST PUSH2 0x17B0 DUP6 DUP4 DUP4 DUP7 PUSH1 0x4 PUSH2 0x273F JUMP JUMPDEST POP POP POP POP POP POP JUMP JUMPDEST PUSH1 0x14 SLOAD PUSH1 0x0 SWAP1 PUSH1 0xFF AND PUSH1 0x1 EQ PUSH2 0x17CD JUMPI PUSH1 0x0 DUP1 REVERT JUMPDEST PUSH1 0x14 DUP1 SLOAD PUSH1 0xFF NOT AND PUSH1 0x2 OR SWAP1 SSTORE PUSH2 0x17E5 DUP5 DUP5 DUP5 PUSH2 0x218A JUMP JUMPDEST SWAP1 POP PUSH1 0x14 DUP1 SLOAD PUSH1 0xFF NOT AND PUSH1 0x1 OR SWAP1 SSTORE SWAP4 SWAP3 POP POP POP JUMP JUMPDEST PUSH1 0x0 PUSH2 0xD14 DUP4 DUP4 PUSH2 0x2944 JUMP JUMPDEST PUSH1 0x0 DUP2 DUP2 MSTORE PUSH1 0x2 PUSH1 0x20 MSTORE PUSH1 0x40 DUP2 KECCAK256 SLOAD NUMBER EQ ISZERO PUSH2 0x1825 JUMPI POP PUSH1 0x0 SWAP2 SWAP1 POP JUMP JUMPDEST PUSH2 0xA1C DUP3 TIMESTAMP PUSH2 0x2944 JUMP JUMPDEST PUSH1 0x14 SLOAD PUSH1 0xFF AND PUSH1 0x1 EQ PUSH2 0x1841 JUMPI PUSH1 0x0 DUP1 REVERT JUMPDEST PUSH1 0x14 DUP1 SLOAD PUSH1 0xFF NOT AND PUSH1 0x2 OR SWAP1 SSTORE PUSH1 0x0 DUP3 DUP2 MSTORE PUSH1 0x1 PUSH1 0x20 DUP2 DUP2 MSTORE PUSH1 0x40 SWAP3 DUP4 SWAP1 KECCAK256 DUP4 MLOAD DUP1 DUP6 ADD SWAP1 SWAP5 MSTORE DUP1 SLOAD PUSH1 0xF SIGNEXTEND DUP5 MSTORE SWAP1 SWAP2 ADD SLOAD SWAP1 DUP3 ADD MSTORE DUP2 PUSH2 0x1881 JUMPI PUSH1 0x0 DUP1 REVERT JUMPDEST PUSH1 0x0 DUP2 PUSH1 0x0 ADD MLOAD PUSH1 0xF SIGNEXTEND SGT PUSH2 0x18D1 JUMPI PUSH1 0x40 MLOAD PUSH3 0x461BCD PUSH1 0xE5 SHL DUP2 MSTORE PUSH1 0x20 PUSH1 0x4 DUP3 ADD MSTORE PUSH1 0x16 PUSH1 0x24 DUP3 ADD MSTORE PUSH22 0x139BC8195E1A5CDD1A5B99C81B1BD8DAC8199BDD5B99 PUSH1 0x52 SHL PUSH1 0x44 DUP3 ADD MSTORE PUSH1 0x64 ADD PUSH2 0xAAF JUMP JUMPDEST TIMESTAMP DUP2 PUSH1 0x20 ADD MLOAD GT PUSH2 0x18F4 JUMPI PUSH1 0x40 MLOAD PUSH3 0x461BCD PUSH1 0xE5 SHL DUP2 MSTORE PUSH1 0x4 ADD PUSH2 0xAAF SWAP1 PUSH2 0x3463 JUMP JUMPDEST PUSH2 0x1136 DUP4 DUP4 PUSH1 0x0 DUP5 PUSH1 0x0 PUSH2 0x273F JUMP JUMPDEST PUSH1 0xA SLOAD PUSH1 0x1 PUSH1 0x1 PUSH1 0xA0 SHL SUB AND CALLER EQ PUSH2 0x191A JUMPI PUSH1 0x0 DUP1 REVERT JUMPDEST PUSH1 0x0 DUP2 DUP2 MSTORE PUSH1 0x8 PUSH1 0x20 MSTORE PUSH1 0x40 SWAP1 KECCAK256 SLOAD PUSH2 0x1037 SWAP1 PUSH1 0x1 PUSH2 0x3402 JUMP JUMPDEST PUSH1 0xA SLOAD PUSH1 0x1 PUSH1 0x1 PUSH1 0xA0 SHL SUB AND CALLER EQ PUSH2 0x194B JUMPI PUSH1 0x0 DUP1 REVERT JUMPDEST PUSH2 0x1958 TIMESTAMP PUSH3 0x93A80 PUSH2 0x3402 JUMP JUMPDEST PUSH1 0x0 SWAP2 DUP3 MSTORE PUSH1 0xC PUSH1 0x20 SWAP1 DUP2 MSTORE PUSH1 0x40 DUP1 DUP5 KECCAK256 SWAP3 SWAP1 SWAP3 SSTORE PUSH1 0x9 SWAP1 MSTORE SWAP1 KECCAK256 DUP1 SLOAD PUSH1 0xFF NOT AND PUSH1 0x1 OR SWAP1 SSTORE JUMP JUMPDEST PUSH1 0x0 DUP3 DUP2 MSTORE PUSH1 0x8 PUSH1 0x20 MSTORE PUSH1 0x40 SWAP1 KECCAK256 SLOAD ISZERO DUP1 ISZERO PUSH2 0x19AB JUMPI POP PUSH1 0x0 DUP3 DUP2 MSTORE PUSH1 0x9 PUSH1 0x20 MSTORE PUSH1 0x40 SWAP1 KECCAK256 SLOAD PUSH1 0xFF AND ISZERO JUMPDEST PUSH2 0x19C7 JUMPI PUSH1 0x40 MLOAD PUSH3 0x461BCD PUSH1 0xE5 SHL DUP2 MSTORE PUSH1 0x4 ADD PUSH2 0xAAF SWAP1 PUSH2 0x3396 JUMP JUMPDEST PUSH2 0x19D1 DUP2 DUP4 PUSH2 0x1A46 JUMP JUMPDEST PUSH2 0x19DA JUMPI PUSH1 0x0 DUP1 REVERT JUMPDEST PUSH2 0x19E4 DUP5 DUP4 PUSH2 0x2B4D JUMP JUMPDEST PUSH2 0x19EE DUP5 DUP4 PUSH2 0x2BB4 JUMP JUMPDEST PUSH2 0x19F8 DUP4 DUP4 PUSH2 0x2C35 JUMP JUMPDEST PUSH1 0x0 DUP3 DUP2 MSTORE PUSH1 0x2 PUSH1 0x20 MSTORE PUSH1 0x40 DUP1 DUP3 KECCAK256 NUMBER SWAP1 SSTORE MLOAD DUP4 SWAP2 PUSH1 0x1 PUSH1 0x1 PUSH1 0xA0 SHL SUB DUP1 DUP8 AND SWAP3 SWAP1 DUP9 AND SWAP2 PUSH32 0xDDF252AD1BE2C89B69C2B068FC378DAA952BA7F163C4A11628F55A4DF523B3EF SWAP2 LOG4 POP POP POP POP JUMP JUMPDEST PUSH1 0x0 DUP2 DUP2 MSTORE PUSH1 0xD PUSH1 0x20 SWAP1 DUP2 MSTORE PUSH1 0x40 DUP1 DUP4 KECCAK256 SLOAD PUSH1 0xE DUP4 MSTORE DUP2 DUP5 KECCAK256 SLOAD PUSH1 0x1 PUSH1 0x1 PUSH1 0xA0 SHL SUB SWAP2 DUP3 AND DUP1 DUP7 MSTORE PUSH1 0x12 DUP6 MSTORE DUP4 DUP7 KECCAK256 DUP9 DUP5 AND DUP1 DUP9 MSTORE SWAP6 MSTORE SWAP3 DUP6 KECCAK256 SLOAD SWAP3 SWAP4 DUP1 DUP6 EQ SWAP4 SWAP3 SWAP1 SWAP2 AND EQ SWAP1 PUSH1 0xFF AND DUP3 DUP1 PUSH2 0x1A99 JUMPI POP DUP2 JUMPDEST DUP1 PUSH2 0x1AA1 JUMPI POP DUP1 JUMPDEST SWAP8 SWAP7 POP POP POP POP POP POP POP JUMP JUMPDEST PUSH1 0x40 DUP1 MLOAD PUSH1 0x80 DUP2 ADD DUP3 MSTORE PUSH1 0x0 DUP1 DUP3 MSTORE PUSH1 0x20 DUP3 ADD DUP2 SWAP1 MSTORE SWAP2 DUP2 ADD DUP3 SWAP1 MSTORE PUSH1 0x60 DUP2 ADD SWAP2 SWAP1 SWAP2 MSTORE PUSH1 0x40 DUP1 MLOAD PUSH1 0x80 DUP2 ADD DUP3 MSTORE PUSH1 0x0 DUP1 DUP3 MSTORE PUSH1 0x20 DUP3 ADD DUP2 SWAP1 MSTORE SWAP2 DUP2 ADD DUP3 SWAP1 MSTORE PUSH1 0x60 DUP2 ADD SWAP2 SWAP1 SWAP2 MSTORE PUSH1 0x3 SLOAD PUSH1 0x0 SWAP1 DUP2 SWAP1 DUP8 ISZERO PUSH2 0x1C18 JUMPI TIMESTAMP DUP8 PUSH1 0x20 ADD MLOAD GT DUP1 ISZERO PUSH2 0x1B1C JUMPI POP PUSH1 0x0 DUP8 PUSH1 0x0 ADD MLOAD PUSH1 0xF SIGNEXTEND SGT JUMPDEST ISZERO PUSH2 0x1B61 JUMPI DUP7 MLOAD PUSH2 0x1B32 SWAP1 PUSH4 0x784CE00 SWAP1 PUSH2 0x34F7 JUMP JUMPDEST PUSH1 0xF SIGNEXTEND PUSH1 0x20 DUP1 DUP8 ADD SWAP2 SWAP1 SWAP2 MSTORE DUP8 ADD MLOAD PUSH2 0x1B4C SWAP1 TIMESTAMP SWAP1 PUSH2 0x33CE JUMP JUMPDEST DUP6 PUSH1 0x20 ADD MLOAD PUSH2 0x1B5B SWAP2 SWAP1 PUSH2 0x3535 JUMP JUMPDEST PUSH1 0xF SIGNEXTEND DUP6 MSTORE JUMPDEST TIMESTAMP DUP7 PUSH1 0x20 ADD MLOAD GT DUP1 ISZERO PUSH2 0x1B7B JUMPI POP PUSH1 0x0 DUP7 PUSH1 0x0 ADD MLOAD PUSH1 0xF SIGNEXTEND SGT JUMPDEST ISZERO PUSH2 0x1BC0 JUMPI DUP6 MLOAD PUSH2 0x1B91 SWAP1 PUSH4 0x784CE00 SWAP1 PUSH2 0x34F7 JUMP JUMPDEST PUSH1 0xF SIGNEXTEND PUSH1 0x20 DUP1 DUP7 ADD SWAP2 SWAP1 SWAP2 MSTORE DUP7 ADD MLOAD PUSH2 0x1BAB SWAP1 TIMESTAMP SWAP1 PUSH2 0x33CE JUMP JUMPDEST DUP5 PUSH1 0x20 ADD MLOAD PUSH2 0x1BBA SWAP2 SWAP1 PUSH2 0x3535 JUMP JUMPDEST PUSH1 0xF SIGNEXTEND DUP5 MSTORE JUMPDEST PUSH1 0x20 DUP1 DUP9 ADD MLOAD PUSH1 0x0 SWAP1 DUP2 MSTORE PUSH1 0x7 DUP3 MSTORE PUSH1 0x40 SWAP1 KECCAK256 SLOAD SWAP1 DUP8 ADD MLOAD PUSH1 0xF SWAP2 SWAP1 SWAP2 SIGNEXTEND SWAP4 POP ISZERO PUSH2 0x1C18 JUMPI DUP7 PUSH1 0x20 ADD MLOAD DUP7 PUSH1 0x20 ADD MLOAD EQ ISZERO PUSH2 0x1BFD JUMPI DUP3 SWAP2 POP PUSH2 0x1C18 JUMP JUMPDEST PUSH1 0x20 DUP1 DUP8 ADD MLOAD PUSH1 0x0 SWAP1 DUP2 MSTORE PUSH1 0x7 SWAP1 SWAP2 MSTORE PUSH1 0x40 SWAP1 KECCAK256 SLOAD PUSH1 0xF SIGNEXTEND SWAP2 POP JUMPDEST PUSH1 0x40 DUP1 MLOAD PUSH1 0x80 DUP2 ADD DUP3 MSTORE PUSH1 0x0 DUP1 DUP3 MSTORE PUSH1 0x20 DUP3 ADD MSTORE TIMESTAMP SWAP2 DUP2 ADD SWAP2 SWAP1 SWAP2 MSTORE NUMBER PUSH1 0x60 DUP3 ADD MSTORE DUP2 ISZERO PUSH2 0x1C8D JUMPI POP PUSH1 0x0 DUP2 DUP2 MSTORE PUSH1 0x4 PUSH1 0x20 SWAP1 DUP2 MSTORE PUSH1 0x40 SWAP2 DUP3 SWAP1 KECCAK256 DUP3 MLOAD PUSH1 0x80 DUP2 ADD DUP5 MSTORE DUP2 SLOAD PUSH1 0xF DUP2 DUP2 SIGNEXTEND DUP4 MSTORE PUSH1 0x1 PUSH1 0x80 SHL SWAP1 SWAP2 DIV SWAP1 SIGNEXTEND SWAP3 DUP2 ADD SWAP3 SWAP1 SWAP3 MSTORE PUSH1 0x1 DUP2 ADD SLOAD SWAP3 DUP3 ADD SWAP3 SWAP1 SWAP3 MSTORE PUSH1 0x2 SWAP1 SWAP2 ADD SLOAD PUSH1 0x60 DUP3 ADD MSTORE JUMPDEST PUSH1 0x40 DUP2 ADD MLOAD DUP2 PUSH1 0x0 TIMESTAMP DUP4 LT ISZERO PUSH2 0x1CDA JUMPI PUSH1 0x40 DUP5 ADD MLOAD PUSH2 0x1CAC SWAP1 TIMESTAMP PUSH2 0x33CE JUMP JUMPDEST PUSH1 0x60 DUP6 ADD MLOAD PUSH2 0x1CBB SWAP1 NUMBER PUSH2 0x33CE JUMP JUMPDEST PUSH2 0x1CCD SWAP1 PUSH8 0xDE0B6B3A7640000 PUSH2 0x341A JUMP JUMPDEST PUSH2 0x1CD7 SWAP2 SWAP1 PUSH2 0x344F JUMP JUMPDEST SWAP1 POP JUMPDEST PUSH1 0x0 PUSH3 0x93A80 PUSH2 0x1CEA DUP2 DUP7 PUSH2 0x344F JUMP JUMPDEST PUSH2 0x1CF4 SWAP2 SWAP1 PUSH2 0x341A JUMP JUMPDEST SWAP1 POP PUSH1 0x0 JUMPDEST PUSH1 0xFF DUP2 LT ISZERO PUSH2 0x1E6F JUMPI PUSH2 0x1D0F PUSH3 0x93A80 DUP4 PUSH2 0x3402 JUMP JUMPDEST SWAP2 POP PUSH1 0x0 TIMESTAMP DUP4 GT ISZERO PUSH2 0x1D23 JUMPI TIMESTAMP SWAP3 POP PUSH2 0x1D37 JUMP JUMPDEST POP PUSH1 0x0 DUP3 DUP2 MSTORE PUSH1 0x7 PUSH1 0x20 MSTORE PUSH1 0x40 SWAP1 KECCAK256 SLOAD PUSH1 0xF SIGNEXTEND JUMPDEST PUSH2 0x1D41 DUP7 DUP5 PUSH2 0x33CE JUMP JUMPDEST DUP8 PUSH1 0x20 ADD MLOAD PUSH2 0x1D50 SWAP2 SWAP1 PUSH2 0x3535 JUMP JUMPDEST DUP8 MLOAD DUP9 SWAP1 PUSH2 0x1D5F SWAP1 DUP4 SWAP1 PUSH2 0x35CA JUMP JUMPDEST PUSH1 0xF SIGNEXTEND SWAP1 MSTORE POP PUSH1 0x20 DUP8 ADD DUP1 MLOAD DUP3 SWAP2 SWAP1 PUSH2 0x1D79 SWAP1 DUP4 SWAP1 PUSH2 0x361A JUMP JUMPDEST PUSH1 0xF SWAP1 DUP2 SIGNEXTEND SWAP1 SWAP2 MSTORE DUP9 MLOAD PUSH1 0x0 SWAP2 SIGNEXTEND SLT ISZERO SWAP1 POP PUSH2 0x1D94 JUMPI PUSH1 0x0 DUP8 MSTORE JUMPDEST PUSH1 0x0 DUP8 PUSH1 0x20 ADD MLOAD PUSH1 0xF SIGNEXTEND SLT ISZERO PUSH2 0x1DAC JUMPI PUSH1 0x0 PUSH1 0x20 DUP9 ADD MSTORE JUMPDEST PUSH1 0x40 DUP1 DUP9 ADD DUP5 SWAP1 MSTORE DUP6 ADD MLOAD SWAP3 SWAP6 POP DUP6 SWAP3 PUSH8 0xDE0B6B3A7640000 SWAP1 PUSH2 0x1DD0 SWAP1 DUP6 PUSH2 0x33CE JUMP JUMPDEST PUSH2 0x1DDA SWAP1 DUP7 PUSH2 0x341A JUMP JUMPDEST PUSH2 0x1DE4 SWAP2 SWAP1 PUSH2 0x344F JUMP JUMPDEST DUP6 PUSH1 0x60 ADD MLOAD PUSH2 0x1DF3 SWAP2 SWAP1 PUSH2 0x3402 JUMP JUMPDEST PUSH1 0x60 DUP9 ADD MSTORE PUSH2 0x1E03 PUSH1 0x1 DUP10 PUSH2 0x3402 JUMP JUMPDEST SWAP8 POP TIMESTAMP DUP4 EQ ISZERO PUSH2 0x1E19 JUMPI POP NUMBER PUSH1 0x60 DUP8 ADD MSTORE PUSH2 0x1E6F JUMP JUMPDEST PUSH1 0x0 DUP9 DUP2 MSTORE PUSH1 0x4 PUSH1 0x20 SWAP1 DUP2 MSTORE PUSH1 0x40 SWAP2 DUP3 SWAP1 KECCAK256 DUP10 MLOAD SWAP2 DUP11 ADD MLOAD PUSH1 0x1 PUSH1 0x1 PUSH1 0x80 SHL SUB SWAP1 DUP2 AND PUSH1 0x1 PUSH1 0x80 SHL MUL SWAP3 AND SWAP2 SWAP1 SWAP2 OR DUP2 SSTORE SWAP1 DUP9 ADD MLOAD PUSH1 0x1 DUP3 ADD SSTORE PUSH1 0x60 DUP9 ADD MLOAD PUSH1 0x2 SWAP1 SWAP2 ADD SSTORE POP PUSH2 0x1E68 DUP2 PUSH2 0x3669 JUMP JUMPDEST SWAP1 POP PUSH2 0x1CF9 JUMP JUMPDEST POP POP PUSH1 0x3 DUP6 SWAP1 SSTORE DUP12 ISZERO PUSH2 0x1EFA JUMPI DUP9 PUSH1 0x20 ADD MLOAD DUP9 PUSH1 0x20 ADD MLOAD PUSH2 0x1E90 SWAP2 SWAP1 PUSH2 0x35CA JUMP JUMPDEST DUP5 PUSH1 0x20 ADD DUP2 DUP2 MLOAD PUSH2 0x1EA1 SWAP2 SWAP1 PUSH2 0x361A JUMP JUMPDEST PUSH1 0xF SIGNEXTEND SWAP1 MSTORE POP DUP9 MLOAD DUP9 MLOAD PUSH2 0x1EB5 SWAP2 SWAP1 PUSH2 0x35CA JUMP JUMPDEST DUP5 MLOAD DUP6 SWAP1 PUSH2 0x1EC4 SWAP1 DUP4 SWAP1 PUSH2 0x361A JUMP JUMPDEST PUSH1 0xF SWAP1 DUP2 SIGNEXTEND SWAP1 SWAP2 MSTORE PUSH1 0x20 DUP7 ADD MLOAD PUSH1 0x0 SWAP2 SIGNEXTEND SLT ISZERO SWAP1 POP PUSH2 0x1EE5 JUMPI PUSH1 0x0 PUSH1 0x20 DUP6 ADD MSTORE JUMPDEST PUSH1 0x0 DUP5 PUSH1 0x0 ADD MLOAD PUSH1 0xF SIGNEXTEND SLT ISZERO PUSH2 0x1EFA JUMPI PUSH1 0x0 DUP5 MSTORE JUMPDEST PUSH1 0x0 DUP6 DUP2 MSTORE PUSH1 0x4 PUSH1 0x20 SWAP1 DUP2 MSTORE PUSH1 0x40 SWAP2 DUP3 SWAP1 KECCAK256 DUP7 MLOAD SWAP2 DUP8 ADD MLOAD PUSH1 0x1 PUSH1 0x1 PUSH1 0x80 SHL SUB SWAP1 DUP2 AND PUSH1 0x1 PUSH1 0x80 SHL MUL SWAP3 AND SWAP2 SWAP1 SWAP2 OR DUP2 SSTORE SWAP1 DUP6 ADD MLOAD PUSH1 0x1 DUP3 ADD SSTORE PUSH1 0x60 DUP6 ADD MLOAD PUSH1 0x2 SWAP1 SWAP2 ADD SSTORE DUP12 ISZERO PUSH2 0x20BD JUMPI TIMESTAMP DUP12 PUSH1 0x20 ADD MLOAD GT ISZERO PUSH2 0x1FB2 JUMPI PUSH1 0x20 DUP10 ADD MLOAD PUSH2 0x1F60 SWAP1 DUP9 PUSH2 0x361A JUMP JUMPDEST SWAP7 POP DUP11 PUSH1 0x20 ADD MLOAD DUP11 PUSH1 0x20 ADD MLOAD EQ ISZERO PUSH2 0x1F84 JUMPI PUSH1 0x20 DUP9 ADD MLOAD PUSH2 0x1F81 SWAP1 DUP9 PUSH2 0x35CA JUMP JUMPDEST SWAP7 POP JUMPDEST PUSH1 0x20 DUP12 DUP2 ADD MLOAD PUSH1 0x0 SWAP1 DUP2 MSTORE PUSH1 0x7 SWAP1 SWAP2 MSTORE PUSH1 0x40 SWAP1 KECCAK256 DUP1 SLOAD PUSH1 0x1 PUSH1 0x1 PUSH1 0x80 SHL SUB NOT AND PUSH1 0x1 PUSH1 0x1 PUSH1 0x80 SHL SUB DUP10 AND OR SWAP1 SSTORE JUMPDEST TIMESTAMP DUP11 PUSH1 0x20 ADD MLOAD GT ISZERO PUSH2 0x200D JUMPI DUP11 PUSH1 0x20 ADD MLOAD DUP11 PUSH1 0x20 ADD MLOAD GT ISZERO PUSH2 0x200D JUMPI PUSH1 0x20 DUP9 ADD MLOAD PUSH2 0x1FDD SWAP1 DUP8 PUSH2 0x35CA JUMP JUMPDEST PUSH1 0x20 DUP12 DUP2 ADD MLOAD PUSH1 0x0 SWAP1 DUP2 MSTORE PUSH1 0x7 SWAP1 SWAP2 MSTORE PUSH1 0x40 SWAP1 KECCAK256 DUP1 SLOAD PUSH1 0x1 PUSH1 0x1 PUSH1 0x80 SHL SUB NOT AND PUSH1 0x1 PUSH1 0x1 PUSH1 0x80 SHL SUB DUP4 AND OR SWAP1 SSTORE SWAP6 POP JUMPDEST PUSH1 0x0 DUP13 DUP2 MSTORE PUSH1 0x6 PUSH1 0x20 MSTORE PUSH1 0x40 DUP2 KECCAK256 SLOAD PUSH2 0x2027 SWAP1 PUSH1 0x1 PUSH2 0x3402 JUMP JUMPDEST SWAP1 POP DUP1 PUSH1 0x6 PUSH1 0x0 DUP16 DUP2 MSTORE PUSH1 0x20 ADD SWAP1 DUP2 MSTORE PUSH1 0x20 ADD PUSH1 0x0 KECCAK256 DUP2 SWAP1 SSTORE POP TIMESTAMP DUP10 PUSH1 0x40 ADD DUP2 DUP2 MSTORE POP POP NUMBER DUP10 PUSH1 0x60 ADD DUP2 DUP2 MSTORE POP POP DUP9 PUSH1 0x5 PUSH1 0x0 DUP16 DUP2 MSTORE PUSH1 0x20 ADD SWAP1 DUP2 MSTORE PUSH1 0x20 ADD PUSH1 0x0 KECCAK256 DUP3 PUSH4 0x3B9ACA00 DUP2 LT PUSH2 0x207D JUMPI PUSH2 0x207D PUSH2 0x336A JUMP JUMPDEST DUP3 MLOAD PUSH1 0x20 DUP5 ADD MLOAD PUSH1 0x1 PUSH1 0x1 PUSH1 0x80 SHL SUB SWAP1 DUP2 AND PUSH1 0x1 PUSH1 0x80 SHL MUL SWAP2 AND OR PUSH1 0x3 SWAP2 SWAP1 SWAP2 MUL SWAP2 SWAP1 SWAP2 ADD SWAP1 DUP2 SSTORE PUSH1 0x40 DUP3 ADD MLOAD PUSH1 0x1 DUP3 ADD SSTORE PUSH1 0x60 SWAP1 SWAP2 ADD MLOAD PUSH1 0x2 SWAP1 SWAP2 ADD SSTORE POP JUMPDEST POP POP POP POP POP POP POP POP POP POP POP POP JUMP JUMPDEST PUSH2 0x20D5 CALLER DUP3 PUSH2 0x1A46 JUMP JUMPDEST PUSH2 0x2121 JUMPI PUSH1 0x40 MLOAD PUSH3 0x461BCD PUSH1 0xE5 SHL DUP2 MSTORE PUSH1 0x20 PUSH1 0x4 DUP3 ADD DUP2 SWAP1 MSTORE PUSH1 0x24 DUP3 ADD MSTORE PUSH32 0x63616C6C6572206973206E6F74206F776E6572206E6F7220617070726F766564 PUSH1 0x44 DUP3 ADD MSTORE PUSH1 0x64 ADD PUSH2 0xAAF JUMP JUMPDEST PUSH1 0x0 DUP2 DUP2 MSTORE PUSH1 0xD PUSH1 0x20 MSTORE PUSH1 0x40 DUP2 KECCAK256 SLOAD PUSH1 0x1 PUSH1 0x1 PUSH1 0xA0 SHL SUB AND SWAP1 PUSH2 0x2144 SWAP1 DUP4 PUSH2 0x8AF JUMP JUMPDEST PUSH2 0x214E CALLER DUP4 PUSH2 0x2BB4 JUMP JUMPDEST PUSH1 0x40 MLOAD DUP3 SWAP1 PUSH1 0x0 SWAP1 PUSH1 0x1 PUSH1 0x1 PUSH1 0xA0 SHL SUB DUP5 AND SWAP1 PUSH32 0xDDF252AD1BE2C89B69C2B068FC378DAA952BA7F163C4A11628F55A4DF523B3EF SWAP1 DUP4 SWAP1 LOG4 POP POP JUMP JUMPDEST PUSH1 0x0 DUP1 PUSH3 0x93A80 DUP1 PUSH2 0x219C DUP7 TIMESTAMP PUSH2 0x3402 JUMP JUMPDEST PUSH2 0x21A6 SWAP2 SWAP1 PUSH2 0x344F JUMP JUMPDEST PUSH2 0x21B0 SWAP2 SWAP1 PUSH2 0x341A JUMP JUMPDEST SWAP1 POP PUSH1 0x0 DUP6 GT PUSH2 0x21BF JUMPI PUSH1 0x0 DUP1 REVERT JUMPDEST TIMESTAMP DUP2 GT PUSH2 0x221D JUMPI PUSH1 0x40 MLOAD PUSH3 0x461BCD PUSH1 0xE5 SHL DUP2 MSTORE PUSH1 0x20 PUSH1 0x4 DUP3 ADD MSTORE PUSH1 0x26 PUSH1 0x24 DUP3 ADD MSTORE PUSH32 0x43616E206F6E6C79206C6F636B20756E74696C2074696D6520696E2074686520 PUSH1 0x44 DUP3 ADD MSTORE PUSH6 0x667574757265 PUSH1 0xD0 SHL PUSH1 0x64 DUP3 ADD MSTORE PUSH1 0x84 ADD PUSH2 0xAAF JUMP JUMPDEST PUSH2 0x222B PUSH4 0x784CE00 TIMESTAMP PUSH2 0x3402 JUMP JUMPDEST DUP2 GT ISZERO PUSH2 0x227A JUMPI PUSH1 0x40 MLOAD PUSH3 0x461BCD PUSH1 0xE5 SHL DUP2 MSTORE PUSH1 0x20 PUSH1 0x4 DUP3 ADD MSTORE PUSH1 0x1E PUSH1 0x24 DUP3 ADD MSTORE PUSH32 0x566F74696E67206C6F636B2063616E2062652034207965617273206D61780000 PUSH1 0x44 DUP3 ADD MSTORE PUSH1 0x64 ADD PUSH2 0xAAF JUMP JUMPDEST PUSH1 0xB PUSH1 0x0 DUP2 SLOAD PUSH2 0x2289 SWAP1 PUSH2 0x3669 JUMP JUMPDEST SWAP1 SWAP2 SSTORE POP PUSH1 0xB SLOAD PUSH2 0x229A DUP5 DUP3 PUSH2 0x2CCB JUMP JUMPDEST POP PUSH1 0x0 DUP2 DUP2 MSTORE PUSH1 0x1 PUSH1 0x20 DUP2 DUP2 MSTORE PUSH1 0x40 SWAP3 DUP4 SWAP1 KECCAK256 DUP4 MLOAD DUP1 DUP6 ADD SWAP1 SWAP5 MSTORE DUP1 SLOAD PUSH1 0xF SIGNEXTEND DUP5 MSTORE DUP3 ADD SLOAD SWAP1 DUP4 ADD MSTORE PUSH2 0x22D2 SWAP2 DUP4 SWAP2 DUP10 SWAP2 DUP7 SWAP2 PUSH2 0x273F JUMP JUMPDEST SWAP6 SWAP5 POP POP POP POP POP JUMP JUMPDEST PUSH1 0x0 DUP1 DUP4 SWAP1 POP PUSH1 0x0 PUSH3 0x93A80 DUP1 DUP4 PUSH1 0x40 ADD MLOAD PUSH2 0x22F7 SWAP2 SWAP1 PUSH2 0x344F JUMP JUMPDEST PUSH2 0x2301 SWAP2 SWAP1 PUSH2 0x341A JUMP JUMPDEST SWAP1 POP PUSH1 0x0 JUMPDEST PUSH1 0xFF DUP2 LT ISZERO PUSH2 0x23B5 JUMPI PUSH2 0x231C PUSH3 0x93A80 DUP4 PUSH2 0x3402 JUMP JUMPDEST SWAP2 POP PUSH1 0x0 DUP6 DUP4 GT ISZERO PUSH2 0x2330 JUMPI DUP6 SWAP3 POP PUSH2 0x2344 JUMP JUMPDEST POP PUSH1 0x0 DUP3 DUP2 MSTORE PUSH1 0x7 PUSH1 0x20 MSTORE PUSH1 0x40 SWAP1 KECCAK256 SLOAD PUSH1 0xF SIGNEXTEND JUMPDEST PUSH1 0x40 DUP5 ADD MLOAD PUSH2 0x2353 SWAP1 DUP5 PUSH2 0x33CE JUMP JUMPDEST DUP5 PUSH1 0x20 ADD MLOAD PUSH2 0x2362 SWAP2 SWAP1 PUSH2 0x3535 JUMP JUMPDEST DUP5 MLOAD DUP6 SWAP1 PUSH2 0x2371 SWAP1 DUP4 SWAP1 PUSH2 0x35CA JUMP JUMPDEST PUSH1 0xF SIGNEXTEND SWAP1 MSTORE POP DUP3 DUP7 EQ ISZERO PUSH2 0x2385 JUMPI POP PUSH2 0x23B5 JUMP JUMPDEST DUP1 DUP5 PUSH1 0x20 ADD DUP2 DUP2 MLOAD PUSH2 0x2397 SWAP2 SWAP1 PUSH2 0x361A JUMP JUMPDEST PUSH1 0xF SIGNEXTEND SWAP1 MSTORE POP POP PUSH1 0x40 DUP4 ADD DUP3 SWAP1 MSTORE PUSH2 0x23AE DUP2 PUSH2 0x3669 JUMP JUMPDEST SWAP1 POP PUSH2 0x2306 JUMP JUMPDEST POP PUSH1 0x0 DUP3 PUSH1 0x0 ADD MLOAD PUSH1 0xF SIGNEXTEND SLT ISZERO PUSH2 0x23CB JUMPI PUSH1 0x0 DUP3 MSTORE JUMPDEST POP MLOAD PUSH1 0x1 PUSH1 0x1 PUSH1 0x80 SHL SUB AND SWAP4 SWAP3 POP POP POP JUMP JUMPDEST PUSH1 0x0 NUMBER DUP3 GT ISZERO PUSH2 0x23EF JUMPI PUSH2 0x23EF PUSH2 0x3380 JUMP JUMPDEST PUSH1 0x0 DUP4 DUP2 MSTORE PUSH1 0x6 PUSH1 0x20 MSTORE PUSH1 0x40 DUP2 KECCAK256 SLOAD DUP2 JUMPDEST PUSH1 0x80 DUP2 LT ISZERO PUSH2 0x2493 JUMPI DUP2 DUP4 LT PUSH2 0x2415 JUMPI PUSH2 0x2493 JUMP JUMPDEST PUSH1 0x0 PUSH1 0x2 PUSH2 0x2423 DUP5 DUP7 PUSH2 0x3402 JUMP JUMPDEST PUSH2 0x242E SWAP1 PUSH1 0x1 PUSH2 0x3402 JUMP JUMPDEST PUSH2 0x2438 SWAP2 SWAP1 PUSH2 0x344F JUMP JUMPDEST PUSH1 0x0 DUP9 DUP2 MSTORE PUSH1 0x5 PUSH1 0x20 MSTORE PUSH1 0x40 SWAP1 KECCAK256 SWAP1 SWAP2 POP DUP7 SWAP1 DUP3 PUSH4 0x3B9ACA00 DUP2 LT PUSH2 0x245F JUMPI PUSH2 0x245F PUSH2 0x336A JUMP JUMPDEST PUSH1 0x3 MUL ADD PUSH1 0x2 ADD SLOAD GT PUSH2 0x2474 JUMPI DUP1 SWAP4 POP PUSH2 0x2482 JUMP JUMPDEST PUSH2 0x247F PUSH1 0x1 DUP3 PUSH2 0x33CE JUMP JUMPDEST SWAP3 POP JUMPDEST POP PUSH2 0x248C DUP2 PUSH2 0x3669 JUMP JUMPDEST SWAP1 POP PUSH2 0x2400 JUMP JUMPDEST POP PUSH1 0x0 DUP6 DUP2 MSTORE PUSH1 0x5 PUSH1 0x20 MSTORE PUSH1 0x40 DUP2 KECCAK256 DUP4 PUSH4 0x3B9ACA00 DUP2 LT PUSH2 0x24B6 JUMPI PUSH2 0x24B6 PUSH2 0x336A JUMP JUMPDEST PUSH1 0x40 DUP1 MLOAD PUSH1 0x80 DUP2 ADD DUP3 MSTORE PUSH1 0x3 SWAP3 DUP4 MUL SWAP4 SWAP1 SWAP4 ADD DUP1 SLOAD PUSH1 0xF DUP2 DUP2 SIGNEXTEND DUP7 MSTORE PUSH1 0x1 PUSH1 0x80 SHL SWAP1 SWAP2 DIV SWAP1 SIGNEXTEND PUSH1 0x20 DUP6 ADD MSTORE PUSH1 0x1 DUP2 ADD SLOAD SWAP2 DUP5 ADD SWAP2 SWAP1 SWAP2 MSTORE PUSH1 0x2 ADD SLOAD PUSH1 0x60 DUP4 ADD MSTORE SLOAD SWAP1 SWAP2 POP PUSH1 0x0 PUSH2 0x2506 DUP8 DUP4 PUSH2 0x26B5 JUMP JUMPDEST PUSH1 0x0 DUP2 DUP2 MSTORE PUSH1 0x4 PUSH1 0x20 SWAP1 DUP2 MSTORE PUSH1 0x40 DUP1 DUP4 KECCAK256 DUP2 MLOAD PUSH1 0x80 DUP2 ADD DUP4 MSTORE DUP2 SLOAD PUSH1 0xF DUP2 DUP2 SIGNEXTEND DUP4 MSTORE PUSH1 0x1 PUSH1 0x80 SHL SWAP1 SWAP2 DIV SWAP1 SIGNEXTEND SWAP4 DUP2 ADD SWAP4 SWAP1 SWAP4 MSTORE PUSH1 0x1 DUP2 ADD SLOAD SWAP2 DUP4 ADD SWAP2 SWAP1 SWAP2 MSTORE PUSH1 0x2 ADD SLOAD PUSH1 0x60 DUP3 ADD MSTORE SWAP2 SWAP3 POP DUP1 DUP5 DUP5 LT ISZERO PUSH2 0x25E5 JUMPI PUSH1 0x0 PUSH1 0x4 DUP2 PUSH2 0x256A DUP8 PUSH1 0x1 PUSH2 0x3402 JUMP JUMPDEST DUP2 MSTORE PUSH1 0x20 DUP1 DUP3 ADD SWAP3 SWAP1 SWAP3 MSTORE PUSH1 0x40 SWAP1 DUP2 ADD PUSH1 0x0 KECCAK256 DUP2 MLOAD PUSH1 0x80 DUP2 ADD DUP4 MSTORE DUP2 SLOAD PUSH1 0xF DUP2 DUP2 SIGNEXTEND DUP4 MSTORE PUSH1 0x1 PUSH1 0x80 SHL SWAP1 SWAP2 DIV SWAP1 SIGNEXTEND SWAP4 DUP2 ADD SWAP4 SWAP1 SWAP4 MSTORE PUSH1 0x1 DUP2 ADD SLOAD SWAP2 DUP4 ADD SWAP2 SWAP1 SWAP2 MSTORE PUSH1 0x2 ADD SLOAD PUSH1 0x60 DUP1 DUP4 ADD DUP3 SWAP1 MSTORE DUP7 ADD MLOAD SWAP2 SWAP3 POP PUSH2 0x25C7 SWAP2 SWAP1 PUSH2 0x33CE JUMP JUMPDEST SWAP3 POP DUP4 PUSH1 0x40 ADD MLOAD DUP2 PUSH1 0x40 ADD MLOAD PUSH2 0x25DD SWAP2 SWAP1 PUSH2 0x33CE JUMP JUMPDEST SWAP2 POP POP PUSH2 0x2609 JUMP JUMPDEST PUSH1 0x60 DUP4 ADD MLOAD PUSH2 0x25F4 SWAP1 NUMBER PUSH2 0x33CE JUMP JUMPDEST SWAP2 POP DUP3 PUSH1 0x40 ADD MLOAD TIMESTAMP PUSH2 0x2606 SWAP2 SWAP1 PUSH2 0x33CE JUMP JUMPDEST SWAP1 POP JUMPDEST PUSH1 0x40 DUP4 ADD MLOAD DUP3 ISZERO PUSH2 0x2646 JUMPI DUP3 DUP5 PUSH1 0x60 ADD MLOAD DUP13 PUSH2 0x2625 SWAP2 SWAP1 PUSH2 0x33CE JUMP JUMPDEST PUSH2 0x262F SWAP1 DUP5 PUSH2 0x341A JUMP JUMPDEST PUSH2 0x2639 SWAP2 SWAP1 PUSH2 0x344F JUMP JUMPDEST PUSH2 0x2643 SWAP1 DUP3 PUSH2 0x3402 JUMP JUMPDEST SWAP1 POP JUMPDEST PUSH1 0x40 DUP8 ADD MLOAD PUSH2 0x2655 SWAP1 DUP3 PUSH2 0x33CE JUMP JUMPDEST DUP8 PUSH1 0x20 ADD MLOAD PUSH2 0x2664 SWAP2 SWAP1 PUSH2 0x3535 JUMP JUMPDEST DUP8 MLOAD DUP9 SWAP1 PUSH2 0x2673 SWAP1 DUP4 SWAP1 PUSH2 0x35CA JUMP JUMPDEST PUSH1 0xF SWAP1 DUP2 SIGNEXTEND SWAP1 SWAP2 MSTORE DUP9 MLOAD PUSH1 0x0 SWAP2 SIGNEXTEND SLT SWAP1 POP PUSH2 0x26A3 JUMPI POP POP SWAP4 MLOAD PUSH1 0x1 PUSH1 0x1 PUSH1 0x80 SHL SUB AND SWAP7 POP PUSH2 0xA1C SWAP6 POP POP POP POP POP POP JUMP JUMPDEST PUSH1 0x0 SWAP10 POP POP POP POP POP POP POP POP POP POP PUSH2 0xA1C JUMP JUMPDEST PUSH1 0x0 DUP1 DUP3 DUP2 JUMPDEST PUSH1 0x80 DUP2 LT ISZERO PUSH2 0x2735 JUMPI DUP2 DUP4 LT PUSH2 0x26D0 JUMPI PUSH2 0x2735 JUMP JUMPDEST PUSH1 0x0 PUSH1 0x2 PUSH2 0x26DE DUP5 DUP7 PUSH2 0x3402 JUMP JUMPDEST PUSH2 0x26E9 SWAP1 PUSH1 0x1 PUSH2 0x3402 JUMP JUMPDEST PUSH2 0x26F3 SWAP2 SWAP1 PUSH2 0x344F JUMP JUMPDEST PUSH1 0x0 DUP2 DUP2 MSTORE PUSH1 0x4 PUSH1 0x20 MSTORE PUSH1 0x40 SWAP1 KECCAK256 PUSH1 0x2 ADD SLOAD SWAP1 SWAP2 POP DUP8 LT PUSH2 0x2716 JUMPI DUP1 SWAP4 POP PUSH2 0x2724 JUMP JUMPDEST PUSH2 0x2721 PUSH1 0x1 DUP3 PUSH2 0x33CE JUMP JUMPDEST SWAP3 POP JUMPDEST POP PUSH2 0x272E DUP2 PUSH2 0x3669 JUMP JUMPDEST SWAP1 POP PUSH2 0x26BB JUMP JUMPDEST POP SWAP1 SWAP5 SWAP4 POP POP POP POP JUMP JUMPDEST PUSH1 0x0 SLOAD DUP3 SWAP1 PUSH2 0x274E DUP7 DUP3 PUSH2 0x3402 JUMP JUMPDEST PUSH1 0x0 SWAP1 DUP2 SSTORE PUSH1 0x40 DUP1 MLOAD DUP1 DUP3 ADD SWAP1 SWAP2 MSTORE DUP2 DUP2 MSTORE PUSH1 0x20 DUP2 ADD SWAP2 SWAP1 SWAP2 MSTORE DUP3 MLOAD PUSH1 0x20 DUP1 DUP6 ADD MLOAD SWAP1 DUP4 ADD MSTORE PUSH1 0xF SIGNEXTEND DUP2 MSTORE DUP3 MLOAD DUP8 SWAP1 DUP5 SWAP1 PUSH2 0x278A SWAP1 DUP4 SWAP1 PUSH2 0x361A JUMP JUMPDEST PUSH1 0xF SIGNEXTEND SWAP1 MSTORE POP DUP6 ISZERO PUSH2 0x279E JUMPI PUSH1 0x20 DUP4 ADD DUP7 SWAP1 MSTORE JUMPDEST PUSH1 0x0 DUP9 DUP2 MSTORE PUSH1 0x1 PUSH1 0x20 DUP2 DUP2 MSTORE PUSH1 0x40 SWAP1 SWAP3 KECCAK256 DUP6 MLOAD DUP2 SLOAD PUSH1 0x1 PUSH1 0x1 PUSH1 0x80 SHL SUB NOT AND PUSH1 0x1 PUSH1 0x1 PUSH1 0x80 SHL SUB SWAP1 SWAP2 AND OR DUP2 SSTORE SWAP2 DUP6 ADD MLOAD SWAP2 ADD SSTORE PUSH2 0x27DD DUP9 DUP3 DUP6 PUSH2 0x1AAC JUMP JUMPDEST CALLER DUP8 ISZERO DUP1 ISZERO SWAP1 PUSH2 0x27FF JUMPI POP PUSH1 0x4 DUP6 PUSH1 0x4 DUP2 GT ISZERO PUSH2 0x27FC JUMPI PUSH2 0x27FC PUSH2 0x3684 JUMP JUMPDEST EQ ISZERO JUMPDEST ISZERO PUSH2 0x28A9 JUMPI PUSH1 0x40 MLOAD PUSH4 0x23B872DD PUSH1 0xE0 SHL DUP2 MSTORE PUSH1 0x1 PUSH1 0x1 PUSH1 0xA0 SHL SUB DUP3 DUP2 AND PUSH1 0x4 DUP4 ADD MSTORE ADDRESS PUSH1 0x24 DUP4 ADD MSTORE PUSH1 0x44 DUP3 ADD DUP11 SWAP1 MSTORE PUSH32 0x0 AND SWAP1 PUSH4 0x23B872DD SWAP1 PUSH1 0x64 ADD PUSH1 0x20 PUSH1 0x40 MLOAD DUP1 DUP4 SUB DUP2 PUSH1 0x0 DUP8 GAS CALL ISZERO DUP1 ISZERO PUSH2 0x2879 JUMPI RETURNDATASIZE PUSH1 0x0 DUP1 RETURNDATACOPY RETURNDATASIZE PUSH1 0x0 REVERT JUMPDEST POP POP POP POP PUSH1 0x40 MLOAD RETURNDATASIZE PUSH1 0x1F NOT PUSH1 0x1F DUP3 ADD AND DUP3 ADD DUP1 PUSH1 0x40 MSTORE POP DUP2 ADD SWAP1 PUSH2 0x289D SWAP2 SWAP1 PUSH2 0x33E5 JUMP JUMPDEST PUSH2 0x28A9 JUMPI PUSH2 0x28A9 PUSH2 0x3380 JUMP JUMPDEST DUP4 PUSH1 0x20 ADD MLOAD DUP2 PUSH1 0x1 PUSH1 0x1 PUSH1 0xA0 SHL SUB AND PUSH32 0xFF04CCAFC360E16B67D682D17BD9503C4C6B9A131F6BE6325762DC9FFC7DE624 DUP12 DUP12 DUP10 TIMESTAMP PUSH1 0x40 MLOAD PUSH2 0x28ED SWAP5 SWAP4 SWAP3 SWAP2 SWAP1 PUSH2 0x369A JUMP JUMPDEST PUSH1 0x40 MLOAD DUP1 SWAP2 SUB SWAP1 LOG3 PUSH32 0x5E2AA66EFD74CCE82B21852E317E5490D9ECC9E6BB953AE24D90851258CC2F5C DUP4 PUSH2 0x2921 DUP11 DUP3 PUSH2 0x3402 JUMP JUMPDEST PUSH1 0x40 DUP1 MLOAD SWAP3 DUP4 MSTORE PUSH1 0x20 DUP4 ADD SWAP2 SWAP1 SWAP2 MSTORE ADD PUSH1 0x40 MLOAD DUP1 SWAP2 SUB SWAP1 LOG1 POP POP POP POP POP POP POP POP POP JUMP JUMPDEST PUSH1 0x0 DUP3 DUP2 MSTORE PUSH1 0x6 PUSH1 0x20 MSTORE PUSH1 0x40 DUP2 KECCAK256 SLOAD DUP1 PUSH2 0x2962 JUMPI PUSH1 0x0 SWAP2 POP POP PUSH2 0xA1C JUMP JUMPDEST PUSH1 0x0 DUP5 DUP2 MSTORE PUSH1 0x5 PUSH1 0x20 MSTORE PUSH1 0x40 DUP2 KECCAK256 DUP3 PUSH4 0x3B9ACA00 DUP2 LT PUSH2 0x2984 JUMPI PUSH2 0x2984 PUSH2 0x336A JUMP JUMPDEST PUSH1 0x40 DUP1 MLOAD PUSH1 0x80 DUP2 ADD DUP3 MSTORE PUSH1 0x3 SWAP3 SWAP1 SWAP3 MUL SWAP3 SWAP1 SWAP3 ADD DUP1 SLOAD PUSH1 0xF DUP2 DUP2 SIGNEXTEND DUP5 MSTORE PUSH1 0x1 PUSH1 0x80 SHL SWAP1 SWAP2 DIV SWAP1 SIGNEXTEND PUSH1 0x20 DUP4 ADD MSTORE PUSH1 0x1 DUP2 ADD SLOAD SWAP3 DUP3 ADD DUP4 SWAP1 MSTORE PUSH1 0x2 ADD SLOAD PUSH1 0x60 DUP3 ADD MSTORE SWAP2 POP PUSH2 0x29D0 SWAP1 DUP6 PUSH2 0x36D8 JUMP JUMPDEST DUP2 PUSH1 0x20 ADD MLOAD PUSH2 0x29DF SWAP2 SWAP1 PUSH2 0x3535 JUMP JUMPDEST DUP2 MLOAD DUP3 SWAP1 PUSH2 0x29EE SWAP1 DUP4 SWAP1 PUSH2 0x35CA JUMP JUMPDEST PUSH1 0xF SWAP1 DUP2 SIGNEXTEND SWAP1 SWAP2 MSTORE DUP3 MLOAD PUSH1 0x0 SWAP2 SIGNEXTEND SLT ISZERO SWAP1 POP PUSH2 0x2A09 JUMPI PUSH1 0x0 DUP2 MSTORE JUMPDEST MLOAD PUSH1 0xF SIGNEXTEND SWAP2 POP PUSH2 0xA1C SWAP1 POP JUMP JUMPDEST PUSH1 0x60 PUSH1 0x40 MLOAD DUP1 PUSH2 0x120 ADD PUSH1 0x40 MSTORE DUP1 PUSH1 0xFD DUP2 MSTORE PUSH1 0x20 ADD PUSH2 0x3A5E PUSH1 0xFD SWAP2 CODECOPY SWAP1 POP DUP1 PUSH2 0x2A3E DUP7 PUSH2 0x2D2E JUMP JUMPDEST PUSH1 0x40 MLOAD PUSH1 0x20 ADD PUSH2 0x2A4F SWAP3 SWAP2 SWAP1 PUSH2 0x3717 JUMP JUMPDEST PUSH1 0x40 MLOAD PUSH1 0x20 DUP2 DUP4 SUB SUB DUP2 MSTORE SWAP1 PUSH1 0x40 MSTORE SWAP1 POP DUP1 PUSH2 0x2A6A DUP6 PUSH2 0x2D2E JUMP JUMPDEST PUSH1 0x40 MLOAD PUSH1 0x20 ADD PUSH2 0x2A7B SWAP3 SWAP2 SWAP1 PUSH2 0x3793 JUMP JUMPDEST PUSH1 0x40 MLOAD PUSH1 0x20 DUP2 DUP4 SUB SUB DUP2 MSTORE SWAP1 PUSH1 0x40 MSTORE SWAP1 POP DUP1 PUSH2 0x2A96 DUP5 PUSH2 0x2D2E JUMP JUMPDEST PUSH1 0x40 MLOAD PUSH1 0x20 ADD PUSH2 0x2AA7 SWAP3 SWAP2 SWAP1 PUSH2 0x3813 JUMP JUMPDEST PUSH1 0x40 MLOAD PUSH1 0x20 DUP2 DUP4 SUB SUB DUP2 MSTORE SWAP1 PUSH1 0x40 MSTORE SWAP1 POP DUP1 PUSH2 0x2AC2 DUP4 PUSH2 0x2D2E JUMP JUMPDEST PUSH1 0x40 MLOAD PUSH1 0x20 ADD PUSH2 0x2AD3 SWAP3 SWAP2 SWAP1 PUSH2 0x3894 JUMP JUMPDEST PUSH1 0x40 MLOAD PUSH1 0x20 DUP2 DUP4 SUB SUB DUP2 MSTORE SWAP1 PUSH1 0x40 MSTORE SWAP1 POP PUSH1 0x0 PUSH2 0x2B20 PUSH2 0x2AF2 DUP8 PUSH2 0x2D2E JUMP JUMPDEST PUSH2 0x2AFB DUP5 PUSH2 0x2E2C JUMP JUMPDEST PUSH1 0x40 MLOAD PUSH1 0x20 ADD PUSH2 0x2B0C SWAP3 SWAP2 SWAP1 PUSH2 0x38EF JUMP JUMPDEST PUSH1 0x40 MLOAD PUSH1 0x20 DUP2 DUP4 SUB SUB DUP2 MSTORE SWAP1 PUSH1 0x40 MSTORE PUSH2 0x2E2C JUMP JUMPDEST SWAP1 POP DUP1 PUSH1 0x40 MLOAD PUSH1 0x20 ADD PUSH2 0x2B33 SWAP2 SWAP1 PUSH2 0x3A04 JUMP JUMPDEST PUSH1 0x40 MLOAD PUSH1 0x20 DUP2 DUP4 SUB SUB DUP2 MSTORE SWAP1 PUSH1 0x40 MSTORE SWAP2 POP POP SWAP5 SWAP4 POP POP POP POP JUMP JUMPDEST PUSH1 0x0 DUP2 DUP2 MSTORE PUSH1 0xD PUSH1 0x20 MSTORE PUSH1 0x40 SWAP1 KECCAK256 SLOAD PUSH1 0x1 PUSH1 0x1 PUSH1 0xA0 SHL SUB DUP4 DUP2 AND SWAP2 AND EQ PUSH2 0x2B76 JUMPI PUSH2 0x2B76 PUSH2 0x3380 JUMP JUMPDEST PUSH1 0x0 DUP2 DUP2 MSTORE PUSH1 0xE PUSH1 0x20 MSTORE PUSH1 0x40 SWAP1 KECCAK256 SLOAD PUSH1 0x1 PUSH1 0x1 PUSH1 0xA0 SHL SUB AND ISZERO PUSH2 0x2BB0 JUMPI PUSH1 0x0 DUP2 DUP2 MSTORE PUSH1 0xE PUSH1 0x20 MSTORE PUSH1 0x40 SWAP1 KECCAK256 DUP1 SLOAD PUSH1 0x1 PUSH1 0x1 PUSH1 0xA0 SHL SUB NOT AND SWAP1 SSTORE JUMPDEST POP POP JUMP JUMPDEST PUSH1 0x0 DUP2 DUP2 MSTORE PUSH1 0xD PUSH1 0x20 MSTORE PUSH1 0x40 SWAP1 KECCAK256 SLOAD PUSH1 0x1 PUSH1 0x1 PUSH1 0xA0 SHL SUB DUP4 DUP2 AND SWAP2 AND EQ PUSH2 0x2BDD JUMPI PUSH2 0x2BDD PUSH2 0x3380 JUMP JUMPDEST PUSH1 0x0 DUP2 DUP2 MSTORE PUSH1 0xD PUSH1 0x20 MSTORE PUSH1 0x40 SWAP1 KECCAK256 DUP1 SLOAD PUSH1 0x1 PUSH1 0x1 PUSH1 0xA0 SHL SUB NOT AND SWAP1 SSTORE PUSH2 0x2C03 DUP3 DUP3 PUSH2 0x2F92 JUMP JUMPDEST PUSH1 0x1 PUSH1 0x1 PUSH1 0xA0 SHL SUB DUP3 AND PUSH1 0x0 SWAP1 DUP2 MSTORE PUSH1 0xF PUSH1 0x20 MSTORE PUSH1 0x40 DUP2 KECCAK256 DUP1 SLOAD PUSH1 0x1 SWAP3 SWAP1 PUSH2 0x2C2C SWAP1 DUP5 SWAP1 PUSH2 0x33CE JUMP JUMPDEST SWAP1 SWAP2 SSTORE POP POP POP POP JUMP JUMPDEST PUSH1 0x0 DUP2 DUP2 MSTORE PUSH1 0xD PUSH1 0x20 MSTORE PUSH1 0x40 SWAP1 KECCAK256 SLOAD PUSH1 0x1 PUSH1 0x1 PUSH1 0xA0 SHL SUB AND ISZERO PUSH2 0x2C5A JUMPI PUSH2 0x2C5A PUSH2 0x3380 JUMP JUMPDEST PUSH1 0x0 DUP2 DUP2 MSTORE PUSH1 0xD PUSH1 0x20 SWAP1 DUP2 MSTORE PUSH1 0x40 DUP1 DUP4 KECCAK256 DUP1 SLOAD PUSH1 0x1 PUSH1 0x1 PUSH1 0xA0 SHL SUB NOT AND PUSH1 0x1 PUSH1 0x1 PUSH1 0xA0 SHL SUB DUP8 AND SWAP1 DUP2 OR SWAP1 SWAP2 SSTORE DUP1 DUP5 MSTORE PUSH1 0xF DUP1 DUP5 MSTORE DUP3 DUP6 KECCAK256 DUP1 SLOAD PUSH1 0x10 DUP7 MSTORE DUP5 DUP8 KECCAK256 DUP2 DUP9 MSTORE DUP7 MSTORE DUP5 DUP8 KECCAK256 DUP9 SWAP1 SSTORE DUP8 DUP8 MSTORE PUSH1 0x11 DUP7 MSTORE SWAP4 DUP7 KECCAK256 SWAP4 SWAP1 SWAP4 SSTORE SWAP1 DUP5 MSTORE SWAP1 SWAP2 MSTORE DUP1 SLOAD PUSH1 0x1 SWAP3 SWAP1 PUSH2 0x2C2C SWAP1 DUP5 SWAP1 PUSH2 0x3402 JUMP JUMPDEST PUSH1 0x0 PUSH1 0x1 PUSH1 0x1 PUSH1 0xA0 SHL SUB DUP4 AND PUSH2 0x2CE3 JUMPI PUSH2 0x2CE3 PUSH2 0x3380 JUMP JUMPDEST PUSH2 0x2CED DUP4 DUP4 PUSH2 0x2C35 JUMP JUMPDEST PUSH1 0x40 MLOAD DUP3 SWAP1 PUSH1 0x1 PUSH1 0x1 PUSH1 0xA0 SHL SUB DUP6 AND SWAP1 PUSH1 0x0 SWAP1 PUSH32 0xDDF252AD1BE2C89B69C2B068FC378DAA952BA7F163C4A11628F55A4DF523B3EF SWAP1 DUP3 SWAP1 LOG4 POP PUSH1 0x1 SWAP3 SWAP2 POP POP JUMP JUMPDEST PUSH1 0x60 DUP2 PUSH2 0x2D52 JUMPI POP POP PUSH1 0x40 DUP1 MLOAD DUP1 DUP3 ADD SWAP1 SWAP2 MSTORE PUSH1 0x1 DUP2 MSTORE PUSH1 0x3 PUSH1 0xFC SHL PUSH1 0x20 DUP3 ADD MSTORE SWAP1 JUMP JUMPDEST DUP2 PUSH1 0x0 JUMPDEST DUP2 ISZERO PUSH2 0x2D7C JUMPI DUP1 PUSH2 0x2D66 DUP2 PUSH2 0x3669 JUMP JUMPDEST SWAP2 POP PUSH2 0x2D75 SWAP1 POP PUSH1 0xA DUP4 PUSH2 0x344F JUMP JUMPDEST SWAP2 POP PUSH2 0x2D56 JUMP JUMPDEST PUSH1 0x0 DUP2 PUSH8 0xFFFFFFFFFFFFFFFF DUP2 GT ISZERO PUSH2 0x2D97 JUMPI PUSH2 0x2D97 PUSH2 0x3210 JUMP JUMPDEST PUSH1 0x40 MLOAD SWAP1 DUP1 DUP3 MSTORE DUP1 PUSH1 0x1F ADD PUSH1 0x1F NOT AND PUSH1 0x20 ADD DUP3 ADD PUSH1 0x40 MSTORE DUP1 ISZERO PUSH2 0x2DC1 JUMPI PUSH1 0x20 DUP3 ADD DUP2 DUP1 CALLDATASIZE DUP4 CALLDATACOPY ADD SWAP1 POP JUMPDEST POP SWAP1 POP JUMPDEST DUP5 ISZERO PUSH2 0xE4F JUMPI PUSH2 0x2DD6 PUSH1 0x1 DUP4 PUSH2 0x33CE JUMP JUMPDEST SWAP2 POP PUSH2 0x2DE3 PUSH1 0xA DUP7 PUSH2 0x3A49 JUMP JUMPDEST PUSH2 0x2DEE SWAP1 PUSH1 0x30 PUSH2 0x3402 JUMP JUMPDEST PUSH1 0xF8 SHL DUP2 DUP4 DUP2 MLOAD DUP2 LT PUSH2 0x2E03 JUMPI PUSH2 0x2E03 PUSH2 0x336A JUMP JUMPDEST PUSH1 0x20 ADD ADD SWAP1 PUSH1 0x1 PUSH1 0x1 PUSH1 0xF8 SHL SUB NOT AND SWAP1 DUP2 PUSH1 0x0 BYTE SWAP1 MSTORE8 POP PUSH2 0x2E25 PUSH1 0xA DUP7 PUSH2 0x344F JUMP JUMPDEST SWAP5 POP PUSH2 0x2DC5 JUMP JUMPDEST DUP1 MLOAD PUSH1 0x60 SWAP1 DUP1 PUSH2 0x2E4C JUMPI POP POP PUSH1 0x40 DUP1 MLOAD PUSH1 0x20 DUP2 ADD SWAP1 SWAP2 MSTORE PUSH1 0x0 DUP2 MSTORE SWAP2 SWAP1 POP JUMP JUMPDEST PUSH1 0x0 PUSH1 0x3 PUSH2 0x2E5B DUP4 PUSH1 0x2 PUSH2 0x3402 JUMP JUMPDEST PUSH2 0x2E65 SWAP2 SWAP1 PUSH2 0x344F JUMP JUMPDEST PUSH2 0x2E70 SWAP1 PUSH1 0x4 PUSH2 0x341A JUMP JUMPDEST SWAP1 POP PUSH1 0x0 PUSH2 0x2E7F DUP3 PUSH1 0x20 PUSH2 0x3402 JUMP JUMPDEST PUSH8 0xFFFFFFFFFFFFFFFF DUP2 GT ISZERO PUSH2 0x2E97 JUMPI PUSH2 0x2E97 PUSH2 0x3210 JUMP JUMPDEST PUSH1 0x40 MLOAD SWAP1 DUP1 DUP3 MSTORE DUP1 PUSH1 0x1F ADD PUSH1 0x1F NOT AND PUSH1 0x20 ADD DUP3 ADD PUSH1 0x40 MSTORE DUP1 ISZERO PUSH2 0x2EC1 JUMPI PUSH1 0x20 DUP3 ADD DUP2 DUP1 CALLDATASIZE DUP4 CALLDATACOPY ADD SWAP1 POP JUMPDEST POP SWAP1 POP PUSH1 0x0 PUSH1 0x40 MLOAD DUP1 PUSH1 0x60 ADD PUSH1 0x40 MSTORE DUP1 PUSH1 0x40 DUP2 MSTORE PUSH1 0x20 ADD PUSH2 0x3B5B PUSH1 0x40 SWAP2 CODECOPY SWAP1 POP PUSH1 0x1 DUP2 ADD PUSH1 0x20 DUP4 ADD PUSH1 0x0 JUMPDEST DUP7 DUP2 LT ISZERO PUSH2 0x2F4D JUMPI PUSH1 0x3 DUP2 DUP11 ADD DUP2 ADD MLOAD PUSH1 0x3F PUSH1 0x12 DUP3 SWAP1 SHR DUP2 AND DUP7 ADD MLOAD PUSH1 0xC DUP4 SWAP1 SHR DUP3 AND DUP8 ADD MLOAD PUSH1 0x6 DUP5 SWAP1 SHR DUP4 AND DUP9 ADD MLOAD SWAP3 SWAP1 SWAP4 AND DUP8 ADD MLOAD PUSH1 0x8 SWAP2 DUP3 SHL PUSH1 0xFF SWAP5 DUP6 AND ADD DUP3 SHL SWAP3 DUP5 AND SWAP3 SWAP1 SWAP3 ADD SWAP1 SHL SWAP2 AND ADD PUSH1 0xE0 SHL DUP4 MSTORE PUSH1 0x4 SWAP1 SWAP3 ADD SWAP2 ADD PUSH2 0x2EEC JUMP JUMPDEST POP PUSH1 0x3 DUP7 MOD PUSH1 0x1 DUP2 EQ PUSH2 0x2F67 JUMPI PUSH1 0x2 DUP2 EQ PUSH2 0x2F78 JUMPI PUSH2 0x2F84 JUMP JUMPDEST PUSH2 0x3D3D PUSH1 0xF0 SHL PUSH1 0x1 NOT DUP4 ADD MSTORE PUSH2 0x2F84 JUMP JUMPDEST PUSH1 0x3D PUSH1 0xF8 SHL PUSH1 0x0 NOT DUP4 ADD MSTORE JUMPDEST POP POP POP SWAP2 DUP2 MSTORE SWAP5 SWAP4 POP POP POP POP JUMP JUMPDEST PUSH1 0x1 PUSH1 0x1 PUSH1 0xA0 SHL SUB DUP3 AND PUSH1 0x0 SWAP1 DUP2 MSTORE PUSH1 0xF PUSH1 0x20 MSTORE PUSH1 0x40 DUP2 KECCAK256 SLOAD PUSH2 0x2FB7 SWAP1 PUSH1 0x1 SWAP1 PUSH2 0x33CE JUMP JUMPDEST PUSH1 0x0 DUP4 DUP2 MSTORE PUSH1 0x11 PUSH1 0x20 MSTORE PUSH1 0x40 SWAP1 KECCAK256 SLOAD SWAP1 SWAP2 POP DUP1 DUP3 EQ ISZERO PUSH2 0x3007 JUMPI PUSH1 0x1 PUSH1 0x1 PUSH1 0xA0 SHL SUB DUP5 AND PUSH1 0x0 SWAP1 DUP2 MSTORE PUSH1 0x10 PUSH1 0x20 SWAP1 DUP2 MSTORE PUSH1 0x40 DUP1 DUP4 KECCAK256 DUP6 DUP5 MSTORE DUP3 MSTORE DUP1 DUP4 KECCAK256 DUP4 SWAP1 SSTORE DUP6 DUP4 MSTORE PUSH1 0x11 SWAP1 SWAP2 MSTORE DUP2 KECCAK256 SSTORE PUSH2 0x14D6 JUMP JUMPDEST PUSH1 0x1 PUSH1 0x1 PUSH1 0xA0 SHL SUB SWAP4 SWAP1 SWAP4 AND PUSH1 0x0 SWAP1 DUP2 MSTORE PUSH1 0x10 PUSH1 0x20 SWAP1 DUP2 MSTORE PUSH1 0x40 DUP1 DUP4 KECCAK256 SWAP4 DUP4 MSTORE SWAP3 DUP2 MSTORE DUP3 DUP3 KECCAK256 DUP1 SLOAD DUP7 DUP5 MSTORE DUP5 DUP5 KECCAK256 DUP2 SWAP1 SSTORE DUP4 MSTORE PUSH1 0x11 SWAP1 SWAP2 MSTORE DUP3 DUP3 KECCAK256 SWAP5 SWAP1 SWAP5 SSTORE SWAP3 DUP4 SWAP1 SSTORE SWAP1 DUP3 MSTORE DUP2 KECCAK256 SSTORE JUMP JUMPDEST PUSH1 0x1 PUSH1 0x1 PUSH1 0xE0 SHL SUB NOT DUP2 AND DUP2 EQ PUSH2 0x3068 JUMPI PUSH1 0x0 DUP1 REVERT JUMPDEST POP JUMP JUMPDEST PUSH1 0x0 PUSH1 0x20 DUP3 DUP5 SUB SLT ISZERO PUSH2 0x307D JUMPI PUSH1 0x0 DUP1 REVERT JUMPDEST DUP2 CALLDATALOAD PUSH2 0xD14 DUP2 PUSH2 0x3052 JUMP JUMPDEST PUSH1 0x0 JUMPDEST DUP4 DUP2 LT ISZERO PUSH2 0x30A3 JUMPI DUP2 DUP2 ADD MLOAD DUP4 DUP3 ADD MSTORE PUSH1 0x20 ADD PUSH2 0x308B JUMP JUMPDEST DUP4 DUP2 GT ISZERO PUSH2 0x14D6 JUMPI POP POP PUSH1 0x0 SWAP2 ADD MSTORE JUMP JUMPDEST PUSH1 0x0 DUP2 MLOAD DUP1 DUP5 MSTORE PUSH2 0x30CC DUP2 PUSH1 0x20 DUP7 ADD PUSH1 0x20 DUP7 ADD PUSH2 0x3088 JUMP JUMPDEST PUSH1 0x1F ADD PUSH1 0x1F NOT AND SWAP3 SWAP1 SWAP3 ADD PUSH1 0x20 ADD SWAP3 SWAP2 POP POP JUMP JUMPDEST PUSH1 0x20 DUP2 MSTORE PUSH1 0x0 PUSH2 0xD14 PUSH1 0x20 DUP4 ADD DUP5 PUSH2 0x30B4 JUMP JUMPDEST PUSH1 0x0 PUSH1 0x20 DUP3 DUP5 SUB SLT ISZERO PUSH2 0x3105 JUMPI PUSH1 0x0 DUP1 REVERT JUMPDEST POP CALLDATALOAD SWAP2 SWAP1 POP JUMP JUMPDEST DUP1 CALLDATALOAD PUSH1 0x1 PUSH1 0x1 PUSH1 0xA0 SHL SUB DUP2 AND DUP2 EQ PUSH2 0x3123 JUMPI PUSH1 0x0 DUP1 REVERT JUMPDEST SWAP2 SWAP1 POP JUMP JUMPDEST PUSH1 0x0 DUP1 PUSH1 0x40 DUP4 DUP6 SUB SLT ISZERO PUSH2 0x313B JUMPI PUSH1 0x0 DUP1 REVERT JUMPDEST PUSH2 0x3144 DUP4 PUSH2 0x310C JUMP JUMPDEST SWAP5 PUSH1 0x20 SWAP4 SWAP1 SWAP4 ADD CALLDATALOAD SWAP4 POP POP POP JUMP JUMPDEST PUSH1 0x0 DUP1 PUSH1 0x40 DUP4 DUP6 SUB SLT ISZERO PUSH2 0x3165 JUMPI PUSH1 0x0 DUP1 REVERT JUMPDEST POP POP DUP1 CALLDATALOAD SWAP3 PUSH1 0x20 SWAP1 SWAP2 ADD CALLDATALOAD SWAP2 POP JUMP JUMPDEST PUSH1 0x0 DUP1 PUSH1 0x0 PUSH1 0x60 DUP5 DUP7 SUB SLT ISZERO PUSH2 0x3189 JUMPI PUSH1 0x0 DUP1 REVERT JUMPDEST PUSH2 0x3192 DUP5 PUSH2 0x310C JUMP JUMPDEST SWAP3 POP PUSH2 0x31A0 PUSH1 0x20 DUP6 ADD PUSH2 0x310C JUMP JUMPDEST SWAP2 POP PUSH1 0x40 DUP5 ADD CALLDATALOAD SWAP1 POP SWAP3 POP SWAP3 POP SWAP3 JUMP JUMPDEST PUSH1 0x0 PUSH1 0x20 DUP3 DUP5 SUB SLT ISZERO PUSH2 0x31C2 JUMPI PUSH1 0x0 DUP1 REVERT JUMPDEST PUSH2 0xD14 DUP3 PUSH2 0x310C JUMP JUMPDEST DUP1 ISZERO ISZERO DUP2 EQ PUSH2 0x3068 JUMPI PUSH1 0x0 DUP1 REVERT JUMPDEST PUSH1 0x0 DUP1 PUSH1 0x40 DUP4 DUP6 SUB SLT ISZERO PUSH2 0x31EC JUMPI PUSH1 0x0 DUP1 REVERT JUMPDEST PUSH2 0x31F5 DUP4 PUSH2 0x310C JUMP JUMPDEST SWAP2 POP PUSH1 0x20 DUP4 ADD CALLDATALOAD PUSH2 0x3205 DUP2 PUSH2 0x31CB JUMP JUMPDEST DUP1 SWAP2 POP POP SWAP3 POP SWAP3 SWAP1 POP JUMP JUMPDEST PUSH4 0x4E487B71 PUSH1 0xE0 SHL PUSH1 0x0 MSTORE PUSH1 0x41 PUSH1 0x4 MSTORE PUSH1 0x24 PUSH1 0x0 REVERT JUMPDEST PUSH1 0x0 DUP1 PUSH1 0x0 DUP1 PUSH1 0x80 DUP6 DUP8 SUB SLT ISZERO PUSH2 0x323C JUMPI PUSH1 0x0 DUP1 REVERT JUMPDEST PUSH2 0x3245 DUP6 PUSH2 0x310C JUMP JUMPDEST SWAP4 POP PUSH2 0x3253 PUSH1 0x20 DUP7 ADD PUSH2 0x310C JUMP JUMPDEST SWAP3 POP PUSH1 0x40 DUP6 ADD CALLDATALOAD SWAP2 POP PUSH1 0x60 DUP6 ADD CALLDATALOAD PUSH8 0xFFFFFFFFFFFFFFFF DUP1 DUP3 GT ISZERO PUSH2 0x3277 JUMPI PUSH1 0x0 DUP1 REVERT JUMPDEST DUP2 DUP8 ADD SWAP2 POP DUP8 PUSH1 0x1F DUP4 ADD SLT PUSH2 0x328B JUMPI PUSH1 0x0 DUP1 REVERT JUMPDEST DUP2 CALLDATALOAD DUP2 DUP2 GT ISZERO PUSH2 0x329D JUMPI PUSH2 0x329D PUSH2 0x3210 JUMP JUMPDEST PUSH1 0x40 MLOAD PUSH1 0x1F DUP3 ADD PUSH1 0x1F NOT SWAP1 DUP2 AND PUSH1 0x3F ADD AND DUP2 ADD SWAP1 DUP4 DUP3 GT DUP2 DUP4 LT OR ISZERO PUSH2 0x32C5 JUMPI PUSH2 0x32C5 PUSH2 0x3210 JUMP JUMPDEST DUP2 PUSH1 0x40 MSTORE DUP3 DUP2 MSTORE DUP11 PUSH1 0x20 DUP5 DUP8 ADD ADD GT ISZERO PUSH2 0x32DE JUMPI PUSH1 0x0 DUP1 REVERT JUMPDEST DUP3 PUSH1 0x20 DUP7 ADD PUSH1 0x20 DUP4 ADD CALLDATACOPY PUSH1 0x0 PUSH1 0x20 DUP5 DUP4 ADD ADD MSTORE DUP1 SWAP6 POP POP POP POP POP POP SWAP3 SWAP6 SWAP2 SWAP5 POP SWAP3 POP JUMP JUMPDEST PUSH1 0x0 DUP1 PUSH1 0x0 PUSH1 0x60 DUP5 DUP7 SUB SLT ISZERO PUSH2 0x3317 JUMPI PUSH1 0x0 DUP1 REVERT JUMPDEST DUP4 CALLDATALOAD SWAP3 POP PUSH1 0x20 DUP5 ADD CALLDATALOAD SWAP2 POP PUSH2 0x332E PUSH1 0x40 DUP6 ADD PUSH2 0x310C JUMP JUMPDEST SWAP1 POP SWAP3 POP SWAP3 POP SWAP3 JUMP JUMPDEST PUSH1 0x0 DUP1 PUSH1 0x40 DUP4 DUP6 SUB SLT ISZERO PUSH2 0x334A JUMPI PUSH1 0x0 DUP1 REVERT JUMPDEST PUSH2 0x3353 DUP4 PUSH2 0x310C JUMP JUMPDEST SWAP2 POP PUSH2 0x3361 PUSH1 0x20 DUP5 ADD PUSH2 0x310C JUMP JUMPDEST SWAP1 POP SWAP3 POP SWAP3 SWAP1 POP JUMP JUMPDEST PUSH4 0x4E487B71 PUSH1 0xE0 SHL PUSH1 0x0 MSTORE PUSH1 0x32 PUSH1 0x4 MSTORE PUSH1 0x24 PUSH1 0x0 REVERT JUMPDEST PUSH4 0x4E487B71 PUSH1 0xE0 SHL PUSH1 0x0 MSTORE PUSH1 0x1 PUSH1 0x4 MSTORE PUSH1 0x24 PUSH1 0x0 REVERT JUMPDEST PUSH1 0x20 DUP1 DUP3 MSTORE PUSH1 0x8 SWAP1 DUP3 ADD MSTORE PUSH8 0x185D1D1858DA1959 PUSH1 0xC2 SHL PUSH1 0x40 DUP3 ADD MSTORE PUSH1 0x60 ADD SWAP1 JUMP JUMPDEST PUSH4 0x4E487B71 PUSH1 0xE0 SHL PUSH1 0x0 MSTORE PUSH1 0x11 PUSH1 0x4 MSTORE PUSH1 0x24 PUSH1 0x0 REVERT JUMPDEST PUSH1 0x0 DUP3 DUP3 LT ISZERO PUSH2 0x33E0 JUMPI PUSH2 0x33E0 PUSH2 0x33B8 JUMP JUMPDEST POP SUB SWAP1 JUMP JUMPDEST PUSH1 0x0 PUSH1 0x20 DUP3 DUP5 SUB SLT ISZERO PUSH2 0x33F7 JUMPI PUSH1 0x0 DUP1 REVERT JUMPDEST DUP2 MLOAD PUSH2 0xD14 DUP2 PUSH2 0x31CB JUMP JUMPDEST PUSH1 0x0 DUP3 NOT DUP3 GT ISZERO PUSH2 0x3415 JUMPI PUSH2 0x3415 PUSH2 0x33B8 JUMP JUMPDEST POP ADD SWAP1 JUMP JUMPDEST PUSH1 0x0 DUP2 PUSH1 0x0 NOT DIV DUP4 GT DUP3 ISZERO ISZERO AND ISZERO PUSH2 0x3434 JUMPI PUSH2 0x3434 PUSH2 0x33B8 JUMP JUMPDEST POP MUL SWAP1 JUMP JUMPDEST PUSH4 0x4E487B71 PUSH1 0xE0 SHL PUSH1 0x0 MSTORE PUSH1 0x12 PUSH1 0x4 MSTORE PUSH1 0x24 PUSH1 0x0 REVERT JUMPDEST PUSH1 0x0 DUP3 PUSH2 0x345E JUMPI PUSH2 0x345E PUSH2 0x3439 JUMP JUMPDEST POP DIV SWAP1 JUMP JUMPDEST PUSH1 0x20 DUP1 DUP3 MSTORE PUSH1 0x24 SWAP1 DUP3 ADD MSTORE PUSH32 0x43616E6E6F742061646420746F2065787069726564206C6F636B2E2057697468 PUSH1 0x40 DUP3 ADD MSTORE PUSH4 0x64726177 PUSH1 0xE0 SHL PUSH1 0x60 DUP3 ADD MSTORE PUSH1 0x80 ADD SWAP1 JUMP JUMPDEST PUSH1 0x1 PUSH1 0x1 PUSH1 0xA0 SHL SUB DUP6 DUP2 AND DUP3 MSTORE DUP5 AND PUSH1 0x20 DUP3 ADD MSTORE PUSH1 0x40 DUP2 ADD DUP4 SWAP1 MSTORE PUSH1 0x80 PUSH1 0x60 DUP3 ADD DUP2 SWAP1 MSTORE PUSH1 0x0 SWAP1 PUSH2 0xFFB SWAP1 DUP4 ADD DUP5 PUSH2 0x30B4 JUMP JUMPDEST PUSH1 0x0 PUSH1 0x20 DUP3 DUP5 SUB SLT ISZERO PUSH2 0x34EC JUMPI PUSH1 0x0 DUP1 REVERT JUMPDEST DUP2 MLOAD PUSH2 0xD14 DUP2 PUSH2 0x3052 JUMP JUMPDEST PUSH1 0x0 DUP2 PUSH1 0xF SIGNEXTEND DUP4 PUSH1 0xF SIGNEXTEND DUP1 PUSH2 0x350E JUMPI PUSH2 0x350E PUSH2 0x3439 JUMP JUMPDEST PUSH1 0x1 PUSH1 0x1 PUSH1 0x7F SHL SUB NOT DUP3 EQ PUSH1 0x0 NOT DUP3 EQ AND ISZERO PUSH2 0x352C JUMPI PUSH2 0x352C PUSH2 0x33B8 JUMP JUMPDEST SWAP1 SDIV SWAP4 SWAP3 POP POP POP JUMP JUMPDEST PUSH1 0x0 DUP2 PUSH1 0xF SIGNEXTEND DUP4 PUSH1 0xF SIGNEXTEND PUSH1 0x1 PUSH1 0x1 PUSH1 0x7F SHL SUB PUSH1 0x0 DUP3 SGT PUSH1 0x0 DUP5 SGT DUP4 DUP4 DIV DUP6 GT DUP3 DUP3 AND AND ISZERO PUSH2 0x3565 JUMPI PUSH2 0x3565 PUSH2 0x33B8 JUMP JUMPDEST PUSH1 0x1 PUSH1 0x1 PUSH1 0x7F SHL SUB NOT PUSH1 0x0 DUP6 SLT DUP3 DUP2 AND DUP8 DUP4 SDIV DUP8 SLT AND ISZERO PUSH2 0x3588 JUMPI PUSH2 0x3588 PUSH2 0x33B8 JUMP JUMPDEST PUSH1 0x0 DUP8 SLT SWAP3 POP DUP6 DUP3 SDIV DUP8 SLT DUP5 DUP5 AND AND ISZERO PUSH2 0x35A4 JUMPI PUSH2 0x35A4 PUSH2 0x33B8 JUMP JUMPDEST DUP6 DUP6 SDIV DUP8 SLT DUP2 DUP5 AND AND ISZERO PUSH2 0x35BA JUMPI PUSH2 0x35BA PUSH2 0x33B8 JUMP JUMPDEST POP POP POP SWAP3 SWAP1 SWAP2 MUL SWAP6 SWAP5 POP POP POP POP POP JUMP JUMPDEST PUSH1 0x0 DUP2 PUSH1 0xF SIGNEXTEND DUP4 PUSH1 0xF SIGNEXTEND PUSH1 0x0 DUP2 SLT DUP2 PUSH1 0x1 PUSH1 0x1 PUSH1 0x7F SHL SUB NOT ADD DUP4 SLT DUP2 ISZERO AND ISZERO PUSH2 0x35F5 JUMPI PUSH2 0x35F5 PUSH2 0x33B8 JUMP JUMPDEST DUP2 PUSH1 0x1 PUSH1 0x1 PUSH1 0x7F SHL SUB ADD DUP4 SGT DUP2 AND ISZERO PUSH2 0x3610 JUMPI PUSH2 0x3610 PUSH2 0x33B8 JUMP JUMPDEST POP SWAP1 SUB SWAP4 SWAP3 POP POP POP JUMP JUMPDEST PUSH1 0x0 DUP2 PUSH1 0xF SIGNEXTEND DUP4 PUSH1 0xF SIGNEXTEND PUSH1 0x0 DUP3 SLT DUP3 PUSH1 0x1 PUSH1 0x1 PUSH1 0x7F SHL SUB SUB DUP3 SGT DUP2 ISZERO AND ISZERO PUSH2 0x3644 JUMPI PUSH2 0x3644 PUSH2 0x33B8 JUMP JUMPDEST DUP3 PUSH1 0x1 PUSH1 0x1 PUSH1 0x7F SHL SUB NOT SUB DUP3 SLT DUP2 AND ISZERO PUSH2 0x3660 JUMPI PUSH2 0x3660 PUSH2 0x33B8 JUMP JUMPDEST POP ADD SWAP4 SWAP3 POP POP POP JUMP JUMPDEST PUSH1 0x0 PUSH1 0x0 NOT DUP3 EQ ISZERO PUSH2 0x367D JUMPI PUSH2 0x367D PUSH2 0x33B8 JUMP JUMPDEST POP PUSH1 0x1 ADD SWAP1 JUMP JUMPDEST PUSH4 0x4E487B71 PUSH1 0xE0 SHL PUSH1 0x0 MSTORE PUSH1 0x21 PUSH1 0x4 MSTORE PUSH1 0x24 PUSH1 0x0 REVERT JUMPDEST DUP5 DUP2 MSTORE PUSH1 0x20 DUP2 ADD DUP5 SWAP1 MSTORE PUSH1 0x80 DUP2 ADD PUSH1 0x5 DUP5 LT PUSH2 0x36C6 JUMPI PUSH4 0x4E487B71 PUSH1 0xE0 SHL PUSH1 0x0 MSTORE PUSH1 0x21 PUSH1 0x4 MSTORE PUSH1 0x24 PUSH1 0x0 REVERT JUMPDEST PUSH1 0x40 DUP3 ADD SWAP4 SWAP1 SWAP4 MSTORE PUSH1 0x60 ADD MSTORE SWAP3 SWAP2 POP POP JUMP JUMPDEST PUSH1 0x0 DUP1 DUP4 SLT DUP1 ISZERO PUSH1 0x1 PUSH1 0xFF SHL DUP6 ADD DUP5 SLT AND ISZERO PUSH2 0x36F6 JUMPI PUSH2 0x36F6 PUSH2 0x33B8 JUMP JUMPDEST PUSH1 0x1 PUSH1 0x1 PUSH1 0xFF SHL SUB DUP5 ADD DUP4 SGT DUP2 AND ISZERO PUSH2 0x3711 JUMPI PUSH2 0x3711 PUSH2 0x33B8 JUMP JUMPDEST POP POP SUB SWAP1 JUMP JUMPDEST PUSH1 0x0 DUP4 MLOAD PUSH2 0x3729 DUP2 DUP5 PUSH1 0x20 DUP9 ADD PUSH2 0x3088 JUMP JUMPDEST PUSH6 0x3A37B5B2B71 PUSH1 0xD5 SHL SWAP1 DUP4 ADD SWAP1 DUP2 MSTORE DUP4 MLOAD PUSH2 0x374C DUP2 PUSH1 0x6 DUP5 ADD PUSH1 0x20 DUP9 ADD PUSH2 0x3088 JUMP JUMPDEST PUSH32 0x3C2F746578743E3C7465787420783D2231302220793D2234302220636C617373 PUSH1 0x6 SWAP3 SWAP1 SWAP2 ADD SWAP2 DUP3 ADD MSTORE PUSH8 0x1E913130B9B2911F PUSH1 0xC1 SHL PUSH1 0x26 DUP3 ADD MSTORE PUSH1 0x2E ADD SWAP5 SWAP4 POP POP POP POP JUMP JUMPDEST PUSH1 0x0 DUP4 MLOAD PUSH2 0x37A5 DUP2 DUP5 PUSH1 0x20 DUP9 ADD PUSH2 0x3088 JUMP JUMPDEST PUSH10 0x3130B630B731B2A7B31 PUSH1 0xB5 SHL SWAP1 DUP4 ADD SWAP1 DUP2 MSTORE DUP4 MLOAD PUSH2 0x37CC DUP2 PUSH1 0xA DUP5 ADD PUSH1 0x20 DUP9 ADD PUSH2 0x3088 JUMP JUMPDEST PUSH32 0x3C2F746578743E3C7465787420783D2231302220793D2236302220636C617373 PUSH1 0xA SWAP3 SWAP1 SWAP2 ADD SWAP2 DUP3 ADD MSTORE PUSH8 0x1E913130B9B2911F PUSH1 0xC1 SHL PUSH1 0x2A DUP3 ADD MSTORE PUSH1 0x32 ADD SWAP5 SWAP4 POP POP POP POP JUMP JUMPDEST PUSH1 0x0 DUP4 MLOAD PUSH2 0x3825 DUP2 DUP5 PUSH1 0x20 DUP9 ADD PUSH2 0x3088 JUMP JUMPDEST PUSH11 0x3637B1B5B2B22FB2B7321 PUSH1 0xAD SHL SWAP1 DUP4 ADD SWAP1 DUP2 MSTORE DUP4 MLOAD PUSH2 0x384D DUP2 PUSH1 0xB DUP5 ADD PUSH1 0x20 DUP9 ADD PUSH2 0x3088 JUMP JUMPDEST PUSH32 0x3C2F746578743E3C7465787420783D2231302220793D2238302220636C617373 PUSH1 0xB SWAP3 SWAP1 SWAP2 ADD SWAP2 DUP3 ADD MSTORE PUSH8 0x1E913130B9B2911F PUSH1 0xC1 SHL PUSH1 0x2B DUP3 ADD MSTORE PUSH1 0x33 ADD SWAP5 SWAP4 POP POP POP POP JUMP JUMPDEST PUSH1 0x0 DUP4 MLOAD PUSH2 0x38A6 DUP2 DUP5 PUSH1 0x20 DUP9 ADD PUSH2 0x3088 JUMP JUMPDEST PUSH6 0x3B30B63AB29 PUSH1 0xD5 SHL SWAP1 DUP4 ADD SWAP1 DUP2 MSTORE DUP4 MLOAD PUSH2 0x38C9 DUP2 PUSH1 0x6 DUP5 ADD PUSH1 0x20 DUP9 ADD PUSH2 0x3088 JUMP JUMPDEST PUSH13 0x1E17BA32BC3A1F1E17B9BB339F PUSH1 0x99 SHL PUSH1 0x6 SWAP3 SWAP1 SWAP2 ADD SWAP2 DUP3 ADD MSTORE PUSH1 0x13 ADD SWAP5 SWAP4 POP POP POP POP JUMP JUMPDEST PUSH16 0x7B226E616D65223A20226C6F636B2023 PUSH1 0x80 SHL DUP2 MSTORE DUP3 MLOAD PUSH1 0x0 SWAP1 PUSH2 0x391B DUP2 PUSH1 0x10 DUP6 ADD PUSH1 0x20 DUP9 ADD PUSH2 0x3088 JUMP JUMPDEST PUSH32 0x222C20226465736372697074696F6E223A2022536F6C69646C79206C6F636B73 PUSH1 0x10 SWAP2 DUP5 ADD SWAP2 DUP3 ADD MSTORE PUSH32 0x2C2063616E206265207573656420746F20626F6F737420676175676520796965 PUSH1 0x30 DUP3 ADD MSTORE PUSH32 0x6C64732C20766F7465206F6E20746F6B656E20656D697373696F6E2C20616E64 PUSH1 0x50 DUP3 ADD MSTORE PUSH32 0x207265636569766520627269626573222C2022696D616765223A202264617461 PUSH1 0x70 DUP3 ADD MSTORE PUSH22 0xE9A5B5859D94BDCDD99CADE1B5B0ED8985CD94D8D0B PUSH1 0x52 SHL PUSH1 0x90 DUP3 ADD MSTORE DUP4 MLOAD PUSH2 0x39E9 DUP2 PUSH1 0xA6 DUP5 ADD PUSH1 0x20 DUP9 ADD PUSH2 0x3088 JUMP JUMPDEST PUSH2 0x227D PUSH1 0xF0 SHL PUSH1 0xA6 SWAP3 SWAP1 SWAP2 ADD SWAP2 DUP3 ADD MSTORE PUSH1 0xA8 ADD SWAP5 SWAP4 POP POP POP POP JUMP JUMPDEST PUSH32 0x646174613A6170706C69636174696F6E2F6A736F6E3B6261736536342C000000 DUP2 MSTORE PUSH1 0x0 DUP3 MLOAD PUSH2 0x3A3C DUP2 PUSH1 0x1D DUP6 ADD PUSH1 0x20 DUP8 ADD PUSH2 0x3088 JUMP JUMPDEST SWAP2 SWAP1 SWAP2 ADD PUSH1 0x1D ADD SWAP3 SWAP2 POP POP JUMP JUMPDEST PUSH1 0x0 DUP3 PUSH2 0x3A58 JUMPI PUSH2 0x3A58 PUSH2 0x3439 JUMP JUMPDEST POP MOD SWAP1 JUMP INVALID EXTCODECOPY PUSH20 0x766720786D6C6E733D22687474703A2F2F777777 0x2E PUSH24 0x332E6F72672F323030302F73766722207072657365727665 COINBASE PUSH20 0x70656374526174696F3D22784D696E594D696E20 PUSH14 0x656574222076696577426F783D22 ADDRESS KECCAK256 ADDRESS KECCAK256 CALLER CALLDATALOAD ADDRESS KECCAK256 CALLER CALLDATALOAD ADDRESS 0x22 RETURNDATACOPY EXTCODECOPY PUSH20 0x74796C653E2E62617365207B2066696C6C3A2077 PUSH9 0x6974653B20666F6E74 0x2D PUSH7 0x616D696C793A20 PUSH20 0x657269663B20666F6E742D73697A653A20313470 PUSH25 0x3B207D3C2F7374796C653E3C726563742077696474683D2231 ADDRESS ADDRESS 0x25 0x22 KECCAK256 PUSH9 0x65696768743D223130 ADDRESS 0x25 0x22 KECCAK256 PUSH7 0x696C6C3D22626C PUSH2 0x636B 0x22 KECCAK256 0x2F RETURNDATACOPY EXTCODECOPY PUSH21 0x65787420783D2231302220793D2232302220636C61 PUSH20 0x733D2262617365223E4142434445464748494A4B 0x4C 0x4D 0x4E 0x4F POP MLOAD MSTORE MSTORE8 SLOAD SSTORE JUMP JUMPI PC MSIZE GAS PUSH2 0x6263 PUSH5 0x6566676869 PUSH11 0x6B6C6D6E6F707172737475 PUSH23 0x7778797A303132333435363738392B2FA2646970667358 0x22 SLT KECCAK256 0xCF STOP 0xBB DUP15 0xF9 0xAB SWAP7 0xBD DUP11 SSTORE BLOCKHASH 0x1F CALLDATASIZE GASPRICE 0xC9 0xA9 PUSH2 0x4365 0x2C LOG2 0xB1 GASLIMIT SWAP1 0xB8 SLOAD 0x4D 0xC6 SLOAD PUSH19 0x4FE864736F6C634300080B0033DDF252AD1BE2 0xC8 SWAP12 PUSH10 0xC2B068FC378DAA952BA7 CALL PUSH4 0xC4A11628 CREATE2 GAS 0x4D CREATE2 0x23 0xB3 0xEF "
        },
        "methodIdentifiers": {
          "abstain(uint256)": "c1f0fb9f",
          "approve(address,uint256)": "095ea7b3",
          "attach(uint256)": "fbd3a29d",
          "attachments(uint256)": "0d6a2033",
          "balanceOf(address)": "70a08231",
          "balanceOfAtNFT(uint256,uint256)": "8c2c9baf",
          "balanceOfNFT(uint256)": "e7e242d4",
          "balanceOfNFTAt(uint256,uint256)": "e0514aba",
          "block_number()": "25a58b56",
          "checkpoint()": "c2c4c5c1",
          "create_lock(uint256,uint256)": "65fc3873",
          "create_lock_for(uint256,uint256,address)": "d4e54c3b",
          "decimals()": "313ce567",
          "deposit_for(uint256,uint256)": "ee99fe28",
          "detach(uint256)": "986b7d8a",
          "epoch()": "900cf0cf",
          "getApproved(uint256)": "081812fc",
          "get_last_user_slope(uint256)": "461f711c",
          "increase_amount(uint256,uint256)": "a183af52",
          "increase_unlock_time(uint256,uint256)": "a4d855df",
          "isApprovedForAll(address,address)": "e985e9c5",
          "isApprovedOrOwner(address,uint256)": "430c2081",
          "locked(uint256)": "b45a3c0e",
          "locked__end(uint256)": "f8a05763",
          "merge(uint256,uint256)": "d1c2babb",
          "name()": "06fdde03",
          "ownerOf(uint256)": "6352211e",
          "ownership_change(uint256)": "6f548837",
          "point_history(uint256)": "d1febfb9",
          "safeTransferFrom(address,address,uint256)": "42842e0e",
          "safeTransferFrom(address,address,uint256,bytes)": "b88d4fde",
          "setApprovalForAll(address,bool)": "a22cb465",
          "setVoter(address)": "4bc2a657",
          "slope_changes(uint256)": "71197484",
          "supply()": "047fc9aa",
          "supportsInterface(bytes4)": "01ffc9a7",
          "symbol()": "95d89b41",
          "token()": "fc0c546a",
          "tokenOfOwnerByIndex(address,uint256)": "2f745c59",
          "tokenURI(uint256)": "c87b56dd",
          "totalSupply()": "18160ddd",
          "totalSupplyAt(uint256)": "981b24d0",
          "totalSupplyAtT(uint256)": "7116c60c",
          "transferFrom(address,address,uint256)": "23b872dd",
          "user_point_epoch(uint256)": "e441135c",
          "user_point_history(uint256,uint256)": "1376f3da",
          "user_point_history__ts(uint256,uint256)": "1c984bc3",
          "version()": "54fd4d50",
          "voted(uint256)": "8fbb38ff",
          "voter()": "46c96aac",
          "voting(uint256)": "fd4a77f1",
          "withdraw(uint256)": "2e1a7d4d"
        }
      }
    }
  }
}