{
  "contracts/ve_dist.sol": {
    "ve_dist": {
      "abi": [
        {
          "inputs": [
            {
              "internalType": "address",
              "name": "_voting_escrow",
              "type": "address"
            }
          ],
          "stateMutability": "nonpayable",
          "type": "constructor"
        },
        {
          "anonymous": false,
          "inputs": [
            {
              "indexed": false,
              "internalType": "uint256",
              "name": "time",
              "type": "uint256"
            },
            {
              "indexed": false,
              "internalType": "uint256",
              "name": "tokens",
              "type": "uint256"
            }
          ],
          "name": "CheckpointToken",
          "type": "event"
        },
        {
          "anonymous": false,
          "inputs": [
            {
              "indexed": false,
              "internalType": "uint256",
              "name": "tokenId",
              "type": "uint256"
            },
            {
              "indexed": false,
              "internalType": "uint256",
              "name": "amount",
              "type": "uint256"
            },
            {
              "indexed": false,
              "internalType": "uint256",
              "name": "claim_epoch",
              "type": "uint256"
            },
            {
              "indexed": false,
              "internalType": "uint256",
              "name": "max_epoch",
              "type": "uint256"
            }
          ],
          "name": "Claimed",
          "type": "event"
        },
        {
          "inputs": [],
          "name": "checkpoint_token",
          "outputs": [],
          "stateMutability": "nonpayable",
          "type": "function"
        },
        {
          "inputs": [],
          "name": "checkpoint_total_supply",
          "outputs": [],
          "stateMutability": "nonpayable",
          "type": "function"
        },
        {
          "inputs": [
            {
              "internalType": "uint256",
              "name": "_tokenId",
              "type": "uint256"
            }
          ],
          "name": "claim",
          "outputs": [
            {
              "internalType": "uint256",
              "name": "",
              "type": "uint256"
            }
          ],
          "stateMutability": "nonpayable",
          "type": "function"
        },
        {
          "inputs": [
            {
              "internalType": "uint256[]",
              "name": "_tokenIds",
              "type": "uint256[]"
            }
          ],
          "name": "claim_many",
          "outputs": [
            {
              "internalType": "bool",
              "name": "",
              "type": "bool"
            }
          ],
          "stateMutability": "nonpayable",
          "type": "function"
        },
        {
          "inputs": [
            {
              "internalType": "uint256",
              "name": "_tokenId",
              "type": "uint256"
            }
          ],
          "name": "claimable",
          "outputs": [
            {
              "internalType": "uint256",
              "name": "",
              "type": "uint256"
            }
          ],
          "stateMutability": "view",
          "type": "function"
        },
        {
          "inputs": [],
          "name": "depositor",
          "outputs": [
            {
              "internalType": "address",
              "name": "",
              "type": "address"
            }
          ],
          "stateMutability": "view",
          "type": "function"
        },
        {
          "inputs": [],
          "name": "last_token_time",
          "outputs": [
            {
              "internalType": "uint256",
              "name": "",
              "type": "uint256"
            }
          ],
          "stateMutability": "view",
          "type": "function"
        },
        {
          "inputs": [
            {
              "internalType": "address",
              "name": "_depositor",
              "type": "address"
            }
          ],
          "name": "setDepositor",
          "outputs": [],
          "stateMutability": "nonpayable",
          "type": "function"
        },
        {
          "inputs": [],
          "name": "start_time",
          "outputs": [
            {
              "internalType": "uint256",
              "name": "",
              "type": "uint256"
            }
          ],
          "stateMutability": "view",
          "type": "function"
        },
        {
          "inputs": [],
          "name": "time_cursor",
          "outputs": [
            {
              "internalType": "uint256",
              "name": "",
              "type": "uint256"
            }
          ],
          "stateMutability": "view",
          "type": "function"
        },
        {
          "inputs": [
            {
              "internalType": "uint256",
              "name": "",
              "type": "uint256"
            }
          ],
          "name": "time_cursor_of",
          "outputs": [
            {
              "internalType": "uint256",
              "name": "",
              "type": "uint256"
            }
          ],
          "stateMutability": "view",
          "type": "function"
        },
        {
          "inputs": [],
          "name": "timestamp",
          "outputs": [
            {
              "internalType": "uint256",
              "name": "",
              "type": "uint256"
            }
          ],
          "stateMutability": "view",
          "type": "function"
        },
        {
          "inputs": [],
          "name": "token",
          "outputs": [
            {
              "internalType": "address",
              "name": "",
              "type": "address"
            }
          ],
          "stateMutability": "view",
          "type": "function"
        },
        {
          "inputs": [],
          "name": "token_last_balance",
          "outputs": [
            {
              "internalType": "uint256",
              "name": "",
              "type": "uint256"
            }
          ],
          "stateMutability": "view",
          "type": "function"
        },
        {
          "inputs": [
            {
              "internalType": "uint256",
              "name": "",
              "type": "uint256"
            }
          ],
          "name": "tokens_per_week",
          "outputs": [
            {
              "internalType": "uint256",
              "name": "",
              "type": "uint256"
            }
          ],
          "stateMutability": "view",
          "type": "function"
        },
        {
          "inputs": [
            {
              "internalType": "uint256",
              "name": "",
              "type": "uint256"
            }
          ],
          "name": "user_epoch_of",
          "outputs": [
            {
              "internalType": "uint256",
              "name": "",
              "type": "uint256"
            }
          ],
          "stateMutability": "view",
          "type": "function"
        },
        {
          "inputs": [
            {
              "internalType": "uint256",
              "name": "_tokenId",
              "type": "uint256"
            },
            {
              "internalType": "uint256",
              "name": "_timestamp",
              "type": "uint256"
            }
          ],
          "name": "ve_for_at",
          "outputs": [
            {
              "internalType": "uint256",
              "name": "",
              "type": "uint256"
            }
          ],
          "stateMutability": "view",
          "type": "function"
        },
        {
          "inputs": [
            {
              "internalType": "uint256",
              "name": "",
              "type": "uint256"
            }
          ],
          "name": "ve_supply",
          "outputs": [
            {
              "internalType": "uint256",
              "name": "",
              "type": "uint256"
            }
          ],
          "stateMutability": "view",
          "type": "function"
        },
        {
          "inputs": [],
          "name": "voting_escrow",
          "outputs": [
            {
              "internalType": "address",
              "name": "",
              "type": "address"
            }
          ],
          "stateMutability": "view",
          "type": "function"
        }
      ],
      "evm": {
        "bytecode": {
          "linkReferences": {},
          "object": "60806040523480156200001157600080fd5b5060405162001b9738038062001b97833981016040819052620000349162000196565b600062093a80620000468142620001c8565b620000529190620001eb565b90508060008190555080600481905550806001819055506000826001600160a01b031663fc0c546a6040518163ffffffff1660e01b8152600401602060405180830381865afa158015620000aa573d6000803e3d6000fd5b505050506040513d601f19601f82011682018060405250810190620000d0919062000196565b66038d7ea4c6800680546001600160a01b038381166001600160a01b0319928316811790935566038d7ea4c6800580549188169183168217905566071afd498d00088054909216331790915560405163095ea7b360e01b8152600481019190915260001960248201529192509063095ea7b3906044016020604051808303816000875af115801562000166573d6000803e3d6000fd5b505050506040513d601f19601f820116820180604052508101906200018c919062000219565b505050506200023d565b600060208284031215620001a957600080fd5b81516001600160a01b0381168114620001c157600080fd5b9392505050565b600082620001e657634e487b7160e01b600052601260045260246000fd5b500490565b60008160001904831182151516156200021457634e487b7160e01b600052601160045260246000fd5b500290565b6000602082840312156200022c57600080fd5b81518015158114620001c157600080fd5b61194a806200024d6000396000f3fe608060405234801561001057600080fd5b50600436106101215760003560e01c8063834ee417116100ad578063d4dafba811610071578063d4dafba81461024a578063dfe050311461025d578063edf5999714610276578063f2c098b714610289578063fc0c546a1461029c57600080fd5b8063834ee417146101ed578063b21ed502146101f6578063b80777ea146101fe578063c7c4ff4614610206578063d1d58b251461023757600080fd5b8063379607f5116100f4578063379607f514610194578063486d25fe146101a757806368809889146101c75780637f58e8f8146101da578063811a40fe146101e357600080fd5b8063127dcbd31461012657806316aea5c0146101425780631f1db0431461016257806322b04bfc14610185575b600080fd5b61012f60015481565b6040519081526020015b60405180910390f35b61012f610150366004611566565b60036020526000908152604090205481565b6101756101703660046115c6565b6102b5565b6040519015158152602001610139565b61012f66038d7ea4c680075481565b61012f6101a2366004611566565b6103fc565b61012f6101b5366004611566565b60026020526000908152604090205481565b61012f6101d536600461166c565b6104e6565b61012f60045481565b6101eb610629565b005b61012f60005481565b6101eb610653565b61012f61065b565b66071afd498d00085461021f906001600160a01b031681565b6040516001600160a01b039091168152602001610139565b61012f610245366004611566565b61067a565b61012f610258366004611566565b6106ba565b66038d7ea4c680055461021f906001600160a01b031681565b61012f610284366004611566565b6106dd565b6101eb61029736600461168e565b6106f3565b66038d7ea4c680065461021f906001600160a01b031681565b600060015442106102c8576102c8610738565b60045462093a806102d981836116cd565b6102e391906116ef565b66038d7ea4c68005549091506001600160a01b03166000805b85518110156103cc5760008682815181106103195761031961170e565b60200260200101519050806000141561033257506103cc565b600061033f8286886108e1565b905080156103b757604051631dd33fc560e31b815260048101839052602481018290526001600160a01b0386169063ee99fe2890604401600060405180830381600087803b15801561039057600080fd5b505af11580156103a4573d6000803e3d6000fd5b5050505080846103b49190611724565b93505b505080806103c49061173c565b9150506102fc565b5080156103f1578066038d7ea4c6800760008282546103eb9190611757565b90915550505b506001949350505050565b6000600154421061040f5761040f610738565b60045462093a8061042081836116cd565b61042a91906116ef565b66038d7ea4c680055490915060009061044e9085906001600160a01b0316846108e1565b905080156104df5766038d7ea4c6800554604051631dd33fc560e31b815260048101869052602481018390526001600160a01b039091169063ee99fe2890604401600060405180830381600087803b1580156104a957600080fd5b505af11580156104bd573d6000803e3d6000fd5b505050508066038d7ea4c6800760008282546104d99190611757565b90915550505b9392505050565b66038d7ea4c680055460405163391044d760e21b8152600481018490526000916001600160a01b0316908290829063e441135c90602401602060405180830381865afa15801561053a573d6000803e3d6000fd5b505050506040513d601f19601f8201168201806040525081019061055e919061176e565b9050600061056e83878785610cfd565b6040516309bb79ed60e11b815260048101889052602481018290529091506000906001600160a01b03851690631376f3da90604401608060405180830381865afa1580156105c0573d6000803e3d6000fd5b505050506040513d601f19601f820116820180604052508101906105e4919061179e565b905061061e8160400151876105f99190611757565b82602001516106089190611810565b825161061491906118ae565b600f0b6000610df5565b979650505050505050565b66071afd498d0008546001600160a01b03163314610649576106496118fe565b610651610e0c565b565b610651610738565b600062093a8061066b81426116cd565b61067591906116ef565b905090565b60008062093a808060045461068f91906116cd565b61069991906116ef565b66038d7ea4c68005549091506104df9084906001600160a01b031683611069565b66038d7ea4c680088166038d7ea4c6800081106106d657600080fd5b0154905081565b60058166038d7ea4c6800081106106d657600080fd5b66071afd498d0008546001600160a01b0316331461071057600080fd5b66071afd498d000880546001600160a01b0319166001600160a01b0392909216919091179055565b66038d7ea4c68005546001546001600160a01b0390911690600062093a8061076081426116cd565b61076a91906116ef565b9050826001600160a01b031663c2c4c5c16040518163ffffffff1660e01b8152600401600060405180830381600087803b1580156107a757600080fd5b505af11580156107bb573d6000803e3d6000fd5b5050505060005b60148110156108d957818311156107d8576108d9565b60006107e485856113fe565b60405163d1febfb960e01b8152600481018290529091506000906001600160a01b0387169063d1febfb990602401608060405180830381865afa15801561082f573d6000803e3d6000fd5b505050506040513d601f19601f82011682018060405250810190610853919061179e565b9050600081604001518611156108755760408201516108729087611757565b90505b6108948183602001516108889190611810565b835161061491906118ae565b66038d7ea4c680088766038d7ea4c6800081106108b3576108b361170e565b01555050506108c562093a8084611724565b9250806108d18161173c565b9150506107c2565b505060015550565b60405163391044d760e21b8152600481018490526000908190819081906001600160a01b0387169063e441135c90602401602060405180830381865afa15801561092f573d6000803e3d6000fd5b505050506040513d601f19601f82011682018060405250810190610953919061176e565b6000549091508161096b5760009450505050506104df565b600088815260026020526040902054806109925761098b888a8486610cfd565b94506109a4565b60008981526003602052604090205494505b846109ae57600194505b6040516309bb79ed60e11b8152600481018a9052602481018690526000906001600160a01b038a1690631376f3da90604401608060405180830381865afa1580156109fd573d6000803e3d6000fd5b505050506040513d601f19601f82011682018060405250810190610a21919061179e565b905081610a635762093a8080600162093a808460400151610a429190611724565b610a4c9190611757565b610a5691906116cd565b610a6091906116ef565b91505b6004548210610a7b57600096505050505050506104df565b82821015610a87578291505b6040805160808101825260008082526020820181905291810182905260608101829052905b6032811015610c7257898410610ac157610c72565b82604001518410158015610ad55750858811155b15610b9b57610ae5600189611724565b975082915085881115610b245760405180608001604052806000600f0b81526020016000600f0b81526020016000815260200160008152509250610c60565b6040516309bb79ed60e11b8152600481018d9052602481018990526001600160a01b038c1690631376f3da90604401608060405180830381865afa158015610b70573d6000803e3d6000fd5b505050506040513d601f19601f82011682018060405250810190610b94919061179e565b9250610c60565b6000826040015185610bad9190611757565b90506000610bd0846020015183610bc49190611810565b855161061491906118ae565b905080158015610bdf5750878a115b15610beb575050610c72565b8015610c4e5766038d7ea4c680088666038d7ea4c680008110610c1057610c1061170e565b015460058766038d7ea4c680008110610c2b57610c2b61170e565b0154610c3790836116ef565b610c4191906116cd565b610c4b908a611724565b98505b610c5b62093a8087611724565b955050505b80610c6a8161173c565b915050610aac565b50610c8785610c8260018a611757565b611557565b60008c8152600360209081526040808320849055600282529182902086905581518e8152908101899052908101829052606081018790529097507fcae2990aa9af8eb1c64713b7eddb3a80bf18e49a94a13fe0d0002b5d61d58f009060800160405180910390a150939998505050505050505050565b60008082815b6080811015610de957818310610d1857610de9565b60006002610d268486611724565b610d31906002611724565b610d3b91906116cd565b6040516309bb79ed60e11b8152600481018a9052602481018290529091506000906001600160a01b038b1690631376f3da90604401608060405180830381865afa158015610d8d573d6000803e3d6000fd5b505050506040513d601f19601f82011682018060405250810190610db1919061179e565b905087816040015111610dc657819450610dd4565b610dd1600183611757565b93505b50508080610de19061173c565b915050610d03565b50909695505050505050565b600081831015610e0557816104df565b5090919050565b66038d7ea4c68006546040516370a0823160e01b81523060048201526000916001600160a01b0316906370a0823190602401602060405180830381865afa158015610e5b573d6000803e3d6000fd5b505050506040513d601f19601f82011682018060405250810190610e7f919061176e565b9050600066038d7ea4c680075482610e979190611757565b66038d7ea4c680078390556004549091506000610eb48242611757565b426004559050600062093a80610eca81856116cd565b610ed491906116ef565b90506000805b601481101561102757610ef062093a8084611724565b915081421015610f795783158015610f0757508442145b15610f41578560058466038d7ea4c680008110610f2657610f2661170e565b016000828254610f369190611724565b909155506110279050565b83610f4c8642611757565b610f5690886116ef565b610f6091906116cd565b60058466038d7ea4c680008110610f2657610f2661170e565b83158015610f8657508482145b15610fc0578560058466038d7ea4c680008110610fa557610fa561170e565b016000828254610fb59190611724565b9091555061100e9050565b83610fcb8684611757565b610fd590886116ef565b610fdf91906116cd565b60058466038d7ea4c680008110610ff857610ff861170e565b0160008282546110089190611724565b90915550505b819450819250808061101f9061173c565b915050610eda565b5060408051428152602081018790527fce749457b74e10f393f2c6b1ce4261b78791376db5a3f501477a809f03f500d6910160405180910390a1505050505050565b60405163391044d760e21b8152600481018490526000908190819081906001600160a01b0387169063e441135c90602401602060405180830381865afa1580156110b7573d6000803e3d6000fd5b505050506040513d601f19601f820116820180604052508101906110db919061176e565b600054909150816110f35760009450505050506104df565b6000888152600260205260409020548061111a57611113888a8486610cfd565b945061112c565b60008981526003602052604090205494505b8461113657600194505b6040516309bb79ed60e11b8152600481018a9052602481018690526000906001600160a01b038a1690631376f3da90604401608060405180830381865afa158015611185573d6000803e3d6000fd5b505050506040513d601f19601f820116820180604052508101906111a9919061179e565b9050816111eb5762093a8080600162093a8084604001516111ca9190611724565b6111d49190611757565b6111de91906116cd565b6111e891906116ef565b91505b600454821061120357600096505050505050506104df565b8282101561120f578291505b6040805160808101825260008082526020820181905291810182905260608101829052905b60328110156113ee57898410611249576113ee565b8260400151841015801561125d5750858811155b156113235761126d600189611724565b9750829150858811156112ac5760405180608001604052806000600f0b81526020016000600f0b815260200160008152602001600081525092506113dc565b6040516309bb79ed60e11b8152600481018d9052602481018990526001600160a01b038c1690631376f3da90604401608060405180830381865afa1580156112f8573d6000803e3d6000fd5b505050506040513d601f19601f8201168201806040525081019061131c919061179e565b92506113dc565b60008260400151856113359190611757565b9050600061134c846020015183610bc49190611810565b90508015801561135b5750878a115b156113675750506113ee565b80156113ca5766038d7ea4c680088666038d7ea4c68000811061138c5761138c61170e565b015460058766038d7ea4c6800081106113a7576113a761170e565b01546113b390836116ef565b6113bd91906116cd565b6113c7908a611724565b98505b6113d762093a8087611724565b955050505b806113e68161173c565b915050611234565b50949a9950505050505050505050565b600080600090506000846001600160a01b031663900cf0cf6040518163ffffffff1660e01b8152600401602060405180830381865afa158015611445573d6000803e3d6000fd5b505050506040513d601f19601f82011682018060405250810190611469919061176e565b905060005b608081101561154d578183106114835761154d565b600060026114918486611724565b61149c906002611724565b6114a691906116cd565b60405163d1febfb960e01b8152600481018290529091506000906001600160a01b0389169063d1febfb990602401608060405180830381865afa1580156114f1573d6000803e3d6000fd5b505050506040513d601f19601f82011682018060405250810190611515919061179e565b90508681604001511161152a57819450611538565b611535600183611757565b93505b505080806115459061173c565b91505061146e565b5090949350505050565b6000818310610e0557816104df565b60006020828403121561157857600080fd5b5035919050565b634e487b7160e01b600052604160045260246000fd5b604051601f8201601f1916810167ffffffffffffffff811182821017156115be576115be61157f565b604052919050565b600060208083850312156115d957600080fd5b823567ffffffffffffffff808211156115f157600080fd5b818501915085601f83011261160557600080fd5b8135818111156116175761161761157f565b8060051b9150611628848301611595565b818152918301840191848101908884111561164257600080fd5b938501935b8385101561166057843582529385019390850190611647565b98975050505050505050565b6000806040838503121561167f57600080fd5b50508035926020909101359150565b6000602082840312156116a057600080fd5b81356001600160a01b03811681146104df57600080fd5b634e487b7160e01b600052601160045260246000fd5b6000826116ea57634e487b7160e01b600052601260045260246000fd5b500490565b6000816000190483118215151615611709576117096116b7565b500290565b634e487b7160e01b600052603260045260246000fd5b60008219821115611737576117376116b7565b500190565b6000600019821415611750576117506116b7565b5060010190565b600082821015611769576117696116b7565b500390565b60006020828403121561178057600080fd5b5051919050565b8051600f81900b811461179957600080fd5b919050565b6000608082840312156117b057600080fd5b6040516080810181811067ffffffffffffffff821117156117d3576117d361157f565b6040526117df83611787565b81526117ed60208401611787565b602082015260408301516040820152606083015160608201528091505092915050565b600081600f0b83600f0b60016001607f1b03600082136000841383830485118282161615611840576118406116b7565b6f7fffffffffffffffffffffffffffffff19600085128281168783058712161561186c5761186c6116b7565b60008712925085820587128484161615611888576118886116b7565b8585058712818416161561189e5761189e6116b7565b5050509290910295945050505050565b600081600f0b83600f0b600081128160016001607f1b0319018312811516156118d9576118d96116b7565b8160016001607f1b030183138116156118f4576118f46116b7565b5090039392505050565b634e487b7160e01b600052600160045260246000fdfea26469706673582212205cee1dedb984541704be1e3b3fa55023e365ff1c850dbe80cda548a139dac28764736f6c634300080b0033",
          "opcodes": "PUSH1 0x80 PUSH1 0x40 MSTORE CALLVALUE DUP1 ISZERO PUSH3 0x11 JUMPI PUSH1 0x0 DUP1 REVERT JUMPDEST POP PUSH1 0x40 MLOAD PUSH3 0x1B97 CODESIZE SUB DUP1 PUSH3 0x1B97 DUP4 CODECOPY DUP2 ADD PUSH1 0x40 DUP2 SWAP1 MSTORE PUSH3 0x34 SWAP2 PUSH3 0x196 JUMP JUMPDEST PUSH1 0x0 PUSH3 0x93A80 PUSH3 0x46 DUP2 TIMESTAMP PUSH3 0x1C8 JUMP JUMPDEST PUSH3 0x52 SWAP2 SWAP1 PUSH3 0x1EB JUMP JUMPDEST SWAP1 POP DUP1 PUSH1 0x0 DUP2 SWAP1 SSTORE POP DUP1 PUSH1 0x4 DUP2 SWAP1 SSTORE POP DUP1 PUSH1 0x1 DUP2 SWAP1 SSTORE POP PUSH1 0x0 DUP3 PUSH1 0x1 PUSH1 0x1 PUSH1 0xA0 SHL SUB AND PUSH4 0xFC0C546A PUSH1 0x40 MLOAD DUP2 PUSH4 0xFFFFFFFF AND PUSH1 0xE0 SHL DUP2 MSTORE PUSH1 0x4 ADD PUSH1 0x20 PUSH1 0x40 MLOAD DUP1 DUP4 SUB DUP2 DUP7 GAS STATICCALL ISZERO DUP1 ISZERO PUSH3 0xAA JUMPI RETURNDATASIZE PUSH1 0x0 DUP1 RETURNDATACOPY RETURNDATASIZE PUSH1 0x0 REVERT JUMPDEST POP POP POP POP PUSH1 0x40 MLOAD RETURNDATASIZE PUSH1 0x1F NOT PUSH1 0x1F DUP3 ADD AND DUP3 ADD DUP1 PUSH1 0x40 MSTORE POP DUP2 ADD SWAP1 PUSH3 0xD0 SWAP2 SWAP1 PUSH3 0x196 JUMP JUMPDEST PUSH7 0x38D7EA4C68006 DUP1 SLOAD PUSH1 0x1 PUSH1 0x1 PUSH1 0xA0 SHL SUB DUP4 DUP2 AND PUSH1 0x1 PUSH1 0x1 PUSH1 0xA0 SHL SUB NOT SWAP3 DUP4 AND DUP2 OR SWAP1 SWAP4 SSTORE PUSH7 0x38D7EA4C68005 DUP1 SLOAD SWAP2 DUP9 AND SWAP2 DUP4 AND DUP3 OR SWAP1 SSTORE PUSH7 0x71AFD498D0008 DUP1 SLOAD SWAP1 SWAP3 AND CALLER OR SWAP1 SWAP2 SSTORE PUSH1 0x40 MLOAD PUSH4 0x95EA7B3 PUSH1 0xE0 SHL DUP2 MSTORE PUSH1 0x4 DUP2 ADD SWAP2 SWAP1 SWAP2 MSTORE PUSH1 0x0 NOT PUSH1 0x24 DUP3 ADD MSTORE SWAP2 SWAP3 POP SWAP1 PUSH4 0x95EA7B3 SWAP1 PUSH1 0x44 ADD PUSH1 0x20 PUSH1 0x40 MLOAD DUP1 DUP4 SUB DUP2 PUSH1 0x0 DUP8 GAS CALL ISZERO DUP1 ISZERO PUSH3 0x166 JUMPI RETURNDATASIZE PUSH1 0x0 DUP1 RETURNDATACOPY RETURNDATASIZE PUSH1 0x0 REVERT JUMPDEST POP POP POP POP PUSH1 0x40 MLOAD RETURNDATASIZE PUSH1 0x1F NOT PUSH1 0x1F DUP3 ADD AND DUP3 ADD DUP1 PUSH1 0x40 MSTORE POP DUP2 ADD SWAP1 PUSH3 0x18C SWAP2 SWAP1 PUSH3 0x219 JUMP JUMPDEST POP POP POP POP PUSH3 0x23D JUMP JUMPDEST PUSH1 0x0 PUSH1 0x20 DUP3 DUP5 SUB SLT ISZERO PUSH3 0x1A9 JUMPI PUSH1 0x0 DUP1 REVERT JUMPDEST DUP2 MLOAD PUSH1 0x1 PUSH1 0x1 PUSH1 0xA0 SHL SUB DUP2 AND DUP2 EQ PUSH3 0x1C1 JUMPI PUSH1 0x0 DUP1 REVERT JUMPDEST SWAP4 SWAP3 POP POP POP JUMP JUMPDEST PUSH1 0x0 DUP3 PUSH3 0x1E6 JUMPI PUSH4 0x4E487B71 PUSH1 0xE0 SHL PUSH1 0x0 MSTORE PUSH1 0x12 PUSH1 0x4 MSTORE PUSH1 0x24 PUSH1 0x0 REVERT JUMPDEST POP DIV SWAP1 JUMP JUMPDEST PUSH1 0x0 DUP2 PUSH1 0x0 NOT DIV DUP4 GT DUP3 ISZERO ISZERO AND ISZERO PUSH3 0x214 JUMPI PUSH4 0x4E487B71 PUSH1 0xE0 SHL PUSH1 0x0 MSTORE PUSH1 0x11 PUSH1 0x4 MSTORE PUSH1 0x24 PUSH1 0x0 REVERT JUMPDEST POP MUL SWAP1 JUMP JUMPDEST PUSH1 0x0 PUSH1 0x20 DUP3 DUP5 SUB SLT ISZERO PUSH3 0x22C JUMPI PUSH1 0x0 DUP1 REVERT JUMPDEST DUP2 MLOAD DUP1 ISZERO ISZERO DUP2 EQ PUSH3 0x1C1 JUMPI PUSH1 0x0 DUP1 REVERT JUMPDEST PUSH2 0x194A DUP1 PUSH3 0x24D PUSH1 0x0 CODECOPY PUSH1 0x0 RETURN INVALID PUSH1 0x80 PUSH1 0x40 MSTORE CALLVALUE DUP1 ISZERO PUSH2 0x10 JUMPI PUSH1 0x0 DUP1 REVERT JUMPDEST POP PUSH1 0x4 CALLDATASIZE LT PUSH2 0x121 JUMPI PUSH1 0x0 CALLDATALOAD PUSH1 0xE0 SHR DUP1 PUSH4 0x834EE417 GT PUSH2 0xAD JUMPI DUP1 PUSH4 0xD4DAFBA8 GT PUSH2 0x71 JUMPI DUP1 PUSH4 0xD4DAFBA8 EQ PUSH2 0x24A JUMPI DUP1 PUSH4 0xDFE05031 EQ PUSH2 0x25D JUMPI DUP1 PUSH4 0xEDF59997 EQ PUSH2 0x276 JUMPI DUP1 PUSH4 0xF2C098B7 EQ PUSH2 0x289 JUMPI DUP1 PUSH4 0xFC0C546A EQ PUSH2 0x29C JUMPI PUSH1 0x0 DUP1 REVERT JUMPDEST DUP1 PUSH4 0x834EE417 EQ PUSH2 0x1ED JUMPI DUP1 PUSH4 0xB21ED502 EQ PUSH2 0x1F6 JUMPI DUP1 PUSH4 0xB80777EA EQ PUSH2 0x1FE JUMPI DUP1 PUSH4 0xC7C4FF46 EQ PUSH2 0x206 JUMPI DUP1 PUSH4 0xD1D58B25 EQ PUSH2 0x237 JUMPI PUSH1 0x0 DUP1 REVERT JUMPDEST DUP1 PUSH4 0x379607F5 GT PUSH2 0xF4 JUMPI DUP1 PUSH4 0x379607F5 EQ PUSH2 0x194 JUMPI DUP1 PUSH4 0x486D25FE EQ PUSH2 0x1A7 JUMPI DUP1 PUSH4 0x68809889 EQ PUSH2 0x1C7 JUMPI DUP1 PUSH4 0x7F58E8F8 EQ PUSH2 0x1DA JUMPI DUP1 PUSH4 0x811A40FE EQ PUSH2 0x1E3 JUMPI PUSH1 0x0 DUP1 REVERT JUMPDEST DUP1 PUSH4 0x127DCBD3 EQ PUSH2 0x126 JUMPI DUP1 PUSH4 0x16AEA5C0 EQ PUSH2 0x142 JUMPI DUP1 PUSH4 0x1F1DB043 EQ PUSH2 0x162 JUMPI DUP1 PUSH4 0x22B04BFC EQ PUSH2 0x185 JUMPI JUMPDEST PUSH1 0x0 DUP1 REVERT JUMPDEST PUSH2 0x12F PUSH1 0x1 SLOAD DUP2 JUMP JUMPDEST PUSH1 0x40 MLOAD SWAP1 DUP2 MSTORE PUSH1 0x20 ADD JUMPDEST PUSH1 0x40 MLOAD DUP1 SWAP2 SUB SWAP1 RETURN JUMPDEST PUSH2 0x12F PUSH2 0x150 CALLDATASIZE PUSH1 0x4 PUSH2 0x1566 JUMP JUMPDEST PUSH1 0x3 PUSH1 0x20 MSTORE PUSH1 0x0 SWAP1 DUP2 MSTORE PUSH1 0x40 SWAP1 KECCAK256 SLOAD DUP2 JUMP JUMPDEST PUSH2 0x175 PUSH2 0x170 CALLDATASIZE PUSH1 0x4 PUSH2 0x15C6 JUMP JUMPDEST PUSH2 0x2B5 JUMP JUMPDEST PUSH1 0x40 MLOAD SWAP1 ISZERO ISZERO DUP2 MSTORE PUSH1 0x20 ADD PUSH2 0x139 JUMP JUMPDEST PUSH2 0x12F PUSH7 0x38D7EA4C68007 SLOAD DUP2 JUMP JUMPDEST PUSH2 0x12F PUSH2 0x1A2 CALLDATASIZE PUSH1 0x4 PUSH2 0x1566 JUMP JUMPDEST PUSH2 0x3FC JUMP JUMPDEST PUSH2 0x12F PUSH2 0x1B5 CALLDATASIZE PUSH1 0x4 PUSH2 0x1566 JUMP JUMPDEST PUSH1 0x2 PUSH1 0x20 MSTORE PUSH1 0x0 SWAP1 DUP2 MSTORE PUSH1 0x40 SWAP1 KECCAK256 SLOAD DUP2 JUMP JUMPDEST PUSH2 0x12F PUSH2 0x1D5 CALLDATASIZE PUSH1 0x4 PUSH2 0x166C JUMP JUMPDEST PUSH2 0x4E6 JUMP JUMPDEST PUSH2 0x12F PUSH1 0x4 SLOAD DUP2 JUMP JUMPDEST PUSH2 0x1EB PUSH2 0x629 JUMP JUMPDEST STOP JUMPDEST PUSH2 0x12F PUSH1 0x0 SLOAD DUP2 JUMP JUMPDEST PUSH2 0x1EB PUSH2 0x653 JUMP JUMPDEST PUSH2 0x12F PUSH2 0x65B JUMP JUMPDEST PUSH7 0x71AFD498D0008 SLOAD PUSH2 0x21F SWAP1 PUSH1 0x1 PUSH1 0x1 PUSH1 0xA0 SHL SUB AND DUP2 JUMP JUMPDEST PUSH1 0x40 MLOAD PUSH1 0x1 PUSH1 0x1 PUSH1 0xA0 SHL SUB SWAP1 SWAP2 AND DUP2 MSTORE PUSH1 0x20 ADD PUSH2 0x139 JUMP JUMPDEST PUSH2 0x12F PUSH2 0x245 CALLDATASIZE PUSH1 0x4 PUSH2 0x1566 JUMP JUMPDEST PUSH2 0x67A JUMP JUMPDEST PUSH2 0x12F PUSH2 0x258 CALLDATASIZE PUSH1 0x4 PUSH2 0x1566 JUMP JUMPDEST PUSH2 0x6BA JUMP JUMPDEST PUSH7 0x38D7EA4C68005 SLOAD PUSH2 0x21F SWAP1 PUSH1 0x1 PUSH1 0x1 PUSH1 0xA0 SHL SUB AND DUP2 JUMP JUMPDEST PUSH2 0x12F PUSH2 0x284 CALLDATASIZE PUSH1 0x4 PUSH2 0x1566 JUMP JUMPDEST PUSH2 0x6DD JUMP JUMPDEST PUSH2 0x1EB PUSH2 0x297 CALLDATASIZE PUSH1 0x4 PUSH2 0x168E JUMP JUMPDEST PUSH2 0x6F3 JUMP JUMPDEST PUSH7 0x38D7EA4C68006 SLOAD PUSH2 0x21F SWAP1 PUSH1 0x1 PUSH1 0x1 PUSH1 0xA0 SHL SUB AND DUP2 JUMP JUMPDEST PUSH1 0x0 PUSH1 0x1 SLOAD TIMESTAMP LT PUSH2 0x2C8 JUMPI PUSH2 0x2C8 PUSH2 0x738 JUMP JUMPDEST PUSH1 0x4 SLOAD PUSH3 0x93A80 PUSH2 0x2D9 DUP2 DUP4 PUSH2 0x16CD JUMP JUMPDEST PUSH2 0x2E3 SWAP2 SWAP1 PUSH2 0x16EF JUMP JUMPDEST PUSH7 0x38D7EA4C68005 SLOAD SWAP1 SWAP2 POP PUSH1 0x1 PUSH1 0x1 PUSH1 0xA0 SHL SUB AND PUSH1 0x0 DUP1 JUMPDEST DUP6 MLOAD DUP2 LT ISZERO PUSH2 0x3CC JUMPI PUSH1 0x0 DUP7 DUP3 DUP2 MLOAD DUP2 LT PUSH2 0x319 JUMPI PUSH2 0x319 PUSH2 0x170E JUMP JUMPDEST PUSH1 0x20 MUL PUSH1 0x20 ADD ADD MLOAD SWAP1 POP DUP1 PUSH1 0x0 EQ ISZERO PUSH2 0x332 JUMPI POP PUSH2 0x3CC JUMP JUMPDEST PUSH1 0x0 PUSH2 0x33F DUP3 DUP7 DUP9 PUSH2 0x8E1 JUMP JUMPDEST SWAP1 POP DUP1 ISZERO PUSH2 0x3B7 JUMPI PUSH1 0x40 MLOAD PUSH4 0x1DD33FC5 PUSH1 0xE3 SHL DUP2 MSTORE PUSH1 0x4 DUP2 ADD DUP4 SWAP1 MSTORE PUSH1 0x24 DUP2 ADD DUP3 SWAP1 MSTORE PUSH1 0x1 PUSH1 0x1 PUSH1 0xA0 SHL SUB DUP7 AND SWAP1 PUSH4 0xEE99FE28 SWAP1 PUSH1 0x44 ADD PUSH1 0x0 PUSH1 0x40 MLOAD DUP1 DUP4 SUB DUP2 PUSH1 0x0 DUP8 DUP1 EXTCODESIZE ISZERO DUP1 ISZERO PUSH2 0x390 JUMPI PUSH1 0x0 DUP1 REVERT JUMPDEST POP GAS CALL ISZERO DUP1 ISZERO PUSH2 0x3A4 JUMPI RETURNDATASIZE PUSH1 0x0 DUP1 RETURNDATACOPY RETURNDATASIZE PUSH1 0x0 REVERT JUMPDEST POP POP POP POP DUP1 DUP5 PUSH2 0x3B4 SWAP2 SWAP1 PUSH2 0x1724 JUMP JUMPDEST SWAP4 POP JUMPDEST POP POP DUP1 DUP1 PUSH2 0x3C4 SWAP1 PUSH2 0x173C JUMP JUMPDEST SWAP2 POP POP PUSH2 0x2FC JUMP JUMPDEST POP DUP1 ISZERO PUSH2 0x3F1 JUMPI DUP1 PUSH7 0x38D7EA4C68007 PUSH1 0x0 DUP3 DUP3 SLOAD PUSH2 0x3EB SWAP2 SWAP1 PUSH2 0x1757 JUMP JUMPDEST SWAP1 SWAP2 SSTORE POP POP JUMPDEST POP PUSH1 0x1 SWAP5 SWAP4 POP POP POP POP JUMP JUMPDEST PUSH1 0x0 PUSH1 0x1 SLOAD TIMESTAMP LT PUSH2 0x40F JUMPI PUSH2 0x40F PUSH2 0x738 JUMP JUMPDEST PUSH1 0x4 SLOAD PUSH3 0x93A80 PUSH2 0x420 DUP2 DUP4 PUSH2 0x16CD JUMP JUMPDEST PUSH2 0x42A SWAP2 SWAP1 PUSH2 0x16EF JUMP JUMPDEST PUSH7 0x38D7EA4C68005 SLOAD SWAP1 SWAP2 POP PUSH1 0x0 SWAP1 PUSH2 0x44E SWAP1 DUP6 SWAP1 PUSH1 0x1 PUSH1 0x1 PUSH1 0xA0 SHL SUB AND DUP5 PUSH2 0x8E1 JUMP JUMPDEST SWAP1 POP DUP1 ISZERO PUSH2 0x4DF JUMPI PUSH7 0x38D7EA4C68005 SLOAD PUSH1 0x40 MLOAD PUSH4 0x1DD33FC5 PUSH1 0xE3 SHL DUP2 MSTORE PUSH1 0x4 DUP2 ADD DUP7 SWAP1 MSTORE PUSH1 0x24 DUP2 ADD DUP4 SWAP1 MSTORE PUSH1 0x1 PUSH1 0x1 PUSH1 0xA0 SHL SUB SWAP1 SWAP2 AND SWAP1 PUSH4 0xEE99FE28 SWAP1 PUSH1 0x44 ADD PUSH1 0x0 PUSH1 0x40 MLOAD DUP1 DUP4 SUB DUP2 PUSH1 0x0 DUP8 DUP1 EXTCODESIZE ISZERO DUP1 ISZERO PUSH2 0x4A9 JUMPI PUSH1 0x0 DUP1 REVERT JUMPDEST POP GAS CALL ISZERO DUP1 ISZERO PUSH2 0x4BD JUMPI RETURNDATASIZE PUSH1 0x0 DUP1 RETURNDATACOPY RETURNDATASIZE PUSH1 0x0 REVERT JUMPDEST POP POP POP POP DUP1 PUSH7 0x38D7EA4C68007 PUSH1 0x0 DUP3 DUP3 SLOAD PUSH2 0x4D9 SWAP2 SWAP1 PUSH2 0x1757 JUMP JUMPDEST SWAP1 SWAP2 SSTORE POP POP JUMPDEST SWAP4 SWAP3 POP POP POP JUMP JUMPDEST PUSH7 0x38D7EA4C68005 SLOAD PUSH1 0x40 MLOAD PUSH4 0x391044D7 PUSH1 0xE2 SHL DUP2 MSTORE PUSH1 0x4 DUP2 ADD DUP5 SWAP1 MSTORE PUSH1 0x0 SWAP2 PUSH1 0x1 PUSH1 0x1 PUSH1 0xA0 SHL SUB AND SWAP1 DUP3 SWAP1 DUP3 SWAP1 PUSH4 0xE441135C SWAP1 PUSH1 0x24 ADD PUSH1 0x20 PUSH1 0x40 MLOAD DUP1 DUP4 SUB DUP2 DUP7 GAS STATICCALL ISZERO DUP1 ISZERO PUSH2 0x53A JUMPI RETURNDATASIZE PUSH1 0x0 DUP1 RETURNDATACOPY RETURNDATASIZE PUSH1 0x0 REVERT JUMPDEST POP POP POP POP PUSH1 0x40 MLOAD RETURNDATASIZE PUSH1 0x1F NOT PUSH1 0x1F DUP3 ADD AND DUP3 ADD DUP1 PUSH1 0x40 MSTORE POP DUP2 ADD SWAP1 PUSH2 0x55E SWAP2 SWAP1 PUSH2 0x176E JUMP JUMPDEST SWAP1 POP PUSH1 0x0 PUSH2 0x56E DUP4 DUP8 DUP8 DUP6 PUSH2 0xCFD JUMP JUMPDEST PUSH1 0x40 MLOAD PUSH4 0x9BB79ED PUSH1 0xE1 SHL DUP2 MSTORE PUSH1 0x4 DUP2 ADD DUP9 SWAP1 MSTORE PUSH1 0x24 DUP2 ADD DUP3 SWAP1 MSTORE SWAP1 SWAP2 POP PUSH1 0x0 SWAP1 PUSH1 0x1 PUSH1 0x1 PUSH1 0xA0 SHL SUB DUP6 AND SWAP1 PUSH4 0x1376F3DA SWAP1 PUSH1 0x44 ADD PUSH1 0x80 PUSH1 0x40 MLOAD DUP1 DUP4 SUB DUP2 DUP7 GAS STATICCALL ISZERO DUP1 ISZERO PUSH2 0x5C0 JUMPI RETURNDATASIZE PUSH1 0x0 DUP1 RETURNDATACOPY RETURNDATASIZE PUSH1 0x0 REVERT JUMPDEST POP POP POP POP PUSH1 0x40 MLOAD RETURNDATASIZE PUSH1 0x1F NOT PUSH1 0x1F DUP3 ADD AND DUP3 ADD DUP1 PUSH1 0x40 MSTORE POP DUP2 ADD SWAP1 PUSH2 0x5E4 SWAP2 SWAP1 PUSH2 0x179E JUMP JUMPDEST SWAP1 POP PUSH2 0x61E DUP2 PUSH1 0x40 ADD MLOAD DUP8 PUSH2 0x5F9 SWAP2 SWAP1 PUSH2 0x1757 JUMP JUMPDEST DUP3 PUSH1 0x20 ADD MLOAD PUSH2 0x608 SWAP2 SWAP1 PUSH2 0x1810 JUMP JUMPDEST DUP3 MLOAD PUSH2 0x614 SWAP2 SWAP1 PUSH2 0x18AE JUMP JUMPDEST PUSH1 0xF SIGNEXTEND PUSH1 0x0 PUSH2 0xDF5 JUMP JUMPDEST SWAP8 SWAP7 POP POP POP POP POP POP POP JUMP JUMPDEST PUSH7 0x71AFD498D0008 SLOAD PUSH1 0x1 PUSH1 0x1 PUSH1 0xA0 SHL SUB AND CALLER EQ PUSH2 0x649 JUMPI PUSH2 0x649 PUSH2 0x18FE JUMP JUMPDEST PUSH2 0x651 PUSH2 0xE0C JUMP JUMPDEST JUMP JUMPDEST PUSH2 0x651 PUSH2 0x738 JUMP JUMPDEST PUSH1 0x0 PUSH3 0x93A80 PUSH2 0x66B DUP2 TIMESTAMP PUSH2 0x16CD JUMP JUMPDEST PUSH2 0x675 SWAP2 SWAP1 PUSH2 0x16EF JUMP JUMPDEST SWAP1 POP SWAP1 JUMP JUMPDEST PUSH1 0x0 DUP1 PUSH3 0x93A80 DUP1 PUSH1 0x4 SLOAD PUSH2 0x68F SWAP2 SWAP1 PUSH2 0x16CD JUMP JUMPDEST PUSH2 0x699 SWAP2 SWAP1 PUSH2 0x16EF JUMP JUMPDEST PUSH7 0x38D7EA4C68005 SLOAD SWAP1 SWAP2 POP PUSH2 0x4DF SWAP1 DUP5 SWAP1 PUSH1 0x1 PUSH1 0x1 PUSH1 0xA0 SHL SUB AND DUP4 PUSH2 0x1069 JUMP JUMPDEST PUSH7 0x38D7EA4C68008 DUP2 PUSH7 0x38D7EA4C68000 DUP2 LT PUSH2 0x6D6 JUMPI PUSH1 0x0 DUP1 REVERT JUMPDEST ADD SLOAD SWAP1 POP DUP2 JUMP JUMPDEST PUSH1 0x5 DUP2 PUSH7 0x38D7EA4C68000 DUP2 LT PUSH2 0x6D6 JUMPI PUSH1 0x0 DUP1 REVERT JUMPDEST PUSH7 0x71AFD498D0008 SLOAD PUSH1 0x1 PUSH1 0x1 PUSH1 0xA0 SHL SUB AND CALLER EQ PUSH2 0x710 JUMPI PUSH1 0x0 DUP1 REVERT JUMPDEST PUSH7 0x71AFD498D0008 DUP1 SLOAD PUSH1 0x1 PUSH1 0x1 PUSH1 0xA0 SHL SUB NOT AND PUSH1 0x1 PUSH1 0x1 PUSH1 0xA0 SHL SUB SWAP3 SWAP1 SWAP3 AND SWAP2 SWAP1 SWAP2 OR SWAP1 SSTORE JUMP JUMPDEST PUSH7 0x38D7EA4C68005 SLOAD PUSH1 0x1 SLOAD PUSH1 0x1 PUSH1 0x1 PUSH1 0xA0 SHL SUB SWAP1 SWAP2 AND SWAP1 PUSH1 0x0 PUSH3 0x93A80 PUSH2 0x760 DUP2 TIMESTAMP PUSH2 0x16CD JUMP JUMPDEST PUSH2 0x76A SWAP2 SWAP1 PUSH2 0x16EF JUMP JUMPDEST SWAP1 POP DUP3 PUSH1 0x1 PUSH1 0x1 PUSH1 0xA0 SHL SUB AND PUSH4 0xC2C4C5C1 PUSH1 0x40 MLOAD DUP2 PUSH4 0xFFFFFFFF AND PUSH1 0xE0 SHL DUP2 MSTORE PUSH1 0x4 ADD PUSH1 0x0 PUSH1 0x40 MLOAD DUP1 DUP4 SUB DUP2 PUSH1 0x0 DUP8 DUP1 EXTCODESIZE ISZERO DUP1 ISZERO PUSH2 0x7A7 JUMPI PUSH1 0x0 DUP1 REVERT JUMPDEST POP GAS CALL ISZERO DUP1 ISZERO PUSH2 0x7BB JUMPI RETURNDATASIZE PUSH1 0x0 DUP1 RETURNDATACOPY RETURNDATASIZE PUSH1 0x0 REVERT JUMPDEST POP POP POP POP PUSH1 0x0 JUMPDEST PUSH1 0x14 DUP2 LT ISZERO PUSH2 0x8D9 JUMPI DUP2 DUP4 GT ISZERO PUSH2 0x7D8 JUMPI PUSH2 0x8D9 JUMP JUMPDEST PUSH1 0x0 PUSH2 0x7E4 DUP6 DUP6 PUSH2 0x13FE JUMP JUMPDEST PUSH1 0x40 MLOAD PUSH4 0xD1FEBFB9 PUSH1 0xE0 SHL DUP2 MSTORE PUSH1 0x4 DUP2 ADD DUP3 SWAP1 MSTORE SWAP1 SWAP2 POP PUSH1 0x0 SWAP1 PUSH1 0x1 PUSH1 0x1 PUSH1 0xA0 SHL SUB DUP8 AND SWAP1 PUSH4 0xD1FEBFB9 SWAP1 PUSH1 0x24 ADD PUSH1 0x80 PUSH1 0x40 MLOAD DUP1 DUP4 SUB DUP2 DUP7 GAS STATICCALL ISZERO DUP1 ISZERO PUSH2 0x82F JUMPI RETURNDATASIZE PUSH1 0x0 DUP1 RETURNDATACOPY RETURNDATASIZE PUSH1 0x0 REVERT JUMPDEST POP POP POP POP PUSH1 0x40 MLOAD RETURNDATASIZE PUSH1 0x1F NOT PUSH1 0x1F DUP3 ADD AND DUP3 ADD DUP1 PUSH1 0x40 MSTORE POP DUP2 ADD SWAP1 PUSH2 0x853 SWAP2 SWAP1 PUSH2 0x179E JUMP JUMPDEST SWAP1 POP PUSH1 0x0 DUP2 PUSH1 0x40 ADD MLOAD DUP7 GT ISZERO PUSH2 0x875 JUMPI PUSH1 0x40 DUP3 ADD MLOAD PUSH2 0x872 SWAP1 DUP8 PUSH2 0x1757 JUMP JUMPDEST SWAP1 POP JUMPDEST PUSH2 0x894 DUP2 DUP4 PUSH1 0x20 ADD MLOAD PUSH2 0x888 SWAP2 SWAP1 PUSH2 0x1810 JUMP JUMPDEST DUP4 MLOAD PUSH2 0x614 SWAP2 SWAP1 PUSH2 0x18AE JUMP JUMPDEST PUSH7 0x38D7EA4C68008 DUP8 PUSH7 0x38D7EA4C68000 DUP2 LT PUSH2 0x8B3 JUMPI PUSH2 0x8B3 PUSH2 0x170E JUMP JUMPDEST ADD SSTORE POP POP POP PUSH2 0x8C5 PUSH3 0x93A80 DUP5 PUSH2 0x1724 JUMP JUMPDEST SWAP3 POP DUP1 PUSH2 0x8D1 DUP2 PUSH2 0x173C JUMP JUMPDEST SWAP2 POP POP PUSH2 0x7C2 JUMP JUMPDEST POP POP PUSH1 0x1 SSTORE POP JUMP JUMPDEST PUSH1 0x40 MLOAD PUSH4 0x391044D7 PUSH1 0xE2 SHL DUP2 MSTORE PUSH1 0x4 DUP2 ADD DUP5 SWAP1 MSTORE PUSH1 0x0 SWAP1 DUP2 SWAP1 DUP2 SWAP1 DUP2 SWAP1 PUSH1 0x1 PUSH1 0x1 PUSH1 0xA0 SHL SUB DUP8 AND SWAP1 PUSH4 0xE441135C SWAP1 PUSH1 0x24 ADD PUSH1 0x20 PUSH1 0x40 MLOAD DUP1 DUP4 SUB DUP2 DUP7 GAS STATICCALL ISZERO DUP1 ISZERO PUSH2 0x92F JUMPI RETURNDATASIZE PUSH1 0x0 DUP1 RETURNDATACOPY RETURNDATASIZE PUSH1 0x0 REVERT JUMPDEST POP POP POP POP PUSH1 0x40 MLOAD RETURNDATASIZE PUSH1 0x1F NOT PUSH1 0x1F DUP3 ADD AND DUP3 ADD DUP1 PUSH1 0x40 MSTORE POP DUP2 ADD SWAP1 PUSH2 0x953 SWAP2 SWAP1 PUSH2 0x176E JUMP JUMPDEST PUSH1 0x0 SLOAD SWAP1 SWAP2 POP DUP2 PUSH2 0x96B JUMPI PUSH1 0x0 SWAP5 POP POP POP POP POP PUSH2 0x4DF JUMP JUMPDEST PUSH1 0x0 DUP9 DUP2 MSTORE PUSH1 0x2 PUSH1 0x20 MSTORE PUSH1 0x40 SWAP1 KECCAK256 SLOAD DUP1 PUSH2 0x992 JUMPI PUSH2 0x98B DUP9 DUP11 DUP5 DUP7 PUSH2 0xCFD JUMP JUMPDEST SWAP5 POP PUSH2 0x9A4 JUMP JUMPDEST PUSH1 0x0 DUP10 DUP2 MSTORE PUSH1 0x3 PUSH1 0x20 MSTORE PUSH1 0x40 SWAP1 KECCAK256 SLOAD SWAP5 POP JUMPDEST DUP5 PUSH2 0x9AE JUMPI PUSH1 0x1 SWAP5 POP JUMPDEST PUSH1 0x40 MLOAD PUSH4 0x9BB79ED PUSH1 0xE1 SHL DUP2 MSTORE PUSH1 0x4 DUP2 ADD DUP11 SWAP1 MSTORE PUSH1 0x24 DUP2 ADD DUP7 SWAP1 MSTORE PUSH1 0x0 SWAP1 PUSH1 0x1 PUSH1 0x1 PUSH1 0xA0 SHL SUB DUP11 AND SWAP1 PUSH4 0x1376F3DA SWAP1 PUSH1 0x44 ADD PUSH1 0x80 PUSH1 0x40 MLOAD DUP1 DUP4 SUB DUP2 DUP7 GAS STATICCALL ISZERO DUP1 ISZERO PUSH2 0x9FD JUMPI RETURNDATASIZE PUSH1 0x0 DUP1 RETURNDATACOPY RETURNDATASIZE PUSH1 0x0 REVERT JUMPDEST POP POP POP POP PUSH1 0x40 MLOAD RETURNDATASIZE PUSH1 0x1F NOT PUSH1 0x1F DUP3 ADD AND DUP3 ADD DUP1 PUSH1 0x40 MSTORE POP DUP2 ADD SWAP1 PUSH2 0xA21 SWAP2 SWAP1 PUSH2 0x179E JUMP JUMPDEST SWAP1 POP DUP2 PUSH2 0xA63 JUMPI PUSH3 0x93A80 DUP1 PUSH1 0x1 PUSH3 0x93A80 DUP5 PUSH1 0x40 ADD MLOAD PUSH2 0xA42 SWAP2 SWAP1 PUSH2 0x1724 JUMP JUMPDEST PUSH2 0xA4C SWAP2 SWAP1 PUSH2 0x1757 JUMP JUMPDEST PUSH2 0xA56 SWAP2 SWAP1 PUSH2 0x16CD JUMP JUMPDEST PUSH2 0xA60 SWAP2 SWAP1 PUSH2 0x16EF JUMP JUMPDEST SWAP2 POP JUMPDEST PUSH1 0x4 SLOAD DUP3 LT PUSH2 0xA7B JUMPI PUSH1 0x0 SWAP7 POP POP POP POP POP POP POP PUSH2 0x4DF JUMP JUMPDEST DUP3 DUP3 LT ISZERO PUSH2 0xA87 JUMPI DUP3 SWAP2 POP JUMPDEST PUSH1 0x40 DUP1 MLOAD PUSH1 0x80 DUP2 ADD DUP3 MSTORE PUSH1 0x0 DUP1 DUP3 MSTORE PUSH1 0x20 DUP3 ADD DUP2 SWAP1 MSTORE SWAP2 DUP2 ADD DUP3 SWAP1 MSTORE PUSH1 0x60 DUP2 ADD DUP3 SWAP1 MSTORE SWAP1 JUMPDEST PUSH1 0x32 DUP2 LT ISZERO PUSH2 0xC72 JUMPI DUP10 DUP5 LT PUSH2 0xAC1 JUMPI PUSH2 0xC72 JUMP JUMPDEST DUP3 PUSH1 0x40 ADD MLOAD DUP5 LT ISZERO DUP1 ISZERO PUSH2 0xAD5 JUMPI POP DUP6 DUP9 GT ISZERO JUMPDEST ISZERO PUSH2 0xB9B JUMPI PUSH2 0xAE5 PUSH1 0x1 DUP10 PUSH2 0x1724 JUMP JUMPDEST SWAP8 POP DUP3 SWAP2 POP DUP6 DUP9 GT ISZERO PUSH2 0xB24 JUMPI PUSH1 0x40 MLOAD DUP1 PUSH1 0x80 ADD PUSH1 0x40 MSTORE DUP1 PUSH1 0x0 PUSH1 0xF SIGNEXTEND DUP2 MSTORE PUSH1 0x20 ADD PUSH1 0x0 PUSH1 0xF SIGNEXTEND DUP2 MSTORE PUSH1 0x20 ADD PUSH1 0x0 DUP2 MSTORE PUSH1 0x20 ADD PUSH1 0x0 DUP2 MSTORE POP SWAP3 POP PUSH2 0xC60 JUMP JUMPDEST PUSH1 0x40 MLOAD PUSH4 0x9BB79ED PUSH1 0xE1 SHL DUP2 MSTORE PUSH1 0x4 DUP2 ADD DUP14 SWAP1 MSTORE PUSH1 0x24 DUP2 ADD DUP10 SWAP1 MSTORE PUSH1 0x1 PUSH1 0x1 PUSH1 0xA0 SHL SUB DUP13 AND SWAP1 PUSH4 0x1376F3DA SWAP1 PUSH1 0x44 ADD PUSH1 0x80 PUSH1 0x40 MLOAD DUP1 DUP4 SUB DUP2 DUP7 GAS STATICCALL ISZERO DUP1 ISZERO PUSH2 0xB70 JUMPI RETURNDATASIZE PUSH1 0x0 DUP1 RETURNDATACOPY RETURNDATASIZE PUSH1 0x0 REVERT JUMPDEST POP POP POP POP PUSH1 0x40 MLOAD RETURNDATASIZE PUSH1 0x1F NOT PUSH1 0x1F DUP3 ADD AND DUP3 ADD DUP1 PUSH1 0x40 MSTORE POP DUP2 ADD SWAP1 PUSH2 0xB94 SWAP2 SWAP1 PUSH2 0x179E JUMP JUMPDEST SWAP3 POP PUSH2 0xC60 JUMP JUMPDEST PUSH1 0x0 DUP3 PUSH1 0x40 ADD MLOAD DUP6 PUSH2 0xBAD SWAP2 SWAP1 PUSH2 0x1757 JUMP JUMPDEST SWAP1 POP PUSH1 0x0 PUSH2 0xBD0 DUP5 PUSH1 0x20 ADD MLOAD DUP4 PUSH2 0xBC4 SWAP2 SWAP1 PUSH2 0x1810 JUMP JUMPDEST DUP6 MLOAD PUSH2 0x614 SWAP2 SWAP1 PUSH2 0x18AE JUMP JUMPDEST SWAP1 POP DUP1 ISZERO DUP1 ISZERO PUSH2 0xBDF JUMPI POP DUP8 DUP11 GT JUMPDEST ISZERO PUSH2 0xBEB JUMPI POP POP PUSH2 0xC72 JUMP JUMPDEST DUP1 ISZERO PUSH2 0xC4E JUMPI PUSH7 0x38D7EA4C68008 DUP7 PUSH7 0x38D7EA4C68000 DUP2 LT PUSH2 0xC10 JUMPI PUSH2 0xC10 PUSH2 0x170E JUMP JUMPDEST ADD SLOAD PUSH1 0x5 DUP8 PUSH7 0x38D7EA4C68000 DUP2 LT PUSH2 0xC2B JUMPI PUSH2 0xC2B PUSH2 0x170E JUMP JUMPDEST ADD SLOAD PUSH2 0xC37 SWAP1 DUP4 PUSH2 0x16EF JUMP JUMPDEST PUSH2 0xC41 SWAP2 SWAP1 PUSH2 0x16CD JUMP JUMPDEST PUSH2 0xC4B SWAP1 DUP11 PUSH2 0x1724 JUMP JUMPDEST SWAP9 POP JUMPDEST PUSH2 0xC5B PUSH3 0x93A80 DUP8 PUSH2 0x1724 JUMP JUMPDEST SWAP6 POP POP POP JUMPDEST DUP1 PUSH2 0xC6A DUP2 PUSH2 0x173C JUMP JUMPDEST SWAP2 POP POP PUSH2 0xAAC JUMP JUMPDEST POP PUSH2 0xC87 DUP6 PUSH2 0xC82 PUSH1 0x1 DUP11 PUSH2 0x1757 JUMP JUMPDEST PUSH2 0x1557 JUMP JUMPDEST PUSH1 0x0 DUP13 DUP2 MSTORE PUSH1 0x3 PUSH1 0x20 SWAP1 DUP2 MSTORE PUSH1 0x40 DUP1 DUP4 KECCAK256 DUP5 SWAP1 SSTORE PUSH1 0x2 DUP3 MSTORE SWAP2 DUP3 SWAP1 KECCAK256 DUP7 SWAP1 SSTORE DUP2 MLOAD DUP15 DUP2 MSTORE SWAP1 DUP2 ADD DUP10 SWAP1 MSTORE SWAP1 DUP2 ADD DUP3 SWAP1 MSTORE PUSH1 0x60 DUP2 ADD DUP8 SWAP1 MSTORE SWAP1 SWAP8 POP PUSH32 0xCAE2990AA9AF8EB1C64713B7EDDB3A80BF18E49A94A13FE0D0002B5D61D58F00 SWAP1 PUSH1 0x80 ADD PUSH1 0x40 MLOAD DUP1 SWAP2 SUB SWAP1 LOG1 POP SWAP4 SWAP10 SWAP9 POP POP POP POP POP POP POP POP POP JUMP JUMPDEST PUSH1 0x0 DUP1 DUP3 DUP2 JUMPDEST PUSH1 0x80 DUP2 LT ISZERO PUSH2 0xDE9 JUMPI DUP2 DUP4 LT PUSH2 0xD18 JUMPI PUSH2 0xDE9 JUMP JUMPDEST PUSH1 0x0 PUSH1 0x2 PUSH2 0xD26 DUP5 DUP7 PUSH2 0x1724 JUMP JUMPDEST PUSH2 0xD31 SWAP1 PUSH1 0x2 PUSH2 0x1724 JUMP JUMPDEST PUSH2 0xD3B SWAP2 SWAP1 PUSH2 0x16CD JUMP JUMPDEST PUSH1 0x40 MLOAD PUSH4 0x9BB79ED PUSH1 0xE1 SHL DUP2 MSTORE PUSH1 0x4 DUP2 ADD DUP11 SWAP1 MSTORE PUSH1 0x24 DUP2 ADD DUP3 SWAP1 MSTORE SWAP1 SWAP2 POP PUSH1 0x0 SWAP1 PUSH1 0x1 PUSH1 0x1 PUSH1 0xA0 SHL SUB DUP12 AND SWAP1 PUSH4 0x1376F3DA SWAP1 PUSH1 0x44 ADD PUSH1 0x80 PUSH1 0x40 MLOAD DUP1 DUP4 SUB DUP2 DUP7 GAS STATICCALL ISZERO DUP1 ISZERO PUSH2 0xD8D JUMPI RETURNDATASIZE PUSH1 0x0 DUP1 RETURNDATACOPY RETURNDATASIZE PUSH1 0x0 REVERT JUMPDEST POP POP POP POP PUSH1 0x40 MLOAD RETURNDATASIZE PUSH1 0x1F NOT PUSH1 0x1F DUP3 ADD AND DUP3 ADD DUP1 PUSH1 0x40 MSTORE POP DUP2 ADD SWAP1 PUSH2 0xDB1 SWAP2 SWAP1 PUSH2 0x179E JUMP JUMPDEST SWAP1 POP DUP8 DUP2 PUSH1 0x40 ADD MLOAD GT PUSH2 0xDC6 JUMPI DUP2 SWAP5 POP PUSH2 0xDD4 JUMP JUMPDEST PUSH2 0xDD1 PUSH1 0x1 DUP4 PUSH2 0x1757 JUMP JUMPDEST SWAP4 POP JUMPDEST POP POP DUP1 DUP1 PUSH2 0xDE1 SWAP1 PUSH2 0x173C JUMP JUMPDEST SWAP2 POP POP PUSH2 0xD03 JUMP JUMPDEST POP SWAP1 SWAP7 SWAP6 POP POP POP POP POP POP JUMP JUMPDEST PUSH1 0x0 DUP2 DUP4 LT ISZERO PUSH2 0xE05 JUMPI DUP2 PUSH2 0x4DF JUMP JUMPDEST POP SWAP1 SWAP2 SWAP1 POP JUMP JUMPDEST PUSH7 0x38D7EA4C68006 SLOAD PUSH1 0x40 MLOAD PUSH4 0x70A08231 PUSH1 0xE0 SHL DUP2 MSTORE ADDRESS PUSH1 0x4 DUP3 ADD MSTORE PUSH1 0x0 SWAP2 PUSH1 0x1 PUSH1 0x1 PUSH1 0xA0 SHL SUB AND SWAP1 PUSH4 0x70A08231 SWAP1 PUSH1 0x24 ADD PUSH1 0x20 PUSH1 0x40 MLOAD DUP1 DUP4 SUB DUP2 DUP7 GAS STATICCALL ISZERO DUP1 ISZERO PUSH2 0xE5B JUMPI RETURNDATASIZE PUSH1 0x0 DUP1 RETURNDATACOPY RETURNDATASIZE PUSH1 0x0 REVERT JUMPDEST POP POP POP POP PUSH1 0x40 MLOAD RETURNDATASIZE PUSH1 0x1F NOT PUSH1 0x1F DUP3 ADD AND DUP3 ADD DUP1 PUSH1 0x40 MSTORE POP DUP2 ADD SWAP1 PUSH2 0xE7F SWAP2 SWAP1 PUSH2 0x176E JUMP JUMPDEST SWAP1 POP PUSH1 0x0 PUSH7 0x38D7EA4C68007 SLOAD DUP3 PUSH2 0xE97 SWAP2 SWAP1 PUSH2 0x1757 JUMP JUMPDEST PUSH7 0x38D7EA4C68007 DUP4 SWAP1 SSTORE PUSH1 0x4 SLOAD SWAP1 SWAP2 POP PUSH1 0x0 PUSH2 0xEB4 DUP3 TIMESTAMP PUSH2 0x1757 JUMP JUMPDEST TIMESTAMP PUSH1 0x4 SSTORE SWAP1 POP PUSH1 0x0 PUSH3 0x93A80 PUSH2 0xECA DUP2 DUP6 PUSH2 0x16CD JUMP JUMPDEST PUSH2 0xED4 SWAP2 SWAP1 PUSH2 0x16EF JUMP JUMPDEST SWAP1 POP PUSH1 0x0 DUP1 JUMPDEST PUSH1 0x14 DUP2 LT ISZERO PUSH2 0x1027 JUMPI PUSH2 0xEF0 PUSH3 0x93A80 DUP5 PUSH2 0x1724 JUMP JUMPDEST SWAP2 POP DUP2 TIMESTAMP LT ISZERO PUSH2 0xF79 JUMPI DUP4 ISZERO DUP1 ISZERO PUSH2 0xF07 JUMPI POP DUP5 TIMESTAMP EQ JUMPDEST ISZERO PUSH2 0xF41 JUMPI DUP6 PUSH1 0x5 DUP5 PUSH7 0x38D7EA4C68000 DUP2 LT PUSH2 0xF26 JUMPI PUSH2 0xF26 PUSH2 0x170E JUMP JUMPDEST ADD PUSH1 0x0 DUP3 DUP3 SLOAD PUSH2 0xF36 SWAP2 SWAP1 PUSH2 0x1724 JUMP JUMPDEST SWAP1 SWAP2 SSTORE POP PUSH2 0x1027 SWAP1 POP JUMP JUMPDEST DUP4 PUSH2 0xF4C DUP7 TIMESTAMP PUSH2 0x1757 JUMP JUMPDEST PUSH2 0xF56 SWAP1 DUP9 PUSH2 0x16EF JUMP JUMPDEST PUSH2 0xF60 SWAP2 SWAP1 PUSH2 0x16CD JUMP JUMPDEST PUSH1 0x5 DUP5 PUSH7 0x38D7EA4C68000 DUP2 LT PUSH2 0xF26 JUMPI PUSH2 0xF26 PUSH2 0x170E JUMP JUMPDEST DUP4 ISZERO DUP1 ISZERO PUSH2 0xF86 JUMPI POP DUP5 DUP3 EQ JUMPDEST ISZERO PUSH2 0xFC0 JUMPI DUP6 PUSH1 0x5 DUP5 PUSH7 0x38D7EA4C68000 DUP2 LT PUSH2 0xFA5 JUMPI PUSH2 0xFA5 PUSH2 0x170E JUMP JUMPDEST ADD PUSH1 0x0 DUP3 DUP3 SLOAD PUSH2 0xFB5 SWAP2 SWAP1 PUSH2 0x1724 JUMP JUMPDEST SWAP1 SWAP2 SSTORE POP PUSH2 0x100E SWAP1 POP JUMP JUMPDEST DUP4 PUSH2 0xFCB DUP7 DUP5 PUSH2 0x1757 JUMP JUMPDEST PUSH2 0xFD5 SWAP1 DUP9 PUSH2 0x16EF JUMP JUMPDEST PUSH2 0xFDF SWAP2 SWAP1 PUSH2 0x16CD JUMP JUMPDEST PUSH1 0x5 DUP5 PUSH7 0x38D7EA4C68000 DUP2 LT PUSH2 0xFF8 JUMPI PUSH2 0xFF8 PUSH2 0x170E JUMP JUMPDEST ADD PUSH1 0x0 DUP3 DUP3 SLOAD PUSH2 0x1008 SWAP2 SWAP1 PUSH2 0x1724 JUMP JUMPDEST SWAP1 SWAP2 SSTORE POP POP JUMPDEST DUP2 SWAP5 POP DUP2 SWAP3 POP DUP1 DUP1 PUSH2 0x101F SWAP1 PUSH2 0x173C JUMP JUMPDEST SWAP2 POP POP PUSH2 0xEDA JUMP JUMPDEST POP PUSH1 0x40 DUP1 MLOAD TIMESTAMP DUP2 MSTORE PUSH1 0x20 DUP2 ADD DUP8 SWAP1 MSTORE PUSH32 0xCE749457B74E10F393F2C6B1CE4261B78791376DB5A3F501477A809F03F500D6 SWAP2 ADD PUSH1 0x40 MLOAD DUP1 SWAP2 SUB SWAP1 LOG1 POP POP POP POP POP POP JUMP JUMPDEST PUSH1 0x40 MLOAD PUSH4 0x391044D7 PUSH1 0xE2 SHL DUP2 MSTORE PUSH1 0x4 DUP2 ADD DUP5 SWAP1 MSTORE PUSH1 0x0 SWAP1 DUP2 SWAP1 DUP2 SWAP1 DUP2 SWAP1 PUSH1 0x1 PUSH1 0x1 PUSH1 0xA0 SHL SUB DUP8 AND SWAP1 PUSH4 0xE441135C SWAP1 PUSH1 0x24 ADD PUSH1 0x20 PUSH1 0x40 MLOAD DUP1 DUP4 SUB DUP2 DUP7 GAS STATICCALL ISZERO DUP1 ISZERO PUSH2 0x10B7 JUMPI RETURNDATASIZE PUSH1 0x0 DUP1 RETURNDATACOPY RETURNDATASIZE PUSH1 0x0 REVERT JUMPDEST POP POP POP POP PUSH1 0x40 MLOAD RETURNDATASIZE PUSH1 0x1F NOT PUSH1 0x1F DUP3 ADD AND DUP3 ADD DUP1 PUSH1 0x40 MSTORE POP DUP2 ADD SWAP1 PUSH2 0x10DB SWAP2 SWAP1 PUSH2 0x176E JUMP JUMPDEST PUSH1 0x0 SLOAD SWAP1 SWAP2 POP DUP2 PUSH2 0x10F3 JUMPI PUSH1 0x0 SWAP5 POP POP POP POP POP PUSH2 0x4DF JUMP JUMPDEST PUSH1 0x0 DUP9 DUP2 MSTORE PUSH1 0x2 PUSH1 0x20 MSTORE PUSH1 0x40 SWAP1 KECCAK256 SLOAD DUP1 PUSH2 0x111A JUMPI PUSH2 0x1113 DUP9 DUP11 DUP5 DUP7 PUSH2 0xCFD JUMP JUMPDEST SWAP5 POP PUSH2 0x112C JUMP JUMPDEST PUSH1 0x0 DUP10 DUP2 MSTORE PUSH1 0x3 PUSH1 0x20 MSTORE PUSH1 0x40 SWAP1 KECCAK256 SLOAD SWAP5 POP JUMPDEST DUP5 PUSH2 0x1136 JUMPI PUSH1 0x1 SWAP5 POP JUMPDEST PUSH1 0x40 MLOAD PUSH4 0x9BB79ED PUSH1 0xE1 SHL DUP2 MSTORE PUSH1 0x4 DUP2 ADD DUP11 SWAP1 MSTORE PUSH1 0x24 DUP2 ADD DUP7 SWAP1 MSTORE PUSH1 0x0 SWAP1 PUSH1 0x1 PUSH1 0x1 PUSH1 0xA0 SHL SUB DUP11 AND SWAP1 PUSH4 0x1376F3DA SWAP1 PUSH1 0x44 ADD PUSH1 0x80 PUSH1 0x40 MLOAD DUP1 DUP4 SUB DUP2 DUP7 GAS STATICCALL ISZERO DUP1 ISZERO PUSH2 0x1185 JUMPI RETURNDATASIZE PUSH1 0x0 DUP1 RETURNDATACOPY RETURNDATASIZE PUSH1 0x0 REVERT JUMPDEST POP POP POP POP PUSH1 0x40 MLOAD RETURNDATASIZE PUSH1 0x1F NOT PUSH1 0x1F DUP3 ADD AND DUP3 ADD DUP1 PUSH1 0x40 MSTORE POP DUP2 ADD SWAP1 PUSH2 0x11A9 SWAP2 SWAP1 PUSH2 0x179E JUMP JUMPDEST SWAP1 POP DUP2 PUSH2 0x11EB JUMPI PUSH3 0x93A80 DUP1 PUSH1 0x1 PUSH3 0x93A80 DUP5 PUSH1 0x40 ADD MLOAD PUSH2 0x11CA SWAP2 SWAP1 PUSH2 0x1724 JUMP JUMPDEST PUSH2 0x11D4 SWAP2 SWAP1 PUSH2 0x1757 JUMP JUMPDEST PUSH2 0x11DE SWAP2 SWAP1 PUSH2 0x16CD JUMP JUMPDEST PUSH2 0x11E8 SWAP2 SWAP1 PUSH2 0x16EF JUMP JUMPDEST SWAP2 POP JUMPDEST PUSH1 0x4 SLOAD DUP3 LT PUSH2 0x1203 JUMPI PUSH1 0x0 SWAP7 POP POP POP POP POP POP POP PUSH2 0x4DF JUMP JUMPDEST DUP3 DUP3 LT ISZERO PUSH2 0x120F JUMPI DUP3 SWAP2 POP JUMPDEST PUSH1 0x40 DUP1 MLOAD PUSH1 0x80 DUP2 ADD DUP3 MSTORE PUSH1 0x0 DUP1 DUP3 MSTORE PUSH1 0x20 DUP3 ADD DUP2 SWAP1 MSTORE SWAP2 DUP2 ADD DUP3 SWAP1 MSTORE PUSH1 0x60 DUP2 ADD DUP3 SWAP1 MSTORE SWAP1 JUMPDEST PUSH1 0x32 DUP2 LT ISZERO PUSH2 0x13EE JUMPI DUP10 DUP5 LT PUSH2 0x1249 JUMPI PUSH2 0x13EE JUMP JUMPDEST DUP3 PUSH1 0x40 ADD MLOAD DUP5 LT ISZERO DUP1 ISZERO PUSH2 0x125D JUMPI POP DUP6 DUP9 GT ISZERO JUMPDEST ISZERO PUSH2 0x1323 JUMPI PUSH2 0x126D PUSH1 0x1 DUP10 PUSH2 0x1724 JUMP JUMPDEST SWAP8 POP DUP3 SWAP2 POP DUP6 DUP9 GT ISZERO PUSH2 0x12AC JUMPI PUSH1 0x40 MLOAD DUP1 PUSH1 0x80 ADD PUSH1 0x40 MSTORE DUP1 PUSH1 0x0 PUSH1 0xF SIGNEXTEND DUP2 MSTORE PUSH1 0x20 ADD PUSH1 0x0 PUSH1 0xF SIGNEXTEND DUP2 MSTORE PUSH1 0x20 ADD PUSH1 0x0 DUP2 MSTORE PUSH1 0x20 ADD PUSH1 0x0 DUP2 MSTORE POP SWAP3 POP PUSH2 0x13DC JUMP JUMPDEST PUSH1 0x40 MLOAD PUSH4 0x9BB79ED PUSH1 0xE1 SHL DUP2 MSTORE PUSH1 0x4 DUP2 ADD DUP14 SWAP1 MSTORE PUSH1 0x24 DUP2 ADD DUP10 SWAP1 MSTORE PUSH1 0x1 PUSH1 0x1 PUSH1 0xA0 SHL SUB DUP13 AND SWAP1 PUSH4 0x1376F3DA SWAP1 PUSH1 0x44 ADD PUSH1 0x80 PUSH1 0x40 MLOAD DUP1 DUP4 SUB DUP2 DUP7 GAS STATICCALL ISZERO DUP1 ISZERO PUSH2 0x12F8 JUMPI RETURNDATASIZE PUSH1 0x0 DUP1 RETURNDATACOPY RETURNDATASIZE PUSH1 0x0 REVERT JUMPDEST POP POP POP POP PUSH1 0x40 MLOAD RETURNDATASIZE PUSH1 0x1F NOT PUSH1 0x1F DUP3 ADD AND DUP3 ADD DUP1 PUSH1 0x40 MSTORE POP DUP2 ADD SWAP1 PUSH2 0x131C SWAP2 SWAP1 PUSH2 0x179E JUMP JUMPDEST SWAP3 POP PUSH2 0x13DC JUMP JUMPDEST PUSH1 0x0 DUP3 PUSH1 0x40 ADD MLOAD DUP6 PUSH2 0x1335 SWAP2 SWAP1 PUSH2 0x1757 JUMP JUMPDEST SWAP1 POP PUSH1 0x0 PUSH2 0x134C DUP5 PUSH1 0x20 ADD MLOAD DUP4 PUSH2 0xBC4 SWAP2 SWAP1 PUSH2 0x1810 JUMP JUMPDEST SWAP1 POP DUP1 ISZERO DUP1 ISZERO PUSH2 0x135B JUMPI POP DUP8 DUP11 GT JUMPDEST ISZERO PUSH2 0x1367 JUMPI POP POP PUSH2 0x13EE JUMP JUMPDEST DUP1 ISZERO PUSH2 0x13CA JUMPI PUSH7 0x38D7EA4C68008 DUP7 PUSH7 0x38D7EA4C68000 DUP2 LT PUSH2 0x138C JUMPI PUSH2 0x138C PUSH2 0x170E JUMP JUMPDEST ADD SLOAD PUSH1 0x5 DUP8 PUSH7 0x38D7EA4C68000 DUP2 LT PUSH2 0x13A7 JUMPI PUSH2 0x13A7 PUSH2 0x170E JUMP JUMPDEST ADD SLOAD PUSH2 0x13B3 SWAP1 DUP4 PUSH2 0x16EF JUMP JUMPDEST PUSH2 0x13BD SWAP2 SWAP1 PUSH2 0x16CD JUMP JUMPDEST PUSH2 0x13C7 SWAP1 DUP11 PUSH2 0x1724 JUMP JUMPDEST SWAP9 POP JUMPDEST PUSH2 0x13D7 PUSH3 0x93A80 DUP8 PUSH2 0x1724 JUMP JUMPDEST SWAP6 POP POP POP JUMPDEST DUP1 PUSH2 0x13E6 DUP2 PUSH2 0x173C JUMP JUMPDEST SWAP2 POP POP PUSH2 0x1234 JUMP JUMPDEST POP SWAP5 SWAP11 SWAP10 POP POP POP POP POP POP POP POP POP POP JUMP JUMPDEST PUSH1 0x0 DUP1 PUSH1 0x0 SWAP1 POP PUSH1 0x0 DUP5 PUSH1 0x1 PUSH1 0x1 PUSH1 0xA0 SHL SUB AND PUSH4 0x900CF0CF PUSH1 0x40 MLOAD DUP2 PUSH4 0xFFFFFFFF AND PUSH1 0xE0 SHL DUP2 MSTORE PUSH1 0x4 ADD PUSH1 0x20 PUSH1 0x40 MLOAD DUP1 DUP4 SUB DUP2 DUP7 GAS STATICCALL ISZERO DUP1 ISZERO PUSH2 0x1445 JUMPI RETURNDATASIZE PUSH1 0x0 DUP1 RETURNDATACOPY RETURNDATASIZE PUSH1 0x0 REVERT JUMPDEST POP POP POP POP PUSH1 0x40 MLOAD RETURNDATASIZE PUSH1 0x1F NOT PUSH1 0x1F DUP3 ADD AND DUP3 ADD DUP1 PUSH1 0x40 MSTORE POP DUP2 ADD SWAP1 PUSH2 0x1469 SWAP2 SWAP1 PUSH2 0x176E JUMP JUMPDEST SWAP1 POP PUSH1 0x0 JUMPDEST PUSH1 0x80 DUP2 LT ISZERO PUSH2 0x154D JUMPI DUP2 DUP4 LT PUSH2 0x1483 JUMPI PUSH2 0x154D JUMP JUMPDEST PUSH1 0x0 PUSH1 0x2 PUSH2 0x1491 DUP5 DUP7 PUSH2 0x1724 JUMP JUMPDEST PUSH2 0x149C SWAP1 PUSH1 0x2 PUSH2 0x1724 JUMP JUMPDEST PUSH2 0x14A6 SWAP2 SWAP1 PUSH2 0x16CD JUMP JUMPDEST PUSH1 0x40 MLOAD PUSH4 0xD1FEBFB9 PUSH1 0xE0 SHL DUP2 MSTORE PUSH1 0x4 DUP2 ADD DUP3 SWAP1 MSTORE SWAP1 SWAP2 POP PUSH1 0x0 SWAP1 PUSH1 0x1 PUSH1 0x1 PUSH1 0xA0 SHL SUB DUP10 AND SWAP1 PUSH4 0xD1FEBFB9 SWAP1 PUSH1 0x24 ADD PUSH1 0x80 PUSH1 0x40 MLOAD DUP1 DUP4 SUB DUP2 DUP7 GAS STATICCALL ISZERO DUP1 ISZERO PUSH2 0x14F1 JUMPI RETURNDATASIZE PUSH1 0x0 DUP1 RETURNDATACOPY RETURNDATASIZE PUSH1 0x0 REVERT JUMPDEST POP POP POP POP PUSH1 0x40 MLOAD RETURNDATASIZE PUSH1 0x1F NOT PUSH1 0x1F DUP3 ADD AND DUP3 ADD DUP1 PUSH1 0x40 MSTORE POP DUP2 ADD SWAP1 PUSH2 0x1515 SWAP2 SWAP1 PUSH2 0x179E JUMP JUMPDEST SWAP1 POP DUP7 DUP2 PUSH1 0x40 ADD MLOAD GT PUSH2 0x152A JUMPI DUP2 SWAP5 POP PUSH2 0x1538 JUMP JUMPDEST PUSH2 0x1535 PUSH1 0x1 DUP4 PUSH2 0x1757 JUMP JUMPDEST SWAP4 POP JUMPDEST POP POP DUP1 DUP1 PUSH2 0x1545 SWAP1 PUSH2 0x173C JUMP JUMPDEST SWAP2 POP POP PUSH2 0x146E JUMP JUMPDEST POP SWAP1 SWAP5 SWAP4 POP POP POP POP JUMP JUMPDEST PUSH1 0x0 DUP2 DUP4 LT PUSH2 0xE05 JUMPI DUP2 PUSH2 0x4DF JUMP JUMPDEST PUSH1 0x0 PUSH1 0x20 DUP3 DUP5 SUB SLT ISZERO PUSH2 0x1578 JUMPI PUSH1 0x0 DUP1 REVERT JUMPDEST POP CALLDATALOAD SWAP2 SWAP1 POP JUMP JUMPDEST PUSH4 0x4E487B71 PUSH1 0xE0 SHL PUSH1 0x0 MSTORE PUSH1 0x41 PUSH1 0x4 MSTORE PUSH1 0x24 PUSH1 0x0 REVERT JUMPDEST PUSH1 0x40 MLOAD PUSH1 0x1F DUP3 ADD PUSH1 0x1F NOT AND DUP2 ADD PUSH8 0xFFFFFFFFFFFFFFFF DUP2 GT DUP3 DUP3 LT OR ISZERO PUSH2 0x15BE JUMPI PUSH2 0x15BE PUSH2 0x157F JUMP JUMPDEST PUSH1 0x40 MSTORE SWAP2 SWAP1 POP JUMP JUMPDEST PUSH1 0x0 PUSH1 0x20 DUP1 DUP4 DUP6 SUB SLT ISZERO PUSH2 0x15D9 JUMPI PUSH1 0x0 DUP1 REVERT JUMPDEST DUP3 CALLDATALOAD PUSH8 0xFFFFFFFFFFFFFFFF DUP1 DUP3 GT ISZERO PUSH2 0x15F1 JUMPI PUSH1 0x0 DUP1 REVERT JUMPDEST DUP2 DUP6 ADD SWAP2 POP DUP6 PUSH1 0x1F DUP4 ADD SLT PUSH2 0x1605 JUMPI PUSH1 0x0 DUP1 REVERT JUMPDEST DUP2 CALLDATALOAD DUP2 DUP2 GT ISZERO PUSH2 0x1617 JUMPI PUSH2 0x1617 PUSH2 0x157F JUMP JUMPDEST DUP1 PUSH1 0x5 SHL SWAP2 POP PUSH2 0x1628 DUP5 DUP4 ADD PUSH2 0x1595 JUMP JUMPDEST DUP2 DUP2 MSTORE SWAP2 DUP4 ADD DUP5 ADD SWAP2 DUP5 DUP2 ADD SWAP1 DUP9 DUP5 GT ISZERO PUSH2 0x1642 JUMPI PUSH1 0x0 DUP1 REVERT JUMPDEST SWAP4 DUP6 ADD SWAP4 JUMPDEST DUP4 DUP6 LT ISZERO PUSH2 0x1660 JUMPI DUP5 CALLDATALOAD DUP3 MSTORE SWAP4 DUP6 ADD SWAP4 SWAP1 DUP6 ADD SWAP1 PUSH2 0x1647 JUMP JUMPDEST SWAP9 SWAP8 POP POP POP POP POP POP POP POP JUMP JUMPDEST PUSH1 0x0 DUP1 PUSH1 0x40 DUP4 DUP6 SUB SLT ISZERO PUSH2 0x167F JUMPI PUSH1 0x0 DUP1 REVERT JUMPDEST POP POP DUP1 CALLDATALOAD SWAP3 PUSH1 0x20 SWAP1 SWAP2 ADD CALLDATALOAD SWAP2 POP JUMP JUMPDEST PUSH1 0x0 PUSH1 0x20 DUP3 DUP5 SUB SLT ISZERO PUSH2 0x16A0 JUMPI PUSH1 0x0 DUP1 REVERT JUMPDEST DUP2 CALLDATALOAD PUSH1 0x1 PUSH1 0x1 PUSH1 0xA0 SHL SUB DUP2 AND DUP2 EQ PUSH2 0x4DF JUMPI PUSH1 0x0 DUP1 REVERT JUMPDEST PUSH4 0x4E487B71 PUSH1 0xE0 SHL PUSH1 0x0 MSTORE PUSH1 0x11 PUSH1 0x4 MSTORE PUSH1 0x24 PUSH1 0x0 REVERT JUMPDEST PUSH1 0x0 DUP3 PUSH2 0x16EA JUMPI PUSH4 0x4E487B71 PUSH1 0xE0 SHL PUSH1 0x0 MSTORE PUSH1 0x12 PUSH1 0x4 MSTORE PUSH1 0x24 PUSH1 0x0 REVERT JUMPDEST POP DIV SWAP1 JUMP JUMPDEST PUSH1 0x0 DUP2 PUSH1 0x0 NOT DIV DUP4 GT DUP3 ISZERO ISZERO AND ISZERO PUSH2 0x1709 JUMPI PUSH2 0x1709 PUSH2 0x16B7 JUMP JUMPDEST POP MUL SWAP1 JUMP JUMPDEST PUSH4 0x4E487B71 PUSH1 0xE0 SHL PUSH1 0x0 MSTORE PUSH1 0x32 PUSH1 0x4 MSTORE PUSH1 0x24 PUSH1 0x0 REVERT JUMPDEST PUSH1 0x0 DUP3 NOT DUP3 GT ISZERO PUSH2 0x1737 JUMPI PUSH2 0x1737 PUSH2 0x16B7 JUMP JUMPDEST POP ADD SWAP1 JUMP JUMPDEST PUSH1 0x0 PUSH1 0x0 NOT DUP3 EQ ISZERO PUSH2 0x1750 JUMPI PUSH2 0x1750 PUSH2 0x16B7 JUMP JUMPDEST POP PUSH1 0x1 ADD SWAP1 JUMP JUMPDEST PUSH1 0x0 DUP3 DUP3 LT ISZERO PUSH2 0x1769 JUMPI PUSH2 0x1769 PUSH2 0x16B7 JUMP JUMPDEST POP SUB SWAP1 JUMP JUMPDEST PUSH1 0x0 PUSH1 0x20 DUP3 DUP5 SUB SLT ISZERO PUSH2 0x1780 JUMPI PUSH1 0x0 DUP1 REVERT JUMPDEST POP MLOAD SWAP2 SWAP1 POP JUMP JUMPDEST DUP1 MLOAD PUSH1 0xF DUP2 SWAP1 SIGNEXTEND DUP2 EQ PUSH2 0x1799 JUMPI PUSH1 0x0 DUP1 REVERT JUMPDEST SWAP2 SWAP1 POP JUMP JUMPDEST PUSH1 0x0 PUSH1 0x80 DUP3 DUP5 SUB SLT ISZERO PUSH2 0x17B0 JUMPI PUSH1 0x0 DUP1 REVERT JUMPDEST PUSH1 0x40 MLOAD PUSH1 0x80 DUP2 ADD DUP2 DUP2 LT PUSH8 0xFFFFFFFFFFFFFFFF DUP3 GT OR ISZERO PUSH2 0x17D3 JUMPI PUSH2 0x17D3 PUSH2 0x157F JUMP JUMPDEST PUSH1 0x40 MSTORE PUSH2 0x17DF DUP4 PUSH2 0x1787 JUMP JUMPDEST DUP2 MSTORE PUSH2 0x17ED PUSH1 0x20 DUP5 ADD PUSH2 0x1787 JUMP JUMPDEST PUSH1 0x20 DUP3 ADD MSTORE PUSH1 0x40 DUP4 ADD MLOAD PUSH1 0x40 DUP3 ADD MSTORE PUSH1 0x60 DUP4 ADD MLOAD PUSH1 0x60 DUP3 ADD MSTORE DUP1 SWAP2 POP POP SWAP3 SWAP2 POP POP JUMP JUMPDEST PUSH1 0x0 DUP2 PUSH1 0xF SIGNEXTEND DUP4 PUSH1 0xF SIGNEXTEND PUSH1 0x1 PUSH1 0x1 PUSH1 0x7F SHL SUB PUSH1 0x0 DUP3 SGT PUSH1 0x0 DUP5 SGT DUP4 DUP4 DIV DUP6 GT DUP3 DUP3 AND AND ISZERO PUSH2 0x1840 JUMPI PUSH2 0x1840 PUSH2 0x16B7 JUMP JUMPDEST PUSH16 0x7FFFFFFFFFFFFFFFFFFFFFFFFFFFFFFF NOT PUSH1 0x0 DUP6 SLT DUP3 DUP2 AND DUP8 DUP4 SDIV DUP8 SLT AND ISZERO PUSH2 0x186C JUMPI PUSH2 0x186C PUSH2 0x16B7 JUMP JUMPDEST PUSH1 0x0 DUP8 SLT SWAP3 POP DUP6 DUP3 SDIV DUP8 SLT DUP5 DUP5 AND AND ISZERO PUSH2 0x1888 JUMPI PUSH2 0x1888 PUSH2 0x16B7 JUMP JUMPDEST DUP6 DUP6 SDIV DUP8 SLT DUP2 DUP5 AND AND ISZERO PUSH2 0x189E JUMPI PUSH2 0x189E PUSH2 0x16B7 JUMP JUMPDEST POP POP POP SWAP3 SWAP1 SWAP2 MUL SWAP6 SWAP5 POP POP POP POP POP JUMP JUMPDEST PUSH1 0x0 DUP2 PUSH1 0xF SIGNEXTEND DUP4 PUSH1 0xF SIGNEXTEND PUSH1 0x0 DUP2 SLT DUP2 PUSH1 0x1 PUSH1 0x1 PUSH1 0x7F SHL SUB NOT ADD DUP4 SLT DUP2 ISZERO AND ISZERO PUSH2 0x18D9 JUMPI PUSH2 0x18D9 PUSH2 0x16B7 JUMP JUMPDEST DUP2 PUSH1 0x1 PUSH1 0x1 PUSH1 0x7F SHL SUB ADD DUP4 SGT DUP2 AND ISZERO PUSH2 0x18F4 JUMPI PUSH2 0x18F4 PUSH2 0x16B7 JUMP JUMPDEST POP SWAP1 SUB SWAP4 SWAP3 POP POP POP JUMP JUMPDEST PUSH4 0x4E487B71 PUSH1 0xE0 SHL PUSH1 0x0 MSTORE PUSH1 0x1 PUSH1 0x4 MSTORE PUSH1 0x24 PUSH1 0x0 REVERT INVALID LOG2 PUSH5 0x6970667358 0x22 SLT KECCAK256 0x5C 0xEE SAR 0xED 0xB9 DUP5 SLOAD OR DIV 0xBE 0x1E EXTCODESIZE EXTCODEHASH 0xA5 POP 0x23 0xE3 PUSH6 0xFF1C850DBE80 0xCD 0xA5 BASEFEE LOG1 CODECOPY 0xDA 0xC2 DUP8 PUSH5 0x736F6C6343 STOP ADDMOD SIGNEXTEND STOP CALLER "
        },
        "methodIdentifiers": {
          "checkpoint_token()": "811a40fe",
          "checkpoint_total_supply()": "b21ed502",
          "claim(uint256)": "379607f5",
          "claim_many(uint256[])": "1f1db043",
          "claimable(uint256)": "d1d58b25",
          "depositor()": "c7c4ff46",
          "last_token_time()": "7f58e8f8",
          "setDepositor(address)": "f2c098b7",
          "start_time()": "834ee417",
          "time_cursor()": "127dcbd3",
          "time_cursor_of(uint256)": "486d25fe",
          "timestamp()": "b80777ea",
          "token()": "fc0c546a",
          "token_last_balance()": "22b04bfc",
          "tokens_per_week(uint256)": "edf59997",
          "user_epoch_of(uint256)": "16aea5c0",
          "ve_for_at(uint256,uint256)": "68809889",
          "ve_supply(uint256)": "d4dafba8",
          "voting_escrow()": "dfe05031"
        }
      }
    }
  }
}