{
  "contracts/Fetch.sol": {
    "Fetch": {
      "abi": [
        {
          "inputs": [
            {
              "internalType": "address",
              "name": "_dexRouter",
              "type": "address"
            },
            {
              "internalType": "address",
              "name": "_token",
              "type": "address"
            },
            {
              "internalType": "address",
              "name": "_beneficiary",
              "type": "address"
            },
            {
              "internalType": "address",
              "name": "_minter",
              "type": "address"
            },
            {
              "internalType": "address",
              "name": "_VE",
              "type": "address"
            },
            {
              "internalType": "address",
              "name": "_treasury",
              "type": "address"
            },
            {
              "internalType": "address",
              "name": "_formula",
              "type": "address"
            },
            {
              "internalType": "uint256",
              "name": "_minLockTime",
              "type": "uint256"
            }
          ],
          "stateMutability": "nonpayable",
          "type": "constructor"
        },
        {
          "anonymous": false,
          "inputs": [
            {
              "indexed": true,
              "internalType": "address",
              "name": "previousOwner",
              "type": "address"
            },
            {
              "indexed": true,
              "internalType": "address",
              "name": "newOwner",
              "type": "address"
            }
          ],
          "name": "OwnershipTransferred",
          "type": "event"
        },
        {
          "inputs": [],
          "name": "VE",
          "outputs": [
            {
              "internalType": "contract IVE",
              "name": "",
              "type": "address"
            }
          ],
          "stateMutability": "view",
          "type": "function"
        },
        {
          "inputs": [],
          "name": "WETH",
          "outputs": [
            {
              "internalType": "address",
              "name": "",
              "type": "address"
            }
          ],
          "stateMutability": "view",
          "type": "function"
        },
        {
          "inputs": [],
          "name": "beneficiary",
          "outputs": [
            {
              "internalType": "address",
              "name": "",
              "type": "address"
            }
          ],
          "stateMutability": "view",
          "type": "function"
        },
        {
          "inputs": [
            {
              "internalType": "uint256",
              "name": "ethInput",
              "type": "uint256"
            }
          ],
          "name": "calculateToSplit",
          "outputs": [
            {
              "internalType": "uint256",
              "name": "ethToDex",
              "type": "uint256"
            },
            {
              "internalType": "uint256",
              "name": "ethToSale",
              "type": "uint256"
            }
          ],
          "stateMutability": "view",
          "type": "function"
        },
        {
          "inputs": [
            {
              "internalType": "uint256",
              "name": "_lockTime",
              "type": "uint256"
            }
          ],
          "name": "convert",
          "outputs": [],
          "stateMutability": "payable",
          "type": "function"
        },
        {
          "inputs": [
            {
              "internalType": "address",
              "name": "receiver",
              "type": "address"
            },
            {
              "internalType": "uint256",
              "name": "_lockTime",
              "type": "uint256"
            }
          ],
          "name": "convertFor",
          "outputs": [],
          "stateMutability": "payable",
          "type": "function"
        },
        {
          "inputs": [
            {
              "internalType": "uint256",
              "name": "_amount",
              "type": "uint256"
            },
            {
              "internalType": "uint256",
              "name": "_lockTime",
              "type": "uint256"
            }
          ],
          "name": "depositToken",
          "outputs": [],
          "stateMutability": "nonpayable",
          "type": "function"
        },
        {
          "inputs": [],
          "name": "dexRouter",
          "outputs": [
            {
              "internalType": "address",
              "name": "",
              "type": "address"
            }
          ],
          "stateMutability": "view",
          "type": "function"
        },
        {
          "inputs": [],
          "name": "formula",
          "outputs": [
            {
              "internalType": "contract IFetchFormula",
              "name": "",
              "type": "address"
            }
          ],
          "stateMutability": "view",
          "type": "function"
        },
        {
          "inputs": [
            {
              "internalType": "uint256",
              "name": "_ethAmount",
              "type": "uint256"
            }
          ],
          "name": "getTokenPrice",
          "outputs": [
            {
              "internalType": "uint256",
              "name": "",
              "type": "uint256"
            }
          ],
          "stateMutability": "view",
          "type": "function"
        },
        {
          "inputs": [],
          "name": "minLockTime",
          "outputs": [
            {
              "internalType": "uint256",
              "name": "",
              "type": "uint256"
            }
          ],
          "stateMutability": "view",
          "type": "function"
        },
        {
          "inputs": [],
          "name": "minter",
          "outputs": [
            {
              "internalType": "contract IMinter",
              "name": "",
              "type": "address"
            }
          ],
          "stateMutability": "view",
          "type": "function"
        },
        {
          "inputs": [],
          "name": "owner",
          "outputs": [
            {
              "internalType": "address",
              "name": "",
              "type": "address"
            }
          ],
          "stateMutability": "view",
          "type": "function"
        },
        {
          "inputs": [],
          "name": "percentToDex",
          "outputs": [
            {
              "internalType": "uint256",
              "name": "",
              "type": "uint256"
            }
          ],
          "stateMutability": "view",
          "type": "function"
        },
        {
          "inputs": [],
          "name": "percentToSale",
          "outputs": [
            {
              "internalType": "uint256",
              "name": "",
              "type": "uint256"
            }
          ],
          "stateMutability": "view",
          "type": "function"
        },
        {
          "inputs": [],
          "name": "renounceOwnership",
          "outputs": [],
          "stateMutability": "nonpayable",
          "type": "function"
        },
        {
          "inputs": [],
          "name": "token",
          "outputs": [
            {
              "internalType": "address",
              "name": "",
              "type": "address"
            }
          ],
          "stateMutability": "view",
          "type": "function"
        },
        {
          "inputs": [
            {
              "internalType": "address",
              "name": "newOwner",
              "type": "address"
            }
          ],
          "name": "transferOwnership",
          "outputs": [],
          "stateMutability": "nonpayable",
          "type": "function"
        },
        {
          "inputs": [],
          "name": "treasury",
          "outputs": [
            {
              "internalType": "address",
              "name": "",
              "type": "address"
            }
          ],
          "stateMutability": "view",
          "type": "function"
        },
        {
          "inputs": [
            {
              "internalType": "address",
              "name": "_formula",
              "type": "address"
            }
          ],
          "name": "updateFormula",
          "outputs": [],
          "stateMutability": "nonpayable",
          "type": "function"
        },
        {
          "inputs": [
            {
              "internalType": "address",
              "name": "_minter",
              "type": "address"
            }
          ],
          "name": "updateMinter",
          "outputs": [],
          "stateMutability": "nonpayable",
          "type": "function"
        },
        {
          "inputs": [
            {
              "internalType": "uint256",
              "name": "_percentToDex",
              "type": "uint256"
            },
            {
              "internalType": "uint256",
              "name": "_percentToSale",
              "type": "uint256"
            }
          ],
          "name": "updateSplitPercent",
          "outputs": [],
          "stateMutability": "nonpayable",
          "type": "function"
        },
        {
          "inputs": [],
          "name": "withdraw",
          "outputs": [],
          "stateMutability": "nonpayable",
          "type": "function"
        },
        {
          "stateMutability": "payable",
          "type": "receive"
        }
      ],
      "evm": {
        "bytecode": {
          "linkReferences": {},
          "object": "6080604052602160055560436006553480156200001b57600080fd5b5060405162001a3638038062001a368339810160408190526200003e91620001be565b620000493362000151565b600380546001600160a01b0319166001600160a01b038a1690811790915560408051637a7a2da360e11b8152905163f4f45b46916004808201926020929091908290030181865afa158015620000a3573d6000803e3d6000fd5b505050506040513d601f19601f82011682018060405250810190620000c991906200025d565b600180546001600160a01b03199081166001600160a01b039384161790915560048054821699831699909917909855600780548916978216979097179096556008805488169587169590951790945560028054871693861693909317909255600980548616918516919091179055600a8054909416921691909117909155600b555062000282565b600080546001600160a01b038381166001600160a01b0319831681178455604051919092169283917f8be0079c531659141344cd1fd0a4f28419497f9722a3daafe3b4186f6b6457e09190a35050565b80516001600160a01b0381168114620001b957600080fd5b919050565b600080600080600080600080610100898b031215620001dc57600080fd5b620001e789620001a1565b9750620001f760208a01620001a1565b96506200020760408a01620001a1565b95506200021760608a01620001a1565b94506200022760808a01620001a1565b93506200023760a08a01620001a1565b92506200024760c08a01620001a1565b915060e089015190509295985092959890939650565b6000602082840312156200027057600080fd5b6200027b82620001a1565b9392505050565b6117a480620002926000396000f3fe6080604052600436106101445760003560e01c80639d2d04d1116100b6578063c757e5b51161006f578063c757e5b51461036c578063c863657d1461038c578063d5b49a71146103ac578063dfa53724146103cc578063f2fde38b146103e2578063fc0c546a1461040257600080fd5b80639d2d04d1146102d0578063a3908e1b146102f0578063a60ff76614610303578063aaa0736214610319578063ad5c46481461032c578063c457fb371461034c57600080fd5b80634b75f54f116101085780634b75f54f146102195780634eb03f6e146102395780634f783ed01461025957806361d027b31461027d578063715018a61461029d5780638da5cb5b146102b257600080fd5b806307546172146101505780630758d9241461018d57806338af3eed146101ad5780633a5b08e7146101cd5780633ccfd60b1461020257600080fd5b3661014b57005b600080fd5b34801561015c57600080fd5b50600854610170906001600160a01b031681565b6040516001600160a01b0390911681526020015b60405180910390f35b34801561019957600080fd5b50600354610170906001600160a01b031681565b3480156101b957600080fd5b50600754610170906001600160a01b031681565b3480156101d957600080fd5b506101ed6101e83660046113d1565b610422565b60408051928352602083019190915201610184565b34801561020e57600080fd5b50610217610438565b005b34801561022557600080fd5b50600a54610170906001600160a01b031681565b34801561024557600080fd5b50610217610254366004611406565b6104a8565b34801561026557600080fd5b5061026f60065481565b604051908152602001610184565b34801561028957600080fd5b50600954610170906001600160a01b031681565b3480156102a957600080fd5b506102176104f4565b3480156102be57600080fd5b506000546001600160a01b0316610170565b3480156102dc57600080fd5b506102176102eb366004611421565b61052a565b6102176102fe3660046113d1565b610794565b34801561030f57600080fd5b5061026f600b5481565b610217610327366004611443565b61079e565b34801561033857600080fd5b50600154610170906001600160a01b031681565b34801561035857600080fd5b5061026f6103673660046113d1565b6107ac565b34801561037857600080fd5b50610217610387366004611421565b610930565b34801561039857600080fd5b50600254610170906001600160a01b031681565b3480156103b857600080fd5b506102176103c7366004611406565b6109b2565b3480156103d857600080fd5b5061026f60055481565b3480156103ee57600080fd5b506102176103fd366004611406565b6109fe565b34801561040e57600080fd5b50600454610170906001600160a01b031681565b60008061042e83610a96565b9094909350915050565b6000546001600160a01b0316331461046b5760405162461bcd60e51b81526004016104629061146d565b60405180910390fd5b600080546040516001600160a01b03909116914780156108fc02929091818181858888f193505050501580156104a5573d6000803e3d6000fd5b50565b6000546001600160a01b031633146104d25760405162461bcd60e51b81526004016104629061146d565b600880546001600160a01b0319166001600160a01b0392909216919091179055565b6000546001600160a01b0316331461051e5760405162461bcd60e51b81526004016104629061146d565b6105286000610acf565b565b600480546040516323b872dd60e01b81523392810192909252306024830152604482018490526001600160a01b0316906323b872dd906064016020604051808303816000875af1158015610582573d6000803e3d6000fd5b505050506040513d601f19601f820116820180604052508101906105a691906114a2565b50600a5460405163faf1ebfd60e01b8152600481018390526000916001600160a01b03169063faf1ebfd90602401602060405180830381865afa1580156105f1573d6000803e3d6000fd5b505050506040513d601f19601f8201168201806040525081019061061591906114c4565b905060008115610694576106348261062e866064610b1f565b90610b6a565b600854604051632279773760e11b8152600481018390529192506001600160a01b0316906344f2ee6e90602401600060405180830381600087803b15801561067b57600080fd5b505af115801561068f573d6000803e3d6000fd5b505050505b60006106a08583610be9565b6004805460025460405163095ea7b360e01b81526001600160a01b039182169381019390935260248301849052929350919091169063095ea7b3906044016020604051808303816000875af11580156106fd573d6000803e3d6000fd5b505050506040513d601f19601f8201168201806040525081019061072191906114a2565b5060025460405163d4e54c3b60e01b815260048101839052602481018690523360448201526001600160a01b039091169063d4e54c3b90606401600060405180830381600087803b15801561077557600080fd5b505af1158015610789573d6000803e3d6000fd5b505050505050505050565b6104a53382610c48565b6107a88282610c48565b5050565b604080516001808252818301909252600091829190816020015b60408051606081018252600080825260208083018290529282015282526000199092019101816107c657505060015481519192506001600160a01b0316908290600090610815576108156114f3565b60209081029190910101516001600160a01b03918216905260045482519116908290600090610846576108466114f3565b6020026020010151602001906001600160a01b031690816001600160a01b03168152505060008160008151811061087f5761087f6114f3565b602090810291909101015190151560409182015260035490516326207f2d60e21b81526000916001600160a01b031690639881fcb4906108c59087908690600401611568565b600060405180830381865afa1580156108e2573d6000803e3d6000fd5b505050506040513d6000823e601f3d908101601f1916820160405261090a9190810190611589565b90508060018151811061091f5761091f6114f3565b602002602001015192505050919050565b6000546001600160a01b0316331461095a5760405162461bcd60e51b81526004016104629061146d565b6000610966828461165d565b9050806064146109a65760405162461bcd60e51b815260206004820152600b60248201526a15dc9bdb99c81d1bdd185b60aa1b6044820152606401610462565b50600591909155600655565b6000546001600160a01b031633146109dc5760405162461bcd60e51b81526004016104629061146d565b600a80546001600160a01b0319166001600160a01b0392909216919091179055565b6000546001600160a01b03163314610a285760405162461bcd60e51b81526004016104629061146d565b6001600160a01b038116610a8d5760405162461bcd60e51b815260206004820152602660248201527f4f776e61626c653a206e6577206f776e657220697320746865207a65726f206160448201526564647265737360d01b6064820152608401610462565b6104a581610acf565b600080610ab360055461062e606486610b1f90919063ffffffff16565b600654909250610ac89061062e856064610b1f565b9050915091565b600080546001600160a01b038381166001600160a01b0319831681178455604051919092169283917f8be0079c531659141344cd1fd0a4f28419497f9722a3daafe3b4186f6b6457e09190a35050565b6000610b6183836040518060400160405280601a81526020017f536166654d6174683a206469766973696f6e206279207a65726f000000000000815250610f66565b90505b92915050565b600082610b7957506000610b64565b6000610b858385611675565b905082610b928583611694565b14610b615760405162461bcd60e51b815260206004820152602160248201527f536166654d6174683a206d756c7469706c69636174696f6e206f766572666c6f6044820152607760f81b6064820152608401610462565b600080610bf6838561165d565b905083811015610b615760405162461bcd60e51b815260206004820152601b60248201527f536166654d6174683a206164646974696f6e206f766572666c6f7700000000006044820152606401610462565b600b54811015610c8a5760405162461bcd60e51b815260206004820152600d60248201526c6d696e206c6f636b2074696d6560981b6044820152606401610462565b60003411610cc65760405162461bcd60e51b81526020600482015260096024820152680f4cae4e4de40cae8d60bb1b6044820152606401610462565b610ccf34610f9d565b600a5460405163faf1ebfd60e01b8152600481018390526000916001600160a01b03169063faf1ebfd90602401602060405180830381865afa158015610d19573d6000803e3d6000fd5b505050506040513d601f19601f82011682018060405250810190610d3d91906114c4565b90508015610dc5576000610d50346107ac565b90506000610d638361062e846064610b1f565b600854604051632279773760e11b8152600481018390529192506001600160a01b0316906344f2ee6e90602401600060405180830381600087803b158015610daa57600080fd5b505af1158015610dbe573d6000803e3d6000fd5b5050505050505b600480546040516370a0823160e01b815230928101929092526000916001600160a01b03909116906370a0823190602401602060405180830381865afa158015610e13573d6000803e3d6000fd5b505050506040513d601f19601f82011682018060405250810190610e3791906114c4565b905060008111610e775760405162461bcd60e51b815260206004820152600b60248201526a1b9bdd081cddd85c1c195960aa1b6044820152606401610462565b6004805460025460405163095ea7b360e01b81526001600160a01b039182169381019390935260248301849052169063095ea7b3906044016020604051808303816000875af1158015610ece573d6000803e3d6000fd5b505050506040513d601f19601f82011682018060405250810190610ef291906114a2565b5060025460405163d4e54c3b60e01b815260048101839052602481018590526001600160a01b0386811660448301529091169063d4e54c3b90606401600060405180830381600087803b158015610f4857600080fd5b505af1158015610f5c573d6000803e3d6000fd5b5050505050505050565b60008183610f875760405162461bcd60e51b815260040161046291906116b6565b506000610f948486611694565b95945050505050565b600080610fa983610422565b90925090508115610fd157600354600454610fd1916001600160a01b03908116911684610fe5565b8015610fe057610fe08161115d565b505050565b604080516001808252818301909252600091816020015b6040805160608101825260008082526020808301829052928201528252600019909201910181610ffc57505060015481519192506001600160a01b031690829060009061104b5761104b6114f3565b6020026020010151600001906001600160a01b031690816001600160a01b0316815250508281600081518110611083576110836114f3565b6020026020010151602001906001600160a01b031690816001600160a01b0316815250506000816000815181106110bc576110bc6114f3565b60209081029190910101519015156040909101526001600160a01b03841663e8ef468183600184306110f04261070861165d565b6040518663ffffffff1660e01b815260040161110f949392919061170b565b60006040518083038185885af115801561112d573d6000803e3d6000fd5b50505050506040513d6000823e601f3d908101601f191682016040526111569190810190611589565b5050505050565b6000611168826107ac565b600854604051632279773760e11b8152600481018390529192506001600160a01b0316906344f2ee6e90602401600060405180830381600087803b1580156111af57600080fd5b505af11580156111c3573d6000803e3d6000fd5b5050505060006111dd600284610b1f90919063ffffffff16565b6007546040519192506001600160a01b03169082156108fc029083906000818181858888f19350505050158015611218573d6000803e3d6000fd5b50610fe0816000611228826107ac565b600854604051632279773760e11b8152600481018390529192506001600160a01b0316906344f2ee6e90602401600060405180830381600087803b15801561126f57600080fd5b505af1158015611283573d6000803e3d6000fd5b50506004805460035460405163095ea7b360e01b81526001600160a01b03918216938101939093526024830186905216925063095ea7b391506044016020604051808303816000875af11580156112de573d6000803e3d6000fd5b505050506040513d601f19601f8201168201806040525081019061130291906114a2565b506003546004546009546001600160a01b039283169263578caf32928692908216916000918791839182911661133a4261038461165d565b60405160e08a901b6001600160e01b03191681526001600160a01b039788166004820152951515602487015260448601949094526064850192909252608484015290921660a482015260c481019190915260e40160606040518083038185885af11580156113ac573d6000803e3d6000fd5b50505050506040513d601f19601f820116820180604052508101906111569190611740565b6000602082840312156113e357600080fd5b5035919050565b80356001600160a01b038116811461140157600080fd5b919050565b60006020828403121561141857600080fd5b610b61826113ea565b6000806040838503121561143457600080fd5b50508035926020909101359150565b6000806040838503121561145657600080fd5b61145f836113ea565b946020939093013593505050565b6020808252818101527f4f776e61626c653a2063616c6c6572206973206e6f7420746865206f776e6572604082015260600190565b6000602082840312156114b457600080fd5b81518015158114610b6157600080fd5b6000602082840312156114d657600080fd5b5051919050565b634e487b7160e01b600052604160045260246000fd5b634e487b7160e01b600052603260045260246000fd5b600081518084526020808501945080840160005b8381101561155d57815180516001600160a01b0390811689528482015116848901526040908101511515908801526060909601959082019060010161151d565b509495945050505050565b8281526040602082015260006115816040830184611509565b949350505050565b6000602080838503121561159c57600080fd5b825167ffffffffffffffff808211156115b457600080fd5b818501915085601f8301126115c857600080fd5b8151818111156115da576115da6114dd565b8060051b604051601f19603f830116810181811085821117156115ff576115ff6114dd565b60405291825284820192508381018501918883111561161d57600080fd5b938501935b8285101561163b57845184529385019392850192611622565b98975050505050505050565b634e487b7160e01b600052601160045260246000fd5b6000821982111561167057611670611647565b500190565b600081600019048311821515161561168f5761168f611647565b500290565b6000826116b157634e487b7160e01b600052601260045260246000fd5b500490565b600060208083528351808285015260005b818110156116e3578581018301518582016040015282016116c7565b818111156116f5576000604083870101525b50601f01601f1916929092016040019392505050565b8481526080602082015260006117246080830186611509565b6001600160a01b03949094166040830152506060015292915050565b60008060006060848603121561175557600080fd5b835192506020840151915060408401519050925092509256fea2646970667358221220ad19ec4cf546c631213790dbd5b5e7573a46ff4e76fd844e3645a59bbf6d3e1f64736f6c634300080b0033",
          "opcodes": "PUSH1 0x80 PUSH1 0x40 MSTORE PUSH1 0x21 PUSH1 0x5 SSTORE PUSH1 0x43 PUSH1 0x6 SSTORE CALLVALUE DUP1 ISZERO PUSH3 0x1B JUMPI PUSH1 0x0 DUP1 REVERT JUMPDEST POP PUSH1 0x40 MLOAD PUSH3 0x1A36 CODESIZE SUB DUP1 PUSH3 0x1A36 DUP4 CODECOPY DUP2 ADD PUSH1 0x40 DUP2 SWAP1 MSTORE PUSH3 0x3E SWAP2 PUSH3 0x1BE JUMP JUMPDEST PUSH3 0x49 CALLER PUSH3 0x151 JUMP JUMPDEST PUSH1 0x3 DUP1 SLOAD PUSH1 0x1 PUSH1 0x1 PUSH1 0xA0 SHL SUB NOT AND PUSH1 0x1 PUSH1 0x1 PUSH1 0xA0 SHL SUB DUP11 AND SWAP1 DUP2 OR SWAP1 SWAP2 SSTORE PUSH1 0x40 DUP1 MLOAD PUSH4 0x7A7A2DA3 PUSH1 0xE1 SHL DUP2 MSTORE SWAP1 MLOAD PUSH4 0xF4F45B46 SWAP2 PUSH1 0x4 DUP1 DUP3 ADD SWAP3 PUSH1 0x20 SWAP3 SWAP1 SWAP2 SWAP1 DUP3 SWAP1 SUB ADD DUP2 DUP7 GAS STATICCALL ISZERO DUP1 ISZERO PUSH3 0xA3 JUMPI RETURNDATASIZE PUSH1 0x0 DUP1 RETURNDATACOPY RETURNDATASIZE PUSH1 0x0 REVERT JUMPDEST POP POP POP POP PUSH1 0x40 MLOAD RETURNDATASIZE PUSH1 0x1F NOT PUSH1 0x1F DUP3 ADD AND DUP3 ADD DUP1 PUSH1 0x40 MSTORE POP DUP2 ADD SWAP1 PUSH3 0xC9 SWAP2 SWAP1 PUSH3 0x25D JUMP JUMPDEST PUSH1 0x1 DUP1 SLOAD PUSH1 0x1 PUSH1 0x1 PUSH1 0xA0 SHL SUB NOT SWAP1 DUP2 AND PUSH1 0x1 PUSH1 0x1 PUSH1 0xA0 SHL SUB SWAP4 DUP5 AND OR SWAP1 SWAP2 SSTORE PUSH1 0x4 DUP1 SLOAD DUP3 AND SWAP10 DUP4 AND SWAP10 SWAP1 SWAP10 OR SWAP1 SWAP9 SSTORE PUSH1 0x7 DUP1 SLOAD DUP10 AND SWAP8 DUP3 AND SWAP8 SWAP1 SWAP8 OR SWAP1 SWAP7 SSTORE PUSH1 0x8 DUP1 SLOAD DUP9 AND SWAP6 DUP8 AND SWAP6 SWAP1 SWAP6 OR SWAP1 SWAP5 SSTORE PUSH1 0x2 DUP1 SLOAD DUP8 AND SWAP4 DUP7 AND SWAP4 SWAP1 SWAP4 OR SWAP1 SWAP3 SSTORE PUSH1 0x9 DUP1 SLOAD DUP7 AND SWAP2 DUP6 AND SWAP2 SWAP1 SWAP2 OR SWAP1 SSTORE PUSH1 0xA DUP1 SLOAD SWAP1 SWAP5 AND SWAP3 AND SWAP2 SWAP1 SWAP2 OR SWAP1 SWAP2 SSTORE PUSH1 0xB SSTORE POP PUSH3 0x282 JUMP JUMPDEST PUSH1 0x0 DUP1 SLOAD PUSH1 0x1 PUSH1 0x1 PUSH1 0xA0 SHL SUB DUP4 DUP2 AND PUSH1 0x1 PUSH1 0x1 PUSH1 0xA0 SHL SUB NOT DUP4 AND DUP2 OR DUP5 SSTORE PUSH1 0x40 MLOAD SWAP2 SWAP1 SWAP3 AND SWAP3 DUP4 SWAP2 PUSH32 0x8BE0079C531659141344CD1FD0A4F28419497F9722A3DAAFE3B4186F6B6457E0 SWAP2 SWAP1 LOG3 POP POP JUMP JUMPDEST DUP1 MLOAD PUSH1 0x1 PUSH1 0x1 PUSH1 0xA0 SHL SUB DUP2 AND DUP2 EQ PUSH3 0x1B9 JUMPI PUSH1 0x0 DUP1 REVERT JUMPDEST SWAP2 SWAP1 POP JUMP JUMPDEST PUSH1 0x0 DUP1 PUSH1 0x0 DUP1 PUSH1 0x0 DUP1 PUSH1 0x0 DUP1 PUSH2 0x100 DUP10 DUP12 SUB SLT ISZERO PUSH3 0x1DC JUMPI PUSH1 0x0 DUP1 REVERT JUMPDEST PUSH3 0x1E7 DUP10 PUSH3 0x1A1 JUMP JUMPDEST SWAP8 POP PUSH3 0x1F7 PUSH1 0x20 DUP11 ADD PUSH3 0x1A1 JUMP JUMPDEST SWAP7 POP PUSH3 0x207 PUSH1 0x40 DUP11 ADD PUSH3 0x1A1 JUMP JUMPDEST SWAP6 POP PUSH3 0x217 PUSH1 0x60 DUP11 ADD PUSH3 0x1A1 JUMP JUMPDEST SWAP5 POP PUSH3 0x227 PUSH1 0x80 DUP11 ADD PUSH3 0x1A1 JUMP JUMPDEST SWAP4 POP PUSH3 0x237 PUSH1 0xA0 DUP11 ADD PUSH3 0x1A1 JUMP JUMPDEST SWAP3 POP PUSH3 0x247 PUSH1 0xC0 DUP11 ADD PUSH3 0x1A1 JUMP JUMPDEST SWAP2 POP PUSH1 0xE0 DUP10 ADD MLOAD SWAP1 POP SWAP3 SWAP6 SWAP9 POP SWAP3 SWAP6 SWAP9 SWAP1 SWAP4 SWAP7 POP JUMP JUMPDEST PUSH1 0x0 PUSH1 0x20 DUP3 DUP5 SUB SLT ISZERO PUSH3 0x270 JUMPI PUSH1 0x0 DUP1 REVERT JUMPDEST PUSH3 0x27B DUP3 PUSH3 0x1A1 JUMP JUMPDEST SWAP4 SWAP3 POP POP POP JUMP JUMPDEST PUSH2 0x17A4 DUP1 PUSH3 0x292 PUSH1 0x0 CODECOPY PUSH1 0x0 RETURN INVALID PUSH1 0x80 PUSH1 0x40 MSTORE PUSH1 0x4 CALLDATASIZE LT PUSH2 0x144 JUMPI PUSH1 0x0 CALLDATALOAD PUSH1 0xE0 SHR DUP1 PUSH4 0x9D2D04D1 GT PUSH2 0xB6 JUMPI DUP1 PUSH4 0xC757E5B5 GT PUSH2 0x6F JUMPI DUP1 PUSH4 0xC757E5B5 EQ PUSH2 0x36C JUMPI DUP1 PUSH4 0xC863657D EQ PUSH2 0x38C JUMPI DUP1 PUSH4 0xD5B49A71 EQ PUSH2 0x3AC JUMPI DUP1 PUSH4 0xDFA53724 EQ PUSH2 0x3CC JUMPI DUP1 PUSH4 0xF2FDE38B EQ PUSH2 0x3E2 JUMPI DUP1 PUSH4 0xFC0C546A EQ PUSH2 0x402 JUMPI PUSH1 0x0 DUP1 REVERT JUMPDEST DUP1 PUSH4 0x9D2D04D1 EQ PUSH2 0x2D0 JUMPI DUP1 PUSH4 0xA3908E1B EQ PUSH2 0x2F0 JUMPI DUP1 PUSH4 0xA60FF766 EQ PUSH2 0x303 JUMPI DUP1 PUSH4 0xAAA07362 EQ PUSH2 0x319 JUMPI DUP1 PUSH4 0xAD5C4648 EQ PUSH2 0x32C JUMPI DUP1 PUSH4 0xC457FB37 EQ PUSH2 0x34C JUMPI PUSH1 0x0 DUP1 REVERT JUMPDEST DUP1 PUSH4 0x4B75F54F GT PUSH2 0x108 JUMPI DUP1 PUSH4 0x4B75F54F EQ PUSH2 0x219 JUMPI DUP1 PUSH4 0x4EB03F6E EQ PUSH2 0x239 JUMPI DUP1 PUSH4 0x4F783ED0 EQ PUSH2 0x259 JUMPI DUP1 PUSH4 0x61D027B3 EQ PUSH2 0x27D JUMPI DUP1 PUSH4 0x715018A6 EQ PUSH2 0x29D JUMPI DUP1 PUSH4 0x8DA5CB5B EQ PUSH2 0x2B2 JUMPI PUSH1 0x0 DUP1 REVERT JUMPDEST DUP1 PUSH4 0x7546172 EQ PUSH2 0x150 JUMPI DUP1 PUSH4 0x758D924 EQ PUSH2 0x18D JUMPI DUP1 PUSH4 0x38AF3EED EQ PUSH2 0x1AD JUMPI DUP1 PUSH4 0x3A5B08E7 EQ PUSH2 0x1CD JUMPI DUP1 PUSH4 0x3CCFD60B EQ PUSH2 0x202 JUMPI PUSH1 0x0 DUP1 REVERT JUMPDEST CALLDATASIZE PUSH2 0x14B JUMPI STOP JUMPDEST PUSH1 0x0 DUP1 REVERT JUMPDEST CALLVALUE DUP1 ISZERO PUSH2 0x15C JUMPI PUSH1 0x0 DUP1 REVERT JUMPDEST POP PUSH1 0x8 SLOAD PUSH2 0x170 SWAP1 PUSH1 0x1 PUSH1 0x1 PUSH1 0xA0 SHL SUB AND DUP2 JUMP JUMPDEST PUSH1 0x40 MLOAD PUSH1 0x1 PUSH1 0x1 PUSH1 0xA0 SHL SUB SWAP1 SWAP2 AND DUP2 MSTORE PUSH1 0x20 ADD JUMPDEST PUSH1 0x40 MLOAD DUP1 SWAP2 SUB SWAP1 RETURN JUMPDEST CALLVALUE DUP1 ISZERO PUSH2 0x199 JUMPI PUSH1 0x0 DUP1 REVERT JUMPDEST POP PUSH1 0x3 SLOAD PUSH2 0x170 SWAP1 PUSH1 0x1 PUSH1 0x1 PUSH1 0xA0 SHL SUB AND DUP2 JUMP JUMPDEST CALLVALUE DUP1 ISZERO PUSH2 0x1B9 JUMPI PUSH1 0x0 DUP1 REVERT JUMPDEST POP PUSH1 0x7 SLOAD PUSH2 0x170 SWAP1 PUSH1 0x1 PUSH1 0x1 PUSH1 0xA0 SHL SUB AND DUP2 JUMP JUMPDEST CALLVALUE DUP1 ISZERO PUSH2 0x1D9 JUMPI PUSH1 0x0 DUP1 REVERT JUMPDEST POP PUSH2 0x1ED PUSH2 0x1E8 CALLDATASIZE PUSH1 0x4 PUSH2 0x13D1 JUMP JUMPDEST PUSH2 0x422 JUMP JUMPDEST PUSH1 0x40 DUP1 MLOAD SWAP3 DUP4 MSTORE PUSH1 0x20 DUP4 ADD SWAP2 SWAP1 SWAP2 MSTORE ADD PUSH2 0x184 JUMP JUMPDEST CALLVALUE DUP1 ISZERO PUSH2 0x20E JUMPI PUSH1 0x0 DUP1 REVERT JUMPDEST POP PUSH2 0x217 PUSH2 0x438 JUMP JUMPDEST STOP JUMPDEST CALLVALUE DUP1 ISZERO PUSH2 0x225 JUMPI PUSH1 0x0 DUP1 REVERT JUMPDEST POP PUSH1 0xA SLOAD PUSH2 0x170 SWAP1 PUSH1 0x1 PUSH1 0x1 PUSH1 0xA0 SHL SUB AND DUP2 JUMP JUMPDEST CALLVALUE DUP1 ISZERO PUSH2 0x245 JUMPI PUSH1 0x0 DUP1 REVERT JUMPDEST POP PUSH2 0x217 PUSH2 0x254 CALLDATASIZE PUSH1 0x4 PUSH2 0x1406 JUMP JUMPDEST PUSH2 0x4A8 JUMP JUMPDEST CALLVALUE DUP1 ISZERO PUSH2 0x265 JUMPI PUSH1 0x0 DUP1 REVERT JUMPDEST POP PUSH2 0x26F PUSH1 0x6 SLOAD DUP2 JUMP JUMPDEST PUSH1 0x40 MLOAD SWAP1 DUP2 MSTORE PUSH1 0x20 ADD PUSH2 0x184 JUMP JUMPDEST CALLVALUE DUP1 ISZERO PUSH2 0x289 JUMPI PUSH1 0x0 DUP1 REVERT JUMPDEST POP PUSH1 0x9 SLOAD PUSH2 0x170 SWAP1 PUSH1 0x1 PUSH1 0x1 PUSH1 0xA0 SHL SUB AND DUP2 JUMP JUMPDEST CALLVALUE DUP1 ISZERO PUSH2 0x2A9 JUMPI PUSH1 0x0 DUP1 REVERT JUMPDEST POP PUSH2 0x217 PUSH2 0x4F4 JUMP JUMPDEST CALLVALUE DUP1 ISZERO PUSH2 0x2BE JUMPI PUSH1 0x0 DUP1 REVERT JUMPDEST POP PUSH1 0x0 SLOAD PUSH1 0x1 PUSH1 0x1 PUSH1 0xA0 SHL SUB AND PUSH2 0x170 JUMP JUMPDEST CALLVALUE DUP1 ISZERO PUSH2 0x2DC JUMPI PUSH1 0x0 DUP1 REVERT JUMPDEST POP PUSH2 0x217 PUSH2 0x2EB CALLDATASIZE PUSH1 0x4 PUSH2 0x1421 JUMP JUMPDEST PUSH2 0x52A JUMP JUMPDEST PUSH2 0x217 PUSH2 0x2FE CALLDATASIZE PUSH1 0x4 PUSH2 0x13D1 JUMP JUMPDEST PUSH2 0x794 JUMP JUMPDEST CALLVALUE DUP1 ISZERO PUSH2 0x30F JUMPI PUSH1 0x0 DUP1 REVERT JUMPDEST POP PUSH2 0x26F PUSH1 0xB SLOAD DUP2 JUMP JUMPDEST PUSH2 0x217 PUSH2 0x327 CALLDATASIZE PUSH1 0x4 PUSH2 0x1443 JUMP JUMPDEST PUSH2 0x79E JUMP JUMPDEST CALLVALUE DUP1 ISZERO PUSH2 0x338 JUMPI PUSH1 0x0 DUP1 REVERT JUMPDEST POP PUSH1 0x1 SLOAD PUSH2 0x170 SWAP1 PUSH1 0x1 PUSH1 0x1 PUSH1 0xA0 SHL SUB AND DUP2 JUMP JUMPDEST CALLVALUE DUP1 ISZERO PUSH2 0x358 JUMPI PUSH1 0x0 DUP1 REVERT JUMPDEST POP PUSH2 0x26F PUSH2 0x367 CALLDATASIZE PUSH1 0x4 PUSH2 0x13D1 JUMP JUMPDEST PUSH2 0x7AC JUMP JUMPDEST CALLVALUE DUP1 ISZERO PUSH2 0x378 JUMPI PUSH1 0x0 DUP1 REVERT JUMPDEST POP PUSH2 0x217 PUSH2 0x387 CALLDATASIZE PUSH1 0x4 PUSH2 0x1421 JUMP JUMPDEST PUSH2 0x930 JUMP JUMPDEST CALLVALUE DUP1 ISZERO PUSH2 0x398 JUMPI PUSH1 0x0 DUP1 REVERT JUMPDEST POP PUSH1 0x2 SLOAD PUSH2 0x170 SWAP1 PUSH1 0x1 PUSH1 0x1 PUSH1 0xA0 SHL SUB AND DUP2 JUMP JUMPDEST CALLVALUE DUP1 ISZERO PUSH2 0x3B8 JUMPI PUSH1 0x0 DUP1 REVERT JUMPDEST POP PUSH2 0x217 PUSH2 0x3C7 CALLDATASIZE PUSH1 0x4 PUSH2 0x1406 JUMP JUMPDEST PUSH2 0x9B2 JUMP JUMPDEST CALLVALUE DUP1 ISZERO PUSH2 0x3D8 JUMPI PUSH1 0x0 DUP1 REVERT JUMPDEST POP PUSH2 0x26F PUSH1 0x5 SLOAD DUP2 JUMP JUMPDEST CALLVALUE DUP1 ISZERO PUSH2 0x3EE JUMPI PUSH1 0x0 DUP1 REVERT JUMPDEST POP PUSH2 0x217 PUSH2 0x3FD CALLDATASIZE PUSH1 0x4 PUSH2 0x1406 JUMP JUMPDEST PUSH2 0x9FE JUMP JUMPDEST CALLVALUE DUP1 ISZERO PUSH2 0x40E JUMPI PUSH1 0x0 DUP1 REVERT JUMPDEST POP PUSH1 0x4 SLOAD PUSH2 0x170 SWAP1 PUSH1 0x1 PUSH1 0x1 PUSH1 0xA0 SHL SUB AND DUP2 JUMP JUMPDEST PUSH1 0x0 DUP1 PUSH2 0x42E DUP4 PUSH2 0xA96 JUMP JUMPDEST SWAP1 SWAP5 SWAP1 SWAP4 POP SWAP2 POP POP JUMP JUMPDEST PUSH1 0x0 SLOAD PUSH1 0x1 PUSH1 0x1 PUSH1 0xA0 SHL SUB AND CALLER EQ PUSH2 0x46B JUMPI PUSH1 0x40 MLOAD PUSH3 0x461BCD PUSH1 0xE5 SHL DUP2 MSTORE PUSH1 0x4 ADD PUSH2 0x462 SWAP1 PUSH2 0x146D JUMP JUMPDEST PUSH1 0x40 MLOAD DUP1 SWAP2 SUB SWAP1 REVERT JUMPDEST PUSH1 0x0 DUP1 SLOAD PUSH1 0x40 MLOAD PUSH1 0x1 PUSH1 0x1 PUSH1 0xA0 SHL SUB SWAP1 SWAP2 AND SWAP2 SELFBALANCE DUP1 ISZERO PUSH2 0x8FC MUL SWAP3 SWAP1 SWAP2 DUP2 DUP2 DUP2 DUP6 DUP9 DUP9 CALL SWAP4 POP POP POP POP ISZERO DUP1 ISZERO PUSH2 0x4A5 JUMPI RETURNDATASIZE PUSH1 0x0 DUP1 RETURNDATACOPY RETURNDATASIZE PUSH1 0x0 REVERT JUMPDEST POP JUMP JUMPDEST PUSH1 0x0 SLOAD PUSH1 0x1 PUSH1 0x1 PUSH1 0xA0 SHL SUB AND CALLER EQ PUSH2 0x4D2 JUMPI PUSH1 0x40 MLOAD PUSH3 0x461BCD PUSH1 0xE5 SHL DUP2 MSTORE PUSH1 0x4 ADD PUSH2 0x462 SWAP1 PUSH2 0x146D JUMP JUMPDEST PUSH1 0x8 DUP1 SLOAD PUSH1 0x1 PUSH1 0x1 PUSH1 0xA0 SHL SUB NOT AND PUSH1 0x1 PUSH1 0x1 PUSH1 0xA0 SHL SUB SWAP3 SWAP1 SWAP3 AND SWAP2 SWAP1 SWAP2 OR SWAP1 SSTORE JUMP JUMPDEST PUSH1 0x0 SLOAD PUSH1 0x1 PUSH1 0x1 PUSH1 0xA0 SHL SUB AND CALLER EQ PUSH2 0x51E JUMPI PUSH1 0x40 MLOAD PUSH3 0x461BCD PUSH1 0xE5 SHL DUP2 MSTORE PUSH1 0x4 ADD PUSH2 0x462 SWAP1 PUSH2 0x146D JUMP JUMPDEST PUSH2 0x528 PUSH1 0x0 PUSH2 0xACF JUMP JUMPDEST JUMP JUMPDEST PUSH1 0x4 DUP1 SLOAD PUSH1 0x40 MLOAD PUSH4 0x23B872DD PUSH1 0xE0 SHL DUP2 MSTORE CALLER SWAP3 DUP2 ADD SWAP3 SWAP1 SWAP3 MSTORE ADDRESS PUSH1 0x24 DUP4 ADD MSTORE PUSH1 0x44 DUP3 ADD DUP5 SWAP1 MSTORE PUSH1 0x1 PUSH1 0x1 PUSH1 0xA0 SHL SUB AND SWAP1 PUSH4 0x23B872DD SWAP1 PUSH1 0x64 ADD PUSH1 0x20 PUSH1 0x40 MLOAD DUP1 DUP4 SUB DUP2 PUSH1 0x0 DUP8 GAS CALL ISZERO DUP1 ISZERO PUSH2 0x582 JUMPI RETURNDATASIZE PUSH1 0x0 DUP1 RETURNDATACOPY RETURNDATASIZE PUSH1 0x0 REVERT JUMPDEST POP POP POP POP PUSH1 0x40 MLOAD RETURNDATASIZE PUSH1 0x1F NOT PUSH1 0x1F DUP3 ADD AND DUP3 ADD DUP1 PUSH1 0x40 MSTORE POP DUP2 ADD SWAP1 PUSH2 0x5A6 SWAP2 SWAP1 PUSH2 0x14A2 JUMP JUMPDEST POP PUSH1 0xA SLOAD PUSH1 0x40 MLOAD PUSH4 0xFAF1EBFD PUSH1 0xE0 SHL DUP2 MSTORE PUSH1 0x4 DUP2 ADD DUP4 SWAP1 MSTORE PUSH1 0x0 SWAP2 PUSH1 0x1 PUSH1 0x1 PUSH1 0xA0 SHL SUB AND SWAP1 PUSH4 0xFAF1EBFD SWAP1 PUSH1 0x24 ADD PUSH1 0x20 PUSH1 0x40 MLOAD DUP1 DUP4 SUB DUP2 DUP7 GAS STATICCALL ISZERO DUP1 ISZERO PUSH2 0x5F1 JUMPI RETURNDATASIZE PUSH1 0x0 DUP1 RETURNDATACOPY RETURNDATASIZE PUSH1 0x0 REVERT JUMPDEST POP POP POP POP PUSH1 0x40 MLOAD RETURNDATASIZE PUSH1 0x1F NOT PUSH1 0x1F DUP3 ADD AND DUP3 ADD DUP1 PUSH1 0x40 MSTORE POP DUP2 ADD SWAP1 PUSH2 0x615 SWAP2 SWAP1 PUSH2 0x14C4 JUMP JUMPDEST SWAP1 POP PUSH1 0x0 DUP2 ISZERO PUSH2 0x694 JUMPI PUSH2 0x634 DUP3 PUSH2 0x62E DUP7 PUSH1 0x64 PUSH2 0xB1F JUMP JUMPDEST SWAP1 PUSH2 0xB6A JUMP JUMPDEST PUSH1 0x8 SLOAD PUSH1 0x40 MLOAD PUSH4 0x22797737 PUSH1 0xE1 SHL DUP2 MSTORE PUSH1 0x4 DUP2 ADD DUP4 SWAP1 MSTORE SWAP2 SWAP3 POP PUSH1 0x1 PUSH1 0x1 PUSH1 0xA0 SHL SUB AND SWAP1 PUSH4 0x44F2EE6E SWAP1 PUSH1 0x24 ADD PUSH1 0x0 PUSH1 0x40 MLOAD DUP1 DUP4 SUB DUP2 PUSH1 0x0 DUP8 DUP1 EXTCODESIZE ISZERO DUP1 ISZERO PUSH2 0x67B JUMPI PUSH1 0x0 DUP1 REVERT JUMPDEST POP GAS CALL ISZERO DUP1 ISZERO PUSH2 0x68F JUMPI RETURNDATASIZE PUSH1 0x0 DUP1 RETURNDATACOPY RETURNDATASIZE PUSH1 0x0 REVERT JUMPDEST POP POP POP POP JUMPDEST PUSH1 0x0 PUSH2 0x6A0 DUP6 DUP4 PUSH2 0xBE9 JUMP JUMPDEST PUSH1 0x4 DUP1 SLOAD PUSH1 0x2 SLOAD PUSH1 0x40 MLOAD PUSH4 0x95EA7B3 PUSH1 0xE0 SHL DUP2 MSTORE PUSH1 0x1 PUSH1 0x1 PUSH1 0xA0 SHL SUB SWAP2 DUP3 AND SWAP4 DUP2 ADD SWAP4 SWAP1 SWAP4 MSTORE PUSH1 0x24 DUP4 ADD DUP5 SWAP1 MSTORE SWAP3 SWAP4 POP SWAP2 SWAP1 SWAP2 AND SWAP1 PUSH4 0x95EA7B3 SWAP1 PUSH1 0x44 ADD PUSH1 0x20 PUSH1 0x40 MLOAD DUP1 DUP4 SUB DUP2 PUSH1 0x0 DUP8 GAS CALL ISZERO DUP1 ISZERO PUSH2 0x6FD JUMPI RETURNDATASIZE PUSH1 0x0 DUP1 RETURNDATACOPY RETURNDATASIZE PUSH1 0x0 REVERT JUMPDEST POP POP POP POP PUSH1 0x40 MLOAD RETURNDATASIZE PUSH1 0x1F NOT PUSH1 0x1F DUP3 ADD AND DUP3 ADD DUP1 PUSH1 0x40 MSTORE POP DUP2 ADD SWAP1 PUSH2 0x721 SWAP2 SWAP1 PUSH2 0x14A2 JUMP JUMPDEST POP PUSH1 0x2 SLOAD PUSH1 0x40 MLOAD PUSH4 0xD4E54C3B PUSH1 0xE0 SHL DUP2 MSTORE PUSH1 0x4 DUP2 ADD DUP4 SWAP1 MSTORE PUSH1 0x24 DUP2 ADD DUP7 SWAP1 MSTORE CALLER PUSH1 0x44 DUP3 ADD MSTORE PUSH1 0x1 PUSH1 0x1 PUSH1 0xA0 SHL SUB SWAP1 SWAP2 AND SWAP1 PUSH4 0xD4E54C3B SWAP1 PUSH1 0x64 ADD PUSH1 0x0 PUSH1 0x40 MLOAD DUP1 DUP4 SUB DUP2 PUSH1 0x0 DUP8 DUP1 EXTCODESIZE ISZERO DUP1 ISZERO PUSH2 0x775 JUMPI PUSH1 0x0 DUP1 REVERT JUMPDEST POP GAS CALL ISZERO DUP1 ISZERO PUSH2 0x789 JUMPI RETURNDATASIZE PUSH1 0x0 DUP1 RETURNDATACOPY RETURNDATASIZE PUSH1 0x0 REVERT JUMPDEST POP POP POP POP POP POP POP POP POP JUMP JUMPDEST PUSH2 0x4A5 CALLER DUP3 PUSH2 0xC48 JUMP JUMPDEST PUSH2 0x7A8 DUP3 DUP3 PUSH2 0xC48 JUMP JUMPDEST POP POP JUMP JUMPDEST PUSH1 0x40 DUP1 MLOAD PUSH1 0x1 DUP1 DUP3 MSTORE DUP2 DUP4 ADD SWAP1 SWAP3 MSTORE PUSH1 0x0 SWAP2 DUP3 SWAP2 SWAP1 DUP2 PUSH1 0x20 ADD JUMPDEST PUSH1 0x40 DUP1 MLOAD PUSH1 0x60 DUP2 ADD DUP3 MSTORE PUSH1 0x0 DUP1 DUP3 MSTORE PUSH1 0x20 DUP1 DUP4 ADD DUP3 SWAP1 MSTORE SWAP3 DUP3 ADD MSTORE DUP3 MSTORE PUSH1 0x0 NOT SWAP1 SWAP3 ADD SWAP2 ADD DUP2 PUSH2 0x7C6 JUMPI POP POP PUSH1 0x1 SLOAD DUP2 MLOAD SWAP2 SWAP3 POP PUSH1 0x1 PUSH1 0x1 PUSH1 0xA0 SHL SUB AND SWAP1 DUP3 SWAP1 PUSH1 0x0 SWAP1 PUSH2 0x815 JUMPI PUSH2 0x815 PUSH2 0x14F3 JUMP JUMPDEST PUSH1 0x20 SWAP1 DUP2 MUL SWAP2 SWAP1 SWAP2 ADD ADD MLOAD PUSH1 0x1 PUSH1 0x1 PUSH1 0xA0 SHL SUB SWAP2 DUP3 AND SWAP1 MSTORE PUSH1 0x4 SLOAD DUP3 MLOAD SWAP2 AND SWAP1 DUP3 SWAP1 PUSH1 0x0 SWAP1 PUSH2 0x846 JUMPI PUSH2 0x846 PUSH2 0x14F3 JUMP JUMPDEST PUSH1 0x20 MUL PUSH1 0x20 ADD ADD MLOAD PUSH1 0x20 ADD SWAP1 PUSH1 0x1 PUSH1 0x1 PUSH1 0xA0 SHL SUB AND SWAP1 DUP2 PUSH1 0x1 PUSH1 0x1 PUSH1 0xA0 SHL SUB AND DUP2 MSTORE POP POP PUSH1 0x0 DUP2 PUSH1 0x0 DUP2 MLOAD DUP2 LT PUSH2 0x87F JUMPI PUSH2 0x87F PUSH2 0x14F3 JUMP JUMPDEST PUSH1 0x20 SWAP1 DUP2 MUL SWAP2 SWAP1 SWAP2 ADD ADD MLOAD SWAP1 ISZERO ISZERO PUSH1 0x40 SWAP2 DUP3 ADD MSTORE PUSH1 0x3 SLOAD SWAP1 MLOAD PUSH4 0x26207F2D PUSH1 0xE2 SHL DUP2 MSTORE PUSH1 0x0 SWAP2 PUSH1 0x1 PUSH1 0x1 PUSH1 0xA0 SHL SUB AND SWAP1 PUSH4 0x9881FCB4 SWAP1 PUSH2 0x8C5 SWAP1 DUP8 SWAP1 DUP7 SWAP1 PUSH1 0x4 ADD PUSH2 0x1568 JUMP JUMPDEST PUSH1 0x0 PUSH1 0x40 MLOAD DUP1 DUP4 SUB DUP2 DUP7 GAS STATICCALL ISZERO DUP1 ISZERO PUSH2 0x8E2 JUMPI RETURNDATASIZE PUSH1 0x0 DUP1 RETURNDATACOPY RETURNDATASIZE PUSH1 0x0 REVERT JUMPDEST POP POP POP POP PUSH1 0x40 MLOAD RETURNDATASIZE PUSH1 0x0 DUP3 RETURNDATACOPY PUSH1 0x1F RETURNDATASIZE SWAP1 DUP2 ADD PUSH1 0x1F NOT AND DUP3 ADD PUSH1 0x40 MSTORE PUSH2 0x90A SWAP2 SWAP1 DUP2 ADD SWAP1 PUSH2 0x1589 JUMP JUMPDEST SWAP1 POP DUP1 PUSH1 0x1 DUP2 MLOAD DUP2 LT PUSH2 0x91F JUMPI PUSH2 0x91F PUSH2 0x14F3 JUMP JUMPDEST PUSH1 0x20 MUL PUSH1 0x20 ADD ADD MLOAD SWAP3 POP POP POP SWAP2 SWAP1 POP JUMP JUMPDEST PUSH1 0x0 SLOAD PUSH1 0x1 PUSH1 0x1 PUSH1 0xA0 SHL SUB AND CALLER EQ PUSH2 0x95A JUMPI PUSH1 0x40 MLOAD PUSH3 0x461BCD PUSH1 0xE5 SHL DUP2 MSTORE PUSH1 0x4 ADD PUSH2 0x462 SWAP1 PUSH2 0x146D JUMP JUMPDEST PUSH1 0x0 PUSH2 0x966 DUP3 DUP5 PUSH2 0x165D JUMP JUMPDEST SWAP1 POP DUP1 PUSH1 0x64 EQ PUSH2 0x9A6 JUMPI PUSH1 0x40 MLOAD PUSH3 0x461BCD PUSH1 0xE5 SHL DUP2 MSTORE PUSH1 0x20 PUSH1 0x4 DUP3 ADD MSTORE PUSH1 0xB PUSH1 0x24 DUP3 ADD MSTORE PUSH11 0x15DC9BDB99C81D1BDD185B PUSH1 0xAA SHL PUSH1 0x44 DUP3 ADD MSTORE PUSH1 0x64 ADD PUSH2 0x462 JUMP JUMPDEST POP PUSH1 0x5 SWAP2 SWAP1 SWAP2 SSTORE PUSH1 0x6 SSTORE JUMP JUMPDEST PUSH1 0x0 SLOAD PUSH1 0x1 PUSH1 0x1 PUSH1 0xA0 SHL SUB AND CALLER EQ PUSH2 0x9DC JUMPI PUSH1 0x40 MLOAD PUSH3 0x461BCD PUSH1 0xE5 SHL DUP2 MSTORE PUSH1 0x4 ADD PUSH2 0x462 SWAP1 PUSH2 0x146D JUMP JUMPDEST PUSH1 0xA DUP1 SLOAD PUSH1 0x1 PUSH1 0x1 PUSH1 0xA0 SHL SUB NOT AND PUSH1 0x1 PUSH1 0x1 PUSH1 0xA0 SHL SUB SWAP3 SWAP1 SWAP3 AND SWAP2 SWAP1 SWAP2 OR SWAP1 SSTORE JUMP JUMPDEST PUSH1 0x0 SLOAD PUSH1 0x1 PUSH1 0x1 PUSH1 0xA0 SHL SUB AND CALLER EQ PUSH2 0xA28 JUMPI PUSH1 0x40 MLOAD PUSH3 0x461BCD PUSH1 0xE5 SHL DUP2 MSTORE PUSH1 0x4 ADD PUSH2 0x462 SWAP1 PUSH2 0x146D JUMP JUMPDEST PUSH1 0x1 PUSH1 0x1 PUSH1 0xA0 SHL SUB DUP2 AND PUSH2 0xA8D JUMPI PUSH1 0x40 MLOAD PUSH3 0x461BCD PUSH1 0xE5 SHL DUP2 MSTORE PUSH1 0x20 PUSH1 0x4 DUP3 ADD MSTORE PUSH1 0x26 PUSH1 0x24 DUP3 ADD MSTORE PUSH32 0x4F776E61626C653A206E6577206F776E657220697320746865207A65726F2061 PUSH1 0x44 DUP3 ADD MSTORE PUSH6 0x646472657373 PUSH1 0xD0 SHL PUSH1 0x64 DUP3 ADD MSTORE PUSH1 0x84 ADD PUSH2 0x462 JUMP JUMPDEST PUSH2 0x4A5 DUP2 PUSH2 0xACF JUMP JUMPDEST PUSH1 0x0 DUP1 PUSH2 0xAB3 PUSH1 0x5 SLOAD PUSH2 0x62E PUSH1 0x64 DUP7 PUSH2 0xB1F SWAP1 SWAP2 SWAP1 PUSH4 0xFFFFFFFF AND JUMP JUMPDEST PUSH1 0x6 SLOAD SWAP1 SWAP3 POP PUSH2 0xAC8 SWAP1 PUSH2 0x62E DUP6 PUSH1 0x64 PUSH2 0xB1F JUMP JUMPDEST SWAP1 POP SWAP2 POP SWAP2 JUMP JUMPDEST PUSH1 0x0 DUP1 SLOAD PUSH1 0x1 PUSH1 0x1 PUSH1 0xA0 SHL SUB DUP4 DUP2 AND PUSH1 0x1 PUSH1 0x1 PUSH1 0xA0 SHL SUB NOT DUP4 AND DUP2 OR DUP5 SSTORE PUSH1 0x40 MLOAD SWAP2 SWAP1 SWAP3 AND SWAP3 DUP4 SWAP2 PUSH32 0x8BE0079C531659141344CD1FD0A4F28419497F9722A3DAAFE3B4186F6B6457E0 SWAP2 SWAP1 LOG3 POP POP JUMP JUMPDEST PUSH1 0x0 PUSH2 0xB61 DUP4 DUP4 PUSH1 0x40 MLOAD DUP1 PUSH1 0x40 ADD PUSH1 0x40 MSTORE DUP1 PUSH1 0x1A DUP2 MSTORE PUSH1 0x20 ADD PUSH32 0x536166654D6174683A206469766973696F6E206279207A65726F000000000000 DUP2 MSTORE POP PUSH2 0xF66 JUMP JUMPDEST SWAP1 POP JUMPDEST SWAP3 SWAP2 POP POP JUMP JUMPDEST PUSH1 0x0 DUP3 PUSH2 0xB79 JUMPI POP PUSH1 0x0 PUSH2 0xB64 JUMP JUMPDEST PUSH1 0x0 PUSH2 0xB85 DUP4 DUP6 PUSH2 0x1675 JUMP JUMPDEST SWAP1 POP DUP3 PUSH2 0xB92 DUP6 DUP4 PUSH2 0x1694 JUMP JUMPDEST EQ PUSH2 0xB61 JUMPI PUSH1 0x40 MLOAD PUSH3 0x461BCD PUSH1 0xE5 SHL DUP2 MSTORE PUSH1 0x20 PUSH1 0x4 DUP3 ADD MSTORE PUSH1 0x21 PUSH1 0x24 DUP3 ADD MSTORE PUSH32 0x536166654D6174683A206D756C7469706C69636174696F6E206F766572666C6F PUSH1 0x44 DUP3 ADD MSTORE PUSH1 0x77 PUSH1 0xF8 SHL PUSH1 0x64 DUP3 ADD MSTORE PUSH1 0x84 ADD PUSH2 0x462 JUMP JUMPDEST PUSH1 0x0 DUP1 PUSH2 0xBF6 DUP4 DUP6 PUSH2 0x165D JUMP JUMPDEST SWAP1 POP DUP4 DUP2 LT ISZERO PUSH2 0xB61 JUMPI PUSH1 0x40 MLOAD PUSH3 0x461BCD PUSH1 0xE5 SHL DUP2 MSTORE PUSH1 0x20 PUSH1 0x4 DUP3 ADD MSTORE PUSH1 0x1B PUSH1 0x24 DUP3 ADD MSTORE PUSH32 0x536166654D6174683A206164646974696F6E206F766572666C6F770000000000 PUSH1 0x44 DUP3 ADD MSTORE PUSH1 0x64 ADD PUSH2 0x462 JUMP JUMPDEST PUSH1 0xB SLOAD DUP2 LT ISZERO PUSH2 0xC8A JUMPI PUSH1 0x40 MLOAD PUSH3 0x461BCD PUSH1 0xE5 SHL DUP2 MSTORE PUSH1 0x20 PUSH1 0x4 DUP3 ADD MSTORE PUSH1 0xD PUSH1 0x24 DUP3 ADD MSTORE PUSH13 0x6D696E206C6F636B2074696D65 PUSH1 0x98 SHL PUSH1 0x44 DUP3 ADD MSTORE PUSH1 0x64 ADD PUSH2 0x462 JUMP JUMPDEST PUSH1 0x0 CALLVALUE GT PUSH2 0xCC6 JUMPI PUSH1 0x40 MLOAD PUSH3 0x461BCD PUSH1 0xE5 SHL DUP2 MSTORE PUSH1 0x20 PUSH1 0x4 DUP3 ADD MSTORE PUSH1 0x9 PUSH1 0x24 DUP3 ADD MSTORE PUSH9 0xF4CAE4E4DE40CAE8D PUSH1 0xBB SHL PUSH1 0x44 DUP3 ADD MSTORE PUSH1 0x64 ADD PUSH2 0x462 JUMP JUMPDEST PUSH2 0xCCF CALLVALUE PUSH2 0xF9D JUMP JUMPDEST PUSH1 0xA SLOAD PUSH1 0x40 MLOAD PUSH4 0xFAF1EBFD PUSH1 0xE0 SHL DUP2 MSTORE PUSH1 0x4 DUP2 ADD DUP4 SWAP1 MSTORE PUSH1 0x0 SWAP2 PUSH1 0x1 PUSH1 0x1 PUSH1 0xA0 SHL SUB AND SWAP1 PUSH4 0xFAF1EBFD SWAP1 PUSH1 0x24 ADD PUSH1 0x20 PUSH1 0x40 MLOAD DUP1 DUP4 SUB DUP2 DUP7 GAS STATICCALL ISZERO DUP1 ISZERO PUSH2 0xD19 JUMPI RETURNDATASIZE PUSH1 0x0 DUP1 RETURNDATACOPY RETURNDATASIZE PUSH1 0x0 REVERT JUMPDEST POP POP POP POP PUSH1 0x40 MLOAD RETURNDATASIZE PUSH1 0x1F NOT PUSH1 0x1F DUP3 ADD AND DUP3 ADD DUP1 PUSH1 0x40 MSTORE POP DUP2 ADD SWAP1 PUSH2 0xD3D SWAP2 SWAP1 PUSH2 0x14C4 JUMP JUMPDEST SWAP1 POP DUP1 ISZERO PUSH2 0xDC5 JUMPI PUSH1 0x0 PUSH2 0xD50 CALLVALUE PUSH2 0x7AC JUMP JUMPDEST SWAP1 POP PUSH1 0x0 PUSH2 0xD63 DUP4 PUSH2 0x62E DUP5 PUSH1 0x64 PUSH2 0xB1F JUMP JUMPDEST PUSH1 0x8 SLOAD PUSH1 0x40 MLOAD PUSH4 0x22797737 PUSH1 0xE1 SHL DUP2 MSTORE PUSH1 0x4 DUP2 ADD DUP4 SWAP1 MSTORE SWAP2 SWAP3 POP PUSH1 0x1 PUSH1 0x1 PUSH1 0xA0 SHL SUB AND SWAP1 PUSH4 0x44F2EE6E SWAP1 PUSH1 0x24 ADD PUSH1 0x0 PUSH1 0x40 MLOAD DUP1 DUP4 SUB DUP2 PUSH1 0x0 DUP8 DUP1 EXTCODESIZE ISZERO DUP1 ISZERO PUSH2 0xDAA JUMPI PUSH1 0x0 DUP1 REVERT JUMPDEST POP GAS CALL ISZERO DUP1 ISZERO PUSH2 0xDBE JUMPI RETURNDATASIZE PUSH1 0x0 DUP1 RETURNDATACOPY RETURNDATASIZE PUSH1 0x0 REVERT JUMPDEST POP POP POP POP POP POP JUMPDEST PUSH1 0x4 DUP1 SLOAD PUSH1 0x40 MLOAD PUSH4 0x70A08231 PUSH1 0xE0 SHL DUP2 MSTORE ADDRESS SWAP3 DUP2 ADD SWAP3 SWAP1 SWAP3 MSTORE PUSH1 0x0 SWAP2 PUSH1 0x1 PUSH1 0x1 PUSH1 0xA0 SHL SUB SWAP1 SWAP2 AND SWAP1 PUSH4 0x70A08231 SWAP1 PUSH1 0x24 ADD PUSH1 0x20 PUSH1 0x40 MLOAD DUP1 DUP4 SUB DUP2 DUP7 GAS STATICCALL ISZERO DUP1 ISZERO PUSH2 0xE13 JUMPI RETURNDATASIZE PUSH1 0x0 DUP1 RETURNDATACOPY RETURNDATASIZE PUSH1 0x0 REVERT JUMPDEST POP POP POP POP PUSH1 0x40 MLOAD RETURNDATASIZE PUSH1 0x1F NOT PUSH1 0x1F DUP3 ADD AND DUP3 ADD DUP1 PUSH1 0x40 MSTORE POP DUP2 ADD SWAP1 PUSH2 0xE37 SWAP2 SWAP1 PUSH2 0x14C4 JUMP JUMPDEST SWAP1 POP PUSH1 0x0 DUP2 GT PUSH2 0xE77 JUMPI PUSH1 0x40 MLOAD PUSH3 0x461BCD PUSH1 0xE5 SHL DUP2 MSTORE PUSH1 0x20 PUSH1 0x4 DUP3 ADD MSTORE PUSH1 0xB PUSH1 0x24 DUP3 ADD MSTORE PUSH11 0x1B9BDD081CDDD85C1C1959 PUSH1 0xAA SHL PUSH1 0x44 DUP3 ADD MSTORE PUSH1 0x64 ADD PUSH2 0x462 JUMP JUMPDEST PUSH1 0x4 DUP1 SLOAD PUSH1 0x2 SLOAD PUSH1 0x40 MLOAD PUSH4 0x95EA7B3 PUSH1 0xE0 SHL DUP2 MSTORE PUSH1 0x1 PUSH1 0x1 PUSH1 0xA0 SHL SUB SWAP2 DUP3 AND SWAP4 DUP2 ADD SWAP4 SWAP1 SWAP4 MSTORE PUSH1 0x24 DUP4 ADD DUP5 SWAP1 MSTORE AND SWAP1 PUSH4 0x95EA7B3 SWAP1 PUSH1 0x44 ADD PUSH1 0x20 PUSH1 0x40 MLOAD DUP1 DUP4 SUB DUP2 PUSH1 0x0 DUP8 GAS CALL ISZERO DUP1 ISZERO PUSH2 0xECE JUMPI RETURNDATASIZE PUSH1 0x0 DUP1 RETURNDATACOPY RETURNDATASIZE PUSH1 0x0 REVERT JUMPDEST POP POP POP POP PUSH1 0x40 MLOAD RETURNDATASIZE PUSH1 0x1F NOT PUSH1 0x1F DUP3 ADD AND DUP3 ADD DUP1 PUSH1 0x40 MSTORE POP DUP2 ADD SWAP1 PUSH2 0xEF2 SWAP2 SWAP1 PUSH2 0x14A2 JUMP JUMPDEST POP PUSH1 0x2 SLOAD PUSH1 0x40 MLOAD PUSH4 0xD4E54C3B PUSH1 0xE0 SHL DUP2 MSTORE PUSH1 0x4 DUP2 ADD DUP4 SWAP1 MSTORE PUSH1 0x24 DUP2 ADD DUP6 SWAP1 MSTORE PUSH1 0x1 PUSH1 0x1 PUSH1 0xA0 SHL SUB DUP7 DUP2 AND PUSH1 0x44 DUP4 ADD MSTORE SWAP1 SWAP2 AND SWAP1 PUSH4 0xD4E54C3B SWAP1 PUSH1 0x64 ADD PUSH1 0x0 PUSH1 0x40 MLOAD DUP1 DUP4 SUB DUP2 PUSH1 0x0 DUP8 DUP1 EXTCODESIZE ISZERO DUP1 ISZERO PUSH2 0xF48 JUMPI PUSH1 0x0 DUP1 REVERT JUMPDEST POP GAS CALL ISZERO DUP1 ISZERO PUSH2 0xF5C JUMPI RETURNDATASIZE PUSH1 0x0 DUP1 RETURNDATACOPY RETURNDATASIZE PUSH1 0x0 REVERT JUMPDEST POP POP POP POP POP POP POP POP JUMP JUMPDEST PUSH1 0x0 DUP2 DUP4 PUSH2 0xF87 JUMPI PUSH1 0x40 MLOAD PUSH3 0x461BCD PUSH1 0xE5 SHL DUP2 MSTORE PUSH1 0x4 ADD PUSH2 0x462 SWAP2 SWAP1 PUSH2 0x16B6 JUMP JUMPDEST POP PUSH1 0x0 PUSH2 0xF94 DUP5 DUP7 PUSH2 0x1694 JUMP JUMPDEST SWAP6 SWAP5 POP POP POP POP POP JUMP JUMPDEST PUSH1 0x0 DUP1 PUSH2 0xFA9 DUP4 PUSH2 0x422 JUMP JUMPDEST SWAP1 SWAP3 POP SWAP1 POP DUP2 ISZERO PUSH2 0xFD1 JUMPI PUSH1 0x3 SLOAD PUSH1 0x4 SLOAD PUSH2 0xFD1 SWAP2 PUSH1 0x1 PUSH1 0x1 PUSH1 0xA0 SHL SUB SWAP1 DUP2 AND SWAP2 AND DUP5 PUSH2 0xFE5 JUMP JUMPDEST DUP1 ISZERO PUSH2 0xFE0 JUMPI PUSH2 0xFE0 DUP2 PUSH2 0x115D JUMP JUMPDEST POP POP POP JUMP JUMPDEST PUSH1 0x40 DUP1 MLOAD PUSH1 0x1 DUP1 DUP3 MSTORE DUP2 DUP4 ADD SWAP1 SWAP3 MSTORE PUSH1 0x0 SWAP2 DUP2 PUSH1 0x20 ADD JUMPDEST PUSH1 0x40 DUP1 MLOAD PUSH1 0x60 DUP2 ADD DUP3 MSTORE PUSH1 0x0 DUP1 DUP3 MSTORE PUSH1 0x20 DUP1 DUP4 ADD DUP3 SWAP1 MSTORE SWAP3 DUP3 ADD MSTORE DUP3 MSTORE PUSH1 0x0 NOT SWAP1 SWAP3 ADD SWAP2 ADD DUP2 PUSH2 0xFFC JUMPI POP POP PUSH1 0x1 SLOAD DUP2 MLOAD SWAP2 SWAP3 POP PUSH1 0x1 PUSH1 0x1 PUSH1 0xA0 SHL SUB AND SWAP1 DUP3 SWAP1 PUSH1 0x0 SWAP1 PUSH2 0x104B JUMPI PUSH2 0x104B PUSH2 0x14F3 JUMP JUMPDEST PUSH1 0x20 MUL PUSH1 0x20 ADD ADD MLOAD PUSH1 0x0 ADD SWAP1 PUSH1 0x1 PUSH1 0x1 PUSH1 0xA0 SHL SUB AND SWAP1 DUP2 PUSH1 0x1 PUSH1 0x1 PUSH1 0xA0 SHL SUB AND DUP2 MSTORE POP POP DUP3 DUP2 PUSH1 0x0 DUP2 MLOAD DUP2 LT PUSH2 0x1083 JUMPI PUSH2 0x1083 PUSH2 0x14F3 JUMP JUMPDEST PUSH1 0x20 MUL PUSH1 0x20 ADD ADD MLOAD PUSH1 0x20 ADD SWAP1 PUSH1 0x1 PUSH1 0x1 PUSH1 0xA0 SHL SUB AND SWAP1 DUP2 PUSH1 0x1 PUSH1 0x1 PUSH1 0xA0 SHL SUB AND DUP2 MSTORE POP POP PUSH1 0x0 DUP2 PUSH1 0x0 DUP2 MLOAD DUP2 LT PUSH2 0x10BC JUMPI PUSH2 0x10BC PUSH2 0x14F3 JUMP JUMPDEST PUSH1 0x20 SWAP1 DUP2 MUL SWAP2 SWAP1 SWAP2 ADD ADD MLOAD SWAP1 ISZERO ISZERO PUSH1 0x40 SWAP1 SWAP2 ADD MSTORE PUSH1 0x1 PUSH1 0x1 PUSH1 0xA0 SHL SUB DUP5 AND PUSH4 0xE8EF4681 DUP4 PUSH1 0x1 DUP5 ADDRESS PUSH2 0x10F0 TIMESTAMP PUSH2 0x708 PUSH2 0x165D JUMP JUMPDEST PUSH1 0x40 MLOAD DUP7 PUSH4 0xFFFFFFFF AND PUSH1 0xE0 SHL DUP2 MSTORE PUSH1 0x4 ADD PUSH2 0x110F SWAP5 SWAP4 SWAP3 SWAP2 SWAP1 PUSH2 0x170B JUMP JUMPDEST PUSH1 0x0 PUSH1 0x40 MLOAD DUP1 DUP4 SUB DUP2 DUP6 DUP9 GAS CALL ISZERO DUP1 ISZERO PUSH2 0x112D JUMPI RETURNDATASIZE PUSH1 0x0 DUP1 RETURNDATACOPY RETURNDATASIZE PUSH1 0x0 REVERT JUMPDEST POP POP POP POP POP PUSH1 0x40 MLOAD RETURNDATASIZE PUSH1 0x0 DUP3 RETURNDATACOPY PUSH1 0x1F RETURNDATASIZE SWAP1 DUP2 ADD PUSH1 0x1F NOT AND DUP3 ADD PUSH1 0x40 MSTORE PUSH2 0x1156 SWAP2 SWAP1 DUP2 ADD SWAP1 PUSH2 0x1589 JUMP JUMPDEST POP POP POP POP POP JUMP JUMPDEST PUSH1 0x0 PUSH2 0x1168 DUP3 PUSH2 0x7AC JUMP JUMPDEST PUSH1 0x8 SLOAD PUSH1 0x40 MLOAD PUSH4 0x22797737 PUSH1 0xE1 SHL DUP2 MSTORE PUSH1 0x4 DUP2 ADD DUP4 SWAP1 MSTORE SWAP2 SWAP3 POP PUSH1 0x1 PUSH1 0x1 PUSH1 0xA0 SHL SUB AND SWAP1 PUSH4 0x44F2EE6E SWAP1 PUSH1 0x24 ADD PUSH1 0x0 PUSH1 0x40 MLOAD DUP1 DUP4 SUB DUP2 PUSH1 0x0 DUP8 DUP1 EXTCODESIZE ISZERO DUP1 ISZERO PUSH2 0x11AF JUMPI PUSH1 0x0 DUP1 REVERT JUMPDEST POP GAS CALL ISZERO DUP1 ISZERO PUSH2 0x11C3 JUMPI RETURNDATASIZE PUSH1 0x0 DUP1 RETURNDATACOPY RETURNDATASIZE PUSH1 0x0 REVERT JUMPDEST POP POP POP POP PUSH1 0x0 PUSH2 0x11DD PUSH1 0x2 DUP5 PUSH2 0xB1F SWAP1 SWAP2 SWAP1 PUSH4 0xFFFFFFFF AND JUMP JUMPDEST PUSH1 0x7 SLOAD PUSH1 0x40 MLOAD SWAP2 SWAP3 POP PUSH1 0x1 PUSH1 0x1 PUSH1 0xA0 SHL SUB AND SWAP1 DUP3 ISZERO PUSH2 0x8FC MUL SWAP1 DUP4 SWAP1 PUSH1 0x0 DUP2 DUP2 DUP2 DUP6 DUP9 DUP9 CALL SWAP4 POP POP POP POP ISZERO DUP1 ISZERO PUSH2 0x1218 JUMPI RETURNDATASIZE PUSH1 0x0 DUP1 RETURNDATACOPY RETURNDATASIZE PUSH1 0x0 REVERT JUMPDEST POP PUSH2 0xFE0 DUP2 PUSH1 0x0 PUSH2 0x1228 DUP3 PUSH2 0x7AC JUMP JUMPDEST PUSH1 0x8 SLOAD PUSH1 0x40 MLOAD PUSH4 0x22797737 PUSH1 0xE1 SHL DUP2 MSTORE PUSH1 0x4 DUP2 ADD DUP4 SWAP1 MSTORE SWAP2 SWAP3 POP PUSH1 0x1 PUSH1 0x1 PUSH1 0xA0 SHL SUB AND SWAP1 PUSH4 0x44F2EE6E SWAP1 PUSH1 0x24 ADD PUSH1 0x0 PUSH1 0x40 MLOAD DUP1 DUP4 SUB DUP2 PUSH1 0x0 DUP8 DUP1 EXTCODESIZE ISZERO DUP1 ISZERO PUSH2 0x126F JUMPI PUSH1 0x0 DUP1 REVERT JUMPDEST POP GAS CALL ISZERO DUP1 ISZERO PUSH2 0x1283 JUMPI RETURNDATASIZE PUSH1 0x0 DUP1 RETURNDATACOPY RETURNDATASIZE PUSH1 0x0 REVERT JUMPDEST POP POP PUSH1 0x4 DUP1 SLOAD PUSH1 0x3 SLOAD PUSH1 0x40 MLOAD PUSH4 0x95EA7B3 PUSH1 0xE0 SHL DUP2 MSTORE PUSH1 0x1 PUSH1 0x1 PUSH1 0xA0 SHL SUB SWAP2 DUP3 AND SWAP4 DUP2 ADD SWAP4 SWAP1 SWAP4 MSTORE PUSH1 0x24 DUP4 ADD DUP7 SWAP1 MSTORE AND SWAP3 POP PUSH4 0x95EA7B3 SWAP2 POP PUSH1 0x44 ADD PUSH1 0x20 PUSH1 0x40 MLOAD DUP1 DUP4 SUB DUP2 PUSH1 0x0 DUP8 GAS CALL ISZERO DUP1 ISZERO PUSH2 0x12DE JUMPI RETURNDATASIZE PUSH1 0x0 DUP1 RETURNDATACOPY RETURNDATASIZE PUSH1 0x0 REVERT JUMPDEST POP POP POP POP PUSH1 0x40 MLOAD RETURNDATASIZE PUSH1 0x1F NOT PUSH1 0x1F DUP3 ADD AND DUP3 ADD DUP1 PUSH1 0x40 MSTORE POP DUP2 ADD SWAP1 PUSH2 0x1302 SWAP2 SWAP1 PUSH2 0x14A2 JUMP JUMPDEST POP PUSH1 0x3 SLOAD PUSH1 0x4 SLOAD PUSH1 0x9 SLOAD PUSH1 0x1 PUSH1 0x1 PUSH1 0xA0 SHL SUB SWAP3 DUP4 AND SWAP3 PUSH4 0x578CAF32 SWAP3 DUP7 SWAP3 SWAP1 DUP3 AND SWAP2 PUSH1 0x0 SWAP2 DUP8 SWAP2 DUP4 SWAP2 DUP3 SWAP2 AND PUSH2 0x133A TIMESTAMP PUSH2 0x384 PUSH2 0x165D JUMP JUMPDEST PUSH1 0x40 MLOAD PUSH1 0xE0 DUP11 SWAP1 SHL PUSH1 0x1 PUSH1 0x1 PUSH1 0xE0 SHL SUB NOT AND DUP2 MSTORE PUSH1 0x1 PUSH1 0x1 PUSH1 0xA0 SHL SUB SWAP8 DUP9 AND PUSH1 0x4 DUP3 ADD MSTORE SWAP6 ISZERO ISZERO PUSH1 0x24 DUP8 ADD MSTORE PUSH1 0x44 DUP7 ADD SWAP5 SWAP1 SWAP5 MSTORE PUSH1 0x64 DUP6 ADD SWAP3 SWAP1 SWAP3 MSTORE PUSH1 0x84 DUP5 ADD MSTORE SWAP1 SWAP3 AND PUSH1 0xA4 DUP3 ADD MSTORE PUSH1 0xC4 DUP2 ADD SWAP2 SWAP1 SWAP2 MSTORE PUSH1 0xE4 ADD PUSH1 0x60 PUSH1 0x40 MLOAD DUP1 DUP4 SUB DUP2 DUP6 DUP9 GAS CALL ISZERO DUP1 ISZERO PUSH2 0x13AC JUMPI RETURNDATASIZE PUSH1 0x0 DUP1 RETURNDATACOPY RETURNDATASIZE PUSH1 0x0 REVERT JUMPDEST POP POP POP POP POP PUSH1 0x40 MLOAD RETURNDATASIZE PUSH1 0x1F NOT PUSH1 0x1F DUP3 ADD AND DUP3 ADD DUP1 PUSH1 0x40 MSTORE POP DUP2 ADD SWAP1 PUSH2 0x1156 SWAP2 SWAP1 PUSH2 0x1740 JUMP JUMPDEST PUSH1 0x0 PUSH1 0x20 DUP3 DUP5 SUB SLT ISZERO PUSH2 0x13E3 JUMPI PUSH1 0x0 DUP1 REVERT JUMPDEST POP CALLDATALOAD SWAP2 SWAP1 POP JUMP JUMPDEST DUP1 CALLDATALOAD PUSH1 0x1 PUSH1 0x1 PUSH1 0xA0 SHL SUB DUP2 AND DUP2 EQ PUSH2 0x1401 JUMPI PUSH1 0x0 DUP1 REVERT JUMPDEST SWAP2 SWAP1 POP JUMP JUMPDEST PUSH1 0x0 PUSH1 0x20 DUP3 DUP5 SUB SLT ISZERO PUSH2 0x1418 JUMPI PUSH1 0x0 DUP1 REVERT JUMPDEST PUSH2 0xB61 DUP3 PUSH2 0x13EA JUMP JUMPDEST PUSH1 0x0 DUP1 PUSH1 0x40 DUP4 DUP6 SUB SLT ISZERO PUSH2 0x1434 JUMPI PUSH1 0x0 DUP1 REVERT JUMPDEST POP POP DUP1 CALLDATALOAD SWAP3 PUSH1 0x20 SWAP1 SWAP2 ADD CALLDATALOAD SWAP2 POP JUMP JUMPDEST PUSH1 0x0 DUP1 PUSH1 0x40 DUP4 DUP6 SUB SLT ISZERO PUSH2 0x1456 JUMPI PUSH1 0x0 DUP1 REVERT JUMPDEST PUSH2 0x145F DUP4 PUSH2 0x13EA JUMP JUMPDEST SWAP5 PUSH1 0x20 SWAP4 SWAP1 SWAP4 ADD CALLDATALOAD SWAP4 POP POP POP JUMP JUMPDEST PUSH1 0x20 DUP1 DUP3 MSTORE DUP2 DUP2 ADD MSTORE PUSH32 0x4F776E61626C653A2063616C6C6572206973206E6F7420746865206F776E6572 PUSH1 0x40 DUP3 ADD MSTORE PUSH1 0x60 ADD SWAP1 JUMP JUMPDEST PUSH1 0x0 PUSH1 0x20 DUP3 DUP5 SUB SLT ISZERO PUSH2 0x14B4 JUMPI PUSH1 0x0 DUP1 REVERT JUMPDEST DUP2 MLOAD DUP1 ISZERO ISZERO DUP2 EQ PUSH2 0xB61 JUMPI PUSH1 0x0 DUP1 REVERT JUMPDEST PUSH1 0x0 PUSH1 0x20 DUP3 DUP5 SUB SLT ISZERO PUSH2 0x14D6 JUMPI PUSH1 0x0 DUP1 REVERT JUMPDEST POP MLOAD SWAP2 SWAP1 POP JUMP JUMPDEST PUSH4 0x4E487B71 PUSH1 0xE0 SHL PUSH1 0x0 MSTORE PUSH1 0x41 PUSH1 0x4 MSTORE PUSH1 0x24 PUSH1 0x0 REVERT JUMPDEST PUSH4 0x4E487B71 PUSH1 0xE0 SHL PUSH1 0x0 MSTORE PUSH1 0x32 PUSH1 0x4 MSTORE PUSH1 0x24 PUSH1 0x0 REVERT JUMPDEST PUSH1 0x0 DUP2 MLOAD DUP1 DUP5 MSTORE PUSH1 0x20 DUP1 DUP6 ADD SWAP5 POP DUP1 DUP5 ADD PUSH1 0x0 JUMPDEST DUP4 DUP2 LT ISZERO PUSH2 0x155D JUMPI DUP2 MLOAD DUP1 MLOAD PUSH1 0x1 PUSH1 0x1 PUSH1 0xA0 SHL SUB SWAP1 DUP2 AND DUP10 MSTORE DUP5 DUP3 ADD MLOAD AND DUP5 DUP10 ADD MSTORE PUSH1 0x40 SWAP1 DUP2 ADD MLOAD ISZERO ISZERO SWAP1 DUP9 ADD MSTORE PUSH1 0x60 SWAP1 SWAP7 ADD SWAP6 SWAP1 DUP3 ADD SWAP1 PUSH1 0x1 ADD PUSH2 0x151D JUMP JUMPDEST POP SWAP5 SWAP6 SWAP5 POP POP POP POP POP JUMP JUMPDEST DUP3 DUP2 MSTORE PUSH1 0x40 PUSH1 0x20 DUP3 ADD MSTORE PUSH1 0x0 PUSH2 0x1581 PUSH1 0x40 DUP4 ADD DUP5 PUSH2 0x1509 JUMP JUMPDEST SWAP5 SWAP4 POP POP POP POP JUMP JUMPDEST PUSH1 0x0 PUSH1 0x20 DUP1 DUP4 DUP6 SUB SLT ISZERO PUSH2 0x159C JUMPI PUSH1 0x0 DUP1 REVERT JUMPDEST DUP3 MLOAD PUSH8 0xFFFFFFFFFFFFFFFF DUP1 DUP3 GT ISZERO PUSH2 0x15B4 JUMPI PUSH1 0x0 DUP1 REVERT JUMPDEST DUP2 DUP6 ADD SWAP2 POP DUP6 PUSH1 0x1F DUP4 ADD SLT PUSH2 0x15C8 JUMPI PUSH1 0x0 DUP1 REVERT JUMPDEST DUP2 MLOAD DUP2 DUP2 GT ISZERO PUSH2 0x15DA JUMPI PUSH2 0x15DA PUSH2 0x14DD JUMP JUMPDEST DUP1 PUSH1 0x5 SHL PUSH1 0x40 MLOAD PUSH1 0x1F NOT PUSH1 0x3F DUP4 ADD AND DUP2 ADD DUP2 DUP2 LT DUP6 DUP3 GT OR ISZERO PUSH2 0x15FF JUMPI PUSH2 0x15FF PUSH2 0x14DD JUMP JUMPDEST PUSH1 0x40 MSTORE SWAP2 DUP3 MSTORE DUP5 DUP3 ADD SWAP3 POP DUP4 DUP2 ADD DUP6 ADD SWAP2 DUP9 DUP4 GT ISZERO PUSH2 0x161D JUMPI PUSH1 0x0 DUP1 REVERT JUMPDEST SWAP4 DUP6 ADD SWAP4 JUMPDEST DUP3 DUP6 LT ISZERO PUSH2 0x163B JUMPI DUP5 MLOAD DUP5 MSTORE SWAP4 DUP6 ADD SWAP4 SWAP3 DUP6 ADD SWAP3 PUSH2 0x1622 JUMP JUMPDEST SWAP9 SWAP8 POP POP POP POP POP POP POP POP JUMP JUMPDEST PUSH4 0x4E487B71 PUSH1 0xE0 SHL PUSH1 0x0 MSTORE PUSH1 0x11 PUSH1 0x4 MSTORE PUSH1 0x24 PUSH1 0x0 REVERT JUMPDEST PUSH1 0x0 DUP3 NOT DUP3 GT ISZERO PUSH2 0x1670 JUMPI PUSH2 0x1670 PUSH2 0x1647 JUMP JUMPDEST POP ADD SWAP1 JUMP JUMPDEST PUSH1 0x0 DUP2 PUSH1 0x0 NOT DIV DUP4 GT DUP3 ISZERO ISZERO AND ISZERO PUSH2 0x168F JUMPI PUSH2 0x168F PUSH2 0x1647 JUMP JUMPDEST POP MUL SWAP1 JUMP JUMPDEST PUSH1 0x0 DUP3 PUSH2 0x16B1 JUMPI PUSH4 0x4E487B71 PUSH1 0xE0 SHL PUSH1 0x0 MSTORE PUSH1 0x12 PUSH1 0x4 MSTORE PUSH1 0x24 PUSH1 0x0 REVERT JUMPDEST POP DIV SWAP1 JUMP JUMPDEST PUSH1 0x0 PUSH1 0x20 DUP1 DUP4 MSTORE DUP4 MLOAD DUP1 DUP3 DUP6 ADD MSTORE PUSH1 0x0 JUMPDEST DUP2 DUP2 LT ISZERO PUSH2 0x16E3 JUMPI DUP6 DUP2 ADD DUP4 ADD MLOAD DUP6 DUP3 ADD PUSH1 0x40 ADD MSTORE DUP3 ADD PUSH2 0x16C7 JUMP JUMPDEST DUP2 DUP2 GT ISZERO PUSH2 0x16F5 JUMPI PUSH1 0x0 PUSH1 0x40 DUP4 DUP8 ADD ADD MSTORE JUMPDEST POP PUSH1 0x1F ADD PUSH1 0x1F NOT AND SWAP3 SWAP1 SWAP3 ADD PUSH1 0x40 ADD SWAP4 SWAP3 POP POP POP JUMP JUMPDEST DUP5 DUP2 MSTORE PUSH1 0x80 PUSH1 0x20 DUP3 ADD MSTORE PUSH1 0x0 PUSH2 0x1724 PUSH1 0x80 DUP4 ADD DUP7 PUSH2 0x1509 JUMP JUMPDEST PUSH1 0x1 PUSH1 0x1 PUSH1 0xA0 SHL SUB SWAP5 SWAP1 SWAP5 AND PUSH1 0x40 DUP4 ADD MSTORE POP PUSH1 0x60 ADD MSTORE SWAP3 SWAP2 POP POP JUMP JUMPDEST PUSH1 0x0 DUP1 PUSH1 0x0 PUSH1 0x60 DUP5 DUP7 SUB SLT ISZERO PUSH2 0x1755 JUMPI PUSH1 0x0 DUP1 REVERT JUMPDEST DUP4 MLOAD SWAP3 POP PUSH1 0x20 DUP5 ADD MLOAD SWAP2 POP PUSH1 0x40 DUP5 ADD MLOAD SWAP1 POP SWAP3 POP SWAP3 POP SWAP3 JUMP INVALID LOG2 PUSH5 0x6970667358 0x22 SLT KECCAK256 0xAD NOT 0xEC 0x4C CREATE2 CHAINID 0xC6 BALANCE 0x21 CALLDATACOPY SWAP1 0xDB 0xD5 0xB5 0xE7 JUMPI GASPRICE CHAINID SELFDESTRUCT 0x4E PUSH23 0xFD844E3645A59BBF6D3E1F64736F6C634300080B003300 "
        },
        "methodIdentifiers": {
          "VE()": "c863657d",
          "WETH()": "ad5c4648",
          "beneficiary()": "38af3eed",
          "calculateToSplit(uint256)": "3a5b08e7",
          "convert(uint256)": "a3908e1b",
          "convertFor(address,uint256)": "aaa07362",
          "depositToken(uint256,uint256)": "9d2d04d1",
          "dexRouter()": "0758d924",
          "formula()": "4b75f54f",
          "getTokenPrice(uint256)": "c457fb37",
          "minLockTime()": "a60ff766",
          "minter()": "07546172",
          "owner()": "8da5cb5b",
          "percentToDex()": "dfa53724",
          "percentToSale()": "4f783ed0",
          "renounceOwnership()": "715018a6",
          "token()": "fc0c546a",
          "transferOwnership(address)": "f2fde38b",
          "treasury()": "61d027b3",
          "updateFormula(address)": "d5b49a71",
          "updateMinter(address)": "4eb03f6e",
          "updateSplitPercent(uint256,uint256)": "c757e5b5",
          "withdraw()": "3ccfd60b"
        }
      }
    }
  }
}