{
  "contracts/ve.sol": {
    "ve": {
      "abi": [
        {
          "inputs": [
            {
              "internalType": "address",
              "name": "token_addr",
              "type": "address"
            }
          ],
          "stateMutability": "nonpayable",
          "type": "constructor"
        },
        {
          "anonymous": false,
          "inputs": [
            {
              "indexed": true,
              "internalType": "address",
              "name": "owner",
              "type": "address"
            },
            {
              "indexed": true,
              "internalType": "address",
              "name": "approved",
              "type": "address"
            },
            {
              "indexed": true,
              "internalType": "uint256",
              "name": "tokenId",
              "type": "uint256"
            }
          ],
          "name": "Approval",
          "type": "event"
        },
        {
          "anonymous": false,
          "inputs": [
            {
              "indexed": true,
              "internalType": "address",
              "name": "owner",
              "type": "address"
            },
            {
              "indexed": true,
              "internalType": "address",
              "name": "operator",
              "type": "address"
            },
            {
              "indexed": false,
              "internalType": "bool",
              "name": "approved",
              "type": "bool"
            }
          ],
          "name": "ApprovalForAll",
          "type": "event"
        },
        {
          "anonymous": false,
          "inputs": [
            {
              "indexed": true,
              "internalType": "address",
              "name": "provider",
              "type": "address"
            },
            {
              "indexed": false,
              "internalType": "uint256",
              "name": "tokenId",
              "type": "uint256"
            },
            {
              "indexed": false,
              "internalType": "uint256",
              "name": "value",
              "type": "uint256"
            },
            {
              "indexed": true,
              "internalType": "uint256",
              "name": "locktime",
              "type": "uint256"
            },
            {
              "indexed": false,
              "internalType": "enum ve.DepositType",
              "name": "deposit_type",
              "type": "uint8"
            },
            {
              "indexed": false,
              "internalType": "uint256",
              "name": "ts",
              "type": "uint256"
            }
          ],
          "name": "Deposit",
          "type": "event"
        },
        {
          "anonymous": false,
          "inputs": [
            {
              "indexed": false,
              "internalType": "uint256",
              "name": "prevSupply",
              "type": "uint256"
            },
            {
              "indexed": false,
              "internalType": "uint256",
              "name": "supply",
              "type": "uint256"
            }
          ],
          "name": "Supply",
          "type": "event"
        },
        {
          "anonymous": false,
          "inputs": [
            {
              "indexed": true,
              "internalType": "address",
              "name": "from",
              "type": "address"
            },
            {
              "indexed": true,
              "internalType": "address",
              "name": "to",
              "type": "address"
            },
            {
              "indexed": true,
              "internalType": "uint256",
              "name": "tokenId",
              "type": "uint256"
            }
          ],
          "name": "Transfer",
          "type": "event"
        },
        {
          "anonymous": false,
          "inputs": [
            {
              "indexed": true,
              "internalType": "address",
              "name": "provider",
              "type": "address"
            },
            {
              "indexed": false,
              "internalType": "uint256",
              "name": "tokenId",
              "type": "uint256"
            },
            {
              "indexed": false,
              "internalType": "uint256",
              "name": "value",
              "type": "uint256"
            },
            {
              "indexed": false,
              "internalType": "uint256",
              "name": "ts",
              "type": "uint256"
            }
          ],
          "name": "Withdraw",
          "type": "event"
        },
        {
          "inputs": [
            {
              "internalType": "uint256",
              "name": "_tokenId",
              "type": "uint256"
            }
          ],
          "name": "abstain",
          "outputs": [],
          "stateMutability": "nonpayable",
          "type": "function"
        },
        {
          "inputs": [
            {
              "internalType": "address",
              "name": "_approved",
              "type": "address"
            },
            {
              "internalType": "uint256",
              "name": "_tokenId",
              "type": "uint256"
            }
          ],
          "name": "approve",
          "outputs": [],
          "stateMutability": "nonpayable",
          "type": "function"
        },
        {
          "inputs": [
            {
              "internalType": "uint256",
              "name": "_tokenId",
              "type": "uint256"
            }
          ],
          "name": "attach",
          "outputs": [],
          "stateMutability": "nonpayable",
          "type": "function"
        },
        {
          "inputs": [
            {
              "internalType": "uint256",
              "name": "",
              "type": "uint256"
            }
          ],
          "name": "attachments",
          "outputs": [
            {
              "internalType": "uint256",
              "name": "",
              "type": "uint256"
            }
          ],
          "stateMutability": "view",
          "type": "function"
        },
        {
          "inputs": [
            {
              "internalType": "address",
              "name": "_owner",
              "type": "address"
            }
          ],
          "name": "balanceOf",
          "outputs": [
            {
              "internalType": "uint256",
              "name": "",
              "type": "uint256"
            }
          ],
          "stateMutability": "view",
          "type": "function"
        },
        {
          "inputs": [
            {
              "internalType": "uint256",
              "name": "_tokenId",
              "type": "uint256"
            },
            {
              "internalType": "uint256",
              "name": "_block",
              "type": "uint256"
            }
          ],
          "name": "balanceOfAtNFT",
          "outputs": [
            {
              "internalType": "uint256",
              "name": "",
              "type": "uint256"
            }
          ],
          "stateMutability": "view",
          "type": "function"
        },
        {
          "inputs": [
            {
              "internalType": "uint256",
              "name": "_tokenId",
              "type": "uint256"
            }
          ],
          "name": "balanceOfNFT",
          "outputs": [
            {
              "internalType": "uint256",
              "name": "",
              "type": "uint256"
            }
          ],
          "stateMutability": "view",
          "type": "function"
        },
        {
          "inputs": [
            {
              "internalType": "uint256",
              "name": "_tokenId",
              "type": "uint256"
            },
            {
              "internalType": "uint256",
              "name": "_t",
              "type": "uint256"
            }
          ],
          "name": "balanceOfNFTAt",
          "outputs": [
            {
              "internalType": "uint256",
              "name": "",
              "type": "uint256"
            }
          ],
          "stateMutability": "view",
          "type": "function"
        },
        {
          "inputs": [],
          "name": "block_number",
          "outputs": [
            {
              "internalType": "uint256",
              "name": "",
              "type": "uint256"
            }
          ],
          "stateMutability": "view",
          "type": "function"
        },
        {
          "inputs": [],
          "name": "checkpoint",
          "outputs": [],
          "stateMutability": "nonpayable",
          "type": "function"
        },
        {
          "inputs": [
            {
              "internalType": "uint256",
              "name": "_value",
              "type": "uint256"
            },
            {
              "internalType": "uint256",
              "name": "_lock_duration",
              "type": "uint256"
            }
          ],
          "name": "create_lock",
          "outputs": [
            {
              "internalType": "uint256",
              "name": "",
              "type": "uint256"
            }
          ],
          "stateMutability": "nonpayable",
          "type": "function"
        },
        {
          "inputs": [
            {
              "internalType": "uint256",
              "name": "_value",
              "type": "uint256"
            },
            {
              "internalType": "uint256",
              "name": "_lock_duration",
              "type": "uint256"
            },
            {
              "internalType": "address",
              "name": "_to",
              "type": "address"
            }
          ],
          "name": "create_lock_for",
          "outputs": [
            {
              "internalType": "uint256",
              "name": "",
              "type": "uint256"
            }
          ],
          "stateMutability": "nonpayable",
          "type": "function"
        },
        {
          "inputs": [],
          "name": "decimals",
          "outputs": [
            {
              "internalType": "uint8",
              "name": "",
              "type": "uint8"
            }
          ],
          "stateMutability": "view",
          "type": "function"
        },
        {
          "inputs": [
            {
              "internalType": "uint256",
              "name": "_tokenId",
              "type": "uint256"
            },
            {
              "internalType": "uint256",
              "name": "_value",
              "type": "uint256"
            }
          ],
          "name": "deposit_for",
          "outputs": [],
          "stateMutability": "nonpayable",
          "type": "function"
        },
        {
          "inputs": [
            {
              "internalType": "uint256",
              "name": "_tokenId",
              "type": "uint256"
            }
          ],
          "name": "detach",
          "outputs": [],
          "stateMutability": "nonpayable",
          "type": "function"
        },
        {
          "inputs": [],
          "name": "epoch",
          "outputs": [
            {
              "internalType": "uint256",
              "name": "",
              "type": "uint256"
            }
          ],
          "stateMutability": "view",
          "type": "function"
        },
        {
          "inputs": [
            {
              "internalType": "uint256",
              "name": "_tokenId",
              "type": "uint256"
            }
          ],
          "name": "getApproved",
          "outputs": [
            {
              "internalType": "address",
              "name": "",
              "type": "address"
            }
          ],
          "stateMutability": "view",
          "type": "function"
        },
        {
          "inputs": [
            {
              "internalType": "uint256",
              "name": "_tokenId",
              "type": "uint256"
            }
          ],
          "name": "get_last_user_slope",
          "outputs": [
            {
              "internalType": "int128",
              "name": "",
              "type": "int128"
            }
          ],
          "stateMutability": "view",
          "type": "function"
        },
        {
          "inputs": [
            {
              "internalType": "uint256",
              "name": "_tokenId",
              "type": "uint256"
            },
            {
              "internalType": "uint256",
              "name": "_value",
              "type": "uint256"
            }
          ],
          "name": "increase_amount",
          "outputs": [],
          "stateMutability": "nonpayable",
          "type": "function"
        },
        {
          "inputs": [
            {
              "internalType": "uint256",
              "name": "_tokenId",
              "type": "uint256"
            },
            {
              "internalType": "uint256",
              "name": "_lock_duration",
              "type": "uint256"
            }
          ],
          "name": "increase_unlock_time",
          "outputs": [],
          "stateMutability": "nonpayable",
          "type": "function"
        },
        {
          "inputs": [
            {
              "internalType": "address",
              "name": "_owner",
              "type": "address"
            },
            {
              "internalType": "address",
              "name": "_operator",
              "type": "address"
            }
          ],
          "name": "isApprovedForAll",
          "outputs": [
            {
              "internalType": "bool",
              "name": "",
              "type": "bool"
            }
          ],
          "stateMutability": "view",
          "type": "function"
        },
        {
          "inputs": [
            {
              "internalType": "address",
              "name": "_spender",
              "type": "address"
            },
            {
              "internalType": "uint256",
              "name": "_tokenId",
              "type": "uint256"
            }
          ],
          "name": "isApprovedOrOwner",
          "outputs": [
            {
              "internalType": "bool",
              "name": "",
              "type": "bool"
            }
          ],
          "stateMutability": "view",
          "type": "function"
        },
        {
          "inputs": [
            {
              "internalType": "uint256",
              "name": "",
              "type": "uint256"
            }
          ],
          "name": "locked",
          "outputs": [
            {
              "internalType": "int128",
              "name": "amount",
              "type": "int128"
            },
            {
              "internalType": "uint256",
              "name": "end",
              "type": "uint256"
            }
          ],
          "stateMutability": "view",
          "type": "function"
        },
        {
          "inputs": [
            {
              "internalType": "uint256",
              "name": "_tokenId",
              "type": "uint256"
            }
          ],
          "name": "locked__end",
          "outputs": [
            {
              "internalType": "uint256",
              "name": "",
              "type": "uint256"
            }
          ],
          "stateMutability": "view",
          "type": "function"
        },
        {
          "inputs": [
            {
              "internalType": "uint256",
              "name": "_from",
              "type": "uint256"
            },
            {
              "internalType": "uint256",
              "name": "_to",
              "type": "uint256"
            }
          ],
          "name": "merge",
          "outputs": [],
          "stateMutability": "nonpayable",
          "type": "function"
        },
        {
          "inputs": [],
          "name": "name",
          "outputs": [
            {
              "internalType": "string",
              "name": "",
              "type": "string"
            }
          ],
          "stateMutability": "view",
          "type": "function"
        },
        {
          "inputs": [
            {
              "internalType": "uint256",
              "name": "_tokenId",
              "type": "uint256"
            }
          ],
          "name": "ownerOf",
          "outputs": [
            {
              "internalType": "address",
              "name": "",
              "type": "address"
            }
          ],
          "stateMutability": "view",
          "type": "function"
        },
        {
          "inputs": [
            {
              "internalType": "uint256",
              "name": "",
              "type": "uint256"
            }
          ],
          "name": "ownership_change",
          "outputs": [
            {
              "internalType": "uint256",
              "name": "",
              "type": "uint256"
            }
          ],
          "stateMutability": "view",
          "type": "function"
        },
        {
          "inputs": [
            {
              "internalType": "uint256",
              "name": "",
              "type": "uint256"
            }
          ],
          "name": "point_history",
          "outputs": [
            {
              "internalType": "int128",
              "name": "bias",
              "type": "int128"
            },
            {
              "internalType": "int128",
              "name": "slope",
              "type": "int128"
            },
            {
              "internalType": "uint256",
              "name": "ts",
              "type": "uint256"
            },
            {
              "internalType": "uint256",
              "name": "blk",
              "type": "uint256"
            }
          ],
          "stateMutability": "view",
          "type": "function"
        },
        {
          "inputs": [
            {
              "internalType": "address",
              "name": "_from",
              "type": "address"
            },
            {
              "internalType": "address",
              "name": "_to",
              "type": "address"
            },
            {
              "internalType": "uint256",
              "name": "_tokenId",
              "type": "uint256"
            }
          ],
          "name": "safeTransferFrom",
          "outputs": [],
          "stateMutability": "nonpayable",
          "type": "function"
        },
        {
          "inputs": [
            {
              "internalType": "address",
              "name": "_from",
              "type": "address"
            },
            {
              "internalType": "address",
              "name": "_to",
              "type": "address"
            },
            {
              "internalType": "uint256",
              "name": "_tokenId",
              "type": "uint256"
            },
            {
              "internalType": "bytes",
              "name": "_data",
              "type": "bytes"
            }
          ],
          "name": "safeTransferFrom",
          "outputs": [],
          "stateMutability": "nonpayable",
          "type": "function"
        },
        {
          "inputs": [
            {
              "internalType": "address",
              "name": "_operator",
              "type": "address"
            },
            {
              "internalType": "bool",
              "name": "_approved",
              "type": "bool"
            }
          ],
          "name": "setApprovalForAll",
          "outputs": [],
          "stateMutability": "nonpayable",
          "type": "function"
        },
        {
          "inputs": [
            {
              "internalType": "address",
              "name": "_voter",
              "type": "address"
            }
          ],
          "name": "setVoter",
          "outputs": [],
          "stateMutability": "nonpayable",
          "type": "function"
        },
        {
          "inputs": [
            {
              "internalType": "uint256",
              "name": "",
              "type": "uint256"
            }
          ],
          "name": "slope_changes",
          "outputs": [
            {
              "internalType": "int128",
              "name": "",
              "type": "int128"
            }
          ],
          "stateMutability": "view",
          "type": "function"
        },
        {
          "inputs": [],
          "name": "supply",
          "outputs": [
            {
              "internalType": "uint256",
              "name": "",
              "type": "uint256"
            }
          ],
          "stateMutability": "view",
          "type": "function"
        },
        {
          "inputs": [
            {
              "internalType": "bytes4",
              "name": "_interfaceID",
              "type": "bytes4"
            }
          ],
          "name": "supportsInterface",
          "outputs": [
            {
              "internalType": "bool",
              "name": "",
              "type": "bool"
            }
          ],
          "stateMutability": "view",
          "type": "function"
        },
        {
          "inputs": [],
          "name": "symbol",
          "outputs": [
            {
              "internalType": "string",
              "name": "",
              "type": "string"
            }
          ],
          "stateMutability": "view",
          "type": "function"
        },
        {
          "inputs": [],
          "name": "token",
          "outputs": [
            {
              "internalType": "address",
              "name": "",
              "type": "address"
            }
          ],
          "stateMutability": "view",
          "type": "function"
        },
        {
          "inputs": [
            {
              "internalType": "address",
              "name": "_owner",
              "type": "address"
            },
            {
              "internalType": "uint256",
              "name": "_tokenIndex",
              "type": "uint256"
            }
          ],
          "name": "tokenOfOwnerByIndex",
          "outputs": [
            {
              "internalType": "uint256",
              "name": "",
              "type": "uint256"
            }
          ],
          "stateMutability": "view",
          "type": "function"
        },
        {
          "inputs": [
            {
              "internalType": "uint256",
              "name": "_tokenId",
              "type": "uint256"
            }
          ],
          "name": "tokenURI",
          "outputs": [
            {
              "internalType": "string",
              "name": "",
              "type": "string"
            }
          ],
          "stateMutability": "view",
          "type": "function"
        },
        {
          "inputs": [],
          "name": "totalSupply",
          "outputs": [
            {
              "internalType": "uint256",
              "name": "",
              "type": "uint256"
            }
          ],
          "stateMutability": "view",
          "type": "function"
        },
        {
          "inputs": [
            {
              "internalType": "uint256",
              "name": "_block",
              "type": "uint256"
            }
          ],
          "name": "totalSupplyAt",
          "outputs": [
            {
              "internalType": "uint256",
              "name": "",
              "type": "uint256"
            }
          ],
          "stateMutability": "view",
          "type": "function"
        },
        {
          "inputs": [
            {
              "internalType": "uint256",
              "name": "t",
              "type": "uint256"
            }
          ],
          "name": "totalSupplyAtT",
          "outputs": [
            {
              "internalType": "uint256",
              "name": "",
              "type": "uint256"
            }
          ],
          "stateMutability": "view",
          "type": "function"
        },
        {
          "inputs": [
            {
              "internalType": "address",
              "name": "_from",
              "type": "address"
            },
            {
              "internalType": "address",
              "name": "_to",
              "type": "address"
            },
            {
              "internalType": "uint256",
              "name": "_tokenId",
              "type": "uint256"
            }
          ],
          "name": "transferFrom",
          "outputs": [],
          "stateMutability": "nonpayable",
          "type": "function"
        },
        {
          "inputs": [
            {
              "internalType": "uint256",
              "name": "",
              "type": "uint256"
            }
          ],
          "name": "user_point_epoch",
          "outputs": [
            {
              "internalType": "uint256",
              "name": "",
              "type": "uint256"
            }
          ],
          "stateMutability": "view",
          "type": "function"
        },
        {
          "inputs": [
            {
              "internalType": "uint256",
              "name": "",
              "type": "uint256"
            },
            {
              "internalType": "uint256",
              "name": "",
              "type": "uint256"
            }
          ],
          "name": "user_point_history",
          "outputs": [
            {
              "internalType": "int128",
              "name": "bias",
              "type": "int128"
            },
            {
              "internalType": "int128",
              "name": "slope",
              "type": "int128"
            },
            {
              "internalType": "uint256",
              "name": "ts",
              "type": "uint256"
            },
            {
              "internalType": "uint256",
              "name": "blk",
              "type": "uint256"
            }
          ],
          "stateMutability": "view",
          "type": "function"
        },
        {
          "inputs": [
            {
              "internalType": "uint256",
              "name": "_tokenId",
              "type": "uint256"
            },
            {
              "internalType": "uint256",
              "name": "_idx",
              "type": "uint256"
            }
          ],
          "name": "user_point_history__ts",
          "outputs": [
            {
              "internalType": "uint256",
              "name": "",
              "type": "uint256"
            }
          ],
          "stateMutability": "view",
          "type": "function"
        },
        {
          "inputs": [],
          "name": "version",
          "outputs": [
            {
              "internalType": "string",
              "name": "",
              "type": "string"
            }
          ],
          "stateMutability": "view",
          "type": "function"
        },
        {
          "inputs": [
            {
              "internalType": "uint256",
              "name": "",
              "type": "uint256"
            }
          ],
          "name": "voted",
          "outputs": [
            {
              "internalType": "bool",
              "name": "",
              "type": "bool"
            }
          ],
          "stateMutability": "view",
          "type": "function"
        },
        {
          "inputs": [],
          "name": "voter",
          "outputs": [
            {
              "internalType": "address",
              "name": "",
              "type": "address"
            }
          ],
          "stateMutability": "view",
          "type": "function"
        },
        {
          "inputs": [
            {
              "internalType": "uint256",
              "name": "_tokenId",
              "type": "uint256"
            }
          ],
          "name": "voting",
          "outputs": [],
          "stateMutability": "nonpayable",
          "type": "function"
        },
        {
          "inputs": [
            {
              "internalType": "uint256",
              "name": "_tokenId",
              "type": "uint256"
            }
          ],
          "name": "withdraw",
          "outputs": [],
          "stateMutability": "nonpayable",
          "type": "function"
        }
      ],
      "evm": {
        "bytecode": {
          "linkReferences": {},
          "object": "60a06040526014805460ff191660011790553480156200001e57600080fd5b5060405162003dd838038062003dd8833981016040819052620000419162000181565b6001600160a01b038116608052600a80546001600160a01b03191633179055437f17ef568e3e12ab5b9c7254a8d58478811de00f9e6eb34345acd53bf8fd09d3ee55427f17ef568e3e12ab5b9c7254a8d58478811de00f9e6eb34345acd53bf8fd09d3ed5560136020527f317681100331673b27c2499894e78912f138ae85f2dd790e454ff96a89cf2d77805460ff1990811660019081179092557f5829b1f18259a9cdcd4268c3b072804d2f8e3dedbb1b883db1fa2055bb26d84f8054821683179055635b5e139f60e01b60009081527f65cb089fa41783e5af12e88573d882f263c09532a373334f0b809825d5a904ab80549092169092179055600b546040519091309160008051602062003db8833981519152908290a4600b54604051600090309060008051602062003db8833981519152908390a450620001b3565b6000602082840312156200019457600080fd5b81516001600160a01b0381168114620001ac57600080fd5b9392505050565b608051613bdb620001dd6000396000818161087d01528181610bcd015261283b0152613bdb6000f3fe608060405234801561001057600080fd5b506004361061030c5760003560e01c80638c2c9baf1161019d578063c87b56dd116100e9578063e7e242d4116100a2578063f8a057631161007c578063f8a0576314610841578063fbd3a29d14610865578063fc0c546a14610878578063fd4a77f11461089f57600080fd5b8063e7e242d4146107df578063e985e9c5146107f2578063ee99fe281461082e57600080fd5b8063c87b56dd14610735578063d1c2babb14610748578063d1febfb91461075b578063d4e54c3b14610799578063e0514aba146107ac578063e441135c146107bf57600080fd5b8063a183af5211610156578063b45a3c0e11610130578063b45a3c0e146106bf578063b88d4fde14610707578063c1f0fb9f1461071a578063c2c4c5c11461072d57600080fd5b8063a183af5214610686578063a22cb46514610699578063a4d855df146106ac57600080fd5b80638c2c9baf146106215780638fbb38ff14610634578063900cf0cf1461065757806395d89b411461036a578063981b24d014610660578063986b7d8a1461067357600080fd5b8063313ce5671161025c57806354fd4d50116102155780636f548837116101ef5780636f548837146105b857806370a08231146105d85780637116c60c146105eb57806371197484146105fe57600080fd5b806354fd4d50146105585780636352211e1461057c57806365fc3873146105a557600080fd5b8063313ce567146104cc57806342842e0e146104e6578063430c2081146104f9578063461f711c1461050c57806346c96aac146105325780634bc2a6571461054557600080fd5b80631376f3da116102c957806323b872dd116102a357806323b872dd1461046a57806325a58b561461047d5780632e1a7d4d146104835780632f745c591461049657600080fd5b80631376f3da1461041457806318160ddd1461044f5780631c984bc31461045757600080fd5b806301ffc9a714610311578063047fc9aa1461035357806306fdde031461036a578063081812fc1461039e578063095ea7b3146103df5780630d6a2033146103f4575b600080fd5b61033e61031f366004613076565b6001600160e01b03191660009081526013602052604090205460ff1690565b60405190151581526020015b60405180910390f35b61035c60005481565b60405190815260200161034a565b610391604051806040016040528060088152602001671b5a5b9d1cd3919560c21b81525081565b60405161034a91906130eb565b6103c76103ac3660046130fe565b6000908152600e60205260409020546001600160a01b031690565b6040516001600160a01b03909116815260200161034a565b6103f26103ed366004613133565b6108b2565b005b61035c6104023660046130fe565b60086020526000908152604090205481565b61042761042236600461315d565b61099b565b60408051600f95860b81529390940b602084015292820152606081019190915260800161034a565b61035c6109e2565b61035c61046536600461315d565b6109f2565b6103f261047836600461317f565b610a25565b4361035c565b6103f26104913660046130fe565b610a36565b61035c6104a4366004613133565b6001600160a01b03919091166000908152601060209081526040808320938352929052205490565b6104d4601281565b60405160ff909116815260200161034a565b6103f26104f436600461317f565b610cf0565b61033e610507366004613133565b610d0b565b61051f61051a3660046130fe565b610d1e565b604051600f9190910b815260200161034a565b600a546103c7906001600160a01b031681565b6103f26105533660046131bb565b610d61565b610391604051806040016040528060058152602001640312e302e360dc1b81525081565b6103c761058a3660046130fe565b6000908152600d60205260409020546001600160a01b031690565b61035c6105b336600461315d565b610d9a565b61035c6105c63660046130fe565b60026020526000908152604090205481565b61035c6105e63660046131bb565b610ddc565b61035c6105f93660046130fe565b610dfa565b61051f61060c3660046130fe565b600760205260009081526040902054600f0b81565b61035c61062f36600461315d565b610e5a565b61033e6106423660046130fe565b60096020526000908152604090205460ff1681565b61035c60035481565b61035c61066e3660046130fe565b610e66565b6103f26106813660046130fe565b611008565b6103f261069436600461315d565b61104c565b6103f26106a73660046131e4565b61114b565b6103f26106ba36600461315d565b6111d0565b6106ed6106cd3660046130fe565b60016020819052600091825260409091208054910154600f9190910b9082565b60408051600f9390930b835260208301919091520161034a565b6103f2610715366004613231565b6113b2565b6103f26107283660046130fe565b6114df565b6103f261156b565b6103916107433660046130fe565b6115ab565b6103f261075636600461315d565b611658565b6104276107693660046130fe565b600460205260009081526040902080546001820154600290920154600f82810b93600160801b909304900b919084565b61035c6107a736600461330d565b6117c3565b61035c6107ba36600461315d565b611806565b61035c6107cd3660046130fe565b60066020526000908152604090205481565b61035c6107ed3660046130fe565b611812565b61033e610800366004613342565b6001600160a01b03918216600090815260126020908152604080832093909416825291909152205460ff1690565b6103f261083c36600461315d565b61183a565b61035c61084f3660046130fe565b6000908152600160208190526040909120015490565b6103f26108733660046130fe565b61190e565b6103c77f000000000000000000000000000000000000000000000000000000000000000081565b6103f26108ad3660046130fe565b61193f565b6000818152600d60205260409020546001600160a01b0316806108d457600080fd5b806001600160a01b0316836001600160a01b031614156108f357600080fd5b6000828152600d60209081526040808320546001600160a01b0385811685526012845282852033808752945291909320549216149060ff1681806109345750805b61093d57600080fd5b6000848152600e602052604080822080546001600160a01b0319166001600160a01b0389811691821790925591518793918716917f8c5be1e5ebec7d5bd14f71427d1e84f3dd0314c0f7b2291e5b200ac8c7c3b92591a45050505050565b600560205281600052604060002081633b9aca0081106109ba57600080fd5b6003020180546001820154600290920154600f82810b9550600160801b90920490910b925084565b60006109ed42610dfa565b905090565b600082815260056020526040812082633b9aca008110610a1457610a14613375565b600302016001015490505b92915050565b610a318383833361198b565b505050565b60145460ff16600114610a4857600080fd5b6014805460ff19166002179055610a5f3382611a51565b610a6b57610a6b61338b565b600081815260086020526040902054158015610a96575060008181526009602052604090205460ff16155b610abb5760405162461bcd60e51b8152600401610ab2906133a1565b60405180910390fd5b60008181526001602081815260409283902083518085019094528054600f0b845290910154908201819052421015610b2e5760405162461bcd60e51b8152602060048201526016602482015275546865206c6f636b206469646e27742065787069726560501b6044820152606401610ab2565b805160408051808201825260008082526020808301828152878352600191829052938220925183546001600160801b0319166001600160801b039091161783559251919092015554600f9190910b90610b8782826133d9565b600081905550610bb1848460405180604001604052806000600f0b81526020016000815250611ab7565b60405163a9059cbb60e01b8152336004820152602481018390527f00000000000000000000000000000000000000000000000000000000000000006001600160a01b03169063a9059cbb906044016020604051808303816000875af1158015610c1e573d6000803e3d6000fd5b505050506040513d601f19601f82011682018060405250810190610c4291906133f0565b610c4e57610c4e61338b565b610c57846120d6565b60408051858152602081018490524281830152905133917f02f25270a4d87bea75db541cdfe559334a275b4a233520ed6c0a2429667cca94919081900360600190a27f5e2aa66efd74cce82b21852e317e5490d9ecc9e6bb953ae24d90851258cc2f5c81610cc584826133d9565b6040805192835260208301919091520160405180910390a150506014805460ff191660011790555050565b610a31838383604051806020016040528060008152506113b2565b6000610d178383611a51565b9392505050565b6000818152600660209081526040808320546005909252822081633b9aca008110610d4b57610d4b613375565b6003020154600160801b9004600f0b9392505050565b600a546001600160a01b03163314610d7857600080fd5b600a80546001600160a01b0319166001600160a01b0392909216919091179055565b60145460009060ff16600114610daf57600080fd5b6014805460ff19166002179055610dc7838333612195565b90506014805460ff1916600117905592915050565b6001600160a01b0381166000908152600f6020526040812054610a1f565b600354600081815260046020908152604080832081516080810183528154600f81810b8352600160801b909104900b93810193909352600181015491830191909152600201546060820152909190610e5281856122e6565b949350505050565b6000610d1783836123e8565b600043821115610e7857610e7861338b565b6003546000610e8784836126c0565b600081815260046020908152604080832081516080810183528154600f81810b8352600160801b909104900b9381019390935260018101549183019190915260020154606082015291925083831015610f96576000600481610eea86600161340d565b8152602080820192909252604090810160002081516080810183528154600f81810b8352600160801b909104900b9381019390935260018101549183019190915260020154606080830182905285015191925014610f905782606001518160600151610f5691906133d9565b83604001518260400151610f6a91906133d9565b6060850151610f79908a6133d9565b610f839190613425565b610f8d919061345a565b91505b50610fe5565b43826060015114610fe5576060820151610fb090436133d9565b6040830151610fbf90426133d9565b6060840151610fce90896133d9565b610fd89190613425565b610fe2919061345a565b90505b610ffe82828460400151610ff9919061340d565b6122e6565b9695505050505050565b600a546001600160a01b0316331461101f57600080fd5b60008181526008602052604090205461103a906001906133d9565b60009182526008602052604090912055565b60145460ff1660011461105e57600080fd5b6014805460ff191660021790556110753383611a51565b6110815761108161338b565b60008281526001602081815260409283902083518085019094528054600f0b84529091015490820152816110b7576110b761338b565b60008160000151600f0b136111075760405162461bcd60e51b8152602060048201526016602482015275139bc8195e1a5cdd1a5b99c81b1bd8dac8199bdd5b9960521b6044820152606401610ab2565b4281602001511161112a5760405162461bcd60e51b8152600401610ab29061346e565b6111398383600084600261274a565b50506014805460ff1916600117905550565b6001600160a01b0382163314156111645761116461338b565b3360008181526012602090815260408083206001600160a01b03871680855290835292819020805460ff191686151590811790915590519081529192917f17307eab39ab6107e8899845ad3d59bd9653f200f220920489ca2b5937696c31910160405180910390a35050565b60145460ff166001146111e257600080fd5b6014805460ff191660021790556111f93383611a51565b6112055761120561338b565b600082815260016020818152604080842081518083019092528054600f0b825290920154908201529062093a808061123d854261340d565b611247919061345a565b6112519190613425565b9050428260200151116112955760405162461bcd60e51b815260206004820152600c60248201526b131bd8dac8195e1c1a5c995960a21b6044820152606401610ab2565b60008260000151600f0b136112e05760405162461bcd60e51b8152602060048201526011602482015270139bdd1a1a5b99c81a5cc81b1bd8dad959607a1b6044820152606401610ab2565b816020015181116113335760405162461bcd60e51b815260206004820152601f60248201527f43616e206f6e6c7920696e637265617365206c6f636b206475726174696f6e006044820152606401610ab2565b611341630784ce004261340d565b8111156113905760405162461bcd60e51b815260206004820152601e60248201527f566f74696e67206c6f636b2063616e2062652034207965617273206d617800006044820152606401610ab2565b61139f8460008385600361274a565b50506014805460ff191660011790555050565b6113be8484843361198b565b823b156114d957604051630a85bd0160e11b81526001600160a01b0384169063150b7a02906113f79033908890879087906004016134b2565b6020604051808303816000875af1925050508015611432575060408051601f3d908101601f1916820190925261142f918101906134e5565b60015b6114d7573d808015611460576040519150601f19603f3d011682016040523d82523d6000602084013e611465565b606091505b5080516114cf5760405162461bcd60e51b815260206004820152603260248201527f4552433732313a207472616e7366657220746f206e6f6e20455243373231526560448201527131b2b4bb32b91034b6b83632b6b2b73a32b960711b6064820152608401610ab2565b805181602001fd5b505b50505050565b600a546001600160a01b031633146114f657600080fd5b6000818152600c602052604090205442116115535760405162461bcd60e51b815260206004820152601860248201527f6c6f636b20706572696f64206e6f742066696e697368656400000000000000006044820152606401610ab2565b6000908152600960205260409020805460ff19169055565b6115a9600060405180604001604052806000600f0b8152602001600081525060405180604001604052806000600f0b81526020016000815250611ab7565b565b6000818152600d60205260409020546060906001600160a01b03166116125760405162461bcd60e51b815260206004820152601b60248201527f517565727920666f72206e6f6e6578697374656e7420746f6b656e00000000006044820152606401610ab2565b60008281526001602081815260409283902083518085019094528054600f0b84529091015490820152610d1783611649814261294f565b60208401518451600f0b612a21565b600082815260086020526040902054158015611683575060008281526009602052604090205460ff16155b61169f5760405162461bcd60e51b8152600401610ab2906133a1565b808214156116ac57600080fd5b6116b63383611a51565b6116bf57600080fd5b6116c93382611a51565b6116d257600080fd5b6000828152600160208181526040808420815180830183528154600f90810b82529185015481850190815287875285855283872084518086019095528054840b855290950154938301849052805194519095929490910b92111561173a578260200151611740565b83602001515b604080518082018252600080825260208083018281528b83526001808352858420945185546001600160801b0319166001600160801b0390911617855590519301929092558251808401909352808352908201529091506117a49087908690611ab7565b6117ad866120d6565b6117bb85838386600461274a565b505050505050565b60145460009060ff166001146117d857600080fd5b6014805460ff191660021790556117f0848484612195565b90506014805460ff191660011790559392505050565b6000610d17838361294f565b60008181526002602052604081205443141561183057506000919050565b610a1f824261294f565b60145460ff1660011461184c57600080fd5b6014805460ff1916600217905560008281526001602081815260409283902083518085019094528054600f0b845290910154908201528161188c57600080fd5b60008160000151600f0b136118dc5760405162461bcd60e51b8152602060048201526016602482015275139bc8195e1a5cdd1a5b99c81b1bd8dac8199bdd5b9960521b6044820152606401610ab2565b428160200151116118ff5760405162461bcd60e51b8152600401610ab29061346e565b6111398383600084600061274a565b600a546001600160a01b0316331461192557600080fd5b60008181526008602052604090205461103a90600161340d565b600a546001600160a01b0316331461195657600080fd5b6119634262093a8061340d565b6000918252600c6020908152604080842092909255600990529020805460ff19166001179055565b6000828152600860205260409020541580156119b6575060008281526009602052604090205460ff16155b6119d25760405162461bcd60e51b8152600401610ab2906133a1565b6119dc8183611a51565b6119e557600080fd5b6119ef8483612b58565b6119f98483612bbf565b611a038383612c40565b6000828152600260205260408082204390555183916001600160a01b0380871692908816917fddf252ad1be2c89b69c2b068fc378daa952ba7f163c4a11628f55a4df523b3ef91a450505050565b6000818152600d6020908152604080832054600e8352818420546001600160a01b039182168086526012855283862088841680885295529285205492938085149392909116149060ff168280611aa45750815b80611aac5750805b979650505050505050565b60408051608081018252600080825260208201819052918101829052606081019190915260408051608081018252600080825260208201819052918101829052606081019190915260035460009081908715611c2357428760200151118015611b27575060008760000151600f0b135b15611b6c578651611b3d90630784ce0090613502565b600f0b602080870191909152870151611b579042906133d9565b8560200151611b669190613540565b600f0b85525b428660200151118015611b86575060008660000151600f0b135b15611bcb578551611b9c90630784ce0090613502565b600f0b602080860191909152860151611bb69042906133d9565b8460200151611bc59190613540565b600f0b84525b602080880151600090815260078252604090205490870151600f9190910b935015611c2357866020015186602001511415611c0857829150611c23565b602080870151600090815260079091526040902054600f0b91505b604080516080810182526000808252602082015242918101919091524360608201528115611c98575060008181526004602090815260409182902082516080810184528154600f81810b8352600160801b909104900b9281019290925260018101549282019290925260029091015460608201525b604081015181600042831015611ce5576040840151611cb790426133d9565b6060850151611cc690436133d9565b611cd890670de0b6b3a7640000613425565b611ce2919061345a565b90505b600062093a80611cf5818661345a565b611cff9190613425565b905060005b60ff811015611e7a57611d1a62093a808361340d565b9150600042831115611d2e57429250611d42565b50600082815260076020526040902054600f0b5b611d4c86846133d9565b8760200151611d5b9190613540565b87518890611d6a9083906135d5565b600f0b905250602087018051829190611d84908390613625565b600f90810b90915288516000910b12159050611d9f57600087525b60008760200151600f0b1215611db757600060208801525b60408088018490528501519295508592670de0b6b3a764000090611ddb90856133d9565b611de59086613425565b611def919061345a565b8560600151611dfe919061340d565b6060880152611e0e60018961340d565b975042831415611e245750436060870152611e7a565b6000888152600460209081526040918290208951918a01516001600160801b03908116600160801b029216919091178155908801516001820155606088015160029091015550611e7381613674565b9050611d04565b505060038590558b15611f055788602001518860200151611e9b91906135d5565b84602001818151611eac9190613625565b600f0b90525088518851611ec091906135d5565b84518590611ecf908390613625565b600f90810b90915260208601516000910b12159050611ef057600060208501525b60008460000151600f0b1215611f0557600084525b6000858152600460209081526040918290208651918701516001600160801b03908116600160801b02921691909117815590850151600182015560608501516002909101558b156120c857428b602001511115611fbd576020890151611f6b9088613625565b96508a602001518a602001511415611f8f576020880151611f8c90886135d5565b96505b60208b810151600090815260079091526040902080546001600160801b0319166001600160801b0389161790555b428a602001511115612018578a602001518a602001511115612018576020880151611fe890876135d5565b60208b810151600090815260079091526040902080546001600160801b0319166001600160801b03831617905595505b60008c81526006602052604081205461203290600161340d565b905080600660008f815260200190815260200160002081905550428960400181815250504389606001818152505088600560008f815260200190815260200160002082633b9aca00811061208857612088613375565b825160208401516001600160801b03908116600160801b029116176003919091029190910190815560408201516001820155606090910151600290910155505b505050505050505050505050565b6120e03382611a51565b61212c5760405162461bcd60e51b815260206004820181905260248201527f63616c6c6572206973206e6f74206f776e6572206e6f7220617070726f7665646044820152606401610ab2565b6000818152600d60205260408120546001600160a01b03169061214f90836108b2565b6121593383612bbf565b60405182906000906001600160a01b038416907fddf252ad1be2c89b69c2b068fc378daa952ba7f163c4a11628f55a4df523b3ef908390a45050565b60008062093a80806121a7864261340d565b6121b1919061345a565b6121bb9190613425565b9050600085116121ca57600080fd5b4281116122285760405162461bcd60e51b815260206004820152602660248201527f43616e206f6e6c79206c6f636b20756e74696c2074696d6520696e207468652060448201526566757475726560d01b6064820152608401610ab2565b612236630784ce004261340d565b8111156122855760405162461bcd60e51b815260206004820152601e60248201527f566f74696e67206c6f636b2063616e2062652034207965617273206d617800006044820152606401610ab2565b600b6000815461229490613674565b90915550600b546122a58482612cd6565b5060008181526001602081815260409283902083518085019094528054600f0b8452820154908301526122dd9183918991869161274a565b95945050505050565b600080839050600062093a80808360400151612302919061345a565b61230c9190613425565b905060005b60ff8110156123c05761232762093a808361340d565b915060008583111561233b5785925061234f565b50600082815260076020526040902054600f0b5b604084015161235e90846133d9565b846020015161236d9190613540565b8451859061237c9083906135d5565b600f0b9052508286141561239057506123c0565b80846020018181516123a29190613625565b600f0b90525050604083018290526123b981613674565b9050612311565b5060008260000151600f0b12156123d657600082525b50516001600160801b03169392505050565b6000438211156123fa576123fa61338b565b600083815260066020526040812054815b608081101561249e578183106124205761249e565b6000600261242e848661340d565b61243990600161340d565b612443919061345a565b6000888152600560205260409020909150869082633b9aca00811061246a5761246a613375565b60030201600201541161247f5780935061248d565b61248a6001826133d9565b92505b5061249781613674565b905061240b565b50600085815260056020526040812083633b9aca0081106124c1576124c1613375565b604080516080810182526003928302939093018054600f81810b8652600160801b909104900b602085015260018101549184019190915260020154606083015254909150600061251187836126c0565b600081815260046020908152604080832081516080810183528154600f81810b8352600160801b909104900b9381019390935260018101549183019190915260020154606082015291925080848410156125f057600060048161257587600161340d565b8152602080820192909252604090810160002081516080810183528154600f81810b8352600160801b909104900b938101939093526001810154918301919091526002015460608083018290528601519192506125d291906133d9565b9250836040015181604001516125e891906133d9565b915050612614565b60608301516125ff90436133d9565b915082604001514261261191906133d9565b90505b60408301518215612651578284606001518c61263091906133d9565b61263a9084613425565b612644919061345a565b61264e908261340d565b90505b604087015161266090826133d9565b876020015161266f9190613540565b8751889061267e9083906135d5565b600f90810b90915288516000910b1290506126ae57505093516001600160801b03169650610a1f95505050505050565b60009950505050505050505050610a1f565b60008082815b6080811015612740578183106126db57612740565b600060026126e9848661340d565b6126f490600161340d565b6126fe919061345a565b60008181526004602052604090206002015490915087106127215780935061272f565b61272c6001826133d9565b92505b5061273981613674565b90506126c6565b5090949350505050565b6000548290612759868261340d565b6000908155604080518082019091528181526020810191909152825160208085015190830152600f0b8152825187908490612795908390613625565b600f0b90525085156127a957602083018690525b6000888152600160208181526040909220855181546001600160801b0319166001600160801b03909116178155918501519101556127e8888285611ab7565b33871580159061280a575060048560048111156128075761280761368f565b14155b156128b4576040516323b872dd60e01b81526001600160a01b038281166004830152306024830152604482018a90527f000000000000000000000000000000000000000000000000000000000000000016906323b872dd906064016020604051808303816000875af1158015612884573d6000803e3d6000fd5b505050506040513d601f19601f820116820180604052508101906128a891906133f0565b6128b4576128b461338b565b8360200151816001600160a01b03167fff04ccafc360e16b67d682d17bd9503c4c6b9a131f6be6325762dc9ffc7de6248b8b89426040516128f894939291906136a5565b60405180910390a37f5e2aa66efd74cce82b21852e317e5490d9ecc9e6bb953ae24d90851258cc2f5c8361292c8a8261340d565b6040805192835260208301919091520160405180910390a1505050505050505050565b6000828152600660205260408120548061296d576000915050610a1f565b600084815260056020526040812082633b9aca00811061298f5761298f613375565b60408051608081018252600392909202929092018054600f81810b8452600160801b909104900b6020830152600181015492820183905260020154606082015291506129db90856136e3565b81602001516129ea9190613540565b815182906129f99083906135d5565b600f90810b90915282516000910b12159050612a1457600081525b51600f0b9150610a1f9050565b606060405180610120016040528060fd8152602001613a6960fd9139905080612a4986612d39565b604051602001612a5a929190613722565b604051602081830303815290604052905080612a7585612d39565b604051602001612a8692919061379e565b604051602081830303815290604052905080612aa184612d39565b604051602001612ab292919061381e565b604051602081830303815290604052905080612acd83612d39565b604051602001612ade92919061389f565b60405160208183030381529060405290506000612b2b612afd87612d39565b612b0684612e37565b604051602001612b179291906138fa565b604051602081830303815290604052612e37565b905080604051602001612b3e9190613a0f565b604051602081830303815290604052915050949350505050565b6000818152600d60205260409020546001600160a01b03838116911614612b8157612b8161338b565b6000818152600e60205260409020546001600160a01b031615612bbb576000818152600e6020526040902080546001600160a01b03191690555b5050565b6000818152600d60205260409020546001600160a01b03838116911614612be857612be861338b565b6000818152600d6020526040902080546001600160a01b0319169055612c0e8282612f9d565b6001600160a01b0382166000908152600f60205260408120805460019290612c379084906133d9565b90915550505050565b6000818152600d60205260409020546001600160a01b031615612c6557612c6561338b565b6000818152600d6020908152604080832080546001600160a01b0319166001600160a01b038716908117909155808452600f80845282852080546010865284872081885286528487208890558787526011865293862093909355908452909152805460019290612c3790849061340d565b60006001600160a01b038316612cee57612cee61338b565b612cf88383612c40565b60405182906001600160a01b038516906000907fddf252ad1be2c89b69c2b068fc378daa952ba7f163c4a11628f55a4df523b3ef908290a450600192915050565b606081612d5d5750506040805180820190915260018152600360fc1b602082015290565b8160005b8115612d875780612d7181613674565b9150612d809050600a8361345a565b9150612d61565b60008167ffffffffffffffff811115612da257612da261321b565b6040519080825280601f01601f191660200182016040528015612dcc576020820181803683370190505b5090505b8415610e5257612de16001836133d9565b9150612dee600a86613a54565b612df990603061340d565b60f81b818381518110612e0e57612e0e613375565b60200101906001600160f81b031916908160001a905350612e30600a8661345a565b9450612dd0565b805160609080612e57575050604080516020810190915260008152919050565b60006003612e6683600261340d565b612e70919061345a565b612e7b906004613425565b90506000612e8a82602061340d565b67ffffffffffffffff811115612ea257612ea261321b565b6040519080825280601f01601f191660200182016040528015612ecc576020820181803683370190505b5090506000604051806060016040528060408152602001613b66604091399050600181016020830160005b86811015612f58576003818a01810151603f601282901c8116860151600c83901c8216870151600684901c831688015192909316870151600891821b60ff94851601821b92841692909201901b91160160e01b835260049092019101612ef7565b506003860660018114612f725760028114612f8357612f8f565b613d3d60f01b600119830152612f8f565b603d60f81b6000198301525b505050918152949350505050565b6001600160a01b0382166000908152600f6020526040812054612fc2906001906133d9565b60008381526011602052604090205490915080821415613012576001600160a01b0384166000908152601060209081526040808320858452825280832083905585835260119091528120556114d9565b6001600160a01b039390931660009081526010602090815260408083209383529281528282208054868452848420819055835260119091528282209490945592839055908252812055565b6001600160e01b03198116811461307357600080fd5b50565b60006020828403121561308857600080fd5b8135610d178161305d565b60005b838110156130ae578181015183820152602001613096565b838111156114d95750506000910152565b600081518084526130d7816020860160208601613093565b601f01601f19169290920160200192915050565b602081526000610d1760208301846130bf565b60006020828403121561311057600080fd5b5035919050565b80356001600160a01b038116811461312e57600080fd5b919050565b6000806040838503121561314657600080fd5b61314f83613117565b946020939093013593505050565b6000806040838503121561317057600080fd5b50508035926020909101359150565b60008060006060848603121561319457600080fd5b61319d84613117565b92506131ab60208501613117565b9150604084013590509250925092565b6000602082840312156131cd57600080fd5b610d1782613117565b801515811461307357600080fd5b600080604083850312156131f757600080fd5b61320083613117565b91506020830135613210816131d6565b809150509250929050565b634e487b7160e01b600052604160045260246000fd5b6000806000806080858703121561324757600080fd5b61325085613117565b935061325e60208601613117565b925060408501359150606085013567ffffffffffffffff8082111561328257600080fd5b818701915087601f83011261329657600080fd5b8135818111156132a8576132a861321b565b604051601f8201601f19908116603f011681019083821181831017156132d0576132d061321b565b816040528281528a60208487010111156132e957600080fd5b82602086016020830137600060208483010152809550505050505092959194509250565b60008060006060848603121561332257600080fd5b833592506020840135915061333960408501613117565b90509250925092565b6000806040838503121561335557600080fd5b61335e83613117565b915061336c60208401613117565b90509250929050565b634e487b7160e01b600052603260045260246000fd5b634e487b7160e01b600052600160045260246000fd5b602080825260089082015267185d1d1858da195960c21b604082015260600190565b634e487b7160e01b600052601160045260246000fd5b6000828210156133eb576133eb6133c3565b500390565b60006020828403121561340257600080fd5b8151610d17816131d6565b60008219821115613420576134206133c3565b500190565b600081600019048311821515161561343f5761343f6133c3565b500290565b634e487b7160e01b600052601260045260246000fd5b60008261346957613469613444565b500490565b60208082526024908201527f43616e6e6f742061646420746f2065787069726564206c6f636b2e20576974686040820152636472617760e01b606082015260800190565b6001600160a01b0385811682528416602082015260408101839052608060608201819052600090610ffe908301846130bf565b6000602082840312156134f757600080fd5b8151610d178161305d565b600081600f0b83600f0b8061351957613519613444565b60016001607f1b0319821460001982141615613537576135376133c3565b90059392505050565b600081600f0b83600f0b60016001607f1b03600082136000841383830485118282161615613570576135706133c3565b60016001607f1b03196000851282811687830587121615613593576135936133c3565b600087129250858205871284841616156135af576135af6133c3565b858505871281841616156135c5576135c56133c3565b5050509290910295945050505050565b600081600f0b83600f0b600081128160016001607f1b031901831281151615613600576136006133c3565b8160016001607f1b0301831381161561361b5761361b6133c3565b5090039392505050565b600081600f0b83600f0b600082128260016001607f1b030382138115161561364f5761364f6133c3565b8260016001607f1b031903821281161561366b5761366b6133c3565b50019392505050565b6000600019821415613688576136886133c3565b5060010190565b634e487b7160e01b600052602160045260246000fd5b8481526020810184905260808101600584106136d157634e487b7160e01b600052602160045260246000fd5b60408201939093526060015292915050565b60008083128015600160ff1b850184121615613701576137016133c3565b6001600160ff1b038401831381161561371c5761371c6133c3565b50500390565b60008351613734818460208801613093565b6503a37b5b2b7160d51b9083019081528351613757816006840160208801613093565b7f3c2f746578743e3c7465787420783d2231302220793d2234302220636c61737360069290910191820152671e913130b9b2911f60c11b6026820152602e01949350505050565b600083516137b0818460208801613093565b6903130b630b731b2a7b3160b51b90830190815283516137d781600a840160208801613093565b7f3c2f746578743e3c7465787420783d2231302220793d2236302220636c617373600a9290910191820152671e913130b9b2911f60c11b602a820152603201949350505050565b60008351613830818460208801613093565b6a03637b1b5b2b22fb2b732160ad1b908301908152835161385881600b840160208801613093565b7f3c2f746578743e3c7465787420783d2231302220793d2238302220636c617373600b9290910191820152671e913130b9b2911f60c11b602b820152603301949350505050565b600083516138b1818460208801613093565b6503b30b63ab2960d51b90830190815283516138d4816006840160208801613093565b6c1e17ba32bc3a1f1e17b9bb339f60991b60069290910191820152601301949350505050565b6f7b226e616d65223a20226c6f636b202360801b81528251600090613926816010850160208801613093565b7f222c20226465736372697074696f6e223a2022536f6c69646c79206c6f636b736010918401918201527f2c2063616e206265207573656420746f20626f6f73742067617567652079696560308201527f6c64732c20766f7465206f6e20746f6b656e20656d697373696f6e2c20616e6460508201527f207265636569766520627269626573222c2022696d616765223a2022646174616070820152750e9a5b5859d94bdcdd99cade1b5b0ed8985cd94d8d0b60521b609082015283516139f48160a6840160208801613093565b61227d60f01b60a6929091019182015260a801949350505050565b7f646174613a6170706c69636174696f6e2f6a736f6e3b6261736536342c000000815260008251613a4781601d850160208701613093565b91909101601d0192915050565b600082613a6357613a63613444565b50069056fe3c73766720786d6c6e733d22687474703a2f2f7777772e77332e6f72672f323030302f73766722207072657365727665417370656374526174696f3d22784d696e594d696e206d656574222076696577426f783d223020302033353020333530223e3c7374796c653e2e62617365207b2066696c6c3a2077686974653b20666f6e742d66616d696c793a2073657269663b20666f6e742d73697a653a20313470783b207d3c2f7374796c653e3c726563742077696474683d223130302522206865696768743d2231303025222066696c6c3d22626c61636b22202f3e3c7465787420783d2231302220793d2232302220636c6173733d2262617365223e4142434445464748494a4b4c4d4e4f505152535455565758595a6162636465666768696a6b6c6d6e6f707172737475767778797a303132333435363738392b2fa264697066735822122075376ddd6ede8682208f765ab48433e8db5072b0c67158b9e1d4a4e15fc980e964736f6c634300080b0033ddf252ad1be2c89b69c2b068fc378daa952ba7f163c4a11628f55a4df523b3ef",
          "opcodes": "PUSH1 0xA0 PUSH1 0x40 MSTORE PUSH1 0x14 DUP1 SLOAD PUSH1 0xFF NOT AND PUSH1 0x1 OR SWAP1 SSTORE CALLVALUE DUP1 ISZERO PUSH3 0x1E JUMPI PUSH1 0x0 DUP1 REVERT JUMPDEST POP PUSH1 0x40 MLOAD PUSH3 0x3DD8 CODESIZE SUB DUP1 PUSH3 0x3DD8 DUP4 CODECOPY DUP2 ADD PUSH1 0x40 DUP2 SWAP1 MSTORE PUSH3 0x41 SWAP2 PUSH3 0x181 JUMP JUMPDEST PUSH1 0x1 PUSH1 0x1 PUSH1 0xA0 SHL SUB DUP2 AND PUSH1 0x80 MSTORE PUSH1 0xA DUP1 SLOAD PUSH1 0x1 PUSH1 0x1 PUSH1 0xA0 SHL SUB NOT AND CALLER OR SWAP1 SSTORE NUMBER PUSH32 0x17EF568E3E12AB5B9C7254A8D58478811DE00F9E6EB34345ACD53BF8FD09D3EE SSTORE TIMESTAMP PUSH32 0x17EF568E3E12AB5B9C7254A8D58478811DE00F9E6EB34345ACD53BF8FD09D3ED SSTORE PUSH1 0x13 PUSH1 0x20 MSTORE PUSH32 0x317681100331673B27C2499894E78912F138AE85F2DD790E454FF96A89CF2D77 DUP1 SLOAD PUSH1 0xFF NOT SWAP1 DUP2 AND PUSH1 0x1 SWAP1 DUP2 OR SWAP1 SWAP3 SSTORE PUSH32 0x5829B1F18259A9CDCD4268C3B072804D2F8E3DEDBB1B883DB1FA2055BB26D84F DUP1 SLOAD DUP3 AND DUP4 OR SWAP1 SSTORE PUSH4 0x5B5E139F PUSH1 0xE0 SHL PUSH1 0x0 SWAP1 DUP2 MSTORE PUSH32 0x65CB089FA41783E5AF12E88573D882F263C09532A373334F0B809825D5A904AB DUP1 SLOAD SWAP1 SWAP3 AND SWAP1 SWAP3 OR SWAP1 SSTORE PUSH1 0xB SLOAD PUSH1 0x40 MLOAD SWAP1 SWAP2 ADDRESS SWAP2 PUSH1 0x0 DUP1 MLOAD PUSH1 0x20 PUSH3 0x3DB8 DUP4 CODECOPY DUP2 MLOAD SWAP2 MSTORE SWAP1 DUP3 SWAP1 LOG4 PUSH1 0xB SLOAD PUSH1 0x40 MLOAD PUSH1 0x0 SWAP1 ADDRESS SWAP1 PUSH1 0x0 DUP1 MLOAD PUSH1 0x20 PUSH3 0x3DB8 DUP4 CODECOPY DUP2 MLOAD SWAP2 MSTORE SWAP1 DUP4 SWAP1 LOG4 POP PUSH3 0x1B3 JUMP JUMPDEST PUSH1 0x0 PUSH1 0x20 DUP3 DUP5 SUB SLT ISZERO PUSH3 0x194 JUMPI PUSH1 0x0 DUP1 REVERT JUMPDEST DUP2 MLOAD PUSH1 0x1 PUSH1 0x1 PUSH1 0xA0 SHL SUB DUP2 AND DUP2 EQ PUSH3 0x1AC JUMPI PUSH1 0x0 DUP1 REVERT JUMPDEST SWAP4 SWAP3 POP POP POP JUMP JUMPDEST PUSH1 0x80 MLOAD PUSH2 0x3BDB PUSH3 0x1DD PUSH1 0x0 CODECOPY PUSH1 0x0 DUP2 DUP2 PUSH2 0x87D ADD MSTORE DUP2 DUP2 PUSH2 0xBCD ADD MSTORE PUSH2 0x283B ADD MSTORE PUSH2 0x3BDB PUSH1 0x0 RETURN INVALID PUSH1 0x80 PUSH1 0x40 MSTORE CALLVALUE DUP1 ISZERO PUSH2 0x10 JUMPI PUSH1 0x0 DUP1 REVERT JUMPDEST POP PUSH1 0x4 CALLDATASIZE LT PUSH2 0x30C JUMPI PUSH1 0x0 CALLDATALOAD PUSH1 0xE0 SHR DUP1 PUSH4 0x8C2C9BAF GT PUSH2 0x19D JUMPI DUP1 PUSH4 0xC87B56DD GT PUSH2 0xE9 JUMPI DUP1 PUSH4 0xE7E242D4 GT PUSH2 0xA2 JUMPI DUP1 PUSH4 0xF8A05763 GT PUSH2 0x7C JUMPI DUP1 PUSH4 0xF8A05763 EQ PUSH2 0x841 JUMPI DUP1 PUSH4 0xFBD3A29D EQ PUSH2 0x865 JUMPI DUP1 PUSH4 0xFC0C546A EQ PUSH2 0x878 JUMPI DUP1 PUSH4 0xFD4A77F1 EQ PUSH2 0x89F JUMPI PUSH1 0x0 DUP1 REVERT JUMPDEST DUP1 PUSH4 0xE7E242D4 EQ PUSH2 0x7DF JUMPI DUP1 PUSH4 0xE985E9C5 EQ PUSH2 0x7F2 JUMPI DUP1 PUSH4 0xEE99FE28 EQ PUSH2 0x82E JUMPI PUSH1 0x0 DUP1 REVERT JUMPDEST DUP1 PUSH4 0xC87B56DD EQ PUSH2 0x735 JUMPI DUP1 PUSH4 0xD1C2BABB EQ PUSH2 0x748 JUMPI DUP1 PUSH4 0xD1FEBFB9 EQ PUSH2 0x75B JUMPI DUP1 PUSH4 0xD4E54C3B EQ PUSH2 0x799 JUMPI DUP1 PUSH4 0xE0514ABA EQ PUSH2 0x7AC JUMPI DUP1 PUSH4 0xE441135C EQ PUSH2 0x7BF JUMPI PUSH1 0x0 DUP1 REVERT JUMPDEST DUP1 PUSH4 0xA183AF52 GT PUSH2 0x156 JUMPI DUP1 PUSH4 0xB45A3C0E GT PUSH2 0x130 JUMPI DUP1 PUSH4 0xB45A3C0E EQ PUSH2 0x6BF JUMPI DUP1 PUSH4 0xB88D4FDE EQ PUSH2 0x707 JUMPI DUP1 PUSH4 0xC1F0FB9F EQ PUSH2 0x71A JUMPI DUP1 PUSH4 0xC2C4C5C1 EQ PUSH2 0x72D JUMPI PUSH1 0x0 DUP1 REVERT JUMPDEST DUP1 PUSH4 0xA183AF52 EQ PUSH2 0x686 JUMPI DUP1 PUSH4 0xA22CB465 EQ PUSH2 0x699 JUMPI DUP1 PUSH4 0xA4D855DF EQ PUSH2 0x6AC JUMPI PUSH1 0x0 DUP1 REVERT JUMPDEST DUP1 PUSH4 0x8C2C9BAF EQ PUSH2 0x621 JUMPI DUP1 PUSH4 0x8FBB38FF EQ PUSH2 0x634 JUMPI DUP1 PUSH4 0x900CF0CF EQ PUSH2 0x657 JUMPI DUP1 PUSH4 0x95D89B41 EQ PUSH2 0x36A JUMPI DUP1 PUSH4 0x981B24D0 EQ PUSH2 0x660 JUMPI DUP1 PUSH4 0x986B7D8A EQ PUSH2 0x673 JUMPI PUSH1 0x0 DUP1 REVERT JUMPDEST DUP1 PUSH4 0x313CE567 GT PUSH2 0x25C JUMPI DUP1 PUSH4 0x54FD4D50 GT PUSH2 0x215 JUMPI DUP1 PUSH4 0x6F548837 GT PUSH2 0x1EF JUMPI DUP1 PUSH4 0x6F548837 EQ PUSH2 0x5B8 JUMPI DUP1 PUSH4 0x70A08231 EQ PUSH2 0x5D8 JUMPI DUP1 PUSH4 0x7116C60C EQ PUSH2 0x5EB JUMPI DUP1 PUSH4 0x71197484 EQ PUSH2 0x5FE JUMPI PUSH1 0x0 DUP1 REVERT JUMPDEST DUP1 PUSH4 0x54FD4D50 EQ PUSH2 0x558 JUMPI DUP1 PUSH4 0x6352211E EQ PUSH2 0x57C JUMPI DUP1 PUSH4 0x65FC3873 EQ PUSH2 0x5A5 JUMPI PUSH1 0x0 DUP1 REVERT JUMPDEST DUP1 PUSH4 0x313CE567 EQ PUSH2 0x4CC JUMPI DUP1 PUSH4 0x42842E0E EQ PUSH2 0x4E6 JUMPI DUP1 PUSH4 0x430C2081 EQ PUSH2 0x4F9 JUMPI DUP1 PUSH4 0x461F711C EQ PUSH2 0x50C JUMPI DUP1 PUSH4 0x46C96AAC EQ PUSH2 0x532 JUMPI DUP1 PUSH4 0x4BC2A657 EQ PUSH2 0x545 JUMPI PUSH1 0x0 DUP1 REVERT JUMPDEST DUP1 PUSH4 0x1376F3DA GT PUSH2 0x2C9 JUMPI DUP1 PUSH4 0x23B872DD GT PUSH2 0x2A3 JUMPI DUP1 PUSH4 0x23B872DD EQ PUSH2 0x46A JUMPI DUP1 PUSH4 0x25A58B56 EQ PUSH2 0x47D JUMPI DUP1 PUSH4 0x2E1A7D4D EQ PUSH2 0x483 JUMPI DUP1 PUSH4 0x2F745C59 EQ PUSH2 0x496 JUMPI PUSH1 0x0 DUP1 REVERT JUMPDEST DUP1 PUSH4 0x1376F3DA EQ PUSH2 0x414 JUMPI DUP1 PUSH4 0x18160DDD EQ PUSH2 0x44F JUMPI DUP1 PUSH4 0x1C984BC3 EQ PUSH2 0x457 JUMPI PUSH1 0x0 DUP1 REVERT JUMPDEST DUP1 PUSH4 0x1FFC9A7 EQ PUSH2 0x311 JUMPI DUP1 PUSH4 0x47FC9AA EQ PUSH2 0x353 JUMPI DUP1 PUSH4 0x6FDDE03 EQ PUSH2 0x36A JUMPI DUP1 PUSH4 0x81812FC EQ PUSH2 0x39E JUMPI DUP1 PUSH4 0x95EA7B3 EQ PUSH2 0x3DF JUMPI DUP1 PUSH4 0xD6A2033 EQ PUSH2 0x3F4 JUMPI JUMPDEST PUSH1 0x0 DUP1 REVERT JUMPDEST PUSH2 0x33E PUSH2 0x31F CALLDATASIZE PUSH1 0x4 PUSH2 0x3076 JUMP JUMPDEST PUSH1 0x1 PUSH1 0x1 PUSH1 0xE0 SHL SUB NOT AND PUSH1 0x0 SWAP1 DUP2 MSTORE PUSH1 0x13 PUSH1 0x20 MSTORE PUSH1 0x40 SWAP1 KECCAK256 SLOAD PUSH1 0xFF AND SWAP1 JUMP JUMPDEST PUSH1 0x40 MLOAD SWAP1 ISZERO ISZERO DUP2 MSTORE PUSH1 0x20 ADD JUMPDEST PUSH1 0x40 MLOAD DUP1 SWAP2 SUB SWAP1 RETURN JUMPDEST PUSH2 0x35C PUSH1 0x0 SLOAD DUP2 JUMP JUMPDEST PUSH1 0x40 MLOAD SWAP1 DUP2 MSTORE PUSH1 0x20 ADD PUSH2 0x34A JUMP JUMPDEST PUSH2 0x391 PUSH1 0x40 MLOAD DUP1 PUSH1 0x40 ADD PUSH1 0x40 MSTORE DUP1 PUSH1 0x8 DUP2 MSTORE PUSH1 0x20 ADD PUSH8 0x1B5A5B9D1CD39195 PUSH1 0xC2 SHL DUP2 MSTORE POP DUP2 JUMP JUMPDEST PUSH1 0x40 MLOAD PUSH2 0x34A SWAP2 SWAP1 PUSH2 0x30EB JUMP JUMPDEST PUSH2 0x3C7 PUSH2 0x3AC CALLDATASIZE PUSH1 0x4 PUSH2 0x30FE JUMP JUMPDEST PUSH1 0x0 SWAP1 DUP2 MSTORE PUSH1 0xE PUSH1 0x20 MSTORE PUSH1 0x40 SWAP1 KECCAK256 SLOAD PUSH1 0x1 PUSH1 0x1 PUSH1 0xA0 SHL SUB AND SWAP1 JUMP JUMPDEST PUSH1 0x40 MLOAD PUSH1 0x1 PUSH1 0x1 PUSH1 0xA0 SHL SUB SWAP1 SWAP2 AND DUP2 MSTORE PUSH1 0x20 ADD PUSH2 0x34A JUMP JUMPDEST PUSH2 0x3F2 PUSH2 0x3ED CALLDATASIZE PUSH1 0x4 PUSH2 0x3133 JUMP JUMPDEST PUSH2 0x8B2 JUMP JUMPDEST STOP JUMPDEST PUSH2 0x35C PUSH2 0x402 CALLDATASIZE PUSH1 0x4 PUSH2 0x30FE JUMP JUMPDEST PUSH1 0x8 PUSH1 0x20 MSTORE PUSH1 0x0 SWAP1 DUP2 MSTORE PUSH1 0x40 SWAP1 KECCAK256 SLOAD DUP2 JUMP JUMPDEST PUSH2 0x427 PUSH2 0x422 CALLDATASIZE PUSH1 0x4 PUSH2 0x315D JUMP JUMPDEST PUSH2 0x99B JUMP JUMPDEST PUSH1 0x40 DUP1 MLOAD PUSH1 0xF SWAP6 DUP7 SIGNEXTEND DUP2 MSTORE SWAP4 SWAP1 SWAP5 SIGNEXTEND PUSH1 0x20 DUP5 ADD MSTORE SWAP3 DUP3 ADD MSTORE PUSH1 0x60 DUP2 ADD SWAP2 SWAP1 SWAP2 MSTORE PUSH1 0x80 ADD PUSH2 0x34A JUMP JUMPDEST PUSH2 0x35C PUSH2 0x9E2 JUMP JUMPDEST PUSH2 0x35C PUSH2 0x465 CALLDATASIZE PUSH1 0x4 PUSH2 0x315D JUMP JUMPDEST PUSH2 0x9F2 JUMP JUMPDEST PUSH2 0x3F2 PUSH2 0x478 CALLDATASIZE PUSH1 0x4 PUSH2 0x317F JUMP JUMPDEST PUSH2 0xA25 JUMP JUMPDEST NUMBER PUSH2 0x35C JUMP JUMPDEST PUSH2 0x3F2 PUSH2 0x491 CALLDATASIZE PUSH1 0x4 PUSH2 0x30FE JUMP JUMPDEST PUSH2 0xA36 JUMP JUMPDEST PUSH2 0x35C PUSH2 0x4A4 CALLDATASIZE PUSH1 0x4 PUSH2 0x3133 JUMP JUMPDEST PUSH1 0x1 PUSH1 0x1 PUSH1 0xA0 SHL SUB SWAP2 SWAP1 SWAP2 AND PUSH1 0x0 SWAP1 DUP2 MSTORE PUSH1 0x10 PUSH1 0x20 SWAP1 DUP2 MSTORE PUSH1 0x40 DUP1 DUP4 KECCAK256 SWAP4 DUP4 MSTORE SWAP3 SWAP1 MSTORE KECCAK256 SLOAD SWAP1 JUMP JUMPDEST PUSH2 0x4D4 PUSH1 0x12 DUP2 JUMP JUMPDEST PUSH1 0x40 MLOAD PUSH1 0xFF SWAP1 SWAP2 AND DUP2 MSTORE PUSH1 0x20 ADD PUSH2 0x34A JUMP JUMPDEST PUSH2 0x3F2 PUSH2 0x4F4 CALLDATASIZE PUSH1 0x4 PUSH2 0x317F JUMP JUMPDEST PUSH2 0xCF0 JUMP JUMPDEST PUSH2 0x33E PUSH2 0x507 CALLDATASIZE PUSH1 0x4 PUSH2 0x3133 JUMP JUMPDEST PUSH2 0xD0B JUMP JUMPDEST PUSH2 0x51F PUSH2 0x51A CALLDATASIZE PUSH1 0x4 PUSH2 0x30FE JUMP JUMPDEST PUSH2 0xD1E JUMP JUMPDEST PUSH1 0x40 MLOAD PUSH1 0xF SWAP2 SWAP1 SWAP2 SIGNEXTEND DUP2 MSTORE PUSH1 0x20 ADD PUSH2 0x34A JUMP JUMPDEST PUSH1 0xA SLOAD PUSH2 0x3C7 SWAP1 PUSH1 0x1 PUSH1 0x1 PUSH1 0xA0 SHL SUB AND DUP2 JUMP JUMPDEST PUSH2 0x3F2 PUSH2 0x553 CALLDATASIZE PUSH1 0x4 PUSH2 0x31BB JUMP JUMPDEST PUSH2 0xD61 JUMP JUMPDEST PUSH2 0x391 PUSH1 0x40 MLOAD DUP1 PUSH1 0x40 ADD PUSH1 0x40 MSTORE DUP1 PUSH1 0x5 DUP2 MSTORE PUSH1 0x20 ADD PUSH5 0x312E302E3 PUSH1 0xDC SHL DUP2 MSTORE POP DUP2 JUMP JUMPDEST PUSH2 0x3C7 PUSH2 0x58A CALLDATASIZE PUSH1 0x4 PUSH2 0x30FE JUMP JUMPDEST PUSH1 0x0 SWAP1 DUP2 MSTORE PUSH1 0xD PUSH1 0x20 MSTORE PUSH1 0x40 SWAP1 KECCAK256 SLOAD PUSH1 0x1 PUSH1 0x1 PUSH1 0xA0 SHL SUB AND SWAP1 JUMP JUMPDEST PUSH2 0x35C PUSH2 0x5B3 CALLDATASIZE PUSH1 0x4 PUSH2 0x315D JUMP JUMPDEST PUSH2 0xD9A JUMP JUMPDEST PUSH2 0x35C PUSH2 0x5C6 CALLDATASIZE PUSH1 0x4 PUSH2 0x30FE JUMP JUMPDEST PUSH1 0x2 PUSH1 0x20 MSTORE PUSH1 0x0 SWAP1 DUP2 MSTORE PUSH1 0x40 SWAP1 KECCAK256 SLOAD DUP2 JUMP JUMPDEST PUSH2 0x35C PUSH2 0x5E6 CALLDATASIZE PUSH1 0x4 PUSH2 0x31BB JUMP JUMPDEST PUSH2 0xDDC JUMP JUMPDEST PUSH2 0x35C PUSH2 0x5F9 CALLDATASIZE PUSH1 0x4 PUSH2 0x30FE JUMP JUMPDEST PUSH2 0xDFA JUMP JUMPDEST PUSH2 0x51F PUSH2 0x60C CALLDATASIZE PUSH1 0x4 PUSH2 0x30FE JUMP JUMPDEST PUSH1 0x7 PUSH1 0x20 MSTORE PUSH1 0x0 SWAP1 DUP2 MSTORE PUSH1 0x40 SWAP1 KECCAK256 SLOAD PUSH1 0xF SIGNEXTEND DUP2 JUMP JUMPDEST PUSH2 0x35C PUSH2 0x62F CALLDATASIZE PUSH1 0x4 PUSH2 0x315D JUMP JUMPDEST PUSH2 0xE5A JUMP JUMPDEST PUSH2 0x33E PUSH2 0x642 CALLDATASIZE PUSH1 0x4 PUSH2 0x30FE JUMP JUMPDEST PUSH1 0x9 PUSH1 0x20 MSTORE PUSH1 0x0 SWAP1 DUP2 MSTORE PUSH1 0x40 SWAP1 KECCAK256 SLOAD PUSH1 0xFF AND DUP2 JUMP JUMPDEST PUSH2 0x35C PUSH1 0x3 SLOAD DUP2 JUMP JUMPDEST PUSH2 0x35C PUSH2 0x66E CALLDATASIZE PUSH1 0x4 PUSH2 0x30FE JUMP JUMPDEST PUSH2 0xE66 JUMP JUMPDEST PUSH2 0x3F2 PUSH2 0x681 CALLDATASIZE PUSH1 0x4 PUSH2 0x30FE JUMP JUMPDEST PUSH2 0x1008 JUMP JUMPDEST PUSH2 0x3F2 PUSH2 0x694 CALLDATASIZE PUSH1 0x4 PUSH2 0x315D JUMP JUMPDEST PUSH2 0x104C JUMP JUMPDEST PUSH2 0x3F2 PUSH2 0x6A7 CALLDATASIZE PUSH1 0x4 PUSH2 0x31E4 JUMP JUMPDEST PUSH2 0x114B JUMP JUMPDEST PUSH2 0x3F2 PUSH2 0x6BA CALLDATASIZE PUSH1 0x4 PUSH2 0x315D JUMP JUMPDEST PUSH2 0x11D0 JUMP JUMPDEST PUSH2 0x6ED PUSH2 0x6CD CALLDATASIZE PUSH1 0x4 PUSH2 0x30FE JUMP JUMPDEST PUSH1 0x1 PUSH1 0x20 DUP2 SWAP1 MSTORE PUSH1 0x0 SWAP2 DUP3 MSTORE PUSH1 0x40 SWAP1 SWAP2 KECCAK256 DUP1 SLOAD SWAP2 ADD SLOAD PUSH1 0xF SWAP2 SWAP1 SWAP2 SIGNEXTEND SWAP1 DUP3 JUMP JUMPDEST PUSH1 0x40 DUP1 MLOAD PUSH1 0xF SWAP4 SWAP1 SWAP4 SIGNEXTEND DUP4 MSTORE PUSH1 0x20 DUP4 ADD SWAP2 SWAP1 SWAP2 MSTORE ADD PUSH2 0x34A JUMP JUMPDEST PUSH2 0x3F2 PUSH2 0x715 CALLDATASIZE PUSH1 0x4 PUSH2 0x3231 JUMP JUMPDEST PUSH2 0x13B2 JUMP JUMPDEST PUSH2 0x3F2 PUSH2 0x728 CALLDATASIZE PUSH1 0x4 PUSH2 0x30FE JUMP JUMPDEST PUSH2 0x14DF JUMP JUMPDEST PUSH2 0x3F2 PUSH2 0x156B JUMP JUMPDEST PUSH2 0x391 PUSH2 0x743 CALLDATASIZE PUSH1 0x4 PUSH2 0x30FE JUMP JUMPDEST PUSH2 0x15AB JUMP JUMPDEST PUSH2 0x3F2 PUSH2 0x756 CALLDATASIZE PUSH1 0x4 PUSH2 0x315D JUMP JUMPDEST PUSH2 0x1658 JUMP JUMPDEST PUSH2 0x427 PUSH2 0x769 CALLDATASIZE PUSH1 0x4 PUSH2 0x30FE JUMP JUMPDEST PUSH1 0x4 PUSH1 0x20 MSTORE PUSH1 0x0 SWAP1 DUP2 MSTORE PUSH1 0x40 SWAP1 KECCAK256 DUP1 SLOAD PUSH1 0x1 DUP3 ADD SLOAD PUSH1 0x2 SWAP1 SWAP3 ADD SLOAD PUSH1 0xF DUP3 DUP2 SIGNEXTEND SWAP4 PUSH1 0x1 PUSH1 0x80 SHL SWAP1 SWAP4 DIV SWAP1 SIGNEXTEND SWAP2 SWAP1 DUP5 JUMP JUMPDEST PUSH2 0x35C PUSH2 0x7A7 CALLDATASIZE PUSH1 0x4 PUSH2 0x330D JUMP JUMPDEST PUSH2 0x17C3 JUMP JUMPDEST PUSH2 0x35C PUSH2 0x7BA CALLDATASIZE PUSH1 0x4 PUSH2 0x315D JUMP JUMPDEST PUSH2 0x1806 JUMP JUMPDEST PUSH2 0x35C PUSH2 0x7CD CALLDATASIZE PUSH1 0x4 PUSH2 0x30FE JUMP JUMPDEST PUSH1 0x6 PUSH1 0x20 MSTORE PUSH1 0x0 SWAP1 DUP2 MSTORE PUSH1 0x40 SWAP1 KECCAK256 SLOAD DUP2 JUMP JUMPDEST PUSH2 0x35C PUSH2 0x7ED CALLDATASIZE PUSH1 0x4 PUSH2 0x30FE JUMP JUMPDEST PUSH2 0x1812 JUMP JUMPDEST PUSH2 0x33E PUSH2 0x800 CALLDATASIZE PUSH1 0x4 PUSH2 0x3342 JUMP JUMPDEST PUSH1 0x1 PUSH1 0x1 PUSH1 0xA0 SHL SUB SWAP2 DUP3 AND PUSH1 0x0 SWAP1 DUP2 MSTORE PUSH1 0x12 PUSH1 0x20 SWAP1 DUP2 MSTORE PUSH1 0x40 DUP1 DUP4 KECCAK256 SWAP4 SWAP1 SWAP5 AND DUP3 MSTORE SWAP2 SWAP1 SWAP2 MSTORE KECCAK256 SLOAD PUSH1 0xFF AND SWAP1 JUMP JUMPDEST PUSH2 0x3F2 PUSH2 0x83C CALLDATASIZE PUSH1 0x4 PUSH2 0x315D JUMP JUMPDEST PUSH2 0x183A JUMP JUMPDEST PUSH2 0x35C PUSH2 0x84F CALLDATASIZE PUSH1 0x4 PUSH2 0x30FE JUMP JUMPDEST PUSH1 0x0 SWAP1 DUP2 MSTORE PUSH1 0x1 PUSH1 0x20 DUP2 SWAP1 MSTORE PUSH1 0x40 SWAP1 SWAP2 KECCAK256 ADD SLOAD SWAP1 JUMP JUMPDEST PUSH2 0x3F2 PUSH2 0x873 CALLDATASIZE PUSH1 0x4 PUSH2 0x30FE JUMP JUMPDEST PUSH2 0x190E JUMP JUMPDEST PUSH2 0x3C7 PUSH32 0x0 DUP2 JUMP JUMPDEST PUSH2 0x3F2 PUSH2 0x8AD CALLDATASIZE PUSH1 0x4 PUSH2 0x30FE JUMP JUMPDEST PUSH2 0x193F JUMP JUMPDEST PUSH1 0x0 DUP2 DUP2 MSTORE PUSH1 0xD PUSH1 0x20 MSTORE PUSH1 0x40 SWAP1 KECCAK256 SLOAD PUSH1 0x1 PUSH1 0x1 PUSH1 0xA0 SHL SUB AND DUP1 PUSH2 0x8D4 JUMPI PUSH1 0x0 DUP1 REVERT JUMPDEST DUP1 PUSH1 0x1 PUSH1 0x1 PUSH1 0xA0 SHL SUB AND DUP4 PUSH1 0x1 PUSH1 0x1 PUSH1 0xA0 SHL SUB AND EQ ISZERO PUSH2 0x8F3 JUMPI PUSH1 0x0 DUP1 REVERT JUMPDEST PUSH1 0x0 DUP3 DUP2 MSTORE PUSH1 0xD PUSH1 0x20 SWAP1 DUP2 MSTORE PUSH1 0x40 DUP1 DUP4 KECCAK256 SLOAD PUSH1 0x1 PUSH1 0x1 PUSH1 0xA0 SHL SUB DUP6 DUP2 AND DUP6 MSTORE PUSH1 0x12 DUP5 MSTORE DUP3 DUP6 KECCAK256 CALLER DUP1 DUP8 MSTORE SWAP5 MSTORE SWAP2 SWAP1 SWAP4 KECCAK256 SLOAD SWAP3 AND EQ SWAP1 PUSH1 0xFF AND DUP2 DUP1 PUSH2 0x934 JUMPI POP DUP1 JUMPDEST PUSH2 0x93D JUMPI PUSH1 0x0 DUP1 REVERT JUMPDEST PUSH1 0x0 DUP5 DUP2 MSTORE PUSH1 0xE PUSH1 0x20 MSTORE PUSH1 0x40 DUP1 DUP3 KECCAK256 DUP1 SLOAD PUSH1 0x1 PUSH1 0x1 PUSH1 0xA0 SHL SUB NOT AND PUSH1 0x1 PUSH1 0x1 PUSH1 0xA0 SHL SUB DUP10 DUP2 AND SWAP2 DUP3 OR SWAP1 SWAP3 SSTORE SWAP2 MLOAD DUP8 SWAP4 SWAP2 DUP8 AND SWAP2 PUSH32 0x8C5BE1E5EBEC7D5BD14F71427D1E84F3DD0314C0F7B2291E5B200AC8C7C3B925 SWAP2 LOG4 POP POP POP POP POP JUMP JUMPDEST PUSH1 0x5 PUSH1 0x20 MSTORE DUP2 PUSH1 0x0 MSTORE PUSH1 0x40 PUSH1 0x0 KECCAK256 DUP2 PUSH4 0x3B9ACA00 DUP2 LT PUSH2 0x9BA JUMPI PUSH1 0x0 DUP1 REVERT JUMPDEST PUSH1 0x3 MUL ADD DUP1 SLOAD PUSH1 0x1 DUP3 ADD SLOAD PUSH1 0x2 SWAP1 SWAP3 ADD SLOAD PUSH1 0xF DUP3 DUP2 SIGNEXTEND SWAP6 POP PUSH1 0x1 PUSH1 0x80 SHL SWAP1 SWAP3 DIV SWAP1 SWAP2 SIGNEXTEND SWAP3 POP DUP5 JUMP JUMPDEST PUSH1 0x0 PUSH2 0x9ED TIMESTAMP PUSH2 0xDFA JUMP JUMPDEST SWAP1 POP SWAP1 JUMP JUMPDEST PUSH1 0x0 DUP3 DUP2 MSTORE PUSH1 0x5 PUSH1 0x20 MSTORE PUSH1 0x40 DUP2 KECCAK256 DUP3 PUSH4 0x3B9ACA00 DUP2 LT PUSH2 0xA14 JUMPI PUSH2 0xA14 PUSH2 0x3375 JUMP JUMPDEST PUSH1 0x3 MUL ADD PUSH1 0x1 ADD SLOAD SWAP1 POP JUMPDEST SWAP3 SWAP2 POP POP JUMP JUMPDEST PUSH2 0xA31 DUP4 DUP4 DUP4 CALLER PUSH2 0x198B JUMP JUMPDEST POP POP POP JUMP JUMPDEST PUSH1 0x14 SLOAD PUSH1 0xFF AND PUSH1 0x1 EQ PUSH2 0xA48 JUMPI PUSH1 0x0 DUP1 REVERT JUMPDEST PUSH1 0x14 DUP1 SLOAD PUSH1 0xFF NOT AND PUSH1 0x2 OR SWAP1 SSTORE PUSH2 0xA5F CALLER DUP3 PUSH2 0x1A51 JUMP JUMPDEST PUSH2 0xA6B JUMPI PUSH2 0xA6B PUSH2 0x338B JUMP JUMPDEST PUSH1 0x0 DUP2 DUP2 MSTORE PUSH1 0x8 PUSH1 0x20 MSTORE PUSH1 0x40 SWAP1 KECCAK256 SLOAD ISZERO DUP1 ISZERO PUSH2 0xA96 JUMPI POP PUSH1 0x0 DUP2 DUP2 MSTORE PUSH1 0x9 PUSH1 0x20 MSTORE PUSH1 0x40 SWAP1 KECCAK256 SLOAD PUSH1 0xFF AND ISZERO JUMPDEST PUSH2 0xABB JUMPI PUSH1 0x40 MLOAD PUSH3 0x461BCD PUSH1 0xE5 SHL DUP2 MSTORE PUSH1 0x4 ADD PUSH2 0xAB2 SWAP1 PUSH2 0x33A1 JUMP JUMPDEST PUSH1 0x40 MLOAD DUP1 SWAP2 SUB SWAP1 REVERT JUMPDEST PUSH1 0x0 DUP2 DUP2 MSTORE PUSH1 0x1 PUSH1 0x20 DUP2 DUP2 MSTORE PUSH1 0x40 SWAP3 DUP4 SWAP1 KECCAK256 DUP4 MLOAD DUP1 DUP6 ADD SWAP1 SWAP5 MSTORE DUP1 SLOAD PUSH1 0xF SIGNEXTEND DUP5 MSTORE SWAP1 SWAP2 ADD SLOAD SWAP1 DUP3 ADD DUP2 SWAP1 MSTORE TIMESTAMP LT ISZERO PUSH2 0xB2E JUMPI PUSH1 0x40 MLOAD PUSH3 0x461BCD PUSH1 0xE5 SHL DUP2 MSTORE PUSH1 0x20 PUSH1 0x4 DUP3 ADD MSTORE PUSH1 0x16 PUSH1 0x24 DUP3 ADD MSTORE PUSH22 0x546865206C6F636B206469646E277420657870697265 PUSH1 0x50 SHL PUSH1 0x44 DUP3 ADD MSTORE PUSH1 0x64 ADD PUSH2 0xAB2 JUMP JUMPDEST DUP1 MLOAD PUSH1 0x40 DUP1 MLOAD DUP1 DUP3 ADD DUP3 MSTORE PUSH1 0x0 DUP1 DUP3 MSTORE PUSH1 0x20 DUP1 DUP4 ADD DUP3 DUP2 MSTORE DUP8 DUP4 MSTORE PUSH1 0x1 SWAP2 DUP3 SWAP1 MSTORE SWAP4 DUP3 KECCAK256 SWAP3 MLOAD DUP4 SLOAD PUSH1 0x1 PUSH1 0x1 PUSH1 0x80 SHL SUB NOT AND PUSH1 0x1 PUSH1 0x1 PUSH1 0x80 SHL SUB SWAP1 SWAP2 AND OR DUP4 SSTORE SWAP3 MLOAD SWAP2 SWAP1 SWAP3 ADD SSTORE SLOAD PUSH1 0xF SWAP2 SWAP1 SWAP2 SIGNEXTEND SWAP1 PUSH2 0xB87 DUP3 DUP3 PUSH2 0x33D9 JUMP JUMPDEST PUSH1 0x0 DUP2 SWAP1 SSTORE POP PUSH2 0xBB1 DUP5 DUP5 PUSH1 0x40 MLOAD DUP1 PUSH1 0x40 ADD PUSH1 0x40 MSTORE DUP1 PUSH1 0x0 PUSH1 0xF SIGNEXTEND DUP2 MSTORE PUSH1 0x20 ADD PUSH1 0x0 DUP2 MSTORE POP PUSH2 0x1AB7 JUMP JUMPDEST PUSH1 0x40 MLOAD PUSH4 0xA9059CBB PUSH1 0xE0 SHL DUP2 MSTORE CALLER PUSH1 0x4 DUP3 ADD MSTORE PUSH1 0x24 DUP2 ADD DUP4 SWAP1 MSTORE PUSH32 0x0 PUSH1 0x1 PUSH1 0x1 PUSH1 0xA0 SHL SUB AND SWAP1 PUSH4 0xA9059CBB SWAP1 PUSH1 0x44 ADD PUSH1 0x20 PUSH1 0x40 MLOAD DUP1 DUP4 SUB DUP2 PUSH1 0x0 DUP8 GAS CALL ISZERO DUP1 ISZERO PUSH2 0xC1E JUMPI RETURNDATASIZE PUSH1 0x0 DUP1 RETURNDATACOPY RETURNDATASIZE PUSH1 0x0 REVERT JUMPDEST POP POP POP POP PUSH1 0x40 MLOAD RETURNDATASIZE PUSH1 0x1F NOT PUSH1 0x1F DUP3 ADD AND DUP3 ADD DUP1 PUSH1 0x40 MSTORE POP DUP2 ADD SWAP1 PUSH2 0xC42 SWAP2 SWAP1 PUSH2 0x33F0 JUMP JUMPDEST PUSH2 0xC4E JUMPI PUSH2 0xC4E PUSH2 0x338B JUMP JUMPDEST PUSH2 0xC57 DUP5 PUSH2 0x20D6 JUMP JUMPDEST PUSH1 0x40 DUP1 MLOAD DUP6 DUP2 MSTORE PUSH1 0x20 DUP2 ADD DUP5 SWAP1 MSTORE TIMESTAMP DUP2 DUP4 ADD MSTORE SWAP1 MLOAD CALLER SWAP2 PUSH32 0x2F25270A4D87BEA75DB541CDFE559334A275B4A233520ED6C0A2429667CCA94 SWAP2 SWAP1 DUP2 SWAP1 SUB PUSH1 0x60 ADD SWAP1 LOG2 PUSH32 0x5E2AA66EFD74CCE82B21852E317E5490D9ECC9E6BB953AE24D90851258CC2F5C DUP2 PUSH2 0xCC5 DUP5 DUP3 PUSH2 0x33D9 JUMP JUMPDEST PUSH1 0x40 DUP1 MLOAD SWAP3 DUP4 MSTORE PUSH1 0x20 DUP4 ADD SWAP2 SWAP1 SWAP2 MSTORE ADD PUSH1 0x40 MLOAD DUP1 SWAP2 SUB SWAP1 LOG1 POP POP PUSH1 0x14 DUP1 SLOAD PUSH1 0xFF NOT AND PUSH1 0x1 OR SWAP1 SSTORE POP POP JUMP JUMPDEST PUSH2 0xA31 DUP4 DUP4 DUP4 PUSH1 0x40 MLOAD DUP1 PUSH1 0x20 ADD PUSH1 0x40 MSTORE DUP1 PUSH1 0x0 DUP2 MSTORE POP PUSH2 0x13B2 JUMP JUMPDEST PUSH1 0x0 PUSH2 0xD17 DUP4 DUP4 PUSH2 0x1A51 JUMP JUMPDEST SWAP4 SWAP3 POP POP POP JUMP JUMPDEST PUSH1 0x0 DUP2 DUP2 MSTORE PUSH1 0x6 PUSH1 0x20 SWAP1 DUP2 MSTORE PUSH1 0x40 DUP1 DUP4 KECCAK256 SLOAD PUSH1 0x5 SWAP1 SWAP3 MSTORE DUP3 KECCAK256 DUP2 PUSH4 0x3B9ACA00 DUP2 LT PUSH2 0xD4B JUMPI PUSH2 0xD4B PUSH2 0x3375 JUMP JUMPDEST PUSH1 0x3 MUL ADD SLOAD PUSH1 0x1 PUSH1 0x80 SHL SWAP1 DIV PUSH1 0xF SIGNEXTEND SWAP4 SWAP3 POP POP POP JUMP JUMPDEST PUSH1 0xA SLOAD PUSH1 0x1 PUSH1 0x1 PUSH1 0xA0 SHL SUB AND CALLER EQ PUSH2 0xD78 JUMPI PUSH1 0x0 DUP1 REVERT JUMPDEST PUSH1 0xA DUP1 SLOAD PUSH1 0x1 PUSH1 0x1 PUSH1 0xA0 SHL SUB NOT AND PUSH1 0x1 PUSH1 0x1 PUSH1 0xA0 SHL SUB SWAP3 SWAP1 SWAP3 AND SWAP2 SWAP1 SWAP2 OR SWAP1 SSTORE JUMP JUMPDEST PUSH1 0x14 SLOAD PUSH1 0x0 SWAP1 PUSH1 0xFF AND PUSH1 0x1 EQ PUSH2 0xDAF JUMPI PUSH1 0x0 DUP1 REVERT JUMPDEST PUSH1 0x14 DUP1 SLOAD PUSH1 0xFF NOT AND PUSH1 0x2 OR SWAP1 SSTORE PUSH2 0xDC7 DUP4 DUP4 CALLER PUSH2 0x2195 JUMP JUMPDEST SWAP1 POP PUSH1 0x14 DUP1 SLOAD PUSH1 0xFF NOT AND PUSH1 0x1 OR SWAP1 SSTORE SWAP3 SWAP2 POP POP JUMP JUMPDEST PUSH1 0x1 PUSH1 0x1 PUSH1 0xA0 SHL SUB DUP2 AND PUSH1 0x0 SWAP1 DUP2 MSTORE PUSH1 0xF PUSH1 0x20 MSTORE PUSH1 0x40 DUP2 KECCAK256 SLOAD PUSH2 0xA1F JUMP JUMPDEST PUSH1 0x3 SLOAD PUSH1 0x0 DUP2 DUP2 MSTORE PUSH1 0x4 PUSH1 0x20 SWAP1 DUP2 MSTORE PUSH1 0x40 DUP1 DUP4 KECCAK256 DUP2 MLOAD PUSH1 0x80 DUP2 ADD DUP4 MSTORE DUP2 SLOAD PUSH1 0xF DUP2 DUP2 SIGNEXTEND DUP4 MSTORE PUSH1 0x1 PUSH1 0x80 SHL SWAP1 SWAP2 DIV SWAP1 SIGNEXTEND SWAP4 DUP2 ADD SWAP4 SWAP1 SWAP4 MSTORE PUSH1 0x1 DUP2 ADD SLOAD SWAP2 DUP4 ADD SWAP2 SWAP1 SWAP2 MSTORE PUSH1 0x2 ADD SLOAD PUSH1 0x60 DUP3 ADD MSTORE SWAP1 SWAP2 SWAP1 PUSH2 0xE52 DUP2 DUP6 PUSH2 0x22E6 JUMP JUMPDEST SWAP5 SWAP4 POP POP POP POP JUMP JUMPDEST PUSH1 0x0 PUSH2 0xD17 DUP4 DUP4 PUSH2 0x23E8 JUMP JUMPDEST PUSH1 0x0 NUMBER DUP3 GT ISZERO PUSH2 0xE78 JUMPI PUSH2 0xE78 PUSH2 0x338B JUMP JUMPDEST PUSH1 0x3 SLOAD PUSH1 0x0 PUSH2 0xE87 DUP5 DUP4 PUSH2 0x26C0 JUMP JUMPDEST PUSH1 0x0 DUP2 DUP2 MSTORE PUSH1 0x4 PUSH1 0x20 SWAP1 DUP2 MSTORE PUSH1 0x40 DUP1 DUP4 KECCAK256 DUP2 MLOAD PUSH1 0x80 DUP2 ADD DUP4 MSTORE DUP2 SLOAD PUSH1 0xF DUP2 DUP2 SIGNEXTEND DUP4 MSTORE PUSH1 0x1 PUSH1 0x80 SHL SWAP1 SWAP2 DIV SWAP1 SIGNEXTEND SWAP4 DUP2 ADD SWAP4 SWAP1 SWAP4 MSTORE PUSH1 0x1 DUP2 ADD SLOAD SWAP2 DUP4 ADD SWAP2 SWAP1 SWAP2 MSTORE PUSH1 0x2 ADD SLOAD PUSH1 0x60 DUP3 ADD MSTORE SWAP2 SWAP3 POP DUP4 DUP4 LT ISZERO PUSH2 0xF96 JUMPI PUSH1 0x0 PUSH1 0x4 DUP2 PUSH2 0xEEA DUP7 PUSH1 0x1 PUSH2 0x340D JUMP JUMPDEST DUP2 MSTORE PUSH1 0x20 DUP1 DUP3 ADD SWAP3 SWAP1 SWAP3 MSTORE PUSH1 0x40 SWAP1 DUP2 ADD PUSH1 0x0 KECCAK256 DUP2 MLOAD PUSH1 0x80 DUP2 ADD DUP4 MSTORE DUP2 SLOAD PUSH1 0xF DUP2 DUP2 SIGNEXTEND DUP4 MSTORE PUSH1 0x1 PUSH1 0x80 SHL SWAP1 SWAP2 DIV SWAP1 SIGNEXTEND SWAP4 DUP2 ADD SWAP4 SWAP1 SWAP4 MSTORE PUSH1 0x1 DUP2 ADD SLOAD SWAP2 DUP4 ADD SWAP2 SWAP1 SWAP2 MSTORE PUSH1 0x2 ADD SLOAD PUSH1 0x60 DUP1 DUP4 ADD DUP3 SWAP1 MSTORE DUP6 ADD MLOAD SWAP2 SWAP3 POP EQ PUSH2 0xF90 JUMPI DUP3 PUSH1 0x60 ADD MLOAD DUP2 PUSH1 0x60 ADD MLOAD PUSH2 0xF56 SWAP2 SWAP1 PUSH2 0x33D9 JUMP JUMPDEST DUP4 PUSH1 0x40 ADD MLOAD DUP3 PUSH1 0x40 ADD MLOAD PUSH2 0xF6A SWAP2 SWAP1 PUSH2 0x33D9 JUMP JUMPDEST PUSH1 0x60 DUP6 ADD MLOAD PUSH2 0xF79 SWAP1 DUP11 PUSH2 0x33D9 JUMP JUMPDEST PUSH2 0xF83 SWAP2 SWAP1 PUSH2 0x3425 JUMP JUMPDEST PUSH2 0xF8D SWAP2 SWAP1 PUSH2 0x345A JUMP JUMPDEST SWAP2 POP JUMPDEST POP PUSH2 0xFE5 JUMP JUMPDEST NUMBER DUP3 PUSH1 0x60 ADD MLOAD EQ PUSH2 0xFE5 JUMPI PUSH1 0x60 DUP3 ADD MLOAD PUSH2 0xFB0 SWAP1 NUMBER PUSH2 0x33D9 JUMP JUMPDEST PUSH1 0x40 DUP4 ADD MLOAD PUSH2 0xFBF SWAP1 TIMESTAMP PUSH2 0x33D9 JUMP JUMPDEST PUSH1 0x60 DUP5 ADD MLOAD PUSH2 0xFCE SWAP1 DUP10 PUSH2 0x33D9 JUMP JUMPDEST PUSH2 0xFD8 SWAP2 SWAP1 PUSH2 0x3425 JUMP JUMPDEST PUSH2 0xFE2 SWAP2 SWAP1 PUSH2 0x345A JUMP JUMPDEST SWAP1 POP JUMPDEST PUSH2 0xFFE DUP3 DUP3 DUP5 PUSH1 0x40 ADD MLOAD PUSH2 0xFF9 SWAP2 SWAP1 PUSH2 0x340D JUMP JUMPDEST PUSH2 0x22E6 JUMP JUMPDEST SWAP7 SWAP6 POP POP POP POP POP POP JUMP JUMPDEST PUSH1 0xA SLOAD PUSH1 0x1 PUSH1 0x1 PUSH1 0xA0 SHL SUB AND CALLER EQ PUSH2 0x101F JUMPI PUSH1 0x0 DUP1 REVERT JUMPDEST PUSH1 0x0 DUP2 DUP2 MSTORE PUSH1 0x8 PUSH1 0x20 MSTORE PUSH1 0x40 SWAP1 KECCAK256 SLOAD PUSH2 0x103A SWAP1 PUSH1 0x1 SWAP1 PUSH2 0x33D9 JUMP JUMPDEST PUSH1 0x0 SWAP2 DUP3 MSTORE PUSH1 0x8 PUSH1 0x20 MSTORE PUSH1 0x40 SWAP1 SWAP2 KECCAK256 SSTORE JUMP JUMPDEST PUSH1 0x14 SLOAD PUSH1 0xFF AND PUSH1 0x1 EQ PUSH2 0x105E JUMPI PUSH1 0x0 DUP1 REVERT JUMPDEST PUSH1 0x14 DUP1 SLOAD PUSH1 0xFF NOT AND PUSH1 0x2 OR SWAP1 SSTORE PUSH2 0x1075 CALLER DUP4 PUSH2 0x1A51 JUMP JUMPDEST PUSH2 0x1081 JUMPI PUSH2 0x1081 PUSH2 0x338B JUMP JUMPDEST PUSH1 0x0 DUP3 DUP2 MSTORE PUSH1 0x1 PUSH1 0x20 DUP2 DUP2 MSTORE PUSH1 0x40 SWAP3 DUP4 SWAP1 KECCAK256 DUP4 MLOAD DUP1 DUP6 ADD SWAP1 SWAP5 MSTORE DUP1 SLOAD PUSH1 0xF SIGNEXTEND DUP5 MSTORE SWAP1 SWAP2 ADD SLOAD SWAP1 DUP3 ADD MSTORE DUP2 PUSH2 0x10B7 JUMPI PUSH2 0x10B7 PUSH2 0x338B JUMP JUMPDEST PUSH1 0x0 DUP2 PUSH1 0x0 ADD MLOAD PUSH1 0xF SIGNEXTEND SGT PUSH2 0x1107 JUMPI PUSH1 0x40 MLOAD PUSH3 0x461BCD PUSH1 0xE5 SHL DUP2 MSTORE PUSH1 0x20 PUSH1 0x4 DUP3 ADD MSTORE PUSH1 0x16 PUSH1 0x24 DUP3 ADD MSTORE PUSH22 0x139BC8195E1A5CDD1A5B99C81B1BD8DAC8199BDD5B99 PUSH1 0x52 SHL PUSH1 0x44 DUP3 ADD MSTORE PUSH1 0x64 ADD PUSH2 0xAB2 JUMP JUMPDEST TIMESTAMP DUP2 PUSH1 0x20 ADD MLOAD GT PUSH2 0x112A JUMPI PUSH1 0x40 MLOAD PUSH3 0x461BCD PUSH1 0xE5 SHL DUP2 MSTORE PUSH1 0x4 ADD PUSH2 0xAB2 SWAP1 PUSH2 0x346E JUMP JUMPDEST PUSH2 0x1139 DUP4 DUP4 PUSH1 0x0 DUP5 PUSH1 0x2 PUSH2 0x274A JUMP JUMPDEST POP POP PUSH1 0x14 DUP1 SLOAD PUSH1 0xFF NOT AND PUSH1 0x1 OR SWAP1 SSTORE POP JUMP JUMPDEST PUSH1 0x1 PUSH1 0x1 PUSH1 0xA0 SHL SUB DUP3 AND CALLER EQ ISZERO PUSH2 0x1164 JUMPI PUSH2 0x1164 PUSH2 0x338B JUMP JUMPDEST CALLER PUSH1 0x0 DUP2 DUP2 MSTORE PUSH1 0x12 PUSH1 0x20 SWAP1 DUP2 MSTORE PUSH1 0x40 DUP1 DUP4 KECCAK256 PUSH1 0x1 PUSH1 0x1 PUSH1 0xA0 SHL SUB DUP8 AND DUP1 DUP6 MSTORE SWAP1 DUP4 MSTORE SWAP3 DUP2 SWAP1 KECCAK256 DUP1 SLOAD PUSH1 0xFF NOT AND DUP7 ISZERO ISZERO SWAP1 DUP2 OR SWAP1 SWAP2 SSTORE SWAP1 MLOAD SWAP1 DUP2 MSTORE SWAP2 SWAP3 SWAP2 PUSH32 0x17307EAB39AB6107E8899845AD3D59BD9653F200F220920489CA2B5937696C31 SWAP2 ADD PUSH1 0x40 MLOAD DUP1 SWAP2 SUB SWAP1 LOG3 POP POP JUMP JUMPDEST PUSH1 0x14 SLOAD PUSH1 0xFF AND PUSH1 0x1 EQ PUSH2 0x11E2 JUMPI PUSH1 0x0 DUP1 REVERT JUMPDEST PUSH1 0x14 DUP1 SLOAD PUSH1 0xFF NOT AND PUSH1 0x2 OR SWAP1 SSTORE PUSH2 0x11F9 CALLER DUP4 PUSH2 0x1A51 JUMP JUMPDEST PUSH2 0x1205 JUMPI PUSH2 0x1205 PUSH2 0x338B JUMP JUMPDEST PUSH1 0x0 DUP3 DUP2 MSTORE PUSH1 0x1 PUSH1 0x20 DUP2 DUP2 MSTORE PUSH1 0x40 DUP1 DUP5 KECCAK256 DUP2 MLOAD DUP1 DUP4 ADD SWAP1 SWAP3 MSTORE DUP1 SLOAD PUSH1 0xF SIGNEXTEND DUP3 MSTORE SWAP1 SWAP3 ADD SLOAD SWAP1 DUP3 ADD MSTORE SWAP1 PUSH3 0x93A80 DUP1 PUSH2 0x123D DUP6 TIMESTAMP PUSH2 0x340D JUMP JUMPDEST PUSH2 0x1247 SWAP2 SWAP1 PUSH2 0x345A JUMP JUMPDEST PUSH2 0x1251 SWAP2 SWAP1 PUSH2 0x3425 JUMP JUMPDEST SWAP1 POP TIMESTAMP DUP3 PUSH1 0x20 ADD MLOAD GT PUSH2 0x1295 JUMPI PUSH1 0x40 MLOAD PUSH3 0x461BCD PUSH1 0xE5 SHL DUP2 MSTORE PUSH1 0x20 PUSH1 0x4 DUP3 ADD MSTORE PUSH1 0xC PUSH1 0x24 DUP3 ADD MSTORE PUSH12 0x131BD8DAC8195E1C1A5C9959 PUSH1 0xA2 SHL PUSH1 0x44 DUP3 ADD MSTORE PUSH1 0x64 ADD PUSH2 0xAB2 JUMP JUMPDEST PUSH1 0x0 DUP3 PUSH1 0x0 ADD MLOAD PUSH1 0xF SIGNEXTEND SGT PUSH2 0x12E0 JUMPI PUSH1 0x40 MLOAD PUSH3 0x461BCD PUSH1 0xE5 SHL DUP2 MSTORE PUSH1 0x20 PUSH1 0x4 DUP3 ADD MSTORE PUSH1 0x11 PUSH1 0x24 DUP3 ADD MSTORE PUSH17 0x139BDD1A1A5B99C81A5CC81B1BD8DAD959 PUSH1 0x7A SHL PUSH1 0x44 DUP3 ADD MSTORE PUSH1 0x64 ADD PUSH2 0xAB2 JUMP JUMPDEST DUP2 PUSH1 0x20 ADD MLOAD DUP2 GT PUSH2 0x1333 JUMPI PUSH1 0x40 MLOAD PUSH3 0x461BCD PUSH1 0xE5 SHL DUP2 MSTORE PUSH1 0x20 PUSH1 0x4 DUP3 ADD MSTORE PUSH1 0x1F PUSH1 0x24 DUP3 ADD MSTORE PUSH32 0x43616E206F6E6C7920696E637265617365206C6F636B206475726174696F6E00 PUSH1 0x44 DUP3 ADD MSTORE PUSH1 0x64 ADD PUSH2 0xAB2 JUMP JUMPDEST PUSH2 0x1341 PUSH4 0x784CE00 TIMESTAMP PUSH2 0x340D JUMP JUMPDEST DUP2 GT ISZERO PUSH2 0x1390 JUMPI PUSH1 0x40 MLOAD PUSH3 0x461BCD PUSH1 0xE5 SHL DUP2 MSTORE PUSH1 0x20 PUSH1 0x4 DUP3 ADD MSTORE PUSH1 0x1E PUSH1 0x24 DUP3 ADD MSTORE PUSH32 0x566F74696E67206C6F636B2063616E2062652034207965617273206D61780000 PUSH1 0x44 DUP3 ADD MSTORE PUSH1 0x64 ADD PUSH2 0xAB2 JUMP JUMPDEST PUSH2 0x139F DUP5 PUSH1 0x0 DUP4 DUP6 PUSH1 0x3 PUSH2 0x274A JUMP JUMPDEST POP POP PUSH1 0x14 DUP1 SLOAD PUSH1 0xFF NOT AND PUSH1 0x1 OR SWAP1 SSTORE POP POP JUMP JUMPDEST PUSH2 0x13BE DUP5 DUP5 DUP5 CALLER PUSH2 0x198B JUMP JUMPDEST DUP3 EXTCODESIZE ISZERO PUSH2 0x14D9 JUMPI PUSH1 0x40 MLOAD PUSH4 0xA85BD01 PUSH1 0xE1 SHL DUP2 MSTORE PUSH1 0x1 PUSH1 0x1 PUSH1 0xA0 SHL SUB DUP5 AND SWAP1 PUSH4 0x150B7A02 SWAP1 PUSH2 0x13F7 SWAP1 CALLER SWAP1 DUP9 SWAP1 DUP8 SWAP1 DUP8 SWAP1 PUSH1 0x4 ADD PUSH2 0x34B2 JUMP JUMPDEST PUSH1 0x20 PUSH1 0x40 MLOAD DUP1 DUP4 SUB DUP2 PUSH1 0x0 DUP8 GAS CALL SWAP3 POP POP POP DUP1 ISZERO PUSH2 0x1432 JUMPI POP PUSH1 0x40 DUP1 MLOAD PUSH1 0x1F RETURNDATASIZE SWAP1 DUP2 ADD PUSH1 0x1F NOT AND DUP3 ADD SWAP1 SWAP3 MSTORE PUSH2 0x142F SWAP2 DUP2 ADD SWAP1 PUSH2 0x34E5 JUMP JUMPDEST PUSH1 0x1 JUMPDEST PUSH2 0x14D7 JUMPI RETURNDATASIZE DUP1 DUP1 ISZERO PUSH2 0x1460 JUMPI PUSH1 0x40 MLOAD SWAP2 POP PUSH1 0x1F NOT PUSH1 0x3F RETURNDATASIZE ADD AND DUP3 ADD PUSH1 0x40 MSTORE RETURNDATASIZE DUP3 MSTORE RETURNDATASIZE PUSH1 0x0 PUSH1 0x20 DUP5 ADD RETURNDATACOPY PUSH2 0x1465 JUMP JUMPDEST PUSH1 0x60 SWAP2 POP JUMPDEST POP DUP1 MLOAD PUSH2 0x14CF JUMPI PUSH1 0x40 MLOAD PUSH3 0x461BCD PUSH1 0xE5 SHL DUP2 MSTORE PUSH1 0x20 PUSH1 0x4 DUP3 ADD MSTORE PUSH1 0x32 PUSH1 0x24 DUP3 ADD MSTORE PUSH32 0x4552433732313A207472616E7366657220746F206E6F6E204552433732315265 PUSH1 0x44 DUP3 ADD MSTORE PUSH18 0x31B2B4BB32B91034B6B83632B6B2B73A32B9 PUSH1 0x71 SHL PUSH1 0x64 DUP3 ADD MSTORE PUSH1 0x84 ADD PUSH2 0xAB2 JUMP JUMPDEST DUP1 MLOAD DUP2 PUSH1 0x20 ADD REVERT JUMPDEST POP JUMPDEST POP POP POP POP JUMP JUMPDEST PUSH1 0xA SLOAD PUSH1 0x1 PUSH1 0x1 PUSH1 0xA0 SHL SUB AND CALLER EQ PUSH2 0x14F6 JUMPI PUSH1 0x0 DUP1 REVERT JUMPDEST PUSH1 0x0 DUP2 DUP2 MSTORE PUSH1 0xC PUSH1 0x20 MSTORE PUSH1 0x40 SWAP1 KECCAK256 SLOAD TIMESTAMP GT PUSH2 0x1553 JUMPI PUSH1 0x40 MLOAD PUSH3 0x461BCD PUSH1 0xE5 SHL DUP2 MSTORE PUSH1 0x20 PUSH1 0x4 DUP3 ADD MSTORE PUSH1 0x18 PUSH1 0x24 DUP3 ADD MSTORE PUSH32 0x6C6F636B20706572696F64206E6F742066696E69736865640000000000000000 PUSH1 0x44 DUP3 ADD MSTORE PUSH1 0x64 ADD PUSH2 0xAB2 JUMP JUMPDEST PUSH1 0x0 SWAP1 DUP2 MSTORE PUSH1 0x9 PUSH1 0x20 MSTORE PUSH1 0x40 SWAP1 KECCAK256 DUP1 SLOAD PUSH1 0xFF NOT AND SWAP1 SSTORE JUMP JUMPDEST PUSH2 0x15A9 PUSH1 0x0 PUSH1 0x40 MLOAD DUP1 PUSH1 0x40 ADD PUSH1 0x40 MSTORE DUP1 PUSH1 0x0 PUSH1 0xF SIGNEXTEND DUP2 MSTORE PUSH1 0x20 ADD PUSH1 0x0 DUP2 MSTORE POP PUSH1 0x40 MLOAD DUP1 PUSH1 0x40 ADD PUSH1 0x40 MSTORE DUP1 PUSH1 0x0 PUSH1 0xF SIGNEXTEND DUP2 MSTORE PUSH1 0x20 ADD PUSH1 0x0 DUP2 MSTORE POP PUSH2 0x1AB7 JUMP JUMPDEST JUMP JUMPDEST PUSH1 0x0 DUP2 DUP2 MSTORE PUSH1 0xD PUSH1 0x20 MSTORE PUSH1 0x40 SWAP1 KECCAK256 SLOAD PUSH1 0x60 SWAP1 PUSH1 0x1 PUSH1 0x1 PUSH1 0xA0 SHL SUB AND PUSH2 0x1612 JUMPI PUSH1 0x40 MLOAD PUSH3 0x461BCD PUSH1 0xE5 SHL DUP2 MSTORE PUSH1 0x20 PUSH1 0x4 DUP3 ADD MSTORE PUSH1 0x1B PUSH1 0x24 DUP3 ADD MSTORE PUSH32 0x517565727920666F72206E6F6E6578697374656E7420746F6B656E0000000000 PUSH1 0x44 DUP3 ADD MSTORE PUSH1 0x64 ADD PUSH2 0xAB2 JUMP JUMPDEST PUSH1 0x0 DUP3 DUP2 MSTORE PUSH1 0x1 PUSH1 0x20 DUP2 DUP2 MSTORE PUSH1 0x40 SWAP3 DUP4 SWAP1 KECCAK256 DUP4 MLOAD DUP1 DUP6 ADD SWAP1 SWAP5 MSTORE DUP1 SLOAD PUSH1 0xF SIGNEXTEND DUP5 MSTORE SWAP1 SWAP2 ADD SLOAD SWAP1 DUP3 ADD MSTORE PUSH2 0xD17 DUP4 PUSH2 0x1649 DUP2 TIMESTAMP PUSH2 0x294F JUMP JUMPDEST PUSH1 0x20 DUP5 ADD MLOAD DUP5 MLOAD PUSH1 0xF SIGNEXTEND PUSH2 0x2A21 JUMP JUMPDEST PUSH1 0x0 DUP3 DUP2 MSTORE PUSH1 0x8 PUSH1 0x20 MSTORE PUSH1 0x40 SWAP1 KECCAK256 SLOAD ISZERO DUP1 ISZERO PUSH2 0x1683 JUMPI POP PUSH1 0x0 DUP3 DUP2 MSTORE PUSH1 0x9 PUSH1 0x20 MSTORE PUSH1 0x40 SWAP1 KECCAK256 SLOAD PUSH1 0xFF AND ISZERO JUMPDEST PUSH2 0x169F JUMPI PUSH1 0x40 MLOAD PUSH3 0x461BCD PUSH1 0xE5 SHL DUP2 MSTORE PUSH1 0x4 ADD PUSH2 0xAB2 SWAP1 PUSH2 0x33A1 JUMP JUMPDEST DUP1 DUP3 EQ ISZERO PUSH2 0x16AC JUMPI PUSH1 0x0 DUP1 REVERT JUMPDEST PUSH2 0x16B6 CALLER DUP4 PUSH2 0x1A51 JUMP JUMPDEST PUSH2 0x16BF JUMPI PUSH1 0x0 DUP1 REVERT JUMPDEST PUSH2 0x16C9 CALLER DUP3 PUSH2 0x1A51 JUMP JUMPDEST PUSH2 0x16D2 JUMPI PUSH1 0x0 DUP1 REVERT JUMPDEST PUSH1 0x0 DUP3 DUP2 MSTORE PUSH1 0x1 PUSH1 0x20 DUP2 DUP2 MSTORE PUSH1 0x40 DUP1 DUP5 KECCAK256 DUP2 MLOAD DUP1 DUP4 ADD DUP4 MSTORE DUP2 SLOAD PUSH1 0xF SWAP1 DUP2 SIGNEXTEND DUP3 MSTORE SWAP2 DUP6 ADD SLOAD DUP2 DUP6 ADD SWAP1 DUP2 MSTORE DUP8 DUP8 MSTORE DUP6 DUP6 MSTORE DUP4 DUP8 KECCAK256 DUP5 MLOAD DUP1 DUP7 ADD SWAP1 SWAP6 MSTORE DUP1 SLOAD DUP5 SIGNEXTEND DUP6 MSTORE SWAP1 SWAP6 ADD SLOAD SWAP4 DUP4 ADD DUP5 SWAP1 MSTORE DUP1 MLOAD SWAP5 MLOAD SWAP1 SWAP6 SWAP3 SWAP5 SWAP1 SWAP2 SIGNEXTEND SWAP3 GT ISZERO PUSH2 0x173A JUMPI DUP3 PUSH1 0x20 ADD MLOAD PUSH2 0x1740 JUMP JUMPDEST DUP4 PUSH1 0x20 ADD MLOAD JUMPDEST PUSH1 0x40 DUP1 MLOAD DUP1 DUP3 ADD DUP3 MSTORE PUSH1 0x0 DUP1 DUP3 MSTORE PUSH1 0x20 DUP1 DUP4 ADD DUP3 DUP2 MSTORE DUP12 DUP4 MSTORE PUSH1 0x1 DUP1 DUP4 MSTORE DUP6 DUP5 KECCAK256 SWAP5 MLOAD DUP6 SLOAD PUSH1 0x1 PUSH1 0x1 PUSH1 0x80 SHL SUB NOT AND PUSH1 0x1 PUSH1 0x1 PUSH1 0x80 SHL SUB SWAP1 SWAP2 AND OR DUP6 SSTORE SWAP1 MLOAD SWAP4 ADD SWAP3 SWAP1 SWAP3 SSTORE DUP3 MLOAD DUP1 DUP5 ADD SWAP1 SWAP4 MSTORE DUP1 DUP4 MSTORE SWAP1 DUP3 ADD MSTORE SWAP1 SWAP2 POP PUSH2 0x17A4 SWAP1 DUP8 SWAP1 DUP7 SWAP1 PUSH2 0x1AB7 JUMP JUMPDEST PUSH2 0x17AD DUP7 PUSH2 0x20D6 JUMP JUMPDEST PUSH2 0x17BB DUP6 DUP4 DUP4 DUP7 PUSH1 0x4 PUSH2 0x274A JUMP JUMPDEST POP POP POP POP POP POP JUMP JUMPDEST PUSH1 0x14 SLOAD PUSH1 0x0 SWAP1 PUSH1 0xFF AND PUSH1 0x1 EQ PUSH2 0x17D8 JUMPI PUSH1 0x0 DUP1 REVERT JUMPDEST PUSH1 0x14 DUP1 SLOAD PUSH1 0xFF NOT AND PUSH1 0x2 OR SWAP1 SSTORE PUSH2 0x17F0 DUP5 DUP5 DUP5 PUSH2 0x2195 JUMP JUMPDEST SWAP1 POP PUSH1 0x14 DUP1 SLOAD PUSH1 0xFF NOT AND PUSH1 0x1 OR SWAP1 SSTORE SWAP4 SWAP3 POP POP POP JUMP JUMPDEST PUSH1 0x0 PUSH2 0xD17 DUP4 DUP4 PUSH2 0x294F JUMP JUMPDEST PUSH1 0x0 DUP2 DUP2 MSTORE PUSH1 0x2 PUSH1 0x20 MSTORE PUSH1 0x40 DUP2 KECCAK256 SLOAD NUMBER EQ ISZERO PUSH2 0x1830 JUMPI POP PUSH1 0x0 SWAP2 SWAP1 POP JUMP JUMPDEST PUSH2 0xA1F DUP3 TIMESTAMP PUSH2 0x294F JUMP JUMPDEST PUSH1 0x14 SLOAD PUSH1 0xFF AND PUSH1 0x1 EQ PUSH2 0x184C JUMPI PUSH1 0x0 DUP1 REVERT JUMPDEST PUSH1 0x14 DUP1 SLOAD PUSH1 0xFF NOT AND PUSH1 0x2 OR SWAP1 SSTORE PUSH1 0x0 DUP3 DUP2 MSTORE PUSH1 0x1 PUSH1 0x20 DUP2 DUP2 MSTORE PUSH1 0x40 SWAP3 DUP4 SWAP1 KECCAK256 DUP4 MLOAD DUP1 DUP6 ADD SWAP1 SWAP5 MSTORE DUP1 SLOAD PUSH1 0xF SIGNEXTEND DUP5 MSTORE SWAP1 SWAP2 ADD SLOAD SWAP1 DUP3 ADD MSTORE DUP2 PUSH2 0x188C JUMPI PUSH1 0x0 DUP1 REVERT JUMPDEST PUSH1 0x0 DUP2 PUSH1 0x0 ADD MLOAD PUSH1 0xF SIGNEXTEND SGT PUSH2 0x18DC JUMPI PUSH1 0x40 MLOAD PUSH3 0x461BCD PUSH1 0xE5 SHL DUP2 MSTORE PUSH1 0x20 PUSH1 0x4 DUP3 ADD MSTORE PUSH1 0x16 PUSH1 0x24 DUP3 ADD MSTORE PUSH22 0x139BC8195E1A5CDD1A5B99C81B1BD8DAC8199BDD5B99 PUSH1 0x52 SHL PUSH1 0x44 DUP3 ADD MSTORE PUSH1 0x64 ADD PUSH2 0xAB2 JUMP JUMPDEST TIMESTAMP DUP2 PUSH1 0x20 ADD MLOAD GT PUSH2 0x18FF JUMPI PUSH1 0x40 MLOAD PUSH3 0x461BCD PUSH1 0xE5 SHL DUP2 MSTORE PUSH1 0x4 ADD PUSH2 0xAB2 SWAP1 PUSH2 0x346E JUMP JUMPDEST PUSH2 0x1139 DUP4 DUP4 PUSH1 0x0 DUP5 PUSH1 0x0 PUSH2 0x274A JUMP JUMPDEST PUSH1 0xA SLOAD PUSH1 0x1 PUSH1 0x1 PUSH1 0xA0 SHL SUB AND CALLER EQ PUSH2 0x1925 JUMPI PUSH1 0x0 DUP1 REVERT JUMPDEST PUSH1 0x0 DUP2 DUP2 MSTORE PUSH1 0x8 PUSH1 0x20 MSTORE PUSH1 0x40 SWAP1 KECCAK256 SLOAD PUSH2 0x103A SWAP1 PUSH1 0x1 PUSH2 0x340D JUMP JUMPDEST PUSH1 0xA SLOAD PUSH1 0x1 PUSH1 0x1 PUSH1 0xA0 SHL SUB AND CALLER EQ PUSH2 0x1956 JUMPI PUSH1 0x0 DUP1 REVERT JUMPDEST PUSH2 0x1963 TIMESTAMP PUSH3 0x93A80 PUSH2 0x340D JUMP JUMPDEST PUSH1 0x0 SWAP2 DUP3 MSTORE PUSH1 0xC PUSH1 0x20 SWAP1 DUP2 MSTORE PUSH1 0x40 DUP1 DUP5 KECCAK256 SWAP3 SWAP1 SWAP3 SSTORE PUSH1 0x9 SWAP1 MSTORE SWAP1 KECCAK256 DUP1 SLOAD PUSH1 0xFF NOT AND PUSH1 0x1 OR SWAP1 SSTORE JUMP JUMPDEST PUSH1 0x0 DUP3 DUP2 MSTORE PUSH1 0x8 PUSH1 0x20 MSTORE PUSH1 0x40 SWAP1 KECCAK256 SLOAD ISZERO DUP1 ISZERO PUSH2 0x19B6 JUMPI POP PUSH1 0x0 DUP3 DUP2 MSTORE PUSH1 0x9 PUSH1 0x20 MSTORE PUSH1 0x40 SWAP1 KECCAK256 SLOAD PUSH1 0xFF AND ISZERO JUMPDEST PUSH2 0x19D2 JUMPI PUSH1 0x40 MLOAD PUSH3 0x461BCD PUSH1 0xE5 SHL DUP2 MSTORE PUSH1 0x4 ADD PUSH2 0xAB2 SWAP1 PUSH2 0x33A1 JUMP JUMPDEST PUSH2 0x19DC DUP2 DUP4 PUSH2 0x1A51 JUMP JUMPDEST PUSH2 0x19E5 JUMPI PUSH1 0x0 DUP1 REVERT JUMPDEST PUSH2 0x19EF DUP5 DUP4 PUSH2 0x2B58 JUMP JUMPDEST PUSH2 0x19F9 DUP5 DUP4 PUSH2 0x2BBF JUMP JUMPDEST PUSH2 0x1A03 DUP4 DUP4 PUSH2 0x2C40 JUMP JUMPDEST PUSH1 0x0 DUP3 DUP2 MSTORE PUSH1 0x2 PUSH1 0x20 MSTORE PUSH1 0x40 DUP1 DUP3 KECCAK256 NUMBER SWAP1 SSTORE MLOAD DUP4 SWAP2 PUSH1 0x1 PUSH1 0x1 PUSH1 0xA0 SHL SUB DUP1 DUP8 AND SWAP3 SWAP1 DUP9 AND SWAP2 PUSH32 0xDDF252AD1BE2C89B69C2B068FC378DAA952BA7F163C4A11628F55A4DF523B3EF SWAP2 LOG4 POP POP POP POP JUMP JUMPDEST PUSH1 0x0 DUP2 DUP2 MSTORE PUSH1 0xD PUSH1 0x20 SWAP1 DUP2 MSTORE PUSH1 0x40 DUP1 DUP4 KECCAK256 SLOAD PUSH1 0xE DUP4 MSTORE DUP2 DUP5 KECCAK256 SLOAD PUSH1 0x1 PUSH1 0x1 PUSH1 0xA0 SHL SUB SWAP2 DUP3 AND DUP1 DUP7 MSTORE PUSH1 0x12 DUP6 MSTORE DUP4 DUP7 KECCAK256 DUP9 DUP5 AND DUP1 DUP9 MSTORE SWAP6 MSTORE SWAP3 DUP6 KECCAK256 SLOAD SWAP3 SWAP4 DUP1 DUP6 EQ SWAP4 SWAP3 SWAP1 SWAP2 AND EQ SWAP1 PUSH1 0xFF AND DUP3 DUP1 PUSH2 0x1AA4 JUMPI POP DUP2 JUMPDEST DUP1 PUSH2 0x1AAC JUMPI POP DUP1 JUMPDEST SWAP8 SWAP7 POP POP POP POP POP POP POP JUMP JUMPDEST PUSH1 0x40 DUP1 MLOAD PUSH1 0x80 DUP2 ADD DUP3 MSTORE PUSH1 0x0 DUP1 DUP3 MSTORE PUSH1 0x20 DUP3 ADD DUP2 SWAP1 MSTORE SWAP2 DUP2 ADD DUP3 SWAP1 MSTORE PUSH1 0x60 DUP2 ADD SWAP2 SWAP1 SWAP2 MSTORE PUSH1 0x40 DUP1 MLOAD PUSH1 0x80 DUP2 ADD DUP3 MSTORE PUSH1 0x0 DUP1 DUP3 MSTORE PUSH1 0x20 DUP3 ADD DUP2 SWAP1 MSTORE SWAP2 DUP2 ADD DUP3 SWAP1 MSTORE PUSH1 0x60 DUP2 ADD SWAP2 SWAP1 SWAP2 MSTORE PUSH1 0x3 SLOAD PUSH1 0x0 SWAP1 DUP2 SWAP1 DUP8 ISZERO PUSH2 0x1C23 JUMPI TIMESTAMP DUP8 PUSH1 0x20 ADD MLOAD GT DUP1 ISZERO PUSH2 0x1B27 JUMPI POP PUSH1 0x0 DUP8 PUSH1 0x0 ADD MLOAD PUSH1 0xF SIGNEXTEND SGT JUMPDEST ISZERO PUSH2 0x1B6C JUMPI DUP7 MLOAD PUSH2 0x1B3D SWAP1 PUSH4 0x784CE00 SWAP1 PUSH2 0x3502 JUMP JUMPDEST PUSH1 0xF SIGNEXTEND PUSH1 0x20 DUP1 DUP8 ADD SWAP2 SWAP1 SWAP2 MSTORE DUP8 ADD MLOAD PUSH2 0x1B57 SWAP1 TIMESTAMP SWAP1 PUSH2 0x33D9 JUMP JUMPDEST DUP6 PUSH1 0x20 ADD MLOAD PUSH2 0x1B66 SWAP2 SWAP1 PUSH2 0x3540 JUMP JUMPDEST PUSH1 0xF SIGNEXTEND DUP6 MSTORE JUMPDEST TIMESTAMP DUP7 PUSH1 0x20 ADD MLOAD GT DUP1 ISZERO PUSH2 0x1B86 JUMPI POP PUSH1 0x0 DUP7 PUSH1 0x0 ADD MLOAD PUSH1 0xF SIGNEXTEND SGT JUMPDEST ISZERO PUSH2 0x1BCB JUMPI DUP6 MLOAD PUSH2 0x1B9C SWAP1 PUSH4 0x784CE00 SWAP1 PUSH2 0x3502 JUMP JUMPDEST PUSH1 0xF SIGNEXTEND PUSH1 0x20 DUP1 DUP7 ADD SWAP2 SWAP1 SWAP2 MSTORE DUP7 ADD MLOAD PUSH2 0x1BB6 SWAP1 TIMESTAMP SWAP1 PUSH2 0x33D9 JUMP JUMPDEST DUP5 PUSH1 0x20 ADD MLOAD PUSH2 0x1BC5 SWAP2 SWAP1 PUSH2 0x3540 JUMP JUMPDEST PUSH1 0xF SIGNEXTEND DUP5 MSTORE JUMPDEST PUSH1 0x20 DUP1 DUP9 ADD MLOAD PUSH1 0x0 SWAP1 DUP2 MSTORE PUSH1 0x7 DUP3 MSTORE PUSH1 0x40 SWAP1 KECCAK256 SLOAD SWAP1 DUP8 ADD MLOAD PUSH1 0xF SWAP2 SWAP1 SWAP2 SIGNEXTEND SWAP4 POP ISZERO PUSH2 0x1C23 JUMPI DUP7 PUSH1 0x20 ADD MLOAD DUP7 PUSH1 0x20 ADD MLOAD EQ ISZERO PUSH2 0x1C08 JUMPI DUP3 SWAP2 POP PUSH2 0x1C23 JUMP JUMPDEST PUSH1 0x20 DUP1 DUP8 ADD MLOAD PUSH1 0x0 SWAP1 DUP2 MSTORE PUSH1 0x7 SWAP1 SWAP2 MSTORE PUSH1 0x40 SWAP1 KECCAK256 SLOAD PUSH1 0xF SIGNEXTEND SWAP2 POP JUMPDEST PUSH1 0x40 DUP1 MLOAD PUSH1 0x80 DUP2 ADD DUP3 MSTORE PUSH1 0x0 DUP1 DUP3 MSTORE PUSH1 0x20 DUP3 ADD MSTORE TIMESTAMP SWAP2 DUP2 ADD SWAP2 SWAP1 SWAP2 MSTORE NUMBER PUSH1 0x60 DUP3 ADD MSTORE DUP2 ISZERO PUSH2 0x1C98 JUMPI POP PUSH1 0x0 DUP2 DUP2 MSTORE PUSH1 0x4 PUSH1 0x20 SWAP1 DUP2 MSTORE PUSH1 0x40 SWAP2 DUP3 SWAP1 KECCAK256 DUP3 MLOAD PUSH1 0x80 DUP2 ADD DUP5 MSTORE DUP2 SLOAD PUSH1 0xF DUP2 DUP2 SIGNEXTEND DUP4 MSTORE PUSH1 0x1 PUSH1 0x80 SHL SWAP1 SWAP2 DIV SWAP1 SIGNEXTEND SWAP3 DUP2 ADD SWAP3 SWAP1 SWAP3 MSTORE PUSH1 0x1 DUP2 ADD SLOAD SWAP3 DUP3 ADD SWAP3 SWAP1 SWAP3 MSTORE PUSH1 0x2 SWAP1 SWAP2 ADD SLOAD PUSH1 0x60 DUP3 ADD MSTORE JUMPDEST PUSH1 0x40 DUP2 ADD MLOAD DUP2 PUSH1 0x0 TIMESTAMP DUP4 LT ISZERO PUSH2 0x1CE5 JUMPI PUSH1 0x40 DUP5 ADD MLOAD PUSH2 0x1CB7 SWAP1 TIMESTAMP PUSH2 0x33D9 JUMP JUMPDEST PUSH1 0x60 DUP6 ADD MLOAD PUSH2 0x1CC6 SWAP1 NUMBER PUSH2 0x33D9 JUMP JUMPDEST PUSH2 0x1CD8 SWAP1 PUSH8 0xDE0B6B3A7640000 PUSH2 0x3425 JUMP JUMPDEST PUSH2 0x1CE2 SWAP2 SWAP1 PUSH2 0x345A JUMP JUMPDEST SWAP1 POP JUMPDEST PUSH1 0x0 PUSH3 0x93A80 PUSH2 0x1CF5 DUP2 DUP7 PUSH2 0x345A JUMP JUMPDEST PUSH2 0x1CFF SWAP2 SWAP1 PUSH2 0x3425 JUMP JUMPDEST SWAP1 POP PUSH1 0x0 JUMPDEST PUSH1 0xFF DUP2 LT ISZERO PUSH2 0x1E7A JUMPI PUSH2 0x1D1A PUSH3 0x93A80 DUP4 PUSH2 0x340D JUMP JUMPDEST SWAP2 POP PUSH1 0x0 TIMESTAMP DUP4 GT ISZERO PUSH2 0x1D2E JUMPI TIMESTAMP SWAP3 POP PUSH2 0x1D42 JUMP JUMPDEST POP PUSH1 0x0 DUP3 DUP2 MSTORE PUSH1 0x7 PUSH1 0x20 MSTORE PUSH1 0x40 SWAP1 KECCAK256 SLOAD PUSH1 0xF SIGNEXTEND JUMPDEST PUSH2 0x1D4C DUP7 DUP5 PUSH2 0x33D9 JUMP JUMPDEST DUP8 PUSH1 0x20 ADD MLOAD PUSH2 0x1D5B SWAP2 SWAP1 PUSH2 0x3540 JUMP JUMPDEST DUP8 MLOAD DUP9 SWAP1 PUSH2 0x1D6A SWAP1 DUP4 SWAP1 PUSH2 0x35D5 JUMP JUMPDEST PUSH1 0xF SIGNEXTEND SWAP1 MSTORE POP PUSH1 0x20 DUP8 ADD DUP1 MLOAD DUP3 SWAP2 SWAP1 PUSH2 0x1D84 SWAP1 DUP4 SWAP1 PUSH2 0x3625 JUMP JUMPDEST PUSH1 0xF SWAP1 DUP2 SIGNEXTEND SWAP1 SWAP2 MSTORE DUP9 MLOAD PUSH1 0x0 SWAP2 SIGNEXTEND SLT ISZERO SWAP1 POP PUSH2 0x1D9F JUMPI PUSH1 0x0 DUP8 MSTORE JUMPDEST PUSH1 0x0 DUP8 PUSH1 0x20 ADD MLOAD PUSH1 0xF SIGNEXTEND SLT ISZERO PUSH2 0x1DB7 JUMPI PUSH1 0x0 PUSH1 0x20 DUP9 ADD MSTORE JUMPDEST PUSH1 0x40 DUP1 DUP9 ADD DUP5 SWAP1 MSTORE DUP6 ADD MLOAD SWAP3 SWAP6 POP DUP6 SWAP3 PUSH8 0xDE0B6B3A7640000 SWAP1 PUSH2 0x1DDB SWAP1 DUP6 PUSH2 0x33D9 JUMP JUMPDEST PUSH2 0x1DE5 SWAP1 DUP7 PUSH2 0x3425 JUMP JUMPDEST PUSH2 0x1DEF SWAP2 SWAP1 PUSH2 0x345A JUMP JUMPDEST DUP6 PUSH1 0x60 ADD MLOAD PUSH2 0x1DFE SWAP2 SWAP1 PUSH2 0x340D JUMP JUMPDEST PUSH1 0x60 DUP9 ADD MSTORE PUSH2 0x1E0E PUSH1 0x1 DUP10 PUSH2 0x340D JUMP JUMPDEST SWAP8 POP TIMESTAMP DUP4 EQ ISZERO PUSH2 0x1E24 JUMPI POP NUMBER PUSH1 0x60 DUP8 ADD MSTORE PUSH2 0x1E7A JUMP JUMPDEST PUSH1 0x0 DUP9 DUP2 MSTORE PUSH1 0x4 PUSH1 0x20 SWAP1 DUP2 MSTORE PUSH1 0x40 SWAP2 DUP3 SWAP1 KECCAK256 DUP10 MLOAD SWAP2 DUP11 ADD MLOAD PUSH1 0x1 PUSH1 0x1 PUSH1 0x80 SHL SUB SWAP1 DUP2 AND PUSH1 0x1 PUSH1 0x80 SHL MUL SWAP3 AND SWAP2 SWAP1 SWAP2 OR DUP2 SSTORE SWAP1 DUP9 ADD MLOAD PUSH1 0x1 DUP3 ADD SSTORE PUSH1 0x60 DUP9 ADD MLOAD PUSH1 0x2 SWAP1 SWAP2 ADD SSTORE POP PUSH2 0x1E73 DUP2 PUSH2 0x3674 JUMP JUMPDEST SWAP1 POP PUSH2 0x1D04 JUMP JUMPDEST POP POP PUSH1 0x3 DUP6 SWAP1 SSTORE DUP12 ISZERO PUSH2 0x1F05 JUMPI DUP9 PUSH1 0x20 ADD MLOAD DUP9 PUSH1 0x20 ADD MLOAD PUSH2 0x1E9B SWAP2 SWAP1 PUSH2 0x35D5 JUMP JUMPDEST DUP5 PUSH1 0x20 ADD DUP2 DUP2 MLOAD PUSH2 0x1EAC SWAP2 SWAP1 PUSH2 0x3625 JUMP JUMPDEST PUSH1 0xF SIGNEXTEND SWAP1 MSTORE POP DUP9 MLOAD DUP9 MLOAD PUSH2 0x1EC0 SWAP2 SWAP1 PUSH2 0x35D5 JUMP JUMPDEST DUP5 MLOAD DUP6 SWAP1 PUSH2 0x1ECF SWAP1 DUP4 SWAP1 PUSH2 0x3625 JUMP JUMPDEST PUSH1 0xF SWAP1 DUP2 SIGNEXTEND SWAP1 SWAP2 MSTORE PUSH1 0x20 DUP7 ADD MLOAD PUSH1 0x0 SWAP2 SIGNEXTEND SLT ISZERO SWAP1 POP PUSH2 0x1EF0 JUMPI PUSH1 0x0 PUSH1 0x20 DUP6 ADD MSTORE JUMPDEST PUSH1 0x0 DUP5 PUSH1 0x0 ADD MLOAD PUSH1 0xF SIGNEXTEND SLT ISZERO PUSH2 0x1F05 JUMPI PUSH1 0x0 DUP5 MSTORE JUMPDEST PUSH1 0x0 DUP6 DUP2 MSTORE PUSH1 0x4 PUSH1 0x20 SWAP1 DUP2 MSTORE PUSH1 0x40 SWAP2 DUP3 SWAP1 KECCAK256 DUP7 MLOAD SWAP2 DUP8 ADD MLOAD PUSH1 0x1 PUSH1 0x1 PUSH1 0x80 SHL SUB SWAP1 DUP2 AND PUSH1 0x1 PUSH1 0x80 SHL MUL SWAP3 AND SWAP2 SWAP1 SWAP2 OR DUP2 SSTORE SWAP1 DUP6 ADD MLOAD PUSH1 0x1 DUP3 ADD SSTORE PUSH1 0x60 DUP6 ADD MLOAD PUSH1 0x2 SWAP1 SWAP2 ADD SSTORE DUP12 ISZERO PUSH2 0x20C8 JUMPI TIMESTAMP DUP12 PUSH1 0x20 ADD MLOAD GT ISZERO PUSH2 0x1FBD JUMPI PUSH1 0x20 DUP10 ADD MLOAD PUSH2 0x1F6B SWAP1 DUP9 PUSH2 0x3625 JUMP JUMPDEST SWAP7 POP DUP11 PUSH1 0x20 ADD MLOAD DUP11 PUSH1 0x20 ADD MLOAD EQ ISZERO PUSH2 0x1F8F JUMPI PUSH1 0x20 DUP9 ADD MLOAD PUSH2 0x1F8C SWAP1 DUP9 PUSH2 0x35D5 JUMP JUMPDEST SWAP7 POP JUMPDEST PUSH1 0x20 DUP12 DUP2 ADD MLOAD PUSH1 0x0 SWAP1 DUP2 MSTORE PUSH1 0x7 SWAP1 SWAP2 MSTORE PUSH1 0x40 SWAP1 KECCAK256 DUP1 SLOAD PUSH1 0x1 PUSH1 0x1 PUSH1 0x80 SHL SUB NOT AND PUSH1 0x1 PUSH1 0x1 PUSH1 0x80 SHL SUB DUP10 AND OR SWAP1 SSTORE JUMPDEST TIMESTAMP DUP11 PUSH1 0x20 ADD MLOAD GT ISZERO PUSH2 0x2018 JUMPI DUP11 PUSH1 0x20 ADD MLOAD DUP11 PUSH1 0x20 ADD MLOAD GT ISZERO PUSH2 0x2018 JUMPI PUSH1 0x20 DUP9 ADD MLOAD PUSH2 0x1FE8 SWAP1 DUP8 PUSH2 0x35D5 JUMP JUMPDEST PUSH1 0x20 DUP12 DUP2 ADD MLOAD PUSH1 0x0 SWAP1 DUP2 MSTORE PUSH1 0x7 SWAP1 SWAP2 MSTORE PUSH1 0x40 SWAP1 KECCAK256 DUP1 SLOAD PUSH1 0x1 PUSH1 0x1 PUSH1 0x80 SHL SUB NOT AND PUSH1 0x1 PUSH1 0x1 PUSH1 0x80 SHL SUB DUP4 AND OR SWAP1 SSTORE SWAP6 POP JUMPDEST PUSH1 0x0 DUP13 DUP2 MSTORE PUSH1 0x6 PUSH1 0x20 MSTORE PUSH1 0x40 DUP2 KECCAK256 SLOAD PUSH2 0x2032 SWAP1 PUSH1 0x1 PUSH2 0x340D JUMP JUMPDEST SWAP1 POP DUP1 PUSH1 0x6 PUSH1 0x0 DUP16 DUP2 MSTORE PUSH1 0x20 ADD SWAP1 DUP2 MSTORE PUSH1 0x20 ADD PUSH1 0x0 KECCAK256 DUP2 SWAP1 SSTORE POP TIMESTAMP DUP10 PUSH1 0x40 ADD DUP2 DUP2 MSTORE POP POP NUMBER DUP10 PUSH1 0x60 ADD DUP2 DUP2 MSTORE POP POP DUP9 PUSH1 0x5 PUSH1 0x0 DUP16 DUP2 MSTORE PUSH1 0x20 ADD SWAP1 DUP2 MSTORE PUSH1 0x20 ADD PUSH1 0x0 KECCAK256 DUP3 PUSH4 0x3B9ACA00 DUP2 LT PUSH2 0x2088 JUMPI PUSH2 0x2088 PUSH2 0x3375 JUMP JUMPDEST DUP3 MLOAD PUSH1 0x20 DUP5 ADD MLOAD PUSH1 0x1 PUSH1 0x1 PUSH1 0x80 SHL SUB SWAP1 DUP2 AND PUSH1 0x1 PUSH1 0x80 SHL MUL SWAP2 AND OR PUSH1 0x3 SWAP2 SWAP1 SWAP2 MUL SWAP2 SWAP1 SWAP2 ADD SWAP1 DUP2 SSTORE PUSH1 0x40 DUP3 ADD MLOAD PUSH1 0x1 DUP3 ADD SSTORE PUSH1 0x60 SWAP1 SWAP2 ADD MLOAD PUSH1 0x2 SWAP1 SWAP2 ADD SSTORE POP JUMPDEST POP POP POP POP POP POP POP POP POP POP POP POP JUMP JUMPDEST PUSH2 0x20E0 CALLER DUP3 PUSH2 0x1A51 JUMP JUMPDEST PUSH2 0x212C JUMPI PUSH1 0x40 MLOAD PUSH3 0x461BCD PUSH1 0xE5 SHL DUP2 MSTORE PUSH1 0x20 PUSH1 0x4 DUP3 ADD DUP2 SWAP1 MSTORE PUSH1 0x24 DUP3 ADD MSTORE PUSH32 0x63616C6C6572206973206E6F74206F776E6572206E6F7220617070726F766564 PUSH1 0x44 DUP3 ADD MSTORE PUSH1 0x64 ADD PUSH2 0xAB2 JUMP JUMPDEST PUSH1 0x0 DUP2 DUP2 MSTORE PUSH1 0xD PUSH1 0x20 MSTORE PUSH1 0x40 DUP2 KECCAK256 SLOAD PUSH1 0x1 PUSH1 0x1 PUSH1 0xA0 SHL SUB AND SWAP1 PUSH2 0x214F SWAP1 DUP4 PUSH2 0x8B2 JUMP JUMPDEST PUSH2 0x2159 CALLER DUP4 PUSH2 0x2BBF JUMP JUMPDEST PUSH1 0x40 MLOAD DUP3 SWAP1 PUSH1 0x0 SWAP1 PUSH1 0x1 PUSH1 0x1 PUSH1 0xA0 SHL SUB DUP5 AND SWAP1 PUSH32 0xDDF252AD1BE2C89B69C2B068FC378DAA952BA7F163C4A11628F55A4DF523B3EF SWAP1 DUP4 SWAP1 LOG4 POP POP JUMP JUMPDEST PUSH1 0x0 DUP1 PUSH3 0x93A80 DUP1 PUSH2 0x21A7 DUP7 TIMESTAMP PUSH2 0x340D JUMP JUMPDEST PUSH2 0x21B1 SWAP2 SWAP1 PUSH2 0x345A JUMP JUMPDEST PUSH2 0x21BB SWAP2 SWAP1 PUSH2 0x3425 JUMP JUMPDEST SWAP1 POP PUSH1 0x0 DUP6 GT PUSH2 0x21CA JUMPI PUSH1 0x0 DUP1 REVERT JUMPDEST TIMESTAMP DUP2 GT PUSH2 0x2228 JUMPI PUSH1 0x40 MLOAD PUSH3 0x461BCD PUSH1 0xE5 SHL DUP2 MSTORE PUSH1 0x20 PUSH1 0x4 DUP3 ADD MSTORE PUSH1 0x26 PUSH1 0x24 DUP3 ADD MSTORE PUSH32 0x43616E206F6E6C79206C6F636B20756E74696C2074696D6520696E2074686520 PUSH1 0x44 DUP3 ADD MSTORE PUSH6 0x667574757265 PUSH1 0xD0 SHL PUSH1 0x64 DUP3 ADD MSTORE PUSH1 0x84 ADD PUSH2 0xAB2 JUMP JUMPDEST PUSH2 0x2236 PUSH4 0x784CE00 TIMESTAMP PUSH2 0x340D JUMP JUMPDEST DUP2 GT ISZERO PUSH2 0x2285 JUMPI PUSH1 0x40 MLOAD PUSH3 0x461BCD PUSH1 0xE5 SHL DUP2 MSTORE PUSH1 0x20 PUSH1 0x4 DUP3 ADD MSTORE PUSH1 0x1E PUSH1 0x24 DUP3 ADD MSTORE PUSH32 0x566F74696E67206C6F636B2063616E2062652034207965617273206D61780000 PUSH1 0x44 DUP3 ADD MSTORE PUSH1 0x64 ADD PUSH2 0xAB2 JUMP JUMPDEST PUSH1 0xB PUSH1 0x0 DUP2 SLOAD PUSH2 0x2294 SWAP1 PUSH2 0x3674 JUMP JUMPDEST SWAP1 SWAP2 SSTORE POP PUSH1 0xB SLOAD PUSH2 0x22A5 DUP5 DUP3 PUSH2 0x2CD6 JUMP JUMPDEST POP PUSH1 0x0 DUP2 DUP2 MSTORE PUSH1 0x1 PUSH1 0x20 DUP2 DUP2 MSTORE PUSH1 0x40 SWAP3 DUP4 SWAP1 KECCAK256 DUP4 MLOAD DUP1 DUP6 ADD SWAP1 SWAP5 MSTORE DUP1 SLOAD PUSH1 0xF SIGNEXTEND DUP5 MSTORE DUP3 ADD SLOAD SWAP1 DUP4 ADD MSTORE PUSH2 0x22DD SWAP2 DUP4 SWAP2 DUP10 SWAP2 DUP7 SWAP2 PUSH2 0x274A JUMP JUMPDEST SWAP6 SWAP5 POP POP POP POP POP JUMP JUMPDEST PUSH1 0x0 DUP1 DUP4 SWAP1 POP PUSH1 0x0 PUSH3 0x93A80 DUP1 DUP4 PUSH1 0x40 ADD MLOAD PUSH2 0x2302 SWAP2 SWAP1 PUSH2 0x345A JUMP JUMPDEST PUSH2 0x230C SWAP2 SWAP1 PUSH2 0x3425 JUMP JUMPDEST SWAP1 POP PUSH1 0x0 JUMPDEST PUSH1 0xFF DUP2 LT ISZERO PUSH2 0x23C0 JUMPI PUSH2 0x2327 PUSH3 0x93A80 DUP4 PUSH2 0x340D JUMP JUMPDEST SWAP2 POP PUSH1 0x0 DUP6 DUP4 GT ISZERO PUSH2 0x233B JUMPI DUP6 SWAP3 POP PUSH2 0x234F JUMP JUMPDEST POP PUSH1 0x0 DUP3 DUP2 MSTORE PUSH1 0x7 PUSH1 0x20 MSTORE PUSH1 0x40 SWAP1 KECCAK256 SLOAD PUSH1 0xF SIGNEXTEND JUMPDEST PUSH1 0x40 DUP5 ADD MLOAD PUSH2 0x235E SWAP1 DUP5 PUSH2 0x33D9 JUMP JUMPDEST DUP5 PUSH1 0x20 ADD MLOAD PUSH2 0x236D SWAP2 SWAP1 PUSH2 0x3540 JUMP JUMPDEST DUP5 MLOAD DUP6 SWAP1 PUSH2 0x237C SWAP1 DUP4 SWAP1 PUSH2 0x35D5 JUMP JUMPDEST PUSH1 0xF SIGNEXTEND SWAP1 MSTORE POP DUP3 DUP7 EQ ISZERO PUSH2 0x2390 JUMPI POP PUSH2 0x23C0 JUMP JUMPDEST DUP1 DUP5 PUSH1 0x20 ADD DUP2 DUP2 MLOAD PUSH2 0x23A2 SWAP2 SWAP1 PUSH2 0x3625 JUMP JUMPDEST PUSH1 0xF SIGNEXTEND SWAP1 MSTORE POP POP PUSH1 0x40 DUP4 ADD DUP3 SWAP1 MSTORE PUSH2 0x23B9 DUP2 PUSH2 0x3674 JUMP JUMPDEST SWAP1 POP PUSH2 0x2311 JUMP JUMPDEST POP PUSH1 0x0 DUP3 PUSH1 0x0 ADD MLOAD PUSH1 0xF SIGNEXTEND SLT ISZERO PUSH2 0x23D6 JUMPI PUSH1 0x0 DUP3 MSTORE JUMPDEST POP MLOAD PUSH1 0x1 PUSH1 0x1 PUSH1 0x80 SHL SUB AND SWAP4 SWAP3 POP POP POP JUMP JUMPDEST PUSH1 0x0 NUMBER DUP3 GT ISZERO PUSH2 0x23FA JUMPI PUSH2 0x23FA PUSH2 0x338B JUMP JUMPDEST PUSH1 0x0 DUP4 DUP2 MSTORE PUSH1 0x6 PUSH1 0x20 MSTORE PUSH1 0x40 DUP2 KECCAK256 SLOAD DUP2 JUMPDEST PUSH1 0x80 DUP2 LT ISZERO PUSH2 0x249E JUMPI DUP2 DUP4 LT PUSH2 0x2420 JUMPI PUSH2 0x249E JUMP JUMPDEST PUSH1 0x0 PUSH1 0x2 PUSH2 0x242E DUP5 DUP7 PUSH2 0x340D JUMP JUMPDEST PUSH2 0x2439 SWAP1 PUSH1 0x1 PUSH2 0x340D JUMP JUMPDEST PUSH2 0x2443 SWAP2 SWAP1 PUSH2 0x345A JUMP JUMPDEST PUSH1 0x0 DUP9 DUP2 MSTORE PUSH1 0x5 PUSH1 0x20 MSTORE PUSH1 0x40 SWAP1 KECCAK256 SWAP1 SWAP2 POP DUP7 SWAP1 DUP3 PUSH4 0x3B9ACA00 DUP2 LT PUSH2 0x246A JUMPI PUSH2 0x246A PUSH2 0x3375 JUMP JUMPDEST PUSH1 0x3 MUL ADD PUSH1 0x2 ADD SLOAD GT PUSH2 0x247F JUMPI DUP1 SWAP4 POP PUSH2 0x248D JUMP JUMPDEST PUSH2 0x248A PUSH1 0x1 DUP3 PUSH2 0x33D9 JUMP JUMPDEST SWAP3 POP JUMPDEST POP PUSH2 0x2497 DUP2 PUSH2 0x3674 JUMP JUMPDEST SWAP1 POP PUSH2 0x240B JUMP JUMPDEST POP PUSH1 0x0 DUP6 DUP2 MSTORE PUSH1 0x5 PUSH1 0x20 MSTORE PUSH1 0x40 DUP2 KECCAK256 DUP4 PUSH4 0x3B9ACA00 DUP2 LT PUSH2 0x24C1 JUMPI PUSH2 0x24C1 PUSH2 0x3375 JUMP JUMPDEST PUSH1 0x40 DUP1 MLOAD PUSH1 0x80 DUP2 ADD DUP3 MSTORE PUSH1 0x3 SWAP3 DUP4 MUL SWAP4 SWAP1 SWAP4 ADD DUP1 SLOAD PUSH1 0xF DUP2 DUP2 SIGNEXTEND DUP7 MSTORE PUSH1 0x1 PUSH1 0x80 SHL SWAP1 SWAP2 DIV SWAP1 SIGNEXTEND PUSH1 0x20 DUP6 ADD MSTORE PUSH1 0x1 DUP2 ADD SLOAD SWAP2 DUP5 ADD SWAP2 SWAP1 SWAP2 MSTORE PUSH1 0x2 ADD SLOAD PUSH1 0x60 DUP4 ADD MSTORE SLOAD SWAP1 SWAP2 POP PUSH1 0x0 PUSH2 0x2511 DUP8 DUP4 PUSH2 0x26C0 JUMP JUMPDEST PUSH1 0x0 DUP2 DUP2 MSTORE PUSH1 0x4 PUSH1 0x20 SWAP1 DUP2 MSTORE PUSH1 0x40 DUP1 DUP4 KECCAK256 DUP2 MLOAD PUSH1 0x80 DUP2 ADD DUP4 MSTORE DUP2 SLOAD PUSH1 0xF DUP2 DUP2 SIGNEXTEND DUP4 MSTORE PUSH1 0x1 PUSH1 0x80 SHL SWAP1 SWAP2 DIV SWAP1 SIGNEXTEND SWAP4 DUP2 ADD SWAP4 SWAP1 SWAP4 MSTORE PUSH1 0x1 DUP2 ADD SLOAD SWAP2 DUP4 ADD SWAP2 SWAP1 SWAP2 MSTORE PUSH1 0x2 ADD SLOAD PUSH1 0x60 DUP3 ADD MSTORE SWAP2 SWAP3 POP DUP1 DUP5 DUP5 LT ISZERO PUSH2 0x25F0 JUMPI PUSH1 0x0 PUSH1 0x4 DUP2 PUSH2 0x2575 DUP8 PUSH1 0x1 PUSH2 0x340D JUMP JUMPDEST DUP2 MSTORE PUSH1 0x20 DUP1 DUP3 ADD SWAP3 SWAP1 SWAP3 MSTORE PUSH1 0x40 SWAP1 DUP2 ADD PUSH1 0x0 KECCAK256 DUP2 MLOAD PUSH1 0x80 DUP2 ADD DUP4 MSTORE DUP2 SLOAD PUSH1 0xF DUP2 DUP2 SIGNEXTEND DUP4 MSTORE PUSH1 0x1 PUSH1 0x80 SHL SWAP1 SWAP2 DIV SWAP1 SIGNEXTEND SWAP4 DUP2 ADD SWAP4 SWAP1 SWAP4 MSTORE PUSH1 0x1 DUP2 ADD SLOAD SWAP2 DUP4 ADD SWAP2 SWAP1 SWAP2 MSTORE PUSH1 0x2 ADD SLOAD PUSH1 0x60 DUP1 DUP4 ADD DUP3 SWAP1 MSTORE DUP7 ADD MLOAD SWAP2 SWAP3 POP PUSH2 0x25D2 SWAP2 SWAP1 PUSH2 0x33D9 JUMP JUMPDEST SWAP3 POP DUP4 PUSH1 0x40 ADD MLOAD DUP2 PUSH1 0x40 ADD MLOAD PUSH2 0x25E8 SWAP2 SWAP1 PUSH2 0x33D9 JUMP JUMPDEST SWAP2 POP POP PUSH2 0x2614 JUMP JUMPDEST PUSH1 0x60 DUP4 ADD MLOAD PUSH2 0x25FF SWAP1 NUMBER PUSH2 0x33D9 JUMP JUMPDEST SWAP2 POP DUP3 PUSH1 0x40 ADD MLOAD TIMESTAMP PUSH2 0x2611 SWAP2 SWAP1 PUSH2 0x33D9 JUMP JUMPDEST SWAP1 POP JUMPDEST PUSH1 0x40 DUP4 ADD MLOAD DUP3 ISZERO PUSH2 0x2651 JUMPI DUP3 DUP5 PUSH1 0x60 ADD MLOAD DUP13 PUSH2 0x2630 SWAP2 SWAP1 PUSH2 0x33D9 JUMP JUMPDEST PUSH2 0x263A SWAP1 DUP5 PUSH2 0x3425 JUMP JUMPDEST PUSH2 0x2644 SWAP2 SWAP1 PUSH2 0x345A JUMP JUMPDEST PUSH2 0x264E SWAP1 DUP3 PUSH2 0x340D JUMP JUMPDEST SWAP1 POP JUMPDEST PUSH1 0x40 DUP8 ADD MLOAD PUSH2 0x2660 SWAP1 DUP3 PUSH2 0x33D9 JUMP JUMPDEST DUP8 PUSH1 0x20 ADD MLOAD PUSH2 0x266F SWAP2 SWAP1 PUSH2 0x3540 JUMP JUMPDEST DUP8 MLOAD DUP9 SWAP1 PUSH2 0x267E SWAP1 DUP4 SWAP1 PUSH2 0x35D5 JUMP JUMPDEST PUSH1 0xF SWAP1 DUP2 SIGNEXTEND SWAP1 SWAP2 MSTORE DUP9 MLOAD PUSH1 0x0 SWAP2 SIGNEXTEND SLT SWAP1 POP PUSH2 0x26AE JUMPI POP POP SWAP4 MLOAD PUSH1 0x1 PUSH1 0x1 PUSH1 0x80 SHL SUB AND SWAP7 POP PUSH2 0xA1F SWAP6 POP POP POP POP POP POP JUMP JUMPDEST PUSH1 0x0 SWAP10 POP POP POP POP POP POP POP POP POP POP PUSH2 0xA1F JUMP JUMPDEST PUSH1 0x0 DUP1 DUP3 DUP2 JUMPDEST PUSH1 0x80 DUP2 LT ISZERO PUSH2 0x2740 JUMPI DUP2 DUP4 LT PUSH2 0x26DB JUMPI PUSH2 0x2740 JUMP JUMPDEST PUSH1 0x0 PUSH1 0x2 PUSH2 0x26E9 DUP5 DUP7 PUSH2 0x340D JUMP JUMPDEST PUSH2 0x26F4 SWAP1 PUSH1 0x1 PUSH2 0x340D JUMP JUMPDEST PUSH2 0x26FE SWAP2 SWAP1 PUSH2 0x345A JUMP JUMPDEST PUSH1 0x0 DUP2 DUP2 MSTORE PUSH1 0x4 PUSH1 0x20 MSTORE PUSH1 0x40 SWAP1 KECCAK256 PUSH1 0x2 ADD SLOAD SWAP1 SWAP2 POP DUP8 LT PUSH2 0x2721 JUMPI DUP1 SWAP4 POP PUSH2 0x272F JUMP JUMPDEST PUSH2 0x272C PUSH1 0x1 DUP3 PUSH2 0x33D9 JUMP JUMPDEST SWAP3 POP JUMPDEST POP PUSH2 0x2739 DUP2 PUSH2 0x3674 JUMP JUMPDEST SWAP1 POP PUSH2 0x26C6 JUMP JUMPDEST POP SWAP1 SWAP5 SWAP4 POP POP POP POP JUMP JUMPDEST PUSH1 0x0 SLOAD DUP3 SWAP1 PUSH2 0x2759 DUP7 DUP3 PUSH2 0x340D JUMP JUMPDEST PUSH1 0x0 SWAP1 DUP2 SSTORE PUSH1 0x40 DUP1 MLOAD DUP1 DUP3 ADD SWAP1 SWAP2 MSTORE DUP2 DUP2 MSTORE PUSH1 0x20 DUP2 ADD SWAP2 SWAP1 SWAP2 MSTORE DUP3 MLOAD PUSH1 0x20 DUP1 DUP6 ADD MLOAD SWAP1 DUP4 ADD MSTORE PUSH1 0xF SIGNEXTEND DUP2 MSTORE DUP3 MLOAD DUP8 SWAP1 DUP5 SWAP1 PUSH2 0x2795 SWAP1 DUP4 SWAP1 PUSH2 0x3625 JUMP JUMPDEST PUSH1 0xF SIGNEXTEND SWAP1 MSTORE POP DUP6 ISZERO PUSH2 0x27A9 JUMPI PUSH1 0x20 DUP4 ADD DUP7 SWAP1 MSTORE JUMPDEST PUSH1 0x0 DUP9 DUP2 MSTORE PUSH1 0x1 PUSH1 0x20 DUP2 DUP2 MSTORE PUSH1 0x40 SWAP1 SWAP3 KECCAK256 DUP6 MLOAD DUP2 SLOAD PUSH1 0x1 PUSH1 0x1 PUSH1 0x80 SHL SUB NOT AND PUSH1 0x1 PUSH1 0x1 PUSH1 0x80 SHL SUB SWAP1 SWAP2 AND OR DUP2 SSTORE SWAP2 DUP6 ADD MLOAD SWAP2 ADD SSTORE PUSH2 0x27E8 DUP9 DUP3 DUP6 PUSH2 0x1AB7 JUMP JUMPDEST CALLER DUP8 ISZERO DUP1 ISZERO SWAP1 PUSH2 0x280A JUMPI POP PUSH1 0x4 DUP6 PUSH1 0x4 DUP2 GT ISZERO PUSH2 0x2807 JUMPI PUSH2 0x2807 PUSH2 0x368F JUMP JUMPDEST EQ ISZERO JUMPDEST ISZERO PUSH2 0x28B4 JUMPI PUSH1 0x40 MLOAD PUSH4 0x23B872DD PUSH1 0xE0 SHL DUP2 MSTORE PUSH1 0x1 PUSH1 0x1 PUSH1 0xA0 SHL SUB DUP3 DUP2 AND PUSH1 0x4 DUP4 ADD MSTORE ADDRESS PUSH1 0x24 DUP4 ADD MSTORE PUSH1 0x44 DUP3 ADD DUP11 SWAP1 MSTORE PUSH32 0x0 AND SWAP1 PUSH4 0x23B872DD SWAP1 PUSH1 0x64 ADD PUSH1 0x20 PUSH1 0x40 MLOAD DUP1 DUP4 SUB DUP2 PUSH1 0x0 DUP8 GAS CALL ISZERO DUP1 ISZERO PUSH2 0x2884 JUMPI RETURNDATASIZE PUSH1 0x0 DUP1 RETURNDATACOPY RETURNDATASIZE PUSH1 0x0 REVERT JUMPDEST POP POP POP POP PUSH1 0x40 MLOAD RETURNDATASIZE PUSH1 0x1F NOT PUSH1 0x1F DUP3 ADD AND DUP3 ADD DUP1 PUSH1 0x40 MSTORE POP DUP2 ADD SWAP1 PUSH2 0x28A8 SWAP2 SWAP1 PUSH2 0x33F0 JUMP JUMPDEST PUSH2 0x28B4 JUMPI PUSH2 0x28B4 PUSH2 0x338B JUMP JUMPDEST DUP4 PUSH1 0x20 ADD MLOAD DUP2 PUSH1 0x1 PUSH1 0x1 PUSH1 0xA0 SHL SUB AND PUSH32 0xFF04CCAFC360E16B67D682D17BD9503C4C6B9A131F6BE6325762DC9FFC7DE624 DUP12 DUP12 DUP10 TIMESTAMP PUSH1 0x40 MLOAD PUSH2 0x28F8 SWAP5 SWAP4 SWAP3 SWAP2 SWAP1 PUSH2 0x36A5 JUMP JUMPDEST PUSH1 0x40 MLOAD DUP1 SWAP2 SUB SWAP1 LOG3 PUSH32 0x5E2AA66EFD74CCE82B21852E317E5490D9ECC9E6BB953AE24D90851258CC2F5C DUP4 PUSH2 0x292C DUP11 DUP3 PUSH2 0x340D JUMP JUMPDEST PUSH1 0x40 DUP1 MLOAD SWAP3 DUP4 MSTORE PUSH1 0x20 DUP4 ADD SWAP2 SWAP1 SWAP2 MSTORE ADD PUSH1 0x40 MLOAD DUP1 SWAP2 SUB SWAP1 LOG1 POP POP POP POP POP POP POP POP POP JUMP JUMPDEST PUSH1 0x0 DUP3 DUP2 MSTORE PUSH1 0x6 PUSH1 0x20 MSTORE PUSH1 0x40 DUP2 KECCAK256 SLOAD DUP1 PUSH2 0x296D JUMPI PUSH1 0x0 SWAP2 POP POP PUSH2 0xA1F JUMP JUMPDEST PUSH1 0x0 DUP5 DUP2 MSTORE PUSH1 0x5 PUSH1 0x20 MSTORE PUSH1 0x40 DUP2 KECCAK256 DUP3 PUSH4 0x3B9ACA00 DUP2 LT PUSH2 0x298F JUMPI PUSH2 0x298F PUSH2 0x3375 JUMP JUMPDEST PUSH1 0x40 DUP1 MLOAD PUSH1 0x80 DUP2 ADD DUP3 MSTORE PUSH1 0x3 SWAP3 SWAP1 SWAP3 MUL SWAP3 SWAP1 SWAP3 ADD DUP1 SLOAD PUSH1 0xF DUP2 DUP2 SIGNEXTEND DUP5 MSTORE PUSH1 0x1 PUSH1 0x80 SHL SWAP1 SWAP2 DIV SWAP1 SIGNEXTEND PUSH1 0x20 DUP4 ADD MSTORE PUSH1 0x1 DUP2 ADD SLOAD SWAP3 DUP3 ADD DUP4 SWAP1 MSTORE PUSH1 0x2 ADD SLOAD PUSH1 0x60 DUP3 ADD MSTORE SWAP2 POP PUSH2 0x29DB SWAP1 DUP6 PUSH2 0x36E3 JUMP JUMPDEST DUP2 PUSH1 0x20 ADD MLOAD PUSH2 0x29EA SWAP2 SWAP1 PUSH2 0x3540 JUMP JUMPDEST DUP2 MLOAD DUP3 SWAP1 PUSH2 0x29F9 SWAP1 DUP4 SWAP1 PUSH2 0x35D5 JUMP JUMPDEST PUSH1 0xF SWAP1 DUP2 SIGNEXTEND SWAP1 SWAP2 MSTORE DUP3 MLOAD PUSH1 0x0 SWAP2 SIGNEXTEND SLT ISZERO SWAP1 POP PUSH2 0x2A14 JUMPI PUSH1 0x0 DUP2 MSTORE JUMPDEST MLOAD PUSH1 0xF SIGNEXTEND SWAP2 POP PUSH2 0xA1F SWAP1 POP JUMP JUMPDEST PUSH1 0x60 PUSH1 0x40 MLOAD DUP1 PUSH2 0x120 ADD PUSH1 0x40 MSTORE DUP1 PUSH1 0xFD DUP2 MSTORE PUSH1 0x20 ADD PUSH2 0x3A69 PUSH1 0xFD SWAP2 CODECOPY SWAP1 POP DUP1 PUSH2 0x2A49 DUP7 PUSH2 0x2D39 JUMP JUMPDEST PUSH1 0x40 MLOAD PUSH1 0x20 ADD PUSH2 0x2A5A SWAP3 SWAP2 SWAP1 PUSH2 0x3722 JUMP JUMPDEST PUSH1 0x40 MLOAD PUSH1 0x20 DUP2 DUP4 SUB SUB DUP2 MSTORE SWAP1 PUSH1 0x40 MSTORE SWAP1 POP DUP1 PUSH2 0x2A75 DUP6 PUSH2 0x2D39 JUMP JUMPDEST PUSH1 0x40 MLOAD PUSH1 0x20 ADD PUSH2 0x2A86 SWAP3 SWAP2 SWAP1 PUSH2 0x379E JUMP JUMPDEST PUSH1 0x40 MLOAD PUSH1 0x20 DUP2 DUP4 SUB SUB DUP2 MSTORE SWAP1 PUSH1 0x40 MSTORE SWAP1 POP DUP1 PUSH2 0x2AA1 DUP5 PUSH2 0x2D39 JUMP JUMPDEST PUSH1 0x40 MLOAD PUSH1 0x20 ADD PUSH2 0x2AB2 SWAP3 SWAP2 SWAP1 PUSH2 0x381E JUMP JUMPDEST PUSH1 0x40 MLOAD PUSH1 0x20 DUP2 DUP4 SUB SUB DUP2 MSTORE SWAP1 PUSH1 0x40 MSTORE SWAP1 POP DUP1 PUSH2 0x2ACD DUP4 PUSH2 0x2D39 JUMP JUMPDEST PUSH1 0x40 MLOAD PUSH1 0x20 ADD PUSH2 0x2ADE SWAP3 SWAP2 SWAP1 PUSH2 0x389F JUMP JUMPDEST PUSH1 0x40 MLOAD PUSH1 0x20 DUP2 DUP4 SUB SUB DUP2 MSTORE SWAP1 PUSH1 0x40 MSTORE SWAP1 POP PUSH1 0x0 PUSH2 0x2B2B PUSH2 0x2AFD DUP8 PUSH2 0x2D39 JUMP JUMPDEST PUSH2 0x2B06 DUP5 PUSH2 0x2E37 JUMP JUMPDEST PUSH1 0x40 MLOAD PUSH1 0x20 ADD PUSH2 0x2B17 SWAP3 SWAP2 SWAP1 PUSH2 0x38FA JUMP JUMPDEST PUSH1 0x40 MLOAD PUSH1 0x20 DUP2 DUP4 SUB SUB DUP2 MSTORE SWAP1 PUSH1 0x40 MSTORE PUSH2 0x2E37 JUMP JUMPDEST SWAP1 POP DUP1 PUSH1 0x40 MLOAD PUSH1 0x20 ADD PUSH2 0x2B3E SWAP2 SWAP1 PUSH2 0x3A0F JUMP JUMPDEST PUSH1 0x40 MLOAD PUSH1 0x20 DUP2 DUP4 SUB SUB DUP2 MSTORE SWAP1 PUSH1 0x40 MSTORE SWAP2 POP POP SWAP5 SWAP4 POP POP POP POP JUMP JUMPDEST PUSH1 0x0 DUP2 DUP2 MSTORE PUSH1 0xD PUSH1 0x20 MSTORE PUSH1 0x40 SWAP1 KECCAK256 SLOAD PUSH1 0x1 PUSH1 0x1 PUSH1 0xA0 SHL SUB DUP4 DUP2 AND SWAP2 AND EQ PUSH2 0x2B81 JUMPI PUSH2 0x2B81 PUSH2 0x338B JUMP JUMPDEST PUSH1 0x0 DUP2 DUP2 MSTORE PUSH1 0xE PUSH1 0x20 MSTORE PUSH1 0x40 SWAP1 KECCAK256 SLOAD PUSH1 0x1 PUSH1 0x1 PUSH1 0xA0 SHL SUB AND ISZERO PUSH2 0x2BBB JUMPI PUSH1 0x0 DUP2 DUP2 MSTORE PUSH1 0xE PUSH1 0x20 MSTORE PUSH1 0x40 SWAP1 KECCAK256 DUP1 SLOAD PUSH1 0x1 PUSH1 0x1 PUSH1 0xA0 SHL SUB NOT AND SWAP1 SSTORE JUMPDEST POP POP JUMP JUMPDEST PUSH1 0x0 DUP2 DUP2 MSTORE PUSH1 0xD PUSH1 0x20 MSTORE PUSH1 0x40 SWAP1 KECCAK256 SLOAD PUSH1 0x1 PUSH1 0x1 PUSH1 0xA0 SHL SUB DUP4 DUP2 AND SWAP2 AND EQ PUSH2 0x2BE8 JUMPI PUSH2 0x2BE8 PUSH2 0x338B JUMP JUMPDEST PUSH1 0x0 DUP2 DUP2 MSTORE PUSH1 0xD PUSH1 0x20 MSTORE PUSH1 0x40 SWAP1 KECCAK256 DUP1 SLOAD PUSH1 0x1 PUSH1 0x1 PUSH1 0xA0 SHL SUB NOT AND SWAP1 SSTORE PUSH2 0x2C0E DUP3 DUP3 PUSH2 0x2F9D JUMP JUMPDEST PUSH1 0x1 PUSH1 0x1 PUSH1 0xA0 SHL SUB DUP3 AND PUSH1 0x0 SWAP1 DUP2 MSTORE PUSH1 0xF PUSH1 0x20 MSTORE PUSH1 0x40 DUP2 KECCAK256 DUP1 SLOAD PUSH1 0x1 SWAP3 SWAP1 PUSH2 0x2C37 SWAP1 DUP5 SWAP1 PUSH2 0x33D9 JUMP JUMPDEST SWAP1 SWAP2 SSTORE POP POP POP POP JUMP JUMPDEST PUSH1 0x0 DUP2 DUP2 MSTORE PUSH1 0xD PUSH1 0x20 MSTORE PUSH1 0x40 SWAP1 KECCAK256 SLOAD PUSH1 0x1 PUSH1 0x1 PUSH1 0xA0 SHL SUB AND ISZERO PUSH2 0x2C65 JUMPI PUSH2 0x2C65 PUSH2 0x338B JUMP JUMPDEST PUSH1 0x0 DUP2 DUP2 MSTORE PUSH1 0xD PUSH1 0x20 SWAP1 DUP2 MSTORE PUSH1 0x40 DUP1 DUP4 KECCAK256 DUP1 SLOAD PUSH1 0x1 PUSH1 0x1 PUSH1 0xA0 SHL SUB NOT AND PUSH1 0x1 PUSH1 0x1 PUSH1 0xA0 SHL SUB DUP8 AND SWAP1 DUP2 OR SWAP1 SWAP2 SSTORE DUP1 DUP5 MSTORE PUSH1 0xF DUP1 DUP5 MSTORE DUP3 DUP6 KECCAK256 DUP1 SLOAD PUSH1 0x10 DUP7 MSTORE DUP5 DUP8 KECCAK256 DUP2 DUP9 MSTORE DUP7 MSTORE DUP5 DUP8 KECCAK256 DUP9 SWAP1 SSTORE DUP8 DUP8 MSTORE PUSH1 0x11 DUP7 MSTORE SWAP4 DUP7 KECCAK256 SWAP4 SWAP1 SWAP4 SSTORE SWAP1 DUP5 MSTORE SWAP1 SWAP2 MSTORE DUP1 SLOAD PUSH1 0x1 SWAP3 SWAP1 PUSH2 0x2C37 SWAP1 DUP5 SWAP1 PUSH2 0x340D JUMP JUMPDEST PUSH1 0x0 PUSH1 0x1 PUSH1 0x1 PUSH1 0xA0 SHL SUB DUP4 AND PUSH2 0x2CEE JUMPI PUSH2 0x2CEE PUSH2 0x338B JUMP JUMPDEST PUSH2 0x2CF8 DUP4 DUP4 PUSH2 0x2C40 JUMP JUMPDEST PUSH1 0x40 MLOAD DUP3 SWAP1 PUSH1 0x1 PUSH1 0x1 PUSH1 0xA0 SHL SUB DUP6 AND SWAP1 PUSH1 0x0 SWAP1 PUSH32 0xDDF252AD1BE2C89B69C2B068FC378DAA952BA7F163C4A11628F55A4DF523B3EF SWAP1 DUP3 SWAP1 LOG4 POP PUSH1 0x1 SWAP3 SWAP2 POP POP JUMP JUMPDEST PUSH1 0x60 DUP2 PUSH2 0x2D5D JUMPI POP POP PUSH1 0x40 DUP1 MLOAD DUP1 DUP3 ADD SWAP1 SWAP2 MSTORE PUSH1 0x1 DUP2 MSTORE PUSH1 0x3 PUSH1 0xFC SHL PUSH1 0x20 DUP3 ADD MSTORE SWAP1 JUMP JUMPDEST DUP2 PUSH1 0x0 JUMPDEST DUP2 ISZERO PUSH2 0x2D87 JUMPI DUP1 PUSH2 0x2D71 DUP2 PUSH2 0x3674 JUMP JUMPDEST SWAP2 POP PUSH2 0x2D80 SWAP1 POP PUSH1 0xA DUP4 PUSH2 0x345A JUMP JUMPDEST SWAP2 POP PUSH2 0x2D61 JUMP JUMPDEST PUSH1 0x0 DUP2 PUSH8 0xFFFFFFFFFFFFFFFF DUP2 GT ISZERO PUSH2 0x2DA2 JUMPI PUSH2 0x2DA2 PUSH2 0x321B JUMP JUMPDEST PUSH1 0x40 MLOAD SWAP1 DUP1 DUP3 MSTORE DUP1 PUSH1 0x1F ADD PUSH1 0x1F NOT AND PUSH1 0x20 ADD DUP3 ADD PUSH1 0x40 MSTORE DUP1 ISZERO PUSH2 0x2DCC JUMPI PUSH1 0x20 DUP3 ADD DUP2 DUP1 CALLDATASIZE DUP4 CALLDATACOPY ADD SWAP1 POP JUMPDEST POP SWAP1 POP JUMPDEST DUP5 ISZERO PUSH2 0xE52 JUMPI PUSH2 0x2DE1 PUSH1 0x1 DUP4 PUSH2 0x33D9 JUMP JUMPDEST SWAP2 POP PUSH2 0x2DEE PUSH1 0xA DUP7 PUSH2 0x3A54 JUMP JUMPDEST PUSH2 0x2DF9 SWAP1 PUSH1 0x30 PUSH2 0x340D JUMP JUMPDEST PUSH1 0xF8 SHL DUP2 DUP4 DUP2 MLOAD DUP2 LT PUSH2 0x2E0E JUMPI PUSH2 0x2E0E PUSH2 0x3375 JUMP JUMPDEST PUSH1 0x20 ADD ADD SWAP1 PUSH1 0x1 PUSH1 0x1 PUSH1 0xF8 SHL SUB NOT AND SWAP1 DUP2 PUSH1 0x0 BYTE SWAP1 MSTORE8 POP PUSH2 0x2E30 PUSH1 0xA DUP7 PUSH2 0x345A JUMP JUMPDEST SWAP5 POP PUSH2 0x2DD0 JUMP JUMPDEST DUP1 MLOAD PUSH1 0x60 SWAP1 DUP1 PUSH2 0x2E57 JUMPI POP POP PUSH1 0x40 DUP1 MLOAD PUSH1 0x20 DUP2 ADD SWAP1 SWAP2 MSTORE PUSH1 0x0 DUP2 MSTORE SWAP2 SWAP1 POP JUMP JUMPDEST PUSH1 0x0 PUSH1 0x3 PUSH2 0x2E66 DUP4 PUSH1 0x2 PUSH2 0x340D JUMP JUMPDEST PUSH2 0x2E70 SWAP2 SWAP1 PUSH2 0x345A JUMP JUMPDEST PUSH2 0x2E7B SWAP1 PUSH1 0x4 PUSH2 0x3425 JUMP JUMPDEST SWAP1 POP PUSH1 0x0 PUSH2 0x2E8A DUP3 PUSH1 0x20 PUSH2 0x340D JUMP JUMPDEST PUSH8 0xFFFFFFFFFFFFFFFF DUP2 GT ISZERO PUSH2 0x2EA2 JUMPI PUSH2 0x2EA2 PUSH2 0x321B JUMP JUMPDEST PUSH1 0x40 MLOAD SWAP1 DUP1 DUP3 MSTORE DUP1 PUSH1 0x1F ADD PUSH1 0x1F NOT AND PUSH1 0x20 ADD DUP3 ADD PUSH1 0x40 MSTORE DUP1 ISZERO PUSH2 0x2ECC JUMPI PUSH1 0x20 DUP3 ADD DUP2 DUP1 CALLDATASIZE DUP4 CALLDATACOPY ADD SWAP1 POP JUMPDEST POP SWAP1 POP PUSH1 0x0 PUSH1 0x40 MLOAD DUP1 PUSH1 0x60 ADD PUSH1 0x40 MSTORE DUP1 PUSH1 0x40 DUP2 MSTORE PUSH1 0x20 ADD PUSH2 0x3B66 PUSH1 0x40 SWAP2 CODECOPY SWAP1 POP PUSH1 0x1 DUP2 ADD PUSH1 0x20 DUP4 ADD PUSH1 0x0 JUMPDEST DUP7 DUP2 LT ISZERO PUSH2 0x2F58 JUMPI PUSH1 0x3 DUP2 DUP11 ADD DUP2 ADD MLOAD PUSH1 0x3F PUSH1 0x12 DUP3 SWAP1 SHR DUP2 AND DUP7 ADD MLOAD PUSH1 0xC DUP4 SWAP1 SHR DUP3 AND DUP8 ADD MLOAD PUSH1 0x6 DUP5 SWAP1 SHR DUP4 AND DUP9 ADD MLOAD SWAP3 SWAP1 SWAP4 AND DUP8 ADD MLOAD PUSH1 0x8 SWAP2 DUP3 SHL PUSH1 0xFF SWAP5 DUP6 AND ADD DUP3 SHL SWAP3 DUP5 AND SWAP3 SWAP1 SWAP3 ADD SWAP1 SHL SWAP2 AND ADD PUSH1 0xE0 SHL DUP4 MSTORE PUSH1 0x4 SWAP1 SWAP3 ADD SWAP2 ADD PUSH2 0x2EF7 JUMP JUMPDEST POP PUSH1 0x3 DUP7 MOD PUSH1 0x1 DUP2 EQ PUSH2 0x2F72 JUMPI PUSH1 0x2 DUP2 EQ PUSH2 0x2F83 JUMPI PUSH2 0x2F8F JUMP JUMPDEST PUSH2 0x3D3D PUSH1 0xF0 SHL PUSH1 0x1 NOT DUP4 ADD MSTORE PUSH2 0x2F8F JUMP JUMPDEST PUSH1 0x3D PUSH1 0xF8 SHL PUSH1 0x0 NOT DUP4 ADD MSTORE JUMPDEST POP POP POP SWAP2 DUP2 MSTORE SWAP5 SWAP4 POP POP POP POP JUMP JUMPDEST PUSH1 0x1 PUSH1 0x1 PUSH1 0xA0 SHL SUB DUP3 AND PUSH1 0x0 SWAP1 DUP2 MSTORE PUSH1 0xF PUSH1 0x20 MSTORE PUSH1 0x40 DUP2 KECCAK256 SLOAD PUSH2 0x2FC2 SWAP1 PUSH1 0x1 SWAP1 PUSH2 0x33D9 JUMP JUMPDEST PUSH1 0x0 DUP4 DUP2 MSTORE PUSH1 0x11 PUSH1 0x20 MSTORE PUSH1 0x40 SWAP1 KECCAK256 SLOAD SWAP1 SWAP2 POP DUP1 DUP3 EQ ISZERO PUSH2 0x3012 JUMPI PUSH1 0x1 PUSH1 0x1 PUSH1 0xA0 SHL SUB DUP5 AND PUSH1 0x0 SWAP1 DUP2 MSTORE PUSH1 0x10 PUSH1 0x20 SWAP1 DUP2 MSTORE PUSH1 0x40 DUP1 DUP4 KECCAK256 DUP6 DUP5 MSTORE DUP3 MSTORE DUP1 DUP4 KECCAK256 DUP4 SWAP1 SSTORE DUP6 DUP4 MSTORE PUSH1 0x11 SWAP1 SWAP2 MSTORE DUP2 KECCAK256 SSTORE PUSH2 0x14D9 JUMP JUMPDEST PUSH1 0x1 PUSH1 0x1 PUSH1 0xA0 SHL SUB SWAP4 SWAP1 SWAP4 AND PUSH1 0x0 SWAP1 DUP2 MSTORE PUSH1 0x10 PUSH1 0x20 SWAP1 DUP2 MSTORE PUSH1 0x40 DUP1 DUP4 KECCAK256 SWAP4 DUP4 MSTORE SWAP3 DUP2 MSTORE DUP3 DUP3 KECCAK256 DUP1 SLOAD DUP7 DUP5 MSTORE DUP5 DUP5 KECCAK256 DUP2 SWAP1 SSTORE DUP4 MSTORE PUSH1 0x11 SWAP1 SWAP2 MSTORE DUP3 DUP3 KECCAK256 SWAP5 SWAP1 SWAP5 SSTORE SWAP3 DUP4 SWAP1 SSTORE SWAP1 DUP3 MSTORE DUP2 KECCAK256 SSTORE JUMP JUMPDEST PUSH1 0x1 PUSH1 0x1 PUSH1 0xE0 SHL SUB NOT DUP2 AND DUP2 EQ PUSH2 0x3073 JUMPI PUSH1 0x0 DUP1 REVERT JUMPDEST POP JUMP JUMPDEST PUSH1 0x0 PUSH1 0x20 DUP3 DUP5 SUB SLT ISZERO PUSH2 0x3088 JUMPI PUSH1 0x0 DUP1 REVERT JUMPDEST DUP2 CALLDATALOAD PUSH2 0xD17 DUP2 PUSH2 0x305D JUMP JUMPDEST PUSH1 0x0 JUMPDEST DUP4 DUP2 LT ISZERO PUSH2 0x30AE JUMPI DUP2 DUP2 ADD MLOAD DUP4 DUP3 ADD MSTORE PUSH1 0x20 ADD PUSH2 0x3096 JUMP JUMPDEST DUP4 DUP2 GT ISZERO PUSH2 0x14D9 JUMPI POP POP PUSH1 0x0 SWAP2 ADD MSTORE JUMP JUMPDEST PUSH1 0x0 DUP2 MLOAD DUP1 DUP5 MSTORE PUSH2 0x30D7 DUP2 PUSH1 0x20 DUP7 ADD PUSH1 0x20 DUP7 ADD PUSH2 0x3093 JUMP JUMPDEST PUSH1 0x1F ADD PUSH1 0x1F NOT AND SWAP3 SWAP1 SWAP3 ADD PUSH1 0x20 ADD SWAP3 SWAP2 POP POP JUMP JUMPDEST PUSH1 0x20 DUP2 MSTORE PUSH1 0x0 PUSH2 0xD17 PUSH1 0x20 DUP4 ADD DUP5 PUSH2 0x30BF JUMP JUMPDEST PUSH1 0x0 PUSH1 0x20 DUP3 DUP5 SUB SLT ISZERO PUSH2 0x3110 JUMPI PUSH1 0x0 DUP1 REVERT JUMPDEST POP CALLDATALOAD SWAP2 SWAP1 POP JUMP JUMPDEST DUP1 CALLDATALOAD PUSH1 0x1 PUSH1 0x1 PUSH1 0xA0 SHL SUB DUP2 AND DUP2 EQ PUSH2 0x312E JUMPI PUSH1 0x0 DUP1 REVERT JUMPDEST SWAP2 SWAP1 POP JUMP JUMPDEST PUSH1 0x0 DUP1 PUSH1 0x40 DUP4 DUP6 SUB SLT ISZERO PUSH2 0x3146 JUMPI PUSH1 0x0 DUP1 REVERT JUMPDEST PUSH2 0x314F DUP4 PUSH2 0x3117 JUMP JUMPDEST SWAP5 PUSH1 0x20 SWAP4 SWAP1 SWAP4 ADD CALLDATALOAD SWAP4 POP POP POP JUMP JUMPDEST PUSH1 0x0 DUP1 PUSH1 0x40 DUP4 DUP6 SUB SLT ISZERO PUSH2 0x3170 JUMPI PUSH1 0x0 DUP1 REVERT JUMPDEST POP POP DUP1 CALLDATALOAD SWAP3 PUSH1 0x20 SWAP1 SWAP2 ADD CALLDATALOAD SWAP2 POP JUMP JUMPDEST PUSH1 0x0 DUP1 PUSH1 0x0 PUSH1 0x60 DUP5 DUP7 SUB SLT ISZERO PUSH2 0x3194 JUMPI PUSH1 0x0 DUP1 REVERT JUMPDEST PUSH2 0x319D DUP5 PUSH2 0x3117 JUMP JUMPDEST SWAP3 POP PUSH2 0x31AB PUSH1 0x20 DUP6 ADD PUSH2 0x3117 JUMP JUMPDEST SWAP2 POP PUSH1 0x40 DUP5 ADD CALLDATALOAD SWAP1 POP SWAP3 POP SWAP3 POP SWAP3 JUMP JUMPDEST PUSH1 0x0 PUSH1 0x20 DUP3 DUP5 SUB SLT ISZERO PUSH2 0x31CD JUMPI PUSH1 0x0 DUP1 REVERT JUMPDEST PUSH2 0xD17 DUP3 PUSH2 0x3117 JUMP JUMPDEST DUP1 ISZERO ISZERO DUP2 EQ PUSH2 0x3073 JUMPI PUSH1 0x0 DUP1 REVERT JUMPDEST PUSH1 0x0 DUP1 PUSH1 0x40 DUP4 DUP6 SUB SLT ISZERO PUSH2 0x31F7 JUMPI PUSH1 0x0 DUP1 REVERT JUMPDEST PUSH2 0x3200 DUP4 PUSH2 0x3117 JUMP JUMPDEST SWAP2 POP PUSH1 0x20 DUP4 ADD CALLDATALOAD PUSH2 0x3210 DUP2 PUSH2 0x31D6 JUMP JUMPDEST DUP1 SWAP2 POP POP SWAP3 POP SWAP3 SWAP1 POP JUMP JUMPDEST PUSH4 0x4E487B71 PUSH1 0xE0 SHL PUSH1 0x0 MSTORE PUSH1 0x41 PUSH1 0x4 MSTORE PUSH1 0x24 PUSH1 0x0 REVERT JUMPDEST PUSH1 0x0 DUP1 PUSH1 0x0 DUP1 PUSH1 0x80 DUP6 DUP8 SUB SLT ISZERO PUSH2 0x3247 JUMPI PUSH1 0x0 DUP1 REVERT JUMPDEST PUSH2 0x3250 DUP6 PUSH2 0x3117 JUMP JUMPDEST SWAP4 POP PUSH2 0x325E PUSH1 0x20 DUP7 ADD PUSH2 0x3117 JUMP JUMPDEST SWAP3 POP PUSH1 0x40 DUP6 ADD CALLDATALOAD SWAP2 POP PUSH1 0x60 DUP6 ADD CALLDATALOAD PUSH8 0xFFFFFFFFFFFFFFFF DUP1 DUP3 GT ISZERO PUSH2 0x3282 JUMPI PUSH1 0x0 DUP1 REVERT JUMPDEST DUP2 DUP8 ADD SWAP2 POP DUP8 PUSH1 0x1F DUP4 ADD SLT PUSH2 0x3296 JUMPI PUSH1 0x0 DUP1 REVERT JUMPDEST DUP2 CALLDATALOAD DUP2 DUP2 GT ISZERO PUSH2 0x32A8 JUMPI PUSH2 0x32A8 PUSH2 0x321B JUMP JUMPDEST PUSH1 0x40 MLOAD PUSH1 0x1F DUP3 ADD PUSH1 0x1F NOT SWAP1 DUP2 AND PUSH1 0x3F ADD AND DUP2 ADD SWAP1 DUP4 DUP3 GT DUP2 DUP4 LT OR ISZERO PUSH2 0x32D0 JUMPI PUSH2 0x32D0 PUSH2 0x321B JUMP JUMPDEST DUP2 PUSH1 0x40 MSTORE DUP3 DUP2 MSTORE DUP11 PUSH1 0x20 DUP5 DUP8 ADD ADD GT ISZERO PUSH2 0x32E9 JUMPI PUSH1 0x0 DUP1 REVERT JUMPDEST DUP3 PUSH1 0x20 DUP7 ADD PUSH1 0x20 DUP4 ADD CALLDATACOPY PUSH1 0x0 PUSH1 0x20 DUP5 DUP4 ADD ADD MSTORE DUP1 SWAP6 POP POP POP POP POP POP SWAP3 SWAP6 SWAP2 SWAP5 POP SWAP3 POP JUMP JUMPDEST PUSH1 0x0 DUP1 PUSH1 0x0 PUSH1 0x60 DUP5 DUP7 SUB SLT ISZERO PUSH2 0x3322 JUMPI PUSH1 0x0 DUP1 REVERT JUMPDEST DUP4 CALLDATALOAD SWAP3 POP PUSH1 0x20 DUP5 ADD CALLDATALOAD SWAP2 POP PUSH2 0x3339 PUSH1 0x40 DUP6 ADD PUSH2 0x3117 JUMP JUMPDEST SWAP1 POP SWAP3 POP SWAP3 POP SWAP3 JUMP JUMPDEST PUSH1 0x0 DUP1 PUSH1 0x40 DUP4 DUP6 SUB SLT ISZERO PUSH2 0x3355 JUMPI PUSH1 0x0 DUP1 REVERT JUMPDEST PUSH2 0x335E DUP4 PUSH2 0x3117 JUMP JUMPDEST SWAP2 POP PUSH2 0x336C PUSH1 0x20 DUP5 ADD PUSH2 0x3117 JUMP JUMPDEST SWAP1 POP SWAP3 POP SWAP3 SWAP1 POP JUMP JUMPDEST PUSH4 0x4E487B71 PUSH1 0xE0 SHL PUSH1 0x0 MSTORE PUSH1 0x32 PUSH1 0x4 MSTORE PUSH1 0x24 PUSH1 0x0 REVERT JUMPDEST PUSH4 0x4E487B71 PUSH1 0xE0 SHL PUSH1 0x0 MSTORE PUSH1 0x1 PUSH1 0x4 MSTORE PUSH1 0x24 PUSH1 0x0 REVERT JUMPDEST PUSH1 0x20 DUP1 DUP3 MSTORE PUSH1 0x8 SWAP1 DUP3 ADD MSTORE PUSH8 0x185D1D1858DA1959 PUSH1 0xC2 SHL PUSH1 0x40 DUP3 ADD MSTORE PUSH1 0x60 ADD SWAP1 JUMP JUMPDEST PUSH4 0x4E487B71 PUSH1 0xE0 SHL PUSH1 0x0 MSTORE PUSH1 0x11 PUSH1 0x4 MSTORE PUSH1 0x24 PUSH1 0x0 REVERT JUMPDEST PUSH1 0x0 DUP3 DUP3 LT ISZERO PUSH2 0x33EB JUMPI PUSH2 0x33EB PUSH2 0x33C3 JUMP JUMPDEST POP SUB SWAP1 JUMP JUMPDEST PUSH1 0x0 PUSH1 0x20 DUP3 DUP5 SUB SLT ISZERO PUSH2 0x3402 JUMPI PUSH1 0x0 DUP1 REVERT JUMPDEST DUP2 MLOAD PUSH2 0xD17 DUP2 PUSH2 0x31D6 JUMP JUMPDEST PUSH1 0x0 DUP3 NOT DUP3 GT ISZERO PUSH2 0x3420 JUMPI PUSH2 0x3420 PUSH2 0x33C3 JUMP JUMPDEST POP ADD SWAP1 JUMP JUMPDEST PUSH1 0x0 DUP2 PUSH1 0x0 NOT DIV DUP4 GT DUP3 ISZERO ISZERO AND ISZERO PUSH2 0x343F JUMPI PUSH2 0x343F PUSH2 0x33C3 JUMP JUMPDEST POP MUL SWAP1 JUMP JUMPDEST PUSH4 0x4E487B71 PUSH1 0xE0 SHL PUSH1 0x0 MSTORE PUSH1 0x12 PUSH1 0x4 MSTORE PUSH1 0x24 PUSH1 0x0 REVERT JUMPDEST PUSH1 0x0 DUP3 PUSH2 0x3469 JUMPI PUSH2 0x3469 PUSH2 0x3444 JUMP JUMPDEST POP DIV SWAP1 JUMP JUMPDEST PUSH1 0x20 DUP1 DUP3 MSTORE PUSH1 0x24 SWAP1 DUP3 ADD MSTORE PUSH32 0x43616E6E6F742061646420746F2065787069726564206C6F636B2E2057697468 PUSH1 0x40 DUP3 ADD MSTORE PUSH4 0x64726177 PUSH1 0xE0 SHL PUSH1 0x60 DUP3 ADD MSTORE PUSH1 0x80 ADD SWAP1 JUMP JUMPDEST PUSH1 0x1 PUSH1 0x1 PUSH1 0xA0 SHL SUB DUP6 DUP2 AND DUP3 MSTORE DUP5 AND PUSH1 0x20 DUP3 ADD MSTORE PUSH1 0x40 DUP2 ADD DUP4 SWAP1 MSTORE PUSH1 0x80 PUSH1 0x60 DUP3 ADD DUP2 SWAP1 MSTORE PUSH1 0x0 SWAP1 PUSH2 0xFFE SWAP1 DUP4 ADD DUP5 PUSH2 0x30BF JUMP JUMPDEST PUSH1 0x0 PUSH1 0x20 DUP3 DUP5 SUB SLT ISZERO PUSH2 0x34F7 JUMPI PUSH1 0x0 DUP1 REVERT JUMPDEST DUP2 MLOAD PUSH2 0xD17 DUP2 PUSH2 0x305D JUMP JUMPDEST PUSH1 0x0 DUP2 PUSH1 0xF SIGNEXTEND DUP4 PUSH1 0xF SIGNEXTEND DUP1 PUSH2 0x3519 JUMPI PUSH2 0x3519 PUSH2 0x3444 JUMP JUMPDEST PUSH1 0x1 PUSH1 0x1 PUSH1 0x7F SHL SUB NOT DUP3 EQ PUSH1 0x0 NOT DUP3 EQ AND ISZERO PUSH2 0x3537 JUMPI PUSH2 0x3537 PUSH2 0x33C3 JUMP JUMPDEST SWAP1 SDIV SWAP4 SWAP3 POP POP POP JUMP JUMPDEST PUSH1 0x0 DUP2 PUSH1 0xF SIGNEXTEND DUP4 PUSH1 0xF SIGNEXTEND PUSH1 0x1 PUSH1 0x1 PUSH1 0x7F SHL SUB PUSH1 0x0 DUP3 SGT PUSH1 0x0 DUP5 SGT DUP4 DUP4 DIV DUP6 GT DUP3 DUP3 AND AND ISZERO PUSH2 0x3570 JUMPI PUSH2 0x3570 PUSH2 0x33C3 JUMP JUMPDEST PUSH1 0x1 PUSH1 0x1 PUSH1 0x7F SHL SUB NOT PUSH1 0x0 DUP6 SLT DUP3 DUP2 AND DUP8 DUP4 SDIV DUP8 SLT AND ISZERO PUSH2 0x3593 JUMPI PUSH2 0x3593 PUSH2 0x33C3 JUMP JUMPDEST PUSH1 0x0 DUP8 SLT SWAP3 POP DUP6 DUP3 SDIV DUP8 SLT DUP5 DUP5 AND AND ISZERO PUSH2 0x35AF JUMPI PUSH2 0x35AF PUSH2 0x33C3 JUMP JUMPDEST DUP6 DUP6 SDIV DUP8 SLT DUP2 DUP5 AND AND ISZERO PUSH2 0x35C5 JUMPI PUSH2 0x35C5 PUSH2 0x33C3 JUMP JUMPDEST POP POP POP SWAP3 SWAP1 SWAP2 MUL SWAP6 SWAP5 POP POP POP POP POP JUMP JUMPDEST PUSH1 0x0 DUP2 PUSH1 0xF SIGNEXTEND DUP4 PUSH1 0xF SIGNEXTEND PUSH1 0x0 DUP2 SLT DUP2 PUSH1 0x1 PUSH1 0x1 PUSH1 0x7F SHL SUB NOT ADD DUP4 SLT DUP2 ISZERO AND ISZERO PUSH2 0x3600 JUMPI PUSH2 0x3600 PUSH2 0x33C3 JUMP JUMPDEST DUP2 PUSH1 0x1 PUSH1 0x1 PUSH1 0x7F SHL SUB ADD DUP4 SGT DUP2 AND ISZERO PUSH2 0x361B JUMPI PUSH2 0x361B PUSH2 0x33C3 JUMP JUMPDEST POP SWAP1 SUB SWAP4 SWAP3 POP POP POP JUMP JUMPDEST PUSH1 0x0 DUP2 PUSH1 0xF SIGNEXTEND DUP4 PUSH1 0xF SIGNEXTEND PUSH1 0x0 DUP3 SLT DUP3 PUSH1 0x1 PUSH1 0x1 PUSH1 0x7F SHL SUB SUB DUP3 SGT DUP2 ISZERO AND ISZERO PUSH2 0x364F JUMPI PUSH2 0x364F PUSH2 0x33C3 JUMP JUMPDEST DUP3 PUSH1 0x1 PUSH1 0x1 PUSH1 0x7F SHL SUB NOT SUB DUP3 SLT DUP2 AND ISZERO PUSH2 0x366B JUMPI PUSH2 0x366B PUSH2 0x33C3 JUMP JUMPDEST POP ADD SWAP4 SWAP3 POP POP POP JUMP JUMPDEST PUSH1 0x0 PUSH1 0x0 NOT DUP3 EQ ISZERO PUSH2 0x3688 JUMPI PUSH2 0x3688 PUSH2 0x33C3 JUMP JUMPDEST POP PUSH1 0x1 ADD SWAP1 JUMP JUMPDEST PUSH4 0x4E487B71 PUSH1 0xE0 SHL PUSH1 0x0 MSTORE PUSH1 0x21 PUSH1 0x4 MSTORE PUSH1 0x24 PUSH1 0x0 REVERT JUMPDEST DUP5 DUP2 MSTORE PUSH1 0x20 DUP2 ADD DUP5 SWAP1 MSTORE PUSH1 0x80 DUP2 ADD PUSH1 0x5 DUP5 LT PUSH2 0x36D1 JUMPI PUSH4 0x4E487B71 PUSH1 0xE0 SHL PUSH1 0x0 MSTORE PUSH1 0x21 PUSH1 0x4 MSTORE PUSH1 0x24 PUSH1 0x0 REVERT JUMPDEST PUSH1 0x40 DUP3 ADD SWAP4 SWAP1 SWAP4 MSTORE PUSH1 0x60 ADD MSTORE SWAP3 SWAP2 POP POP JUMP JUMPDEST PUSH1 0x0 DUP1 DUP4 SLT DUP1 ISZERO PUSH1 0x1 PUSH1 0xFF SHL DUP6 ADD DUP5 SLT AND ISZERO PUSH2 0x3701 JUMPI PUSH2 0x3701 PUSH2 0x33C3 JUMP JUMPDEST PUSH1 0x1 PUSH1 0x1 PUSH1 0xFF SHL SUB DUP5 ADD DUP4 SGT DUP2 AND ISZERO PUSH2 0x371C JUMPI PUSH2 0x371C PUSH2 0x33C3 JUMP JUMPDEST POP POP SUB SWAP1 JUMP JUMPDEST PUSH1 0x0 DUP4 MLOAD PUSH2 0x3734 DUP2 DUP5 PUSH1 0x20 DUP9 ADD PUSH2 0x3093 JUMP JUMPDEST PUSH6 0x3A37B5B2B71 PUSH1 0xD5 SHL SWAP1 DUP4 ADD SWAP1 DUP2 MSTORE DUP4 MLOAD PUSH2 0x3757 DUP2 PUSH1 0x6 DUP5 ADD PUSH1 0x20 DUP9 ADD PUSH2 0x3093 JUMP JUMPDEST PUSH32 0x3C2F746578743E3C7465787420783D2231302220793D2234302220636C617373 PUSH1 0x6 SWAP3 SWAP1 SWAP2 ADD SWAP2 DUP3 ADD MSTORE PUSH8 0x1E913130B9B2911F PUSH1 0xC1 SHL PUSH1 0x26 DUP3 ADD MSTORE PUSH1 0x2E ADD SWAP5 SWAP4 POP POP POP POP JUMP JUMPDEST PUSH1 0x0 DUP4 MLOAD PUSH2 0x37B0 DUP2 DUP5 PUSH1 0x20 DUP9 ADD PUSH2 0x3093 JUMP JUMPDEST PUSH10 0x3130B630B731B2A7B31 PUSH1 0xB5 SHL SWAP1 DUP4 ADD SWAP1 DUP2 MSTORE DUP4 MLOAD PUSH2 0x37D7 DUP2 PUSH1 0xA DUP5 ADD PUSH1 0x20 DUP9 ADD PUSH2 0x3093 JUMP JUMPDEST PUSH32 0x3C2F746578743E3C7465787420783D2231302220793D2236302220636C617373 PUSH1 0xA SWAP3 SWAP1 SWAP2 ADD SWAP2 DUP3 ADD MSTORE PUSH8 0x1E913130B9B2911F PUSH1 0xC1 SHL PUSH1 0x2A DUP3 ADD MSTORE PUSH1 0x32 ADD SWAP5 SWAP4 POP POP POP POP JUMP JUMPDEST PUSH1 0x0 DUP4 MLOAD PUSH2 0x3830 DUP2 DUP5 PUSH1 0x20 DUP9 ADD PUSH2 0x3093 JUMP JUMPDEST PUSH11 0x3637B1B5B2B22FB2B7321 PUSH1 0xAD SHL SWAP1 DUP4 ADD SWAP1 DUP2 MSTORE DUP4 MLOAD PUSH2 0x3858 DUP2 PUSH1 0xB DUP5 ADD PUSH1 0x20 DUP9 ADD PUSH2 0x3093 JUMP JUMPDEST PUSH32 0x3C2F746578743E3C7465787420783D2231302220793D2238302220636C617373 PUSH1 0xB SWAP3 SWAP1 SWAP2 ADD SWAP2 DUP3 ADD MSTORE PUSH8 0x1E913130B9B2911F PUSH1 0xC1 SHL PUSH1 0x2B DUP3 ADD MSTORE PUSH1 0x33 ADD SWAP5 SWAP4 POP POP POP POP JUMP JUMPDEST PUSH1 0x0 DUP4 MLOAD PUSH2 0x38B1 DUP2 DUP5 PUSH1 0x20 DUP9 ADD PUSH2 0x3093 JUMP JUMPDEST PUSH6 0x3B30B63AB29 PUSH1 0xD5 SHL SWAP1 DUP4 ADD SWAP1 DUP2 MSTORE DUP4 MLOAD PUSH2 0x38D4 DUP2 PUSH1 0x6 DUP5 ADD PUSH1 0x20 DUP9 ADD PUSH2 0x3093 JUMP JUMPDEST PUSH13 0x1E17BA32BC3A1F1E17B9BB339F PUSH1 0x99 SHL PUSH1 0x6 SWAP3 SWAP1 SWAP2 ADD SWAP2 DUP3 ADD MSTORE PUSH1 0x13 ADD SWAP5 SWAP4 POP POP POP POP JUMP JUMPDEST PUSH16 0x7B226E616D65223A20226C6F636B2023 PUSH1 0x80 SHL DUP2 MSTORE DUP3 MLOAD PUSH1 0x0 SWAP1 PUSH2 0x3926 DUP2 PUSH1 0x10 DUP6 ADD PUSH1 0x20 DUP9 ADD PUSH2 0x3093 JUMP JUMPDEST PUSH32 0x222C20226465736372697074696F6E223A2022536F6C69646C79206C6F636B73 PUSH1 0x10 SWAP2 DUP5 ADD SWAP2 DUP3 ADD MSTORE PUSH32 0x2C2063616E206265207573656420746F20626F6F737420676175676520796965 PUSH1 0x30 DUP3 ADD MSTORE PUSH32 0x6C64732C20766F7465206F6E20746F6B656E20656D697373696F6E2C20616E64 PUSH1 0x50 DUP3 ADD MSTORE PUSH32 0x207265636569766520627269626573222C2022696D616765223A202264617461 PUSH1 0x70 DUP3 ADD MSTORE PUSH22 0xE9A5B5859D94BDCDD99CADE1B5B0ED8985CD94D8D0B PUSH1 0x52 SHL PUSH1 0x90 DUP3 ADD MSTORE DUP4 MLOAD PUSH2 0x39F4 DUP2 PUSH1 0xA6 DUP5 ADD PUSH1 0x20 DUP9 ADD PUSH2 0x3093 JUMP JUMPDEST PUSH2 0x227D PUSH1 0xF0 SHL PUSH1 0xA6 SWAP3 SWAP1 SWAP2 ADD SWAP2 DUP3 ADD MSTORE PUSH1 0xA8 ADD SWAP5 SWAP4 POP POP POP POP JUMP JUMPDEST PUSH32 0x646174613A6170706C69636174696F6E2F6A736F6E3B6261736536342C000000 DUP2 MSTORE PUSH1 0x0 DUP3 MLOAD PUSH2 0x3A47 DUP2 PUSH1 0x1D DUP6 ADD PUSH1 0x20 DUP8 ADD PUSH2 0x3093 JUMP JUMPDEST SWAP2 SWAP1 SWAP2 ADD PUSH1 0x1D ADD SWAP3 SWAP2 POP POP JUMP JUMPDEST PUSH1 0x0 DUP3 PUSH2 0x3A63 JUMPI PUSH2 0x3A63 PUSH2 0x3444 JUMP JUMPDEST POP MOD SWAP1 JUMP INVALID EXTCODECOPY PUSH20 0x766720786D6C6E733D22687474703A2F2F777777 0x2E PUSH24 0x332E6F72672F323030302F73766722207072657365727665 COINBASE PUSH20 0x70656374526174696F3D22784D696E594D696E20 PUSH14 0x656574222076696577426F783D22 ADDRESS KECCAK256 ADDRESS KECCAK256 CALLER CALLDATALOAD ADDRESS KECCAK256 CALLER CALLDATALOAD ADDRESS 0x22 RETURNDATACOPY EXTCODECOPY PUSH20 0x74796C653E2E62617365207B2066696C6C3A2077 PUSH9 0x6974653B20666F6E74 0x2D PUSH7 0x616D696C793A20 PUSH20 0x657269663B20666F6E742D73697A653A20313470 PUSH25 0x3B207D3C2F7374796C653E3C726563742077696474683D2231 ADDRESS ADDRESS 0x25 0x22 KECCAK256 PUSH9 0x65696768743D223130 ADDRESS 0x25 0x22 KECCAK256 PUSH7 0x696C6C3D22626C PUSH2 0x636B 0x22 KECCAK256 0x2F RETURNDATACOPY EXTCODECOPY PUSH21 0x65787420783D2231302220793D2232302220636C61 PUSH20 0x733D2262617365223E4142434445464748494A4B 0x4C 0x4D 0x4E 0x4F POP MLOAD MSTORE MSTORE8 SLOAD SSTORE JUMP JUMPI PC MSIZE GAS PUSH2 0x6263 PUSH5 0x6566676869 PUSH11 0x6B6C6D6E6F707172737475 PUSH23 0x7778797A303132333435363738392B2FA2646970667358 0x22 SLT KECCAK256 PUSH22 0x376DDD6EDE8682208F765AB48433E8DB5072B0C67158 0xB9 0xE1 0xD4 LOG4 0xE1 0x5F 0xC9 DUP1 0xE9 PUSH5 0x736F6C6343 STOP ADDMOD SIGNEXTEND STOP CALLER 0xDD CALLCODE MSTORE 0xAD SHL 0xE2 0xC8 SWAP12 PUSH10 0xC2B068FC378DAA952BA7 CALL PUSH4 0xC4A11628 CREATE2 GAS 0x4D CREATE2 0x23 0xB3 0xEF "
        },
        "methodIdentifiers": {
          "abstain(uint256)": "c1f0fb9f",
          "approve(address,uint256)": "095ea7b3",
          "attach(uint256)": "fbd3a29d",
          "attachments(uint256)": "0d6a2033",
          "balanceOf(address)": "70a08231",
          "balanceOfAtNFT(uint256,uint256)": "8c2c9baf",
          "balanceOfNFT(uint256)": "e7e242d4",
          "balanceOfNFTAt(uint256,uint256)": "e0514aba",
          "block_number()": "25a58b56",
          "checkpoint()": "c2c4c5c1",
          "create_lock(uint256,uint256)": "65fc3873",
          "create_lock_for(uint256,uint256,address)": "d4e54c3b",
          "decimals()": "313ce567",
          "deposit_for(uint256,uint256)": "ee99fe28",
          "detach(uint256)": "986b7d8a",
          "epoch()": "900cf0cf",
          "getApproved(uint256)": "081812fc",
          "get_last_user_slope(uint256)": "461f711c",
          "increase_amount(uint256,uint256)": "a183af52",
          "increase_unlock_time(uint256,uint256)": "a4d855df",
          "isApprovedForAll(address,address)": "e985e9c5",
          "isApprovedOrOwner(address,uint256)": "430c2081",
          "locked(uint256)": "b45a3c0e",
          "locked__end(uint256)": "f8a05763",
          "merge(uint256,uint256)": "d1c2babb",
          "name()": "06fdde03",
          "ownerOf(uint256)": "6352211e",
          "ownership_change(uint256)": "6f548837",
          "point_history(uint256)": "d1febfb9",
          "safeTransferFrom(address,address,uint256)": "42842e0e",
          "safeTransferFrom(address,address,uint256,bytes)": "b88d4fde",
          "setApprovalForAll(address,bool)": "a22cb465",
          "setVoter(address)": "4bc2a657",
          "slope_changes(uint256)": "71197484",
          "supply()": "047fc9aa",
          "supportsInterface(bytes4)": "01ffc9a7",
          "symbol()": "95d89b41",
          "token()": "fc0c546a",
          "tokenOfOwnerByIndex(address,uint256)": "2f745c59",
          "tokenURI(uint256)": "c87b56dd",
          "totalSupply()": "18160ddd",
          "totalSupplyAt(uint256)": "981b24d0",
          "totalSupplyAtT(uint256)": "7116c60c",
          "transferFrom(address,address,uint256)": "23b872dd",
          "user_point_epoch(uint256)": "e441135c",
          "user_point_history(uint256,uint256)": "1376f3da",
          "user_point_history__ts(uint256,uint256)": "1c984bc3",
          "version()": "54fd4d50",
          "voted(uint256)": "8fbb38ff",
          "voter()": "46c96aac",
          "voting(uint256)": "fd4a77f1",
          "withdraw(uint256)": "2e1a7d4d"
        }
      }
    }
  }
}