{
  "contracts/BaseV1-minter.sol": {
    "BaseV1Minter": {
      "abi": [
        {
          "inputs": [
            {
              "internalType": "address",
              "name": "__voter",
              "type": "address"
            },
            {
              "internalType": "address",
              "name": "__ve",
              "type": "address"
            },
            {
              "internalType": "address",
              "name": "__ve_dist",
              "type": "address"
            }
          ],
          "stateMutability": "nonpayable",
          "type": "constructor"
        },
        {
          "anonymous": false,
          "inputs": [
            {
              "indexed": true,
              "internalType": "address",
              "name": "sender",
              "type": "address"
            },
            {
              "indexed": false,
              "internalType": "uint256",
              "name": "weekly",
              "type": "uint256"
            },
            {
              "indexed": false,
              "internalType": "uint256",
              "name": "circulating_supply",
              "type": "uint256"
            },
            {
              "indexed": false,
              "internalType": "uint256",
              "name": "circulating_emission",
              "type": "uint256"
            }
          ],
          "name": "Mint",
          "type": "event"
        },
        {
          "inputs": [],
          "name": "USDC_USDT_gauge",
          "outputs": [
            {
              "internalType": "address",
              "name": "",
              "type": "address"
            }
          ],
          "stateMutability": "view",
          "type": "function"
        },
        {
          "inputs": [],
          "name": "USDC_yMeta_gauge",
          "outputs": [
            {
              "internalType": "address",
              "name": "",
              "type": "address"
            }
          ],
          "stateMutability": "view",
          "type": "function"
        },
        {
          "inputs": [],
          "name": "_token",
          "outputs": [
            {
              "internalType": "contract underlying",
              "name": "",
              "type": "address"
            }
          ],
          "stateMutability": "view",
          "type": "function"
        },
        {
          "inputs": [],
          "name": "_ve",
          "outputs": [
            {
              "internalType": "contract ve",
              "name": "",
              "type": "address"
            }
          ],
          "stateMutability": "view",
          "type": "function"
        },
        {
          "inputs": [],
          "name": "_ve_dist",
          "outputs": [
            {
              "internalType": "contract ve_dist",
              "name": "",
              "type": "address"
            }
          ],
          "stateMutability": "view",
          "type": "function"
        },
        {
          "inputs": [],
          "name": "_voter",
          "outputs": [
            {
              "internalType": "contract voter",
              "name": "",
              "type": "address"
            }
          ],
          "stateMutability": "view",
          "type": "function"
        },
        {
          "inputs": [],
          "name": "active_period",
          "outputs": [
            {
              "internalType": "uint256",
              "name": "",
              "type": "uint256"
            }
          ],
          "stateMutability": "view",
          "type": "function"
        },
        {
          "inputs": [],
          "name": "calculate_emission",
          "outputs": [
            {
              "internalType": "uint256",
              "name": "",
              "type": "uint256"
            }
          ],
          "stateMutability": "view",
          "type": "function"
        },
        {
          "inputs": [
            {
              "internalType": "uint256",
              "name": "_minted",
              "type": "uint256"
            }
          ],
          "name": "calculate_growth",
          "outputs": [
            {
              "internalType": "uint256",
              "name": "",
              "type": "uint256"
            }
          ],
          "stateMutability": "view",
          "type": "function"
        },
        {
          "inputs": [],
          "name": "circulating_emission",
          "outputs": [
            {
              "internalType": "uint256",
              "name": "",
              "type": "uint256"
            }
          ],
          "stateMutability": "view",
          "type": "function"
        },
        {
          "inputs": [],
          "name": "circulating_supply",
          "outputs": [
            {
              "internalType": "uint256",
              "name": "",
              "type": "uint256"
            }
          ],
          "stateMutability": "view",
          "type": "function"
        },
        {
          "inputs": [],
          "name": "fetch",
          "outputs": [
            {
              "internalType": "address",
              "name": "",
              "type": "address"
            }
          ],
          "stateMutability": "view",
          "type": "function"
        },
        {
          "inputs": [
            {
              "internalType": "address",
              "name": "_fetch",
              "type": "address"
            },
            {
              "internalType": "uint256",
              "name": "max",
              "type": "uint256"
            },
            {
              "internalType": "address",
              "name": "_USDC_USDT_gauge",
              "type": "address"
            },
            {
              "internalType": "address",
              "name": "_USDC_yMeta_gauge",
              "type": "address"
            },
            {
              "internalType": "address",
              "name": "_votersLock",
              "type": "address"
            }
          ],
          "name": "initialize",
          "outputs": [],
          "stateMutability": "nonpayable",
          "type": "function"
        },
        {
          "inputs": [
            {
              "internalType": "uint256",
              "name": "_amount",
              "type": "uint256"
            }
          ],
          "name": "mintForFetch",
          "outputs": [],
          "stateMutability": "nonpayable",
          "type": "function"
        },
        {
          "inputs": [],
          "name": "update_period",
          "outputs": [
            {
              "internalType": "uint256",
              "name": "",
              "type": "uint256"
            }
          ],
          "stateMutability": "nonpayable",
          "type": "function"
        },
        {
          "inputs": [],
          "name": "votersLock",
          "outputs": [
            {
              "internalType": "address",
              "name": "",
              "type": "address"
            }
          ],
          "stateMutability": "view",
          "type": "function"
        },
        {
          "inputs": [],
          "name": "weekly",
          "outputs": [
            {
              "internalType": "uint256",
              "name": "",
              "type": "uint256"
            }
          ],
          "stateMutability": "view",
          "type": "function"
        },
        {
          "inputs": [],
          "name": "weekly_emission",
          "outputs": [
            {
              "internalType": "uint256",
              "name": "",
              "type": "uint256"
            }
          ],
          "stateMutability": "view",
          "type": "function"
        }
      ],
      "evm": {
        "bytecode": {
          "linkReferences": {},
          "object": "6101006040526a108b2a2c280290940000006000553480156200002157600080fd5b506040516200138438038062001384833981016040819052620000449162000141565b600280546001600160a01b0319163317905560408051637e062a3560e11b815290516001600160a01b0384169163fc0c546a9160048083019260209291908290030181865afa1580156200009c573d6000803e3d6000fd5b505050506040513d601f19601f82011682018060405250810190620000c291906200018b565b6001600160a01b0390811660805283811660a05282811660c052811660e05262093a8080620000f3816002620001c6565b620000ff9042620001e8565b6200010b919062000203565b620001179190620001c6565b6001555062000226915050565b80516001600160a01b03811681146200013c57600080fd5b919050565b6000806000606084860312156200015757600080fd5b620001628462000124565b9250620001726020850162000124565b9150620001826040850162000124565b90509250925092565b6000602082840312156200019e57600080fd5b620001a98262000124565b9392505050565b634e487b7160e01b600052601160045260246000fd5b6000816000190483118215151615620001e357620001e3620001b0565b500290565b60008219821115620001fe57620001fe620001b0565b500190565b6000826200022157634e487b7160e01b600052601260045260246000fd5b500490565b60805160a05160c05160e0516110a6620002de6000396000818161016f015281816109de01528181610a850152610af80152600081816101ed0152818161053501526107130152600061019e015260008181610279015281816102cf015281816103ef015281816104b20152818161060201528181610795015281816108b90152818161093801528181610a0d01528181610bf001528181610c7b01528181610d0f01528181610d9b0152610e2e01526110a66000f3fe608060405234801561001057600080fd5b50600436106101165760003560e01c80638e01fbfa116100a2578063cfc6c8ff11610071578063cfc6c8ff1461025b578063d139960814610263578063e038c75a1461026c578063ecd0c0c314610274578063ed29fc111461029b57600080fd5b80638e01fbfa1461020f5780639bab5bab14610222578063a01ef25f14610235578063a95c372d1461024857600080fd5b806336d96faf116100e957806336d96faf146101915780633db9b42a1461019957806344e9d755146101c057806344f2ee6e146101d35780638dd598fb146101e857600080fd5b80631eebae801461011b578063254c7f1d1461013657806326cfc17b146101615780632c6b2f0c1461016a575b600080fd5b6101236102a3565b6040519081526020015b60405180910390f35b600654610149906001600160a01b031681565b6040516001600160a01b03909116815260200161012d565b61012360005481565b6101497f000000000000000000000000000000000000000000000000000000000000000081565b6101236102cb565b6101497f000000000000000000000000000000000000000000000000000000000000000081565b600554610149906001600160a01b031681565b6101e66101e1366004610f21565b61037c565b005b6101497f000000000000000000000000000000000000000000000000000000000000000081565b61012361021d366004610f21565b6104ae565b600454610149906001600160a01b031681565b6101e6610243366004610f51565b6105cf565b600354610149906001600160a01b031681565b6101236106f5565b61012360015481565b61012361070f565b6101497f000000000000000000000000000000000000000000000000000000000000000081565b61012361081f565b60006103e860026102b261070f565b6102bc9190610fc5565b6102c69190610fe4565b905090565b60007f00000000000000000000000000000000000000000000000000000000000000006001600160a01b03166318160ddd6040518163ffffffff1660e01b8152600401602060405180830381865afa15801561032b573d6000803e3d6000fd5b505050506040513d601f19601f8201168201806040525081019061034f9190611006565b606461035961070f565b60626000546103689190610fc5565b6103729190610fc5565b6102bc9190610fe4565b6003546001600160a01b031633146103c65760405162461bcd60e51b815260206004820152600960248201526809cdee840cccae8c6d60bb1b604482015260640160405180910390fd5b6003546040516340c10f1960e01b81526001600160a01b039182166004820152602481018390527f0000000000000000000000000000000000000000000000000000000000000000909116906340c10f1990604401600060405180830381600087803b15801561043557600080fd5b505af1158015610449573d6000803e3d6000fd5b50506003546001600160a01b031691507fb4c03061fb5b7fed76389d5af8f2e0ddb09f8c70d1333abbb62582835e10accb90508261048561070f565b61048d6102a3565b6040805193845260208401929092529082015260600160405180910390a250565b60007f00000000000000000000000000000000000000000000000000000000000000006001600160a01b03166318160ddd6040518163ffffffff1660e01b8152600401602060405180830381865afa15801561050e573d6000803e3d6000fd5b505050506040513d601f19601f820116820180604052508101906105329190611006565b827f00000000000000000000000000000000000000000000000000000000000000006001600160a01b03166318160ddd6040518163ffffffff1660e01b8152600401602060405180830381865afa158015610591573d6000803e3d6000fd5b505050506040513d601f19601f820116820180604052508101906105b59190611006565b6105bf9190610fc5565b6105c99190610fe4565b92915050565b6002546001600160a01b031633146105e657600080fd5b6040516340c10f1960e01b8152306004820152602481018590527f00000000000000000000000000000000000000000000000000000000000000006001600160a01b0316906340c10f1990604401600060405180830381600087803b15801561064e57600080fd5b505af1158015610662573d6000803e3d6000fd5b5050600380546001600160a01b0389166001600160a01b0319918216179091556002805490911690555062093a8090508061069d814261101f565b6106a79190610fe4565b6106b19190610fc5565b600155600480546001600160a01b039485166001600160a01b0319918216179091556005805493851693821693909317909255600680549190931691161790555050565b60006102c66107026102cb565b61070a6102a3565b610f08565b60007f00000000000000000000000000000000000000000000000000000000000000006001600160a01b03166318160ddd6040518163ffffffff1660e01b8152600401602060405180830381865afa15801561076f573d6000803e3d6000fd5b505050506040513d601f19601f820116820180604052508101906107939190611006565b7f00000000000000000000000000000000000000000000000000000000000000006001600160a01b03166318160ddd6040518163ffffffff1660e01b8152600401602060405180830381865afa1580156107f1573d6000803e3d6000fd5b505050506040513d601f19601f820116820180604052508101906108159190611006565b6102c69190611037565b60015460009061083262093a808261101f565b421015801561084a57506002546001600160a01b0316155b15610f035762093a8061085d8142610fe4565b6108679190610fc5565b600181905590506108766106f5565b600081815590610885906104ae565b90506000805482610896919061101f565b6040516370a0823160e01b81523060048201529091506000906001600160a01b037f000000000000000000000000000000000000000000000000000000000000000016906370a0823190602401602060405180830381865afa158015610900573d6000803e3d6000fd5b505050506040513d601f19601f820116820180604052508101906109249190611006565b9050818110156109c7576001600160a01b037f0000000000000000000000000000000000000000000000000000000000000000166340c10f19306109688486611037565b6040516001600160e01b031960e085901b1681526001600160a01b0390921660048301526024820152604401600060405180830381600087803b1580156109ae57600080fd5b505af11580156109c2573d6000803e3d6000fd5b505050505b60405163a9059cbb60e01b81526001600160a01b037f000000000000000000000000000000000000000000000000000000000000000081166004830152602482018590527f0000000000000000000000000000000000000000000000000000000000000000169063a9059cbb906044016020604051808303816000875af1158015610a56573d6000803e3d6000fd5b505050506040513d601f19601f82011682018060405250810190610a7a919061104e565b610a8357600080fd5b7f00000000000000000000000000000000000000000000000000000000000000006001600160a01b031663811a40fe6040518163ffffffff1660e01b8152600401600060405180830381600087803b158015610ade57600080fd5b505af1158015610af2573d6000803e3d6000fd5b505050507f00000000000000000000000000000000000000000000000000000000000000006001600160a01b031663b21ed5026040518163ffffffff1660e01b8152600401600060405180830381600087803b158015610b5157600080fd5b505af1158015610b65573d6000803e3d6000fd5b5050505060006064600054610b7a9190610fe4565b610b8590600a610fc5565b905060006064600054610b989190610fe4565b610ba3906028610fc5565b905060006064600054610bb69190610fe4565b610bc1906032610fc5565b6004805460405163095ea7b360e01b81526001600160a01b0391821692810192909252602482018690529192507f00000000000000000000000000000000000000000000000000000000000000009091169063095ea7b3906044016020604051808303816000875af1158015610c3b573d6000803e3d6000fd5b505050506040513d601f19601f82011682018060405250810190610c5f919061104e565b506004805460405163b66503cf60e01b81526001600160a01b037f00000000000000000000000000000000000000000000000000000000000000008116938201939093526024810186905291169063b66503cf90604401600060405180830381600087803b158015610cd057600080fd5b505af1158015610ce4573d6000803e3d6000fd5b505060055460405163095ea7b360e01b81526001600160a01b039182166004820152602481018690527f0000000000000000000000000000000000000000000000000000000000000000909116925063095ea7b391506044016020604051808303816000875af1158015610d5c573d6000803e3d6000fd5b505050506040513d601f19601f82011682018060405250810190610d80919061104e565b5060055460405163b66503cf60e01b81526001600160a01b037f000000000000000000000000000000000000000000000000000000000000000081166004830152602482018590529091169063b66503cf90604401600060405180830381600087803b158015610def57600080fd5b505af1158015610e03573d6000803e3d6000fd5b505060065460405163a9059cbb60e01b81526001600160a01b039182166004820152602481018590527f0000000000000000000000000000000000000000000000000000000000000000909116925063a9059cbb91506044016020604051808303816000875af1158015610e7b573d6000803e3d6000fd5b505050506040513d601f19601f82011682018060405250810190610e9f919061104e565b50336001600160a01b03167fb4c03061fb5b7fed76389d5af8f2e0ddb09f8c70d1333abbb62582835e10accb600054610ed661070f565b610ede6102a3565b6040805193845260208401929092529082015260600160405180910390a25050505050505b919050565b600081831015610f185781610f1a565b825b9392505050565b600060208284031215610f3357600080fd5b5035919050565b80356001600160a01b0381168114610f0357600080fd5b600080600080600060a08688031215610f6957600080fd5b610f7286610f3a565b945060208601359350610f8760408701610f3a565b9250610f9560608701610f3a565b9150610fa360808701610f3a565b90509295509295909350565b634e487b7160e01b600052601160045260246000fd5b6000816000190483118215151615610fdf57610fdf610faf565b500290565b60008261100157634e487b7160e01b600052601260045260246000fd5b500490565b60006020828403121561101857600080fd5b5051919050565b6000821982111561103257611032610faf565b500190565b60008282101561104957611049610faf565b500390565b60006020828403121561106057600080fd5b81518015158114610f1a57600080fdfea26469706673582212209e96faf791a98f24bb67d6e2194265f6ad40bc63e8de913f0a57de6fa152e62164736f6c634300080b0033",
          "opcodes": "PUSH2 0x100 PUSH1 0x40 MSTORE PUSH11 0x108B2A2C28029094000000 PUSH1 0x0 SSTORE CALLVALUE DUP1 ISZERO PUSH3 0x21 JUMPI PUSH1 0x0 DUP1 REVERT JUMPDEST POP PUSH1 0x40 MLOAD PUSH3 0x1384 CODESIZE SUB DUP1 PUSH3 0x1384 DUP4 CODECOPY DUP2 ADD PUSH1 0x40 DUP2 SWAP1 MSTORE PUSH3 0x44 SWAP2 PUSH3 0x141 JUMP JUMPDEST PUSH1 0x2 DUP1 SLOAD PUSH1 0x1 PUSH1 0x1 PUSH1 0xA0 SHL SUB NOT AND CALLER OR SWAP1 SSTORE PUSH1 0x40 DUP1 MLOAD PUSH4 0x7E062A35 PUSH1 0xE1 SHL DUP2 MSTORE SWAP1 MLOAD PUSH1 0x1 PUSH1 0x1 PUSH1 0xA0 SHL SUB DUP5 AND SWAP2 PUSH4 0xFC0C546A SWAP2 PUSH1 0x4 DUP1 DUP4 ADD SWAP3 PUSH1 0x20 SWAP3 SWAP2 SWAP1 DUP3 SWAP1 SUB ADD DUP2 DUP7 GAS STATICCALL ISZERO DUP1 ISZERO PUSH3 0x9C JUMPI RETURNDATASIZE PUSH1 0x0 DUP1 RETURNDATACOPY RETURNDATASIZE PUSH1 0x0 REVERT JUMPDEST POP POP POP POP PUSH1 0x40 MLOAD RETURNDATASIZE PUSH1 0x1F NOT PUSH1 0x1F DUP3 ADD AND DUP3 ADD DUP1 PUSH1 0x40 MSTORE POP DUP2 ADD SWAP1 PUSH3 0xC2 SWAP2 SWAP1 PUSH3 0x18B JUMP JUMPDEST PUSH1 0x1 PUSH1 0x1 PUSH1 0xA0 SHL SUB SWAP1 DUP2 AND PUSH1 0x80 MSTORE DUP4 DUP2 AND PUSH1 0xA0 MSTORE DUP3 DUP2 AND PUSH1 0xC0 MSTORE DUP2 AND PUSH1 0xE0 MSTORE PUSH3 0x93A80 DUP1 PUSH3 0xF3 DUP2 PUSH1 0x2 PUSH3 0x1C6 JUMP JUMPDEST PUSH3 0xFF SWAP1 TIMESTAMP PUSH3 0x1E8 JUMP JUMPDEST PUSH3 0x10B SWAP2 SWAP1 PUSH3 0x203 JUMP JUMPDEST PUSH3 0x117 SWAP2 SWAP1 PUSH3 0x1C6 JUMP JUMPDEST PUSH1 0x1 SSTORE POP PUSH3 0x226 SWAP2 POP POP JUMP JUMPDEST DUP1 MLOAD PUSH1 0x1 PUSH1 0x1 PUSH1 0xA0 SHL SUB DUP2 AND DUP2 EQ PUSH3 0x13C JUMPI PUSH1 0x0 DUP1 REVERT JUMPDEST SWAP2 SWAP1 POP JUMP JUMPDEST PUSH1 0x0 DUP1 PUSH1 0x0 PUSH1 0x60 DUP5 DUP7 SUB SLT ISZERO PUSH3 0x157 JUMPI PUSH1 0x0 DUP1 REVERT JUMPDEST PUSH3 0x162 DUP5 PUSH3 0x124 JUMP JUMPDEST SWAP3 POP PUSH3 0x172 PUSH1 0x20 DUP6 ADD PUSH3 0x124 JUMP JUMPDEST SWAP2 POP PUSH3 0x182 PUSH1 0x40 DUP6 ADD PUSH3 0x124 JUMP JUMPDEST SWAP1 POP SWAP3 POP SWAP3 POP SWAP3 JUMP JUMPDEST PUSH1 0x0 PUSH1 0x20 DUP3 DUP5 SUB SLT ISZERO PUSH3 0x19E JUMPI PUSH1 0x0 DUP1 REVERT JUMPDEST PUSH3 0x1A9 DUP3 PUSH3 0x124 JUMP JUMPDEST SWAP4 SWAP3 POP POP POP JUMP JUMPDEST PUSH4 0x4E487B71 PUSH1 0xE0 SHL PUSH1 0x0 MSTORE PUSH1 0x11 PUSH1 0x4 MSTORE PUSH1 0x24 PUSH1 0x0 REVERT JUMPDEST PUSH1 0x0 DUP2 PUSH1 0x0 NOT DIV DUP4 GT DUP3 ISZERO ISZERO AND ISZERO PUSH3 0x1E3 JUMPI PUSH3 0x1E3 PUSH3 0x1B0 JUMP JUMPDEST POP MUL SWAP1 JUMP JUMPDEST PUSH1 0x0 DUP3 NOT DUP3 GT ISZERO PUSH3 0x1FE JUMPI PUSH3 0x1FE PUSH3 0x1B0 JUMP JUMPDEST POP ADD SWAP1 JUMP JUMPDEST PUSH1 0x0 DUP3 PUSH3 0x221 JUMPI PUSH4 0x4E487B71 PUSH1 0xE0 SHL PUSH1 0x0 MSTORE PUSH1 0x12 PUSH1 0x4 MSTORE PUSH1 0x24 PUSH1 0x0 REVERT JUMPDEST POP DIV SWAP1 JUMP JUMPDEST PUSH1 0x80 MLOAD PUSH1 0xA0 MLOAD PUSH1 0xC0 MLOAD PUSH1 0xE0 MLOAD PUSH2 0x10A6 PUSH3 0x2DE PUSH1 0x0 CODECOPY PUSH1 0x0 DUP2 DUP2 PUSH2 0x16F ADD MSTORE DUP2 DUP2 PUSH2 0x9DE ADD MSTORE DUP2 DUP2 PUSH2 0xA85 ADD MSTORE PUSH2 0xAF8 ADD MSTORE PUSH1 0x0 DUP2 DUP2 PUSH2 0x1ED ADD MSTORE DUP2 DUP2 PUSH2 0x535 ADD MSTORE PUSH2 0x713 ADD MSTORE PUSH1 0x0 PUSH2 0x19E ADD MSTORE PUSH1 0x0 DUP2 DUP2 PUSH2 0x279 ADD MSTORE DUP2 DUP2 PUSH2 0x2CF ADD MSTORE DUP2 DUP2 PUSH2 0x3EF ADD MSTORE DUP2 DUP2 PUSH2 0x4B2 ADD MSTORE DUP2 DUP2 PUSH2 0x602 ADD MSTORE DUP2 DUP2 PUSH2 0x795 ADD MSTORE DUP2 DUP2 PUSH2 0x8B9 ADD MSTORE DUP2 DUP2 PUSH2 0x938 ADD MSTORE DUP2 DUP2 PUSH2 0xA0D ADD MSTORE DUP2 DUP2 PUSH2 0xBF0 ADD MSTORE DUP2 DUP2 PUSH2 0xC7B ADD MSTORE DUP2 DUP2 PUSH2 0xD0F ADD MSTORE DUP2 DUP2 PUSH2 0xD9B ADD MSTORE PUSH2 0xE2E ADD MSTORE PUSH2 0x10A6 PUSH1 0x0 RETURN INVALID PUSH1 0x80 PUSH1 0x40 MSTORE CALLVALUE DUP1 ISZERO PUSH2 0x10 JUMPI PUSH1 0x0 DUP1 REVERT JUMPDEST POP PUSH1 0x4 CALLDATASIZE LT PUSH2 0x116 JUMPI PUSH1 0x0 CALLDATALOAD PUSH1 0xE0 SHR DUP1 PUSH4 0x8E01FBFA GT PUSH2 0xA2 JUMPI DUP1 PUSH4 0xCFC6C8FF GT PUSH2 0x71 JUMPI DUP1 PUSH4 0xCFC6C8FF EQ PUSH2 0x25B JUMPI DUP1 PUSH4 0xD1399608 EQ PUSH2 0x263 JUMPI DUP1 PUSH4 0xE038C75A EQ PUSH2 0x26C JUMPI DUP1 PUSH4 0xECD0C0C3 EQ PUSH2 0x274 JUMPI DUP1 PUSH4 0xED29FC11 EQ PUSH2 0x29B JUMPI PUSH1 0x0 DUP1 REVERT JUMPDEST DUP1 PUSH4 0x8E01FBFA EQ PUSH2 0x20F JUMPI DUP1 PUSH4 0x9BAB5BAB EQ PUSH2 0x222 JUMPI DUP1 PUSH4 0xA01EF25F EQ PUSH2 0x235 JUMPI DUP1 PUSH4 0xA95C372D EQ PUSH2 0x248 JUMPI PUSH1 0x0 DUP1 REVERT JUMPDEST DUP1 PUSH4 0x36D96FAF GT PUSH2 0xE9 JUMPI DUP1 PUSH4 0x36D96FAF EQ PUSH2 0x191 JUMPI DUP1 PUSH4 0x3DB9B42A EQ PUSH2 0x199 JUMPI DUP1 PUSH4 0x44E9D755 EQ PUSH2 0x1C0 JUMPI DUP1 PUSH4 0x44F2EE6E EQ PUSH2 0x1D3 JUMPI DUP1 PUSH4 0x8DD598FB EQ PUSH2 0x1E8 JUMPI PUSH1 0x0 DUP1 REVERT JUMPDEST DUP1 PUSH4 0x1EEBAE80 EQ PUSH2 0x11B JUMPI DUP1 PUSH4 0x254C7F1D EQ PUSH2 0x136 JUMPI DUP1 PUSH4 0x26CFC17B EQ PUSH2 0x161 JUMPI DUP1 PUSH4 0x2C6B2F0C EQ PUSH2 0x16A JUMPI JUMPDEST PUSH1 0x0 DUP1 REVERT JUMPDEST PUSH2 0x123 PUSH2 0x2A3 JUMP JUMPDEST PUSH1 0x40 MLOAD SWAP1 DUP2 MSTORE PUSH1 0x20 ADD JUMPDEST PUSH1 0x40 MLOAD DUP1 SWAP2 SUB SWAP1 RETURN JUMPDEST PUSH1 0x6 SLOAD PUSH2 0x149 SWAP1 PUSH1 0x1 PUSH1 0x1 PUSH1 0xA0 SHL SUB AND DUP2 JUMP JUMPDEST PUSH1 0x40 MLOAD PUSH1 0x1 PUSH1 0x1 PUSH1 0xA0 SHL SUB SWAP1 SWAP2 AND DUP2 MSTORE PUSH1 0x20 ADD PUSH2 0x12D JUMP JUMPDEST PUSH2 0x123 PUSH1 0x0 SLOAD DUP2 JUMP JUMPDEST PUSH2 0x149 PUSH32 0x0 DUP2 JUMP JUMPDEST PUSH2 0x123 PUSH2 0x2CB JUMP JUMPDEST PUSH2 0x149 PUSH32 0x0 DUP2 JUMP JUMPDEST PUSH1 0x5 SLOAD PUSH2 0x149 SWAP1 PUSH1 0x1 PUSH1 0x1 PUSH1 0xA0 SHL SUB AND DUP2 JUMP JUMPDEST PUSH2 0x1E6 PUSH2 0x1E1 CALLDATASIZE PUSH1 0x4 PUSH2 0xF21 JUMP JUMPDEST PUSH2 0x37C JUMP JUMPDEST STOP JUMPDEST PUSH2 0x149 PUSH32 0x0 DUP2 JUMP JUMPDEST PUSH2 0x123 PUSH2 0x21D CALLDATASIZE PUSH1 0x4 PUSH2 0xF21 JUMP JUMPDEST PUSH2 0x4AE JUMP JUMPDEST PUSH1 0x4 SLOAD PUSH2 0x149 SWAP1 PUSH1 0x1 PUSH1 0x1 PUSH1 0xA0 SHL SUB AND DUP2 JUMP JUMPDEST PUSH2 0x1E6 PUSH2 0x243 CALLDATASIZE PUSH1 0x4 PUSH2 0xF51 JUMP JUMPDEST PUSH2 0x5CF JUMP JUMPDEST PUSH1 0x3 SLOAD PUSH2 0x149 SWAP1 PUSH1 0x1 PUSH1 0x1 PUSH1 0xA0 SHL SUB AND DUP2 JUMP JUMPDEST PUSH2 0x123 PUSH2 0x6F5 JUMP JUMPDEST PUSH2 0x123 PUSH1 0x1 SLOAD DUP2 JUMP JUMPDEST PUSH2 0x123 PUSH2 0x70F JUMP JUMPDEST PUSH2 0x149 PUSH32 0x0 DUP2 JUMP JUMPDEST PUSH2 0x123 PUSH2 0x81F JUMP JUMPDEST PUSH1 0x0 PUSH2 0x3E8 PUSH1 0x2 PUSH2 0x2B2 PUSH2 0x70F JUMP JUMPDEST PUSH2 0x2BC SWAP2 SWAP1 PUSH2 0xFC5 JUMP JUMPDEST PUSH2 0x2C6 SWAP2 SWAP1 PUSH2 0xFE4 JUMP JUMPDEST SWAP1 POP SWAP1 JUMP JUMPDEST PUSH1 0x0 PUSH32 0x0 PUSH1 0x1 PUSH1 0x1 PUSH1 0xA0 SHL SUB AND PUSH4 0x18160DDD PUSH1 0x40 MLOAD DUP2 PUSH4 0xFFFFFFFF AND PUSH1 0xE0 SHL DUP2 MSTORE PUSH1 0x4 ADD PUSH1 0x20 PUSH1 0x40 MLOAD DUP1 DUP4 SUB DUP2 DUP7 GAS STATICCALL ISZERO DUP1 ISZERO PUSH2 0x32B JUMPI RETURNDATASIZE PUSH1 0x0 DUP1 RETURNDATACOPY RETURNDATASIZE PUSH1 0x0 REVERT JUMPDEST POP POP POP POP PUSH1 0x40 MLOAD RETURNDATASIZE PUSH1 0x1F NOT PUSH1 0x1F DUP3 ADD AND DUP3 ADD DUP1 PUSH1 0x40 MSTORE POP DUP2 ADD SWAP1 PUSH2 0x34F SWAP2 SWAP1 PUSH2 0x1006 JUMP JUMPDEST PUSH1 0x64 PUSH2 0x359 PUSH2 0x70F JUMP JUMPDEST PUSH1 0x62 PUSH1 0x0 SLOAD PUSH2 0x368 SWAP2 SWAP1 PUSH2 0xFC5 JUMP JUMPDEST PUSH2 0x372 SWAP2 SWAP1 PUSH2 0xFC5 JUMP JUMPDEST PUSH2 0x2BC SWAP2 SWAP1 PUSH2 0xFE4 JUMP JUMPDEST PUSH1 0x3 SLOAD PUSH1 0x1 PUSH1 0x1 PUSH1 0xA0 SHL SUB AND CALLER EQ PUSH2 0x3C6 JUMPI PUSH1 0x40 MLOAD PUSH3 0x461BCD PUSH1 0xE5 SHL DUP2 MSTORE PUSH1 0x20 PUSH1 0x4 DUP3 ADD MSTORE PUSH1 0x9 PUSH1 0x24 DUP3 ADD MSTORE PUSH9 0x9CDEE840CCCAE8C6D PUSH1 0xBB SHL PUSH1 0x44 DUP3 ADD MSTORE PUSH1 0x64 ADD PUSH1 0x40 MLOAD DUP1 SWAP2 SUB SWAP1 REVERT JUMPDEST PUSH1 0x3 SLOAD PUSH1 0x40 MLOAD PUSH4 0x40C10F19 PUSH1 0xE0 SHL DUP2 MSTORE PUSH1 0x1 PUSH1 0x1 PUSH1 0xA0 SHL SUB SWAP2 DUP3 AND PUSH1 0x4 DUP3 ADD MSTORE PUSH1 0x24 DUP2 ADD DUP4 SWAP1 MSTORE PUSH32 0x0 SWAP1 SWAP2 AND SWAP1 PUSH4 0x40C10F19 SWAP1 PUSH1 0x44 ADD PUSH1 0x0 PUSH1 0x40 MLOAD DUP1 DUP4 SUB DUP2 PUSH1 0x0 DUP8 DUP1 EXTCODESIZE ISZERO DUP1 ISZERO PUSH2 0x435 JUMPI PUSH1 0x0 DUP1 REVERT JUMPDEST POP GAS CALL ISZERO DUP1 ISZERO PUSH2 0x449 JUMPI RETURNDATASIZE PUSH1 0x0 DUP1 RETURNDATACOPY RETURNDATASIZE PUSH1 0x0 REVERT JUMPDEST POP POP PUSH1 0x3 SLOAD PUSH1 0x1 PUSH1 0x1 PUSH1 0xA0 SHL SUB AND SWAP2 POP PUSH32 0xB4C03061FB5B7FED76389D5AF8F2E0DDB09F8C70D1333ABBB62582835E10ACCB SWAP1 POP DUP3 PUSH2 0x485 PUSH2 0x70F JUMP JUMPDEST PUSH2 0x48D PUSH2 0x2A3 JUMP JUMPDEST PUSH1 0x40 DUP1 MLOAD SWAP4 DUP5 MSTORE PUSH1 0x20 DUP5 ADD SWAP3 SWAP1 SWAP3 MSTORE SWAP1 DUP3 ADD MSTORE PUSH1 0x60 ADD PUSH1 0x40 MLOAD DUP1 SWAP2 SUB SWAP1 LOG2 POP JUMP JUMPDEST PUSH1 0x0 PUSH32 0x0 PUSH1 0x1 PUSH1 0x1 PUSH1 0xA0 SHL SUB AND PUSH4 0x18160DDD PUSH1 0x40 MLOAD DUP2 PUSH4 0xFFFFFFFF AND PUSH1 0xE0 SHL DUP2 MSTORE PUSH1 0x4 ADD PUSH1 0x20 PUSH1 0x40 MLOAD DUP1 DUP4 SUB DUP2 DUP7 GAS STATICCALL ISZERO DUP1 ISZERO PUSH2 0x50E JUMPI RETURNDATASIZE PUSH1 0x0 DUP1 RETURNDATACOPY RETURNDATASIZE PUSH1 0x0 REVERT JUMPDEST POP POP POP POP PUSH1 0x40 MLOAD RETURNDATASIZE PUSH1 0x1F NOT PUSH1 0x1F DUP3 ADD AND DUP3 ADD DUP1 PUSH1 0x40 MSTORE POP DUP2 ADD SWAP1 PUSH2 0x532 SWAP2 SWAP1 PUSH2 0x1006 JUMP JUMPDEST DUP3 PUSH32 0x0 PUSH1 0x1 PUSH1 0x1 PUSH1 0xA0 SHL SUB AND PUSH4 0x18160DDD PUSH1 0x40 MLOAD DUP2 PUSH4 0xFFFFFFFF AND PUSH1 0xE0 SHL DUP2 MSTORE PUSH1 0x4 ADD PUSH1 0x20 PUSH1 0x40 MLOAD DUP1 DUP4 SUB DUP2 DUP7 GAS STATICCALL ISZERO DUP1 ISZERO PUSH2 0x591 JUMPI RETURNDATASIZE PUSH1 0x0 DUP1 RETURNDATACOPY RETURNDATASIZE PUSH1 0x0 REVERT JUMPDEST POP POP POP POP PUSH1 0x40 MLOAD RETURNDATASIZE PUSH1 0x1F NOT PUSH1 0x1F DUP3 ADD AND DUP3 ADD DUP1 PUSH1 0x40 MSTORE POP DUP2 ADD SWAP1 PUSH2 0x5B5 SWAP2 SWAP1 PUSH2 0x1006 JUMP JUMPDEST PUSH2 0x5BF SWAP2 SWAP1 PUSH2 0xFC5 JUMP JUMPDEST PUSH2 0x5C9 SWAP2 SWAP1 PUSH2 0xFE4 JUMP JUMPDEST SWAP3 SWAP2 POP POP JUMP JUMPDEST PUSH1 0x2 SLOAD PUSH1 0x1 PUSH1 0x1 PUSH1 0xA0 SHL SUB AND CALLER EQ PUSH2 0x5E6 JUMPI PUSH1 0x0 DUP1 REVERT JUMPDEST PUSH1 0x40 MLOAD PUSH4 0x40C10F19 PUSH1 0xE0 SHL DUP2 MSTORE ADDRESS PUSH1 0x4 DUP3 ADD MSTORE PUSH1 0x24 DUP2 ADD DUP6 SWAP1 MSTORE PUSH32 0x0 PUSH1 0x1 PUSH1 0x1 PUSH1 0xA0 SHL SUB AND SWAP1 PUSH4 0x40C10F19 SWAP1 PUSH1 0x44 ADD PUSH1 0x0 PUSH1 0x40 MLOAD DUP1 DUP4 SUB DUP2 PUSH1 0x0 DUP8 DUP1 EXTCODESIZE ISZERO DUP1 ISZERO PUSH2 0x64E JUMPI PUSH1 0x0 DUP1 REVERT JUMPDEST POP GAS CALL ISZERO DUP1 ISZERO PUSH2 0x662 JUMPI RETURNDATASIZE PUSH1 0x0 DUP1 RETURNDATACOPY RETURNDATASIZE PUSH1 0x0 REVERT JUMPDEST POP POP PUSH1 0x3 DUP1 SLOAD PUSH1 0x1 PUSH1 0x1 PUSH1 0xA0 SHL SUB DUP10 AND PUSH1 0x1 PUSH1 0x1 PUSH1 0xA0 SHL SUB NOT SWAP2 DUP3 AND OR SWAP1 SWAP2 SSTORE PUSH1 0x2 DUP1 SLOAD SWAP1 SWAP2 AND SWAP1 SSTORE POP PUSH3 0x93A80 SWAP1 POP DUP1 PUSH2 0x69D DUP2 TIMESTAMP PUSH2 0x101F JUMP JUMPDEST PUSH2 0x6A7 SWAP2 SWAP1 PUSH2 0xFE4 JUMP JUMPDEST PUSH2 0x6B1 SWAP2 SWAP1 PUSH2 0xFC5 JUMP JUMPDEST PUSH1 0x1 SSTORE PUSH1 0x4 DUP1 SLOAD PUSH1 0x1 PUSH1 0x1 PUSH1 0xA0 SHL SUB SWAP5 DUP6 AND PUSH1 0x1 PUSH1 0x1 PUSH1 0xA0 SHL SUB NOT SWAP2 DUP3 AND OR SWAP1 SWAP2 SSTORE PUSH1 0x5 DUP1 SLOAD SWAP4 DUP6 AND SWAP4 DUP3 AND SWAP4 SWAP1 SWAP4 OR SWAP1 SWAP3 SSTORE PUSH1 0x6 DUP1 SLOAD SWAP2 SWAP1 SWAP4 AND SWAP2 AND OR SWAP1 SSTORE POP POP JUMP JUMPDEST PUSH1 0x0 PUSH2 0x2C6 PUSH2 0x702 PUSH2 0x2CB JUMP JUMPDEST PUSH2 0x70A PUSH2 0x2A3 JUMP JUMPDEST PUSH2 0xF08 JUMP JUMPDEST PUSH1 0x0 PUSH32 0x0 PUSH1 0x1 PUSH1 0x1 PUSH1 0xA0 SHL SUB AND PUSH4 0x18160DDD PUSH1 0x40 MLOAD DUP2 PUSH4 0xFFFFFFFF AND PUSH1 0xE0 SHL DUP2 MSTORE PUSH1 0x4 ADD PUSH1 0x20 PUSH1 0x40 MLOAD DUP1 DUP4 SUB DUP2 DUP7 GAS STATICCALL ISZERO DUP1 ISZERO PUSH2 0x76F JUMPI RETURNDATASIZE PUSH1 0x0 DUP1 RETURNDATACOPY RETURNDATASIZE PUSH1 0x0 REVERT JUMPDEST POP POP POP POP PUSH1 0x40 MLOAD RETURNDATASIZE PUSH1 0x1F NOT PUSH1 0x1F DUP3 ADD AND DUP3 ADD DUP1 PUSH1 0x40 MSTORE POP DUP2 ADD SWAP1 PUSH2 0x793 SWAP2 SWAP1 PUSH2 0x1006 JUMP JUMPDEST PUSH32 0x0 PUSH1 0x1 PUSH1 0x1 PUSH1 0xA0 SHL SUB AND PUSH4 0x18160DDD PUSH1 0x40 MLOAD DUP2 PUSH4 0xFFFFFFFF AND PUSH1 0xE0 SHL DUP2 MSTORE PUSH1 0x4 ADD PUSH1 0x20 PUSH1 0x40 MLOAD DUP1 DUP4 SUB DUP2 DUP7 GAS STATICCALL ISZERO DUP1 ISZERO PUSH2 0x7F1 JUMPI RETURNDATASIZE PUSH1 0x0 DUP1 RETURNDATACOPY RETURNDATASIZE PUSH1 0x0 REVERT JUMPDEST POP POP POP POP PUSH1 0x40 MLOAD RETURNDATASIZE PUSH1 0x1F NOT PUSH1 0x1F DUP3 ADD AND DUP3 ADD DUP1 PUSH1 0x40 MSTORE POP DUP2 ADD SWAP1 PUSH2 0x815 SWAP2 SWAP1 PUSH2 0x1006 JUMP JUMPDEST PUSH2 0x2C6 SWAP2 SWAP1 PUSH2 0x1037 JUMP JUMPDEST PUSH1 0x1 SLOAD PUSH1 0x0 SWAP1 PUSH2 0x832 PUSH3 0x93A80 DUP3 PUSH2 0x101F JUMP JUMPDEST TIMESTAMP LT ISZERO DUP1 ISZERO PUSH2 0x84A JUMPI POP PUSH1 0x2 SLOAD PUSH1 0x1 PUSH1 0x1 PUSH1 0xA0 SHL SUB AND ISZERO JUMPDEST ISZERO PUSH2 0xF03 JUMPI PUSH3 0x93A80 PUSH2 0x85D DUP2 TIMESTAMP PUSH2 0xFE4 JUMP JUMPDEST PUSH2 0x867 SWAP2 SWAP1 PUSH2 0xFC5 JUMP JUMPDEST PUSH1 0x1 DUP2 SWAP1 SSTORE SWAP1 POP PUSH2 0x876 PUSH2 0x6F5 JUMP JUMPDEST PUSH1 0x0 DUP2 DUP2 SSTORE SWAP1 PUSH2 0x885 SWAP1 PUSH2 0x4AE JUMP JUMPDEST SWAP1 POP PUSH1 0x0 DUP1 SLOAD DUP3 PUSH2 0x896 SWAP2 SWAP1 PUSH2 0x101F JUMP JUMPDEST PUSH1 0x40 MLOAD PUSH4 0x70A08231 PUSH1 0xE0 SHL DUP2 MSTORE ADDRESS PUSH1 0x4 DUP3 ADD MSTORE SWAP1 SWAP2 POP PUSH1 0x0 SWAP1 PUSH1 0x1 PUSH1 0x1 PUSH1 0xA0 SHL SUB PUSH32 0x0 AND SWAP1 PUSH4 0x70A08231 SWAP1 PUSH1 0x24 ADD PUSH1 0x20 PUSH1 0x40 MLOAD DUP1 DUP4 SUB DUP2 DUP7 GAS STATICCALL ISZERO DUP1 ISZERO PUSH2 0x900 JUMPI RETURNDATASIZE PUSH1 0x0 DUP1 RETURNDATACOPY RETURNDATASIZE PUSH1 0x0 REVERT JUMPDEST POP POP POP POP PUSH1 0x40 MLOAD RETURNDATASIZE PUSH1 0x1F NOT PUSH1 0x1F DUP3 ADD AND DUP3 ADD DUP1 PUSH1 0x40 MSTORE POP DUP2 ADD SWAP1 PUSH2 0x924 SWAP2 SWAP1 PUSH2 0x1006 JUMP JUMPDEST SWAP1 POP DUP2 DUP2 LT ISZERO PUSH2 0x9C7 JUMPI PUSH1 0x1 PUSH1 0x1 PUSH1 0xA0 SHL SUB PUSH32 0x0 AND PUSH4 0x40C10F19 ADDRESS PUSH2 0x968 DUP5 DUP7 PUSH2 0x1037 JUMP JUMPDEST PUSH1 0x40 MLOAD PUSH1 0x1 PUSH1 0x1 PUSH1 0xE0 SHL SUB NOT PUSH1 0xE0 DUP6 SWAP1 SHL AND DUP2 MSTORE PUSH1 0x1 PUSH1 0x1 PUSH1 0xA0 SHL SUB SWAP1 SWAP3 AND PUSH1 0x4 DUP4 ADD MSTORE PUSH1 0x24 DUP3 ADD MSTORE PUSH1 0x44 ADD PUSH1 0x0 PUSH1 0x40 MLOAD DUP1 DUP4 SUB DUP2 PUSH1 0x0 DUP8 DUP1 EXTCODESIZE ISZERO DUP1 ISZERO PUSH2 0x9AE JUMPI PUSH1 0x0 DUP1 REVERT JUMPDEST POP GAS CALL ISZERO DUP1 ISZERO PUSH2 0x9C2 JUMPI RETURNDATASIZE PUSH1 0x0 DUP1 RETURNDATACOPY RETURNDATASIZE PUSH1 0x0 REVERT JUMPDEST POP POP POP POP JUMPDEST PUSH1 0x40 MLOAD PUSH4 0xA9059CBB PUSH1 0xE0 SHL DUP2 MSTORE PUSH1 0x1 PUSH1 0x1 PUSH1 0xA0 SHL SUB PUSH32 0x0 DUP2 AND PUSH1 0x4 DUP4 ADD MSTORE PUSH1 0x24 DUP3 ADD DUP6 SWAP1 MSTORE PUSH32 0x0 AND SWAP1 PUSH4 0xA9059CBB SWAP1 PUSH1 0x44 ADD PUSH1 0x20 PUSH1 0x40 MLOAD DUP1 DUP4 SUB DUP2 PUSH1 0x0 DUP8 GAS CALL ISZERO DUP1 ISZERO PUSH2 0xA56 JUMPI RETURNDATASIZE PUSH1 0x0 DUP1 RETURNDATACOPY RETURNDATASIZE PUSH1 0x0 REVERT JUMPDEST POP POP POP POP PUSH1 0x40 MLOAD RETURNDATASIZE PUSH1 0x1F NOT PUSH1 0x1F DUP3 ADD AND DUP3 ADD DUP1 PUSH1 0x40 MSTORE POP DUP2 ADD SWAP1 PUSH2 0xA7A SWAP2 SWAP1 PUSH2 0x104E JUMP JUMPDEST PUSH2 0xA83 JUMPI PUSH1 0x0 DUP1 REVERT JUMPDEST PUSH32 0x0 PUSH1 0x1 PUSH1 0x1 PUSH1 0xA0 SHL SUB AND PUSH4 0x811A40FE PUSH1 0x40 MLOAD DUP2 PUSH4 0xFFFFFFFF AND PUSH1 0xE0 SHL DUP2 MSTORE PUSH1 0x4 ADD PUSH1 0x0 PUSH1 0x40 MLOAD DUP1 DUP4 SUB DUP2 PUSH1 0x0 DUP8 DUP1 EXTCODESIZE ISZERO DUP1 ISZERO PUSH2 0xADE JUMPI PUSH1 0x0 DUP1 REVERT JUMPDEST POP GAS CALL ISZERO DUP1 ISZERO PUSH2 0xAF2 JUMPI RETURNDATASIZE PUSH1 0x0 DUP1 RETURNDATACOPY RETURNDATASIZE PUSH1 0x0 REVERT JUMPDEST POP POP POP POP PUSH32 0x0 PUSH1 0x1 PUSH1 0x1 PUSH1 0xA0 SHL SUB AND PUSH4 0xB21ED502 PUSH1 0x40 MLOAD DUP2 PUSH4 0xFFFFFFFF AND PUSH1 0xE0 SHL DUP2 MSTORE PUSH1 0x4 ADD PUSH1 0x0 PUSH1 0x40 MLOAD DUP1 DUP4 SUB DUP2 PUSH1 0x0 DUP8 DUP1 EXTCODESIZE ISZERO DUP1 ISZERO PUSH2 0xB51 JUMPI PUSH1 0x0 DUP1 REVERT JUMPDEST POP GAS CALL ISZERO DUP1 ISZERO PUSH2 0xB65 JUMPI RETURNDATASIZE PUSH1 0x0 DUP1 RETURNDATACOPY RETURNDATASIZE PUSH1 0x0 REVERT JUMPDEST POP POP POP POP PUSH1 0x0 PUSH1 0x64 PUSH1 0x0 SLOAD PUSH2 0xB7A SWAP2 SWAP1 PUSH2 0xFE4 JUMP JUMPDEST PUSH2 0xB85 SWAP1 PUSH1 0xA PUSH2 0xFC5 JUMP JUMPDEST SWAP1 POP PUSH1 0x0 PUSH1 0x64 PUSH1 0x0 SLOAD PUSH2 0xB98 SWAP2 SWAP1 PUSH2 0xFE4 JUMP JUMPDEST PUSH2 0xBA3 SWAP1 PUSH1 0x28 PUSH2 0xFC5 JUMP JUMPDEST SWAP1 POP PUSH1 0x0 PUSH1 0x64 PUSH1 0x0 SLOAD PUSH2 0xBB6 SWAP2 SWAP1 PUSH2 0xFE4 JUMP JUMPDEST PUSH2 0xBC1 SWAP1 PUSH1 0x32 PUSH2 0xFC5 JUMP JUMPDEST PUSH1 0x4 DUP1 SLOAD PUSH1 0x40 MLOAD PUSH4 0x95EA7B3 PUSH1 0xE0 SHL DUP2 MSTORE PUSH1 0x1 PUSH1 0x1 PUSH1 0xA0 SHL SUB SWAP2 DUP3 AND SWAP3 DUP2 ADD SWAP3 SWAP1 SWAP3 MSTORE PUSH1 0x24 DUP3 ADD DUP7 SWAP1 MSTORE SWAP2 SWAP3 POP PUSH32 0x0 SWAP1 SWAP2 AND SWAP1 PUSH4 0x95EA7B3 SWAP1 PUSH1 0x44 ADD PUSH1 0x20 PUSH1 0x40 MLOAD DUP1 DUP4 SUB DUP2 PUSH1 0x0 DUP8 GAS CALL ISZERO DUP1 ISZERO PUSH2 0xC3B JUMPI RETURNDATASIZE PUSH1 0x0 DUP1 RETURNDATACOPY RETURNDATASIZE PUSH1 0x0 REVERT JUMPDEST POP POP POP POP PUSH1 0x40 MLOAD RETURNDATASIZE PUSH1 0x1F NOT PUSH1 0x1F DUP3 ADD AND DUP3 ADD DUP1 PUSH1 0x40 MSTORE POP DUP2 ADD SWAP1 PUSH2 0xC5F SWAP2 SWAP1 PUSH2 0x104E JUMP JUMPDEST POP PUSH1 0x4 DUP1 SLOAD PUSH1 0x40 MLOAD PUSH4 0xB66503CF PUSH1 0xE0 SHL DUP2 MSTORE PUSH1 0x1 PUSH1 0x1 PUSH1 0xA0 SHL SUB PUSH32 0x0 DUP2 AND SWAP4 DUP3 ADD SWAP4 SWAP1 SWAP4 MSTORE PUSH1 0x24 DUP2 ADD DUP7 SWAP1 MSTORE SWAP2 AND SWAP1 PUSH4 0xB66503CF SWAP1 PUSH1 0x44 ADD PUSH1 0x0 PUSH1 0x40 MLOAD DUP1 DUP4 SUB DUP2 PUSH1 0x0 DUP8 DUP1 EXTCODESIZE ISZERO DUP1 ISZERO PUSH2 0xCD0 JUMPI PUSH1 0x0 DUP1 REVERT JUMPDEST POP GAS CALL ISZERO DUP1 ISZERO PUSH2 0xCE4 JUMPI RETURNDATASIZE PUSH1 0x0 DUP1 RETURNDATACOPY RETURNDATASIZE PUSH1 0x0 REVERT JUMPDEST POP POP PUSH1 0x5 SLOAD PUSH1 0x40 MLOAD PUSH4 0x95EA7B3 PUSH1 0xE0 SHL DUP2 MSTORE PUSH1 0x1 PUSH1 0x1 PUSH1 0xA0 SHL SUB SWAP2 DUP3 AND PUSH1 0x4 DUP3 ADD MSTORE PUSH1 0x24 DUP2 ADD DUP7 SWAP1 MSTORE PUSH32 0x0 SWAP1 SWAP2 AND SWAP3 POP PUSH4 0x95EA7B3 SWAP2 POP PUSH1 0x44 ADD PUSH1 0x20 PUSH1 0x40 MLOAD DUP1 DUP4 SUB DUP2 PUSH1 0x0 DUP8 GAS CALL ISZERO DUP1 ISZERO PUSH2 0xD5C JUMPI RETURNDATASIZE PUSH1 0x0 DUP1 RETURNDATACOPY RETURNDATASIZE PUSH1 0x0 REVERT JUMPDEST POP POP POP POP PUSH1 0x40 MLOAD RETURNDATASIZE PUSH1 0x1F NOT PUSH1 0x1F DUP3 ADD AND DUP3 ADD DUP1 PUSH1 0x40 MSTORE POP DUP2 ADD SWAP1 PUSH2 0xD80 SWAP2 SWAP1 PUSH2 0x104E JUMP JUMPDEST POP PUSH1 0x5 SLOAD PUSH1 0x40 MLOAD PUSH4 0xB66503CF PUSH1 0xE0 SHL DUP2 MSTORE PUSH1 0x1 PUSH1 0x1 PUSH1 0xA0 SHL SUB PUSH32 0x0 DUP2 AND PUSH1 0x4 DUP4 ADD MSTORE PUSH1 0x24 DUP3 ADD DUP6 SWAP1 MSTORE SWAP1 SWAP2 AND SWAP1 PUSH4 0xB66503CF SWAP1 PUSH1 0x44 ADD PUSH1 0x0 PUSH1 0x40 MLOAD DUP1 DUP4 SUB DUP2 PUSH1 0x0 DUP8 DUP1 EXTCODESIZE ISZERO DUP1 ISZERO PUSH2 0xDEF JUMPI PUSH1 0x0 DUP1 REVERT JUMPDEST POP GAS CALL ISZERO DUP1 ISZERO PUSH2 0xE03 JUMPI RETURNDATASIZE PUSH1 0x0 DUP1 RETURNDATACOPY RETURNDATASIZE PUSH1 0x0 REVERT JUMPDEST POP POP PUSH1 0x6 SLOAD PUSH1 0x40 MLOAD PUSH4 0xA9059CBB PUSH1 0xE0 SHL DUP2 MSTORE PUSH1 0x1 PUSH1 0x1 PUSH1 0xA0 SHL SUB SWAP2 DUP3 AND PUSH1 0x4 DUP3 ADD MSTORE PUSH1 0x24 DUP2 ADD DUP6 SWAP1 MSTORE PUSH32 0x0 SWAP1 SWAP2 AND SWAP3 POP PUSH4 0xA9059CBB SWAP2 POP PUSH1 0x44 ADD PUSH1 0x20 PUSH1 0x40 MLOAD DUP1 DUP4 SUB DUP2 PUSH1 0x0 DUP8 GAS CALL ISZERO DUP1 ISZERO PUSH2 0xE7B JUMPI RETURNDATASIZE PUSH1 0x0 DUP1 RETURNDATACOPY RETURNDATASIZE PUSH1 0x0 REVERT JUMPDEST POP POP POP POP PUSH1 0x40 MLOAD RETURNDATASIZE PUSH1 0x1F NOT PUSH1 0x1F DUP3 ADD AND DUP3 ADD DUP1 PUSH1 0x40 MSTORE POP DUP2 ADD SWAP1 PUSH2 0xE9F SWAP2 SWAP1 PUSH2 0x104E JUMP JUMPDEST POP CALLER PUSH1 0x1 PUSH1 0x1 PUSH1 0xA0 SHL SUB AND PUSH32 0xB4C03061FB5B7FED76389D5AF8F2E0DDB09F8C70D1333ABBB62582835E10ACCB PUSH1 0x0 SLOAD PUSH2 0xED6 PUSH2 0x70F JUMP JUMPDEST PUSH2 0xEDE PUSH2 0x2A3 JUMP JUMPDEST PUSH1 0x40 DUP1 MLOAD SWAP4 DUP5 MSTORE PUSH1 0x20 DUP5 ADD SWAP3 SWAP1 SWAP3 MSTORE SWAP1 DUP3 ADD MSTORE PUSH1 0x60 ADD PUSH1 0x40 MLOAD DUP1 SWAP2 SUB SWAP1 LOG2 POP POP POP POP POP POP JUMPDEST SWAP2 SWAP1 POP JUMP JUMPDEST PUSH1 0x0 DUP2 DUP4 LT ISZERO PUSH2 0xF18 JUMPI DUP2 PUSH2 0xF1A JUMP JUMPDEST DUP3 JUMPDEST SWAP4 SWAP3 POP POP POP JUMP JUMPDEST PUSH1 0x0 PUSH1 0x20 DUP3 DUP5 SUB SLT ISZERO PUSH2 0xF33 JUMPI PUSH1 0x0 DUP1 REVERT JUMPDEST POP CALLDATALOAD SWAP2 SWAP1 POP JUMP JUMPDEST DUP1 CALLDATALOAD PUSH1 0x1 PUSH1 0x1 PUSH1 0xA0 SHL SUB DUP2 AND DUP2 EQ PUSH2 0xF03 JUMPI PUSH1 0x0 DUP1 REVERT JUMPDEST PUSH1 0x0 DUP1 PUSH1 0x0 DUP1 PUSH1 0x0 PUSH1 0xA0 DUP7 DUP9 SUB SLT ISZERO PUSH2 0xF69 JUMPI PUSH1 0x0 DUP1 REVERT JUMPDEST PUSH2 0xF72 DUP7 PUSH2 0xF3A JUMP JUMPDEST SWAP5 POP PUSH1 0x20 DUP7 ADD CALLDATALOAD SWAP4 POP PUSH2 0xF87 PUSH1 0x40 DUP8 ADD PUSH2 0xF3A JUMP JUMPDEST SWAP3 POP PUSH2 0xF95 PUSH1 0x60 DUP8 ADD PUSH2 0xF3A JUMP JUMPDEST SWAP2 POP PUSH2 0xFA3 PUSH1 0x80 DUP8 ADD PUSH2 0xF3A JUMP JUMPDEST SWAP1 POP SWAP3 SWAP6 POP SWAP3 SWAP6 SWAP1 SWAP4 POP JUMP JUMPDEST PUSH4 0x4E487B71 PUSH1 0xE0 SHL PUSH1 0x0 MSTORE PUSH1 0x11 PUSH1 0x4 MSTORE PUSH1 0x24 PUSH1 0x0 REVERT JUMPDEST PUSH1 0x0 DUP2 PUSH1 0x0 NOT DIV DUP4 GT DUP3 ISZERO ISZERO AND ISZERO PUSH2 0xFDF JUMPI PUSH2 0xFDF PUSH2 0xFAF JUMP JUMPDEST POP MUL SWAP1 JUMP JUMPDEST PUSH1 0x0 DUP3 PUSH2 0x1001 JUMPI PUSH4 0x4E487B71 PUSH1 0xE0 SHL PUSH1 0x0 MSTORE PUSH1 0x12 PUSH1 0x4 MSTORE PUSH1 0x24 PUSH1 0x0 REVERT JUMPDEST POP DIV SWAP1 JUMP JUMPDEST PUSH1 0x0 PUSH1 0x20 DUP3 DUP5 SUB SLT ISZERO PUSH2 0x1018 JUMPI PUSH1 0x0 DUP1 REVERT JUMPDEST POP MLOAD SWAP2 SWAP1 POP JUMP JUMPDEST PUSH1 0x0 DUP3 NOT DUP3 GT ISZERO PUSH2 0x1032 JUMPI PUSH2 0x1032 PUSH2 0xFAF JUMP JUMPDEST POP ADD SWAP1 JUMP JUMPDEST PUSH1 0x0 DUP3 DUP3 LT ISZERO PUSH2 0x1049 JUMPI PUSH2 0x1049 PUSH2 0xFAF JUMP JUMPDEST POP SUB SWAP1 JUMP JUMPDEST PUSH1 0x0 PUSH1 0x20 DUP3 DUP5 SUB SLT ISZERO PUSH2 0x1060 JUMPI PUSH1 0x0 DUP1 REVERT JUMPDEST DUP2 MLOAD DUP1 ISZERO ISZERO DUP2 EQ PUSH2 0xF1A JUMPI PUSH1 0x0 DUP1 REVERT INVALID LOG2 PUSH5 0x6970667358 0x22 SLT KECCAK256 SWAP15 SWAP7 STATICCALL 0xF7 SWAP2 0xA9 DUP16 0x24 0xBB PUSH8 0xD6E2194265F6AD40 0xBC PUSH4 0xE8DE913F EXP JUMPI 0xDE PUSH16 0xA152E62164736F6C634300080B003300 "
        },
        "methodIdentifiers": {
          "USDC_USDT_gauge()": "9bab5bab",
          "USDC_yMeta_gauge()": "44e9d755",
          "_token()": "ecd0c0c3",
          "_ve()": "8dd598fb",
          "_ve_dist()": "2c6b2f0c",
          "_voter()": "3db9b42a",
          "active_period()": "d1399608",
          "calculate_emission()": "36d96faf",
          "calculate_growth(uint256)": "8e01fbfa",
          "circulating_emission()": "1eebae80",
          "circulating_supply()": "e038c75a",
          "fetch()": "a95c372d",
          "initialize(address,uint256,address,address,address)": "a01ef25f",
          "mintForFetch(uint256)": "44f2ee6e",
          "update_period()": "ed29fc11",
          "votersLock()": "254c7f1d",
          "weekly()": "26cfc17b",
          "weekly_emission()": "cfc6c8ff"
        }
      }
    }
  }
}