{
  "contracts/BaseV1-core.sol": {
    "BaseV1Pair": {
      "abi": [
        {
          "inputs": [],
          "stateMutability": "nonpayable",
          "type": "constructor"
        },
        {
          "anonymous": false,
          "inputs": [
            {
              "indexed": true,
              "internalType": "address",
              "name": "owner",
              "type": "address"
            },
            {
              "indexed": true,
              "internalType": "address",
              "name": "spender",
              "type": "address"
            },
            {
              "indexed": false,
              "internalType": "uint256",
              "name": "amount",
              "type": "uint256"
            }
          ],
          "name": "Approval",
          "type": "event"
        },
        {
          "anonymous": false,
          "inputs": [
            {
              "indexed": true,
              "internalType": "address",
              "name": "sender",
              "type": "address"
            },
            {
              "indexed": false,
              "internalType": "uint256",
              "name": "amount0",
              "type": "uint256"
            },
            {
              "indexed": false,
              "internalType": "uint256",
              "name": "amount1",
              "type": "uint256"
            },
            {
              "indexed": true,
              "internalType": "address",
              "name": "to",
              "type": "address"
            }
          ],
          "name": "Burn",
          "type": "event"
        },
        {
          "anonymous": false,
          "inputs": [
            {
              "indexed": true,
              "internalType": "address",
              "name": "sender",
              "type": "address"
            },
            {
              "indexed": true,
              "internalType": "address",
              "name": "recipient",
              "type": "address"
            },
            {
              "indexed": false,
              "internalType": "uint256",
              "name": "amount0",
              "type": "uint256"
            },
            {
              "indexed": false,
              "internalType": "uint256",
              "name": "amount1",
              "type": "uint256"
            }
          ],
          "name": "Claim",
          "type": "event"
        },
        {
          "anonymous": false,
          "inputs": [
            {
              "indexed": true,
              "internalType": "address",
              "name": "sender",
              "type": "address"
            },
            {
              "indexed": false,
              "internalType": "uint256",
              "name": "amount0",
              "type": "uint256"
            },
            {
              "indexed": false,
              "internalType": "uint256",
              "name": "amount1",
              "type": "uint256"
            }
          ],
          "name": "Fees",
          "type": "event"
        },
        {
          "anonymous": false,
          "inputs": [
            {
              "indexed": true,
              "internalType": "address",
              "name": "sender",
              "type": "address"
            },
            {
              "indexed": false,
              "internalType": "uint256",
              "name": "amount0",
              "type": "uint256"
            },
            {
              "indexed": false,
              "internalType": "uint256",
              "name": "amount1",
              "type": "uint256"
            }
          ],
          "name": "Mint",
          "type": "event"
        },
        {
          "anonymous": false,
          "inputs": [
            {
              "indexed": true,
              "internalType": "address",
              "name": "sender",
              "type": "address"
            },
            {
              "indexed": false,
              "internalType": "uint256",
              "name": "amount0In",
              "type": "uint256"
            },
            {
              "indexed": false,
              "internalType": "uint256",
              "name": "amount1In",
              "type": "uint256"
            },
            {
              "indexed": false,
              "internalType": "uint256",
              "name": "amount0Out",
              "type": "uint256"
            },
            {
              "indexed": false,
              "internalType": "uint256",
              "name": "amount1Out",
              "type": "uint256"
            },
            {
              "indexed": true,
              "internalType": "address",
              "name": "to",
              "type": "address"
            }
          ],
          "name": "Swap",
          "type": "event"
        },
        {
          "anonymous": false,
          "inputs": [
            {
              "indexed": false,
              "internalType": "uint256",
              "name": "reserve0",
              "type": "uint256"
            },
            {
              "indexed": false,
              "internalType": "uint256",
              "name": "reserve1",
              "type": "uint256"
            }
          ],
          "name": "Sync",
          "type": "event"
        },
        {
          "anonymous": false,
          "inputs": [
            {
              "indexed": true,
              "internalType": "address",
              "name": "from",
              "type": "address"
            },
            {
              "indexed": true,
              "internalType": "address",
              "name": "to",
              "type": "address"
            },
            {
              "indexed": false,
              "internalType": "uint256",
              "name": "amount",
              "type": "uint256"
            }
          ],
          "name": "Transfer",
          "type": "event"
        },
        {
          "inputs": [
            {
              "internalType": "address",
              "name": "",
              "type": "address"
            },
            {
              "internalType": "address",
              "name": "",
              "type": "address"
            }
          ],
          "name": "allowance",
          "outputs": [
            {
              "internalType": "uint256",
              "name": "",
              "type": "uint256"
            }
          ],
          "stateMutability": "view",
          "type": "function"
        },
        {
          "inputs": [
            {
              "internalType": "address",
              "name": "spender",
              "type": "address"
            },
            {
              "internalType": "uint256",
              "name": "amount",
              "type": "uint256"
            }
          ],
          "name": "approve",
          "outputs": [
            {
              "internalType": "bool",
              "name": "",
              "type": "bool"
            }
          ],
          "stateMutability": "nonpayable",
          "type": "function"
        },
        {
          "inputs": [
            {
              "internalType": "address",
              "name": "",
              "type": "address"
            }
          ],
          "name": "balanceOf",
          "outputs": [
            {
              "internalType": "uint256",
              "name": "",
              "type": "uint256"
            }
          ],
          "stateMutability": "view",
          "type": "function"
        },
        {
          "inputs": [],
          "name": "blockTimestampLast",
          "outputs": [
            {
              "internalType": "uint256",
              "name": "",
              "type": "uint256"
            }
          ],
          "stateMutability": "view",
          "type": "function"
        },
        {
          "inputs": [
            {
              "internalType": "address",
              "name": "to",
              "type": "address"
            }
          ],
          "name": "burn",
          "outputs": [
            {
              "internalType": "uint256",
              "name": "amount0",
              "type": "uint256"
            },
            {
              "internalType": "uint256",
              "name": "amount1",
              "type": "uint256"
            }
          ],
          "stateMutability": "nonpayable",
          "type": "function"
        },
        {
          "inputs": [],
          "name": "claimFees",
          "outputs": [
            {
              "internalType": "uint256",
              "name": "claimed0",
              "type": "uint256"
            },
            {
              "internalType": "uint256",
              "name": "claimed1",
              "type": "uint256"
            }
          ],
          "stateMutability": "nonpayable",
          "type": "function"
        },
        {
          "inputs": [
            {
              "internalType": "address",
              "name": "",
              "type": "address"
            }
          ],
          "name": "claimable0",
          "outputs": [
            {
              "internalType": "uint256",
              "name": "",
              "type": "uint256"
            }
          ],
          "stateMutability": "view",
          "type": "function"
        },
        {
          "inputs": [
            {
              "internalType": "address",
              "name": "",
              "type": "address"
            }
          ],
          "name": "claimable1",
          "outputs": [
            {
              "internalType": "uint256",
              "name": "",
              "type": "uint256"
            }
          ],
          "stateMutability": "view",
          "type": "function"
        },
        {
          "inputs": [
            {
              "internalType": "address",
              "name": "tokenIn",
              "type": "address"
            },
            {
              "internalType": "uint256",
              "name": "amountIn",
              "type": "uint256"
            }
          ],
          "name": "current",
          "outputs": [
            {
              "internalType": "uint256",
              "name": "amountOut",
              "type": "uint256"
            }
          ],
          "stateMutability": "view",
          "type": "function"
        },
        {
          "inputs": [],
          "name": "currentCumulativePrices",
          "outputs": [
            {
              "internalType": "uint256",
              "name": "reserve0Cumulative",
              "type": "uint256"
            },
            {
              "internalType": "uint256",
              "name": "reserve1Cumulative",
              "type": "uint256"
            },
            {
              "internalType": "uint256",
              "name": "blockTimestamp",
              "type": "uint256"
            }
          ],
          "stateMutability": "view",
          "type": "function"
        },
        {
          "inputs": [],
          "name": "decimals",
          "outputs": [
            {
              "internalType": "uint8",
              "name": "",
              "type": "uint8"
            }
          ],
          "stateMutability": "view",
          "type": "function"
        },
        {
          "inputs": [],
          "name": "fees",
          "outputs": [
            {
              "internalType": "address",
              "name": "",
              "type": "address"
            }
          ],
          "stateMutability": "view",
          "type": "function"
        },
        {
          "inputs": [
            {
              "internalType": "uint256",
              "name": "amountIn",
              "type": "uint256"
            },
            {
              "internalType": "address",
              "name": "tokenIn",
              "type": "address"
            }
          ],
          "name": "getAmountOut",
          "outputs": [
            {
              "internalType": "uint256",
              "name": "",
              "type": "uint256"
            }
          ],
          "stateMutability": "view",
          "type": "function"
        },
        {
          "inputs": [],
          "name": "getReserves",
          "outputs": [
            {
              "internalType": "uint256",
              "name": "_reserve0",
              "type": "uint256"
            },
            {
              "internalType": "uint256",
              "name": "_reserve1",
              "type": "uint256"
            },
            {
              "internalType": "uint256",
              "name": "_blockTimestampLast",
              "type": "uint256"
            }
          ],
          "stateMutability": "view",
          "type": "function"
        },
        {
          "inputs": [],
          "name": "index0",
          "outputs": [
            {
              "internalType": "uint256",
              "name": "",
              "type": "uint256"
            }
          ],
          "stateMutability": "view",
          "type": "function"
        },
        {
          "inputs": [],
          "name": "index1",
          "outputs": [
            {
              "internalType": "uint256",
              "name": "",
              "type": "uint256"
            }
          ],
          "stateMutability": "view",
          "type": "function"
        },
        {
          "inputs": [],
          "name": "lastObservation",
          "outputs": [
            {
              "components": [
                {
                  "internalType": "uint256",
                  "name": "timestamp",
                  "type": "uint256"
                },
                {
                  "internalType": "uint256",
                  "name": "reserve0Cumulative",
                  "type": "uint256"
                },
                {
                  "internalType": "uint256",
                  "name": "reserve1Cumulative",
                  "type": "uint256"
                }
              ],
              "internalType": "struct BaseV1Pair.Observation",
              "name": "",
              "type": "tuple"
            }
          ],
          "stateMutability": "view",
          "type": "function"
        },
        {
          "inputs": [],
          "name": "metadata",
          "outputs": [
            {
              "internalType": "uint256",
              "name": "dec0",
              "type": "uint256"
            },
            {
              "internalType": "uint256",
              "name": "dec1",
              "type": "uint256"
            },
            {
              "internalType": "uint256",
              "name": "r0",
              "type": "uint256"
            },
            {
              "internalType": "uint256",
              "name": "r1",
              "type": "uint256"
            },
            {
              "internalType": "bool",
              "name": "st",
              "type": "bool"
            },
            {
              "internalType": "address",
              "name": "t0",
              "type": "address"
            },
            {
              "internalType": "address",
              "name": "t1",
              "type": "address"
            }
          ],
          "stateMutability": "view",
          "type": "function"
        },
        {
          "inputs": [
            {
              "internalType": "address",
              "name": "to",
              "type": "address"
            }
          ],
          "name": "mint",
          "outputs": [
            {
              "internalType": "uint256",
              "name": "liquidity",
              "type": "uint256"
            }
          ],
          "stateMutability": "nonpayable",
          "type": "function"
        },
        {
          "inputs": [],
          "name": "name",
          "outputs": [
            {
              "internalType": "string",
              "name": "",
              "type": "string"
            }
          ],
          "stateMutability": "view",
          "type": "function"
        },
        {
          "inputs": [
            {
              "internalType": "address",
              "name": "",
              "type": "address"
            }
          ],
          "name": "nonces",
          "outputs": [
            {
              "internalType": "uint256",
              "name": "",
              "type": "uint256"
            }
          ],
          "stateMutability": "view",
          "type": "function"
        },
        {
          "inputs": [],
          "name": "observationLength",
          "outputs": [
            {
              "internalType": "uint256",
              "name": "",
              "type": "uint256"
            }
          ],
          "stateMutability": "view",
          "type": "function"
        },
        {
          "inputs": [
            {
              "internalType": "uint256",
              "name": "",
              "type": "uint256"
            }
          ],
          "name": "observations",
          "outputs": [
            {
              "internalType": "uint256",
              "name": "timestamp",
              "type": "uint256"
            },
            {
              "internalType": "uint256",
              "name": "reserve0Cumulative",
              "type": "uint256"
            },
            {
              "internalType": "uint256",
              "name": "reserve1Cumulative",
              "type": "uint256"
            }
          ],
          "stateMutability": "view",
          "type": "function"
        },
        {
          "inputs": [
            {
              "internalType": "address",
              "name": "owner",
              "type": "address"
            },
            {
              "internalType": "address",
              "name": "spender",
              "type": "address"
            },
            {
              "internalType": "uint256",
              "name": "value",
              "type": "uint256"
            },
            {
              "internalType": "uint256",
              "name": "deadline",
              "type": "uint256"
            },
            {
              "internalType": "uint8",
              "name": "v",
              "type": "uint8"
            },
            {
              "internalType": "bytes32",
              "name": "r",
              "type": "bytes32"
            },
            {
              "internalType": "bytes32",
              "name": "s",
              "type": "bytes32"
            }
          ],
          "name": "permit",
          "outputs": [],
          "stateMutability": "nonpayable",
          "type": "function"
        },
        {
          "inputs": [
            {
              "internalType": "address",
              "name": "tokenIn",
              "type": "address"
            },
            {
              "internalType": "uint256",
              "name": "amountIn",
              "type": "uint256"
            },
            {
              "internalType": "uint256",
              "name": "points",
              "type": "uint256"
            }
          ],
          "name": "prices",
          "outputs": [
            {
              "internalType": "uint256[]",
              "name": "",
              "type": "uint256[]"
            }
          ],
          "stateMutability": "view",
          "type": "function"
        },
        {
          "inputs": [
            {
              "internalType": "address",
              "name": "tokenIn",
              "type": "address"
            },
            {
              "internalType": "uint256",
              "name": "amountIn",
              "type": "uint256"
            },
            {
              "internalType": "uint256",
              "name": "granularity",
              "type": "uint256"
            }
          ],
          "name": "quote",
          "outputs": [
            {
              "internalType": "uint256",
              "name": "amountOut",
              "type": "uint256"
            }
          ],
          "stateMutability": "view",
          "type": "function"
        },
        {
          "inputs": [],
          "name": "reserve0",
          "outputs": [
            {
              "internalType": "uint256",
              "name": "",
              "type": "uint256"
            }
          ],
          "stateMutability": "view",
          "type": "function"
        },
        {
          "inputs": [],
          "name": "reserve0CumulativeLast",
          "outputs": [
            {
              "internalType": "uint256",
              "name": "",
              "type": "uint256"
            }
          ],
          "stateMutability": "view",
          "type": "function"
        },
        {
          "inputs": [],
          "name": "reserve1",
          "outputs": [
            {
              "internalType": "uint256",
              "name": "",
              "type": "uint256"
            }
          ],
          "stateMutability": "view",
          "type": "function"
        },
        {
          "inputs": [],
          "name": "reserve1CumulativeLast",
          "outputs": [
            {
              "internalType": "uint256",
              "name": "",
              "type": "uint256"
            }
          ],
          "stateMutability": "view",
          "type": "function"
        },
        {
          "inputs": [
            {
              "internalType": "address",
              "name": "tokenIn",
              "type": "address"
            },
            {
              "internalType": "uint256",
              "name": "amountIn",
              "type": "uint256"
            },
            {
              "internalType": "uint256",
              "name": "points",
              "type": "uint256"
            },
            {
              "internalType": "uint256",
              "name": "window",
              "type": "uint256"
            }
          ],
          "name": "sample",
          "outputs": [
            {
              "internalType": "uint256[]",
              "name": "",
              "type": "uint256[]"
            }
          ],
          "stateMutability": "view",
          "type": "function"
        },
        {
          "inputs": [
            {
              "internalType": "address",
              "name": "to",
              "type": "address"
            }
          ],
          "name": "skim",
          "outputs": [],
          "stateMutability": "nonpayable",
          "type": "function"
        },
        {
          "inputs": [],
          "name": "stable",
          "outputs": [
            {
              "internalType": "bool",
              "name": "",
              "type": "bool"
            }
          ],
          "stateMutability": "view",
          "type": "function"
        },
        {
          "inputs": [
            {
              "internalType": "address",
              "name": "",
              "type": "address"
            }
          ],
          "name": "supplyIndex0",
          "outputs": [
            {
              "internalType": "uint256",
              "name": "",
              "type": "uint256"
            }
          ],
          "stateMutability": "view",
          "type": "function"
        },
        {
          "inputs": [
            {
              "internalType": "address",
              "name": "",
              "type": "address"
            }
          ],
          "name": "supplyIndex1",
          "outputs": [
            {
              "internalType": "uint256",
              "name": "",
              "type": "uint256"
            }
          ],
          "stateMutability": "view",
          "type": "function"
        },
        {
          "inputs": [
            {
              "internalType": "uint256",
              "name": "amount0Out",
              "type": "uint256"
            },
            {
              "internalType": "uint256",
              "name": "amount1Out",
              "type": "uint256"
            },
            {
              "internalType": "address",
              "name": "to",
              "type": "address"
            },
            {
              "internalType": "bytes",
              "name": "data",
              "type": "bytes"
            }
          ],
          "name": "swap",
          "outputs": [],
          "stateMutability": "nonpayable",
          "type": "function"
        },
        {
          "inputs": [],
          "name": "symbol",
          "outputs": [
            {
              "internalType": "string",
              "name": "",
              "type": "string"
            }
          ],
          "stateMutability": "view",
          "type": "function"
        },
        {
          "inputs": [],
          "name": "sync",
          "outputs": [],
          "stateMutability": "nonpayable",
          "type": "function"
        },
        {
          "inputs": [],
          "name": "token0",
          "outputs": [
            {
              "internalType": "address",
              "name": "",
              "type": "address"
            }
          ],
          "stateMutability": "view",
          "type": "function"
        },
        {
          "inputs": [],
          "name": "token1",
          "outputs": [
            {
              "internalType": "address",
              "name": "",
              "type": "address"
            }
          ],
          "stateMutability": "view",
          "type": "function"
        },
        {
          "inputs": [],
          "name": "tokens",
          "outputs": [
            {
              "internalType": "address",
              "name": "",
              "type": "address"
            },
            {
              "internalType": "address",
              "name": "",
              "type": "address"
            }
          ],
          "stateMutability": "view",
          "type": "function"
        },
        {
          "inputs": [],
          "name": "totalSupply",
          "outputs": [
            {
              "internalType": "uint256",
              "name": "",
              "type": "uint256"
            }
          ],
          "stateMutability": "view",
          "type": "function"
        },
        {
          "inputs": [
            {
              "internalType": "address",
              "name": "dst",
              "type": "address"
            },
            {
              "internalType": "uint256",
              "name": "amount",
              "type": "uint256"
            }
          ],
          "name": "transfer",
          "outputs": [
            {
              "internalType": "bool",
              "name": "",
              "type": "bool"
            }
          ],
          "stateMutability": "nonpayable",
          "type": "function"
        },
        {
          "inputs": [
            {
              "internalType": "address",
              "name": "src",
              "type": "address"
            },
            {
              "internalType": "address",
              "name": "dst",
              "type": "address"
            },
            {
              "internalType": "uint256",
              "name": "amount",
              "type": "uint256"
            }
          ],
          "name": "transferFrom",
          "outputs": [
            {
              "internalType": "bool",
              "name": "",
              "type": "bool"
            }
          ],
          "stateMutability": "nonpayable",
          "type": "function"
        }
      ],
      "evm": {
        "bytecode": {
          "linkReferences": {},
          "object": "61016060405260006002556000600d556000600e5560016013553480156200002657600080fd5b50336001600160a01b0316610100816001600160a01b0316815250506000806000336001600160a01b031663eb13c4cf6040518163ffffffff1660e01b8152600401606060405180830381865afa15801562000086573d6000803e3d6000fd5b505050506040513d601f19601f82011682018060405250810190620000ac9190620007c8565b8015156080526001600160a01b0380831660c052831660a052604051929550909350915083908390620000df90620006f7565b6001600160a01b03928316815291166020820152604001604051809103906000f08015801562000113573d6000803e3d6000fd5b506001600160a01b031660e05280156200034557826001600160a01b03166395d89b416040518163ffffffff1660e01b8152600401600060405180830381865afa15801562000166573d6000803e3d6000fd5b505050506040513d6000823e601f3d908101601f1916820160405262000190919081019062000863565b826001600160a01b03166395d89b416040518163ffffffff1660e01b8152600401600060405180830381865afa158015620001cf573d6000803e3d6000fd5b505050506040513d6000823e601f3d908101601f19168201604052620001f9919081019062000863565b6040516020016200020c9291906200091b565b604051602081830303815290604052600090805190602001906200023292919062000705565b50826001600160a01b03166395d89b416040518163ffffffff1660e01b8152600401600060405180830381865afa15801562000272573d6000803e3d6000fd5b505050506040513d6000823e601f3d908101601f191682016040526200029c919081019062000863565b826001600160a01b03166395d89b416040518163ffffffff1660e01b8152600401600060405180830381865afa158015620002db573d6000803e3d6000fd5b505050506040513d6000823e601f3d908101601f1916820160405262000305919081019062000863565b6040516020016200031892919062000976565b604051602081830303815290604052600190805190602001906200033e92919062000705565b506200055e565b826001600160a01b03166395d89b416040518163ffffffff1660e01b8152600401600060405180830381865afa15801562000384573d6000803e3d6000fd5b505050506040513d6000823e601f3d908101601f19168201604052620003ae919081019062000863565b826001600160a01b03166395d89b416040518163ffffffff1660e01b8152600401600060405180830381865afa158015620003ed573d6000803e3d6000fd5b505050506040513d6000823e601f3d908101601f1916820160405262000417919081019062000863565b6040516020016200042a929190620009c7565b604051602081830303815290604052600090805190602001906200045092919062000705565b50826001600160a01b03166395d89b416040518163ffffffff1660e01b8152600401600060405180830381865afa15801562000490573d6000803e3d6000fd5b505050506040513d6000823e601f3d908101601f19168201604052620004ba919081019062000863565b826001600160a01b03166395d89b416040518163ffffffff1660e01b8152600401600060405180830381865afa158015620004f9573d6000803e3d6000fd5b505050506040513d6000823e601f3d908101601f1916820160405262000523919081019062000863565b6040516020016200053692919062000a24565b604051602081830303815290604052600190805190602001906200055c92919062000705565b505b826001600160a01b031663313ce5676040518163ffffffff1660e01b8152600401602060405180830381865afa1580156200059d573d6000803e3d6000fd5b505050506040513d601f19601f82011682018060405250810190620005c3919062000a46565b620005d090600a62000b87565b6101208181525050816001600160a01b031663313ce5676040518163ffffffff1660e01b8152600401602060405180830381865afa15801562000617573d6000803e3d6000fd5b505050506040513d601f19601f820116820180604052508101906200063d919062000a46565b6200064a90600a62000b87565b6101405250506040805160608101825242815260006020820181815292820181815260078054600181018255925291517fa66cc928b5edb82af9bd49922954155ab7b0942694bea4ce44661d9a8736c68860039092029182015591517fa66cc928b5edb82af9bd49922954155ab7b0942694bea4ce44661d9a8736c689830155517fa66cc928b5edb82af9bd49922954155ab7b0942694bea4ce44661d9a8736c68a909101555062000bd5565b610370806200410c83390190565b828054620007139062000b98565b90600052602060002090601f01602090048101928262000737576000855562000782565b82601f106200075257805160ff191683800117855562000782565b8280016001018555821562000782579182015b828111156200078257825182559160200191906001019062000765565b506200079092915062000794565b5090565b5b8082111562000790576000815560010162000795565b80516001600160a01b0381168114620007c357600080fd5b919050565b600080600060608486031215620007de57600080fd5b620007e984620007ab565b9250620007f960208501620007ab565b9150604084015180151581146200080f57600080fd5b809150509250925092565b634e487b7160e01b600052604160045260246000fd5b60005b838110156200084d57818101518382015260200162000833565b838111156200085d576000848401525b50505050565b6000602082840312156200087657600080fd5b81516001600160401b03808211156200088e57600080fd5b818401915084601f830112620008a357600080fd5b815181811115620008b857620008b86200081a565b604051601f8201601f19908116603f01168101908382118183101715620008e357620008e36200081a565b81604052828152876020848701011115620008fd57600080fd5b6200091083602083016020880162000830565b979650505050505050565b6e029ba30b13632ab189020a6a690169608d1b8152600083516200094781600f85016020880162000830565b602f60f81b600f9184019182015283516200096a81601084016020880162000830565b01601001949350505050565b6473414d4d2d60d81b8152600083516200099881600585016020880162000830565b602f60f81b6005918401918201528351620009bb81600684016020880162000830565b01600601949350505050565b7002b37b630ba34b632ab189020a6a690169607d1b815260008351620009f581601185016020880162000830565b602f60f81b601191840191820152835162000a1881601284016020880162000830565b01601201949350505050565b6476414d4d2d60d81b8152600083516200099881600585016020880162000830565b60006020828403121562000a5957600080fd5b815160ff8116811462000a6b57600080fd5b9392505050565b634e487b7160e01b600052601160045260246000fd5b600181815b8085111562000ac957816000190482111562000aad5762000aad62000a72565b8085161562000abb57918102915b93841c939080029062000a8d565b509250929050565b60008262000ae25750600162000b81565b8162000af15750600062000b81565b816001811462000b0a576002811462000b155762000b35565b600191505062000b81565b60ff84111562000b295762000b2962000a72565b50506001821b62000b81565b5060208310610133831016604e8410600b841016171562000b5a575081810a62000b81565b62000b66838362000a88565b806000190482111562000b7d5762000b7d62000a72565b0290505b92915050565b600062000a6b60ff84168362000ad1565b600181811c9082168062000bad57607f821691505b6020821081141562000bcf57634e487b7160e01b600052602260045260246000fd5b50919050565b60805160a05160c05160e0516101005161012051610140516133e062000d2c6000396000818161043101528181612308015281816125f2015281816126b401526127bf01526000818161040e015281816122c7015281816125b3015281816126f60152612799015260006107b80152600081816105f201528181611b150152818161212e01526121fb0152600081816104bb0152818161064701528181610714015281816108f301528181610b9b015281816113ae01528181611595015281816119bc01528181611f9401526121da0152600081816102f90152818161049301528181610622015281816108d201528181610b7a01528181611318015281816115730152818161199a01528181611f0c0152818161210d015281816126340152818161267b015281816127600152612803015260008181610397015281816104630152818161229f015261257f01526133e06000f3fe608060405234801561001057600080fd5b50600436106102745760003560e01c80637ecebe0011610151578063bda39cad116100c3578063d294f09311610087578063d294f09314610736578063d505accf1461073e578063dd62ed3e14610751578063ebeb31db1461077c578063f140a35a14610784578063fff6cae91461079757600080fd5b8063bda39cad146106eb578063bf944dbc146106f4578063c245febc146106fd578063c5700a0214610706578063d21220a71461070f57600080fd5b80639d63848a116101155780639d63848a146106145780639e8cc04b146106725780639f767c8814610685578063a1ac4d13146106a5578063a9059cbb146106c5578063bc25cf77146106d857600080fd5b80637ecebe001461057357806389afcb44146105935780638a7b8cf2146105bb57806395d89b41146105e55780639af1d35a146105ed57600080fd5b8063252c09d7116101ea5780634d5a9f8a116101ae5780634d5a9f8a146104f1578063517b3f82146105115780635881c475146105245780635a76f25e146105375780636a6278421461054057806370a082311461055357600080fd5b8063252c09d7146103cc578063313ce567146103df57806332c0defd146103f9578063392f37e914610402578063443cb4bc146104e857600080fd5b806313345fe11161023c57806313345fe11461033357806318160ddd146103535780631df8c7171461036a578063205aabf11461037257806322be3de11461039257806323b872dd146103b957600080fd5b8063022c0d9f1461027957806306fdde031461028e5780630902f1ac146102ac578063095ea7b3146102d15780630dfe1681146102f4575b600080fd5b61028c610287366004612e5f565b61079f565b005b610296610d7e565b6040516102a39190612f23565b60405180910390f35b600854600954600a545b604080519384526020840192909252908201526060016102a3565b6102e46102df366004612f56565b610e0c565b60405190151581526020016102a3565b61031b7f000000000000000000000000000000000000000000000000000000000000000081565b6040516001600160a01b0390911681526020016102a3565b610346610341366004612f80565b610e79565b6040516102a39190612fb9565b61035c60025481565b6040519081526020016102a3565b6102b6611081565b61035c610380366004612ffd565b60106020526000908152604090205481565b6102e47f000000000000000000000000000000000000000000000000000000000000000081565b6102e46103c7366004613018565b6110f0565b6102b66103da366004613054565b6111b9565b6103e7601281565b60405160ff90911681526020016102a3565b61035c600d5481565b600854600954604080517f000000000000000000000000000000000000000000000000000000000000000081527f000000000000000000000000000000000000000000000000000000000000000060208201529081019290925260608201527f0000000000000000000000000000000000000000000000000000000000000000151560808201526001600160a01b037f0000000000000000000000000000000000000000000000000000000000000000811660a08301527f00000000000000000000000000000000000000000000000000000000000000001660c082015260e0016102a3565b61035c60085481565b61035c6104ff366004612ffd565b60116020526000908152604090205481565b61035c61051f366004612f56565b6111ec565b61034661053236600461306d565b6112d5565b61035c60095481565b61035c61054e366004612ffd565b6112e4565b61035c610561366004612ffd565b60046020526000908152604090205481565b61035c610581366004612ffd565b60066020526000908152604090205481565b6105a66105a1366004612ffd565b611541565b604080519283526020830191909152016102a3565b6105c361185e565b60408051825181526020808401519082015291810151908201526060016102a3565b6102966118de565b61031b7f000000000000000000000000000000000000000000000000000000000000000081565b604080516001600160a01b037f0000000000000000000000000000000000000000000000000000000000000000811682527f0000000000000000000000000000000000000000000000000000000000000000166020820152016102a3565b61035c61068036600461306d565b6118eb565b61035c610693366004612ffd565b600f6020526000908152604090205481565b61035c6106b3366004612ffd565b60126020526000908152604090205481565b6102e46106d3366004612f56565b611958565b61028c6106e6366004612ffd565b61196e565b61035c600e5481565b61035c600b5481565b61035c600c5481565b61035c600a5481565b61031b7f000000000000000000000000000000000000000000000000000000000000000081565b6105a6611a8c565b61028c61074c3660046130a0565b611bb3565b61035c61075f366004613113565b600360209081526000928352604080842090915290825290205481565b60075461035c565b61035c610792366004613146565b611ea8565b61028c611edf565b6013546001146107ae57600080fd5b60026013819055507f00000000000000000000000000000000000000000000000000000000000000006001600160a01b031663b187bd266040518163ffffffff1660e01b8152600401602060405180830381865afa158015610814573d6000803e3d6000fd5b505050506040513d601f19601f820116820180604052508101906108389190613169565b1561084257600080fd5b60008511806108515750600084115b6108885760405162461bcd60e51b8152602060048201526003602482015262494f4160e81b60448201526064015b60405180910390fd5b600854600954818710801561089c57508086105b6108cd5760405162461bcd60e51b8152602060048201526002602482015261125360f21b604482015260640161087f565b6000807f00000000000000000000000000000000000000000000000000000000000000007f00000000000000000000000000000000000000000000000000000000000000006001600160a01b03898116908316148015906109405750806001600160a01b0316896001600160a01b031614155b6109715760405162461bcd60e51b8152602060048201526002602482015261125560f21b604482015260640161087f565b8a1561098257610982828a8d612019565b891561099357610993818a8c612019565b8615610a0057604051639a7bff7960e01b81526001600160a01b038a1690639a7bff79906109cd9033908f908f908e908e9060040161318b565b600060405180830381600087803b1580156109e757600080fd5b505af11580156109fb573d6000803e3d6000fd5b505050505b6040516370a0823160e01b81523060048201526001600160a01b038316906370a0823190602401602060405180830381865afa158015610a44573d6000803e3d6000fd5b505050506040513d601f19601f82011682018060405250810190610a6891906131d7565b6040516370a0823160e01b81523060048201529094506001600160a01b038216906370a0823190602401602060405180830381865afa158015610aaf573d6000803e3d6000fd5b505050506040513d601f19601f82011682018060405250810190610ad391906131d7565b9250505060008985610ae59190613206565b8311610af2576000610b06565b610afc8a86613206565b610b069084613206565b90506000610b148a86613206565b8311610b21576000610b35565b610b2b8a86613206565b610b359084613206565b90506000821180610b465750600081115b610b785760405162461bcd60e51b815260206004820152600360248201526249494160e81b604482015260640161087f565b7f00000000000000000000000000000000000000000000000000000000000000007f00000000000000000000000000000000000000000000000000000000000000008315610bd457610bd4610bcf6127108661321d565b612108565b8215610bee57610bee610be96127108561321d565b6121d5565b6040516370a0823160e01b81523060048201526001600160a01b038316906370a0823190602401602060405180830381865afa158015610c32573d6000803e3d6000fd5b505050506040513d601f19601f82011682018060405250810190610c5691906131d7565b6040516370a0823160e01b81523060048201529096506001600160a01b038216906370a0823190602401602060405180830381865afa158015610c9d573d6000803e3d6000fd5b505050506040513d601f19601f82011682018060405250810190610cc191906131d7565b9450610ccd888861229b565b610cd7878761229b565b1015610d095760405162461bcd60e51b81526020600482015260016024820152604b60f81b604482015260640161087f565b5050610d17848488886123e7565b60408051838152602081018390529081018c9052606081018b90526001600160a01b038a169033907fd78ad95fa46c994b6551d0da85fc275fe613ce37657fb8d5e3d130840159d8229060800160405180910390a350506001601355505050505050505050565b60008054610d8b9061323f565b80601f0160208091040260200160405190810160405280929190818152602001828054610db79061323f565b8015610e045780601f10610dd957610100808354040283529160200191610e04565b820191906000526020600020905b815481529060010190602001808311610de757829003601f168201915b505050505081565b3360008181526003602090815260408083206001600160a01b038716808552925280832085905551919290917f8c5be1e5ebec7d5bd14f71427d1e84f3dd0314c0f7b2291e5b200ac8c7c3b92590610e679086815260200190565b60405180910390a35060015b92915050565b606060008367ffffffffffffffff811115610e9657610e96613274565b604051908082528060200260200182016040528015610ebf578160200160208202803683370190505b50600754909150600090610ed590600190613206565b90506000610ee3858761328a565b610eed9083613206565b90506000805b8383101561107157610f0587846132a9565b9150600060078481548110610f1c57610f1c6132c1565b90600052602060002090600302016000015460078481548110610f4157610f416132c1565b906000526020600020906003020160000154610f5d9190613206565b905060008160078681548110610f7557610f756132c1565b90600052602060002090600302016001015460078681548110610f9a57610f9a6132c1565b906000526020600020906003020160010154610fb69190613206565b610fc0919061321d565b905060008260078781548110610fd857610fd86132c1565b90600052602060002090600302016002015460078781548110610ffd57610ffd6132c1565b9060005260206000209060030201600201546110199190613206565b611023919061321d565b90506110318c8e848461257b565b888581518110611043576110436132c1565b60209081029190910101526110598460016132a9565b9350505050868361106a91906132a9565b9250610ef3565b509293505050505b949350505050565b600b54600c54426000808061109f600854600954600a549192909190565b9250925092508381146110e85760006110b88286613206565b90506110c4818561328a565b6110ce90886132a9565b96506110da818461328a565b6110e490876132a9565b9550505b505050909192565b6001600160a01b03831660008181526003602090815260408083203380855292528220549192909190821480159061112a57506000198114155b156111a057600061113b8583613206565b6001600160a01b038881166000818152600360209081526040808320948916808452948252918290208590559051848152939450919290917f8c5be1e5ebec7d5bd14f71427d1e84f3dd0314c0f7b2291e5b200ac8c7c3b925910160405180910390a3505b6111ab868686612870565b6001925050505b9392505050565b600781815481106111c957600080fd5b600091825260209091206003909102018054600182015460029092015490925083565b6000806111f761185e565b9050600080611204611081565b508451919350915042141561126d576007805461122390600290613206565b81548110611233576112336132c1565b9060005260206000209060030201604051806060016040529081600082015481526020016001820154815260200160028201548152505092505b825160009061127c9042613206565b90506000818560200151856112919190613206565b61129b919061321d565b90506000828660400151856112b09190613206565b6112ba919061321d565b90506112c8888a848461257b565b9998505050505050505050565b60606110798484846001610e79565b60006013546001146112f557600080fd5b60026013556008546009546040516370a0823160e01b81523060048201526000907f00000000000000000000000000000000000000000000000000000000000000006001600160a01b0316906370a0823190602401602060405180830381865afa158015611367573d6000803e3d6000fd5b505050506040513d601f19601f8201168201806040525081019061138b91906131d7565b6040516370a0823160e01b81523060048201529091506000906001600160a01b037f000000000000000000000000000000000000000000000000000000000000000016906370a0823190602401602060405180830381865afa1580156113f5573d6000803e3d6000fd5b505050506040513d601f19601f8201168201806040525081019061141991906131d7565b905060006114278584613206565b905060006114358584613206565b60025490915080611473576103e8611455611450848661328a565b612930565b61145f9190613206565b975061146e60006103e86129a0565b6114a8565b6114a587611481838661328a565b61148b919061321d565b87611496848661328a565b6114a0919061321d565b612a33565b97505b600088116114de5760405162461bcd60e51b8152602060048201526003602482015262494c4d60e81b604482015260640161087f565b6114e889896129a0565b6114f4858589896123e7565b604080518481526020810184905233917f4c209b5fc8ad50758f13e2e1088ba56a560dff690a1c6fef26394f4c03821c4f910160405180910390a250506001601355509395945050505050565b60008060135460011461155357600080fd5b60026013556008546009546040516370a0823160e01b81523060048201527f0000000000000000000000000000000000000000000000000000000000000000907f0000000000000000000000000000000000000000000000000000000000000000906000906001600160a01b038416906370a0823190602401602060405180830381865afa1580156115e9573d6000803e3d6000fd5b505050506040513d601f19601f8201168201806040525081019061160d91906131d7565b6040516370a0823160e01b81523060048201529091506000906001600160a01b038416906370a0823190602401602060405180830381865afa158015611657573d6000803e3d6000fd5b505050506040513d601f19601f8201168201806040525081019061167b91906131d7565b30600090815260046020526040902054600254919250908061169d858461328a565b6116a7919061321d565b9950806116b4848461328a565b6116be919061321d565b985060008a1180156116d05750600089115b6117025760405162461bcd60e51b815260206004820152600360248201526224a62160e91b604482015260640161087f565b61170c3083612a49565b611717868c8c612019565b611722858c8b612019565b6040516370a0823160e01b81523060048201526001600160a01b038716906370a0823190602401602060405180830381865afa158015611766573d6000803e3d6000fd5b505050506040513d601f19601f8201168201806040525081019061178a91906131d7565b6040516370a0823160e01b81523060048201529094506001600160a01b038616906370a0823190602401602060405180830381865afa1580156117d1573d6000803e3d6000fd5b505050506040513d601f19601f820116820180604052508101906117f591906131d7565b925061180384848a8a6123e7565b604080518b8152602081018b90526001600160a01b038d169133917fdccd412f0b1252819cb1fd330b93224ca42612892bb3f4f789976e6d81936496910160405180910390a350505050505050506001601381905550915091565b61188260405180606001604052806000815260200160008152602001600081525090565b6007805461189290600190613206565b815481106118a2576118a26132c1565b90600052602060002090600302016040518060600160405290816000820154815260200160018201548152602001600282015481525050905090565b60018054610d8b9061323f565b6000806118fb8585856001610e79565b90506000805b82518110156119435782818151811061191c5761191c6132c1565b60200260200101518261192f91906132a9565b91508061193b816132d7565b915050611901565b5061194e848261321d565b9695505050505050565b6000611965338484612870565b50600192915050565b60135460011461197d57600080fd5b60026013556008546040516370a0823160e01b81523060048201527f0000000000000000000000000000000000000000000000000000000000000000917f000000000000000000000000000000000000000000000000000000000000000091611a4a9184918691906001600160a01b038416906370a08231906024015b602060405180830381865afa158015611a17573d6000803e3d6000fd5b505050506040513d601f19601f82011682018060405250810190611a3b91906131d7565b611a459190613206565b612019565b6009546040516370a0823160e01b8152306004820152611a829183918691906001600160a01b038416906370a08231906024016119fa565b5050600160135550565b600080611a9833612ad4565b50503360009081526011602090815260408083205460129092529091205481151580611ac45750600081115b15611baf573360008181526011602090815260408083208390556012909152808220919091555163299e7ae760e11b8152600481019190915260248101839052604481018290526001600160a01b037f0000000000000000000000000000000000000000000000000000000000000000169063533cf5ce90606401600060405180830381600087803b158015611b5957600080fd5b505af1158015611b6d573d6000803e3d6000fd5b505060408051858152602081018590523393508392507f865ca08d59f5cb456e85cd2f7ef63664ea4f73327414e9d8152c4158b0e94645910160405180910390a35b9091565b42841015611bf55760405162461bcd60e51b815260206004820152600f60248201526e10985cd9558c4e8811561412549151608a1b604482015260640161087f565b7f8b73c3c69bb8fe3d512ecc4cf759cc79239f7b179b0ffacaa9a75d522b39400f6000604051611c2591906132f2565b6040805191829003822060208301939093528101919091527fc89efdaa54c0f20c7adf612882df0950f5a951637e0307cdcb4c672f298b8bc660608201524660808201523060a082015260c00160408051601f19818403018152918152815160209283012060058190556001600160a01b038a166000908152600690935290822080547f6e71edae12b1b97f4d1f60370fef10105fa2faae0126114a169c64845d6126c9918b918b918b919087611cdb836132d7565b909155506040805160208101969096526001600160a01b0394851690860152929091166060840152608083015260a082015260c0810187905260e00160405160208183030381529060405280519060200120604051602001611d5492919061190160f01b81526002810192909252602282015260420190565b60408051601f198184030181528282528051602091820120600080855291840180845281905260ff88169284019290925260608301869052608083018590529092509060019060a0016020604051602081039080840390855afa158015611dbf573d6000803e3d6000fd5b5050604051601f1901519150506001600160a01b03811615801590611df55750886001600160a01b0316816001600160a01b0316145b611e415760405162461bcd60e51b815260206004820152601960248201527f4261736556313a20494e56414c49445f5349474e415455524500000000000000604482015260640161087f565b6001600160a01b038981166000818152600360209081526040808320948d16808452948252918290208b905590518a81527f8c5be1e5ebec7d5bd14f71427d1e84f3dd0314c0f7b2291e5b200ac8c7c3b925910160405180910390a3505050505050505050565b60085460095460009190611ebe6127108661321d565b611ec89086613206565b9450611ed68585848461257b565b95945050505050565b601354600114611eee57600080fd5b60026013556040516370a0823160e01b8152306004820152612012907f00000000000000000000000000000000000000000000000000000000000000006001600160a01b0316906370a0823190602401602060405180830381865afa158015611f5b573d6000803e3d6000fd5b505050506040513d601f19601f82011682018060405250810190611f7f91906131d7565b6040516370a0823160e01b81523060048201527f00000000000000000000000000000000000000000000000000000000000000006001600160a01b0316906370a0823190602401602060405180830381865afa158015611fe3573d6000803e3d6000fd5b505050506040513d601f19601f8201168201806040525081019061200791906131d7565b6008546009546123e7565b6001601355565b6000836001600160a01b03163b1161203057600080fd5b604080516001600160a01b038481166024830152604480830185905283518084039091018152606490920183526020820180516001600160e01b031663a9059cbb60e01b179052915160009283929087169161208c919061338e565b6000604051808303816000865af19150503d80600081146120c9576040519150601f19603f3d011682016040523d82523d6000602084013e6120ce565b606091505b50915091508180156120f85750805115806120f85750808060200190518101906120f89190613169565b61210157600080fd5b5050505050565b6121537f00000000000000000000000000000000000000000000000000000000000000007f000000000000000000000000000000000000000000000000000000000000000083612019565b60025460009061216b83670de0b6b3a764000061328a565b612175919061321d565b905080156121955780600d600082825461218f91906132a9565b90915550505b604080518381526000602082015233917f112c256902bf554b6ed882d2936687aaeb4225e8cd5b51303c90ca6cf43a860291015b60405180910390a25050565b6122207f00000000000000000000000000000000000000000000000000000000000000007f000000000000000000000000000000000000000000000000000000000000000083612019565b60025460009061223883670de0b6b3a764000061328a565b612242919061321d565b905080156122625780600e600082825461225c91906132a9565b90915550505b60408051600081526020810184905233917f112c256902bf554b6ed882d2936687aaeb4225e8cd5b51303c90ca6cf43a860291016121c9565b60007f0000000000000000000000000000000000000000000000000000000000000000156123d65760007f00000000000000000000000000000000000000000000000000000000000000006122f885670de0b6b3a764000061328a565b612302919061321d565b905060007f000000000000000000000000000000000000000000000000000000000000000061233985670de0b6b3a764000061328a565b612343919061321d565b90506000670de0b6b3a764000061235a838561328a565b612364919061321d565b90506000670de0b6b3a764000061237b848061328a565b612385919061321d565b670de0b6b3a7640000612398868061328a565b6123a2919061321d565b6123ac91906132a9565b9050670de0b6b3a76400006123c1828461328a565b6123cb919061321d565b945050505050610e73565b6123e0828461328a565b9050610e73565b600a5442906000906123f99083613206565b905060008111801561240a57508315155b801561241557508215155b1561245c57612424818561328a565b600b600082825461243591906132a9565b909155506124459050818461328a565b600c600082825461245691906132a9565b90915550505b600061246661185e565b80519091506124759084613206565b915061070882111561252a5760408051606081018252848152600b5460208201908152600c549282019283526007805460018101825560009190915291517fa66cc928b5edb82af9bd49922954155ab7b0942694bea4ce44661d9a8736c688600390930292830155517fa66cc928b5edb82af9bd49922954155ab7b0942694bea4ce44661d9a8736c68982015590517fa66cc928b5edb82af9bd49922954155ab7b0942694bea4ce44661d9a8736c68a909101555b60088790556009869055600a83905560408051888152602081018890527fcf2aa50876cdfbb541206f89af0ee78d44a2abf8d328e37fa4917f982149848a910160405180910390a150505050505050565b60007f0000000000000000000000000000000000000000000000000000000000000000156127fe5760006125af848461229b565b90507f00000000000000000000000000000000000000000000000000000000000000006125e485670de0b6b3a764000061328a565b6125ee919061321d565b93507f000000000000000000000000000000000000000000000000000000000000000061262384670de0b6b3a764000061328a565b61262d919061321d565b92506000807f00000000000000000000000000000000000000000000000000000000000000006001600160a01b0316876001600160a01b031614612672578486612675565b85855b915091507f00000000000000000000000000000000000000000000000000000000000000006001600160a01b0316876001600160a01b0316146126f4577f00000000000000000000000000000000000000000000000000000000000000006126e589670de0b6b3a764000061328a565b6126ef919061321d565b612731565b7f000000000000000000000000000000000000000000000000000000000000000061272789670de0b6b3a764000061328a565b612731919061321d565b97506000612749612742848b6132a9565b8584612c34565b6127539083613206565b9050670de0b6b3a76400007f00000000000000000000000000000000000000000000000000000000000000006001600160a01b0316896001600160a01b0316146127bd577f00000000000000000000000000000000000000000000000000000000000000006127df565b7f00000000000000000000000000000000000000000000000000000000000000005b6127e9908361328a565b6127f3919061321d565b945050505050611079565b6000807f00000000000000000000000000000000000000000000000000000000000000006001600160a01b0316866001600160a01b031614612841578385612844565b84845b909250905061285387836132a9565b61285d828961328a565b612867919061321d565b92505050611079565b61287983612ad4565b61288282612ad4565b6001600160a01b038316600090815260046020526040812080548392906128aa908490613206565b90915550506001600160a01b038216600090815260046020526040812080548392906128d79084906132a9565b92505081905550816001600160a01b0316836001600160a01b03167fddf252ad1be2c89b69c2b068fc378daa952ba7f163c4a11628f55a4df523b3ef8360405161292391815260200190565b60405180910390a3505050565b60006003821115612991575080600061294a60028361321d565b6129559060016132a9565b90505b8181101561298b57905080600281612970818661321d565b61297a91906132a9565b612984919061321d565b9050612958565b50919050565b811561299b575060015b919050565b6129a982612ad4565b80600260008282546129bb91906132a9565b90915550506001600160a01b038216600090815260046020526040812080548392906129e89084906132a9565b90915550506040518181526001600160a01b038316906000907fddf252ad1be2c89b69c2b068fc378daa952ba7f163c4a11628f55a4df523b3ef906020015b60405180910390a35050565b6000818310612a4257816111b2565b5090919050565b612a5282612ad4565b8060026000828254612a649190613206565b90915550506001600160a01b03821660009081526004602052604081208054839290612a91908490613206565b90915550506040518181526000906001600160a01b038416907fddf252ad1be2c89b69c2b068fc378daa952ba7f163c4a11628f55a4df523b3ef90602001612a27565b6001600160a01b0381166000908152600460205260409020548015612c02576001600160a01b0382166000908152600f60209081526040808320805460108085529285208054600d54600e54948190559490955282905593612b368584613206565b90506000612b448584613206565b90508115612b9f576000670de0b6b3a7640000612b61848a61328a565b612b6b919061321d565b6001600160a01b038a16600090815260116020526040812080549293508392909190612b989084906132a9565b9091555050505b8015612bf8576000670de0b6b3a7640000612bba838a61328a565b612bc4919061321d565b6001600160a01b038a16600090815260126020526040812080549293508392909190612bf19084906132a9565b9091555050505b5050505050505050565b600d546001600160a01b0383166000908152600f6020908152604080832093909355600e546010909152919020555050565b6000805b60ff811015612d3a57826000612c4e8783612d43565b905085811015612c9e576000612c648887612de0565b612c6e8389613206565b612c8090670de0b6b3a764000061328a565b612c8a919061321d565b9050612c9681876132a9565b955050612ce0565b6000612caa8887612de0565b612cb48884613206565b612cc690670de0b6b3a764000061328a565b612cd0919061321d565b9050612cdc8187613206565b9550505b81851115612d09576001612cf48387613206565b11612d04578493505050506111b2565b612d25565b6001612d158684613206565b11612d25578493505050506111b2565b50508080612d32906132d7565b915050612c38565b50909392505050565b6000670de0b6b3a764000082818581612d5c828061328a565b612d66919061321d565b612d70919061328a565b612d7a919061321d565b612d84919061328a565b612d8e919061321d565b670de0b6b3a7640000808481612da4828061328a565b612dae919061321d565b612db8919061328a565b612dc2919061321d565b612dcc908661328a565b612dd6919061321d565b6111b291906132a9565b6000670de0b6b3a76400008381612df7828061328a565b612e01919061321d565b612e0b919061328a565b612e15919061321d565b670de0b6b3a764000080612e29858061328a565b612e33919061321d565b612e3e86600361328a565b612dcc919061328a565b80356001600160a01b038116811461299b57600080fd5b600080600080600060808688031215612e7757600080fd5b8535945060208601359350612e8e60408701612e48565b9250606086013567ffffffffffffffff80821115612eab57600080fd5b818801915088601f830112612ebf57600080fd5b813581811115612ece57600080fd5b896020828501011115612ee057600080fd5b9699959850939650602001949392505050565b60005b83811015612f0e578181015183820152602001612ef6565b83811115612f1d576000848401525b50505050565b6020815260008251806020840152612f42816040850160208701612ef3565b601f01601f19169190910160400192915050565b60008060408385031215612f6957600080fd5b612f7283612e48565b946020939093013593505050565b60008060008060808587031215612f9657600080fd5b612f9f85612e48565b966020860135965060408601359560600135945092505050565b6020808252825182820181905260009190848201906040850190845b81811015612ff157835183529284019291840191600101612fd5565b50909695505050505050565b60006020828403121561300f57600080fd5b6111b282612e48565b60008060006060848603121561302d57600080fd5b61303684612e48565b925061304460208501612e48565b9150604084013590509250925092565b60006020828403121561306657600080fd5b5035919050565b60008060006060848603121561308257600080fd5b61308b84612e48565b95602085013595506040909401359392505050565b600080600080600080600060e0888a0312156130bb57600080fd5b6130c488612e48565b96506130d260208901612e48565b95506040880135945060608801359350608088013560ff811681146130f657600080fd5b9699959850939692959460a0840135945060c09093013592915050565b6000806040838503121561312657600080fd5b61312f83612e48565b915061313d60208401612e48565b90509250929050565b6000806040838503121561315957600080fd5b8235915061313d60208401612e48565b60006020828403121561317b57600080fd5b815180151581146111b257600080fd5b60018060a01b038616815284602082015283604082015260806060820152816080820152818360a0830137600081830160a090810191909152601f909201601f19160101949350505050565b6000602082840312156131e957600080fd5b5051919050565b634e487b7160e01b600052601160045260246000fd5b600082821015613218576132186131f0565b500390565b60008261323a57634e487b7160e01b600052601260045260246000fd5b500490565b600181811c9082168061325357607f821691505b6020821081141561298b57634e487b7160e01b600052602260045260246000fd5b634e487b7160e01b600052604160045260246000fd5b60008160001904831182151516156132a4576132a46131f0565b500290565b600082198211156132bc576132bc6131f0565b500190565b634e487b7160e01b600052603260045260246000fd5b60006000198214156132eb576132eb6131f0565b5060010190565b600080835481600182811c91508083168061330e57607f831692505b602080841082141561332e57634e487b7160e01b86526022600452602486fd5b818015613342576001811461335357613380565b60ff19861689528489019650613380565b60008a81526020902060005b868110156133785781548b82015290850190830161335f565b505084890196505b509498975050505050505050565b600082516133a0818460208701612ef3565b919091019291505056fea26469706673582212206f8b06d13ce677be75c00f764de86f270f538ed42ca8a478844e9c53c329f13b64736f6c634300080b003360e060405234801561001057600080fd5b5060405161037038038061037083398101604081905261002f91610066565b336080526001600160a01b0391821660a0521660c052610099565b80516001600160a01b038116811461006157600080fd5b919050565b6000806040838503121561007957600080fd5b6100828361004a565b91506100906020840161004a565b90509250929050565b60805160a05160c0516102ab6100c5600039600060b601526000608501526000605001526102ab6000f3fe608060405234801561001057600080fd5b506004361061002b5760003560e01c8063533cf5ce14610030575b600080fd5b61004361003e3660046101d0565b610045565b005b336001600160a01b037f0000000000000000000000000000000000000000000000000000000000000000161461007a57600080fd5b81156100ab576100ab7f000000000000000000000000000000000000000000000000000000000000000084846100e1565b80156100dc576100dc7f000000000000000000000000000000000000000000000000000000000000000084836100e1565b505050565b6000836001600160a01b03163b116100f857600080fd5b604080516001600160a01b038481166024830152604480830185905283518084039091018152606490920183526020820180516001600160e01b031663a9059cbb60e01b17905291516000928392908716916101549190610211565b6000604051808303816000865af19150503d8060008114610191576040519150601f19603f3d011682016040523d82523d6000602084013e610196565b606091505b50915091508180156101c05750805115806101c05750808060200190518101906101c0919061024c565b6101c957600080fd5b5050505050565b6000806000606084860312156101e557600080fd5b83356001600160a01b03811681146101fc57600080fd5b95602085013595506040909401359392505050565b6000825160005b818110156102325760208186018101518583015201610218565b81811115610241576000828501525b509190910192915050565b60006020828403121561025e57600080fd5b8151801515811461026e57600080fd5b939250505056fea2646970667358221220b1e768c5b575dcf96cdb6b0a433791e21af68a7e277397e37367f485b6efacd564736f6c634300080b0033",
          "opcodes": "PUSH2 0x160 PUSH1 0x40 MSTORE PUSH1 0x0 PUSH1 0x2 SSTORE PUSH1 0x0 PUSH1 0xD SSTORE PUSH1 0x0 PUSH1 0xE SSTORE PUSH1 0x1 PUSH1 0x13 SSTORE CALLVALUE DUP1 ISZERO PUSH3 0x26 JUMPI PUSH1 0x0 DUP1 REVERT JUMPDEST POP CALLER PUSH1 0x1 PUSH1 0x1 PUSH1 0xA0 SHL SUB AND PUSH2 0x100 DUP2 PUSH1 0x1 PUSH1 0x1 PUSH1 0xA0 SHL SUB AND DUP2 MSTORE POP POP PUSH1 0x0 DUP1 PUSH1 0x0 CALLER PUSH1 0x1 PUSH1 0x1 PUSH1 0xA0 SHL SUB AND PUSH4 0xEB13C4CF PUSH1 0x40 MLOAD DUP2 PUSH4 0xFFFFFFFF AND PUSH1 0xE0 SHL DUP2 MSTORE PUSH1 0x4 ADD PUSH1 0x60 PUSH1 0x40 MLOAD DUP1 DUP4 SUB DUP2 DUP7 GAS STATICCALL ISZERO DUP1 ISZERO PUSH3 0x86 JUMPI RETURNDATASIZE PUSH1 0x0 DUP1 RETURNDATACOPY RETURNDATASIZE PUSH1 0x0 REVERT JUMPDEST POP POP POP POP PUSH1 0x40 MLOAD RETURNDATASIZE PUSH1 0x1F NOT PUSH1 0x1F DUP3 ADD AND DUP3 ADD DUP1 PUSH1 0x40 MSTORE POP DUP2 ADD SWAP1 PUSH3 0xAC SWAP2 SWAP1 PUSH3 0x7C8 JUMP JUMPDEST DUP1 ISZERO ISZERO PUSH1 0x80 MSTORE PUSH1 0x1 PUSH1 0x1 PUSH1 0xA0 SHL SUB DUP1 DUP4 AND PUSH1 0xC0 MSTORE DUP4 AND PUSH1 0xA0 MSTORE PUSH1 0x40 MLOAD SWAP3 SWAP6 POP SWAP1 SWAP4 POP SWAP2 POP DUP4 SWAP1 DUP4 SWAP1 PUSH3 0xDF SWAP1 PUSH3 0x6F7 JUMP JUMPDEST PUSH1 0x1 PUSH1 0x1 PUSH1 0xA0 SHL SUB SWAP3 DUP4 AND DUP2 MSTORE SWAP2 AND PUSH1 0x20 DUP3 ADD MSTORE PUSH1 0x40 ADD PUSH1 0x40 MLOAD DUP1 SWAP2 SUB SWAP1 PUSH1 0x0 CREATE DUP1 ISZERO DUP1 ISZERO PUSH3 0x113 JUMPI RETURNDATASIZE PUSH1 0x0 DUP1 RETURNDATACOPY RETURNDATASIZE PUSH1 0x0 REVERT JUMPDEST POP PUSH1 0x1 PUSH1 0x1 PUSH1 0xA0 SHL SUB AND PUSH1 0xE0 MSTORE DUP1 ISZERO PUSH3 0x345 JUMPI DUP3 PUSH1 0x1 PUSH1 0x1 PUSH1 0xA0 SHL SUB AND PUSH4 0x95D89B41 PUSH1 0x40 MLOAD DUP2 PUSH4 0xFFFFFFFF AND PUSH1 0xE0 SHL DUP2 MSTORE PUSH1 0x4 ADD PUSH1 0x0 PUSH1 0x40 MLOAD DUP1 DUP4 SUB DUP2 DUP7 GAS STATICCALL ISZERO DUP1 ISZERO PUSH3 0x166 JUMPI RETURNDATASIZE PUSH1 0x0 DUP1 RETURNDATACOPY RETURNDATASIZE PUSH1 0x0 REVERT JUMPDEST POP POP POP POP PUSH1 0x40 MLOAD RETURNDATASIZE PUSH1 0x0 DUP3 RETURNDATACOPY PUSH1 0x1F RETURNDATASIZE SWAP1 DUP2 ADD PUSH1 0x1F NOT AND DUP3 ADD PUSH1 0x40 MSTORE PUSH3 0x190 SWAP2 SWAP1 DUP2 ADD SWAP1 PUSH3 0x863 JUMP JUMPDEST DUP3 PUSH1 0x1 PUSH1 0x1 PUSH1 0xA0 SHL SUB AND PUSH4 0x95D89B41 PUSH1 0x40 MLOAD DUP2 PUSH4 0xFFFFFFFF AND PUSH1 0xE0 SHL DUP2 MSTORE PUSH1 0x4 ADD PUSH1 0x0 PUSH1 0x40 MLOAD DUP1 DUP4 SUB DUP2 DUP7 GAS STATICCALL ISZERO DUP1 ISZERO PUSH3 0x1CF JUMPI RETURNDATASIZE PUSH1 0x0 DUP1 RETURNDATACOPY RETURNDATASIZE PUSH1 0x0 REVERT JUMPDEST POP POP POP POP PUSH1 0x40 MLOAD RETURNDATASIZE PUSH1 0x0 DUP3 RETURNDATACOPY PUSH1 0x1F RETURNDATASIZE SWAP1 DUP2 ADD PUSH1 0x1F NOT AND DUP3 ADD PUSH1 0x40 MSTORE PUSH3 0x1F9 SWAP2 SWAP1 DUP2 ADD SWAP1 PUSH3 0x863 JUMP JUMPDEST PUSH1 0x40 MLOAD PUSH1 0x20 ADD PUSH3 0x20C SWAP3 SWAP2 SWAP1 PUSH3 0x91B JUMP JUMPDEST PUSH1 0x40 MLOAD PUSH1 0x20 DUP2 DUP4 SUB SUB DUP2 MSTORE SWAP1 PUSH1 0x40 MSTORE PUSH1 0x0 SWAP1 DUP1 MLOAD SWAP1 PUSH1 0x20 ADD SWAP1 PUSH3 0x232 SWAP3 SWAP2 SWAP1 PUSH3 0x705 JUMP JUMPDEST POP DUP3 PUSH1 0x1 PUSH1 0x1 PUSH1 0xA0 SHL SUB AND PUSH4 0x95D89B41 PUSH1 0x40 MLOAD DUP2 PUSH4 0xFFFFFFFF AND PUSH1 0xE0 SHL DUP2 MSTORE PUSH1 0x4 ADD PUSH1 0x0 PUSH1 0x40 MLOAD DUP1 DUP4 SUB DUP2 DUP7 GAS STATICCALL ISZERO DUP1 ISZERO PUSH3 0x272 JUMPI RETURNDATASIZE PUSH1 0x0 DUP1 RETURNDATACOPY RETURNDATASIZE PUSH1 0x0 REVERT JUMPDEST POP POP POP POP PUSH1 0x40 MLOAD RETURNDATASIZE PUSH1 0x0 DUP3 RETURNDATACOPY PUSH1 0x1F RETURNDATASIZE SWAP1 DUP2 ADD PUSH1 0x1F NOT AND DUP3 ADD PUSH1 0x40 MSTORE PUSH3 0x29C SWAP2 SWAP1 DUP2 ADD SWAP1 PUSH3 0x863 JUMP JUMPDEST DUP3 PUSH1 0x1 PUSH1 0x1 PUSH1 0xA0 SHL SUB AND PUSH4 0x95D89B41 PUSH1 0x40 MLOAD DUP2 PUSH4 0xFFFFFFFF AND PUSH1 0xE0 SHL DUP2 MSTORE PUSH1 0x4 ADD PUSH1 0x0 PUSH1 0x40 MLOAD DUP1 DUP4 SUB DUP2 DUP7 GAS STATICCALL ISZERO DUP1 ISZERO PUSH3 0x2DB JUMPI RETURNDATASIZE PUSH1 0x0 DUP1 RETURNDATACOPY RETURNDATASIZE PUSH1 0x0 REVERT JUMPDEST POP POP POP POP PUSH1 0x40 MLOAD RETURNDATASIZE PUSH1 0x0 DUP3 RETURNDATACOPY PUSH1 0x1F RETURNDATASIZE SWAP1 DUP2 ADD PUSH1 0x1F NOT AND DUP3 ADD PUSH1 0x40 MSTORE PUSH3 0x305 SWAP2 SWAP1 DUP2 ADD SWAP1 PUSH3 0x863 JUMP JUMPDEST PUSH1 0x40 MLOAD PUSH1 0x20 ADD PUSH3 0x318 SWAP3 SWAP2 SWAP1 PUSH3 0x976 JUMP JUMPDEST PUSH1 0x40 MLOAD PUSH1 0x20 DUP2 DUP4 SUB SUB DUP2 MSTORE SWAP1 PUSH1 0x40 MSTORE PUSH1 0x1 SWAP1 DUP1 MLOAD SWAP1 PUSH1 0x20 ADD SWAP1 PUSH3 0x33E SWAP3 SWAP2 SWAP1 PUSH3 0x705 JUMP JUMPDEST POP PUSH3 0x55E JUMP JUMPDEST DUP3 PUSH1 0x1 PUSH1 0x1 PUSH1 0xA0 SHL SUB AND PUSH4 0x95D89B41 PUSH1 0x40 MLOAD DUP2 PUSH4 0xFFFFFFFF AND PUSH1 0xE0 SHL DUP2 MSTORE PUSH1 0x4 ADD PUSH1 0x0 PUSH1 0x40 MLOAD DUP1 DUP4 SUB DUP2 DUP7 GAS STATICCALL ISZERO DUP1 ISZERO PUSH3 0x384 JUMPI RETURNDATASIZE PUSH1 0x0 DUP1 RETURNDATACOPY RETURNDATASIZE PUSH1 0x0 REVERT JUMPDEST POP POP POP POP PUSH1 0x40 MLOAD RETURNDATASIZE PUSH1 0x0 DUP3 RETURNDATACOPY PUSH1 0x1F RETURNDATASIZE SWAP1 DUP2 ADD PUSH1 0x1F NOT AND DUP3 ADD PUSH1 0x40 MSTORE PUSH3 0x3AE SWAP2 SWAP1 DUP2 ADD SWAP1 PUSH3 0x863 JUMP JUMPDEST DUP3 PUSH1 0x1 PUSH1 0x1 PUSH1 0xA0 SHL SUB AND PUSH4 0x95D89B41 PUSH1 0x40 MLOAD DUP2 PUSH4 0xFFFFFFFF AND PUSH1 0xE0 SHL DUP2 MSTORE PUSH1 0x4 ADD PUSH1 0x0 PUSH1 0x40 MLOAD DUP1 DUP4 SUB DUP2 DUP7 GAS STATICCALL ISZERO DUP1 ISZERO PUSH3 0x3ED JUMPI RETURNDATASIZE PUSH1 0x0 DUP1 RETURNDATACOPY RETURNDATASIZE PUSH1 0x0 REVERT JUMPDEST POP POP POP POP PUSH1 0x40 MLOAD RETURNDATASIZE PUSH1 0x0 DUP3 RETURNDATACOPY PUSH1 0x1F RETURNDATASIZE SWAP1 DUP2 ADD PUSH1 0x1F NOT AND DUP3 ADD PUSH1 0x40 MSTORE PUSH3 0x417 SWAP2 SWAP1 DUP2 ADD SWAP1 PUSH3 0x863 JUMP JUMPDEST PUSH1 0x40 MLOAD PUSH1 0x20 ADD PUSH3 0x42A SWAP3 SWAP2 SWAP1 PUSH3 0x9C7 JUMP JUMPDEST PUSH1 0x40 MLOAD PUSH1 0x20 DUP2 DUP4 SUB SUB DUP2 MSTORE SWAP1 PUSH1 0x40 MSTORE PUSH1 0x0 SWAP1 DUP1 MLOAD SWAP1 PUSH1 0x20 ADD SWAP1 PUSH3 0x450 SWAP3 SWAP2 SWAP1 PUSH3 0x705 JUMP JUMPDEST POP DUP3 PUSH1 0x1 PUSH1 0x1 PUSH1 0xA0 SHL SUB AND PUSH4 0x95D89B41 PUSH1 0x40 MLOAD DUP2 PUSH4 0xFFFFFFFF AND PUSH1 0xE0 SHL DUP2 MSTORE PUSH1 0x4 ADD PUSH1 0x0 PUSH1 0x40 MLOAD DUP1 DUP4 SUB DUP2 DUP7 GAS STATICCALL ISZERO DUP1 ISZERO PUSH3 0x490 JUMPI RETURNDATASIZE PUSH1 0x0 DUP1 RETURNDATACOPY RETURNDATASIZE PUSH1 0x0 REVERT JUMPDEST POP POP POP POP PUSH1 0x40 MLOAD RETURNDATASIZE PUSH1 0x0 DUP3 RETURNDATACOPY PUSH1 0x1F RETURNDATASIZE SWAP1 DUP2 ADD PUSH1 0x1F NOT AND DUP3 ADD PUSH1 0x40 MSTORE PUSH3 0x4BA SWAP2 SWAP1 DUP2 ADD SWAP1 PUSH3 0x863 JUMP JUMPDEST DUP3 PUSH1 0x1 PUSH1 0x1 PUSH1 0xA0 SHL SUB AND PUSH4 0x95D89B41 PUSH1 0x40 MLOAD DUP2 PUSH4 0xFFFFFFFF AND PUSH1 0xE0 SHL DUP2 MSTORE PUSH1 0x4 ADD PUSH1 0x0 PUSH1 0x40 MLOAD DUP1 DUP4 SUB DUP2 DUP7 GAS STATICCALL ISZERO DUP1 ISZERO PUSH3 0x4F9 JUMPI RETURNDATASIZE PUSH1 0x0 DUP1 RETURNDATACOPY RETURNDATASIZE PUSH1 0x0 REVERT JUMPDEST POP POP POP POP PUSH1 0x40 MLOAD RETURNDATASIZE PUSH1 0x0 DUP3 RETURNDATACOPY PUSH1 0x1F RETURNDATASIZE SWAP1 DUP2 ADD PUSH1 0x1F NOT AND DUP3 ADD PUSH1 0x40 MSTORE PUSH3 0x523 SWAP2 SWAP1 DUP2 ADD SWAP1 PUSH3 0x863 JUMP JUMPDEST PUSH1 0x40 MLOAD PUSH1 0x20 ADD PUSH3 0x536 SWAP3 SWAP2 SWAP1 PUSH3 0xA24 JUMP JUMPDEST PUSH1 0x40 MLOAD PUSH1 0x20 DUP2 DUP4 SUB SUB DUP2 MSTORE SWAP1 PUSH1 0x40 MSTORE PUSH1 0x1 SWAP1 DUP1 MLOAD SWAP1 PUSH1 0x20 ADD SWAP1 PUSH3 0x55C SWAP3 SWAP2 SWAP1 PUSH3 0x705 JUMP JUMPDEST POP JUMPDEST DUP3 PUSH1 0x1 PUSH1 0x1 PUSH1 0xA0 SHL SUB AND PUSH4 0x313CE567 PUSH1 0x40 MLOAD DUP2 PUSH4 0xFFFFFFFF AND PUSH1 0xE0 SHL DUP2 MSTORE PUSH1 0x4 ADD PUSH1 0x20 PUSH1 0x40 MLOAD DUP1 DUP4 SUB DUP2 DUP7 GAS STATICCALL ISZERO DUP1 ISZERO PUSH3 0x59D JUMPI RETURNDATASIZE PUSH1 0x0 DUP1 RETURNDATACOPY RETURNDATASIZE PUSH1 0x0 REVERT JUMPDEST POP POP POP POP PUSH1 0x40 MLOAD RETURNDATASIZE PUSH1 0x1F NOT PUSH1 0x1F DUP3 ADD AND DUP3 ADD DUP1 PUSH1 0x40 MSTORE POP DUP2 ADD SWAP1 PUSH3 0x5C3 SWAP2 SWAP1 PUSH3 0xA46 JUMP JUMPDEST PUSH3 0x5D0 SWAP1 PUSH1 0xA PUSH3 0xB87 JUMP JUMPDEST PUSH2 0x120 DUP2 DUP2 MSTORE POP POP DUP2 PUSH1 0x1 PUSH1 0x1 PUSH1 0xA0 SHL SUB AND PUSH4 0x313CE567 PUSH1 0x40 MLOAD DUP2 PUSH4 0xFFFFFFFF AND PUSH1 0xE0 SHL DUP2 MSTORE PUSH1 0x4 ADD PUSH1 0x20 PUSH1 0x40 MLOAD DUP1 DUP4 SUB DUP2 DUP7 GAS STATICCALL ISZERO DUP1 ISZERO PUSH3 0x617 JUMPI RETURNDATASIZE PUSH1 0x0 DUP1 RETURNDATACOPY RETURNDATASIZE PUSH1 0x0 REVERT JUMPDEST POP POP POP POP PUSH1 0x40 MLOAD RETURNDATASIZE PUSH1 0x1F NOT PUSH1 0x1F DUP3 ADD AND DUP3 ADD DUP1 PUSH1 0x40 MSTORE POP DUP2 ADD SWAP1 PUSH3 0x63D SWAP2 SWAP1 PUSH3 0xA46 JUMP JUMPDEST PUSH3 0x64A SWAP1 PUSH1 0xA PUSH3 0xB87 JUMP JUMPDEST PUSH2 0x140 MSTORE POP POP PUSH1 0x40 DUP1 MLOAD PUSH1 0x60 DUP2 ADD DUP3 MSTORE TIMESTAMP DUP2 MSTORE PUSH1 0x0 PUSH1 0x20 DUP3 ADD DUP2 DUP2 MSTORE SWAP3 DUP3 ADD DUP2 DUP2 MSTORE PUSH1 0x7 DUP1 SLOAD PUSH1 0x1 DUP2 ADD DUP3 SSTORE SWAP3 MSTORE SWAP2 MLOAD PUSH32 0xA66CC928B5EDB82AF9BD49922954155AB7B0942694BEA4CE44661D9A8736C688 PUSH1 0x3 SWAP1 SWAP3 MUL SWAP2 DUP3 ADD SSTORE SWAP2 MLOAD PUSH32 0xA66CC928B5EDB82AF9BD49922954155AB7B0942694BEA4CE44661D9A8736C689 DUP4 ADD SSTORE MLOAD PUSH32 0xA66CC928B5EDB82AF9BD49922954155AB7B0942694BEA4CE44661D9A8736C68A SWAP1 SWAP2 ADD SSTORE POP PUSH3 0xBD5 JUMP JUMPDEST PUSH2 0x370 DUP1 PUSH3 0x410C DUP4 CODECOPY ADD SWAP1 JUMP JUMPDEST DUP3 DUP1 SLOAD PUSH3 0x713 SWAP1 PUSH3 0xB98 JUMP JUMPDEST SWAP1 PUSH1 0x0 MSTORE PUSH1 0x20 PUSH1 0x0 KECCAK256 SWAP1 PUSH1 0x1F ADD PUSH1 0x20 SWAP1 DIV DUP2 ADD SWAP3 DUP3 PUSH3 0x737 JUMPI PUSH1 0x0 DUP6 SSTORE PUSH3 0x782 JUMP JUMPDEST DUP3 PUSH1 0x1F LT PUSH3 0x752 JUMPI DUP1 MLOAD PUSH1 0xFF NOT AND DUP4 DUP1 ADD OR DUP6 SSTORE PUSH3 0x782 JUMP JUMPDEST DUP3 DUP1 ADD PUSH1 0x1 ADD DUP6 SSTORE DUP3 ISZERO PUSH3 0x782 JUMPI SWAP2 DUP3 ADD JUMPDEST DUP3 DUP2 GT ISZERO PUSH3 0x782 JUMPI DUP3 MLOAD DUP3 SSTORE SWAP2 PUSH1 0x20 ADD SWAP2 SWAP1 PUSH1 0x1 ADD SWAP1 PUSH3 0x765 JUMP JUMPDEST POP PUSH3 0x790 SWAP3 SWAP2 POP PUSH3 0x794 JUMP JUMPDEST POP SWAP1 JUMP JUMPDEST JUMPDEST DUP1 DUP3 GT ISZERO PUSH3 0x790 JUMPI PUSH1 0x0 DUP2 SSTORE PUSH1 0x1 ADD PUSH3 0x795 JUMP JUMPDEST DUP1 MLOAD PUSH1 0x1 PUSH1 0x1 PUSH1 0xA0 SHL SUB DUP2 AND DUP2 EQ PUSH3 0x7C3 JUMPI PUSH1 0x0 DUP1 REVERT JUMPDEST SWAP2 SWAP1 POP JUMP JUMPDEST PUSH1 0x0 DUP1 PUSH1 0x0 PUSH1 0x60 DUP5 DUP7 SUB SLT ISZERO PUSH3 0x7DE JUMPI PUSH1 0x0 DUP1 REVERT JUMPDEST PUSH3 0x7E9 DUP5 PUSH3 0x7AB JUMP JUMPDEST SWAP3 POP PUSH3 0x7F9 PUSH1 0x20 DUP6 ADD PUSH3 0x7AB JUMP JUMPDEST SWAP2 POP PUSH1 0x40 DUP5 ADD MLOAD DUP1 ISZERO ISZERO DUP2 EQ PUSH3 0x80F JUMPI PUSH1 0x0 DUP1 REVERT JUMPDEST DUP1 SWAP2 POP POP SWAP3 POP SWAP3 POP SWAP3 JUMP JUMPDEST PUSH4 0x4E487B71 PUSH1 0xE0 SHL PUSH1 0x0 MSTORE PUSH1 0x41 PUSH1 0x4 MSTORE PUSH1 0x24 PUSH1 0x0 REVERT JUMPDEST PUSH1 0x0 JUMPDEST DUP4 DUP2 LT ISZERO PUSH3 0x84D JUMPI DUP2 DUP2 ADD MLOAD DUP4 DUP3 ADD MSTORE PUSH1 0x20 ADD PUSH3 0x833 JUMP JUMPDEST DUP4 DUP2 GT ISZERO PUSH3 0x85D JUMPI PUSH1 0x0 DUP5 DUP5 ADD MSTORE JUMPDEST POP POP POP POP JUMP JUMPDEST PUSH1 0x0 PUSH1 0x20 DUP3 DUP5 SUB SLT ISZERO PUSH3 0x876 JUMPI PUSH1 0x0 DUP1 REVERT JUMPDEST DUP2 MLOAD PUSH1 0x1 PUSH1 0x1 PUSH1 0x40 SHL SUB DUP1 DUP3 GT ISZERO PUSH3 0x88E JUMPI PUSH1 0x0 DUP1 REVERT JUMPDEST DUP2 DUP5 ADD SWAP2 POP DUP5 PUSH1 0x1F DUP4 ADD SLT PUSH3 0x8A3 JUMPI PUSH1 0x0 DUP1 REVERT JUMPDEST DUP2 MLOAD DUP2 DUP2 GT ISZERO PUSH3 0x8B8 JUMPI PUSH3 0x8B8 PUSH3 0x81A JUMP JUMPDEST PUSH1 0x40 MLOAD PUSH1 0x1F DUP3 ADD PUSH1 0x1F NOT SWAP1 DUP2 AND PUSH1 0x3F ADD AND DUP2 ADD SWAP1 DUP4 DUP3 GT DUP2 DUP4 LT OR ISZERO PUSH3 0x8E3 JUMPI PUSH3 0x8E3 PUSH3 0x81A JUMP JUMPDEST DUP2 PUSH1 0x40 MSTORE DUP3 DUP2 MSTORE DUP8 PUSH1 0x20 DUP5 DUP8 ADD ADD GT ISZERO PUSH3 0x8FD JUMPI PUSH1 0x0 DUP1 REVERT JUMPDEST PUSH3 0x910 DUP4 PUSH1 0x20 DUP4 ADD PUSH1 0x20 DUP9 ADD PUSH3 0x830 JUMP JUMPDEST SWAP8 SWAP7 POP POP POP POP POP POP POP JUMP JUMPDEST PUSH15 0x29BA30B13632AB189020A6A690169 PUSH1 0x8D SHL DUP2 MSTORE PUSH1 0x0 DUP4 MLOAD PUSH3 0x947 DUP2 PUSH1 0xF DUP6 ADD PUSH1 0x20 DUP9 ADD PUSH3 0x830 JUMP JUMPDEST PUSH1 0x2F PUSH1 0xF8 SHL PUSH1 0xF SWAP2 DUP5 ADD SWAP2 DUP3 ADD MSTORE DUP4 MLOAD PUSH3 0x96A DUP2 PUSH1 0x10 DUP5 ADD PUSH1 0x20 DUP9 ADD PUSH3 0x830 JUMP JUMPDEST ADD PUSH1 0x10 ADD SWAP5 SWAP4 POP POP POP POP JUMP JUMPDEST PUSH5 0x73414D4D2D PUSH1 0xD8 SHL DUP2 MSTORE PUSH1 0x0 DUP4 MLOAD PUSH3 0x998 DUP2 PUSH1 0x5 DUP6 ADD PUSH1 0x20 DUP9 ADD PUSH3 0x830 JUMP JUMPDEST PUSH1 0x2F PUSH1 0xF8 SHL PUSH1 0x5 SWAP2 DUP5 ADD SWAP2 DUP3 ADD MSTORE DUP4 MLOAD PUSH3 0x9BB DUP2 PUSH1 0x6 DUP5 ADD PUSH1 0x20 DUP9 ADD PUSH3 0x830 JUMP JUMPDEST ADD PUSH1 0x6 ADD SWAP5 SWAP4 POP POP POP POP JUMP JUMPDEST PUSH17 0x2B37B630BA34B632AB189020A6A690169 PUSH1 0x7D SHL DUP2 MSTORE PUSH1 0x0 DUP4 MLOAD PUSH3 0x9F5 DUP2 PUSH1 0x11 DUP6 ADD PUSH1 0x20 DUP9 ADD PUSH3 0x830 JUMP JUMPDEST PUSH1 0x2F PUSH1 0xF8 SHL PUSH1 0x11 SWAP2 DUP5 ADD SWAP2 DUP3 ADD MSTORE DUP4 MLOAD PUSH3 0xA18 DUP2 PUSH1 0x12 DUP5 ADD PUSH1 0x20 DUP9 ADD PUSH3 0x830 JUMP JUMPDEST ADD PUSH1 0x12 ADD SWAP5 SWAP4 POP POP POP POP JUMP JUMPDEST PUSH5 0x76414D4D2D PUSH1 0xD8 SHL DUP2 MSTORE PUSH1 0x0 DUP4 MLOAD PUSH3 0x998 DUP2 PUSH1 0x5 DUP6 ADD PUSH1 0x20 DUP9 ADD PUSH3 0x830 JUMP JUMPDEST PUSH1 0x0 PUSH1 0x20 DUP3 DUP5 SUB SLT ISZERO PUSH3 0xA59 JUMPI PUSH1 0x0 DUP1 REVERT JUMPDEST DUP2 MLOAD PUSH1 0xFF DUP2 AND DUP2 EQ PUSH3 0xA6B JUMPI PUSH1 0x0 DUP1 REVERT JUMPDEST SWAP4 SWAP3 POP POP POP JUMP JUMPDEST PUSH4 0x4E487B71 PUSH1 0xE0 SHL PUSH1 0x0 MSTORE PUSH1 0x11 PUSH1 0x4 MSTORE PUSH1 0x24 PUSH1 0x0 REVERT JUMPDEST PUSH1 0x1 DUP2 DUP2 JUMPDEST DUP1 DUP6 GT ISZERO PUSH3 0xAC9 JUMPI DUP2 PUSH1 0x0 NOT DIV DUP3 GT ISZERO PUSH3 0xAAD JUMPI PUSH3 0xAAD PUSH3 0xA72 JUMP JUMPDEST DUP1 DUP6 AND ISZERO PUSH3 0xABB JUMPI SWAP2 DUP2 MUL SWAP2 JUMPDEST SWAP4 DUP5 SHR SWAP4 SWAP1 DUP1 MUL SWAP1 PUSH3 0xA8D JUMP JUMPDEST POP SWAP3 POP SWAP3 SWAP1 POP JUMP JUMPDEST PUSH1 0x0 DUP3 PUSH3 0xAE2 JUMPI POP PUSH1 0x1 PUSH3 0xB81 JUMP JUMPDEST DUP2 PUSH3 0xAF1 JUMPI POP PUSH1 0x0 PUSH3 0xB81 JUMP JUMPDEST DUP2 PUSH1 0x1 DUP2 EQ PUSH3 0xB0A JUMPI PUSH1 0x2 DUP2 EQ PUSH3 0xB15 JUMPI PUSH3 0xB35 JUMP JUMPDEST PUSH1 0x1 SWAP2 POP POP PUSH3 0xB81 JUMP JUMPDEST PUSH1 0xFF DUP5 GT ISZERO PUSH3 0xB29 JUMPI PUSH3 0xB29 PUSH3 0xA72 JUMP JUMPDEST POP POP PUSH1 0x1 DUP3 SHL PUSH3 0xB81 JUMP JUMPDEST POP PUSH1 0x20 DUP4 LT PUSH2 0x133 DUP4 LT AND PUSH1 0x4E DUP5 LT PUSH1 0xB DUP5 LT AND OR ISZERO PUSH3 0xB5A JUMPI POP DUP2 DUP2 EXP PUSH3 0xB81 JUMP JUMPDEST PUSH3 0xB66 DUP4 DUP4 PUSH3 0xA88 JUMP JUMPDEST DUP1 PUSH1 0x0 NOT DIV DUP3 GT ISZERO PUSH3 0xB7D JUMPI PUSH3 0xB7D PUSH3 0xA72 JUMP JUMPDEST MUL SWAP1 POP JUMPDEST SWAP3 SWAP2 POP POP JUMP JUMPDEST PUSH1 0x0 PUSH3 0xA6B PUSH1 0xFF DUP5 AND DUP4 PUSH3 0xAD1 JUMP JUMPDEST PUSH1 0x1 DUP2 DUP2 SHR SWAP1 DUP3 AND DUP1 PUSH3 0xBAD JUMPI PUSH1 0x7F DUP3 AND SWAP2 POP JUMPDEST PUSH1 0x20 DUP3 LT DUP2 EQ ISZERO PUSH3 0xBCF JUMPI PUSH4 0x4E487B71 PUSH1 0xE0 SHL PUSH1 0x0 MSTORE PUSH1 0x22 PUSH1 0x4 MSTORE PUSH1 0x24 PUSH1 0x0 REVERT JUMPDEST POP SWAP2 SWAP1 POP JUMP JUMPDEST PUSH1 0x80 MLOAD PUSH1 0xA0 MLOAD PUSH1 0xC0 MLOAD PUSH1 0xE0 MLOAD PUSH2 0x100 MLOAD PUSH2 0x120 MLOAD PUSH2 0x140 MLOAD PUSH2 0x33E0 PUSH3 0xD2C PUSH1 0x0 CODECOPY PUSH1 0x0 DUP2 DUP2 PUSH2 0x431 ADD MSTORE DUP2 DUP2 PUSH2 0x2308 ADD MSTORE DUP2 DUP2 PUSH2 0x25F2 ADD MSTORE DUP2 DUP2 PUSH2 0x26B4 ADD MSTORE PUSH2 0x27BF ADD MSTORE PUSH1 0x0 DUP2 DUP2 PUSH2 0x40E ADD MSTORE DUP2 DUP2 PUSH2 0x22C7 ADD MSTORE DUP2 DUP2 PUSH2 0x25B3 ADD MSTORE DUP2 DUP2 PUSH2 0x26F6 ADD MSTORE PUSH2 0x2799 ADD MSTORE PUSH1 0x0 PUSH2 0x7B8 ADD MSTORE PUSH1 0x0 DUP2 DUP2 PUSH2 0x5F2 ADD MSTORE DUP2 DUP2 PUSH2 0x1B15 ADD MSTORE DUP2 DUP2 PUSH2 0x212E ADD MSTORE PUSH2 0x21FB ADD MSTORE PUSH1 0x0 DUP2 DUP2 PUSH2 0x4BB ADD MSTORE DUP2 DUP2 PUSH2 0x647 ADD MSTORE DUP2 DUP2 PUSH2 0x714 ADD MSTORE DUP2 DUP2 PUSH2 0x8F3 ADD MSTORE DUP2 DUP2 PUSH2 0xB9B ADD MSTORE DUP2 DUP2 PUSH2 0x13AE ADD MSTORE DUP2 DUP2 PUSH2 0x1595 ADD MSTORE DUP2 DUP2 PUSH2 0x19BC ADD MSTORE DUP2 DUP2 PUSH2 0x1F94 ADD MSTORE PUSH2 0x21DA ADD MSTORE PUSH1 0x0 DUP2 DUP2 PUSH2 0x2F9 ADD MSTORE DUP2 DUP2 PUSH2 0x493 ADD MSTORE DUP2 DUP2 PUSH2 0x622 ADD MSTORE DUP2 DUP2 PUSH2 0x8D2 ADD MSTORE DUP2 DUP2 PUSH2 0xB7A ADD MSTORE DUP2 DUP2 PUSH2 0x1318 ADD MSTORE DUP2 DUP2 PUSH2 0x1573 ADD MSTORE DUP2 DUP2 PUSH2 0x199A ADD MSTORE DUP2 DUP2 PUSH2 0x1F0C ADD MSTORE DUP2 DUP2 PUSH2 0x210D ADD MSTORE DUP2 DUP2 PUSH2 0x2634 ADD MSTORE DUP2 DUP2 PUSH2 0x267B ADD MSTORE DUP2 DUP2 PUSH2 0x2760 ADD MSTORE PUSH2 0x2803 ADD MSTORE PUSH1 0x0 DUP2 DUP2 PUSH2 0x397 ADD MSTORE DUP2 DUP2 PUSH2 0x463 ADD MSTORE DUP2 DUP2 PUSH2 0x229F ADD MSTORE PUSH2 0x257F ADD MSTORE PUSH2 0x33E0 PUSH1 0x0 RETURN INVALID PUSH1 0x80 PUSH1 0x40 MSTORE CALLVALUE DUP1 ISZERO PUSH2 0x10 JUMPI PUSH1 0x0 DUP1 REVERT JUMPDEST POP PUSH1 0x4 CALLDATASIZE LT PUSH2 0x274 JUMPI PUSH1 0x0 CALLDATALOAD PUSH1 0xE0 SHR DUP1 PUSH4 0x7ECEBE00 GT PUSH2 0x151 JUMPI DUP1 PUSH4 0xBDA39CAD GT PUSH2 0xC3 JUMPI DUP1 PUSH4 0xD294F093 GT PUSH2 0x87 JUMPI DUP1 PUSH4 0xD294F093 EQ PUSH2 0x736 JUMPI DUP1 PUSH4 0xD505ACCF EQ PUSH2 0x73E JUMPI DUP1 PUSH4 0xDD62ED3E EQ PUSH2 0x751 JUMPI DUP1 PUSH4 0xEBEB31DB EQ PUSH2 0x77C JUMPI DUP1 PUSH4 0xF140A35A EQ PUSH2 0x784 JUMPI DUP1 PUSH4 0xFFF6CAE9 EQ PUSH2 0x797 JUMPI PUSH1 0x0 DUP1 REVERT JUMPDEST DUP1 PUSH4 0xBDA39CAD EQ PUSH2 0x6EB JUMPI DUP1 PUSH4 0xBF944DBC EQ PUSH2 0x6F4 JUMPI DUP1 PUSH4 0xC245FEBC EQ PUSH2 0x6FD JUMPI DUP1 PUSH4 0xC5700A02 EQ PUSH2 0x706 JUMPI DUP1 PUSH4 0xD21220A7 EQ PUSH2 0x70F JUMPI PUSH1 0x0 DUP1 REVERT JUMPDEST DUP1 PUSH4 0x9D63848A GT PUSH2 0x115 JUMPI DUP1 PUSH4 0x9D63848A EQ PUSH2 0x614 JUMPI DUP1 PUSH4 0x9E8CC04B EQ PUSH2 0x672 JUMPI DUP1 PUSH4 0x9F767C88 EQ PUSH2 0x685 JUMPI DUP1 PUSH4 0xA1AC4D13 EQ PUSH2 0x6A5 JUMPI DUP1 PUSH4 0xA9059CBB EQ PUSH2 0x6C5 JUMPI DUP1 PUSH4 0xBC25CF77 EQ PUSH2 0x6D8 JUMPI PUSH1 0x0 DUP1 REVERT JUMPDEST DUP1 PUSH4 0x7ECEBE00 EQ PUSH2 0x573 JUMPI DUP1 PUSH4 0x89AFCB44 EQ PUSH2 0x593 JUMPI DUP1 PUSH4 0x8A7B8CF2 EQ PUSH2 0x5BB JUMPI DUP1 PUSH4 0x95D89B41 EQ PUSH2 0x5E5 JUMPI DUP1 PUSH4 0x9AF1D35A EQ PUSH2 0x5ED JUMPI PUSH1 0x0 DUP1 REVERT JUMPDEST DUP1 PUSH4 0x252C09D7 GT PUSH2 0x1EA JUMPI DUP1 PUSH4 0x4D5A9F8A GT PUSH2 0x1AE JUMPI DUP1 PUSH4 0x4D5A9F8A EQ PUSH2 0x4F1 JUMPI DUP1 PUSH4 0x517B3F82 EQ PUSH2 0x511 JUMPI DUP1 PUSH4 0x5881C475 EQ PUSH2 0x524 JUMPI DUP1 PUSH4 0x5A76F25E EQ PUSH2 0x537 JUMPI DUP1 PUSH4 0x6A627842 EQ PUSH2 0x540 JUMPI DUP1 PUSH4 0x70A08231 EQ PUSH2 0x553 JUMPI PUSH1 0x0 DUP1 REVERT JUMPDEST DUP1 PUSH4 0x252C09D7 EQ PUSH2 0x3CC JUMPI DUP1 PUSH4 0x313CE567 EQ PUSH2 0x3DF JUMPI DUP1 PUSH4 0x32C0DEFD EQ PUSH2 0x3F9 JUMPI DUP1 PUSH4 0x392F37E9 EQ PUSH2 0x402 JUMPI DUP1 PUSH4 0x443CB4BC EQ PUSH2 0x4E8 JUMPI PUSH1 0x0 DUP1 REVERT JUMPDEST DUP1 PUSH4 0x13345FE1 GT PUSH2 0x23C JUMPI DUP1 PUSH4 0x13345FE1 EQ PUSH2 0x333 JUMPI DUP1 PUSH4 0x18160DDD EQ PUSH2 0x353 JUMPI DUP1 PUSH4 0x1DF8C717 EQ PUSH2 0x36A JUMPI DUP1 PUSH4 0x205AABF1 EQ PUSH2 0x372 JUMPI DUP1 PUSH4 0x22BE3DE1 EQ PUSH2 0x392 JUMPI DUP1 PUSH4 0x23B872DD EQ PUSH2 0x3B9 JUMPI PUSH1 0x0 DUP1 REVERT JUMPDEST DUP1 PUSH4 0x22C0D9F EQ PUSH2 0x279 JUMPI DUP1 PUSH4 0x6FDDE03 EQ PUSH2 0x28E JUMPI DUP1 PUSH4 0x902F1AC EQ PUSH2 0x2AC JUMPI DUP1 PUSH4 0x95EA7B3 EQ PUSH2 0x2D1 JUMPI DUP1 PUSH4 0xDFE1681 EQ PUSH2 0x2F4 JUMPI JUMPDEST PUSH1 0x0 DUP1 REVERT JUMPDEST PUSH2 0x28C PUSH2 0x287 CALLDATASIZE PUSH1 0x4 PUSH2 0x2E5F JUMP JUMPDEST PUSH2 0x79F JUMP JUMPDEST STOP JUMPDEST PUSH2 0x296 PUSH2 0xD7E JUMP JUMPDEST PUSH1 0x40 MLOAD PUSH2 0x2A3 SWAP2 SWAP1 PUSH2 0x2F23 JUMP JUMPDEST PUSH1 0x40 MLOAD DUP1 SWAP2 SUB SWAP1 RETURN JUMPDEST PUSH1 0x8 SLOAD PUSH1 0x9 SLOAD PUSH1 0xA SLOAD JUMPDEST PUSH1 0x40 DUP1 MLOAD SWAP4 DUP5 MSTORE PUSH1 0x20 DUP5 ADD SWAP3 SWAP1 SWAP3 MSTORE SWAP1 DUP3 ADD MSTORE PUSH1 0x60 ADD PUSH2 0x2A3 JUMP JUMPDEST PUSH2 0x2E4 PUSH2 0x2DF CALLDATASIZE PUSH1 0x4 PUSH2 0x2F56 JUMP JUMPDEST PUSH2 0xE0C JUMP JUMPDEST PUSH1 0x40 MLOAD SWAP1 ISZERO ISZERO DUP2 MSTORE PUSH1 0x20 ADD PUSH2 0x2A3 JUMP JUMPDEST PUSH2 0x31B PUSH32 0x0 DUP2 JUMP JUMPDEST PUSH1 0x40 MLOAD PUSH1 0x1 PUSH1 0x1 PUSH1 0xA0 SHL SUB SWAP1 SWAP2 AND DUP2 MSTORE PUSH1 0x20 ADD PUSH2 0x2A3 JUMP JUMPDEST PUSH2 0x346 PUSH2 0x341 CALLDATASIZE PUSH1 0x4 PUSH2 0x2F80 JUMP JUMPDEST PUSH2 0xE79 JUMP JUMPDEST PUSH1 0x40 MLOAD PUSH2 0x2A3 SWAP2 SWAP1 PUSH2 0x2FB9 JUMP JUMPDEST PUSH2 0x35C PUSH1 0x2 SLOAD DUP2 JUMP JUMPDEST PUSH1 0x40 MLOAD SWAP1 DUP2 MSTORE PUSH1 0x20 ADD PUSH2 0x2A3 JUMP JUMPDEST PUSH2 0x2B6 PUSH2 0x1081 JUMP JUMPDEST PUSH2 0x35C PUSH2 0x380 CALLDATASIZE PUSH1 0x4 PUSH2 0x2FFD JUMP JUMPDEST PUSH1 0x10 PUSH1 0x20 MSTORE PUSH1 0x0 SWAP1 DUP2 MSTORE PUSH1 0x40 SWAP1 KECCAK256 SLOAD DUP2 JUMP JUMPDEST PUSH2 0x2E4 PUSH32 0x0 DUP2 JUMP JUMPDEST PUSH2 0x2E4 PUSH2 0x3C7 CALLDATASIZE PUSH1 0x4 PUSH2 0x3018 JUMP JUMPDEST PUSH2 0x10F0 JUMP JUMPDEST PUSH2 0x2B6 PUSH2 0x3DA CALLDATASIZE PUSH1 0x4 PUSH2 0x3054 JUMP JUMPDEST PUSH2 0x11B9 JUMP JUMPDEST PUSH2 0x3E7 PUSH1 0x12 DUP2 JUMP JUMPDEST PUSH1 0x40 MLOAD PUSH1 0xFF SWAP1 SWAP2 AND DUP2 MSTORE PUSH1 0x20 ADD PUSH2 0x2A3 JUMP JUMPDEST PUSH2 0x35C PUSH1 0xD SLOAD DUP2 JUMP JUMPDEST PUSH1 0x8 SLOAD PUSH1 0x9 SLOAD PUSH1 0x40 DUP1 MLOAD PUSH32 0x0 DUP2 MSTORE PUSH32 0x0 PUSH1 0x20 DUP3 ADD MSTORE SWAP1 DUP2 ADD SWAP3 SWAP1 SWAP3 MSTORE PUSH1 0x60 DUP3 ADD MSTORE PUSH32 0x0 ISZERO ISZERO PUSH1 0x80 DUP3 ADD MSTORE PUSH1 0x1 PUSH1 0x1 PUSH1 0xA0 SHL SUB PUSH32 0x0 DUP2 AND PUSH1 0xA0 DUP4 ADD MSTORE PUSH32 0x0 AND PUSH1 0xC0 DUP3 ADD MSTORE PUSH1 0xE0 ADD PUSH2 0x2A3 JUMP JUMPDEST PUSH2 0x35C PUSH1 0x8 SLOAD DUP2 JUMP JUMPDEST PUSH2 0x35C PUSH2 0x4FF CALLDATASIZE PUSH1 0x4 PUSH2 0x2FFD JUMP JUMPDEST PUSH1 0x11 PUSH1 0x20 MSTORE PUSH1 0x0 SWAP1 DUP2 MSTORE PUSH1 0x40 SWAP1 KECCAK256 SLOAD DUP2 JUMP JUMPDEST PUSH2 0x35C PUSH2 0x51F CALLDATASIZE PUSH1 0x4 PUSH2 0x2F56 JUMP JUMPDEST PUSH2 0x11EC JUMP JUMPDEST PUSH2 0x346 PUSH2 0x532 CALLDATASIZE PUSH1 0x4 PUSH2 0x306D JUMP JUMPDEST PUSH2 0x12D5 JUMP JUMPDEST PUSH2 0x35C PUSH1 0x9 SLOAD DUP2 JUMP JUMPDEST PUSH2 0x35C PUSH2 0x54E CALLDATASIZE PUSH1 0x4 PUSH2 0x2FFD JUMP JUMPDEST PUSH2 0x12E4 JUMP JUMPDEST PUSH2 0x35C PUSH2 0x561 CALLDATASIZE PUSH1 0x4 PUSH2 0x2FFD JUMP JUMPDEST PUSH1 0x4 PUSH1 0x20 MSTORE PUSH1 0x0 SWAP1 DUP2 MSTORE PUSH1 0x40 SWAP1 KECCAK256 SLOAD DUP2 JUMP JUMPDEST PUSH2 0x35C PUSH2 0x581 CALLDATASIZE PUSH1 0x4 PUSH2 0x2FFD JUMP JUMPDEST PUSH1 0x6 PUSH1 0x20 MSTORE PUSH1 0x0 SWAP1 DUP2 MSTORE PUSH1 0x40 SWAP1 KECCAK256 SLOAD DUP2 JUMP JUMPDEST PUSH2 0x5A6 PUSH2 0x5A1 CALLDATASIZE PUSH1 0x4 PUSH2 0x2FFD JUMP JUMPDEST PUSH2 0x1541 JUMP JUMPDEST PUSH1 0x40 DUP1 MLOAD SWAP3 DUP4 MSTORE PUSH1 0x20 DUP4 ADD SWAP2 SWAP1 SWAP2 MSTORE ADD PUSH2 0x2A3 JUMP JUMPDEST PUSH2 0x5C3 PUSH2 0x185E JUMP JUMPDEST PUSH1 0x40 DUP1 MLOAD DUP3 MLOAD DUP2 MSTORE PUSH1 0x20 DUP1 DUP5 ADD MLOAD SWAP1 DUP3 ADD MSTORE SWAP2 DUP2 ADD MLOAD SWAP1 DUP3 ADD MSTORE PUSH1 0x60 ADD PUSH2 0x2A3 JUMP JUMPDEST PUSH2 0x296 PUSH2 0x18DE JUMP JUMPDEST PUSH2 0x31B PUSH32 0x0 DUP2 JUMP JUMPDEST PUSH1 0x40 DUP1 MLOAD PUSH1 0x1 PUSH1 0x1 PUSH1 0xA0 SHL SUB PUSH32 0x0 DUP2 AND DUP3 MSTORE PUSH32 0x0 AND PUSH1 0x20 DUP3 ADD MSTORE ADD PUSH2 0x2A3 JUMP JUMPDEST PUSH2 0x35C PUSH2 0x680 CALLDATASIZE PUSH1 0x4 PUSH2 0x306D JUMP JUMPDEST PUSH2 0x18EB JUMP JUMPDEST PUSH2 0x35C PUSH2 0x693 CALLDATASIZE PUSH1 0x4 PUSH2 0x2FFD JUMP JUMPDEST PUSH1 0xF PUSH1 0x20 MSTORE PUSH1 0x0 SWAP1 DUP2 MSTORE PUSH1 0x40 SWAP1 KECCAK256 SLOAD DUP2 JUMP JUMPDEST PUSH2 0x35C PUSH2 0x6B3 CALLDATASIZE PUSH1 0x4 PUSH2 0x2FFD JUMP JUMPDEST PUSH1 0x12 PUSH1 0x20 MSTORE PUSH1 0x0 SWAP1 DUP2 MSTORE PUSH1 0x40 SWAP1 KECCAK256 SLOAD DUP2 JUMP JUMPDEST PUSH2 0x2E4 PUSH2 0x6D3 CALLDATASIZE PUSH1 0x4 PUSH2 0x2F56 JUMP JUMPDEST PUSH2 0x1958 JUMP JUMPDEST PUSH2 0x28C PUSH2 0x6E6 CALLDATASIZE PUSH1 0x4 PUSH2 0x2FFD JUMP JUMPDEST PUSH2 0x196E JUMP JUMPDEST PUSH2 0x35C PUSH1 0xE SLOAD DUP2 JUMP JUMPDEST PUSH2 0x35C PUSH1 0xB SLOAD DUP2 JUMP JUMPDEST PUSH2 0x35C PUSH1 0xC SLOAD DUP2 JUMP JUMPDEST PUSH2 0x35C PUSH1 0xA SLOAD DUP2 JUMP JUMPDEST PUSH2 0x31B PUSH32 0x0 DUP2 JUMP JUMPDEST PUSH2 0x5A6 PUSH2 0x1A8C JUMP JUMPDEST PUSH2 0x28C PUSH2 0x74C CALLDATASIZE PUSH1 0x4 PUSH2 0x30A0 JUMP JUMPDEST PUSH2 0x1BB3 JUMP JUMPDEST PUSH2 0x35C PUSH2 0x75F CALLDATASIZE PUSH1 0x4 PUSH2 0x3113 JUMP JUMPDEST PUSH1 0x3 PUSH1 0x20 SWAP1 DUP2 MSTORE PUSH1 0x0 SWAP3 DUP4 MSTORE PUSH1 0x40 DUP1 DUP5 KECCAK256 SWAP1 SWAP2 MSTORE SWAP1 DUP3 MSTORE SWAP1 KECCAK256 SLOAD DUP2 JUMP JUMPDEST PUSH1 0x7 SLOAD PUSH2 0x35C JUMP JUMPDEST PUSH2 0x35C PUSH2 0x792 CALLDATASIZE PUSH1 0x4 PUSH2 0x3146 JUMP JUMPDEST PUSH2 0x1EA8 JUMP JUMPDEST PUSH2 0x28C PUSH2 0x1EDF JUMP JUMPDEST PUSH1 0x13 SLOAD PUSH1 0x1 EQ PUSH2 0x7AE JUMPI PUSH1 0x0 DUP1 REVERT JUMPDEST PUSH1 0x2 PUSH1 0x13 DUP2 SWAP1 SSTORE POP PUSH32 0x0 PUSH1 0x1 PUSH1 0x1 PUSH1 0xA0 SHL SUB AND PUSH4 0xB187BD26 PUSH1 0x40 MLOAD DUP2 PUSH4 0xFFFFFFFF AND PUSH1 0xE0 SHL DUP2 MSTORE PUSH1 0x4 ADD PUSH1 0x20 PUSH1 0x40 MLOAD DUP1 DUP4 SUB DUP2 DUP7 GAS STATICCALL ISZERO DUP1 ISZERO PUSH2 0x814 JUMPI RETURNDATASIZE PUSH1 0x0 DUP1 RETURNDATACOPY RETURNDATASIZE PUSH1 0x0 REVERT JUMPDEST POP POP POP POP PUSH1 0x40 MLOAD RETURNDATASIZE PUSH1 0x1F NOT PUSH1 0x1F DUP3 ADD AND DUP3 ADD DUP1 PUSH1 0x40 MSTORE POP DUP2 ADD SWAP1 PUSH2 0x838 SWAP2 SWAP1 PUSH2 0x3169 JUMP JUMPDEST ISZERO PUSH2 0x842 JUMPI PUSH1 0x0 DUP1 REVERT JUMPDEST PUSH1 0x0 DUP6 GT DUP1 PUSH2 0x851 JUMPI POP PUSH1 0x0 DUP5 GT JUMPDEST PUSH2 0x888 JUMPI PUSH1 0x40 MLOAD PUSH3 0x461BCD PUSH1 0xE5 SHL DUP2 MSTORE PUSH1 0x20 PUSH1 0x4 DUP3 ADD MSTORE PUSH1 0x3 PUSH1 0x24 DUP3 ADD MSTORE PUSH3 0x494F41 PUSH1 0xE8 SHL PUSH1 0x44 DUP3 ADD MSTORE PUSH1 0x64 ADD JUMPDEST PUSH1 0x40 MLOAD DUP1 SWAP2 SUB SWAP1 REVERT JUMPDEST PUSH1 0x8 SLOAD PUSH1 0x9 SLOAD DUP2 DUP8 LT DUP1 ISZERO PUSH2 0x89C JUMPI POP DUP1 DUP7 LT JUMPDEST PUSH2 0x8CD JUMPI PUSH1 0x40 MLOAD PUSH3 0x461BCD PUSH1 0xE5 SHL DUP2 MSTORE PUSH1 0x20 PUSH1 0x4 DUP3 ADD MSTORE PUSH1 0x2 PUSH1 0x24 DUP3 ADD MSTORE PUSH2 0x1253 PUSH1 0xF2 SHL PUSH1 0x44 DUP3 ADD MSTORE PUSH1 0x64 ADD PUSH2 0x87F JUMP JUMPDEST PUSH1 0x0 DUP1 PUSH32 0x0 PUSH32 0x0 PUSH1 0x1 PUSH1 0x1 PUSH1 0xA0 SHL SUB DUP10 DUP2 AND SWAP1 DUP4 AND EQ DUP1 ISZERO SWAP1 PUSH2 0x940 JUMPI POP DUP1 PUSH1 0x1 PUSH1 0x1 PUSH1 0xA0 SHL SUB AND DUP10 PUSH1 0x1 PUSH1 0x1 PUSH1 0xA0 SHL SUB AND EQ ISZERO JUMPDEST PUSH2 0x971 JUMPI PUSH1 0x40 MLOAD PUSH3 0x461BCD PUSH1 0xE5 SHL DUP2 MSTORE PUSH1 0x20 PUSH1 0x4 DUP3 ADD MSTORE PUSH1 0x2 PUSH1 0x24 DUP3 ADD MSTORE PUSH2 0x1255 PUSH1 0xF2 SHL PUSH1 0x44 DUP3 ADD MSTORE PUSH1 0x64 ADD PUSH2 0x87F JUMP JUMPDEST DUP11 ISZERO PUSH2 0x982 JUMPI PUSH2 0x982 DUP3 DUP11 DUP14 PUSH2 0x2019 JUMP JUMPDEST DUP10 ISZERO PUSH2 0x993 JUMPI PUSH2 0x993 DUP2 DUP11 DUP13 PUSH2 0x2019 JUMP JUMPDEST DUP7 ISZERO PUSH2 0xA00 JUMPI PUSH1 0x40 MLOAD PUSH4 0x9A7BFF79 PUSH1 0xE0 SHL DUP2 MSTORE PUSH1 0x1 PUSH1 0x1 PUSH1 0xA0 SHL SUB DUP11 AND SWAP1 PUSH4 0x9A7BFF79 SWAP1 PUSH2 0x9CD SWAP1 CALLER SWAP1 DUP16 SWAP1 DUP16 SWAP1 DUP15 SWAP1 DUP15 SWAP1 PUSH1 0x4 ADD PUSH2 0x318B JUMP JUMPDEST PUSH1 0x0 PUSH1 0x40 MLOAD DUP1 DUP4 SUB DUP2 PUSH1 0x0 DUP8 DUP1 EXTCODESIZE ISZERO DUP1 ISZERO PUSH2 0x9E7 JUMPI PUSH1 0x0 DUP1 REVERT JUMPDEST POP GAS CALL ISZERO DUP1 ISZERO PUSH2 0x9FB JUMPI RETURNDATASIZE PUSH1 0x0 DUP1 RETURNDATACOPY RETURNDATASIZE PUSH1 0x0 REVERT JUMPDEST POP POP POP POP JUMPDEST PUSH1 0x40 MLOAD PUSH4 0x70A08231 PUSH1 0xE0 SHL DUP2 MSTORE ADDRESS PUSH1 0x4 DUP3 ADD MSTORE PUSH1 0x1 PUSH1 0x1 PUSH1 0xA0 SHL SUB DUP4 AND SWAP1 PUSH4 0x70A08231 SWAP1 PUSH1 0x24 ADD PUSH1 0x20 PUSH1 0x40 MLOAD DUP1 DUP4 SUB DUP2 DUP7 GAS STATICCALL ISZERO DUP1 ISZERO PUSH2 0xA44 JUMPI RETURNDATASIZE PUSH1 0x0 DUP1 RETURNDATACOPY RETURNDATASIZE PUSH1 0x0 REVERT JUMPDEST POP POP POP POP PUSH1 0x40 MLOAD RETURNDATASIZE PUSH1 0x1F NOT PUSH1 0x1F DUP3 ADD AND DUP3 ADD DUP1 PUSH1 0x40 MSTORE POP DUP2 ADD SWAP1 PUSH2 0xA68 SWAP2 SWAP1 PUSH2 0x31D7 JUMP JUMPDEST PUSH1 0x40 MLOAD PUSH4 0x70A08231 PUSH1 0xE0 SHL DUP2 MSTORE ADDRESS PUSH1 0x4 DUP3 ADD MSTORE SWAP1 SWAP5 POP PUSH1 0x1 PUSH1 0x1 PUSH1 0xA0 SHL SUB DUP3 AND SWAP1 PUSH4 0x70A08231 SWAP1 PUSH1 0x24 ADD PUSH1 0x20 PUSH1 0x40 MLOAD DUP1 DUP4 SUB DUP2 DUP7 GAS STATICCALL ISZERO DUP1 ISZERO PUSH2 0xAAF JUMPI RETURNDATASIZE PUSH1 0x0 DUP1 RETURNDATACOPY RETURNDATASIZE PUSH1 0x0 REVERT JUMPDEST POP POP POP POP PUSH1 0x40 MLOAD RETURNDATASIZE PUSH1 0x1F NOT PUSH1 0x1F DUP3 ADD AND DUP3 ADD DUP1 PUSH1 0x40 MSTORE POP DUP2 ADD SWAP1 PUSH2 0xAD3 SWAP2 SWAP1 PUSH2 0x31D7 JUMP JUMPDEST SWAP3 POP POP POP PUSH1 0x0 DUP10 DUP6 PUSH2 0xAE5 SWAP2 SWAP1 PUSH2 0x3206 JUMP JUMPDEST DUP4 GT PUSH2 0xAF2 JUMPI PUSH1 0x0 PUSH2 0xB06 JUMP JUMPDEST PUSH2 0xAFC DUP11 DUP7 PUSH2 0x3206 JUMP JUMPDEST PUSH2 0xB06 SWAP1 DUP5 PUSH2 0x3206 JUMP JUMPDEST SWAP1 POP PUSH1 0x0 PUSH2 0xB14 DUP11 DUP7 PUSH2 0x3206 JUMP JUMPDEST DUP4 GT PUSH2 0xB21 JUMPI PUSH1 0x0 PUSH2 0xB35 JUMP JUMPDEST PUSH2 0xB2B DUP11 DUP7 PUSH2 0x3206 JUMP JUMPDEST PUSH2 0xB35 SWAP1 DUP5 PUSH2 0x3206 JUMP JUMPDEST SWAP1 POP PUSH1 0x0 DUP3 GT DUP1 PUSH2 0xB46 JUMPI POP PUSH1 0x0 DUP2 GT JUMPDEST PUSH2 0xB78 JUMPI PUSH1 0x40 MLOAD PUSH3 0x461BCD PUSH1 0xE5 SHL DUP2 MSTORE PUSH1 0x20 PUSH1 0x4 DUP3 ADD MSTORE PUSH1 0x3 PUSH1 0x24 DUP3 ADD MSTORE PUSH3 0x494941 PUSH1 0xE8 SHL PUSH1 0x44 DUP3 ADD MSTORE PUSH1 0x64 ADD PUSH2 0x87F JUMP JUMPDEST PUSH32 0x0 PUSH32 0x0 DUP4 ISZERO PUSH2 0xBD4 JUMPI PUSH2 0xBD4 PUSH2 0xBCF PUSH2 0x2710 DUP7 PUSH2 0x321D JUMP JUMPDEST PUSH2 0x2108 JUMP JUMPDEST DUP3 ISZERO PUSH2 0xBEE JUMPI PUSH2 0xBEE PUSH2 0xBE9 PUSH2 0x2710 DUP6 PUSH2 0x321D JUMP JUMPDEST PUSH2 0x21D5 JUMP JUMPDEST PUSH1 0x40 MLOAD PUSH4 0x70A08231 PUSH1 0xE0 SHL DUP2 MSTORE ADDRESS PUSH1 0x4 DUP3 ADD MSTORE PUSH1 0x1 PUSH1 0x1 PUSH1 0xA0 SHL SUB DUP4 AND SWAP1 PUSH4 0x70A08231 SWAP1 PUSH1 0x24 ADD PUSH1 0x20 PUSH1 0x40 MLOAD DUP1 DUP4 SUB DUP2 DUP7 GAS STATICCALL ISZERO DUP1 ISZERO PUSH2 0xC32 JUMPI RETURNDATASIZE PUSH1 0x0 DUP1 RETURNDATACOPY RETURNDATASIZE PUSH1 0x0 REVERT JUMPDEST POP POP POP POP PUSH1 0x40 MLOAD RETURNDATASIZE PUSH1 0x1F NOT PUSH1 0x1F DUP3 ADD AND DUP3 ADD DUP1 PUSH1 0x40 MSTORE POP DUP2 ADD SWAP1 PUSH2 0xC56 SWAP2 SWAP1 PUSH2 0x31D7 JUMP JUMPDEST PUSH1 0x40 MLOAD PUSH4 0x70A08231 PUSH1 0xE0 SHL DUP2 MSTORE ADDRESS PUSH1 0x4 DUP3 ADD MSTORE SWAP1 SWAP7 POP PUSH1 0x1 PUSH1 0x1 PUSH1 0xA0 SHL SUB DUP3 AND SWAP1 PUSH4 0x70A08231 SWAP1 PUSH1 0x24 ADD PUSH1 0x20 PUSH1 0x40 MLOAD DUP1 DUP4 SUB DUP2 DUP7 GAS STATICCALL ISZERO DUP1 ISZERO PUSH2 0xC9D JUMPI RETURNDATASIZE PUSH1 0x0 DUP1 RETURNDATACOPY RETURNDATASIZE PUSH1 0x0 REVERT JUMPDEST POP POP POP POP PUSH1 0x40 MLOAD RETURNDATASIZE PUSH1 0x1F NOT PUSH1 0x1F DUP3 ADD AND DUP3 ADD DUP1 PUSH1 0x40 MSTORE POP DUP2 ADD SWAP1 PUSH2 0xCC1 SWAP2 SWAP1 PUSH2 0x31D7 JUMP JUMPDEST SWAP5 POP PUSH2 0xCCD DUP9 DUP9 PUSH2 0x229B JUMP JUMPDEST PUSH2 0xCD7 DUP8 DUP8 PUSH2 0x229B JUMP JUMPDEST LT ISZERO PUSH2 0xD09 JUMPI PUSH1 0x40 MLOAD PUSH3 0x461BCD PUSH1 0xE5 SHL DUP2 MSTORE PUSH1 0x20 PUSH1 0x4 DUP3 ADD MSTORE PUSH1 0x1 PUSH1 0x24 DUP3 ADD MSTORE PUSH1 0x4B PUSH1 0xF8 SHL PUSH1 0x44 DUP3 ADD MSTORE PUSH1 0x64 ADD PUSH2 0x87F JUMP JUMPDEST POP POP PUSH2 0xD17 DUP5 DUP5 DUP9 DUP9 PUSH2 0x23E7 JUMP JUMPDEST PUSH1 0x40 DUP1 MLOAD DUP4 DUP2 MSTORE PUSH1 0x20 DUP2 ADD DUP4 SWAP1 MSTORE SWAP1 DUP2 ADD DUP13 SWAP1 MSTORE PUSH1 0x60 DUP2 ADD DUP12 SWAP1 MSTORE PUSH1 0x1 PUSH1 0x1 PUSH1 0xA0 SHL SUB DUP11 AND SWAP1 CALLER SWAP1 PUSH32 0xD78AD95FA46C994B6551D0DA85FC275FE613CE37657FB8D5E3D130840159D822 SWAP1 PUSH1 0x80 ADD PUSH1 0x40 MLOAD DUP1 SWAP2 SUB SWAP1 LOG3 POP POP PUSH1 0x1 PUSH1 0x13 SSTORE POP POP POP POP POP POP POP POP POP JUMP JUMPDEST PUSH1 0x0 DUP1 SLOAD PUSH2 0xD8B SWAP1 PUSH2 0x323F JUMP JUMPDEST DUP1 PUSH1 0x1F ADD PUSH1 0x20 DUP1 SWAP2 DIV MUL PUSH1 0x20 ADD PUSH1 0x40 MLOAD SWAP1 DUP2 ADD PUSH1 0x40 MSTORE DUP1 SWAP3 SWAP2 SWAP1 DUP2 DUP2 MSTORE PUSH1 0x20 ADD DUP3 DUP1 SLOAD PUSH2 0xDB7 SWAP1 PUSH2 0x323F JUMP JUMPDEST DUP1 ISZERO PUSH2 0xE04 JUMPI DUP1 PUSH1 0x1F LT PUSH2 0xDD9 JUMPI PUSH2 0x100 DUP1 DUP4 SLOAD DIV MUL DUP4 MSTORE SWAP2 PUSH1 0x20 ADD SWAP2 PUSH2 0xE04 JUMP JUMPDEST DUP3 ADD SWAP2 SWAP1 PUSH1 0x0 MSTORE PUSH1 0x20 PUSH1 0x0 KECCAK256 SWAP1 JUMPDEST DUP2 SLOAD DUP2 MSTORE SWAP1 PUSH1 0x1 ADD SWAP1 PUSH1 0x20 ADD DUP1 DUP4 GT PUSH2 0xDE7 JUMPI DUP3 SWAP1 SUB PUSH1 0x1F AND DUP3 ADD SWAP2 JUMPDEST POP POP POP POP POP DUP2 JUMP JUMPDEST CALLER PUSH1 0x0 DUP2 DUP2 MSTORE PUSH1 0x3 PUSH1 0x20 SWAP1 DUP2 MSTORE PUSH1 0x40 DUP1 DUP4 KECCAK256 PUSH1 0x1 PUSH1 0x1 PUSH1 0xA0 SHL SUB DUP8 AND DUP1 DUP6 MSTORE SWAP3 MSTORE DUP1 DUP4 KECCAK256 DUP6 SWAP1 SSTORE MLOAD SWAP2 SWAP3 SWAP1 SWAP2 PUSH32 0x8C5BE1E5EBEC7D5BD14F71427D1E84F3DD0314C0F7B2291E5B200AC8C7C3B925 SWAP1 PUSH2 0xE67 SWAP1 DUP7 DUP2 MSTORE PUSH1 0x20 ADD SWAP1 JUMP JUMPDEST PUSH1 0x40 MLOAD DUP1 SWAP2 SUB SWAP1 LOG3 POP PUSH1 0x1 JUMPDEST SWAP3 SWAP2 POP POP JUMP JUMPDEST PUSH1 0x60 PUSH1 0x0 DUP4 PUSH8 0xFFFFFFFFFFFFFFFF DUP2 GT ISZERO PUSH2 0xE96 JUMPI PUSH2 0xE96 PUSH2 0x3274 JUMP JUMPDEST PUSH1 0x40 MLOAD SWAP1 DUP1 DUP3 MSTORE DUP1 PUSH1 0x20 MUL PUSH1 0x20 ADD DUP3 ADD PUSH1 0x40 MSTORE DUP1 ISZERO PUSH2 0xEBF JUMPI DUP2 PUSH1 0x20 ADD PUSH1 0x20 DUP3 MUL DUP1 CALLDATASIZE DUP4 CALLDATACOPY ADD SWAP1 POP JUMPDEST POP PUSH1 0x7 SLOAD SWAP1 SWAP2 POP PUSH1 0x0 SWAP1 PUSH2 0xED5 SWAP1 PUSH1 0x1 SWAP1 PUSH2 0x3206 JUMP JUMPDEST SWAP1 POP PUSH1 0x0 PUSH2 0xEE3 DUP6 DUP8 PUSH2 0x328A JUMP JUMPDEST PUSH2 0xEED SWAP1 DUP4 PUSH2 0x3206 JUMP JUMPDEST SWAP1 POP PUSH1 0x0 DUP1 JUMPDEST DUP4 DUP4 LT ISZERO PUSH2 0x1071 JUMPI PUSH2 0xF05 DUP8 DUP5 PUSH2 0x32A9 JUMP JUMPDEST SWAP2 POP PUSH1 0x0 PUSH1 0x7 DUP5 DUP2 SLOAD DUP2 LT PUSH2 0xF1C JUMPI PUSH2 0xF1C PUSH2 0x32C1 JUMP JUMPDEST SWAP1 PUSH1 0x0 MSTORE PUSH1 0x20 PUSH1 0x0 KECCAK256 SWAP1 PUSH1 0x3 MUL ADD PUSH1 0x0 ADD SLOAD PUSH1 0x7 DUP5 DUP2 SLOAD DUP2 LT PUSH2 0xF41 JUMPI PUSH2 0xF41 PUSH2 0x32C1 JUMP JUMPDEST SWAP1 PUSH1 0x0 MSTORE PUSH1 0x20 PUSH1 0x0 KECCAK256 SWAP1 PUSH1 0x3 MUL ADD PUSH1 0x0 ADD SLOAD PUSH2 0xF5D SWAP2 SWAP1 PUSH2 0x3206 JUMP JUMPDEST SWAP1 POP PUSH1 0x0 DUP2 PUSH1 0x7 DUP7 DUP2 SLOAD DUP2 LT PUSH2 0xF75 JUMPI PUSH2 0xF75 PUSH2 0x32C1 JUMP JUMPDEST SWAP1 PUSH1 0x0 MSTORE PUSH1 0x20 PUSH1 0x0 KECCAK256 SWAP1 PUSH1 0x3 MUL ADD PUSH1 0x1 ADD SLOAD PUSH1 0x7 DUP7 DUP2 SLOAD DUP2 LT PUSH2 0xF9A JUMPI PUSH2 0xF9A PUSH2 0x32C1 JUMP JUMPDEST SWAP1 PUSH1 0x0 MSTORE PUSH1 0x20 PUSH1 0x0 KECCAK256 SWAP1 PUSH1 0x3 MUL ADD PUSH1 0x1 ADD SLOAD PUSH2 0xFB6 SWAP2 SWAP1 PUSH2 0x3206 JUMP JUMPDEST PUSH2 0xFC0 SWAP2 SWAP1 PUSH2 0x321D JUMP JUMPDEST SWAP1 POP PUSH1 0x0 DUP3 PUSH1 0x7 DUP8 DUP2 SLOAD DUP2 LT PUSH2 0xFD8 JUMPI PUSH2 0xFD8 PUSH2 0x32C1 JUMP JUMPDEST SWAP1 PUSH1 0x0 MSTORE PUSH1 0x20 PUSH1 0x0 KECCAK256 SWAP1 PUSH1 0x3 MUL ADD PUSH1 0x2 ADD SLOAD PUSH1 0x7 DUP8 DUP2 SLOAD DUP2 LT PUSH2 0xFFD JUMPI PUSH2 0xFFD PUSH2 0x32C1 JUMP JUMPDEST SWAP1 PUSH1 0x0 MSTORE PUSH1 0x20 PUSH1 0x0 KECCAK256 SWAP1 PUSH1 0x3 MUL ADD PUSH1 0x2 ADD SLOAD PUSH2 0x1019 SWAP2 SWAP1 PUSH2 0x3206 JUMP JUMPDEST PUSH2 0x1023 SWAP2 SWAP1 PUSH2 0x321D JUMP JUMPDEST SWAP1 POP PUSH2 0x1031 DUP13 DUP15 DUP5 DUP5 PUSH2 0x257B JUMP JUMPDEST DUP9 DUP6 DUP2 MLOAD DUP2 LT PUSH2 0x1043 JUMPI PUSH2 0x1043 PUSH2 0x32C1 JUMP JUMPDEST PUSH1 0x20 SWAP1 DUP2 MUL SWAP2 SWAP1 SWAP2 ADD ADD MSTORE PUSH2 0x1059 DUP5 PUSH1 0x1 PUSH2 0x32A9 JUMP JUMPDEST SWAP4 POP POP POP POP DUP7 DUP4 PUSH2 0x106A SWAP2 SWAP1 PUSH2 0x32A9 JUMP JUMPDEST SWAP3 POP PUSH2 0xEF3 JUMP JUMPDEST POP SWAP3 SWAP4 POP POP POP POP JUMPDEST SWAP5 SWAP4 POP POP POP POP JUMP JUMPDEST PUSH1 0xB SLOAD PUSH1 0xC SLOAD TIMESTAMP PUSH1 0x0 DUP1 DUP1 PUSH2 0x109F PUSH1 0x8 SLOAD PUSH1 0x9 SLOAD PUSH1 0xA SLOAD SWAP2 SWAP3 SWAP1 SWAP2 SWAP1 JUMP JUMPDEST SWAP3 POP SWAP3 POP SWAP3 POP DUP4 DUP2 EQ PUSH2 0x10E8 JUMPI PUSH1 0x0 PUSH2 0x10B8 DUP3 DUP7 PUSH2 0x3206 JUMP JUMPDEST SWAP1 POP PUSH2 0x10C4 DUP2 DUP6 PUSH2 0x328A JUMP JUMPDEST PUSH2 0x10CE SWAP1 DUP9 PUSH2 0x32A9 JUMP JUMPDEST SWAP7 POP PUSH2 0x10DA DUP2 DUP5 PUSH2 0x328A JUMP JUMPDEST PUSH2 0x10E4 SWAP1 DUP8 PUSH2 0x32A9 JUMP JUMPDEST SWAP6 POP POP JUMPDEST POP POP POP SWAP1 SWAP2 SWAP3 JUMP JUMPDEST PUSH1 0x1 PUSH1 0x1 PUSH1 0xA0 SHL SUB DUP4 AND PUSH1 0x0 DUP2 DUP2 MSTORE PUSH1 0x3 PUSH1 0x20 SWAP1 DUP2 MSTORE PUSH1 0x40 DUP1 DUP4 KECCAK256 CALLER DUP1 DUP6 MSTORE SWAP3 MSTORE DUP3 KECCAK256 SLOAD SWAP2 SWAP3 SWAP1 SWAP2 SWAP1 DUP3 EQ DUP1 ISZERO SWAP1 PUSH2 0x112A JUMPI POP PUSH1 0x0 NOT DUP2 EQ ISZERO JUMPDEST ISZERO PUSH2 0x11A0 JUMPI PUSH1 0x0 PUSH2 0x113B DUP6 DUP4 PUSH2 0x3206 JUMP JUMPDEST PUSH1 0x1 PUSH1 0x1 PUSH1 0xA0 SHL SUB DUP9 DUP2 AND PUSH1 0x0 DUP2 DUP2 MSTORE PUSH1 0x3 PUSH1 0x20 SWAP1 DUP2 MSTORE PUSH1 0x40 DUP1 DUP4 KECCAK256 SWAP5 DUP10 AND DUP1 DUP5 MSTORE SWAP5 DUP3 MSTORE SWAP2 DUP3 SWAP1 KECCAK256 DUP6 SWAP1 SSTORE SWAP1 MLOAD DUP5 DUP2 MSTORE SWAP4 SWAP5 POP SWAP2 SWAP3 SWAP1 SWAP2 PUSH32 0x8C5BE1E5EBEC7D5BD14F71427D1E84F3DD0314C0F7B2291E5B200AC8C7C3B925 SWAP2 ADD PUSH1 0x40 MLOAD DUP1 SWAP2 SUB SWAP1 LOG3 POP JUMPDEST PUSH2 0x11AB DUP7 DUP7 DUP7 PUSH2 0x2870 JUMP JUMPDEST PUSH1 0x1 SWAP3 POP POP POP JUMPDEST SWAP4 SWAP3 POP POP POP JUMP JUMPDEST PUSH1 0x7 DUP2 DUP2 SLOAD DUP2 LT PUSH2 0x11C9 JUMPI PUSH1 0x0 DUP1 REVERT JUMPDEST PUSH1 0x0 SWAP2 DUP3 MSTORE PUSH1 0x20 SWAP1 SWAP2 KECCAK256 PUSH1 0x3 SWAP1 SWAP2 MUL ADD DUP1 SLOAD PUSH1 0x1 DUP3 ADD SLOAD PUSH1 0x2 SWAP1 SWAP3 ADD SLOAD SWAP1 SWAP3 POP DUP4 JUMP JUMPDEST PUSH1 0x0 DUP1 PUSH2 0x11F7 PUSH2 0x185E JUMP JUMPDEST SWAP1 POP PUSH1 0x0 DUP1 PUSH2 0x1204 PUSH2 0x1081 JUMP JUMPDEST POP DUP5 MLOAD SWAP2 SWAP4 POP SWAP2 POP TIMESTAMP EQ ISZERO PUSH2 0x126D JUMPI PUSH1 0x7 DUP1 SLOAD PUSH2 0x1223 SWAP1 PUSH1 0x2 SWAP1 PUSH2 0x3206 JUMP JUMPDEST DUP2 SLOAD DUP2 LT PUSH2 0x1233 JUMPI PUSH2 0x1233 PUSH2 0x32C1 JUMP JUMPDEST SWAP1 PUSH1 0x0 MSTORE PUSH1 0x20 PUSH1 0x0 KECCAK256 SWAP1 PUSH1 0x3 MUL ADD PUSH1 0x40 MLOAD DUP1 PUSH1 0x60 ADD PUSH1 0x40 MSTORE SWAP1 DUP2 PUSH1 0x0 DUP3 ADD SLOAD DUP2 MSTORE PUSH1 0x20 ADD PUSH1 0x1 DUP3 ADD SLOAD DUP2 MSTORE PUSH1 0x20 ADD PUSH1 0x2 DUP3 ADD SLOAD DUP2 MSTORE POP POP SWAP3 POP JUMPDEST DUP3 MLOAD PUSH1 0x0 SWAP1 PUSH2 0x127C SWAP1 TIMESTAMP PUSH2 0x3206 JUMP JUMPDEST SWAP1 POP PUSH1 0x0 DUP2 DUP6 PUSH1 0x20 ADD MLOAD DUP6 PUSH2 0x1291 SWAP2 SWAP1 PUSH2 0x3206 JUMP JUMPDEST PUSH2 0x129B SWAP2 SWAP1 PUSH2 0x321D JUMP JUMPDEST SWAP1 POP PUSH1 0x0 DUP3 DUP7 PUSH1 0x40 ADD MLOAD DUP6 PUSH2 0x12B0 SWAP2 SWAP1 PUSH2 0x3206 JUMP JUMPDEST PUSH2 0x12BA SWAP2 SWAP1 PUSH2 0x321D JUMP JUMPDEST SWAP1 POP PUSH2 0x12C8 DUP9 DUP11 DUP5 DUP5 PUSH2 0x257B JUMP JUMPDEST SWAP10 SWAP9 POP POP POP POP POP POP POP POP POP JUMP JUMPDEST PUSH1 0x60 PUSH2 0x1079 DUP5 DUP5 DUP5 PUSH1 0x1 PUSH2 0xE79 JUMP JUMPDEST PUSH1 0x0 PUSH1 0x13 SLOAD PUSH1 0x1 EQ PUSH2 0x12F5 JUMPI PUSH1 0x0 DUP1 REVERT JUMPDEST PUSH1 0x2 PUSH1 0x13 SSTORE PUSH1 0x8 SLOAD PUSH1 0x9 SLOAD PUSH1 0x40 MLOAD PUSH4 0x70A08231 PUSH1 0xE0 SHL DUP2 MSTORE ADDRESS PUSH1 0x4 DUP3 ADD MSTORE PUSH1 0x0 SWAP1 PUSH32 0x0 PUSH1 0x1 PUSH1 0x1 PUSH1 0xA0 SHL SUB AND SWAP1 PUSH4 0x70A08231 SWAP1 PUSH1 0x24 ADD PUSH1 0x20 PUSH1 0x40 MLOAD DUP1 DUP4 SUB DUP2 DUP7 GAS STATICCALL ISZERO DUP1 ISZERO PUSH2 0x1367 JUMPI RETURNDATASIZE PUSH1 0x0 DUP1 RETURNDATACOPY RETURNDATASIZE PUSH1 0x0 REVERT JUMPDEST POP POP POP POP PUSH1 0x40 MLOAD RETURNDATASIZE PUSH1 0x1F NOT PUSH1 0x1F DUP3 ADD AND DUP3 ADD DUP1 PUSH1 0x40 MSTORE POP DUP2 ADD SWAP1 PUSH2 0x138B SWAP2 SWAP1 PUSH2 0x31D7 JUMP JUMPDEST PUSH1 0x40 MLOAD PUSH4 0x70A08231 PUSH1 0xE0 SHL DUP2 MSTORE ADDRESS PUSH1 0x4 DUP3 ADD MSTORE SWAP1 SWAP2 POP PUSH1 0x0 SWAP1 PUSH1 0x1 PUSH1 0x1 PUSH1 0xA0 SHL SUB PUSH32 0x0 AND SWAP1 PUSH4 0x70A08231 SWAP1 PUSH1 0x24 ADD PUSH1 0x20 PUSH1 0x40 MLOAD DUP1 DUP4 SUB DUP2 DUP7 GAS STATICCALL ISZERO DUP1 ISZERO PUSH2 0x13F5 JUMPI RETURNDATASIZE PUSH1 0x0 DUP1 RETURNDATACOPY RETURNDATASIZE PUSH1 0x0 REVERT JUMPDEST POP POP POP POP PUSH1 0x40 MLOAD RETURNDATASIZE PUSH1 0x1F NOT PUSH1 0x1F DUP3 ADD AND DUP3 ADD DUP1 PUSH1 0x40 MSTORE POP DUP2 ADD SWAP1 PUSH2 0x1419 SWAP2 SWAP1 PUSH2 0x31D7 JUMP JUMPDEST SWAP1 POP PUSH1 0x0 PUSH2 0x1427 DUP6 DUP5 PUSH2 0x3206 JUMP JUMPDEST SWAP1 POP PUSH1 0x0 PUSH2 0x1435 DUP6 DUP5 PUSH2 0x3206 JUMP JUMPDEST PUSH1 0x2 SLOAD SWAP1 SWAP2 POP DUP1 PUSH2 0x1473 JUMPI PUSH2 0x3E8 PUSH2 0x1455 PUSH2 0x1450 DUP5 DUP7 PUSH2 0x328A JUMP JUMPDEST PUSH2 0x2930 JUMP JUMPDEST PUSH2 0x145F SWAP2 SWAP1 PUSH2 0x3206 JUMP JUMPDEST SWAP8 POP PUSH2 0x146E PUSH1 0x0 PUSH2 0x3E8 PUSH2 0x29A0 JUMP JUMPDEST PUSH2 0x14A8 JUMP JUMPDEST PUSH2 0x14A5 DUP8 PUSH2 0x1481 DUP4 DUP7 PUSH2 0x328A JUMP JUMPDEST PUSH2 0x148B SWAP2 SWAP1 PUSH2 0x321D JUMP JUMPDEST DUP8 PUSH2 0x1496 DUP5 DUP7 PUSH2 0x328A JUMP JUMPDEST PUSH2 0x14A0 SWAP2 SWAP1 PUSH2 0x321D JUMP JUMPDEST PUSH2 0x2A33 JUMP JUMPDEST SWAP8 POP JUMPDEST PUSH1 0x0 DUP9 GT PUSH2 0x14DE JUMPI PUSH1 0x40 MLOAD PUSH3 0x461BCD PUSH1 0xE5 SHL DUP2 MSTORE PUSH1 0x20 PUSH1 0x4 DUP3 ADD MSTORE PUSH1 0x3 PUSH1 0x24 DUP3 ADD MSTORE PUSH3 0x494C4D PUSH1 0xE8 SHL PUSH1 0x44 DUP3 ADD MSTORE PUSH1 0x64 ADD PUSH2 0x87F JUMP JUMPDEST PUSH2 0x14E8 DUP10 DUP10 PUSH2 0x29A0 JUMP JUMPDEST PUSH2 0x14F4 DUP6 DUP6 DUP10 DUP10 PUSH2 0x23E7 JUMP JUMPDEST PUSH1 0x40 DUP1 MLOAD DUP5 DUP2 MSTORE PUSH1 0x20 DUP2 ADD DUP5 SWAP1 MSTORE CALLER SWAP2 PUSH32 0x4C209B5FC8AD50758F13E2E1088BA56A560DFF690A1C6FEF26394F4C03821C4F SWAP2 ADD PUSH1 0x40 MLOAD DUP1 SWAP2 SUB SWAP1 LOG2 POP POP PUSH1 0x1 PUSH1 0x13 SSTORE POP SWAP4 SWAP6 SWAP5 POP POP POP POP POP JUMP JUMPDEST PUSH1 0x0 DUP1 PUSH1 0x13 SLOAD PUSH1 0x1 EQ PUSH2 0x1553 JUMPI PUSH1 0x0 DUP1 REVERT JUMPDEST PUSH1 0x2 PUSH1 0x13 SSTORE PUSH1 0x8 SLOAD PUSH1 0x9 SLOAD PUSH1 0x40 MLOAD PUSH4 0x70A08231 PUSH1 0xE0 SHL DUP2 MSTORE ADDRESS PUSH1 0x4 DUP3 ADD MSTORE PUSH32 0x0 SWAP1 PUSH32 0x0 SWAP1 PUSH1 0x0 SWAP1 PUSH1 0x1 PUSH1 0x1 PUSH1 0xA0 SHL SUB DUP5 AND SWAP1 PUSH4 0x70A08231 SWAP1 PUSH1 0x24 ADD PUSH1 0x20 PUSH1 0x40 MLOAD DUP1 DUP4 SUB DUP2 DUP7 GAS STATICCALL ISZERO DUP1 ISZERO PUSH2 0x15E9 JUMPI RETURNDATASIZE PUSH1 0x0 DUP1 RETURNDATACOPY RETURNDATASIZE PUSH1 0x0 REVERT JUMPDEST POP POP POP POP PUSH1 0x40 MLOAD RETURNDATASIZE PUSH1 0x1F NOT PUSH1 0x1F DUP3 ADD AND DUP3 ADD DUP1 PUSH1 0x40 MSTORE POP DUP2 ADD SWAP1 PUSH2 0x160D SWAP2 SWAP1 PUSH2 0x31D7 JUMP JUMPDEST PUSH1 0x40 MLOAD PUSH4 0x70A08231 PUSH1 0xE0 SHL DUP2 MSTORE ADDRESS PUSH1 0x4 DUP3 ADD MSTORE SWAP1 SWAP2 POP PUSH1 0x0 SWAP1 PUSH1 0x1 PUSH1 0x1 PUSH1 0xA0 SHL SUB DUP5 AND SWAP1 PUSH4 0x70A08231 SWAP1 PUSH1 0x24 ADD PUSH1 0x20 PUSH1 0x40 MLOAD DUP1 DUP4 SUB DUP2 DUP7 GAS STATICCALL ISZERO DUP1 ISZERO PUSH2 0x1657 JUMPI RETURNDATASIZE PUSH1 0x0 DUP1 RETURNDATACOPY RETURNDATASIZE PUSH1 0x0 REVERT JUMPDEST POP POP POP POP PUSH1 0x40 MLOAD RETURNDATASIZE PUSH1 0x1F NOT PUSH1 0x1F DUP3 ADD AND DUP3 ADD DUP1 PUSH1 0x40 MSTORE POP DUP2 ADD SWAP1 PUSH2 0x167B SWAP2 SWAP1 PUSH2 0x31D7 JUMP JUMPDEST ADDRESS PUSH1 0x0 SWAP1 DUP2 MSTORE PUSH1 0x4 PUSH1 0x20 MSTORE PUSH1 0x40 SWAP1 KECCAK256 SLOAD PUSH1 0x2 SLOAD SWAP2 SWAP3 POP SWAP1 DUP1 PUSH2 0x169D DUP6 DUP5 PUSH2 0x328A JUMP JUMPDEST PUSH2 0x16A7 SWAP2 SWAP1 PUSH2 0x321D JUMP JUMPDEST SWAP10 POP DUP1 PUSH2 0x16B4 DUP5 DUP5 PUSH2 0x328A JUMP JUMPDEST PUSH2 0x16BE SWAP2 SWAP1 PUSH2 0x321D JUMP JUMPDEST SWAP9 POP PUSH1 0x0 DUP11 GT DUP1 ISZERO PUSH2 0x16D0 JUMPI POP PUSH1 0x0 DUP10 GT JUMPDEST PUSH2 0x1702 JUMPI PUSH1 0x40 MLOAD PUSH3 0x461BCD PUSH1 0xE5 SHL DUP2 MSTORE PUSH1 0x20 PUSH1 0x4 DUP3 ADD MSTORE PUSH1 0x3 PUSH1 0x24 DUP3 ADD MSTORE PUSH3 0x24A621 PUSH1 0xE9 SHL PUSH1 0x44 DUP3 ADD MSTORE PUSH1 0x64 ADD PUSH2 0x87F JUMP JUMPDEST PUSH2 0x170C ADDRESS DUP4 PUSH2 0x2A49 JUMP JUMPDEST PUSH2 0x1717 DUP7 DUP13 DUP13 PUSH2 0x2019 JUMP JUMPDEST PUSH2 0x1722 DUP6 DUP13 DUP12 PUSH2 0x2019 JUMP JUMPDEST PUSH1 0x40 MLOAD PUSH4 0x70A08231 PUSH1 0xE0 SHL DUP2 MSTORE ADDRESS PUSH1 0x4 DUP3 ADD MSTORE PUSH1 0x1 PUSH1 0x1 PUSH1 0xA0 SHL SUB DUP8 AND SWAP1 PUSH4 0x70A08231 SWAP1 PUSH1 0x24 ADD PUSH1 0x20 PUSH1 0x40 MLOAD DUP1 DUP4 SUB DUP2 DUP7 GAS STATICCALL ISZERO DUP1 ISZERO PUSH2 0x1766 JUMPI RETURNDATASIZE PUSH1 0x0 DUP1 RETURNDATACOPY RETURNDATASIZE PUSH1 0x0 REVERT JUMPDEST POP POP POP POP PUSH1 0x40 MLOAD RETURNDATASIZE PUSH1 0x1F NOT PUSH1 0x1F DUP3 ADD AND DUP3 ADD DUP1 PUSH1 0x40 MSTORE POP DUP2 ADD SWAP1 PUSH2 0x178A SWAP2 SWAP1 PUSH2 0x31D7 JUMP JUMPDEST PUSH1 0x40 MLOAD PUSH4 0x70A08231 PUSH1 0xE0 SHL DUP2 MSTORE ADDRESS PUSH1 0x4 DUP3 ADD MSTORE SWAP1 SWAP5 POP PUSH1 0x1 PUSH1 0x1 PUSH1 0xA0 SHL SUB DUP7 AND SWAP1 PUSH4 0x70A08231 SWAP1 PUSH1 0x24 ADD PUSH1 0x20 PUSH1 0x40 MLOAD DUP1 DUP4 SUB DUP2 DUP7 GAS STATICCALL ISZERO DUP1 ISZERO PUSH2 0x17D1 JUMPI RETURNDATASIZE PUSH1 0x0 DUP1 RETURNDATACOPY RETURNDATASIZE PUSH1 0x0 REVERT JUMPDEST POP POP POP POP PUSH1 0x40 MLOAD RETURNDATASIZE PUSH1 0x1F NOT PUSH1 0x1F DUP3 ADD AND DUP3 ADD DUP1 PUSH1 0x40 MSTORE POP DUP2 ADD SWAP1 PUSH2 0x17F5 SWAP2 SWAP1 PUSH2 0x31D7 JUMP JUMPDEST SWAP3 POP PUSH2 0x1803 DUP5 DUP5 DUP11 DUP11 PUSH2 0x23E7 JUMP JUMPDEST PUSH1 0x40 DUP1 MLOAD DUP12 DUP2 MSTORE PUSH1 0x20 DUP2 ADD DUP12 SWAP1 MSTORE PUSH1 0x1 PUSH1 0x1 PUSH1 0xA0 SHL SUB DUP14 AND SWAP2 CALLER SWAP2 PUSH32 0xDCCD412F0B1252819CB1FD330B93224CA42612892BB3F4F789976E6D81936496 SWAP2 ADD PUSH1 0x40 MLOAD DUP1 SWAP2 SUB SWAP1 LOG3 POP POP POP POP POP POP POP POP PUSH1 0x1 PUSH1 0x13 DUP2 SWAP1 SSTORE POP SWAP2 POP SWAP2 JUMP JUMPDEST PUSH2 0x1882 PUSH1 0x40 MLOAD DUP1 PUSH1 0x60 ADD PUSH1 0x40 MSTORE DUP1 PUSH1 0x0 DUP2 MSTORE PUSH1 0x20 ADD PUSH1 0x0 DUP2 MSTORE PUSH1 0x20 ADD PUSH1 0x0 DUP2 MSTORE POP SWAP1 JUMP JUMPDEST PUSH1 0x7 DUP1 SLOAD PUSH2 0x1892 SWAP1 PUSH1 0x1 SWAP1 PUSH2 0x3206 JUMP JUMPDEST DUP2 SLOAD DUP2 LT PUSH2 0x18A2 JUMPI PUSH2 0x18A2 PUSH2 0x32C1 JUMP JUMPDEST SWAP1 PUSH1 0x0 MSTORE PUSH1 0x20 PUSH1 0x0 KECCAK256 SWAP1 PUSH1 0x3 MUL ADD PUSH1 0x40 MLOAD DUP1 PUSH1 0x60 ADD PUSH1 0x40 MSTORE SWAP1 DUP2 PUSH1 0x0 DUP3 ADD SLOAD DUP2 MSTORE PUSH1 0x20 ADD PUSH1 0x1 DUP3 ADD SLOAD DUP2 MSTORE PUSH1 0x20 ADD PUSH1 0x2 DUP3 ADD SLOAD DUP2 MSTORE POP POP SWAP1 POP SWAP1 JUMP JUMPDEST PUSH1 0x1 DUP1 SLOAD PUSH2 0xD8B SWAP1 PUSH2 0x323F JUMP JUMPDEST PUSH1 0x0 DUP1 PUSH2 0x18FB DUP6 DUP6 DUP6 PUSH1 0x1 PUSH2 0xE79 JUMP JUMPDEST SWAP1 POP PUSH1 0x0 DUP1 JUMPDEST DUP3 MLOAD DUP2 LT ISZERO PUSH2 0x1943 JUMPI DUP3 DUP2 DUP2 MLOAD DUP2 LT PUSH2 0x191C JUMPI PUSH2 0x191C PUSH2 0x32C1 JUMP JUMPDEST PUSH1 0x20 MUL PUSH1 0x20 ADD ADD MLOAD DUP3 PUSH2 0x192F SWAP2 SWAP1 PUSH2 0x32A9 JUMP JUMPDEST SWAP2 POP DUP1 PUSH2 0x193B DUP2 PUSH2 0x32D7 JUMP JUMPDEST SWAP2 POP POP PUSH2 0x1901 JUMP JUMPDEST POP PUSH2 0x194E DUP5 DUP3 PUSH2 0x321D JUMP JUMPDEST SWAP7 SWAP6 POP POP POP POP POP POP JUMP JUMPDEST PUSH1 0x0 PUSH2 0x1965 CALLER DUP5 DUP5 PUSH2 0x2870 JUMP JUMPDEST POP PUSH1 0x1 SWAP3 SWAP2 POP POP JUMP JUMPDEST PUSH1 0x13 SLOAD PUSH1 0x1 EQ PUSH2 0x197D JUMPI PUSH1 0x0 DUP1 REVERT JUMPDEST PUSH1 0x2 PUSH1 0x13 SSTORE PUSH1 0x8 SLOAD PUSH1 0x40 MLOAD PUSH4 0x70A08231 PUSH1 0xE0 SHL DUP2 MSTORE ADDRESS PUSH1 0x4 DUP3 ADD MSTORE PUSH32 0x0 SWAP2 PUSH32 0x0 SWAP2 PUSH2 0x1A4A SWAP2 DUP5 SWAP2 DUP7 SWAP2 SWAP1 PUSH1 0x1 PUSH1 0x1 PUSH1 0xA0 SHL SUB DUP5 AND SWAP1 PUSH4 0x70A08231 SWAP1 PUSH1 0x24 ADD JUMPDEST PUSH1 0x20 PUSH1 0x40 MLOAD DUP1 DUP4 SUB DUP2 DUP7 GAS STATICCALL ISZERO DUP1 ISZERO PUSH2 0x1A17 JUMPI RETURNDATASIZE PUSH1 0x0 DUP1 RETURNDATACOPY RETURNDATASIZE PUSH1 0x0 REVERT JUMPDEST POP POP POP POP PUSH1 0x40 MLOAD RETURNDATASIZE PUSH1 0x1F NOT PUSH1 0x1F DUP3 ADD AND DUP3 ADD DUP1 PUSH1 0x40 MSTORE POP DUP2 ADD SWAP1 PUSH2 0x1A3B SWAP2 SWAP1 PUSH2 0x31D7 JUMP JUMPDEST PUSH2 0x1A45 SWAP2 SWAP1 PUSH2 0x3206 JUMP JUMPDEST PUSH2 0x2019 JUMP JUMPDEST PUSH1 0x9 SLOAD PUSH1 0x40 MLOAD PUSH4 0x70A08231 PUSH1 0xE0 SHL DUP2 MSTORE ADDRESS PUSH1 0x4 DUP3 ADD MSTORE PUSH2 0x1A82 SWAP2 DUP4 SWAP2 DUP7 SWAP2 SWAP1 PUSH1 0x1 PUSH1 0x1 PUSH1 0xA0 SHL SUB DUP5 AND SWAP1 PUSH4 0x70A08231 SWAP1 PUSH1 0x24 ADD PUSH2 0x19FA JUMP JUMPDEST POP POP PUSH1 0x1 PUSH1 0x13 SSTORE POP JUMP JUMPDEST PUSH1 0x0 DUP1 PUSH2 0x1A98 CALLER PUSH2 0x2AD4 JUMP JUMPDEST POP POP CALLER PUSH1 0x0 SWAP1 DUP2 MSTORE PUSH1 0x11 PUSH1 0x20 SWAP1 DUP2 MSTORE PUSH1 0x40 DUP1 DUP4 KECCAK256 SLOAD PUSH1 0x12 SWAP1 SWAP3 MSTORE SWAP1 SWAP2 KECCAK256 SLOAD DUP2 ISZERO ISZERO DUP1 PUSH2 0x1AC4 JUMPI POP PUSH1 0x0 DUP2 GT JUMPDEST ISZERO PUSH2 0x1BAF JUMPI CALLER PUSH1 0x0 DUP2 DUP2 MSTORE PUSH1 0x11 PUSH1 0x20 SWAP1 DUP2 MSTORE PUSH1 0x40 DUP1 DUP4 KECCAK256 DUP4 SWAP1 SSTORE PUSH1 0x12 SWAP1 SWAP2 MSTORE DUP1 DUP3 KECCAK256 SWAP2 SWAP1 SWAP2 SSTORE MLOAD PUSH4 0x299E7AE7 PUSH1 0xE1 SHL DUP2 MSTORE PUSH1 0x4 DUP2 ADD SWAP2 SWAP1 SWAP2 MSTORE PUSH1 0x24 DUP2 ADD DUP4 SWAP1 MSTORE PUSH1 0x44 DUP2 ADD DUP3 SWAP1 MSTORE PUSH1 0x1 PUSH1 0x1 PUSH1 0xA0 SHL SUB PUSH32 0x0 AND SWAP1 PUSH4 0x533CF5CE SWAP1 PUSH1 0x64 ADD PUSH1 0x0 PUSH1 0x40 MLOAD DUP1 DUP4 SUB DUP2 PUSH1 0x0 DUP8 DUP1 EXTCODESIZE ISZERO DUP1 ISZERO PUSH2 0x1B59 JUMPI PUSH1 0x0 DUP1 REVERT JUMPDEST POP GAS CALL ISZERO DUP1 ISZERO PUSH2 0x1B6D JUMPI RETURNDATASIZE PUSH1 0x0 DUP1 RETURNDATACOPY RETURNDATASIZE PUSH1 0x0 REVERT JUMPDEST POP POP PUSH1 0x40 DUP1 MLOAD DUP6 DUP2 MSTORE PUSH1 0x20 DUP2 ADD DUP6 SWAP1 MSTORE CALLER SWAP4 POP DUP4 SWAP3 POP PUSH32 0x865CA08D59F5CB456E85CD2F7EF63664EA4F73327414E9D8152C4158B0E94645 SWAP2 ADD PUSH1 0x40 MLOAD DUP1 SWAP2 SUB SWAP1 LOG3 JUMPDEST SWAP1 SWAP2 JUMP JUMPDEST TIMESTAMP DUP5 LT ISZERO PUSH2 0x1BF5 JUMPI PUSH1 0x40 MLOAD PUSH3 0x461BCD PUSH1 0xE5 SHL DUP2 MSTORE PUSH1 0x20 PUSH1 0x4 DUP3 ADD MSTORE PUSH1 0xF PUSH1 0x24 DUP3 ADD MSTORE PUSH15 0x10985CD9558C4E8811561412549151 PUSH1 0x8A SHL PUSH1 0x44 DUP3 ADD MSTORE PUSH1 0x64 ADD PUSH2 0x87F JUMP JUMPDEST PUSH32 0x8B73C3C69BB8FE3D512ECC4CF759CC79239F7B179B0FFACAA9A75D522B39400F PUSH1 0x0 PUSH1 0x40 MLOAD PUSH2 0x1C25 SWAP2 SWAP1 PUSH2 0x32F2 JUMP JUMPDEST PUSH1 0x40 DUP1 MLOAD SWAP2 DUP3 SWAP1 SUB DUP3 KECCAK256 PUSH1 0x20 DUP4 ADD SWAP4 SWAP1 SWAP4 MSTORE DUP2 ADD SWAP2 SWAP1 SWAP2 MSTORE PUSH32 0xC89EFDAA54C0F20C7ADF612882DF0950F5A951637E0307CDCB4C672F298B8BC6 PUSH1 0x60 DUP3 ADD MSTORE CHAINID PUSH1 0x80 DUP3 ADD MSTORE ADDRESS PUSH1 0xA0 DUP3 ADD MSTORE PUSH1 0xC0 ADD PUSH1 0x40 DUP1 MLOAD PUSH1 0x1F NOT DUP2 DUP5 SUB ADD DUP2 MSTORE SWAP2 DUP2 MSTORE DUP2 MLOAD PUSH1 0x20 SWAP3 DUP4 ADD KECCAK256 PUSH1 0x5 DUP2 SWAP1 SSTORE PUSH1 0x1 PUSH1 0x1 PUSH1 0xA0 SHL SUB DUP11 AND PUSH1 0x0 SWAP1 DUP2 MSTORE PUSH1 0x6 SWAP1 SWAP4 MSTORE SWAP1 DUP3 KECCAK256 DUP1 SLOAD PUSH32 0x6E71EDAE12B1B97F4D1F60370FEF10105FA2FAAE0126114A169C64845D6126C9 SWAP2 DUP12 SWAP2 DUP12 SWAP2 DUP12 SWAP2 SWAP1 DUP8 PUSH2 0x1CDB DUP4 PUSH2 0x32D7 JUMP JUMPDEST SWAP1 SWAP2 SSTORE POP PUSH1 0x40 DUP1 MLOAD PUSH1 0x20 DUP2 ADD SWAP7 SWAP1 SWAP7 MSTORE PUSH1 0x1 PUSH1 0x1 PUSH1 0xA0 SHL SUB SWAP5 DUP6 AND SWAP1 DUP7 ADD MSTORE SWAP3 SWAP1 SWAP2 AND PUSH1 0x60 DUP5 ADD MSTORE PUSH1 0x80 DUP4 ADD MSTORE PUSH1 0xA0 DUP3 ADD MSTORE PUSH1 0xC0 DUP2 ADD DUP8 SWAP1 MSTORE PUSH1 0xE0 ADD PUSH1 0x40 MLOAD PUSH1 0x20 DUP2 DUP4 SUB SUB DUP2 MSTORE SWAP1 PUSH1 0x40 MSTORE DUP1 MLOAD SWAP1 PUSH1 0x20 ADD KECCAK256 PUSH1 0x40 MLOAD PUSH1 0x20 ADD PUSH2 0x1D54 SWAP3 SWAP2 SWAP1 PUSH2 0x1901 PUSH1 0xF0 SHL DUP2 MSTORE PUSH1 0x2 DUP2 ADD SWAP3 SWAP1 SWAP3 MSTORE PUSH1 0x22 DUP3 ADD MSTORE PUSH1 0x42 ADD SWAP1 JUMP JUMPDEST PUSH1 0x40 DUP1 MLOAD PUSH1 0x1F NOT DUP2 DUP5 SUB ADD DUP2 MSTORE DUP3 DUP3 MSTORE DUP1 MLOAD PUSH1 0x20 SWAP2 DUP3 ADD KECCAK256 PUSH1 0x0 DUP1 DUP6 MSTORE SWAP2 DUP5 ADD DUP1 DUP5 MSTORE DUP2 SWAP1 MSTORE PUSH1 0xFF DUP9 AND SWAP3 DUP5 ADD SWAP3 SWAP1 SWAP3 MSTORE PUSH1 0x60 DUP4 ADD DUP7 SWAP1 MSTORE PUSH1 0x80 DUP4 ADD DUP6 SWAP1 MSTORE SWAP1 SWAP3 POP SWAP1 PUSH1 0x1 SWAP1 PUSH1 0xA0 ADD PUSH1 0x20 PUSH1 0x40 MLOAD PUSH1 0x20 DUP2 SUB SWAP1 DUP1 DUP5 SUB SWAP1 DUP6 GAS STATICCALL ISZERO DUP1 ISZERO PUSH2 0x1DBF JUMPI RETURNDATASIZE PUSH1 0x0 DUP1 RETURNDATACOPY RETURNDATASIZE PUSH1 0x0 REVERT JUMPDEST POP POP PUSH1 0x40 MLOAD PUSH1 0x1F NOT ADD MLOAD SWAP2 POP POP PUSH1 0x1 PUSH1 0x1 PUSH1 0xA0 SHL SUB DUP2 AND ISZERO DUP1 ISZERO SWAP1 PUSH2 0x1DF5 JUMPI POP DUP9 PUSH1 0x1 PUSH1 0x1 PUSH1 0xA0 SHL SUB AND DUP2 PUSH1 0x1 PUSH1 0x1 PUSH1 0xA0 SHL SUB AND EQ JUMPDEST PUSH2 0x1E41 JUMPI PUSH1 0x40 MLOAD PUSH3 0x461BCD PUSH1 0xE5 SHL DUP2 MSTORE PUSH1 0x20 PUSH1 0x4 DUP3 ADD MSTORE PUSH1 0x19 PUSH1 0x24 DUP3 ADD MSTORE PUSH32 0x4261736556313A20494E56414C49445F5349474E415455524500000000000000 PUSH1 0x44 DUP3 ADD MSTORE PUSH1 0x64 ADD PUSH2 0x87F JUMP JUMPDEST PUSH1 0x1 PUSH1 0x1 PUSH1 0xA0 SHL SUB DUP10 DUP2 AND PUSH1 0x0 DUP2 DUP2 MSTORE PUSH1 0x3 PUSH1 0x20 SWAP1 DUP2 MSTORE PUSH1 0x40 DUP1 DUP4 KECCAK256 SWAP5 DUP14 AND DUP1 DUP5 MSTORE SWAP5 DUP3 MSTORE SWAP2 DUP3 SWAP1 KECCAK256 DUP12 SWAP1 SSTORE SWAP1 MLOAD DUP11 DUP2 MSTORE PUSH32 0x8C5BE1E5EBEC7D5BD14F71427D1E84F3DD0314C0F7B2291E5B200AC8C7C3B925 SWAP2 ADD PUSH1 0x40 MLOAD DUP1 SWAP2 SUB SWAP1 LOG3 POP POP POP POP POP POP POP POP POP JUMP JUMPDEST PUSH1 0x8 SLOAD PUSH1 0x9 SLOAD PUSH1 0x0 SWAP2 SWAP1 PUSH2 0x1EBE PUSH2 0x2710 DUP7 PUSH2 0x321D JUMP JUMPDEST PUSH2 0x1EC8 SWAP1 DUP7 PUSH2 0x3206 JUMP JUMPDEST SWAP5 POP PUSH2 0x1ED6 DUP6 DUP6 DUP5 DUP5 PUSH2 0x257B JUMP JUMPDEST SWAP6 SWAP5 POP POP POP POP POP JUMP JUMPDEST PUSH1 0x13 SLOAD PUSH1 0x1 EQ PUSH2 0x1EEE JUMPI PUSH1 0x0 DUP1 REVERT JUMPDEST PUSH1 0x2 PUSH1 0x13 SSTORE PUSH1 0x40 MLOAD PUSH4 0x70A08231 PUSH1 0xE0 SHL DUP2 MSTORE ADDRESS PUSH1 0x4 DUP3 ADD MSTORE PUSH2 0x2012 SWAP1 PUSH32 0x0 PUSH1 0x1 PUSH1 0x1 PUSH1 0xA0 SHL SUB AND SWAP1 PUSH4 0x70A08231 SWAP1 PUSH1 0x24 ADD PUSH1 0x20 PUSH1 0x40 MLOAD DUP1 DUP4 SUB DUP2 DUP7 GAS STATICCALL ISZERO DUP1 ISZERO PUSH2 0x1F5B JUMPI RETURNDATASIZE PUSH1 0x0 DUP1 RETURNDATACOPY RETURNDATASIZE PUSH1 0x0 REVERT JUMPDEST POP POP POP POP PUSH1 0x40 MLOAD RETURNDATASIZE PUSH1 0x1F NOT PUSH1 0x1F DUP3 ADD AND DUP3 ADD DUP1 PUSH1 0x40 MSTORE POP DUP2 ADD SWAP1 PUSH2 0x1F7F SWAP2 SWAP1 PUSH2 0x31D7 JUMP JUMPDEST PUSH1 0x40 MLOAD PUSH4 0x70A08231 PUSH1 0xE0 SHL DUP2 MSTORE ADDRESS PUSH1 0x4 DUP3 ADD MSTORE PUSH32 0x0 PUSH1 0x1 PUSH1 0x1 PUSH1 0xA0 SHL SUB AND SWAP1 PUSH4 0x70A08231 SWAP1 PUSH1 0x24 ADD PUSH1 0x20 PUSH1 0x40 MLOAD DUP1 DUP4 SUB DUP2 DUP7 GAS STATICCALL ISZERO DUP1 ISZERO PUSH2 0x1FE3 JUMPI RETURNDATASIZE PUSH1 0x0 DUP1 RETURNDATACOPY RETURNDATASIZE PUSH1 0x0 REVERT JUMPDEST POP POP POP POP PUSH1 0x40 MLOAD RETURNDATASIZE PUSH1 0x1F NOT PUSH1 0x1F DUP3 ADD AND DUP3 ADD DUP1 PUSH1 0x40 MSTORE POP DUP2 ADD SWAP1 PUSH2 0x2007 SWAP2 SWAP1 PUSH2 0x31D7 JUMP JUMPDEST PUSH1 0x8 SLOAD PUSH1 0x9 SLOAD PUSH2 0x23E7 JUMP JUMPDEST PUSH1 0x1 PUSH1 0x13 SSTORE JUMP JUMPDEST PUSH1 0x0 DUP4 PUSH1 0x1 PUSH1 0x1 PUSH1 0xA0 SHL SUB AND EXTCODESIZE GT PUSH2 0x2030 JUMPI PUSH1 0x0 DUP1 REVERT JUMPDEST PUSH1 0x40 DUP1 MLOAD PUSH1 0x1 PUSH1 0x1 PUSH1 0xA0 SHL SUB DUP5 DUP2 AND PUSH1 0x24 DUP4 ADD MSTORE PUSH1 0x44 DUP1 DUP4 ADD DUP6 SWAP1 MSTORE DUP4 MLOAD DUP1 DUP5 SUB SWAP1 SWAP2 ADD DUP2 MSTORE PUSH1 0x64 SWAP1 SWAP3 ADD DUP4 MSTORE PUSH1 0x20 DUP3 ADD DUP1 MLOAD PUSH1 0x1 PUSH1 0x1 PUSH1 0xE0 SHL SUB AND PUSH4 0xA9059CBB PUSH1 0xE0 SHL OR SWAP1 MSTORE SWAP2 MLOAD PUSH1 0x0 SWAP3 DUP4 SWAP3 SWAP1 DUP8 AND SWAP2 PUSH2 0x208C SWAP2 SWAP1 PUSH2 0x338E JUMP JUMPDEST PUSH1 0x0 PUSH1 0x40 MLOAD DUP1 DUP4 SUB DUP2 PUSH1 0x0 DUP7 GAS CALL SWAP2 POP POP RETURNDATASIZE DUP1 PUSH1 0x0 DUP2 EQ PUSH2 0x20C9 JUMPI PUSH1 0x40 MLOAD SWAP2 POP PUSH1 0x1F NOT PUSH1 0x3F RETURNDATASIZE ADD AND DUP3 ADD PUSH1 0x40 MSTORE RETURNDATASIZE DUP3 MSTORE RETURNDATASIZE PUSH1 0x0 PUSH1 0x20 DUP5 ADD RETURNDATACOPY PUSH2 0x20CE JUMP JUMPDEST PUSH1 0x60 SWAP2 POP JUMPDEST POP SWAP2 POP SWAP2 POP DUP2 DUP1 ISZERO PUSH2 0x20F8 JUMPI POP DUP1 MLOAD ISZERO DUP1 PUSH2 0x20F8 JUMPI POP DUP1 DUP1 PUSH1 0x20 ADD SWAP1 MLOAD DUP2 ADD SWAP1 PUSH2 0x20F8 SWAP2 SWAP1 PUSH2 0x3169 JUMP JUMPDEST PUSH2 0x2101 JUMPI PUSH1 0x0 DUP1 REVERT JUMPDEST POP POP POP POP POP JUMP JUMPDEST PUSH2 0x2153 PUSH32 0x0 PUSH32 0x0 DUP4 PUSH2 0x2019 JUMP JUMPDEST PUSH1 0x2 SLOAD PUSH1 0x0 SWAP1 PUSH2 0x216B DUP4 PUSH8 0xDE0B6B3A7640000 PUSH2 0x328A JUMP JUMPDEST PUSH2 0x2175 SWAP2 SWAP1 PUSH2 0x321D JUMP JUMPDEST SWAP1 POP DUP1 ISZERO PUSH2 0x2195 JUMPI DUP1 PUSH1 0xD PUSH1 0x0 DUP3 DUP3 SLOAD PUSH2 0x218F SWAP2 SWAP1 PUSH2 0x32A9 JUMP JUMPDEST SWAP1 SWAP2 SSTORE POP POP JUMPDEST PUSH1 0x40 DUP1 MLOAD DUP4 DUP2 MSTORE PUSH1 0x0 PUSH1 0x20 DUP3 ADD MSTORE CALLER SWAP2 PUSH32 0x112C256902BF554B6ED882D2936687AAEB4225E8CD5B51303C90CA6CF43A8602 SWAP2 ADD JUMPDEST PUSH1 0x40 MLOAD DUP1 SWAP2 SUB SWAP1 LOG2 POP POP JUMP JUMPDEST PUSH2 0x2220 PUSH32 0x0 PUSH32 0x0 DUP4 PUSH2 0x2019 JUMP JUMPDEST PUSH1 0x2 SLOAD PUSH1 0x0 SWAP1 PUSH2 0x2238 DUP4 PUSH8 0xDE0B6B3A7640000 PUSH2 0x328A JUMP JUMPDEST PUSH2 0x2242 SWAP2 SWAP1 PUSH2 0x321D JUMP JUMPDEST SWAP1 POP DUP1 ISZERO PUSH2 0x2262 JUMPI DUP1 PUSH1 0xE PUSH1 0x0 DUP3 DUP3 SLOAD PUSH2 0x225C SWAP2 SWAP1 PUSH2 0x32A9 JUMP JUMPDEST SWAP1 SWAP2 SSTORE POP POP JUMPDEST PUSH1 0x40 DUP1 MLOAD PUSH1 0x0 DUP2 MSTORE PUSH1 0x20 DUP2 ADD DUP5 SWAP1 MSTORE CALLER SWAP2 PUSH32 0x112C256902BF554B6ED882D2936687AAEB4225E8CD5B51303C90CA6CF43A8602 SWAP2 ADD PUSH2 0x21C9 JUMP JUMPDEST PUSH1 0x0 PUSH32 0x0 ISZERO PUSH2 0x23D6 JUMPI PUSH1 0x0 PUSH32 0x0 PUSH2 0x22F8 DUP6 PUSH8 0xDE0B6B3A7640000 PUSH2 0x328A JUMP JUMPDEST PUSH2 0x2302 SWAP2 SWAP1 PUSH2 0x321D JUMP JUMPDEST SWAP1 POP PUSH1 0x0 PUSH32 0x0 PUSH2 0x2339 DUP6 PUSH8 0xDE0B6B3A7640000 PUSH2 0x328A JUMP JUMPDEST PUSH2 0x2343 SWAP2 SWAP1 PUSH2 0x321D JUMP JUMPDEST SWAP1 POP PUSH1 0x0 PUSH8 0xDE0B6B3A7640000 PUSH2 0x235A DUP4 DUP6 PUSH2 0x328A JUMP JUMPDEST PUSH2 0x2364 SWAP2 SWAP1 PUSH2 0x321D JUMP JUMPDEST SWAP1 POP PUSH1 0x0 PUSH8 0xDE0B6B3A7640000 PUSH2 0x237B DUP5 DUP1 PUSH2 0x328A JUMP JUMPDEST PUSH2 0x2385 SWAP2 SWAP1 PUSH2 0x321D JUMP JUMPDEST PUSH8 0xDE0B6B3A7640000 PUSH2 0x2398 DUP7 DUP1 PUSH2 0x328A JUMP JUMPDEST PUSH2 0x23A2 SWAP2 SWAP1 PUSH2 0x321D JUMP JUMPDEST PUSH2 0x23AC SWAP2 SWAP1 PUSH2 0x32A9 JUMP JUMPDEST SWAP1 POP PUSH8 0xDE0B6B3A7640000 PUSH2 0x23C1 DUP3 DUP5 PUSH2 0x328A JUMP JUMPDEST PUSH2 0x23CB SWAP2 SWAP1 PUSH2 0x321D JUMP JUMPDEST SWAP5 POP POP POP POP POP PUSH2 0xE73 JUMP JUMPDEST PUSH2 0x23E0 DUP3 DUP5 PUSH2 0x328A JUMP JUMPDEST SWAP1 POP PUSH2 0xE73 JUMP JUMPDEST PUSH1 0xA SLOAD TIMESTAMP SWAP1 PUSH1 0x0 SWAP1 PUSH2 0x23F9 SWAP1 DUP4 PUSH2 0x3206 JUMP JUMPDEST SWAP1 POP PUSH1 0x0 DUP2 GT DUP1 ISZERO PUSH2 0x240A JUMPI POP DUP4 ISZERO ISZERO JUMPDEST DUP1 ISZERO PUSH2 0x2415 JUMPI POP DUP3 ISZERO ISZERO JUMPDEST ISZERO PUSH2 0x245C JUMPI PUSH2 0x2424 DUP2 DUP6 PUSH2 0x328A JUMP JUMPDEST PUSH1 0xB PUSH1 0x0 DUP3 DUP3 SLOAD PUSH2 0x2435 SWAP2 SWAP1 PUSH2 0x32A9 JUMP JUMPDEST SWAP1 SWAP2 SSTORE POP PUSH2 0x2445 SWAP1 POP DUP2 DUP5 PUSH2 0x328A JUMP JUMPDEST PUSH1 0xC PUSH1 0x0 DUP3 DUP3 SLOAD PUSH2 0x2456 SWAP2 SWAP1 PUSH2 0x32A9 JUMP JUMPDEST SWAP1 SWAP2 SSTORE POP POP JUMPDEST PUSH1 0x0 PUSH2 0x2466 PUSH2 0x185E JUMP JUMPDEST DUP1 MLOAD SWAP1 SWAP2 POP PUSH2 0x2475 SWAP1 DUP5 PUSH2 0x3206 JUMP JUMPDEST SWAP2 POP PUSH2 0x708 DUP3 GT ISZERO PUSH2 0x252A JUMPI PUSH1 0x40 DUP1 MLOAD PUSH1 0x60 DUP2 ADD DUP3 MSTORE DUP5 DUP2 MSTORE PUSH1 0xB SLOAD PUSH1 0x20 DUP3 ADD SWAP1 DUP2 MSTORE PUSH1 0xC SLOAD SWAP3 DUP3 ADD SWAP3 DUP4 MSTORE PUSH1 0x7 DUP1 SLOAD PUSH1 0x1 DUP2 ADD DUP3 SSTORE PUSH1 0x0 SWAP2 SWAP1 SWAP2 MSTORE SWAP2 MLOAD PUSH32 0xA66CC928B5EDB82AF9BD49922954155AB7B0942694BEA4CE44661D9A8736C688 PUSH1 0x3 SWAP1 SWAP4 MUL SWAP3 DUP4 ADD SSTORE MLOAD PUSH32 0xA66CC928B5EDB82AF9BD49922954155AB7B0942694BEA4CE44661D9A8736C689 DUP3 ADD SSTORE SWAP1 MLOAD PUSH32 0xA66CC928B5EDB82AF9BD49922954155AB7B0942694BEA4CE44661D9A8736C68A SWAP1 SWAP2 ADD SSTORE JUMPDEST PUSH1 0x8 DUP8 SWAP1 SSTORE PUSH1 0x9 DUP7 SWAP1 SSTORE PUSH1 0xA DUP4 SWAP1 SSTORE PUSH1 0x40 DUP1 MLOAD DUP9 DUP2 MSTORE PUSH1 0x20 DUP2 ADD DUP9 SWAP1 MSTORE PUSH32 0xCF2AA50876CDFBB541206F89AF0EE78D44A2ABF8D328E37FA4917F982149848A SWAP2 ADD PUSH1 0x40 MLOAD DUP1 SWAP2 SUB SWAP1 LOG1 POP POP POP POP POP POP POP JUMP JUMPDEST PUSH1 0x0 PUSH32 0x0 ISZERO PUSH2 0x27FE JUMPI PUSH1 0x0 PUSH2 0x25AF DUP5 DUP5 PUSH2 0x229B JUMP JUMPDEST SWAP1 POP PUSH32 0x0 PUSH2 0x25E4 DUP6 PUSH8 0xDE0B6B3A7640000 PUSH2 0x328A JUMP JUMPDEST PUSH2 0x25EE SWAP2 SWAP1 PUSH2 0x321D JUMP JUMPDEST SWAP4 POP PUSH32 0x0 PUSH2 0x2623 DUP5 PUSH8 0xDE0B6B3A7640000 PUSH2 0x328A JUMP JUMPDEST PUSH2 0x262D SWAP2 SWAP1 PUSH2 0x321D JUMP JUMPDEST SWAP3 POP PUSH1 0x0 DUP1 PUSH32 0x0 PUSH1 0x1 PUSH1 0x1 PUSH1 0xA0 SHL SUB AND DUP8 PUSH1 0x1 PUSH1 0x1 PUSH1 0xA0 SHL SUB AND EQ PUSH2 0x2672 JUMPI DUP5 DUP7 PUSH2 0x2675 JUMP JUMPDEST DUP6 DUP6 JUMPDEST SWAP2 POP SWAP2 POP PUSH32 0x0 PUSH1 0x1 PUSH1 0x1 PUSH1 0xA0 SHL SUB AND DUP8 PUSH1 0x1 PUSH1 0x1 PUSH1 0xA0 SHL SUB AND EQ PUSH2 0x26F4 JUMPI PUSH32 0x0 PUSH2 0x26E5 DUP10 PUSH8 0xDE0B6B3A7640000 PUSH2 0x328A JUMP JUMPDEST PUSH2 0x26EF SWAP2 SWAP1 PUSH2 0x321D JUMP JUMPDEST PUSH2 0x2731 JUMP JUMPDEST PUSH32 0x0 PUSH2 0x2727 DUP10 PUSH8 0xDE0B6B3A7640000 PUSH2 0x328A JUMP JUMPDEST PUSH2 0x2731 SWAP2 SWAP1 PUSH2 0x321D JUMP JUMPDEST SWAP8 POP PUSH1 0x0 PUSH2 0x2749 PUSH2 0x2742 DUP5 DUP12 PUSH2 0x32A9 JUMP JUMPDEST DUP6 DUP5 PUSH2 0x2C34 JUMP JUMPDEST PUSH2 0x2753 SWAP1 DUP4 PUSH2 0x3206 JUMP JUMPDEST SWAP1 POP PUSH8 0xDE0B6B3A7640000 PUSH32 0x0 PUSH1 0x1 PUSH1 0x1 PUSH1 0xA0 SHL SUB AND DUP10 PUSH1 0x1 PUSH1 0x1 PUSH1 0xA0 SHL SUB AND EQ PUSH2 0x27BD JUMPI PUSH32 0x0 PUSH2 0x27DF JUMP JUMPDEST PUSH32 0x0 JUMPDEST PUSH2 0x27E9 SWAP1 DUP4 PUSH2 0x328A JUMP JUMPDEST PUSH2 0x27F3 SWAP2 SWAP1 PUSH2 0x321D JUMP JUMPDEST SWAP5 POP POP POP POP POP PUSH2 0x1079 JUMP JUMPDEST PUSH1 0x0 DUP1 PUSH32 0x0 PUSH1 0x1 PUSH1 0x1 PUSH1 0xA0 SHL SUB AND DUP7 PUSH1 0x1 PUSH1 0x1 PUSH1 0xA0 SHL SUB AND EQ PUSH2 0x2841 JUMPI DUP4 DUP6 PUSH2 0x2844 JUMP JUMPDEST DUP5 DUP5 JUMPDEST SWAP1 SWAP3 POP SWAP1 POP PUSH2 0x2853 DUP8 DUP4 PUSH2 0x32A9 JUMP JUMPDEST PUSH2 0x285D DUP3 DUP10 PUSH2 0x328A JUMP JUMPDEST PUSH2 0x2867 SWAP2 SWAP1 PUSH2 0x321D JUMP JUMPDEST SWAP3 POP POP POP PUSH2 0x1079 JUMP JUMPDEST PUSH2 0x2879 DUP4 PUSH2 0x2AD4 JUMP JUMPDEST PUSH2 0x2882 DUP3 PUSH2 0x2AD4 JUMP JUMPDEST PUSH1 0x1 PUSH1 0x1 PUSH1 0xA0 SHL SUB DUP4 AND PUSH1 0x0 SWAP1 DUP2 MSTORE PUSH1 0x4 PUSH1 0x20 MSTORE PUSH1 0x40 DUP2 KECCAK256 DUP1 SLOAD DUP4 SWAP3 SWAP1 PUSH2 0x28AA SWAP1 DUP5 SWAP1 PUSH2 0x3206 JUMP JUMPDEST SWAP1 SWAP2 SSTORE POP POP PUSH1 0x1 PUSH1 0x1 PUSH1 0xA0 SHL SUB DUP3 AND PUSH1 0x0 SWAP1 DUP2 MSTORE PUSH1 0x4 PUSH1 0x20 MSTORE PUSH1 0x40 DUP2 KECCAK256 DUP1 SLOAD DUP4 SWAP3 SWAP1 PUSH2 0x28D7 SWAP1 DUP5 SWAP1 PUSH2 0x32A9 JUMP JUMPDEST SWAP3 POP POP DUP2 SWAP1 SSTORE POP DUP2 PUSH1 0x1 PUSH1 0x1 PUSH1 0xA0 SHL SUB AND DUP4 PUSH1 0x1 PUSH1 0x1 PUSH1 0xA0 SHL SUB AND PUSH32 0xDDF252AD1BE2C89B69C2B068FC378DAA952BA7F163C4A11628F55A4DF523B3EF DUP4 PUSH1 0x40 MLOAD PUSH2 0x2923 SWAP2 DUP2 MSTORE PUSH1 0x20 ADD SWAP1 JUMP JUMPDEST PUSH1 0x40 MLOAD DUP1 SWAP2 SUB SWAP1 LOG3 POP POP POP JUMP JUMPDEST PUSH1 0x0 PUSH1 0x3 DUP3 GT ISZERO PUSH2 0x2991 JUMPI POP DUP1 PUSH1 0x0 PUSH2 0x294A PUSH1 0x2 DUP4 PUSH2 0x321D JUMP JUMPDEST PUSH2 0x2955 SWAP1 PUSH1 0x1 PUSH2 0x32A9 JUMP JUMPDEST SWAP1 POP JUMPDEST DUP2 DUP2 LT ISZERO PUSH2 0x298B JUMPI SWAP1 POP DUP1 PUSH1 0x2 DUP2 PUSH2 0x2970 DUP2 DUP7 PUSH2 0x321D JUMP JUMPDEST PUSH2 0x297A SWAP2 SWAP1 PUSH2 0x32A9 JUMP JUMPDEST PUSH2 0x2984 SWAP2 SWAP1 PUSH2 0x321D JUMP JUMPDEST SWAP1 POP PUSH2 0x2958 JUMP JUMPDEST POP SWAP2 SWAP1 POP JUMP JUMPDEST DUP2 ISZERO PUSH2 0x299B JUMPI POP PUSH1 0x1 JUMPDEST SWAP2 SWAP1 POP JUMP JUMPDEST PUSH2 0x29A9 DUP3 PUSH2 0x2AD4 JUMP JUMPDEST DUP1 PUSH1 0x2 PUSH1 0x0 DUP3 DUP3 SLOAD PUSH2 0x29BB SWAP2 SWAP1 PUSH2 0x32A9 JUMP JUMPDEST SWAP1 SWAP2 SSTORE POP POP PUSH1 0x1 PUSH1 0x1 PUSH1 0xA0 SHL SUB DUP3 AND PUSH1 0x0 SWAP1 DUP2 MSTORE PUSH1 0x4 PUSH1 0x20 MSTORE PUSH1 0x40 DUP2 KECCAK256 DUP1 SLOAD DUP4 SWAP3 SWAP1 PUSH2 0x29E8 SWAP1 DUP5 SWAP1 PUSH2 0x32A9 JUMP JUMPDEST SWAP1 SWAP2 SSTORE POP POP PUSH1 0x40 MLOAD DUP2 DUP2 MSTORE PUSH1 0x1 PUSH1 0x1 PUSH1 0xA0 SHL SUB DUP4 AND SWAP1 PUSH1 0x0 SWAP1 PUSH32 0xDDF252AD1BE2C89B69C2B068FC378DAA952BA7F163C4A11628F55A4DF523B3EF SWAP1 PUSH1 0x20 ADD JUMPDEST PUSH1 0x40 MLOAD DUP1 SWAP2 SUB SWAP1 LOG3 POP POP JUMP JUMPDEST PUSH1 0x0 DUP2 DUP4 LT PUSH2 0x2A42 JUMPI DUP2 PUSH2 0x11B2 JUMP JUMPDEST POP SWAP1 SWAP2 SWAP1 POP JUMP JUMPDEST PUSH2 0x2A52 DUP3 PUSH2 0x2AD4 JUMP JUMPDEST DUP1 PUSH1 0x2 PUSH1 0x0 DUP3 DUP3 SLOAD PUSH2 0x2A64 SWAP2 SWAP1 PUSH2 0x3206 JUMP JUMPDEST SWAP1 SWAP2 SSTORE POP POP PUSH1 0x1 PUSH1 0x1 PUSH1 0xA0 SHL SUB DUP3 AND PUSH1 0x0 SWAP1 DUP2 MSTORE PUSH1 0x4 PUSH1 0x20 MSTORE PUSH1 0x40 DUP2 KECCAK256 DUP1 SLOAD DUP4 SWAP3 SWAP1 PUSH2 0x2A91 SWAP1 DUP5 SWAP1 PUSH2 0x3206 JUMP JUMPDEST SWAP1 SWAP2 SSTORE POP POP PUSH1 0x40 MLOAD DUP2 DUP2 MSTORE PUSH1 0x0 SWAP1 PUSH1 0x1 PUSH1 0x1 PUSH1 0xA0 SHL SUB DUP5 AND SWAP1 PUSH32 0xDDF252AD1BE2C89B69C2B068FC378DAA952BA7F163C4A11628F55A4DF523B3EF SWAP1 PUSH1 0x20 ADD PUSH2 0x2A27 JUMP JUMPDEST PUSH1 0x1 PUSH1 0x1 PUSH1 0xA0 SHL SUB DUP2 AND PUSH1 0x0 SWAP1 DUP2 MSTORE PUSH1 0x4 PUSH1 0x20 MSTORE PUSH1 0x40 SWAP1 KECCAK256 SLOAD DUP1 ISZERO PUSH2 0x2C02 JUMPI PUSH1 0x1 PUSH1 0x1 PUSH1 0xA0 SHL SUB DUP3 AND PUSH1 0x0 SWAP1 DUP2 MSTORE PUSH1 0xF PUSH1 0x20 SWAP1 DUP2 MSTORE PUSH1 0x40 DUP1 DUP4 KECCAK256 DUP1 SLOAD PUSH1 0x10 DUP1 DUP6 MSTORE SWAP3 DUP6 KECCAK256 DUP1 SLOAD PUSH1 0xD SLOAD PUSH1 0xE SLOAD SWAP5 DUP2 SWAP1 SSTORE SWAP5 SWAP1 SWAP6 MSTORE DUP3 SWAP1 SSTORE SWAP4 PUSH2 0x2B36 DUP6 DUP5 PUSH2 0x3206 JUMP JUMPDEST SWAP1 POP PUSH1 0x0 PUSH2 0x2B44 DUP6 DUP5 PUSH2 0x3206 JUMP JUMPDEST SWAP1 POP DUP2 ISZERO PUSH2 0x2B9F JUMPI PUSH1 0x0 PUSH8 0xDE0B6B3A7640000 PUSH2 0x2B61 DUP5 DUP11 PUSH2 0x328A JUMP JUMPDEST PUSH2 0x2B6B SWAP2 SWAP1 PUSH2 0x321D JUMP JUMPDEST PUSH1 0x1 PUSH1 0x1 PUSH1 0xA0 SHL SUB DUP11 AND PUSH1 0x0 SWAP1 DUP2 MSTORE PUSH1 0x11 PUSH1 0x20 MSTORE PUSH1 0x40 DUP2 KECCAK256 DUP1 SLOAD SWAP3 SWAP4 POP DUP4 SWAP3 SWAP1 SWAP2 SWAP1 PUSH2 0x2B98 SWAP1 DUP5 SWAP1 PUSH2 0x32A9 JUMP JUMPDEST SWAP1 SWAP2 SSTORE POP POP POP JUMPDEST DUP1 ISZERO PUSH2 0x2BF8 JUMPI PUSH1 0x0 PUSH8 0xDE0B6B3A7640000 PUSH2 0x2BBA DUP4 DUP11 PUSH2 0x328A JUMP JUMPDEST PUSH2 0x2BC4 SWAP2 SWAP1 PUSH2 0x321D JUMP JUMPDEST PUSH1 0x1 PUSH1 0x1 PUSH1 0xA0 SHL SUB DUP11 AND PUSH1 0x0 SWAP1 DUP2 MSTORE PUSH1 0x12 PUSH1 0x20 MSTORE PUSH1 0x40 DUP2 KECCAK256 DUP1 SLOAD SWAP3 SWAP4 POP DUP4 SWAP3 SWAP1 SWAP2 SWAP1 PUSH2 0x2BF1 SWAP1 DUP5 SWAP1 PUSH2 0x32A9 JUMP JUMPDEST SWAP1 SWAP2 SSTORE POP POP POP JUMPDEST POP POP POP POP POP POP POP POP JUMP JUMPDEST PUSH1 0xD SLOAD PUSH1 0x1 PUSH1 0x1 PUSH1 0xA0 SHL SUB DUP4 AND PUSH1 0x0 SWAP1 DUP2 MSTORE PUSH1 0xF PUSH1 0x20 SWAP1 DUP2 MSTORE PUSH1 0x40 DUP1 DUP4 KECCAK256 SWAP4 SWAP1 SWAP4 SSTORE PUSH1 0xE SLOAD PUSH1 0x10 SWAP1 SWAP2 MSTORE SWAP2 SWAP1 KECCAK256 SSTORE POP POP JUMP JUMPDEST PUSH1 0x0 DUP1 JUMPDEST PUSH1 0xFF DUP2 LT ISZERO PUSH2 0x2D3A JUMPI DUP3 PUSH1 0x0 PUSH2 0x2C4E DUP8 DUP4 PUSH2 0x2D43 JUMP JUMPDEST SWAP1 POP DUP6 DUP2 LT ISZERO PUSH2 0x2C9E JUMPI PUSH1 0x0 PUSH2 0x2C64 DUP9 DUP8 PUSH2 0x2DE0 JUMP JUMPDEST PUSH2 0x2C6E DUP4 DUP10 PUSH2 0x3206 JUMP JUMPDEST PUSH2 0x2C80 SWAP1 PUSH8 0xDE0B6B3A7640000 PUSH2 0x328A JUMP JUMPDEST PUSH2 0x2C8A SWAP2 SWAP1 PUSH2 0x321D JUMP JUMPDEST SWAP1 POP PUSH2 0x2C96 DUP2 DUP8 PUSH2 0x32A9 JUMP JUMPDEST SWAP6 POP POP PUSH2 0x2CE0 JUMP JUMPDEST PUSH1 0x0 PUSH2 0x2CAA DUP9 DUP8 PUSH2 0x2DE0 JUMP JUMPDEST PUSH2 0x2CB4 DUP9 DUP5 PUSH2 0x3206 JUMP JUMPDEST PUSH2 0x2CC6 SWAP1 PUSH8 0xDE0B6B3A7640000 PUSH2 0x328A JUMP JUMPDEST PUSH2 0x2CD0 SWAP2 SWAP1 PUSH2 0x321D JUMP JUMPDEST SWAP1 POP PUSH2 0x2CDC DUP2 DUP8 PUSH2 0x3206 JUMP JUMPDEST SWAP6 POP POP JUMPDEST DUP2 DUP6 GT ISZERO PUSH2 0x2D09 JUMPI PUSH1 0x1 PUSH2 0x2CF4 DUP4 DUP8 PUSH2 0x3206 JUMP JUMPDEST GT PUSH2 0x2D04 JUMPI DUP5 SWAP4 POP POP POP POP PUSH2 0x11B2 JUMP JUMPDEST PUSH2 0x2D25 JUMP JUMPDEST PUSH1 0x1 PUSH2 0x2D15 DUP7 DUP5 PUSH2 0x3206 JUMP JUMPDEST GT PUSH2 0x2D25 JUMPI DUP5 SWAP4 POP POP POP POP PUSH2 0x11B2 JUMP JUMPDEST POP POP DUP1 DUP1 PUSH2 0x2D32 SWAP1 PUSH2 0x32D7 JUMP JUMPDEST SWAP2 POP POP PUSH2 0x2C38 JUMP JUMPDEST POP SWAP1 SWAP4 SWAP3 POP POP POP JUMP JUMPDEST PUSH1 0x0 PUSH8 0xDE0B6B3A7640000 DUP3 DUP2 DUP6 DUP2 PUSH2 0x2D5C DUP3 DUP1 PUSH2 0x328A JUMP JUMPDEST PUSH2 0x2D66 SWAP2 SWAP1 PUSH2 0x321D JUMP JUMPDEST PUSH2 0x2D70 SWAP2 SWAP1 PUSH2 0x328A JUMP JUMPDEST PUSH2 0x2D7A SWAP2 SWAP1 PUSH2 0x321D JUMP JUMPDEST PUSH2 0x2D84 SWAP2 SWAP1 PUSH2 0x328A JUMP JUMPDEST PUSH2 0x2D8E SWAP2 SWAP1 PUSH2 0x321D JUMP JUMPDEST PUSH8 0xDE0B6B3A7640000 DUP1 DUP5 DUP2 PUSH2 0x2DA4 DUP3 DUP1 PUSH2 0x328A JUMP JUMPDEST PUSH2 0x2DAE SWAP2 SWAP1 PUSH2 0x321D JUMP JUMPDEST PUSH2 0x2DB8 SWAP2 SWAP1 PUSH2 0x328A JUMP JUMPDEST PUSH2 0x2DC2 SWAP2 SWAP1 PUSH2 0x321D JUMP JUMPDEST PUSH2 0x2DCC SWAP1 DUP7 PUSH2 0x328A JUMP JUMPDEST PUSH2 0x2DD6 SWAP2 SWAP1 PUSH2 0x321D JUMP JUMPDEST PUSH2 0x11B2 SWAP2 SWAP1 PUSH2 0x32A9 JUMP JUMPDEST PUSH1 0x0 PUSH8 0xDE0B6B3A7640000 DUP4 DUP2 PUSH2 0x2DF7 DUP3 DUP1 PUSH2 0x328A JUMP JUMPDEST PUSH2 0x2E01 SWAP2 SWAP1 PUSH2 0x321D JUMP JUMPDEST PUSH2 0x2E0B SWAP2 SWAP1 PUSH2 0x328A JUMP JUMPDEST PUSH2 0x2E15 SWAP2 SWAP1 PUSH2 0x321D JUMP JUMPDEST PUSH8 0xDE0B6B3A7640000 DUP1 PUSH2 0x2E29 DUP6 DUP1 PUSH2 0x328A JUMP JUMPDEST PUSH2 0x2E33 SWAP2 SWAP1 PUSH2 0x321D JUMP JUMPDEST PUSH2 0x2E3E DUP7 PUSH1 0x3 PUSH2 0x328A JUMP JUMPDEST PUSH2 0x2DCC SWAP2 SWAP1 PUSH2 0x328A JUMP JUMPDEST DUP1 CALLDATALOAD PUSH1 0x1 PUSH1 0x1 PUSH1 0xA0 SHL SUB DUP2 AND DUP2 EQ PUSH2 0x299B JUMPI PUSH1 0x0 DUP1 REVERT JUMPDEST PUSH1 0x0 DUP1 PUSH1 0x0 DUP1 PUSH1 0x0 PUSH1 0x80 DUP7 DUP9 SUB SLT ISZERO PUSH2 0x2E77 JUMPI PUSH1 0x0 DUP1 REVERT JUMPDEST DUP6 CALLDATALOAD SWAP5 POP PUSH1 0x20 DUP7 ADD CALLDATALOAD SWAP4 POP PUSH2 0x2E8E PUSH1 0x40 DUP8 ADD PUSH2 0x2E48 JUMP JUMPDEST SWAP3 POP PUSH1 0x60 DUP7 ADD CALLDATALOAD PUSH8 0xFFFFFFFFFFFFFFFF DUP1 DUP3 GT ISZERO PUSH2 0x2EAB JUMPI PUSH1 0x0 DUP1 REVERT JUMPDEST DUP2 DUP9 ADD SWAP2 POP DUP9 PUSH1 0x1F DUP4 ADD SLT PUSH2 0x2EBF JUMPI PUSH1 0x0 DUP1 REVERT JUMPDEST DUP2 CALLDATALOAD DUP2 DUP2 GT ISZERO PUSH2 0x2ECE JUMPI PUSH1 0x0 DUP1 REVERT JUMPDEST DUP10 PUSH1 0x20 DUP3 DUP6 ADD ADD GT ISZERO PUSH2 0x2EE0 JUMPI PUSH1 0x0 DUP1 REVERT JUMPDEST SWAP7 SWAP10 SWAP6 SWAP9 POP SWAP4 SWAP7 POP PUSH1 0x20 ADD SWAP5 SWAP4 SWAP3 POP POP POP JUMP JUMPDEST PUSH1 0x0 JUMPDEST DUP4 DUP2 LT ISZERO PUSH2 0x2F0E JUMPI DUP2 DUP2 ADD MLOAD DUP4 DUP3 ADD MSTORE PUSH1 0x20 ADD PUSH2 0x2EF6 JUMP JUMPDEST DUP4 DUP2 GT ISZERO PUSH2 0x2F1D JUMPI PUSH1 0x0 DUP5 DUP5 ADD MSTORE JUMPDEST POP POP POP POP JUMP JUMPDEST PUSH1 0x20 DUP2 MSTORE PUSH1 0x0 DUP3 MLOAD DUP1 PUSH1 0x20 DUP5 ADD MSTORE PUSH2 0x2F42 DUP2 PUSH1 0x40 DUP6 ADD PUSH1 0x20 DUP8 ADD PUSH2 0x2EF3 JUMP JUMPDEST PUSH1 0x1F ADD PUSH1 0x1F NOT AND SWAP2 SWAP1 SWAP2 ADD PUSH1 0x40 ADD SWAP3 SWAP2 POP POP JUMP JUMPDEST PUSH1 0x0 DUP1 PUSH1 0x40 DUP4 DUP6 SUB SLT ISZERO PUSH2 0x2F69 JUMPI PUSH1 0x0 DUP1 REVERT JUMPDEST PUSH2 0x2F72 DUP4 PUSH2 0x2E48 JUMP JUMPDEST SWAP5 PUSH1 0x20 SWAP4 SWAP1 SWAP4 ADD CALLDATALOAD SWAP4 POP POP POP JUMP JUMPDEST PUSH1 0x0 DUP1 PUSH1 0x0 DUP1 PUSH1 0x80 DUP6 DUP8 SUB SLT ISZERO PUSH2 0x2F96 JUMPI PUSH1 0x0 DUP1 REVERT JUMPDEST PUSH2 0x2F9F DUP6 PUSH2 0x2E48 JUMP JUMPDEST SWAP7 PUSH1 0x20 DUP7 ADD CALLDATALOAD SWAP7 POP PUSH1 0x40 DUP7 ADD CALLDATALOAD SWAP6 PUSH1 0x60 ADD CALLDATALOAD SWAP5 POP SWAP3 POP POP POP JUMP JUMPDEST PUSH1 0x20 DUP1 DUP3 MSTORE DUP3 MLOAD DUP3 DUP3 ADD DUP2 SWAP1 MSTORE PUSH1 0x0 SWAP2 SWAP1 DUP5 DUP3 ADD SWAP1 PUSH1 0x40 DUP6 ADD SWAP1 DUP5 JUMPDEST DUP2 DUP2 LT ISZERO PUSH2 0x2FF1 JUMPI DUP4 MLOAD DUP4 MSTORE SWAP3 DUP5 ADD SWAP3 SWAP2 DUP5 ADD SWAP2 PUSH1 0x1 ADD PUSH2 0x2FD5 JUMP JUMPDEST POP SWAP1 SWAP7 SWAP6 POP POP POP POP POP POP JUMP JUMPDEST PUSH1 0x0 PUSH1 0x20 DUP3 DUP5 SUB SLT ISZERO PUSH2 0x300F JUMPI PUSH1 0x0 DUP1 REVERT JUMPDEST PUSH2 0x11B2 DUP3 PUSH2 0x2E48 JUMP JUMPDEST PUSH1 0x0 DUP1 PUSH1 0x0 PUSH1 0x60 DUP5 DUP7 SUB SLT ISZERO PUSH2 0x302D JUMPI PUSH1 0x0 DUP1 REVERT JUMPDEST PUSH2 0x3036 DUP5 PUSH2 0x2E48 JUMP JUMPDEST SWAP3 POP PUSH2 0x3044 PUSH1 0x20 DUP6 ADD PUSH2 0x2E48 JUMP JUMPDEST SWAP2 POP PUSH1 0x40 DUP5 ADD CALLDATALOAD SWAP1 POP SWAP3 POP SWAP3 POP SWAP3 JUMP JUMPDEST PUSH1 0x0 PUSH1 0x20 DUP3 DUP5 SUB SLT ISZERO PUSH2 0x3066 JUMPI PUSH1 0x0 DUP1 REVERT JUMPDEST POP CALLDATALOAD SWAP2 SWAP1 POP JUMP JUMPDEST PUSH1 0x0 DUP1 PUSH1 0x0 PUSH1 0x60 DUP5 DUP7 SUB SLT ISZERO PUSH2 0x3082 JUMPI PUSH1 0x0 DUP1 REVERT JUMPDEST PUSH2 0x308B DUP5 PUSH2 0x2E48 JUMP JUMPDEST SWAP6 PUSH1 0x20 DUP6 ADD CALLDATALOAD SWAP6 POP PUSH1 0x40 SWAP1 SWAP5 ADD CALLDATALOAD SWAP4 SWAP3 POP POP POP JUMP JUMPDEST PUSH1 0x0 DUP1 PUSH1 0x0 DUP1 PUSH1 0x0 DUP1 PUSH1 0x0 PUSH1 0xE0 DUP9 DUP11 SUB SLT ISZERO PUSH2 0x30BB JUMPI PUSH1 0x0 DUP1 REVERT JUMPDEST PUSH2 0x30C4 DUP9 PUSH2 0x2E48 JUMP JUMPDEST SWAP7 POP PUSH2 0x30D2 PUSH1 0x20 DUP10 ADD PUSH2 0x2E48 JUMP JUMPDEST SWAP6 POP PUSH1 0x40 DUP9 ADD CALLDATALOAD SWAP5 POP PUSH1 0x60 DUP9 ADD CALLDATALOAD SWAP4 POP PUSH1 0x80 DUP9 ADD CALLDATALOAD PUSH1 0xFF DUP2 AND DUP2 EQ PUSH2 0x30F6 JUMPI PUSH1 0x0 DUP1 REVERT JUMPDEST SWAP7 SWAP10 SWAP6 SWAP9 POP SWAP4 SWAP7 SWAP3 SWAP6 SWAP5 PUSH1 0xA0 DUP5 ADD CALLDATALOAD SWAP5 POP PUSH1 0xC0 SWAP1 SWAP4 ADD CALLDATALOAD SWAP3 SWAP2 POP POP JUMP JUMPDEST PUSH1 0x0 DUP1 PUSH1 0x40 DUP4 DUP6 SUB SLT ISZERO PUSH2 0x3126 JUMPI PUSH1 0x0 DUP1 REVERT JUMPDEST PUSH2 0x312F DUP4 PUSH2 0x2E48 JUMP JUMPDEST SWAP2 POP PUSH2 0x313D PUSH1 0x20 DUP5 ADD PUSH2 0x2E48 JUMP JUMPDEST SWAP1 POP SWAP3 POP SWAP3 SWAP1 POP JUMP JUMPDEST PUSH1 0x0 DUP1 PUSH1 0x40 DUP4 DUP6 SUB SLT ISZERO PUSH2 0x3159 JUMPI PUSH1 0x0 DUP1 REVERT JUMPDEST DUP3 CALLDATALOAD SWAP2 POP PUSH2 0x313D PUSH1 0x20 DUP5 ADD PUSH2 0x2E48 JUMP JUMPDEST PUSH1 0x0 PUSH1 0x20 DUP3 DUP5 SUB SLT ISZERO PUSH2 0x317B JUMPI PUSH1 0x0 DUP1 REVERT JUMPDEST DUP2 MLOAD DUP1 ISZERO ISZERO DUP2 EQ PUSH2 0x11B2 JUMPI PUSH1 0x0 DUP1 REVERT JUMPDEST PUSH1 0x1 DUP1 PUSH1 0xA0 SHL SUB DUP7 AND DUP2 MSTORE DUP5 PUSH1 0x20 DUP3 ADD MSTORE DUP4 PUSH1 0x40 DUP3 ADD MSTORE PUSH1 0x80 PUSH1 0x60 DUP3 ADD MSTORE DUP2 PUSH1 0x80 DUP3 ADD MSTORE DUP2 DUP4 PUSH1 0xA0 DUP4 ADD CALLDATACOPY PUSH1 0x0 DUP2 DUP4 ADD PUSH1 0xA0 SWAP1 DUP2 ADD SWAP2 SWAP1 SWAP2 MSTORE PUSH1 0x1F SWAP1 SWAP3 ADD PUSH1 0x1F NOT AND ADD ADD SWAP5 SWAP4 POP POP POP POP JUMP JUMPDEST PUSH1 0x0 PUSH1 0x20 DUP3 DUP5 SUB SLT ISZERO PUSH2 0x31E9 JUMPI PUSH1 0x0 DUP1 REVERT JUMPDEST POP MLOAD SWAP2 SWAP1 POP JUMP JUMPDEST PUSH4 0x4E487B71 PUSH1 0xE0 SHL PUSH1 0x0 MSTORE PUSH1 0x11 PUSH1 0x4 MSTORE PUSH1 0x24 PUSH1 0x0 REVERT JUMPDEST PUSH1 0x0 DUP3 DUP3 LT ISZERO PUSH2 0x3218 JUMPI PUSH2 0x3218 PUSH2 0x31F0 JUMP JUMPDEST POP SUB SWAP1 JUMP JUMPDEST PUSH1 0x0 DUP3 PUSH2 0x323A JUMPI PUSH4 0x4E487B71 PUSH1 0xE0 SHL PUSH1 0x0 MSTORE PUSH1 0x12 PUSH1 0x4 MSTORE PUSH1 0x24 PUSH1 0x0 REVERT JUMPDEST POP DIV SWAP1 JUMP JUMPDEST PUSH1 0x1 DUP2 DUP2 SHR SWAP1 DUP3 AND DUP1 PUSH2 0x3253 JUMPI PUSH1 0x7F DUP3 AND SWAP2 POP JUMPDEST PUSH1 0x20 DUP3 LT DUP2 EQ ISZERO PUSH2 0x298B JUMPI PUSH4 0x4E487B71 PUSH1 0xE0 SHL PUSH1 0x0 MSTORE PUSH1 0x22 PUSH1 0x4 MSTORE PUSH1 0x24 PUSH1 0x0 REVERT JUMPDEST PUSH4 0x4E487B71 PUSH1 0xE0 SHL PUSH1 0x0 MSTORE PUSH1 0x41 PUSH1 0x4 MSTORE PUSH1 0x24 PUSH1 0x0 REVERT JUMPDEST PUSH1 0x0 DUP2 PUSH1 0x0 NOT DIV DUP4 GT DUP3 ISZERO ISZERO AND ISZERO PUSH2 0x32A4 JUMPI PUSH2 0x32A4 PUSH2 0x31F0 JUMP JUMPDEST POP MUL SWAP1 JUMP JUMPDEST PUSH1 0x0 DUP3 NOT DUP3 GT ISZERO PUSH2 0x32BC JUMPI PUSH2 0x32BC PUSH2 0x31F0 JUMP JUMPDEST POP ADD SWAP1 JUMP JUMPDEST PUSH4 0x4E487B71 PUSH1 0xE0 SHL PUSH1 0x0 MSTORE PUSH1 0x32 PUSH1 0x4 MSTORE PUSH1 0x24 PUSH1 0x0 REVERT JUMPDEST PUSH1 0x0 PUSH1 0x0 NOT DUP3 EQ ISZERO PUSH2 0x32EB JUMPI PUSH2 0x32EB PUSH2 0x31F0 JUMP JUMPDEST POP PUSH1 0x1 ADD SWAP1 JUMP JUMPDEST PUSH1 0x0 DUP1 DUP4 SLOAD DUP2 PUSH1 0x1 DUP3 DUP2 SHR SWAP2 POP DUP1 DUP4 AND DUP1 PUSH2 0x330E JUMPI PUSH1 0x7F DUP4 AND SWAP3 POP JUMPDEST PUSH1 0x20 DUP1 DUP5 LT DUP3 EQ ISZERO PUSH2 0x332E JUMPI PUSH4 0x4E487B71 PUSH1 0xE0 SHL DUP7 MSTORE PUSH1 0x22 PUSH1 0x4 MSTORE PUSH1 0x24 DUP7 REVERT JUMPDEST DUP2 DUP1 ISZERO PUSH2 0x3342 JUMPI PUSH1 0x1 DUP2 EQ PUSH2 0x3353 JUMPI PUSH2 0x3380 JUMP JUMPDEST PUSH1 0xFF NOT DUP7 AND DUP10 MSTORE DUP5 DUP10 ADD SWAP7 POP PUSH2 0x3380 JUMP JUMPDEST PUSH1 0x0 DUP11 DUP2 MSTORE PUSH1 0x20 SWAP1 KECCAK256 PUSH1 0x0 JUMPDEST DUP7 DUP2 LT ISZERO PUSH2 0x3378 JUMPI DUP2 SLOAD DUP12 DUP3 ADD MSTORE SWAP1 DUP6 ADD SWAP1 DUP4 ADD PUSH2 0x335F JUMP JUMPDEST POP POP DUP5 DUP10 ADD SWAP7 POP JUMPDEST POP SWAP5 SWAP9 SWAP8 POP POP POP POP POP POP POP POP JUMP JUMPDEST PUSH1 0x0 DUP3 MLOAD PUSH2 0x33A0 DUP2 DUP5 PUSH1 0x20 DUP8 ADD PUSH2 0x2EF3 JUMP JUMPDEST SWAP2 SWAP1 SWAP2 ADD SWAP3 SWAP2 POP POP JUMP INVALID LOG2 PUSH5 0x6970667358 0x22 SLT KECCAK256 PUSH16 0x8B06D13CE677BE75C00F764DE86F270F MSTORE8 DUP15 0xD4 0x2C 0xA8 LOG4 PUSH25 0x844E9C53C329F13B64736F6C634300080B003360E060405234 DUP1 ISZERO PUSH2 0x10 JUMPI PUSH1 0x0 DUP1 REVERT JUMPDEST POP PUSH1 0x40 MLOAD PUSH2 0x370 CODESIZE SUB DUP1 PUSH2 0x370 DUP4 CODECOPY DUP2 ADD PUSH1 0x40 DUP2 SWAP1 MSTORE PUSH2 0x2F SWAP2 PUSH2 0x66 JUMP JUMPDEST CALLER PUSH1 0x80 MSTORE PUSH1 0x1 PUSH1 0x1 PUSH1 0xA0 SHL SUB SWAP2 DUP3 AND PUSH1 0xA0 MSTORE AND PUSH1 0xC0 MSTORE PUSH2 0x99 JUMP JUMPDEST DUP1 MLOAD PUSH1 0x1 PUSH1 0x1 PUSH1 0xA0 SHL SUB DUP2 AND DUP2 EQ PUSH2 0x61 JUMPI PUSH1 0x0 DUP1 REVERT JUMPDEST SWAP2 SWAP1 POP JUMP JUMPDEST PUSH1 0x0 DUP1 PUSH1 0x40 DUP4 DUP6 SUB SLT ISZERO PUSH2 0x79 JUMPI PUSH1 0x0 DUP1 REVERT JUMPDEST PUSH2 0x82 DUP4 PUSH2 0x4A JUMP JUMPDEST SWAP2 POP PUSH2 0x90 PUSH1 0x20 DUP5 ADD PUSH2 0x4A JUMP JUMPDEST SWAP1 POP SWAP3 POP SWAP3 SWAP1 POP JUMP JUMPDEST PUSH1 0x80 MLOAD PUSH1 0xA0 MLOAD PUSH1 0xC0 MLOAD PUSH2 0x2AB PUSH2 0xC5 PUSH1 0x0 CODECOPY PUSH1 0x0 PUSH1 0xB6 ADD MSTORE PUSH1 0x0 PUSH1 0x85 ADD MSTORE PUSH1 0x0 PUSH1 0x50 ADD MSTORE PUSH2 0x2AB PUSH1 0x0 RETURN INVALID PUSH1 0x80 PUSH1 0x40 MSTORE CALLVALUE DUP1 ISZERO PUSH2 0x10 JUMPI PUSH1 0x0 DUP1 REVERT JUMPDEST POP PUSH1 0x4 CALLDATASIZE LT PUSH2 0x2B JUMPI PUSH1 0x0 CALLDATALOAD PUSH1 0xE0 SHR DUP1 PUSH4 0x533CF5CE EQ PUSH2 0x30 JUMPI JUMPDEST PUSH1 0x0 DUP1 REVERT JUMPDEST PUSH2 0x43 PUSH2 0x3E CALLDATASIZE PUSH1 0x4 PUSH2 0x1D0 JUMP JUMPDEST PUSH2 0x45 JUMP JUMPDEST STOP JUMPDEST CALLER PUSH1 0x1 PUSH1 0x1 PUSH1 0xA0 SHL SUB PUSH32 0x0 AND EQ PUSH2 0x7A JUMPI PUSH1 0x0 DUP1 REVERT JUMPDEST DUP2 ISZERO PUSH2 0xAB JUMPI PUSH2 0xAB PUSH32 0x0 DUP5 DUP5 PUSH2 0xE1 JUMP JUMPDEST DUP1 ISZERO PUSH2 0xDC JUMPI PUSH2 0xDC PUSH32 0x0 DUP5 DUP4 PUSH2 0xE1 JUMP JUMPDEST POP POP POP JUMP JUMPDEST PUSH1 0x0 DUP4 PUSH1 0x1 PUSH1 0x1 PUSH1 0xA0 SHL SUB AND EXTCODESIZE GT PUSH2 0xF8 JUMPI PUSH1 0x0 DUP1 REVERT JUMPDEST PUSH1 0x40 DUP1 MLOAD PUSH1 0x1 PUSH1 0x1 PUSH1 0xA0 SHL SUB DUP5 DUP2 AND PUSH1 0x24 DUP4 ADD MSTORE PUSH1 0x44 DUP1 DUP4 ADD DUP6 SWAP1 MSTORE DUP4 MLOAD DUP1 DUP5 SUB SWAP1 SWAP2 ADD DUP2 MSTORE PUSH1 0x64 SWAP1 SWAP3 ADD DUP4 MSTORE PUSH1 0x20 DUP3 ADD DUP1 MLOAD PUSH1 0x1 PUSH1 0x1 PUSH1 0xE0 SHL SUB AND PUSH4 0xA9059CBB PUSH1 0xE0 SHL OR SWAP1 MSTORE SWAP2 MLOAD PUSH1 0x0 SWAP3 DUP4 SWAP3 SWAP1 DUP8 AND SWAP2 PUSH2 0x154 SWAP2 SWAP1 PUSH2 0x211 JUMP JUMPDEST PUSH1 0x0 PUSH1 0x40 MLOAD DUP1 DUP4 SUB DUP2 PUSH1 0x0 DUP7 GAS CALL SWAP2 POP POP RETURNDATASIZE DUP1 PUSH1 0x0 DUP2 EQ PUSH2 0x191 JUMPI PUSH1 0x40 MLOAD SWAP2 POP PUSH1 0x1F NOT PUSH1 0x3F RETURNDATASIZE ADD AND DUP3 ADD PUSH1 0x40 MSTORE RETURNDATASIZE DUP3 MSTORE RETURNDATASIZE PUSH1 0x0 PUSH1 0x20 DUP5 ADD RETURNDATACOPY PUSH2 0x196 JUMP JUMPDEST PUSH1 0x60 SWAP2 POP JUMPDEST POP SWAP2 POP SWAP2 POP DUP2 DUP1 ISZERO PUSH2 0x1C0 JUMPI POP DUP1 MLOAD ISZERO DUP1 PUSH2 0x1C0 JUMPI POP DUP1 DUP1 PUSH1 0x20 ADD SWAP1 MLOAD DUP2 ADD SWAP1 PUSH2 0x1C0 SWAP2 SWAP1 PUSH2 0x24C JUMP JUMPDEST PUSH2 0x1C9 JUMPI PUSH1 0x0 DUP1 REVERT JUMPDEST POP POP POP POP POP JUMP JUMPDEST PUSH1 0x0 DUP1 PUSH1 0x0 PUSH1 0x60 DUP5 DUP7 SUB SLT ISZERO PUSH2 0x1E5 JUMPI PUSH1 0x0 DUP1 REVERT JUMPDEST DUP4 CALLDATALOAD PUSH1 0x1 PUSH1 0x1 PUSH1 0xA0 SHL SUB DUP2 AND DUP2 EQ PUSH2 0x1FC JUMPI PUSH1 0x0 DUP1 REVERT JUMPDEST SWAP6 PUSH1 0x20 DUP6 ADD CALLDATALOAD SWAP6 POP PUSH1 0x40 SWAP1 SWAP5 ADD CALLDATALOAD SWAP4 SWAP3 POP POP POP JUMP JUMPDEST PUSH1 0x0 DUP3 MLOAD PUSH1 0x0 JUMPDEST DUP2 DUP2 LT ISZERO PUSH2 0x232 JUMPI PUSH1 0x20 DUP2 DUP7 ADD DUP2 ADD MLOAD DUP6 DUP4 ADD MSTORE ADD PUSH2 0x218 JUMP JUMPDEST DUP2 DUP2 GT ISZERO PUSH2 0x241 JUMPI PUSH1 0x0 DUP3 DUP6 ADD MSTORE JUMPDEST POP SWAP2 SWAP1 SWAP2 ADD SWAP3 SWAP2 POP POP JUMP JUMPDEST PUSH1 0x0 PUSH1 0x20 DUP3 DUP5 SUB SLT ISZERO PUSH2 0x25E JUMPI PUSH1 0x0 DUP1 REVERT JUMPDEST DUP2 MLOAD DUP1 ISZERO ISZERO DUP2 EQ PUSH2 0x26E JUMPI PUSH1 0x0 DUP1 REVERT JUMPDEST SWAP4 SWAP3 POP POP POP JUMP INVALID LOG2 PUSH5 0x6970667358 0x22 SLT KECCAK256 0xB1 0xE7 PUSH9 0xC5B575DCF96CDB6B0A NUMBER CALLDATACOPY SWAP2 0xE2 BYTE 0xF6 DUP11 PUSH31 0x277397E37367F485B6EFACD564736F6C634300080B00330000000000000000 "
        },
        "methodIdentifiers": {
          "allowance(address,address)": "dd62ed3e",
          "approve(address,uint256)": "095ea7b3",
          "balanceOf(address)": "70a08231",
          "blockTimestampLast()": "c5700a02",
          "burn(address)": "89afcb44",
          "claimFees()": "d294f093",
          "claimable0(address)": "4d5a9f8a",
          "claimable1(address)": "a1ac4d13",
          "current(address,uint256)": "517b3f82",
          "currentCumulativePrices()": "1df8c717",
          "decimals()": "313ce567",
          "fees()": "9af1d35a",
          "getAmountOut(uint256,address)": "f140a35a",
          "getReserves()": "0902f1ac",
          "index0()": "32c0defd",
          "index1()": "bda39cad",
          "lastObservation()": "8a7b8cf2",
          "metadata()": "392f37e9",
          "mint(address)": "6a627842",
          "name()": "06fdde03",
          "nonces(address)": "7ecebe00",
          "observationLength()": "ebeb31db",
          "observations(uint256)": "252c09d7",
          "permit(address,address,uint256,uint256,uint8,bytes32,bytes32)": "d505accf",
          "prices(address,uint256,uint256)": "5881c475",
          "quote(address,uint256,uint256)": "9e8cc04b",
          "reserve0()": "443cb4bc",
          "reserve0CumulativeLast()": "bf944dbc",
          "reserve1()": "5a76f25e",
          "reserve1CumulativeLast()": "c245febc",
          "sample(address,uint256,uint256,uint256)": "13345fe1",
          "skim(address)": "bc25cf77",
          "stable()": "22be3de1",
          "supplyIndex0(address)": "9f767c88",
          "supplyIndex1(address)": "205aabf1",
          "swap(uint256,uint256,address,bytes)": "022c0d9f",
          "symbol()": "95d89b41",
          "sync()": "fff6cae9",
          "token0()": "0dfe1681",
          "token1()": "d21220a7",
          "tokens()": "9d63848a",
          "totalSupply()": "18160ddd",
          "transfer(address,uint256)": "a9059cbb",
          "transferFrom(address,address,uint256)": "23b872dd"
        }
      }
    }
  }
}