{
  "contracts/BaseV1-voter.sol": {
    "BaseV1Voter": {
      "abi": [
        {
          "inputs": [
            {
              "internalType": "address",
              "name": "__ve",
              "type": "address"
            },
            {
              "internalType": "address",
              "name": "_factory",
              "type": "address"
            },
            {
              "internalType": "address",
              "name": "_gauges",
              "type": "address"
            },
            {
              "internalType": "address",
              "name": "_bribes",
              "type": "address"
            },
            {
              "internalType": "address",
              "name": "_gaugeWhiteList",
              "type": "address"
            }
          ],
          "stateMutability": "nonpayable",
          "type": "constructor"
        },
        {
          "anonymous": false,
          "inputs": [
            {
              "indexed": false,
              "internalType": "uint256",
              "name": "tokenId",
              "type": "uint256"
            },
            {
              "indexed": false,
              "internalType": "int256",
              "name": "weight",
              "type": "int256"
            }
          ],
          "name": "Abstained",
          "type": "event"
        },
        {
          "anonymous": false,
          "inputs": [
            {
              "indexed": true,
              "internalType": "address",
              "name": "owner",
              "type": "address"
            },
            {
              "indexed": true,
              "internalType": "address",
              "name": "gauge",
              "type": "address"
            },
            {
              "indexed": false,
              "internalType": "uint256",
              "name": "tokenId",
              "type": "uint256"
            }
          ],
          "name": "Attach",
          "type": "event"
        },
        {
          "anonymous": false,
          "inputs": [
            {
              "indexed": true,
              "internalType": "address",
              "name": "lp",
              "type": "address"
            },
            {
              "indexed": true,
              "internalType": "address",
              "name": "gauge",
              "type": "address"
            },
            {
              "indexed": false,
              "internalType": "uint256",
              "name": "tokenId",
              "type": "uint256"
            },
            {
              "indexed": false,
              "internalType": "uint256",
              "name": "amount",
              "type": "uint256"
            }
          ],
          "name": "Deposit",
          "type": "event"
        },
        {
          "anonymous": false,
          "inputs": [
            {
              "indexed": true,
              "internalType": "address",
              "name": "owner",
              "type": "address"
            },
            {
              "indexed": true,
              "internalType": "address",
              "name": "gauge",
              "type": "address"
            },
            {
              "indexed": false,
              "internalType": "uint256",
              "name": "tokenId",
              "type": "uint256"
            }
          ],
          "name": "Detach",
          "type": "event"
        },
        {
          "anonymous": false,
          "inputs": [
            {
              "indexed": true,
              "internalType": "address",
              "name": "sender",
              "type": "address"
            },
            {
              "indexed": true,
              "internalType": "address",
              "name": "gauge",
              "type": "address"
            },
            {
              "indexed": false,
              "internalType": "uint256",
              "name": "amount",
              "type": "uint256"
            }
          ],
          "name": "DistributeReward",
          "type": "event"
        },
        {
          "anonymous": false,
          "inputs": [
            {
              "indexed": true,
              "internalType": "address",
              "name": "gauge",
              "type": "address"
            },
            {
              "indexed": false,
              "internalType": "address",
              "name": "creator",
              "type": "address"
            },
            {
              "indexed": true,
              "internalType": "address",
              "name": "bribe",
              "type": "address"
            },
            {
              "indexed": true,
              "internalType": "address",
              "name": "pool",
              "type": "address"
            }
          ],
          "name": "GaugeCreated",
          "type": "event"
        },
        {
          "anonymous": false,
          "inputs": [
            {
              "indexed": true,
              "internalType": "address",
              "name": "sender",
              "type": "address"
            },
            {
              "indexed": true,
              "internalType": "address",
              "name": "reward",
              "type": "address"
            },
            {
              "indexed": false,
              "internalType": "uint256",
              "name": "amount",
              "type": "uint256"
            }
          ],
          "name": "NotifyReward",
          "type": "event"
        },
        {
          "anonymous": false,
          "inputs": [
            {
              "indexed": true,
              "internalType": "address",
              "name": "voter",
              "type": "address"
            },
            {
              "indexed": false,
              "internalType": "uint256",
              "name": "tokenId",
              "type": "uint256"
            },
            {
              "indexed": false,
              "internalType": "int256",
              "name": "weight",
              "type": "int256"
            }
          ],
          "name": "Voted",
          "type": "event"
        },
        {
          "anonymous": false,
          "inputs": [
            {
              "indexed": true,
              "internalType": "address",
              "name": "whitelister",
              "type": "address"
            },
            {
              "indexed": true,
              "internalType": "address",
              "name": "token",
              "type": "address"
            }
          ],
          "name": "Whitelisted",
          "type": "event"
        },
        {
          "anonymous": false,
          "inputs": [
            {
              "indexed": true,
              "internalType": "address",
              "name": "lp",
              "type": "address"
            },
            {
              "indexed": true,
              "internalType": "address",
              "name": "gauge",
              "type": "address"
            },
            {
              "indexed": false,
              "internalType": "uint256",
              "name": "tokenId",
              "type": "uint256"
            },
            {
              "indexed": false,
              "internalType": "uint256",
              "name": "amount",
              "type": "uint256"
            }
          ],
          "name": "Withdraw",
          "type": "event"
        },
        {
          "inputs": [],
          "name": "_ve",
          "outputs": [
            {
              "internalType": "address",
              "name": "",
              "type": "address"
            }
          ],
          "stateMutability": "view",
          "type": "function"
        },
        {
          "inputs": [
            {
              "internalType": "uint256",
              "name": "tokenId",
              "type": "uint256"
            },
            {
              "internalType": "address",
              "name": "account",
              "type": "address"
            }
          ],
          "name": "attachTokenToGauge",
          "outputs": [],
          "stateMutability": "nonpayable",
          "type": "function"
        },
        {
          "inputs": [],
          "name": "bribefactory",
          "outputs": [
            {
              "internalType": "address",
              "name": "",
              "type": "address"
            }
          ],
          "stateMutability": "view",
          "type": "function"
        },
        {
          "inputs": [
            {
              "internalType": "address",
              "name": "",
              "type": "address"
            }
          ],
          "name": "bribes",
          "outputs": [
            {
              "internalType": "address",
              "name": "",
              "type": "address"
            }
          ],
          "stateMutability": "view",
          "type": "function"
        },
        {
          "inputs": [
            {
              "internalType": "address[]",
              "name": "_bribes",
              "type": "address[]"
            },
            {
              "internalType": "address[][]",
              "name": "_tokens",
              "type": "address[][]"
            },
            {
              "internalType": "uint256",
              "name": "_tokenId",
              "type": "uint256"
            }
          ],
          "name": "claimBribes",
          "outputs": [],
          "stateMutability": "nonpayable",
          "type": "function"
        },
        {
          "inputs": [
            {
              "internalType": "address[]",
              "name": "_fees",
              "type": "address[]"
            },
            {
              "internalType": "address[][]",
              "name": "_tokens",
              "type": "address[][]"
            },
            {
              "internalType": "uint256",
              "name": "_tokenId",
              "type": "uint256"
            }
          ],
          "name": "claimFees",
          "outputs": [],
          "stateMutability": "nonpayable",
          "type": "function"
        },
        {
          "inputs": [
            {
              "internalType": "address[]",
              "name": "_gauges",
              "type": "address[]"
            },
            {
              "internalType": "address[][]",
              "name": "_tokens",
              "type": "address[][]"
            }
          ],
          "name": "claimRewards",
          "outputs": [],
          "stateMutability": "nonpayable",
          "type": "function"
        },
        {
          "inputs": [
            {
              "internalType": "address",
              "name": "",
              "type": "address"
            }
          ],
          "name": "claimable",
          "outputs": [
            {
              "internalType": "uint256",
              "name": "",
              "type": "uint256"
            }
          ],
          "stateMutability": "view",
          "type": "function"
        },
        {
          "inputs": [
            {
              "internalType": "address",
              "name": "_pool",
              "type": "address"
            }
          ],
          "name": "createGauge",
          "outputs": [
            {
              "internalType": "address",
              "name": "",
              "type": "address"
            }
          ],
          "stateMutability": "nonpayable",
          "type": "function"
        },
        {
          "inputs": [
            {
              "internalType": "uint256",
              "name": "tokenId",
              "type": "uint256"
            },
            {
              "internalType": "address",
              "name": "account",
              "type": "address"
            }
          ],
          "name": "detachTokenFromGauge",
          "outputs": [],
          "stateMutability": "nonpayable",
          "type": "function"
        },
        {
          "inputs": [
            {
              "internalType": "address[]",
              "name": "_gauges",
              "type": "address[]"
            }
          ],
          "name": "distribute",
          "outputs": [],
          "stateMutability": "nonpayable",
          "type": "function"
        },
        {
          "inputs": [
            {
              "internalType": "address",
              "name": "_gauge",
              "type": "address"
            }
          ],
          "name": "distribute",
          "outputs": [],
          "stateMutability": "nonpayable",
          "type": "function"
        },
        {
          "inputs": [
            {
              "internalType": "uint256",
              "name": "start",
              "type": "uint256"
            },
            {
              "internalType": "uint256",
              "name": "finish",
              "type": "uint256"
            }
          ],
          "name": "distribute",
          "outputs": [],
          "stateMutability": "nonpayable",
          "type": "function"
        },
        {
          "inputs": [],
          "name": "distribute",
          "outputs": [],
          "stateMutability": "nonpayable",
          "type": "function"
        },
        {
          "inputs": [
            {
              "internalType": "address[]",
              "name": "_gauges",
              "type": "address[]"
            }
          ],
          "name": "distributeFees",
          "outputs": [],
          "stateMutability": "nonpayable",
          "type": "function"
        },
        {
          "inputs": [],
          "name": "distro",
          "outputs": [],
          "stateMutability": "nonpayable",
          "type": "function"
        },
        {
          "inputs": [
            {
              "internalType": "uint256",
              "name": "tokenId",
              "type": "uint256"
            },
            {
              "internalType": "address",
              "name": "account",
              "type": "address"
            },
            {
              "internalType": "uint256",
              "name": "amount",
              "type": "uint256"
            }
          ],
          "name": "emitDeposit",
          "outputs": [],
          "stateMutability": "nonpayable",
          "type": "function"
        },
        {
          "inputs": [
            {
              "internalType": "uint256",
              "name": "tokenId",
              "type": "uint256"
            },
            {
              "internalType": "address",
              "name": "account",
              "type": "address"
            },
            {
              "internalType": "uint256",
              "name": "amount",
              "type": "uint256"
            }
          ],
          "name": "emitWithdraw",
          "outputs": [],
          "stateMutability": "nonpayable",
          "type": "function"
        },
        {
          "inputs": [],
          "name": "factory",
          "outputs": [
            {
              "internalType": "address",
              "name": "",
              "type": "address"
            }
          ],
          "stateMutability": "view",
          "type": "function"
        },
        {
          "inputs": [],
          "name": "gaugeWhiteList",
          "outputs": [
            {
              "internalType": "contract IGaugeWhiteList",
              "name": "",
              "type": "address"
            }
          ],
          "stateMutability": "view",
          "type": "function"
        },
        {
          "inputs": [],
          "name": "gaugefactory",
          "outputs": [
            {
              "internalType": "address",
              "name": "",
              "type": "address"
            }
          ],
          "stateMutability": "view",
          "type": "function"
        },
        {
          "inputs": [
            {
              "internalType": "address",
              "name": "",
              "type": "address"
            }
          ],
          "name": "gauges",
          "outputs": [
            {
              "internalType": "address",
              "name": "",
              "type": "address"
            }
          ],
          "stateMutability": "view",
          "type": "function"
        },
        {
          "inputs": [
            {
              "internalType": "address[]",
              "name": "_tokens",
              "type": "address[]"
            },
            {
              "internalType": "address",
              "name": "_minter",
              "type": "address"
            }
          ],
          "name": "initialize",
          "outputs": [],
          "stateMutability": "nonpayable",
          "type": "function"
        },
        {
          "inputs": [
            {
              "internalType": "address",
              "name": "",
              "type": "address"
            }
          ],
          "name": "isGauge",
          "outputs": [
            {
              "internalType": "bool",
              "name": "",
              "type": "bool"
            }
          ],
          "stateMutability": "view",
          "type": "function"
        },
        {
          "inputs": [
            {
              "internalType": "address",
              "name": "",
              "type": "address"
            }
          ],
          "name": "isWhitelisted",
          "outputs": [
            {
              "internalType": "bool",
              "name": "",
              "type": "bool"
            }
          ],
          "stateMutability": "view",
          "type": "function"
        },
        {
          "inputs": [],
          "name": "length",
          "outputs": [
            {
              "internalType": "uint256",
              "name": "",
              "type": "uint256"
            }
          ],
          "stateMutability": "view",
          "type": "function"
        },
        {
          "inputs": [],
          "name": "listing_fee",
          "outputs": [
            {
              "internalType": "uint256",
              "name": "",
              "type": "uint256"
            }
          ],
          "stateMutability": "view",
          "type": "function"
        },
        {
          "inputs": [],
          "name": "minter",
          "outputs": [
            {
              "internalType": "address",
              "name": "",
              "type": "address"
            }
          ],
          "stateMutability": "view",
          "type": "function"
        },
        {
          "inputs": [
            {
              "internalType": "uint256",
              "name": "amount",
              "type": "uint256"
            }
          ],
          "name": "notifyRewardAmount",
          "outputs": [],
          "stateMutability": "nonpayable",
          "type": "function"
        },
        {
          "inputs": [
            {
              "internalType": "uint256",
              "name": "_tokenId",
              "type": "uint256"
            }
          ],
          "name": "poke",
          "outputs": [],
          "stateMutability": "nonpayable",
          "type": "function"
        },
        {
          "inputs": [
            {
              "internalType": "address",
              "name": "",
              "type": "address"
            }
          ],
          "name": "poolForGauge",
          "outputs": [
            {
              "internalType": "address",
              "name": "",
              "type": "address"
            }
          ],
          "stateMutability": "view",
          "type": "function"
        },
        {
          "inputs": [
            {
              "internalType": "uint256",
              "name": "",
              "type": "uint256"
            },
            {
              "internalType": "uint256",
              "name": "",
              "type": "uint256"
            }
          ],
          "name": "poolVote",
          "outputs": [
            {
              "internalType": "address",
              "name": "",
              "type": "address"
            }
          ],
          "stateMutability": "view",
          "type": "function"
        },
        {
          "inputs": [
            {
              "internalType": "uint256",
              "name": "",
              "type": "uint256"
            }
          ],
          "name": "pools",
          "outputs": [
            {
              "internalType": "address",
              "name": "",
              "type": "address"
            }
          ],
          "stateMutability": "view",
          "type": "function"
        },
        {
          "inputs": [
            {
              "internalType": "uint256",
              "name": "_tokenId",
              "type": "uint256"
            }
          ],
          "name": "reset",
          "outputs": [],
          "stateMutability": "nonpayable",
          "type": "function"
        },
        {
          "inputs": [],
          "name": "totalWeight",
          "outputs": [
            {
              "internalType": "uint256",
              "name": "",
              "type": "uint256"
            }
          ],
          "stateMutability": "view",
          "type": "function"
        },
        {
          "inputs": [],
          "name": "updateAll",
          "outputs": [],
          "stateMutability": "nonpayable",
          "type": "function"
        },
        {
          "inputs": [
            {
              "internalType": "address[]",
              "name": "_gauges",
              "type": "address[]"
            }
          ],
          "name": "updateFor",
          "outputs": [],
          "stateMutability": "nonpayable",
          "type": "function"
        },
        {
          "inputs": [
            {
              "internalType": "uint256",
              "name": "start",
              "type": "uint256"
            },
            {
              "internalType": "uint256",
              "name": "end",
              "type": "uint256"
            }
          ],
          "name": "updateForRange",
          "outputs": [],
          "stateMutability": "nonpayable",
          "type": "function"
        },
        {
          "inputs": [
            {
              "internalType": "address",
              "name": "_gauge",
              "type": "address"
            }
          ],
          "name": "updateGauge",
          "outputs": [],
          "stateMutability": "nonpayable",
          "type": "function"
        },
        {
          "inputs": [
            {
              "internalType": "address",
              "name": "_newMinter",
              "type": "address"
            }
          ],
          "name": "updateMinter",
          "outputs": [],
          "stateMutability": "nonpayable",
          "type": "function"
        },
        {
          "inputs": [
            {
              "internalType": "uint256",
              "name": "",
              "type": "uint256"
            }
          ],
          "name": "usedWeights",
          "outputs": [
            {
              "internalType": "uint256",
              "name": "",
              "type": "uint256"
            }
          ],
          "stateMutability": "view",
          "type": "function"
        },
        {
          "inputs": [
            {
              "internalType": "uint256",
              "name": "tokenId",
              "type": "uint256"
            },
            {
              "internalType": "address[]",
              "name": "_poolVote",
              "type": "address[]"
            },
            {
              "internalType": "int256[]",
              "name": "_weights",
              "type": "int256[]"
            }
          ],
          "name": "vote",
          "outputs": [],
          "stateMutability": "nonpayable",
          "type": "function"
        },
        {
          "inputs": [
            {
              "internalType": "uint256",
              "name": "",
              "type": "uint256"
            },
            {
              "internalType": "address",
              "name": "",
              "type": "address"
            }
          ],
          "name": "votes",
          "outputs": [
            {
              "internalType": "int256",
              "name": "",
              "type": "int256"
            }
          ],
          "stateMutability": "view",
          "type": "function"
        },
        {
          "inputs": [
            {
              "internalType": "address",
              "name": "",
              "type": "address"
            }
          ],
          "name": "weights",
          "outputs": [
            {
              "internalType": "int256",
              "name": "",
              "type": "int256"
            }
          ],
          "stateMutability": "view",
          "type": "function"
        },
        {
          "inputs": [
            {
              "internalType": "address",
              "name": "_token",
              "type": "address"
            },
            {
              "internalType": "uint256",
              "name": "_tokenId",
              "type": "uint256"
            }
          ],
          "name": "whitelist",
          "outputs": [],
          "stateMutability": "nonpayable",
          "type": "function"
        }
      ],
      "evm": {
        "bytecode": {
          "linkReferences": {},
          "object": "6101206040526001600e553480156200001757600080fd5b50604051620032e3380380620032e38339810160408190526200003a9162000115565b6001600160a01b03808616608081905290851660a05260408051637e062a3560e11b8152905163fc0c546a916004808201926020929091908290030181865afa1580156200008c573d6000803e3d6000fd5b505050506040513d601f19601f82011682018060405250810190620000b2919062000185565b6001600160a01b0390811660c05292831660e05290821661010052600080546001600160a01b031990811633179091556001805492909316911617905550620001aa9050565b80516001600160a01b03811681146200011057600080fd5b919050565b600080600080600060a086880312156200012e57600080fd5b6200013986620000f8565b94506200014960208701620000f8565b93506200015960408701620000f8565b92506200016960608701620000f8565b91506200017960808701620000f8565b90509295509295909350565b6000602082840312156200019857600080fd5b620001a382620000f8565b9392505050565b60805160a05160c05160e0516101005161305a620002896000396000818161032f01526117a3015260008181610451015261187a0152600081816109e501528181610a5e01528181610d9e01528181610e5a01528181611441015281816119110152611bde015260008181610623015261155a0152600081816104e40152818161078e0152818161082901528181610aeb01528181610f2a0152818161108f015281816111bf01528181611308015281816113b60152818161184c01528181611b5c01528181611e2c015281816121920152612515015261305a6000f3fe608060405234801561001057600080fd5b506004361061027f5760003560e01c80637625391a1161015c578063a8c5d95a116100ce578063c527ee1f11610087578063c527ee1f14610645578063d23254b414610658578063d560b0d714610683578063e4fc6b6d146103dd578063ea94ee4414610696578063fecdad60146106a957600080fd5b8063a8c5d95a1461058e578063aa79979b146105b7578063ac4afa38146105da578063b980777a146105ed578063b9a09fd5146105f5578063c45a01551461061e57600080fd5b806398fc55d81161012057806398fc55d81461050f5780639b6a9d7214610522578063a5f4301e14610535578063a61c713a14610548578063a7cac8461461055b578063a86a366d1461057b57600080fd5b80637625391a146104995780637715ee75146104ac57806379e93824146104bf5780638dd598fb146104df57806396c82e571461050657600080fd5b8063462d0b2e116101f55780636138889b116101b95780636138889b1461041357806363453ae114610426578063666256aa1461043957806368c3acb31461044c578063698473e3146104735780636ecbe38a1461048657600080fd5b8063462d0b2e146103ca57806347b3c6ba146103dd5780634eb03f6e146103e557806353d78693146103f85780635f66d2971461040057600080fd5b806332145f901161024757806332145f901461031757806338752a9d1461032a5780633af32abf146103515780633c6b16ab14610384578063402914f514610397578063411b1f77146103b757600080fd5b806306d6a1b21461028457806307546172146102ca5780631f7b6d32146102dd57806320b1cb6f146102ef578063310bd74b14610304575b600080fd5b6102ad610292366004612841565b6005602052600090815260409020546001600160a01b031681565b6040516001600160a01b0390911681526020015b60405180910390f35b6000546102ad906001600160a01b031681565b6003545b6040519081526020016102c1565b6103026102fd3660046129c4565b6106bc565b005b610302610312366004612a28565b610772565b610302610325366004612a28565b610890565b6102ad7f000000000000000000000000000000000000000000000000000000000000000081565b61037461035f366004612841565b600c6020526000908152604090205460ff1681565b60405190151581526020016102c1565b610302610392366004612a28565b6109e0565b6102e16103a5366004612841565b60116020526000908152604090205481565b6103026103c5366004612a41565b610ab3565b6103026103d8366004612a71565b610b8d565b610302610c08565b6103026103f3366004612841565b610c19565b610302610c89565b6001546102ad906001600160a01b031681565b610302610421366004612ab8565b610c98565b610302610434366004612841565b610cdc565b610302610447366004612af5565b610f0e565b6102ad7f000000000000000000000000000000000000000000000000000000000000000081565b610302610481366004612a41565b611057565b610302610494366004612841565b611131565b6103026104a7366004612b62565b61113d565b6103026104ba366004612af5565b6111a3565b6102e16104cd366004612a28565b600a6020526000908152604090205481565b6102ad7f000000000000000000000000000000000000000000000000000000000000000081565b6102e160025481565b61030261051d366004612b84565b6112ec565b610302610530366004612b62565b611482565b6102ad610543366004612841565b6114e8565b610302610556366004612bb0565b611a8c565b6102e1610569366004612841565b60076020526000908152604090205481565b6102ad610589366004612b62565b611af4565b6102ad61059c366004612841565b6006602052600090815260409020546001600160a01b031681565b6103746105c5366004612841565b600b6020526000908152604090205460ff1681565b6102ad6105e8366004612a28565b611b2c565b6102e1611b56565b6102ad610603366004612841565b6004602052600090815260409020546001600160a01b031681565b6102ad7f000000000000000000000000000000000000000000000000000000000000000081565b610302610653366004612ab8565b611c77565b6102e1610666366004612a41565b600860209081526000928352604080842090915290825290205481565b610302610691366004612ab8565b611d14565b6103026106a4366004612bb0565b611d54565b6103026106b7366004612c34565b611db3565b60005b825181101561076d578281815181106106da576106da612cae565b60200260200101516001600160a01b03166331279d3d3384848151811061070357610703612cae565b60200260200101516040518363ffffffff1660e01b8152600401610728929190612d08565b600060405180830381600087803b15801561074257600080fd5b505af1158015610756573d6000803e3d6000fd5b50505050808061076590612d42565b9150506106bf565b505050565b60405163430c208160e01b8152336004820152602481018290527f00000000000000000000000000000000000000000000000000000000000000006001600160a01b03169063430c208190604401602060405180830381865afa1580156107dd573d6000803e3d6000fd5b505050506040513d601f19601f820116820180604052508101906108019190612d5d565b61080a57600080fd5b61081381611f48565b60405163c1f0fb9f60e01b8152600481018290527f00000000000000000000000000000000000000000000000000000000000000006001600160a01b03169063c1f0fb9f90602401600060405180830381600087803b15801561087557600080fd5b505af1158015610889573d6000803e3d6000fd5b5050505050565b6000818152600960209081526040808320805482518185028101850190935280835291929091908301828280156108f057602002820191906000526020600020905b81546001600160a01b031681526001909101906020018083116108d2575b5050505050905060008151905060008167ffffffffffffffff81111561091857610918612865565b604051908082528060200260200182016040528015610941578160200160208202803683370190505b50905060005b828110156109ce5760086000868152602001908152602001600020600085838151811061097657610976612cae565b60200260200101516001600160a01b03166001600160a01b03168152602001908152602001600020548282815181106109b1576109b1612cae565b6020908102919091010152806109c681612d42565b915050610947565b506109da84848361216e565b50505050565b610a0c7f00000000000000000000000000000000000000000000000000000000000000003330846125ac565b600254600090610a2483670de0b6b3a7640000612d7f565b610a2e9190612db4565b90508015610a4e5780600f6000828254610a489190612dc8565b90915550505b6040518281526001600160a01b037f0000000000000000000000000000000000000000000000000000000000000000169033907ff70d5c697de7ea828df48e5c4573cb2194c659f1901f70110c52b066dcf50826906020015b60405180910390a35050565b336000908152600b602052604090205460ff16610acf57600080fd5b8115610b5057604051634c35bec560e11b8152600481018390527f00000000000000000000000000000000000000000000000000000000000000006001600160a01b03169063986b7d8a90602401600060405180830381600087803b158015610b3757600080fd5b505af1158015610b4b573d6000803e3d6000fd5b505050505b60405182815233906001600160a01b038316907fae268d9aab12f3605f58efd74fd3801fa812b03fdb44317eb70f46dff0e19e2290602001610aa7565b6000546001600160a01b03163314610ba457600080fd5b60005b8251811015610be457610bd2838281518110610bc557610bc5612cae565b60200260200101516126a4565b80610bdc81612d42565b915050610ba7565b50600080546001600160a01b0319166001600160a01b039290921691909117905550565b600354610c179060009061113d565b565b6000546001600160a01b03163314610c675760405162461bcd60e51b815260206004820152600c60248201526b2737ba10309036b4b73a32b960a11b60448201526064015b60405180910390fd5b600080546001600160a01b0319166001600160a01b0392909216919091179055565b600354610c1790600090611482565b60005b8151811015610cd857610cc6828281518110610cb957610cb9612cae565b6020026020010151610cdc565b80610cd081612d42565b915050610c9b565b5050565b600e54600114610ceb57600080fd5b6002600e8190555060008054906101000a90046001600160a01b03166001600160a01b031663ed29fc116040518163ffffffff1660e01b81526004016020604051808303816000875af1158015610d46573d6000803e3d6000fd5b505050506040513d601f19601f82011682018060405250810190610d6a9190612de0565b50610d7481612717565b6001600160a01b0381811660008181526011602052604090819020549051634cde602960e11b81527f00000000000000000000000000000000000000000000000000000000000000009093166004840152916399bcc05290602401602060405180830381865afa158015610dec573d6000803e3d6000fd5b505050506040513d601f19601f82011682018060405250810190610e109190612de0565b81118015610e2a57506000610e2862093a8083612db4565b115b15610f05576001600160a01b03828116600081815260116020526040808220919091555163b66503cf60e01b81527f00000000000000000000000000000000000000000000000000000000000000009092166004830152602482018390529063b66503cf90604401600060405180830381600087803b158015610eac57600080fd5b505af1158015610ec0573d6000803e3d6000fd5b50506040518381526001600160a01b03851692503391507f4fa9693cae526341d334e2862ca2413b2e503f1266255f9e0869fb36e6d89b179060200160405180910390a35b50506001600e55565b60405163430c208160e01b8152336004820152602481018290527f00000000000000000000000000000000000000000000000000000000000000006001600160a01b03169063430c208190604401602060405180830381865afa158015610f79573d6000803e3d6000fd5b505050506040513d601f19601f82011682018060405250810190610f9d9190612d5d565b610fa657600080fd5b60005b83518110156109da57838181518110610fc457610fc4612cae565b60200260200101516001600160a01b031663a7852afa83858481518110610fed57610fed612cae565b60200260200101516040518363ffffffff1660e01b8152600401611012929190612df9565b600060405180830381600087803b15801561102c57600080fd5b505af1158015611040573d6000803e3d6000fd5b50505050808061104f90612d42565b915050610fa9565b336000908152600b602052604090205460ff1661107357600080fd5b81156110f45760405163fbd3a29d60e01b8152600481018390527f00000000000000000000000000000000000000000000000000000000000000006001600160a01b03169063fbd3a29d90602401600060405180830381600087803b1580156110db57600080fd5b505af11580156110ef573d6000803e3d6000fd5b505050505b60405182815233906001600160a01b038316907f60940192810a6fb3bce3fd3e2e3a13fd6ccc7605e963fb87ee971aba829989bd90602001610aa7565b61113a81612717565b50565b815b8181101561076d57611191600460006003848154811061116157611161612cae565b60009182526020808320909101546001600160a01b03908116845290830193909352604090910190205416610cdc565b8061119b81612d42565b91505061113f565b60405163430c208160e01b8152336004820152602481018290527f00000000000000000000000000000000000000000000000000000000000000006001600160a01b03169063430c208190604401602060405180830381865afa15801561120e573d6000803e3d6000fd5b505050506040513d601f19601f820116820180604052508101906112329190612d5d565b61123b57600080fd5b60005b83518110156109da5783818151811061125957611259612cae565b60200260200101516001600160a01b031663a7852afa8385848151811061128257611282612cae565b60200260200101516040518363ffffffff1660e01b81526004016112a7929190612df9565b600060405180830381600087803b1580156112c157600080fd5b505af11580156112d5573d6000803e3d6000fd5b5050505080806112e490612d42565b91505061123e565b8015611438576040516331a9108f60e11b8152600481018290527f00000000000000000000000000000000000000000000000000000000000000006001600160a01b031690636352211e90602401602060405180830381865afa158015611357573d6000803e3d6000fd5b505050506040513d601f19601f8201168201806040525081019061137b9190612e12565b6001600160a01b0316336001600160a01b03161461139857600080fd5b6113a0611b56565b6040516339f890b560e21b8152600481018390527f00000000000000000000000000000000000000000000000000000000000000006001600160a01b03169063e7e242d490602401602060405180830381865afa158015611405573d6000803e3d6000fd5b505050506040513d601f19601f820116820180604052508101906114299190612de0565b1161143357600080fd5b611479565b600054611479907f00000000000000000000000000000000000000000000000000000000000000009033906001600160a01b0316611474611b56565b6125ac565b610cd8826126a4565b815b8181101561076d576114d660046000600384815481106114a6576114a6612cae565b60009182526020808320909101546001600160a01b03908116845290830193909352604090910190205416612717565b806114e081612d42565b915050611484565b6001600160a01b038181166000908152600460205260408120549091161561153b5760405162461bcd60e51b815260206004820152600660248201526565786973747360d01b6044820152606401610c5e565b60405163e5e31b1360e01b81526001600160a01b0383811660048301527f0000000000000000000000000000000000000000000000000000000000000000169063e5e31b1390602401602060405180830381865afa1580156115a1573d6000803e3d6000fd5b505050506040513d601f19601f820116820180604052508101906115c59190612d5d565b6115fa5760405162461bcd60e51b81526020600482015260066024820152650857dc1bdbdb60d21b6044820152606401610c5e565b600080836001600160a01b0316639d63848a6040518163ffffffff1660e01b815260040160408051808303816000875af115801561163c573d6000803e3d6000fd5b505050506040513d601f19601f820116820180604052508101906116609190612e2f565b6001600160a01b0382166000908152600c6020526040902054919350915060ff1680156116a557506001600160a01b0381166000908152600c602052604090205460ff165b6116e05760405162461bcd60e51b815260206004820152600c60248201526b085dda1a5d195b1a5cdd195960a21b6044820152606401610c5e565b6001546040516303907c0560e11b81526001600160a01b0384811660048301528381166024830152868116604483015290911690630720f80a90606401602060405180830381865afa15801561173a573d6000803e3d6000fd5b505050506040513d601f19601f8201168201806040525081019061175e9190612d5d565b61179f5760405162461bcd60e51b81526020600482015260126024820152710851d85d59d94815da1a5d19531a5cdd195960721b6044820152606401610c5e565b60007f00000000000000000000000000000000000000000000000000000000000000006001600160a01b031663d27b9a786040518163ffffffff1660e01b81526004016020604051808303816000875af1158015611801573d6000803e3d6000fd5b505050506040513d601f19601f820116820180604052508101906118259190612e12565b604051630e24707d60e11b81526001600160a01b03878116600483015280831660248301527f0000000000000000000000000000000000000000000000000000000000000000811660448301529192506000917f00000000000000000000000000000000000000000000000000000000000000001690631c48e0fa906064016020604051808303816000875af11580156118c3573d6000803e3d6000fd5b505050506040513d601f19601f820116820180604052508101906118e79190612e12565b60405163095ea7b360e01b81526001600160a01b03808316600483015260001960248301529192507f00000000000000000000000000000000000000000000000000000000000000009091169063095ea7b3906044016020604051808303816000875af115801561195c573d6000803e3d6000fd5b505050506040513d601f19601f820116820180604052508101906119809190612d5d565b506001600160a01b03808216600081815260066020908152604080832080548689166001600160a01b031991821617909155948b16808452600483528184208054871686179055938352600582528083208054909516909317909355600b9092529020805460ff191660011790556119f781612717565b600380546001810182556000919091527fc2575a0e9e593c00f959f8c92f12db2869c3395a3b0502d05e2516446f71f85b0180546001600160a01b0319166001600160a01b03888116918217909255604051338152909184811691908416907f48d3c521fd0d5541640f58c6d6381eed7cb2e8c9df421ae165a4f4c2d221ee0d9060200160405180910390a495945050505050565b336000908152600b602052604090205460ff16611aa857600080fd5b604080518481526020810183905233916001600160a01b038516917fdcbc1c05240f31ff3ad067ef1ee35ce4997762752e3a095284754544f4c709d791015b60405180910390a3505050565b60096020528160005260406000208181548110611b1057600080fd5b6000918252602090912001546001600160a01b03169150829050565b60038181548110611b3c57600080fd5b6000918252602090912001546001600160a01b0316905081565b600060c87f00000000000000000000000000000000000000000000000000000000000000006001600160a01b03166318160ddd6040518163ffffffff1660e01b8152600401602060405180830381865afa158015611bb8573d6000803e3d6000fd5b505050506040513d601f19601f82011682018060405250810190611bdc9190612de0565b7f00000000000000000000000000000000000000000000000000000000000000006001600160a01b03166318160ddd6040518163ffffffff1660e01b8152600401602060405180830381865afa158015611c3a573d6000803e3d6000fd5b505050506040513d601f19601f82011682018060405250810190611c5e9190612de0565b611c689190612e5e565b611c729190612db4565b905090565b60005b8151811015610cd857818181518110611c9557611c95612cae565b60200260200101516001600160a01b031663d294f0936040518163ffffffff1660e01b815260040160408051808303816000875af1158015611cdb573d6000803e3d6000fd5b505050506040513d601f19601f82011682018060405250810190611cff9190612e75565b50508080611d0c90612d42565b915050611c7a565b60005b8151811015610cd857611d42828281518110611d3557611d35612cae565b6020026020010151612717565b80611d4c81612d42565b915050611d17565b336000908152600b602052604090205460ff16611d7057600080fd5b604080518481526020810183905233916001600160a01b038516917ff341246adaac6f497bc2a656f546ab9e182111d630394f0c57c710a59a2cb5679101611ae7565b6000858152600d60205260409020544211611e105760405162461bcd60e51b815260206004820152601860248201527f6c6f636b20706572696f64206e6f742066696e697368656400000000000000006044820152606401610c5e565b60405163430c208160e01b8152336004820152602481018690527f00000000000000000000000000000000000000000000000000000000000000006001600160a01b03169063430c208190604401602060405180830381865afa158015611e7b573d6000803e3d6000fd5b505050506040513d601f19601f82011682018060405250810190611e9f9190612d5d565b611ea857600080fd5b828114611eb457600080fd5b611f22858585808060200260200160405190810160405280939291908181526020018383602002808284376000920191909152505060408051602080890282810182019093528882529093508892508791829185019084908082843760009201919091525061216e92505050565b611f2f4262093a80612dc8565b6000958652600d60205260409095209490945550505050565b600081815260096020526040812080549091805b82811015612132576000848281548110611f7857611f78612cae565b60009182526020808320909101548883526008825260408084206001600160a01b0390921680855291909252912054909150801561211d576001600160a01b03808316600090815260046020526040902054611fd49116612717565b6001600160a01b03821660009081526007602052604081208054839290611ffc908490612e99565b909155505060008781526008602090815260408083206001600160a01b038616845290915281208054839290612033908490612e99565b909155505060008113156120d6576001600160a01b038281166000908152600460208181526040808420548516845260069091529182902054915163278afc8b60e21b8152908101849052602481018a9052911690639e2bf22c90604401600060405180830381600087803b1580156120ab57600080fd5b505af11580156120bf573d6000803e3d6000fd5b5050505080846120cf9190612ed8565b93506120e3565b6120e08185612e99565b93505b60408051888152602081018390527f6b3894ce60b9bbe9d93f1a4e6fc25b6b93cd8222e73ab6348d79c596f5b51de9910160405180910390a15b5050808061212a90612d42565b915050611f5c565b5080600260008282546121459190612e5e565b90915550506000848152600a60209081526040808320839055600990915281206109da916127fa565b61217783611f48565b81516040516339f890b560e21b8152600481018590526000907f00000000000000000000000000000000000000000000000000000000000000006001600160a01b03169063e7e242d490602401602060405180830381865afa1580156121e1573d6000803e3d6000fd5b505050506040513d601f19601f820116820180604052508101906122059190612de0565b90506000806000805b8581101561229857600087828151811061222a5761222a612cae565b60200260200101511361225f5786818151811061224957612249612cae565b602002602001015161225a90612f19565b61227a565b86818151811061227157612271612cae565b60200260200101515b6122849085612ed8565b93508061229081612d42565b91505061220e565b5060005b858110156124f55760008882815181106122b8576122b8612cae565b6020908102919091018101516001600160a01b03808216600090815260048452604080822054909216808252600b909452205490925060ff16156124e057600086888b868151811061230c5761230c612cae565b602002602001015161231e9190612f36565b6123289190612fbb565b60008d81526008602090815260408083206001600160a01b03881684529091529020549091501561235857600080fd5b8061236257600080fd5b61236b82612717565b60008c815260096020908152604080832080546001810182559084528284200180546001600160a01b0319166001600160a01b03881690811790915583526007909152812080548392906123c0908490612ed8565b909155505060008c81526008602090815260408083206001600160a01b0387168452909152812080548392906123f7908490612ed8565b9091555050600081131561247e576001600160a01b038083166000908152600660205260409081902054905163f320772360e01b815260048101849052602481018f905291169063f320772390604401600060405180830381600087803b15801561246157600080fd5b505af1158015612475573d6000803e3d6000fd5b5050505061248a565b61248781612f19565b90505b6124948186612ed8565b94506124a08187612ed8565b604080518e81526020810184905291975033917f1263a2295e53acd6ef8f655b8afc11fa0f2cf11925be7aa1757d741ef32a926c910160405180910390a2505b505080806124ed90612d42565b91505061229c565b50600081131561257a5760405163fd4a77f160e01b8152600481018990527f00000000000000000000000000000000000000000000000000000000000000006001600160a01b03169063fd4a77f190602401600060405180830381600087803b15801561256157600080fd5b505af1158015612575573d6000803e3d6000fd5b505050505b816002600082825461258c9190612dc8565b90915550506000978852600a602052604090972096909655505050505050565b6000846001600160a01b03163b116125c357600080fd5b604080516001600160a01b0385811660248301528481166044830152606480830185905283518084039091018152608490920183526020820180516001600160e01b03166323b872dd60e01b17905291516000928392908816916126279190612fe9565b6000604051808303816000865af19150503d8060008114612664576040519150601f19603f3d011682016040523d82523d6000602084013e612669565b606091505b50915091508180156126935750805115806126935750808060200190518101906126939190612d5d565b61269c57600080fd5b505050505050565b6001600160a01b0381166000908152600c602052604090205460ff16156126ca57600080fd5b6001600160a01b0381166000818152600c6020526040808220805460ff191660011790555133917f6661a7108aecd07864384529117d96c319c1163e3010c01390f6b704726e07de91a350565b6001600160a01b03808216600090815260056020908152604080832054909316808352600790915291812054908113156127d9576001600160a01b03831660009081526010602052604081208054600f5491829055916127778383612e5e565b9050801561269c576000670de0b6b3a76400006127948387612d7f565b61279e9190612db4565b6001600160a01b0388166000908152601160205260408120805492935083929091906127cb908490612dc8565b909155505050505050505050565b600f546001600160a01b038416600090815260106020526040902055505050565b508054600082559060005260206000209081019061113a91905b808211156128285760008155600101612814565b5090565b6001600160a01b038116811461113a57600080fd5b60006020828403121561285357600080fd5b813561285e8161282c565b9392505050565b634e487b7160e01b600052604160045260246000fd5b604051601f8201601f1916810167ffffffffffffffff811182821017156128a4576128a4612865565b604052919050565b600067ffffffffffffffff8211156128c6576128c6612865565b5060051b60200190565b600082601f8301126128e157600080fd5b813560206128f66128f1836128ac565b61287b565b82815260059290921b8401810191818101908684111561291557600080fd5b8286015b8481101561293957803561292c8161282c565b8352918301918301612919565b509695505050505050565b600082601f83011261295557600080fd5b813560206129656128f1836128ac565b82815260059290921b8401810191818101908684111561298457600080fd5b8286015b8481101561293957803567ffffffffffffffff8111156129a85760008081fd5b6129b68986838b01016128d0565b845250918301918301612988565b600080604083850312156129d757600080fd5b823567ffffffffffffffff808211156129ef57600080fd5b6129fb868387016128d0565b93506020850135915080821115612a1157600080fd5b50612a1e85828601612944565b9150509250929050565b600060208284031215612a3a57600080fd5b5035919050565b60008060408385031215612a5457600080fd5b823591506020830135612a668161282c565b809150509250929050565b60008060408385031215612a8457600080fd5b823567ffffffffffffffff811115612a9b57600080fd5b612aa7858286016128d0565b9250506020830135612a668161282c565b600060208284031215612aca57600080fd5b813567ffffffffffffffff811115612ae157600080fd5b612aed848285016128d0565b949350505050565b600080600060608486031215612b0a57600080fd5b833567ffffffffffffffff80821115612b2257600080fd5b612b2e878388016128d0565b94506020860135915080821115612b4457600080fd5b50612b5186828701612944565b925050604084013590509250925092565b60008060408385031215612b7557600080fd5b50508035926020909101359150565b60008060408385031215612b9757600080fd5b8235612ba28161282c565b946020939093013593505050565b600080600060608486031215612bc557600080fd5b833592506020840135612bd78161282c565b929592945050506040919091013590565b60008083601f840112612bfa57600080fd5b50813567ffffffffffffffff811115612c1257600080fd5b6020830191508360208260051b8501011115612c2d57600080fd5b9250929050565b600080600080600060608688031215612c4c57600080fd5b85359450602086013567ffffffffffffffff80821115612c6b57600080fd5b612c7789838a01612be8565b90965094506040880135915080821115612c9057600080fd5b50612c9d88828901612be8565b969995985093965092949392505050565b634e487b7160e01b600052603260045260246000fd5b600081518084526020808501945080840160005b83811015612cfd5781516001600160a01b031687529582019590820190600101612cd8565b509495945050505050565b6001600160a01b0383168152604060208201819052600090612aed90830184612cc4565b634e487b7160e01b600052601160045260246000fd5b6000600019821415612d5657612d56612d2c565b5060010190565b600060208284031215612d6f57600080fd5b8151801515811461285e57600080fd5b6000816000190483118215151615612d9957612d99612d2c565b500290565b634e487b7160e01b600052601260045260246000fd5b600082612dc357612dc3612d9e565b500490565b60008219821115612ddb57612ddb612d2c565b500190565b600060208284031215612df257600080fd5b5051919050565b828152604060208201526000612aed6040830184612cc4565b600060208284031215612e2457600080fd5b815161285e8161282c565b60008060408385031215612e4257600080fd5b8251612e4d8161282c565b6020840151909250612a668161282c565b600082821015612e7057612e70612d2c565b500390565b60008060408385031215612e8857600080fd5b505080516020909101519092909150565b60008083128015600160ff1b850184121615612eb757612eb7612d2c565b6001600160ff1b0384018313811615612ed257612ed2612d2c565b50500390565b600080821280156001600160ff1b0384900385131615612efa57612efa612d2c565b600160ff1b8390038412811615612f1357612f13612d2c565b50500190565b6000600160ff1b821415612f2f57612f2f612d2c565b5060000390565b60006001600160ff1b0381841382841380821686840486111615612f5c57612f5c612d2c565b600160ff1b6000871282811687830589121615612f7b57612f7b612d2c565b60008712925087820587128484161615612f9757612f97612d2c565b87850587128184161615612fad57612fad612d2c565b505050929093029392505050565b600082612fca57612fca612d9e565b600160ff1b821460001984141615612fe457612fe4612d2c565b500590565b6000825160005b8181101561300a5760208186018101518583015201612ff0565b81811115613019576000828501525b50919091019291505056fea264697066735822122064bbe5e565ff0b3759d9b46ccbe8606aacfec46cf1671dbfdf27cc658aff43c464736f6c634300080b0033",
          "opcodes": "PUSH2 0x120 PUSH1 0x40 MSTORE PUSH1 0x1 PUSH1 0xE SSTORE CALLVALUE DUP1 ISZERO PUSH3 0x17 JUMPI PUSH1 0x0 DUP1 REVERT JUMPDEST POP PUSH1 0x40 MLOAD PUSH3 0x32E3 CODESIZE SUB DUP1 PUSH3 0x32E3 DUP4 CODECOPY DUP2 ADD PUSH1 0x40 DUP2 SWAP1 MSTORE PUSH3 0x3A SWAP2 PUSH3 0x115 JUMP JUMPDEST PUSH1 0x1 PUSH1 0x1 PUSH1 0xA0 SHL SUB DUP1 DUP7 AND PUSH1 0x80 DUP2 SWAP1 MSTORE SWAP1 DUP6 AND PUSH1 0xA0 MSTORE PUSH1 0x40 DUP1 MLOAD PUSH4 0x7E062A35 PUSH1 0xE1 SHL DUP2 MSTORE SWAP1 MLOAD PUSH4 0xFC0C546A SWAP2 PUSH1 0x4 DUP1 DUP3 ADD SWAP3 PUSH1 0x20 SWAP3 SWAP1 SWAP2 SWAP1 DUP3 SWAP1 SUB ADD DUP2 DUP7 GAS STATICCALL ISZERO DUP1 ISZERO PUSH3 0x8C JUMPI RETURNDATASIZE PUSH1 0x0 DUP1 RETURNDATACOPY RETURNDATASIZE PUSH1 0x0 REVERT JUMPDEST POP POP POP POP PUSH1 0x40 MLOAD RETURNDATASIZE PUSH1 0x1F NOT PUSH1 0x1F DUP3 ADD AND DUP3 ADD DUP1 PUSH1 0x40 MSTORE POP DUP2 ADD SWAP1 PUSH3 0xB2 SWAP2 SWAP1 PUSH3 0x185 JUMP JUMPDEST PUSH1 0x1 PUSH1 0x1 PUSH1 0xA0 SHL SUB SWAP1 DUP2 AND PUSH1 0xC0 MSTORE SWAP3 DUP4 AND PUSH1 0xE0 MSTORE SWAP1 DUP3 AND PUSH2 0x100 MSTORE PUSH1 0x0 DUP1 SLOAD PUSH1 0x1 PUSH1 0x1 PUSH1 0xA0 SHL SUB NOT SWAP1 DUP2 AND CALLER OR SWAP1 SWAP2 SSTORE PUSH1 0x1 DUP1 SLOAD SWAP3 SWAP1 SWAP4 AND SWAP2 AND OR SWAP1 SSTORE POP PUSH3 0x1AA SWAP1 POP JUMP JUMPDEST DUP1 MLOAD PUSH1 0x1 PUSH1 0x1 PUSH1 0xA0 SHL SUB DUP2 AND DUP2 EQ PUSH3 0x110 JUMPI PUSH1 0x0 DUP1 REVERT JUMPDEST SWAP2 SWAP1 POP JUMP JUMPDEST PUSH1 0x0 DUP1 PUSH1 0x0 DUP1 PUSH1 0x0 PUSH1 0xA0 DUP7 DUP9 SUB SLT ISZERO PUSH3 0x12E JUMPI PUSH1 0x0 DUP1 REVERT JUMPDEST PUSH3 0x139 DUP7 PUSH3 0xF8 JUMP JUMPDEST SWAP5 POP PUSH3 0x149 PUSH1 0x20 DUP8 ADD PUSH3 0xF8 JUMP JUMPDEST SWAP4 POP PUSH3 0x159 PUSH1 0x40 DUP8 ADD PUSH3 0xF8 JUMP JUMPDEST SWAP3 POP PUSH3 0x169 PUSH1 0x60 DUP8 ADD PUSH3 0xF8 JUMP JUMPDEST SWAP2 POP PUSH3 0x179 PUSH1 0x80 DUP8 ADD PUSH3 0xF8 JUMP JUMPDEST SWAP1 POP SWAP3 SWAP6 POP SWAP3 SWAP6 SWAP1 SWAP4 POP JUMP JUMPDEST PUSH1 0x0 PUSH1 0x20 DUP3 DUP5 SUB SLT ISZERO PUSH3 0x198 JUMPI PUSH1 0x0 DUP1 REVERT JUMPDEST PUSH3 0x1A3 DUP3 PUSH3 0xF8 JUMP JUMPDEST SWAP4 SWAP3 POP POP POP JUMP JUMPDEST PUSH1 0x80 MLOAD PUSH1 0xA0 MLOAD PUSH1 0xC0 MLOAD PUSH1 0xE0 MLOAD PUSH2 0x100 MLOAD PUSH2 0x305A PUSH3 0x289 PUSH1 0x0 CODECOPY PUSH1 0x0 DUP2 DUP2 PUSH2 0x32F ADD MSTORE PUSH2 0x17A3 ADD MSTORE PUSH1 0x0 DUP2 DUP2 PUSH2 0x451 ADD MSTORE PUSH2 0x187A ADD MSTORE PUSH1 0x0 DUP2 DUP2 PUSH2 0x9E5 ADD MSTORE DUP2 DUP2 PUSH2 0xA5E ADD MSTORE DUP2 DUP2 PUSH2 0xD9E ADD MSTORE DUP2 DUP2 PUSH2 0xE5A ADD MSTORE DUP2 DUP2 PUSH2 0x1441 ADD MSTORE DUP2 DUP2 PUSH2 0x1911 ADD MSTORE PUSH2 0x1BDE ADD MSTORE PUSH1 0x0 DUP2 DUP2 PUSH2 0x623 ADD MSTORE PUSH2 0x155A ADD MSTORE PUSH1 0x0 DUP2 DUP2 PUSH2 0x4E4 ADD MSTORE DUP2 DUP2 PUSH2 0x78E ADD MSTORE DUP2 DUP2 PUSH2 0x829 ADD MSTORE DUP2 DUP2 PUSH2 0xAEB ADD MSTORE DUP2 DUP2 PUSH2 0xF2A ADD MSTORE DUP2 DUP2 PUSH2 0x108F ADD MSTORE DUP2 DUP2 PUSH2 0x11BF ADD MSTORE DUP2 DUP2 PUSH2 0x1308 ADD MSTORE DUP2 DUP2 PUSH2 0x13B6 ADD MSTORE DUP2 DUP2 PUSH2 0x184C ADD MSTORE DUP2 DUP2 PUSH2 0x1B5C ADD MSTORE DUP2 DUP2 PUSH2 0x1E2C ADD MSTORE DUP2 DUP2 PUSH2 0x2192 ADD MSTORE PUSH2 0x2515 ADD MSTORE PUSH2 0x305A PUSH1 0x0 RETURN INVALID PUSH1 0x80 PUSH1 0x40 MSTORE CALLVALUE DUP1 ISZERO PUSH2 0x10 JUMPI PUSH1 0x0 DUP1 REVERT JUMPDEST POP PUSH1 0x4 CALLDATASIZE LT PUSH2 0x27F JUMPI PUSH1 0x0 CALLDATALOAD PUSH1 0xE0 SHR DUP1 PUSH4 0x7625391A GT PUSH2 0x15C JUMPI DUP1 PUSH4 0xA8C5D95A GT PUSH2 0xCE JUMPI DUP1 PUSH4 0xC527EE1F GT PUSH2 0x87 JUMPI DUP1 PUSH4 0xC527EE1F EQ PUSH2 0x645 JUMPI DUP1 PUSH4 0xD23254B4 EQ PUSH2 0x658 JUMPI DUP1 PUSH4 0xD560B0D7 EQ PUSH2 0x683 JUMPI DUP1 PUSH4 0xE4FC6B6D EQ PUSH2 0x3DD JUMPI DUP1 PUSH4 0xEA94EE44 EQ PUSH2 0x696 JUMPI DUP1 PUSH4 0xFECDAD60 EQ PUSH2 0x6A9 JUMPI PUSH1 0x0 DUP1 REVERT JUMPDEST DUP1 PUSH4 0xA8C5D95A EQ PUSH2 0x58E JUMPI DUP1 PUSH4 0xAA79979B EQ PUSH2 0x5B7 JUMPI DUP1 PUSH4 0xAC4AFA38 EQ PUSH2 0x5DA JUMPI DUP1 PUSH4 0xB980777A EQ PUSH2 0x5ED JUMPI DUP1 PUSH4 0xB9A09FD5 EQ PUSH2 0x5F5 JUMPI DUP1 PUSH4 0xC45A0155 EQ PUSH2 0x61E JUMPI PUSH1 0x0 DUP1 REVERT JUMPDEST DUP1 PUSH4 0x98FC55D8 GT PUSH2 0x120 JUMPI DUP1 PUSH4 0x98FC55D8 EQ PUSH2 0x50F JUMPI DUP1 PUSH4 0x9B6A9D72 EQ PUSH2 0x522 JUMPI DUP1 PUSH4 0xA5F4301E EQ PUSH2 0x535 JUMPI DUP1 PUSH4 0xA61C713A EQ PUSH2 0x548 JUMPI DUP1 PUSH4 0xA7CAC846 EQ PUSH2 0x55B JUMPI DUP1 PUSH4 0xA86A366D EQ PUSH2 0x57B JUMPI PUSH1 0x0 DUP1 REVERT JUMPDEST DUP1 PUSH4 0x7625391A EQ PUSH2 0x499 JUMPI DUP1 PUSH4 0x7715EE75 EQ PUSH2 0x4AC JUMPI DUP1 PUSH4 0x79E93824 EQ PUSH2 0x4BF JUMPI DUP1 PUSH4 0x8DD598FB EQ PUSH2 0x4DF JUMPI DUP1 PUSH4 0x96C82E57 EQ PUSH2 0x506 JUMPI PUSH1 0x0 DUP1 REVERT JUMPDEST DUP1 PUSH4 0x462D0B2E GT PUSH2 0x1F5 JUMPI DUP1 PUSH4 0x6138889B GT PUSH2 0x1B9 JUMPI DUP1 PUSH4 0x6138889B EQ PUSH2 0x413 JUMPI DUP1 PUSH4 0x63453AE1 EQ PUSH2 0x426 JUMPI DUP1 PUSH4 0x666256AA EQ PUSH2 0x439 JUMPI DUP1 PUSH4 0x68C3ACB3 EQ PUSH2 0x44C JUMPI DUP1 PUSH4 0x698473E3 EQ PUSH2 0x473 JUMPI DUP1 PUSH4 0x6ECBE38A EQ PUSH2 0x486 JUMPI PUSH1 0x0 DUP1 REVERT JUMPDEST DUP1 PUSH4 0x462D0B2E EQ PUSH2 0x3CA JUMPI DUP1 PUSH4 0x47B3C6BA EQ PUSH2 0x3DD JUMPI DUP1 PUSH4 0x4EB03F6E EQ PUSH2 0x3E5 JUMPI DUP1 PUSH4 0x53D78693 EQ PUSH2 0x3F8 JUMPI DUP1 PUSH4 0x5F66D297 EQ PUSH2 0x400 JUMPI PUSH1 0x0 DUP1 REVERT JUMPDEST DUP1 PUSH4 0x32145F90 GT PUSH2 0x247 JUMPI DUP1 PUSH4 0x32145F90 EQ PUSH2 0x317 JUMPI DUP1 PUSH4 0x38752A9D EQ PUSH2 0x32A JUMPI DUP1 PUSH4 0x3AF32ABF EQ PUSH2 0x351 JUMPI DUP1 PUSH4 0x3C6B16AB EQ PUSH2 0x384 JUMPI DUP1 PUSH4 0x402914F5 EQ PUSH2 0x397 JUMPI DUP1 PUSH4 0x411B1F77 EQ PUSH2 0x3B7 JUMPI PUSH1 0x0 DUP1 REVERT JUMPDEST DUP1 PUSH4 0x6D6A1B2 EQ PUSH2 0x284 JUMPI DUP1 PUSH4 0x7546172 EQ PUSH2 0x2CA JUMPI DUP1 PUSH4 0x1F7B6D32 EQ PUSH2 0x2DD JUMPI DUP1 PUSH4 0x20B1CB6F EQ PUSH2 0x2EF JUMPI DUP1 PUSH4 0x310BD74B EQ PUSH2 0x304 JUMPI JUMPDEST PUSH1 0x0 DUP1 REVERT JUMPDEST PUSH2 0x2AD PUSH2 0x292 CALLDATASIZE PUSH1 0x4 PUSH2 0x2841 JUMP JUMPDEST PUSH1 0x5 PUSH1 0x20 MSTORE PUSH1 0x0 SWAP1 DUP2 MSTORE PUSH1 0x40 SWAP1 KECCAK256 SLOAD PUSH1 0x1 PUSH1 0x1 PUSH1 0xA0 SHL SUB AND DUP2 JUMP JUMPDEST PUSH1 0x40 MLOAD PUSH1 0x1 PUSH1 0x1 PUSH1 0xA0 SHL SUB SWAP1 SWAP2 AND DUP2 MSTORE PUSH1 0x20 ADD JUMPDEST PUSH1 0x40 MLOAD DUP1 SWAP2 SUB SWAP1 RETURN JUMPDEST PUSH1 0x0 SLOAD PUSH2 0x2AD SWAP1 PUSH1 0x1 PUSH1 0x1 PUSH1 0xA0 SHL SUB AND DUP2 JUMP JUMPDEST PUSH1 0x3 SLOAD JUMPDEST PUSH1 0x40 MLOAD SWAP1 DUP2 MSTORE PUSH1 0x20 ADD PUSH2 0x2C1 JUMP JUMPDEST PUSH2 0x302 PUSH2 0x2FD CALLDATASIZE PUSH1 0x4 PUSH2 0x29C4 JUMP JUMPDEST PUSH2 0x6BC JUMP JUMPDEST STOP JUMPDEST PUSH2 0x302 PUSH2 0x312 CALLDATASIZE PUSH1 0x4 PUSH2 0x2A28 JUMP JUMPDEST PUSH2 0x772 JUMP JUMPDEST PUSH2 0x302 PUSH2 0x325 CALLDATASIZE PUSH1 0x4 PUSH2 0x2A28 JUMP JUMPDEST PUSH2 0x890 JUMP JUMPDEST PUSH2 0x2AD PUSH32 0x0 DUP2 JUMP JUMPDEST PUSH2 0x374 PUSH2 0x35F CALLDATASIZE PUSH1 0x4 PUSH2 0x2841 JUMP JUMPDEST PUSH1 0xC PUSH1 0x20 MSTORE PUSH1 0x0 SWAP1 DUP2 MSTORE PUSH1 0x40 SWAP1 KECCAK256 SLOAD PUSH1 0xFF AND DUP2 JUMP JUMPDEST PUSH1 0x40 MLOAD SWAP1 ISZERO ISZERO DUP2 MSTORE PUSH1 0x20 ADD PUSH2 0x2C1 JUMP JUMPDEST PUSH2 0x302 PUSH2 0x392 CALLDATASIZE PUSH1 0x4 PUSH2 0x2A28 JUMP JUMPDEST PUSH2 0x9E0 JUMP JUMPDEST PUSH2 0x2E1 PUSH2 0x3A5 CALLDATASIZE PUSH1 0x4 PUSH2 0x2841 JUMP JUMPDEST PUSH1 0x11 PUSH1 0x20 MSTORE PUSH1 0x0 SWAP1 DUP2 MSTORE PUSH1 0x40 SWAP1 KECCAK256 SLOAD DUP2 JUMP JUMPDEST PUSH2 0x302 PUSH2 0x3C5 CALLDATASIZE PUSH1 0x4 PUSH2 0x2A41 JUMP JUMPDEST PUSH2 0xAB3 JUMP JUMPDEST PUSH2 0x302 PUSH2 0x3D8 CALLDATASIZE PUSH1 0x4 PUSH2 0x2A71 JUMP JUMPDEST PUSH2 0xB8D JUMP JUMPDEST PUSH2 0x302 PUSH2 0xC08 JUMP JUMPDEST PUSH2 0x302 PUSH2 0x3F3 CALLDATASIZE PUSH1 0x4 PUSH2 0x2841 JUMP JUMPDEST PUSH2 0xC19 JUMP JUMPDEST PUSH2 0x302 PUSH2 0xC89 JUMP JUMPDEST PUSH1 0x1 SLOAD PUSH2 0x2AD SWAP1 PUSH1 0x1 PUSH1 0x1 PUSH1 0xA0 SHL SUB AND DUP2 JUMP JUMPDEST PUSH2 0x302 PUSH2 0x421 CALLDATASIZE PUSH1 0x4 PUSH2 0x2AB8 JUMP JUMPDEST PUSH2 0xC98 JUMP JUMPDEST PUSH2 0x302 PUSH2 0x434 CALLDATASIZE PUSH1 0x4 PUSH2 0x2841 JUMP JUMPDEST PUSH2 0xCDC JUMP JUMPDEST PUSH2 0x302 PUSH2 0x447 CALLDATASIZE PUSH1 0x4 PUSH2 0x2AF5 JUMP JUMPDEST PUSH2 0xF0E JUMP JUMPDEST PUSH2 0x2AD PUSH32 0x0 DUP2 JUMP JUMPDEST PUSH2 0x302 PUSH2 0x481 CALLDATASIZE PUSH1 0x4 PUSH2 0x2A41 JUMP JUMPDEST PUSH2 0x1057 JUMP JUMPDEST PUSH2 0x302 PUSH2 0x494 CALLDATASIZE PUSH1 0x4 PUSH2 0x2841 JUMP JUMPDEST PUSH2 0x1131 JUMP JUMPDEST PUSH2 0x302 PUSH2 0x4A7 CALLDATASIZE PUSH1 0x4 PUSH2 0x2B62 JUMP JUMPDEST PUSH2 0x113D JUMP JUMPDEST PUSH2 0x302 PUSH2 0x4BA CALLDATASIZE PUSH1 0x4 PUSH2 0x2AF5 JUMP JUMPDEST PUSH2 0x11A3 JUMP JUMPDEST PUSH2 0x2E1 PUSH2 0x4CD CALLDATASIZE PUSH1 0x4 PUSH2 0x2A28 JUMP JUMPDEST PUSH1 0xA PUSH1 0x20 MSTORE PUSH1 0x0 SWAP1 DUP2 MSTORE PUSH1 0x40 SWAP1 KECCAK256 SLOAD DUP2 JUMP JUMPDEST PUSH2 0x2AD PUSH32 0x0 DUP2 JUMP JUMPDEST PUSH2 0x2E1 PUSH1 0x2 SLOAD DUP2 JUMP JUMPDEST PUSH2 0x302 PUSH2 0x51D CALLDATASIZE PUSH1 0x4 PUSH2 0x2B84 JUMP JUMPDEST PUSH2 0x12EC JUMP JUMPDEST PUSH2 0x302 PUSH2 0x530 CALLDATASIZE PUSH1 0x4 PUSH2 0x2B62 JUMP JUMPDEST PUSH2 0x1482 JUMP JUMPDEST PUSH2 0x2AD PUSH2 0x543 CALLDATASIZE PUSH1 0x4 PUSH2 0x2841 JUMP JUMPDEST PUSH2 0x14E8 JUMP JUMPDEST PUSH2 0x302 PUSH2 0x556 CALLDATASIZE PUSH1 0x4 PUSH2 0x2BB0 JUMP JUMPDEST PUSH2 0x1A8C JUMP JUMPDEST PUSH2 0x2E1 PUSH2 0x569 CALLDATASIZE PUSH1 0x4 PUSH2 0x2841 JUMP JUMPDEST PUSH1 0x7 PUSH1 0x20 MSTORE PUSH1 0x0 SWAP1 DUP2 MSTORE PUSH1 0x40 SWAP1 KECCAK256 SLOAD DUP2 JUMP JUMPDEST PUSH2 0x2AD PUSH2 0x589 CALLDATASIZE PUSH1 0x4 PUSH2 0x2B62 JUMP JUMPDEST PUSH2 0x1AF4 JUMP JUMPDEST PUSH2 0x2AD PUSH2 0x59C CALLDATASIZE PUSH1 0x4 PUSH2 0x2841 JUMP JUMPDEST PUSH1 0x6 PUSH1 0x20 MSTORE PUSH1 0x0 SWAP1 DUP2 MSTORE PUSH1 0x40 SWAP1 KECCAK256 SLOAD PUSH1 0x1 PUSH1 0x1 PUSH1 0xA0 SHL SUB AND DUP2 JUMP JUMPDEST PUSH2 0x374 PUSH2 0x5C5 CALLDATASIZE PUSH1 0x4 PUSH2 0x2841 JUMP JUMPDEST PUSH1 0xB PUSH1 0x20 MSTORE PUSH1 0x0 SWAP1 DUP2 MSTORE PUSH1 0x40 SWAP1 KECCAK256 SLOAD PUSH1 0xFF AND DUP2 JUMP JUMPDEST PUSH2 0x2AD PUSH2 0x5E8 CALLDATASIZE PUSH1 0x4 PUSH2 0x2A28 JUMP JUMPDEST PUSH2 0x1B2C JUMP JUMPDEST PUSH2 0x2E1 PUSH2 0x1B56 JUMP JUMPDEST PUSH2 0x2AD PUSH2 0x603 CALLDATASIZE PUSH1 0x4 PUSH2 0x2841 JUMP JUMPDEST PUSH1 0x4 PUSH1 0x20 MSTORE PUSH1 0x0 SWAP1 DUP2 MSTORE PUSH1 0x40 SWAP1 KECCAK256 SLOAD PUSH1 0x1 PUSH1 0x1 PUSH1 0xA0 SHL SUB AND DUP2 JUMP JUMPDEST PUSH2 0x2AD PUSH32 0x0 DUP2 JUMP JUMPDEST PUSH2 0x302 PUSH2 0x653 CALLDATASIZE PUSH1 0x4 PUSH2 0x2AB8 JUMP JUMPDEST PUSH2 0x1C77 JUMP JUMPDEST PUSH2 0x2E1 PUSH2 0x666 CALLDATASIZE PUSH1 0x4 PUSH2 0x2A41 JUMP JUMPDEST PUSH1 0x8 PUSH1 0x20 SWAP1 DUP2 MSTORE PUSH1 0x0 SWAP3 DUP4 MSTORE PUSH1 0x40 DUP1 DUP5 KECCAK256 SWAP1 SWAP2 MSTORE SWAP1 DUP3 MSTORE SWAP1 KECCAK256 SLOAD DUP2 JUMP JUMPDEST PUSH2 0x302 PUSH2 0x691 CALLDATASIZE PUSH1 0x4 PUSH2 0x2AB8 JUMP JUMPDEST PUSH2 0x1D14 JUMP JUMPDEST PUSH2 0x302 PUSH2 0x6A4 CALLDATASIZE PUSH1 0x4 PUSH2 0x2BB0 JUMP JUMPDEST PUSH2 0x1D54 JUMP JUMPDEST PUSH2 0x302 PUSH2 0x6B7 CALLDATASIZE PUSH1 0x4 PUSH2 0x2C34 JUMP JUMPDEST PUSH2 0x1DB3 JUMP JUMPDEST PUSH1 0x0 JUMPDEST DUP3 MLOAD DUP2 LT ISZERO PUSH2 0x76D JUMPI DUP3 DUP2 DUP2 MLOAD DUP2 LT PUSH2 0x6DA JUMPI PUSH2 0x6DA PUSH2 0x2CAE JUMP JUMPDEST PUSH1 0x20 MUL PUSH1 0x20 ADD ADD MLOAD PUSH1 0x1 PUSH1 0x1 PUSH1 0xA0 SHL SUB AND PUSH4 0x31279D3D CALLER DUP5 DUP5 DUP2 MLOAD DUP2 LT PUSH2 0x703 JUMPI PUSH2 0x703 PUSH2 0x2CAE JUMP JUMPDEST PUSH1 0x20 MUL PUSH1 0x20 ADD ADD MLOAD PUSH1 0x40 MLOAD DUP4 PUSH4 0xFFFFFFFF AND PUSH1 0xE0 SHL DUP2 MSTORE PUSH1 0x4 ADD PUSH2 0x728 SWAP3 SWAP2 SWAP1 PUSH2 0x2D08 JUMP JUMPDEST PUSH1 0x0 PUSH1 0x40 MLOAD DUP1 DUP4 SUB DUP2 PUSH1 0x0 DUP8 DUP1 EXTCODESIZE ISZERO DUP1 ISZERO PUSH2 0x742 JUMPI PUSH1 0x0 DUP1 REVERT JUMPDEST POP GAS CALL ISZERO DUP1 ISZERO PUSH2 0x756 JUMPI RETURNDATASIZE PUSH1 0x0 DUP1 RETURNDATACOPY RETURNDATASIZE PUSH1 0x0 REVERT JUMPDEST POP POP POP POP DUP1 DUP1 PUSH2 0x765 SWAP1 PUSH2 0x2D42 JUMP JUMPDEST SWAP2 POP POP PUSH2 0x6BF JUMP JUMPDEST POP POP POP JUMP JUMPDEST PUSH1 0x40 MLOAD PUSH4 0x430C2081 PUSH1 0xE0 SHL DUP2 MSTORE CALLER PUSH1 0x4 DUP3 ADD MSTORE PUSH1 0x24 DUP2 ADD DUP3 SWAP1 MSTORE PUSH32 0x0 PUSH1 0x1 PUSH1 0x1 PUSH1 0xA0 SHL SUB AND SWAP1 PUSH4 0x430C2081 SWAP1 PUSH1 0x44 ADD PUSH1 0x20 PUSH1 0x40 MLOAD DUP1 DUP4 SUB DUP2 DUP7 GAS STATICCALL ISZERO DUP1 ISZERO PUSH2 0x7DD JUMPI RETURNDATASIZE PUSH1 0x0 DUP1 RETURNDATACOPY RETURNDATASIZE PUSH1 0x0 REVERT JUMPDEST POP POP POP POP PUSH1 0x40 MLOAD RETURNDATASIZE PUSH1 0x1F NOT PUSH1 0x1F DUP3 ADD AND DUP3 ADD DUP1 PUSH1 0x40 MSTORE POP DUP2 ADD SWAP1 PUSH2 0x801 SWAP2 SWAP1 PUSH2 0x2D5D JUMP JUMPDEST PUSH2 0x80A JUMPI PUSH1 0x0 DUP1 REVERT JUMPDEST PUSH2 0x813 DUP2 PUSH2 0x1F48 JUMP JUMPDEST PUSH1 0x40 MLOAD PUSH4 0xC1F0FB9F PUSH1 0xE0 SHL DUP2 MSTORE PUSH1 0x4 DUP2 ADD DUP3 SWAP1 MSTORE PUSH32 0x0 PUSH1 0x1 PUSH1 0x1 PUSH1 0xA0 SHL SUB AND SWAP1 PUSH4 0xC1F0FB9F SWAP1 PUSH1 0x24 ADD PUSH1 0x0 PUSH1 0x40 MLOAD DUP1 DUP4 SUB DUP2 PUSH1 0x0 DUP8 DUP1 EXTCODESIZE ISZERO DUP1 ISZERO PUSH2 0x875 JUMPI PUSH1 0x0 DUP1 REVERT JUMPDEST POP GAS CALL ISZERO DUP1 ISZERO PUSH2 0x889 JUMPI RETURNDATASIZE PUSH1 0x0 DUP1 RETURNDATACOPY RETURNDATASIZE PUSH1 0x0 REVERT JUMPDEST POP POP POP POP POP JUMP JUMPDEST PUSH1 0x0 DUP2 DUP2 MSTORE PUSH1 0x9 PUSH1 0x20 SWAP1 DUP2 MSTORE PUSH1 0x40 DUP1 DUP4 KECCAK256 DUP1 SLOAD DUP3 MLOAD DUP2 DUP6 MUL DUP2 ADD DUP6 ADD SWAP1 SWAP4 MSTORE DUP1 DUP4 MSTORE SWAP2 SWAP3 SWAP1 SWAP2 SWAP1 DUP4 ADD DUP3 DUP3 DUP1 ISZERO PUSH2 0x8F0 JUMPI PUSH1 0x20 MUL DUP3 ADD SWAP2 SWAP1 PUSH1 0x0 MSTORE PUSH1 0x20 PUSH1 0x0 KECCAK256 SWAP1 JUMPDEST DUP2 SLOAD PUSH1 0x1 PUSH1 0x1 PUSH1 0xA0 SHL SUB AND DUP2 MSTORE PUSH1 0x1 SWAP1 SWAP2 ADD SWAP1 PUSH1 0x20 ADD DUP1 DUP4 GT PUSH2 0x8D2 JUMPI JUMPDEST POP POP POP POP POP SWAP1 POP PUSH1 0x0 DUP2 MLOAD SWAP1 POP PUSH1 0x0 DUP2 PUSH8 0xFFFFFFFFFFFFFFFF DUP2 GT ISZERO PUSH2 0x918 JUMPI PUSH2 0x918 PUSH2 0x2865 JUMP JUMPDEST PUSH1 0x40 MLOAD SWAP1 DUP1 DUP3 MSTORE DUP1 PUSH1 0x20 MUL PUSH1 0x20 ADD DUP3 ADD PUSH1 0x40 MSTORE DUP1 ISZERO PUSH2 0x941 JUMPI DUP2 PUSH1 0x20 ADD PUSH1 0x20 DUP3 MUL DUP1 CALLDATASIZE DUP4 CALLDATACOPY ADD SWAP1 POP JUMPDEST POP SWAP1 POP PUSH1 0x0 JUMPDEST DUP3 DUP2 LT ISZERO PUSH2 0x9CE JUMPI PUSH1 0x8 PUSH1 0x0 DUP7 DUP2 MSTORE PUSH1 0x20 ADD SWAP1 DUP2 MSTORE PUSH1 0x20 ADD PUSH1 0x0 KECCAK256 PUSH1 0x0 DUP6 DUP4 DUP2 MLOAD DUP2 LT PUSH2 0x976 JUMPI PUSH2 0x976 PUSH2 0x2CAE JUMP JUMPDEST PUSH1 0x20 MUL PUSH1 0x20 ADD ADD MLOAD PUSH1 0x1 PUSH1 0x1 PUSH1 0xA0 SHL SUB AND PUSH1 0x1 PUSH1 0x1 PUSH1 0xA0 SHL SUB AND DUP2 MSTORE PUSH1 0x20 ADD SWAP1 DUP2 MSTORE PUSH1 0x20 ADD PUSH1 0x0 KECCAK256 SLOAD DUP3 DUP3 DUP2 MLOAD DUP2 LT PUSH2 0x9B1 JUMPI PUSH2 0x9B1 PUSH2 0x2CAE JUMP JUMPDEST PUSH1 0x20 SWAP1 DUP2 MUL SWAP2 SWAP1 SWAP2 ADD ADD MSTORE DUP1 PUSH2 0x9C6 DUP2 PUSH2 0x2D42 JUMP JUMPDEST SWAP2 POP POP PUSH2 0x947 JUMP JUMPDEST POP PUSH2 0x9DA DUP5 DUP5 DUP4 PUSH2 0x216E JUMP JUMPDEST POP POP POP POP JUMP JUMPDEST PUSH2 0xA0C PUSH32 0x0 CALLER ADDRESS DUP5 PUSH2 0x25AC JUMP JUMPDEST PUSH1 0x2 SLOAD PUSH1 0x0 SWAP1 PUSH2 0xA24 DUP4 PUSH8 0xDE0B6B3A7640000 PUSH2 0x2D7F JUMP JUMPDEST PUSH2 0xA2E SWAP2 SWAP1 PUSH2 0x2DB4 JUMP JUMPDEST SWAP1 POP DUP1 ISZERO PUSH2 0xA4E JUMPI DUP1 PUSH1 0xF PUSH1 0x0 DUP3 DUP3 SLOAD PUSH2 0xA48 SWAP2 SWAP1 PUSH2 0x2DC8 JUMP JUMPDEST SWAP1 SWAP2 SSTORE POP POP JUMPDEST PUSH1 0x40 MLOAD DUP3 DUP2 MSTORE PUSH1 0x1 PUSH1 0x1 PUSH1 0xA0 SHL SUB PUSH32 0x0 AND SWAP1 CALLER SWAP1 PUSH32 0xF70D5C697DE7EA828DF48E5C4573CB2194C659F1901F70110C52B066DCF50826 SWAP1 PUSH1 0x20 ADD JUMPDEST PUSH1 0x40 MLOAD DUP1 SWAP2 SUB SWAP1 LOG3 POP POP JUMP JUMPDEST CALLER PUSH1 0x0 SWAP1 DUP2 MSTORE PUSH1 0xB PUSH1 0x20 MSTORE PUSH1 0x40 SWAP1 KECCAK256 SLOAD PUSH1 0xFF AND PUSH2 0xACF JUMPI PUSH1 0x0 DUP1 REVERT JUMPDEST DUP2 ISZERO PUSH2 0xB50 JUMPI PUSH1 0x40 MLOAD PUSH4 0x4C35BEC5 PUSH1 0xE1 SHL DUP2 MSTORE PUSH1 0x4 DUP2 ADD DUP4 SWAP1 MSTORE PUSH32 0x0 PUSH1 0x1 PUSH1 0x1 PUSH1 0xA0 SHL SUB AND SWAP1 PUSH4 0x986B7D8A SWAP1 PUSH1 0x24 ADD PUSH1 0x0 PUSH1 0x40 MLOAD DUP1 DUP4 SUB DUP2 PUSH1 0x0 DUP8 DUP1 EXTCODESIZE ISZERO DUP1 ISZERO PUSH2 0xB37 JUMPI PUSH1 0x0 DUP1 REVERT JUMPDEST POP GAS CALL ISZERO DUP1 ISZERO PUSH2 0xB4B JUMPI RETURNDATASIZE PUSH1 0x0 DUP1 RETURNDATACOPY RETURNDATASIZE PUSH1 0x0 REVERT JUMPDEST POP POP POP POP JUMPDEST PUSH1 0x40 MLOAD DUP3 DUP2 MSTORE CALLER SWAP1 PUSH1 0x1 PUSH1 0x1 PUSH1 0xA0 SHL SUB DUP4 AND SWAP1 PUSH32 0xAE268D9AAB12F3605F58EFD74FD3801FA812B03FDB44317EB70F46DFF0E19E22 SWAP1 PUSH1 0x20 ADD PUSH2 0xAA7 JUMP JUMPDEST PUSH1 0x0 SLOAD PUSH1 0x1 PUSH1 0x1 PUSH1 0xA0 SHL SUB AND CALLER EQ PUSH2 0xBA4 JUMPI PUSH1 0x0 DUP1 REVERT JUMPDEST PUSH1 0x0 JUMPDEST DUP3 MLOAD DUP2 LT ISZERO PUSH2 0xBE4 JUMPI PUSH2 0xBD2 DUP4 DUP3 DUP2 MLOAD DUP2 LT PUSH2 0xBC5 JUMPI PUSH2 0xBC5 PUSH2 0x2CAE JUMP JUMPDEST PUSH1 0x20 MUL PUSH1 0x20 ADD ADD MLOAD PUSH2 0x26A4 JUMP JUMPDEST DUP1 PUSH2 0xBDC DUP2 PUSH2 0x2D42 JUMP JUMPDEST SWAP2 POP POP PUSH2 0xBA7 JUMP JUMPDEST POP PUSH1 0x0 DUP1 SLOAD PUSH1 0x1 PUSH1 0x1 PUSH1 0xA0 SHL SUB NOT AND PUSH1 0x1 PUSH1 0x1 PUSH1 0xA0 SHL SUB SWAP3 SWAP1 SWAP3 AND SWAP2 SWAP1 SWAP2 OR SWAP1 SSTORE POP JUMP JUMPDEST PUSH1 0x3 SLOAD PUSH2 0xC17 SWAP1 PUSH1 0x0 SWAP1 PUSH2 0x113D JUMP JUMPDEST JUMP JUMPDEST PUSH1 0x0 SLOAD PUSH1 0x1 PUSH1 0x1 PUSH1 0xA0 SHL SUB AND CALLER EQ PUSH2 0xC67 JUMPI PUSH1 0x40 MLOAD PUSH3 0x461BCD PUSH1 0xE5 SHL DUP2 MSTORE PUSH1 0x20 PUSH1 0x4 DUP3 ADD MSTORE PUSH1 0xC PUSH1 0x24 DUP3 ADD MSTORE PUSH12 0x2737BA10309036B4B73A32B9 PUSH1 0xA1 SHL PUSH1 0x44 DUP3 ADD MSTORE PUSH1 0x64 ADD JUMPDEST PUSH1 0x40 MLOAD DUP1 SWAP2 SUB SWAP1 REVERT JUMPDEST PUSH1 0x0 DUP1 SLOAD PUSH1 0x1 PUSH1 0x1 PUSH1 0xA0 SHL SUB NOT AND PUSH1 0x1 PUSH1 0x1 PUSH1 0xA0 SHL SUB SWAP3 SWAP1 SWAP3 AND SWAP2 SWAP1 SWAP2 OR SWAP1 SSTORE JUMP JUMPDEST PUSH1 0x3 SLOAD PUSH2 0xC17 SWAP1 PUSH1 0x0 SWAP1 PUSH2 0x1482 JUMP JUMPDEST PUSH1 0x0 JUMPDEST DUP2 MLOAD DUP2 LT ISZERO PUSH2 0xCD8 JUMPI PUSH2 0xCC6 DUP3 DUP3 DUP2 MLOAD DUP2 LT PUSH2 0xCB9 JUMPI PUSH2 0xCB9 PUSH2 0x2CAE JUMP JUMPDEST PUSH1 0x20 MUL PUSH1 0x20 ADD ADD MLOAD PUSH2 0xCDC JUMP JUMPDEST DUP1 PUSH2 0xCD0 DUP2 PUSH2 0x2D42 JUMP JUMPDEST SWAP2 POP POP PUSH2 0xC9B JUMP JUMPDEST POP POP JUMP JUMPDEST PUSH1 0xE SLOAD PUSH1 0x1 EQ PUSH2 0xCEB JUMPI PUSH1 0x0 DUP1 REVERT JUMPDEST PUSH1 0x2 PUSH1 0xE DUP2 SWAP1 SSTORE POP PUSH1 0x0 DUP1 SLOAD SWAP1 PUSH2 0x100 EXP SWAP1 DIV PUSH1 0x1 PUSH1 0x1 PUSH1 0xA0 SHL SUB AND PUSH1 0x1 PUSH1 0x1 PUSH1 0xA0 SHL SUB AND PUSH4 0xED29FC11 PUSH1 0x40 MLOAD DUP2 PUSH4 0xFFFFFFFF AND PUSH1 0xE0 SHL DUP2 MSTORE PUSH1 0x4 ADD PUSH1 0x20 PUSH1 0x40 MLOAD DUP1 DUP4 SUB DUP2 PUSH1 0x0 DUP8 GAS CALL ISZERO DUP1 ISZERO PUSH2 0xD46 JUMPI RETURNDATASIZE PUSH1 0x0 DUP1 RETURNDATACOPY RETURNDATASIZE PUSH1 0x0 REVERT JUMPDEST POP POP POP POP PUSH1 0x40 MLOAD RETURNDATASIZE PUSH1 0x1F NOT PUSH1 0x1F DUP3 ADD AND DUP3 ADD DUP1 PUSH1 0x40 MSTORE POP DUP2 ADD SWAP1 PUSH2 0xD6A SWAP2 SWAP1 PUSH2 0x2DE0 JUMP JUMPDEST POP PUSH2 0xD74 DUP2 PUSH2 0x2717 JUMP JUMPDEST PUSH1 0x1 PUSH1 0x1 PUSH1 0xA0 SHL SUB DUP2 DUP2 AND PUSH1 0x0 DUP2 DUP2 MSTORE PUSH1 0x11 PUSH1 0x20 MSTORE PUSH1 0x40 SWAP1 DUP2 SWAP1 KECCAK256 SLOAD SWAP1 MLOAD PUSH4 0x4CDE6029 PUSH1 0xE1 SHL DUP2 MSTORE PUSH32 0x0 SWAP1 SWAP4 AND PUSH1 0x4 DUP5 ADD MSTORE SWAP2 PUSH4 0x99BCC052 SWAP1 PUSH1 0x24 ADD PUSH1 0x20 PUSH1 0x40 MLOAD DUP1 DUP4 SUB DUP2 DUP7 GAS STATICCALL ISZERO DUP1 ISZERO PUSH2 0xDEC JUMPI RETURNDATASIZE PUSH1 0x0 DUP1 RETURNDATACOPY RETURNDATASIZE PUSH1 0x0 REVERT JUMPDEST POP POP POP POP PUSH1 0x40 MLOAD RETURNDATASIZE PUSH1 0x1F NOT PUSH1 0x1F DUP3 ADD AND DUP3 ADD DUP1 PUSH1 0x40 MSTORE POP DUP2 ADD SWAP1 PUSH2 0xE10 SWAP2 SWAP1 PUSH2 0x2DE0 JUMP JUMPDEST DUP2 GT DUP1 ISZERO PUSH2 0xE2A JUMPI POP PUSH1 0x0 PUSH2 0xE28 PUSH3 0x93A80 DUP4 PUSH2 0x2DB4 JUMP JUMPDEST GT JUMPDEST ISZERO PUSH2 0xF05 JUMPI PUSH1 0x1 PUSH1 0x1 PUSH1 0xA0 SHL SUB DUP3 DUP2 AND PUSH1 0x0 DUP2 DUP2 MSTORE PUSH1 0x11 PUSH1 0x20 MSTORE PUSH1 0x40 DUP1 DUP3 KECCAK256 SWAP2 SWAP1 SWAP2 SSTORE MLOAD PUSH4 0xB66503CF PUSH1 0xE0 SHL DUP2 MSTORE PUSH32 0x0 SWAP1 SWAP3 AND PUSH1 0x4 DUP4 ADD MSTORE PUSH1 0x24 DUP3 ADD DUP4 SWAP1 MSTORE SWAP1 PUSH4 0xB66503CF SWAP1 PUSH1 0x44 ADD PUSH1 0x0 PUSH1 0x40 MLOAD DUP1 DUP4 SUB DUP2 PUSH1 0x0 DUP8 DUP1 EXTCODESIZE ISZERO DUP1 ISZERO PUSH2 0xEAC JUMPI PUSH1 0x0 DUP1 REVERT JUMPDEST POP GAS CALL ISZERO DUP1 ISZERO PUSH2 0xEC0 JUMPI RETURNDATASIZE PUSH1 0x0 DUP1 RETURNDATACOPY RETURNDATASIZE PUSH1 0x0 REVERT JUMPDEST POP POP PUSH1 0x40 MLOAD DUP4 DUP2 MSTORE PUSH1 0x1 PUSH1 0x1 PUSH1 0xA0 SHL SUB DUP6 AND SWAP3 POP CALLER SWAP2 POP PUSH32 0x4FA9693CAE526341D334E2862CA2413B2E503F1266255F9E0869FB36E6D89B17 SWAP1 PUSH1 0x20 ADD PUSH1 0x40 MLOAD DUP1 SWAP2 SUB SWAP1 LOG3 JUMPDEST POP POP PUSH1 0x1 PUSH1 0xE SSTORE JUMP JUMPDEST PUSH1 0x40 MLOAD PUSH4 0x430C2081 PUSH1 0xE0 SHL DUP2 MSTORE CALLER PUSH1 0x4 DUP3 ADD MSTORE PUSH1 0x24 DUP2 ADD DUP3 SWAP1 MSTORE PUSH32 0x0 PUSH1 0x1 PUSH1 0x1 PUSH1 0xA0 SHL SUB AND SWAP1 PUSH4 0x430C2081 SWAP1 PUSH1 0x44 ADD PUSH1 0x20 PUSH1 0x40 MLOAD DUP1 DUP4 SUB DUP2 DUP7 GAS STATICCALL ISZERO DUP1 ISZERO PUSH2 0xF79 JUMPI RETURNDATASIZE PUSH1 0x0 DUP1 RETURNDATACOPY RETURNDATASIZE PUSH1 0x0 REVERT JUMPDEST POP POP POP POP PUSH1 0x40 MLOAD RETURNDATASIZE PUSH1 0x1F NOT PUSH1 0x1F DUP3 ADD AND DUP3 ADD DUP1 PUSH1 0x40 MSTORE POP DUP2 ADD SWAP1 PUSH2 0xF9D SWAP2 SWAP1 PUSH2 0x2D5D JUMP JUMPDEST PUSH2 0xFA6 JUMPI PUSH1 0x0 DUP1 REVERT JUMPDEST PUSH1 0x0 JUMPDEST DUP4 MLOAD DUP2 LT ISZERO PUSH2 0x9DA JUMPI DUP4 DUP2 DUP2 MLOAD DUP2 LT PUSH2 0xFC4 JUMPI PUSH2 0xFC4 PUSH2 0x2CAE JUMP JUMPDEST PUSH1 0x20 MUL PUSH1 0x20 ADD ADD MLOAD PUSH1 0x1 PUSH1 0x1 PUSH1 0xA0 SHL SUB AND PUSH4 0xA7852AFA DUP4 DUP6 DUP5 DUP2 MLOAD DUP2 LT PUSH2 0xFED JUMPI PUSH2 0xFED PUSH2 0x2CAE JUMP JUMPDEST PUSH1 0x20 MUL PUSH1 0x20 ADD ADD MLOAD PUSH1 0x40 MLOAD DUP4 PUSH4 0xFFFFFFFF AND PUSH1 0xE0 SHL DUP2 MSTORE PUSH1 0x4 ADD PUSH2 0x1012 SWAP3 SWAP2 SWAP1 PUSH2 0x2DF9 JUMP JUMPDEST PUSH1 0x0 PUSH1 0x40 MLOAD DUP1 DUP4 SUB DUP2 PUSH1 0x0 DUP8 DUP1 EXTCODESIZE ISZERO DUP1 ISZERO PUSH2 0x102C JUMPI PUSH1 0x0 DUP1 REVERT JUMPDEST POP GAS CALL ISZERO DUP1 ISZERO PUSH2 0x1040 JUMPI RETURNDATASIZE PUSH1 0x0 DUP1 RETURNDATACOPY RETURNDATASIZE PUSH1 0x0 REVERT JUMPDEST POP POP POP POP DUP1 DUP1 PUSH2 0x104F SWAP1 PUSH2 0x2D42 JUMP JUMPDEST SWAP2 POP POP PUSH2 0xFA9 JUMP JUMPDEST CALLER PUSH1 0x0 SWAP1 DUP2 MSTORE PUSH1 0xB PUSH1 0x20 MSTORE PUSH1 0x40 SWAP1 KECCAK256 SLOAD PUSH1 0xFF AND PUSH2 0x1073 JUMPI PUSH1 0x0 DUP1 REVERT JUMPDEST DUP2 ISZERO PUSH2 0x10F4 JUMPI PUSH1 0x40 MLOAD PUSH4 0xFBD3A29D PUSH1 0xE0 SHL DUP2 MSTORE PUSH1 0x4 DUP2 ADD DUP4 SWAP1 MSTORE PUSH32 0x0 PUSH1 0x1 PUSH1 0x1 PUSH1 0xA0 SHL SUB AND SWAP1 PUSH4 0xFBD3A29D SWAP1 PUSH1 0x24 ADD PUSH1 0x0 PUSH1 0x40 MLOAD DUP1 DUP4 SUB DUP2 PUSH1 0x0 DUP8 DUP1 EXTCODESIZE ISZERO DUP1 ISZERO PUSH2 0x10DB JUMPI PUSH1 0x0 DUP1 REVERT JUMPDEST POP GAS CALL ISZERO DUP1 ISZERO PUSH2 0x10EF JUMPI RETURNDATASIZE PUSH1 0x0 DUP1 RETURNDATACOPY RETURNDATASIZE PUSH1 0x0 REVERT JUMPDEST POP POP POP POP JUMPDEST PUSH1 0x40 MLOAD DUP3 DUP2 MSTORE CALLER SWAP1 PUSH1 0x1 PUSH1 0x1 PUSH1 0xA0 SHL SUB DUP4 AND SWAP1 PUSH32 0x60940192810A6FB3BCE3FD3E2E3A13FD6CCC7605E963FB87EE971ABA829989BD SWAP1 PUSH1 0x20 ADD PUSH2 0xAA7 JUMP JUMPDEST PUSH2 0x113A DUP2 PUSH2 0x2717 JUMP JUMPDEST POP JUMP JUMPDEST DUP2 JUMPDEST DUP2 DUP2 LT ISZERO PUSH2 0x76D JUMPI PUSH2 0x1191 PUSH1 0x4 PUSH1 0x0 PUSH1 0x3 DUP5 DUP2 SLOAD DUP2 LT PUSH2 0x1161 JUMPI PUSH2 0x1161 PUSH2 0x2CAE JUMP JUMPDEST PUSH1 0x0 SWAP2 DUP3 MSTORE PUSH1 0x20 DUP1 DUP4 KECCAK256 SWAP1 SWAP2 ADD SLOAD PUSH1 0x1 PUSH1 0x1 PUSH1 0xA0 SHL SUB SWAP1 DUP2 AND DUP5 MSTORE SWAP1 DUP4 ADD SWAP4 SWAP1 SWAP4 MSTORE PUSH1 0x40 SWAP1 SWAP2 ADD SWAP1 KECCAK256 SLOAD AND PUSH2 0xCDC JUMP JUMPDEST DUP1 PUSH2 0x119B DUP2 PUSH2 0x2D42 JUMP JUMPDEST SWAP2 POP POP PUSH2 0x113F JUMP JUMPDEST PUSH1 0x40 MLOAD PUSH4 0x430C2081 PUSH1 0xE0 SHL DUP2 MSTORE CALLER PUSH1 0x4 DUP3 ADD MSTORE PUSH1 0x24 DUP2 ADD DUP3 SWAP1 MSTORE PUSH32 0x0 PUSH1 0x1 PUSH1 0x1 PUSH1 0xA0 SHL SUB AND SWAP1 PUSH4 0x430C2081 SWAP1 PUSH1 0x44 ADD PUSH1 0x20 PUSH1 0x40 MLOAD DUP1 DUP4 SUB DUP2 DUP7 GAS STATICCALL ISZERO DUP1 ISZERO PUSH2 0x120E JUMPI RETURNDATASIZE PUSH1 0x0 DUP1 RETURNDATACOPY RETURNDATASIZE PUSH1 0x0 REVERT JUMPDEST POP POP POP POP PUSH1 0x40 MLOAD RETURNDATASIZE PUSH1 0x1F NOT PUSH1 0x1F DUP3 ADD AND DUP3 ADD DUP1 PUSH1 0x40 MSTORE POP DUP2 ADD SWAP1 PUSH2 0x1232 SWAP2 SWAP1 PUSH2 0x2D5D JUMP JUMPDEST PUSH2 0x123B JUMPI PUSH1 0x0 DUP1 REVERT JUMPDEST PUSH1 0x0 JUMPDEST DUP4 MLOAD DUP2 LT ISZERO PUSH2 0x9DA JUMPI DUP4 DUP2 DUP2 MLOAD DUP2 LT PUSH2 0x1259 JUMPI PUSH2 0x1259 PUSH2 0x2CAE JUMP JUMPDEST PUSH1 0x20 MUL PUSH1 0x20 ADD ADD MLOAD PUSH1 0x1 PUSH1 0x1 PUSH1 0xA0 SHL SUB AND PUSH4 0xA7852AFA DUP4 DUP6 DUP5 DUP2 MLOAD DUP2 LT PUSH2 0x1282 JUMPI PUSH2 0x1282 PUSH2 0x2CAE JUMP JUMPDEST PUSH1 0x20 MUL PUSH1 0x20 ADD ADD MLOAD PUSH1 0x40 MLOAD DUP4 PUSH4 0xFFFFFFFF AND PUSH1 0xE0 SHL DUP2 MSTORE PUSH1 0x4 ADD PUSH2 0x12A7 SWAP3 SWAP2 SWAP1 PUSH2 0x2DF9 JUMP JUMPDEST PUSH1 0x0 PUSH1 0x40 MLOAD DUP1 DUP4 SUB DUP2 PUSH1 0x0 DUP8 DUP1 EXTCODESIZE ISZERO DUP1 ISZERO PUSH2 0x12C1 JUMPI PUSH1 0x0 DUP1 REVERT JUMPDEST POP GAS CALL ISZERO DUP1 ISZERO PUSH2 0x12D5 JUMPI RETURNDATASIZE PUSH1 0x0 DUP1 RETURNDATACOPY RETURNDATASIZE PUSH1 0x0 REVERT JUMPDEST POP POP POP POP DUP1 DUP1 PUSH2 0x12E4 SWAP1 PUSH2 0x2D42 JUMP JUMPDEST SWAP2 POP POP PUSH2 0x123E JUMP JUMPDEST DUP1 ISZERO PUSH2 0x1438 JUMPI PUSH1 0x40 MLOAD PUSH4 0x31A9108F PUSH1 0xE1 SHL DUP2 MSTORE PUSH1 0x4 DUP2 ADD DUP3 SWAP1 MSTORE PUSH32 0x0 PUSH1 0x1 PUSH1 0x1 PUSH1 0xA0 SHL SUB AND SWAP1 PUSH4 0x6352211E SWAP1 PUSH1 0x24 ADD PUSH1 0x20 PUSH1 0x40 MLOAD DUP1 DUP4 SUB DUP2 DUP7 GAS STATICCALL ISZERO DUP1 ISZERO PUSH2 0x1357 JUMPI RETURNDATASIZE PUSH1 0x0 DUP1 RETURNDATACOPY RETURNDATASIZE PUSH1 0x0 REVERT JUMPDEST POP POP POP POP PUSH1 0x40 MLOAD RETURNDATASIZE PUSH1 0x1F NOT PUSH1 0x1F DUP3 ADD AND DUP3 ADD DUP1 PUSH1 0x40 MSTORE POP DUP2 ADD SWAP1 PUSH2 0x137B SWAP2 SWAP1 PUSH2 0x2E12 JUMP JUMPDEST PUSH1 0x1 PUSH1 0x1 PUSH1 0xA0 SHL SUB AND CALLER PUSH1 0x1 PUSH1 0x1 PUSH1 0xA0 SHL SUB AND EQ PUSH2 0x1398 JUMPI PUSH1 0x0 DUP1 REVERT JUMPDEST PUSH2 0x13A0 PUSH2 0x1B56 JUMP JUMPDEST PUSH1 0x40 MLOAD PUSH4 0x39F890B5 PUSH1 0xE2 SHL DUP2 MSTORE PUSH1 0x4 DUP2 ADD DUP4 SWAP1 MSTORE PUSH32 0x0 PUSH1 0x1 PUSH1 0x1 PUSH1 0xA0 SHL SUB AND SWAP1 PUSH4 0xE7E242D4 SWAP1 PUSH1 0x24 ADD PUSH1 0x20 PUSH1 0x40 MLOAD DUP1 DUP4 SUB DUP2 DUP7 GAS STATICCALL ISZERO DUP1 ISZERO PUSH2 0x1405 JUMPI RETURNDATASIZE PUSH1 0x0 DUP1 RETURNDATACOPY RETURNDATASIZE PUSH1 0x0 REVERT JUMPDEST POP POP POP POP PUSH1 0x40 MLOAD RETURNDATASIZE PUSH1 0x1F NOT PUSH1 0x1F DUP3 ADD AND DUP3 ADD DUP1 PUSH1 0x40 MSTORE POP DUP2 ADD SWAP1 PUSH2 0x1429 SWAP2 SWAP1 PUSH2 0x2DE0 JUMP JUMPDEST GT PUSH2 0x1433 JUMPI PUSH1 0x0 DUP1 REVERT JUMPDEST PUSH2 0x1479 JUMP JUMPDEST PUSH1 0x0 SLOAD PUSH2 0x1479 SWAP1 PUSH32 0x0 SWAP1 CALLER SWAP1 PUSH1 0x1 PUSH1 0x1 PUSH1 0xA0 SHL SUB AND PUSH2 0x1474 PUSH2 0x1B56 JUMP JUMPDEST PUSH2 0x25AC JUMP JUMPDEST PUSH2 0xCD8 DUP3 PUSH2 0x26A4 JUMP JUMPDEST DUP2 JUMPDEST DUP2 DUP2 LT ISZERO PUSH2 0x76D JUMPI PUSH2 0x14D6 PUSH1 0x4 PUSH1 0x0 PUSH1 0x3 DUP5 DUP2 SLOAD DUP2 LT PUSH2 0x14A6 JUMPI PUSH2 0x14A6 PUSH2 0x2CAE JUMP JUMPDEST PUSH1 0x0 SWAP2 DUP3 MSTORE PUSH1 0x20 DUP1 DUP4 KECCAK256 SWAP1 SWAP2 ADD SLOAD PUSH1 0x1 PUSH1 0x1 PUSH1 0xA0 SHL SUB SWAP1 DUP2 AND DUP5 MSTORE SWAP1 DUP4 ADD SWAP4 SWAP1 SWAP4 MSTORE PUSH1 0x40 SWAP1 SWAP2 ADD SWAP1 KECCAK256 SLOAD AND PUSH2 0x2717 JUMP JUMPDEST DUP1 PUSH2 0x14E0 DUP2 PUSH2 0x2D42 JUMP JUMPDEST SWAP2 POP POP PUSH2 0x1484 JUMP JUMPDEST PUSH1 0x1 PUSH1 0x1 PUSH1 0xA0 SHL SUB DUP2 DUP2 AND PUSH1 0x0 SWAP1 DUP2 MSTORE PUSH1 0x4 PUSH1 0x20 MSTORE PUSH1 0x40 DUP2 KECCAK256 SLOAD SWAP1 SWAP2 AND ISZERO PUSH2 0x153B JUMPI PUSH1 0x40 MLOAD PUSH3 0x461BCD PUSH1 0xE5 SHL DUP2 MSTORE PUSH1 0x20 PUSH1 0x4 DUP3 ADD MSTORE PUSH1 0x6 PUSH1 0x24 DUP3 ADD MSTORE PUSH6 0x657869737473 PUSH1 0xD0 SHL PUSH1 0x44 DUP3 ADD MSTORE PUSH1 0x64 ADD PUSH2 0xC5E JUMP JUMPDEST PUSH1 0x40 MLOAD PUSH4 0xE5E31B13 PUSH1 0xE0 SHL DUP2 MSTORE PUSH1 0x1 PUSH1 0x1 PUSH1 0xA0 SHL SUB DUP4 DUP2 AND PUSH1 0x4 DUP4 ADD MSTORE PUSH32 0x0 AND SWAP1 PUSH4 0xE5E31B13 SWAP1 PUSH1 0x24 ADD PUSH1 0x20 PUSH1 0x40 MLOAD DUP1 DUP4 SUB DUP2 DUP7 GAS STATICCALL ISZERO DUP1 ISZERO PUSH2 0x15A1 JUMPI RETURNDATASIZE PUSH1 0x0 DUP1 RETURNDATACOPY RETURNDATASIZE PUSH1 0x0 REVERT JUMPDEST POP POP POP POP PUSH1 0x40 MLOAD RETURNDATASIZE PUSH1 0x1F NOT PUSH1 0x1F DUP3 ADD AND DUP3 ADD DUP1 PUSH1 0x40 MSTORE POP DUP2 ADD SWAP1 PUSH2 0x15C5 SWAP2 SWAP1 PUSH2 0x2D5D JUMP JUMPDEST PUSH2 0x15FA JUMPI PUSH1 0x40 MLOAD PUSH3 0x461BCD PUSH1 0xE5 SHL DUP2 MSTORE PUSH1 0x20 PUSH1 0x4 DUP3 ADD MSTORE PUSH1 0x6 PUSH1 0x24 DUP3 ADD MSTORE PUSH6 0x857DC1BDBDB PUSH1 0xD2 SHL PUSH1 0x44 DUP3 ADD MSTORE PUSH1 0x64 ADD PUSH2 0xC5E JUMP JUMPDEST PUSH1 0x0 DUP1 DUP4 PUSH1 0x1 PUSH1 0x1 PUSH1 0xA0 SHL SUB AND PUSH4 0x9D63848A PUSH1 0x40 MLOAD DUP2 PUSH4 0xFFFFFFFF AND PUSH1 0xE0 SHL DUP2 MSTORE PUSH1 0x4 ADD PUSH1 0x40 DUP1 MLOAD DUP1 DUP4 SUB DUP2 PUSH1 0x0 DUP8 GAS CALL ISZERO DUP1 ISZERO PUSH2 0x163C JUMPI RETURNDATASIZE PUSH1 0x0 DUP1 RETURNDATACOPY RETURNDATASIZE PUSH1 0x0 REVERT JUMPDEST POP POP POP POP PUSH1 0x40 MLOAD RETURNDATASIZE PUSH1 0x1F NOT PUSH1 0x1F DUP3 ADD AND DUP3 ADD DUP1 PUSH1 0x40 MSTORE POP DUP2 ADD SWAP1 PUSH2 0x1660 SWAP2 SWAP1 PUSH2 0x2E2F JUMP JUMPDEST PUSH1 0x1 PUSH1 0x1 PUSH1 0xA0 SHL SUB DUP3 AND PUSH1 0x0 SWAP1 DUP2 MSTORE PUSH1 0xC PUSH1 0x20 MSTORE PUSH1 0x40 SWAP1 KECCAK256 SLOAD SWAP2 SWAP4 POP SWAP2 POP PUSH1 0xFF AND DUP1 ISZERO PUSH2 0x16A5 JUMPI POP PUSH1 0x1 PUSH1 0x1 PUSH1 0xA0 SHL SUB DUP2 AND PUSH1 0x0 SWAP1 DUP2 MSTORE PUSH1 0xC PUSH1 0x20 MSTORE PUSH1 0x40 SWAP1 KECCAK256 SLOAD PUSH1 0xFF AND JUMPDEST PUSH2 0x16E0 JUMPI PUSH1 0x40 MLOAD PUSH3 0x461BCD PUSH1 0xE5 SHL DUP2 MSTORE PUSH1 0x20 PUSH1 0x4 DUP3 ADD MSTORE PUSH1 0xC PUSH1 0x24 DUP3 ADD MSTORE PUSH12 0x85DDA1A5D195B1A5CDD1959 PUSH1 0xA2 SHL PUSH1 0x44 DUP3 ADD MSTORE PUSH1 0x64 ADD PUSH2 0xC5E JUMP JUMPDEST PUSH1 0x1 SLOAD PUSH1 0x40 MLOAD PUSH4 0x3907C05 PUSH1 0xE1 SHL DUP2 MSTORE PUSH1 0x1 PUSH1 0x1 PUSH1 0xA0 SHL SUB DUP5 DUP2 AND PUSH1 0x4 DUP4 ADD MSTORE DUP4 DUP2 AND PUSH1 0x24 DUP4 ADD MSTORE DUP7 DUP2 AND PUSH1 0x44 DUP4 ADD MSTORE SWAP1 SWAP2 AND SWAP1 PUSH4 0x720F80A SWAP1 PUSH1 0x64 ADD PUSH1 0x20 PUSH1 0x40 MLOAD DUP1 DUP4 SUB DUP2 DUP7 GAS STATICCALL ISZERO DUP1 ISZERO PUSH2 0x173A JUMPI RETURNDATASIZE PUSH1 0x0 DUP1 RETURNDATACOPY RETURNDATASIZE PUSH1 0x0 REVERT JUMPDEST POP POP POP POP PUSH1 0x40 MLOAD RETURNDATASIZE PUSH1 0x1F NOT PUSH1 0x1F DUP3 ADD AND DUP3 ADD DUP1 PUSH1 0x40 MSTORE POP DUP2 ADD SWAP1 PUSH2 0x175E SWAP2 SWAP1 PUSH2 0x2D5D JUMP JUMPDEST PUSH2 0x179F JUMPI PUSH1 0x40 MLOAD PUSH3 0x461BCD PUSH1 0xE5 SHL DUP2 MSTORE PUSH1 0x20 PUSH1 0x4 DUP3 ADD MSTORE PUSH1 0x12 PUSH1 0x24 DUP3 ADD MSTORE PUSH18 0x851D85D59D94815DA1A5D19531A5CDD1959 PUSH1 0x72 SHL PUSH1 0x44 DUP3 ADD MSTORE PUSH1 0x64 ADD PUSH2 0xC5E JUMP JUMPDEST PUSH1 0x0 PUSH32 0x0 PUSH1 0x1 PUSH1 0x1 PUSH1 0xA0 SHL SUB AND PUSH4 0xD27B9A78 PUSH1 0x40 MLOAD DUP2 PUSH4 0xFFFFFFFF AND PUSH1 0xE0 SHL DUP2 MSTORE PUSH1 0x4 ADD PUSH1 0x20 PUSH1 0x40 MLOAD DUP1 DUP4 SUB DUP2 PUSH1 0x0 DUP8 GAS CALL ISZERO DUP1 ISZERO PUSH2 0x1801 JUMPI RETURNDATASIZE PUSH1 0x0 DUP1 RETURNDATACOPY RETURNDATASIZE PUSH1 0x0 REVERT JUMPDEST POP POP POP POP PUSH1 0x40 MLOAD RETURNDATASIZE PUSH1 0x1F NOT PUSH1 0x1F DUP3 ADD AND DUP3 ADD DUP1 PUSH1 0x40 MSTORE POP DUP2 ADD SWAP1 PUSH2 0x1825 SWAP2 SWAP1 PUSH2 0x2E12 JUMP JUMPDEST PUSH1 0x40 MLOAD PUSH4 0xE24707D PUSH1 0xE1 SHL DUP2 MSTORE PUSH1 0x1 PUSH1 0x1 PUSH1 0xA0 SHL SUB DUP8 DUP2 AND PUSH1 0x4 DUP4 ADD MSTORE DUP1 DUP4 AND PUSH1 0x24 DUP4 ADD MSTORE PUSH32 0x0 DUP2 AND PUSH1 0x44 DUP4 ADD MSTORE SWAP2 SWAP3 POP PUSH1 0x0 SWAP2 PUSH32 0x0 AND SWAP1 PUSH4 0x1C48E0FA SWAP1 PUSH1 0x64 ADD PUSH1 0x20 PUSH1 0x40 MLOAD DUP1 DUP4 SUB DUP2 PUSH1 0x0 DUP8 GAS CALL ISZERO DUP1 ISZERO PUSH2 0x18C3 JUMPI RETURNDATASIZE PUSH1 0x0 DUP1 RETURNDATACOPY RETURNDATASIZE PUSH1 0x0 REVERT JUMPDEST POP POP POP POP PUSH1 0x40 MLOAD RETURNDATASIZE PUSH1 0x1F NOT PUSH1 0x1F DUP3 ADD AND DUP3 ADD DUP1 PUSH1 0x40 MSTORE POP DUP2 ADD SWAP1 PUSH2 0x18E7 SWAP2 SWAP1 PUSH2 0x2E12 JUMP JUMPDEST PUSH1 0x40 MLOAD PUSH4 0x95EA7B3 PUSH1 0xE0 SHL DUP2 MSTORE PUSH1 0x1 PUSH1 0x1 PUSH1 0xA0 SHL SUB DUP1 DUP4 AND PUSH1 0x4 DUP4 ADD MSTORE PUSH1 0x0 NOT PUSH1 0x24 DUP4 ADD MSTORE SWAP2 SWAP3 POP PUSH32 0x0 SWAP1 SWAP2 AND SWAP1 PUSH4 0x95EA7B3 SWAP1 PUSH1 0x44 ADD PUSH1 0x20 PUSH1 0x40 MLOAD DUP1 DUP4 SUB DUP2 PUSH1 0x0 DUP8 GAS CALL ISZERO DUP1 ISZERO PUSH2 0x195C JUMPI RETURNDATASIZE PUSH1 0x0 DUP1 RETURNDATACOPY RETURNDATASIZE PUSH1 0x0 REVERT JUMPDEST POP POP POP POP PUSH1 0x40 MLOAD RETURNDATASIZE PUSH1 0x1F NOT PUSH1 0x1F DUP3 ADD AND DUP3 ADD DUP1 PUSH1 0x40 MSTORE POP DUP2 ADD SWAP1 PUSH2 0x1980 SWAP2 SWAP1 PUSH2 0x2D5D JUMP JUMPDEST POP PUSH1 0x1 PUSH1 0x1 PUSH1 0xA0 SHL SUB DUP1 DUP3 AND PUSH1 0x0 DUP2 DUP2 MSTORE PUSH1 0x6 PUSH1 0x20 SWAP1 DUP2 MSTORE PUSH1 0x40 DUP1 DUP4 KECCAK256 DUP1 SLOAD DUP7 DUP10 AND PUSH1 0x1 PUSH1 0x1 PUSH1 0xA0 SHL SUB NOT SWAP2 DUP3 AND OR SWAP1 SWAP2 SSTORE SWAP5 DUP12 AND DUP1 DUP5 MSTORE PUSH1 0x4 DUP4 MSTORE DUP2 DUP5 KECCAK256 DUP1 SLOAD DUP8 AND DUP7 OR SWAP1 SSTORE SWAP4 DUP4 MSTORE PUSH1 0x5 DUP3 MSTORE DUP1 DUP4 KECCAK256 DUP1 SLOAD SWAP1 SWAP6 AND SWAP1 SWAP4 OR SWAP1 SWAP4 SSTORE PUSH1 0xB SWAP1 SWAP3 MSTORE SWAP1 KECCAK256 DUP1 SLOAD PUSH1 0xFF NOT AND PUSH1 0x1 OR SWAP1 SSTORE PUSH2 0x19F7 DUP2 PUSH2 0x2717 JUMP JUMPDEST PUSH1 0x3 DUP1 SLOAD PUSH1 0x1 DUP2 ADD DUP3 SSTORE PUSH1 0x0 SWAP2 SWAP1 SWAP2 MSTORE PUSH32 0xC2575A0E9E593C00F959F8C92F12DB2869C3395A3B0502D05E2516446F71F85B ADD DUP1 SLOAD PUSH1 0x1 PUSH1 0x1 PUSH1 0xA0 SHL SUB NOT AND PUSH1 0x1 PUSH1 0x1 PUSH1 0xA0 SHL SUB DUP9 DUP2 AND SWAP2 DUP3 OR SWAP1 SWAP3 SSTORE PUSH1 0x40 MLOAD CALLER DUP2 MSTORE SWAP1 SWAP2 DUP5 DUP2 AND SWAP2 SWAP1 DUP5 AND SWAP1 PUSH32 0x48D3C521FD0D5541640F58C6D6381EED7CB2E8C9DF421AE165A4F4C2D221EE0D SWAP1 PUSH1 0x20 ADD PUSH1 0x40 MLOAD DUP1 SWAP2 SUB SWAP1 LOG4 SWAP6 SWAP5 POP POP POP POP POP JUMP JUMPDEST CALLER PUSH1 0x0 SWAP1 DUP2 MSTORE PUSH1 0xB PUSH1 0x20 MSTORE PUSH1 0x40 SWAP1 KECCAK256 SLOAD PUSH1 0xFF AND PUSH2 0x1AA8 JUMPI PUSH1 0x0 DUP1 REVERT JUMPDEST PUSH1 0x40 DUP1 MLOAD DUP5 DUP2 MSTORE PUSH1 0x20 DUP2 ADD DUP4 SWAP1 MSTORE CALLER SWAP2 PUSH1 0x1 PUSH1 0x1 PUSH1 0xA0 SHL SUB DUP6 AND SWAP2 PUSH32 0xDCBC1C05240F31FF3AD067EF1EE35CE4997762752E3A095284754544F4C709D7 SWAP2 ADD JUMPDEST PUSH1 0x40 MLOAD DUP1 SWAP2 SUB SWAP1 LOG3 POP POP POP JUMP JUMPDEST PUSH1 0x9 PUSH1 0x20 MSTORE DUP2 PUSH1 0x0 MSTORE PUSH1 0x40 PUSH1 0x0 KECCAK256 DUP2 DUP2 SLOAD DUP2 LT PUSH2 0x1B10 JUMPI PUSH1 0x0 DUP1 REVERT JUMPDEST PUSH1 0x0 SWAP2 DUP3 MSTORE PUSH1 0x20 SWAP1 SWAP2 KECCAK256 ADD SLOAD PUSH1 0x1 PUSH1 0x1 PUSH1 0xA0 SHL SUB AND SWAP2 POP DUP3 SWAP1 POP JUMP JUMPDEST PUSH1 0x3 DUP2 DUP2 SLOAD DUP2 LT PUSH2 0x1B3C JUMPI PUSH1 0x0 DUP1 REVERT JUMPDEST PUSH1 0x0 SWAP2 DUP3 MSTORE PUSH1 0x20 SWAP1 SWAP2 KECCAK256 ADD SLOAD PUSH1 0x1 PUSH1 0x1 PUSH1 0xA0 SHL SUB AND SWAP1 POP DUP2 JUMP JUMPDEST PUSH1 0x0 PUSH1 0xC8 PUSH32 0x0 PUSH1 0x1 PUSH1 0x1 PUSH1 0xA0 SHL SUB AND PUSH4 0x18160DDD PUSH1 0x40 MLOAD DUP2 PUSH4 0xFFFFFFFF AND PUSH1 0xE0 SHL DUP2 MSTORE PUSH1 0x4 ADD PUSH1 0x20 PUSH1 0x40 MLOAD DUP1 DUP4 SUB DUP2 DUP7 GAS STATICCALL ISZERO DUP1 ISZERO PUSH2 0x1BB8 JUMPI RETURNDATASIZE PUSH1 0x0 DUP1 RETURNDATACOPY RETURNDATASIZE PUSH1 0x0 REVERT JUMPDEST POP POP POP POP PUSH1 0x40 MLOAD RETURNDATASIZE PUSH1 0x1F NOT PUSH1 0x1F DUP3 ADD AND DUP3 ADD DUP1 PUSH1 0x40 MSTORE POP DUP2 ADD SWAP1 PUSH2 0x1BDC SWAP2 SWAP1 PUSH2 0x2DE0 JUMP JUMPDEST PUSH32 0x0 PUSH1 0x1 PUSH1 0x1 PUSH1 0xA0 SHL SUB AND PUSH4 0x18160DDD PUSH1 0x40 MLOAD DUP2 PUSH4 0xFFFFFFFF AND PUSH1 0xE0 SHL DUP2 MSTORE PUSH1 0x4 ADD PUSH1 0x20 PUSH1 0x40 MLOAD DUP1 DUP4 SUB DUP2 DUP7 GAS STATICCALL ISZERO DUP1 ISZERO PUSH2 0x1C3A JUMPI RETURNDATASIZE PUSH1 0x0 DUP1 RETURNDATACOPY RETURNDATASIZE PUSH1 0x0 REVERT JUMPDEST POP POP POP POP PUSH1 0x40 MLOAD RETURNDATASIZE PUSH1 0x1F NOT PUSH1 0x1F DUP3 ADD AND DUP3 ADD DUP1 PUSH1 0x40 MSTORE POP DUP2 ADD SWAP1 PUSH2 0x1C5E SWAP2 SWAP1 PUSH2 0x2DE0 JUMP JUMPDEST PUSH2 0x1C68 SWAP2 SWAP1 PUSH2 0x2E5E JUMP JUMPDEST PUSH2 0x1C72 SWAP2 SWAP1 PUSH2 0x2DB4 JUMP JUMPDEST SWAP1 POP SWAP1 JUMP JUMPDEST PUSH1 0x0 JUMPDEST DUP2 MLOAD DUP2 LT ISZERO PUSH2 0xCD8 JUMPI DUP2 DUP2 DUP2 MLOAD DUP2 LT PUSH2 0x1C95 JUMPI PUSH2 0x1C95 PUSH2 0x2CAE JUMP JUMPDEST PUSH1 0x20 MUL PUSH1 0x20 ADD ADD MLOAD PUSH1 0x1 PUSH1 0x1 PUSH1 0xA0 SHL SUB AND PUSH4 0xD294F093 PUSH1 0x40 MLOAD DUP2 PUSH4 0xFFFFFFFF AND PUSH1 0xE0 SHL DUP2 MSTORE PUSH1 0x4 ADD PUSH1 0x40 DUP1 MLOAD DUP1 DUP4 SUB DUP2 PUSH1 0x0 DUP8 GAS CALL ISZERO DUP1 ISZERO PUSH2 0x1CDB JUMPI RETURNDATASIZE PUSH1 0x0 DUP1 RETURNDATACOPY RETURNDATASIZE PUSH1 0x0 REVERT JUMPDEST POP POP POP POP PUSH1 0x40 MLOAD RETURNDATASIZE PUSH1 0x1F NOT PUSH1 0x1F DUP3 ADD AND DUP3 ADD DUP1 PUSH1 0x40 MSTORE POP DUP2 ADD SWAP1 PUSH2 0x1CFF SWAP2 SWAP1 PUSH2 0x2E75 JUMP JUMPDEST POP POP DUP1 DUP1 PUSH2 0x1D0C SWAP1 PUSH2 0x2D42 JUMP JUMPDEST SWAP2 POP POP PUSH2 0x1C7A JUMP JUMPDEST PUSH1 0x0 JUMPDEST DUP2 MLOAD DUP2 LT ISZERO PUSH2 0xCD8 JUMPI PUSH2 0x1D42 DUP3 DUP3 DUP2 MLOAD DUP2 LT PUSH2 0x1D35 JUMPI PUSH2 0x1D35 PUSH2 0x2CAE JUMP JUMPDEST PUSH1 0x20 MUL PUSH1 0x20 ADD ADD MLOAD PUSH2 0x2717 JUMP JUMPDEST DUP1 PUSH2 0x1D4C DUP2 PUSH2 0x2D42 JUMP JUMPDEST SWAP2 POP POP PUSH2 0x1D17 JUMP JUMPDEST CALLER PUSH1 0x0 SWAP1 DUP2 MSTORE PUSH1 0xB PUSH1 0x20 MSTORE PUSH1 0x40 SWAP1 KECCAK256 SLOAD PUSH1 0xFF AND PUSH2 0x1D70 JUMPI PUSH1 0x0 DUP1 REVERT JUMPDEST PUSH1 0x40 DUP1 MLOAD DUP5 DUP2 MSTORE PUSH1 0x20 DUP2 ADD DUP4 SWAP1 MSTORE CALLER SWAP2 PUSH1 0x1 PUSH1 0x1 PUSH1 0xA0 SHL SUB DUP6 AND SWAP2 PUSH32 0xF341246ADAAC6F497BC2A656F546AB9E182111D630394F0C57C710A59A2CB567 SWAP2 ADD PUSH2 0x1AE7 JUMP JUMPDEST PUSH1 0x0 DUP6 DUP2 MSTORE PUSH1 0xD PUSH1 0x20 MSTORE PUSH1 0x40 SWAP1 KECCAK256 SLOAD TIMESTAMP GT PUSH2 0x1E10 JUMPI PUSH1 0x40 MLOAD PUSH3 0x461BCD PUSH1 0xE5 SHL DUP2 MSTORE PUSH1 0x20 PUSH1 0x4 DUP3 ADD MSTORE PUSH1 0x18 PUSH1 0x24 DUP3 ADD MSTORE PUSH32 0x6C6F636B20706572696F64206E6F742066696E69736865640000000000000000 PUSH1 0x44 DUP3 ADD MSTORE PUSH1 0x64 ADD PUSH2 0xC5E JUMP JUMPDEST PUSH1 0x40 MLOAD PUSH4 0x430C2081 PUSH1 0xE0 SHL DUP2 MSTORE CALLER PUSH1 0x4 DUP3 ADD MSTORE PUSH1 0x24 DUP2 ADD DUP7 SWAP1 MSTORE PUSH32 0x0 PUSH1 0x1 PUSH1 0x1 PUSH1 0xA0 SHL SUB AND SWAP1 PUSH4 0x430C2081 SWAP1 PUSH1 0x44 ADD PUSH1 0x20 PUSH1 0x40 MLOAD DUP1 DUP4 SUB DUP2 DUP7 GAS STATICCALL ISZERO DUP1 ISZERO PUSH2 0x1E7B JUMPI RETURNDATASIZE PUSH1 0x0 DUP1 RETURNDATACOPY RETURNDATASIZE PUSH1 0x0 REVERT JUMPDEST POP POP POP POP PUSH1 0x40 MLOAD RETURNDATASIZE PUSH1 0x1F NOT PUSH1 0x1F DUP3 ADD AND DUP3 ADD DUP1 PUSH1 0x40 MSTORE POP DUP2 ADD SWAP1 PUSH2 0x1E9F SWAP2 SWAP1 PUSH2 0x2D5D JUMP JUMPDEST PUSH2 0x1EA8 JUMPI PUSH1 0x0 DUP1 REVERT JUMPDEST DUP3 DUP2 EQ PUSH2 0x1EB4 JUMPI PUSH1 0x0 DUP1 REVERT JUMPDEST PUSH2 0x1F22 DUP6 DUP6 DUP6 DUP1 DUP1 PUSH1 0x20 MUL PUSH1 0x20 ADD PUSH1 0x40 MLOAD SWAP1 DUP2 ADD PUSH1 0x40 MSTORE DUP1 SWAP4 SWAP3 SWAP2 SWAP1 DUP2 DUP2 MSTORE PUSH1 0x20 ADD DUP4 DUP4 PUSH1 0x20 MUL DUP1 DUP3 DUP5 CALLDATACOPY PUSH1 0x0 SWAP3 ADD SWAP2 SWAP1 SWAP2 MSTORE POP POP PUSH1 0x40 DUP1 MLOAD PUSH1 0x20 DUP1 DUP10 MUL DUP3 DUP2 ADD DUP3 ADD SWAP1 SWAP4 MSTORE DUP9 DUP3 MSTORE SWAP1 SWAP4 POP DUP9 SWAP3 POP DUP8 SWAP2 DUP3 SWAP2 DUP6 ADD SWAP1 DUP5 SWAP1 DUP1 DUP3 DUP5 CALLDATACOPY PUSH1 0x0 SWAP3 ADD SWAP2 SWAP1 SWAP2 MSTORE POP PUSH2 0x216E SWAP3 POP POP POP JUMP JUMPDEST PUSH2 0x1F2F TIMESTAMP PUSH3 0x93A80 PUSH2 0x2DC8 JUMP JUMPDEST PUSH1 0x0 SWAP6 DUP7 MSTORE PUSH1 0xD PUSH1 0x20 MSTORE PUSH1 0x40 SWAP1 SWAP6 KECCAK256 SWAP5 SWAP1 SWAP5 SSTORE POP POP POP POP JUMP JUMPDEST PUSH1 0x0 DUP2 DUP2 MSTORE PUSH1 0x9 PUSH1 0x20 MSTORE PUSH1 0x40 DUP2 KECCAK256 DUP1 SLOAD SWAP1 SWAP2 DUP1 JUMPDEST DUP3 DUP2 LT ISZERO PUSH2 0x2132 JUMPI PUSH1 0x0 DUP5 DUP3 DUP2 SLOAD DUP2 LT PUSH2 0x1F78 JUMPI PUSH2 0x1F78 PUSH2 0x2CAE JUMP JUMPDEST PUSH1 0x0 SWAP2 DUP3 MSTORE PUSH1 0x20 DUP1 DUP4 KECCAK256 SWAP1 SWAP2 ADD SLOAD DUP9 DUP4 MSTORE PUSH1 0x8 DUP3 MSTORE PUSH1 0x40 DUP1 DUP5 KECCAK256 PUSH1 0x1 PUSH1 0x1 PUSH1 0xA0 SHL SUB SWAP1 SWAP3 AND DUP1 DUP6 MSTORE SWAP2 SWAP1 SWAP3 MSTORE SWAP2 KECCAK256 SLOAD SWAP1 SWAP2 POP DUP1 ISZERO PUSH2 0x211D JUMPI PUSH1 0x1 PUSH1 0x1 PUSH1 0xA0 SHL SUB DUP1 DUP4 AND PUSH1 0x0 SWAP1 DUP2 MSTORE PUSH1 0x4 PUSH1 0x20 MSTORE PUSH1 0x40 SWAP1 KECCAK256 SLOAD PUSH2 0x1FD4 SWAP2 AND PUSH2 0x2717 JUMP JUMPDEST PUSH1 0x1 PUSH1 0x1 PUSH1 0xA0 SHL SUB DUP3 AND PUSH1 0x0 SWAP1 DUP2 MSTORE PUSH1 0x7 PUSH1 0x20 MSTORE PUSH1 0x40 DUP2 KECCAK256 DUP1 SLOAD DUP4 SWAP3 SWAP1 PUSH2 0x1FFC SWAP1 DUP5 SWAP1 PUSH2 0x2E99 JUMP JUMPDEST SWAP1 SWAP2 SSTORE POP POP PUSH1 0x0 DUP8 DUP2 MSTORE PUSH1 0x8 PUSH1 0x20 SWAP1 DUP2 MSTORE PUSH1 0x40 DUP1 DUP4 KECCAK256 PUSH1 0x1 PUSH1 0x1 PUSH1 0xA0 SHL SUB DUP7 AND DUP5 MSTORE SWAP1 SWAP2 MSTORE DUP2 KECCAK256 DUP1 SLOAD DUP4 SWAP3 SWAP1 PUSH2 0x2033 SWAP1 DUP5 SWAP1 PUSH2 0x2E99 JUMP JUMPDEST SWAP1 SWAP2 SSTORE POP POP PUSH1 0x0 DUP2 SGT ISZERO PUSH2 0x20D6 JUMPI PUSH1 0x1 PUSH1 0x1 PUSH1 0xA0 SHL SUB DUP3 DUP2 AND PUSH1 0x0 SWAP1 DUP2 MSTORE PUSH1 0x4 PUSH1 0x20 DUP2 DUP2 MSTORE PUSH1 0x40 DUP1 DUP5 KECCAK256 SLOAD DUP6 AND DUP5 MSTORE PUSH1 0x6 SWAP1 SWAP2 MSTORE SWAP2 DUP3 SWAP1 KECCAK256 SLOAD SWAP2 MLOAD PUSH4 0x278AFC8B PUSH1 0xE2 SHL DUP2 MSTORE SWAP1 DUP2 ADD DUP5 SWAP1 MSTORE PUSH1 0x24 DUP2 ADD DUP11 SWAP1 MSTORE SWAP2 AND SWAP1 PUSH4 0x9E2BF22C SWAP1 PUSH1 0x44 ADD PUSH1 0x0 PUSH1 0x40 MLOAD DUP1 DUP4 SUB DUP2 PUSH1 0x0 DUP8 DUP1 EXTCODESIZE ISZERO DUP1 ISZERO PUSH2 0x20AB JUMPI PUSH1 0x0 DUP1 REVERT JUMPDEST POP GAS CALL ISZERO DUP1 ISZERO PUSH2 0x20BF JUMPI RETURNDATASIZE PUSH1 0x0 DUP1 RETURNDATACOPY RETURNDATASIZE PUSH1 0x0 REVERT JUMPDEST POP POP POP POP DUP1 DUP5 PUSH2 0x20CF SWAP2 SWAP1 PUSH2 0x2ED8 JUMP JUMPDEST SWAP4 POP PUSH2 0x20E3 JUMP JUMPDEST PUSH2 0x20E0 DUP2 DUP6 PUSH2 0x2E99 JUMP JUMPDEST SWAP4 POP JUMPDEST PUSH1 0x40 DUP1 MLOAD DUP9 DUP2 MSTORE PUSH1 0x20 DUP2 ADD DUP4 SWAP1 MSTORE PUSH32 0x6B3894CE60B9BBE9D93F1A4E6FC25B6B93CD8222E73AB6348D79C596F5B51DE9 SWAP2 ADD PUSH1 0x40 MLOAD DUP1 SWAP2 SUB SWAP1 LOG1 JUMPDEST POP POP DUP1 DUP1 PUSH2 0x212A SWAP1 PUSH2 0x2D42 JUMP JUMPDEST SWAP2 POP POP PUSH2 0x1F5C JUMP JUMPDEST POP DUP1 PUSH1 0x2 PUSH1 0x0 DUP3 DUP3 SLOAD PUSH2 0x2145 SWAP2 SWAP1 PUSH2 0x2E5E JUMP JUMPDEST SWAP1 SWAP2 SSTORE POP POP PUSH1 0x0 DUP5 DUP2 MSTORE PUSH1 0xA PUSH1 0x20 SWAP1 DUP2 MSTORE PUSH1 0x40 DUP1 DUP4 KECCAK256 DUP4 SWAP1 SSTORE PUSH1 0x9 SWAP1 SWAP2 MSTORE DUP2 KECCAK256 PUSH2 0x9DA SWAP2 PUSH2 0x27FA JUMP JUMPDEST PUSH2 0x2177 DUP4 PUSH2 0x1F48 JUMP JUMPDEST DUP2 MLOAD PUSH1 0x40 MLOAD PUSH4 0x39F890B5 PUSH1 0xE2 SHL DUP2 MSTORE PUSH1 0x4 DUP2 ADD DUP6 SWAP1 MSTORE PUSH1 0x0 SWAP1 PUSH32 0x0 PUSH1 0x1 PUSH1 0x1 PUSH1 0xA0 SHL SUB AND SWAP1 PUSH4 0xE7E242D4 SWAP1 PUSH1 0x24 ADD PUSH1 0x20 PUSH1 0x40 MLOAD DUP1 DUP4 SUB DUP2 DUP7 GAS STATICCALL ISZERO DUP1 ISZERO PUSH2 0x21E1 JUMPI RETURNDATASIZE PUSH1 0x0 DUP1 RETURNDATACOPY RETURNDATASIZE PUSH1 0x0 REVERT JUMPDEST POP POP POP POP PUSH1 0x40 MLOAD RETURNDATASIZE PUSH1 0x1F NOT PUSH1 0x1F DUP3 ADD AND DUP3 ADD DUP1 PUSH1 0x40 MSTORE POP DUP2 ADD SWAP1 PUSH2 0x2205 SWAP2 SWAP1 PUSH2 0x2DE0 JUMP JUMPDEST SWAP1 POP PUSH1 0x0 DUP1 PUSH1 0x0 DUP1 JUMPDEST DUP6 DUP2 LT ISZERO PUSH2 0x2298 JUMPI PUSH1 0x0 DUP8 DUP3 DUP2 MLOAD DUP2 LT PUSH2 0x222A JUMPI PUSH2 0x222A PUSH2 0x2CAE JUMP JUMPDEST PUSH1 0x20 MUL PUSH1 0x20 ADD ADD MLOAD SGT PUSH2 0x225F JUMPI DUP7 DUP2 DUP2 MLOAD DUP2 LT PUSH2 0x2249 JUMPI PUSH2 0x2249 PUSH2 0x2CAE JUMP JUMPDEST PUSH1 0x20 MUL PUSH1 0x20 ADD ADD MLOAD PUSH2 0x225A SWAP1 PUSH2 0x2F19 JUMP JUMPDEST PUSH2 0x227A JUMP JUMPDEST DUP7 DUP2 DUP2 MLOAD DUP2 LT PUSH2 0x2271 JUMPI PUSH2 0x2271 PUSH2 0x2CAE JUMP JUMPDEST PUSH1 0x20 MUL PUSH1 0x20 ADD ADD MLOAD JUMPDEST PUSH2 0x2284 SWAP1 DUP6 PUSH2 0x2ED8 JUMP JUMPDEST SWAP4 POP DUP1 PUSH2 0x2290 DUP2 PUSH2 0x2D42 JUMP JUMPDEST SWAP2 POP POP PUSH2 0x220E JUMP JUMPDEST POP PUSH1 0x0 JUMPDEST DUP6 DUP2 LT ISZERO PUSH2 0x24F5 JUMPI PUSH1 0x0 DUP9 DUP3 DUP2 MLOAD DUP2 LT PUSH2 0x22B8 JUMPI PUSH2 0x22B8 PUSH2 0x2CAE JUMP JUMPDEST PUSH1 0x20 SWAP1 DUP2 MUL SWAP2 SWAP1 SWAP2 ADD DUP2 ADD MLOAD PUSH1 0x1 PUSH1 0x1 PUSH1 0xA0 SHL SUB DUP1 DUP3 AND PUSH1 0x0 SWAP1 DUP2 MSTORE PUSH1 0x4 DUP5 MSTORE PUSH1 0x40 DUP1 DUP3 KECCAK256 SLOAD SWAP1 SWAP3 AND DUP1 DUP3 MSTORE PUSH1 0xB SWAP1 SWAP5 MSTORE KECCAK256 SLOAD SWAP1 SWAP3 POP PUSH1 0xFF AND ISZERO PUSH2 0x24E0 JUMPI PUSH1 0x0 DUP7 DUP9 DUP12 DUP7 DUP2 MLOAD DUP2 LT PUSH2 0x230C JUMPI PUSH2 0x230C PUSH2 0x2CAE JUMP JUMPDEST PUSH1 0x20 MUL PUSH1 0x20 ADD ADD MLOAD PUSH2 0x231E SWAP2 SWAP1 PUSH2 0x2F36 JUMP JUMPDEST PUSH2 0x2328 SWAP2 SWAP1 PUSH2 0x2FBB JUMP JUMPDEST PUSH1 0x0 DUP14 DUP2 MSTORE PUSH1 0x8 PUSH1 0x20 SWAP1 DUP2 MSTORE PUSH1 0x40 DUP1 DUP4 KECCAK256 PUSH1 0x1 PUSH1 0x1 PUSH1 0xA0 SHL SUB DUP9 AND DUP5 MSTORE SWAP1 SWAP2 MSTORE SWAP1 KECCAK256 SLOAD SWAP1 SWAP2 POP ISZERO PUSH2 0x2358 JUMPI PUSH1 0x0 DUP1 REVERT JUMPDEST DUP1 PUSH2 0x2362 JUMPI PUSH1 0x0 DUP1 REVERT JUMPDEST PUSH2 0x236B DUP3 PUSH2 0x2717 JUMP JUMPDEST PUSH1 0x0 DUP13 DUP2 MSTORE PUSH1 0x9 PUSH1 0x20 SWAP1 DUP2 MSTORE PUSH1 0x40 DUP1 DUP4 KECCAK256 DUP1 SLOAD PUSH1 0x1 DUP2 ADD DUP3 SSTORE SWAP1 DUP5 MSTORE DUP3 DUP5 KECCAK256 ADD DUP1 SLOAD PUSH1 0x1 PUSH1 0x1 PUSH1 0xA0 SHL SUB NOT AND PUSH1 0x1 PUSH1 0x1 PUSH1 0xA0 SHL SUB DUP9 AND SWAP1 DUP2 OR SWAP1 SWAP2 SSTORE DUP4 MSTORE PUSH1 0x7 SWAP1 SWAP2 MSTORE DUP2 KECCAK256 DUP1 SLOAD DUP4 SWAP3 SWAP1 PUSH2 0x23C0 SWAP1 DUP5 SWAP1 PUSH2 0x2ED8 JUMP JUMPDEST SWAP1 SWAP2 SSTORE POP POP PUSH1 0x0 DUP13 DUP2 MSTORE PUSH1 0x8 PUSH1 0x20 SWAP1 DUP2 MSTORE PUSH1 0x40 DUP1 DUP4 KECCAK256 PUSH1 0x1 PUSH1 0x1 PUSH1 0xA0 SHL SUB DUP8 AND DUP5 MSTORE SWAP1 SWAP2 MSTORE DUP2 KECCAK256 DUP1 SLOAD DUP4 SWAP3 SWAP1 PUSH2 0x23F7 SWAP1 DUP5 SWAP1 PUSH2 0x2ED8 JUMP JUMPDEST SWAP1 SWAP2 SSTORE POP POP PUSH1 0x0 DUP2 SGT ISZERO PUSH2 0x247E JUMPI PUSH1 0x1 PUSH1 0x1 PUSH1 0xA0 SHL SUB DUP1 DUP4 AND PUSH1 0x0 SWAP1 DUP2 MSTORE PUSH1 0x6 PUSH1 0x20 MSTORE PUSH1 0x40 SWAP1 DUP2 SWAP1 KECCAK256 SLOAD SWAP1 MLOAD PUSH4 0xF3207723 PUSH1 0xE0 SHL DUP2 MSTORE PUSH1 0x4 DUP2 ADD DUP5 SWAP1 MSTORE PUSH1 0x24 DUP2 ADD DUP16 SWAP1 MSTORE SWAP2 AND SWAP1 PUSH4 0xF3207723 SWAP1 PUSH1 0x44 ADD PUSH1 0x0 PUSH1 0x40 MLOAD DUP1 DUP4 SUB DUP2 PUSH1 0x0 DUP8 DUP1 EXTCODESIZE ISZERO DUP1 ISZERO PUSH2 0x2461 JUMPI PUSH1 0x0 DUP1 REVERT JUMPDEST POP GAS CALL ISZERO DUP1 ISZERO PUSH2 0x2475 JUMPI RETURNDATASIZE PUSH1 0x0 DUP1 RETURNDATACOPY RETURNDATASIZE PUSH1 0x0 REVERT JUMPDEST POP POP POP POP PUSH2 0x248A JUMP JUMPDEST PUSH2 0x2487 DUP2 PUSH2 0x2F19 JUMP JUMPDEST SWAP1 POP JUMPDEST PUSH2 0x2494 DUP2 DUP7 PUSH2 0x2ED8 JUMP JUMPDEST SWAP5 POP PUSH2 0x24A0 DUP2 DUP8 PUSH2 0x2ED8 JUMP JUMPDEST PUSH1 0x40 DUP1 MLOAD DUP15 DUP2 MSTORE PUSH1 0x20 DUP2 ADD DUP5 SWAP1 MSTORE SWAP2 SWAP8 POP CALLER SWAP2 PUSH32 0x1263A2295E53ACD6EF8F655B8AFC11FA0F2CF11925BE7AA1757D741EF32A926C SWAP2 ADD PUSH1 0x40 MLOAD DUP1 SWAP2 SUB SWAP1 LOG2 POP JUMPDEST POP POP DUP1 DUP1 PUSH2 0x24ED SWAP1 PUSH2 0x2D42 JUMP JUMPDEST SWAP2 POP POP PUSH2 0x229C JUMP JUMPDEST POP PUSH1 0x0 DUP2 SGT ISZERO PUSH2 0x257A JUMPI PUSH1 0x40 MLOAD PUSH4 0xFD4A77F1 PUSH1 0xE0 SHL DUP2 MSTORE PUSH1 0x4 DUP2 ADD DUP10 SWAP1 MSTORE PUSH32 0x0 PUSH1 0x1 PUSH1 0x1 PUSH1 0xA0 SHL SUB AND SWAP1 PUSH4 0xFD4A77F1 SWAP1 PUSH1 0x24 ADD PUSH1 0x0 PUSH1 0x40 MLOAD DUP1 DUP4 SUB DUP2 PUSH1 0x0 DUP8 DUP1 EXTCODESIZE ISZERO DUP1 ISZERO PUSH2 0x2561 JUMPI PUSH1 0x0 DUP1 REVERT JUMPDEST POP GAS CALL ISZERO DUP1 ISZERO PUSH2 0x2575 JUMPI RETURNDATASIZE PUSH1 0x0 DUP1 RETURNDATACOPY RETURNDATASIZE PUSH1 0x0 REVERT JUMPDEST POP POP POP POP JUMPDEST DUP2 PUSH1 0x2 PUSH1 0x0 DUP3 DUP3 SLOAD PUSH2 0x258C SWAP2 SWAP1 PUSH2 0x2DC8 JUMP JUMPDEST SWAP1 SWAP2 SSTORE POP POP PUSH1 0x0 SWAP8 DUP9 MSTORE PUSH1 0xA PUSH1 0x20 MSTORE PUSH1 0x40 SWAP1 SWAP8 KECCAK256 SWAP7 SWAP1 SWAP7 SSTORE POP POP POP POP POP POP JUMP JUMPDEST PUSH1 0x0 DUP5 PUSH1 0x1 PUSH1 0x1 PUSH1 0xA0 SHL SUB AND EXTCODESIZE GT PUSH2 0x25C3 JUMPI PUSH1 0x0 DUP1 REVERT JUMPDEST PUSH1 0x40 DUP1 MLOAD PUSH1 0x1 PUSH1 0x1 PUSH1 0xA0 SHL SUB DUP6 DUP2 AND PUSH1 0x24 DUP4 ADD MSTORE DUP5 DUP2 AND PUSH1 0x44 DUP4 ADD MSTORE PUSH1 0x64 DUP1 DUP4 ADD DUP6 SWAP1 MSTORE DUP4 MLOAD DUP1 DUP5 SUB SWAP1 SWAP2 ADD DUP2 MSTORE PUSH1 0x84 SWAP1 SWAP3 ADD DUP4 MSTORE PUSH1 0x20 DUP3 ADD DUP1 MLOAD PUSH1 0x1 PUSH1 0x1 PUSH1 0xE0 SHL SUB AND PUSH4 0x23B872DD PUSH1 0xE0 SHL OR SWAP1 MSTORE SWAP2 MLOAD PUSH1 0x0 SWAP3 DUP4 SWAP3 SWAP1 DUP9 AND SWAP2 PUSH2 0x2627 SWAP2 SWAP1 PUSH2 0x2FE9 JUMP JUMPDEST PUSH1 0x0 PUSH1 0x40 MLOAD DUP1 DUP4 SUB DUP2 PUSH1 0x0 DUP7 GAS CALL SWAP2 POP POP RETURNDATASIZE DUP1 PUSH1 0x0 DUP2 EQ PUSH2 0x2664 JUMPI PUSH1 0x40 MLOAD SWAP2 POP PUSH1 0x1F NOT PUSH1 0x3F RETURNDATASIZE ADD AND DUP3 ADD PUSH1 0x40 MSTORE RETURNDATASIZE DUP3 MSTORE RETURNDATASIZE PUSH1 0x0 PUSH1 0x20 DUP5 ADD RETURNDATACOPY PUSH2 0x2669 JUMP JUMPDEST PUSH1 0x60 SWAP2 POP JUMPDEST POP SWAP2 POP SWAP2 POP DUP2 DUP1 ISZERO PUSH2 0x2693 JUMPI POP DUP1 MLOAD ISZERO DUP1 PUSH2 0x2693 JUMPI POP DUP1 DUP1 PUSH1 0x20 ADD SWAP1 MLOAD DUP2 ADD SWAP1 PUSH2 0x2693 SWAP2 SWAP1 PUSH2 0x2D5D JUMP JUMPDEST PUSH2 0x269C JUMPI PUSH1 0x0 DUP1 REVERT JUMPDEST POP POP POP POP POP POP JUMP JUMPDEST PUSH1 0x1 PUSH1 0x1 PUSH1 0xA0 SHL SUB DUP2 AND PUSH1 0x0 SWAP1 DUP2 MSTORE PUSH1 0xC PUSH1 0x20 MSTORE PUSH1 0x40 SWAP1 KECCAK256 SLOAD PUSH1 0xFF AND ISZERO PUSH2 0x26CA JUMPI PUSH1 0x0 DUP1 REVERT JUMPDEST PUSH1 0x1 PUSH1 0x1 PUSH1 0xA0 SHL SUB DUP2 AND PUSH1 0x0 DUP2 DUP2 MSTORE PUSH1 0xC PUSH1 0x20 MSTORE PUSH1 0x40 DUP1 DUP3 KECCAK256 DUP1 SLOAD PUSH1 0xFF NOT AND PUSH1 0x1 OR SWAP1 SSTORE MLOAD CALLER SWAP2 PUSH32 0x6661A7108AECD07864384529117D96C319C1163E3010C01390F6B704726E07DE SWAP2 LOG3 POP JUMP JUMPDEST PUSH1 0x1 PUSH1 0x1 PUSH1 0xA0 SHL SUB DUP1 DUP3 AND PUSH1 0x0 SWAP1 DUP2 MSTORE PUSH1 0x5 PUSH1 0x20 SWAP1 DUP2 MSTORE PUSH1 0x40 DUP1 DUP4 KECCAK256 SLOAD SWAP1 SWAP4 AND DUP1 DUP4 MSTORE PUSH1 0x7 SWAP1 SWAP2 MSTORE SWAP2 DUP2 KECCAK256 SLOAD SWAP1 DUP2 SGT ISZERO PUSH2 0x27D9 JUMPI PUSH1 0x1 PUSH1 0x1 PUSH1 0xA0 SHL SUB DUP4 AND PUSH1 0x0 SWAP1 DUP2 MSTORE PUSH1 0x10 PUSH1 0x20 MSTORE PUSH1 0x40 DUP2 KECCAK256 DUP1 SLOAD PUSH1 0xF SLOAD SWAP2 DUP3 SWAP1 SSTORE SWAP2 PUSH2 0x2777 DUP4 DUP4 PUSH2 0x2E5E JUMP JUMPDEST SWAP1 POP DUP1 ISZERO PUSH2 0x269C JUMPI PUSH1 0x0 PUSH8 0xDE0B6B3A7640000 PUSH2 0x2794 DUP4 DUP8 PUSH2 0x2D7F JUMP JUMPDEST PUSH2 0x279E SWAP2 SWAP1 PUSH2 0x2DB4 JUMP JUMPDEST PUSH1 0x1 PUSH1 0x1 PUSH1 0xA0 SHL SUB DUP9 AND PUSH1 0x0 SWAP1 DUP2 MSTORE PUSH1 0x11 PUSH1 0x20 MSTORE PUSH1 0x40 DUP2 KECCAK256 DUP1 SLOAD SWAP3 SWAP4 POP DUP4 SWAP3 SWAP1 SWAP2 SWAP1 PUSH2 0x27CB SWAP1 DUP5 SWAP1 PUSH2 0x2DC8 JUMP JUMPDEST SWAP1 SWAP2 SSTORE POP POP POP POP POP POP POP POP POP JUMP JUMPDEST PUSH1 0xF SLOAD PUSH1 0x1 PUSH1 0x1 PUSH1 0xA0 SHL SUB DUP5 AND PUSH1 0x0 SWAP1 DUP2 MSTORE PUSH1 0x10 PUSH1 0x20 MSTORE PUSH1 0x40 SWAP1 KECCAK256 SSTORE POP POP POP JUMP JUMPDEST POP DUP1 SLOAD PUSH1 0x0 DUP3 SSTORE SWAP1 PUSH1 0x0 MSTORE PUSH1 0x20 PUSH1 0x0 KECCAK256 SWAP1 DUP2 ADD SWAP1 PUSH2 0x113A SWAP2 SWAP1 JUMPDEST DUP1 DUP3 GT ISZERO PUSH2 0x2828 JUMPI PUSH1 0x0 DUP2 SSTORE PUSH1 0x1 ADD PUSH2 0x2814 JUMP JUMPDEST POP SWAP1 JUMP JUMPDEST PUSH1 0x1 PUSH1 0x1 PUSH1 0xA0 SHL SUB DUP2 AND DUP2 EQ PUSH2 0x113A JUMPI PUSH1 0x0 DUP1 REVERT JUMPDEST PUSH1 0x0 PUSH1 0x20 DUP3 DUP5 SUB SLT ISZERO PUSH2 0x2853 JUMPI PUSH1 0x0 DUP1 REVERT JUMPDEST DUP2 CALLDATALOAD PUSH2 0x285E DUP2 PUSH2 0x282C JUMP JUMPDEST SWAP4 SWAP3 POP POP POP JUMP JUMPDEST PUSH4 0x4E487B71 PUSH1 0xE0 SHL PUSH1 0x0 MSTORE PUSH1 0x41 PUSH1 0x4 MSTORE PUSH1 0x24 PUSH1 0x0 REVERT JUMPDEST PUSH1 0x40 MLOAD PUSH1 0x1F DUP3 ADD PUSH1 0x1F NOT AND DUP2 ADD PUSH8 0xFFFFFFFFFFFFFFFF DUP2 GT DUP3 DUP3 LT OR ISZERO PUSH2 0x28A4 JUMPI PUSH2 0x28A4 PUSH2 0x2865 JUMP JUMPDEST PUSH1 0x40 MSTORE SWAP2 SWAP1 POP JUMP JUMPDEST PUSH1 0x0 PUSH8 0xFFFFFFFFFFFFFFFF DUP3 GT ISZERO PUSH2 0x28C6 JUMPI PUSH2 0x28C6 PUSH2 0x2865 JUMP JUMPDEST POP PUSH1 0x5 SHL PUSH1 0x20 ADD SWAP1 JUMP JUMPDEST PUSH1 0x0 DUP3 PUSH1 0x1F DUP4 ADD SLT PUSH2 0x28E1 JUMPI PUSH1 0x0 DUP1 REVERT JUMPDEST DUP2 CALLDATALOAD PUSH1 0x20 PUSH2 0x28F6 PUSH2 0x28F1 DUP4 PUSH2 0x28AC JUMP JUMPDEST PUSH2 0x287B JUMP JUMPDEST DUP3 DUP2 MSTORE PUSH1 0x5 SWAP3 SWAP1 SWAP3 SHL DUP5 ADD DUP2 ADD SWAP2 DUP2 DUP2 ADD SWAP1 DUP7 DUP5 GT ISZERO PUSH2 0x2915 JUMPI PUSH1 0x0 DUP1 REVERT JUMPDEST DUP3 DUP7 ADD JUMPDEST DUP5 DUP2 LT ISZERO PUSH2 0x2939 JUMPI DUP1 CALLDATALOAD PUSH2 0x292C DUP2 PUSH2 0x282C JUMP JUMPDEST DUP4 MSTORE SWAP2 DUP4 ADD SWAP2 DUP4 ADD PUSH2 0x2919 JUMP JUMPDEST POP SWAP7 SWAP6 POP POP POP POP POP POP JUMP JUMPDEST PUSH1 0x0 DUP3 PUSH1 0x1F DUP4 ADD SLT PUSH2 0x2955 JUMPI PUSH1 0x0 DUP1 REVERT JUMPDEST DUP2 CALLDATALOAD PUSH1 0x20 PUSH2 0x2965 PUSH2 0x28F1 DUP4 PUSH2 0x28AC JUMP JUMPDEST DUP3 DUP2 MSTORE PUSH1 0x5 SWAP3 SWAP1 SWAP3 SHL DUP5 ADD DUP2 ADD SWAP2 DUP2 DUP2 ADD SWAP1 DUP7 DUP5 GT ISZERO PUSH2 0x2984 JUMPI PUSH1 0x0 DUP1 REVERT JUMPDEST DUP3 DUP7 ADD JUMPDEST DUP5 DUP2 LT ISZERO PUSH2 0x2939 JUMPI DUP1 CALLDATALOAD PUSH8 0xFFFFFFFFFFFFFFFF DUP2 GT ISZERO PUSH2 0x29A8 JUMPI PUSH1 0x0 DUP1 DUP2 REVERT JUMPDEST PUSH2 0x29B6 DUP10 DUP7 DUP4 DUP12 ADD ADD PUSH2 0x28D0 JUMP JUMPDEST DUP5 MSTORE POP SWAP2 DUP4 ADD SWAP2 DUP4 ADD PUSH2 0x2988 JUMP JUMPDEST PUSH1 0x0 DUP1 PUSH1 0x40 DUP4 DUP6 SUB SLT ISZERO PUSH2 0x29D7 JUMPI PUSH1 0x0 DUP1 REVERT JUMPDEST DUP3 CALLDATALOAD PUSH8 0xFFFFFFFFFFFFFFFF DUP1 DUP3 GT ISZERO PUSH2 0x29EF JUMPI PUSH1 0x0 DUP1 REVERT JUMPDEST PUSH2 0x29FB DUP7 DUP4 DUP8 ADD PUSH2 0x28D0 JUMP JUMPDEST SWAP4 POP PUSH1 0x20 DUP6 ADD CALLDATALOAD SWAP2 POP DUP1 DUP3 GT ISZERO PUSH2 0x2A11 JUMPI PUSH1 0x0 DUP1 REVERT JUMPDEST POP PUSH2 0x2A1E DUP6 DUP3 DUP7 ADD PUSH2 0x2944 JUMP JUMPDEST SWAP2 POP POP SWAP3 POP SWAP3 SWAP1 POP JUMP JUMPDEST PUSH1 0x0 PUSH1 0x20 DUP3 DUP5 SUB SLT ISZERO PUSH2 0x2A3A JUMPI PUSH1 0x0 DUP1 REVERT JUMPDEST POP CALLDATALOAD SWAP2 SWAP1 POP JUMP JUMPDEST PUSH1 0x0 DUP1 PUSH1 0x40 DUP4 DUP6 SUB SLT ISZERO PUSH2 0x2A54 JUMPI PUSH1 0x0 DUP1 REVERT JUMPDEST DUP3 CALLDATALOAD SWAP2 POP PUSH1 0x20 DUP4 ADD CALLDATALOAD PUSH2 0x2A66 DUP2 PUSH2 0x282C JUMP JUMPDEST DUP1 SWAP2 POP POP SWAP3 POP SWAP3 SWAP1 POP JUMP JUMPDEST PUSH1 0x0 DUP1 PUSH1 0x40 DUP4 DUP6 SUB SLT ISZERO PUSH2 0x2A84 JUMPI PUSH1 0x0 DUP1 REVERT JUMPDEST DUP3 CALLDATALOAD PUSH8 0xFFFFFFFFFFFFFFFF DUP2 GT ISZERO PUSH2 0x2A9B JUMPI PUSH1 0x0 DUP1 REVERT JUMPDEST PUSH2 0x2AA7 DUP6 DUP3 DUP7 ADD PUSH2 0x28D0 JUMP JUMPDEST SWAP3 POP POP PUSH1 0x20 DUP4 ADD CALLDATALOAD PUSH2 0x2A66 DUP2 PUSH2 0x282C JUMP JUMPDEST PUSH1 0x0 PUSH1 0x20 DUP3 DUP5 SUB SLT ISZERO PUSH2 0x2ACA JUMPI PUSH1 0x0 DUP1 REVERT JUMPDEST DUP2 CALLDATALOAD PUSH8 0xFFFFFFFFFFFFFFFF DUP2 GT ISZERO PUSH2 0x2AE1 JUMPI PUSH1 0x0 DUP1 REVERT JUMPDEST PUSH2 0x2AED DUP5 DUP3 DUP6 ADD PUSH2 0x28D0 JUMP JUMPDEST SWAP5 SWAP4 POP POP POP POP JUMP JUMPDEST PUSH1 0x0 DUP1 PUSH1 0x0 PUSH1 0x60 DUP5 DUP7 SUB SLT ISZERO PUSH2 0x2B0A JUMPI PUSH1 0x0 DUP1 REVERT JUMPDEST DUP4 CALLDATALOAD PUSH8 0xFFFFFFFFFFFFFFFF DUP1 DUP3 GT ISZERO PUSH2 0x2B22 JUMPI PUSH1 0x0 DUP1 REVERT JUMPDEST PUSH2 0x2B2E DUP8 DUP4 DUP9 ADD PUSH2 0x28D0 JUMP JUMPDEST SWAP5 POP PUSH1 0x20 DUP7 ADD CALLDATALOAD SWAP2 POP DUP1 DUP3 GT ISZERO PUSH2 0x2B44 JUMPI PUSH1 0x0 DUP1 REVERT JUMPDEST POP PUSH2 0x2B51 DUP7 DUP3 DUP8 ADD PUSH2 0x2944 JUMP JUMPDEST SWAP3 POP POP PUSH1 0x40 DUP5 ADD CALLDATALOAD SWAP1 POP SWAP3 POP SWAP3 POP SWAP3 JUMP JUMPDEST PUSH1 0x0 DUP1 PUSH1 0x40 DUP4 DUP6 SUB SLT ISZERO PUSH2 0x2B75 JUMPI PUSH1 0x0 DUP1 REVERT JUMPDEST POP POP DUP1 CALLDATALOAD SWAP3 PUSH1 0x20 SWAP1 SWAP2 ADD CALLDATALOAD SWAP2 POP JUMP JUMPDEST PUSH1 0x0 DUP1 PUSH1 0x40 DUP4 DUP6 SUB SLT ISZERO PUSH2 0x2B97 JUMPI PUSH1 0x0 DUP1 REVERT JUMPDEST DUP3 CALLDATALOAD PUSH2 0x2BA2 DUP2 PUSH2 0x282C JUMP JUMPDEST SWAP5 PUSH1 0x20 SWAP4 SWAP1 SWAP4 ADD CALLDATALOAD SWAP4 POP POP POP JUMP JUMPDEST PUSH1 0x0 DUP1 PUSH1 0x0 PUSH1 0x60 DUP5 DUP7 SUB SLT ISZERO PUSH2 0x2BC5 JUMPI PUSH1 0x0 DUP1 REVERT JUMPDEST DUP4 CALLDATALOAD SWAP3 POP PUSH1 0x20 DUP5 ADD CALLDATALOAD PUSH2 0x2BD7 DUP2 PUSH2 0x282C JUMP JUMPDEST SWAP3 SWAP6 SWAP3 SWAP5 POP POP POP PUSH1 0x40 SWAP2 SWAP1 SWAP2 ADD CALLDATALOAD SWAP1 JUMP JUMPDEST PUSH1 0x0 DUP1 DUP4 PUSH1 0x1F DUP5 ADD SLT PUSH2 0x2BFA JUMPI PUSH1 0x0 DUP1 REVERT JUMPDEST POP DUP2 CALLDATALOAD PUSH8 0xFFFFFFFFFFFFFFFF DUP2 GT ISZERO PUSH2 0x2C12 JUMPI PUSH1 0x0 DUP1 REVERT JUMPDEST PUSH1 0x20 DUP4 ADD SWAP2 POP DUP4 PUSH1 0x20 DUP3 PUSH1 0x5 SHL DUP6 ADD ADD GT ISZERO PUSH2 0x2C2D JUMPI PUSH1 0x0 DUP1 REVERT JUMPDEST SWAP3 POP SWAP3 SWAP1 POP JUMP JUMPDEST PUSH1 0x0 DUP1 PUSH1 0x0 DUP1 PUSH1 0x0 PUSH1 0x60 DUP7 DUP9 SUB SLT ISZERO PUSH2 0x2C4C JUMPI PUSH1 0x0 DUP1 REVERT JUMPDEST DUP6 CALLDATALOAD SWAP5 POP PUSH1 0x20 DUP7 ADD CALLDATALOAD PUSH8 0xFFFFFFFFFFFFFFFF DUP1 DUP3 GT ISZERO PUSH2 0x2C6B JUMPI PUSH1 0x0 DUP1 REVERT JUMPDEST PUSH2 0x2C77 DUP10 DUP4 DUP11 ADD PUSH2 0x2BE8 JUMP JUMPDEST SWAP1 SWAP7 POP SWAP5 POP PUSH1 0x40 DUP9 ADD CALLDATALOAD SWAP2 POP DUP1 DUP3 GT ISZERO PUSH2 0x2C90 JUMPI PUSH1 0x0 DUP1 REVERT JUMPDEST POP PUSH2 0x2C9D DUP9 DUP3 DUP10 ADD PUSH2 0x2BE8 JUMP JUMPDEST SWAP7 SWAP10 SWAP6 SWAP9 POP SWAP4 SWAP7 POP SWAP3 SWAP5 SWAP4 SWAP3 POP POP POP JUMP JUMPDEST PUSH4 0x4E487B71 PUSH1 0xE0 SHL PUSH1 0x0 MSTORE PUSH1 0x32 PUSH1 0x4 MSTORE PUSH1 0x24 PUSH1 0x0 REVERT JUMPDEST PUSH1 0x0 DUP2 MLOAD DUP1 DUP5 MSTORE PUSH1 0x20 DUP1 DUP6 ADD SWAP5 POP DUP1 DUP5 ADD PUSH1 0x0 JUMPDEST DUP4 DUP2 LT ISZERO PUSH2 0x2CFD JUMPI DUP2 MLOAD PUSH1 0x1 PUSH1 0x1 PUSH1 0xA0 SHL SUB AND DUP8 MSTORE SWAP6 DUP3 ADD SWAP6 SWAP1 DUP3 ADD SWAP1 PUSH1 0x1 ADD PUSH2 0x2CD8 JUMP JUMPDEST POP SWAP5 SWAP6 SWAP5 POP POP POP POP POP JUMP JUMPDEST PUSH1 0x1 PUSH1 0x1 PUSH1 0xA0 SHL SUB DUP4 AND DUP2 MSTORE PUSH1 0x40 PUSH1 0x20 DUP3 ADD DUP2 SWAP1 MSTORE PUSH1 0x0 SWAP1 PUSH2 0x2AED SWAP1 DUP4 ADD DUP5 PUSH2 0x2CC4 JUMP JUMPDEST PUSH4 0x4E487B71 PUSH1 0xE0 SHL PUSH1 0x0 MSTORE PUSH1 0x11 PUSH1 0x4 MSTORE PUSH1 0x24 PUSH1 0x0 REVERT JUMPDEST PUSH1 0x0 PUSH1 0x0 NOT DUP3 EQ ISZERO PUSH2 0x2D56 JUMPI PUSH2 0x2D56 PUSH2 0x2D2C JUMP JUMPDEST POP PUSH1 0x1 ADD SWAP1 JUMP JUMPDEST PUSH1 0x0 PUSH1 0x20 DUP3 DUP5 SUB SLT ISZERO PUSH2 0x2D6F JUMPI PUSH1 0x0 DUP1 REVERT JUMPDEST DUP2 MLOAD DUP1 ISZERO ISZERO DUP2 EQ PUSH2 0x285E JUMPI PUSH1 0x0 DUP1 REVERT JUMPDEST PUSH1 0x0 DUP2 PUSH1 0x0 NOT DIV DUP4 GT DUP3 ISZERO ISZERO AND ISZERO PUSH2 0x2D99 JUMPI PUSH2 0x2D99 PUSH2 0x2D2C JUMP JUMPDEST POP MUL SWAP1 JUMP JUMPDEST PUSH4 0x4E487B71 PUSH1 0xE0 SHL PUSH1 0x0 MSTORE PUSH1 0x12 PUSH1 0x4 MSTORE PUSH1 0x24 PUSH1 0x0 REVERT JUMPDEST PUSH1 0x0 DUP3 PUSH2 0x2DC3 JUMPI PUSH2 0x2DC3 PUSH2 0x2D9E JUMP JUMPDEST POP DIV SWAP1 JUMP JUMPDEST PUSH1 0x0 DUP3 NOT DUP3 GT ISZERO PUSH2 0x2DDB JUMPI PUSH2 0x2DDB PUSH2 0x2D2C JUMP JUMPDEST POP ADD SWAP1 JUMP JUMPDEST PUSH1 0x0 PUSH1 0x20 DUP3 DUP5 SUB SLT ISZERO PUSH2 0x2DF2 JUMPI PUSH1 0x0 DUP1 REVERT JUMPDEST POP MLOAD SWAP2 SWAP1 POP JUMP JUMPDEST DUP3 DUP2 MSTORE PUSH1 0x40 PUSH1 0x20 DUP3 ADD MSTORE PUSH1 0x0 PUSH2 0x2AED PUSH1 0x40 DUP4 ADD DUP5 PUSH2 0x2CC4 JUMP JUMPDEST PUSH1 0x0 PUSH1 0x20 DUP3 DUP5 SUB SLT ISZERO PUSH2 0x2E24 JUMPI PUSH1 0x0 DUP1 REVERT JUMPDEST DUP2 MLOAD PUSH2 0x285E DUP2 PUSH2 0x282C JUMP JUMPDEST PUSH1 0x0 DUP1 PUSH1 0x40 DUP4 DUP6 SUB SLT ISZERO PUSH2 0x2E42 JUMPI PUSH1 0x0 DUP1 REVERT JUMPDEST DUP3 MLOAD PUSH2 0x2E4D DUP2 PUSH2 0x282C JUMP JUMPDEST PUSH1 0x20 DUP5 ADD MLOAD SWAP1 SWAP3 POP PUSH2 0x2A66 DUP2 PUSH2 0x282C JUMP JUMPDEST PUSH1 0x0 DUP3 DUP3 LT ISZERO PUSH2 0x2E70 JUMPI PUSH2 0x2E70 PUSH2 0x2D2C JUMP JUMPDEST POP SUB SWAP1 JUMP JUMPDEST PUSH1 0x0 DUP1 PUSH1 0x40 DUP4 DUP6 SUB SLT ISZERO PUSH2 0x2E88 JUMPI PUSH1 0x0 DUP1 REVERT JUMPDEST POP POP DUP1 MLOAD PUSH1 0x20 SWAP1 SWAP2 ADD MLOAD SWAP1 SWAP3 SWAP1 SWAP2 POP JUMP JUMPDEST PUSH1 0x0 DUP1 DUP4 SLT DUP1 ISZERO PUSH1 0x1 PUSH1 0xFF SHL DUP6 ADD DUP5 SLT AND ISZERO PUSH2 0x2EB7 JUMPI PUSH2 0x2EB7 PUSH2 0x2D2C JUMP JUMPDEST PUSH1 0x1 PUSH1 0x1 PUSH1 0xFF SHL SUB DUP5 ADD DUP4 SGT DUP2 AND ISZERO PUSH2 0x2ED2 JUMPI PUSH2 0x2ED2 PUSH2 0x2D2C JUMP JUMPDEST POP POP SUB SWAP1 JUMP JUMPDEST PUSH1 0x0 DUP1 DUP3 SLT DUP1 ISZERO PUSH1 0x1 PUSH1 0x1 PUSH1 0xFF SHL SUB DUP5 SWAP1 SUB DUP6 SGT AND ISZERO PUSH2 0x2EFA JUMPI PUSH2 0x2EFA PUSH2 0x2D2C JUMP JUMPDEST PUSH1 0x1 PUSH1 0xFF SHL DUP4 SWAP1 SUB DUP5 SLT DUP2 AND ISZERO PUSH2 0x2F13 JUMPI PUSH2 0x2F13 PUSH2 0x2D2C JUMP JUMPDEST POP POP ADD SWAP1 JUMP JUMPDEST PUSH1 0x0 PUSH1 0x1 PUSH1 0xFF SHL DUP3 EQ ISZERO PUSH2 0x2F2F JUMPI PUSH2 0x2F2F PUSH2 0x2D2C JUMP JUMPDEST POP PUSH1 0x0 SUB SWAP1 JUMP JUMPDEST PUSH1 0x0 PUSH1 0x1 PUSH1 0x1 PUSH1 0xFF SHL SUB DUP2 DUP5 SGT DUP3 DUP5 SGT DUP1 DUP3 AND DUP7 DUP5 DIV DUP7 GT AND ISZERO PUSH2 0x2F5C JUMPI PUSH2 0x2F5C PUSH2 0x2D2C JUMP JUMPDEST PUSH1 0x1 PUSH1 0xFF SHL PUSH1 0x0 DUP8 SLT DUP3 DUP2 AND DUP8 DUP4 SDIV DUP10 SLT AND ISZERO PUSH2 0x2F7B JUMPI PUSH2 0x2F7B PUSH2 0x2D2C JUMP JUMPDEST PUSH1 0x0 DUP8 SLT SWAP3 POP DUP8 DUP3 SDIV DUP8 SLT DUP5 DUP5 AND AND ISZERO PUSH2 0x2F97 JUMPI PUSH2 0x2F97 PUSH2 0x2D2C JUMP JUMPDEST DUP8 DUP6 SDIV DUP8 SLT DUP2 DUP5 AND AND ISZERO PUSH2 0x2FAD JUMPI PUSH2 0x2FAD PUSH2 0x2D2C JUMP JUMPDEST POP POP POP SWAP3 SWAP1 SWAP4 MUL SWAP4 SWAP3 POP POP POP JUMP JUMPDEST PUSH1 0x0 DUP3 PUSH2 0x2FCA JUMPI PUSH2 0x2FCA PUSH2 0x2D9E JUMP JUMPDEST PUSH1 0x1 PUSH1 0xFF SHL DUP3 EQ PUSH1 0x0 NOT DUP5 EQ AND ISZERO PUSH2 0x2FE4 JUMPI PUSH2 0x2FE4 PUSH2 0x2D2C JUMP JUMPDEST POP SDIV SWAP1 JUMP JUMPDEST PUSH1 0x0 DUP3 MLOAD PUSH1 0x0 JUMPDEST DUP2 DUP2 LT ISZERO PUSH2 0x300A JUMPI PUSH1 0x20 DUP2 DUP7 ADD DUP2 ADD MLOAD DUP6 DUP4 ADD MSTORE ADD PUSH2 0x2FF0 JUMP JUMPDEST DUP2 DUP2 GT ISZERO PUSH2 0x3019 JUMPI PUSH1 0x0 DUP3 DUP6 ADD MSTORE JUMPDEST POP SWAP2 SWAP1 SWAP2 ADD SWAP3 SWAP2 POP POP JUMP INVALID LOG2 PUSH5 0x6970667358 0x22 SLT KECCAK256 PUSH5 0xBBE5E565FF SIGNEXTEND CALLDATACOPY MSIZE 0xD9 0xB4 PUSH13 0xCBE8606AACFEC46CF1671DBFDF 0x27 0xCC PUSH6 0x8AFF43C46473 PUSH16 0x6C634300080B00330000000000000000 "
        },
        "methodIdentifiers": {
          "_ve()": "8dd598fb",
          "attachTokenToGauge(uint256,address)": "698473e3",
          "bribefactory()": "38752a9d",
          "bribes(address)": "a8c5d95a",
          "claimBribes(address[],address[][],uint256)": "7715ee75",
          "claimFees(address[],address[][],uint256)": "666256aa",
          "claimRewards(address[],address[][])": "20b1cb6f",
          "claimable(address)": "402914f5",
          "createGauge(address)": "a5f4301e",
          "detachTokenFromGauge(uint256,address)": "411b1f77",
          "distribute()": "e4fc6b6d",
          "distribute(address)": "63453ae1",
          "distribute(address[])": "6138889b",
          "distribute(uint256,uint256)": "7625391a",
          "distributeFees(address[])": "c527ee1f",
          "distro()": "47b3c6ba",
          "emitDeposit(uint256,address,uint256)": "a61c713a",
          "emitWithdraw(uint256,address,uint256)": "ea94ee44",
          "factory()": "c45a0155",
          "gaugeWhiteList()": "5f66d297",
          "gaugefactory()": "68c3acb3",
          "gauges(address)": "b9a09fd5",
          "initialize(address[],address)": "462d0b2e",
          "isGauge(address)": "aa79979b",
          "isWhitelisted(address)": "3af32abf",
          "length()": "1f7b6d32",
          "listing_fee()": "b980777a",
          "minter()": "07546172",
          "notifyRewardAmount(uint256)": "3c6b16ab",
          "poke(uint256)": "32145f90",
          "poolForGauge(address)": "06d6a1b2",
          "poolVote(uint256,uint256)": "a86a366d",
          "pools(uint256)": "ac4afa38",
          "reset(uint256)": "310bd74b",
          "totalWeight()": "96c82e57",
          "updateAll()": "53d78693",
          "updateFor(address[])": "d560b0d7",
          "updateForRange(uint256,uint256)": "9b6a9d72",
          "updateGauge(address)": "6ecbe38a",
          "updateMinter(address)": "4eb03f6e",
          "usedWeights(uint256)": "79e93824",
          "vote(uint256,address[],int256[])": "fecdad60",
          "votes(uint256,address)": "d23254b4",
          "weights(address)": "a7cac846",
          "whitelist(address,uint256)": "98fc55d8"
        }
      }
    }
  }
}