{
  "contracts/BaseV1-gauges.sol": {
    "BaseV1GaugeFactory": {
      "abi": [
        {
          "inputs": [
            {
              "internalType": "address",
              "name": "_pool",
              "type": "address"
            },
            {
              "internalType": "address",
              "name": "_bribe",
              "type": "address"
            },
            {
              "internalType": "address",
              "name": "_ve",
              "type": "address"
            }
          ],
          "name": "createGauge",
          "outputs": [
            {
              "internalType": "address",
              "name": "",
              "type": "address"
            }
          ],
          "stateMutability": "nonpayable",
          "type": "function"
        },
        {
          "inputs": [
            {
              "internalType": "address",
              "name": "_pool",
              "type": "address"
            },
            {
              "internalType": "address",
              "name": "_bribe",
              "type": "address"
            },
            {
              "internalType": "address",
              "name": "_ve",
              "type": "address"
            },
            {
              "internalType": "address",
              "name": "_voter",
              "type": "address"
            }
          ],
          "name": "createGaugeSingle",
          "outputs": [
            {
              "internalType": "address",
              "name": "",
              "type": "address"
            }
          ],
          "stateMutability": "nonpayable",
          "type": "function"
        },
        {
          "inputs": [],
          "name": "last_gauge",
          "outputs": [
            {
              "internalType": "address",
              "name": "",
              "type": "address"
            }
          ],
          "stateMutability": "view",
          "type": "function"
        }
      ],
      "evm": {
        "bytecode": {
          "linkReferences": {},
          "object": "608060405234801561001057600080fd5b50613602806100206000396000f3fe608060405234801561001057600080fd5b50600436106100415760003560e01c80631c48e0fa14610046578063730a8bdb14610075578063af4db2ec14610088575b600080fd5b6100596100543660046101c1565b61009b565b6040516001600160a01b03909116815260200160405180910390f35b600054610059906001600160a01b031681565b610059610096366004610204565b610119565b6000838383336040516100ad90610198565b6001600160a01b039485168152928416602084015290831660408301529091166060820152608001604051809103906000f0801580156100f1573d6000803e3d6000fd5b50600080546001600160a01b0319166001600160a01b03929092169182179055949350505050565b60008484848460405161012b90610198565b6001600160a01b039485168152928416602084015290831660408301529091166060820152608001604051809103906000f08015801561016f573d6000803e3d6000fd5b50600080546001600160a01b0319166001600160a01b0392909216918217905595945050505050565b6133748061025983390190565b80356001600160a01b03811681146101bc57600080fd5b919050565b6000806000606084860312156101d657600080fd5b6101df846101a5565b92506101ed602085016101a5565b91506101fb604085016101a5565b90509250925092565b6000806000806080858703121561021a57600080fd5b610223856101a5565b9350610231602086016101a5565b925061023f604086016101a5565b915061024d606086016101a5565b90509295919450925056fe61010060405260016015553480156200001757600080fd5b5060405162003374380380620033748339810160408190526200003a916200007a565b6001600160a01b0393841660805291831660c052821660a0521660e052620000d7565b80516001600160a01b03811681146200007557600080fd5b919050565b600080600080608085870312156200009157600080fd5b6200009c856200005d565b9350620000ac602086016200005d565b9250620000bc604086016200005d565b9150620000cc606086016200005d565b905092959194509250565b60805160a05160c05160e0516131c9620001ab6000396000818161042701528181610b5a01528181610b9f0152818161196901528181611a8b01528181611f11015261202601526000818161039601528181612934015281816129cb01528181612a1601528181612a9c01528181612b310152612b7c01526000818161052b015281816115e7015281816116800152818161172e015261189f0152600081816103d501528181611156015281816114fc0152818161181701528181611e92015281816127cc015261288e01526131c96000f3fe608060405234801561001057600080fd5b50600436106102695760003560e01c8063853828b611610151578063d7da4bb0116100c3578063f122977711610087578063f122977714610662578063f301af4214610675578063f7412baf14610688578063fc97a303146106af578063fd314098146106cf578063fdb483c7146106e257600080fd5b8063d7da4bb014610615578063da09d19d1461061e578063e2bbb1581461063e578063e688639614610651578063e8111a121461065957600080fd5b8063a495e5b511610115578063a495e5b514610589578063aa479652146105b4578063b66503cf146105d4578063c6f678bd146105e7578063d294f093146105fa578063d35e25441461060257600080fd5b8063853828b61461051e5780638dd598fb1461052657806393f1c4421461054d57806399bcc052146105565780639ce43f901461056957600080fd5b80633a4b66f1116101ea5780635a45d052116101ae5780635a45d05214610485578063638634ee1461049857806363fb415b146104ab5780636fcfff45146104cb57806370a08231146104eb57806376f4be361461050b57600080fd5b80633a4b66f1146103d05780633ca068b6146103f757806346c96aac146104225780634c02a21c146104495780634d5ce0381461045257600080fd5b8063221ca18c11610231578063221ca18c146103295780632ce9aead146103495780632e1a7d4d1461036957806331279d3d1461037e57806337d0208c1461039157600080fd5b806301316ddf1461026e5780630cdfebfa146102ba578063115c6f39146102ec57806318160ddd1461030d578063211dc32d14610316575b600080fd5b6102a061027c366004612e49565b60116020908152600092835260408084209091529082529020805460019091015482565b604080519283526020830191909152015b60405180910390f35b6102a06102c8366004612e49565b600d6020908152600092835260408084209091529082529020805460019091015482565b6102ff6102fa366004612e49565b6106f5565b6040519081526020016102b1565b6102ff60095481565b6102ff610324366004612e75565b610862565b6102ff610337366004612eae565b60026020526000908152604090205481565b6102ff610357366004612eae565b60046020526000908152604090205481565b61037c610377366004612ecb565b610af2565b005b61037c61038c366004612efa565b610b29565b6103b87f000000000000000000000000000000000000000000000000000000000000000081565b6040516001600160a01b0390911681526020016102b1565b6103b87f000000000000000000000000000000000000000000000000000000000000000081565b6102ff610405366004612e75565b600760209081526000928352604080842090915290825290205481565b6103b87f000000000000000000000000000000000000000000000000000000000000000081565b6102ff60145481565b610475610460366004612eae565b600c6020526000908152604090205460ff1681565b60405190151581526020016102b1565b61037c610493366004612e49565b610f23565b6102ff6104a6366004612eae565b610f5b565b6102ff6104b9366004612eae565b60016020526000908152604090205481565b6102ff6104d9366004612eae565b600e6020526000908152604090205481565b6102ff6104f9366004612eae565b600a6020526000908152604090205481565b6102ff610519366004612ecb565b610f7f565b61037c6110b1565b6103b87f000000000000000000000000000000000000000000000000000000000000000081565b6102ff60135481565b6102ff610564366004612eae565b6110cc565b6102ff610577366004612eae565b60056020526000908152604090205481565b6102ff610597366004612e75565b600660209081526000928352604080842090915290825290205481565b6102ff6105c2366004612eae565b60126020526000908152604090205481565b61037c6105e2366004612e49565b61113d565b61037c6105f5366004612ecb565b6114e3565b6102a0611578565b6102ff610610366004612eae565b6115a4565b6102ff60005481565b6102ff61062c366004612eae565b60036020526000908152604090205481565b61037c61064c366004612fd4565b6117f4565b600b546102ff565b6102ff60105481565b6102ff610670366004612eae565b611b35565b6103b8610683366004612ecb565b611bf1565b6102a0610696366004612ecb565b600f602052600090815260409020805460019091015482565b6102ff6106bd366004612eae565b60086020526000908152604090205481565b6102a06106dd366004612e49565b611c1b565b61037c6106f0366004612fd4565b611e3a565b6001600160a01b0382166000908152600e60205260408120548061071d57600091505061085c565b6001600160a01b0384166000908152600d60205260408120849161074260018561300c565b8152602001908152602001600020600001541161076c5761076460018261300c565b91505061085c565b6001600160a01b0384166000908152600d602090815260408083208380529091529020548310156107a157600091505061085c565b6000806107af60018461300c565b90505b8181111561085757600060026107c8848461300c565b6107d29190613023565b6107dc908361300c565b6001600160a01b0388166000908152600d602090815260408083208484528252918290208251808401909352805480845260019091015491830191909152919250908714156108315750935061085c92505050565b805187111561084257819350610850565b61084d60018361300c565b92505b50506107b2565b509150505b92915050565b6001600160a01b0380831660008181526006602090815260408083209486168352938152838220549282526011815283822082805290529182205482916108a8916120c2565b6001600160a01b0384166000908152600e60205260409020549091506108d257600091505061085c565b60006108de84836106f5565b6001600160a01b0385166000908152600e6020526040812054919250906109079060019061300c565b905060006001610917848461300c565b1115610a2657825b61092a60018461300c565b811015610a24576001600160a01b0387166000818152600d602081815260408084208685528083528185208251808401909352805483526001908101548385015295855292909152928290610980908690613045565b815260200190815260200160002060405180604001604052908160008201548152602001600182015481525050905060006109bf8b8460000151611c1b565b50905060006109d28c8460000151611c1b565b509050670de0b6b3a76400006109e8838361300c565b85602001516109f7919061305d565b610a019190613023565b610a0b9087613045565b9550505050508080610a1c9061307c565b91505061091f565b505b6001600160a01b0386166000908152600d60209081526040808320858452825280832081518083019092528054808352600190910154928201929092529190610a70908a90611c1b565b506001600160a01b03808b166000908152600760209081526040808320938d1683529290522054909150670de0b6b3a764000090610aaf9083906120c2565b610ab88b611b35565b610ac2919061300c565b8360200151610ad1919061305d565b610adb9190613023565b610ae59084613045565b9998505050505050505050565b336000908152600a6020526040812054821415610b1b5750336000908152600860205260409020545b610b258282611e3a565b5050565b601554600114610b3857600080fd5b6002601555336001600160a01b0383161480610b7c5750336001600160a01b037f000000000000000000000000000000000000000000000000000000000000000016145b610b8557600080fd5b60016015556040516363453ae160e01b81523060048201527f00000000000000000000000000000000000000000000000000000000000000006001600160a01b0316906363453ae190602401600060405180830381600087803b158015610beb57600080fd5b505af1158015610bff573d6000803e3d6000fd5b5050600260155550600090505b8151811015610e7d57610c37828281518110610c2a57610c2a613097565b60200260200101516120d9565b60056000858581518110610c4d57610c4d613097565b60200260200101516001600160a01b03166001600160a01b03168152602001908152602001600020600060046000878781518110610c8d57610c8d613097565b60200260200101516001600160a01b03166001600160a01b0316815260200190815260200160002060008491905055839190505550506000610ce8838381518110610cda57610cda613097565b602002602001015185610862565b90504260066000858581518110610d0157610d01613097565b60200260200101516001600160a01b03166001600160a01b031681526020019081526020016000206000866001600160a01b03166001600160a01b031681526020019081526020016000208190555060056000848481518110610d6657610d66613097565b60200260200101516001600160a01b03166001600160a01b031681526020019081526020016000205460076000858581518110610da557610da5613097565b6020908102919091018101516001600160a01b039081168352828201939093526040918201600090812093891681529290529020558015610e0457610e04838381518110610df557610df5613097565b602002602001015185836122bc565b828281518110610e1657610e16613097565b60200260200101516001600160a01b0316336001600160a01b03167f9aa05b3d70a9e3e2f004f039648839560576334fb45c81f91b6db03ad9e2efc983604051610e6291815260200190565b60405180910390a35080610e758161307c565b915050610c0c565b506001600160a01b0382166000908152600160205260408120548154909182918190610eaa90849061300c565b90915550610eb99050836115a4565b6001600160a01b0384166000908152600160205260408120829055805491925082918190610ee8908490613045565b90915550506001600160a01b038316600090815260016020526040902054610f119084906123bc565b610f196124c7565b5050600160155550565b610f2d828261256a565b6001600160a01b03909316600090815260056020908152604080832060049092529091209390935590915550565b6001600160a01b03811660009081526003602052604081205461085c9042906126c9565b60105460009080610f935750600092915050565b82600f6000610fa360018561300c565b81526020019081526020016000206000015411610fcc57610fc560018261300c565b9392505050565b60008052600f6020527ff4803e074bd026baaf6ed2e288c9515f68c72fb7216eebdd7cae1718a53ec375548310156110075750600092915050565b60008061101560018461300c565b90505b818111156110a9576000600261102e848461300c565b6110389190613023565b611042908361300c565b6000818152600f6020908152604091829020825180840190935280548084526001909101549183019190915291925090871415611083575095945050505050565b8051871115611094578193506110a2565b61109f60018361300c565b92505b5050611018565b509392505050565b336000908152600a60205260409020546110ca90610af2565b565b6001600160a01b03811660009081526003602052604081205442106110f357506000919050565b6001600160a01b03821660009081526003602052604081205461111790429061300c565b6001600160a01b038416600090815260026020526040902054909150610fc5908261305d565b60155460011461114c57600080fd5b60026015819055507f00000000000000000000000000000000000000000000000000000000000000006001600160a01b0316826001600160a01b0316141561119357600080fd5b600081116111a057600080fd5b6001600160a01b0382166000908152600260205260409020546111c9576111c9826000426126d8565b6111d2826120d9565b6001600160a01b0384166000908152600560209081526040808320600490925290912091909155556112026127c7565b50506001600160a01b038216600090815260036020526040902054421061125a5761122f82333084612c27565b61123c62093a8082613023565b6001600160a01b0383166000908152600260205260409020556112f3565b6001600160a01b03821660009081526003602052604081205461127e90429061300c565b6001600160a01b038416600090815260026020526040812054919250906112a5908361305d565b90508083116112b357600080fd5b6112bf84333086612c27565b62093a806112cd8285613045565b6112d79190613023565b6001600160a01b03851660009081526002602052604090205550505b6001600160a01b03821660009081526002602052604090205461131557600080fd5b6040516370a0823160e01b81523060048201526000906001600160a01b038416906370a0823190602401602060405180830381865afa15801561135c573d6000803e3d6000fd5b505050506040513d601f19601f8201168201806040525081019061138091906130ad565b905061138f62093a8082613023565b6001600160a01b03841660009081526002602052604090205411156113fa5760405162461bcd60e51b815260206004820152601860248201527f50726f76696465642072657761726420746f6f20686967680000000000000000604482015260640160405180910390fd5b61140762093a8042613045565b6001600160a01b038416600090815260036020908152604080832093909355600c9052205460ff16611499576001600160a01b0383166000818152600c60205260408120805460ff19166001908117909155600b805491820181559091527f0175b7a638427703f0dbe7bb9bbf987a2551717b34e79f33b5b1008d1fa01db90180546001600160a01b03191690911790555b6040518281526001600160a01b0384169033907ff70d5c697de7ea828df48e5c4573cb2194c659f1901f70110c52b066dcf508269060200160405180910390a35050600160155550565b6040516370a0823160e01b8152336004820152611575907f00000000000000000000000000000000000000000000000000000000000000006001600160a01b0316906370a0823190602401602060405180830381865afa15801561154b573d6000803e3d6000fd5b505050506040513d601f19601f8201168201806040525081019061156f91906130ad565b826117f4565b50565b60008060155460011461158a57600080fd5b60026015556115976127c7565b9150915060016015559091565b6001600160a01b038116600090815260086020908152604080832054600a9092528220548260646115d683602861305d565b6115e09190613023565b90506000807f00000000000000000000000000000000000000000000000000000000000000006001600160a01b03166318160ddd6040518163ffffffff1660e01b8152600401602060405180830381865afa158015611643573d6000803e3d6000fd5b505050506040513d601f19601f8201168201806040525081019061166791906130ad565b6040516331a9108f60e11b8152600481018790529091507f00000000000000000000000000000000000000000000000000000000000000006001600160a01b031690636352211e90602401602060405180830381865afa1580156116cf573d6000803e3d6000fd5b505050506040513d601f19601f820116820180604052508101906116f391906130c6565b6001600160a01b0316876001600160a01b03161480156117135750600081115b156117d6576040516339f890b560e21b8152600481018690527f00000000000000000000000000000000000000000000000000000000000000006001600160a01b03169063e7e242d490602401602060405180830381865afa15801561177d573d6000803e3d6000fd5b505050506040513d601f19601f820116820180604052508101906117a191906130ad565b9150606481836009546117b4919061305d565b6117be9190613023565b6117c990603c61305d565b6117d39190613023565b91505b6117e96117e38385613045565b856126c9565b979650505050505050565b60155460011461180357600080fd5b60026015558161181257600080fd5b61183e7f0000000000000000000000000000000000000000000000000000000000000000333085612c27565b81600960008282546118509190613045565b9091555050336000908152600a602052604081208054849290611874908490613045565b909155505080156119e6576040516331a9108f60e11b81526004810182905233906001600160a01b037f00000000000000000000000000000000000000000000000000000000000000001690636352211e90602401602060405180830381865afa1580156118e6573d6000803e3d6000fd5b505050506040513d601f19601f8201168201806040525081019061190a91906130c6565b6001600160a01b03161461191d57600080fd5b336000908152600860205260409020546119c65733600081815260086020526040908190208390555163698473e360e01b81526004810183905260248101919091526001600160a01b037f0000000000000000000000000000000000000000000000000000000000000000169063698473e390604401600060405180830381600087803b1580156119ad57600080fd5b505af11580156119c1573d6000803e3d6000fd5b505050505b3360009081526008602052604090205481146119e157600080fd5b6119f8565b50336000908152600860205260409020545b336000908152600160205260408120548154909182918190611a1b90849061300c565b90915550611a2a9050336115a4565b336000908152600160205260408120829055805491925082918190611a50908490613045565b90915550611a60905033826123bc565b611a686124c7565b60405163530e389d60e11b815260048101839052336024820152604481018490527f00000000000000000000000000000000000000000000000000000000000000006001600160a01b03169063a61c713a90606401600060405180830381600087803b158015611ad757600080fd5b505af1158015611aeb573d6000803e3d6000fd5b505060408051858152602081018790523393507f90890809c654f11d6e72a28fa60149770a0d11ec6c92319d6ceb2bb0a4ea1a159250015b60405180910390a25050600160155550565b60008054611b5957506001600160a01b031660009081526005602052604090205490565b600080546001600160a01b038416825260026020908152604080842054600483528185205460039093529320549192670de0b6b3a7640000929091611b9d916126c9565b611ba686610f5b565b611bb0919061300c565b611bba919061305d565b611bc4919061305d565b611bce9190613023565b6001600160a01b03831660009081526005602052604090205461085c9190613045565b600b8181548110611c0157600080fd5b6000918252602090912001546001600160a01b0316905081565b6001600160a01b038216600090815260126020526040812054819080611c48576000809250925050611e33565b6001600160a01b03851660009081526011602052604081208591611c6d60018561300c565b81526020019081526020016000206000015411611d0a576001600160a01b038516600090815260116020526040812090611ca860018461300c565b81526020019081526020016000206001015460116000876001600160a01b03166001600160a01b031681526020019081526020016000206000600184611cee919061300c565b8152602001908152602001600020600001549250925050611e33565b6001600160a01b0385166000908152601160209081526040808320838052909152902054841015611d42576000809250925050611e33565b600080611d5060018461300c565b90505b81811115611e025760006002611d69848461300c565b611d739190613023565b611d7d908361300c565b6001600160a01b0389166000908152601160209081526040808320848452825291829020825180840190935280548084526001909101549183019190915291925090881415611ddc57602081015190519096509450611e339350505050565b8051881115611ded57819350611dfb565b611df860018361300c565b92505b5050611d53565b506001600160a01b038616600090815260116020908152604080832093835292905220600181015490549093509150505b9250929050565b601554600114611e4957600080fd5b60026015819055508160096000828254611e63919061300c565b9091555050336000908152600a602052604081208054849290611e8790849061300c565b90915550611eb890507f000000000000000000000000000000000000000000000000000000000000000033846122bc565b8015611f7257336000908152600860205260409020548114611ed957600080fd5b33600081815260086020526040808220919091555163411b1f7760e01b81526004810183905260248101919091526001600160a01b037f0000000000000000000000000000000000000000000000000000000000000000169063411b1f7790604401600060405180830381600087803b158015611f5557600080fd5b505af1158015611f69573d6000803e3d6000fd5b50505050611f84565b50336000908152600860205260409020545b336000908152600160205260408120548154909182918190611fa790849061300c565b90915550611fb69050336115a4565b336000908152600160205260408120829055805491925082918190611fdc908490613045565b909155505033600081815260016020526040902054611ffb91906123bc565b6120036124c7565b604051633aa53b9160e21b815260048101839052336024820152604481018490527f00000000000000000000000000000000000000000000000000000000000000006001600160a01b03169063ea94ee4490606401600060405180830381600087803b15801561207257600080fd5b505af1158015612086573d6000803e3d6000fd5b505060408051858152602081018790523393507ff279e6a1f5e320cca91135676d9cb6e44ca8a08c0b88342bcdb1144f6511b568925001611b23565b6000818310156120d25781610fc5565b5090919050565b6001600160a01b0381166000908152600460209081526040808320546005909252822054601054839291906121115794909350915050565b6001600160a01b038516600090815260026020526040902054612138579442945092505050565b600061214383610f7f565b905060006001601054612156919061300c565b90506001612164838361300c565b111561223c57815b61217760018361300c565b81101561223a576000818152600f60209081526040918290208251808401909352805483526001015490820181905215612227576000600f816121bb856001613045565b81526020019081526020016000206040518060400160405290816000820154815260200160018201548152505090506000806122068c8460000151866000015187602001518d612d1f565b90925090506122158289613045565b97506122228c89836126d8565b975050505b50806122328161307c565b91505061216c565b505b6000818152600f602090815260409182902082518084019093528054835260010154908201819052156122ae57600061228f896122788b610f5b565b8451612284908a6120c2565b85602001518a612d1f565b50905061229c8186613045565b94506122a98986426126d8565b429550505b509196929550919350505050565b6000836001600160a01b03163b116122d357600080fd5b6040516001600160a01b03838116602483015260448201839052600091829186169063a9059cbb60e01b906064015b60408051601f198184030181529181526020820180516001600160e01b03166001600160e01b031990941693909317909252905161234091906130e3565b6000604051808303816000865af19150503d806000811461237d576040519150601f19603f3d011682016040523d82523d6000602084013e612382565b606091505b50915091508180156123ac5750805115806123ac5750808060200190518101906123ac919061311e565b6123b557600080fd5b5050505050565b6001600160a01b0382166000908152600e60205260409020544290801580159061241a57506001600160a01b0384166000908152600d60205260408120839161240660018561300c565b815260200190815260200160002060000154145b1561245d576001600160a01b0384166000908152600d60205260408120849161244460018561300c565b81526020810191909152604001600020600101556124c1565b60408051808201825283815260208082018681526001600160a01b0388166000908152600d83528481208682529092529290209051815590516001918201556124a7908290613045565b6001600160a01b0385166000908152600e60205260409020555b50505050565b6010544281158015906124f9575080600f60006124e560018661300c565b815260200190815260200160002060000154145b1561252a57600054600f6000600185612512919061300c565b81526020810191909152604001600020600101555050565b604080518082018252828152600080546020808401918252868352600f9052929020905181559051600191820155612563908390613045565b6010555050565b6001600160a01b0382166000908152600460209081526040808320546005909252822054601054839291906125a25792509050611e33565b6001600160a01b0386166000908152600260205260409020546125cb579250429150611e339050565b60006125d683610f7f565b905060006125f260016010546125ec919061300c565b886126c9565b9050815b818110156126ba576000818152600f602090815260409182902082518084019093528054835260010154908201819052156126a7576000600f8161263b856001613045565b81526020019081526020016000206040518060400160405290816000820154815260200160018201548152505090506000806126868d8460000151866000015187602001518d612d1f565b90925090506126958289613045565b97506126a28d89836126d8565b975050505b50806126b28161307c565b9150506125f6565b50919792965091945050505050565b60008183106120d25781610fc5565b6001600160a01b038316600090815260126020526040902054801580159061273457506001600160a01b0384166000908152601160205260408120839161272060018561300c565b815260200190815260200160002060000154145b1561275e576001600160a01b0384166000908152601160205260408120849161244460018561300c565b60408051808201825283815260208082018681526001600160a01b0388166000908152601183528481208682529092529290209051815590516001918201556127a8908290613045565b6001600160a01b03851660009081526012602052604090205550505050565b6000807f00000000000000000000000000000000000000000000000000000000000000006001600160a01b031663d294f0936040518163ffffffff1660e01b815260040160408051808303816000875af1158015612829573d6000803e3d6000fd5b505050506040513d601f19601f8201168201806040525081019061284d9190613140565b9092509050811515806128605750600081115b15612c23576000826013546128759190613045565b90506000826014546128879190613045565b90506000807f00000000000000000000000000000000000000000000000000000000000000006001600160a01b0316639d63848a6040518163ffffffff1660e01b815260040160408051808303816000875af11580156128eb573d6000803e3d6000fd5b505050506040513d601f19601f8201168201806040525081019061290f9190613164565b604051634cde602960e11b81526001600160a01b0380841660048301529294509092507f0000000000000000000000000000000000000000000000000000000000000000909116906399bcc05290602401602060405180830381865afa15801561297d573d6000803e3d6000fd5b505050506040513d601f19601f820116820180604052508101906129a191906130ad565b841180156129bb575060006129b962093a8086613023565b115b15612a775760006013556129f0827f000000000000000000000000000000000000000000000000000000000000000086612dda565b60405163b66503cf60e01b81526001600160a01b038381166004830152602482018690527f0000000000000000000000000000000000000000000000000000000000000000169063b66503cf90604401600060405180830381600087803b158015612a5a57600080fd5b505af1158015612a6e573d6000803e3d6000fd5b50505050612a7d565b60138490555b604051634cde602960e11b81526001600160a01b0382811660048301527f000000000000000000000000000000000000000000000000000000000000000016906399bcc05290602401602060405180830381865afa158015612ae3573d6000803e3d6000fd5b505050506040513d601f19601f82011682018060405250810190612b0791906130ad565b83118015612b2157506000612b1f62093a8085613023565b115b15612bdd576000601455612b56817f000000000000000000000000000000000000000000000000000000000000000085612dda565b60405163b66503cf60e01b81526001600160a01b038281166004830152602482018590527f0000000000000000000000000000000000000000000000000000000000000000169063b66503cf90604401600060405180830381600087803b158015612bc057600080fd5b505af1158015612bd4573d6000803e3d6000fd5b50505050612be3565b60148390555b604080518781526020810187905233917fbc567d6cbad26368064baa0ab5a757be46aae4d70f707f9203d9d9b6c8ccbfa3910160405180910390a2505050505b9091565b6000846001600160a01b03163b11612c3e57600080fd5b604080516001600160a01b0385811660248301528481166044830152606480830185905283518084039091018152608490920183526020820180516001600160e01b03166323b872dd60e01b1790529151600092839290881691612ca291906130e3565b6000604051808303816000865af19150503d8060008114612cdf576040519150601f19603f3d011682016040523d82523d6000602084013e612ce4565b606091505b5091509150818015612d0e575080511580612d0e575080806020019051810190612d0e919061311e565b612d1757600080fd5b505050505050565b6000806000612d2e87856120c2565b6001600160a01b0389166000908152600260205260409020549091508590670de0b6b3a764000090612d81612d638a896120c2565b6001600160a01b038d166000908152600360205260409020546126c9565b6001600160a01b038c16600090815260036020526040902054612da59086906126c9565b612daf919061300c565b612db9919061305d565b612dc3919061305d565b612dcd9190613023565b9890975095505050505050565b6000836001600160a01b03163b11612df157600080fd5b6040516001600160a01b03838116602483015260448201839052600091829186169063095ea7b360e01b90606401612302565b6001600160a01b038116811461157557600080fd5b8035612e4481612e24565b919050565b60008060408385031215612e5c57600080fd5b8235612e6781612e24565b946020939093013593505050565b60008060408385031215612e8857600080fd5b8235612e9381612e24565b91506020830135612ea381612e24565b809150509250929050565b600060208284031215612ec057600080fd5b8135610fc581612e24565b600060208284031215612edd57600080fd5b5035919050565b634e487b7160e01b600052604160045260246000fd5b60008060408385031215612f0d57600080fd5b8235612f1881612e24565b915060208381013567ffffffffffffffff80821115612f3657600080fd5b818601915086601f830112612f4a57600080fd5b813581811115612f5c57612f5c612ee4565b8060051b604051601f19603f83011681018181108582111715612f8157612f81612ee4565b604052918252848201925083810185019189831115612f9f57600080fd5b938501935b82851015612fc457612fb585612e39565b84529385019392850192612fa4565b8096505050505050509250929050565b60008060408385031215612fe757600080fd5b50508035926020909101359150565b634e487b7160e01b600052601160045260246000fd5b60008282101561301e5761301e612ff6565b500390565b60008261304057634e487b7160e01b600052601260045260246000fd5b500490565b6000821982111561305857613058612ff6565b500190565b600081600019048311821515161561307757613077612ff6565b500290565b600060001982141561309057613090612ff6565b5060010190565b634e487b7160e01b600052603260045260246000fd5b6000602082840312156130bf57600080fd5b5051919050565b6000602082840312156130d857600080fd5b8151610fc581612e24565b6000825160005b8181101561310457602081860181015185830152016130ea565b81811115613113576000828501525b509190910192915050565b60006020828403121561313057600080fd5b81518015158114610fc557600080fd5b6000806040838503121561315357600080fd5b505080516020909101519092909150565b6000806040838503121561317757600080fd5b825161318281612e24565b6020840151909250612ea381612e2456fea2646970667358221220a8de52ea6bd4bd24df211597853f313707649f691c9f55a7512839aa09cb1af264736f6c634300080b0033a26469706673582212200f399fb6c6b1b493a3c59b9ac03d0838d65aef0832a29fabb1d1a1986240d00b64736f6c634300080b0033",
          "opcodes": "PUSH1 0x80 PUSH1 0x40 MSTORE CALLVALUE DUP1 ISZERO PUSH2 0x10 JUMPI PUSH1 0x0 DUP1 REVERT JUMPDEST POP PUSH2 0x3602 DUP1 PUSH2 0x20 PUSH1 0x0 CODECOPY PUSH1 0x0 RETURN INVALID PUSH1 0x80 PUSH1 0x40 MSTORE CALLVALUE DUP1 ISZERO PUSH2 0x10 JUMPI PUSH1 0x0 DUP1 REVERT JUMPDEST POP PUSH1 0x4 CALLDATASIZE LT PUSH2 0x41 JUMPI PUSH1 0x0 CALLDATALOAD PUSH1 0xE0 SHR DUP1 PUSH4 0x1C48E0FA EQ PUSH2 0x46 JUMPI DUP1 PUSH4 0x730A8BDB EQ PUSH2 0x75 JUMPI DUP1 PUSH4 0xAF4DB2EC EQ PUSH2 0x88 JUMPI JUMPDEST PUSH1 0x0 DUP1 REVERT JUMPDEST PUSH2 0x59 PUSH2 0x54 CALLDATASIZE PUSH1 0x4 PUSH2 0x1C1 JUMP JUMPDEST PUSH2 0x9B JUMP JUMPDEST PUSH1 0x40 MLOAD PUSH1 0x1 PUSH1 0x1 PUSH1 0xA0 SHL SUB SWAP1 SWAP2 AND DUP2 MSTORE PUSH1 0x20 ADD PUSH1 0x40 MLOAD DUP1 SWAP2 SUB SWAP1 RETURN JUMPDEST PUSH1 0x0 SLOAD PUSH2 0x59 SWAP1 PUSH1 0x1 PUSH1 0x1 PUSH1 0xA0 SHL SUB AND DUP2 JUMP JUMPDEST PUSH2 0x59 PUSH2 0x96 CALLDATASIZE PUSH1 0x4 PUSH2 0x204 JUMP JUMPDEST PUSH2 0x119 JUMP JUMPDEST PUSH1 0x0 DUP4 DUP4 DUP4 CALLER PUSH1 0x40 MLOAD PUSH2 0xAD SWAP1 PUSH2 0x198 JUMP JUMPDEST PUSH1 0x1 PUSH1 0x1 PUSH1 0xA0 SHL SUB SWAP5 DUP6 AND DUP2 MSTORE SWAP3 DUP5 AND PUSH1 0x20 DUP5 ADD MSTORE SWAP1 DUP4 AND PUSH1 0x40 DUP4 ADD MSTORE SWAP1 SWAP2 AND PUSH1 0x60 DUP3 ADD MSTORE PUSH1 0x80 ADD PUSH1 0x40 MLOAD DUP1 SWAP2 SUB SWAP1 PUSH1 0x0 CREATE DUP1 ISZERO DUP1 ISZERO PUSH2 0xF1 JUMPI RETURNDATASIZE PUSH1 0x0 DUP1 RETURNDATACOPY RETURNDATASIZE PUSH1 0x0 REVERT JUMPDEST POP PUSH1 0x0 DUP1 SLOAD PUSH1 0x1 PUSH1 0x1 PUSH1 0xA0 SHL SUB NOT AND PUSH1 0x1 PUSH1 0x1 PUSH1 0xA0 SHL SUB SWAP3 SWAP1 SWAP3 AND SWAP2 DUP3 OR SWAP1 SSTORE SWAP5 SWAP4 POP POP POP POP JUMP JUMPDEST PUSH1 0x0 DUP5 DUP5 DUP5 DUP5 PUSH1 0x40 MLOAD PUSH2 0x12B SWAP1 PUSH2 0x198 JUMP JUMPDEST PUSH1 0x1 PUSH1 0x1 PUSH1 0xA0 SHL SUB SWAP5 DUP6 AND DUP2 MSTORE SWAP3 DUP5 AND PUSH1 0x20 DUP5 ADD MSTORE SWAP1 DUP4 AND PUSH1 0x40 DUP4 ADD MSTORE SWAP1 SWAP2 AND PUSH1 0x60 DUP3 ADD MSTORE PUSH1 0x80 ADD PUSH1 0x40 MLOAD DUP1 SWAP2 SUB SWAP1 PUSH1 0x0 CREATE DUP1 ISZERO DUP1 ISZERO PUSH2 0x16F JUMPI RETURNDATASIZE PUSH1 0x0 DUP1 RETURNDATACOPY RETURNDATASIZE PUSH1 0x0 REVERT JUMPDEST POP PUSH1 0x0 DUP1 SLOAD PUSH1 0x1 PUSH1 0x1 PUSH1 0xA0 SHL SUB NOT AND PUSH1 0x1 PUSH1 0x1 PUSH1 0xA0 SHL SUB SWAP3 SWAP1 SWAP3 AND SWAP2 DUP3 OR SWAP1 SSTORE SWAP6 SWAP5 POP POP POP POP POP JUMP JUMPDEST PUSH2 0x3374 DUP1 PUSH2 0x259 DUP4 CODECOPY ADD SWAP1 JUMP JUMPDEST DUP1 CALLDATALOAD PUSH1 0x1 PUSH1 0x1 PUSH1 0xA0 SHL SUB DUP2 AND DUP2 EQ PUSH2 0x1BC JUMPI PUSH1 0x0 DUP1 REVERT JUMPDEST SWAP2 SWAP1 POP JUMP JUMPDEST PUSH1 0x0 DUP1 PUSH1 0x0 PUSH1 0x60 DUP5 DUP7 SUB SLT ISZERO PUSH2 0x1D6 JUMPI PUSH1 0x0 DUP1 REVERT JUMPDEST PUSH2 0x1DF DUP5 PUSH2 0x1A5 JUMP JUMPDEST SWAP3 POP PUSH2 0x1ED PUSH1 0x20 DUP6 ADD PUSH2 0x1A5 JUMP JUMPDEST SWAP2 POP PUSH2 0x1FB PUSH1 0x40 DUP6 ADD PUSH2 0x1A5 JUMP JUMPDEST SWAP1 POP SWAP3 POP SWAP3 POP SWAP3 JUMP JUMPDEST PUSH1 0x0 DUP1 PUSH1 0x0 DUP1 PUSH1 0x80 DUP6 DUP8 SUB SLT ISZERO PUSH2 0x21A JUMPI PUSH1 0x0 DUP1 REVERT JUMPDEST PUSH2 0x223 DUP6 PUSH2 0x1A5 JUMP JUMPDEST SWAP4 POP PUSH2 0x231 PUSH1 0x20 DUP7 ADD PUSH2 0x1A5 JUMP JUMPDEST SWAP3 POP PUSH2 0x23F PUSH1 0x40 DUP7 ADD PUSH2 0x1A5 JUMP JUMPDEST SWAP2 POP PUSH2 0x24D PUSH1 0x60 DUP7 ADD PUSH2 0x1A5 JUMP JUMPDEST SWAP1 POP SWAP3 SWAP6 SWAP2 SWAP5 POP SWAP3 POP JUMP INVALID PUSH2 0x100 PUSH1 0x40 MSTORE PUSH1 0x1 PUSH1 0x15 SSTORE CALLVALUE DUP1 ISZERO PUSH3 0x17 JUMPI PUSH1 0x0 DUP1 REVERT JUMPDEST POP PUSH1 0x40 MLOAD PUSH3 0x3374 CODESIZE SUB DUP1 PUSH3 0x3374 DUP4 CODECOPY DUP2 ADD PUSH1 0x40 DUP2 SWAP1 MSTORE PUSH3 0x3A SWAP2 PUSH3 0x7A JUMP JUMPDEST PUSH1 0x1 PUSH1 0x1 PUSH1 0xA0 SHL SUB SWAP4 DUP5 AND PUSH1 0x80 MSTORE SWAP2 DUP4 AND PUSH1 0xC0 MSTORE DUP3 AND PUSH1 0xA0 MSTORE AND PUSH1 0xE0 MSTORE PUSH3 0xD7 JUMP JUMPDEST DUP1 MLOAD PUSH1 0x1 PUSH1 0x1 PUSH1 0xA0 SHL SUB DUP2 AND DUP2 EQ PUSH3 0x75 JUMPI PUSH1 0x0 DUP1 REVERT JUMPDEST SWAP2 SWAP1 POP JUMP JUMPDEST PUSH1 0x0 DUP1 PUSH1 0x0 DUP1 PUSH1 0x80 DUP6 DUP8 SUB SLT ISZERO PUSH3 0x91 JUMPI PUSH1 0x0 DUP1 REVERT JUMPDEST PUSH3 0x9C DUP6 PUSH3 0x5D JUMP JUMPDEST SWAP4 POP PUSH3 0xAC PUSH1 0x20 DUP7 ADD PUSH3 0x5D JUMP JUMPDEST SWAP3 POP PUSH3 0xBC PUSH1 0x40 DUP7 ADD PUSH3 0x5D JUMP JUMPDEST SWAP2 POP PUSH3 0xCC PUSH1 0x60 DUP7 ADD PUSH3 0x5D JUMP JUMPDEST SWAP1 POP SWAP3 SWAP6 SWAP2 SWAP5 POP SWAP3 POP JUMP JUMPDEST PUSH1 0x80 MLOAD PUSH1 0xA0 MLOAD PUSH1 0xC0 MLOAD PUSH1 0xE0 MLOAD PUSH2 0x31C9 PUSH3 0x1AB PUSH1 0x0 CODECOPY PUSH1 0x0 DUP2 DUP2 PUSH2 0x427 ADD MSTORE DUP2 DUP2 PUSH2 0xB5A ADD MSTORE DUP2 DUP2 PUSH2 0xB9F ADD MSTORE DUP2 DUP2 PUSH2 0x1969 ADD MSTORE DUP2 DUP2 PUSH2 0x1A8B ADD MSTORE DUP2 DUP2 PUSH2 0x1F11 ADD MSTORE PUSH2 0x2026 ADD MSTORE PUSH1 0x0 DUP2 DUP2 PUSH2 0x396 ADD MSTORE DUP2 DUP2 PUSH2 0x2934 ADD MSTORE DUP2 DUP2 PUSH2 0x29CB ADD MSTORE DUP2 DUP2 PUSH2 0x2A16 ADD MSTORE DUP2 DUP2 PUSH2 0x2A9C ADD MSTORE DUP2 DUP2 PUSH2 0x2B31 ADD MSTORE PUSH2 0x2B7C ADD MSTORE PUSH1 0x0 DUP2 DUP2 PUSH2 0x52B ADD MSTORE DUP2 DUP2 PUSH2 0x15E7 ADD MSTORE DUP2 DUP2 PUSH2 0x1680 ADD MSTORE DUP2 DUP2 PUSH2 0x172E ADD MSTORE PUSH2 0x189F ADD MSTORE PUSH1 0x0 DUP2 DUP2 PUSH2 0x3D5 ADD MSTORE DUP2 DUP2 PUSH2 0x1156 ADD MSTORE DUP2 DUP2 PUSH2 0x14FC ADD MSTORE DUP2 DUP2 PUSH2 0x1817 ADD MSTORE DUP2 DUP2 PUSH2 0x1E92 ADD MSTORE DUP2 DUP2 PUSH2 0x27CC ADD MSTORE PUSH2 0x288E ADD MSTORE PUSH2 0x31C9 PUSH1 0x0 RETURN INVALID PUSH1 0x80 PUSH1 0x40 MSTORE CALLVALUE DUP1 ISZERO PUSH2 0x10 JUMPI PUSH1 0x0 DUP1 REVERT JUMPDEST POP PUSH1 0x4 CALLDATASIZE LT PUSH2 0x269 JUMPI PUSH1 0x0 CALLDATALOAD PUSH1 0xE0 SHR DUP1 PUSH4 0x853828B6 GT PUSH2 0x151 JUMPI DUP1 PUSH4 0xD7DA4BB0 GT PUSH2 0xC3 JUMPI DUP1 PUSH4 0xF1229777 GT PUSH2 0x87 JUMPI DUP1 PUSH4 0xF1229777 EQ PUSH2 0x662 JUMPI DUP1 PUSH4 0xF301AF42 EQ PUSH2 0x675 JUMPI DUP1 PUSH4 0xF7412BAF EQ PUSH2 0x688 JUMPI DUP1 PUSH4 0xFC97A303 EQ PUSH2 0x6AF JUMPI DUP1 PUSH4 0xFD314098 EQ PUSH2 0x6CF JUMPI DUP1 PUSH4 0xFDB483C7 EQ PUSH2 0x6E2 JUMPI PUSH1 0x0 DUP1 REVERT JUMPDEST DUP1 PUSH4 0xD7DA4BB0 EQ PUSH2 0x615 JUMPI DUP1 PUSH4 0xDA09D19D EQ PUSH2 0x61E JUMPI DUP1 PUSH4 0xE2BBB158 EQ PUSH2 0x63E JUMPI DUP1 PUSH4 0xE6886396 EQ PUSH2 0x651 JUMPI DUP1 PUSH4 0xE8111A12 EQ PUSH2 0x659 JUMPI PUSH1 0x0 DUP1 REVERT JUMPDEST DUP1 PUSH4 0xA495E5B5 GT PUSH2 0x115 JUMPI DUP1 PUSH4 0xA495E5B5 EQ PUSH2 0x589 JUMPI DUP1 PUSH4 0xAA479652 EQ PUSH2 0x5B4 JUMPI DUP1 PUSH4 0xB66503CF EQ PUSH2 0x5D4 JUMPI DUP1 PUSH4 0xC6F678BD EQ PUSH2 0x5E7 JUMPI DUP1 PUSH4 0xD294F093 EQ PUSH2 0x5FA JUMPI DUP1 PUSH4 0xD35E2544 EQ PUSH2 0x602 JUMPI PUSH1 0x0 DUP1 REVERT JUMPDEST DUP1 PUSH4 0x853828B6 EQ PUSH2 0x51E JUMPI DUP1 PUSH4 0x8DD598FB EQ PUSH2 0x526 JUMPI DUP1 PUSH4 0x93F1C442 EQ PUSH2 0x54D JUMPI DUP1 PUSH4 0x99BCC052 EQ PUSH2 0x556 JUMPI DUP1 PUSH4 0x9CE43F90 EQ PUSH2 0x569 JUMPI PUSH1 0x0 DUP1 REVERT JUMPDEST DUP1 PUSH4 0x3A4B66F1 GT PUSH2 0x1EA JUMPI DUP1 PUSH4 0x5A45D052 GT PUSH2 0x1AE JUMPI DUP1 PUSH4 0x5A45D052 EQ PUSH2 0x485 JUMPI DUP1 PUSH4 0x638634EE EQ PUSH2 0x498 JUMPI DUP1 PUSH4 0x63FB415B EQ PUSH2 0x4AB JUMPI DUP1 PUSH4 0x6FCFFF45 EQ PUSH2 0x4CB JUMPI DUP1 PUSH4 0x70A08231 EQ PUSH2 0x4EB JUMPI DUP1 PUSH4 0x76F4BE36 EQ PUSH2 0x50B JUMPI PUSH1 0x0 DUP1 REVERT JUMPDEST DUP1 PUSH4 0x3A4B66F1 EQ PUSH2 0x3D0 JUMPI DUP1 PUSH4 0x3CA068B6 EQ PUSH2 0x3F7 JUMPI DUP1 PUSH4 0x46C96AAC EQ PUSH2 0x422 JUMPI DUP1 PUSH4 0x4C02A21C EQ PUSH2 0x449 JUMPI DUP1 PUSH4 0x4D5CE038 EQ PUSH2 0x452 JUMPI PUSH1 0x0 DUP1 REVERT JUMPDEST DUP1 PUSH4 0x221CA18C GT PUSH2 0x231 JUMPI DUP1 PUSH4 0x221CA18C EQ PUSH2 0x329 JUMPI DUP1 PUSH4 0x2CE9AEAD EQ PUSH2 0x349 JUMPI DUP1 PUSH4 0x2E1A7D4D EQ PUSH2 0x369 JUMPI DUP1 PUSH4 0x31279D3D EQ PUSH2 0x37E JUMPI DUP1 PUSH4 0x37D0208C EQ PUSH2 0x391 JUMPI PUSH1 0x0 DUP1 REVERT JUMPDEST DUP1 PUSH4 0x1316DDF EQ PUSH2 0x26E JUMPI DUP1 PUSH4 0xCDFEBFA EQ PUSH2 0x2BA JUMPI DUP1 PUSH4 0x115C6F39 EQ PUSH2 0x2EC JUMPI DUP1 PUSH4 0x18160DDD EQ PUSH2 0x30D JUMPI DUP1 PUSH4 0x211DC32D EQ PUSH2 0x316 JUMPI JUMPDEST PUSH1 0x0 DUP1 REVERT JUMPDEST PUSH2 0x2A0 PUSH2 0x27C CALLDATASIZE PUSH1 0x4 PUSH2 0x2E49 JUMP JUMPDEST PUSH1 0x11 PUSH1 0x20 SWAP1 DUP2 MSTORE PUSH1 0x0 SWAP3 DUP4 MSTORE PUSH1 0x40 DUP1 DUP5 KECCAK256 SWAP1 SWAP2 MSTORE SWAP1 DUP3 MSTORE SWAP1 KECCAK256 DUP1 SLOAD PUSH1 0x1 SWAP1 SWAP2 ADD SLOAD DUP3 JUMP JUMPDEST PUSH1 0x40 DUP1 MLOAD SWAP3 DUP4 MSTORE PUSH1 0x20 DUP4 ADD SWAP2 SWAP1 SWAP2 MSTORE ADD JUMPDEST PUSH1 0x40 MLOAD DUP1 SWAP2 SUB SWAP1 RETURN JUMPDEST PUSH2 0x2A0 PUSH2 0x2C8 CALLDATASIZE PUSH1 0x4 PUSH2 0x2E49 JUMP JUMPDEST PUSH1 0xD PUSH1 0x20 SWAP1 DUP2 MSTORE PUSH1 0x0 SWAP3 DUP4 MSTORE PUSH1 0x40 DUP1 DUP5 KECCAK256 SWAP1 SWAP2 MSTORE SWAP1 DUP3 MSTORE SWAP1 KECCAK256 DUP1 SLOAD PUSH1 0x1 SWAP1 SWAP2 ADD SLOAD DUP3 JUMP JUMPDEST PUSH2 0x2FF PUSH2 0x2FA CALLDATASIZE PUSH1 0x4 PUSH2 0x2E49 JUMP JUMPDEST PUSH2 0x6F5 JUMP JUMPDEST PUSH1 0x40 MLOAD SWAP1 DUP2 MSTORE PUSH1 0x20 ADD PUSH2 0x2B1 JUMP JUMPDEST PUSH2 0x2FF PUSH1 0x9 SLOAD DUP2 JUMP JUMPDEST PUSH2 0x2FF PUSH2 0x324 CALLDATASIZE PUSH1 0x4 PUSH2 0x2E75 JUMP JUMPDEST PUSH2 0x862 JUMP JUMPDEST PUSH2 0x2FF PUSH2 0x337 CALLDATASIZE PUSH1 0x4 PUSH2 0x2EAE JUMP JUMPDEST PUSH1 0x2 PUSH1 0x20 MSTORE PUSH1 0x0 SWAP1 DUP2 MSTORE PUSH1 0x40 SWAP1 KECCAK256 SLOAD DUP2 JUMP JUMPDEST PUSH2 0x2FF PUSH2 0x357 CALLDATASIZE PUSH1 0x4 PUSH2 0x2EAE JUMP JUMPDEST PUSH1 0x4 PUSH1 0x20 MSTORE PUSH1 0x0 SWAP1 DUP2 MSTORE PUSH1 0x40 SWAP1 KECCAK256 SLOAD DUP2 JUMP JUMPDEST PUSH2 0x37C PUSH2 0x377 CALLDATASIZE PUSH1 0x4 PUSH2 0x2ECB JUMP JUMPDEST PUSH2 0xAF2 JUMP JUMPDEST STOP JUMPDEST PUSH2 0x37C PUSH2 0x38C CALLDATASIZE PUSH1 0x4 PUSH2 0x2EFA JUMP JUMPDEST PUSH2 0xB29 JUMP JUMPDEST PUSH2 0x3B8 PUSH32 0x0 DUP2 JUMP JUMPDEST PUSH1 0x40 MLOAD PUSH1 0x1 PUSH1 0x1 PUSH1 0xA0 SHL SUB SWAP1 SWAP2 AND DUP2 MSTORE PUSH1 0x20 ADD PUSH2 0x2B1 JUMP JUMPDEST PUSH2 0x3B8 PUSH32 0x0 DUP2 JUMP JUMPDEST PUSH2 0x2FF PUSH2 0x405 CALLDATASIZE PUSH1 0x4 PUSH2 0x2E75 JUMP JUMPDEST PUSH1 0x7 PUSH1 0x20 SWAP1 DUP2 MSTORE PUSH1 0x0 SWAP3 DUP4 MSTORE PUSH1 0x40 DUP1 DUP5 KECCAK256 SWAP1 SWAP2 MSTORE SWAP1 DUP3 MSTORE SWAP1 KECCAK256 SLOAD DUP2 JUMP JUMPDEST PUSH2 0x3B8 PUSH32 0x0 DUP2 JUMP JUMPDEST PUSH2 0x2FF PUSH1 0x14 SLOAD DUP2 JUMP JUMPDEST PUSH2 0x475 PUSH2 0x460 CALLDATASIZE PUSH1 0x4 PUSH2 0x2EAE JUMP JUMPDEST PUSH1 0xC PUSH1 0x20 MSTORE PUSH1 0x0 SWAP1 DUP2 MSTORE PUSH1 0x40 SWAP1 KECCAK256 SLOAD PUSH1 0xFF AND DUP2 JUMP JUMPDEST PUSH1 0x40 MLOAD SWAP1 ISZERO ISZERO DUP2 MSTORE PUSH1 0x20 ADD PUSH2 0x2B1 JUMP JUMPDEST PUSH2 0x37C PUSH2 0x493 CALLDATASIZE PUSH1 0x4 PUSH2 0x2E49 JUMP JUMPDEST PUSH2 0xF23 JUMP JUMPDEST PUSH2 0x2FF PUSH2 0x4A6 CALLDATASIZE PUSH1 0x4 PUSH2 0x2EAE JUMP JUMPDEST PUSH2 0xF5B JUMP JUMPDEST PUSH2 0x2FF PUSH2 0x4B9 CALLDATASIZE PUSH1 0x4 PUSH2 0x2EAE JUMP JUMPDEST PUSH1 0x1 PUSH1 0x20 MSTORE PUSH1 0x0 SWAP1 DUP2 MSTORE PUSH1 0x40 SWAP1 KECCAK256 SLOAD DUP2 JUMP JUMPDEST PUSH2 0x2FF PUSH2 0x4D9 CALLDATASIZE PUSH1 0x4 PUSH2 0x2EAE JUMP JUMPDEST PUSH1 0xE PUSH1 0x20 MSTORE PUSH1 0x0 SWAP1 DUP2 MSTORE PUSH1 0x40 SWAP1 KECCAK256 SLOAD DUP2 JUMP JUMPDEST PUSH2 0x2FF PUSH2 0x4F9 CALLDATASIZE PUSH1 0x4 PUSH2 0x2EAE JUMP JUMPDEST PUSH1 0xA PUSH1 0x20 MSTORE PUSH1 0x0 SWAP1 DUP2 MSTORE PUSH1 0x40 SWAP1 KECCAK256 SLOAD DUP2 JUMP JUMPDEST PUSH2 0x2FF PUSH2 0x519 CALLDATASIZE PUSH1 0x4 PUSH2 0x2ECB JUMP JUMPDEST PUSH2 0xF7F JUMP JUMPDEST PUSH2 0x37C PUSH2 0x10B1 JUMP JUMPDEST PUSH2 0x3B8 PUSH32 0x0 DUP2 JUMP JUMPDEST PUSH2 0x2FF PUSH1 0x13 SLOAD DUP2 JUMP JUMPDEST PUSH2 0x2FF PUSH2 0x564 CALLDATASIZE PUSH1 0x4 PUSH2 0x2EAE JUMP JUMPDEST PUSH2 0x10CC JUMP JUMPDEST PUSH2 0x2FF PUSH2 0x577 CALLDATASIZE PUSH1 0x4 PUSH2 0x2EAE JUMP JUMPDEST PUSH1 0x5 PUSH1 0x20 MSTORE PUSH1 0x0 SWAP1 DUP2 MSTORE PUSH1 0x40 SWAP1 KECCAK256 SLOAD DUP2 JUMP JUMPDEST PUSH2 0x2FF PUSH2 0x597 CALLDATASIZE PUSH1 0x4 PUSH2 0x2E75 JUMP JUMPDEST PUSH1 0x6 PUSH1 0x20 SWAP1 DUP2 MSTORE PUSH1 0x0 SWAP3 DUP4 MSTORE PUSH1 0x40 DUP1 DUP5 KECCAK256 SWAP1 SWAP2 MSTORE SWAP1 DUP3 MSTORE SWAP1 KECCAK256 SLOAD DUP2 JUMP JUMPDEST PUSH2 0x2FF PUSH2 0x5C2 CALLDATASIZE PUSH1 0x4 PUSH2 0x2EAE JUMP JUMPDEST PUSH1 0x12 PUSH1 0x20 MSTORE PUSH1 0x0 SWAP1 DUP2 MSTORE PUSH1 0x40 SWAP1 KECCAK256 SLOAD DUP2 JUMP JUMPDEST PUSH2 0x37C PUSH2 0x5E2 CALLDATASIZE PUSH1 0x4 PUSH2 0x2E49 JUMP JUMPDEST PUSH2 0x113D JUMP JUMPDEST PUSH2 0x37C PUSH2 0x5F5 CALLDATASIZE PUSH1 0x4 PUSH2 0x2ECB JUMP JUMPDEST PUSH2 0x14E3 JUMP JUMPDEST PUSH2 0x2A0 PUSH2 0x1578 JUMP JUMPDEST PUSH2 0x2FF PUSH2 0x610 CALLDATASIZE PUSH1 0x4 PUSH2 0x2EAE JUMP JUMPDEST PUSH2 0x15A4 JUMP JUMPDEST PUSH2 0x2FF PUSH1 0x0 SLOAD DUP2 JUMP JUMPDEST PUSH2 0x2FF PUSH2 0x62C CALLDATASIZE PUSH1 0x4 PUSH2 0x2EAE JUMP JUMPDEST PUSH1 0x3 PUSH1 0x20 MSTORE PUSH1 0x0 SWAP1 DUP2 MSTORE PUSH1 0x40 SWAP1 KECCAK256 SLOAD DUP2 JUMP JUMPDEST PUSH2 0x37C PUSH2 0x64C CALLDATASIZE PUSH1 0x4 PUSH2 0x2FD4 JUMP JUMPDEST PUSH2 0x17F4 JUMP JUMPDEST PUSH1 0xB SLOAD PUSH2 0x2FF JUMP JUMPDEST PUSH2 0x2FF PUSH1 0x10 SLOAD DUP2 JUMP JUMPDEST PUSH2 0x2FF PUSH2 0x670 CALLDATASIZE PUSH1 0x4 PUSH2 0x2EAE JUMP JUMPDEST PUSH2 0x1B35 JUMP JUMPDEST PUSH2 0x3B8 PUSH2 0x683 CALLDATASIZE PUSH1 0x4 PUSH2 0x2ECB JUMP JUMPDEST PUSH2 0x1BF1 JUMP JUMPDEST PUSH2 0x2A0 PUSH2 0x696 CALLDATASIZE PUSH1 0x4 PUSH2 0x2ECB JUMP JUMPDEST PUSH1 0xF PUSH1 0x20 MSTORE PUSH1 0x0 SWAP1 DUP2 MSTORE PUSH1 0x40 SWAP1 KECCAK256 DUP1 SLOAD PUSH1 0x1 SWAP1 SWAP2 ADD SLOAD DUP3 JUMP JUMPDEST PUSH2 0x2FF PUSH2 0x6BD CALLDATASIZE PUSH1 0x4 PUSH2 0x2EAE JUMP JUMPDEST PUSH1 0x8 PUSH1 0x20 MSTORE PUSH1 0x0 SWAP1 DUP2 MSTORE PUSH1 0x40 SWAP1 KECCAK256 SLOAD DUP2 JUMP JUMPDEST PUSH2 0x2A0 PUSH2 0x6DD CALLDATASIZE PUSH1 0x4 PUSH2 0x2E49 JUMP JUMPDEST PUSH2 0x1C1B JUMP JUMPDEST PUSH2 0x37C PUSH2 0x6F0 CALLDATASIZE PUSH1 0x4 PUSH2 0x2FD4 JUMP JUMPDEST PUSH2 0x1E3A JUMP JUMPDEST PUSH1 0x1 PUSH1 0x1 PUSH1 0xA0 SHL SUB DUP3 AND PUSH1 0x0 SWAP1 DUP2 MSTORE PUSH1 0xE PUSH1 0x20 MSTORE PUSH1 0x40 DUP2 KECCAK256 SLOAD DUP1 PUSH2 0x71D JUMPI PUSH1 0x0 SWAP2 POP POP PUSH2 0x85C JUMP JUMPDEST PUSH1 0x1 PUSH1 0x1 PUSH1 0xA0 SHL SUB DUP5 AND PUSH1 0x0 SWAP1 DUP2 MSTORE PUSH1 0xD PUSH1 0x20 MSTORE PUSH1 0x40 DUP2 KECCAK256 DUP5 SWAP2 PUSH2 0x742 PUSH1 0x1 DUP6 PUSH2 0x300C JUMP JUMPDEST DUP2 MSTORE PUSH1 0x20 ADD SWAP1 DUP2 MSTORE PUSH1 0x20 ADD PUSH1 0x0 KECCAK256 PUSH1 0x0 ADD SLOAD GT PUSH2 0x76C JUMPI PUSH2 0x764 PUSH1 0x1 DUP3 PUSH2 0x300C JUMP JUMPDEST SWAP2 POP POP PUSH2 0x85C JUMP JUMPDEST PUSH1 0x1 PUSH1 0x1 PUSH1 0xA0 SHL SUB DUP5 AND PUSH1 0x0 SWAP1 DUP2 MSTORE PUSH1 0xD PUSH1 0x20 SWAP1 DUP2 MSTORE PUSH1 0x40 DUP1 DUP4 KECCAK256 DUP4 DUP1 MSTORE SWAP1 SWAP2 MSTORE SWAP1 KECCAK256 SLOAD DUP4 LT ISZERO PUSH2 0x7A1 JUMPI PUSH1 0x0 SWAP2 POP POP PUSH2 0x85C JUMP JUMPDEST PUSH1 0x0 DUP1 PUSH2 0x7AF PUSH1 0x1 DUP5 PUSH2 0x300C JUMP JUMPDEST SWAP1 POP JUMPDEST DUP2 DUP2 GT ISZERO PUSH2 0x857 JUMPI PUSH1 0x0 PUSH1 0x2 PUSH2 0x7C8 DUP5 DUP5 PUSH2 0x300C JUMP JUMPDEST PUSH2 0x7D2 SWAP2 SWAP1 PUSH2 0x3023 JUMP JUMPDEST PUSH2 0x7DC SWAP1 DUP4 PUSH2 0x300C JUMP JUMPDEST PUSH1 0x1 PUSH1 0x1 PUSH1 0xA0 SHL SUB DUP9 AND PUSH1 0x0 SWAP1 DUP2 MSTORE PUSH1 0xD PUSH1 0x20 SWAP1 DUP2 MSTORE PUSH1 0x40 DUP1 DUP4 KECCAK256 DUP5 DUP5 MSTORE DUP3 MSTORE SWAP2 DUP3 SWAP1 KECCAK256 DUP3 MLOAD DUP1 DUP5 ADD SWAP1 SWAP4 MSTORE DUP1 SLOAD DUP1 DUP5 MSTORE PUSH1 0x1 SWAP1 SWAP2 ADD SLOAD SWAP2 DUP4 ADD SWAP2 SWAP1 SWAP2 MSTORE SWAP2 SWAP3 POP SWAP1 DUP8 EQ ISZERO PUSH2 0x831 JUMPI POP SWAP4 POP PUSH2 0x85C SWAP3 POP POP POP JUMP JUMPDEST DUP1 MLOAD DUP8 GT ISZERO PUSH2 0x842 JUMPI DUP2 SWAP4 POP PUSH2 0x850 JUMP JUMPDEST PUSH2 0x84D PUSH1 0x1 DUP4 PUSH2 0x300C JUMP JUMPDEST SWAP3 POP JUMPDEST POP POP PUSH2 0x7B2 JUMP JUMPDEST POP SWAP2 POP POP JUMPDEST SWAP3 SWAP2 POP POP JUMP JUMPDEST PUSH1 0x1 PUSH1 0x1 PUSH1 0xA0 SHL SUB DUP1 DUP4 AND PUSH1 0x0 DUP2 DUP2 MSTORE PUSH1 0x6 PUSH1 0x20 SWAP1 DUP2 MSTORE PUSH1 0x40 DUP1 DUP4 KECCAK256 SWAP5 DUP7 AND DUP4 MSTORE SWAP4 DUP2 MSTORE DUP4 DUP3 KECCAK256 SLOAD SWAP3 DUP3 MSTORE PUSH1 0x11 DUP2 MSTORE DUP4 DUP3 KECCAK256 DUP3 DUP1 MSTORE SWAP1 MSTORE SWAP2 DUP3 KECCAK256 SLOAD DUP3 SWAP2 PUSH2 0x8A8 SWAP2 PUSH2 0x20C2 JUMP JUMPDEST PUSH1 0x1 PUSH1 0x1 PUSH1 0xA0 SHL SUB DUP5 AND PUSH1 0x0 SWAP1 DUP2 MSTORE PUSH1 0xE PUSH1 0x20 MSTORE PUSH1 0x40 SWAP1 KECCAK256 SLOAD SWAP1 SWAP2 POP PUSH2 0x8D2 JUMPI PUSH1 0x0 SWAP2 POP POP PUSH2 0x85C JUMP JUMPDEST PUSH1 0x0 PUSH2 0x8DE DUP5 DUP4 PUSH2 0x6F5 JUMP JUMPDEST PUSH1 0x1 PUSH1 0x1 PUSH1 0xA0 SHL SUB DUP6 AND PUSH1 0x0 SWAP1 DUP2 MSTORE PUSH1 0xE PUSH1 0x20 MSTORE PUSH1 0x40 DUP2 KECCAK256 SLOAD SWAP2 SWAP3 POP SWAP1 PUSH2 0x907 SWAP1 PUSH1 0x1 SWAP1 PUSH2 0x300C JUMP JUMPDEST SWAP1 POP PUSH1 0x0 PUSH1 0x1 PUSH2 0x917 DUP5 DUP5 PUSH2 0x300C JUMP JUMPDEST GT ISZERO PUSH2 0xA26 JUMPI DUP3 JUMPDEST PUSH2 0x92A PUSH1 0x1 DUP5 PUSH2 0x300C JUMP JUMPDEST DUP2 LT ISZERO PUSH2 0xA24 JUMPI PUSH1 0x1 PUSH1 0x1 PUSH1 0xA0 SHL SUB DUP8 AND PUSH1 0x0 DUP2 DUP2 MSTORE PUSH1 0xD PUSH1 0x20 DUP2 DUP2 MSTORE PUSH1 0x40 DUP1 DUP5 KECCAK256 DUP7 DUP6 MSTORE DUP1 DUP4 MSTORE DUP2 DUP6 KECCAK256 DUP3 MLOAD DUP1 DUP5 ADD SWAP1 SWAP4 MSTORE DUP1 SLOAD DUP4 MSTORE PUSH1 0x1 SWAP1 DUP2 ADD SLOAD DUP4 DUP6 ADD MSTORE SWAP6 DUP6 MSTORE SWAP3 SWAP1 SWAP2 MSTORE SWAP3 DUP3 SWAP1 PUSH2 0x980 SWAP1 DUP7 SWAP1 PUSH2 0x3045 JUMP JUMPDEST DUP2 MSTORE PUSH1 0x20 ADD SWAP1 DUP2 MSTORE PUSH1 0x20 ADD PUSH1 0x0 KECCAK256 PUSH1 0x40 MLOAD DUP1 PUSH1 0x40 ADD PUSH1 0x40 MSTORE SWAP1 DUP2 PUSH1 0x0 DUP3 ADD SLOAD DUP2 MSTORE PUSH1 0x20 ADD PUSH1 0x1 DUP3 ADD SLOAD DUP2 MSTORE POP POP SWAP1 POP PUSH1 0x0 PUSH2 0x9BF DUP12 DUP5 PUSH1 0x0 ADD MLOAD PUSH2 0x1C1B JUMP JUMPDEST POP SWAP1 POP PUSH1 0x0 PUSH2 0x9D2 DUP13 DUP5 PUSH1 0x0 ADD MLOAD PUSH2 0x1C1B JUMP JUMPDEST POP SWAP1 POP PUSH8 0xDE0B6B3A7640000 PUSH2 0x9E8 DUP4 DUP4 PUSH2 0x300C JUMP JUMPDEST DUP6 PUSH1 0x20 ADD MLOAD PUSH2 0x9F7 SWAP2 SWAP1 PUSH2 0x305D JUMP JUMPDEST PUSH2 0xA01 SWAP2 SWAP1 PUSH2 0x3023 JUMP JUMPDEST PUSH2 0xA0B SWAP1 DUP8 PUSH2 0x3045 JUMP JUMPDEST SWAP6 POP POP POP POP POP DUP1 DUP1 PUSH2 0xA1C SWAP1 PUSH2 0x307C JUMP JUMPDEST SWAP2 POP POP PUSH2 0x91F JUMP JUMPDEST POP JUMPDEST PUSH1 0x1 PUSH1 0x1 PUSH1 0xA0 SHL SUB DUP7 AND PUSH1 0x0 SWAP1 DUP2 MSTORE PUSH1 0xD PUSH1 0x20 SWAP1 DUP2 MSTORE PUSH1 0x40 DUP1 DUP4 KECCAK256 DUP6 DUP5 MSTORE DUP3 MSTORE DUP1 DUP4 KECCAK256 DUP2 MLOAD DUP1 DUP4 ADD SWAP1 SWAP3 MSTORE DUP1 SLOAD DUP1 DUP4 MSTORE PUSH1 0x1 SWAP1 SWAP2 ADD SLOAD SWAP3 DUP3 ADD SWAP3 SWAP1 SWAP3 MSTORE SWAP2 SWAP1 PUSH2 0xA70 SWAP1 DUP11 SWAP1 PUSH2 0x1C1B JUMP JUMPDEST POP PUSH1 0x1 PUSH1 0x1 PUSH1 0xA0 SHL SUB DUP1 DUP12 AND PUSH1 0x0 SWAP1 DUP2 MSTORE PUSH1 0x7 PUSH1 0x20 SWAP1 DUP2 MSTORE PUSH1 0x40 DUP1 DUP4 KECCAK256 SWAP4 DUP14 AND DUP4 MSTORE SWAP3 SWAP1 MSTORE KECCAK256 SLOAD SWAP1 SWAP2 POP PUSH8 0xDE0B6B3A7640000 SWAP1 PUSH2 0xAAF SWAP1 DUP4 SWAP1 PUSH2 0x20C2 JUMP JUMPDEST PUSH2 0xAB8 DUP12 PUSH2 0x1B35 JUMP JUMPDEST PUSH2 0xAC2 SWAP2 SWAP1 PUSH2 0x300C JUMP JUMPDEST DUP4 PUSH1 0x20 ADD MLOAD PUSH2 0xAD1 SWAP2 SWAP1 PUSH2 0x305D JUMP JUMPDEST PUSH2 0xADB SWAP2 SWAP1 PUSH2 0x3023 JUMP JUMPDEST PUSH2 0xAE5 SWAP1 DUP5 PUSH2 0x3045 JUMP JUMPDEST SWAP10 SWAP9 POP POP POP POP POP POP POP POP POP JUMP JUMPDEST CALLER PUSH1 0x0 SWAP1 DUP2 MSTORE PUSH1 0xA PUSH1 0x20 MSTORE PUSH1 0x40 DUP2 KECCAK256 SLOAD DUP3 EQ ISZERO PUSH2 0xB1B JUMPI POP CALLER PUSH1 0x0 SWAP1 DUP2 MSTORE PUSH1 0x8 PUSH1 0x20 MSTORE PUSH1 0x40 SWAP1 KECCAK256 SLOAD JUMPDEST PUSH2 0xB25 DUP3 DUP3 PUSH2 0x1E3A JUMP JUMPDEST POP POP JUMP JUMPDEST PUSH1 0x15 SLOAD PUSH1 0x1 EQ PUSH2 0xB38 JUMPI PUSH1 0x0 DUP1 REVERT JUMPDEST PUSH1 0x2 PUSH1 0x15 SSTORE CALLER PUSH1 0x1 PUSH1 0x1 PUSH1 0xA0 SHL SUB DUP4 AND EQ DUP1 PUSH2 0xB7C JUMPI POP CALLER PUSH1 0x1 PUSH1 0x1 PUSH1 0xA0 SHL SUB PUSH32 0x0 AND EQ JUMPDEST PUSH2 0xB85 JUMPI PUSH1 0x0 DUP1 REVERT JUMPDEST PUSH1 0x1 PUSH1 0x15 SSTORE PUSH1 0x40 MLOAD PUSH4 0x63453AE1 PUSH1 0xE0 SHL DUP2 MSTORE ADDRESS PUSH1 0x4 DUP3 ADD MSTORE PUSH32 0x0 PUSH1 0x1 PUSH1 0x1 PUSH1 0xA0 SHL SUB AND SWAP1 PUSH4 0x63453AE1 SWAP1 PUSH1 0x24 ADD PUSH1 0x0 PUSH1 0x40 MLOAD DUP1 DUP4 SUB DUP2 PUSH1 0x0 DUP8 DUP1 EXTCODESIZE ISZERO DUP1 ISZERO PUSH2 0xBEB JUMPI PUSH1 0x0 DUP1 REVERT JUMPDEST POP GAS CALL ISZERO DUP1 ISZERO PUSH2 0xBFF JUMPI RETURNDATASIZE PUSH1 0x0 DUP1 RETURNDATACOPY RETURNDATASIZE PUSH1 0x0 REVERT JUMPDEST POP POP PUSH1 0x2 PUSH1 0x15 SSTORE POP PUSH1 0x0 SWAP1 POP JUMPDEST DUP2 MLOAD DUP2 LT ISZERO PUSH2 0xE7D JUMPI PUSH2 0xC37 DUP3 DUP3 DUP2 MLOAD DUP2 LT PUSH2 0xC2A JUMPI PUSH2 0xC2A PUSH2 0x3097 JUMP JUMPDEST PUSH1 0x20 MUL PUSH1 0x20 ADD ADD MLOAD PUSH2 0x20D9 JUMP JUMPDEST PUSH1 0x5 PUSH1 0x0 DUP6 DUP6 DUP2 MLOAD DUP2 LT PUSH2 0xC4D JUMPI PUSH2 0xC4D PUSH2 0x3097 JUMP JUMPDEST PUSH1 0x20 MUL PUSH1 0x20 ADD ADD MLOAD PUSH1 0x1 PUSH1 0x1 PUSH1 0xA0 SHL SUB AND PUSH1 0x1 PUSH1 0x1 PUSH1 0xA0 SHL SUB AND DUP2 MSTORE PUSH1 0x20 ADD SWAP1 DUP2 MSTORE PUSH1 0x20 ADD PUSH1 0x0 KECCAK256 PUSH1 0x0 PUSH1 0x4 PUSH1 0x0 DUP8 DUP8 DUP2 MLOAD DUP2 LT PUSH2 0xC8D JUMPI PUSH2 0xC8D PUSH2 0x3097 JUMP JUMPDEST PUSH1 0x20 MUL PUSH1 0x20 ADD ADD MLOAD PUSH1 0x1 PUSH1 0x1 PUSH1 0xA0 SHL SUB AND PUSH1 0x1 PUSH1 0x1 PUSH1 0xA0 SHL SUB AND DUP2 MSTORE PUSH1 0x20 ADD SWAP1 DUP2 MSTORE PUSH1 0x20 ADD PUSH1 0x0 KECCAK256 PUSH1 0x0 DUP5 SWAP2 SWAP1 POP SSTORE DUP4 SWAP2 SWAP1 POP SSTORE POP POP PUSH1 0x0 PUSH2 0xCE8 DUP4 DUP4 DUP2 MLOAD DUP2 LT PUSH2 0xCDA JUMPI PUSH2 0xCDA PUSH2 0x3097 JUMP JUMPDEST PUSH1 0x20 MUL PUSH1 0x20 ADD ADD MLOAD DUP6 PUSH2 0x862 JUMP JUMPDEST SWAP1 POP TIMESTAMP PUSH1 0x6 PUSH1 0x0 DUP6 DUP6 DUP2 MLOAD DUP2 LT PUSH2 0xD01 JUMPI PUSH2 0xD01 PUSH2 0x3097 JUMP JUMPDEST PUSH1 0x20 MUL PUSH1 0x20 ADD ADD MLOAD PUSH1 0x1 PUSH1 0x1 PUSH1 0xA0 SHL SUB AND PUSH1 0x1 PUSH1 0x1 PUSH1 0xA0 SHL SUB AND DUP2 MSTORE PUSH1 0x20 ADD SWAP1 DUP2 MSTORE PUSH1 0x20 ADD PUSH1 0x0 KECCAK256 PUSH1 0x0 DUP7 PUSH1 0x1 PUSH1 0x1 PUSH1 0xA0 SHL SUB AND PUSH1 0x1 PUSH1 0x1 PUSH1 0xA0 SHL SUB AND DUP2 MSTORE PUSH1 0x20 ADD SWAP1 DUP2 MSTORE PUSH1 0x20 ADD PUSH1 0x0 KECCAK256 DUP2 SWAP1 SSTORE POP PUSH1 0x5 PUSH1 0x0 DUP5 DUP5 DUP2 MLOAD DUP2 LT PUSH2 0xD66 JUMPI PUSH2 0xD66 PUSH2 0x3097 JUMP JUMPDEST PUSH1 0x20 MUL PUSH1 0x20 ADD ADD MLOAD PUSH1 0x1 PUSH1 0x1 PUSH1 0xA0 SHL SUB AND PUSH1 0x1 PUSH1 0x1 PUSH1 0xA0 SHL SUB AND DUP2 MSTORE PUSH1 0x20 ADD SWAP1 DUP2 MSTORE PUSH1 0x20 ADD PUSH1 0x0 KECCAK256 SLOAD PUSH1 0x7 PUSH1 0x0 DUP6 DUP6 DUP2 MLOAD DUP2 LT PUSH2 0xDA5 JUMPI PUSH2 0xDA5 PUSH2 0x3097 JUMP JUMPDEST PUSH1 0x20 SWAP1 DUP2 MUL SWAP2 SWAP1 SWAP2 ADD DUP2 ADD MLOAD PUSH1 0x1 PUSH1 0x1 PUSH1 0xA0 SHL SUB SWAP1 DUP2 AND DUP4 MSTORE DUP3 DUP3 ADD SWAP4 SWAP1 SWAP4 MSTORE PUSH1 0x40 SWAP2 DUP3 ADD PUSH1 0x0 SWAP1 DUP2 KECCAK256 SWAP4 DUP10 AND DUP2 MSTORE SWAP3 SWAP1 MSTORE SWAP1 KECCAK256 SSTORE DUP1 ISZERO PUSH2 0xE04 JUMPI PUSH2 0xE04 DUP4 DUP4 DUP2 MLOAD DUP2 LT PUSH2 0xDF5 JUMPI PUSH2 0xDF5 PUSH2 0x3097 JUMP JUMPDEST PUSH1 0x20 MUL PUSH1 0x20 ADD ADD MLOAD DUP6 DUP4 PUSH2 0x22BC JUMP JUMPDEST DUP3 DUP3 DUP2 MLOAD DUP2 LT PUSH2 0xE16 JUMPI PUSH2 0xE16 PUSH2 0x3097 JUMP JUMPDEST PUSH1 0x20 MUL PUSH1 0x20 ADD ADD MLOAD PUSH1 0x1 PUSH1 0x1 PUSH1 0xA0 SHL SUB AND CALLER PUSH1 0x1 PUSH1 0x1 PUSH1 0xA0 SHL SUB AND PUSH32 0x9AA05B3D70A9E3E2F004F039648839560576334FB45C81F91B6DB03AD9E2EFC9 DUP4 PUSH1 0x40 MLOAD PUSH2 0xE62 SWAP2 DUP2 MSTORE PUSH1 0x20 ADD SWAP1 JUMP JUMPDEST PUSH1 0x40 MLOAD DUP1 SWAP2 SUB SWAP1 LOG3 POP DUP1 PUSH2 0xE75 DUP2 PUSH2 0x307C JUMP JUMPDEST SWAP2 POP POP PUSH2 0xC0C JUMP JUMPDEST POP PUSH1 0x1 PUSH1 0x1 PUSH1 0xA0 SHL SUB DUP3 AND PUSH1 0x0 SWAP1 DUP2 MSTORE PUSH1 0x1 PUSH1 0x20 MSTORE PUSH1 0x40 DUP2 KECCAK256 SLOAD DUP2 SLOAD SWAP1 SWAP2 DUP3 SWAP2 DUP2 SWAP1 PUSH2 0xEAA SWAP1 DUP5 SWAP1 PUSH2 0x300C JUMP JUMPDEST SWAP1 SWAP2 SSTORE POP PUSH2 0xEB9 SWAP1 POP DUP4 PUSH2 0x15A4 JUMP JUMPDEST PUSH1 0x1 PUSH1 0x1 PUSH1 0xA0 SHL SUB DUP5 AND PUSH1 0x0 SWAP1 DUP2 MSTORE PUSH1 0x1 PUSH1 0x20 MSTORE PUSH1 0x40 DUP2 KECCAK256 DUP3 SWAP1 SSTORE DUP1 SLOAD SWAP2 SWAP3 POP DUP3 SWAP2 DUP2 SWAP1 PUSH2 0xEE8 SWAP1 DUP5 SWAP1 PUSH2 0x3045 JUMP JUMPDEST SWAP1 SWAP2 SSTORE POP POP PUSH1 0x1 PUSH1 0x1 PUSH1 0xA0 SHL SUB DUP4 AND PUSH1 0x0 SWAP1 DUP2 MSTORE PUSH1 0x1 PUSH1 0x20 MSTORE PUSH1 0x40 SWAP1 KECCAK256 SLOAD PUSH2 0xF11 SWAP1 DUP5 SWAP1 PUSH2 0x23BC JUMP JUMPDEST PUSH2 0xF19 PUSH2 0x24C7 JUMP JUMPDEST POP POP PUSH1 0x1 PUSH1 0x15 SSTORE POP JUMP JUMPDEST PUSH2 0xF2D DUP3 DUP3 PUSH2 0x256A JUMP JUMPDEST PUSH1 0x1 PUSH1 0x1 PUSH1 0xA0 SHL SUB SWAP1 SWAP4 AND PUSH1 0x0 SWAP1 DUP2 MSTORE PUSH1 0x5 PUSH1 0x20 SWAP1 DUP2 MSTORE PUSH1 0x40 DUP1 DUP4 KECCAK256 PUSH1 0x4 SWAP1 SWAP3 MSTORE SWAP1 SWAP2 KECCAK256 SWAP4 SWAP1 SWAP4 SSTORE SWAP1 SWAP2 SSTORE POP JUMP JUMPDEST PUSH1 0x1 PUSH1 0x1 PUSH1 0xA0 SHL SUB DUP2 AND PUSH1 0x0 SWAP1 DUP2 MSTORE PUSH1 0x3 PUSH1 0x20 MSTORE PUSH1 0x40 DUP2 KECCAK256 SLOAD PUSH2 0x85C SWAP1 TIMESTAMP SWAP1 PUSH2 0x26C9 JUMP JUMPDEST PUSH1 0x10 SLOAD PUSH1 0x0 SWAP1 DUP1 PUSH2 0xF93 JUMPI POP PUSH1 0x0 SWAP3 SWAP2 POP POP JUMP JUMPDEST DUP3 PUSH1 0xF PUSH1 0x0 PUSH2 0xFA3 PUSH1 0x1 DUP6 PUSH2 0x300C JUMP JUMPDEST DUP2 MSTORE PUSH1 0x20 ADD SWAP1 DUP2 MSTORE PUSH1 0x20 ADD PUSH1 0x0 KECCAK256 PUSH1 0x0 ADD SLOAD GT PUSH2 0xFCC JUMPI PUSH2 0xFC5 PUSH1 0x1 DUP3 PUSH2 0x300C JUMP JUMPDEST SWAP4 SWAP3 POP POP POP JUMP JUMPDEST PUSH1 0x0 DUP1 MSTORE PUSH1 0xF PUSH1 0x20 MSTORE PUSH32 0xF4803E074BD026BAAF6ED2E288C9515F68C72FB7216EEBDD7CAE1718A53EC375 SLOAD DUP4 LT ISZERO PUSH2 0x1007 JUMPI POP PUSH1 0x0 SWAP3 SWAP2 POP POP JUMP JUMPDEST PUSH1 0x0 DUP1 PUSH2 0x1015 PUSH1 0x1 DUP5 PUSH2 0x300C JUMP JUMPDEST SWAP1 POP JUMPDEST DUP2 DUP2 GT ISZERO PUSH2 0x10A9 JUMPI PUSH1 0x0 PUSH1 0x2 PUSH2 0x102E DUP5 DUP5 PUSH2 0x300C JUMP JUMPDEST PUSH2 0x1038 SWAP2 SWAP1 PUSH2 0x3023 JUMP JUMPDEST PUSH2 0x1042 SWAP1 DUP4 PUSH2 0x300C JUMP JUMPDEST PUSH1 0x0 DUP2 DUP2 MSTORE PUSH1 0xF PUSH1 0x20 SWAP1 DUP2 MSTORE PUSH1 0x40 SWAP2 DUP3 SWAP1 KECCAK256 DUP3 MLOAD DUP1 DUP5 ADD SWAP1 SWAP4 MSTORE DUP1 SLOAD DUP1 DUP5 MSTORE PUSH1 0x1 SWAP1 SWAP2 ADD SLOAD SWAP2 DUP4 ADD SWAP2 SWAP1 SWAP2 MSTORE SWAP2 SWAP3 POP SWAP1 DUP8 EQ ISZERO PUSH2 0x1083 JUMPI POP SWAP6 SWAP5 POP POP POP POP POP JUMP JUMPDEST DUP1 MLOAD DUP8 GT ISZERO PUSH2 0x1094 JUMPI DUP2 SWAP4 POP PUSH2 0x10A2 JUMP JUMPDEST PUSH2 0x109F PUSH1 0x1 DUP4 PUSH2 0x300C JUMP JUMPDEST SWAP3 POP JUMPDEST POP POP PUSH2 0x1018 JUMP JUMPDEST POP SWAP4 SWAP3 POP POP POP JUMP JUMPDEST CALLER PUSH1 0x0 SWAP1 DUP2 MSTORE PUSH1 0xA PUSH1 0x20 MSTORE PUSH1 0x40 SWAP1 KECCAK256 SLOAD PUSH2 0x10CA SWAP1 PUSH2 0xAF2 JUMP JUMPDEST JUMP JUMPDEST PUSH1 0x1 PUSH1 0x1 PUSH1 0xA0 SHL SUB DUP2 AND PUSH1 0x0 SWAP1 DUP2 MSTORE PUSH1 0x3 PUSH1 0x20 MSTORE PUSH1 0x40 DUP2 KECCAK256 SLOAD TIMESTAMP LT PUSH2 0x10F3 JUMPI POP PUSH1 0x0 SWAP2 SWAP1 POP JUMP JUMPDEST PUSH1 0x1 PUSH1 0x1 PUSH1 0xA0 SHL SUB DUP3 AND PUSH1 0x0 SWAP1 DUP2 MSTORE PUSH1 0x3 PUSH1 0x20 MSTORE PUSH1 0x40 DUP2 KECCAK256 SLOAD PUSH2 0x1117 SWAP1 TIMESTAMP SWAP1 PUSH2 0x300C JUMP JUMPDEST PUSH1 0x1 PUSH1 0x1 PUSH1 0xA0 SHL SUB DUP5 AND PUSH1 0x0 SWAP1 DUP2 MSTORE PUSH1 0x2 PUSH1 0x20 MSTORE PUSH1 0x40 SWAP1 KECCAK256 SLOAD SWAP1 SWAP2 POP PUSH2 0xFC5 SWAP1 DUP3 PUSH2 0x305D JUMP JUMPDEST PUSH1 0x15 SLOAD PUSH1 0x1 EQ PUSH2 0x114C JUMPI PUSH1 0x0 DUP1 REVERT JUMPDEST PUSH1 0x2 PUSH1 0x15 DUP2 SWAP1 SSTORE POP PUSH32 0x0 PUSH1 0x1 PUSH1 0x1 PUSH1 0xA0 SHL SUB AND DUP3 PUSH1 0x1 PUSH1 0x1 PUSH1 0xA0 SHL SUB AND EQ ISZERO PUSH2 0x1193 JUMPI PUSH1 0x0 DUP1 REVERT JUMPDEST PUSH1 0x0 DUP2 GT PUSH2 0x11A0 JUMPI PUSH1 0x0 DUP1 REVERT JUMPDEST PUSH1 0x1 PUSH1 0x1 PUSH1 0xA0 SHL SUB DUP3 AND PUSH1 0x0 SWAP1 DUP2 MSTORE PUSH1 0x2 PUSH1 0x20 MSTORE PUSH1 0x40 SWAP1 KECCAK256 SLOAD PUSH2 0x11C9 JUMPI PUSH2 0x11C9 DUP3 PUSH1 0x0 TIMESTAMP PUSH2 0x26D8 JUMP JUMPDEST PUSH2 0x11D2 DUP3 PUSH2 0x20D9 JUMP JUMPDEST PUSH1 0x1 PUSH1 0x1 PUSH1 0xA0 SHL SUB DUP5 AND PUSH1 0x0 SWAP1 DUP2 MSTORE PUSH1 0x5 PUSH1 0x20 SWAP1 DUP2 MSTORE PUSH1 0x40 DUP1 DUP4 KECCAK256 PUSH1 0x4 SWAP1 SWAP3 MSTORE SWAP1 SWAP2 KECCAK256 SWAP2 SWAP1 SWAP2 SSTORE SSTORE PUSH2 0x1202 PUSH2 0x27C7 JUMP JUMPDEST POP POP PUSH1 0x1 PUSH1 0x1 PUSH1 0xA0 SHL SUB DUP3 AND PUSH1 0x0 SWAP1 DUP2 MSTORE PUSH1 0x3 PUSH1 0x20 MSTORE PUSH1 0x40 SWAP1 KECCAK256 SLOAD TIMESTAMP LT PUSH2 0x125A JUMPI PUSH2 0x122F DUP3 CALLER ADDRESS DUP5 PUSH2 0x2C27 JUMP JUMPDEST PUSH2 0x123C PUSH3 0x93A80 DUP3 PUSH2 0x3023 JUMP JUMPDEST PUSH1 0x1 PUSH1 0x1 PUSH1 0xA0 SHL SUB DUP4 AND PUSH1 0x0 SWAP1 DUP2 MSTORE PUSH1 0x2 PUSH1 0x20 MSTORE PUSH1 0x40 SWAP1 KECCAK256 SSTORE PUSH2 0x12F3 JUMP JUMPDEST PUSH1 0x1 PUSH1 0x1 PUSH1 0xA0 SHL SUB DUP3 AND PUSH1 0x0 SWAP1 DUP2 MSTORE PUSH1 0x3 PUSH1 0x20 MSTORE PUSH1 0x40 DUP2 KECCAK256 SLOAD PUSH2 0x127E SWAP1 TIMESTAMP SWAP1 PUSH2 0x300C JUMP JUMPDEST PUSH1 0x1 PUSH1 0x1 PUSH1 0xA0 SHL SUB DUP5 AND PUSH1 0x0 SWAP1 DUP2 MSTORE PUSH1 0x2 PUSH1 0x20 MSTORE PUSH1 0x40 DUP2 KECCAK256 SLOAD SWAP2 SWAP3 POP SWAP1 PUSH2 0x12A5 SWAP1 DUP4 PUSH2 0x305D JUMP JUMPDEST SWAP1 POP DUP1 DUP4 GT PUSH2 0x12B3 JUMPI PUSH1 0x0 DUP1 REVERT JUMPDEST PUSH2 0x12BF DUP5 CALLER ADDRESS DUP7 PUSH2 0x2C27 JUMP JUMPDEST PUSH3 0x93A80 PUSH2 0x12CD DUP3 DUP6 PUSH2 0x3045 JUMP JUMPDEST PUSH2 0x12D7 SWAP2 SWAP1 PUSH2 0x3023 JUMP JUMPDEST PUSH1 0x1 PUSH1 0x1 PUSH1 0xA0 SHL SUB DUP6 AND PUSH1 0x0 SWAP1 DUP2 MSTORE PUSH1 0x2 PUSH1 0x20 MSTORE PUSH1 0x40 SWAP1 KECCAK256 SSTORE POP POP JUMPDEST PUSH1 0x1 PUSH1 0x1 PUSH1 0xA0 SHL SUB DUP3 AND PUSH1 0x0 SWAP1 DUP2 MSTORE PUSH1 0x2 PUSH1 0x20 MSTORE PUSH1 0x40 SWAP1 KECCAK256 SLOAD PUSH2 0x1315 JUMPI PUSH1 0x0 DUP1 REVERT JUMPDEST PUSH1 0x40 MLOAD PUSH4 0x70A08231 PUSH1 0xE0 SHL DUP2 MSTORE ADDRESS PUSH1 0x4 DUP3 ADD MSTORE PUSH1 0x0 SWAP1 PUSH1 0x1 PUSH1 0x1 PUSH1 0xA0 SHL SUB DUP5 AND SWAP1 PUSH4 0x70A08231 SWAP1 PUSH1 0x24 ADD PUSH1 0x20 PUSH1 0x40 MLOAD DUP1 DUP4 SUB DUP2 DUP7 GAS STATICCALL ISZERO DUP1 ISZERO PUSH2 0x135C JUMPI RETURNDATASIZE PUSH1 0x0 DUP1 RETURNDATACOPY RETURNDATASIZE PUSH1 0x0 REVERT JUMPDEST POP POP POP POP PUSH1 0x40 MLOAD RETURNDATASIZE PUSH1 0x1F NOT PUSH1 0x1F DUP3 ADD AND DUP3 ADD DUP1 PUSH1 0x40 MSTORE POP DUP2 ADD SWAP1 PUSH2 0x1380 SWAP2 SWAP1 PUSH2 0x30AD JUMP JUMPDEST SWAP1 POP PUSH2 0x138F PUSH3 0x93A80 DUP3 PUSH2 0x3023 JUMP JUMPDEST PUSH1 0x1 PUSH1 0x1 PUSH1 0xA0 SHL SUB DUP5 AND PUSH1 0x0 SWAP1 DUP2 MSTORE PUSH1 0x2 PUSH1 0x20 MSTORE PUSH1 0x40 SWAP1 KECCAK256 SLOAD GT ISZERO PUSH2 0x13FA JUMPI PUSH1 0x40 MLOAD PUSH3 0x461BCD PUSH1 0xE5 SHL DUP2 MSTORE PUSH1 0x20 PUSH1 0x4 DUP3 ADD MSTORE PUSH1 0x18 PUSH1 0x24 DUP3 ADD MSTORE PUSH32 0x50726F76696465642072657761726420746F6F20686967680000000000000000 PUSH1 0x44 DUP3 ADD MSTORE PUSH1 0x64 ADD PUSH1 0x40 MLOAD DUP1 SWAP2 SUB SWAP1 REVERT JUMPDEST PUSH2 0x1407 PUSH3 0x93A80 TIMESTAMP PUSH2 0x3045 JUMP JUMPDEST PUSH1 0x1 PUSH1 0x1 PUSH1 0xA0 SHL SUB DUP5 AND PUSH1 0x0 SWAP1 DUP2 MSTORE PUSH1 0x3 PUSH1 0x20 SWAP1 DUP2 MSTORE PUSH1 0x40 DUP1 DUP4 KECCAK256 SWAP4 SWAP1 SWAP4 SSTORE PUSH1 0xC SWAP1 MSTORE KECCAK256 SLOAD PUSH1 0xFF AND PUSH2 0x1499 JUMPI PUSH1 0x1 PUSH1 0x1 PUSH1 0xA0 SHL SUB DUP4 AND PUSH1 0x0 DUP2 DUP2 MSTORE PUSH1 0xC PUSH1 0x20 MSTORE PUSH1 0x40 DUP2 KECCAK256 DUP1 SLOAD PUSH1 0xFF NOT AND PUSH1 0x1 SWAP1 DUP2 OR SWAP1 SWAP2 SSTORE PUSH1 0xB DUP1 SLOAD SWAP2 DUP3 ADD DUP2 SSTORE SWAP1 SWAP2 MSTORE PUSH32 0x175B7A638427703F0DBE7BB9BBF987A2551717B34E79F33B5B1008D1FA01DB9 ADD DUP1 SLOAD PUSH1 0x1 PUSH1 0x1 PUSH1 0xA0 SHL SUB NOT AND SWAP1 SWAP2 OR SWAP1 SSTORE JUMPDEST PUSH1 0x40 MLOAD DUP3 DUP2 MSTORE PUSH1 0x1 PUSH1 0x1 PUSH1 0xA0 SHL SUB DUP5 AND SWAP1 CALLER SWAP1 PUSH32 0xF70D5C697DE7EA828DF48E5C4573CB2194C659F1901F70110C52B066DCF50826 SWAP1 PUSH1 0x20 ADD PUSH1 0x40 MLOAD DUP1 SWAP2 SUB SWAP1 LOG3 POP POP PUSH1 0x1 PUSH1 0x15 SSTORE POP JUMP JUMPDEST PUSH1 0x40 MLOAD PUSH4 0x70A08231 PUSH1 0xE0 SHL DUP2 MSTORE CALLER PUSH1 0x4 DUP3 ADD MSTORE PUSH2 0x1575 SWAP1 PUSH32 0x0 PUSH1 0x1 PUSH1 0x1 PUSH1 0xA0 SHL SUB AND SWAP1 PUSH4 0x70A08231 SWAP1 PUSH1 0x24 ADD PUSH1 0x20 PUSH1 0x40 MLOAD DUP1 DUP4 SUB DUP2 DUP7 GAS STATICCALL ISZERO DUP1 ISZERO PUSH2 0x154B JUMPI RETURNDATASIZE PUSH1 0x0 DUP1 RETURNDATACOPY RETURNDATASIZE PUSH1 0x0 REVERT JUMPDEST POP POP POP POP PUSH1 0x40 MLOAD RETURNDATASIZE PUSH1 0x1F NOT PUSH1 0x1F DUP3 ADD AND DUP3 ADD DUP1 PUSH1 0x40 MSTORE POP DUP2 ADD SWAP1 PUSH2 0x156F SWAP2 SWAP1 PUSH2 0x30AD JUMP JUMPDEST DUP3 PUSH2 0x17F4 JUMP JUMPDEST POP JUMP JUMPDEST PUSH1 0x0 DUP1 PUSH1 0x15 SLOAD PUSH1 0x1 EQ PUSH2 0x158A JUMPI PUSH1 0x0 DUP1 REVERT JUMPDEST PUSH1 0x2 PUSH1 0x15 SSTORE PUSH2 0x1597 PUSH2 0x27C7 JUMP JUMPDEST SWAP2 POP SWAP2 POP PUSH1 0x1 PUSH1 0x15 SSTORE SWAP1 SWAP2 JUMP JUMPDEST PUSH1 0x1 PUSH1 0x1 PUSH1 0xA0 SHL SUB DUP2 AND PUSH1 0x0 SWAP1 DUP2 MSTORE PUSH1 0x8 PUSH1 0x20 SWAP1 DUP2 MSTORE PUSH1 0x40 DUP1 DUP4 KECCAK256 SLOAD PUSH1 0xA SWAP1 SWAP3 MSTORE DUP3 KECCAK256 SLOAD DUP3 PUSH1 0x64 PUSH2 0x15D6 DUP4 PUSH1 0x28 PUSH2 0x305D JUMP JUMPDEST PUSH2 0x15E0 SWAP2 SWAP1 PUSH2 0x3023 JUMP JUMPDEST SWAP1 POP PUSH1 0x0 DUP1 PUSH32 0x0 PUSH1 0x1 PUSH1 0x1 PUSH1 0xA0 SHL SUB AND PUSH4 0x18160DDD PUSH1 0x40 MLOAD DUP2 PUSH4 0xFFFFFFFF AND PUSH1 0xE0 SHL DUP2 MSTORE PUSH1 0x4 ADD PUSH1 0x20 PUSH1 0x40 MLOAD DUP1 DUP4 SUB DUP2 DUP7 GAS STATICCALL ISZERO DUP1 ISZERO PUSH2 0x1643 JUMPI RETURNDATASIZE PUSH1 0x0 DUP1 RETURNDATACOPY RETURNDATASIZE PUSH1 0x0 REVERT JUMPDEST POP POP POP POP PUSH1 0x40 MLOAD RETURNDATASIZE PUSH1 0x1F NOT PUSH1 0x1F DUP3 ADD AND DUP3 ADD DUP1 PUSH1 0x40 MSTORE POP DUP2 ADD SWAP1 PUSH2 0x1667 SWAP2 SWAP1 PUSH2 0x30AD JUMP JUMPDEST PUSH1 0x40 MLOAD PUSH4 0x31A9108F PUSH1 0xE1 SHL DUP2 MSTORE PUSH1 0x4 DUP2 ADD DUP8 SWAP1 MSTORE SWAP1 SWAP2 POP PUSH32 0x0 PUSH1 0x1 PUSH1 0x1 PUSH1 0xA0 SHL SUB AND SWAP1 PUSH4 0x6352211E SWAP1 PUSH1 0x24 ADD PUSH1 0x20 PUSH1 0x40 MLOAD DUP1 DUP4 SUB DUP2 DUP7 GAS STATICCALL ISZERO DUP1 ISZERO PUSH2 0x16CF JUMPI RETURNDATASIZE PUSH1 0x0 DUP1 RETURNDATACOPY RETURNDATASIZE PUSH1 0x0 REVERT JUMPDEST POP POP POP POP PUSH1 0x40 MLOAD RETURNDATASIZE PUSH1 0x1F NOT PUSH1 0x1F DUP3 ADD AND DUP3 ADD DUP1 PUSH1 0x40 MSTORE POP DUP2 ADD SWAP1 PUSH2 0x16F3 SWAP2 SWAP1 PUSH2 0x30C6 JUMP JUMPDEST PUSH1 0x1 PUSH1 0x1 PUSH1 0xA0 SHL SUB AND DUP8 PUSH1 0x1 PUSH1 0x1 PUSH1 0xA0 SHL SUB AND EQ DUP1 ISZERO PUSH2 0x1713 JUMPI POP PUSH1 0x0 DUP2 GT JUMPDEST ISZERO PUSH2 0x17D6 JUMPI PUSH1 0x40 MLOAD PUSH4 0x39F890B5 PUSH1 0xE2 SHL DUP2 MSTORE PUSH1 0x4 DUP2 ADD DUP7 SWAP1 MSTORE PUSH32 0x0 PUSH1 0x1 PUSH1 0x1 PUSH1 0xA0 SHL SUB AND SWAP1 PUSH4 0xE7E242D4 SWAP1 PUSH1 0x24 ADD PUSH1 0x20 PUSH1 0x40 MLOAD DUP1 DUP4 SUB DUP2 DUP7 GAS STATICCALL ISZERO DUP1 ISZERO PUSH2 0x177D JUMPI RETURNDATASIZE PUSH1 0x0 DUP1 RETURNDATACOPY RETURNDATASIZE PUSH1 0x0 REVERT JUMPDEST POP POP POP POP PUSH1 0x40 MLOAD RETURNDATASIZE PUSH1 0x1F NOT PUSH1 0x1F DUP3 ADD AND DUP3 ADD DUP1 PUSH1 0x40 MSTORE POP DUP2 ADD SWAP1 PUSH2 0x17A1 SWAP2 SWAP1 PUSH2 0x30AD JUMP JUMPDEST SWAP2 POP PUSH1 0x64 DUP2 DUP4 PUSH1 0x9 SLOAD PUSH2 0x17B4 SWAP2 SWAP1 PUSH2 0x305D JUMP JUMPDEST PUSH2 0x17BE SWAP2 SWAP1 PUSH2 0x3023 JUMP JUMPDEST PUSH2 0x17C9 SWAP1 PUSH1 0x3C PUSH2 0x305D JUMP JUMPDEST PUSH2 0x17D3 SWAP2 SWAP1 PUSH2 0x3023 JUMP JUMPDEST SWAP2 POP JUMPDEST PUSH2 0x17E9 PUSH2 0x17E3 DUP4 DUP6 PUSH2 0x3045 JUMP JUMPDEST DUP6 PUSH2 0x26C9 JUMP JUMPDEST SWAP8 SWAP7 POP POP POP POP POP POP POP JUMP JUMPDEST PUSH1 0x15 SLOAD PUSH1 0x1 EQ PUSH2 0x1803 JUMPI PUSH1 0x0 DUP1 REVERT JUMPDEST PUSH1 0x2 PUSH1 0x15 SSTORE DUP2 PUSH2 0x1812 JUMPI PUSH1 0x0 DUP1 REVERT JUMPDEST PUSH2 0x183E PUSH32 0x0 CALLER ADDRESS DUP6 PUSH2 0x2C27 JUMP JUMPDEST DUP2 PUSH1 0x9 PUSH1 0x0 DUP3 DUP3 SLOAD PUSH2 0x1850 SWAP2 SWAP1 PUSH2 0x3045 JUMP JUMPDEST SWAP1 SWAP2 SSTORE POP POP CALLER PUSH1 0x0 SWAP1 DUP2 MSTORE PUSH1 0xA PUSH1 0x20 MSTORE PUSH1 0x40 DUP2 KECCAK256 DUP1 SLOAD DUP5 SWAP3 SWAP1 PUSH2 0x1874 SWAP1 DUP5 SWAP1 PUSH2 0x3045 JUMP JUMPDEST SWAP1 SWAP2 SSTORE POP POP DUP1 ISZERO PUSH2 0x19E6 JUMPI PUSH1 0x40 MLOAD PUSH4 0x31A9108F PUSH1 0xE1 SHL DUP2 MSTORE PUSH1 0x4 DUP2 ADD DUP3 SWAP1 MSTORE CALLER SWAP1 PUSH1 0x1 PUSH1 0x1 PUSH1 0xA0 SHL SUB PUSH32 0x0 AND SWAP1 PUSH4 0x6352211E SWAP1 PUSH1 0x24 ADD PUSH1 0x20 PUSH1 0x40 MLOAD DUP1 DUP4 SUB DUP2 DUP7 GAS STATICCALL ISZERO DUP1 ISZERO PUSH2 0x18E6 JUMPI RETURNDATASIZE PUSH1 0x0 DUP1 RETURNDATACOPY RETURNDATASIZE PUSH1 0x0 REVERT JUMPDEST POP POP POP POP PUSH1 0x40 MLOAD RETURNDATASIZE PUSH1 0x1F NOT PUSH1 0x1F DUP3 ADD AND DUP3 ADD DUP1 PUSH1 0x40 MSTORE POP DUP2 ADD SWAP1 PUSH2 0x190A SWAP2 SWAP1 PUSH2 0x30C6 JUMP JUMPDEST PUSH1 0x1 PUSH1 0x1 PUSH1 0xA0 SHL SUB AND EQ PUSH2 0x191D JUMPI PUSH1 0x0 DUP1 REVERT JUMPDEST CALLER PUSH1 0x0 SWAP1 DUP2 MSTORE PUSH1 0x8 PUSH1 0x20 MSTORE PUSH1 0x40 SWAP1 KECCAK256 SLOAD PUSH2 0x19C6 JUMPI CALLER PUSH1 0x0 DUP2 DUP2 MSTORE PUSH1 0x8 PUSH1 0x20 MSTORE PUSH1 0x40 SWAP1 DUP2 SWAP1 KECCAK256 DUP4 SWAP1 SSTORE MLOAD PUSH4 0x698473E3 PUSH1 0xE0 SHL DUP2 MSTORE PUSH1 0x4 DUP2 ADD DUP4 SWAP1 MSTORE PUSH1 0x24 DUP2 ADD SWAP2 SWAP1 SWAP2 MSTORE PUSH1 0x1 PUSH1 0x1 PUSH1 0xA0 SHL SUB PUSH32 0x0 AND SWAP1 PUSH4 0x698473E3 SWAP1 PUSH1 0x44 ADD PUSH1 0x0 PUSH1 0x40 MLOAD DUP1 DUP4 SUB DUP2 PUSH1 0x0 DUP8 DUP1 EXTCODESIZE ISZERO DUP1 ISZERO PUSH2 0x19AD JUMPI PUSH1 0x0 DUP1 REVERT JUMPDEST POP GAS CALL ISZERO DUP1 ISZERO PUSH2 0x19C1 JUMPI RETURNDATASIZE PUSH1 0x0 DUP1 RETURNDATACOPY RETURNDATASIZE PUSH1 0x0 REVERT JUMPDEST POP POP POP POP JUMPDEST CALLER PUSH1 0x0 SWAP1 DUP2 MSTORE PUSH1 0x8 PUSH1 0x20 MSTORE PUSH1 0x40 SWAP1 KECCAK256 SLOAD DUP2 EQ PUSH2 0x19E1 JUMPI PUSH1 0x0 DUP1 REVERT JUMPDEST PUSH2 0x19F8 JUMP JUMPDEST POP CALLER PUSH1 0x0 SWAP1 DUP2 MSTORE PUSH1 0x8 PUSH1 0x20 MSTORE PUSH1 0x40 SWAP1 KECCAK256 SLOAD JUMPDEST CALLER PUSH1 0x0 SWAP1 DUP2 MSTORE PUSH1 0x1 PUSH1 0x20 MSTORE PUSH1 0x40 DUP2 KECCAK256 SLOAD DUP2 SLOAD SWAP1 SWAP2 DUP3 SWAP2 DUP2 SWAP1 PUSH2 0x1A1B SWAP1 DUP5 SWAP1 PUSH2 0x300C JUMP JUMPDEST SWAP1 SWAP2 SSTORE POP PUSH2 0x1A2A SWAP1 POP CALLER PUSH2 0x15A4 JUMP JUMPDEST CALLER PUSH1 0x0 SWAP1 DUP2 MSTORE PUSH1 0x1 PUSH1 0x20 MSTORE PUSH1 0x40 DUP2 KECCAK256 DUP3 SWAP1 SSTORE DUP1 SLOAD SWAP2 SWAP3 POP DUP3 SWAP2 DUP2 SWAP1 PUSH2 0x1A50 SWAP1 DUP5 SWAP1 PUSH2 0x3045 JUMP JUMPDEST SWAP1 SWAP2 SSTORE POP PUSH2 0x1A60 SWAP1 POP CALLER DUP3 PUSH2 0x23BC JUMP JUMPDEST PUSH2 0x1A68 PUSH2 0x24C7 JUMP JUMPDEST PUSH1 0x40 MLOAD PUSH4 0x530E389D PUSH1 0xE1 SHL DUP2 MSTORE PUSH1 0x4 DUP2 ADD DUP4 SWAP1 MSTORE CALLER PUSH1 0x24 DUP3 ADD MSTORE PUSH1 0x44 DUP2 ADD DUP5 SWAP1 MSTORE PUSH32 0x0 PUSH1 0x1 PUSH1 0x1 PUSH1 0xA0 SHL SUB AND SWAP1 PUSH4 0xA61C713A SWAP1 PUSH1 0x64 ADD PUSH1 0x0 PUSH1 0x40 MLOAD DUP1 DUP4 SUB DUP2 PUSH1 0x0 DUP8 DUP1 EXTCODESIZE ISZERO DUP1 ISZERO PUSH2 0x1AD7 JUMPI PUSH1 0x0 DUP1 REVERT JUMPDEST POP GAS CALL ISZERO DUP1 ISZERO PUSH2 0x1AEB JUMPI RETURNDATASIZE PUSH1 0x0 DUP1 RETURNDATACOPY RETURNDATASIZE PUSH1 0x0 REVERT JUMPDEST POP POP PUSH1 0x40 DUP1 MLOAD DUP6 DUP2 MSTORE PUSH1 0x20 DUP2 ADD DUP8 SWAP1 MSTORE CALLER SWAP4 POP PUSH32 0x90890809C654F11D6E72A28FA60149770A0D11EC6C92319D6CEB2BB0A4EA1A15 SWAP3 POP ADD JUMPDEST PUSH1 0x40 MLOAD DUP1 SWAP2 SUB SWAP1 LOG2 POP POP PUSH1 0x1 PUSH1 0x15 SSTORE POP JUMP JUMPDEST PUSH1 0x0 DUP1 SLOAD PUSH2 0x1B59 JUMPI POP PUSH1 0x1 PUSH1 0x1 PUSH1 0xA0 SHL SUB AND PUSH1 0x0 SWAP1 DUP2 MSTORE PUSH1 0x5 PUSH1 0x20 MSTORE PUSH1 0x40 SWAP1 KECCAK256 SLOAD SWAP1 JUMP JUMPDEST PUSH1 0x0 DUP1 SLOAD PUSH1 0x1 PUSH1 0x1 PUSH1 0xA0 SHL SUB DUP5 AND DUP3 MSTORE PUSH1 0x2 PUSH1 0x20 SWAP1 DUP2 MSTORE PUSH1 0x40 DUP1 DUP5 KECCAK256 SLOAD PUSH1 0x4 DUP4 MSTORE DUP2 DUP6 KECCAK256 SLOAD PUSH1 0x3 SWAP1 SWAP4 MSTORE SWAP4 KECCAK256 SLOAD SWAP2 SWAP3 PUSH8 0xDE0B6B3A7640000 SWAP3 SWAP1 SWAP2 PUSH2 0x1B9D SWAP2 PUSH2 0x26C9 JUMP JUMPDEST PUSH2 0x1BA6 DUP7 PUSH2 0xF5B JUMP JUMPDEST PUSH2 0x1BB0 SWAP2 SWAP1 PUSH2 0x300C JUMP JUMPDEST PUSH2 0x1BBA SWAP2 SWAP1 PUSH2 0x305D JUMP JUMPDEST PUSH2 0x1BC4 SWAP2 SWAP1 PUSH2 0x305D JUMP JUMPDEST PUSH2 0x1BCE SWAP2 SWAP1 PUSH2 0x3023 JUMP JUMPDEST PUSH1 0x1 PUSH1 0x1 PUSH1 0xA0 SHL SUB DUP4 AND PUSH1 0x0 SWAP1 DUP2 MSTORE PUSH1 0x5 PUSH1 0x20 MSTORE PUSH1 0x40 SWAP1 KECCAK256 SLOAD PUSH2 0x85C SWAP2 SWAP1 PUSH2 0x3045 JUMP JUMPDEST PUSH1 0xB DUP2 DUP2 SLOAD DUP2 LT PUSH2 0x1C01 JUMPI PUSH1 0x0 DUP1 REVERT JUMPDEST PUSH1 0x0 SWAP2 DUP3 MSTORE PUSH1 0x20 SWAP1 SWAP2 KECCAK256 ADD SLOAD PUSH1 0x1 PUSH1 0x1 PUSH1 0xA0 SHL SUB AND SWAP1 POP DUP2 JUMP JUMPDEST PUSH1 0x1 PUSH1 0x1 PUSH1 0xA0 SHL SUB DUP3 AND PUSH1 0x0 SWAP1 DUP2 MSTORE PUSH1 0x12 PUSH1 0x20 MSTORE PUSH1 0x40 DUP2 KECCAK256 SLOAD DUP2 SWAP1 DUP1 PUSH2 0x1C48 JUMPI PUSH1 0x0 DUP1 SWAP3 POP SWAP3 POP POP PUSH2 0x1E33 JUMP JUMPDEST PUSH1 0x1 PUSH1 0x1 PUSH1 0xA0 SHL SUB DUP6 AND PUSH1 0x0 SWAP1 DUP2 MSTORE PUSH1 0x11 PUSH1 0x20 MSTORE PUSH1 0x40 DUP2 KECCAK256 DUP6 SWAP2 PUSH2 0x1C6D PUSH1 0x1 DUP6 PUSH2 0x300C JUMP JUMPDEST DUP2 MSTORE PUSH1 0x20 ADD SWAP1 DUP2 MSTORE PUSH1 0x20 ADD PUSH1 0x0 KECCAK256 PUSH1 0x0 ADD SLOAD GT PUSH2 0x1D0A JUMPI PUSH1 0x1 PUSH1 0x1 PUSH1 0xA0 SHL SUB DUP6 AND PUSH1 0x0 SWAP1 DUP2 MSTORE PUSH1 0x11 PUSH1 0x20 MSTORE PUSH1 0x40 DUP2 KECCAK256 SWAP1 PUSH2 0x1CA8 PUSH1 0x1 DUP5 PUSH2 0x300C JUMP JUMPDEST DUP2 MSTORE PUSH1 0x20 ADD SWAP1 DUP2 MSTORE PUSH1 0x20 ADD PUSH1 0x0 KECCAK256 PUSH1 0x1 ADD SLOAD PUSH1 0x11 PUSH1 0x0 DUP8 PUSH1 0x1 PUSH1 0x1 PUSH1 0xA0 SHL SUB AND PUSH1 0x1 PUSH1 0x1 PUSH1 0xA0 SHL SUB AND DUP2 MSTORE PUSH1 0x20 ADD SWAP1 DUP2 MSTORE PUSH1 0x20 ADD PUSH1 0x0 KECCAK256 PUSH1 0x0 PUSH1 0x1 DUP5 PUSH2 0x1CEE SWAP2 SWAP1 PUSH2 0x300C JUMP JUMPDEST DUP2 MSTORE PUSH1 0x20 ADD SWAP1 DUP2 MSTORE PUSH1 0x20 ADD PUSH1 0x0 KECCAK256 PUSH1 0x0 ADD SLOAD SWAP3 POP SWAP3 POP POP PUSH2 0x1E33 JUMP JUMPDEST PUSH1 0x1 PUSH1 0x1 PUSH1 0xA0 SHL SUB DUP6 AND PUSH1 0x0 SWAP1 DUP2 MSTORE PUSH1 0x11 PUSH1 0x20 SWAP1 DUP2 MSTORE PUSH1 0x40 DUP1 DUP4 KECCAK256 DUP4 DUP1 MSTORE SWAP1 SWAP2 MSTORE SWAP1 KECCAK256 SLOAD DUP5 LT ISZERO PUSH2 0x1D42 JUMPI PUSH1 0x0 DUP1 SWAP3 POP SWAP3 POP POP PUSH2 0x1E33 JUMP JUMPDEST PUSH1 0x0 DUP1 PUSH2 0x1D50 PUSH1 0x1 DUP5 PUSH2 0x300C JUMP JUMPDEST SWAP1 POP JUMPDEST DUP2 DUP2 GT ISZERO PUSH2 0x1E02 JUMPI PUSH1 0x0 PUSH1 0x2 PUSH2 0x1D69 DUP5 DUP5 PUSH2 0x300C JUMP JUMPDEST PUSH2 0x1D73 SWAP2 SWAP1 PUSH2 0x3023 JUMP JUMPDEST PUSH2 0x1D7D SWAP1 DUP4 PUSH2 0x300C JUMP JUMPDEST PUSH1 0x1 PUSH1 0x1 PUSH1 0xA0 SHL SUB DUP10 AND PUSH1 0x0 SWAP1 DUP2 MSTORE PUSH1 0x11 PUSH1 0x20 SWAP1 DUP2 MSTORE PUSH1 0x40 DUP1 DUP4 KECCAK256 DUP5 DUP5 MSTORE DUP3 MSTORE SWAP2 DUP3 SWAP1 KECCAK256 DUP3 MLOAD DUP1 DUP5 ADD SWAP1 SWAP4 MSTORE DUP1 SLOAD DUP1 DUP5 MSTORE PUSH1 0x1 SWAP1 SWAP2 ADD SLOAD SWAP2 DUP4 ADD SWAP2 SWAP1 SWAP2 MSTORE SWAP2 SWAP3 POP SWAP1 DUP9 EQ ISZERO PUSH2 0x1DDC JUMPI PUSH1 0x20 DUP2 ADD MLOAD SWAP1 MLOAD SWAP1 SWAP7 POP SWAP5 POP PUSH2 0x1E33 SWAP4 POP POP POP POP JUMP JUMPDEST DUP1 MLOAD DUP9 GT ISZERO PUSH2 0x1DED JUMPI DUP2 SWAP4 POP PUSH2 0x1DFB JUMP JUMPDEST PUSH2 0x1DF8 PUSH1 0x1 DUP4 PUSH2 0x300C JUMP JUMPDEST SWAP3 POP JUMPDEST POP POP PUSH2 0x1D53 JUMP JUMPDEST POP PUSH1 0x1 PUSH1 0x1 PUSH1 0xA0 SHL SUB DUP7 AND PUSH1 0x0 SWAP1 DUP2 MSTORE PUSH1 0x11 PUSH1 0x20 SWAP1 DUP2 MSTORE PUSH1 0x40 DUP1 DUP4 KECCAK256 SWAP4 DUP4 MSTORE SWAP3 SWAP1 MSTORE KECCAK256 PUSH1 0x1 DUP2 ADD SLOAD SWAP1 SLOAD SWAP1 SWAP4 POP SWAP2 POP POP JUMPDEST SWAP3 POP SWAP3 SWAP1 POP JUMP JUMPDEST PUSH1 0x15 SLOAD PUSH1 0x1 EQ PUSH2 0x1E49 JUMPI PUSH1 0x0 DUP1 REVERT JUMPDEST PUSH1 0x2 PUSH1 0x15 DUP2 SWAP1 SSTORE POP DUP2 PUSH1 0x9 PUSH1 0x0 DUP3 DUP3 SLOAD PUSH2 0x1E63 SWAP2 SWAP1 PUSH2 0x300C JUMP JUMPDEST SWAP1 SWAP2 SSTORE POP POP CALLER PUSH1 0x0 SWAP1 DUP2 MSTORE PUSH1 0xA PUSH1 0x20 MSTORE PUSH1 0x40 DUP2 KECCAK256 DUP1 SLOAD DUP5 SWAP3 SWAP1 PUSH2 0x1E87 SWAP1 DUP5 SWAP1 PUSH2 0x300C JUMP JUMPDEST SWAP1 SWAP2 SSTORE POP PUSH2 0x1EB8 SWAP1 POP PUSH32 0x0 CALLER DUP5 PUSH2 0x22BC JUMP JUMPDEST DUP1 ISZERO PUSH2 0x1F72 JUMPI CALLER PUSH1 0x0 SWAP1 DUP2 MSTORE PUSH1 0x8 PUSH1 0x20 MSTORE PUSH1 0x40 SWAP1 KECCAK256 SLOAD DUP2 EQ PUSH2 0x1ED9 JUMPI PUSH1 0x0 DUP1 REVERT JUMPDEST CALLER PUSH1 0x0 DUP2 DUP2 MSTORE PUSH1 0x8 PUSH1 0x20 MSTORE PUSH1 0x40 DUP1 DUP3 KECCAK256 SWAP2 SWAP1 SWAP2 SSTORE MLOAD PUSH4 0x411B1F77 PUSH1 0xE0 SHL DUP2 MSTORE PUSH1 0x4 DUP2 ADD DUP4 SWAP1 MSTORE PUSH1 0x24 DUP2 ADD SWAP2 SWAP1 SWAP2 MSTORE PUSH1 0x1 PUSH1 0x1 PUSH1 0xA0 SHL SUB PUSH32 0x0 AND SWAP1 PUSH4 0x411B1F77 SWAP1 PUSH1 0x44 ADD PUSH1 0x0 PUSH1 0x40 MLOAD DUP1 DUP4 SUB DUP2 PUSH1 0x0 DUP8 DUP1 EXTCODESIZE ISZERO DUP1 ISZERO PUSH2 0x1F55 JUMPI PUSH1 0x0 DUP1 REVERT JUMPDEST POP GAS CALL ISZERO DUP1 ISZERO PUSH2 0x1F69 JUMPI RETURNDATASIZE PUSH1 0x0 DUP1 RETURNDATACOPY RETURNDATASIZE PUSH1 0x0 REVERT JUMPDEST POP POP POP POP PUSH2 0x1F84 JUMP JUMPDEST POP CALLER PUSH1 0x0 SWAP1 DUP2 MSTORE PUSH1 0x8 PUSH1 0x20 MSTORE PUSH1 0x40 SWAP1 KECCAK256 SLOAD JUMPDEST CALLER PUSH1 0x0 SWAP1 DUP2 MSTORE PUSH1 0x1 PUSH1 0x20 MSTORE PUSH1 0x40 DUP2 KECCAK256 SLOAD DUP2 SLOAD SWAP1 SWAP2 DUP3 SWAP2 DUP2 SWAP1 PUSH2 0x1FA7 SWAP1 DUP5 SWAP1 PUSH2 0x300C JUMP JUMPDEST SWAP1 SWAP2 SSTORE POP PUSH2 0x1FB6 SWAP1 POP CALLER PUSH2 0x15A4 JUMP JUMPDEST CALLER PUSH1 0x0 SWAP1 DUP2 MSTORE PUSH1 0x1 PUSH1 0x20 MSTORE PUSH1 0x40 DUP2 KECCAK256 DUP3 SWAP1 SSTORE DUP1 SLOAD SWAP2 SWAP3 POP DUP3 SWAP2 DUP2 SWAP1 PUSH2 0x1FDC SWAP1 DUP5 SWAP1 PUSH2 0x3045 JUMP JUMPDEST SWAP1 SWAP2 SSTORE POP POP CALLER PUSH1 0x0 DUP2 DUP2 MSTORE PUSH1 0x1 PUSH1 0x20 MSTORE PUSH1 0x40 SWAP1 KECCAK256 SLOAD PUSH2 0x1FFB SWAP2 SWAP1 PUSH2 0x23BC JUMP JUMPDEST PUSH2 0x2003 PUSH2 0x24C7 JUMP JUMPDEST PUSH1 0x40 MLOAD PUSH4 0x3AA53B91 PUSH1 0xE2 SHL DUP2 MSTORE PUSH1 0x4 DUP2 ADD DUP4 SWAP1 MSTORE CALLER PUSH1 0x24 DUP3 ADD MSTORE PUSH1 0x44 DUP2 ADD DUP5 SWAP1 MSTORE PUSH32 0x0 PUSH1 0x1 PUSH1 0x1 PUSH1 0xA0 SHL SUB AND SWAP1 PUSH4 0xEA94EE44 SWAP1 PUSH1 0x64 ADD PUSH1 0x0 PUSH1 0x40 MLOAD DUP1 DUP4 SUB DUP2 PUSH1 0x0 DUP8 DUP1 EXTCODESIZE ISZERO DUP1 ISZERO PUSH2 0x2072 JUMPI PUSH1 0x0 DUP1 REVERT JUMPDEST POP GAS CALL ISZERO DUP1 ISZERO PUSH2 0x2086 JUMPI RETURNDATASIZE PUSH1 0x0 DUP1 RETURNDATACOPY RETURNDATASIZE PUSH1 0x0 REVERT JUMPDEST POP POP PUSH1 0x40 DUP1 MLOAD DUP6 DUP2 MSTORE PUSH1 0x20 DUP2 ADD DUP8 SWAP1 MSTORE CALLER SWAP4 POP PUSH32 0xF279E6A1F5E320CCA91135676D9CB6E44CA8A08C0B88342BCDB1144F6511B568 SWAP3 POP ADD PUSH2 0x1B23 JUMP JUMPDEST PUSH1 0x0 DUP2 DUP4 LT ISZERO PUSH2 0x20D2 JUMPI DUP2 PUSH2 0xFC5 JUMP JUMPDEST POP SWAP1 SWAP2 SWAP1 POP JUMP JUMPDEST PUSH1 0x1 PUSH1 0x1 PUSH1 0xA0 SHL SUB DUP2 AND PUSH1 0x0 SWAP1 DUP2 MSTORE PUSH1 0x4 PUSH1 0x20 SWAP1 DUP2 MSTORE PUSH1 0x40 DUP1 DUP4 KECCAK256 SLOAD PUSH1 0x5 SWAP1 SWAP3 MSTORE DUP3 KECCAK256 SLOAD PUSH1 0x10 SLOAD DUP4 SWAP3 SWAP2 SWAP1 PUSH2 0x2111 JUMPI SWAP5 SWAP1 SWAP4 POP SWAP2 POP POP JUMP JUMPDEST PUSH1 0x1 PUSH1 0x1 PUSH1 0xA0 SHL SUB DUP6 AND PUSH1 0x0 SWAP1 DUP2 MSTORE PUSH1 0x2 PUSH1 0x20 MSTORE PUSH1 0x40 SWAP1 KECCAK256 SLOAD PUSH2 0x2138 JUMPI SWAP5 TIMESTAMP SWAP5 POP SWAP3 POP POP POP JUMP JUMPDEST PUSH1 0x0 PUSH2 0x2143 DUP4 PUSH2 0xF7F JUMP JUMPDEST SWAP1 POP PUSH1 0x0 PUSH1 0x1 PUSH1 0x10 SLOAD PUSH2 0x2156 SWAP2 SWAP1 PUSH2 0x300C JUMP JUMPDEST SWAP1 POP PUSH1 0x1 PUSH2 0x2164 DUP4 DUP4 PUSH2 0x300C JUMP JUMPDEST GT ISZERO PUSH2 0x223C JUMPI DUP2 JUMPDEST PUSH2 0x2177 PUSH1 0x1 DUP4 PUSH2 0x300C JUMP JUMPDEST DUP2 LT ISZERO PUSH2 0x223A JUMPI PUSH1 0x0 DUP2 DUP2 MSTORE PUSH1 0xF PUSH1 0x20 SWAP1 DUP2 MSTORE PUSH1 0x40 SWAP2 DUP3 SWAP1 KECCAK256 DUP3 MLOAD DUP1 DUP5 ADD SWAP1 SWAP4 MSTORE DUP1 SLOAD DUP4 MSTORE PUSH1 0x1 ADD SLOAD SWAP1 DUP3 ADD DUP2 SWAP1 MSTORE ISZERO PUSH2 0x2227 JUMPI PUSH1 0x0 PUSH1 0xF DUP2 PUSH2 0x21BB DUP6 PUSH1 0x1 PUSH2 0x3045 JUMP JUMPDEST DUP2 MSTORE PUSH1 0x20 ADD SWAP1 DUP2 MSTORE PUSH1 0x20 ADD PUSH1 0x0 KECCAK256 PUSH1 0x40 MLOAD DUP1 PUSH1 0x40 ADD PUSH1 0x40 MSTORE SWAP1 DUP2 PUSH1 0x0 DUP3 ADD SLOAD DUP2 MSTORE PUSH1 0x20 ADD PUSH1 0x1 DUP3 ADD SLOAD DUP2 MSTORE POP POP SWAP1 POP PUSH1 0x0 DUP1 PUSH2 0x2206 DUP13 DUP5 PUSH1 0x0 ADD MLOAD DUP7 PUSH1 0x0 ADD MLOAD DUP8 PUSH1 0x20 ADD MLOAD DUP14 PUSH2 0x2D1F JUMP JUMPDEST SWAP1 SWAP3 POP SWAP1 POP PUSH2 0x2215 DUP3 DUP10 PUSH2 0x3045 JUMP JUMPDEST SWAP8 POP PUSH2 0x2222 DUP13 DUP10 DUP4 PUSH2 0x26D8 JUMP JUMPDEST SWAP8 POP POP POP JUMPDEST POP DUP1 PUSH2 0x2232 DUP2 PUSH2 0x307C JUMP JUMPDEST SWAP2 POP POP PUSH2 0x216C JUMP JUMPDEST POP JUMPDEST PUSH1 0x0 DUP2 DUP2 MSTORE PUSH1 0xF PUSH1 0x20 SWAP1 DUP2 MSTORE PUSH1 0x40 SWAP2 DUP3 SWAP1 KECCAK256 DUP3 MLOAD DUP1 DUP5 ADD SWAP1 SWAP4 MSTORE DUP1 SLOAD DUP4 MSTORE PUSH1 0x1 ADD SLOAD SWAP1 DUP3 ADD DUP2 SWAP1 MSTORE ISZERO PUSH2 0x22AE JUMPI PUSH1 0x0 PUSH2 0x228F DUP10 PUSH2 0x2278 DUP12 PUSH2 0xF5B JUMP JUMPDEST DUP5 MLOAD PUSH2 0x2284 SWAP1 DUP11 PUSH2 0x20C2 JUMP JUMPDEST DUP6 PUSH1 0x20 ADD MLOAD DUP11 PUSH2 0x2D1F JUMP JUMPDEST POP SWAP1 POP PUSH2 0x229C DUP2 DUP7 PUSH2 0x3045 JUMP JUMPDEST SWAP5 POP PUSH2 0x22A9 DUP10 DUP7 TIMESTAMP PUSH2 0x26D8 JUMP JUMPDEST TIMESTAMP SWAP6 POP POP JUMPDEST POP SWAP2 SWAP7 SWAP3 SWAP6 POP SWAP2 SWAP4 POP POP POP POP JUMP JUMPDEST PUSH1 0x0 DUP4 PUSH1 0x1 PUSH1 0x1 PUSH1 0xA0 SHL SUB AND EXTCODESIZE GT PUSH2 0x22D3 JUMPI PUSH1 0x0 DUP1 REVERT JUMPDEST PUSH1 0x40 MLOAD PUSH1 0x1 PUSH1 0x1 PUSH1 0xA0 SHL SUB DUP4 DUP2 AND PUSH1 0x24 DUP4 ADD MSTORE PUSH1 0x44 DUP3 ADD DUP4 SWAP1 MSTORE PUSH1 0x0 SWAP2 DUP3 SWAP2 DUP7 AND SWAP1 PUSH4 0xA9059CBB PUSH1 0xE0 SHL SWAP1 PUSH1 0x64 ADD JUMPDEST PUSH1 0x40 DUP1 MLOAD PUSH1 0x1F NOT DUP2 DUP5 SUB ADD DUP2 MSTORE SWAP2 DUP2 MSTORE PUSH1 0x20 DUP3 ADD DUP1 MLOAD PUSH1 0x1 PUSH1 0x1 PUSH1 0xE0 SHL SUB AND PUSH1 0x1 PUSH1 0x1 PUSH1 0xE0 SHL SUB NOT SWAP1 SWAP5 AND SWAP4 SWAP1 SWAP4 OR SWAP1 SWAP3 MSTORE SWAP1 MLOAD PUSH2 0x2340 SWAP2 SWAP1 PUSH2 0x30E3 JUMP JUMPDEST PUSH1 0x0 PUSH1 0x40 MLOAD DUP1 DUP4 SUB DUP2 PUSH1 0x0 DUP7 GAS CALL SWAP2 POP POP RETURNDATASIZE DUP1 PUSH1 0x0 DUP2 EQ PUSH2 0x237D JUMPI PUSH1 0x40 MLOAD SWAP2 POP PUSH1 0x1F NOT PUSH1 0x3F RETURNDATASIZE ADD AND DUP3 ADD PUSH1 0x40 MSTORE RETURNDATASIZE DUP3 MSTORE RETURNDATASIZE PUSH1 0x0 PUSH1 0x20 DUP5 ADD RETURNDATACOPY PUSH2 0x2382 JUMP JUMPDEST PUSH1 0x60 SWAP2 POP JUMPDEST POP SWAP2 POP SWAP2 POP DUP2 DUP1 ISZERO PUSH2 0x23AC JUMPI POP DUP1 MLOAD ISZERO DUP1 PUSH2 0x23AC JUMPI POP DUP1 DUP1 PUSH1 0x20 ADD SWAP1 MLOAD DUP2 ADD SWAP1 PUSH2 0x23AC SWAP2 SWAP1 PUSH2 0x311E JUMP JUMPDEST PUSH2 0x23B5 JUMPI PUSH1 0x0 DUP1 REVERT JUMPDEST POP POP POP POP POP JUMP JUMPDEST PUSH1 0x1 PUSH1 0x1 PUSH1 0xA0 SHL SUB DUP3 AND PUSH1 0x0 SWAP1 DUP2 MSTORE PUSH1 0xE PUSH1 0x20 MSTORE PUSH1 0x40 SWAP1 KECCAK256 SLOAD TIMESTAMP SWAP1 DUP1 ISZERO DUP1 ISZERO SWAP1 PUSH2 0x241A JUMPI POP PUSH1 0x1 PUSH1 0x1 PUSH1 0xA0 SHL SUB DUP5 AND PUSH1 0x0 SWAP1 DUP2 MSTORE PUSH1 0xD PUSH1 0x20 MSTORE PUSH1 0x40 DUP2 KECCAK256 DUP4 SWAP2 PUSH2 0x2406 PUSH1 0x1 DUP6 PUSH2 0x300C JUMP JUMPDEST DUP2 MSTORE PUSH1 0x20 ADD SWAP1 DUP2 MSTORE PUSH1 0x20 ADD PUSH1 0x0 KECCAK256 PUSH1 0x0 ADD SLOAD EQ JUMPDEST ISZERO PUSH2 0x245D JUMPI PUSH1 0x1 PUSH1 0x1 PUSH1 0xA0 SHL SUB DUP5 AND PUSH1 0x0 SWAP1 DUP2 MSTORE PUSH1 0xD PUSH1 0x20 MSTORE PUSH1 0x40 DUP2 KECCAK256 DUP5 SWAP2 PUSH2 0x2444 PUSH1 0x1 DUP6 PUSH2 0x300C JUMP JUMPDEST DUP2 MSTORE PUSH1 0x20 DUP2 ADD SWAP2 SWAP1 SWAP2 MSTORE PUSH1 0x40 ADD PUSH1 0x0 KECCAK256 PUSH1 0x1 ADD SSTORE PUSH2 0x24C1 JUMP JUMPDEST PUSH1 0x40 DUP1 MLOAD DUP1 DUP3 ADD DUP3 MSTORE DUP4 DUP2 MSTORE PUSH1 0x20 DUP1 DUP3 ADD DUP7 DUP2 MSTORE PUSH1 0x1 PUSH1 0x1 PUSH1 0xA0 SHL SUB DUP9 AND PUSH1 0x0 SWAP1 DUP2 MSTORE PUSH1 0xD DUP4 MSTORE DUP5 DUP2 KECCAK256 DUP7 DUP3 MSTORE SWAP1 SWAP3 MSTORE SWAP3 SWAP1 KECCAK256 SWAP1 MLOAD DUP2 SSTORE SWAP1 MLOAD PUSH1 0x1 SWAP2 DUP3 ADD SSTORE PUSH2 0x24A7 SWAP1 DUP3 SWAP1 PUSH2 0x3045 JUMP JUMPDEST PUSH1 0x1 PUSH1 0x1 PUSH1 0xA0 SHL SUB DUP6 AND PUSH1 0x0 SWAP1 DUP2 MSTORE PUSH1 0xE PUSH1 0x20 MSTORE PUSH1 0x40 SWAP1 KECCAK256 SSTORE JUMPDEST POP POP POP POP JUMP JUMPDEST PUSH1 0x10 SLOAD TIMESTAMP DUP2 ISZERO DUP1 ISZERO SWAP1 PUSH2 0x24F9 JUMPI POP DUP1 PUSH1 0xF PUSH1 0x0 PUSH2 0x24E5 PUSH1 0x1 DUP7 PUSH2 0x300C JUMP JUMPDEST DUP2 MSTORE PUSH1 0x20 ADD SWAP1 DUP2 MSTORE PUSH1 0x20 ADD PUSH1 0x0 KECCAK256 PUSH1 0x0 ADD SLOAD EQ JUMPDEST ISZERO PUSH2 0x252A JUMPI PUSH1 0x0 SLOAD PUSH1 0xF PUSH1 0x0 PUSH1 0x1 DUP6 PUSH2 0x2512 SWAP2 SWAP1 PUSH2 0x300C JUMP JUMPDEST DUP2 MSTORE PUSH1 0x20 DUP2 ADD SWAP2 SWAP1 SWAP2 MSTORE PUSH1 0x40 ADD PUSH1 0x0 KECCAK256 PUSH1 0x1 ADD SSTORE POP POP JUMP JUMPDEST PUSH1 0x40 DUP1 MLOAD DUP1 DUP3 ADD DUP3 MSTORE DUP3 DUP2 MSTORE PUSH1 0x0 DUP1 SLOAD PUSH1 0x20 DUP1 DUP5 ADD SWAP2 DUP3 MSTORE DUP7 DUP4 MSTORE PUSH1 0xF SWAP1 MSTORE SWAP3 SWAP1 KECCAK256 SWAP1 MLOAD DUP2 SSTORE SWAP1 MLOAD PUSH1 0x1 SWAP2 DUP3 ADD SSTORE PUSH2 0x2563 SWAP1 DUP4 SWAP1 PUSH2 0x3045 JUMP JUMPDEST PUSH1 0x10 SSTORE POP POP JUMP JUMPDEST PUSH1 0x1 PUSH1 0x1 PUSH1 0xA0 SHL SUB DUP3 AND PUSH1 0x0 SWAP1 DUP2 MSTORE PUSH1 0x4 PUSH1 0x20 SWAP1 DUP2 MSTORE PUSH1 0x40 DUP1 DUP4 KECCAK256 SLOAD PUSH1 0x5 SWAP1 SWAP3 MSTORE DUP3 KECCAK256 SLOAD PUSH1 0x10 SLOAD DUP4 SWAP3 SWAP2 SWAP1 PUSH2 0x25A2 JUMPI SWAP3 POP SWAP1 POP PUSH2 0x1E33 JUMP JUMPDEST PUSH1 0x1 PUSH1 0x1 PUSH1 0xA0 SHL SUB DUP7 AND PUSH1 0x0 SWAP1 DUP2 MSTORE PUSH1 0x2 PUSH1 0x20 MSTORE PUSH1 0x40 SWAP1 KECCAK256 SLOAD PUSH2 0x25CB JUMPI SWAP3 POP TIMESTAMP SWAP2 POP PUSH2 0x1E33 SWAP1 POP JUMP JUMPDEST PUSH1 0x0 PUSH2 0x25D6 DUP4 PUSH2 0xF7F JUMP JUMPDEST SWAP1 POP PUSH1 0x0 PUSH2 0x25F2 PUSH1 0x1 PUSH1 0x10 SLOAD PUSH2 0x25EC SWAP2 SWAP1 PUSH2 0x300C JUMP JUMPDEST DUP9 PUSH2 0x26C9 JUMP JUMPDEST SWAP1 POP DUP2 JUMPDEST DUP2 DUP2 LT ISZERO PUSH2 0x26BA JUMPI PUSH1 0x0 DUP2 DUP2 MSTORE PUSH1 0xF PUSH1 0x20 SWAP1 DUP2 MSTORE PUSH1 0x40 SWAP2 DUP3 SWAP1 KECCAK256 DUP3 MLOAD DUP1 DUP5 ADD SWAP1 SWAP4 MSTORE DUP1 SLOAD DUP4 MSTORE PUSH1 0x1 ADD SLOAD SWAP1 DUP3 ADD DUP2 SWAP1 MSTORE ISZERO PUSH2 0x26A7 JUMPI PUSH1 0x0 PUSH1 0xF DUP2 PUSH2 0x263B DUP6 PUSH1 0x1 PUSH2 0x3045 JUMP JUMPDEST DUP2 MSTORE PUSH1 0x20 ADD SWAP1 DUP2 MSTORE PUSH1 0x20 ADD PUSH1 0x0 KECCAK256 PUSH1 0x40 MLOAD DUP1 PUSH1 0x40 ADD PUSH1 0x40 MSTORE SWAP1 DUP2 PUSH1 0x0 DUP3 ADD SLOAD DUP2 MSTORE PUSH1 0x20 ADD PUSH1 0x1 DUP3 ADD SLOAD DUP2 MSTORE POP POP SWAP1 POP PUSH1 0x0 DUP1 PUSH2 0x2686 DUP14 DUP5 PUSH1 0x0 ADD MLOAD DUP7 PUSH1 0x0 ADD MLOAD DUP8 PUSH1 0x20 ADD MLOAD DUP14 PUSH2 0x2D1F JUMP JUMPDEST SWAP1 SWAP3 POP SWAP1 POP PUSH2 0x2695 DUP3 DUP10 PUSH2 0x3045 JUMP JUMPDEST SWAP8 POP PUSH2 0x26A2 DUP14 DUP10 DUP4 PUSH2 0x26D8 JUMP JUMPDEST SWAP8 POP POP POP JUMPDEST POP DUP1 PUSH2 0x26B2 DUP2 PUSH2 0x307C JUMP JUMPDEST SWAP2 POP POP PUSH2 0x25F6 JUMP JUMPDEST POP SWAP2 SWAP8 SWAP3 SWAP7 POP SWAP2 SWAP5 POP POP POP POP POP JUMP JUMPDEST PUSH1 0x0 DUP2 DUP4 LT PUSH2 0x20D2 JUMPI DUP2 PUSH2 0xFC5 JUMP JUMPDEST PUSH1 0x1 PUSH1 0x1 PUSH1 0xA0 SHL SUB DUP4 AND PUSH1 0x0 SWAP1 DUP2 MSTORE PUSH1 0x12 PUSH1 0x20 MSTORE PUSH1 0x40 SWAP1 KECCAK256 SLOAD DUP1 ISZERO DUP1 ISZERO SWAP1 PUSH2 0x2734 JUMPI POP PUSH1 0x1 PUSH1 0x1 PUSH1 0xA0 SHL SUB DUP5 AND PUSH1 0x0 SWAP1 DUP2 MSTORE PUSH1 0x11 PUSH1 0x20 MSTORE PUSH1 0x40 DUP2 KECCAK256 DUP4 SWAP2 PUSH2 0x2720 PUSH1 0x1 DUP6 PUSH2 0x300C JUMP JUMPDEST DUP2 MSTORE PUSH1 0x20 ADD SWAP1 DUP2 MSTORE PUSH1 0x20 ADD PUSH1 0x0 KECCAK256 PUSH1 0x0 ADD SLOAD EQ JUMPDEST ISZERO PUSH2 0x275E JUMPI PUSH1 0x1 PUSH1 0x1 PUSH1 0xA0 SHL SUB DUP5 AND PUSH1 0x0 SWAP1 DUP2 MSTORE PUSH1 0x11 PUSH1 0x20 MSTORE PUSH1 0x40 DUP2 KECCAK256 DUP5 SWAP2 PUSH2 0x2444 PUSH1 0x1 DUP6 PUSH2 0x300C JUMP JUMPDEST PUSH1 0x40 DUP1 MLOAD DUP1 DUP3 ADD DUP3 MSTORE DUP4 DUP2 MSTORE PUSH1 0x20 DUP1 DUP3 ADD DUP7 DUP2 MSTORE PUSH1 0x1 PUSH1 0x1 PUSH1 0xA0 SHL SUB DUP9 AND PUSH1 0x0 SWAP1 DUP2 MSTORE PUSH1 0x11 DUP4 MSTORE DUP5 DUP2 KECCAK256 DUP7 DUP3 MSTORE SWAP1 SWAP3 MSTORE SWAP3 SWAP1 KECCAK256 SWAP1 MLOAD DUP2 SSTORE SWAP1 MLOAD PUSH1 0x1 SWAP2 DUP3 ADD SSTORE PUSH2 0x27A8 SWAP1 DUP3 SWAP1 PUSH2 0x3045 JUMP JUMPDEST PUSH1 0x1 PUSH1 0x1 PUSH1 0xA0 SHL SUB DUP6 AND PUSH1 0x0 SWAP1 DUP2 MSTORE PUSH1 0x12 PUSH1 0x20 MSTORE PUSH1 0x40 SWAP1 KECCAK256 SSTORE POP POP POP POP JUMP JUMPDEST PUSH1 0x0 DUP1 PUSH32 0x0 PUSH1 0x1 PUSH1 0x1 PUSH1 0xA0 SHL SUB AND PUSH4 0xD294F093 PUSH1 0x40 MLOAD DUP2 PUSH4 0xFFFFFFFF AND PUSH1 0xE0 SHL DUP2 MSTORE PUSH1 0x4 ADD PUSH1 0x40 DUP1 MLOAD DUP1 DUP4 SUB DUP2 PUSH1 0x0 DUP8 GAS CALL ISZERO DUP1 ISZERO PUSH2 0x2829 JUMPI RETURNDATASIZE PUSH1 0x0 DUP1 RETURNDATACOPY RETURNDATASIZE PUSH1 0x0 REVERT JUMPDEST POP POP POP POP PUSH1 0x40 MLOAD RETURNDATASIZE PUSH1 0x1F NOT PUSH1 0x1F DUP3 ADD AND DUP3 ADD DUP1 PUSH1 0x40 MSTORE POP DUP2 ADD SWAP1 PUSH2 0x284D SWAP2 SWAP1 PUSH2 0x3140 JUMP JUMPDEST SWAP1 SWAP3 POP SWAP1 POP DUP2 ISZERO ISZERO DUP1 PUSH2 0x2860 JUMPI POP PUSH1 0x0 DUP2 GT JUMPDEST ISZERO PUSH2 0x2C23 JUMPI PUSH1 0x0 DUP3 PUSH1 0x13 SLOAD PUSH2 0x2875 SWAP2 SWAP1 PUSH2 0x3045 JUMP JUMPDEST SWAP1 POP PUSH1 0x0 DUP3 PUSH1 0x14 SLOAD PUSH2 0x2887 SWAP2 SWAP1 PUSH2 0x3045 JUMP JUMPDEST SWAP1 POP PUSH1 0x0 DUP1 PUSH32 0x0 PUSH1 0x1 PUSH1 0x1 PUSH1 0xA0 SHL SUB AND PUSH4 0x9D63848A PUSH1 0x40 MLOAD DUP2 PUSH4 0xFFFFFFFF AND PUSH1 0xE0 SHL DUP2 MSTORE PUSH1 0x4 ADD PUSH1 0x40 DUP1 MLOAD DUP1 DUP4 SUB DUP2 PUSH1 0x0 DUP8 GAS CALL ISZERO DUP1 ISZERO PUSH2 0x28EB JUMPI RETURNDATASIZE PUSH1 0x0 DUP1 RETURNDATACOPY RETURNDATASIZE PUSH1 0x0 REVERT JUMPDEST POP POP POP POP PUSH1 0x40 MLOAD RETURNDATASIZE PUSH1 0x1F NOT PUSH1 0x1F DUP3 ADD AND DUP3 ADD DUP1 PUSH1 0x40 MSTORE POP DUP2 ADD SWAP1 PUSH2 0x290F SWAP2 SWAP1 PUSH2 0x3164 JUMP JUMPDEST PUSH1 0x40 MLOAD PUSH4 0x4CDE6029 PUSH1 0xE1 SHL DUP2 MSTORE PUSH1 0x1 PUSH1 0x1 PUSH1 0xA0 SHL SUB DUP1 DUP5 AND PUSH1 0x4 DUP4 ADD MSTORE SWAP3 SWAP5 POP SWAP1 SWAP3 POP PUSH32 0x0 SWAP1 SWAP2 AND SWAP1 PUSH4 0x99BCC052 SWAP1 PUSH1 0x24 ADD PUSH1 0x20 PUSH1 0x40 MLOAD DUP1 DUP4 SUB DUP2 DUP7 GAS STATICCALL ISZERO DUP1 ISZERO PUSH2 0x297D JUMPI RETURNDATASIZE PUSH1 0x0 DUP1 RETURNDATACOPY RETURNDATASIZE PUSH1 0x0 REVERT JUMPDEST POP POP POP POP PUSH1 0x40 MLOAD RETURNDATASIZE PUSH1 0x1F NOT PUSH1 0x1F DUP3 ADD AND DUP3 ADD DUP1 PUSH1 0x40 MSTORE POP DUP2 ADD SWAP1 PUSH2 0x29A1 SWAP2 SWAP1 PUSH2 0x30AD JUMP JUMPDEST DUP5 GT DUP1 ISZERO PUSH2 0x29BB JUMPI POP PUSH1 0x0 PUSH2 0x29B9 PUSH3 0x93A80 DUP7 PUSH2 0x3023 JUMP JUMPDEST GT JUMPDEST ISZERO PUSH2 0x2A77 JUMPI PUSH1 0x0 PUSH1 0x13 SSTORE PUSH2 0x29F0 DUP3 PUSH32 0x0 DUP7 PUSH2 0x2DDA JUMP JUMPDEST PUSH1 0x40 MLOAD PUSH4 0xB66503CF PUSH1 0xE0 SHL DUP2 MSTORE PUSH1 0x1 PUSH1 0x1 PUSH1 0xA0 SHL SUB DUP4 DUP2 AND PUSH1 0x4 DUP4 ADD MSTORE PUSH1 0x24 DUP3 ADD DUP7 SWAP1 MSTORE PUSH32 0x0 AND SWAP1 PUSH4 0xB66503CF SWAP1 PUSH1 0x44 ADD PUSH1 0x0 PUSH1 0x40 MLOAD DUP1 DUP4 SUB DUP2 PUSH1 0x0 DUP8 DUP1 EXTCODESIZE ISZERO DUP1 ISZERO PUSH2 0x2A5A JUMPI PUSH1 0x0 DUP1 REVERT JUMPDEST POP GAS CALL ISZERO DUP1 ISZERO PUSH2 0x2A6E JUMPI RETURNDATASIZE PUSH1 0x0 DUP1 RETURNDATACOPY RETURNDATASIZE PUSH1 0x0 REVERT JUMPDEST POP POP POP POP PUSH2 0x2A7D JUMP JUMPDEST PUSH1 0x13 DUP5 SWAP1 SSTORE JUMPDEST PUSH1 0x40 MLOAD PUSH4 0x4CDE6029 PUSH1 0xE1 SHL DUP2 MSTORE PUSH1 0x1 PUSH1 0x1 PUSH1 0xA0 SHL SUB DUP3 DUP2 AND PUSH1 0x4 DUP4 ADD MSTORE PUSH32 0x0 AND SWAP1 PUSH4 0x99BCC052 SWAP1 PUSH1 0x24 ADD PUSH1 0x20 PUSH1 0x40 MLOAD DUP1 DUP4 SUB DUP2 DUP7 GAS STATICCALL ISZERO DUP1 ISZERO PUSH2 0x2AE3 JUMPI RETURNDATASIZE PUSH1 0x0 DUP1 RETURNDATACOPY RETURNDATASIZE PUSH1 0x0 REVERT JUMPDEST POP POP POP POP PUSH1 0x40 MLOAD RETURNDATASIZE PUSH1 0x1F NOT PUSH1 0x1F DUP3 ADD AND DUP3 ADD DUP1 PUSH1 0x40 MSTORE POP DUP2 ADD SWAP1 PUSH2 0x2B07 SWAP2 SWAP1 PUSH2 0x30AD JUMP JUMPDEST DUP4 GT DUP1 ISZERO PUSH2 0x2B21 JUMPI POP PUSH1 0x0 PUSH2 0x2B1F PUSH3 0x93A80 DUP6 PUSH2 0x3023 JUMP JUMPDEST GT JUMPDEST ISZERO PUSH2 0x2BDD JUMPI PUSH1 0x0 PUSH1 0x14 SSTORE PUSH2 0x2B56 DUP2 PUSH32 0x0 DUP6 PUSH2 0x2DDA JUMP JUMPDEST PUSH1 0x40 MLOAD PUSH4 0xB66503CF PUSH1 0xE0 SHL DUP2 MSTORE PUSH1 0x1 PUSH1 0x1 PUSH1 0xA0 SHL SUB DUP3 DUP2 AND PUSH1 0x4 DUP4 ADD MSTORE PUSH1 0x24 DUP3 ADD DUP6 SWAP1 MSTORE PUSH32 0x0 AND SWAP1 PUSH4 0xB66503CF SWAP1 PUSH1 0x44 ADD PUSH1 0x0 PUSH1 0x40 MLOAD DUP1 DUP4 SUB DUP2 PUSH1 0x0 DUP8 DUP1 EXTCODESIZE ISZERO DUP1 ISZERO PUSH2 0x2BC0 JUMPI PUSH1 0x0 DUP1 REVERT JUMPDEST POP GAS CALL ISZERO DUP1 ISZERO PUSH2 0x2BD4 JUMPI RETURNDATASIZE PUSH1 0x0 DUP1 RETURNDATACOPY RETURNDATASIZE PUSH1 0x0 REVERT JUMPDEST POP POP POP POP PUSH2 0x2BE3 JUMP JUMPDEST PUSH1 0x14 DUP4 SWAP1 SSTORE JUMPDEST PUSH1 0x40 DUP1 MLOAD DUP8 DUP2 MSTORE PUSH1 0x20 DUP2 ADD DUP8 SWAP1 MSTORE CALLER SWAP2 PUSH32 0xBC567D6CBAD26368064BAA0AB5A757BE46AAE4D70F707F9203D9D9B6C8CCBFA3 SWAP2 ADD PUSH1 0x40 MLOAD DUP1 SWAP2 SUB SWAP1 LOG2 POP POP POP POP JUMPDEST SWAP1 SWAP2 JUMP JUMPDEST PUSH1 0x0 DUP5 PUSH1 0x1 PUSH1 0x1 PUSH1 0xA0 SHL SUB AND EXTCODESIZE GT PUSH2 0x2C3E JUMPI PUSH1 0x0 DUP1 REVERT JUMPDEST PUSH1 0x40 DUP1 MLOAD PUSH1 0x1 PUSH1 0x1 PUSH1 0xA0 SHL SUB DUP6 DUP2 AND PUSH1 0x24 DUP4 ADD MSTORE DUP5 DUP2 AND PUSH1 0x44 DUP4 ADD MSTORE PUSH1 0x64 DUP1 DUP4 ADD DUP6 SWAP1 MSTORE DUP4 MLOAD DUP1 DUP5 SUB SWAP1 SWAP2 ADD DUP2 MSTORE PUSH1 0x84 SWAP1 SWAP3 ADD DUP4 MSTORE PUSH1 0x20 DUP3 ADD DUP1 MLOAD PUSH1 0x1 PUSH1 0x1 PUSH1 0xE0 SHL SUB AND PUSH4 0x23B872DD PUSH1 0xE0 SHL OR SWAP1 MSTORE SWAP2 MLOAD PUSH1 0x0 SWAP3 DUP4 SWAP3 SWAP1 DUP9 AND SWAP2 PUSH2 0x2CA2 SWAP2 SWAP1 PUSH2 0x30E3 JUMP JUMPDEST PUSH1 0x0 PUSH1 0x40 MLOAD DUP1 DUP4 SUB DUP2 PUSH1 0x0 DUP7 GAS CALL SWAP2 POP POP RETURNDATASIZE DUP1 PUSH1 0x0 DUP2 EQ PUSH2 0x2CDF JUMPI PUSH1 0x40 MLOAD SWAP2 POP PUSH1 0x1F NOT PUSH1 0x3F RETURNDATASIZE ADD AND DUP3 ADD PUSH1 0x40 MSTORE RETURNDATASIZE DUP3 MSTORE RETURNDATASIZE PUSH1 0x0 PUSH1 0x20 DUP5 ADD RETURNDATACOPY PUSH2 0x2CE4 JUMP JUMPDEST PUSH1 0x60 SWAP2 POP JUMPDEST POP SWAP2 POP SWAP2 POP DUP2 DUP1 ISZERO PUSH2 0x2D0E JUMPI POP DUP1 MLOAD ISZERO DUP1 PUSH2 0x2D0E JUMPI POP DUP1 DUP1 PUSH1 0x20 ADD SWAP1 MLOAD DUP2 ADD SWAP1 PUSH2 0x2D0E SWAP2 SWAP1 PUSH2 0x311E JUMP JUMPDEST PUSH2 0x2D17 JUMPI PUSH1 0x0 DUP1 REVERT JUMPDEST POP POP POP POP POP POP JUMP JUMPDEST PUSH1 0x0 DUP1 PUSH1 0x0 PUSH2 0x2D2E DUP8 DUP6 PUSH2 0x20C2 JUMP JUMPDEST PUSH1 0x1 PUSH1 0x1 PUSH1 0xA0 SHL SUB DUP10 AND PUSH1 0x0 SWAP1 DUP2 MSTORE PUSH1 0x2 PUSH1 0x20 MSTORE PUSH1 0x40 SWAP1 KECCAK256 SLOAD SWAP1 SWAP2 POP DUP6 SWAP1 PUSH8 0xDE0B6B3A7640000 SWAP1 PUSH2 0x2D81 PUSH2 0x2D63 DUP11 DUP10 PUSH2 0x20C2 JUMP JUMPDEST PUSH1 0x1 PUSH1 0x1 PUSH1 0xA0 SHL SUB DUP14 AND PUSH1 0x0 SWAP1 DUP2 MSTORE PUSH1 0x3 PUSH1 0x20 MSTORE PUSH1 0x40 SWAP1 KECCAK256 SLOAD PUSH2 0x26C9 JUMP JUMPDEST PUSH1 0x1 PUSH1 0x1 PUSH1 0xA0 SHL SUB DUP13 AND PUSH1 0x0 SWAP1 DUP2 MSTORE PUSH1 0x3 PUSH1 0x20 MSTORE PUSH1 0x40 SWAP1 KECCAK256 SLOAD PUSH2 0x2DA5 SWAP1 DUP7 SWAP1 PUSH2 0x26C9 JUMP JUMPDEST PUSH2 0x2DAF SWAP2 SWAP1 PUSH2 0x300C JUMP JUMPDEST PUSH2 0x2DB9 SWAP2 SWAP1 PUSH2 0x305D JUMP JUMPDEST PUSH2 0x2DC3 SWAP2 SWAP1 PUSH2 0x305D JUMP JUMPDEST PUSH2 0x2DCD SWAP2 SWAP1 PUSH2 0x3023 JUMP JUMPDEST SWAP9 SWAP1 SWAP8 POP SWAP6 POP POP POP POP POP POP JUMP JUMPDEST PUSH1 0x0 DUP4 PUSH1 0x1 PUSH1 0x1 PUSH1 0xA0 SHL SUB AND EXTCODESIZE GT PUSH2 0x2DF1 JUMPI PUSH1 0x0 DUP1 REVERT JUMPDEST PUSH1 0x40 MLOAD PUSH1 0x1 PUSH1 0x1 PUSH1 0xA0 SHL SUB DUP4 DUP2 AND PUSH1 0x24 DUP4 ADD MSTORE PUSH1 0x44 DUP3 ADD DUP4 SWAP1 MSTORE PUSH1 0x0 SWAP2 DUP3 SWAP2 DUP7 AND SWAP1 PUSH4 0x95EA7B3 PUSH1 0xE0 SHL SWAP1 PUSH1 0x64 ADD PUSH2 0x2302 JUMP JUMPDEST PUSH1 0x1 PUSH1 0x1 PUSH1 0xA0 SHL SUB DUP2 AND DUP2 EQ PUSH2 0x1575 JUMPI PUSH1 0x0 DUP1 REVERT JUMPDEST DUP1 CALLDATALOAD PUSH2 0x2E44 DUP2 PUSH2 0x2E24 JUMP JUMPDEST SWAP2 SWAP1 POP JUMP JUMPDEST PUSH1 0x0 DUP1 PUSH1 0x40 DUP4 DUP6 SUB SLT ISZERO PUSH2 0x2E5C JUMPI PUSH1 0x0 DUP1 REVERT JUMPDEST DUP3 CALLDATALOAD PUSH2 0x2E67 DUP2 PUSH2 0x2E24 JUMP JUMPDEST SWAP5 PUSH1 0x20 SWAP4 SWAP1 SWAP4 ADD CALLDATALOAD SWAP4 POP POP POP JUMP JUMPDEST PUSH1 0x0 DUP1 PUSH1 0x40 DUP4 DUP6 SUB SLT ISZERO PUSH2 0x2E88 JUMPI PUSH1 0x0 DUP1 REVERT JUMPDEST DUP3 CALLDATALOAD PUSH2 0x2E93 DUP2 PUSH2 0x2E24 JUMP JUMPDEST SWAP2 POP PUSH1 0x20 DUP4 ADD CALLDATALOAD PUSH2 0x2EA3 DUP2 PUSH2 0x2E24 JUMP JUMPDEST DUP1 SWAP2 POP POP SWAP3 POP SWAP3 SWAP1 POP JUMP JUMPDEST PUSH1 0x0 PUSH1 0x20 DUP3 DUP5 SUB SLT ISZERO PUSH2 0x2EC0 JUMPI PUSH1 0x0 DUP1 REVERT JUMPDEST DUP2 CALLDATALOAD PUSH2 0xFC5 DUP2 PUSH2 0x2E24 JUMP JUMPDEST PUSH1 0x0 PUSH1 0x20 DUP3 DUP5 SUB SLT ISZERO PUSH2 0x2EDD JUMPI PUSH1 0x0 DUP1 REVERT JUMPDEST POP CALLDATALOAD SWAP2 SWAP1 POP JUMP JUMPDEST PUSH4 0x4E487B71 PUSH1 0xE0 SHL PUSH1 0x0 MSTORE PUSH1 0x41 PUSH1 0x4 MSTORE PUSH1 0x24 PUSH1 0x0 REVERT JUMPDEST PUSH1 0x0 DUP1 PUSH1 0x40 DUP4 DUP6 SUB SLT ISZERO PUSH2 0x2F0D JUMPI PUSH1 0x0 DUP1 REVERT JUMPDEST DUP3 CALLDATALOAD PUSH2 0x2F18 DUP2 PUSH2 0x2E24 JUMP JUMPDEST SWAP2 POP PUSH1 0x20 DUP4 DUP2 ADD CALLDATALOAD PUSH8 0xFFFFFFFFFFFFFFFF DUP1 DUP3 GT ISZERO PUSH2 0x2F36 JUMPI PUSH1 0x0 DUP1 REVERT JUMPDEST DUP2 DUP7 ADD SWAP2 POP DUP7 PUSH1 0x1F DUP4 ADD SLT PUSH2 0x2F4A JUMPI PUSH1 0x0 DUP1 REVERT JUMPDEST DUP2 CALLDATALOAD DUP2 DUP2 GT ISZERO PUSH2 0x2F5C JUMPI PUSH2 0x2F5C PUSH2 0x2EE4 JUMP JUMPDEST DUP1 PUSH1 0x5 SHL PUSH1 0x40 MLOAD PUSH1 0x1F NOT PUSH1 0x3F DUP4 ADD AND DUP2 ADD DUP2 DUP2 LT DUP6 DUP3 GT OR ISZERO PUSH2 0x2F81 JUMPI PUSH2 0x2F81 PUSH2 0x2EE4 JUMP JUMPDEST PUSH1 0x40 MSTORE SWAP2 DUP3 MSTORE DUP5 DUP3 ADD SWAP3 POP DUP4 DUP2 ADD DUP6 ADD SWAP2 DUP10 DUP4 GT ISZERO PUSH2 0x2F9F JUMPI PUSH1 0x0 DUP1 REVERT JUMPDEST SWAP4 DUP6 ADD SWAP4 JUMPDEST DUP3 DUP6 LT ISZERO PUSH2 0x2FC4 JUMPI PUSH2 0x2FB5 DUP6 PUSH2 0x2E39 JUMP JUMPDEST DUP5 MSTORE SWAP4 DUP6 ADD SWAP4 SWAP3 DUP6 ADD SWAP3 PUSH2 0x2FA4 JUMP JUMPDEST DUP1 SWAP7 POP POP POP POP POP POP POP SWAP3 POP SWAP3 SWAP1 POP JUMP JUMPDEST PUSH1 0x0 DUP1 PUSH1 0x40 DUP4 DUP6 SUB SLT ISZERO PUSH2 0x2FE7 JUMPI PUSH1 0x0 DUP1 REVERT JUMPDEST POP POP DUP1 CALLDATALOAD SWAP3 PUSH1 0x20 SWAP1 SWAP2 ADD CALLDATALOAD SWAP2 POP JUMP JUMPDEST PUSH4 0x4E487B71 PUSH1 0xE0 SHL PUSH1 0x0 MSTORE PUSH1 0x11 PUSH1 0x4 MSTORE PUSH1 0x24 PUSH1 0x0 REVERT JUMPDEST PUSH1 0x0 DUP3 DUP3 LT ISZERO PUSH2 0x301E JUMPI PUSH2 0x301E PUSH2 0x2FF6 JUMP JUMPDEST POP SUB SWAP1 JUMP JUMPDEST PUSH1 0x0 DUP3 PUSH2 0x3040 JUMPI PUSH4 0x4E487B71 PUSH1 0xE0 SHL PUSH1 0x0 MSTORE PUSH1 0x12 PUSH1 0x4 MSTORE PUSH1 0x24 PUSH1 0x0 REVERT JUMPDEST POP DIV SWAP1 JUMP JUMPDEST PUSH1 0x0 DUP3 NOT DUP3 GT ISZERO PUSH2 0x3058 JUMPI PUSH2 0x3058 PUSH2 0x2FF6 JUMP JUMPDEST POP ADD SWAP1 JUMP JUMPDEST PUSH1 0x0 DUP2 PUSH1 0x0 NOT DIV DUP4 GT DUP3 ISZERO ISZERO AND ISZERO PUSH2 0x3077 JUMPI PUSH2 0x3077 PUSH2 0x2FF6 JUMP JUMPDEST POP MUL SWAP1 JUMP JUMPDEST PUSH1 0x0 PUSH1 0x0 NOT DUP3 EQ ISZERO PUSH2 0x3090 JUMPI PUSH2 0x3090 PUSH2 0x2FF6 JUMP JUMPDEST POP PUSH1 0x1 ADD SWAP1 JUMP JUMPDEST PUSH4 0x4E487B71 PUSH1 0xE0 SHL PUSH1 0x0 MSTORE PUSH1 0x32 PUSH1 0x4 MSTORE PUSH1 0x24 PUSH1 0x0 REVERT JUMPDEST PUSH1 0x0 PUSH1 0x20 DUP3 DUP5 SUB SLT ISZERO PUSH2 0x30BF JUMPI PUSH1 0x0 DUP1 REVERT JUMPDEST POP MLOAD SWAP2 SWAP1 POP JUMP JUMPDEST PUSH1 0x0 PUSH1 0x20 DUP3 DUP5 SUB SLT ISZERO PUSH2 0x30D8 JUMPI PUSH1 0x0 DUP1 REVERT JUMPDEST DUP2 MLOAD PUSH2 0xFC5 DUP2 PUSH2 0x2E24 JUMP JUMPDEST PUSH1 0x0 DUP3 MLOAD PUSH1 0x0 JUMPDEST DUP2 DUP2 LT ISZERO PUSH2 0x3104 JUMPI PUSH1 0x20 DUP2 DUP7 ADD DUP2 ADD MLOAD DUP6 DUP4 ADD MSTORE ADD PUSH2 0x30EA JUMP JUMPDEST DUP2 DUP2 GT ISZERO PUSH2 0x3113 JUMPI PUSH1 0x0 DUP3 DUP6 ADD MSTORE JUMPDEST POP SWAP2 SWAP1 SWAP2 ADD SWAP3 SWAP2 POP POP JUMP JUMPDEST PUSH1 0x0 PUSH1 0x20 DUP3 DUP5 SUB SLT ISZERO PUSH2 0x3130 JUMPI PUSH1 0x0 DUP1 REVERT JUMPDEST DUP2 MLOAD DUP1 ISZERO ISZERO DUP2 EQ PUSH2 0xFC5 JUMPI PUSH1 0x0 DUP1 REVERT JUMPDEST PUSH1 0x0 DUP1 PUSH1 0x40 DUP4 DUP6 SUB SLT ISZERO PUSH2 0x3153 JUMPI PUSH1 0x0 DUP1 REVERT JUMPDEST POP POP DUP1 MLOAD PUSH1 0x20 SWAP1 SWAP2 ADD MLOAD SWAP1 SWAP3 SWAP1 SWAP2 POP JUMP JUMPDEST PUSH1 0x0 DUP1 PUSH1 0x40 DUP4 DUP6 SUB SLT ISZERO PUSH2 0x3177 JUMPI PUSH1 0x0 DUP1 REVERT JUMPDEST DUP3 MLOAD PUSH2 0x3182 DUP2 PUSH2 0x2E24 JUMP JUMPDEST PUSH1 0x20 DUP5 ADD MLOAD SWAP1 SWAP3 POP PUSH2 0x2EA3 DUP2 PUSH2 0x2E24 JUMP INVALID LOG2 PUSH5 0x6970667358 0x22 SLT KECCAK256 0xA8 0xDE MSTORE 0xEA PUSH12 0xD4BD24DF211597853F313707 PUSH5 0x9F691C9F55 0xA7 MLOAD 0x28 CODECOPY 0xAA MULMOD 0xCB BYTE CALLCODE PUSH5 0x736F6C6343 STOP ADDMOD SIGNEXTEND STOP CALLER LOG2 PUSH5 0x6970667358 0x22 SLT KECCAK256 0xF CODECOPY SWAP16 0xB6 0xC6 0xB1 0xB4 SWAP4 LOG3 0xC5 SWAP12 SWAP11 0xC0 RETURNDATASIZE ADDMOD CODESIZE 0xD6 GAS 0xEF ADDMOD ORIGIN LOG2 SWAP16 0xAB 0xB1 0xD1 LOG1 SWAP9 PUSH3 0x40D00B PUSH5 0x736F6C6343 STOP ADDMOD SIGNEXTEND STOP CALLER "
        },
        "methodIdentifiers": {
          "createGauge(address,address,address)": "1c48e0fa",
          "createGaugeSingle(address,address,address,address)": "af4db2ec",
          "last_gauge()": "730a8bdb"
        }
      }
    }
  }
}