{
  "_format": "hh-sol-artifact-1",
  "contractName": "GaugeWhiteList",
  "sourceName": "contracts/GaugeWhiteList.sol",
  "abi": [
    {
      "anonymous": false,
      "inputs": [
        {
          "indexed": true,
          "internalType": "address",
          "name": "previousOwner",
          "type": "address"
        },
        {
          "indexed": true,
          "internalType": "address",
          "name": "newOwner",
          "type": "address"
        }
      ],
      "name": "OwnershipTransferred",
      "type": "event"
    },
    {
      "inputs": [
        {
          "internalType": "address",
          "name": "_pool",
          "type": "address"
        }
      ],
      "name": "addPool",
      "outputs": [],
      "stateMutability": "nonpayable",
      "type": "function"
    },
    {
      "inputs": [
        {
          "internalType": "address",
          "name": "_token",
          "type": "address"
        }
      ],
      "name": "addToken",
      "outputs": [],
      "stateMutability": "nonpayable",
      "type": "function"
    },
    {
      "inputs": [],
      "name": "disableVerification",
      "outputs": [],
      "stateMutability": "nonpayable",
      "type": "function"
    },
    {
      "inputs": [],
      "name": "enableVerification",
      "outputs": [],
      "stateMutability": "nonpayable",
      "type": "function"
    },
    {
      "inputs": [],
      "name": "isEnabledVerification",
      "outputs": [
        {
          "internalType": "bool",
          "name": "",
          "type": "bool"
        }
      ],
      "stateMutability": "view",
      "type": "function"
    },
    {
      "inputs": [
        {
          "internalType": "address",
          "name": "",
          "type": "address"
        }
      ],
      "name": "isWhitelistedPool",
      "outputs": [
        {
          "internalType": "bool",
          "name": "",
          "type": "bool"
        }
      ],
      "stateMutability": "view",
      "type": "function"
    },
    {
      "inputs": [
        {
          "internalType": "address",
          "name": "",
          "type": "address"
        }
      ],
      "name": "isWhitelistedToken",
      "outputs": [
        {
          "internalType": "bool",
          "name": "",
          "type": "bool"
        }
      ],
      "stateMutability": "view",
      "type": "function"
    },
    {
      "inputs": [],
      "name": "owner",
      "outputs": [
        {
          "internalType": "address",
          "name": "",
          "type": "address"
        }
      ],
      "stateMutability": "view",
      "type": "function"
    },
    {
      "inputs": [
        {
          "internalType": "address",
          "name": "_pool",
          "type": "address"
        }
      ],
      "name": "removePool",
      "outputs": [],
      "stateMutability": "nonpayable",
      "type": "function"
    },
    {
      "inputs": [
        {
          "internalType": "address",
          "name": "_token",
          "type": "address"
        }
      ],
      "name": "removeToken",
      "outputs": [],
      "stateMutability": "nonpayable",
      "type": "function"
    },
    {
      "inputs": [],
      "name": "renounceOwnership",
      "outputs": [],
      "stateMutability": "nonpayable",
      "type": "function"
    },
    {
      "inputs": [
        {
          "internalType": "address",
          "name": "newOwner",
          "type": "address"
        }
      ],
      "name": "transferOwnership",
      "outputs": [],
      "stateMutability": "nonpayable",
      "type": "function"
    },
    {
      "inputs": [
        {
          "internalType": "address",
          "name": "token0",
          "type": "address"
        },
        {
          "internalType": "address",
          "name": "token1",
          "type": "address"
        },
        {
          "internalType": "address",
          "name": "pool",
          "type": "address"
        }
      ],
      "name": "verify",
      "outputs": [
        {
          "internalType": "bool",
          "name": "",
          "type": "bool"
        }
      ],
      "stateMutability": "view",
      "type": "function"
    }
  ],
  "bytecode": "0x60806040526000805460ff60a01b1916600160a01b17905534801561002357600080fd5b5061002d33610032565b610082565b600080546001600160a01b038381166001600160a01b0319831681178455604051919092169283917f8be0079c531659141344cd1fd0a4f28419497f9722a3daafe3b4186f6b6457e09190a35050565b610640806100916000396000f3fe608060405234801561001057600080fd5b50600436106100cf5760003560e01c8063715018a61161008c578063d48bfca711610066578063d48bfca7146101a9578063d914cd4b146101bc578063f2fde38b146101cf578063f77638f9146101e257600080fd5b8063715018a6146101635780638da5cb5b1461016b578063ab37f4861461018657600080fd5b80630720f80a146100d45780633b7d0946146100fc5780634be244f61461011157806351ac3fe21461012557806355f168d51461012d5780635fa7b58414610150575b600080fd5b6100e76100e2366004610577565b6101ea565b60405190151581526020015b60405180910390f35b61010f61010a3660046105ba565b610284565b005b6000546100e790600160a01b900460ff1681565b61010f6102d8565b6100e761013b3660046105ba565b60016020526000908152604090205460ff1681565b61010f61015e3660046105ba565b610317565b61010f610362565b6000546040516001600160a01b0390911681526020016100f3565b6100e76101943660046105ba565b60026020526000908152604090205460ff1681565b61010f6101b73660046105ba565b610398565b61010f6101ca3660046105ba565b6103e6565b61010f6101dd3660046105ba565b610437565b61010f6104d2565b60008054600160a01b900460ff166102045750600161027d565b6001600160a01b03821660009081526001602052604090205460ff161561022d5750600161027d565b6001600160a01b03841660009081526002602052604090205460ff168061026c57506001600160a01b03831660009081526002602052604090205460ff165b156102795750600161027d565b5060005b9392505050565b6000546001600160a01b031633146102b75760405162461bcd60e51b81526004016102ae906105d5565b60405180910390fd5b6001600160a01b03166000908152600160205260409020805460ff19169055565b6000546001600160a01b031633146103025760405162461bcd60e51b81526004016102ae906105d5565b6000805460ff60a01b1916600160a01b179055565b6000546001600160a01b031633146103415760405162461bcd60e51b81526004016102ae906105d5565b6001600160a01b03166000908152600260205260409020805460ff19169055565b6000546001600160a01b0316331461038c5760405162461bcd60e51b81526004016102ae906105d5565b610396600061050b565b565b6000546001600160a01b031633146103c25760405162461bcd60e51b81526004016102ae906105d5565b6001600160a01b03166000908152600260205260409020805460ff19166001179055565b6000546001600160a01b031633146104105760405162461bcd60e51b81526004016102ae906105d5565b6001600160a01b03166000908152600160208190526040909120805460ff19169091179055565b6000546001600160a01b031633146104615760405162461bcd60e51b81526004016102ae906105d5565b6001600160a01b0381166104c65760405162461bcd60e51b815260206004820152602660248201527f4f776e61626c653a206e6577206f776e657220697320746865207a65726f206160448201526564647265737360d01b60648201526084016102ae565b6104cf8161050b565b50565b6000546001600160a01b031633146104fc5760405162461bcd60e51b81526004016102ae906105d5565b6000805460ff60a01b19169055565b600080546001600160a01b038381166001600160a01b0319831681178455604051919092169283917f8be0079c531659141344cd1fd0a4f28419497f9722a3daafe3b4186f6b6457e09190a35050565b80356001600160a01b038116811461057257600080fd5b919050565b60008060006060848603121561058c57600080fd5b6105958461055b565b92506105a36020850161055b565b91506105b16040850161055b565b90509250925092565b6000602082840312156105cc57600080fd5b61027d8261055b565b6020808252818101527f4f776e61626c653a2063616c6c6572206973206e6f7420746865206f776e657260408201526060019056fea2646970667358221220e25f3b2396c84c02668313fc4d9105e1256347b96d5424102fde9bc6b052d2a864736f6c634300080b0033",
  "linkReferences": {},
  "deployedLinkReferences": {}
}