{
  "_format": "hh-sol-artifact-1",
  "contractName": "GaugeMockTransfer",
  "sourceName": "contracts/test/gauge_mock_transfer.sol",
  "abi": [
    {
      "inputs": [
        {
          "internalType": "address",
          "name": "token",
          "type": "address"
        },
        {
          "internalType": "uint256",
          "name": "amount",
          "type": "uint256"
        }
      ],
      "name": "notifyRewardAmount",
      "outputs": [],
      "stateMutability": "nonpayable",
      "type": "function"
    }
  ],
  "bytecode": "0x608060405234801561001057600080fd5b50610158806100206000396000f3fe608060405234801561001057600080fd5b506004361061002b5760003560e01c8063b66503cf14610030575b600080fd5b61004361003e3660046100c1565b610045565b005b6040516323b872dd60e01b8152336004820152306024820152604481018290526001600160a01b038316906323b872dd906064016020604051808303816000875af1158015610098573d6000803e3d6000fd5b505050506040513d601f19601f820116820180604052508101906100bc91906100f9565b505050565b600080604083850312156100d457600080fd5b82356001600160a01b03811681146100eb57600080fd5b946020939093013593505050565b60006020828403121561010b57600080fd5b8151801515811461011b57600080fd5b939250505056fea26469706673582212201965ce165c7b9f8c833607e52bd9c20e5adbdf23f499f9ec21c2319427321a1f64736f6c634300080b0033",
  "linkReferences": {},
  "deployedLinkReferences": {}
}