{
  "_format": "hh-sol-artifact-1",
  "contractName": "voter_test",
  "sourceName": "contracts/test/voter_test.sol",
  "abi": [
    {
      "inputs": [
        {
          "internalType": "uint256",
          "name": "tokenId",
          "type": "uint256"
        },
        {
          "internalType": "address",
          "name": "account",
          "type": "address"
        }
      ],
      "name": "attachTokenToGauge",
      "outputs": [],
      "stateMutability": "nonpayable",
      "type": "function"
    },
    {
      "inputs": [
        {
          "internalType": "uint256",
          "name": "tokenId",
          "type": "uint256"
        },
        {
          "internalType": "address",
          "name": "account",
          "type": "address"
        }
      ],
      "name": "detachTokenFromGauge",
      "outputs": [],
      "stateMutability": "nonpayable",
      "type": "function"
    },
    {
      "inputs": [
        {
          "internalType": "address",
          "name": "_gauge",
          "type": "address"
        }
      ],
      "name": "distribute",
      "outputs": [],
      "stateMutability": "nonpayable",
      "type": "function"
    },
    {
      "inputs": [
        {
          "internalType": "uint256",
          "name": "tokenId",
          "type": "uint256"
        },
        {
          "internalType": "address",
          "name": "account",
          "type": "address"
        },
        {
          "internalType": "uint256",
          "name": "amount",
          "type": "uint256"
        }
      ],
      "name": "emitDeposit",
      "outputs": [],
      "stateMutability": "nonpayable",
      "type": "function"
    },
    {
      "inputs": [
        {
          "internalType": "uint256",
          "name": "tokenId",
          "type": "uint256"
        },
        {
          "internalType": "address",
          "name": "account",
          "type": "address"
        },
        {
          "internalType": "uint256",
          "name": "amount",
          "type": "uint256"
        }
      ],
      "name": "emitWithdraw",
      "outputs": [],
      "stateMutability": "nonpayable",
      "type": "function"
    },
    {
      "inputs": [
        {
          "internalType": "uint256",
          "name": "amount",
          "type": "uint256"
        }
      ],
      "name": "notifyRewardAmount",
      "outputs": [],
      "stateMutability": "nonpayable",
      "type": "function"
    },
    {
      "inputs": [
        {
          "internalType": "uint256",
          "name": "_totalWeight",
          "type": "uint256"
        }
      ],
      "name": "setTotalWeight",
      "outputs": [],
      "stateMutability": "nonpayable",
      "type": "function"
    },
    {
      "inputs": [],
      "name": "totalWeight",
      "outputs": [
        {
          "internalType": "uint256",
          "name": "",
          "type": "uint256"
        }
      ],
      "stateMutability": "view",
      "type": "function"
    }
  ],
  "bytecode": "0x608060405234801561001057600080fd5b506101ef806100206000396000f3fe608060405234801561001057600080fd5b50600436106100885760003560e01c8063698473e31161005b578063698473e3146100b357806396c82e57146100d3578063a61c713a146100ee578063ea94ee44146100ee57600080fd5b80630dd084891461008d5780633c6b16ab146100a2578063411b1f77146100b357806363453ae1146100c5575b600080fd5b6100a061009b366004610101565b600055565b005b6100a06100b0366004610101565b50565b6100a06100c1366004610136565b5050565b6100a06100b0366004610162565b6100dc60005481565b60405190815260200160405180910390f35b6100a06100fc366004610184565b505050565b60006020828403121561011357600080fd5b5035919050565b80356001600160a01b038116811461013157600080fd5b919050565b6000806040838503121561014957600080fd5b823591506101596020840161011a565b90509250929050565b60006020828403121561017457600080fd5b61017d8261011a565b9392505050565b60008060006060848603121561019957600080fd5b833592506101a96020850161011a565b915060408401359050925092509256fea26469706673582212202ddcb0c72ce1387b1c7a7998c58eab509c5a35bbff2f9ce8746376ec3c06796064736f6c634300080b0033",
  "linkReferences": {},
  "deployedLinkReferences": {}
}