{
  "_format": "hh-sol-artifact-1",
  "contractName": "BaseV1Router01",
  "sourceName": "contracts/BaseV1-periphery.sol",
  "abi": [
    {
      "inputs": [
        {
          "internalType": "address",
          "name": "_factory",
          "type": "address"
        },
        {
          "internalType": "address",
          "name": "_wftm",
          "type": "address"
        }
      ],
      "stateMutability": "nonpayable",
      "type": "constructor"
    },
    {
      "inputs": [
        {
          "internalType": "uint256[]",
          "name": "amounts",
          "type": "uint256[]"
        },
        {
          "components": [
            {
              "internalType": "address",
              "name": "from",
              "type": "address"
            },
            {
              "internalType": "address",
              "name": "to",
              "type": "address"
            },
            {
              "internalType": "bool",
              "name": "stable",
              "type": "bool"
            }
          ],
          "internalType": "struct BaseV1Router01.route[]",
          "name": "routes",
          "type": "tuple[]"
        },
        {
          "internalType": "address",
          "name": "to",
          "type": "address"
        },
        {
          "internalType": "uint256",
          "name": "deadline",
          "type": "uint256"
        }
      ],
      "name": "UNSAFE_swapExactTokensForTokens",
      "outputs": [
        {
          "internalType": "uint256[]",
          "name": "",
          "type": "uint256[]"
        }
      ],
      "stateMutability": "nonpayable",
      "type": "function"
    },
    {
      "inputs": [
        {
          "internalType": "address",
          "name": "tokenA",
          "type": "address"
        },
        {
          "internalType": "address",
          "name": "tokenB",
          "type": "address"
        },
        {
          "internalType": "bool",
          "name": "stable",
          "type": "bool"
        },
        {
          "internalType": "uint256",
          "name": "amountADesired",
          "type": "uint256"
        },
        {
          "internalType": "uint256",
          "name": "amountBDesired",
          "type": "uint256"
        },
        {
          "internalType": "uint256",
          "name": "amountAMin",
          "type": "uint256"
        },
        {
          "internalType": "uint256",
          "name": "amountBMin",
          "type": "uint256"
        },
        {
          "internalType": "address",
          "name": "to",
          "type": "address"
        },
        {
          "internalType": "uint256",
          "name": "deadline",
          "type": "uint256"
        }
      ],
      "name": "addLiquidity",
      "outputs": [
        {
          "internalType": "uint256",
          "name": "amountA",
          "type": "uint256"
        },
        {
          "internalType": "uint256",
          "name": "amountB",
          "type": "uint256"
        },
        {
          "internalType": "uint256",
          "name": "liquidity",
          "type": "uint256"
        }
      ],
      "stateMutability": "nonpayable",
      "type": "function"
    },
    {
      "inputs": [
        {
          "internalType": "address",
          "name": "token",
          "type": "address"
        },
        {
          "internalType": "bool",
          "name": "stable",
          "type": "bool"
        },
        {
          "internalType": "uint256",
          "name": "amountTokenDesired",
          "type": "uint256"
        },
        {
          "internalType": "uint256",
          "name": "amountTokenMin",
          "type": "uint256"
        },
        {
          "internalType": "uint256",
          "name": "amountFTMMin",
          "type": "uint256"
        },
        {
          "internalType": "address",
          "name": "to",
          "type": "address"
        },
        {
          "internalType": "uint256",
          "name": "deadline",
          "type": "uint256"
        }
      ],
      "name": "addLiquidityFTM",
      "outputs": [
        {
          "internalType": "uint256",
          "name": "amountToken",
          "type": "uint256"
        },
        {
          "internalType": "uint256",
          "name": "amountFTM",
          "type": "uint256"
        },
        {
          "internalType": "uint256",
          "name": "liquidity",
          "type": "uint256"
        }
      ],
      "stateMutability": "payable",
      "type": "function"
    },
    {
      "inputs": [],
      "name": "factory",
      "outputs": [
        {
          "internalType": "address",
          "name": "",
          "type": "address"
        }
      ],
      "stateMutability": "view",
      "type": "function"
    },
    {
      "inputs": [
        {
          "internalType": "uint256",
          "name": "amountIn",
          "type": "uint256"
        },
        {
          "internalType": "address",
          "name": "tokenIn",
          "type": "address"
        },
        {
          "internalType": "address",
          "name": "tokenOut",
          "type": "address"
        }
      ],
      "name": "getAmountOut",
      "outputs": [
        {
          "internalType": "uint256",
          "name": "amount",
          "type": "uint256"
        },
        {
          "internalType": "bool",
          "name": "stable",
          "type": "bool"
        }
      ],
      "stateMutability": "view",
      "type": "function"
    },
    {
      "inputs": [
        {
          "internalType": "uint256",
          "name": "amountIn",
          "type": "uint256"
        },
        {
          "components": [
            {
              "internalType": "address",
              "name": "from",
              "type": "address"
            },
            {
              "internalType": "address",
              "name": "to",
              "type": "address"
            },
            {
              "internalType": "bool",
              "name": "stable",
              "type": "bool"
            }
          ],
          "internalType": "struct BaseV1Router01.route[]",
          "name": "routes",
          "type": "tuple[]"
        }
      ],
      "name": "getAmountsOut",
      "outputs": [
        {
          "internalType": "uint256[]",
          "name": "amounts",
          "type": "uint256[]"
        }
      ],
      "stateMutability": "view",
      "type": "function"
    },
    {
      "inputs": [
        {
          "internalType": "address",
          "name": "tokenA",
          "type": "address"
        },
        {
          "internalType": "address",
          "name": "tokenB",
          "type": "address"
        },
        {
          "internalType": "bool",
          "name": "stable",
          "type": "bool"
        }
      ],
      "name": "getReserves",
      "outputs": [
        {
          "internalType": "uint256",
          "name": "reserveA",
          "type": "uint256"
        },
        {
          "internalType": "uint256",
          "name": "reserveB",
          "type": "uint256"
        }
      ],
      "stateMutability": "view",
      "type": "function"
    },
    {
      "inputs": [
        {
          "internalType": "address",
          "name": "pair",
          "type": "address"
        }
      ],
      "name": "isPair",
      "outputs": [
        {
          "internalType": "bool",
          "name": "",
          "type": "bool"
        }
      ],
      "stateMutability": "view",
      "type": "function"
    },
    {
      "inputs": [
        {
          "internalType": "address",
          "name": "tokenA",
          "type": "address"
        },
        {
          "internalType": "address",
          "name": "tokenB",
          "type": "address"
        },
        {
          "internalType": "bool",
          "name": "stable",
          "type": "bool"
        }
      ],
      "name": "pairFor",
      "outputs": [
        {
          "internalType": "address",
          "name": "pair",
          "type": "address"
        }
      ],
      "stateMutability": "view",
      "type": "function"
    },
    {
      "inputs": [
        {
          "internalType": "address",
          "name": "tokenA",
          "type": "address"
        },
        {
          "internalType": "address",
          "name": "tokenB",
          "type": "address"
        },
        {
          "internalType": "bool",
          "name": "stable",
          "type": "bool"
        },
        {
          "internalType": "uint256",
          "name": "amountADesired",
          "type": "uint256"
        },
        {
          "internalType": "uint256",
          "name": "amountBDesired",
          "type": "uint256"
        }
      ],
      "name": "quoteAddLiquidity",
      "outputs": [
        {
          "internalType": "uint256",
          "name": "amountA",
          "type": "uint256"
        },
        {
          "internalType": "uint256",
          "name": "amountB",
          "type": "uint256"
        },
        {
          "internalType": "uint256",
          "name": "liquidity",
          "type": "uint256"
        }
      ],
      "stateMutability": "view",
      "type": "function"
    },
    {
      "inputs": [
        {
          "internalType": "address",
          "name": "tokenA",
          "type": "address"
        },
        {
          "internalType": "address",
          "name": "tokenB",
          "type": "address"
        },
        {
          "internalType": "bool",
          "name": "stable",
          "type": "bool"
        },
        {
          "internalType": "uint256",
          "name": "liquidity",
          "type": "uint256"
        }
      ],
      "name": "quoteRemoveLiquidity",
      "outputs": [
        {
          "internalType": "uint256",
          "name": "amountA",
          "type": "uint256"
        },
        {
          "internalType": "uint256",
          "name": "amountB",
          "type": "uint256"
        }
      ],
      "stateMutability": "view",
      "type": "function"
    },
    {
      "inputs": [
        {
          "internalType": "address",
          "name": "tokenA",
          "type": "address"
        },
        {
          "internalType": "address",
          "name": "tokenB",
          "type": "address"
        },
        {
          "internalType": "bool",
          "name": "stable",
          "type": "bool"
        },
        {
          "internalType": "uint256",
          "name": "liquidity",
          "type": "uint256"
        },
        {
          "internalType": "uint256",
          "name": "amountAMin",
          "type": "uint256"
        },
        {
          "internalType": "uint256",
          "name": "amountBMin",
          "type": "uint256"
        },
        {
          "internalType": "address",
          "name": "to",
          "type": "address"
        },
        {
          "internalType": "uint256",
          "name": "deadline",
          "type": "uint256"
        }
      ],
      "name": "removeLiquidity",
      "outputs": [
        {
          "internalType": "uint256",
          "name": "amountA",
          "type": "uint256"
        },
        {
          "internalType": "uint256",
          "name": "amountB",
          "type": "uint256"
        }
      ],
      "stateMutability": "nonpayable",
      "type": "function"
    },
    {
      "inputs": [
        {
          "internalType": "address",
          "name": "token",
          "type": "address"
        },
        {
          "internalType": "bool",
          "name": "stable",
          "type": "bool"
        },
        {
          "internalType": "uint256",
          "name": "liquidity",
          "type": "uint256"
        },
        {
          "internalType": "uint256",
          "name": "amountTokenMin",
          "type": "uint256"
        },
        {
          "internalType": "uint256",
          "name": "amountFTMMin",
          "type": "uint256"
        },
        {
          "internalType": "address",
          "name": "to",
          "type": "address"
        },
        {
          "internalType": "uint256",
          "name": "deadline",
          "type": "uint256"
        }
      ],
      "name": "removeLiquidityFTM",
      "outputs": [
        {
          "internalType": "uint256",
          "name": "amountToken",
          "type": "uint256"
        },
        {
          "internalType": "uint256",
          "name": "amountFTM",
          "type": "uint256"
        }
      ],
      "stateMutability": "nonpayable",
      "type": "function"
    },
    {
      "inputs": [
        {
          "internalType": "address",
          "name": "token",
          "type": "address"
        },
        {
          "internalType": "bool",
          "name": "stable",
          "type": "bool"
        },
        {
          "internalType": "uint256",
          "name": "liquidity",
          "type": "uint256"
        },
        {
          "internalType": "uint256",
          "name": "amountTokenMin",
          "type": "uint256"
        },
        {
          "internalType": "uint256",
          "name": "amountFTMMin",
          "type": "uint256"
        },
        {
          "internalType": "address",
          "name": "to",
          "type": "address"
        },
        {
          "internalType": "uint256",
          "name": "deadline",
          "type": "uint256"
        },
        {
          "internalType": "bool",
          "name": "approveMax",
          "type": "bool"
        },
        {
          "internalType": "uint8",
          "name": "v",
          "type": "uint8"
        },
        {
          "internalType": "bytes32",
          "name": "r",
          "type": "bytes32"
        },
        {
          "internalType": "bytes32",
          "name": "s",
          "type": "bytes32"
        }
      ],
      "name": "removeLiquidityFTMWithPermit",
      "outputs": [
        {
          "internalType": "uint256",
          "name": "amountToken",
          "type": "uint256"
        },
        {
          "internalType": "uint256",
          "name": "amountFTM",
          "type": "uint256"
        }
      ],
      "stateMutability": "nonpayable",
      "type": "function"
    },
    {
      "inputs": [
        {
          "internalType": "address",
          "name": "tokenA",
          "type": "address"
        },
        {
          "internalType": "address",
          "name": "tokenB",
          "type": "address"
        },
        {
          "internalType": "bool",
          "name": "stable",
          "type": "bool"
        },
        {
          "internalType": "uint256",
          "name": "liquidity",
          "type": "uint256"
        },
        {
          "internalType": "uint256",
          "name": "amountAMin",
          "type": "uint256"
        },
        {
          "internalType": "uint256",
          "name": "amountBMin",
          "type": "uint256"
        },
        {
          "internalType": "address",
          "name": "to",
          "type": "address"
        },
        {
          "internalType": "uint256",
          "name": "deadline",
          "type": "uint256"
        },
        {
          "internalType": "bool",
          "name": "approveMax",
          "type": "bool"
        },
        {
          "internalType": "uint8",
          "name": "v",
          "type": "uint8"
        },
        {
          "internalType": "bytes32",
          "name": "r",
          "type": "bytes32"
        },
        {
          "internalType": "bytes32",
          "name": "s",
          "type": "bytes32"
        }
      ],
      "name": "removeLiquidityWithPermit",
      "outputs": [
        {
          "internalType": "uint256",
          "name": "amountA",
          "type": "uint256"
        },
        {
          "internalType": "uint256",
          "name": "amountB",
          "type": "uint256"
        }
      ],
      "stateMutability": "nonpayable",
      "type": "function"
    },
    {
      "inputs": [
        {
          "internalType": "address",
          "name": "tokenA",
          "type": "address"
        },
        {
          "internalType": "address",
          "name": "tokenB",
          "type": "address"
        }
      ],
      "name": "sortTokens",
      "outputs": [
        {
          "internalType": "address",
          "name": "token0",
          "type": "address"
        },
        {
          "internalType": "address",
          "name": "token1",
          "type": "address"
        }
      ],
      "stateMutability": "pure",
      "type": "function"
    },
    {
      "inputs": [
        {
          "internalType": "uint256",
          "name": "amountOutMin",
          "type": "uint256"
        },
        {
          "components": [
            {
              "internalType": "address",
              "name": "from",
              "type": "address"
            },
            {
              "internalType": "address",
              "name": "to",
              "type": "address"
            },
            {
              "internalType": "bool",
              "name": "stable",
              "type": "bool"
            }
          ],
          "internalType": "struct BaseV1Router01.route[]",
          "name": "routes",
          "type": "tuple[]"
        },
        {
          "internalType": "address",
          "name": "to",
          "type": "address"
        },
        {
          "internalType": "uint256",
          "name": "deadline",
          "type": "uint256"
        }
      ],
      "name": "swapExactFTMForTokens",
      "outputs": [
        {
          "internalType": "uint256[]",
          "name": "amounts",
          "type": "uint256[]"
        }
      ],
      "stateMutability": "payable",
      "type": "function"
    },
    {
      "inputs": [
        {
          "internalType": "uint256",
          "name": "amountIn",
          "type": "uint256"
        },
        {
          "internalType": "uint256",
          "name": "amountOutMin",
          "type": "uint256"
        },
        {
          "components": [
            {
              "internalType": "address",
              "name": "from",
              "type": "address"
            },
            {
              "internalType": "address",
              "name": "to",
              "type": "address"
            },
            {
              "internalType": "bool",
              "name": "stable",
              "type": "bool"
            }
          ],
          "internalType": "struct BaseV1Router01.route[]",
          "name": "routes",
          "type": "tuple[]"
        },
        {
          "internalType": "address",
          "name": "to",
          "type": "address"
        },
        {
          "internalType": "uint256",
          "name": "deadline",
          "type": "uint256"
        }
      ],
      "name": "swapExactTokensForFTM",
      "outputs": [
        {
          "internalType": "uint256[]",
          "name": "amounts",
          "type": "uint256[]"
        }
      ],
      "stateMutability": "nonpayable",
      "type": "function"
    },
    {
      "inputs": [
        {
          "internalType": "uint256",
          "name": "amountIn",
          "type": "uint256"
        },
        {
          "internalType": "uint256",
          "name": "amountOutMin",
          "type": "uint256"
        },
        {
          "components": [
            {
              "internalType": "address",
              "name": "from",
              "type": "address"
            },
            {
              "internalType": "address",
              "name": "to",
              "type": "address"
            },
            {
              "internalType": "bool",
              "name": "stable",
              "type": "bool"
            }
          ],
          "internalType": "struct BaseV1Router01.route[]",
          "name": "routes",
          "type": "tuple[]"
        },
        {
          "internalType": "address",
          "name": "to",
          "type": "address"
        },
        {
          "internalType": "uint256",
          "name": "deadline",
          "type": "uint256"
        }
      ],
      "name": "swapExactTokensForTokens",
      "outputs": [
        {
          "internalType": "uint256[]",
          "name": "amounts",
          "type": "uint256[]"
        }
      ],
      "stateMutability": "nonpayable",
      "type": "function"
    },
    {
      "inputs": [
        {
          "internalType": "uint256",
          "name": "amountIn",
          "type": "uint256"
        },
        {
          "internalType": "uint256",
          "name": "amountOutMin",
          "type": "uint256"
        },
        {
          "internalType": "address",
          "name": "tokenFrom",
          "type": "address"
        },
        {
          "internalType": "address",
          "name": "tokenTo",
          "type": "address"
        },
        {
          "internalType": "bool",
          "name": "stable",
          "type": "bool"
        },
        {
          "internalType": "address",
          "name": "to",
          "type": "address"
        },
        {
          "internalType": "uint256",
          "name": "deadline",
          "type": "uint256"
        }
      ],
      "name": "swapExactTokensForTokensSimple",
      "outputs": [
        {
          "internalType": "uint256[]",
          "name": "amounts",
          "type": "uint256[]"
        }
      ],
      "stateMutability": "nonpayable",
      "type": "function"
    },
    {
      "inputs": [],
      "name": "wftm",
      "outputs": [
        {
          "internalType": "contract IWFTM",
          "name": "",
          "type": "address"
        }
      ],
      "stateMutability": "view",
      "type": "function"
    },
    {
      "stateMutability": "payable",
      "type": "receive"
    }
  ],
  "bytecode": "0x60e06040523480156200001157600080fd5b50604051620039fc380380620039fc8339810160408190526200003491620000d8565b6001600160a01b038216608081905260408051631355724960e31b81529051639aab9248916004808201926020929091908290030181865afa1580156200007f573d6000803e3d6000fd5b505050506040513d601f19601f82011682018060405250810190620000a5919062000110565b60c0526001600160a01b031660a052506200012a565b80516001600160a01b0381168114620000d357600080fd5b919050565b60008060408385031215620000ec57600080fd5b620000f783620000bb565b91506200010760208401620000bb565b90509250929050565b6000602082840312156200012357600080fd5b5051919050565b60805160a05160c051613808620001f46000396000610a7501526000818161013e0152818161049d01528181610c1b01528181610c5101528181610c8601528181610d1b015281816118e801528181611abb01528181611bc401528181611c1401528181611c9a01528181611e2201528181611f350152611fc30152600081816103a60152818161089301528181610a3a01528181610f480152818161105c015281816114940152818161160801528181611d8a015281816125f0015261269101526138086000f3fe60806040526004361061012e5760003560e01c80639881fcb4116100ab578063cc1d17731161006f578063cc1d1773146103e8578063d28254b814610408578063e5e31b1314610428578063e8ef468114610458578063f41766d81461046b578063f4f45b461461048b57600080fd5b80639881fcb41461033457806398a0fb3c14610354578063a32b1fcd14610374578063c45a015514610394578063c6b9577e146103c857600080fd5b8063578caf32116100f2578063578caf32146102715780635a47ddc31461029f5780635e1e6325146102bf5780635e60dab5146102f45780637301e3c81461031457600080fd5b80630dede6c41461017257806313dcfc59146101ac5780634386e63c146101d95780634c1ee03e146101f9578063544caa561461023157600080fd5b3661016d57336001600160a01b037f0000000000000000000000000000000000000000000000000000000000000000161461016b5761016b612afc565b005b600080fd5b34801561017e57600080fd5b5061019261018d366004612b43565b6104bf565b604080519283526020830191909152015b60405180910390f35b3480156101b857600080fd5b506101cc6101c7366004612bc8565b610679565b6040516101a39190612c43565b3480156101e557600080fd5b506101926101f4366004612c87565b61088c565b34801561020557600080fd5b50610219610214366004612cd8565b6109f3565b6040516001600160a01b0390911681526020016101a3565b34801561023d57600080fd5b5061025161024c366004612d23565b610afb565b604080516001600160a01b039384168152929091166020830152016101a3565b61028461027f366004612d5c565b610bef565b604080519384526020840192909252908201526060016101a3565b3480156102ab57600080fd5b506102846102ba366004612db7565b610e30565b3480156102cb57600080fd5b506102df6102da366004612e46565b610f10565b604080519283529015156020830152016101a3565b34801561030057600080fd5b5061019261030f366004612cd8565b611164565b34801561032057600080fd5b506101cc61032f366004612f2d565b61122e565b34801561034057600080fd5b506101cc61034f366004613080565b61137e565b34801561036057600080fd5b5061028461036f366004613126565b611600565b34801561038057600080fd5b5061019261038f366004613192565b611800565b3480156103a057600080fd5b506102197f000000000000000000000000000000000000000000000000000000000000000081565b3480156103d457600080fd5b506101cc6103e336600461324e565b6118bb565b3480156103f457600080fd5b50610192610403366004612d5c565b611b9a565b34801561041457600080fd5b506101926104233660046132c1565b611c8f565b34801561043457600080fd5b5061044861044336600461336b565b611d68565b60405190151581526020016101a3565b6101cc610466366004613388565b611dfd565b34801561047757600080fd5b506101cc61048636600461324e565b612147565b34801561049757600080fd5b506102197f000000000000000000000000000000000000000000000000000000000000000081565b60008082428110156104ec5760405162461bcd60e51b81526004016104e3906133de565b60405180910390fd5b60006104f98c8c8c6109f3565b6040516323b872dd60e01b81523360048201526001600160a01b03821660248201819052604482018c90529192506323b872dd906064016020604051808303816000875af115801561054f573d6000803e3d6000fd5b505050506040513d601f19601f82011682018060405250810190610573919061340d565b61057c57600080fd5b60405163226bf2d160e21b81526001600160a01b03878116600483015260009182918416906389afcb449060240160408051808303816000875af11580156105c8573d6000803e3d6000fd5b505050506040513d601f19601f820116820180604052508101906105ec919061342a565b9150915060006105fc8f8f610afb565b509050806001600160a01b03168f6001600160a01b03161461061f578183610622565b82825b90975095508a8710156106475760405162461bcd60e51b81526004016104e39061344e565b898610156106675760405162461bcd60e51b81526004016104e390613491565b50505050509850989650505050505050565b6060814281101561069c5760405162461bcd60e51b81526004016104e3906133de565b604080516001808252818301909252600091816020015b60408051606081018252600080825260208083018290529282015282526000199092019101816106b357905050905087816000815181106106f6576106f66134d4565b6020026020010151600001906001600160a01b031690816001600160a01b031681525050868160008151811061072e5761072e6134d4565b6020026020010151602001906001600160a01b031690816001600160a01b0316815250508581600081518110610766576107666134d4565b60209081029190910101519015156040909101526107848a8261137e565b92508883600185516107969190613500565b815181106107a6576107a66134d4565b602002602001015110156107cc5760405162461bcd60e51b81526004016104e390613517565b610874816000815181106107e2576107e26134d4565b6020026020010151600001513361085484600081518110610805576108056134d4565b60200260200101516000015185600081518110610824576108246134d4565b60200260200101516020015186600081518110610843576108436134d4565b6020026020010151604001516109f3565b86600081518110610867576108676134d4565b602002602001015161226c565b61087f838287612364565b5050979650505050505050565b60008060007f00000000000000000000000000000000000000000000000000000000000000006001600160a01b0316636801cc308888886040518463ffffffff1660e01b81526004016108e19392919061355f565b602060405180830381865afa1580156108fe573d6000803e3d6000fd5b505050506040513d601f19601f820116820180604052508101906109229190613583565b90506001600160a01b03811661093f5760008092509250506109ea565b60008061094d898989611164565b915091506000836001600160a01b03166318160ddd6040518163ffffffff1660e01b8152600401602060405180830381865afa158015610991573d6000803e3d6000fd5b505050506040513d601f19601f820116820180604052508101906109b591906135a0565b9050806109c284896135b9565b6109cc91906135d8565b9550806109d983896135b9565b6109e391906135d8565b9450505050505b94509492505050565b6000806000610a028686610afb565b6040516bffffffffffffffffffffffff19606084811b8216602084015283901b16603482015286151560f81b604882015291935091507f000000000000000000000000000000000000000000000000000000000000000090604901604051602081830303815290604052805190602001207f0000000000000000000000000000000000000000000000000000000000000000604051602001610ad9939291906001600160f81b0319815260609390931b6bffffffffffffffffffffffff191660018401526015830191909152603582015260550190565b60408051601f1981840301815291905280516020909101209695505050505050565b600080826001600160a01b0316846001600160a01b03161415610b6a5760405162461bcd60e51b815260206004820152602160248201527f426173655631526f757465723a204944454e544943414c5f41444452455353456044820152605360f81b60648201526084016104e3565b826001600160a01b0316846001600160a01b031610610b8a578284610b8d565b83835b90925090506001600160a01b038216610be85760405162461bcd60e51b815260206004820152601a60248201527f426173655631526f757465723a205a45524f5f4144445245535300000000000060448201526064016104e3565b9250929050565b60008060008342811015610c155760405162461bcd60e51b81526004016104e3906133de565b610c448b7f00000000000000000000000000000000000000000000000000000000000000008c8c348d8d6125b9565b90945092506000610c768c7f00000000000000000000000000000000000000000000000000000000000000008d6109f3565b9050610c848c33838861226c565b7f00000000000000000000000000000000000000000000000000000000000000006001600160a01b031663d0e30db0856040518263ffffffff1660e01b81526004016000604051808303818588803b158015610cdf57600080fd5b505af1158015610cf3573d6000803e3d6000fd5b505060405163a9059cbb60e01b81526001600160a01b038581166004830152602482018990527f000000000000000000000000000000000000000000000000000000000000000016935063a9059cbb925060440190506020604051808303816000875af1158015610d68573d6000803e3d6000fd5b505050506040513d601f19601f82011682018060405250810190610d8c919061340d565b610d9857610d98612afc565b6040516335313c2160e11b81526001600160a01b038881166004830152821690636a627842906024016020604051808303816000875af1158015610de0573d6000803e3d6000fd5b505050506040513d601f19601f82011682018060405250810190610e0491906135a0565b925083341115610e2157610e2133610e1c8634613500565b6127d7565b50509750975097945050505050565b60008060008342811015610e565760405162461bcd60e51b81526004016104e3906133de565b610e658d8d8d8d8d8d8d6125b9565b90945092506000610e778e8e8e6109f3565b9050610e858e33838861226c565b610e918d33838761226c565b6040516335313c2160e11b81526001600160a01b038881166004830152821690636a627842906024016020604051808303816000875af1158015610ed9573d6000803e3d6000fd5b505050506040513d601f19601f82011682018060405250810190610efd91906135a0565b9250505099509950999650505050505050565b6000806000610f21858560016109f3565b60405163e5e31b1360e01b81526001600160a01b03828116600483015291925060009182917f00000000000000000000000000000000000000000000000000000000000000009091169063e5e31b1390602401602060405180830381865afa158015610f91573d6000803e3d6000fd5b505050506040513d601f19601f82011682018060405250810190610fb5919061340d565b1561102e576040516378a051ad60e11b8152600481018990526001600160a01b03888116602483015284169063f140a35a90604401602060405180830381865afa158015611007573d6000803e3d6000fd5b505050506040513d601f19601f8201168201806040525081019061102b91906135a0565b91505b61103a878760006109f3565b60405163e5e31b1360e01b81526001600160a01b0380831660048301529194507f00000000000000000000000000000000000000000000000000000000000000009091169063e5e31b1390602401602060405180830381865afa1580156110a5573d6000803e3d6000fd5b505050506040513d601f19601f820116820180604052508101906110c9919061340d565b15611142576040516378a051ad60e11b8152600481018990526001600160a01b03888116602483015284169063f140a35a90604401602060405180830381865afa15801561111b573d6000803e3d6000fd5b505050506040513d601f19601f8201168201806040525081019061113f91906135a0565b90505b80821161115157806000611155565b8160015b94509450505050935093915050565b60008060006111738686610afb565b5090506000806111848888886109f3565b6001600160a01b0316630902f1ac6040518163ffffffff1660e01b8152600401606060405180830381865afa1580156111c1573d6000803e3d6000fd5b505050506040513d601f19601f820116820180604052508101906111e59190613611565b506001600160701b031691506001600160701b03169150826001600160a01b0316886001600160a01b03161461121c57808261121f565b81815b90999098509650505050505050565b606081428110156112515760405162461bcd60e51b81526004016104e3906133de565b61131386866000818110611267576112676134d4565b61127d926020606090920201908101915061336b565b3361130089896000818110611294576112946134d4565b6112aa926020606090920201908101915061336b565b8a8a60008181106112bd576112bd6134d4565b90506060020160200160208101906112d5919061336b565b8b8b60008181106112e8576112e86134d4565b90506060020160400160208101906102149190613656565b8a600081518110610867576108676134d4565b611370878787808060200260200160405190810160405280939291908181526020016000905b828210156113655761135660608302860136819003810190613673565b81526020019060010190611339565b505050505086612364565b8691505b5095945050505050565b60606001825110156113a25760405162461bcd60e51b81526004016104e39061368f565b81516113af9060016136c6565b67ffffffffffffffff8111156113c7576113c7612e7d565b6040519080825280602002602001820160405280156113f0578160200160208202803683370190505b5090508281600081518110611407576114076134d4565b60200260200101818152505060005b82518110156115f9576000611472848381518110611436576114366134d4565b602002602001015160000151858481518110611454576114546134d4565b602002602001015160200151868581518110610843576108436134d4565b60405163e5e31b1360e01b81526001600160a01b0380831660048301529192507f00000000000000000000000000000000000000000000000000000000000000009091169063e5e31b1390602401602060405180830381865afa1580156114dd573d6000803e3d6000fd5b505050506040513d601f19601f82011682018060405250810190611501919061340d565b156115e657806001600160a01b031663f140a35a848481518110611527576115276134d4565b6020026020010151868581518110611541576115416134d4565b6020026020010151600001516040518363ffffffff1660e01b815260040161157c9291909182526001600160a01b0316602082015260400190565b602060405180830381865afa158015611599573d6000803e3d6000fd5b505050506040513d601f19601f820116820180604052508101906115bd91906135a0565b836115c98460016136c6565b815181106115d9576115d96134d4565b6020026020010181815250505b50806115f1816136de565b915050611416565b5092915050565b6000806000807f00000000000000000000000000000000000000000000000000000000000000006001600160a01b0316636801cc308a8a8a6040518463ffffffff1660e01b81526004016116569392919061355f565b602060405180830381865afa158015611673573d6000803e3d6000fd5b505050506040513d601f19601f820116820180604052508101906116979190613583565b9050600080806001600160a01b0384161561172157836001600160a01b03166318160ddd6040518163ffffffff1660e01b8152600401602060405180830381865afa1580156116ea573d6000803e3d6000fd5b505050506040513d601f19601f8201168201806040525081019061170e91906135a0565b905061171b8c8c8c611164565b90935091505b8215801561172d575081155b1561175e578896508795506103e861174d611748888a6135b9565b6128a5565b6117579190613500565b94506117f1565b600061176b8a8585612915565b90508881116117b3578997509550856117ac84611788848b6135b9565b61179291906135d8565b8461179d858b6135b9565b6117a791906135d8565b6129f5565b95506117ef565b60006117c08a8587612915565b98508997508890506117eb856117d685846135b9565b6117e091906135d8565b8561179d868c6135b9565b9650505b505b50505050955095509592505050565b60008060006118108f8f8f6109f3565b905060008761181f578c611823565b6000195b60405163d505accf60e01b81529091506001600160a01b0383169063d505accf9061185e903390309086908f908e908e908e906004016136f9565b600060405180830381600087803b15801561187857600080fd5b505af115801561188c573d6000803e3d6000fd5b50505050506118a18f8f8f8f8f8f8f8f6104bf565b8093508194505050509c509c9a5050505050505050505050565b606081428110156118de5760405162461bcd60e51b81526004016104e3906133de565b6001600160a01b037f0000000000000000000000000000000000000000000000000000000000000000168686611915600182613500565b818110611924576119246134d4565b905060600201602001602081019061193c919061336b565b6001600160a01b0316146119625760405162461bcd60e51b81526004016104e39061368f565b6119be888787808060200260200160405190810160405280939291908181526020016000905b828210156119b4576119a560608302860136819003810190613673565b81526020019060010190611988565b505050505061137e565b91508682600184516119d09190613500565b815181106119e0576119e06134d4565b60200260200101511015611a065760405162461bcd60e51b81526004016104e390613517565b611a5c86866000818110611a1c57611a1c6134d4565b611a32926020606090920201908101915061336b565b33611a4989896000818110611294576112946134d4565b85600081518110610867576108676134d4565b611ab9828787808060200260200160405190810160405280939291908181526020016000905b82821015611aae57611a9f60608302860136819003810190613673565b81526020019060010190611a82565b505050505030612364565b7f00000000000000000000000000000000000000000000000000000000000000006001600160a01b0316632e1a7d4d8360018551611af79190613500565b81518110611b0757611b076134d4565b60200260200101516040518263ffffffff1660e01b8152600401611b2d91815260200190565b600060405180830381600087803b158015611b4757600080fd5b505af1158015611b5b573d6000803e3d6000fd5b50505050611b8f848360018551611b729190613500565b81518110611b8257611b826134d4565b60200260200101516127d7565b509695505050505050565b6000808242811015611bbe5760405162461bcd60e51b81526004016104e3906133de565b611bee8a7f00000000000000000000000000000000000000000000000000000000000000008b8b8b8b308b6104bf565b9093509150611bfe8a8685612a0d565b604051632e1a7d4d60e01b8152600481018390527f00000000000000000000000000000000000000000000000000000000000000006001600160a01b031690632e1a7d4d90602401600060405180830381600087803b158015611c6057600080fd5b505af1158015611c74573d6000803e3d6000fd5b50505050611c8285836127d7565b5097509795505050505050565b6000806000611cbf8e7f00000000000000000000000000000000000000000000000000000000000000008f6109f3565b9050600087611cce578c611cd2565b6000195b60405163d505accf60e01b81529091506001600160a01b0383169063d505accf90611d0d903390309086908f908e908e908e906004016136f9565b600060405180830381600087803b158015611d2757600080fd5b505af1158015611d3b573d6000803e3d6000fd5b50505050611d4e8f8f8f8f8f8f8f611b9a565b809450819550505050509b509b9950505050505050505050565b60405163e5e31b1360e01b81526001600160a01b0382811660048301526000917f00000000000000000000000000000000000000000000000000000000000000009091169063e5e31b1390602401602060405180830381865afa158015611dd3573d6000803e3d6000fd5b505050506040513d601f19601f82011682018060405250810190611df7919061340d565b92915050565b60608142811015611e205760405162461bcd60e51b81526004016104e3906133de565b7f00000000000000000000000000000000000000000000000000000000000000006001600160a01b031686866000818110611e5d57611e5d6134d4565b611e73926020606090920201908101915061336b565b6001600160a01b031614611e995760405162461bcd60e51b81526004016104e39061368f565b611eeb348787808060200260200160405190810160405280939291908181526020016000905b828210156119b457611edc60608302860136819003810190613673565b81526020019060010190611ebf565b9150868260018451611efd9190613500565b81518110611f0d57611f0d6134d4565b60200260200101511015611f335760405162461bcd60e51b81526004016104e390613517565b7f00000000000000000000000000000000000000000000000000000000000000006001600160a01b031663d0e30db083600081518110611f7557611f756134d4565b60200260200101516040518263ffffffff1660e01b81526004016000604051808303818588803b158015611fa857600080fd5b505af1158015611fbc573d6000803e3d6000fd5b50505050507f00000000000000000000000000000000000000000000000000000000000000006001600160a01b031663a9059cbb61205a88886000818110612006576120066134d4565b61201c926020606090920201908101915061336b565b8989600081811061202f5761202f6134d4565b9050606002016020016020810190612047919061336b565b8a8a60008181106112e8576112e86134d4565b8460008151811061206d5761206d6134d4565b60200260200101516040518363ffffffff1660e01b81526004016120a69291906001600160a01b03929092168252602082015260400190565b6020604051808303816000875af11580156120c5573d6000803e3d6000fd5b505050506040513d601f19601f820116820180604052508101906120e9919061340d565b6120f5576120f5612afc565b611374828787808060200260200160405190810160405280939291908181526020016000905b828210156113655761213860608302860136819003810190613673565b8152602001906001019061211b565b6060814281101561216a5760405162461bcd60e51b81526004016104e3906133de565b6121bc888787808060200260200160405190810160405280939291908181526020016000905b828210156119b4576121ad60608302860136819003810190613673565b81526020019060010190612190565b91508682600184516121ce9190613500565b815181106121de576121de6134d4565b602002602001015110156122045760405162461bcd60e51b81526004016104e390613517565b61221a86866000818110611a1c57611a1c6134d4565b611b8f828787808060200260200160405190810160405280939291908181526020016000905b828210156113655761225d60608302860136819003810190613673565b81526020019060010190612240565b6000846001600160a01b03163b1161228357600080fd5b604080516001600160a01b0385811660248301528481166044830152606480830185905283518084039091018152608490920183526020820180516001600160e01b03166323b872dd60e01b17905291516000928392908816916122e79190613766565b6000604051808303816000865af19150503d8060008114612324576040519150601f19603f3d011682016040523d82523d6000602084013e612329565b606091505b5091509150818015612353575080511580612353575080806020019051810190612353919061340d565b61235c57600080fd5b505050505050565b60005b82518110156125b35760006123b6848381518110612387576123876134d4565b6020026020010151600001518584815181106123a5576123a56134d4565b602002602001015160200151610afb565b5090506000856123c78460016136c6565b815181106123d7576123d76134d4565b60200260200101519050600080836001600160a01b0316878681518110612400576124006134d4565b6020026020010151600001516001600160a01b03161461242257826000612426565b6000835b9150915060006001885161243a9190613500565b861061244657866124b9565b6124b9886124558860016136c6565b81518110612465576124656134d4565b6020026020010151600001518988600161247f91906136c6565b8151811061248f5761248f6134d4565b6020026020010151602001518a8960016124a991906136c6565b81518110610843576108436134d4565b905061250c8887815181106124d0576124d06134d4565b6020026020010151600001518988815181106124ee576124ee6134d4565b6020026020010151602001518a8981518110610843576108436134d4565b6001600160a01b031663022c0d9f84848460006040519080825280601f01601f191660200182016040528015612549576020820181803683370190505b506040518563ffffffff1660e01b81526004016125699493929190613782565b600060405180830381600087803b15801561258357600080fd5b505af1158015612597573d6000803e3d6000fd5b50505050505050505080806125ab906136de565b915050612367565b50505050565b600080838610156125c957600080fd5b828510156125d657600080fd5b6040516306801cc360e41b81526000906001600160a01b037f00000000000000000000000000000000000000000000000000000000000000001690636801cc3090612629908d908d908d9060040161355f565b602060405180830381865afa158015612646573d6000803e3d6000fd5b505050506040513d601f19601f8201168201806040525081019061266a9190613583565b90506001600160a01b038116612710576040516320b7f73960e21b81526001600160a01b037f000000000000000000000000000000000000000000000000000000000000000016906382dfdce4906126ca908d908d908d9060040161355f565b6020604051808303816000875af11580156126e9573d6000803e3d6000fd5b505050506040513d601f19601f8201168201806040525081019061270d9190613583565b90505b60008061271e8c8c8c611164565b91509150816000148015612730575080155b15612740578894508793506127c8565b600061274d8a8484612915565b905088811161278157868110156127765760405162461bcd60e51b81526004016104e390613491565b8995509350836127c6565b600061278e8a8486612915565b90508a8111156127a0576127a0612afc565b888110156127c05760405162461bcd60e51b81526004016104e39061344e565b95508894505b505b50505097509795505050505050565b604080516000808252602082019092526001600160a01b0384169083906040516128019190613766565b60006040518083038185875af1925050503d806000811461283e576040519150601f19603f3d011682016040523d82523d6000602084013e612843565b606091505b50509050806128a05760405162461bcd60e51b815260206004820152602360248201527f5472616e7366657248656c7065723a204554485f5452414e534645525f46414960448201526213115160ea1b60648201526084016104e3565b505050565b6000600382111561290657508060006128bf6002836135d8565b6128ca9060016136c6565b90505b81811015612900579050806002816128e581866135d8565b6128ef91906136c6565b6128f991906135d8565b90506128cd565b50919050565b8115612910575060015b919050565b60008084116129705760405162461bcd60e51b815260206004820152602160248201527f426173655631526f757465723a20494e53554646494349454e545f414d4f554e6044820152601560fa1b60648201526084016104e3565b6000831180156129805750600082115b6129d85760405162461bcd60e51b8152602060048201526024808201527f426173655631526f757465723a20494e53554646494349454e545f4c495155496044820152634449545960e01b60648201526084016104e3565b826129e383866135b9565b6129ed91906135d8565b949350505050565b6000818310612a045781612a06565b825b9392505050565b6000836001600160a01b03163b11612a2457600080fd5b604080516001600160a01b038481166024830152604480830185905283518084039091018152606490920183526020820180516001600160e01b031663a9059cbb60e01b1790529151600092839290871691612a809190613766565b6000604051808303816000865af19150503d8060008114612abd576040519150601f19603f3d011682016040523d82523d6000602084013e612ac2565b606091505b5091509150818015612aec575080511580612aec575080806020019051810190612aec919061340d565b612af557600080fd5b5050505050565b634e487b7160e01b600052600160045260246000fd5b6001600160a01b0381168114612b2757600080fd5b50565b803561291081612b12565b8015158114612b2757600080fd5b600080600080600080600080610100898b031215612b6057600080fd5b8835612b6b81612b12565b97506020890135612b7b81612b12565b96506040890135612b8b81612b35565b9550606089013594506080890135935060a0890135925060c0890135612bb081612b12565b8092505060e089013590509295985092959890939650565b600080600080600080600060e0888a031215612be357600080fd5b87359650602088013595506040880135612bfc81612b12565b94506060880135612c0c81612b12565b93506080880135612c1c81612b35565b925060a0880135612c2c81612b12565b8092505060c0880135905092959891949750929550565b6020808252825182820181905260009190848201906040850190845b81811015612c7b57835183529284019291840191600101612c5f565b50909695505050505050565b60008060008060808587031215612c9d57600080fd5b8435612ca881612b12565b93506020850135612cb881612b12565b92506040850135612cc881612b35565b9396929550929360600135925050565b600080600060608486031215612ced57600080fd5b8335612cf881612b12565b92506020840135612d0881612b12565b91506040840135612d1881612b35565b809150509250925092565b60008060408385031215612d3657600080fd5b8235612d4181612b12565b91506020830135612d5181612b12565b809150509250929050565b600080600080600080600060e0888a031215612d7757600080fd5b8735612d8281612b12565b96506020880135612d9281612b35565b955060408801359450606088013593506080880135925060a0880135612c2c81612b12565b60008060008060008060008060006101208a8c031215612dd657600080fd5b8935612de181612b12565b985060208a0135612df181612b12565b975060408a0135612e0181612b35565b965060608a0135955060808a0135945060a08a0135935060c08a0135925060e08a0135612e2d81612b12565b809250506101008a013590509295985092959850929598565b600080600060608486031215612e5b57600080fd5b833592506020840135612e6d81612b12565b91506040840135612d1881612b12565b634e487b7160e01b600052604160045260246000fd5b604051601f8201601f1916810167ffffffffffffffff81118282101715612ebc57612ebc612e7d565b604052919050565b600067ffffffffffffffff821115612ede57612ede612e7d565b5060051b60200190565b60008083601f840112612efa57600080fd5b50813567ffffffffffffffff811115612f1257600080fd5b602083019150836020606083028501011115610be857600080fd5b600080600080600060808688031215612f4557600080fd5b853567ffffffffffffffff80821115612f5d57600080fd5b818801915088601f830112612f7157600080fd5b81356020612f86612f8183612ec4565b612e93565b82815260059290921b8401810191818101908c841115612fa557600080fd5b948201945b83861015612fc357853582529482019490820190612faa565b99505089013592505080821115612fd957600080fd5b50612fe688828901612ee8565b9095509350612ff9905060408701612b2a565b949793965091946060013592915050565b60006060828403121561301c57600080fd5b6040516060810181811067ffffffffffffffff8211171561303f5761303f612e7d565b604052905080823561305081612b12565b8152602083013561306081612b12565b6020820152604083013561307381612b35565b6040919091015292915050565b6000806040838503121561309357600080fd5b8235915060208084013567ffffffffffffffff8111156130b257600080fd5b8401601f810186136130c357600080fd5b80356130d1612f8182612ec4565b818152606091820283018401918482019190898411156130f057600080fd5b938501935b83851015613116576131078a8661300a565b835293840193918501916130f5565b5080955050505050509250929050565b600080600080600060a0868803121561313e57600080fd5b853561314981612b12565b9450602086013561315981612b12565b9350604086013561316981612b35565b94979396509394606081013594506080013592915050565b803560ff8116811461291057600080fd5b6000806000806000806000806000806000806101808d8f0312156131b557600080fd5b8c356131c081612b12565b9b5060208d01356131d081612b12565b9a5060408d01356131e081612b35565b995060608d0135985060808d0135975060a08d0135965060c08d013561320581612b12565b955060e08d013594506101008d013561321d81612b35565b935061322c6101208e01613181565b92506101408d013591506101608d013590509295989b509295989b509295989b565b60008060008060008060a0878903121561326757600080fd5b8635955060208701359450604087013567ffffffffffffffff81111561328c57600080fd5b61329889828a01612ee8565b90955093505060608701356132ac81612b12565b80925050608087013590509295509295509295565b60008060008060008060008060008060006101608c8e0312156132e357600080fd5b8b356132ee81612b12565b9a5060208c01356132fe81612b35565b995060408c0135985060608c0135975060808c0135965060a08c013561332381612b12565b955060c08c0135945060e08c013561333a81612b35565b93506133496101008d01613181565b92506101208c013591506101408c013590509295989b509295989b9093969950565b60006020828403121561337d57600080fd5b8135612a0681612b12565b6000806000806000608086880312156133a057600080fd5b85359450602086013567ffffffffffffffff8111156133be57600080fd5b6133ca88828901612ee8565b9095509350506040860135612ff981612b12565b60208082526015908201527410985cd9558c549bdd5d195c8e8811561412549151605a1b604082015260600190565b60006020828403121561341f57600080fd5b8151612a0681612b35565b6000806040838503121561343d57600080fd5b505080516020909101519092909150565b60208082526023908201527f426173655631526f757465723a20494e53554646494349454e545f415f414d4f60408201526215539560ea1b606082015260800190565b60208082526023908201527f426173655631526f757465723a20494e53554646494349454e545f425f414d4f60408201526215539560ea1b606082015260800190565b634e487b7160e01b600052603260045260246000fd5b634e487b7160e01b600052601160045260246000fd5b600082821015613512576135126134ea565b500390565b60208082526028908201527f426173655631526f757465723a20494e53554646494349454e545f4f555450556040820152671517d05353d5539560c21b606082015260800190565b6001600160a01b039384168152919092166020820152901515604082015260600190565b60006020828403121561359557600080fd5b8151612a0681612b12565b6000602082840312156135b257600080fd5b5051919050565b60008160001904831182151516156135d3576135d36134ea565b500290565b6000826135f557634e487b7160e01b600052601260045260246000fd5b500490565b80516001600160701b038116811461291057600080fd5b60008060006060848603121561362657600080fd5b61362f846135fa565b925061363d602085016135fa565b9150604084015163ffffffff81168114612d1857600080fd5b60006020828403121561366857600080fd5b8135612a0681612b35565b60006060828403121561368557600080fd5b612a06838361300a565b6020808252601a908201527f426173655631526f757465723a20494e56414c49445f50415448000000000000604082015260600190565b600082198211156136d9576136d96134ea565b500190565b60006000198214156136f2576136f26134ea565b5060010190565b6001600160a01b0397881681529590961660208601526040850193909352606084019190915260ff16608083015260a082015260c081019190915260e00190565b60005b8381101561375557818101518382015260200161373d565b838111156125b35750506000910152565b6000825161377881846020870161373a565b9190910192915050565b84815283602082015260018060a01b038316604082015260806060820152600082518060808401526137bb8160a085016020870161373a565b601f01601f19169190910160a0019594505050505056fea26469706673582212200c4a1d0a9a3724e0c8b557dd35a9942362a293e56dbe2657362a166f6367c03964736f6c634300080b0033",
  "linkReferences": {},
  "deployedLinkReferences": {}
}