{
  "_format": "hh-sol-artifact-1",
  "contractName": "FetchFormulaOld",
  "sourceName": "contracts/FetchFormulaOld.sol",
  "abi": [
    {
      "inputs": [
        {
          "internalType": "uint256",
          "name": "_lockTime",
          "type": "uint256"
        }
      ],
      "name": "bonusPercent",
      "outputs": [
        {
          "internalType": "uint256",
          "name": "",
          "type": "uint256"
        }
      ],
      "stateMutability": "pure",
      "type": "function"
    }
  ],
  "bytecode": "0x608060405234801561001057600080fd5b50610172806100206000396000f3fe608060405234801561001057600080fd5b506004361061002b5760003560e01c8063faf1ebfd14610030575b600080fd5b61004361003e366004610123565b610055565b60405190815260200160405180910390f35b60006276a700821015801561006c575062ed4e0082105b1561007957506032919050565b62ed4e00821015801561008f57506301e1338082105b1561009c5750604b919050565b6301e1338082101580156100b357506303c2670082105b156100c057506064919050565b6303c2670082101580156100d757506305a39a8082105b156100e457506064919050565b6305a39a8082101580156100fb5750630784ce0082105b1561010857506064919050565b630784ce00821061011b57506064919050565b506000919050565b60006020828403121561013557600080fd5b503591905056fea2646970667358221220415c6bde6819b18a1e10ac400a6aa212544e6a8d441ed9d03295e11758e4b3cd64736f6c634300080b0033",
  "linkReferences": {},
  "deployedLinkReferences": {}
}