{
  "_format": "hh-sol-artifact-1",
  "contractName": "solidly_library",
  "sourceName": "contracts/solidly_library.sol",
  "abi": [
    {
      "inputs": [
        {
          "internalType": "address",
          "name": "_router",
          "type": "address"
        }
      ],
      "stateMutability": "nonpayable",
      "type": "constructor"
    },
    {
      "inputs": [
        {
          "internalType": "uint256",
          "name": "amountIn",
          "type": "uint256"
        },
        {
          "internalType": "address",
          "name": "tokenIn",
          "type": "address"
        },
        {
          "internalType": "address",
          "name": "tokenOut",
          "type": "address"
        },
        {
          "internalType": "bool",
          "name": "stable",
          "type": "bool"
        }
      ],
      "name": "getAmountOut",
      "outputs": [
        {
          "internalType": "uint256",
          "name": "",
          "type": "uint256"
        }
      ],
      "stateMutability": "view",
      "type": "function"
    },
    {
      "inputs": [
        {
          "internalType": "address",
          "name": "tokenIn",
          "type": "address"
        },
        {
          "internalType": "address",
          "name": "tokenOut",
          "type": "address"
        },
        {
          "internalType": "bool",
          "name": "stable",
          "type": "bool"
        }
      ],
      "name": "getMinimumValue",
      "outputs": [
        {
          "internalType": "uint256",
          "name": "",
          "type": "uint256"
        },
        {
          "internalType": "uint256",
          "name": "",
          "type": "uint256"
        },
        {
          "internalType": "uint256",
          "name": "",
          "type": "uint256"
        }
      ],
      "stateMutability": "view",
      "type": "function"
    },
    {
      "inputs": [
        {
          "internalType": "address",
          "name": "tokenIn",
          "type": "address"
        },
        {
          "internalType": "address",
          "name": "tokenOut",
          "type": "address"
        },
        {
          "internalType": "bool",
          "name": "stable",
          "type": "bool"
        }
      ],
      "name": "getSample",
      "outputs": [
        {
          "internalType": "uint256",
          "name": "",
          "type": "uint256"
        }
      ],
      "stateMutability": "view",
      "type": "function"
    },
    {
      "inputs": [
        {
          "internalType": "uint256",
          "name": "amountIn",
          "type": "uint256"
        },
        {
          "internalType": "address",
          "name": "tokenIn",
          "type": "address"
        },
        {
          "internalType": "address",
          "name": "tokenOut",
          "type": "address"
        },
        {
          "internalType": "bool",
          "name": "stable",
          "type": "bool"
        }
      ],
      "name": "getTradeDiff",
      "outputs": [
        {
          "internalType": "uint256",
          "name": "a",
          "type": "uint256"
        },
        {
          "internalType": "uint256",
          "name": "b",
          "type": "uint256"
        }
      ],
      "stateMutability": "view",
      "type": "function"
    },
    {
      "inputs": [
        {
          "internalType": "uint256",
          "name": "amountIn",
          "type": "uint256"
        },
        {
          "internalType": "address",
          "name": "tokenIn",
          "type": "address"
        },
        {
          "internalType": "address",
          "name": "pair",
          "type": "address"
        }
      ],
      "name": "getTradeDiff",
      "outputs": [
        {
          "internalType": "uint256",
          "name": "a",
          "type": "uint256"
        },
        {
          "internalType": "uint256",
          "name": "b",
          "type": "uint256"
        }
      ],
      "stateMutability": "view",
      "type": "function"
    },
    {
      "inputs": [],
      "name": "router",
      "outputs": [
        {
          "internalType": "contract solidly_router",
          "name": "",
          "type": "address"
        }
      ],
      "stateMutability": "view",
      "type": "function"
    }
  ],
  "bytecode": "0x608060405234801561001057600080fd5b50604051610fc3380380610fc383398101604081905261002f91610054565b600080546001600160a01b0319166001600160a01b0392909216919091179055610084565b60006020828403121561006657600080fd5b81516001600160a01b038116811461007d57600080fd5b9392505050565b610f30806100936000396000f3fe608060405234801561001057600080fd5b50600436106100625760003560e01c80635250073314610067578063865db5e21461009a578063be3b428e146100c2578063da214231146100e3578063ec323c00146100f6578063f887ea4014610109575b600080fd5b61007a610075366004610ccf565b610134565b604080519384526020840192909252908201526060015b60405180910390f35b6100ad6100a8366004610d1a565b610280565b60408051928352602083019190915201610091565b6100d56100d0366004610ccf565b61042a565b604051908152602001610091565b6100d56100f1366004610d1a565b6105a4565b6100ad610104366004610d6d565b6106d0565b60005461011c906001600160a01b031681565b6040516001600160a01b039091168152602001610091565b6000805460405163260f701f60e11b815282918291829182918291829182916001600160a01b031690634c1ee03e90610175908e908e908e90600401610da4565b602060405180830381865afa158015610192573d6000803e3d6000fd5b505050506040513d601f19601f820116820180604052508101906101b69190610dc8565b6001600160a01b031663392f37e96040518163ffffffff1660e01b815260040160e060405180830381865afa1580156101f3573d6000803e3d6000fd5b505050506040513d601f19601f820116820180604052508101906102179190610de5565b5095505094509450945094506000816001600160a01b03168c6001600160a01b03161461025857836102498785610e6f565b6102539190610e8e565b61026d565b826102638686610e6f565b61026d9190610e8e565b9c939b5091995091975050505050505050565b6000805460405163260f701f60e11b815282918291829182918291829182916001600160a01b031690634c1ee03e906102c1908e908e908e90600401610da4565b602060405180830381865afa1580156102de573d6000803e3d6000fd5b505050506040513d601f19601f820116820180604052508101906103029190610dc8565b6001600160a01b031663392f37e96040518163ffffffff1660e01b815260040160e060405180830381865afa15801561033f573d6000803e3d6000fd5b505050506040513d601f19601f820116820180604052508101906103639190610de5565b509550955095509550955095506000816001600160a01b03168c6001600160a01b0316146103a557846103968886610e6f565b6103a09190610e8e565b6103ba565b836103b08787610e6f565b6103ba9190610e8e565b9050806103cd828e8888878d8d8b610804565b6103df90670de0b6b3a7640000610e6f565b6103e99190610e8e565b98508c6103fc8e8e8888878d8d8b610804565b61040e90670de0b6b3a7640000610e6f565b6104189190610e8e565b97505050505050505094509492505050565b6000805460405163260f701f60e11b81528291829182918291829182916001600160a01b0390911690634c1ee03e9061046b908d908d908d90600401610da4565b602060405180830381865afa158015610488573d6000803e3d6000fd5b505050506040513d601f19601f820116820180604052508101906104ac9190610dc8565b6001600160a01b031663392f37e96040518163ffffffff1660e01b815260040160e060405180830381865afa1580156104e9573d6000803e3d6000fd5b505050506040513d601f19601f8201168201806040525081019061050d9190610de5565b509550955095509550955095506000816001600160a01b03168b6001600160a01b03161461054f57846105408886610e6f565b61054a9190610e8e565b610564565b8361055a8787610e6f565b6105649190610e8e565b905080610577828d8888878d8d8b610804565b61058990670de0b6b3a7640000610e6f565b6105939190610e8e565b9750505050505050505b9392505050565b6000805460405163260f701f60e11b81528291829182918291829182916001600160a01b0390911690634c1ee03e906105e5908d908d908d90600401610da4565b602060405180830381865afa158015610602573d6000803e3d6000fd5b505050506040513d601f19601f820116820180604052508101906106269190610dc8565b6001600160a01b031663392f37e96040518163ffffffff1660e01b815260040160e060405180830381865afa158015610663573d6000803e3d6000fd5b505050506040513d601f19601f820116820180604052508101906106879190610de5565b509550955095509550955095508a6106a58c8c8787868c8c8a610804565b6106b790670de0b6b3a7640000610e6f565b6106c19190610e8e565b9b9a5050505050505050505050565b600080600080600080600080886001600160a01b031663392f37e96040518163ffffffff1660e01b815260040160e060405180830381865afa15801561071a573d6000803e3d6000fd5b505050506040513d601f19601f8201168201806040525081019061073e9190610de5565b509550955095509550955095506000816001600160a01b03168b6001600160a01b03161461078057846107718886610e6f565b61077b9190610e8e565b610795565b8361078b8787610e6f565b6107959190610e8e565b9050806107a8828d8888878d8d8b610804565b6107ba90670de0b6b3a7640000610e6f565b6107c49190610e8e565b98508b6107d78d8d8888878d8d8b610804565b6107e990670de0b6b3a7640000610e6f565b6107f39190610e8e565b975050505050505050935093915050565b6000811561094a57600061081b88888588886109a4565b90508461083089670de0b6b3a7640000610e6f565b61083a9190610e8e565b97508361084f88670de0b6b3a7640000610e6f565b6108599190610e8e565b9650600080876001600160a01b03168b6001600160a01b03161461087e57888a610881565b89895b91509150876001600160a01b03168b6001600160a01b0316146108c057856108b18d670de0b6b3a7640000610e6f565b6108bb9190610e8e565b6108dd565b866108d38d670de0b6b3a7640000610e6f565b6108dd9190610e8e565b9b5060006108f56108ee848f610eb0565b8584610a95565b6108ff9083610ec8565b9050670de0b6b3a7640000896001600160a01b03168d6001600160a01b031614610929578861092b565b875b6109359083610e6f565b61093f9190610e8e565b945050505050610998565b600080866001600160a01b03168a6001600160a01b03161461096d578789610970565b88885b909250905061097f8b83610eb0565b610989828d610e6f565b6109939190610e8e565b925050505b98975050505050505050565b60008315610a7f576000836109c188670de0b6b3a7640000610e6f565b6109cb9190610e8e565b90506000836109e288670de0b6b3a7640000610e6f565b6109ec9190610e8e565b90506000670de0b6b3a7640000610a038385610e6f565b610a0d9190610e8e565b90506000670de0b6b3a7640000610a248480610e6f565b610a2e9190610e8e565b670de0b6b3a7640000610a418680610e6f565b610a4b9190610e8e565b610a559190610eb0565b9050670de0b6b3a7640000610a6a8284610e6f565b610a749190610e8e565b945050505050610a8c565b610a898587610e6f565b90505b95945050505050565b6000805b60ff811015610b9b57826000610aaf8783610ba4565b905085811015610aff576000610ac58887610c41565b610acf8389610ec8565b610ae190670de0b6b3a7640000610e6f565b610aeb9190610e8e565b9050610af78187610eb0565b955050610b41565b6000610b0b8887610c41565b610b158884610ec8565b610b2790670de0b6b3a7640000610e6f565b610b319190610e8e565b9050610b3d8187610ec8565b9550505b81851115610b6a576001610b558387610ec8565b11610b655784935050505061059d565b610b86565b6001610b768684610ec8565b11610b865784935050505061059d565b50508080610b9390610edf565b915050610a99565b50909392505050565b6000670de0b6b3a764000082818581610bbd8280610e6f565b610bc79190610e8e565b610bd19190610e6f565b610bdb9190610e8e565b610be59190610e6f565b610bef9190610e8e565b670de0b6b3a7640000808481610c058280610e6f565b610c0f9190610e8e565b610c199190610e6f565b610c239190610e8e565b610c2d9086610e6f565b610c379190610e8e565b61059d9190610eb0565b6000670de0b6b3a76400008381610c588280610e6f565b610c629190610e8e565b610c6c9190610e6f565b610c769190610e8e565b670de0b6b3a764000080610c8a8580610e6f565b610c949190610e8e565b610c9f866003610e6f565b610c2d9190610e6f565b6001600160a01b0381168114610cbe57600080fd5b50565b8015158114610cbe57600080fd5b600080600060608486031215610ce457600080fd5b8335610cef81610ca9565b92506020840135610cff81610ca9565b91506040840135610d0f81610cc1565b809150509250925092565b60008060008060808587031215610d3057600080fd5b843593506020850135610d4281610ca9565b92506040850135610d5281610ca9565b91506060850135610d6281610cc1565b939692955090935050565b600080600060608486031215610d8257600080fd5b833592506020840135610d9481610ca9565b91506040840135610d0f81610ca9565b6001600160a01b039384168152919092166020820152901515604082015260600190565b600060208284031215610dda57600080fd5b815161059d81610ca9565b600080600080600080600060e0888a031215610e0057600080fd5b875196506020880151955060408801519450606088015193506080880151610e2781610cc1565b60a0890151909350610e3881610ca9565b60c0890151909250610e4981610ca9565b8091505092959891949750929550565b634e487b7160e01b600052601160045260246000fd5b6000816000190483118215151615610e8957610e89610e59565b500290565b600082610eab57634e487b7160e01b600052601260045260246000fd5b500490565b60008219821115610ec357610ec3610e59565b500190565b600082821015610eda57610eda610e59565b500390565b6000600019821415610ef357610ef3610e59565b506001019056fea26469706673582212200f04c86fe7f5daafc12edb8863f49d13910b82bdfe2854a28126037da02b8f5d64736f6c634300080b0033",
  "linkReferences": {},
  "deployedLinkReferences": {}
}