{
  "_format": "hh-sol-artifact-1",
  "contractName": "OperWallet",
  "sourceName": "contracts/OperWallet.sol",
  "abi": [
    {
      "inputs": [
        {
          "internalType": "address",
          "name": "_yMeta",
          "type": "address"
        }
      ],
      "stateMutability": "nonpayable",
      "type": "constructor"
    },
    {
      "anonymous": false,
      "inputs": [
        {
          "indexed": true,
          "internalType": "address",
          "name": "previousOwner",
          "type": "address"
        },
        {
          "indexed": true,
          "internalType": "address",
          "name": "newOwner",
          "type": "address"
        }
      ],
      "name": "OwnershipTransferred",
      "type": "event"
    },
    {
      "inputs": [],
      "name": "owner",
      "outputs": [
        {
          "internalType": "address",
          "name": "",
          "type": "address"
        }
      ],
      "stateMutability": "view",
      "type": "function"
    },
    {
      "inputs": [],
      "name": "periodDeadline",
      "outputs": [
        {
          "internalType": "uint256",
          "name": "",
          "type": "uint256"
        }
      ],
      "stateMutability": "view",
      "type": "function"
    },
    {
      "inputs": [],
      "name": "periodIndex",
      "outputs": [
        {
          "internalType": "uint256",
          "name": "",
          "type": "uint256"
        }
      ],
      "stateMutability": "view",
      "type": "function"
    },
    {
      "inputs": [],
      "name": "renounceOwnership",
      "outputs": [],
      "stateMutability": "nonpayable",
      "type": "function"
    },
    {
      "inputs": [
        {
          "internalType": "address",
          "name": "",
          "type": "address"
        }
      ],
      "name": "shares",
      "outputs": [
        {
          "internalType": "uint256",
          "name": "",
          "type": "uint256"
        }
      ],
      "stateMutability": "view",
      "type": "function"
    },
    {
      "inputs": [
        {
          "internalType": "uint256",
          "name": "",
          "type": "uint256"
        }
      ],
      "name": "sharesRemoved",
      "outputs": [
        {
          "internalType": "uint256",
          "name": "",
          "type": "uint256"
        }
      ],
      "stateMutability": "view",
      "type": "function"
    },
    {
      "inputs": [],
      "name": "totalShares",
      "outputs": [
        {
          "internalType": "uint256",
          "name": "",
          "type": "uint256"
        }
      ],
      "stateMutability": "view",
      "type": "function"
    },
    {
      "inputs": [
        {
          "internalType": "address",
          "name": "newOwner",
          "type": "address"
        }
      ],
      "name": "transferOwnership",
      "outputs": [],
      "stateMutability": "nonpayable",
      "type": "function"
    },
    {
      "inputs": [
        {
          "internalType": "address",
          "name": "_holder",
          "type": "address"
        },
        {
          "internalType": "uint256",
          "name": "_share",
          "type": "uint256"
        }
      ],
      "name": "updateShares",
      "outputs": [],
      "stateMutability": "nonpayable",
      "type": "function"
    },
    {
      "inputs": [
        {
          "internalType": "uint256",
          "name": "",
          "type": "uint256"
        },
        {
          "internalType": "address",
          "name": "",
          "type": "address"
        }
      ],
      "name": "userRemoved",
      "outputs": [
        {
          "internalType": "bool",
          "name": "",
          "type": "bool"
        }
      ],
      "stateMutability": "view",
      "type": "function"
    },
    {
      "inputs": [],
      "name": "withdraw",
      "outputs": [],
      "stateMutability": "nonpayable",
      "type": "function"
    },
    {
      "inputs": [],
      "name": "yMeta",
      "outputs": [
        {
          "internalType": "contract IERC20",
          "name": "",
          "type": "address"
        }
      ],
      "stateMutability": "view",
      "type": "function"
    },
    {
      "stateMutability": "payable",
      "type": "receive"
    }
  ],
  "bytecode": "0x608060405234801561001057600080fd5b50604051610bff380380610bff83398101604081905261002f916100a5565b600080546001600160a01b031916339081178255604051909182917f8be0079c531659141344cd1fd0a4f28419497f9722a3daafe3b4186f6b6457e0908290a35061007d4262093a806100d5565b600355600480546001600160a01b0319166001600160a01b03929092169190911790556100fb565b6000602082840312156100b757600080fd5b81516001600160a01b03811681146100ce57600080fd5b9392505050565b600082198211156100f657634e487b7160e01b600052601160045260246000fd5b500190565b610af58061010a6000396000f3fe6080604052600436106100ab5760003560e01c80638da5cb5b116100645780638da5cb5b146101a5578063ce7c2ac2146101c3578063d7e583ee146101f0578063de4e05fb1461021d578063e5d0821f14610233578063f2fde38b1461025357600080fd5b806319b47ce6146100b75780633a98ef39146101075780633ccfd60b1461012b578063560f66ea14610142578063715018a614610158578063801c86e61461016d57600080fd5b366100b257005b600080fd5b3480156100c357600080fd5b506100f26100d23660046108ea565b600760209081526000928352604080842090915290825290205460ff1681565b60405190151581526020015b60405180910390f35b34801561011357600080fd5b5061011d60015481565b6040519081526020016100fe565b34801561013757600080fd5b50610140610273565b005b34801561014e57600080fd5b5061011d60025481565b34801561016457600080fd5b506101406104ff565b34801561017957600080fd5b5060045461018d906001600160a01b031681565b6040516001600160a01b0390911681526020016100fe565b3480156101b157600080fd5b506000546001600160a01b031661018d565b3480156101cf57600080fd5b5061011d6101de366004610916565b60056020526000908152604090205481565b3480156101fc57600080fd5b5061011d61020b366004610931565b60066020526000908152604090205481565b34801561022957600080fd5b5061011d60035481565b34801561023f57600080fd5b5061014061024e36600461094a565b610573565b34801561025f57600080fd5b5061014061026e366004610916565b6105f4565b61027b6106de565b33600090815260056020526040902054806102cc5760405162461bcd60e51b815260206004820152600c60248201526b456d7074792073686172657360a01b60448201526064015b60405180910390fd5b600254600090815260076020908152604080832033845290915290205460ff16156103265760405162461bcd60e51b815260206004820152600a60248201526915da5d1a191c985dd95960b21b60448201526064016102c3565b6002546000908152600660205260408120546001549091479161036090859061035a9061035390876106fb565b8590610746565b90610788565b600480546040516370a0823160e01b815230928101929092529192506000916001600160a01b0316906370a0823190602401602060405180830381865afa1580156103af573d6000803e3d6000fd5b505050506040513d601f19601f820116820180604052508101906103d39190610974565b905060006103f38661035a610353886001546106fb90919063ffffffff16565b6002805460009081526007602090815260408083203384528252808320805460ff19166001179055925482526006905220549091506104329087610807565b600254600090815260066020526040902055821561047957604051339084156108fc029085906000818181858888f19350505050158015610477573d6000803e3d6000fd5b505b80156104f7576004805460405163a9059cbb60e01b81523392810192909252602482018390526001600160a01b03169063a9059cbb906044016020604051808303816000875af11580156104d1573d6000803e3d6000fd5b505050506040513d601f19601f820116820180604052508101906104f5919061098d565b505b505050505050565b6000546001600160a01b031633146105295760405162461bcd60e51b81526004016102c3906109af565b600080546040516001600160a01b03909116907f8be0079c531659141344cd1fd0a4f28419497f9722a3daafe3b4186f6b6457e0908390a3600080546001600160a01b0319169055565b6000546001600160a01b0316331461059d5760405162461bcd60e51b81526004016102c3906109af565b6001600160a01b0382166000908152600560205260409020546001546105c2916106fb565b60019081556001600160a01b0383166000908152600560205260409020829055546105ed9082610807565b6001555050565b6000546001600160a01b0316331461061e5760405162461bcd60e51b81526004016102c3906109af565b6001600160a01b0381166106835760405162461bcd60e51b815260206004820152602660248201527f4f776e61626c653a206e6577206f776e657220697320746865207a65726f206160448201526564647265737360d01b60648201526084016102c3565b600080546040516001600160a01b03808516939216917f8be0079c531659141344cd1fd0a4f28419497f9722a3daafe3b4186f6b6457e091a3600080546001600160a01b0319166001600160a01b0392909216919091179055565b60035442106106f9576002546106f59060016109fa565b6002555b565b600061073d83836040518060400160405280601e81526020017f536166654d6174683a207375627472616374696f6e206f766572666c6f770000815250610866565b90505b92915050565b600061073d83836040518060400160405280601a81526020017f536166654d6174683a206469766973696f6e206279207a65726f0000000000008152506108a0565b60008261079757506000610740565b60006107a38385610a12565b9050826107b08583610a31565b1461073d5760405162461bcd60e51b815260206004820152602160248201527f536166654d6174683a206d756c7469706c69636174696f6e206f766572666c6f6044820152607760f81b60648201526084016102c3565b60008061081483856109fa565b90508381101561073d5760405162461bcd60e51b815260206004820152601b60248201527f536166654d6174683a206164646974696f6e206f766572666c6f77000000000060448201526064016102c3565b6000818484111561088a5760405162461bcd60e51b81526004016102c39190610a53565b5060006108978486610aa8565b95945050505050565b600081836108c15760405162461bcd60e51b81526004016102c39190610a53565b5060006108978486610a31565b80356001600160a01b03811681146108e557600080fd5b919050565b600080604083850312156108fd57600080fd5b8235915061090d602084016108ce565b90509250929050565b60006020828403121561092857600080fd5b61073d826108ce565b60006020828403121561094357600080fd5b5035919050565b6000806040838503121561095d57600080fd5b610966836108ce565b946020939093013593505050565b60006020828403121561098657600080fd5b5051919050565b60006020828403121561099f57600080fd5b8151801515811461073d57600080fd5b6020808252818101527f4f776e61626c653a2063616c6c6572206973206e6f7420746865206f776e6572604082015260600190565b634e487b7160e01b600052601160045260246000fd5b60008219821115610a0d57610a0d6109e4565b500190565b6000816000190483118215151615610a2c57610a2c6109e4565b500290565b600082610a4e57634e487b7160e01b600052601260045260246000fd5b500490565b600060208083528351808285015260005b81811015610a8057858101830151858201604001528201610a64565b81811115610a92576000604083870101525b50601f01601f1916929092016040019392505050565b600082821015610aba57610aba6109e4565b50039056fea264697066735822122052b1dd7b46ffc8a0083097e16f4ac04e4e01b24661383d8cfef444488a81150064736f6c634300080b0033",
  "linkReferences": {},
  "deployedLinkReferences": {}
}