{
  "_format": "hh-sol-artifact-1",
  "contractName": "FetchFormula",
  "sourceName": "contracts/FetchFormula.sol",
  "abi": [
    {
      "inputs": [
        {
          "internalType": "uint256",
          "name": "_lockTime",
          "type": "uint256"
        }
      ],
      "name": "bonusPercent",
      "outputs": [
        {
          "internalType": "uint256",
          "name": "",
          "type": "uint256"
        }
      ],
      "stateMutability": "view",
      "type": "function"
    }
  ],
  "bytecode": "0x608060405234801561001057600080fd5b506101d8806100206000396000f3fe608060405234801561001057600080fd5b506004361061002b5760003560e01c8063faf1ebfd14610030575b600080fd5b61004361003e366004610189565b610055565b60405190815260200160405180910390f35b600062093a80821015801561006c57506212750082105b1561007957506001919050565b62127500821015801561008e575062278d0082105b1561009b57506002919050565b62278d0082101580156100b05750624f1a0082105b156100bd57506005919050565b624f1a0082101580156100d257506276a70082105b156100df5750600f919050565b6276a70082101580156100f4575062ed4e0082105b1561010157506032919050565b62ed4e00821015801561011757506301e1338082105b156101245750607d919050565b6301e13380821015801561013b57506303c2670082105b15610148575060c8919050565b63039ada00821015801561015f5750630784ce0082105b1561016d575061015e919050565b630784ce0082106101815750610320919050565b506000919050565b60006020828403121561019b57600080fd5b503591905056fea2646970667358221220e32ba858bd2c1e4f99424db16bcb2c4a880708f0040a40c94d6027a8dcc83f1664736f6c634300080b0033",
  "linkReferences": {},
  "deployedLinkReferences": {}
}