{
  "_format": "hh-sol-artifact-1",
  "contractName": "ve",
  "sourceName": "contracts/ve.sol",
  "abi": [
    {
      "inputs": [
        {
          "internalType": "address",
          "name": "token_addr",
          "type": "address"
        }
      ],
      "stateMutability": "nonpayable",
      "type": "constructor"
    },
    {
      "anonymous": false,
      "inputs": [
        {
          "indexed": true,
          "internalType": "address",
          "name": "owner",
          "type": "address"
        },
        {
          "indexed": true,
          "internalType": "address",
          "name": "approved",
          "type": "address"
        },
        {
          "indexed": true,
          "internalType": "uint256",
          "name": "tokenId",
          "type": "uint256"
        }
      ],
      "name": "Approval",
      "type": "event"
    },
    {
      "anonymous": false,
      "inputs": [
        {
          "indexed": true,
          "internalType": "address",
          "name": "owner",
          "type": "address"
        },
        {
          "indexed": true,
          "internalType": "address",
          "name": "operator",
          "type": "address"
        },
        {
          "indexed": false,
          "internalType": "bool",
          "name": "approved",
          "type": "bool"
        }
      ],
      "name": "ApprovalForAll",
      "type": "event"
    },
    {
      "anonymous": false,
      "inputs": [
        {
          "indexed": true,
          "internalType": "address",
          "name": "provider",
          "type": "address"
        },
        {
          "indexed": false,
          "internalType": "uint256",
          "name": "tokenId",
          "type": "uint256"
        },
        {
          "indexed": false,
          "internalType": "uint256",
          "name": "value",
          "type": "uint256"
        },
        {
          "indexed": true,
          "internalType": "uint256",
          "name": "locktime",
          "type": "uint256"
        },
        {
          "indexed": false,
          "internalType": "enum ve.DepositType",
          "name": "deposit_type",
          "type": "uint8"
        },
        {
          "indexed": false,
          "internalType": "uint256",
          "name": "ts",
          "type": "uint256"
        }
      ],
      "name": "Deposit",
      "type": "event"
    },
    {
      "anonymous": false,
      "inputs": [
        {
          "indexed": false,
          "internalType": "uint256",
          "name": "prevSupply",
          "type": "uint256"
        },
        {
          "indexed": false,
          "internalType": "uint256",
          "name": "supply",
          "type": "uint256"
        }
      ],
      "name": "Supply",
      "type": "event"
    },
    {
      "anonymous": false,
      "inputs": [
        {
          "indexed": true,
          "internalType": "address",
          "name": "from",
          "type": "address"
        },
        {
          "indexed": true,
          "internalType": "address",
          "name": "to",
          "type": "address"
        },
        {
          "indexed": true,
          "internalType": "uint256",
          "name": "tokenId",
          "type": "uint256"
        }
      ],
      "name": "Transfer",
      "type": "event"
    },
    {
      "anonymous": false,
      "inputs": [
        {
          "indexed": true,
          "internalType": "address",
          "name": "provider",
          "type": "address"
        },
        {
          "indexed": false,
          "internalType": "uint256",
          "name": "tokenId",
          "type": "uint256"
        },
        {
          "indexed": false,
          "internalType": "uint256",
          "name": "value",
          "type": "uint256"
        },
        {
          "indexed": false,
          "internalType": "uint256",
          "name": "ts",
          "type": "uint256"
        }
      ],
      "name": "Withdraw",
      "type": "event"
    },
    {
      "inputs": [
        {
          "internalType": "uint256",
          "name": "_tokenId",
          "type": "uint256"
        }
      ],
      "name": "abstain",
      "outputs": [],
      "stateMutability": "nonpayable",
      "type": "function"
    },
    {
      "inputs": [
        {
          "internalType": "address",
          "name": "_approved",
          "type": "address"
        },
        {
          "internalType": "uint256",
          "name": "_tokenId",
          "type": "uint256"
        }
      ],
      "name": "approve",
      "outputs": [],
      "stateMutability": "nonpayable",
      "type": "function"
    },
    {
      "inputs": [
        {
          "internalType": "uint256",
          "name": "_tokenId",
          "type": "uint256"
        }
      ],
      "name": "attach",
      "outputs": [],
      "stateMutability": "nonpayable",
      "type": "function"
    },
    {
      "inputs": [
        {
          "internalType": "uint256",
          "name": "",
          "type": "uint256"
        }
      ],
      "name": "attachments",
      "outputs": [
        {
          "internalType": "uint256",
          "name": "",
          "type": "uint256"
        }
      ],
      "stateMutability": "view",
      "type": "function"
    },
    {
      "inputs": [
        {
          "internalType": "address",
          "name": "_owner",
          "type": "address"
        }
      ],
      "name": "balanceOf",
      "outputs": [
        {
          "internalType": "uint256",
          "name": "",
          "type": "uint256"
        }
      ],
      "stateMutability": "view",
      "type": "function"
    },
    {
      "inputs": [
        {
          "internalType": "uint256",
          "name": "_tokenId",
          "type": "uint256"
        },
        {
          "internalType": "uint256",
          "name": "_block",
          "type": "uint256"
        }
      ],
      "name": "balanceOfAtNFT",
      "outputs": [
        {
          "internalType": "uint256",
          "name": "",
          "type": "uint256"
        }
      ],
      "stateMutability": "view",
      "type": "function"
    },
    {
      "inputs": [
        {
          "internalType": "uint256",
          "name": "_tokenId",
          "type": "uint256"
        }
      ],
      "name": "balanceOfNFT",
      "outputs": [
        {
          "internalType": "uint256",
          "name": "",
          "type": "uint256"
        }
      ],
      "stateMutability": "view",
      "type": "function"
    },
    {
      "inputs": [
        {
          "internalType": "uint256",
          "name": "_tokenId",
          "type": "uint256"
        },
        {
          "internalType": "uint256",
          "name": "_t",
          "type": "uint256"
        }
      ],
      "name": "balanceOfNFTAt",
      "outputs": [
        {
          "internalType": "uint256",
          "name": "",
          "type": "uint256"
        }
      ],
      "stateMutability": "view",
      "type": "function"
    },
    {
      "inputs": [],
      "name": "block_number",
      "outputs": [
        {
          "internalType": "uint256",
          "name": "",
          "type": "uint256"
        }
      ],
      "stateMutability": "view",
      "type": "function"
    },
    {
      "inputs": [],
      "name": "checkpoint",
      "outputs": [],
      "stateMutability": "nonpayable",
      "type": "function"
    },
    {
      "inputs": [],
      "name": "constructTime",
      "outputs": [
        {
          "internalType": "uint256",
          "name": "",
          "type": "uint256"
        }
      ],
      "stateMutability": "view",
      "type": "function"
    },
    {
      "inputs": [
        {
          "internalType": "uint256",
          "name": "_value",
          "type": "uint256"
        },
        {
          "internalType": "uint256",
          "name": "_lock_duration",
          "type": "uint256"
        }
      ],
      "name": "create_lock",
      "outputs": [
        {
          "internalType": "uint256",
          "name": "",
          "type": "uint256"
        }
      ],
      "stateMutability": "nonpayable",
      "type": "function"
    },
    {
      "inputs": [
        {
          "internalType": "uint256",
          "name": "_value",
          "type": "uint256"
        },
        {
          "internalType": "uint256",
          "name": "_lock_duration",
          "type": "uint256"
        },
        {
          "internalType": "address",
          "name": "_to",
          "type": "address"
        }
      ],
      "name": "create_lock_for",
      "outputs": [
        {
          "internalType": "uint256",
          "name": "",
          "type": "uint256"
        }
      ],
      "stateMutability": "nonpayable",
      "type": "function"
    },
    {
      "inputs": [],
      "name": "decimals",
      "outputs": [
        {
          "internalType": "uint8",
          "name": "",
          "type": "uint8"
        }
      ],
      "stateMutability": "view",
      "type": "function"
    },
    {
      "inputs": [
        {
          "internalType": "uint256",
          "name": "_tokenId",
          "type": "uint256"
        },
        {
          "internalType": "uint256",
          "name": "_value",
          "type": "uint256"
        }
      ],
      "name": "deposit_for",
      "outputs": [],
      "stateMutability": "nonpayable",
      "type": "function"
    },
    {
      "inputs": [
        {
          "internalType": "uint256",
          "name": "_tokenId",
          "type": "uint256"
        }
      ],
      "name": "detach",
      "outputs": [],
      "stateMutability": "nonpayable",
      "type": "function"
    },
    {
      "inputs": [],
      "name": "epoch",
      "outputs": [
        {
          "internalType": "uint256",
          "name": "",
          "type": "uint256"
        }
      ],
      "stateMutability": "view",
      "type": "function"
    },
    {
      "inputs": [
        {
          "internalType": "uint256",
          "name": "_tokenId",
          "type": "uint256"
        }
      ],
      "name": "getApproved",
      "outputs": [
        {
          "internalType": "address",
          "name": "",
          "type": "address"
        }
      ],
      "stateMutability": "view",
      "type": "function"
    },
    {
      "inputs": [],
      "name": "getMaxTime",
      "outputs": [
        {
          "internalType": "uint256",
          "name": "",
          "type": "uint256"
        }
      ],
      "stateMutability": "view",
      "type": "function"
    },
    {
      "inputs": [
        {
          "internalType": "uint256",
          "name": "_tokenId",
          "type": "uint256"
        }
      ],
      "name": "get_last_user_slope",
      "outputs": [
        {
          "internalType": "int128",
          "name": "",
          "type": "int128"
        }
      ],
      "stateMutability": "view",
      "type": "function"
    },
    {
      "inputs": [
        {
          "internalType": "uint256",
          "name": "_tokenId",
          "type": "uint256"
        },
        {
          "internalType": "uint256",
          "name": "_value",
          "type": "uint256"
        }
      ],
      "name": "increase_amount",
      "outputs": [],
      "stateMutability": "nonpayable",
      "type": "function"
    },
    {
      "inputs": [
        {
          "internalType": "uint256",
          "name": "_tokenId",
          "type": "uint256"
        },
        {
          "internalType": "uint256",
          "name": "_lock_duration",
          "type": "uint256"
        }
      ],
      "name": "increase_unlock_time",
      "outputs": [],
      "stateMutability": "nonpayable",
      "type": "function"
    },
    {
      "inputs": [
        {
          "internalType": "address",
          "name": "_owner",
          "type": "address"
        },
        {
          "internalType": "address",
          "name": "_operator",
          "type": "address"
        }
      ],
      "name": "isApprovedForAll",
      "outputs": [
        {
          "internalType": "bool",
          "name": "",
          "type": "bool"
        }
      ],
      "stateMutability": "view",
      "type": "function"
    },
    {
      "inputs": [
        {
          "internalType": "address",
          "name": "_spender",
          "type": "address"
        },
        {
          "internalType": "uint256",
          "name": "_tokenId",
          "type": "uint256"
        }
      ],
      "name": "isApprovedOrOwner",
      "outputs": [
        {
          "internalType": "bool",
          "name": "",
          "type": "bool"
        }
      ],
      "stateMutability": "view",
      "type": "function"
    },
    {
      "inputs": [
        {
          "internalType": "uint256",
          "name": "",
          "type": "uint256"
        }
      ],
      "name": "locked",
      "outputs": [
        {
          "internalType": "int128",
          "name": "amount",
          "type": "int128"
        },
        {
          "internalType": "uint256",
          "name": "end",
          "type": "uint256"
        },
        {
          "internalType": "uint256",
          "name": "lockedtime",
          "type": "uint256"
        }
      ],
      "stateMutability": "view",
      "type": "function"
    },
    {
      "inputs": [
        {
          "internalType": "uint256",
          "name": "_tokenId",
          "type": "uint256"
        }
      ],
      "name": "locked__end",
      "outputs": [
        {
          "internalType": "uint256",
          "name": "",
          "type": "uint256"
        }
      ],
      "stateMutability": "view",
      "type": "function"
    },
    {
      "inputs": [],
      "name": "maxX",
      "outputs": [
        {
          "internalType": "uint256",
          "name": "",
          "type": "uint256"
        }
      ],
      "stateMutability": "view",
      "type": "function"
    },
    {
      "inputs": [],
      "name": "maxY",
      "outputs": [
        {
          "internalType": "uint256",
          "name": "",
          "type": "uint256"
        }
      ],
      "stateMutability": "view",
      "type": "function"
    },
    {
      "inputs": [
        {
          "internalType": "uint256",
          "name": "_from",
          "type": "uint256"
        },
        {
          "internalType": "uint256",
          "name": "_to",
          "type": "uint256"
        }
      ],
      "name": "merge",
      "outputs": [],
      "stateMutability": "nonpayable",
      "type": "function"
    },
    {
      "inputs": [],
      "name": "name",
      "outputs": [
        {
          "internalType": "string",
          "name": "",
          "type": "string"
        }
      ],
      "stateMutability": "view",
      "type": "function"
    },
    {
      "inputs": [
        {
          "internalType": "uint256",
          "name": "_tokenId",
          "type": "uint256"
        }
      ],
      "name": "ownerOf",
      "outputs": [
        {
          "internalType": "address",
          "name": "",
          "type": "address"
        }
      ],
      "stateMutability": "view",
      "type": "function"
    },
    {
      "inputs": [
        {
          "internalType": "uint256",
          "name": "",
          "type": "uint256"
        }
      ],
      "name": "ownership_change",
      "outputs": [
        {
          "internalType": "uint256",
          "name": "",
          "type": "uint256"
        }
      ],
      "stateMutability": "view",
      "type": "function"
    },
    {
      "inputs": [
        {
          "internalType": "uint256",
          "name": "",
          "type": "uint256"
        }
      ],
      "name": "point_history",
      "outputs": [
        {
          "internalType": "int128",
          "name": "bias",
          "type": "int128"
        },
        {
          "internalType": "int128",
          "name": "slope",
          "type": "int128"
        },
        {
          "internalType": "uint256",
          "name": "ts",
          "type": "uint256"
        },
        {
          "internalType": "uint256",
          "name": "blk",
          "type": "uint256"
        }
      ],
      "stateMutability": "view",
      "type": "function"
    },
    {
      "inputs": [],
      "name": "routerAddress",
      "outputs": [
        {
          "internalType": "address",
          "name": "",
          "type": "address"
        }
      ],
      "stateMutability": "view",
      "type": "function"
    },
    {
      "inputs": [
        {
          "internalType": "address",
          "name": "_from",
          "type": "address"
        },
        {
          "internalType": "address",
          "name": "_to",
          "type": "address"
        },
        {
          "internalType": "uint256",
          "name": "_tokenId",
          "type": "uint256"
        }
      ],
      "name": "safeTransferFrom",
      "outputs": [],
      "stateMutability": "nonpayable",
      "type": "function"
    },
    {
      "inputs": [
        {
          "internalType": "address",
          "name": "_from",
          "type": "address"
        },
        {
          "internalType": "address",
          "name": "_to",
          "type": "address"
        },
        {
          "internalType": "uint256",
          "name": "_tokenId",
          "type": "uint256"
        },
        {
          "internalType": "bytes",
          "name": "_data",
          "type": "bytes"
        }
      ],
      "name": "safeTransferFrom",
      "outputs": [],
      "stateMutability": "nonpayable",
      "type": "function"
    },
    {
      "inputs": [
        {
          "internalType": "address",
          "name": "_operator",
          "type": "address"
        },
        {
          "internalType": "bool",
          "name": "_approved",
          "type": "bool"
        }
      ],
      "name": "setApprovalForAll",
      "outputs": [],
      "stateMutability": "nonpayable",
      "type": "function"
    },
    {
      "inputs": [
        {
          "internalType": "uint256",
          "name": "_x",
          "type": "uint256"
        }
      ],
      "name": "setMaxX",
      "outputs": [],
      "stateMutability": "nonpayable",
      "type": "function"
    },
    {
      "inputs": [
        {
          "internalType": "uint256",
          "name": "_y",
          "type": "uint256"
        }
      ],
      "name": "setMaxY",
      "outputs": [],
      "stateMutability": "nonpayable",
      "type": "function"
    },
    {
      "inputs": [
        {
          "internalType": "address",
          "name": "_voter",
          "type": "address"
        }
      ],
      "name": "setVoter",
      "outputs": [],
      "stateMutability": "nonpayable",
      "type": "function"
    },
    {
      "inputs": [
        {
          "internalType": "uint256",
          "name": "",
          "type": "uint256"
        }
      ],
      "name": "slope_changes",
      "outputs": [
        {
          "internalType": "int128",
          "name": "",
          "type": "int128"
        }
      ],
      "stateMutability": "view",
      "type": "function"
    },
    {
      "inputs": [],
      "name": "supply",
      "outputs": [
        {
          "internalType": "uint256",
          "name": "",
          "type": "uint256"
        }
      ],
      "stateMutability": "view",
      "type": "function"
    },
    {
      "inputs": [
        {
          "internalType": "bytes4",
          "name": "_interfaceID",
          "type": "bytes4"
        }
      ],
      "name": "supportsInterface",
      "outputs": [
        {
          "internalType": "bool",
          "name": "",
          "type": "bool"
        }
      ],
      "stateMutability": "view",
      "type": "function"
    },
    {
      "inputs": [],
      "name": "symbol",
      "outputs": [
        {
          "internalType": "string",
          "name": "",
          "type": "string"
        }
      ],
      "stateMutability": "view",
      "type": "function"
    },
    {
      "inputs": [],
      "name": "token",
      "outputs": [
        {
          "internalType": "address",
          "name": "",
          "type": "address"
        }
      ],
      "stateMutability": "view",
      "type": "function"
    },
    {
      "inputs": [
        {
          "internalType": "address",
          "name": "_owner",
          "type": "address"
        },
        {
          "internalType": "uint256",
          "name": "_tokenIndex",
          "type": "uint256"
        }
      ],
      "name": "tokenOfOwnerByIndex",
      "outputs": [
        {
          "internalType": "uint256",
          "name": "",
          "type": "uint256"
        }
      ],
      "stateMutability": "view",
      "type": "function"
    },
    {
      "inputs": [
        {
          "internalType": "uint256",
          "name": "_tokenId",
          "type": "uint256"
        }
      ],
      "name": "tokenURI",
      "outputs": [
        {
          "internalType": "string",
          "name": "",
          "type": "string"
        }
      ],
      "stateMutability": "view",
      "type": "function"
    },
    {
      "inputs": [],
      "name": "totalSupply",
      "outputs": [
        {
          "internalType": "uint256",
          "name": "",
          "type": "uint256"
        }
      ],
      "stateMutability": "view",
      "type": "function"
    },
    {
      "inputs": [
        {
          "internalType": "uint256",
          "name": "_block",
          "type": "uint256"
        }
      ],
      "name": "totalSupplyAt",
      "outputs": [
        {
          "internalType": "uint256",
          "name": "",
          "type": "uint256"
        }
      ],
      "stateMutability": "view",
      "type": "function"
    },
    {
      "inputs": [
        {
          "internalType": "uint256",
          "name": "t",
          "type": "uint256"
        }
      ],
      "name": "totalSupplyAtT",
      "outputs": [
        {
          "internalType": "uint256",
          "name": "",
          "type": "uint256"
        }
      ],
      "stateMutability": "view",
      "type": "function"
    },
    {
      "inputs": [
        {
          "internalType": "address",
          "name": "_from",
          "type": "address"
        },
        {
          "internalType": "address",
          "name": "_to",
          "type": "address"
        },
        {
          "internalType": "uint256",
          "name": "_tokenId",
          "type": "uint256"
        }
      ],
      "name": "transferFrom",
      "outputs": [],
      "stateMutability": "nonpayable",
      "type": "function"
    },
    {
      "inputs": [],
      "name": "usdcAddress",
      "outputs": [
        {
          "internalType": "address",
          "name": "",
          "type": "address"
        }
      ],
      "stateMutability": "view",
      "type": "function"
    },
    {
      "inputs": [
        {
          "internalType": "uint256",
          "name": "",
          "type": "uint256"
        }
      ],
      "name": "user_point_epoch",
      "outputs": [
        {
          "internalType": "uint256",
          "name": "",
          "type": "uint256"
        }
      ],
      "stateMutability": "view",
      "type": "function"
    },
    {
      "inputs": [
        {
          "internalType": "uint256",
          "name": "",
          "type": "uint256"
        },
        {
          "internalType": "uint256",
          "name": "",
          "type": "uint256"
        }
      ],
      "name": "user_point_history",
      "outputs": [
        {
          "internalType": "int128",
          "name": "bias",
          "type": "int128"
        },
        {
          "internalType": "int128",
          "name": "slope",
          "type": "int128"
        },
        {
          "internalType": "uint256",
          "name": "ts",
          "type": "uint256"
        },
        {
          "internalType": "uint256",
          "name": "blk",
          "type": "uint256"
        }
      ],
      "stateMutability": "view",
      "type": "function"
    },
    {
      "inputs": [
        {
          "internalType": "uint256",
          "name": "_tokenId",
          "type": "uint256"
        },
        {
          "internalType": "uint256",
          "name": "_idx",
          "type": "uint256"
        }
      ],
      "name": "user_point_history__ts",
      "outputs": [
        {
          "internalType": "uint256",
          "name": "",
          "type": "uint256"
        }
      ],
      "stateMutability": "view",
      "type": "function"
    },
    {
      "inputs": [],
      "name": "version",
      "outputs": [
        {
          "internalType": "string",
          "name": "",
          "type": "string"
        }
      ],
      "stateMutability": "view",
      "type": "function"
    },
    {
      "inputs": [
        {
          "internalType": "uint256",
          "name": "",
          "type": "uint256"
        }
      ],
      "name": "voted",
      "outputs": [
        {
          "internalType": "bool",
          "name": "",
          "type": "bool"
        }
      ],
      "stateMutability": "view",
      "type": "function"
    },
    {
      "inputs": [],
      "name": "voter",
      "outputs": [
        {
          "internalType": "address",
          "name": "",
          "type": "address"
        }
      ],
      "stateMutability": "view",
      "type": "function"
    },
    {
      "inputs": [
        {
          "internalType": "uint256",
          "name": "_tokenId",
          "type": "uint256"
        }
      ],
      "name": "voting",
      "outputs": [],
      "stateMutability": "nonpayable",
      "type": "function"
    },
    {
      "inputs": [
        {
          "internalType": "uint256",
          "name": "_tokenId",
          "type": "uint256"
        }
      ],
      "name": "withdraw",
      "outputs": [],
      "stateMutability": "nonpayable",
      "type": "function"
    }
  ],
  "bytecode": "0x60a060405262127500600255640861c46800600355600480546001600160a01b03199081167316327e3fbdaca3bcf7e38f5af2599d2ddc33ae5217909155600580549091167321be370d5312f44cb42ce377bc9b8a0cef1a4c831790556019805460ff191660011790553480156200007657600080fd5b5060405162004614380380620046148339810160408190526200009991620001de565b6001600160a01b038116608052600f80546001600160a01b03191633179055437fec8156718a8372b1db44bb411437d0870f3e3790d4a08526d024ce1b0b668f6d55427fec8156718a8372b1db44bb411437d0870f3e3790d4a08526d024ce1b0b668f6c81905560186020527f7870b45acb18b072b8f477632bb6360a123dfe426f9bfb9ebf368ab0b6a8505f805460ff1990811660019081179092557fbf8097e11fbe55e62283cbb89d064d64d4732959e6e218da57a9f4f7b7582e918054821683179055635b5e139f60e01b60009081527f6a897876102a9bb6da5bcde1022507015d90bf773d3e5daeac34d8cb99f638808054909216831790915591905560105460405190913091600080516020620045f4833981519152908290a46010546040516000903090600080516020620045f4833981519152908390a45062000210565b600060208284031215620001f157600080fd5b81516001600160a01b03811681146200020957600080fd5b9392505050565b6080516143ac620002486000396000818161098c01528181610cb101528181610e000152818161101b01526129e201526143ac6000f3fe608060405234801561001057600080fd5b50600436106103a45760003560e01c80637116c60c116101e9578063c2c4c5c11161010f578063e441135c116100ad578063f8a057631161007c578063f8a0576314610951578063fbd3a29d14610974578063fc0c546a14610987578063fd4a77f1146109ae57600080fd5b8063e441135c146108cf578063e7e242d4146108ef578063e985e9c514610902578063ee99fe281461093e57600080fd5b8063d1c2babb116100e9578063d1c2babb14610858578063d1febfb91461086b578063d4e54c3b146108a9578063e0514aba146108bc57600080fd5b8063c2c4c5c11461082a578063c87b56dd14610832578063cbfccbfe1461084557600080fd5b8063981b24d011610187578063a4d855df11610156578063a4d855df1461079d578063b45a3c0e146107b0578063b88d4fde14610804578063c1f0fb9f1461081757600080fd5b8063981b24d014610751578063986b7d8a14610764578063a183af5214610777578063a22cb4651461078a57600080fd5b80638c2c9baf116101c35780638c2c9baf146107125780638fbb38ff14610725578063900cf0cf1461074857806395d89b411461042d57600080fd5b80637116c60c146106d357806371197484146106e65780638b04f6471461070957600080fd5b8063313ce567116102ce57806347da5fe91161026c57806365fc38731161023b57806365fc3873146106845780636f5488371461069757806370a08231146106b757806370d20d3e146106ca57600080fd5b806347da5fe91461061c5780634bc2a6571461062457806354fd4d50146106375780636352211e1461065b57600080fd5b806342842e0e116102a857806342842e0e146105bd578063430c2081146105d0578063461f711c146105e357806346c96aac1461060957600080fd5b8063313ce567146105875780633268cc56146105a157806340c1eeae146105b457600080fd5b80631376f3da1161034657806323b872dd1161031557806323b872dd1461052557806325a58b56146105385780632e1a7d4d1461053e5780632f745c591461055157600080fd5b80631376f3da146104bc57806318160ddd146104f75780631c984bc3146104ff5780631dbd8e531461051257600080fd5b806306fdde031161038257806306fdde031461042d578063081812fc1461045e578063095ea7b3146104875780630d6a20331461049c57600080fd5b806301ffc9a7146103a957806302d45457146103eb578063047fc9aa14610416575b600080fd5b6103d66103b73660046137e8565b6001600160e01b03191660009081526018602052604090205460ff1690565b60405190151581526020015b60405180910390f35b6005546103fe906001600160a01b031681565b6040516001600160a01b0390911681526020016103e2565b61041f60005481565b6040519081526020016103e2565b610451604051806040016040528060058152602001641d9953919560da1b81525081565b6040516103e2919061385d565b6103fe61046c366004613870565b6000908152601360205260409020546001600160a01b031690565b61049a61049536600461389e565b6109c1565b005b61041f6104aa366004613870565b600d6020526000908152604090205481565b6104cf6104ca3660046138ca565b610aaa565b60408051600f95860b81529390940b60208401529282015260608101919091526080016103e2565b61041f610af1565b61041f61050d3660046138ca565b610b01565b61049a610520366004613870565b610b34565b61049a6105333660046138ec565b610b84565b4361041f565b61049a61054c366004613870565b610b95565b61041f61055f36600461389e565b6001600160a01b03919091166000908152601560209081526040808320938352929052205490565b61058f601281565b60405160ff90911681526020016103e2565b6004546103fe906001600160a01b031681565b61041f60015481565b61049a6105cb3660046138ec565b610f23565b6103d66105de36600461389e565b610f3e565b6105f66105f1366004613870565b610f51565b604051600f9190910b81526020016103e2565b600f546103fe906001600160a01b031681565b61041f610f94565b61049a61063236600461392d565b611442565b610451604051806040016040528060058152602001640312e302e360dc1b81525081565b6103fe610669366004613870565b6000908152601260205260409020546001600160a01b031690565b61041f6106923660046138ca565b61147b565b61041f6106a5366004613870565b60076020526000908152604090205481565b61041f6106c536600461392d565b6114bd565b61041f60025481565b61041f6106e1366004613870565b6114db565b6105f66106f4366004613870565b600c60205260009081526040902054600f0b81565b61041f60035481565b61041f6107203660046138ca565b61153b565b6103d6610733366004613870565b600e6020526000908152604090205460ff1681565b61041f60085481565b61041f61075f366004613870565b611547565b61049a610772366004613870565b6116e9565b61049a6107853660046138ca565b61172d565b61049a610798366004613958565b61183b565b61049a6107ab3660046138ca565b6118c0565b6107e46107be366004613870565b600660205260009081526040902080546001820154600290920154600f9190910b919083565b60408051600f9490940b84526020840192909252908201526060016103e2565b61049a6108123660046139a7565b611ab2565b61049a610825366004613870565b611bdf565b61049a611c63565b610451610840366004613870565b611cb1565b61049a610853366004613870565b611d6d565b61049a6108663660046138ca565b611db8565b6104cf610879366004613870565b600960205260009081526040902080546001820154600290920154600f82810b93600160801b909304900b919084565b61041f6108b7366004613a87565b611f50565b61041f6108ca3660046138ca565b611f93565b61041f6108dd366004613870565b600b6020526000908152604090205481565b61041f6108fd366004613870565b611f9f565b6103d6610910366004613ac0565b6001600160a01b03918216600090815260176020908152604080832093909416825291909152205460ff1690565b61049a61094c3660046138ca565b611fc7565b61041f61095f366004613870565b60009081526006602052604090206001015490565b61049a610982366004613870565b6120aa565b6103fe7f000000000000000000000000000000000000000000000000000000000000000081565b61049a6109bc366004613870565b6120db565b6000818152601260205260409020546001600160a01b0316806109e357600080fd5b806001600160a01b0316836001600160a01b03161415610a0257600080fd5b6000828152601260209081526040808320546001600160a01b0385811685526017845282852033808752945291909320549216149060ff168180610a435750805b610a4c57600080fd5b60008481526013602052604080822080546001600160a01b0319166001600160a01b0389811691821790925591518793918716917f8c5be1e5ebec7d5bd14f71427d1e84f3dd0314c0f7b2291e5b200ac8c7c3b92591a45050505050565b600a60205281600052604060002081633b9aca008110610ac957600080fd5b6003020180546001820154600290920154600f82810b9550600160801b90920490910b925084565b6000610afc426114db565b905090565b6000828152600a6020526040812082633b9aca008110610b2357610b23613aee565b600302016001015490505b92915050565b600f546001600160a01b03163314610b7f5760405162461bcd60e51b81526020600482015260096024820152682737ba102b37ba32b960b91b60448201526064015b60405180910390fd5b600355565b610b9083838333612127565b505050565b60195460ff16600114610ba757600080fd5b6019805460ff19166002179055610bbe33826121ed565b610bca57610bca613b04565b6000818152600d6020526040902054158015610bf557506000818152600e602052604090205460ff16155b610c115760405162461bcd60e51b8152600401610b7690613b1a565b60008181526006602090815260409182902082516060810184528154600f0b8152600182015492810183905260029091015492810192909252421015610c925760405162461bcd60e51b8152602060048201526016602482015275546865206c6f636b206469646e27742065787069726560501b6044820152606401610b76565b6293a80081604001518260200151610caa9190613b52565b10610d7a577f00000000000000000000000000000000000000000000000000000000000000006001600160a01b031663a9059cbb3360648460000151600f0b6019610cf59190613b69565b610cff9190613b9e565b6040516001600160e01b031960e085901b1681526001600160a01b03909216600483015260248201526044016020604051808303816000875af1158015610d4a573d6000803e3d6000fd5b505050506040513d601f19601f82011682018060405250810190610d6e9190613bb2565b610d7a57610d7a613b04565b805160408051606081018252600080825260208083018281528385018381528884526006909252938220925183546001600160801b0319166001600160801b0390911617835592516001830155915160029091015554600f9190910b90610de18282613b52565b60005560405163a9059cbb60e01b8152336004820152602481018390527f00000000000000000000000000000000000000000000000000000000000000006001600160a01b03169063a9059cbb906044016020604051808303816000875af1158015610e51573d6000803e3d6000fd5b505050506040513d601f19601f82011682018060405250810190610e759190613bb2565b610e8157610e81613b04565b610e8a84612253565b60408051858152602081018490524281830152905133917f02f25270a4d87bea75db541cdfe559334a275b4a233520ed6c0a2429667cca94919081900360600190a27f5e2aa66efd74cce82b21852e317e5490d9ecc9e6bb953ae24d90851258cc2f5c81610ef88482613b52565b6040805192835260208301919091520160405180910390a150506019805460ff191660011790555050565b610b9083838360405180602001604052806000815250611ab2565b6000610f4a83836121ed565b9392505050565b6000818152600b6020908152604080832054600a909252822081633b9aca008110610f7e57610f7e613aee565b6003020154600160801b9004600f0b9392505050565b600480546040805163c45a015560e01b8152905160009384936001600160a01b03169263c45a015592818301926020928290030181865afa158015610fdd573d6000803e3d6000fd5b505050506040513d601f19601f820116820180604052508101906110019190613bcf565b60055460405163e6a4390560e01b81526001600160a01b037f00000000000000000000000000000000000000000000000000000000000000008116600483015291821660248201529192506000919083169063e6a4390590604401602060405180830381865afa158015611079573d6000803e3d6000fd5b505050506040513d601f19601f8201168201806040525081019061109d9190613bcf565b90506000806000836001600160a01b0316630902f1ac6040518163ffffffff1660e01b8152600401606060405180830381865afa1580156110e2573d6000803e3d6000fd5b505050506040513d601f19601f820116820180604052508101906111069190613c08565b63ffffffff1692506001600160701b031692506001600160701b0316925060008360001415801561113657508215155b8015611143575060005415155b156111d65760048054600054604051630153543560e21b8152928301526024820186905260448201859052620f4240916001600160a01b039091169063054d50d490606401602060405180830381865afa1580156111a5573d6000803e3d6000fd5b505050506040513d601f19601f820116820180604052508101906111c99190613c4d565b6111d39190613b9e565b90505b6002546001546111e69042613b52565b1015806111f557506003548110155b15611209576293a800965050505050505090565b621275006001544261121b9190613b52565b10158061123357506a52b7d2dcc80cd2e40000008110155b156112475762813300965050505050505090565b62127500600154426112599190613b52565b10158061127157506a18d0bf423c03d8de0000008110155b1561128557626ebe00965050505050505090565b62127500600154426112979190613b52565b1015806112af57506a084595161401484a0000008110155b156112c357625c4900965050505050505090565b62127500600154426112d59190613b52565b1015806112ed57506a034f086f3b33b6840000008110155b15611301576249d400965050505050505090565b62127500600154426113139190613b52565b10158061132b57506a01a784379d99db420000008110155b1561133f5762375f00965050505050505090565b62093a80600154426113519190613b52565b101580611368575069d3c21bcecceda10000008110155b1561137c576224ea00965050505050505090565b620546006001544261138e9190613b52565b1015806113a557506954b40b1f852bda0000008110155b156113b957621baf80965050505050505090565b6202a300600154426113cb9190613b52565b1015806113e25750692a5a058fc295ed0000008110155b156113f65762127500965050505050505090565b62015180600154426114089190613b52565b10158061141f575069152d02c7e14af68000008110155b156114335762093a80965050505050505090565b62015180965050505050505090565b600f546001600160a01b0316331461145957600080fd5b600f80546001600160a01b0319166001600160a01b0392909216919091179055565b60195460009060ff1660011461149057600080fd5b6019805460ff191660021790556114a8838333612312565b90506019805460ff1916600117905592915050565b6001600160a01b038116600090815260146020526040812054610b2e565b600854600081815260096020908152604080832081516080810183528154600f81810b8352600160801b909104900b93810193909352600181015491830191909152600201546060820152909190611533818561247a565b949350505050565b6000610f4a838361257c565b60004382111561155957611559613b04565b60085460006115688483612859565b600081815260096020908152604080832081516080810183528154600f81810b8352600160801b909104900b93810193909352600181015491830191909152600201546060820152919250838310156116775760006009816115cb866001613c66565b8152602080820192909252604090810160002081516080810183528154600f81810b8352600160801b909104900b938101939093526001810154918301919091526002015460608083018290528501519192501461167157826060015181606001516116379190613b52565b8360400151826040015161164b9190613b52565b606085015161165a908a613b52565b6116649190613b69565b61166e9190613b9e565b91505b506116c6565b438260600151146116c65760608201516116919043613b52565b60408301516116a09042613b52565b60608401516116af9089613b52565b6116b99190613b69565b6116c39190613b9e565b90505b6116df828284604001516116da9190613c66565b61247a565b9695505050505050565b600f546001600160a01b0316331461170057600080fd5b6000818152600d602052604090205461171b90600190613b52565b6000918252600d602052604090912055565b60195460ff1660011461173f57600080fd5b6019805460ff1916600217905561175633836121ed565b61176257611762613b04565b60008281526006602090815260409182902082516060810184528154600f0b81526001820154928101929092526002015491810191909152816117a7576117a7613b04565b60008160000151600f0b136117f75760405162461bcd60e51b8152602060048201526016602482015275139bc8195e1a5cdd1a5b99c81b1bd8dac8199bdd5b9960521b6044820152606401610b76565b4281602001511161181a5760405162461bcd60e51b8152600401610b7690613c7e565b611829838360008460026128e3565b50506019805460ff1916600117905550565b6001600160a01b03821633141561185457611854613b04565b3360008181526017602090815260408083206001600160a01b03871680855290835292819020805460ff191686151590811790915590519081529192917f17307eab39ab6107e8899845ad3d59bd9653f200f220920489ca2b5937696c31910160405180910390a35050565b60195460ff166001146118d257600080fd5b6019805460ff191660021790556118e933836121ed565b6118f5576118f5613b04565b600082815260066020908152604080832081516060810183528154600f0b815260018201549381019390935260020154908201529062093a80806119398542613c66565b6119439190613b9e565b61194d9190613b69565b9050428260200151116119915760405162461bcd60e51b815260206004820152600c60248201526b131bd8dac8195e1c1a5c995960a21b6044820152606401610b76565b60008260000151600f0b136119dc5760405162461bcd60e51b8152602060048201526011602482015270139bdd1a1a5b99c81a5cc81b1bd8dad959607a1b6044820152606401610b76565b81602001518111611a2f5760405162461bcd60e51b815260206004820152601f60248201527f43616e206f6e6c7920696e637265617365206c6f636b206475726174696f6e006044820152606401610b76565b611a37610f94565b611a419042613c66565b811115611a905760405162461bcd60e51b815260206004820152601e60248201527f566f74696e67206c6f636b2063616e2062652034207965617273206d617800006044820152606401610b76565b611a9f846000838560036128e3565b50506019805460ff191660011790555050565b611abe84848433612127565b823b15611bd957604051630a85bd0160e11b81526001600160a01b0384169063150b7a0290611af7903390889087908790600401613cc2565b6020604051808303816000875af1925050508015611b32575060408051601f3d908101601f19168201909252611b2f91810190613cf5565b60015b611bd7573d808015611b60576040519150601f19603f3d011682016040523d82523d6000602084013e611b65565b606091505b508051611bcf5760405162461bcd60e51b815260206004820152603260248201527f4552433732313a207472616e7366657220746f206e6f6e20455243373231526560448201527131b2b4bb32b91034b6b83632b6b2b73a32b960711b6064820152608401610b76565b805181602001fd5b505b50505050565b600f546001600160a01b03163314611bf657600080fd5b6000818152601160205260409020544211611c4b5760405162461bcd60e51b8152602060048201526015602482015274111958591b1a5b99481b9bdd08199a5b9a5cda1959605a1b6044820152606401610b76565b6000908152600e60205260409020805460ff19169055565b611caf600060405180606001604052806000600f0b815260200160008152602001600081525060405180606001604052806000600f0b8152602001600081526020016000815250612af6565b565b6000818152601260205260409020546060906001600160a01b0316611d185760405162461bcd60e51b815260206004820152601b60248201527f517565727920666f72206e6f6e6578697374656e7420746f6b656e00000000006044820152606401610b76565b60008281526006602090815260409182902082516060810184528154600f0b81526001820154928101929092526002015491810191909152610f4a83611d5e8142613113565b60208401518451600f0b613193565b600f546001600160a01b03163314611db35760405162461bcd60e51b81526020600482015260096024820152682737ba102b37ba32b960b91b6044820152606401610b76565b600255565b6000828152600d6020526040902054158015611de357506000828152600e602052604090205460ff16155b611dff5760405162461bcd60e51b8152600401610b7690613b1a565b80821415611e0c57600080fd5b611e1633836121ed565b611e1f57600080fd5b611e2933826121ed565b611e3257600080fd5b60008281526006602081815260408084208151606080820184528254600f90810b8352600180850154848801908152600295860154858801528a8a52978752858920865193840187528054830b8452908101549683018790529093015493810193909352805194519095929490910b921115611eb2578260200151611eb8565b83602001515b6040805160608082018352600080835260208084018281528486018381528d845260068352868420955186546001600160801b0319166001600160801b0390911617865590516001860155516002909401939093558351918201845280825291810182905291820152909150611f319087908690612af6565b611f3a86612253565b611f488583838660046128e3565b505050505050565b60195460009060ff16600114611f6557600080fd5b6019805460ff19166002179055611f7d848484612312565b90506019805460ff191660011790559392505050565b6000610f4a8383613113565b600081815260076020526040812054431415611fbd57506000919050565b610b2e8242613113565b60195460ff16600114611fd957600080fd5b6019805460ff1916600290811790915560008381526006602090815260409182902082516060810184528154600f0b815260018201549281019290925290920154908201528161202857600080fd5b60008160000151600f0b136120785760405162461bcd60e51b8152602060048201526016602482015275139bc8195e1a5cdd1a5b99c81b1bd8dac8199bdd5b9960521b6044820152606401610b76565b4281602001511161209b5760405162461bcd60e51b8152600401610b7690613c7e565b611829838360008460006128e3565b600f546001600160a01b031633146120c157600080fd5b6000818152600d602052604090205461171b906001613c66565b600f546001600160a01b031633146120f257600080fd5b6120ff4262093a80613c66565b600091825260116020908152604080842092909255600e90529020805460ff19166001179055565b6000828152600d602052604090205415801561215257506000828152600e602052604090205460ff16155b61216e5760405162461bcd60e51b8152600401610b7690613b1a565b61217881836121ed565b61218157600080fd5b61218b84836132ca565b6121958483613331565b61219f83836133b2565b6000828152600760205260408082204390555183916001600160a01b0380871692908816917fddf252ad1be2c89b69c2b068fc378daa952ba7f163c4a11628f55a4df523b3ef91a450505050565b60008181526012602090815260408083205460138352818420546001600160a01b039182168086526017855283862088841680885295529285205492938085149392909116149060ff1682806122405750815b806122485750805b979650505050505050565b61225d33826121ed565b6122a95760405162461bcd60e51b815260206004820181905260248201527f63616c6c6572206973206e6f74206f776e6572206e6f7220617070726f7665646044820152606401610b76565b6000818152601260205260408120546001600160a01b0316906122cc90836109c1565b6122d63383613331565b60405182906000906001600160a01b038416907fddf252ad1be2c89b69c2b068fc378daa952ba7f163c4a11628f55a4df523b3ef908390a45050565b60008062093a80806123248642613c66565b61232e9190613b9e565b6123389190613b69565b90506000851161234757600080fd5b4281116123a55760405162461bcd60e51b815260206004820152602660248201527f43616e206f6e6c79206c6f636b20756e74696c2074696d6520696e207468652060448201526566757475726560d01b6064820152608401610b76565b6123ad610f94565b6123b79042613c66565b8111156124065760405162461bcd60e51b815260206004820152601f60248201527f566f74696e67206c6f636b2063616e206265203136207765656b73206d6178006044820152606401610b76565b60106000815461241590613d12565b909155506010546124268482613448565b5060008181526006602090815260409182902082516060810184528154600f0b81526001808301549382019390935260029091015492810192909252612471918391899186916128e3565b95945050505050565b600080839050600062093a808083604001516124969190613b9e565b6124a09190613b69565b905060005b60ff811015612554576124bb62093a8083613c66565b91506000858311156124cf578592506124e3565b506000828152600c6020526040902054600f0b5b60408401516124f29084613b52565b84602001516125019190613d2d565b84518590612510908390613dc2565b600f0b905250828614156125245750612554565b80846020018181516125369190613e12565b600f0b905250506040830182905261254d81613d12565b90506124a5565b5060008260000151600f0b121561256a57600082525b50516001600160801b03169392505050565b60004382111561258e5761258e613b04565b6000838152600b6020526040812054815b6080811015612632578183106125b457612632565b600060026125c28486613c66565b6125cd906001613c66565b6125d79190613b9e565b6000888152600a60205260409020909150869082633b9aca0081106125fe576125fe613aee565b60030201600201541161261357809350612621565b61261e600182613b52565b92505b5061262b81613d12565b905061259f565b506000858152600a6020526040812083633b9aca00811061265557612655613aee565b60408051608081018252600392909202929092018054600f81810b8452600160801b909104900b6020830152600181015492820192909252600290910154606082015260085490915060006126aa8783612859565b600081815260096020908152604080832081516080810183528154600f81810b8352600160801b909104900b93810193909352600181015491830191909152600201546060820152919250808484101561278957600060098161270e876001613c66565b8152602080820192909252604090810160002081516080810183528154600f81810b8352600160801b909104900b9381019390935260018101549183019190915260020154606080830182905286015191925061276b9190613b52565b9250836040015181604001516127819190613b52565b9150506127ad565b60608301516127989043613b52565b91508260400151426127aa9190613b52565b90505b604083015182156127ea578284606001518c6127c99190613b52565b6127d39084613b69565b6127dd9190613b9e565b6127e79082613c66565b90505b60408701516127f99082613b52565b87602001516128089190613d2d565b87518890612817908390613dc2565b600f90810b90915288516000910b12905061284757505093516001600160801b03169650610b2e95505050505050565b60009950505050505050505050610b2e565b60008082815b60808110156128d957818310612874576128d9565b600060026128828486613c66565b61288d906001613c66565b6128979190613b9e565b60008181526009602052604090206002015490915087106128ba578093506128c8565b6128c5600182613b52565b92505b506128d281613d12565b905061285f565b5090949350505050565b60005482906128f28682613c66565b6000908155604080516060810182528281526020810183905290810191909152825160208085015190830152600f0b8152825187908490612934908390613e12565b600f0b905250426040840152851561294e57602083018690525b600088815260066020908152604091829020855181546001600160801b0319166001600160801b03909116178155908501516001820155908401516002909101553387158015906129b1575060048560048111156129ae576129ae613e61565b14155b15612a5b576040516323b872dd60e01b81526001600160a01b038281166004830152306024830152604482018a90527f000000000000000000000000000000000000000000000000000000000000000016906323b872dd906064016020604051808303816000875af1158015612a2b573d6000803e3d6000fd5b505050506040513d601f19601f82011682018060405250810190612a4f9190613bb2565b612a5b57612a5b613b04565b8360200151816001600160a01b03167fff04ccafc360e16b67d682d17bd9503c4c6b9a131f6be6325762dc9ffc7de6248b8b8942604051612a9f9493929190613e77565b60405180910390a37f5e2aa66efd74cce82b21852e317e5490d9ecc9e6bb953ae24d90851258cc2f5c83612ad38a82613c66565b6040805192835260208301919091520160405180910390a1505050505050505050565b60408051608081018252600080825260208201819052918101829052606081019190915260408051608081018252600080825260208201819052918101829052606081019190915260085460009081908715612c6057428760200151118015612b66575060008760000151600f0b135b15612baa578651612b7b906293a80090613eb5565b600f0b602080870191909152870151612b95904290613b52565b8560200151612ba49190613d2d565b600f0b85525b428660200151118015612bc4575060008660000151600f0b135b15612c08578551612bd9906293a80090613eb5565b600f0b602080860191909152860151612bf3904290613b52565b8460200151612c029190613d2d565b600f0b84525b6020808801516000908152600c8252604090205490870151600f9190910b935015612c6057866020015186602001511415612c4557829150612c60565b6020808701516000908152600c9091526040902054600f0b91505b604080516080810182526000808252602082015242918101919091524360608201528115612cd5575060008181526009602090815260409182902082516080810184528154600f81810b8352600160801b909104900b9281019290925260018101549282019290925260029091015460608201525b604081015181600042831015612d22576040840151612cf49042613b52565b6060850151612d039043613b52565b612d1590670de0b6b3a7640000613b69565b612d1f9190613b9e565b90505b600062093a80612d328186613b9e565b612d3c9190613b69565b905060005b60ff811015612eb757612d5762093a8083613c66565b9150600042831115612d6b57429250612d7f565b506000828152600c6020526040902054600f0b5b612d898684613b52565b8760200151612d989190613d2d565b87518890612da7908390613dc2565b600f0b905250602087018051829190612dc1908390613e12565b600f90810b90915288516000910b12159050612ddc57600087525b60008760200151600f0b1215612df457600060208801525b60408088018490528501519295508592670de0b6b3a764000090612e189085613b52565b612e229086613b69565b612e2c9190613b9e565b8560600151612e3b9190613c66565b6060880152612e4b600189613c66565b975042831415612e615750436060870152612eb7565b6000888152600960209081526040918290208951918a01516001600160801b03908116600160801b029216919091178155908801516001820155606088015160029091015550612eb081613d12565b9050612d41565b505060088590558b15612f425788602001518860200151612ed89190613dc2565b84602001818151612ee99190613e12565b600f0b90525088518851612efd9190613dc2565b84518590612f0c908390613e12565b600f90810b90915260208601516000910b12159050612f2d57600060208501525b60008460000151600f0b1215612f4257600084525b6000858152600960209081526040918290208651918701516001600160801b03908116600160801b02921691909117815590850151600182015560608501516002909101558b1561310557428b602001511115612ffa576020890151612fa89088613e12565b96508a602001518a602001511415612fcc576020880151612fc99088613dc2565b96505b60208b8101516000908152600c9091526040902080546001600160801b0319166001600160801b0389161790555b428a602001511115613055578a602001518a6020015111156130555760208801516130259087613dc2565b60208b8101516000908152600c9091526040902080546001600160801b0319166001600160801b03831617905595505b60008c8152600b602052604081205461306f906001613c66565b905080600b60008f815260200190815260200160002081905550428960400181815250504389606001818152505088600a60008f815260200190815260200160002082633b9aca0081106130c5576130c5613aee565b825160208401516001600160801b03908116600160801b029116176003919091029190910190815560408201516001820155606090910151600290910155505b505050505050505050505050565b600082815260066020908152604080832081516060810183528154600f0b81526001820154938101939093526002015490820181905282906131559085613b52565b905061315f610f94565b8111156131715761316e610f94565b90505b613179610f94565b8251613189908390600f0b613b69565b6124719190613b9e565b606060405180610120016040528060fd815260200161423a60fd91399050806131bb866134ab565b6040516020016131cc929190613ef3565b6040516020818303038152906040529050806131e7856134ab565b6040516020016131f8929190613f6f565b604051602081830303815290604052905080613213846134ab565b604051602001613224929190613fef565b60405160208183030381529060405290508061323f836134ab565b604051602001613250929190614070565b6040516020818303038152906040529050600061329d61326f876134ab565b613278846135a9565b6040516020016132899291906140cb565b6040516020818303038152906040526135a9565b9050806040516020016132b091906141e0565b604051602081830303815290604052915050949350505050565b6000818152601260205260409020546001600160a01b038381169116146132f3576132f3613b04565b6000818152601360205260409020546001600160a01b03161561332d57600081815260136020526040902080546001600160a01b03191690555b5050565b6000818152601260205260409020546001600160a01b0383811691161461335a5761335a613b04565b600081815260126020526040902080546001600160a01b0319169055613380828261370f565b6001600160a01b03821660009081526014602052604081208054600192906133a9908490613b52565b90915550505050565b6000818152601260205260409020546001600160a01b0316156133d7576133d7613b04565b600081815260126020908152604080832080546001600160a01b0319166001600160a01b0387169081179091558084526014808452828520805460158652848720818852865284872088905587875260168652938620939093559084529091528054600192906133a9908490613c66565b60006001600160a01b03831661346057613460613b04565b61346a83836133b2565b60405182906001600160a01b038516906000907fddf252ad1be2c89b69c2b068fc378daa952ba7f163c4a11628f55a4df523b3ef908290a450600192915050565b6060816134cf5750506040805180820190915260018152600360fc1b602082015290565b8160005b81156134f957806134e381613d12565b91506134f29050600a83613b9e565b91506134d3565b60008167ffffffffffffffff81111561351457613514613991565b6040519080825280601f01601f19166020018201604052801561353e576020820181803683370190505b5090505b841561153357613553600183613b52565b9150613560600a86614225565b61356b906030613c66565b60f81b81838151811061358057613580613aee565b60200101906001600160f81b031916908160001a9053506135a2600a86613b9e565b9450613542565b8051606090806135c9575050604080516020810190915260008152919050565b600060036135d8836002613c66565b6135e29190613b9e565b6135ed906004613b69565b905060006135fc826020613c66565b67ffffffffffffffff81111561361457613614613991565b6040519080825280601f01601f19166020018201604052801561363e576020820181803683370190505b5090506000604051806060016040528060408152602001614337604091399050600181016020830160005b868110156136ca576003818a01810151603f601282901c8116860151600c83901c8216870151600684901c831688015192909316870151600891821b60ff94851601821b92841692909201901b91160160e01b835260049092019101613669565b5060038606600181146136e457600281146136f557613701565b613d3d60f01b600119830152613701565b603d60f81b6000198301525b505050918152949350505050565b6001600160a01b03821660009081526014602052604081205461373490600190613b52565b60008381526016602052604090205490915080821415613784576001600160a01b038416600090815260156020908152604080832085845282528083208390558583526016909152812055611bd9565b6001600160a01b039390931660009081526015602090815260408083209383529281528282208054868452848420819055835260169091528282209490945592839055908252812055565b6001600160e01b0319811681146137e557600080fd5b50565b6000602082840312156137fa57600080fd5b8135610f4a816137cf565b60005b83811015613820578181015183820152602001613808565b83811115611bd95750506000910152565b60008151808452613849816020860160208601613805565b601f01601f19169290920160200192915050565b602081526000610f4a6020830184613831565b60006020828403121561388257600080fd5b5035919050565b6001600160a01b03811681146137e557600080fd5b600080604083850312156138b157600080fd5b82356138bc81613889565b946020939093013593505050565b600080604083850312156138dd57600080fd5b50508035926020909101359150565b60008060006060848603121561390157600080fd5b833561390c81613889565b9250602084013561391c81613889565b929592945050506040919091013590565b60006020828403121561393f57600080fd5b8135610f4a81613889565b80151581146137e557600080fd5b6000806040838503121561396b57600080fd5b823561397681613889565b915060208301356139868161394a565b809150509250929050565b634e487b7160e01b600052604160045260246000fd5b600080600080608085870312156139bd57600080fd5b84356139c881613889565b935060208501356139d881613889565b925060408501359150606085013567ffffffffffffffff808211156139fc57600080fd5b818701915087601f830112613a1057600080fd5b813581811115613a2257613a22613991565b604051601f8201601f19908116603f01168101908382118183101715613a4a57613a4a613991565b816040528281528a6020848701011115613a6357600080fd5b82602086016020830137600060208483010152809550505050505092959194509250565b600080600060608486031215613a9c57600080fd5b83359250602084013591506040840135613ab581613889565b809150509250925092565b60008060408385031215613ad357600080fd5b8235613ade81613889565b9150602083013561398681613889565b634e487b7160e01b600052603260045260246000fd5b634e487b7160e01b600052600160045260246000fd5b602080825260089082015267185d1d1858da195960c21b604082015260600190565b634e487b7160e01b600052601160045260246000fd5b600082821015613b6457613b64613b3c565b500390565b6000816000190483118215151615613b8357613b83613b3c565b500290565b634e487b7160e01b600052601260045260246000fd5b600082613bad57613bad613b88565b500490565b600060208284031215613bc457600080fd5b8151610f4a8161394a565b600060208284031215613be157600080fd5b8151610f4a81613889565b80516001600160701b0381168114613c0357600080fd5b919050565b600080600060608486031215613c1d57600080fd5b613c2684613bec565b9250613c3460208501613bec565b9150604084015163ffffffff81168114613ab557600080fd5b600060208284031215613c5f57600080fd5b5051919050565b60008219821115613c7957613c79613b3c565b500190565b60208082526024908201527f43616e6e6f742061646420746f2065787069726564206c6f636b2e20576974686040820152636472617760e01b606082015260800190565b6001600160a01b03858116825284166020820152604081018390526080606082018190526000906116df90830184613831565b600060208284031215613d0757600080fd5b8151610f4a816137cf565b6000600019821415613d2657613d26613b3c565b5060010190565b600081600f0b83600f0b60016001607f1b03600082136000841383830485118282161615613d5d57613d5d613b3c565b60016001607f1b03196000851282811687830587121615613d8057613d80613b3c565b60008712925085820587128484161615613d9c57613d9c613b3c565b85850587128184161615613db257613db2613b3c565b5050509290910295945050505050565b600081600f0b83600f0b600081128160016001607f1b031901831281151615613ded57613ded613b3c565b8160016001607f1b03018313811615613e0857613e08613b3c565b5090039392505050565b600081600f0b83600f0b600082128260016001607f1b0303821381151615613e3c57613e3c613b3c565b8260016001607f1b0319038212811615613e5857613e58613b3c565b50019392505050565b634e487b7160e01b600052602160045260246000fd5b848152602081018490526080810160058410613ea357634e487b7160e01b600052602160045260246000fd5b60408201939093526060015292915050565b600081600f0b83600f0b80613ecc57613ecc613b88565b60016001607f1b0319821460001982141615613eea57613eea613b3c565b90059392505050565b60008351613f05818460208801613805565b6503a37b5b2b7160d51b9083019081528351613f28816006840160208801613805565b7f3c2f746578743e3c7465787420783d2231302220793d2234302220636c61737360069290910191820152671e913130b9b2911f60c11b6026820152602e01949350505050565b60008351613f81818460208801613805565b6903130b630b731b2a7b3160b51b9083019081528351613fa881600a840160208801613805565b7f3c2f746578743e3c7465787420783d2231302220793d2236302220636c617373600a9290910191820152671e913130b9b2911f60c11b602a820152603201949350505050565b60008351614001818460208801613805565b6a03637b1b5b2b22fb2b732160ad1b908301908152835161402981600b840160208801613805565b7f3c2f746578743e3c7465787420783d2231302220793d2238302220636c617373600b9290910191820152671e913130b9b2911f60c11b602b820152603301949350505050565b60008351614082818460208801613805565b6503b30b63ab2960d51b90830190815283516140a5816006840160208801613805565b6c1e17ba32bc3a1f1e17b9bb339f60991b60069290910191820152601301949350505050565b6f7b226e616d65223a20226c6f636b202360801b815282516000906140f7816010850160208801613805565b7f222c20226465736372697074696f6e223a2022536f6c69646c79206c6f636b736010918401918201527f2c2063616e206265207573656420746f20626f6f73742067617567652079696560308201527f6c64732c20766f7465206f6e20746f6b656e20656d697373696f6e2c20616e6460508201527f207265636569766520627269626573222c2022696d616765223a2022646174616070820152750e9a5b5859d94bdcdd99cade1b5b0ed8985cd94d8d0b60521b609082015283516141c58160a6840160208801613805565b61227d60f01b60a6929091019182015260a801949350505050565b7f646174613a6170706c69636174696f6e2f6a736f6e3b6261736536342c00000081526000825161421881601d850160208701613805565b91909101601d0192915050565b60008261423457614234613b88565b50069056fe3c73766720786d6c6e733d22687474703a2f2f7777772e77332e6f72672f323030302f73766722207072657365727665417370656374526174696f3d22784d696e594d696e206d656574222076696577426f783d223020302033353020333530223e3c7374796c653e2e62617365207b2066696c6c3a2077686974653b20666f6e742d66616d696c793a2073657269663b20666f6e742d73697a653a20313470783b207d3c2f7374796c653e3c726563742077696474683d223130302522206865696768743d2231303025222066696c6c3d22626c61636b22202f3e3c7465787420783d2231302220793d2232302220636c6173733d2262617365223e4142434445464748494a4b4c4d4e4f505152535455565758595a6162636465666768696a6b6c6d6e6f707172737475767778797a303132333435363738392b2fa2646970667358221220ec191aa216830b76670d7295d1092b82666a1ffec4d5ec35c36142902b1eec5464736f6c634300080b0033ddf252ad1be2c89b69c2b068fc378daa952ba7f163c4a11628f55a4df523b3ef",
  "linkReferences": {},
  "deployedLinkReferences": {}
}