{
  "_format": "hh-sol-artifact-1",
  "contractName": "ve",
  "sourceName": "contracts/ve.sol",
  "abi": [
    {
      "inputs": [
        {
          "internalType": "address",
          "name": "token_addr",
          "type": "address"
        }
      ],
      "stateMutability": "nonpayable",
      "type": "constructor"
    },
    {
      "anonymous": false,
      "inputs": [
        {
          "indexed": true,
          "internalType": "address",
          "name": "owner",
          "type": "address"
        },
        {
          "indexed": true,
          "internalType": "address",
          "name": "approved",
          "type": "address"
        },
        {
          "indexed": true,
          "internalType": "uint256",
          "name": "tokenId",
          "type": "uint256"
        }
      ],
      "name": "Approval",
      "type": "event"
    },
    {
      "anonymous": false,
      "inputs": [
        {
          "indexed": true,
          "internalType": "address",
          "name": "owner",
          "type": "address"
        },
        {
          "indexed": true,
          "internalType": "address",
          "name": "operator",
          "type": "address"
        },
        {
          "indexed": false,
          "internalType": "bool",
          "name": "approved",
          "type": "bool"
        }
      ],
      "name": "ApprovalForAll",
      "type": "event"
    },
    {
      "anonymous": false,
      "inputs": [
        {
          "indexed": true,
          "internalType": "address",
          "name": "provider",
          "type": "address"
        },
        {
          "indexed": false,
          "internalType": "uint256",
          "name": "tokenId",
          "type": "uint256"
        },
        {
          "indexed": false,
          "internalType": "uint256",
          "name": "value",
          "type": "uint256"
        },
        {
          "indexed": true,
          "internalType": "uint256",
          "name": "locktime",
          "type": "uint256"
        },
        {
          "indexed": false,
          "internalType": "enum ve.DepositType",
          "name": "deposit_type",
          "type": "uint8"
        },
        {
          "indexed": false,
          "internalType": "uint256",
          "name": "ts",
          "type": "uint256"
        }
      ],
      "name": "Deposit",
      "type": "event"
    },
    {
      "anonymous": false,
      "inputs": [
        {
          "indexed": false,
          "internalType": "uint256",
          "name": "prevSupply",
          "type": "uint256"
        },
        {
          "indexed": false,
          "internalType": "uint256",
          "name": "supply",
          "type": "uint256"
        }
      ],
      "name": "Supply",
      "type": "event"
    },
    {
      "anonymous": false,
      "inputs": [
        {
          "indexed": true,
          "internalType": "address",
          "name": "from",
          "type": "address"
        },
        {
          "indexed": true,
          "internalType": "address",
          "name": "to",
          "type": "address"
        },
        {
          "indexed": true,
          "internalType": "uint256",
          "name": "tokenId",
          "type": "uint256"
        }
      ],
      "name": "Transfer",
      "type": "event"
    },
    {
      "anonymous": false,
      "inputs": [
        {
          "indexed": true,
          "internalType": "address",
          "name": "provider",
          "type": "address"
        },
        {
          "indexed": false,
          "internalType": "uint256",
          "name": "tokenId",
          "type": "uint256"
        },
        {
          "indexed": false,
          "internalType": "uint256",
          "name": "value",
          "type": "uint256"
        },
        {
          "indexed": false,
          "internalType": "uint256",
          "name": "ts",
          "type": "uint256"
        }
      ],
      "name": "Withdraw",
      "type": "event"
    },
    {
      "inputs": [
        {
          "internalType": "uint256",
          "name": "_tokenId",
          "type": "uint256"
        }
      ],
      "name": "abstain",
      "outputs": [],
      "stateMutability": "nonpayable",
      "type": "function"
    },
    {
      "inputs": [
        {
          "internalType": "address",
          "name": "_approved",
          "type": "address"
        },
        {
          "internalType": "uint256",
          "name": "_tokenId",
          "type": "uint256"
        }
      ],
      "name": "approve",
      "outputs": [],
      "stateMutability": "nonpayable",
      "type": "function"
    },
    {
      "inputs": [
        {
          "internalType": "uint256",
          "name": "_tokenId",
          "type": "uint256"
        }
      ],
      "name": "attach",
      "outputs": [],
      "stateMutability": "nonpayable",
      "type": "function"
    },
    {
      "inputs": [
        {
          "internalType": "uint256",
          "name": "",
          "type": "uint256"
        }
      ],
      "name": "attachments",
      "outputs": [
        {
          "internalType": "uint256",
          "name": "",
          "type": "uint256"
        }
      ],
      "stateMutability": "view",
      "type": "function"
    },
    {
      "inputs": [
        {
          "internalType": "address",
          "name": "_owner",
          "type": "address"
        }
      ],
      "name": "balanceOf",
      "outputs": [
        {
          "internalType": "uint256",
          "name": "",
          "type": "uint256"
        }
      ],
      "stateMutability": "view",
      "type": "function"
    },
    {
      "inputs": [
        {
          "internalType": "uint256",
          "name": "_tokenId",
          "type": "uint256"
        },
        {
          "internalType": "uint256",
          "name": "_block",
          "type": "uint256"
        }
      ],
      "name": "balanceOfAtNFT",
      "outputs": [
        {
          "internalType": "uint256",
          "name": "",
          "type": "uint256"
        }
      ],
      "stateMutability": "view",
      "type": "function"
    },
    {
      "inputs": [
        {
          "internalType": "uint256",
          "name": "_tokenId",
          "type": "uint256"
        }
      ],
      "name": "balanceOfNFT",
      "outputs": [
        {
          "internalType": "uint256",
          "name": "",
          "type": "uint256"
        }
      ],
      "stateMutability": "view",
      "type": "function"
    },
    {
      "inputs": [
        {
          "internalType": "uint256",
          "name": "_tokenId",
          "type": "uint256"
        },
        {
          "internalType": "uint256",
          "name": "_t",
          "type": "uint256"
        }
      ],
      "name": "balanceOfNFTAt",
      "outputs": [
        {
          "internalType": "uint256",
          "name": "",
          "type": "uint256"
        }
      ],
      "stateMutability": "view",
      "type": "function"
    },
    {
      "inputs": [],
      "name": "block_number",
      "outputs": [
        {
          "internalType": "uint256",
          "name": "",
          "type": "uint256"
        }
      ],
      "stateMutability": "view",
      "type": "function"
    },
    {
      "inputs": [],
      "name": "checkpoint",
      "outputs": [],
      "stateMutability": "nonpayable",
      "type": "function"
    },
    {
      "inputs": [
        {
          "internalType": "uint256",
          "name": "_value",
          "type": "uint256"
        },
        {
          "internalType": "uint256",
          "name": "_lock_duration",
          "type": "uint256"
        }
      ],
      "name": "create_lock",
      "outputs": [
        {
          "internalType": "uint256",
          "name": "",
          "type": "uint256"
        }
      ],
      "stateMutability": "nonpayable",
      "type": "function"
    },
    {
      "inputs": [
        {
          "internalType": "uint256",
          "name": "_value",
          "type": "uint256"
        },
        {
          "internalType": "uint256",
          "name": "_lock_duration",
          "type": "uint256"
        },
        {
          "internalType": "address",
          "name": "_to",
          "type": "address"
        }
      ],
      "name": "create_lock_for",
      "outputs": [
        {
          "internalType": "uint256",
          "name": "",
          "type": "uint256"
        }
      ],
      "stateMutability": "nonpayable",
      "type": "function"
    },
    {
      "inputs": [],
      "name": "decimals",
      "outputs": [
        {
          "internalType": "uint8",
          "name": "",
          "type": "uint8"
        }
      ],
      "stateMutability": "view",
      "type": "function"
    },
    {
      "inputs": [
        {
          "internalType": "uint256",
          "name": "_tokenId",
          "type": "uint256"
        },
        {
          "internalType": "uint256",
          "name": "_value",
          "type": "uint256"
        }
      ],
      "name": "deposit_for",
      "outputs": [],
      "stateMutability": "nonpayable",
      "type": "function"
    },
    {
      "inputs": [
        {
          "internalType": "uint256",
          "name": "_tokenId",
          "type": "uint256"
        }
      ],
      "name": "detach",
      "outputs": [],
      "stateMutability": "nonpayable",
      "type": "function"
    },
    {
      "inputs": [],
      "name": "epoch",
      "outputs": [
        {
          "internalType": "uint256",
          "name": "",
          "type": "uint256"
        }
      ],
      "stateMutability": "view",
      "type": "function"
    },
    {
      "inputs": [
        {
          "internalType": "uint256",
          "name": "_tokenId",
          "type": "uint256"
        }
      ],
      "name": "getApproved",
      "outputs": [
        {
          "internalType": "address",
          "name": "",
          "type": "address"
        }
      ],
      "stateMutability": "view",
      "type": "function"
    },
    {
      "inputs": [
        {
          "internalType": "uint256",
          "name": "_tokenId",
          "type": "uint256"
        }
      ],
      "name": "get_last_user_slope",
      "outputs": [
        {
          "internalType": "int128",
          "name": "",
          "type": "int128"
        }
      ],
      "stateMutability": "view",
      "type": "function"
    },
    {
      "inputs": [
        {
          "internalType": "uint256",
          "name": "_tokenId",
          "type": "uint256"
        },
        {
          "internalType": "uint256",
          "name": "_value",
          "type": "uint256"
        }
      ],
      "name": "increase_amount",
      "outputs": [],
      "stateMutability": "nonpayable",
      "type": "function"
    },
    {
      "inputs": [
        {
          "internalType": "uint256",
          "name": "_tokenId",
          "type": "uint256"
        },
        {
          "internalType": "uint256",
          "name": "_lock_duration",
          "type": "uint256"
        }
      ],
      "name": "increase_unlock_time",
      "outputs": [],
      "stateMutability": "nonpayable",
      "type": "function"
    },
    {
      "inputs": [
        {
          "internalType": "address",
          "name": "_owner",
          "type": "address"
        },
        {
          "internalType": "address",
          "name": "_operator",
          "type": "address"
        }
      ],
      "name": "isApprovedForAll",
      "outputs": [
        {
          "internalType": "bool",
          "name": "",
          "type": "bool"
        }
      ],
      "stateMutability": "view",
      "type": "function"
    },
    {
      "inputs": [
        {
          "internalType": "address",
          "name": "_spender",
          "type": "address"
        },
        {
          "internalType": "uint256",
          "name": "_tokenId",
          "type": "uint256"
        }
      ],
      "name": "isApprovedOrOwner",
      "outputs": [
        {
          "internalType": "bool",
          "name": "",
          "type": "bool"
        }
      ],
      "stateMutability": "view",
      "type": "function"
    },
    {
      "inputs": [
        {
          "internalType": "uint256",
          "name": "",
          "type": "uint256"
        }
      ],
      "name": "locked",
      "outputs": [
        {
          "internalType": "int128",
          "name": "amount",
          "type": "int128"
        },
        {
          "internalType": "uint256",
          "name": "end",
          "type": "uint256"
        }
      ],
      "stateMutability": "view",
      "type": "function"
    },
    {
      "inputs": [
        {
          "internalType": "uint256",
          "name": "_tokenId",
          "type": "uint256"
        }
      ],
      "name": "locked__end",
      "outputs": [
        {
          "internalType": "uint256",
          "name": "",
          "type": "uint256"
        }
      ],
      "stateMutability": "view",
      "type": "function"
    },
    {
      "inputs": [
        {
          "internalType": "uint256",
          "name": "_from",
          "type": "uint256"
        },
        {
          "internalType": "uint256",
          "name": "_to",
          "type": "uint256"
        }
      ],
      "name": "merge",
      "outputs": [],
      "stateMutability": "nonpayable",
      "type": "function"
    },
    {
      "inputs": [],
      "name": "name",
      "outputs": [
        {
          "internalType": "string",
          "name": "",
          "type": "string"
        }
      ],
      "stateMutability": "view",
      "type": "function"
    },
    {
      "inputs": [
        {
          "internalType": "uint256",
          "name": "_tokenId",
          "type": "uint256"
        }
      ],
      "name": "ownerOf",
      "outputs": [
        {
          "internalType": "address",
          "name": "",
          "type": "address"
        }
      ],
      "stateMutability": "view",
      "type": "function"
    },
    {
      "inputs": [
        {
          "internalType": "uint256",
          "name": "",
          "type": "uint256"
        }
      ],
      "name": "ownership_change",
      "outputs": [
        {
          "internalType": "uint256",
          "name": "",
          "type": "uint256"
        }
      ],
      "stateMutability": "view",
      "type": "function"
    },
    {
      "inputs": [
        {
          "internalType": "uint256",
          "name": "",
          "type": "uint256"
        }
      ],
      "name": "point_history",
      "outputs": [
        {
          "internalType": "int128",
          "name": "bias",
          "type": "int128"
        },
        {
          "internalType": "int128",
          "name": "slope",
          "type": "int128"
        },
        {
          "internalType": "uint256",
          "name": "ts",
          "type": "uint256"
        },
        {
          "internalType": "uint256",
          "name": "blk",
          "type": "uint256"
        }
      ],
      "stateMutability": "view",
      "type": "function"
    },
    {
      "inputs": [
        {
          "internalType": "address",
          "name": "_from",
          "type": "address"
        },
        {
          "internalType": "address",
          "name": "_to",
          "type": "address"
        },
        {
          "internalType": "uint256",
          "name": "_tokenId",
          "type": "uint256"
        }
      ],
      "name": "safeTransferFrom",
      "outputs": [],
      "stateMutability": "nonpayable",
      "type": "function"
    },
    {
      "inputs": [
        {
          "internalType": "address",
          "name": "_from",
          "type": "address"
        },
        {
          "internalType": "address",
          "name": "_to",
          "type": "address"
        },
        {
          "internalType": "uint256",
          "name": "_tokenId",
          "type": "uint256"
        },
        {
          "internalType": "bytes",
          "name": "_data",
          "type": "bytes"
        }
      ],
      "name": "safeTransferFrom",
      "outputs": [],
      "stateMutability": "nonpayable",
      "type": "function"
    },
    {
      "inputs": [
        {
          "internalType": "address",
          "name": "_operator",
          "type": "address"
        },
        {
          "internalType": "bool",
          "name": "_approved",
          "type": "bool"
        }
      ],
      "name": "setApprovalForAll",
      "outputs": [],
      "stateMutability": "nonpayable",
      "type": "function"
    },
    {
      "inputs": [
        {
          "internalType": "address",
          "name": "_voter",
          "type": "address"
        }
      ],
      "name": "setVoter",
      "outputs": [],
      "stateMutability": "nonpayable",
      "type": "function"
    },
    {
      "inputs": [
        {
          "internalType": "uint256",
          "name": "",
          "type": "uint256"
        }
      ],
      "name": "slope_changes",
      "outputs": [
        {
          "internalType": "int128",
          "name": "",
          "type": "int128"
        }
      ],
      "stateMutability": "view",
      "type": "function"
    },
    {
      "inputs": [],
      "name": "supply",
      "outputs": [
        {
          "internalType": "uint256",
          "name": "",
          "type": "uint256"
        }
      ],
      "stateMutability": "view",
      "type": "function"
    },
    {
      "inputs": [
        {
          "internalType": "bytes4",
          "name": "_interfaceID",
          "type": "bytes4"
        }
      ],
      "name": "supportsInterface",
      "outputs": [
        {
          "internalType": "bool",
          "name": "",
          "type": "bool"
        }
      ],
      "stateMutability": "view",
      "type": "function"
    },
    {
      "inputs": [],
      "name": "symbol",
      "outputs": [
        {
          "internalType": "string",
          "name": "",
          "type": "string"
        }
      ],
      "stateMutability": "view",
      "type": "function"
    },
    {
      "inputs": [],
      "name": "token",
      "outputs": [
        {
          "internalType": "address",
          "name": "",
          "type": "address"
        }
      ],
      "stateMutability": "view",
      "type": "function"
    },
    {
      "inputs": [
        {
          "internalType": "address",
          "name": "_owner",
          "type": "address"
        },
        {
          "internalType": "uint256",
          "name": "_tokenIndex",
          "type": "uint256"
        }
      ],
      "name": "tokenOfOwnerByIndex",
      "outputs": [
        {
          "internalType": "uint256",
          "name": "",
          "type": "uint256"
        }
      ],
      "stateMutability": "view",
      "type": "function"
    },
    {
      "inputs": [
        {
          "internalType": "uint256",
          "name": "_tokenId",
          "type": "uint256"
        }
      ],
      "name": "tokenURI",
      "outputs": [
        {
          "internalType": "string",
          "name": "",
          "type": "string"
        }
      ],
      "stateMutability": "view",
      "type": "function"
    },
    {
      "inputs": [],
      "name": "totalSupply",
      "outputs": [
        {
          "internalType": "uint256",
          "name": "",
          "type": "uint256"
        }
      ],
      "stateMutability": "view",
      "type": "function"
    },
    {
      "inputs": [
        {
          "internalType": "uint256",
          "name": "_block",
          "type": "uint256"
        }
      ],
      "name": "totalSupplyAt",
      "outputs": [
        {
          "internalType": "uint256",
          "name": "",
          "type": "uint256"
        }
      ],
      "stateMutability": "view",
      "type": "function"
    },
    {
      "inputs": [
        {
          "internalType": "uint256",
          "name": "t",
          "type": "uint256"
        }
      ],
      "name": "totalSupplyAtT",
      "outputs": [
        {
          "internalType": "uint256",
          "name": "",
          "type": "uint256"
        }
      ],
      "stateMutability": "view",
      "type": "function"
    },
    {
      "inputs": [
        {
          "internalType": "address",
          "name": "_from",
          "type": "address"
        },
        {
          "internalType": "address",
          "name": "_to",
          "type": "address"
        },
        {
          "internalType": "uint256",
          "name": "_tokenId",
          "type": "uint256"
        }
      ],
      "name": "transferFrom",
      "outputs": [],
      "stateMutability": "nonpayable",
      "type": "function"
    },
    {
      "inputs": [
        {
          "internalType": "uint256",
          "name": "",
          "type": "uint256"
        }
      ],
      "name": "user_point_epoch",
      "outputs": [
        {
          "internalType": "uint256",
          "name": "",
          "type": "uint256"
        }
      ],
      "stateMutability": "view",
      "type": "function"
    },
    {
      "inputs": [
        {
          "internalType": "uint256",
          "name": "",
          "type": "uint256"
        },
        {
          "internalType": "uint256",
          "name": "",
          "type": "uint256"
        }
      ],
      "name": "user_point_history",
      "outputs": [
        {
          "internalType": "int128",
          "name": "bias",
          "type": "int128"
        },
        {
          "internalType": "int128",
          "name": "slope",
          "type": "int128"
        },
        {
          "internalType": "uint256",
          "name": "ts",
          "type": "uint256"
        },
        {
          "internalType": "uint256",
          "name": "blk",
          "type": "uint256"
        }
      ],
      "stateMutability": "view",
      "type": "function"
    },
    {
      "inputs": [
        {
          "internalType": "uint256",
          "name": "_tokenId",
          "type": "uint256"
        },
        {
          "internalType": "uint256",
          "name": "_idx",
          "type": "uint256"
        }
      ],
      "name": "user_point_history__ts",
      "outputs": [
        {
          "internalType": "uint256",
          "name": "",
          "type": "uint256"
        }
      ],
      "stateMutability": "view",
      "type": "function"
    },
    {
      "inputs": [],
      "name": "version",
      "outputs": [
        {
          "internalType": "string",
          "name": "",
          "type": "string"
        }
      ],
      "stateMutability": "view",
      "type": "function"
    },
    {
      "inputs": [
        {
          "internalType": "uint256",
          "name": "",
          "type": "uint256"
        }
      ],
      "name": "voted",
      "outputs": [
        {
          "internalType": "bool",
          "name": "",
          "type": "bool"
        }
      ],
      "stateMutability": "view",
      "type": "function"
    },
    {
      "inputs": [],
      "name": "voter",
      "outputs": [
        {
          "internalType": "address",
          "name": "",
          "type": "address"
        }
      ],
      "stateMutability": "view",
      "type": "function"
    },
    {
      "inputs": [
        {
          "internalType": "uint256",
          "name": "_tokenId",
          "type": "uint256"
        }
      ],
      "name": "voting",
      "outputs": [],
      "stateMutability": "nonpayable",
      "type": "function"
    },
    {
      "inputs": [
        {
          "internalType": "uint256",
          "name": "_tokenId",
          "type": "uint256"
        }
      ],
      "name": "withdraw",
      "outputs": [],
      "stateMutability": "nonpayable",
      "type": "function"
    }
  ],
  "bytecode": "0x60a06040526014805460ff191660011790553480156200001e57600080fd5b5060405162003dd838038062003dd8833981016040819052620000419162000181565b6001600160a01b038116608052600a80546001600160a01b03191633179055437f17ef568e3e12ab5b9c7254a8d58478811de00f9e6eb34345acd53bf8fd09d3ee55427f17ef568e3e12ab5b9c7254a8d58478811de00f9e6eb34345acd53bf8fd09d3ed5560136020527f317681100331673b27c2499894e78912f138ae85f2dd790e454ff96a89cf2d77805460ff1990811660019081179092557f5829b1f18259a9cdcd4268c3b072804d2f8e3dedbb1b883db1fa2055bb26d84f8054821683179055635b5e139f60e01b60009081527f65cb089fa41783e5af12e88573d882f263c09532a373334f0b809825d5a904ab80549092169092179055600b546040519091309160008051602062003db8833981519152908290a4600b54604051600090309060008051602062003db8833981519152908390a450620001b3565b6000602082840312156200019457600080fd5b81516001600160a01b0381168114620001ac57600080fd5b9392505050565b608051613bdb620001dd6000396000818161087d01528181610bcd015261283b0152613bdb6000f3fe608060405234801561001057600080fd5b506004361061030c5760003560e01c80638c2c9baf1161019d578063c87b56dd116100e9578063e7e242d4116100a2578063f8a057631161007c578063f8a0576314610841578063fbd3a29d14610865578063fc0c546a14610878578063fd4a77f11461089f57600080fd5b8063e7e242d4146107df578063e985e9c5146107f2578063ee99fe281461082e57600080fd5b8063c87b56dd14610735578063d1c2babb14610748578063d1febfb91461075b578063d4e54c3b14610799578063e0514aba146107ac578063e441135c146107bf57600080fd5b8063a183af5211610156578063b45a3c0e11610130578063b45a3c0e146106bf578063b88d4fde14610707578063c1f0fb9f1461071a578063c2c4c5c11461072d57600080fd5b8063a183af5214610686578063a22cb46514610699578063a4d855df146106ac57600080fd5b80638c2c9baf146106215780638fbb38ff14610634578063900cf0cf1461065757806395d89b411461036a578063981b24d014610660578063986b7d8a1461067357600080fd5b8063313ce5671161025c57806354fd4d50116102155780636f548837116101ef5780636f548837146105b857806370a08231146105d85780637116c60c146105eb57806371197484146105fe57600080fd5b806354fd4d50146105585780636352211e1461057c57806365fc3873146105a557600080fd5b8063313ce567146104cc57806342842e0e146104e6578063430c2081146104f9578063461f711c1461050c57806346c96aac146105325780634bc2a6571461054557600080fd5b80631376f3da116102c957806323b872dd116102a357806323b872dd1461046a57806325a58b561461047d5780632e1a7d4d146104835780632f745c591461049657600080fd5b80631376f3da1461041457806318160ddd1461044f5780631c984bc31461045757600080fd5b806301ffc9a714610311578063047fc9aa1461035357806306fdde031461036a578063081812fc1461039e578063095ea7b3146103df5780630d6a2033146103f4575b600080fd5b61033e61031f366004613076565b6001600160e01b03191660009081526013602052604090205460ff1690565b60405190151581526020015b60405180910390f35b61035c60005481565b60405190815260200161034a565b610391604051806040016040528060088152602001671b5a5b9d1cd3919560c21b81525081565b60405161034a91906130eb565b6103c76103ac3660046130fe565b6000908152600e60205260409020546001600160a01b031690565b6040516001600160a01b03909116815260200161034a565b6103f26103ed366004613133565b6108b2565b005b61035c6104023660046130fe565b60086020526000908152604090205481565b61042761042236600461315d565b61099b565b60408051600f95860b81529390940b602084015292820152606081019190915260800161034a565b61035c6109e2565b61035c61046536600461315d565b6109f2565b6103f261047836600461317f565b610a25565b4361035c565b6103f26104913660046130fe565b610a36565b61035c6104a4366004613133565b6001600160a01b03919091166000908152601060209081526040808320938352929052205490565b6104d4601281565b60405160ff909116815260200161034a565b6103f26104f436600461317f565b610cf0565b61033e610507366004613133565b610d0b565b61051f61051a3660046130fe565b610d1e565b604051600f9190910b815260200161034a565b600a546103c7906001600160a01b031681565b6103f26105533660046131bb565b610d61565b610391604051806040016040528060058152602001640312e302e360dc1b81525081565b6103c761058a3660046130fe565b6000908152600d60205260409020546001600160a01b031690565b61035c6105b336600461315d565b610d9a565b61035c6105c63660046130fe565b60026020526000908152604090205481565b61035c6105e63660046131bb565b610ddc565b61035c6105f93660046130fe565b610dfa565b61051f61060c3660046130fe565b600760205260009081526040902054600f0b81565b61035c61062f36600461315d565b610e5a565b61033e6106423660046130fe565b60096020526000908152604090205460ff1681565b61035c60035481565b61035c61066e3660046130fe565b610e66565b6103f26106813660046130fe565b611008565b6103f261069436600461315d565b61104c565b6103f26106a73660046131e4565b61114b565b6103f26106ba36600461315d565b6111d0565b6106ed6106cd3660046130fe565b60016020819052600091825260409091208054910154600f9190910b9082565b60408051600f9390930b835260208301919091520161034a565b6103f2610715366004613231565b6113b2565b6103f26107283660046130fe565b6114df565b6103f261156b565b6103916107433660046130fe565b6115ab565b6103f261075636600461315d565b611658565b6104276107693660046130fe565b600460205260009081526040902080546001820154600290920154600f82810b93600160801b909304900b919084565b61035c6107a736600461330d565b6117c3565b61035c6107ba36600461315d565b611806565b61035c6107cd3660046130fe565b60066020526000908152604090205481565b61035c6107ed3660046130fe565b611812565b61033e610800366004613342565b6001600160a01b03918216600090815260126020908152604080832093909416825291909152205460ff1690565b6103f261083c36600461315d565b61183a565b61035c61084f3660046130fe565b6000908152600160208190526040909120015490565b6103f26108733660046130fe565b61190e565b6103c77f000000000000000000000000000000000000000000000000000000000000000081565b6103f26108ad3660046130fe565b61193f565b6000818152600d60205260409020546001600160a01b0316806108d457600080fd5b806001600160a01b0316836001600160a01b031614156108f357600080fd5b6000828152600d60209081526040808320546001600160a01b0385811685526012845282852033808752945291909320549216149060ff1681806109345750805b61093d57600080fd5b6000848152600e602052604080822080546001600160a01b0319166001600160a01b0389811691821790925591518793918716917f8c5be1e5ebec7d5bd14f71427d1e84f3dd0314c0f7b2291e5b200ac8c7c3b92591a45050505050565b600560205281600052604060002081633b9aca0081106109ba57600080fd5b6003020180546001820154600290920154600f82810b9550600160801b90920490910b925084565b60006109ed42610dfa565b905090565b600082815260056020526040812082633b9aca008110610a1457610a14613375565b600302016001015490505b92915050565b610a318383833361198b565b505050565b60145460ff16600114610a4857600080fd5b6014805460ff19166002179055610a5f3382611a51565b610a6b57610a6b61338b565b600081815260086020526040902054158015610a96575060008181526009602052604090205460ff16155b610abb5760405162461bcd60e51b8152600401610ab2906133a1565b60405180910390fd5b60008181526001602081815260409283902083518085019094528054600f0b845290910154908201819052421015610b2e5760405162461bcd60e51b8152602060048201526016602482015275546865206c6f636b206469646e27742065787069726560501b6044820152606401610ab2565b805160408051808201825260008082526020808301828152878352600191829052938220925183546001600160801b0319166001600160801b039091161783559251919092015554600f9190910b90610b8782826133d9565b600081905550610bb1848460405180604001604052806000600f0b81526020016000815250611ab7565b60405163a9059cbb60e01b8152336004820152602481018390527f00000000000000000000000000000000000000000000000000000000000000006001600160a01b03169063a9059cbb906044016020604051808303816000875af1158015610c1e573d6000803e3d6000fd5b505050506040513d601f19601f82011682018060405250810190610c4291906133f0565b610c4e57610c4e61338b565b610c57846120d6565b60408051858152602081018490524281830152905133917f02f25270a4d87bea75db541cdfe559334a275b4a233520ed6c0a2429667cca94919081900360600190a27f5e2aa66efd74cce82b21852e317e5490d9ecc9e6bb953ae24d90851258cc2f5c81610cc584826133d9565b6040805192835260208301919091520160405180910390a150506014805460ff191660011790555050565b610a31838383604051806020016040528060008152506113b2565b6000610d178383611a51565b9392505050565b6000818152600660209081526040808320546005909252822081633b9aca008110610d4b57610d4b613375565b6003020154600160801b9004600f0b9392505050565b600a546001600160a01b03163314610d7857600080fd5b600a80546001600160a01b0319166001600160a01b0392909216919091179055565b60145460009060ff16600114610daf57600080fd5b6014805460ff19166002179055610dc7838333612195565b90506014805460ff1916600117905592915050565b6001600160a01b0381166000908152600f6020526040812054610a1f565b600354600081815260046020908152604080832081516080810183528154600f81810b8352600160801b909104900b93810193909352600181015491830191909152600201546060820152909190610e5281856122e6565b949350505050565b6000610d1783836123e8565b600043821115610e7857610e7861338b565b6003546000610e8784836126c0565b600081815260046020908152604080832081516080810183528154600f81810b8352600160801b909104900b9381019390935260018101549183019190915260020154606082015291925083831015610f96576000600481610eea86600161340d565b8152602080820192909252604090810160002081516080810183528154600f81810b8352600160801b909104900b9381019390935260018101549183019190915260020154606080830182905285015191925014610f905782606001518160600151610f5691906133d9565b83604001518260400151610f6a91906133d9565b6060850151610f79908a6133d9565b610f839190613425565b610f8d919061345a565b91505b50610fe5565b43826060015114610fe5576060820151610fb090436133d9565b6040830151610fbf90426133d9565b6060840151610fce90896133d9565b610fd89190613425565b610fe2919061345a565b90505b610ffe82828460400151610ff9919061340d565b6122e6565b9695505050505050565b600a546001600160a01b0316331461101f57600080fd5b60008181526008602052604090205461103a906001906133d9565b60009182526008602052604090912055565b60145460ff1660011461105e57600080fd5b6014805460ff191660021790556110753383611a51565b6110815761108161338b565b60008281526001602081815260409283902083518085019094528054600f0b84529091015490820152816110b7576110b761338b565b60008160000151600f0b136111075760405162461bcd60e51b8152602060048201526016602482015275139bc8195e1a5cdd1a5b99c81b1bd8dac8199bdd5b9960521b6044820152606401610ab2565b4281602001511161112a5760405162461bcd60e51b8152600401610ab29061346e565b6111398383600084600261274a565b50506014805460ff1916600117905550565b6001600160a01b0382163314156111645761116461338b565b3360008181526012602090815260408083206001600160a01b03871680855290835292819020805460ff191686151590811790915590519081529192917f17307eab39ab6107e8899845ad3d59bd9653f200f220920489ca2b5937696c31910160405180910390a35050565b60145460ff166001146111e257600080fd5b6014805460ff191660021790556111f93383611a51565b6112055761120561338b565b600082815260016020818152604080842081518083019092528054600f0b825290920154908201529062093a808061123d854261340d565b611247919061345a565b6112519190613425565b9050428260200151116112955760405162461bcd60e51b815260206004820152600c60248201526b131bd8dac8195e1c1a5c995960a21b6044820152606401610ab2565b60008260000151600f0b136112e05760405162461bcd60e51b8152602060048201526011602482015270139bdd1a1a5b99c81a5cc81b1bd8dad959607a1b6044820152606401610ab2565b816020015181116113335760405162461bcd60e51b815260206004820152601f60248201527f43616e206f6e6c7920696e637265617365206c6f636b206475726174696f6e006044820152606401610ab2565b611341630784ce004261340d565b8111156113905760405162461bcd60e51b815260206004820152601e60248201527f566f74696e67206c6f636b2063616e2062652034207965617273206d617800006044820152606401610ab2565b61139f8460008385600361274a565b50506014805460ff191660011790555050565b6113be8484843361198b565b823b156114d957604051630a85bd0160e11b81526001600160a01b0384169063150b7a02906113f79033908890879087906004016134b2565b6020604051808303816000875af1925050508015611432575060408051601f3d908101601f1916820190925261142f918101906134e5565b60015b6114d7573d808015611460576040519150601f19603f3d011682016040523d82523d6000602084013e611465565b606091505b5080516114cf5760405162461bcd60e51b815260206004820152603260248201527f4552433732313a207472616e7366657220746f206e6f6e20455243373231526560448201527131b2b4bb32b91034b6b83632b6b2b73a32b960711b6064820152608401610ab2565b805181602001fd5b505b50505050565b600a546001600160a01b031633146114f657600080fd5b6000818152600c602052604090205442116115535760405162461bcd60e51b815260206004820152601860248201527f6c6f636b20706572696f64206e6f742066696e697368656400000000000000006044820152606401610ab2565b6000908152600960205260409020805460ff19169055565b6115a9600060405180604001604052806000600f0b8152602001600081525060405180604001604052806000600f0b81526020016000815250611ab7565b565b6000818152600d60205260409020546060906001600160a01b03166116125760405162461bcd60e51b815260206004820152601b60248201527f517565727920666f72206e6f6e6578697374656e7420746f6b656e00000000006044820152606401610ab2565b60008281526001602081815260409283902083518085019094528054600f0b84529091015490820152610d1783611649814261294f565b60208401518451600f0b612a21565b600082815260086020526040902054158015611683575060008281526009602052604090205460ff16155b61169f5760405162461bcd60e51b8152600401610ab2906133a1565b808214156116ac57600080fd5b6116b63383611a51565b6116bf57600080fd5b6116c93382611a51565b6116d257600080fd5b6000828152600160208181526040808420815180830183528154600f90810b82529185015481850190815287875285855283872084518086019095528054840b855290950154938301849052805194519095929490910b92111561173a578260200151611740565b83602001515b604080518082018252600080825260208083018281528b83526001808352858420945185546001600160801b0319166001600160801b0390911617855590519301929092558251808401909352808352908201529091506117a49087908690611ab7565b6117ad866120d6565b6117bb85838386600461274a565b505050505050565b60145460009060ff166001146117d857600080fd5b6014805460ff191660021790556117f0848484612195565b90506014805460ff191660011790559392505050565b6000610d17838361294f565b60008181526002602052604081205443141561183057506000919050565b610a1f824261294f565b60145460ff1660011461184c57600080fd5b6014805460ff1916600217905560008281526001602081815260409283902083518085019094528054600f0b845290910154908201528161188c57600080fd5b60008160000151600f0b136118dc5760405162461bcd60e51b8152602060048201526016602482015275139bc8195e1a5cdd1a5b99c81b1bd8dac8199bdd5b9960521b6044820152606401610ab2565b428160200151116118ff5760405162461bcd60e51b8152600401610ab29061346e565b6111398383600084600061274a565b600a546001600160a01b0316331461192557600080fd5b60008181526008602052604090205461103a90600161340d565b600a546001600160a01b0316331461195657600080fd5b6119634262093a8061340d565b6000918252600c6020908152604080842092909255600990529020805460ff19166001179055565b6000828152600860205260409020541580156119b6575060008281526009602052604090205460ff16155b6119d25760405162461bcd60e51b8152600401610ab2906133a1565b6119dc8183611a51565b6119e557600080fd5b6119ef8483612b58565b6119f98483612bbf565b611a038383612c40565b6000828152600260205260408082204390555183916001600160a01b0380871692908816917fddf252ad1be2c89b69c2b068fc378daa952ba7f163c4a11628f55a4df523b3ef91a450505050565b6000818152600d6020908152604080832054600e8352818420546001600160a01b039182168086526012855283862088841680885295529285205492938085149392909116149060ff168280611aa45750815b80611aac5750805b979650505050505050565b60408051608081018252600080825260208201819052918101829052606081019190915260408051608081018252600080825260208201819052918101829052606081019190915260035460009081908715611c2357428760200151118015611b27575060008760000151600f0b135b15611b6c578651611b3d90630784ce0090613502565b600f0b602080870191909152870151611b579042906133d9565b8560200151611b669190613540565b600f0b85525b428660200151118015611b86575060008660000151600f0b135b15611bcb578551611b9c90630784ce0090613502565b600f0b602080860191909152860151611bb69042906133d9565b8460200151611bc59190613540565b600f0b84525b602080880151600090815260078252604090205490870151600f9190910b935015611c2357866020015186602001511415611c0857829150611c23565b602080870151600090815260079091526040902054600f0b91505b604080516080810182526000808252602082015242918101919091524360608201528115611c98575060008181526004602090815260409182902082516080810184528154600f81810b8352600160801b909104900b9281019290925260018101549282019290925260029091015460608201525b604081015181600042831015611ce5576040840151611cb790426133d9565b6060850151611cc690436133d9565b611cd890670de0b6b3a7640000613425565b611ce2919061345a565b90505b600062093a80611cf5818661345a565b611cff9190613425565b905060005b60ff811015611e7a57611d1a62093a808361340d565b9150600042831115611d2e57429250611d42565b50600082815260076020526040902054600f0b5b611d4c86846133d9565b8760200151611d5b9190613540565b87518890611d6a9083906135d5565b600f0b905250602087018051829190611d84908390613625565b600f90810b90915288516000910b12159050611d9f57600087525b60008760200151600f0b1215611db757600060208801525b60408088018490528501519295508592670de0b6b3a764000090611ddb90856133d9565b611de59086613425565b611def919061345a565b8560600151611dfe919061340d565b6060880152611e0e60018961340d565b975042831415611e245750436060870152611e7a565b6000888152600460209081526040918290208951918a01516001600160801b03908116600160801b029216919091178155908801516001820155606088015160029091015550611e7381613674565b9050611d04565b505060038590558b15611f055788602001518860200151611e9b91906135d5565b84602001818151611eac9190613625565b600f0b90525088518851611ec091906135d5565b84518590611ecf908390613625565b600f90810b90915260208601516000910b12159050611ef057600060208501525b60008460000151600f0b1215611f0557600084525b6000858152600460209081526040918290208651918701516001600160801b03908116600160801b02921691909117815590850151600182015560608501516002909101558b156120c857428b602001511115611fbd576020890151611f6b9088613625565b96508a602001518a602001511415611f8f576020880151611f8c90886135d5565b96505b60208b810151600090815260079091526040902080546001600160801b0319166001600160801b0389161790555b428a602001511115612018578a602001518a602001511115612018576020880151611fe890876135d5565b60208b810151600090815260079091526040902080546001600160801b0319166001600160801b03831617905595505b60008c81526006602052604081205461203290600161340d565b905080600660008f815260200190815260200160002081905550428960400181815250504389606001818152505088600560008f815260200190815260200160002082633b9aca00811061208857612088613375565b825160208401516001600160801b03908116600160801b029116176003919091029190910190815560408201516001820155606090910151600290910155505b505050505050505050505050565b6120e03382611a51565b61212c5760405162461bcd60e51b815260206004820181905260248201527f63616c6c6572206973206e6f74206f776e6572206e6f7220617070726f7665646044820152606401610ab2565b6000818152600d60205260408120546001600160a01b03169061214f90836108b2565b6121593383612bbf565b60405182906000906001600160a01b038416907fddf252ad1be2c89b69c2b068fc378daa952ba7f163c4a11628f55a4df523b3ef908390a45050565b60008062093a80806121a7864261340d565b6121b1919061345a565b6121bb9190613425565b9050600085116121ca57600080fd5b4281116122285760405162461bcd60e51b815260206004820152602660248201527f43616e206f6e6c79206c6f636b20756e74696c2074696d6520696e207468652060448201526566757475726560d01b6064820152608401610ab2565b612236630784ce004261340d565b8111156122855760405162461bcd60e51b815260206004820152601e60248201527f566f74696e67206c6f636b2063616e2062652034207965617273206d617800006044820152606401610ab2565b600b6000815461229490613674565b90915550600b546122a58482612cd6565b5060008181526001602081815260409283902083518085019094528054600f0b8452820154908301526122dd9183918991869161274a565b95945050505050565b600080839050600062093a80808360400151612302919061345a565b61230c9190613425565b905060005b60ff8110156123c05761232762093a808361340d565b915060008583111561233b5785925061234f565b50600082815260076020526040902054600f0b5b604084015161235e90846133d9565b846020015161236d9190613540565b8451859061237c9083906135d5565b600f0b9052508286141561239057506123c0565b80846020018181516123a29190613625565b600f0b90525050604083018290526123b981613674565b9050612311565b5060008260000151600f0b12156123d657600082525b50516001600160801b03169392505050565b6000438211156123fa576123fa61338b565b600083815260066020526040812054815b608081101561249e578183106124205761249e565b6000600261242e848661340d565b61243990600161340d565b612443919061345a565b6000888152600560205260409020909150869082633b9aca00811061246a5761246a613375565b60030201600201541161247f5780935061248d565b61248a6001826133d9565b92505b5061249781613674565b905061240b565b50600085815260056020526040812083633b9aca0081106124c1576124c1613375565b604080516080810182526003928302939093018054600f81810b8652600160801b909104900b602085015260018101549184019190915260020154606083015254909150600061251187836126c0565b600081815260046020908152604080832081516080810183528154600f81810b8352600160801b909104900b9381019390935260018101549183019190915260020154606082015291925080848410156125f057600060048161257587600161340d565b8152602080820192909252604090810160002081516080810183528154600f81810b8352600160801b909104900b938101939093526001810154918301919091526002015460608083018290528601519192506125d291906133d9565b9250836040015181604001516125e891906133d9565b915050612614565b60608301516125ff90436133d9565b915082604001514261261191906133d9565b90505b60408301518215612651578284606001518c61263091906133d9565b61263a9084613425565b612644919061345a565b61264e908261340d565b90505b604087015161266090826133d9565b876020015161266f9190613540565b8751889061267e9083906135d5565b600f90810b90915288516000910b1290506126ae57505093516001600160801b03169650610a1f95505050505050565b60009950505050505050505050610a1f565b60008082815b6080811015612740578183106126db57612740565b600060026126e9848661340d565b6126f490600161340d565b6126fe919061345a565b60008181526004602052604090206002015490915087106127215780935061272f565b61272c6001826133d9565b92505b5061273981613674565b90506126c6565b5090949350505050565b6000548290612759868261340d565b6000908155604080518082019091528181526020810191909152825160208085015190830152600f0b8152825187908490612795908390613625565b600f0b90525085156127a957602083018690525b6000888152600160208181526040909220855181546001600160801b0319166001600160801b03909116178155918501519101556127e8888285611ab7565b33871580159061280a575060048560048111156128075761280761368f565b14155b156128b4576040516323b872dd60e01b81526001600160a01b038281166004830152306024830152604482018a90527f000000000000000000000000000000000000000000000000000000000000000016906323b872dd906064016020604051808303816000875af1158015612884573d6000803e3d6000fd5b505050506040513d601f19601f820116820180604052508101906128a891906133f0565b6128b4576128b461338b565b8360200151816001600160a01b03167fff04ccafc360e16b67d682d17bd9503c4c6b9a131f6be6325762dc9ffc7de6248b8b89426040516128f894939291906136a5565b60405180910390a37f5e2aa66efd74cce82b21852e317e5490d9ecc9e6bb953ae24d90851258cc2f5c8361292c8a8261340d565b6040805192835260208301919091520160405180910390a1505050505050505050565b6000828152600660205260408120548061296d576000915050610a1f565b600084815260056020526040812082633b9aca00811061298f5761298f613375565b60408051608081018252600392909202929092018054600f81810b8452600160801b909104900b6020830152600181015492820183905260020154606082015291506129db90856136e3565b81602001516129ea9190613540565b815182906129f99083906135d5565b600f90810b90915282516000910b12159050612a1457600081525b51600f0b9150610a1f9050565b606060405180610120016040528060fd8152602001613a6960fd9139905080612a4986612d39565b604051602001612a5a929190613722565b604051602081830303815290604052905080612a7585612d39565b604051602001612a8692919061379e565b604051602081830303815290604052905080612aa184612d39565b604051602001612ab292919061381e565b604051602081830303815290604052905080612acd83612d39565b604051602001612ade92919061389f565b60405160208183030381529060405290506000612b2b612afd87612d39565b612b0684612e37565b604051602001612b179291906138fa565b604051602081830303815290604052612e37565b905080604051602001612b3e9190613a0f565b604051602081830303815290604052915050949350505050565b6000818152600d60205260409020546001600160a01b03838116911614612b8157612b8161338b565b6000818152600e60205260409020546001600160a01b031615612bbb576000818152600e6020526040902080546001600160a01b03191690555b5050565b6000818152600d60205260409020546001600160a01b03838116911614612be857612be861338b565b6000818152600d6020526040902080546001600160a01b0319169055612c0e8282612f9d565b6001600160a01b0382166000908152600f60205260408120805460019290612c379084906133d9565b90915550505050565b6000818152600d60205260409020546001600160a01b031615612c6557612c6561338b565b6000818152600d6020908152604080832080546001600160a01b0319166001600160a01b038716908117909155808452600f80845282852080546010865284872081885286528487208890558787526011865293862093909355908452909152805460019290612c3790849061340d565b60006001600160a01b038316612cee57612cee61338b565b612cf88383612c40565b60405182906001600160a01b038516906000907fddf252ad1be2c89b69c2b068fc378daa952ba7f163c4a11628f55a4df523b3ef908290a450600192915050565b606081612d5d5750506040805180820190915260018152600360fc1b602082015290565b8160005b8115612d875780612d7181613674565b9150612d809050600a8361345a565b9150612d61565b60008167ffffffffffffffff811115612da257612da261321b565b6040519080825280601f01601f191660200182016040528015612dcc576020820181803683370190505b5090505b8415610e5257612de16001836133d9565b9150612dee600a86613a54565b612df990603061340d565b60f81b818381518110612e0e57612e0e613375565b60200101906001600160f81b031916908160001a905350612e30600a8661345a565b9450612dd0565b805160609080612e57575050604080516020810190915260008152919050565b60006003612e6683600261340d565b612e70919061345a565b612e7b906004613425565b90506000612e8a82602061340d565b67ffffffffffffffff811115612ea257612ea261321b565b6040519080825280601f01601f191660200182016040528015612ecc576020820181803683370190505b5090506000604051806060016040528060408152602001613b66604091399050600181016020830160005b86811015612f58576003818a01810151603f601282901c8116860151600c83901c8216870151600684901c831688015192909316870151600891821b60ff94851601821b92841692909201901b91160160e01b835260049092019101612ef7565b506003860660018114612f725760028114612f8357612f8f565b613d3d60f01b600119830152612f8f565b603d60f81b6000198301525b505050918152949350505050565b6001600160a01b0382166000908152600f6020526040812054612fc2906001906133d9565b60008381526011602052604090205490915080821415613012576001600160a01b0384166000908152601060209081526040808320858452825280832083905585835260119091528120556114d9565b6001600160a01b039390931660009081526010602090815260408083209383529281528282208054868452848420819055835260119091528282209490945592839055908252812055565b6001600160e01b03198116811461307357600080fd5b50565b60006020828403121561308857600080fd5b8135610d178161305d565b60005b838110156130ae578181015183820152602001613096565b838111156114d95750506000910152565b600081518084526130d7816020860160208601613093565b601f01601f19169290920160200192915050565b602081526000610d1760208301846130bf565b60006020828403121561311057600080fd5b5035919050565b80356001600160a01b038116811461312e57600080fd5b919050565b6000806040838503121561314657600080fd5b61314f83613117565b946020939093013593505050565b6000806040838503121561317057600080fd5b50508035926020909101359150565b60008060006060848603121561319457600080fd5b61319d84613117565b92506131ab60208501613117565b9150604084013590509250925092565b6000602082840312156131cd57600080fd5b610d1782613117565b801515811461307357600080fd5b600080604083850312156131f757600080fd5b61320083613117565b91506020830135613210816131d6565b809150509250929050565b634e487b7160e01b600052604160045260246000fd5b6000806000806080858703121561324757600080fd5b61325085613117565b935061325e60208601613117565b925060408501359150606085013567ffffffffffffffff8082111561328257600080fd5b818701915087601f83011261329657600080fd5b8135818111156132a8576132a861321b565b604051601f8201601f19908116603f011681019083821181831017156132d0576132d061321b565b816040528281528a60208487010111156132e957600080fd5b82602086016020830137600060208483010152809550505050505092959194509250565b60008060006060848603121561332257600080fd5b833592506020840135915061333960408501613117565b90509250925092565b6000806040838503121561335557600080fd5b61335e83613117565b915061336c60208401613117565b90509250929050565b634e487b7160e01b600052603260045260246000fd5b634e487b7160e01b600052600160045260246000fd5b602080825260089082015267185d1d1858da195960c21b604082015260600190565b634e487b7160e01b600052601160045260246000fd5b6000828210156133eb576133eb6133c3565b500390565b60006020828403121561340257600080fd5b8151610d17816131d6565b60008219821115613420576134206133c3565b500190565b600081600019048311821515161561343f5761343f6133c3565b500290565b634e487b7160e01b600052601260045260246000fd5b60008261346957613469613444565b500490565b60208082526024908201527f43616e6e6f742061646420746f2065787069726564206c6f636b2e20576974686040820152636472617760e01b606082015260800190565b6001600160a01b0385811682528416602082015260408101839052608060608201819052600090610ffe908301846130bf565b6000602082840312156134f757600080fd5b8151610d178161305d565b600081600f0b83600f0b8061351957613519613444565b60016001607f1b0319821460001982141615613537576135376133c3565b90059392505050565b600081600f0b83600f0b60016001607f1b03600082136000841383830485118282161615613570576135706133c3565b60016001607f1b03196000851282811687830587121615613593576135936133c3565b600087129250858205871284841616156135af576135af6133c3565b858505871281841616156135c5576135c56133c3565b5050509290910295945050505050565b600081600f0b83600f0b600081128160016001607f1b031901831281151615613600576136006133c3565b8160016001607f1b0301831381161561361b5761361b6133c3565b5090039392505050565b600081600f0b83600f0b600082128260016001607f1b030382138115161561364f5761364f6133c3565b8260016001607f1b031903821281161561366b5761366b6133c3565b50019392505050565b6000600019821415613688576136886133c3565b5060010190565b634e487b7160e01b600052602160045260246000fd5b8481526020810184905260808101600584106136d157634e487b7160e01b600052602160045260246000fd5b60408201939093526060015292915050565b60008083128015600160ff1b850184121615613701576137016133c3565b6001600160ff1b038401831381161561371c5761371c6133c3565b50500390565b60008351613734818460208801613093565b6503a37b5b2b7160d51b9083019081528351613757816006840160208801613093565b7f3c2f746578743e3c7465787420783d2231302220793d2234302220636c61737360069290910191820152671e913130b9b2911f60c11b6026820152602e01949350505050565b600083516137b0818460208801613093565b6903130b630b731b2a7b3160b51b90830190815283516137d781600a840160208801613093565b7f3c2f746578743e3c7465787420783d2231302220793d2236302220636c617373600a9290910191820152671e913130b9b2911f60c11b602a820152603201949350505050565b60008351613830818460208801613093565b6a03637b1b5b2b22fb2b732160ad1b908301908152835161385881600b840160208801613093565b7f3c2f746578743e3c7465787420783d2231302220793d2238302220636c617373600b9290910191820152671e913130b9b2911f60c11b602b820152603301949350505050565b600083516138b1818460208801613093565b6503b30b63ab2960d51b90830190815283516138d4816006840160208801613093565b6c1e17ba32bc3a1f1e17b9bb339f60991b60069290910191820152601301949350505050565b6f7b226e616d65223a20226c6f636b202360801b81528251600090613926816010850160208801613093565b7f222c20226465736372697074696f6e223a2022536f6c69646c79206c6f636b736010918401918201527f2c2063616e206265207573656420746f20626f6f73742067617567652079696560308201527f6c64732c20766f7465206f6e20746f6b656e20656d697373696f6e2c20616e6460508201527f207265636569766520627269626573222c2022696d616765223a2022646174616070820152750e9a5b5859d94bdcdd99cade1b5b0ed8985cd94d8d0b60521b609082015283516139f48160a6840160208801613093565b61227d60f01b60a6929091019182015260a801949350505050565b7f646174613a6170706c69636174696f6e2f6a736f6e3b6261736536342c000000815260008251613a4781601d850160208701613093565b91909101601d0192915050565b600082613a6357613a63613444565b50069056fe3c73766720786d6c6e733d22687474703a2f2f7777772e77332e6f72672f323030302f73766722207072657365727665417370656374526174696f3d22784d696e594d696e206d656574222076696577426f783d223020302033353020333530223e3c7374796c653e2e62617365207b2066696c6c3a2077686974653b20666f6e742d66616d696c793a2073657269663b20666f6e742d73697a653a20313470783b207d3c2f7374796c653e3c726563742077696474683d223130302522206865696768743d2231303025222066696c6c3d22626c61636b22202f3e3c7465787420783d2231302220793d2232302220636c6173733d2262617365223e4142434445464748494a4b4c4d4e4f505152535455565758595a6162636465666768696a6b6c6d6e6f707172737475767778797a303132333435363738392b2fa264697066735822122075376ddd6ede8682208f765ab48433e8db5072b0c67158b9e1d4a4e15fc980e964736f6c634300080b0033ddf252ad1be2c89b69c2b068fc378daa952ba7f163c4a11628f55a4df523b3ef",
  "linkReferences": {},
  "deployedLinkReferences": {}
}