{
  "_format": "hh-sol-artifact-1",
  "contractName": "ve",
  "sourceName": "contracts/ve.sol",
  "abi": [
    {
      "inputs": [
        {
          "internalType": "address",
          "name": "token_addr",
          "type": "address"
        },
        {
          "internalType": "address",
          "name": "_formula",
          "type": "address"
        }
      ],
      "stateMutability": "nonpayable",
      "type": "constructor"
    },
    {
      "anonymous": false,
      "inputs": [
        {
          "indexed": true,
          "internalType": "address",
          "name": "owner",
          "type": "address"
        },
        {
          "indexed": true,
          "internalType": "address",
          "name": "approved",
          "type": "address"
        },
        {
          "indexed": true,
          "internalType": "uint256",
          "name": "tokenId",
          "type": "uint256"
        }
      ],
      "name": "Approval",
      "type": "event"
    },
    {
      "anonymous": false,
      "inputs": [
        {
          "indexed": true,
          "internalType": "address",
          "name": "owner",
          "type": "address"
        },
        {
          "indexed": true,
          "internalType": "address",
          "name": "operator",
          "type": "address"
        },
        {
          "indexed": false,
          "internalType": "bool",
          "name": "approved",
          "type": "bool"
        }
      ],
      "name": "ApprovalForAll",
      "type": "event"
    },
    {
      "anonymous": false,
      "inputs": [
        {
          "indexed": true,
          "internalType": "address",
          "name": "provider",
          "type": "address"
        },
        {
          "indexed": false,
          "internalType": "uint256",
          "name": "tokenId",
          "type": "uint256"
        },
        {
          "indexed": false,
          "internalType": "uint256",
          "name": "value",
          "type": "uint256"
        },
        {
          "indexed": true,
          "internalType": "uint256",
          "name": "locktime",
          "type": "uint256"
        },
        {
          "indexed": false,
          "internalType": "enum ve.DepositType",
          "name": "deposit_type",
          "type": "uint8"
        },
        {
          "indexed": false,
          "internalType": "uint256",
          "name": "ts",
          "type": "uint256"
        }
      ],
      "name": "Deposit",
      "type": "event"
    },
    {
      "anonymous": false,
      "inputs": [
        {
          "indexed": false,
          "internalType": "uint256",
          "name": "prevSupply",
          "type": "uint256"
        },
        {
          "indexed": false,
          "internalType": "uint256",
          "name": "supply",
          "type": "uint256"
        }
      ],
      "name": "Supply",
      "type": "event"
    },
    {
      "anonymous": false,
      "inputs": [
        {
          "indexed": true,
          "internalType": "address",
          "name": "from",
          "type": "address"
        },
        {
          "indexed": true,
          "internalType": "address",
          "name": "to",
          "type": "address"
        },
        {
          "indexed": true,
          "internalType": "uint256",
          "name": "tokenId",
          "type": "uint256"
        }
      ],
      "name": "Transfer",
      "type": "event"
    },
    {
      "anonymous": false,
      "inputs": [
        {
          "indexed": true,
          "internalType": "address",
          "name": "provider",
          "type": "address"
        },
        {
          "indexed": false,
          "internalType": "uint256",
          "name": "tokenId",
          "type": "uint256"
        },
        {
          "indexed": false,
          "internalType": "uint256",
          "name": "value",
          "type": "uint256"
        },
        {
          "indexed": false,
          "internalType": "uint256",
          "name": "ts",
          "type": "uint256"
        }
      ],
      "name": "Withdraw",
      "type": "event"
    },
    {
      "inputs": [
        {
          "internalType": "uint256",
          "name": "_tokenId",
          "type": "uint256"
        }
      ],
      "name": "abstain",
      "outputs": [],
      "stateMutability": "nonpayable",
      "type": "function"
    },
    {
      "inputs": [
        {
          "internalType": "address",
          "name": "_approved",
          "type": "address"
        },
        {
          "internalType": "uint256",
          "name": "_tokenId",
          "type": "uint256"
        }
      ],
      "name": "approve",
      "outputs": [],
      "stateMutability": "nonpayable",
      "type": "function"
    },
    {
      "inputs": [
        {
          "internalType": "uint256",
          "name": "_tokenId",
          "type": "uint256"
        }
      ],
      "name": "attach",
      "outputs": [],
      "stateMutability": "nonpayable",
      "type": "function"
    },
    {
      "inputs": [
        {
          "internalType": "uint256",
          "name": "",
          "type": "uint256"
        }
      ],
      "name": "attachments",
      "outputs": [
        {
          "internalType": "uint256",
          "name": "",
          "type": "uint256"
        }
      ],
      "stateMutability": "view",
      "type": "function"
    },
    {
      "inputs": [
        {
          "internalType": "address",
          "name": "_owner",
          "type": "address"
        }
      ],
      "name": "balanceOf",
      "outputs": [
        {
          "internalType": "uint256",
          "name": "",
          "type": "uint256"
        }
      ],
      "stateMutability": "view",
      "type": "function"
    },
    {
      "inputs": [
        {
          "internalType": "uint256",
          "name": "_tokenId",
          "type": "uint256"
        },
        {
          "internalType": "uint256",
          "name": "_block",
          "type": "uint256"
        }
      ],
      "name": "balanceOfAtNFT",
      "outputs": [
        {
          "internalType": "uint256",
          "name": "",
          "type": "uint256"
        }
      ],
      "stateMutability": "view",
      "type": "function"
    },
    {
      "inputs": [
        {
          "internalType": "uint256",
          "name": "_tokenId",
          "type": "uint256"
        }
      ],
      "name": "balanceOfNFT",
      "outputs": [
        {
          "internalType": "uint256",
          "name": "",
          "type": "uint256"
        }
      ],
      "stateMutability": "view",
      "type": "function"
    },
    {
      "inputs": [
        {
          "internalType": "uint256",
          "name": "_tokenId",
          "type": "uint256"
        },
        {
          "internalType": "uint256",
          "name": "_t",
          "type": "uint256"
        }
      ],
      "name": "balanceOfNFTAt",
      "outputs": [
        {
          "internalType": "uint256",
          "name": "",
          "type": "uint256"
        }
      ],
      "stateMutability": "view",
      "type": "function"
    },
    {
      "inputs": [],
      "name": "block_number",
      "outputs": [
        {
          "internalType": "uint256",
          "name": "",
          "type": "uint256"
        }
      ],
      "stateMutability": "view",
      "type": "function"
    },
    {
      "inputs": [],
      "name": "checkpoint",
      "outputs": [],
      "stateMutability": "nonpayable",
      "type": "function"
    },
    {
      "inputs": [],
      "name": "constructTime",
      "outputs": [
        {
          "internalType": "uint256",
          "name": "",
          "type": "uint256"
        }
      ],
      "stateMutability": "view",
      "type": "function"
    },
    {
      "inputs": [
        {
          "internalType": "uint256",
          "name": "_value",
          "type": "uint256"
        },
        {
          "internalType": "uint256",
          "name": "_lock_duration",
          "type": "uint256"
        }
      ],
      "name": "create_lock",
      "outputs": [
        {
          "internalType": "uint256",
          "name": "",
          "type": "uint256"
        }
      ],
      "stateMutability": "nonpayable",
      "type": "function"
    },
    {
      "inputs": [
        {
          "internalType": "uint256",
          "name": "_value",
          "type": "uint256"
        },
        {
          "internalType": "uint256",
          "name": "_lock_duration",
          "type": "uint256"
        },
        {
          "internalType": "address",
          "name": "_to",
          "type": "address"
        }
      ],
      "name": "create_lock_for",
      "outputs": [
        {
          "internalType": "uint256",
          "name": "",
          "type": "uint256"
        }
      ],
      "stateMutability": "nonpayable",
      "type": "function"
    },
    {
      "inputs": [],
      "name": "decimals",
      "outputs": [
        {
          "internalType": "uint8",
          "name": "",
          "type": "uint8"
        }
      ],
      "stateMutability": "view",
      "type": "function"
    },
    {
      "inputs": [
        {
          "internalType": "uint256",
          "name": "_tokenId",
          "type": "uint256"
        },
        {
          "internalType": "uint256",
          "name": "_value",
          "type": "uint256"
        }
      ],
      "name": "deposit_for",
      "outputs": [],
      "stateMutability": "nonpayable",
      "type": "function"
    },
    {
      "inputs": [
        {
          "internalType": "uint256",
          "name": "_tokenId",
          "type": "uint256"
        }
      ],
      "name": "detach",
      "outputs": [],
      "stateMutability": "nonpayable",
      "type": "function"
    },
    {
      "inputs": [],
      "name": "epoch",
      "outputs": [
        {
          "internalType": "uint256",
          "name": "",
          "type": "uint256"
        }
      ],
      "stateMutability": "view",
      "type": "function"
    },
    {
      "inputs": [],
      "name": "formula",
      "outputs": [
        {
          "internalType": "address",
          "name": "",
          "type": "address"
        }
      ],
      "stateMutability": "view",
      "type": "function"
    },
    {
      "inputs": [
        {
          "internalType": "uint256",
          "name": "_tokenId",
          "type": "uint256"
        }
      ],
      "name": "getApproved",
      "outputs": [
        {
          "internalType": "address",
          "name": "",
          "type": "address"
        }
      ],
      "stateMutability": "view",
      "type": "function"
    },
    {
      "inputs": [
        {
          "internalType": "uint256",
          "name": "_tokenId",
          "type": "uint256"
        }
      ],
      "name": "get_last_user_slope",
      "outputs": [
        {
          "internalType": "int128",
          "name": "",
          "type": "int128"
        }
      ],
      "stateMutability": "view",
      "type": "function"
    },
    {
      "inputs": [
        {
          "internalType": "uint256",
          "name": "_tokenId",
          "type": "uint256"
        },
        {
          "internalType": "uint256",
          "name": "_value",
          "type": "uint256"
        }
      ],
      "name": "increase_amount",
      "outputs": [],
      "stateMutability": "nonpayable",
      "type": "function"
    },
    {
      "inputs": [
        {
          "internalType": "uint256",
          "name": "_tokenId",
          "type": "uint256"
        },
        {
          "internalType": "uint256",
          "name": "_lock_duration",
          "type": "uint256"
        }
      ],
      "name": "increase_unlock_time",
      "outputs": [],
      "stateMutability": "nonpayable",
      "type": "function"
    },
    {
      "inputs": [
        {
          "internalType": "address",
          "name": "_owner",
          "type": "address"
        },
        {
          "internalType": "address",
          "name": "_operator",
          "type": "address"
        }
      ],
      "name": "isApprovedForAll",
      "outputs": [
        {
          "internalType": "bool",
          "name": "",
          "type": "bool"
        }
      ],
      "stateMutability": "view",
      "type": "function"
    },
    {
      "inputs": [
        {
          "internalType": "address",
          "name": "_spender",
          "type": "address"
        },
        {
          "internalType": "uint256",
          "name": "_tokenId",
          "type": "uint256"
        }
      ],
      "name": "isApprovedOrOwner",
      "outputs": [
        {
          "internalType": "bool",
          "name": "",
          "type": "bool"
        }
      ],
      "stateMutability": "view",
      "type": "function"
    },
    {
      "inputs": [
        {
          "internalType": "uint256",
          "name": "",
          "type": "uint256"
        }
      ],
      "name": "locked",
      "outputs": [
        {
          "internalType": "int128",
          "name": "amount",
          "type": "int128"
        },
        {
          "internalType": "uint256",
          "name": "end",
          "type": "uint256"
        },
        {
          "internalType": "uint256",
          "name": "lockedtime",
          "type": "uint256"
        }
      ],
      "stateMutability": "view",
      "type": "function"
    },
    {
      "inputs": [
        {
          "internalType": "uint256",
          "name": "_tokenId",
          "type": "uint256"
        }
      ],
      "name": "locked__end",
      "outputs": [
        {
          "internalType": "uint256",
          "name": "",
          "type": "uint256"
        }
      ],
      "stateMutability": "view",
      "type": "function"
    },
    {
      "inputs": [],
      "name": "maxX",
      "outputs": [
        {
          "internalType": "uint256",
          "name": "",
          "type": "uint256"
        }
      ],
      "stateMutability": "view",
      "type": "function"
    },
    {
      "inputs": [],
      "name": "maxY",
      "outputs": [
        {
          "internalType": "uint256",
          "name": "",
          "type": "uint256"
        }
      ],
      "stateMutability": "view",
      "type": "function"
    },
    {
      "inputs": [
        {
          "internalType": "uint256",
          "name": "_from",
          "type": "uint256"
        },
        {
          "internalType": "uint256",
          "name": "_to",
          "type": "uint256"
        }
      ],
      "name": "merge",
      "outputs": [],
      "stateMutability": "nonpayable",
      "type": "function"
    },
    {
      "inputs": [],
      "name": "name",
      "outputs": [
        {
          "internalType": "string",
          "name": "",
          "type": "string"
        }
      ],
      "stateMutability": "view",
      "type": "function"
    },
    {
      "inputs": [
        {
          "internalType": "uint256",
          "name": "_tokenId",
          "type": "uint256"
        }
      ],
      "name": "ownerOf",
      "outputs": [
        {
          "internalType": "address",
          "name": "",
          "type": "address"
        }
      ],
      "stateMutability": "view",
      "type": "function"
    },
    {
      "inputs": [
        {
          "internalType": "uint256",
          "name": "",
          "type": "uint256"
        }
      ],
      "name": "ownership_change",
      "outputs": [
        {
          "internalType": "uint256",
          "name": "",
          "type": "uint256"
        }
      ],
      "stateMutability": "view",
      "type": "function"
    },
    {
      "inputs": [
        {
          "internalType": "uint256",
          "name": "",
          "type": "uint256"
        }
      ],
      "name": "point_history",
      "outputs": [
        {
          "internalType": "int128",
          "name": "bias",
          "type": "int128"
        },
        {
          "internalType": "int128",
          "name": "slope",
          "type": "int128"
        },
        {
          "internalType": "uint256",
          "name": "ts",
          "type": "uint256"
        },
        {
          "internalType": "uint256",
          "name": "blk",
          "type": "uint256"
        }
      ],
      "stateMutability": "view",
      "type": "function"
    },
    {
      "inputs": [
        {
          "internalType": "address",
          "name": "_from",
          "type": "address"
        },
        {
          "internalType": "address",
          "name": "_to",
          "type": "address"
        },
        {
          "internalType": "uint256",
          "name": "_tokenId",
          "type": "uint256"
        }
      ],
      "name": "safeTransferFrom",
      "outputs": [],
      "stateMutability": "nonpayable",
      "type": "function"
    },
    {
      "inputs": [
        {
          "internalType": "address",
          "name": "_from",
          "type": "address"
        },
        {
          "internalType": "address",
          "name": "_to",
          "type": "address"
        },
        {
          "internalType": "uint256",
          "name": "_tokenId",
          "type": "uint256"
        },
        {
          "internalType": "bytes",
          "name": "_data",
          "type": "bytes"
        }
      ],
      "name": "safeTransferFrom",
      "outputs": [],
      "stateMutability": "nonpayable",
      "type": "function"
    },
    {
      "inputs": [
        {
          "internalType": "address",
          "name": "_operator",
          "type": "address"
        },
        {
          "internalType": "bool",
          "name": "_approved",
          "type": "bool"
        }
      ],
      "name": "setApprovalForAll",
      "outputs": [],
      "stateMutability": "nonpayable",
      "type": "function"
    },
    {
      "inputs": [
        {
          "internalType": "uint256",
          "name": "_x",
          "type": "uint256"
        }
      ],
      "name": "setMaxX",
      "outputs": [],
      "stateMutability": "nonpayable",
      "type": "function"
    },
    {
      "inputs": [
        {
          "internalType": "uint256",
          "name": "_y",
          "type": "uint256"
        }
      ],
      "name": "setMaxY",
      "outputs": [],
      "stateMutability": "nonpayable",
      "type": "function"
    },
    {
      "inputs": [
        {
          "internalType": "address",
          "name": "_voter",
          "type": "address"
        }
      ],
      "name": "setVoter",
      "outputs": [],
      "stateMutability": "nonpayable",
      "type": "function"
    },
    {
      "inputs": [
        {
          "internalType": "uint256",
          "name": "",
          "type": "uint256"
        }
      ],
      "name": "slope_changes",
      "outputs": [
        {
          "internalType": "int128",
          "name": "",
          "type": "int128"
        }
      ],
      "stateMutability": "view",
      "type": "function"
    },
    {
      "inputs": [],
      "name": "supply",
      "outputs": [
        {
          "internalType": "uint256",
          "name": "",
          "type": "uint256"
        }
      ],
      "stateMutability": "view",
      "type": "function"
    },
    {
      "inputs": [
        {
          "internalType": "bytes4",
          "name": "_interfaceID",
          "type": "bytes4"
        }
      ],
      "name": "supportsInterface",
      "outputs": [
        {
          "internalType": "bool",
          "name": "",
          "type": "bool"
        }
      ],
      "stateMutability": "view",
      "type": "function"
    },
    {
      "inputs": [],
      "name": "symbol",
      "outputs": [
        {
          "internalType": "string",
          "name": "",
          "type": "string"
        }
      ],
      "stateMutability": "view",
      "type": "function"
    },
    {
      "inputs": [],
      "name": "token",
      "outputs": [
        {
          "internalType": "address",
          "name": "",
          "type": "address"
        }
      ],
      "stateMutability": "view",
      "type": "function"
    },
    {
      "inputs": [
        {
          "internalType": "address",
          "name": "_owner",
          "type": "address"
        },
        {
          "internalType": "uint256",
          "name": "_tokenIndex",
          "type": "uint256"
        }
      ],
      "name": "tokenOfOwnerByIndex",
      "outputs": [
        {
          "internalType": "uint256",
          "name": "",
          "type": "uint256"
        }
      ],
      "stateMutability": "view",
      "type": "function"
    },
    {
      "inputs": [
        {
          "internalType": "uint256",
          "name": "_tokenId",
          "type": "uint256"
        }
      ],
      "name": "tokenURI",
      "outputs": [
        {
          "internalType": "string",
          "name": "",
          "type": "string"
        }
      ],
      "stateMutability": "view",
      "type": "function"
    },
    {
      "inputs": [],
      "name": "totalSupply",
      "outputs": [
        {
          "internalType": "uint256",
          "name": "",
          "type": "uint256"
        }
      ],
      "stateMutability": "view",
      "type": "function"
    },
    {
      "inputs": [
        {
          "internalType": "uint256",
          "name": "_block",
          "type": "uint256"
        }
      ],
      "name": "totalSupplyAt",
      "outputs": [
        {
          "internalType": "uint256",
          "name": "",
          "type": "uint256"
        }
      ],
      "stateMutability": "view",
      "type": "function"
    },
    {
      "inputs": [
        {
          "internalType": "uint256",
          "name": "t",
          "type": "uint256"
        }
      ],
      "name": "totalSupplyAtT",
      "outputs": [
        {
          "internalType": "uint256",
          "name": "",
          "type": "uint256"
        }
      ],
      "stateMutability": "view",
      "type": "function"
    },
    {
      "inputs": [
        {
          "internalType": "address",
          "name": "_from",
          "type": "address"
        },
        {
          "internalType": "address",
          "name": "_to",
          "type": "address"
        },
        {
          "internalType": "uint256",
          "name": "_tokenId",
          "type": "uint256"
        }
      ],
      "name": "transferFrom",
      "outputs": [],
      "stateMutability": "nonpayable",
      "type": "function"
    },
    {
      "inputs": [
        {
          "internalType": "address",
          "name": "_formula",
          "type": "address"
        }
      ],
      "name": "updateFormula",
      "outputs": [],
      "stateMutability": "nonpayable",
      "type": "function"
    },
    {
      "inputs": [
        {
          "internalType": "uint256",
          "name": "",
          "type": "uint256"
        }
      ],
      "name": "user_point_epoch",
      "outputs": [
        {
          "internalType": "uint256",
          "name": "",
          "type": "uint256"
        }
      ],
      "stateMutability": "view",
      "type": "function"
    },
    {
      "inputs": [
        {
          "internalType": "uint256",
          "name": "",
          "type": "uint256"
        },
        {
          "internalType": "uint256",
          "name": "",
          "type": "uint256"
        }
      ],
      "name": "user_point_history",
      "outputs": [
        {
          "internalType": "int128",
          "name": "bias",
          "type": "int128"
        },
        {
          "internalType": "int128",
          "name": "slope",
          "type": "int128"
        },
        {
          "internalType": "uint256",
          "name": "ts",
          "type": "uint256"
        },
        {
          "internalType": "uint256",
          "name": "blk",
          "type": "uint256"
        }
      ],
      "stateMutability": "view",
      "type": "function"
    },
    {
      "inputs": [
        {
          "internalType": "uint256",
          "name": "_tokenId",
          "type": "uint256"
        },
        {
          "internalType": "uint256",
          "name": "_idx",
          "type": "uint256"
        }
      ],
      "name": "user_point_history__ts",
      "outputs": [
        {
          "internalType": "uint256",
          "name": "",
          "type": "uint256"
        }
      ],
      "stateMutability": "view",
      "type": "function"
    },
    {
      "inputs": [],
      "name": "version",
      "outputs": [
        {
          "internalType": "string",
          "name": "",
          "type": "string"
        }
      ],
      "stateMutability": "view",
      "type": "function"
    },
    {
      "inputs": [
        {
          "internalType": "uint256",
          "name": "",
          "type": "uint256"
        }
      ],
      "name": "voted",
      "outputs": [
        {
          "internalType": "bool",
          "name": "",
          "type": "bool"
        }
      ],
      "stateMutability": "view",
      "type": "function"
    },
    {
      "inputs": [],
      "name": "voter",
      "outputs": [
        {
          "internalType": "address",
          "name": "",
          "type": "address"
        }
      ],
      "stateMutability": "view",
      "type": "function"
    },
    {
      "inputs": [
        {
          "internalType": "uint256",
          "name": "_tokenId",
          "type": "uint256"
        }
      ],
      "name": "voting",
      "outputs": [],
      "stateMutability": "nonpayable",
      "type": "function"
    },
    {
      "inputs": [
        {
          "internalType": "uint256",
          "name": "_tokenId",
          "type": "uint256"
        }
      ],
      "name": "withdraw",
      "outputs": [],
      "stateMutability": "nonpayable",
      "type": "function"
    }
  ],
  "bytecode": "0x60a060405262127500600255640861c468006003556018805460ff191660011790553480156200002e57600080fd5b506040516200442f3803806200442f8339810160408190526200005191620001c8565b6001600160a01b03828116608052600e8054336001600160a01b031991821617909155437f5eff886ea0ce6ca488a3d6e336d6c0f75f46d19b42c06ce5ee98e42c96d256c955427f5eff886ea0ce6ca488a3d6e336d6c0f75f46d19b42c06ce5ee98e42c96d256c881905560176020527f4152fdd4960944ad2843ab0640e4bafb0ddf2caf06de54df701cf7a17df044aa805460ff1990811660019081179092557f6779f08d87897b1938d8ae1ed3d650e2616775c110ff5d98b7f82c079d97c7788054821683179055635b5e139f60e01b60009081527f244a57cf9422b23a74eac7556da7a02b4681eb0e2f9c3613963f0b44ad4388608054909216831790915560048054909416948616949094179092559055600f54604051909130916000805160206200440f833981519152908290a4600f5460405160009030906000805160206200440f833981519152908390a4505062000200565b80516001600160a01b0381168114620001c357600080fd5b919050565b60008060408385031215620001dc57600080fd5b620001e783620001ab565b9150620001f760208401620001ab565b90509250929050565b6080516141bb620002546000396000818161099601528181610cbb01528181610e0a015281816115c001528181611fd20152818161267601528181612e2101528181612ec90152612f7001526141bb6000f3fe608060405234801561001057600080fd5b50600436106103995760003560e01c806371197484116101e9578063c87b56dd1161010f578063e441135c116100ad578063f8a057631161007c578063f8a057631461095b578063fbd3a29d1461097e578063fc0c546a14610991578063fd4a77f1146109b857600080fd5b8063e441135c146108d9578063e7e242d4146108f9578063e985e9c51461090c578063ee99fe281461094857600080fd5b8063d1febfb9116100e9578063d1febfb914610845578063d4e54c3b14610883578063d5b49a7114610896578063e0514aba146108c657600080fd5b8063c87b56dd1461080c578063cbfccbfe1461081f578063d1c2babb1461083257600080fd5b8063986b7d8a11610187578063b45a3c0e11610156578063b45a3c0e1461078a578063b88d4fde146107de578063c1f0fb9f146107f1578063c2c4c5c11461080457600080fd5b8063986b7d8a1461073e578063a183af5214610751578063a22cb46514610764578063a4d855df1461077757600080fd5b80638fbb38ff116101c35780638fbb38ff146106ff578063900cf0cf1461072257806395d89b41146103f7578063981b24d01461072b57600080fd5b806371197484146106c05780638b04f647146106e35780638c2c9baf146106ec57600080fd5b8063313ce567116102ce5780634bc2a6571161026c5780636f5488371161023b5780636f5488371461067157806370a082311461069157806370d20d3e146106a45780637116c60c146106ad57600080fd5b80634bc2a657146105fe57806354fd4d50146106115780636352211e1461063557806365fc38731461065e57600080fd5b8063430c2081116102a8578063430c20811461059f578063461f711c146105b257806346c96aac146105d85780634b75f54f146105eb57600080fd5b8063313ce5671461056957806340c1eeae1461058357806342842e0e1461058c57600080fd5b806318160ddd1161033b57806323b872dd1161031557806323b872dd1461050757806325a58b561461051a5780632e1a7d4d146105205780632f745c591461053357600080fd5b806318160ddd146104d95780631c984bc3146104e15780631dbd8e53146104f457600080fd5b8063081812fc11610377578063081812fc14610428578063095ea7b3146104695780630d6a20331461047e5780631376f3da1461049e57600080fd5b806301ffc9a71461039e578063047fc9aa146103e057806306fdde03146103f7575b600080fd5b6103cb6103ac36600461364e565b6001600160e01b03191660009081526017602052604090205460ff1690565b60405190151581526020015b60405180910390f35b6103e960005481565b6040519081526020016103d7565b61041b604051806040016040528060058152602001641d9953919560da1b81525081565b6040516103d791906136c3565b6104516104363660046136d6565b6000908152601260205260409020546001600160a01b031690565b6040516001600160a01b0390911681526020016103d7565b61047c61047736600461370b565b6109cb565b005b6103e961048c3660046136d6565b600c6020526000908152604090205481565b6104b16104ac366004613735565b610ab4565b60408051600f95860b81529390940b60208401529282015260608101919091526080016103d7565b6103e9610afb565b6103e96104ef366004613735565b610b0b565b61047c6105023660046136d6565b610b3e565b61047c610515366004613757565b610b8e565b436103e9565b61047c61052e3660046136d6565b610b9f565b6103e961054136600461370b565b6001600160a01b03919091166000908152601460209081526040808320938352929052205490565b610571601281565b60405160ff90911681526020016103d7565b6103e960015481565b61047c61059a366004613757565b610f2d565b6103cb6105ad36600461370b565b610f48565b6105c56105c03660046136d6565b610f5b565b604051600f9190910b81526020016103d7565b600e54610451906001600160a01b031681565b600454610451906001600160a01b031681565b61047c61060c366004613793565b610f9e565b61041b604051806040016040528060058152602001640312e302e360dc1b81525081565b6104516106433660046136d6565b6000908152601160205260409020546001600160a01b031690565b6103e961066c366004613735565b610fd7565b6103e961067f3660046136d6565b60066020526000908152604090205481565b6103e961069f366004613793565b611019565b6103e960025481565b6103e96106bb3660046136d6565b611037565b6105c56106ce3660046136d6565b600b60205260009081526040902054600f0b81565b6103e960035481565b6103e96106fa366004613735565b611097565b6103cb61070d3660046136d6565b600d6020526000908152604090205460ff1681565b6103e960075481565b6103e96107393660046136d6565b6110a3565b61047c61074c3660046136d6565b611245565b61047c61075f366004613735565b611289565b61047c6107723660046137bc565b611397565b61047c610785366004613735565b61141c565b6107be6107983660046136d6565b600560205260009081526040902080546001820154600290920154600f9190910b919083565b60408051600f9490940b84526020840192909252908201526060016103d7565b61047c6107ec366004613809565b6116aa565b61047c6107ff3660046136d6565b6117d7565b61047c61185b565b61041b61081a3660046136d6565b6118a9565b61047c61082d3660046136d6565b611965565b61047c610840366004613735565b6119b0565b6104b16108533660046136d6565b600860205260009081526040902080546001820154600290920154600f82810b93600160801b909304900b919084565b6103e96108913660046138e5565b611b48565b61047c6108a4366004613793565b600480546001600160a01b0319166001600160a01b0392909216919091179055565b6103e96108d4366004613735565b611b8b565b6103e96108e73660046136d6565b600a6020526000908152604090205481565b6103e96109073660046136d6565b611b97565b6103cb61091a36600461391a565b6001600160a01b03918216600090815260166020908152604080832093909416825291909152205460ff1690565b61047c610956366004613735565b611bbf565b6103e96109693660046136d6565b60009081526005602052604090206001015490565b61047c61098c3660046136d6565b611ca2565b6104517f000000000000000000000000000000000000000000000000000000000000000081565b61047c6109c63660046136d6565b611cd3565b6000818152601160205260409020546001600160a01b0316806109ed57600080fd5b806001600160a01b0316836001600160a01b03161415610a0c57600080fd5b6000828152601160209081526040808320546001600160a01b0385811685526016845282852033808752945291909320549216149060ff168180610a4d5750805b610a5657600080fd5b60008481526012602052604080822080546001600160a01b0319166001600160a01b0389811691821790925591518793918716917f8c5be1e5ebec7d5bd14f71427d1e84f3dd0314c0f7b2291e5b200ac8c7c3b92591a45050505050565b600960205281600052604060002081633b9aca008110610ad357600080fd5b6003020180546001820154600290920154600f82810b9550600160801b90920490910b925084565b6000610b0642611037565b905090565b600082815260096020526040812082633b9aca008110610b2d57610b2d61394d565b600302016001015490505b92915050565b600e546001600160a01b03163314610b895760405162461bcd60e51b81526020600482015260096024820152682737ba102b37ba32b960b91b60448201526064015b60405180910390fd5b600355565b610b9a83838333611d1f565b505050565b60185460ff16600114610bb157600080fd5b6018805460ff19166002179055610bc83382611de5565b610bd457610bd4613963565b6000818152600c6020526040902054158015610bff57506000818152600d602052604090205460ff16155b610c1b5760405162461bcd60e51b8152600401610b8090613979565b60008181526005602090815260409182902082516060810184528154600f0b8152600182015492810183905260029091015492810192909252421015610c9c5760405162461bcd60e51b8152602060048201526016602482015275546865206c6f636b206469646e27742065787069726560501b6044820152606401610b80565b6293a80081604001518260200151610cb491906139b1565b10610d84577f00000000000000000000000000000000000000000000000000000000000000006001600160a01b031663a9059cbb3360648460000151600f0b6019610cff91906139c8565b610d0991906139fd565b6040516001600160e01b031960e085901b1681526001600160a01b03909216600483015260248201526044016020604051808303816000875af1158015610d54573d6000803e3d6000fd5b505050506040513d601f19601f82011682018060405250810190610d789190613a11565b610d8457610d84613963565b805160408051606081018252600080825260208083018281528385018381528884526005909252938220925183546001600160801b0319166001600160801b0390911617835592516001830155915160029091015554600f9190910b90610deb82826139b1565b60005560405163a9059cbb60e01b8152336004820152602481018390527f00000000000000000000000000000000000000000000000000000000000000006001600160a01b03169063a9059cbb906044016020604051808303816000875af1158015610e5b573d6000803e3d6000fd5b505050506040513d601f19601f82011682018060405250810190610e7f9190613a11565b610e8b57610e8b613963565b610e9484611e4b565b60408051858152602081018490524281830152905133917f02f25270a4d87bea75db541cdfe559334a275b4a233520ed6c0a2429667cca94919081900360600190a27f5e2aa66efd74cce82b21852e317e5490d9ecc9e6bb953ae24d90851258cc2f5c81610f0284826139b1565b6040805192835260208301919091520160405180910390a150506018805460ff191660011790555050565b610b9a838383604051806020016040528060008152506116aa565b6000610f548383611de5565b9392505050565b6000818152600a60209081526040808320546009909252822081633b9aca008110610f8857610f8861394d565b6003020154600160801b9004600f0b9392505050565b600e546001600160a01b03163314610fb557600080fd5b600e80546001600160a01b0319166001600160a01b0392909216919091179055565b60185460009060ff16600114610fec57600080fd5b6018805460ff19166002179055611004838333611f0a565b90506018805460ff1916600117905592915050565b6001600160a01b038116600090815260136020526040812054610b38565b600754600081815260086020908152604080832081516080810183528154600f81810b8352600160801b909104900b9381019390935260018101549183019190915260020154606082015290919061108f818561210e565b949350505050565b6000610f548383612210565b6000438211156110b5576110b5613963565b60075460006110c484836124ed565b600081815260086020908152604080832081516080810183528154600f81810b8352600160801b909104900b93810193909352600181015491830191909152600201546060820152919250838310156111d3576000600881611127866001613a2e565b8152602080820192909252604090810160002081516080810183528154600f81810b8352600160801b909104900b93810193909352600181015491830191909152600201546060808301829052850151919250146111cd578260600151816060015161119391906139b1565b836040015182604001516111a791906139b1565b60608501516111b6908a6139b1565b6111c091906139c8565b6111ca91906139fd565b91505b50611222565b438260600151146112225760608201516111ed90436139b1565b60408301516111fc90426139b1565b606084015161120b90896139b1565b61121591906139c8565b61121f91906139fd565b90505b61123b828284604001516112369190613a2e565b61210e565b9695505050505050565b600e546001600160a01b0316331461125c57600080fd5b6000818152600c6020526040902054611277906001906139b1565b6000918252600c602052604090912055565b60185460ff1660011461129b57600080fd5b6018805460ff191660021790556112b23383611de5565b6112be576112be613963565b60008281526005602090815260409182902082516060810184528154600f0b815260018201549281019290925260020154918101919091528161130357611303613963565b60008160000151600f0b136113535760405162461bcd60e51b8152602060048201526016602482015275139bc8195e1a5cdd1a5b99c81b1bd8dac8199bdd5b9960521b6044820152606401610b80565b428160200151116113765760405162461bcd60e51b8152600401610b8090613a46565b61138583836000846002612577565b50506018805460ff1916600117905550565b6001600160a01b0382163314156113b0576113b0613963565b3360008181526016602090815260408083206001600160a01b03871680855290835292819020805460ff191686151590811790915590519081529192917f17307eab39ab6107e8899845ad3d59bd9653f200f220920489ca2b5937696c31910160405180910390a35050565b60185460ff1660011461142e57600080fd5b6018805460ff191660021790556114453383611de5565b61145157611451613963565b600082815260056020908152604080832081516060810183528154600f0b815260018201549381019390935260020154908201529062093a80806114958542613a2e565b61149f91906139fd565b6114a991906139c8565b9050428260200151116114ed5760405162461bcd60e51b815260206004820152600c60248201526b131bd8dac8195e1c1a5c995960a21b6044820152606401610b80565b60008260000151600f0b136115385760405162461bcd60e51b8152602060048201526011602482015270139bdd1a1a5b99c81a5cc81b1bd8dad959607a1b6044820152606401610b80565b8160200151811161158b5760405162461bcd60e51b815260206004820152601f60248201527f43616e206f6e6c7920696e637265617365206c6f636b206475726174696f6e006044820152606401610b80565b600480546000546001546002546003546040516304aca5a560e41b81526001600160a01b0390951695634aca5a50956115ee957f000000000000000000000000000000000000000000000000000000000000000095909490939092909101613a8a565b602060405180830381865afa15801561160b573d6000803e3d6000fd5b505050506040513d601f19601f8201168201806040525081019061162f9190613ab8565b6116399042613a2e565b8111156116885760405162461bcd60e51b815260206004820152601e60248201527f566f74696e67206c6f636b2063616e2062652034207965617273206d617800006044820152606401610b80565b61169784600083856003612577565b50506018805460ff191660011790555050565b6116b684848433611d1f565b823b156117d157604051630a85bd0160e11b81526001600160a01b0384169063150b7a02906116ef903390889087908790600401613ad1565b6020604051808303816000875af192505050801561172a575060408051601f3d908101601f1916820190925261172791810190613b04565b60015b6117cf573d808015611758576040519150601f19603f3d011682016040523d82523d6000602084013e61175d565b606091505b5080516117c75760405162461bcd60e51b815260206004820152603260248201527f4552433732313a207472616e7366657220746f206e6f6e20455243373231526560448201527131b2b4bb32b91034b6b83632b6b2b73a32b960711b6064820152608401610b80565b805181602001fd5b505b50505050565b600e546001600160a01b031633146117ee57600080fd5b60008181526010602052604090205442116118435760405162461bcd60e51b8152602060048201526015602482015274111958591b1a5b99481b9bdd08199a5b9a5cda1959605a1b6044820152606401610b80565b6000908152600d60205260409020805460ff19169055565b6118a7600060405180606001604052806000600f0b815260200160008152602001600081525060405180606001604052806000600f0b815260200160008152602001600081525061278a565b565b6000818152601160205260409020546060906001600160a01b03166119105760405162461bcd60e51b815260206004820152601b60248201527f517565727920666f72206e6f6e6578697374656e7420746f6b656e00000000006044820152606401610b80565b60008281526005602090815260409182902082516060810184528154600f0b81526001820154928101929092526002015491810191909152610f54836119568142612da7565b60208401518451600f0b612ff9565b600e546001600160a01b031633146119ab5760405162461bcd60e51b81526020600482015260096024820152682737ba102b37ba32b960b91b6044820152606401610b80565b600255565b6000828152600c60205260409020541580156119db57506000828152600d602052604090205460ff16155b6119f75760405162461bcd60e51b8152600401610b8090613979565b80821415611a0457600080fd5b611a0e3383611de5565b611a1757600080fd5b611a213382611de5565b611a2a57600080fd5b60008281526005602081815260408084208151606080820184528254600f90810b8352600180850154848801908152600295860154858801528a8a52978752858920865193840187528054830b8452908101549683018790529093015493810193909352805194519095929490910b921115611aaa578260200151611ab0565b83602001515b6040805160608082018352600080835260208084018281528486018381528d845260058352868420955186546001600160801b0319166001600160801b0390911617865590516001860155516002909401939093558351918201845280825291810182905291820152909150611b29908790869061278a565b611b3286611e4b565b611b40858383866004612577565b505050505050565b60185460009060ff16600114611b5d57600080fd5b6018805460ff19166002179055611b75848484611f0a565b90506018805460ff191660011790559392505050565b6000610f548383612da7565b600081815260066020526040812054431415611bb557506000919050565b610b388242612da7565b60185460ff16600114611bd157600080fd5b6018805460ff1916600290811790915560008381526005602090815260409182902082516060810184528154600f0b8152600182015492810192909252909201549082015281611c2057600080fd5b60008160000151600f0b13611c705760405162461bcd60e51b8152602060048201526016602482015275139bc8195e1a5cdd1a5b99c81b1bd8dac8199bdd5b9960521b6044820152606401610b80565b42816020015111611c935760405162461bcd60e51b8152600401610b8090613a46565b61138583836000846000612577565b600e546001600160a01b03163314611cb957600080fd5b6000818152600c6020526040902054611277906001613a2e565b600e546001600160a01b03163314611cea57600080fd5b611cf74262093a80613a2e565b600091825260106020908152604080842092909255600d90529020805460ff19166001179055565b6000828152600c6020526040902054158015611d4a57506000828152600d602052604090205460ff16155b611d665760405162461bcd60e51b8152600401610b8090613979565b611d708183611de5565b611d7957600080fd5b611d838483613130565b611d8d8483613197565b611d978383613218565b6000828152600660205260408082204390555183916001600160a01b0380871692908816917fddf252ad1be2c89b69c2b068fc378daa952ba7f163c4a11628f55a4df523b3ef91a450505050565b60008181526011602090815260408083205460128352818420546001600160a01b039182168086526016855283862088841680885295529285205492938085149392909116149060ff168280611e385750815b80611e405750805b979650505050505050565b611e553382611de5565b611ea15760405162461bcd60e51b815260206004820181905260248201527f63616c6c6572206973206e6f74206f776e6572206e6f7220617070726f7665646044820152606401610b80565b6000818152601160205260408120546001600160a01b031690611ec490836109cb565b611ece3383613197565b60405182906000906001600160a01b038416907fddf252ad1be2c89b69c2b068fc378daa952ba7f163c4a11628f55a4df523b3ef908390a45050565b60008062093a8080611f1c8642613a2e565b611f2691906139fd565b611f3091906139c8565b905060008511611f3f57600080fd5b428111611f9d5760405162461bcd60e51b815260206004820152602660248201527f43616e206f6e6c79206c6f636b20756e74696c2074696d6520696e207468652060448201526566757475726560d01b6064820152608401610b80565b600480546000546001546002546003546040516304aca5a560e41b81526001600160a01b0390951695634aca5a5095612000957f000000000000000000000000000000000000000000000000000000000000000095909490939092909101613a8a565b602060405180830381865afa15801561201d573d6000803e3d6000fd5b505050506040513d601f19601f820116820180604052508101906120419190613ab8565b61204b9042613a2e565b81111561209a5760405162461bcd60e51b815260206004820152601f60248201527f566f74696e67206c6f636b2063616e206265203136207765656b73206d6178006044820152606401610b80565b600f600081546120a990613b21565b90915550600f546120ba84826132ae565b5060008181526005602090815260409182902082516060810184528154600f0b8152600180830154938201939093526002909101549281019290925261210591839189918691612577565b95945050505050565b600080839050600062093a8080836040015161212a91906139fd565b61213491906139c8565b905060005b60ff8110156121e85761214f62093a8083613a2e565b915060008583111561216357859250612177565b506000828152600b6020526040902054600f0b5b604084015161218690846139b1565b84602001516121959190613b3c565b845185906121a4908390613bd1565b600f0b905250828614156121b857506121e8565b80846020018181516121ca9190613c21565b600f0b90525050604083018290526121e181613b21565b9050612139565b5060008260000151600f0b12156121fe57600082525b50516001600160801b03169392505050565b60004382111561222257612222613963565b6000838152600a6020526040812054815b60808110156122c657818310612248576122c6565b600060026122568486613a2e565b612261906001613a2e565b61226b91906139fd565b6000888152600960205260409020909150869082633b9aca0081106122925761229261394d565b6003020160020154116122a7578093506122b5565b6122b26001826139b1565b92505b506122bf81613b21565b9050612233565b50600085815260096020526040812083633b9aca0081106122e9576122e961394d565b60408051608081018252600392909202929092018054600f81810b8452600160801b909104900b60208301526001810154928201929092526002909101546060820152600754909150600061233e87836124ed565b600081815260086020908152604080832081516080810183528154600f81810b8352600160801b909104900b93810193909352600181015491830191909152600201546060820152919250808484101561241d5760006008816123a2876001613a2e565b8152602080820192909252604090810160002081516080810183528154600f81810b8352600160801b909104900b938101939093526001810154918301919091526002015460608083018290528601519192506123ff91906139b1565b92508360400151816040015161241591906139b1565b915050612441565b606083015161242c90436139b1565b915082604001514261243e91906139b1565b90505b6040830151821561247e578284606001518c61245d91906139b1565b61246790846139c8565b61247191906139fd565b61247b9082613a2e565b90505b604087015161248d90826139b1565b876020015161249c9190613b3c565b875188906124ab908390613bd1565b600f90810b90915288516000910b1290506124db57505093516001600160801b03169650610b3895505050505050565b60009950505050505050505050610b38565b60008082815b608081101561256d578183106125085761256d565b600060026125168486613a2e565b612521906001613a2e565b61252b91906139fd565b600081815260086020526040902060020154909150871061254e5780935061255c565b6125596001826139b1565b92505b5061256681613b21565b90506124f3565b5090949350505050565b60005482906125868682613a2e565b6000908155604080516060810182528281526020810183905290810191909152825160208085015190830152600f0b81528251879084906125c8908390613c21565b600f0b90525042604084015285156125e257602083018690525b600088815260056020908152604091829020855181546001600160801b0319166001600160801b03909116178155908501516001820155908401516002909101553387158015906126455750600485600481111561264257612642613c70565b14155b156126ef576040516323b872dd60e01b81526001600160a01b038281166004830152306024830152604482018a90527f000000000000000000000000000000000000000000000000000000000000000016906323b872dd906064016020604051808303816000875af11580156126bf573d6000803e3d6000fd5b505050506040513d601f19601f820116820180604052508101906126e39190613a11565b6126ef576126ef613963565b8360200151816001600160a01b03167fff04ccafc360e16b67d682d17bd9503c4c6b9a131f6be6325762dc9ffc7de6248b8b89426040516127339493929190613c86565b60405180910390a37f5e2aa66efd74cce82b21852e317e5490d9ecc9e6bb953ae24d90851258cc2f5c836127678a82613a2e565b6040805192835260208301919091520160405180910390a1505050505050505050565b604080516080810182526000808252602082018190529181018290526060810191909152604080516080810182526000808252602082018190529181018290526060810191909152600754600090819087156128f4574287602001511180156127fa575060008760000151600f0b135b1561283e57865161280f906293a80090613cc4565b600f0b6020808701919091528701516128299042906139b1565b85602001516128389190613b3c565b600f0b85525b428660200151118015612858575060008660000151600f0b135b1561289c57855161286d906293a80090613cc4565b600f0b6020808601919091528601516128879042906139b1565b84602001516128969190613b3c565b600f0b84525b6020808801516000908152600b8252604090205490870151600f9190910b9350156128f4578660200151866020015114156128d9578291506128f4565b6020808701516000908152600b9091526040902054600f0b91505b604080516080810182526000808252602082015242918101919091524360608201528115612969575060008181526008602090815260409182902082516080810184528154600f81810b8352600160801b909104900b9281019290925260018101549282019290925260029091015460608201525b6040810151816000428310156129b657604084015161298890426139b1565b606085015161299790436139b1565b6129a990670de0b6b3a76400006139c8565b6129b391906139fd565b90505b600062093a806129c681866139fd565b6129d091906139c8565b905060005b60ff811015612b4b576129eb62093a8083613a2e565b91506000428311156129ff57429250612a13565b506000828152600b6020526040902054600f0b5b612a1d86846139b1565b8760200151612a2c9190613b3c565b87518890612a3b908390613bd1565b600f0b905250602087018051829190612a55908390613c21565b600f90810b90915288516000910b12159050612a7057600087525b60008760200151600f0b1215612a8857600060208801525b60408088018490528501519295508592670de0b6b3a764000090612aac90856139b1565b612ab690866139c8565b612ac091906139fd565b8560600151612acf9190613a2e565b6060880152612adf600189613a2e565b975042831415612af55750436060870152612b4b565b6000888152600860209081526040918290208951918a01516001600160801b03908116600160801b029216919091178155908801516001820155606088015160029091015550612b4481613b21565b90506129d5565b505060078590558b15612bd65788602001518860200151612b6c9190613bd1565b84602001818151612b7d9190613c21565b600f0b90525088518851612b919190613bd1565b84518590612ba0908390613c21565b600f90810b90915260208601516000910b12159050612bc157600060208501525b60008460000151600f0b1215612bd657600084525b6000858152600860209081526040918290208651918701516001600160801b03908116600160801b02921691909117815590850151600182015560608501516002909101558b15612d9957428b602001511115612c8e576020890151612c3c9088613c21565b96508a602001518a602001511415612c60576020880151612c5d9088613bd1565b96505b60208b8101516000908152600b9091526040902080546001600160801b0319166001600160801b0389161790555b428a602001511115612ce9578a602001518a602001511115612ce9576020880151612cb99087613bd1565b60208b8101516000908152600b9091526040902080546001600160801b0319166001600160801b03831617905595505b60008c8152600a6020526040812054612d03906001613a2e565b905080600a60008f815260200190815260200160002081905550428960400181815250504389606001818152505088600960008f815260200190815260200160002082633b9aca008110612d5957612d5961394d565b825160208401516001600160801b03908116600160801b029116176003919091029190910190815560408201516001820155606090910151600290910155505b505050505050505050505050565b600082815260056020908152604080832081516060810183528154600f0b8152600182015493810193909352600201549082018190528290612de990856139b1565b600480546000546001546002546003546040516304aca5a560e41b81529697506001600160a01b0390941695634aca5a5095612e4c957f000000000000000000000000000000000000000000000000000000000000000095949392909101613a8a565b602060405180830381865afa158015612e69573d6000803e3d6000fd5b505050506040513d601f19601f82011682018060405250810190612e8d9190613ab8565b811115612f3b57600480546000546001546002546003546040516304aca5a560e41b81526001600160a01b0390951695634aca5a5095612ef7957f000000000000000000000000000000000000000000000000000000000000000095909490939092909101613a8a565b602060405180830381865afa158015612f14573d6000803e3d6000fd5b505050506040513d601f19601f82011682018060405250810190612f389190613ab8565b90505b600480546000546001546002546003546040516304aca5a560e41b81526001600160a01b0390951695634aca5a5095612f9e957f000000000000000000000000000000000000000000000000000000000000000095909490939092909101613a8a565b602060405180830381865afa158015612fbb573d6000803e3d6000fd5b505050506040513d601f19601f82011682018060405250810190612fdf9190613ab8565b8251612fef908390600f0b6139c8565b61210591906139fd565b606060405180610120016040528060fd815260200161404960fd913990508061302186613311565b604051602001613032929190613d02565b60405160208183030381529060405290508061304d85613311565b60405160200161305e929190613d7e565b60405160208183030381529060405290508061307984613311565b60405160200161308a929190613dfe565b6040516020818303038152906040529050806130a583613311565b6040516020016130b6929190613e7f565b604051602081830303815290604052905060006131036130d587613311565b6130de8461340f565b6040516020016130ef929190613eda565b60405160208183030381529060405261340f565b9050806040516020016131169190613fef565b604051602081830303815290604052915050949350505050565b6000818152601160205260409020546001600160a01b0383811691161461315957613159613963565b6000818152601260205260409020546001600160a01b03161561319357600081815260126020526040902080546001600160a01b03191690555b5050565b6000818152601160205260409020546001600160a01b038381169116146131c0576131c0613963565b600081815260116020526040902080546001600160a01b03191690556131e68282613575565b6001600160a01b038216600090815260136020526040812080546001929061320f9084906139b1565b90915550505050565b6000818152601160205260409020546001600160a01b03161561323d5761323d613963565b600081815260116020908152604080832080546001600160a01b0319166001600160a01b03871690811790915580845260138084528285208054601486528487208188528652848720889055878752601586529386209390935590845290915280546001929061320f908490613a2e565b60006001600160a01b0383166132c6576132c6613963565b6132d08383613218565b60405182906001600160a01b038516906000907fddf252ad1be2c89b69c2b068fc378daa952ba7f163c4a11628f55a4df523b3ef908290a450600192915050565b6060816133355750506040805180820190915260018152600360fc1b602082015290565b8160005b811561335f578061334981613b21565b91506133589050600a836139fd565b9150613339565b60008167ffffffffffffffff81111561337a5761337a6137f3565b6040519080825280601f01601f1916602001820160405280156133a4576020820181803683370190505b5090505b841561108f576133b96001836139b1565b91506133c6600a86614034565b6133d1906030613a2e565b60f81b8183815181106133e6576133e661394d565b60200101906001600160f81b031916908160001a905350613408600a866139fd565b94506133a8565b80516060908061342f575050604080516020810190915260008152919050565b6000600361343e836002613a2e565b61344891906139fd565b6134539060046139c8565b90506000613462826020613a2e565b67ffffffffffffffff81111561347a5761347a6137f3565b6040519080825280601f01601f1916602001820160405280156134a4576020820181803683370190505b5090506000604051806060016040528060408152602001614146604091399050600181016020830160005b86811015613530576003818a01810151603f601282901c8116860151600c83901c8216870151600684901c831688015192909316870151600891821b60ff94851601821b92841692909201901b91160160e01b8352600490920191016134cf565b50600386066001811461354a576002811461355b57613567565b613d3d60f01b600119830152613567565b603d60f81b6000198301525b505050918152949350505050565b6001600160a01b03821660009081526013602052604081205461359a906001906139b1565b600083815260156020526040902054909150808214156135ea576001600160a01b0384166000908152601460209081526040808320858452825280832083905585835260159091528120556117d1565b6001600160a01b039390931660009081526014602090815260408083209383529281528282208054868452848420819055835260159091528282209490945592839055908252812055565b6001600160e01b03198116811461364b57600080fd5b50565b60006020828403121561366057600080fd5b8135610f5481613635565b60005b8381101561368657818101518382015260200161366e565b838111156117d15750506000910152565b600081518084526136af81602086016020860161366b565b601f01601f19169290920160200192915050565b602081526000610f546020830184613697565b6000602082840312156136e857600080fd5b5035919050565b80356001600160a01b038116811461370657600080fd5b919050565b6000806040838503121561371e57600080fd5b613727836136ef565b946020939093013593505050565b6000806040838503121561374857600080fd5b50508035926020909101359150565b60008060006060848603121561376c57600080fd5b613775846136ef565b9250613783602085016136ef565b9150604084013590509250925092565b6000602082840312156137a557600080fd5b610f54826136ef565b801515811461364b57600080fd5b600080604083850312156137cf57600080fd5b6137d8836136ef565b915060208301356137e8816137ae565b809150509250929050565b634e487b7160e01b600052604160045260246000fd5b6000806000806080858703121561381f57600080fd5b613828856136ef565b9350613836602086016136ef565b925060408501359150606085013567ffffffffffffffff8082111561385a57600080fd5b818701915087601f83011261386e57600080fd5b813581811115613880576138806137f3565b604051601f8201601f19908116603f011681019083821181831017156138a8576138a86137f3565b816040528281528a60208487010111156138c157600080fd5b82602086016020830137600060208483010152809550505050505092959194509250565b6000806000606084860312156138fa57600080fd5b8335925060208401359150613911604085016136ef565b90509250925092565b6000806040838503121561392d57600080fd5b613936836136ef565b9150613944602084016136ef565b90509250929050565b634e487b7160e01b600052603260045260246000fd5b634e487b7160e01b600052600160045260246000fd5b602080825260089082015267185d1d1858da195960c21b604082015260600190565b634e487b7160e01b600052601160045260246000fd5b6000828210156139c3576139c361399b565b500390565b60008160001904831182151516156139e2576139e261399b565b500290565b634e487b7160e01b600052601260045260246000fd5b600082613a0c57613a0c6139e7565b500490565b600060208284031215613a2357600080fd5b8151610f54816137ae565b60008219821115613a4157613a4161399b565b500190565b60208082526024908201527f43616e6e6f742061646420746f2065787069726564206c6f636b2e20576974686040820152636472617760e01b606082015260800190565b6001600160a01b03959095168552602085019390935260408401919091526060830152608082015260a00190565b600060208284031215613aca57600080fd5b5051919050565b6001600160a01b038581168252841660208201526040810183905260806060820181905260009061123b90830184613697565b600060208284031215613b1657600080fd5b8151610f5481613635565b6000600019821415613b3557613b3561399b565b5060010190565b600081600f0b83600f0b60016001607f1b03600082136000841383830485118282161615613b6c57613b6c61399b565b60016001607f1b03196000851282811687830587121615613b8f57613b8f61399b565b60008712925085820587128484161615613bab57613bab61399b565b85850587128184161615613bc157613bc161399b565b5050509290910295945050505050565b600081600f0b83600f0b600081128160016001607f1b031901831281151615613bfc57613bfc61399b565b8160016001607f1b03018313811615613c1757613c1761399b565b5090039392505050565b600081600f0b83600f0b600082128260016001607f1b0303821381151615613c4b57613c4b61399b565b8260016001607f1b0319038212811615613c6757613c6761399b565b50019392505050565b634e487b7160e01b600052602160045260246000fd5b848152602081018490526080810160058410613cb257634e487b7160e01b600052602160045260246000fd5b60408201939093526060015292915050565b600081600f0b83600f0b80613cdb57613cdb6139e7565b60016001607f1b0319821460001982141615613cf957613cf961399b565b90059392505050565b60008351613d1481846020880161366b565b6503a37b5b2b7160d51b9083019081528351613d3781600684016020880161366b565b7f3c2f746578743e3c7465787420783d2231302220793d2234302220636c61737360069290910191820152671e913130b9b2911f60c11b6026820152602e01949350505050565b60008351613d9081846020880161366b565b6903130b630b731b2a7b3160b51b9083019081528351613db781600a84016020880161366b565b7f3c2f746578743e3c7465787420783d2231302220793d2236302220636c617373600a9290910191820152671e913130b9b2911f60c11b602a820152603201949350505050565b60008351613e1081846020880161366b565b6a03637b1b5b2b22fb2b732160ad1b9083019081528351613e3881600b84016020880161366b565b7f3c2f746578743e3c7465787420783d2231302220793d2238302220636c617373600b9290910191820152671e913130b9b2911f60c11b602b820152603301949350505050565b60008351613e9181846020880161366b565b6503b30b63ab2960d51b9083019081528351613eb481600684016020880161366b565b6c1e17ba32bc3a1f1e17b9bb339f60991b60069290910191820152601301949350505050565b6f7b226e616d65223a20226c6f636b202360801b81528251600090613f0681601085016020880161366b565b7f222c20226465736372697074696f6e223a2022536f6c69646c79206c6f636b736010918401918201527f2c2063616e206265207573656420746f20626f6f73742067617567652079696560308201527f6c64732c20766f7465206f6e20746f6b656e20656d697373696f6e2c20616e6460508201527f207265636569766520627269626573222c2022696d616765223a2022646174616070820152750e9a5b5859d94bdcdd99cade1b5b0ed8985cd94d8d0b60521b60908201528351613fd48160a684016020880161366b565b61227d60f01b60a6929091019182015260a801949350505050565b7f646174613a6170706c69636174696f6e2f6a736f6e3b6261736536342c00000081526000825161402781601d85016020870161366b565b91909101601d0192915050565b600082614043576140436139e7565b50069056fe3c73766720786d6c6e733d22687474703a2f2f7777772e77332e6f72672f323030302f73766722207072657365727665417370656374526174696f3d22784d696e594d696e206d656574222076696577426f783d223020302033353020333530223e3c7374796c653e2e62617365207b2066696c6c3a2077686974653b20666f6e742d66616d696c793a2073657269663b20666f6e742d73697a653a20313470783b207d3c2f7374796c653e3c726563742077696474683d223130302522206865696768743d2231303025222066696c6c3d22626c61636b22202f3e3c7465787420783d2231302220793d2232302220636c6173733d2262617365223e4142434445464748494a4b4c4d4e4f505152535455565758595a6162636465666768696a6b6c6d6e6f707172737475767778797a303132333435363738392b2fa264697066735822122022a2eab88afccb6821cbfad22933824f43f75f8f30ad9b1814f6f103942f657d64736f6c634300080b0033ddf252ad1be2c89b69c2b068fc378daa952ba7f163c4a11628f55a4df523b3ef",
  "linkReferences": {},
  "deployedLinkReferences": {}
}