{
  "_format": "hh-sol-artifact-1",
  "contractName": "BaseV1Minter",
  "sourceName": "contracts/BaseV1-minter.sol",
  "abi": [
    {
      "inputs": [
        {
          "internalType": "address",
          "name": "__voter",
          "type": "address"
        },
        {
          "internalType": "address",
          "name": "__ve",
          "type": "address"
        },
        {
          "internalType": "address",
          "name": "__ve_dist",
          "type": "address"
        }
      ],
      "stateMutability": "nonpayable",
      "type": "constructor"
    },
    {
      "anonymous": false,
      "inputs": [
        {
          "indexed": true,
          "internalType": "address",
          "name": "sender",
          "type": "address"
        },
        {
          "indexed": false,
          "internalType": "uint256",
          "name": "weekly",
          "type": "uint256"
        },
        {
          "indexed": false,
          "internalType": "uint256",
          "name": "circulating_supply",
          "type": "uint256"
        },
        {
          "indexed": false,
          "internalType": "uint256",
          "name": "circulating_emission",
          "type": "uint256"
        }
      ],
      "name": "Mint",
      "type": "event"
    },
    {
      "anonymous": false,
      "inputs": [
        {
          "indexed": true,
          "internalType": "address",
          "name": "previousOwner",
          "type": "address"
        },
        {
          "indexed": true,
          "internalType": "address",
          "name": "newOwner",
          "type": "address"
        }
      ],
      "name": "OwnershipTransferred",
      "type": "event"
    },
    {
      "inputs": [],
      "name": "_token",
      "outputs": [
        {
          "internalType": "contract underlying",
          "name": "",
          "type": "address"
        }
      ],
      "stateMutability": "view",
      "type": "function"
    },
    {
      "inputs": [],
      "name": "_ve",
      "outputs": [
        {
          "internalType": "contract ve",
          "name": "",
          "type": "address"
        }
      ],
      "stateMutability": "view",
      "type": "function"
    },
    {
      "inputs": [],
      "name": "_ve_dist",
      "outputs": [
        {
          "internalType": "contract ve_dist",
          "name": "",
          "type": "address"
        }
      ],
      "stateMutability": "view",
      "type": "function"
    },
    {
      "inputs": [],
      "name": "_voter",
      "outputs": [
        {
          "internalType": "contract voter",
          "name": "",
          "type": "address"
        }
      ],
      "stateMutability": "view",
      "type": "function"
    },
    {
      "inputs": [],
      "name": "active_period",
      "outputs": [
        {
          "internalType": "uint256",
          "name": "",
          "type": "uint256"
        }
      ],
      "stateMutability": "view",
      "type": "function"
    },
    {
      "inputs": [],
      "name": "calculate_emission",
      "outputs": [
        {
          "internalType": "uint256",
          "name": "",
          "type": "uint256"
        }
      ],
      "stateMutability": "view",
      "type": "function"
    },
    {
      "inputs": [
        {
          "internalType": "uint256",
          "name": "_minted",
          "type": "uint256"
        }
      ],
      "name": "calculate_growth",
      "outputs": [
        {
          "internalType": "uint256",
          "name": "",
          "type": "uint256"
        }
      ],
      "stateMutability": "view",
      "type": "function"
    },
    {
      "inputs": [],
      "name": "circulating_emission",
      "outputs": [
        {
          "internalType": "uint256",
          "name": "",
          "type": "uint256"
        }
      ],
      "stateMutability": "view",
      "type": "function"
    },
    {
      "inputs": [],
      "name": "circulating_supply",
      "outputs": [
        {
          "internalType": "uint256",
          "name": "",
          "type": "uint256"
        }
      ],
      "stateMutability": "view",
      "type": "function"
    },
    {
      "inputs": [],
      "name": "fetch",
      "outputs": [
        {
          "internalType": "address",
          "name": "",
          "type": "address"
        }
      ],
      "stateMutability": "view",
      "type": "function"
    },
    {
      "inputs": [],
      "name": "gaugeDestributor",
      "outputs": [
        {
          "internalType": "address",
          "name": "",
          "type": "address"
        }
      ],
      "stateMutability": "view",
      "type": "function"
    },
    {
      "inputs": [
        {
          "internalType": "address",
          "name": "_fetch",
          "type": "address"
        },
        {
          "internalType": "uint256",
          "name": "max",
          "type": "uint256"
        },
        {
          "internalType": "address",
          "name": "_gaugeDestributor",
          "type": "address"
        },
        {
          "internalType": "address",
          "name": "_teamWallet",
          "type": "address"
        }
      ],
      "name": "initialize",
      "outputs": [],
      "stateMutability": "nonpayable",
      "type": "function"
    },
    {
      "inputs": [
        {
          "internalType": "address",
          "name": "_newMinter",
          "type": "address"
        }
      ],
      "name": "migrate",
      "outputs": [],
      "stateMutability": "nonpayable",
      "type": "function"
    },
    {
      "inputs": [
        {
          "internalType": "uint256",
          "name": "_amount",
          "type": "uint256"
        }
      ],
      "name": "mintForFetch",
      "outputs": [],
      "stateMutability": "nonpayable",
      "type": "function"
    },
    {
      "inputs": [],
      "name": "owner",
      "outputs": [
        {
          "internalType": "address",
          "name": "",
          "type": "address"
        }
      ],
      "stateMutability": "view",
      "type": "function"
    },
    {
      "inputs": [],
      "name": "renounceOwnership",
      "outputs": [],
      "stateMutability": "nonpayable",
      "type": "function"
    },
    {
      "inputs": [],
      "name": "teamWallet",
      "outputs": [
        {
          "internalType": "address",
          "name": "",
          "type": "address"
        }
      ],
      "stateMutability": "view",
      "type": "function"
    },
    {
      "inputs": [
        {
          "internalType": "address",
          "name": "newOwner",
          "type": "address"
        }
      ],
      "name": "transferOwnership",
      "outputs": [],
      "stateMutability": "nonpayable",
      "type": "function"
    },
    {
      "inputs": [],
      "name": "update_period",
      "outputs": [
        {
          "internalType": "uint256",
          "name": "",
          "type": "uint256"
        }
      ],
      "stateMutability": "nonpayable",
      "type": "function"
    },
    {
      "inputs": [],
      "name": "votersPool",
      "outputs": [
        {
          "internalType": "address",
          "name": "",
          "type": "address"
        }
      ],
      "stateMutability": "view",
      "type": "function"
    },
    {
      "inputs": [],
      "name": "weekly",
      "outputs": [
        {
          "internalType": "uint256",
          "name": "",
          "type": "uint256"
        }
      ],
      "stateMutability": "view",
      "type": "function"
    },
    {
      "inputs": [],
      "name": "weekly_emission",
      "outputs": [
        {
          "internalType": "uint256",
          "name": "",
          "type": "uint256"
        }
      ],
      "stateMutability": "view",
      "type": "function"
    }
  ],
  "bytecode": "0x6101006040526a108b2a2c280290940000006001553480156200002157600080fd5b50604051620017283803806200172883398101604081905262000044916200019c565b6200004f336200012f565b600380546001600160a01b0319163317905560408051637e062a3560e11b815290516001600160a01b0384169163fc0c546a9160048083019260209291908290030181865afa158015620000a7573d6000803e3d6000fd5b505050506040513d601f19601f82011682018060405250810190620000cd9190620001e6565b6001600160a01b0390811660805283811660a05282811660c052811660e05262093a8080620000fe81600262000221565b6200010a904262000243565b6200011691906200025e565b62000122919062000221565b6002555062000281915050565b600080546001600160a01b038381166001600160a01b0319831681178455604051919092169283917f8be0079c531659141344cd1fd0a4f28419497f9722a3daafe3b4186f6b6457e09190a35050565b80516001600160a01b03811681146200019757600080fd5b919050565b600080600060608486031215620001b257600080fd5b620001bd846200017f565b9250620001cd602085016200017f565b9150620001dd604085016200017f565b90509250925092565b600060208284031215620001f957600080fd5b62000204826200017f565b9392505050565b634e487b7160e01b600052601160045260246000fd5b60008160001904831182151516156200023e576200023e6200020b565b500290565b600082198211156200025957620002596200020b565b500190565b6000826200027c57634e487b7160e01b600052601260045260246000fd5b500490565b60805160a05160c05160e0516113da6200034e6000396000818161019b0152818161084901528181610cb601528181610d5d0152610dd0015260008181610258015281816106ed01526108c80152600081816101df01528181610a9101528181610ef70152610faa0152600081816102d1015281816103690152818161044f015281816105730152818161066a015281816107d00152818161094a01528181610b9101528181610c1001528181610ce501528181610e6801528181610f26015261103801526113da6000f3fe608060405234801561001057600080fd5b50600436106101425760003560e01c80638da5cb5b116100b8578063cfc6c8ff1161007c578063cfc6c8ff146102b3578063d1399608146102bb578063e038c75a146102c4578063ecd0c0c3146102cc578063ed29fc11146102f3578063f2fde38b146102fb57600080fd5b80638da5cb5b146102425780638dd598fb146102535780638e01fbfa1461027a578063a95c372d1461028d578063ce5494bb146102a057600080fd5b806336d96faf1161010a57806336d96faf146101d25780633db9b42a146101da57806340a6fa9d1461020157806344f2ee6e146102145780635992704414610227578063715018a61461023a57600080fd5b8063184c3494146101475780631eebae801461017757806326cfc17b1461018d5780632c6b2f0c14610196578063358394d8146101bd575b600080fd5b60065461015a906001600160a01b031681565b6040516001600160a01b0390911681526020015b60405180910390f35b61017f61030e565b60405190815260200161016e565b61017f60015481565b61015a7f000000000000000000000000000000000000000000000000000000000000000081565b6101d06101cb36600461122d565b610336565b005b61017f61044b565b61015a7f000000000000000000000000000000000000000000000000000000000000000081565b60055461015a906001600160a01b031681565b6101d061022236600461127a565b6104fc565b60075461015a906001600160a01b031681565b6101d0610630565b6000546001600160a01b031661015a565b61015a7f000000000000000000000000000000000000000000000000000000000000000081565b61017f61028836600461127a565b610666565b60045461015a906001600160a01b031681565b6101d06102ae366004611293565b610787565b61017f6108aa565b61017f60025481565b61017f6108c4565b61015a7f000000000000000000000000000000000000000000000000000000000000000081565b61017f6109d4565b6101d0610309366004611293565b611112565b60006103e8600261031d6108c4565b61032791906112c4565b61033191906112e3565b905090565b6003546001600160a01b0316331461034d57600080fd5b6040516340c10f1960e01b8152306004820152602481018490527f00000000000000000000000000000000000000000000000000000000000000006001600160a01b0316906340c10f1990604401600060405180830381600087803b1580156103b557600080fd5b505af11580156103c9573d6000803e3d6000fd5b5050600480546001600160a01b0388166001600160a01b0319918216179091556003805490911690555062093a809050806104048142611305565b61040e91906112e3565b61041891906112c4565b600255600580546001600160a01b039384166001600160a01b031991821617909155600780549290931691161790555050565b60007f00000000000000000000000000000000000000000000000000000000000000006001600160a01b03166318160ddd6040518163ffffffff1660e01b8152600401602060405180830381865afa1580156104ab573d6000803e3d6000fd5b505050506040513d601f19601f820116820180604052508101906104cf919061131d565b60646104d96108c4565b60626001546104e891906112c4565b6104f291906112c4565b61032791906112e3565b6004546001600160a01b031633146105475760405162461bcd60e51b815260206004820152600960248201526809cdee840cccae8c6d60bb1b60448201526064015b60405180910390fd5b600480546040516340c10f1960e01b81526001600160a01b0391821692810192909252602482018390527f000000000000000000000000000000000000000000000000000000000000000016906340c10f1990604401600060405180830381600087803b1580156105b757600080fd5b505af11580156105cb573d6000803e3d6000fd5b50506004546001600160a01b031691507fb4c03061fb5b7fed76389d5af8f2e0ddb09f8c70d1333abbb62582835e10accb9050826106076108c4565b61060f61030e565b6040805193845260208401929092529082015260600160405180910390a250565b6000546001600160a01b0316331461065a5760405162461bcd60e51b815260040161053e90611336565b61066460006111ad565b565b60007f00000000000000000000000000000000000000000000000000000000000000006001600160a01b03166318160ddd6040518163ffffffff1660e01b8152600401602060405180830381865afa1580156106c6573d6000803e3d6000fd5b505050506040513d601f19601f820116820180604052508101906106ea919061131d565b827f00000000000000000000000000000000000000000000000000000000000000006001600160a01b03166318160ddd6040518163ffffffff1660e01b8152600401602060405180830381865afa158015610749573d6000803e3d6000fd5b505050506040513d601f19601f8201168201806040525081019061076d919061131d565b61077791906112c4565b61078191906112e3565b92915050565b6000546001600160a01b031633146107b15760405162461bcd60e51b815260040161053e90611336565b604051637e51dad560e11b81526001600160a01b0382811660048301527f0000000000000000000000000000000000000000000000000000000000000000169063fca3b5aa90602401600060405180830381600087803b15801561081457600080fd5b505af1158015610828573d6000803e3d6000fd5b505060405163f2c098b760e01b81526001600160a01b0384811660048301527f000000000000000000000000000000000000000000000000000000000000000016925063f2c098b79150602401600060405180830381600087803b15801561088f57600080fd5b505af11580156108a3573d6000803e3d6000fd5b5050505050565b60006103316108b761044b565b6108bf61030e565b6111fd565b60007f00000000000000000000000000000000000000000000000000000000000000006001600160a01b03166318160ddd6040518163ffffffff1660e01b8152600401602060405180830381865afa158015610924573d6000803e3d6000fd5b505050506040513d601f19601f82011682018060405250810190610948919061131d565b7f00000000000000000000000000000000000000000000000000000000000000006001600160a01b03166318160ddd6040518163ffffffff1660e01b8152600401602060405180830381865afa1580156109a6573d6000803e3d6000fd5b505050506040513d601f19601f820116820180604052508101906109ca919061131d565b610331919061136b565b6002546000906109e762093a8082611305565b42101580156109ff57506003546001600160a01b0316155b1561110d5762093a80610a1281426112e3565b610a1c91906112c4565b60028190559050610a2b6108aa565b6001819055600090610a3f906064906112e3565b610a4a9060146112c4565b905060006064600154610a5d91906112e3565b610a689060286112c4565b905060006064600154610a7b91906112e3565b610a869060286112c4565b9050600081905060007f00000000000000000000000000000000000000000000000000000000000000006001600160a01b03166396c82e576040518163ffffffff1660e01b8152600401602060405180830381865afa158015610aed573d6000803e3d6000fd5b505050506040513d601f19601f82011682018060405250810190610b11919061131d565b9050610b1e83600a6112c4565b811015610b4f57610b30600a826112e3565b91508183600154610b41919061136b565b610b4b9190611305565b6001555b6000610b5c600154610666565b9050600060015482610b6e9190611305565b6040516370a0823160e01b81523060048201529091506000906001600160a01b037f000000000000000000000000000000000000000000000000000000000000000016906370a0823190602401602060405180830381865afa158015610bd8573d6000803e3d6000fd5b505050506040513d601f19601f82011682018060405250810190610bfc919061131d565b905081811015610c9f576001600160a01b037f0000000000000000000000000000000000000000000000000000000000000000166340c10f1930610c40848661136b565b6040516001600160e01b031960e085901b1681526001600160a01b0390921660048301526024820152604401600060405180830381600087803b158015610c8657600080fd5b505af1158015610c9a573d6000803e3d6000fd5b505050505b60405163a9059cbb60e01b81526001600160a01b037f000000000000000000000000000000000000000000000000000000000000000081166004830152602482018590527f0000000000000000000000000000000000000000000000000000000000000000169063a9059cbb906044016020604051808303816000875af1158015610d2e573d6000803e3d6000fd5b505050506040513d601f19601f82011682018060405250810190610d529190611382565b610d5b57600080fd5b7f00000000000000000000000000000000000000000000000000000000000000006001600160a01b031663811a40fe6040518163ffffffff1660e01b8152600401600060405180830381600087803b158015610db657600080fd5b505af1158015610dca573d6000803e3d6000fd5b505050507f00000000000000000000000000000000000000000000000000000000000000006001600160a01b031663b21ed5026040518163ffffffff1660e01b8152600401600060405180830381600087803b158015610e2957600080fd5b505af1158015610e3d573d6000803e3d6000fd5b505060055460405163a9059cbb60e01b81526001600160a01b039182166004820152602481018b90527f0000000000000000000000000000000000000000000000000000000000000000909116925063a9059cbb91506044016020604051808303816000875af1158015610eb5573d6000803e3d6000fd5b505050506040513d601f19601f82011682018060405250810190610ed99190611382565b50841561100f5760405163095ea7b360e01b81526001600160a01b037f000000000000000000000000000000000000000000000000000000000000000081166004830152602482018790527f0000000000000000000000000000000000000000000000000000000000000000169063095ea7b3906044016020604051808303816000875af1158015610f6f573d6000803e3d6000fd5b505050506040513d601f19601f82011682018060405250810190610f939190611382565b50604051633c6b16ab60e01b8152600481018690527f00000000000000000000000000000000000000000000000000000000000000006001600160a01b031690633c6b16ab90602401600060405180830381600087803b158015610ff657600080fd5b505af115801561100a573d6000803e3d6000fd5b505050505b60075460405163a9059cbb60e01b81526001600160a01b039182166004820152602481018a90527f00000000000000000000000000000000000000000000000000000000000000009091169063a9059cbb906044016020604051808303816000875af1158015611083573d6000803e3d6000fd5b505050506040513d601f19601f820116820180604052508101906110a79190611382565b50336001600160a01b03167fb4c03061fb5b7fed76389d5af8f2e0ddb09f8c70d1333abbb62582835e10accb6001546110de6108c4565b6110e661030e565b6040805193845260208401929092529082015260600160405180910390a250505050505050505b919050565b6000546001600160a01b0316331461113c5760405162461bcd60e51b815260040161053e90611336565b6001600160a01b0381166111a15760405162461bcd60e51b815260206004820152602660248201527f4f776e61626c653a206e6577206f776e657220697320746865207a65726f206160448201526564647265737360d01b606482015260840161053e565b6111aa816111ad565b50565b600080546001600160a01b038381166001600160a01b0319831681178455604051919092169283917f8be0079c531659141344cd1fd0a4f28419497f9722a3daafe3b4186f6b6457e09190a35050565b60008183101561120d578161120f565b825b9392505050565b80356001600160a01b038116811461110d57600080fd5b6000806000806080858703121561124357600080fd5b61124c85611216565b93506020850135925061126160408601611216565b915061126f60608601611216565b905092959194509250565b60006020828403121561128c57600080fd5b5035919050565b6000602082840312156112a557600080fd5b61120f82611216565b634e487b7160e01b600052601160045260246000fd5b60008160001904831182151516156112de576112de6112ae565b500290565b60008261130057634e487b7160e01b600052601260045260246000fd5b500490565b60008219821115611318576113186112ae565b500190565b60006020828403121561132f57600080fd5b5051919050565b6020808252818101527f4f776e61626c653a2063616c6c6572206973206e6f7420746865206f776e6572604082015260600190565b60008282101561137d5761137d6112ae565b500390565b60006020828403121561139457600080fd5b8151801515811461120f57600080fdfea2646970667358221220947e195fc39822dac998506b50f0f83357bfa9a1d0cd7cd7058978928dd7657e64736f6c634300080b0033",
  "linkReferences": {},
  "deployedLinkReferences": {}
}