{
  "_format": "hh-sol-artifact-1",
  "contractName": "BaseV1Minter",
  "sourceName": "contracts/BaseV1-minter.sol",
  "abi": [
    {
      "inputs": [
        {
          "internalType": "address",
          "name": "__voter",
          "type": "address"
        },
        {
          "internalType": "address",
          "name": "__ve",
          "type": "address"
        },
        {
          "internalType": "address",
          "name": "__ve_dist",
          "type": "address"
        }
      ],
      "stateMutability": "nonpayable",
      "type": "constructor"
    },
    {
      "anonymous": false,
      "inputs": [
        {
          "indexed": true,
          "internalType": "address",
          "name": "sender",
          "type": "address"
        },
        {
          "indexed": false,
          "internalType": "uint256",
          "name": "weekly",
          "type": "uint256"
        },
        {
          "indexed": false,
          "internalType": "uint256",
          "name": "circulating_supply",
          "type": "uint256"
        },
        {
          "indexed": false,
          "internalType": "uint256",
          "name": "circulating_emission",
          "type": "uint256"
        }
      ],
      "name": "Mint",
      "type": "event"
    },
    {
      "anonymous": false,
      "inputs": [
        {
          "indexed": true,
          "internalType": "address",
          "name": "previousOwner",
          "type": "address"
        },
        {
          "indexed": true,
          "internalType": "address",
          "name": "newOwner",
          "type": "address"
        }
      ],
      "name": "OwnershipTransferred",
      "type": "event"
    },
    {
      "inputs": [],
      "name": "DAOTreasury",
      "outputs": [
        {
          "internalType": "address",
          "name": "",
          "type": "address"
        }
      ],
      "stateMutability": "view",
      "type": "function"
    },
    {
      "inputs": [],
      "name": "_token",
      "outputs": [
        {
          "internalType": "contract underlying",
          "name": "",
          "type": "address"
        }
      ],
      "stateMutability": "view",
      "type": "function"
    },
    {
      "inputs": [],
      "name": "_ve",
      "outputs": [
        {
          "internalType": "contract ve",
          "name": "",
          "type": "address"
        }
      ],
      "stateMutability": "view",
      "type": "function"
    },
    {
      "inputs": [],
      "name": "_ve_dist",
      "outputs": [
        {
          "internalType": "contract ve_dist",
          "name": "",
          "type": "address"
        }
      ],
      "stateMutability": "view",
      "type": "function"
    },
    {
      "inputs": [],
      "name": "_voter",
      "outputs": [
        {
          "internalType": "contract voter",
          "name": "",
          "type": "address"
        }
      ],
      "stateMutability": "view",
      "type": "function"
    },
    {
      "inputs": [],
      "name": "active_period",
      "outputs": [
        {
          "internalType": "uint256",
          "name": "",
          "type": "uint256"
        }
      ],
      "stateMutability": "view",
      "type": "function"
    },
    {
      "inputs": [],
      "name": "calculate_emission",
      "outputs": [
        {
          "internalType": "uint256",
          "name": "",
          "type": "uint256"
        }
      ],
      "stateMutability": "view",
      "type": "function"
    },
    {
      "inputs": [
        {
          "internalType": "uint256",
          "name": "_minted",
          "type": "uint256"
        }
      ],
      "name": "calculate_growth",
      "outputs": [
        {
          "internalType": "uint256",
          "name": "",
          "type": "uint256"
        }
      ],
      "stateMutability": "view",
      "type": "function"
    },
    {
      "inputs": [],
      "name": "circulating_emission",
      "outputs": [
        {
          "internalType": "uint256",
          "name": "",
          "type": "uint256"
        }
      ],
      "stateMutability": "view",
      "type": "function"
    },
    {
      "inputs": [],
      "name": "circulating_supply",
      "outputs": [
        {
          "internalType": "uint256",
          "name": "",
          "type": "uint256"
        }
      ],
      "stateMutability": "view",
      "type": "function"
    },
    {
      "inputs": [],
      "name": "fetch",
      "outputs": [
        {
          "internalType": "address",
          "name": "",
          "type": "address"
        }
      ],
      "stateMutability": "view",
      "type": "function"
    },
    {
      "inputs": [],
      "name": "gaugeDestributor",
      "outputs": [
        {
          "internalType": "address",
          "name": "",
          "type": "address"
        }
      ],
      "stateMutability": "view",
      "type": "function"
    },
    {
      "inputs": [
        {
          "internalType": "address",
          "name": "_fetch",
          "type": "address"
        },
        {
          "internalType": "uint256",
          "name": "max",
          "type": "uint256"
        },
        {
          "internalType": "address",
          "name": "_gaugeDestributor",
          "type": "address"
        },
        {
          "internalType": "address",
          "name": "_votersLock",
          "type": "address"
        },
        {
          "internalType": "address",
          "name": "_teamWallet",
          "type": "address"
        },
        {
          "internalType": "address",
          "name": "_DAOTreasury",
          "type": "address"
        }
      ],
      "name": "initialize",
      "outputs": [],
      "stateMutability": "nonpayable",
      "type": "function"
    },
    {
      "inputs": [
        {
          "internalType": "address",
          "name": "_newMinter",
          "type": "address"
        }
      ],
      "name": "migrate",
      "outputs": [],
      "stateMutability": "nonpayable",
      "type": "function"
    },
    {
      "inputs": [
        {
          "internalType": "uint256",
          "name": "_amount",
          "type": "uint256"
        }
      ],
      "name": "mintForFetch",
      "outputs": [],
      "stateMutability": "nonpayable",
      "type": "function"
    },
    {
      "inputs": [],
      "name": "owner",
      "outputs": [
        {
          "internalType": "address",
          "name": "",
          "type": "address"
        }
      ],
      "stateMutability": "view",
      "type": "function"
    },
    {
      "inputs": [],
      "name": "renounceOwnership",
      "outputs": [],
      "stateMutability": "nonpayable",
      "type": "function"
    },
    {
      "inputs": [],
      "name": "teamWallet",
      "outputs": [
        {
          "internalType": "address",
          "name": "",
          "type": "address"
        }
      ],
      "stateMutability": "view",
      "type": "function"
    },
    {
      "inputs": [
        {
          "internalType": "address",
          "name": "newOwner",
          "type": "address"
        }
      ],
      "name": "transferOwnership",
      "outputs": [],
      "stateMutability": "nonpayable",
      "type": "function"
    },
    {
      "inputs": [],
      "name": "update_period",
      "outputs": [
        {
          "internalType": "uint256",
          "name": "",
          "type": "uint256"
        }
      ],
      "stateMutability": "nonpayable",
      "type": "function"
    },
    {
      "inputs": [],
      "name": "votersLock",
      "outputs": [
        {
          "internalType": "address",
          "name": "",
          "type": "address"
        }
      ],
      "stateMutability": "view",
      "type": "function"
    },
    {
      "inputs": [],
      "name": "weekly",
      "outputs": [
        {
          "internalType": "uint256",
          "name": "",
          "type": "uint256"
        }
      ],
      "stateMutability": "view",
      "type": "function"
    },
    {
      "inputs": [],
      "name": "weekly_emission",
      "outputs": [
        {
          "internalType": "uint256",
          "name": "",
          "type": "uint256"
        }
      ],
      "stateMutability": "view",
      "type": "function"
    }
  ],
  "bytecode": "0x6101006040526a108b2a2c280290940000006001553480156200002157600080fd5b50604051620017433803806200174383398101604081905262000044916200019c565b6200004f336200012f565b600380546001600160a01b0319163317905560408051637e062a3560e11b815290516001600160a01b0384169163fc0c546a9160048083019260209291908290030181865afa158015620000a7573d6000803e3d6000fd5b505050506040513d601f19601f82011682018060405250810190620000cd9190620001e6565b6001600160a01b0390811660805283811660a05282811660c052811660e05262093a8080620000fe81600262000221565b6200010a904262000243565b6200011691906200025e565b62000122919062000221565b6002555062000281915050565b600080546001600160a01b038381166001600160a01b0319831681178455604051919092169283917f8be0079c531659141344cd1fd0a4f28419497f9722a3daafe3b4186f6b6457e09190a35050565b80516001600160a01b03811681146200019757600080fd5b919050565b600080600060608486031215620001b257600080fd5b620001bd846200017f565b9250620001cd602085016200017f565b9150620001dd604085016200017f565b90509250925092565b600060208284031215620001f957600080fd5b62000204826200017f565b9392505050565b634e487b7160e01b600052601160045260246000fd5b60008160001904831182151516156200023e576200023e6200020b565b500290565b600082198211156200025957620002596200020b565b500190565b6000826200027c57634e487b7160e01b600052601260045260246000fd5b500490565b60805160a05160c05160e0516113fc62000347600039600081816101a60152818161088901528181610c5701528181610cfe0152610d71015260008181610250015281816105f60152610989015260006101d50152600081816102ef015281816103580152818161047c01528181610573015281816106c301528181610810015281816108f001528181610a0b01528181610b3201528181610bb101528181610c8601528181610e8401528181610f1b01528181610fb4015261104d01526113fc6000f3fe608060405234801561001057600080fd5b506004361061014d5760003560e01c80638dd598fb116100c3578063d13996081161007c578063d1399608146102c6578063e038c75a146102cf578063e0c821d4146102d7578063ecd0c0c3146102ea578063ed29fc1114610311578063f2fde38b1461031957600080fd5b80638dd598fb1461024b5780638e01fbfa14610272578063a2dc2ab714610285578063a95c372d14610298578063ce5494bb146102ab578063cfc6c8ff146102be57600080fd5b80633db9b42a116101155780633db9b42a146101d057806340a6fa9d146101f757806344f2ee6e1461020a578063599270441461021f578063715018a6146102325780638da5cb5b1461023a57600080fd5b80631eebae8014610152578063254c7f1d1461016d57806326cfc17b146101985780632c6b2f0c146101a157806336d96faf146101c8575b600080fd5b61015a61032c565b6040519081526020015b60405180910390f35b600654610180906001600160a01b031681565b6040516001600160a01b039091168152602001610164565b61015a60015481565b6101807f000000000000000000000000000000000000000000000000000000000000000081565b61015a610354565b6101807f000000000000000000000000000000000000000000000000000000000000000081565b600554610180906001600160a01b031681565b61021d610218366004611211565b610405565b005b600754610180906001600160a01b031681565b61021d610539565b6000546001600160a01b0316610180565b6101807f000000000000000000000000000000000000000000000000000000000000000081565b61015a610280366004611211565b61056f565b61021d610293366004611241565b610690565b600454610180906001600160a01b031681565b61021d6102b93660046112ae565b6107c7565b61015a6108ea565b61015a60025481565b61015a610985565b600854610180906001600160a01b031681565b6101807f000000000000000000000000000000000000000000000000000000000000000081565b61015a610a95565b61021d6103273660046112ae565b611126565b60006103e8600261033b610985565b61034591906112e6565b61034f9190611305565b905090565b60007f00000000000000000000000000000000000000000000000000000000000000006001600160a01b03166318160ddd6040518163ffffffff1660e01b8152600401602060405180830381865afa1580156103b4573d6000803e3d6000fd5b505050506040513d601f19601f820116820180604052508101906103d89190611327565b60646103e2610985565b60626001546103f191906112e6565b6103fb91906112e6565b6103459190611305565b6004546001600160a01b031633146104505760405162461bcd60e51b815260206004820152600960248201526809cdee840cccae8c6d60bb1b60448201526064015b60405180910390fd5b600480546040516340c10f1960e01b81526001600160a01b0391821692810192909252602482018390527f000000000000000000000000000000000000000000000000000000000000000016906340c10f1990604401600060405180830381600087803b1580156104c057600080fd5b505af11580156104d4573d6000803e3d6000fd5b50506004546001600160a01b031691507fb4c03061fb5b7fed76389d5af8f2e0ddb09f8c70d1333abbb62582835e10accb905082610510610985565b61051861032c565b6040805193845260208401929092529082015260600160405180910390a250565b6000546001600160a01b031633146105635760405162461bcd60e51b815260040161044790611340565b61056d60006111c1565b565b60007f00000000000000000000000000000000000000000000000000000000000000006001600160a01b03166318160ddd6040518163ffffffff1660e01b8152600401602060405180830381865afa1580156105cf573d6000803e3d6000fd5b505050506040513d601f19601f820116820180604052508101906105f39190611327565b827f00000000000000000000000000000000000000000000000000000000000000006001600160a01b03166318160ddd6040518163ffffffff1660e01b8152600401602060405180830381865afa158015610652573d6000803e3d6000fd5b505050506040513d601f19601f820116820180604052508101906106769190611327565b61068091906112e6565b61068a9190611305565b92915050565b6003546001600160a01b031633146106a757600080fd5b6040516340c10f1960e01b8152306004820152602481018690527f00000000000000000000000000000000000000000000000000000000000000006001600160a01b0316906340c10f1990604401600060405180830381600087803b15801561070f57600080fd5b505af1158015610723573d6000803e3d6000fd5b5050600480546001600160a01b038a166001600160a01b0319918216179091556003805490911690555062093a8090508061075e8142611375565b6107689190611305565b61077291906112e6565b600255600580546001600160a01b039586166001600160a01b03199182161790915560068054948616948216949094179093556007805492851692841692909217909155600880549190931691161790555050565b6000546001600160a01b031633146107f15760405162461bcd60e51b815260040161044790611340565b604051637e51dad560e11b81526001600160a01b0382811660048301527f0000000000000000000000000000000000000000000000000000000000000000169063fca3b5aa90602401600060405180830381600087803b15801561085457600080fd5b505af1158015610868573d6000803e3d6000fd5b505060405163f2c098b760e01b81526001600160a01b0384811660048301527f000000000000000000000000000000000000000000000000000000000000000016925063f2c098b79150602401600060405180830381600087803b1580156108cf57600080fd5b505af11580156108e3573d6000803e3d6000fd5b5050505050565b600060647f00000000000000000000000000000000000000000000000000000000000000006001600160a01b03166318160ddd6040518163ffffffff1660e01b8152600401602060405180830381865afa15801561094c573d6000803e3d6000fd5b505050506040513d601f19601f820116820180604052508101906109709190611327565b61097a9190611305565b61034f9060076112e6565b60007f00000000000000000000000000000000000000000000000000000000000000006001600160a01b03166318160ddd6040518163ffffffff1660e01b8152600401602060405180830381865afa1580156109e5573d6000803e3d6000fd5b505050506040513d601f19601f82011682018060405250810190610a099190611327565b7f00000000000000000000000000000000000000000000000000000000000000006001600160a01b03166318160ddd6040518163ffffffff1660e01b8152600401602060405180830381865afa158015610a67573d6000803e3d6000fd5b505050506040513d601f19601f82011682018060405250810190610a8b9190611327565b61034f919061138d565b600254600090610aa862093a8082611375565b4210158015610ac057506003546001600160a01b0316155b156111215762093a80610ad38142611305565b610add91906112e6565b60028190559050610aec6108ea565b6001819055600090610afd9061056f565b9050600060015482610b0f9190611375565b6040516370a0823160e01b81523060048201529091506000906001600160a01b037f000000000000000000000000000000000000000000000000000000000000000016906370a0823190602401602060405180830381865afa158015610b79573d6000803e3d6000fd5b505050506040513d601f19601f82011682018060405250810190610b9d9190611327565b905081811015610c40576001600160a01b037f0000000000000000000000000000000000000000000000000000000000000000166340c10f1930610be1848661138d565b6040516001600160e01b031960e085901b1681526001600160a01b0390921660048301526024820152604401600060405180830381600087803b158015610c2757600080fd5b505af1158015610c3b573d6000803e3d6000fd5b505050505b60405163a9059cbb60e01b81526001600160a01b037f000000000000000000000000000000000000000000000000000000000000000081166004830152602482018590527f0000000000000000000000000000000000000000000000000000000000000000169063a9059cbb906044016020604051808303816000875af1158015610ccf573d6000803e3d6000fd5b505050506040513d601f19601f82011682018060405250810190610cf391906113a4565b610cfc57600080fd5b7f00000000000000000000000000000000000000000000000000000000000000006001600160a01b031663811a40fe6040518163ffffffff1660e01b8152600401600060405180830381600087803b158015610d5757600080fd5b505af1158015610d6b573d6000803e3d6000fd5b505050507f00000000000000000000000000000000000000000000000000000000000000006001600160a01b031663b21ed5026040518163ffffffff1660e01b8152600401600060405180830381600087803b158015610dca57600080fd5b505af1158015610dde573d6000803e3d6000fd5b5050505060006064600154610df39190611305565b610dfe90600a6112e6565b905060006064600154610e119190611305565b610e1c9060286112e6565b905060006064600154610e2f9190611305565b610e3a9060286112e6565b905060006064600154610e4d9190611305565b610e5890600a6112e6565b60055460405163a9059cbb60e01b81526001600160a01b039182166004820152602481018690529192507f0000000000000000000000000000000000000000000000000000000000000000169063a9059cbb906044016020604051808303816000875af1158015610ecd573d6000803e3d6000fd5b505050506040513d601f19601f82011682018060405250810190610ef191906113a4565b5060065460405163a9059cbb60e01b81526001600160a01b039182166004820152602481018490527f00000000000000000000000000000000000000000000000000000000000000009091169063a9059cbb906044016020604051808303816000875af1158015610f66573d6000803e3d6000fd5b505050506040513d601f19601f82011682018060405250810190610f8a91906113a4565b5060075460405163a9059cbb60e01b81526001600160a01b039182166004820152602481018690527f00000000000000000000000000000000000000000000000000000000000000009091169063a9059cbb906044016020604051808303816000875af1158015610fff573d6000803e3d6000fd5b505050506040513d601f19601f8201168201806040525081019061102391906113a4565b5060085460405163a9059cbb60e01b81526001600160a01b039182166004820152602481018390527f00000000000000000000000000000000000000000000000000000000000000009091169063a9059cbb906044016020604051808303816000875af1158015611098573d6000803e3d6000fd5b505050506040513d601f19601f820116820180604052508101906110bc91906113a4565b50336001600160a01b03167fb4c03061fb5b7fed76389d5af8f2e0ddb09f8c70d1333abbb62582835e10accb6001546110f3610985565b6110fb61032c565b6040805193845260208401929092529082015260600160405180910390a2505050505050505b919050565b6000546001600160a01b031633146111505760405162461bcd60e51b815260040161044790611340565b6001600160a01b0381166111b55760405162461bcd60e51b815260206004820152602660248201527f4f776e61626c653a206e6577206f776e657220697320746865207a65726f206160448201526564647265737360d01b6064820152608401610447565b6111be816111c1565b50565b600080546001600160a01b038381166001600160a01b0319831681178455604051919092169283917f8be0079c531659141344cd1fd0a4f28419497f9722a3daafe3b4186f6b6457e09190a35050565b60006020828403121561122357600080fd5b5035919050565b80356001600160a01b038116811461112157600080fd5b60008060008060008060c0878903121561125a57600080fd5b6112638761122a565b9550602087013594506112786040880161122a565b93506112866060880161122a565b92506112946080880161122a565b91506112a260a0880161122a565b90509295509295509295565b6000602082840312156112c057600080fd5b6112c98261122a565b9392505050565b634e487b7160e01b600052601160045260246000fd5b6000816000190483118215151615611300576113006112d0565b500290565b60008261132257634e487b7160e01b600052601260045260246000fd5b500490565b60006020828403121561133957600080fd5b5051919050565b6020808252818101527f4f776e61626c653a2063616c6c6572206973206e6f7420746865206f776e6572604082015260600190565b60008219821115611388576113886112d0565b500190565b60008282101561139f5761139f6112d0565b500390565b6000602082840312156113b657600080fd5b815180151581146112c957600080fdfea2646970667358221220b8b6ddf595457d2ef3de96b95c7abf5b65d4cb4cce4611265444970b318c1c6464736f6c634300080b0033",
  "linkReferences": {},
  "deployedLinkReferences": {}
}