{
  "_format": "hh-sol-artifact-1",
  "contractName": "BaseV1Minter",
  "sourceName": "contracts/BaseV1-minter.sol",
  "abi": [
    {
      "inputs": [
        {
          "internalType": "address",
          "name": "__voter",
          "type": "address"
        },
        {
          "internalType": "address",
          "name": "__ve",
          "type": "address"
        },
        {
          "internalType": "address",
          "name": "__ve_dist",
          "type": "address"
        }
      ],
      "stateMutability": "nonpayable",
      "type": "constructor"
    },
    {
      "anonymous": false,
      "inputs": [
        {
          "indexed": true,
          "internalType": "address",
          "name": "sender",
          "type": "address"
        },
        {
          "indexed": false,
          "internalType": "uint256",
          "name": "weekly",
          "type": "uint256"
        },
        {
          "indexed": false,
          "internalType": "uint256",
          "name": "circulating_supply",
          "type": "uint256"
        },
        {
          "indexed": false,
          "internalType": "uint256",
          "name": "circulating_emission",
          "type": "uint256"
        }
      ],
      "name": "Mint",
      "type": "event"
    },
    {
      "inputs": [],
      "name": "_token",
      "outputs": [
        {
          "internalType": "contract underlying",
          "name": "",
          "type": "address"
        }
      ],
      "stateMutability": "view",
      "type": "function"
    },
    {
      "inputs": [],
      "name": "_ve",
      "outputs": [
        {
          "internalType": "contract ve",
          "name": "",
          "type": "address"
        }
      ],
      "stateMutability": "view",
      "type": "function"
    },
    {
      "inputs": [],
      "name": "_ve_dist",
      "outputs": [
        {
          "internalType": "contract ve_dist",
          "name": "",
          "type": "address"
        }
      ],
      "stateMutability": "view",
      "type": "function"
    },
    {
      "inputs": [],
      "name": "_voter",
      "outputs": [
        {
          "internalType": "contract voter",
          "name": "",
          "type": "address"
        }
      ],
      "stateMutability": "view",
      "type": "function"
    },
    {
      "inputs": [],
      "name": "active_period",
      "outputs": [
        {
          "internalType": "uint256",
          "name": "",
          "type": "uint256"
        }
      ],
      "stateMutability": "view",
      "type": "function"
    },
    {
      "inputs": [],
      "name": "calculate_emission",
      "outputs": [
        {
          "internalType": "uint256",
          "name": "",
          "type": "uint256"
        }
      ],
      "stateMutability": "view",
      "type": "function"
    },
    {
      "inputs": [
        {
          "internalType": "uint256",
          "name": "_minted",
          "type": "uint256"
        }
      ],
      "name": "calculate_growth",
      "outputs": [
        {
          "internalType": "uint256",
          "name": "",
          "type": "uint256"
        }
      ],
      "stateMutability": "view",
      "type": "function"
    },
    {
      "inputs": [],
      "name": "circulating_emission",
      "outputs": [
        {
          "internalType": "uint256",
          "name": "",
          "type": "uint256"
        }
      ],
      "stateMutability": "view",
      "type": "function"
    },
    {
      "inputs": [],
      "name": "circulating_supply",
      "outputs": [
        {
          "internalType": "uint256",
          "name": "",
          "type": "uint256"
        }
      ],
      "stateMutability": "view",
      "type": "function"
    },
    {
      "inputs": [],
      "name": "fetch",
      "outputs": [
        {
          "internalType": "address",
          "name": "",
          "type": "address"
        }
      ],
      "stateMutability": "view",
      "type": "function"
    },
    {
      "inputs": [
        {
          "internalType": "address",
          "name": "_fetch",
          "type": "address"
        },
        {
          "internalType": "uint256",
          "name": "max",
          "type": "uint256"
        }
      ],
      "name": "initialize",
      "outputs": [],
      "stateMutability": "nonpayable",
      "type": "function"
    },
    {
      "inputs": [
        {
          "internalType": "uint256",
          "name": "_amount",
          "type": "uint256"
        }
      ],
      "name": "mintForFetch",
      "outputs": [],
      "stateMutability": "nonpayable",
      "type": "function"
    },
    {
      "inputs": [],
      "name": "update_period",
      "outputs": [
        {
          "internalType": "uint256",
          "name": "",
          "type": "uint256"
        }
      ],
      "stateMutability": "nonpayable",
      "type": "function"
    },
    {
      "inputs": [],
      "name": "weekly",
      "outputs": [
        {
          "internalType": "uint256",
          "name": "",
          "type": "uint256"
        }
      ],
      "stateMutability": "view",
      "type": "function"
    },
    {
      "inputs": [],
      "name": "weekly_emission",
      "outputs": [
        {
          "internalType": "uint256",
          "name": "",
          "type": "uint256"
        }
      ],
      "stateMutability": "view",
      "type": "function"
    }
  ],
  "bytecode": "0x6101006040526a108b2a2c280290940000006000553480156200002157600080fd5b50604051620010ad380380620010ad833981016040819052620000449162000141565b600280546001600160a01b0319163317905560408051637e062a3560e11b815290516001600160a01b0384169163fc0c546a9160048083019260209291908290030181865afa1580156200009c573d6000803e3d6000fd5b505050506040513d601f19601f82011682018060405250810190620000c291906200018b565b6001600160a01b0390811660805283811660a05282811660c052811660e05262093a8080620000f3816002620001c6565b620000ff9042620001e8565b6200010b919062000203565b620001179190620001c6565b6001555062000226915050565b80516001600160a01b03811681146200013c57600080fd5b919050565b6000806000606084860312156200015757600080fd5b620001628462000124565b9250620001726020850162000124565b9150620001826040850162000124565b90509250925092565b6000602082840312156200019e57600080fd5b620001a98262000124565b9392505050565b634e487b7160e01b600052601160045260246000fd5b6000816000190483118215151615620001e357620001e3620001b0565b500290565b60008219821115620001fe57620001fe620001b0565b500190565b6000826200022157634e487b7160e01b600052601260045260246000fd5b500490565b60805160a05160c05160e051610ddd620002d06000396000818161012301528181610947015281816109ee0152610a610152600081816101a6015281816104db015261067c01526000818161016a01528181610b190152610bb301526000818161021f015281816102750152818161039501528181610458015281816105a8015281816106fe01528181610822015281816108a1015281816109760152610aea0152610ddd6000f3fe608060405234801561001057600080fd5b50600436106100f55760003560e01c80638e01fbfa11610097578063d139960811610066578063d139960814610209578063e038c75a14610212578063ecd0c0c31461021a578063ed29fc111461024157600080fd5b80638e01fbfa146101c8578063a95c372d146101db578063cd6dc687146101ee578063cfc6c8ff1461020157600080fd5b806336d96faf116100d357806336d96faf1461015d5780633db9b42a1461016557806344f2ee6e1461018c5780638dd598fb146101a157600080fd5b80631eebae80146100fa57806326cfc17b146101155780632c6b2f0c1461011e575b600080fd5b610102610249565b6040519081526020015b60405180910390f35b61010260005481565b6101457f000000000000000000000000000000000000000000000000000000000000000081565b6040516001600160a01b03909116815260200161010c565b610102610271565b6101457f000000000000000000000000000000000000000000000000000000000000000081565b61019f61019a366004610c95565b610322565b005b6101457f000000000000000000000000000000000000000000000000000000000000000081565b6101026101d6366004610c95565b610454565b600354610145906001600160a01b031681565b61019f6101fc366004610cae565b610575565b61010261065e565b61010260015481565b610102610678565b6101457f000000000000000000000000000000000000000000000000000000000000000081565b610102610788565b60006103e86002610258610678565b6102629190610cfc565b61026c9190610d1b565b905090565b60007f00000000000000000000000000000000000000000000000000000000000000006001600160a01b03166318160ddd6040518163ffffffff1660e01b8152600401602060405180830381865afa1580156102d1573d6000803e3d6000fd5b505050506040513d601f19601f820116820180604052508101906102f59190610d3d565b60646102ff610678565b606260005461030e9190610cfc565b6103189190610cfc565b6102629190610d1b565b6003546001600160a01b0316331461036c5760405162461bcd60e51b815260206004820152600960248201526809cdee840cccae8c6d60bb1b604482015260640160405180910390fd5b6003546040516340c10f1960e01b81526001600160a01b039182166004820152602481018390527f0000000000000000000000000000000000000000000000000000000000000000909116906340c10f1990604401600060405180830381600087803b1580156103db57600080fd5b505af11580156103ef573d6000803e3d6000fd5b50506003546001600160a01b031691507fb4c03061fb5b7fed76389d5af8f2e0ddb09f8c70d1333abbb62582835e10accb90508261042b610678565b610433610249565b6040805193845260208401929092529082015260600160405180910390a250565b60007f00000000000000000000000000000000000000000000000000000000000000006001600160a01b03166318160ddd6040518163ffffffff1660e01b8152600401602060405180830381865afa1580156104b4573d6000803e3d6000fd5b505050506040513d601f19601f820116820180604052508101906104d89190610d3d565b827f00000000000000000000000000000000000000000000000000000000000000006001600160a01b03166318160ddd6040518163ffffffff1660e01b8152600401602060405180830381865afa158015610537573d6000803e3d6000fd5b505050506040513d601f19601f8201168201806040525081019061055b9190610d3d565b6105659190610cfc565b61056f9190610d1b565b92915050565b6002546001600160a01b0316331461058c57600080fd5b6040516340c10f1960e01b8152306004820152602481018290527f00000000000000000000000000000000000000000000000000000000000000006001600160a01b0316906340c10f1990604401600060405180830381600087803b1580156105f457600080fd5b505af1158015610608573d6000803e3d6000fd5b5050600380546001600160a01b0386166001600160a01b0319918216179091556002805490911690555062093a809050806106438142610d56565b61064d9190610d1b565b6106579190610cfc565b6001555050565b600061026c61066b610271565b610673610249565b610c7c565b60007f00000000000000000000000000000000000000000000000000000000000000006001600160a01b03166318160ddd6040518163ffffffff1660e01b8152600401602060405180830381865afa1580156106d8573d6000803e3d6000fd5b505050506040513d601f19601f820116820180604052508101906106fc9190610d3d565b7f00000000000000000000000000000000000000000000000000000000000000006001600160a01b03166318160ddd6040518163ffffffff1660e01b8152600401602060405180830381865afa15801561075a573d6000803e3d6000fd5b505050506040513d601f19601f8201168201806040525081019061077e9190610d3d565b61026c9190610d6e565b60015460009061079b62093a8082610d56565b42101580156107b357506002546001600160a01b0316155b15610c775762093a806107c68142610d1b565b6107d09190610cfc565b600181905590506107df61065e565b6000818155906107ee90610454565b905060008054826107ff9190610d56565b6040516370a0823160e01b81523060048201529091506000906001600160a01b037f000000000000000000000000000000000000000000000000000000000000000016906370a0823190602401602060405180830381865afa158015610869573d6000803e3d6000fd5b505050506040513d601f19601f8201168201806040525081019061088d9190610d3d565b905081811015610930576001600160a01b037f0000000000000000000000000000000000000000000000000000000000000000166340c10f19306108d18486610d6e565b6040516001600160e01b031960e085901b1681526001600160a01b0390921660048301526024820152604401600060405180830381600087803b15801561091757600080fd5b505af115801561092b573d6000803e3d6000fd5b505050505b60405163a9059cbb60e01b81526001600160a01b037f000000000000000000000000000000000000000000000000000000000000000081166004830152602482018590527f0000000000000000000000000000000000000000000000000000000000000000169063a9059cbb906044016020604051808303816000875af11580156109bf573d6000803e3d6000fd5b505050506040513d601f19601f820116820180604052508101906109e39190610d85565b6109ec57600080fd5b7f00000000000000000000000000000000000000000000000000000000000000006001600160a01b031663811a40fe6040518163ffffffff1660e01b8152600401600060405180830381600087803b158015610a4757600080fd5b505af1158015610a5b573d6000803e3d6000fd5b505050507f00000000000000000000000000000000000000000000000000000000000000006001600160a01b031663b21ed5026040518163ffffffff1660e01b8152600401600060405180830381600087803b158015610aba57600080fd5b505af1158015610ace573d6000803e3d6000fd5b505060005460405163095ea7b360e01b81526001600160a01b037f000000000000000000000000000000000000000000000000000000000000000016935063095ea7b39250610b55917f0000000000000000000000000000000000000000000000000000000000000000916004016001600160a01b03929092168252602082015260400190565b6020604051808303816000875af1158015610b74573d6000803e3d6000fd5b505050506040513d601f19601f82011682018060405250810190610b989190610d85565b50600054604051633c6b16ab60e01b815260048101919091527f00000000000000000000000000000000000000000000000000000000000000006001600160a01b031690633c6b16ab90602401600060405180830381600087803b158015610bff57600080fd5b505af1158015610c13573d6000803e3d6000fd5b50505050336001600160a01b03167fb4c03061fb5b7fed76389d5af8f2e0ddb09f8c70d1333abbb62582835e10accb600054610c4d610678565b610c55610249565b6040805193845260208401929092529082015260600160405180910390a25050505b919050565b600081831015610c8c5781610c8e565b825b9392505050565b600060208284031215610ca757600080fd5b5035919050565b60008060408385031215610cc157600080fd5b82356001600160a01b0381168114610cd857600080fd5b946020939093013593505050565b634e487b7160e01b600052601160045260246000fd5b6000816000190483118215151615610d1657610d16610ce6565b500290565b600082610d3857634e487b7160e01b600052601260045260246000fd5b500490565b600060208284031215610d4f57600080fd5b5051919050565b60008219821115610d6957610d69610ce6565b500190565b600082821015610d8057610d80610ce6565b500390565b600060208284031215610d9757600080fd5b81518015158114610c8e57600080fdfea2646970667358221220a6292c2691cbbd87219a36537dd8c9ae3d8824ea12892733b782d3380162f52e64736f6c634300080b0033",
  "linkReferences": {},
  "deployedLinkReferences": {}
}