{
  "_format": "hh-sol-artifact-1",
  "contractName": "BaseV1Minter",
  "sourceName": "contracts/BaseV1-minter.sol",
  "abi": [
    {
      "inputs": [
        {
          "internalType": "address",
          "name": "__voter",
          "type": "address"
        },
        {
          "internalType": "address",
          "name": "__ve",
          "type": "address"
        },
        {
          "internalType": "address",
          "name": "__ve_dist",
          "type": "address"
        }
      ],
      "stateMutability": "nonpayable",
      "type": "constructor"
    },
    {
      "anonymous": false,
      "inputs": [
        {
          "indexed": true,
          "internalType": "address",
          "name": "sender",
          "type": "address"
        },
        {
          "indexed": false,
          "internalType": "uint256",
          "name": "weekly",
          "type": "uint256"
        },
        {
          "indexed": false,
          "internalType": "uint256",
          "name": "circulating_supply",
          "type": "uint256"
        },
        {
          "indexed": false,
          "internalType": "uint256",
          "name": "circulating_emission",
          "type": "uint256"
        }
      ],
      "name": "Mint",
      "type": "event"
    },
    {
      "inputs": [],
      "name": "USDC_USDT_gauge",
      "outputs": [
        {
          "internalType": "address",
          "name": "",
          "type": "address"
        }
      ],
      "stateMutability": "view",
      "type": "function"
    },
    {
      "inputs": [],
      "name": "USDC_yMeta_gauge",
      "outputs": [
        {
          "internalType": "address",
          "name": "",
          "type": "address"
        }
      ],
      "stateMutability": "view",
      "type": "function"
    },
    {
      "inputs": [],
      "name": "_token",
      "outputs": [
        {
          "internalType": "contract underlying",
          "name": "",
          "type": "address"
        }
      ],
      "stateMutability": "view",
      "type": "function"
    },
    {
      "inputs": [],
      "name": "_ve",
      "outputs": [
        {
          "internalType": "contract ve",
          "name": "",
          "type": "address"
        }
      ],
      "stateMutability": "view",
      "type": "function"
    },
    {
      "inputs": [],
      "name": "_ve_dist",
      "outputs": [
        {
          "internalType": "contract ve_dist",
          "name": "",
          "type": "address"
        }
      ],
      "stateMutability": "view",
      "type": "function"
    },
    {
      "inputs": [],
      "name": "_voter",
      "outputs": [
        {
          "internalType": "contract voter",
          "name": "",
          "type": "address"
        }
      ],
      "stateMutability": "view",
      "type": "function"
    },
    {
      "inputs": [],
      "name": "active_period",
      "outputs": [
        {
          "internalType": "uint256",
          "name": "",
          "type": "uint256"
        }
      ],
      "stateMutability": "view",
      "type": "function"
    },
    {
      "inputs": [],
      "name": "calculate_emission",
      "outputs": [
        {
          "internalType": "uint256",
          "name": "",
          "type": "uint256"
        }
      ],
      "stateMutability": "view",
      "type": "function"
    },
    {
      "inputs": [
        {
          "internalType": "uint256",
          "name": "_minted",
          "type": "uint256"
        }
      ],
      "name": "calculate_growth",
      "outputs": [
        {
          "internalType": "uint256",
          "name": "",
          "type": "uint256"
        }
      ],
      "stateMutability": "view",
      "type": "function"
    },
    {
      "inputs": [],
      "name": "circulating_emission",
      "outputs": [
        {
          "internalType": "uint256",
          "name": "",
          "type": "uint256"
        }
      ],
      "stateMutability": "view",
      "type": "function"
    },
    {
      "inputs": [],
      "name": "circulating_supply",
      "outputs": [
        {
          "internalType": "uint256",
          "name": "",
          "type": "uint256"
        }
      ],
      "stateMutability": "view",
      "type": "function"
    },
    {
      "inputs": [],
      "name": "fetch",
      "outputs": [
        {
          "internalType": "address",
          "name": "",
          "type": "address"
        }
      ],
      "stateMutability": "view",
      "type": "function"
    },
    {
      "inputs": [
        {
          "internalType": "address",
          "name": "_fetch",
          "type": "address"
        },
        {
          "internalType": "uint256",
          "name": "max",
          "type": "uint256"
        },
        {
          "internalType": "address",
          "name": "_USDC_USDT_gauge",
          "type": "address"
        },
        {
          "internalType": "address",
          "name": "_USDC_yMeta_gauge",
          "type": "address"
        },
        {
          "internalType": "address",
          "name": "_votersLock",
          "type": "address"
        }
      ],
      "name": "initialize",
      "outputs": [],
      "stateMutability": "nonpayable",
      "type": "function"
    },
    {
      "inputs": [
        {
          "internalType": "uint256",
          "name": "_amount",
          "type": "uint256"
        }
      ],
      "name": "mintForFetch",
      "outputs": [],
      "stateMutability": "nonpayable",
      "type": "function"
    },
    {
      "inputs": [],
      "name": "update_period",
      "outputs": [
        {
          "internalType": "uint256",
          "name": "",
          "type": "uint256"
        }
      ],
      "stateMutability": "nonpayable",
      "type": "function"
    },
    {
      "inputs": [],
      "name": "votersLock",
      "outputs": [
        {
          "internalType": "address",
          "name": "",
          "type": "address"
        }
      ],
      "stateMutability": "view",
      "type": "function"
    },
    {
      "inputs": [],
      "name": "weekly",
      "outputs": [
        {
          "internalType": "uint256",
          "name": "",
          "type": "uint256"
        }
      ],
      "stateMutability": "view",
      "type": "function"
    },
    {
      "inputs": [],
      "name": "weekly_emission",
      "outputs": [
        {
          "internalType": "uint256",
          "name": "",
          "type": "uint256"
        }
      ],
      "stateMutability": "view",
      "type": "function"
    }
  ],
  "bytecode": "0x6101006040526a108b2a2c280290940000006000553480156200002157600080fd5b506040516200138438038062001384833981016040819052620000449162000141565b600280546001600160a01b0319163317905560408051637e062a3560e11b815290516001600160a01b0384169163fc0c546a9160048083019260209291908290030181865afa1580156200009c573d6000803e3d6000fd5b505050506040513d601f19601f82011682018060405250810190620000c291906200018b565b6001600160a01b0390811660805283811660a05282811660c052811660e05262093a8080620000f3816002620001c6565b620000ff9042620001e8565b6200010b919062000203565b620001179190620001c6565b6001555062000226915050565b80516001600160a01b03811681146200013c57600080fd5b919050565b6000806000606084860312156200015757600080fd5b620001628462000124565b9250620001726020850162000124565b9150620001826040850162000124565b90509250925092565b6000602082840312156200019e57600080fd5b620001a98262000124565b9392505050565b634e487b7160e01b600052601160045260246000fd5b6000816000190483118215151615620001e357620001e3620001b0565b500290565b60008219821115620001fe57620001fe620001b0565b500190565b6000826200022157634e487b7160e01b600052601260045260246000fd5b500490565b60805160a05160c05160e0516110a6620002de6000396000818161016f015281816109de01528181610a850152610af80152600081816101ed0152818161053501526107130152600061019e015260008181610279015281816102cf015281816103ef015281816104b20152818161060201528181610795015281816108b90152818161093801528181610a0d01528181610bf001528181610c7b01528181610d0f01528181610d9b0152610e2e01526110a66000f3fe608060405234801561001057600080fd5b50600436106101165760003560e01c80638e01fbfa116100a2578063cfc6c8ff11610071578063cfc6c8ff1461025b578063d139960814610263578063e038c75a1461026c578063ecd0c0c314610274578063ed29fc111461029b57600080fd5b80638e01fbfa1461020f5780639bab5bab14610222578063a01ef25f14610235578063a95c372d1461024857600080fd5b806336d96faf116100e957806336d96faf146101915780633db9b42a1461019957806344e9d755146101c057806344f2ee6e146101d35780638dd598fb146101e857600080fd5b80631eebae801461011b578063254c7f1d1461013657806326cfc17b146101615780632c6b2f0c1461016a575b600080fd5b6101236102a3565b6040519081526020015b60405180910390f35b600654610149906001600160a01b031681565b6040516001600160a01b03909116815260200161012d565b61012360005481565b6101497f000000000000000000000000000000000000000000000000000000000000000081565b6101236102cb565b6101497f000000000000000000000000000000000000000000000000000000000000000081565b600554610149906001600160a01b031681565b6101e66101e1366004610f21565b61037c565b005b6101497f000000000000000000000000000000000000000000000000000000000000000081565b61012361021d366004610f21565b6104ae565b600454610149906001600160a01b031681565b6101e6610243366004610f51565b6105cf565b600354610149906001600160a01b031681565b6101236106f5565b61012360015481565b61012361070f565b6101497f000000000000000000000000000000000000000000000000000000000000000081565b61012361081f565b60006103e860026102b261070f565b6102bc9190610fc5565b6102c69190610fe4565b905090565b60007f00000000000000000000000000000000000000000000000000000000000000006001600160a01b03166318160ddd6040518163ffffffff1660e01b8152600401602060405180830381865afa15801561032b573d6000803e3d6000fd5b505050506040513d601f19601f8201168201806040525081019061034f9190611006565b606461035961070f565b60626000546103689190610fc5565b6103729190610fc5565b6102bc9190610fe4565b6003546001600160a01b031633146103c65760405162461bcd60e51b815260206004820152600960248201526809cdee840cccae8c6d60bb1b604482015260640160405180910390fd5b6003546040516340c10f1960e01b81526001600160a01b039182166004820152602481018390527f0000000000000000000000000000000000000000000000000000000000000000909116906340c10f1990604401600060405180830381600087803b15801561043557600080fd5b505af1158015610449573d6000803e3d6000fd5b50506003546001600160a01b031691507fb4c03061fb5b7fed76389d5af8f2e0ddb09f8c70d1333abbb62582835e10accb90508261048561070f565b61048d6102a3565b6040805193845260208401929092529082015260600160405180910390a250565b60007f00000000000000000000000000000000000000000000000000000000000000006001600160a01b03166318160ddd6040518163ffffffff1660e01b8152600401602060405180830381865afa15801561050e573d6000803e3d6000fd5b505050506040513d601f19601f820116820180604052508101906105329190611006565b827f00000000000000000000000000000000000000000000000000000000000000006001600160a01b03166318160ddd6040518163ffffffff1660e01b8152600401602060405180830381865afa158015610591573d6000803e3d6000fd5b505050506040513d601f19601f820116820180604052508101906105b59190611006565b6105bf9190610fc5565b6105c99190610fe4565b92915050565b6002546001600160a01b031633146105e657600080fd5b6040516340c10f1960e01b8152306004820152602481018590527f00000000000000000000000000000000000000000000000000000000000000006001600160a01b0316906340c10f1990604401600060405180830381600087803b15801561064e57600080fd5b505af1158015610662573d6000803e3d6000fd5b5050600380546001600160a01b0389166001600160a01b0319918216179091556002805490911690555062093a8090508061069d814261101f565b6106a79190610fe4565b6106b19190610fc5565b600155600480546001600160a01b039485166001600160a01b0319918216179091556005805493851693821693909317909255600680549190931691161790555050565b60006102c66107026102cb565b61070a6102a3565b610f08565b60007f00000000000000000000000000000000000000000000000000000000000000006001600160a01b03166318160ddd6040518163ffffffff1660e01b8152600401602060405180830381865afa15801561076f573d6000803e3d6000fd5b505050506040513d601f19601f820116820180604052508101906107939190611006565b7f00000000000000000000000000000000000000000000000000000000000000006001600160a01b03166318160ddd6040518163ffffffff1660e01b8152600401602060405180830381865afa1580156107f1573d6000803e3d6000fd5b505050506040513d601f19601f820116820180604052508101906108159190611006565b6102c69190611037565b60015460009061083262093a808261101f565b421015801561084a57506002546001600160a01b0316155b15610f035762093a8061085d8142610fe4565b6108679190610fc5565b600181905590506108766106f5565b600081815590610885906104ae565b90506000805482610896919061101f565b6040516370a0823160e01b81523060048201529091506000906001600160a01b037f000000000000000000000000000000000000000000000000000000000000000016906370a0823190602401602060405180830381865afa158015610900573d6000803e3d6000fd5b505050506040513d601f19601f820116820180604052508101906109249190611006565b9050818110156109c7576001600160a01b037f0000000000000000000000000000000000000000000000000000000000000000166340c10f19306109688486611037565b6040516001600160e01b031960e085901b1681526001600160a01b0390921660048301526024820152604401600060405180830381600087803b1580156109ae57600080fd5b505af11580156109c2573d6000803e3d6000fd5b505050505b60405163a9059cbb60e01b81526001600160a01b037f000000000000000000000000000000000000000000000000000000000000000081166004830152602482018590527f0000000000000000000000000000000000000000000000000000000000000000169063a9059cbb906044016020604051808303816000875af1158015610a56573d6000803e3d6000fd5b505050506040513d601f19601f82011682018060405250810190610a7a919061104e565b610a8357600080fd5b7f00000000000000000000000000000000000000000000000000000000000000006001600160a01b031663811a40fe6040518163ffffffff1660e01b8152600401600060405180830381600087803b158015610ade57600080fd5b505af1158015610af2573d6000803e3d6000fd5b505050507f00000000000000000000000000000000000000000000000000000000000000006001600160a01b031663b21ed5026040518163ffffffff1660e01b8152600401600060405180830381600087803b158015610b5157600080fd5b505af1158015610b65573d6000803e3d6000fd5b5050505060006064600054610b7a9190610fe4565b610b8590600a610fc5565b905060006064600054610b989190610fe4565b610ba3906028610fc5565b905060006064600054610bb69190610fe4565b610bc1906032610fc5565b6004805460405163095ea7b360e01b81526001600160a01b0391821692810192909252602482018690529192507f00000000000000000000000000000000000000000000000000000000000000009091169063095ea7b3906044016020604051808303816000875af1158015610c3b573d6000803e3d6000fd5b505050506040513d601f19601f82011682018060405250810190610c5f919061104e565b506004805460405163b66503cf60e01b81526001600160a01b037f00000000000000000000000000000000000000000000000000000000000000008116938201939093526024810186905291169063b66503cf90604401600060405180830381600087803b158015610cd057600080fd5b505af1158015610ce4573d6000803e3d6000fd5b505060055460405163095ea7b360e01b81526001600160a01b039182166004820152602481018690527f0000000000000000000000000000000000000000000000000000000000000000909116925063095ea7b391506044016020604051808303816000875af1158015610d5c573d6000803e3d6000fd5b505050506040513d601f19601f82011682018060405250810190610d80919061104e565b5060055460405163b66503cf60e01b81526001600160a01b037f000000000000000000000000000000000000000000000000000000000000000081166004830152602482018590529091169063b66503cf90604401600060405180830381600087803b158015610def57600080fd5b505af1158015610e03573d6000803e3d6000fd5b505060065460405163a9059cbb60e01b81526001600160a01b039182166004820152602481018590527f0000000000000000000000000000000000000000000000000000000000000000909116925063a9059cbb91506044016020604051808303816000875af1158015610e7b573d6000803e3d6000fd5b505050506040513d601f19601f82011682018060405250810190610e9f919061104e565b50336001600160a01b03167fb4c03061fb5b7fed76389d5af8f2e0ddb09f8c70d1333abbb62582835e10accb600054610ed661070f565b610ede6102a3565b6040805193845260208401929092529082015260600160405180910390a25050505050505b919050565b600081831015610f185781610f1a565b825b9392505050565b600060208284031215610f3357600080fd5b5035919050565b80356001600160a01b0381168114610f0357600080fd5b600080600080600060a08688031215610f6957600080fd5b610f7286610f3a565b945060208601359350610f8760408701610f3a565b9250610f9560608701610f3a565b9150610fa360808701610f3a565b90509295509295909350565b634e487b7160e01b600052601160045260246000fd5b6000816000190483118215151615610fdf57610fdf610faf565b500290565b60008261100157634e487b7160e01b600052601260045260246000fd5b500490565b60006020828403121561101857600080fd5b5051919050565b6000821982111561103257611032610faf565b500190565b60008282101561104957611049610faf565b500390565b60006020828403121561106057600080fd5b81518015158114610f1a57600080fdfea26469706673582212209e96faf791a98f24bb67d6e2194265f6ad40bc63e8de913f0a57de6fa152e62164736f6c634300080b0033",
  "linkReferences": {},
  "deployedLinkReferences": {}
}