{
  "_format": "hh-sol-artifact-1",
  "contractName": "BaseV1Minter",
  "sourceName": "contracts/BaseV1-minter.sol",
  "abi": [
    {
      "inputs": [
        {
          "internalType": "address",
          "name": "__voter",
          "type": "address"
        },
        {
          "internalType": "address",
          "name": "__ve",
          "type": "address"
        },
        {
          "internalType": "address",
          "name": "__ve_dist",
          "type": "address"
        },
        {
          "internalType": "uint256",
          "name": "__operUnlockTime",
          "type": "uint256"
        }
      ],
      "stateMutability": "nonpayable",
      "type": "constructor"
    },
    {
      "anonymous": false,
      "inputs": [
        {
          "indexed": true,
          "internalType": "address",
          "name": "sender",
          "type": "address"
        },
        {
          "indexed": false,
          "internalType": "uint256",
          "name": "weekly",
          "type": "uint256"
        },
        {
          "indexed": false,
          "internalType": "uint256",
          "name": "circulating_supply",
          "type": "uint256"
        },
        {
          "indexed": false,
          "internalType": "uint256",
          "name": "circulating_emission",
          "type": "uint256"
        }
      ],
      "name": "Mint",
      "type": "event"
    },
    {
      "anonymous": false,
      "inputs": [
        {
          "indexed": true,
          "internalType": "address",
          "name": "previousOwner",
          "type": "address"
        },
        {
          "indexed": true,
          "internalType": "address",
          "name": "newOwner",
          "type": "address"
        }
      ],
      "name": "OwnershipTransferred",
      "type": "event"
    },
    {
      "inputs": [],
      "name": "_token",
      "outputs": [
        {
          "internalType": "contract underlying",
          "name": "",
          "type": "address"
        }
      ],
      "stateMutability": "view",
      "type": "function"
    },
    {
      "inputs": [],
      "name": "_ve",
      "outputs": [
        {
          "internalType": "contract ve",
          "name": "",
          "type": "address"
        }
      ],
      "stateMutability": "view",
      "type": "function"
    },
    {
      "inputs": [],
      "name": "_ve_dist",
      "outputs": [
        {
          "internalType": "contract ve_dist",
          "name": "",
          "type": "address"
        }
      ],
      "stateMutability": "view",
      "type": "function"
    },
    {
      "inputs": [],
      "name": "_voter",
      "outputs": [
        {
          "internalType": "contract voter",
          "name": "",
          "type": "address"
        }
      ],
      "stateMutability": "view",
      "type": "function"
    },
    {
      "inputs": [],
      "name": "active_period",
      "outputs": [
        {
          "internalType": "uint256",
          "name": "",
          "type": "uint256"
        }
      ],
      "stateMutability": "view",
      "type": "function"
    },
    {
      "inputs": [],
      "name": "calculate_emission",
      "outputs": [
        {
          "internalType": "uint256",
          "name": "",
          "type": "uint256"
        }
      ],
      "stateMutability": "view",
      "type": "function"
    },
    {
      "inputs": [
        {
          "internalType": "uint256",
          "name": "_minted",
          "type": "uint256"
        }
      ],
      "name": "calculate_growth",
      "outputs": [
        {
          "internalType": "uint256",
          "name": "",
          "type": "uint256"
        }
      ],
      "stateMutability": "view",
      "type": "function"
    },
    {
      "inputs": [],
      "name": "circulating_emission",
      "outputs": [
        {
          "internalType": "uint256",
          "name": "",
          "type": "uint256"
        }
      ],
      "stateMutability": "view",
      "type": "function"
    },
    {
      "inputs": [],
      "name": "circulating_supply",
      "outputs": [
        {
          "internalType": "uint256",
          "name": "",
          "type": "uint256"
        }
      ],
      "stateMutability": "view",
      "type": "function"
    },
    {
      "inputs": [],
      "name": "fetch",
      "outputs": [
        {
          "internalType": "address",
          "name": "",
          "type": "address"
        }
      ],
      "stateMutability": "view",
      "type": "function"
    },
    {
      "inputs": [],
      "name": "gaugeDestributor",
      "outputs": [
        {
          "internalType": "address",
          "name": "",
          "type": "address"
        }
      ],
      "stateMutability": "view",
      "type": "function"
    },
    {
      "inputs": [
        {
          "internalType": "address",
          "name": "_fetch",
          "type": "address"
        },
        {
          "internalType": "uint256",
          "name": "max",
          "type": "uint256"
        },
        {
          "internalType": "address",
          "name": "_gaugeDestributor",
          "type": "address"
        },
        {
          "internalType": "address",
          "name": "_votersLock",
          "type": "address"
        },
        {
          "internalType": "address",
          "name": "_operWallet",
          "type": "address"
        }
      ],
      "name": "initialize",
      "outputs": [],
      "stateMutability": "nonpayable",
      "type": "function"
    },
    {
      "inputs": [],
      "name": "isMigrationLocked",
      "outputs": [
        {
          "internalType": "bool",
          "name": "",
          "type": "bool"
        }
      ],
      "stateMutability": "view",
      "type": "function"
    },
    {
      "inputs": [],
      "name": "lockMigrationForever",
      "outputs": [],
      "stateMutability": "nonpayable",
      "type": "function"
    },
    {
      "inputs": [
        {
          "internalType": "address",
          "name": "_newMinter",
          "type": "address"
        }
      ],
      "name": "migrate",
      "outputs": [],
      "stateMutability": "nonpayable",
      "type": "function"
    },
    {
      "inputs": [
        {
          "internalType": "uint256",
          "name": "_amount",
          "type": "uint256"
        }
      ],
      "name": "mintForFetch",
      "outputs": [],
      "stateMutability": "nonpayable",
      "type": "function"
    },
    {
      "inputs": [],
      "name": "operUnlockDate",
      "outputs": [
        {
          "internalType": "uint256",
          "name": "",
          "type": "uint256"
        }
      ],
      "stateMutability": "view",
      "type": "function"
    },
    {
      "inputs": [],
      "name": "operWallet",
      "outputs": [
        {
          "internalType": "address",
          "name": "",
          "type": "address"
        }
      ],
      "stateMutability": "view",
      "type": "function"
    },
    {
      "inputs": [],
      "name": "owner",
      "outputs": [
        {
          "internalType": "address",
          "name": "",
          "type": "address"
        }
      ],
      "stateMutability": "view",
      "type": "function"
    },
    {
      "inputs": [],
      "name": "percentReduce",
      "outputs": [
        {
          "internalType": "uint256",
          "name": "",
          "type": "uint256"
        }
      ],
      "stateMutability": "view",
      "type": "function"
    },
    {
      "inputs": [],
      "name": "renounceOwnership",
      "outputs": [],
      "stateMutability": "nonpayable",
      "type": "function"
    },
    {
      "inputs": [
        {
          "internalType": "address",
          "name": "newOwner",
          "type": "address"
        }
      ],
      "name": "transferOwnership",
      "outputs": [],
      "stateMutability": "nonpayable",
      "type": "function"
    },
    {
      "inputs": [
        {
          "internalType": "address",
          "name": "_fetch",
          "type": "address"
        }
      ],
      "name": "updateFetch",
      "outputs": [],
      "stateMutability": "nonpayable",
      "type": "function"
    },
    {
      "inputs": [],
      "name": "update_period",
      "outputs": [
        {
          "internalType": "uint256",
          "name": "",
          "type": "uint256"
        }
      ],
      "stateMutability": "nonpayable",
      "type": "function"
    },
    {
      "inputs": [],
      "name": "votersLock",
      "outputs": [
        {
          "internalType": "address",
          "name": "",
          "type": "address"
        }
      ],
      "stateMutability": "view",
      "type": "function"
    },
    {
      "inputs": [],
      "name": "weekly",
      "outputs": [
        {
          "internalType": "uint256",
          "name": "",
          "type": "uint256"
        }
      ],
      "stateMutability": "view",
      "type": "function"
    },
    {
      "inputs": [],
      "name": "weekly_emission",
      "outputs": [
        {
          "internalType": "uint256",
          "name": "",
          "type": "uint256"
        }
      ],
      "stateMutability": "view",
      "type": "function"
    }
  ],
  "bytecode": "0x6101006040526a108b2a2c280290940000006001556136b0600855600a805460ff191690553480156200003157600080fd5b50604051620018d7380380620018d78339810160408190526200005491620001bc565b6200005f336200014f565b600380546001600160a01b0319163317905560408051637e062a3560e11b815290516001600160a01b0385169163fc0c546a9160048083019260209291908290030181865afa158015620000b7573d6000803e3d6000fd5b505050506040513d601f19601f82011682018060405250810190620000dd91906200020e565b6001600160a01b0390811660805284811660a05283811660c052821660e05262093a80806200010e81600262000249565b6200011a90426200026b565b62000126919062000286565b62000132919062000249565b6002556200014181426200026b565b60095550620002a992505050565b600080546001600160a01b038381166001600160a01b0319831681178455604051919092169283917f8be0079c531659141344cd1fd0a4f28419497f9722a3daafe3b4186f6b6457e09190a35050565b80516001600160a01b0381168114620001b757600080fd5b919050565b60008060008060808587031215620001d357600080fd5b620001de856200019f565b9350620001ee602086016200019f565b9250620001fe604086016200019f565b6060959095015193969295505050565b6000602082840312156200022157600080fd5b6200022c826200019f565b9392505050565b634e487b7160e01b600052601160045260246000fd5b600081600019048311821515161562000266576200026662000233565b500290565b6000821982111562000281576200028162000233565b500190565b600082620002a457634e487b7160e01b600052601260045260246000fd5b500490565b60805160a05160c05160e0516115686200036f600039600081816102020152818161098a01528181610e6a01528181610f110152610f840152600081816102da015281816106c20152610b550152600081816102310152610a05015260008181610382015281816103eb0152818161050f0152818161063f0152818161078f0152818161091101528181610a7101528181610bd701528181610d4501528181610dc401528181610e99015281816110790152818161111001526111c801526115686000f3fe608060405234801561001057600080fd5b50600436106101a95760003560e01c80638da5cb5b116100f9578063d139960811610097578063e0f89a9f11610071578063e0f89a9f14610374578063ecd0c0c31461037d578063ed29fc11146103a4578063f2fde38b146103ac57600080fd5b8063d139960814610350578063d5de085e14610359578063e038c75a1461036c57600080fd5b8063a01ef25f116100d3578063a01ef25f1461030f578063a95c372d14610322578063ce5494bb14610335578063cfc6c8ff1461034857600080fd5b80638da5cb5b146102c45780638dd598fb146102d55780638e01fbfa146102fc57600080fd5b806340a6fa9d11610166578063715018a611610140578063715018a614610298578063755dd3d5146102a057806380ac5e75146102a8578063850ff9ed146102bb57600080fd5b806340a6fa9d1461025357806344f2ee6e14610266578063709668111461027b57600080fd5b80631eebae80146101ae578063254c7f1d146101c957806326cfc17b146101f45780632c6b2f0c146101fd57806336d96faf146102245780633db9b42a1461022c575b600080fd5b6101b66103bf565b6040519081526020015b60405180910390f35b6006546101dc906001600160a01b031681565b6040516001600160a01b0390911681526020016101c0565b6101b660015481565b6101dc7f000000000000000000000000000000000000000000000000000000000000000081565b6101b66103e7565b6101dc7f000000000000000000000000000000000000000000000000000000000000000081565b6005546101dc906001600160a01b031681565b61027961027436600461138c565b610498565b005b600a546102889060ff1681565b60405190151581526020016101c0565b6102796105cc565b610279610602565b6007546101dc906001600160a01b031681565b6101b660095481565b6000546001600160a01b03166101dc565b6101dc7f000000000000000000000000000000000000000000000000000000000000000081565b6101b661030a36600461138c565b61063b565b61027961031d3660046113bc565b61075c565b6004546101dc906001600160a01b031681565b61027961034336600461141a565b610882565b6101b6610a66565b6101b660025481565b61027961036736600461141a565b610b05565b6101b6610b51565b6101b660085481565b6101dc7f000000000000000000000000000000000000000000000000000000000000000081565b6101b6610c61565b6102796103ba36600461141a565b6112a1565b60006103e860026103ce610b51565b6103d89190611452565b6103e29190611471565b905090565b60007f00000000000000000000000000000000000000000000000000000000000000006001600160a01b03166318160ddd6040518163ffffffff1660e01b8152600401602060405180830381865afa158015610447573d6000803e3d6000fd5b505050506040513d601f19601f8201168201806040525081019061046b9190611493565b6064610475610b51565b60626001546104849190611452565b61048e9190611452565b6103d89190611471565b6004546001600160a01b031633146104e35760405162461bcd60e51b815260206004820152600960248201526809cdee840cccae8c6d60bb1b60448201526064015b60405180910390fd5b600480546040516340c10f1960e01b81526001600160a01b0391821692810192909252602482018390527f000000000000000000000000000000000000000000000000000000000000000016906340c10f1990604401600060405180830381600087803b15801561055357600080fd5b505af1158015610567573d6000803e3d6000fd5b50506004546001600160a01b031691507fb4c03061fb5b7fed76389d5af8f2e0ddb09f8c70d1333abbb62582835e10accb9050826105a3610b51565b6105ab6103bf565b6040805193845260208401929092529082015260600160405180910390a250565b6000546001600160a01b031633146105f65760405162461bcd60e51b81526004016104da906114ac565b610600600061133c565b565b6000546001600160a01b0316331461062c5760405162461bcd60e51b81526004016104da906114ac565b600a805460ff19166001179055565b60007f00000000000000000000000000000000000000000000000000000000000000006001600160a01b03166318160ddd6040518163ffffffff1660e01b8152600401602060405180830381865afa15801561069b573d6000803e3d6000fd5b505050506040513d601f19601f820116820180604052508101906106bf9190611493565b827f00000000000000000000000000000000000000000000000000000000000000006001600160a01b03166318160ddd6040518163ffffffff1660e01b8152600401602060405180830381865afa15801561071e573d6000803e3d6000fd5b505050506040513d601f19601f820116820180604052508101906107429190611493565b61074c9190611452565b6107569190611471565b92915050565b6003546001600160a01b0316331461077357600080fd5b6040516340c10f1960e01b8152306004820152602481018590527f00000000000000000000000000000000000000000000000000000000000000006001600160a01b0316906340c10f1990604401600060405180830381600087803b1580156107db57600080fd5b505af11580156107ef573d6000803e3d6000fd5b5050600480546001600160a01b0389166001600160a01b0319918216179091556003805490911690555062093a8090508061082a81426114e1565b6108349190611471565b61083e9190611452565b600255600580546001600160a01b039485166001600160a01b0319918216179091556006805493851693821693909317909255600780549190931691161790555050565b6000546001600160a01b031633146108ac5760405162461bcd60e51b81526004016104da906114ac565b600a5460ff16156108f25760405162461bcd60e51b815260206004820152601060248201526f135a59dc985d1a5bdb881b1bd8dad95960821b60448201526064016104da565b604051637e51dad560e11b81526001600160a01b0382811660048301527f0000000000000000000000000000000000000000000000000000000000000000169063fca3b5aa90602401600060405180830381600087803b15801561095557600080fd5b505af1158015610969573d6000803e3d6000fd5b505060405163f2c098b760e01b81526001600160a01b0384811660048301527f000000000000000000000000000000000000000000000000000000000000000016925063f2c098b79150602401600060405180830381600087803b1580156109d057600080fd5b505af11580156109e4573d6000803e3d6000fd5b50506040516327581fb760e11b81526001600160a01b0384811660048301527f0000000000000000000000000000000000000000000000000000000000000000169250634eb03f6e9150602401600060405180830381600087803b158015610a4b57600080fd5b505af1158015610a5f573d6000803e3d6000fd5b5050505050565b6000600854620186a07f00000000000000000000000000000000000000000000000000000000000000006001600160a01b03166318160ddd6040518163ffffffff1660e01b8152600401602060405180830381865afa158015610acd573d6000803e3d6000fd5b505050506040513d601f19601f82011682018060405250810190610af19190611493565b610afb9190611471565b6103e29190611452565b6000546001600160a01b03163314610b2f5760405162461bcd60e51b81526004016104da906114ac565b600480546001600160a01b0319166001600160a01b0392909216919091179055565b60007f00000000000000000000000000000000000000000000000000000000000000006001600160a01b03166318160ddd6040518163ffffffff1660e01b8152600401602060405180830381865afa158015610bb1573d6000803e3d6000fd5b505050506040513d601f19601f82011682018060405250810190610bd59190611493565b7f00000000000000000000000000000000000000000000000000000000000000006001600160a01b03166318160ddd6040518163ffffffff1660e01b8152600401602060405180830381865afa158015610c33573d6000803e3d6000fd5b505050506040513d601f19601f82011682018060405250810190610c579190611493565b6103e291906114f9565b600254600090610c7462093a80826114e1565b4210158015610c8c57506003546001600160a01b0316155b1561129c5760646008541115610cd2576064600854610cab9190611471565b610cb6906002611452565b60086000828254610cc791906114f9565b90915550610cd89050565b60006008555b62093a80610ce68142611471565b610cf09190611452565b60028190559050610cff610a66565b6001819055600090610d109061063b565b9050600060015482610d2291906114e1565b6040516370a0823160e01b81523060048201529091506000906001600160a01b037f000000000000000000000000000000000000000000000000000000000000000016906370a0823190602401602060405180830381865afa158015610d8c573d6000803e3d6000fd5b505050506040513d601f19601f82011682018060405250810190610db09190611493565b905081811015610e53576001600160a01b037f0000000000000000000000000000000000000000000000000000000000000000166340c10f1930610df484866114f9565b6040516001600160e01b031960e085901b1681526001600160a01b0390921660048301526024820152604401600060405180830381600087803b158015610e3a57600080fd5b505af1158015610e4e573d6000803e3d6000fd5b505050505b60405163a9059cbb60e01b81526001600160a01b037f000000000000000000000000000000000000000000000000000000000000000081166004830152602482018590527f0000000000000000000000000000000000000000000000000000000000000000169063a9059cbb906044016020604051808303816000875af1158015610ee2573d6000803e3d6000fd5b505050506040513d601f19601f82011682018060405250810190610f069190611510565b610f0f57600080fd5b7f00000000000000000000000000000000000000000000000000000000000000006001600160a01b031663811a40fe6040518163ffffffff1660e01b8152600401600060405180830381600087803b158015610f6a57600080fd5b505af1158015610f7e573d6000803e3d6000fd5b505050507f00000000000000000000000000000000000000000000000000000000000000006001600160a01b031663b21ed5026040518163ffffffff1660e01b8152600401600060405180830381600087803b158015610fdd57600080fd5b505af1158015610ff1573d6000803e3d6000fd5b50505050600060646001546110069190611471565b611011906022611452565b9050600060646001546110249190611471565b61102f906021611452565b9050600060646001546110429190611471565b61104d906021611452565b60055460405163a9059cbb60e01b81526001600160a01b039182166004820152602481018590529192507f0000000000000000000000000000000000000000000000000000000000000000169063a9059cbb906044016020604051808303816000875af11580156110c2573d6000803e3d6000fd5b505050506040513d601f19601f820116820180604052508101906110e69190611510565b5060065460405163a9059cbb60e01b81526001600160a01b039182166004820152602481018390527f00000000000000000000000000000000000000000000000000000000000000009091169063a9059cbb906044016020604051808303816000875af115801561115b573d6000803e3d6000fd5b505050506040513d601f19601f8201168201806040525081019061117f9190611510565b506000600954421161119257600061119f565b6007546001600160a01b03165b60405163a9059cbb60e01b81526001600160a01b038083166004830152602482018790529192507f00000000000000000000000000000000000000000000000000000000000000009091169063a9059cbb906044016020604051808303816000875af1158015611213573d6000803e3d6000fd5b505050506040513d601f19601f820116820180604052508101906112379190611510565b50336001600160a01b03167fb4c03061fb5b7fed76389d5af8f2e0ddb09f8c70d1333abbb62582835e10accb60015461126e610b51565b6112766103bf565b6040805193845260208401929092529082015260600160405180910390a2505050505050505b919050565b6000546001600160a01b031633146112cb5760405162461bcd60e51b81526004016104da906114ac565b6001600160a01b0381166113305760405162461bcd60e51b815260206004820152602660248201527f4f776e61626c653a206e6577206f776e657220697320746865207a65726f206160448201526564647265737360d01b60648201526084016104da565b6113398161133c565b50565b600080546001600160a01b038381166001600160a01b0319831681178455604051919092169283917f8be0079c531659141344cd1fd0a4f28419497f9722a3daafe3b4186f6b6457e09190a35050565b60006020828403121561139e57600080fd5b5035919050565b80356001600160a01b038116811461129c57600080fd5b600080600080600060a086880312156113d457600080fd5b6113dd866113a5565b9450602086013593506113f2604087016113a5565b9250611400606087016113a5565b915061140e608087016113a5565b90509295509295909350565b60006020828403121561142c57600080fd5b611435826113a5565b9392505050565b634e487b7160e01b600052601160045260246000fd5b600081600019048311821515161561146c5761146c61143c565b500290565b60008261148e57634e487b7160e01b600052601260045260246000fd5b500490565b6000602082840312156114a557600080fd5b5051919050565b6020808252818101527f4f776e61626c653a2063616c6c6572206973206e6f7420746865206f776e6572604082015260600190565b600082198211156114f4576114f461143c565b500190565b60008282101561150b5761150b61143c565b500390565b60006020828403121561152257600080fd5b8151801515811461143557600080fdfea2646970667358221220b92b7b2c1347a5071ad2845f0f909d293fe23fdb826ca331892e6ced11540bbe64736f6c634300080b0033",
  "linkReferences": {},
  "deployedLinkReferences": {}
}