{
  "_format": "hh-sol-artifact-1",
  "contractName": "BaseV1Minter",
  "sourceName": "contracts/BaseV1-minter.sol",
  "abi": [
    {
      "inputs": [
        {
          "internalType": "address",
          "name": "__voter",
          "type": "address"
        },
        {
          "internalType": "address",
          "name": "__ve",
          "type": "address"
        },
        {
          "internalType": "address",
          "name": "__ve_dist",
          "type": "address"
        },
        {
          "internalType": "uint256",
          "name": "__operUnlockTime",
          "type": "uint256"
        }
      ],
      "stateMutability": "nonpayable",
      "type": "constructor"
    },
    {
      "anonymous": false,
      "inputs": [
        {
          "indexed": true,
          "internalType": "address",
          "name": "sender",
          "type": "address"
        },
        {
          "indexed": false,
          "internalType": "uint256",
          "name": "weekly",
          "type": "uint256"
        },
        {
          "indexed": false,
          "internalType": "uint256",
          "name": "circulating_supply",
          "type": "uint256"
        },
        {
          "indexed": false,
          "internalType": "uint256",
          "name": "circulating_emission",
          "type": "uint256"
        }
      ],
      "name": "Mint",
      "type": "event"
    },
    {
      "anonymous": false,
      "inputs": [
        {
          "indexed": true,
          "internalType": "address",
          "name": "previousOwner",
          "type": "address"
        },
        {
          "indexed": true,
          "internalType": "address",
          "name": "newOwner",
          "type": "address"
        }
      ],
      "name": "OwnershipTransferred",
      "type": "event"
    },
    {
      "inputs": [],
      "name": "_token",
      "outputs": [
        {
          "internalType": "contract underlying",
          "name": "",
          "type": "address"
        }
      ],
      "stateMutability": "view",
      "type": "function"
    },
    {
      "inputs": [],
      "name": "_ve",
      "outputs": [
        {
          "internalType": "contract ve",
          "name": "",
          "type": "address"
        }
      ],
      "stateMutability": "view",
      "type": "function"
    },
    {
      "inputs": [],
      "name": "_ve_dist",
      "outputs": [
        {
          "internalType": "contract ve_dist",
          "name": "",
          "type": "address"
        }
      ],
      "stateMutability": "view",
      "type": "function"
    },
    {
      "inputs": [],
      "name": "_voter",
      "outputs": [
        {
          "internalType": "contract voter",
          "name": "",
          "type": "address"
        }
      ],
      "stateMutability": "view",
      "type": "function"
    },
    {
      "inputs": [],
      "name": "active_period",
      "outputs": [
        {
          "internalType": "uint256",
          "name": "",
          "type": "uint256"
        }
      ],
      "stateMutability": "view",
      "type": "function"
    },
    {
      "inputs": [],
      "name": "calculate_emission",
      "outputs": [
        {
          "internalType": "uint256",
          "name": "",
          "type": "uint256"
        }
      ],
      "stateMutability": "view",
      "type": "function"
    },
    {
      "inputs": [
        {
          "internalType": "uint256",
          "name": "_minted",
          "type": "uint256"
        }
      ],
      "name": "calculate_growth",
      "outputs": [
        {
          "internalType": "uint256",
          "name": "",
          "type": "uint256"
        }
      ],
      "stateMutability": "view",
      "type": "function"
    },
    {
      "inputs": [],
      "name": "circulating_emission",
      "outputs": [
        {
          "internalType": "uint256",
          "name": "",
          "type": "uint256"
        }
      ],
      "stateMutability": "view",
      "type": "function"
    },
    {
      "inputs": [],
      "name": "circulating_supply",
      "outputs": [
        {
          "internalType": "uint256",
          "name": "",
          "type": "uint256"
        }
      ],
      "stateMutability": "view",
      "type": "function"
    },
    {
      "inputs": [],
      "name": "fetch",
      "outputs": [
        {
          "internalType": "address",
          "name": "",
          "type": "address"
        }
      ],
      "stateMutability": "view",
      "type": "function"
    },
    {
      "inputs": [],
      "name": "gaugeDestributor",
      "outputs": [
        {
          "internalType": "address",
          "name": "",
          "type": "address"
        }
      ],
      "stateMutability": "view",
      "type": "function"
    },
    {
      "inputs": [
        {
          "internalType": "address",
          "name": "_fetch",
          "type": "address"
        },
        {
          "internalType": "uint256",
          "name": "max",
          "type": "uint256"
        },
        {
          "internalType": "address",
          "name": "_gaugeDestributor",
          "type": "address"
        },
        {
          "internalType": "address",
          "name": "_votersLock",
          "type": "address"
        },
        {
          "internalType": "address",
          "name": "_operWallet",
          "type": "address"
        }
      ],
      "name": "initialize",
      "outputs": [],
      "stateMutability": "nonpayable",
      "type": "function"
    },
    {
      "inputs": [
        {
          "internalType": "address",
          "name": "_newMinter",
          "type": "address"
        }
      ],
      "name": "migrate",
      "outputs": [],
      "stateMutability": "nonpayable",
      "type": "function"
    },
    {
      "inputs": [
        {
          "internalType": "uint256",
          "name": "_amount",
          "type": "uint256"
        }
      ],
      "name": "mintForFetch",
      "outputs": [],
      "stateMutability": "nonpayable",
      "type": "function"
    },
    {
      "inputs": [],
      "name": "operUnlockDate",
      "outputs": [
        {
          "internalType": "uint256",
          "name": "",
          "type": "uint256"
        }
      ],
      "stateMutability": "view",
      "type": "function"
    },
    {
      "inputs": [],
      "name": "operWallet",
      "outputs": [
        {
          "internalType": "address",
          "name": "",
          "type": "address"
        }
      ],
      "stateMutability": "view",
      "type": "function"
    },
    {
      "inputs": [],
      "name": "owner",
      "outputs": [
        {
          "internalType": "address",
          "name": "",
          "type": "address"
        }
      ],
      "stateMutability": "view",
      "type": "function"
    },
    {
      "inputs": [],
      "name": "percentReduce",
      "outputs": [
        {
          "internalType": "uint256",
          "name": "",
          "type": "uint256"
        }
      ],
      "stateMutability": "view",
      "type": "function"
    },
    {
      "inputs": [],
      "name": "renounceOwnership",
      "outputs": [],
      "stateMutability": "nonpayable",
      "type": "function"
    },
    {
      "inputs": [
        {
          "internalType": "address",
          "name": "newOwner",
          "type": "address"
        }
      ],
      "name": "transferOwnership",
      "outputs": [],
      "stateMutability": "nonpayable",
      "type": "function"
    },
    {
      "inputs": [
        {
          "internalType": "address",
          "name": "_fetch",
          "type": "address"
        }
      ],
      "name": "updateFetch",
      "outputs": [],
      "stateMutability": "nonpayable",
      "type": "function"
    },
    {
      "inputs": [],
      "name": "update_period",
      "outputs": [
        {
          "internalType": "uint256",
          "name": "",
          "type": "uint256"
        }
      ],
      "stateMutability": "nonpayable",
      "type": "function"
    },
    {
      "inputs": [],
      "name": "votersLock",
      "outputs": [
        {
          "internalType": "address",
          "name": "",
          "type": "address"
        }
      ],
      "stateMutability": "view",
      "type": "function"
    },
    {
      "inputs": [],
      "name": "weekly",
      "outputs": [
        {
          "internalType": "uint256",
          "name": "",
          "type": "uint256"
        }
      ],
      "stateMutability": "view",
      "type": "function"
    },
    {
      "inputs": [],
      "name": "weekly_emission",
      "outputs": [
        {
          "internalType": "uint256",
          "name": "",
          "type": "uint256"
        }
      ],
      "stateMutability": "view",
      "type": "function"
    }
  ],
  "bytecode": "0x6101006040526a108b2a2c280290940000006001556136b06008553480156200002757600080fd5b50604051620017f3380380620017f38339810160408190526200004a91620001b2565b620000553362000145565b600380546001600160a01b0319163317905560408051637e062a3560e11b815290516001600160a01b0385169163fc0c546a9160048083019260209291908290030181865afa158015620000ad573d6000803e3d6000fd5b505050506040513d601f19601f82011682018060405250810190620000d3919062000204565b6001600160a01b0390811660805284811660a05283811660c052821660e05262093a8080620001048160026200023f565b62000110904262000261565b6200011c91906200027c565b6200012891906200023f565b60025562000137814262000261565b600955506200029f92505050565b600080546001600160a01b038381166001600160a01b0319831681178455604051919092169283917f8be0079c531659141344cd1fd0a4f28419497f9722a3daafe3b4186f6b6457e09190a35050565b80516001600160a01b0381168114620001ad57600080fd5b919050565b60008060008060808587031215620001c957600080fd5b620001d48562000195565b9350620001e46020860162000195565b9250620001f46040860162000195565b6060959095015193969295505050565b6000602082840312156200021757600080fd5b620002228262000195565b9392505050565b634e487b7160e01b600052601160045260246000fd5b60008160001904831182151516156200025c576200025c62000229565b500290565b6000821982111562000277576200027762000229565b500190565b6000826200029a57634e487b7160e01b600052601260045260246000fd5b500490565b60805160a05160c05160e05161148e62000365600039600081816101cc015281816108b001528181610d9001528181610e370152610eaa01526000818161027f0152818161062e0152610a7b0152600081816101fb015261092b01526000818161032701528181610390015281816104b4015281816105ab015281816106fb015281816108370152818161099701528181610afd01528181610c6b01528181610cea01528181610dbf01528181610f9f0152818161103601526110ee015261148e6000f3fe608060405234801561001057600080fd5b50600436106101735760003560e01c80638dd598fb116100de578063d139960811610097578063e0f89a9f11610071578063e0f89a9f14610319578063ecd0c0c314610322578063ed29fc1114610349578063f2fde38b1461035157600080fd5b8063d1399608146102f5578063d5de085e146102fe578063e038c75a1461031157600080fd5b80638dd598fb1461027a5780638e01fbfa146102a1578063a01ef25f146102b4578063a95c372d146102c7578063ce5494bb146102da578063cfc6c8ff146102ed57600080fd5b806340a6fa9d1161013057806340a6fa9d1461021d57806344f2ee6e14610230578063715018a61461024557806380ac5e751461024d578063850ff9ed146102605780638da5cb5b1461026957600080fd5b80631eebae8014610178578063254c7f1d1461019357806326cfc17b146101be5780632c6b2f0c146101c757806336d96faf146101ee5780633db9b42a146101f6575b600080fd5b610180610364565b6040519081526020015b60405180910390f35b6006546101a6906001600160a01b031681565b6040516001600160a01b03909116815260200161018a565b61018060015481565b6101a67f000000000000000000000000000000000000000000000000000000000000000081565b61018061038c565b6101a67f000000000000000000000000000000000000000000000000000000000000000081565b6005546101a6906001600160a01b031681565b61024361023e3660046112b2565b61043d565b005b610243610571565b6007546101a6906001600160a01b031681565b61018060095481565b6000546001600160a01b03166101a6565b6101a67f000000000000000000000000000000000000000000000000000000000000000081565b6101806102af3660046112b2565b6105a7565b6102436102c23660046112e2565b6106c8565b6004546101a6906001600160a01b031681565b6102436102e8366004611340565b6107ee565b61018061098c565b61018060025481565b61024361030c366004611340565b610a2b565b610180610a77565b61018060085481565b6101a67f000000000000000000000000000000000000000000000000000000000000000081565b610180610b87565b61024361035f366004611340565b6111c7565b60006103e86002610373610a77565b61037d9190611378565b6103879190611397565b905090565b60007f00000000000000000000000000000000000000000000000000000000000000006001600160a01b03166318160ddd6040518163ffffffff1660e01b8152600401602060405180830381865afa1580156103ec573d6000803e3d6000fd5b505050506040513d601f19601f8201168201806040525081019061041091906113b9565b606461041a610a77565b60626001546104299190611378565b6104339190611378565b61037d9190611397565b6004546001600160a01b031633146104885760405162461bcd60e51b815260206004820152600960248201526809cdee840cccae8c6d60bb1b60448201526064015b60405180910390fd5b600480546040516340c10f1960e01b81526001600160a01b0391821692810192909252602482018390527f000000000000000000000000000000000000000000000000000000000000000016906340c10f1990604401600060405180830381600087803b1580156104f857600080fd5b505af115801561050c573d6000803e3d6000fd5b50506004546001600160a01b031691507fb4c03061fb5b7fed76389d5af8f2e0ddb09f8c70d1333abbb62582835e10accb905082610548610a77565b610550610364565b6040805193845260208401929092529082015260600160405180910390a250565b6000546001600160a01b0316331461059b5760405162461bcd60e51b815260040161047f906113d2565b6105a56000611262565b565b60007f00000000000000000000000000000000000000000000000000000000000000006001600160a01b03166318160ddd6040518163ffffffff1660e01b8152600401602060405180830381865afa158015610607573d6000803e3d6000fd5b505050506040513d601f19601f8201168201806040525081019061062b91906113b9565b827f00000000000000000000000000000000000000000000000000000000000000006001600160a01b03166318160ddd6040518163ffffffff1660e01b8152600401602060405180830381865afa15801561068a573d6000803e3d6000fd5b505050506040513d601f19601f820116820180604052508101906106ae91906113b9565b6106b89190611378565b6106c29190611397565b92915050565b6003546001600160a01b031633146106df57600080fd5b6040516340c10f1960e01b8152306004820152602481018590527f00000000000000000000000000000000000000000000000000000000000000006001600160a01b0316906340c10f1990604401600060405180830381600087803b15801561074757600080fd5b505af115801561075b573d6000803e3d6000fd5b5050600480546001600160a01b0389166001600160a01b0319918216179091556003805490911690555062093a809050806107968142611407565b6107a09190611397565b6107aa9190611378565b600255600580546001600160a01b039485166001600160a01b0319918216179091556006805493851693821693909317909255600780549190931691161790555050565b6000546001600160a01b031633146108185760405162461bcd60e51b815260040161047f906113d2565b604051637e51dad560e11b81526001600160a01b0382811660048301527f0000000000000000000000000000000000000000000000000000000000000000169063fca3b5aa90602401600060405180830381600087803b15801561087b57600080fd5b505af115801561088f573d6000803e3d6000fd5b505060405163f2c098b760e01b81526001600160a01b0384811660048301527f000000000000000000000000000000000000000000000000000000000000000016925063f2c098b79150602401600060405180830381600087803b1580156108f657600080fd5b505af115801561090a573d6000803e3d6000fd5b50506040516327581fb760e11b81526001600160a01b0384811660048301527f0000000000000000000000000000000000000000000000000000000000000000169250634eb03f6e9150602401600060405180830381600087803b15801561097157600080fd5b505af1158015610985573d6000803e3d6000fd5b5050505050565b6000600854620186a07f00000000000000000000000000000000000000000000000000000000000000006001600160a01b03166318160ddd6040518163ffffffff1660e01b8152600401602060405180830381865afa1580156109f3573d6000803e3d6000fd5b505050506040513d601f19601f82011682018060405250810190610a1791906113b9565b610a219190611397565b6103879190611378565b6000546001600160a01b03163314610a555760405162461bcd60e51b815260040161047f906113d2565b600480546001600160a01b0319166001600160a01b0392909216919091179055565b60007f00000000000000000000000000000000000000000000000000000000000000006001600160a01b03166318160ddd6040518163ffffffff1660e01b8152600401602060405180830381865afa158015610ad7573d6000803e3d6000fd5b505050506040513d601f19601f82011682018060405250810190610afb91906113b9565b7f00000000000000000000000000000000000000000000000000000000000000006001600160a01b03166318160ddd6040518163ffffffff1660e01b8152600401602060405180830381865afa158015610b59573d6000803e3d6000fd5b505050506040513d601f19601f82011682018060405250810190610b7d91906113b9565b610387919061141f565b600254600090610b9a62093a8082611407565b4210158015610bb257506003546001600160a01b0316155b156111c25760646008541115610bf8576064600854610bd19190611397565b610bdc906002611378565b60086000828254610bed919061141f565b90915550610bfe9050565b60006008555b62093a80610c0c8142611397565b610c169190611378565b60028190559050610c2561098c565b6001819055600090610c36906105a7565b9050600060015482610c489190611407565b6040516370a0823160e01b81523060048201529091506000906001600160a01b037f000000000000000000000000000000000000000000000000000000000000000016906370a0823190602401602060405180830381865afa158015610cb2573d6000803e3d6000fd5b505050506040513d601f19601f82011682018060405250810190610cd691906113b9565b905081811015610d79576001600160a01b037f0000000000000000000000000000000000000000000000000000000000000000166340c10f1930610d1a848661141f565b6040516001600160e01b031960e085901b1681526001600160a01b0390921660048301526024820152604401600060405180830381600087803b158015610d6057600080fd5b505af1158015610d74573d6000803e3d6000fd5b505050505b60405163a9059cbb60e01b81526001600160a01b037f000000000000000000000000000000000000000000000000000000000000000081166004830152602482018590527f0000000000000000000000000000000000000000000000000000000000000000169063a9059cbb906044016020604051808303816000875af1158015610e08573d6000803e3d6000fd5b505050506040513d601f19601f82011682018060405250810190610e2c9190611436565b610e3557600080fd5b7f00000000000000000000000000000000000000000000000000000000000000006001600160a01b031663811a40fe6040518163ffffffff1660e01b8152600401600060405180830381600087803b158015610e9057600080fd5b505af1158015610ea4573d6000803e3d6000fd5b505050507f00000000000000000000000000000000000000000000000000000000000000006001600160a01b031663b21ed5026040518163ffffffff1660e01b8152600401600060405180830381600087803b158015610f0357600080fd5b505af1158015610f17573d6000803e3d6000fd5b5050505060006064600154610f2c9190611397565b610f37906022611378565b905060006064600154610f4a9190611397565b610f55906021611378565b905060006064600154610f689190611397565b610f73906021611378565b60055460405163a9059cbb60e01b81526001600160a01b039182166004820152602481018590529192507f0000000000000000000000000000000000000000000000000000000000000000169063a9059cbb906044016020604051808303816000875af1158015610fe8573d6000803e3d6000fd5b505050506040513d601f19601f8201168201806040525081019061100c9190611436565b5060065460405163a9059cbb60e01b81526001600160a01b039182166004820152602481018390527f00000000000000000000000000000000000000000000000000000000000000009091169063a9059cbb906044016020604051808303816000875af1158015611081573d6000803e3d6000fd5b505050506040513d601f19601f820116820180604052508101906110a59190611436565b50600060095442116110b85760006110c5565b6007546001600160a01b03165b60405163a9059cbb60e01b81526001600160a01b038083166004830152602482018790529192507f00000000000000000000000000000000000000000000000000000000000000009091169063a9059cbb906044016020604051808303816000875af1158015611139573d6000803e3d6000fd5b505050506040513d601f19601f8201168201806040525081019061115d9190611436565b50336001600160a01b03167fb4c03061fb5b7fed76389d5af8f2e0ddb09f8c70d1333abbb62582835e10accb600154611194610a77565b61119c610364565b6040805193845260208401929092529082015260600160405180910390a2505050505050505b919050565b6000546001600160a01b031633146111f15760405162461bcd60e51b815260040161047f906113d2565b6001600160a01b0381166112565760405162461bcd60e51b815260206004820152602660248201527f4f776e61626c653a206e6577206f776e657220697320746865207a65726f206160448201526564647265737360d01b606482015260840161047f565b61125f81611262565b50565b600080546001600160a01b038381166001600160a01b0319831681178455604051919092169283917f8be0079c531659141344cd1fd0a4f28419497f9722a3daafe3b4186f6b6457e09190a35050565b6000602082840312156112c457600080fd5b5035919050565b80356001600160a01b03811681146111c257600080fd5b600080600080600060a086880312156112fa57600080fd5b611303866112cb565b945060208601359350611318604087016112cb565b9250611326606087016112cb565b9150611334608087016112cb565b90509295509295909350565b60006020828403121561135257600080fd5b61135b826112cb565b9392505050565b634e487b7160e01b600052601160045260246000fd5b600081600019048311821515161561139257611392611362565b500290565b6000826113b457634e487b7160e01b600052601260045260246000fd5b500490565b6000602082840312156113cb57600080fd5b5051919050565b6020808252818101527f4f776e61626c653a2063616c6c6572206973206e6f7420746865206f776e6572604082015260600190565b6000821982111561141a5761141a611362565b500190565b60008282101561143157611431611362565b500390565b60006020828403121561144857600080fd5b8151801515811461135b57600080fdfea2646970667358221220ca2fdb90903a9cf5e6206ac8cc003c0b62b70b076093a40c34c588cd6172b49f64736f6c634300080b0033",
  "linkReferences": {},
  "deployedLinkReferences": {}
}