{
  "_format": "hh-sol-artifact-1",
  "contractName": "BaseV1Minter",
  "sourceName": "contracts/BaseV1-minter.sol",
  "abi": [
    {
      "inputs": [
        {
          "internalType": "address",
          "name": "__voter",
          "type": "address"
        },
        {
          "internalType": "address",
          "name": "__ve",
          "type": "address"
        },
        {
          "internalType": "address",
          "name": "__ve_dist",
          "type": "address"
        }
      ],
      "stateMutability": "nonpayable",
      "type": "constructor"
    },
    {
      "anonymous": false,
      "inputs": [
        {
          "indexed": true,
          "internalType": "address",
          "name": "sender",
          "type": "address"
        },
        {
          "indexed": false,
          "internalType": "uint256",
          "name": "weekly",
          "type": "uint256"
        },
        {
          "indexed": false,
          "internalType": "uint256",
          "name": "circulating_supply",
          "type": "uint256"
        },
        {
          "indexed": false,
          "internalType": "uint256",
          "name": "circulating_emission",
          "type": "uint256"
        }
      ],
      "name": "Mint",
      "type": "event"
    },
    {
      "inputs": [],
      "name": "USDC_USDT_gauge",
      "outputs": [
        {
          "internalType": "address",
          "name": "",
          "type": "address"
        }
      ],
      "stateMutability": "view",
      "type": "function"
    },
    {
      "inputs": [],
      "name": "USDC_yMeta_gauge",
      "outputs": [
        {
          "internalType": "address",
          "name": "",
          "type": "address"
        }
      ],
      "stateMutability": "view",
      "type": "function"
    },
    {
      "inputs": [],
      "name": "_token",
      "outputs": [
        {
          "internalType": "contract underlying",
          "name": "",
          "type": "address"
        }
      ],
      "stateMutability": "view",
      "type": "function"
    },
    {
      "inputs": [],
      "name": "_ve",
      "outputs": [
        {
          "internalType": "contract ve",
          "name": "",
          "type": "address"
        }
      ],
      "stateMutability": "view",
      "type": "function"
    },
    {
      "inputs": [],
      "name": "_ve_dist",
      "outputs": [
        {
          "internalType": "contract ve_dist",
          "name": "",
          "type": "address"
        }
      ],
      "stateMutability": "view",
      "type": "function"
    },
    {
      "inputs": [],
      "name": "_voter",
      "outputs": [
        {
          "internalType": "contract voter",
          "name": "",
          "type": "address"
        }
      ],
      "stateMutability": "view",
      "type": "function"
    },
    {
      "inputs": [],
      "name": "active_period",
      "outputs": [
        {
          "internalType": "uint256",
          "name": "",
          "type": "uint256"
        }
      ],
      "stateMutability": "view",
      "type": "function"
    },
    {
      "inputs": [],
      "name": "calculate_emission",
      "outputs": [
        {
          "internalType": "uint256",
          "name": "",
          "type": "uint256"
        }
      ],
      "stateMutability": "view",
      "type": "function"
    },
    {
      "inputs": [
        {
          "internalType": "uint256",
          "name": "_minted",
          "type": "uint256"
        }
      ],
      "name": "calculate_growth",
      "outputs": [
        {
          "internalType": "uint256",
          "name": "",
          "type": "uint256"
        }
      ],
      "stateMutability": "view",
      "type": "function"
    },
    {
      "inputs": [],
      "name": "circulating_emission",
      "outputs": [
        {
          "internalType": "uint256",
          "name": "",
          "type": "uint256"
        }
      ],
      "stateMutability": "view",
      "type": "function"
    },
    {
      "inputs": [],
      "name": "circulating_supply",
      "outputs": [
        {
          "internalType": "uint256",
          "name": "",
          "type": "uint256"
        }
      ],
      "stateMutability": "view",
      "type": "function"
    },
    {
      "inputs": [],
      "name": "fetch",
      "outputs": [
        {
          "internalType": "address",
          "name": "",
          "type": "address"
        }
      ],
      "stateMutability": "view",
      "type": "function"
    },
    {
      "inputs": [
        {
          "internalType": "address",
          "name": "_fetch",
          "type": "address"
        },
        {
          "internalType": "uint256",
          "name": "max",
          "type": "uint256"
        },
        {
          "internalType": "address",
          "name": "_USDC_USDT_gauge",
          "type": "address"
        },
        {
          "internalType": "address",
          "name": "_USDC_yMeta_gauge",
          "type": "address"
        },
        {
          "internalType": "address",
          "name": "_votersLock",
          "type": "address"
        },
        {
          "internalType": "address",
          "name": "_teamWallet",
          "type": "address"
        }
      ],
      "name": "initialize",
      "outputs": [],
      "stateMutability": "nonpayable",
      "type": "function"
    },
    {
      "inputs": [
        {
          "internalType": "uint256",
          "name": "_amount",
          "type": "uint256"
        }
      ],
      "name": "mintForFetch",
      "outputs": [],
      "stateMutability": "nonpayable",
      "type": "function"
    },
    {
      "inputs": [],
      "name": "teamWallet",
      "outputs": [
        {
          "internalType": "address",
          "name": "",
          "type": "address"
        }
      ],
      "stateMutability": "view",
      "type": "function"
    },
    {
      "inputs": [],
      "name": "update_period",
      "outputs": [
        {
          "internalType": "uint256",
          "name": "",
          "type": "uint256"
        }
      ],
      "stateMutability": "nonpayable",
      "type": "function"
    },
    {
      "inputs": [],
      "name": "votersLock",
      "outputs": [
        {
          "internalType": "address",
          "name": "",
          "type": "address"
        }
      ],
      "stateMutability": "view",
      "type": "function"
    },
    {
      "inputs": [],
      "name": "weekly",
      "outputs": [
        {
          "internalType": "uint256",
          "name": "",
          "type": "uint256"
        }
      ],
      "stateMutability": "view",
      "type": "function"
    },
    {
      "inputs": [],
      "name": "weekly_emission",
      "outputs": [
        {
          "internalType": "uint256",
          "name": "",
          "type": "uint256"
        }
      ],
      "stateMutability": "view",
      "type": "function"
    }
  ],
  "bytecode": "0x6101006040526a108b2a2c280290940000006000553480156200002157600080fd5b506040516200149338038062001493833981016040819052620000449162000141565b600280546001600160a01b0319163317905560408051637e062a3560e11b815290516001600160a01b0384169163fc0c546a9160048083019260209291908290030181865afa1580156200009c573d6000803e3d6000fd5b505050506040513d601f19601f82011682018060405250810190620000c291906200018b565b6001600160a01b0390811660805283811660a05282811660c052811660e05262093a8080620000f3816002620001c6565b620000ff9042620001e8565b6200010b919062000203565b620001179190620001c6565b6001555062000226915050565b80516001600160a01b03811681146200013c57600080fd5b919050565b6000806000606084860312156200015757600080fd5b620001628462000124565b9250620001726020850162000124565b9150620001826040850162000124565b90509250925092565b6000602082840312156200019e57600080fd5b620001a98262000124565b9392505050565b634e487b7160e01b600052601160045260246000fd5b6000816000190483118215151615620001e357620001e3620001b0565b500290565b60008219821115620001fe57620001fe620001b0565b500190565b6000826200022157634e487b7160e01b600052601260045260246000fd5b500490565b60805160a05160c05160e0516111ae620002e56000396000818161017a01528181610a5a01528181610ad20152610b4501526000818161020b015281816105530152610742015260006101a9015260008181610297015281816102ed015281816103fe015281816104d00152818161061b015281816107c4015281816109170152818161099601528181610a2d01528181610c2c01528181610cd101528181610d4301528181610de901528181610e5d0152610ef501526111ae6000f3fe608060405234801561001057600080fd5b50600436106101215760003560e01c80638dd598fb116100ad578063cfc6c8ff11610071578063cfc6c8ff14610279578063d139960814610281578063e038c75a1461028a578063ecd0c0c314610292578063ed29fc11146102b957600080fd5b80638dd598fb146102065780638e01fbfa1461022d5780639bab5bab14610240578063a2dc2ab714610253578063a95c372d1461026657600080fd5b806336d96faf116100f457806336d96faf1461019c5780633db9b42a146101a457806344e9d755146101cb57806344f2ee6e146101de57806359927044146101f357600080fd5b80631eebae8014610126578063254c7f1d1461014157806326cfc17b1461016c5780632c6b2f0c14610175575b600080fd5b61012e6102c1565b6040519081526020015b60405180910390f35b600654610154906001600160a01b031681565b6040516001600160a01b039091168152602001610138565b61012e60005481565b6101547f000000000000000000000000000000000000000000000000000000000000000081565b61012e6102e9565b6101547f000000000000000000000000000000000000000000000000000000000000000081565b600554610154906001600160a01b031681565b6101f16101ec366004611001565b61039a565b005b600754610154906001600160a01b031681565b6101547f000000000000000000000000000000000000000000000000000000000000000081565b61012e61023b366004611001565b6104cc565b600454610154906001600160a01b031681565b6101f1610261366004611031565b6105ed565b600354610154906001600160a01b031681565b61012e610724565b61012e60015481565b61012e61073e565b6101547f000000000000000000000000000000000000000000000000000000000000000081565b61012e61084e565b60006103e860026102d061073e565b6102da91906110b4565b6102e491906110d3565b905090565b60007f00000000000000000000000000000000000000000000000000000000000000006001600160a01b03166318160ddd6040518163ffffffff1660e01b8152600401602060405180830381865afa158015610349573d6000803e3d6000fd5b505050506040513d601f19601f8201168201806040525081019061036d91906110f5565b606461037761073e565b606260005461038691906110b4565b61039091906110b4565b6102da91906110d3565b6003546001600160a01b031633146103e45760405162461bcd60e51b815260206004820152600960248201526809cdee840cccae8c6d60bb1b604482015260640160405180910390fd5b6003546040516340c10f1960e01b81526001600160a01b037f00000000000000000000000000000000000000000000000000000000000000008116926340c10f1992610439929190911690859060040161110e565b600060405180830381600087803b15801561045357600080fd5b505af1158015610467573d6000803e3d6000fd5b50506003546001600160a01b031691507fb4c03061fb5b7fed76389d5af8f2e0ddb09f8c70d1333abbb62582835e10accb9050826104a361073e565b6104ab6102c1565b6040805193845260208401929092529082015260600160405180910390a250565b60007f00000000000000000000000000000000000000000000000000000000000000006001600160a01b03166318160ddd6040518163ffffffff1660e01b8152600401602060405180830381865afa15801561052c573d6000803e3d6000fd5b505050506040513d601f19601f8201168201806040525081019061055091906110f5565b827f00000000000000000000000000000000000000000000000000000000000000006001600160a01b03166318160ddd6040518163ffffffff1660e01b8152600401602060405180830381865afa1580156105af573d6000803e3d6000fd5b505050506040513d601f19601f820116820180604052508101906105d391906110f5565b6105dd91906110b4565b6105e791906110d3565b92915050565b6002546001600160a01b0316331461060457600080fd5b6040516340c10f1960e01b81526001600160a01b037f000000000000000000000000000000000000000000000000000000000000000016906340c10f1990610652903090899060040161110e565b600060405180830381600087803b15801561066c57600080fd5b505af1158015610680573d6000803e3d6000fd5b5050600380546001600160a01b038a166001600160a01b0319918216179091556002805490911690555062093a809050806106bb8142611127565b6106c591906110d3565b6106cf91906110b4565b600155600480546001600160a01b039586166001600160a01b03199182161790915560058054948616948216949094179093556006805492851692841692909217909155600780549190931691161790555050565b60006102e46107316102e9565b6107396102c1565b610fe8565b60007f00000000000000000000000000000000000000000000000000000000000000006001600160a01b03166318160ddd6040518163ffffffff1660e01b8152600401602060405180830381865afa15801561079e573d6000803e3d6000fd5b505050506040513d601f19601f820116820180604052508101906107c291906110f5565b7f00000000000000000000000000000000000000000000000000000000000000006001600160a01b03166318160ddd6040518163ffffffff1660e01b8152600401602060405180830381865afa158015610820573d6000803e3d6000fd5b505050506040513d601f19601f8201168201806040525081019061084491906110f5565b6102e4919061113f565b60015460009061086162093a8082611127565b421015801561087957506002546001600160a01b0316155b15610fe35762093a8061088c81426110d3565b61089691906110b4565b600181905590506108a5610724565b6000818155906108b7906064906110d3565b6108c29060146110b4565b905060006108d78260005461023b9190611127565b9050600082600054836108ea9190611127565b6108f49190611127565b6040516370a0823160e01b81523060048201529091506000906001600160a01b037f000000000000000000000000000000000000000000000000000000000000000016906370a0823190602401602060405180830381865afa15801561095e573d6000803e3d6000fd5b505050506040513d601f19601f8201168201806040525081019061098291906110f5565b905081811015610a16576001600160a01b037f0000000000000000000000000000000000000000000000000000000000000000166340c10f19306109c6848661113f565b6040518363ffffffff1660e01b81526004016109e392919061110e565b600060405180830381600087803b1580156109fd57600080fd5b505af1158015610a11573d6000803e3d6000fd5b505050505b60405163a9059cbb60e01b81526001600160a01b037f0000000000000000000000000000000000000000000000000000000000000000169063a9059cbb90610a84907f000000000000000000000000000000000000000000000000000000000000000090879060040161110e565b6020604051808303816000875af1158015610aa3573d6000803e3d6000fd5b505050506040513d601f19601f82011682018060405250810190610ac79190611156565b610ad057600080fd5b7f00000000000000000000000000000000000000000000000000000000000000006001600160a01b031663811a40fe6040518163ffffffff1660e01b8152600401600060405180830381600087803b158015610b2b57600080fd5b505af1158015610b3f573d6000803e3d6000fd5b505050507f00000000000000000000000000000000000000000000000000000000000000006001600160a01b031663b21ed5026040518163ffffffff1660e01b8152600401600060405180830381600087803b158015610b9e57600080fd5b505af1158015610bb2573d6000803e3d6000fd5b5050505060006064600054610bc791906110d3565b610bd290600a6110b4565b905060006064600054610be591906110d3565b610bf09060286110b4565b905060006064600054610c0391906110d3565b610c0e9060326110b4565b6004805460405163095ea7b360e01b81529293506001600160a01b037f000000000000000000000000000000000000000000000000000000000000000081169363095ea7b393610c64939092169188910161110e565b6020604051808303816000875af1158015610c83573d6000803e3d6000fd5b505050506040513d601f19601f82011682018060405250810190610ca79190611156565b506004805460405163b66503cf60e01b81526001600160a01b039091169163b66503cf91610cf9917f00000000000000000000000000000000000000000000000000000000000000009188910161110e565b600060405180830381600087803b158015610d1357600080fd5b505af1158015610d27573d6000803e3d6000fd5b505060055460405163095ea7b360e01b81526001600160a01b037f00000000000000000000000000000000000000000000000000000000000000008116945063095ea7b39350610d7d921690869060040161110e565b6020604051808303816000875af1158015610d9c573d6000803e3d6000fd5b505050506040513d601f19601f82011682018060405250810190610dc09190611156565b5060055460405163b66503cf60e01b81526001600160a01b039091169063b66503cf90610e13907f000000000000000000000000000000000000000000000000000000000000000090869060040161110e565b600060405180830381600087803b158015610e2d57600080fd5b505af1158015610e41573d6000803e3d6000fd5b505060065460405163a9059cbb60e01b81526001600160a01b037f00000000000000000000000000000000000000000000000000000000000000008116945063a9059cbb9350610e97921690859060040161110e565b6020604051808303816000875af1158015610eb6573d6000803e3d6000fd5b505050506040513d601f19601f82011682018060405250810190610eda9190611156565b5060075460405163a9059cbb60e01b81526001600160a01b037f000000000000000000000000000000000000000000000000000000000000000081169263a9059cbb92610f309291909116908b9060040161110e565b6020604051808303816000875af1158015610f4f573d6000803e3d6000fd5b505050506040513d601f19601f82011682018060405250810190610f739190611156565b50336001600160a01b03167fb4c03061fb5b7fed76389d5af8f2e0ddb09f8c70d1333abbb62582835e10accb88600054610fad9190611127565b610fb561073e565b610fbd6102c1565b6040805193845260208401929092529082015260600160405180910390a2505050505050505b919050565b600081831015610ff85781610ffa565b825b9392505050565b60006020828403121561101357600080fd5b5035919050565b80356001600160a01b0381168114610fe357600080fd5b60008060008060008060c0878903121561104a57600080fd5b6110538761101a565b9550602087013594506110686040880161101a565b93506110766060880161101a565b92506110846080880161101a565b915061109260a0880161101a565b90509295509295509295565b634e487b7160e01b600052601160045260246000fd5b60008160001904831182151516156110ce576110ce61109e565b500290565b6000826110f057634e487b7160e01b600052601260045260246000fd5b500490565b60006020828403121561110757600080fd5b5051919050565b6001600160a01b03929092168252602082015260400190565b6000821982111561113a5761113a61109e565b500190565b6000828210156111515761115161109e565b500390565b60006020828403121561116857600080fd5b81518015158114610ffa57600080fdfea2646970667358221220a440eb68b59a3b988ebdb51928ca3488c3cc1cc455584b811e118df1f53c57ca64736f6c634300080b0033",
  "linkReferences": {},
  "deployedLinkReferences": {}
}