{
  "_format": "hh-sol-artifact-1",
  "contractName": "BaseV1Minter",
  "sourceName": "contracts/BaseV1-minter.sol",
  "abi": [
    {
      "inputs": [
        {
          "internalType": "address",
          "name": "__voter",
          "type": "address"
        },
        {
          "internalType": "address",
          "name": "__ve",
          "type": "address"
        },
        {
          "internalType": "address",
          "name": "__ve_dist",
          "type": "address"
        }
      ],
      "stateMutability": "nonpayable",
      "type": "constructor"
    },
    {
      "anonymous": false,
      "inputs": [
        {
          "indexed": true,
          "internalType": "address",
          "name": "sender",
          "type": "address"
        },
        {
          "indexed": false,
          "internalType": "uint256",
          "name": "weekly",
          "type": "uint256"
        },
        {
          "indexed": false,
          "internalType": "uint256",
          "name": "circulating_supply",
          "type": "uint256"
        },
        {
          "indexed": false,
          "internalType": "uint256",
          "name": "circulating_emission",
          "type": "uint256"
        }
      ],
      "name": "Mint",
      "type": "event"
    },
    {
      "anonymous": false,
      "inputs": [
        {
          "indexed": true,
          "internalType": "address",
          "name": "previousOwner",
          "type": "address"
        },
        {
          "indexed": true,
          "internalType": "address",
          "name": "newOwner",
          "type": "address"
        }
      ],
      "name": "OwnershipTransferred",
      "type": "event"
    },
    {
      "inputs": [],
      "name": "DAOTreasury",
      "outputs": [
        {
          "internalType": "address",
          "name": "",
          "type": "address"
        }
      ],
      "stateMutability": "view",
      "type": "function"
    },
    {
      "inputs": [],
      "name": "_token",
      "outputs": [
        {
          "internalType": "contract underlying",
          "name": "",
          "type": "address"
        }
      ],
      "stateMutability": "view",
      "type": "function"
    },
    {
      "inputs": [],
      "name": "_ve",
      "outputs": [
        {
          "internalType": "contract ve",
          "name": "",
          "type": "address"
        }
      ],
      "stateMutability": "view",
      "type": "function"
    },
    {
      "inputs": [],
      "name": "_ve_dist",
      "outputs": [
        {
          "internalType": "contract ve_dist",
          "name": "",
          "type": "address"
        }
      ],
      "stateMutability": "view",
      "type": "function"
    },
    {
      "inputs": [],
      "name": "_voter",
      "outputs": [
        {
          "internalType": "contract voter",
          "name": "",
          "type": "address"
        }
      ],
      "stateMutability": "view",
      "type": "function"
    },
    {
      "inputs": [],
      "name": "active_period",
      "outputs": [
        {
          "internalType": "uint256",
          "name": "",
          "type": "uint256"
        }
      ],
      "stateMutability": "view",
      "type": "function"
    },
    {
      "inputs": [],
      "name": "calculate_emission",
      "outputs": [
        {
          "internalType": "uint256",
          "name": "",
          "type": "uint256"
        }
      ],
      "stateMutability": "view",
      "type": "function"
    },
    {
      "inputs": [
        {
          "internalType": "uint256",
          "name": "_minted",
          "type": "uint256"
        }
      ],
      "name": "calculate_growth",
      "outputs": [
        {
          "internalType": "uint256",
          "name": "",
          "type": "uint256"
        }
      ],
      "stateMutability": "view",
      "type": "function"
    },
    {
      "inputs": [],
      "name": "circulating_emission",
      "outputs": [
        {
          "internalType": "uint256",
          "name": "",
          "type": "uint256"
        }
      ],
      "stateMutability": "view",
      "type": "function"
    },
    {
      "inputs": [],
      "name": "circulating_supply",
      "outputs": [
        {
          "internalType": "uint256",
          "name": "",
          "type": "uint256"
        }
      ],
      "stateMutability": "view",
      "type": "function"
    },
    {
      "inputs": [],
      "name": "fetch",
      "outputs": [
        {
          "internalType": "address",
          "name": "",
          "type": "address"
        }
      ],
      "stateMutability": "view",
      "type": "function"
    },
    {
      "inputs": [],
      "name": "gaugeDestributor",
      "outputs": [
        {
          "internalType": "address",
          "name": "",
          "type": "address"
        }
      ],
      "stateMutability": "view",
      "type": "function"
    },
    {
      "inputs": [
        {
          "internalType": "address",
          "name": "_fetch",
          "type": "address"
        },
        {
          "internalType": "uint256",
          "name": "max",
          "type": "uint256"
        },
        {
          "internalType": "address",
          "name": "_gaugeDestributor",
          "type": "address"
        },
        {
          "internalType": "address",
          "name": "_votersLock",
          "type": "address"
        },
        {
          "internalType": "address",
          "name": "_teamWallet",
          "type": "address"
        },
        {
          "internalType": "address",
          "name": "_DAOTreasury",
          "type": "address"
        }
      ],
      "name": "initialize",
      "outputs": [],
      "stateMutability": "nonpayable",
      "type": "function"
    },
    {
      "inputs": [
        {
          "internalType": "address",
          "name": "_newMinter",
          "type": "address"
        }
      ],
      "name": "migrate",
      "outputs": [],
      "stateMutability": "nonpayable",
      "type": "function"
    },
    {
      "inputs": [
        {
          "internalType": "uint256",
          "name": "_amount",
          "type": "uint256"
        }
      ],
      "name": "mintForFetch",
      "outputs": [],
      "stateMutability": "nonpayable",
      "type": "function"
    },
    {
      "inputs": [],
      "name": "owner",
      "outputs": [
        {
          "internalType": "address",
          "name": "",
          "type": "address"
        }
      ],
      "stateMutability": "view",
      "type": "function"
    },
    {
      "inputs": [],
      "name": "percentReduce",
      "outputs": [
        {
          "internalType": "uint256",
          "name": "",
          "type": "uint256"
        }
      ],
      "stateMutability": "view",
      "type": "function"
    },
    {
      "inputs": [],
      "name": "renounceOwnership",
      "outputs": [],
      "stateMutability": "nonpayable",
      "type": "function"
    },
    {
      "inputs": [],
      "name": "teamWallet",
      "outputs": [
        {
          "internalType": "address",
          "name": "",
          "type": "address"
        }
      ],
      "stateMutability": "view",
      "type": "function"
    },
    {
      "inputs": [
        {
          "internalType": "address",
          "name": "newOwner",
          "type": "address"
        }
      ],
      "name": "transferOwnership",
      "outputs": [],
      "stateMutability": "nonpayable",
      "type": "function"
    },
    {
      "inputs": [],
      "name": "update_period",
      "outputs": [
        {
          "internalType": "uint256",
          "name": "",
          "type": "uint256"
        }
      ],
      "stateMutability": "nonpayable",
      "type": "function"
    },
    {
      "inputs": [],
      "name": "votersLock",
      "outputs": [
        {
          "internalType": "address",
          "name": "",
          "type": "address"
        }
      ],
      "stateMutability": "view",
      "type": "function"
    },
    {
      "inputs": [],
      "name": "weekly",
      "outputs": [
        {
          "internalType": "uint256",
          "name": "",
          "type": "uint256"
        }
      ],
      "stateMutability": "view",
      "type": "function"
    },
    {
      "inputs": [],
      "name": "weekly_emission",
      "outputs": [
        {
          "internalType": "uint256",
          "name": "",
          "type": "uint256"
        }
      ],
      "stateMutability": "view",
      "type": "function"
    }
  ],
  "bytecode": "0x6101006040526a108b2a2c280290940000006001556136b06009553480156200002757600080fd5b50604051620017a8380380620017a88339810160408190526200004a91620001a2565b620000553362000135565b600380546001600160a01b0319163317905560408051637e062a3560e11b815290516001600160a01b0384169163fc0c546a9160048083019260209291908290030181865afa158015620000ad573d6000803e3d6000fd5b505050506040513d601f19601f82011682018060405250810190620000d39190620001ec565b6001600160a01b0390811660805283811660a05282811660c052811660e05262093a80806200010481600262000227565b62000110904262000249565b6200011c919062000264565b62000128919062000227565b6002555062000287915050565b600080546001600160a01b038381166001600160a01b0319831681178455604051919092169283917f8be0079c531659141344cd1fd0a4f28419497f9722a3daafe3b4186f6b6457e09190a35050565b80516001600160a01b03811681146200019d57600080fd5b919050565b600080600060608486031215620001b857600080fd5b620001c38462000185565b9250620001d36020850162000185565b9150620001e36040850162000185565b90509250925092565b600060208284031215620001ff57600080fd5b6200020a8262000185565b9392505050565b634e487b7160e01b600052601160045260246000fd5b600081600019048311821515161562000244576200024462000211565b500290565b600082198211156200025f576200025f62000211565b500190565b6000826200028257634e487b7160e01b600052601260045260246000fd5b500490565b60805160a05160c05160e05161145b6200034d600039600081816101b10152818161089d01528181610cb601528181610d5d0152610dd001526000818161025b0152818161060a01526109a1015260006101e00152600081816103030152818161036c0152818161049001528181610587015281816106d7015281816108240152818161090901528181610a2301528181610b9101528181610c1001528181610ce501528181610ee301528181610f7a0152818161101301526110ac015261145b6000f3fe608060405234801561001057600080fd5b50600436106101585760003560e01c80638e01fbfa116100c3578063e038c75a1161007c578063e038c75a146102da578063e0c821d4146102e2578063e0f89a9f146102f5578063ecd0c0c3146102fe578063ed29fc1114610325578063f2fde38b1461032d57600080fd5b80638e01fbfa1461027d578063a2dc2ab714610290578063a95c372d146102a3578063ce5494bb146102b6578063cfc6c8ff146102c9578063d1399608146102d157600080fd5b806340a6fa9d1161011557806340a6fa9d1461020257806344f2ee6e14610215578063599270441461022a578063715018a61461023d5780638da5cb5b146102455780638dd598fb1461025657600080fd5b80631eebae801461015d578063254c7f1d1461017857806326cfc17b146101a35780632c6b2f0c146101ac57806336d96faf146101d35780633db9b42a146101db575b600080fd5b610165610340565b6040519081526020015b60405180910390f35b60065461018b906001600160a01b031681565b6040516001600160a01b03909116815260200161016f565b61016560015481565b61018b7f000000000000000000000000000000000000000000000000000000000000000081565b610165610368565b61018b7f000000000000000000000000000000000000000000000000000000000000000081565b60055461018b906001600160a01b031681565b610228610223366004611270565b610419565b005b60075461018b906001600160a01b031681565b61022861054d565b6000546001600160a01b031661018b565b61018b7f000000000000000000000000000000000000000000000000000000000000000081565b61016561028b366004611270565b610583565b61022861029e3660046112a0565b6106a4565b60045461018b906001600160a01b031681565b6102286102c436600461130d565b6107db565b6101656108fe565b61016560025481565b61016561099d565b60085461018b906001600160a01b031681565b61016560095481565b61018b7f000000000000000000000000000000000000000000000000000000000000000081565b610165610aad565b61022861033b36600461130d565b611185565b60006103e8600261034f61099d565b6103599190611345565b6103639190611364565b905090565b60007f00000000000000000000000000000000000000000000000000000000000000006001600160a01b03166318160ddd6040518163ffffffff1660e01b8152600401602060405180830381865afa1580156103c8573d6000803e3d6000fd5b505050506040513d601f19601f820116820180604052508101906103ec9190611386565b60646103f661099d565b60626001546104059190611345565b61040f9190611345565b6103599190611364565b6004546001600160a01b031633146104645760405162461bcd60e51b815260206004820152600960248201526809cdee840cccae8c6d60bb1b60448201526064015b60405180910390fd5b600480546040516340c10f1960e01b81526001600160a01b0391821692810192909252602482018390527f000000000000000000000000000000000000000000000000000000000000000016906340c10f1990604401600060405180830381600087803b1580156104d457600080fd5b505af11580156104e8573d6000803e3d6000fd5b50506004546001600160a01b031691507fb4c03061fb5b7fed76389d5af8f2e0ddb09f8c70d1333abbb62582835e10accb90508261052461099d565b61052c610340565b6040805193845260208401929092529082015260600160405180910390a250565b6000546001600160a01b031633146105775760405162461bcd60e51b815260040161045b9061139f565b6105816000611220565b565b60007f00000000000000000000000000000000000000000000000000000000000000006001600160a01b03166318160ddd6040518163ffffffff1660e01b8152600401602060405180830381865afa1580156105e3573d6000803e3d6000fd5b505050506040513d601f19601f820116820180604052508101906106079190611386565b827f00000000000000000000000000000000000000000000000000000000000000006001600160a01b03166318160ddd6040518163ffffffff1660e01b8152600401602060405180830381865afa158015610666573d6000803e3d6000fd5b505050506040513d601f19601f8201168201806040525081019061068a9190611386565b6106949190611345565b61069e9190611364565b92915050565b6003546001600160a01b031633146106bb57600080fd5b6040516340c10f1960e01b8152306004820152602481018690527f00000000000000000000000000000000000000000000000000000000000000006001600160a01b0316906340c10f1990604401600060405180830381600087803b15801561072357600080fd5b505af1158015610737573d6000803e3d6000fd5b5050600480546001600160a01b038a166001600160a01b0319918216179091556003805490911690555062093a8090508061077281426113d4565b61077c9190611364565b6107869190611345565b600255600580546001600160a01b039586166001600160a01b03199182161790915560068054948616948216949094179093556007805492851692841692909217909155600880549190931691161790555050565b6000546001600160a01b031633146108055760405162461bcd60e51b815260040161045b9061139f565b604051637e51dad560e11b81526001600160a01b0382811660048301527f0000000000000000000000000000000000000000000000000000000000000000169063fca3b5aa90602401600060405180830381600087803b15801561086857600080fd5b505af115801561087c573d6000803e3d6000fd5b505060405163f2c098b760e01b81526001600160a01b0384811660048301527f000000000000000000000000000000000000000000000000000000000000000016925063f2c098b79150602401600060405180830381600087803b1580156108e357600080fd5b505af11580156108f7573d6000803e3d6000fd5b5050505050565b6000600954620186a07f00000000000000000000000000000000000000000000000000000000000000006001600160a01b03166318160ddd6040518163ffffffff1660e01b8152600401602060405180830381865afa158015610965573d6000803e3d6000fd5b505050506040513d601f19601f820116820180604052508101906109899190611386565b6109939190611364565b6103639190611345565b60007f00000000000000000000000000000000000000000000000000000000000000006001600160a01b03166318160ddd6040518163ffffffff1660e01b8152600401602060405180830381865afa1580156109fd573d6000803e3d6000fd5b505050506040513d601f19601f82011682018060405250810190610a219190611386565b7f00000000000000000000000000000000000000000000000000000000000000006001600160a01b03166318160ddd6040518163ffffffff1660e01b8152600401602060405180830381865afa158015610a7f573d6000803e3d6000fd5b505050506040513d601f19601f82011682018060405250810190610aa39190611386565b61036391906113ec565b600254600090610ac062093a80826113d4565b4210158015610ad857506003546001600160a01b0316155b156111805760646009541115610b1e576064600954610af79190611364565b610b02906002611345565b60096000828254610b1391906113ec565b90915550610b249050565b60026009555b62093a80610b328142611364565b610b3c9190611345565b60028190559050610b4b6108fe565b6001819055600090610b5c90610583565b9050600060015482610b6e91906113d4565b6040516370a0823160e01b81523060048201529091506000906001600160a01b037f000000000000000000000000000000000000000000000000000000000000000016906370a0823190602401602060405180830381865afa158015610bd8573d6000803e3d6000fd5b505050506040513d601f19601f82011682018060405250810190610bfc9190611386565b905081811015610c9f576001600160a01b037f0000000000000000000000000000000000000000000000000000000000000000166340c10f1930610c4084866113ec565b6040516001600160e01b031960e085901b1681526001600160a01b0390921660048301526024820152604401600060405180830381600087803b158015610c8657600080fd5b505af1158015610c9a573d6000803e3d6000fd5b505050505b60405163a9059cbb60e01b81526001600160a01b037f000000000000000000000000000000000000000000000000000000000000000081166004830152602482018590527f0000000000000000000000000000000000000000000000000000000000000000169063a9059cbb906044016020604051808303816000875af1158015610d2e573d6000803e3d6000fd5b505050506040513d601f19601f82011682018060405250810190610d529190611403565b610d5b57600080fd5b7f00000000000000000000000000000000000000000000000000000000000000006001600160a01b031663811a40fe6040518163ffffffff1660e01b8152600401600060405180830381600087803b158015610db657600080fd5b505af1158015610dca573d6000803e3d6000fd5b505050507f00000000000000000000000000000000000000000000000000000000000000006001600160a01b031663b21ed5026040518163ffffffff1660e01b8152600401600060405180830381600087803b158015610e2957600080fd5b505af1158015610e3d573d6000803e3d6000fd5b5050505060006064600154610e529190611364565b610e5d90600a611345565b905060006064600154610e709190611364565b610e7b906028611345565b905060006064600154610e8e9190611364565b610e99906028611345565b905060006064600154610eac9190611364565b610eb790600a611345565b60055460405163a9059cbb60e01b81526001600160a01b039182166004820152602481018690529192507f0000000000000000000000000000000000000000000000000000000000000000169063a9059cbb906044016020604051808303816000875af1158015610f2c573d6000803e3d6000fd5b505050506040513d601f19601f82011682018060405250810190610f509190611403565b5060065460405163a9059cbb60e01b81526001600160a01b039182166004820152602481018490527f00000000000000000000000000000000000000000000000000000000000000009091169063a9059cbb906044016020604051808303816000875af1158015610fc5573d6000803e3d6000fd5b505050506040513d601f19601f82011682018060405250810190610fe99190611403565b5060075460405163a9059cbb60e01b81526001600160a01b039182166004820152602481018690527f00000000000000000000000000000000000000000000000000000000000000009091169063a9059cbb906044016020604051808303816000875af115801561105e573d6000803e3d6000fd5b505050506040513d601f19601f820116820180604052508101906110829190611403565b5060085460405163a9059cbb60e01b81526001600160a01b039182166004820152602481018390527f00000000000000000000000000000000000000000000000000000000000000009091169063a9059cbb906044016020604051808303816000875af11580156110f7573d6000803e3d6000fd5b505050506040513d601f19601f8201168201806040525081019061111b9190611403565b50336001600160a01b03167fb4c03061fb5b7fed76389d5af8f2e0ddb09f8c70d1333abbb62582835e10accb60015461115261099d565b61115a610340565b6040805193845260208401929092529082015260600160405180910390a2505050505050505b919050565b6000546001600160a01b031633146111af5760405162461bcd60e51b815260040161045b9061139f565b6001600160a01b0381166112145760405162461bcd60e51b815260206004820152602660248201527f4f776e61626c653a206e6577206f776e657220697320746865207a65726f206160448201526564647265737360d01b606482015260840161045b565b61121d81611220565b50565b600080546001600160a01b038381166001600160a01b0319831681178455604051919092169283917f8be0079c531659141344cd1fd0a4f28419497f9722a3daafe3b4186f6b6457e09190a35050565b60006020828403121561128257600080fd5b5035919050565b80356001600160a01b038116811461118057600080fd5b60008060008060008060c087890312156112b957600080fd5b6112c287611289565b9550602087013594506112d760408801611289565b93506112e560608801611289565b92506112f360808801611289565b915061130160a08801611289565b90509295509295509295565b60006020828403121561131f57600080fd5b61132882611289565b9392505050565b634e487b7160e01b600052601160045260246000fd5b600081600019048311821515161561135f5761135f61132f565b500290565b60008261138157634e487b7160e01b600052601260045260246000fd5b500490565b60006020828403121561139857600080fd5b5051919050565b6020808252818101527f4f776e61626c653a2063616c6c6572206973206e6f7420746865206f776e6572604082015260600190565b600082198211156113e7576113e761132f565b500190565b6000828210156113fe576113fe61132f565b500390565b60006020828403121561141557600080fd5b8151801515811461132857600080fdfea2646970667358221220d78f76ec64eb68d173ce5d1007f613d15b773fcf380ea34f247022d32ca9769364736f6c634300080b0033",
  "linkReferences": {},
  "deployedLinkReferences": {}
}