{
  "_format": "hh-sol-artifact-1",
  "contractName": "BaseV1Minter",
  "sourceName": "contracts/BaseV1-minter.sol",
  "abi": [
    {
      "inputs": [
        {
          "internalType": "address",
          "name": "__voter",
          "type": "address"
        },
        {
          "internalType": "address",
          "name": "__ve",
          "type": "address"
        },
        {
          "internalType": "address",
          "name": "__ve_dist",
          "type": "address"
        },
        {
          "internalType": "uint256",
          "name": "__teamUnlockTime",
          "type": "uint256"
        }
      ],
      "stateMutability": "nonpayable",
      "type": "constructor"
    },
    {
      "anonymous": false,
      "inputs": [
        {
          "indexed": true,
          "internalType": "address",
          "name": "sender",
          "type": "address"
        },
        {
          "indexed": false,
          "internalType": "uint256",
          "name": "weekly",
          "type": "uint256"
        },
        {
          "indexed": false,
          "internalType": "uint256",
          "name": "circulating_supply",
          "type": "uint256"
        },
        {
          "indexed": false,
          "internalType": "uint256",
          "name": "circulating_emission",
          "type": "uint256"
        }
      ],
      "name": "Mint",
      "type": "event"
    },
    {
      "anonymous": false,
      "inputs": [
        {
          "indexed": true,
          "internalType": "address",
          "name": "previousOwner",
          "type": "address"
        },
        {
          "indexed": true,
          "internalType": "address",
          "name": "newOwner",
          "type": "address"
        }
      ],
      "name": "OwnershipTransferred",
      "type": "event"
    },
    {
      "inputs": [],
      "name": "_token",
      "outputs": [
        {
          "internalType": "contract underlying",
          "name": "",
          "type": "address"
        }
      ],
      "stateMutability": "view",
      "type": "function"
    },
    {
      "inputs": [],
      "name": "_ve",
      "outputs": [
        {
          "internalType": "contract ve",
          "name": "",
          "type": "address"
        }
      ],
      "stateMutability": "view",
      "type": "function"
    },
    {
      "inputs": [],
      "name": "_ve_dist",
      "outputs": [
        {
          "internalType": "contract ve_dist",
          "name": "",
          "type": "address"
        }
      ],
      "stateMutability": "view",
      "type": "function"
    },
    {
      "inputs": [],
      "name": "_voter",
      "outputs": [
        {
          "internalType": "contract voter",
          "name": "",
          "type": "address"
        }
      ],
      "stateMutability": "view",
      "type": "function"
    },
    {
      "inputs": [],
      "name": "active_period",
      "outputs": [
        {
          "internalType": "uint256",
          "name": "",
          "type": "uint256"
        }
      ],
      "stateMutability": "view",
      "type": "function"
    },
    {
      "inputs": [],
      "name": "calculate_emission",
      "outputs": [
        {
          "internalType": "uint256",
          "name": "",
          "type": "uint256"
        }
      ],
      "stateMutability": "view",
      "type": "function"
    },
    {
      "inputs": [
        {
          "internalType": "uint256",
          "name": "_minted",
          "type": "uint256"
        }
      ],
      "name": "calculate_growth",
      "outputs": [
        {
          "internalType": "uint256",
          "name": "",
          "type": "uint256"
        }
      ],
      "stateMutability": "view",
      "type": "function"
    },
    {
      "inputs": [],
      "name": "circulating_emission",
      "outputs": [
        {
          "internalType": "uint256",
          "name": "",
          "type": "uint256"
        }
      ],
      "stateMutability": "view",
      "type": "function"
    },
    {
      "inputs": [],
      "name": "circulating_supply",
      "outputs": [
        {
          "internalType": "uint256",
          "name": "",
          "type": "uint256"
        }
      ],
      "stateMutability": "view",
      "type": "function"
    },
    {
      "inputs": [],
      "name": "fetch",
      "outputs": [
        {
          "internalType": "address",
          "name": "",
          "type": "address"
        }
      ],
      "stateMutability": "view",
      "type": "function"
    },
    {
      "inputs": [],
      "name": "gaugeDestributor",
      "outputs": [
        {
          "internalType": "address",
          "name": "",
          "type": "address"
        }
      ],
      "stateMutability": "view",
      "type": "function"
    },
    {
      "inputs": [
        {
          "internalType": "address",
          "name": "_fetch",
          "type": "address"
        },
        {
          "internalType": "uint256",
          "name": "max",
          "type": "uint256"
        },
        {
          "internalType": "address",
          "name": "_gaugeDestributor",
          "type": "address"
        },
        {
          "internalType": "address",
          "name": "_votersLock",
          "type": "address"
        },
        {
          "internalType": "address",
          "name": "_teamWallet",
          "type": "address"
        }
      ],
      "name": "initialize",
      "outputs": [],
      "stateMutability": "nonpayable",
      "type": "function"
    },
    {
      "inputs": [
        {
          "internalType": "address",
          "name": "_newMinter",
          "type": "address"
        }
      ],
      "name": "migrate",
      "outputs": [],
      "stateMutability": "nonpayable",
      "type": "function"
    },
    {
      "inputs": [
        {
          "internalType": "uint256",
          "name": "_amount",
          "type": "uint256"
        }
      ],
      "name": "mintForFetch",
      "outputs": [],
      "stateMutability": "nonpayable",
      "type": "function"
    },
    {
      "inputs": [],
      "name": "owner",
      "outputs": [
        {
          "internalType": "address",
          "name": "",
          "type": "address"
        }
      ],
      "stateMutability": "view",
      "type": "function"
    },
    {
      "inputs": [],
      "name": "percentReduce",
      "outputs": [
        {
          "internalType": "uint256",
          "name": "",
          "type": "uint256"
        }
      ],
      "stateMutability": "view",
      "type": "function"
    },
    {
      "inputs": [],
      "name": "renounceOwnership",
      "outputs": [],
      "stateMutability": "nonpayable",
      "type": "function"
    },
    {
      "inputs": [],
      "name": "teamUnlockDate",
      "outputs": [
        {
          "internalType": "uint256",
          "name": "",
          "type": "uint256"
        }
      ],
      "stateMutability": "view",
      "type": "function"
    },
    {
      "inputs": [],
      "name": "teamWallet",
      "outputs": [
        {
          "internalType": "address",
          "name": "",
          "type": "address"
        }
      ],
      "stateMutability": "view",
      "type": "function"
    },
    {
      "inputs": [
        {
          "internalType": "address",
          "name": "newOwner",
          "type": "address"
        }
      ],
      "name": "transferOwnership",
      "outputs": [],
      "stateMutability": "nonpayable",
      "type": "function"
    },
    {
      "inputs": [],
      "name": "update_period",
      "outputs": [
        {
          "internalType": "uint256",
          "name": "",
          "type": "uint256"
        }
      ],
      "stateMutability": "nonpayable",
      "type": "function"
    },
    {
      "inputs": [],
      "name": "votersLock",
      "outputs": [
        {
          "internalType": "address",
          "name": "",
          "type": "address"
        }
      ],
      "stateMutability": "view",
      "type": "function"
    },
    {
      "inputs": [],
      "name": "weekly",
      "outputs": [
        {
          "internalType": "uint256",
          "name": "",
          "type": "uint256"
        }
      ],
      "stateMutability": "view",
      "type": "function"
    },
    {
      "inputs": [],
      "name": "weekly_emission",
      "outputs": [
        {
          "internalType": "uint256",
          "name": "",
          "type": "uint256"
        }
      ],
      "stateMutability": "view",
      "type": "function"
    }
  ],
  "bytecode": "0x6101006040526a108b2a2c280290940000006001556136b06008553480156200002757600080fd5b50604051620016f7380380620016f78339810160408190526200004a91620001b2565b620000553362000145565b600380546001600160a01b0319163317905560408051637e062a3560e11b815290516001600160a01b0385169163fc0c546a9160048083019260209291908290030181865afa158015620000ad573d6000803e3d6000fd5b505050506040513d601f19601f82011682018060405250810190620000d3919062000204565b6001600160a01b0390811660805284811660a05283811660c052821660e05262093a8080620001048160026200023f565b62000110904262000261565b6200011c91906200027c565b6200012891906200023f565b60025562000137814262000261565b600955506200029f92505050565b600080546001600160a01b038381166001600160a01b0319831681178455604051919092169283917f8be0079c531659141344cd1fd0a4f28419497f9722a3daafe3b4186f6b6457e09190a35050565b80516001600160a01b0381168114620001ad57600080fd5b919050565b60008060008060808587031215620001c957600080fd5b620001d48562000195565b9350620001e46020860162000195565b9250620001f46040860162000195565b6060959095015193969295505050565b6000602082840312156200021757600080fd5b620002228262000195565b9392505050565b634e487b7160e01b600052601160045260246000fd5b60008160001904831182151516156200025c576200025c62000229565b500290565b6000821982111562000277576200027762000229565b500190565b6000826200029a57634e487b7160e01b600052601260045260246000fd5b500490565b60805160a05160c05160e0516113996200035e600039600081816101ba0152818161088201528181610c9b01528181610d420152610db5015260008181610264015281816106000152610986015260006101e90152600081816102f901528181610362015281816104860152818161057d015281816106cd01528181610809015281816108ee01528181610a0801528181610b7601528181610bf501528181610cca01528181610eaa01528181610f410152610ff901526113996000f3fe608060405234801561001057600080fd5b50600436106101585760003560e01c80638dd598fb116100c3578063d13996081161007c578063d1399608146102da578063e038c75a146102e3578063e0f89a9f146102eb578063ecd0c0c3146102f4578063ed29fc111461031b578063f2fde38b1461032357600080fd5b80638dd598fb1461025f5780638e01fbfa14610286578063a01ef25f14610299578063a95c372d146102ac578063ce5494bb146102bf578063cfc6c8ff146102d257600080fd5b80633db9b42a116101155780633db9b42a146101e457806340a6fa9d1461020b57806344f2ee6e1461021e5780635992704414610233578063715018a6146102465780638da5cb5b1461024e57600080fd5b806311da6ecc1461015d5780631eebae8014610179578063254c7f1d1461018157806326cfc17b146101ac5780632c6b2f0c146101b557806336d96faf146101dc575b600080fd5b61016660095481565b6040519081526020015b60405180910390f35b610166610336565b600654610194906001600160a01b031681565b6040516001600160a01b039091168152602001610170565b61016660015481565b6101947f000000000000000000000000000000000000000000000000000000000000000081565b61016661035e565b6101947f000000000000000000000000000000000000000000000000000000000000000081565b600554610194906001600160a01b031681565b61023161022c3660046111bd565b61040f565b005b600754610194906001600160a01b031681565b610231610543565b6000546001600160a01b0316610194565b6101947f000000000000000000000000000000000000000000000000000000000000000081565b6101666102943660046111bd565b610579565b6102316102a73660046111ed565b61069a565b600454610194906001600160a01b031681565b6102316102cd36600461124b565b6107c0565b6101666108e3565b61016660025481565b610166610982565b61016660085481565b6101947f000000000000000000000000000000000000000000000000000000000000000081565b610166610a92565b61023161033136600461124b565b6110d2565b60006103e86002610345610982565b61034f9190611283565b61035991906112a2565b905090565b60007f00000000000000000000000000000000000000000000000000000000000000006001600160a01b03166318160ddd6040518163ffffffff1660e01b8152600401602060405180830381865afa1580156103be573d6000803e3d6000fd5b505050506040513d601f19601f820116820180604052508101906103e291906112c4565b60646103ec610982565b60626001546103fb9190611283565b6104059190611283565b61034f91906112a2565b6004546001600160a01b0316331461045a5760405162461bcd60e51b815260206004820152600960248201526809cdee840cccae8c6d60bb1b60448201526064015b60405180910390fd5b600480546040516340c10f1960e01b81526001600160a01b0391821692810192909252602482018390527f000000000000000000000000000000000000000000000000000000000000000016906340c10f1990604401600060405180830381600087803b1580156104ca57600080fd5b505af11580156104de573d6000803e3d6000fd5b50506004546001600160a01b031691507fb4c03061fb5b7fed76389d5af8f2e0ddb09f8c70d1333abbb62582835e10accb90508261051a610982565b610522610336565b6040805193845260208401929092529082015260600160405180910390a250565b6000546001600160a01b0316331461056d5760405162461bcd60e51b8152600401610451906112dd565b610577600061116d565b565b60007f00000000000000000000000000000000000000000000000000000000000000006001600160a01b03166318160ddd6040518163ffffffff1660e01b8152600401602060405180830381865afa1580156105d9573d6000803e3d6000fd5b505050506040513d601f19601f820116820180604052508101906105fd91906112c4565b827f00000000000000000000000000000000000000000000000000000000000000006001600160a01b03166318160ddd6040518163ffffffff1660e01b8152600401602060405180830381865afa15801561065c573d6000803e3d6000fd5b505050506040513d601f19601f8201168201806040525081019061068091906112c4565b61068a9190611283565b61069491906112a2565b92915050565b6003546001600160a01b031633146106b157600080fd5b6040516340c10f1960e01b8152306004820152602481018590527f00000000000000000000000000000000000000000000000000000000000000006001600160a01b0316906340c10f1990604401600060405180830381600087803b15801561071957600080fd5b505af115801561072d573d6000803e3d6000fd5b5050600480546001600160a01b0389166001600160a01b0319918216179091556003805490911690555062093a809050806107688142611312565b61077291906112a2565b61077c9190611283565b600255600580546001600160a01b039485166001600160a01b0319918216179091556006805493851693821693909317909255600780549190931691161790555050565b6000546001600160a01b031633146107ea5760405162461bcd60e51b8152600401610451906112dd565b604051637e51dad560e11b81526001600160a01b0382811660048301527f0000000000000000000000000000000000000000000000000000000000000000169063fca3b5aa90602401600060405180830381600087803b15801561084d57600080fd5b505af1158015610861573d6000803e3d6000fd5b505060405163f2c098b760e01b81526001600160a01b0384811660048301527f000000000000000000000000000000000000000000000000000000000000000016925063f2c098b79150602401600060405180830381600087803b1580156108c857600080fd5b505af11580156108dc573d6000803e3d6000fd5b5050505050565b6000600854620186a07f00000000000000000000000000000000000000000000000000000000000000006001600160a01b03166318160ddd6040518163ffffffff1660e01b8152600401602060405180830381865afa15801561094a573d6000803e3d6000fd5b505050506040513d601f19601f8201168201806040525081019061096e91906112c4565b61097891906112a2565b6103599190611283565b60007f00000000000000000000000000000000000000000000000000000000000000006001600160a01b03166318160ddd6040518163ffffffff1660e01b8152600401602060405180830381865afa1580156109e2573d6000803e3d6000fd5b505050506040513d601f19601f82011682018060405250810190610a0691906112c4565b7f00000000000000000000000000000000000000000000000000000000000000006001600160a01b03166318160ddd6040518163ffffffff1660e01b8152600401602060405180830381865afa158015610a64573d6000803e3d6000fd5b505050506040513d601f19601f82011682018060405250810190610a8891906112c4565b610359919061132a565b600254600090610aa562093a8082611312565b4210158015610abd57506003546001600160a01b0316155b156110cd5760646008541115610b03576064600854610adc91906112a2565b610ae7906002611283565b60086000828254610af8919061132a565b90915550610b099050565b60026008555b62093a80610b1781426112a2565b610b219190611283565b60028190559050610b306108e3565b6001819055600090610b4190610579565b9050600060015482610b539190611312565b6040516370a0823160e01b81523060048201529091506000906001600160a01b037f000000000000000000000000000000000000000000000000000000000000000016906370a0823190602401602060405180830381865afa158015610bbd573d6000803e3d6000fd5b505050506040513d601f19601f82011682018060405250810190610be191906112c4565b905081811015610c84576001600160a01b037f0000000000000000000000000000000000000000000000000000000000000000166340c10f1930610c25848661132a565b6040516001600160e01b031960e085901b1681526001600160a01b0390921660048301526024820152604401600060405180830381600087803b158015610c6b57600080fd5b505af1158015610c7f573d6000803e3d6000fd5b505050505b60405163a9059cbb60e01b81526001600160a01b037f000000000000000000000000000000000000000000000000000000000000000081166004830152602482018590527f0000000000000000000000000000000000000000000000000000000000000000169063a9059cbb906044016020604051808303816000875af1158015610d13573d6000803e3d6000fd5b505050506040513d601f19601f82011682018060405250810190610d379190611341565b610d4057600080fd5b7f00000000000000000000000000000000000000000000000000000000000000006001600160a01b031663811a40fe6040518163ffffffff1660e01b8152600401600060405180830381600087803b158015610d9b57600080fd5b505af1158015610daf573d6000803e3d6000fd5b505050507f00000000000000000000000000000000000000000000000000000000000000006001600160a01b031663b21ed5026040518163ffffffff1660e01b8152600401600060405180830381600087803b158015610e0e57600080fd5b505af1158015610e22573d6000803e3d6000fd5b5050505060006064600154610e3791906112a2565b610e42906014611283565b905060006064600154610e5591906112a2565b610e60906028611283565b905060006064600154610e7391906112a2565b610e7e906028611283565b60055460405163a9059cbb60e01b81526001600160a01b039182166004820152602481018590529192507f0000000000000000000000000000000000000000000000000000000000000000169063a9059cbb906044016020604051808303816000875af1158015610ef3573d6000803e3d6000fd5b505050506040513d601f19601f82011682018060405250810190610f179190611341565b5060065460405163a9059cbb60e01b81526001600160a01b039182166004820152602481018390527f00000000000000000000000000000000000000000000000000000000000000009091169063a9059cbb906044016020604051808303816000875af1158015610f8c573d6000803e3d6000fd5b505050506040513d601f19601f82011682018060405250810190610fb09190611341565b5060006009544211610fc3576000610fd0565b6007546001600160a01b03165b60405163a9059cbb60e01b81526001600160a01b038083166004830152602482018790529192507f00000000000000000000000000000000000000000000000000000000000000009091169063a9059cbb906044016020604051808303816000875af1158015611044573d6000803e3d6000fd5b505050506040513d601f19601f820116820180604052508101906110689190611341565b50336001600160a01b03167fb4c03061fb5b7fed76389d5af8f2e0ddb09f8c70d1333abbb62582835e10accb60015461109f610982565b6110a7610336565b6040805193845260208401929092529082015260600160405180910390a2505050505050505b919050565b6000546001600160a01b031633146110fc5760405162461bcd60e51b8152600401610451906112dd565b6001600160a01b0381166111615760405162461bcd60e51b815260206004820152602660248201527f4f776e61626c653a206e6577206f776e657220697320746865207a65726f206160448201526564647265737360d01b6064820152608401610451565b61116a8161116d565b50565b600080546001600160a01b038381166001600160a01b0319831681178455604051919092169283917f8be0079c531659141344cd1fd0a4f28419497f9722a3daafe3b4186f6b6457e09190a35050565b6000602082840312156111cf57600080fd5b5035919050565b80356001600160a01b03811681146110cd57600080fd5b600080600080600060a0868803121561120557600080fd5b61120e866111d6565b945060208601359350611223604087016111d6565b9250611231606087016111d6565b915061123f608087016111d6565b90509295509295909350565b60006020828403121561125d57600080fd5b611266826111d6565b9392505050565b634e487b7160e01b600052601160045260246000fd5b600081600019048311821515161561129d5761129d61126d565b500290565b6000826112bf57634e487b7160e01b600052601260045260246000fd5b500490565b6000602082840312156112d657600080fd5b5051919050565b6020808252818101527f4f776e61626c653a2063616c6c6572206973206e6f7420746865206f776e6572604082015260600190565b600082198211156113255761132561126d565b500190565b60008282101561133c5761133c61126d565b500390565b60006020828403121561135357600080fd5b8151801515811461126657600080fdfea2646970667358221220e64c3255fa70ffb006cde13112a890c4975b26efadc7ef1b03eb0671f4ebbabf64736f6c634300080b0033",
  "linkReferences": {},
  "deployedLinkReferences": {}
}