{
  "_format": "hh-sol-artifact-1",
  "contractName": "VotersRewardsRescue",
  "sourceName": "contracts/test/VotersFormulaRescue.sol",
  "abi": [
    {
      "inputs": [
        {
          "internalType": "address",
          "name": "_rewardsLocker",
          "type": "address"
        },
        {
          "internalType": "address",
          "name": "_rewardToken",
          "type": "address"
        }
      ],
      "stateMutability": "nonpayable",
      "type": "constructor"
    },
    {
      "inputs": [],
      "name": "computeRewards",
      "outputs": [
        {
          "internalType": "uint256",
          "name": "",
          "type": "uint256"
        }
      ],
      "stateMutability": "view",
      "type": "function"
    },
    {
      "inputs": [],
      "name": "rewardToken",
      "outputs": [
        {
          "internalType": "address",
          "name": "",
          "type": "address"
        }
      ],
      "stateMutability": "view",
      "type": "function"
    },
    {
      "inputs": [],
      "name": "rewardsLocker",
      "outputs": [
        {
          "internalType": "address",
          "name": "",
          "type": "address"
        }
      ],
      "stateMutability": "view",
      "type": "function"
    }
  ],
  "bytecode": "0x608060405234801561001057600080fd5b5060405161022338038061022383398101604081905261002f9161007c565b600080546001600160a01b039384166001600160a01b031991821617909155600180549290931691161790556100af565b80516001600160a01b038116811461007757600080fd5b919050565b6000806040838503121561008f57600080fd5b61009883610060565b91506100a660208401610060565b90509250929050565b610165806100be6000396000f3fe608060405234801561001057600080fd5b50600436106100415760003560e01c80637c1b7f8a14610046578063b8b94c6e14610061578063f7c618c11461008c575b600080fd5b61004e61009f565b6040519081526020015b60405180910390f35b600054610074906001600160a01b031681565b6040516001600160a01b039091168152602001610058565b600154610074906001600160a01b031681565b600154600080546040516370a0823160e01b81526001600160a01b039182166004820152919216906370a0823190602401602060405180830381865afa1580156100ed573d6000803e3d6000fd5b505050506040513d601f19601f820116820180604052508101906101119190610116565b905090565b60006020828403121561012857600080fd5b505191905056fea264697066735822122025af4d6616417640be8d9baa413e6983f98fec7f7bcd16a9a7e0c86624d7b29d64736f6c634300080b0033",
  "linkReferences": {},
  "deployedLinkReferences": {}
}