{
  "_format": "hh-sol-artifact-1",
  "contractName": "ve_formula",
  "sourceName": "contracts/ve_formula.sol",
  "abi": [
    {
      "inputs": [
        {
          "internalType": "address",
          "name": "token",
          "type": "address"
        },
        {
          "internalType": "uint256",
          "name": "supply",
          "type": "uint256"
        },
        {
          "internalType": "uint256",
          "name": "constructTime",
          "type": "uint256"
        },
        {
          "internalType": "uint256",
          "name": "maxX",
          "type": "uint256"
        },
        {
          "internalType": "uint256",
          "name": "maxY",
          "type": "uint256"
        }
      ],
      "name": "getMaxTime",
      "outputs": [
        {
          "internalType": "uint256",
          "name": "",
          "type": "uint256"
        }
      ],
      "stateMutability": "view",
      "type": "function"
    },
    {
      "inputs": [],
      "name": "routerAddress",
      "outputs": [
        {
          "internalType": "address",
          "name": "",
          "type": "address"
        }
      ],
      "stateMutability": "view",
      "type": "function"
    },
    {
      "inputs": [],
      "name": "usdcAddress",
      "outputs": [
        {
          "internalType": "address",
          "name": "",
          "type": "address"
        }
      ],
      "stateMutability": "view",
      "type": "function"
    }
  ],
  "bytecode": "0x6080604052600080546001600160a01b03199081167316327e3fbdaca3bcf7e38f5af2599d2ddc33ae5217909155600180549091167321be370d5312f44cb42ce377bc9b8a0cef1a4c8317905534801561005857600080fd5b506106a8806100686000396000f3fe608060405234801561001057600080fd5b50600436106100415760003560e01c806302d45457146100465780633268cc56146100765780634aca5a5014610089575b600080fd5b600154610059906001600160a01b031681565b6040516001600160a01b0390911681526020015b60405180910390f35b600054610059906001600160a01b031681565b61009c61009736600461053e565b6100aa565b60405190815260200161006d565b600080546040805163c45a015560e01b8152905183926001600160a01b03169163c45a01559160048083019260209291908290030181865afa1580156100f4573d6000803e3d6000fd5b505050506040513d601f19601f820116820180604052508101906101189190610582565b60015460405163e6a4390560e01b81526001600160a01b038a8116600483015291821660248201529192506000919083169063e6a4390590604401602060405180830381865afa158015610170573d6000803e3d6000fd5b505050506040513d601f19601f820116820180604052508101906101949190610582565b90506000806000836001600160a01b0316630902f1ac6040518163ffffffff1660e01b8152600401606060405180830381865afa1580156101d9573d6000803e3d6000fd5b505050506040513d601f19601f820116820180604052508101906101fd91906105c2565b63ffffffff1692506001600160701b031692506001600160701b0316925060008360001415801561022d57508215155b801561023857508a15155b156102c857600054604051630153543560e21b8152600481018d90526024810186905260448101859052620f4240916001600160a01b03169063054d50d490606401602060405180830381865afa158015610297573d6000803e3d6000fd5b505050506040513d601f19601f820116820180604052508101906102bb9190610612565b6102c5919061062b565b90505b5089886102d58b4261064d565b1015806102e25750878110155b156102f8576293a800965050505050505061051d565b621275006103068b4261064d565b10158061031e57506a52b7d2dcc80cd2e40000008110155b156103345762813300965050505050505061051d565b621275006103428b4261064d565b10158061035a57506a18d0bf423c03d8de0000008110155b1561037057626ebe00965050505050505061051d565b6212750061037e8b4261064d565b10158061039657506a084595161401484a0000008110155b156103ac57625c4900965050505050505061051d565b621275006103ba8b4261064d565b1015806103d257506a034f086f3b33b6840000008110155b156103e8576249d400965050505050505061051d565b621275006103f68b4261064d565b10158061040e57506a01a784379d99db420000008110155b156104245762375f00965050505050505061051d565b62093a806104328b4261064d565b101580610449575069d3c21bcecceda10000008110155b1561045f576224ea00965050505050505061051d565b6205460061046d8b4261064d565b10158061048457506954b40b1f852bda0000008110155b1561049a57621baf80965050505050505061051d565b6202a3006104a88b4261064d565b1015806104bf5750692a5a058fc295ed0000008110155b156104d55762127500965050505050505061051d565b620151806104e38b4261064d565b1015806104fa575069152d02c7e14af68000008110155b156105105762093a80965050505050505061051d565b6201518096505050505050505b95945050505050565b6001600160a01b038116811461053b57600080fd5b50565b600080600080600060a0868803121561055657600080fd5b853561056181610526565b97602087013597506040870135966060810135965060800135945092505050565b60006020828403121561059457600080fd5b815161059f81610526565b9392505050565b80516001600160701b03811681146105bd57600080fd5b919050565b6000806000606084860312156105d757600080fd5b6105e0846105a6565b92506105ee602085016105a6565b9150604084015163ffffffff8116811461060757600080fd5b809150509250925092565b60006020828403121561062457600080fd5b5051919050565b60008261064857634e487b7160e01b600052601260045260246000fd5b500490565b60008282101561066d57634e487b7160e01b600052601160045260246000fd5b50039056fea26469706673582212201b1a150e4683cf874c31a83f136b126146f527f281fcf65c1ec7f7b99597725464736f6c634300080b0033",
  "linkReferences": {},
  "deployedLinkReferences": {}
}