{
  "_format": "hh-sol-artifact-1",
  "contractName": "BaseV1Voter",
  "sourceName": "contracts/BaseV1-voter.sol",
  "abi": [
    {
      "inputs": [
        {
          "internalType": "address",
          "name": "__ve",
          "type": "address"
        },
        {
          "internalType": "address",
          "name": "_factory",
          "type": "address"
        },
        {
          "internalType": "address",
          "name": "_gauges",
          "type": "address"
        },
        {
          "internalType": "address",
          "name": "_bribes",
          "type": "address"
        },
        {
          "internalType": "address",
          "name": "_gaugeWhiteList",
          "type": "address"
        }
      ],
      "stateMutability": "nonpayable",
      "type": "constructor"
    },
    {
      "anonymous": false,
      "inputs": [
        {
          "indexed": false,
          "internalType": "uint256",
          "name": "tokenId",
          "type": "uint256"
        },
        {
          "indexed": false,
          "internalType": "int256",
          "name": "weight",
          "type": "int256"
        }
      ],
      "name": "Abstained",
      "type": "event"
    },
    {
      "anonymous": false,
      "inputs": [
        {
          "indexed": true,
          "internalType": "address",
          "name": "owner",
          "type": "address"
        },
        {
          "indexed": true,
          "internalType": "address",
          "name": "gauge",
          "type": "address"
        },
        {
          "indexed": false,
          "internalType": "uint256",
          "name": "tokenId",
          "type": "uint256"
        }
      ],
      "name": "Attach",
      "type": "event"
    },
    {
      "anonymous": false,
      "inputs": [
        {
          "indexed": true,
          "internalType": "address",
          "name": "lp",
          "type": "address"
        },
        {
          "indexed": true,
          "internalType": "address",
          "name": "gauge",
          "type": "address"
        },
        {
          "indexed": false,
          "internalType": "uint256",
          "name": "tokenId",
          "type": "uint256"
        },
        {
          "indexed": false,
          "internalType": "uint256",
          "name": "amount",
          "type": "uint256"
        }
      ],
      "name": "Deposit",
      "type": "event"
    },
    {
      "anonymous": false,
      "inputs": [
        {
          "indexed": true,
          "internalType": "address",
          "name": "owner",
          "type": "address"
        },
        {
          "indexed": true,
          "internalType": "address",
          "name": "gauge",
          "type": "address"
        },
        {
          "indexed": false,
          "internalType": "uint256",
          "name": "tokenId",
          "type": "uint256"
        }
      ],
      "name": "Detach",
      "type": "event"
    },
    {
      "anonymous": false,
      "inputs": [
        {
          "indexed": true,
          "internalType": "address",
          "name": "sender",
          "type": "address"
        },
        {
          "indexed": true,
          "internalType": "address",
          "name": "gauge",
          "type": "address"
        },
        {
          "indexed": false,
          "internalType": "uint256",
          "name": "amount",
          "type": "uint256"
        }
      ],
      "name": "DistributeReward",
      "type": "event"
    },
    {
      "anonymous": false,
      "inputs": [
        {
          "indexed": true,
          "internalType": "address",
          "name": "gauge",
          "type": "address"
        },
        {
          "indexed": false,
          "internalType": "address",
          "name": "creator",
          "type": "address"
        },
        {
          "indexed": true,
          "internalType": "address",
          "name": "bribe",
          "type": "address"
        },
        {
          "indexed": true,
          "internalType": "address",
          "name": "pool",
          "type": "address"
        }
      ],
      "name": "GaugeCreated",
      "type": "event"
    },
    {
      "anonymous": false,
      "inputs": [
        {
          "indexed": true,
          "internalType": "address",
          "name": "sender",
          "type": "address"
        },
        {
          "indexed": true,
          "internalType": "address",
          "name": "reward",
          "type": "address"
        },
        {
          "indexed": false,
          "internalType": "uint256",
          "name": "amount",
          "type": "uint256"
        }
      ],
      "name": "NotifyReward",
      "type": "event"
    },
    {
      "anonymous": false,
      "inputs": [
        {
          "indexed": true,
          "internalType": "address",
          "name": "voter",
          "type": "address"
        },
        {
          "indexed": false,
          "internalType": "uint256",
          "name": "tokenId",
          "type": "uint256"
        },
        {
          "indexed": false,
          "internalType": "int256",
          "name": "weight",
          "type": "int256"
        }
      ],
      "name": "Voted",
      "type": "event"
    },
    {
      "anonymous": false,
      "inputs": [
        {
          "indexed": true,
          "internalType": "address",
          "name": "whitelister",
          "type": "address"
        },
        {
          "indexed": true,
          "internalType": "address",
          "name": "token",
          "type": "address"
        }
      ],
      "name": "Whitelisted",
      "type": "event"
    },
    {
      "anonymous": false,
      "inputs": [
        {
          "indexed": true,
          "internalType": "address",
          "name": "lp",
          "type": "address"
        },
        {
          "indexed": true,
          "internalType": "address",
          "name": "gauge",
          "type": "address"
        },
        {
          "indexed": false,
          "internalType": "uint256",
          "name": "tokenId",
          "type": "uint256"
        },
        {
          "indexed": false,
          "internalType": "uint256",
          "name": "amount",
          "type": "uint256"
        }
      ],
      "name": "Withdraw",
      "type": "event"
    },
    {
      "inputs": [],
      "name": "_ve",
      "outputs": [
        {
          "internalType": "address",
          "name": "",
          "type": "address"
        }
      ],
      "stateMutability": "view",
      "type": "function"
    },
    {
      "inputs": [
        {
          "internalType": "uint256",
          "name": "tokenId",
          "type": "uint256"
        },
        {
          "internalType": "address",
          "name": "account",
          "type": "address"
        }
      ],
      "name": "attachTokenToGauge",
      "outputs": [],
      "stateMutability": "nonpayable",
      "type": "function"
    },
    {
      "inputs": [],
      "name": "bribefactory",
      "outputs": [
        {
          "internalType": "address",
          "name": "",
          "type": "address"
        }
      ],
      "stateMutability": "view",
      "type": "function"
    },
    {
      "inputs": [
        {
          "internalType": "address",
          "name": "",
          "type": "address"
        }
      ],
      "name": "bribes",
      "outputs": [
        {
          "internalType": "address",
          "name": "",
          "type": "address"
        }
      ],
      "stateMutability": "view",
      "type": "function"
    },
    {
      "inputs": [
        {
          "internalType": "address[]",
          "name": "_bribes",
          "type": "address[]"
        },
        {
          "internalType": "address[][]",
          "name": "_tokens",
          "type": "address[][]"
        },
        {
          "internalType": "uint256",
          "name": "_tokenId",
          "type": "uint256"
        }
      ],
      "name": "claimBribes",
      "outputs": [],
      "stateMutability": "nonpayable",
      "type": "function"
    },
    {
      "inputs": [
        {
          "internalType": "address[]",
          "name": "_fees",
          "type": "address[]"
        },
        {
          "internalType": "address[][]",
          "name": "_tokens",
          "type": "address[][]"
        },
        {
          "internalType": "uint256",
          "name": "_tokenId",
          "type": "uint256"
        }
      ],
      "name": "claimFees",
      "outputs": [],
      "stateMutability": "nonpayable",
      "type": "function"
    },
    {
      "inputs": [
        {
          "internalType": "address[]",
          "name": "_gauges",
          "type": "address[]"
        },
        {
          "internalType": "address[][]",
          "name": "_tokens",
          "type": "address[][]"
        }
      ],
      "name": "claimRewards",
      "outputs": [],
      "stateMutability": "nonpayable",
      "type": "function"
    },
    {
      "inputs": [
        {
          "internalType": "address",
          "name": "",
          "type": "address"
        }
      ],
      "name": "claimable",
      "outputs": [
        {
          "internalType": "uint256",
          "name": "",
          "type": "uint256"
        }
      ],
      "stateMutability": "view",
      "type": "function"
    },
    {
      "inputs": [
        {
          "internalType": "address",
          "name": "_pool",
          "type": "address"
        }
      ],
      "name": "createGauge",
      "outputs": [
        {
          "internalType": "address",
          "name": "",
          "type": "address"
        }
      ],
      "stateMutability": "nonpayable",
      "type": "function"
    },
    {
      "inputs": [
        {
          "internalType": "uint256",
          "name": "tokenId",
          "type": "uint256"
        },
        {
          "internalType": "address",
          "name": "account",
          "type": "address"
        }
      ],
      "name": "detachTokenFromGauge",
      "outputs": [],
      "stateMutability": "nonpayable",
      "type": "function"
    },
    {
      "inputs": [
        {
          "internalType": "address[]",
          "name": "_gauges",
          "type": "address[]"
        }
      ],
      "name": "distribute",
      "outputs": [],
      "stateMutability": "nonpayable",
      "type": "function"
    },
    {
      "inputs": [
        {
          "internalType": "address",
          "name": "_gauge",
          "type": "address"
        }
      ],
      "name": "distribute",
      "outputs": [],
      "stateMutability": "nonpayable",
      "type": "function"
    },
    {
      "inputs": [
        {
          "internalType": "uint256",
          "name": "start",
          "type": "uint256"
        },
        {
          "internalType": "uint256",
          "name": "finish",
          "type": "uint256"
        }
      ],
      "name": "distribute",
      "outputs": [],
      "stateMutability": "nonpayable",
      "type": "function"
    },
    {
      "inputs": [],
      "name": "distribute",
      "outputs": [],
      "stateMutability": "nonpayable",
      "type": "function"
    },
    {
      "inputs": [
        {
          "internalType": "address[]",
          "name": "_gauges",
          "type": "address[]"
        }
      ],
      "name": "distributeFees",
      "outputs": [],
      "stateMutability": "nonpayable",
      "type": "function"
    },
    {
      "inputs": [],
      "name": "distro",
      "outputs": [],
      "stateMutability": "nonpayable",
      "type": "function"
    },
    {
      "inputs": [
        {
          "internalType": "uint256",
          "name": "tokenId",
          "type": "uint256"
        },
        {
          "internalType": "address",
          "name": "account",
          "type": "address"
        },
        {
          "internalType": "uint256",
          "name": "amount",
          "type": "uint256"
        }
      ],
      "name": "emitDeposit",
      "outputs": [],
      "stateMutability": "nonpayable",
      "type": "function"
    },
    {
      "inputs": [
        {
          "internalType": "uint256",
          "name": "tokenId",
          "type": "uint256"
        },
        {
          "internalType": "address",
          "name": "account",
          "type": "address"
        },
        {
          "internalType": "uint256",
          "name": "amount",
          "type": "uint256"
        }
      ],
      "name": "emitWithdraw",
      "outputs": [],
      "stateMutability": "nonpayable",
      "type": "function"
    },
    {
      "inputs": [],
      "name": "factory",
      "outputs": [
        {
          "internalType": "address",
          "name": "",
          "type": "address"
        }
      ],
      "stateMutability": "view",
      "type": "function"
    },
    {
      "inputs": [],
      "name": "gaugeWhiteList",
      "outputs": [
        {
          "internalType": "contract IGaugeWhiteList",
          "name": "",
          "type": "address"
        }
      ],
      "stateMutability": "view",
      "type": "function"
    },
    {
      "inputs": [],
      "name": "gaugefactory",
      "outputs": [
        {
          "internalType": "address",
          "name": "",
          "type": "address"
        }
      ],
      "stateMutability": "view",
      "type": "function"
    },
    {
      "inputs": [
        {
          "internalType": "address",
          "name": "",
          "type": "address"
        }
      ],
      "name": "gauges",
      "outputs": [
        {
          "internalType": "address",
          "name": "",
          "type": "address"
        }
      ],
      "stateMutability": "view",
      "type": "function"
    },
    {
      "inputs": [
        {
          "internalType": "address[]",
          "name": "_tokens",
          "type": "address[]"
        },
        {
          "internalType": "address",
          "name": "_minter",
          "type": "address"
        }
      ],
      "name": "initialize",
      "outputs": [],
      "stateMutability": "nonpayable",
      "type": "function"
    },
    {
      "inputs": [
        {
          "internalType": "address",
          "name": "",
          "type": "address"
        }
      ],
      "name": "isGauge",
      "outputs": [
        {
          "internalType": "bool",
          "name": "",
          "type": "bool"
        }
      ],
      "stateMutability": "view",
      "type": "function"
    },
    {
      "inputs": [
        {
          "internalType": "address",
          "name": "",
          "type": "address"
        }
      ],
      "name": "isWhitelisted",
      "outputs": [
        {
          "internalType": "bool",
          "name": "",
          "type": "bool"
        }
      ],
      "stateMutability": "view",
      "type": "function"
    },
    {
      "inputs": [],
      "name": "length",
      "outputs": [
        {
          "internalType": "uint256",
          "name": "",
          "type": "uint256"
        }
      ],
      "stateMutability": "view",
      "type": "function"
    },
    {
      "inputs": [],
      "name": "listing_fee",
      "outputs": [
        {
          "internalType": "uint256",
          "name": "",
          "type": "uint256"
        }
      ],
      "stateMutability": "view",
      "type": "function"
    },
    {
      "inputs": [],
      "name": "minter",
      "outputs": [
        {
          "internalType": "address",
          "name": "",
          "type": "address"
        }
      ],
      "stateMutability": "view",
      "type": "function"
    },
    {
      "inputs": [
        {
          "internalType": "uint256",
          "name": "amount",
          "type": "uint256"
        }
      ],
      "name": "notifyRewardAmount",
      "outputs": [],
      "stateMutability": "nonpayable",
      "type": "function"
    },
    {
      "inputs": [
        {
          "internalType": "uint256",
          "name": "_tokenId",
          "type": "uint256"
        }
      ],
      "name": "poke",
      "outputs": [],
      "stateMutability": "nonpayable",
      "type": "function"
    },
    {
      "inputs": [
        {
          "internalType": "address",
          "name": "",
          "type": "address"
        }
      ],
      "name": "poolForGauge",
      "outputs": [
        {
          "internalType": "address",
          "name": "",
          "type": "address"
        }
      ],
      "stateMutability": "view",
      "type": "function"
    },
    {
      "inputs": [
        {
          "internalType": "uint256",
          "name": "",
          "type": "uint256"
        },
        {
          "internalType": "uint256",
          "name": "",
          "type": "uint256"
        }
      ],
      "name": "poolVote",
      "outputs": [
        {
          "internalType": "address",
          "name": "",
          "type": "address"
        }
      ],
      "stateMutability": "view",
      "type": "function"
    },
    {
      "inputs": [
        {
          "internalType": "uint256",
          "name": "",
          "type": "uint256"
        }
      ],
      "name": "pools",
      "outputs": [
        {
          "internalType": "address",
          "name": "",
          "type": "address"
        }
      ],
      "stateMutability": "view",
      "type": "function"
    },
    {
      "inputs": [
        {
          "internalType": "uint256",
          "name": "_tokenId",
          "type": "uint256"
        }
      ],
      "name": "reset",
      "outputs": [],
      "stateMutability": "nonpayable",
      "type": "function"
    },
    {
      "inputs": [],
      "name": "totalWeight",
      "outputs": [
        {
          "internalType": "uint256",
          "name": "",
          "type": "uint256"
        }
      ],
      "stateMutability": "view",
      "type": "function"
    },
    {
      "inputs": [],
      "name": "updateAll",
      "outputs": [],
      "stateMutability": "nonpayable",
      "type": "function"
    },
    {
      "inputs": [
        {
          "internalType": "address[]",
          "name": "_gauges",
          "type": "address[]"
        }
      ],
      "name": "updateFor",
      "outputs": [],
      "stateMutability": "nonpayable",
      "type": "function"
    },
    {
      "inputs": [
        {
          "internalType": "uint256",
          "name": "start",
          "type": "uint256"
        },
        {
          "internalType": "uint256",
          "name": "end",
          "type": "uint256"
        }
      ],
      "name": "updateForRange",
      "outputs": [],
      "stateMutability": "nonpayable",
      "type": "function"
    },
    {
      "inputs": [
        {
          "internalType": "address",
          "name": "_gauge",
          "type": "address"
        }
      ],
      "name": "updateGauge",
      "outputs": [],
      "stateMutability": "nonpayable",
      "type": "function"
    },
    {
      "inputs": [
        {
          "internalType": "address",
          "name": "_newMinter",
          "type": "address"
        }
      ],
      "name": "updateMinter",
      "outputs": [],
      "stateMutability": "nonpayable",
      "type": "function"
    },
    {
      "inputs": [
        {
          "internalType": "uint256",
          "name": "",
          "type": "uint256"
        }
      ],
      "name": "usedWeights",
      "outputs": [
        {
          "internalType": "uint256",
          "name": "",
          "type": "uint256"
        }
      ],
      "stateMutability": "view",
      "type": "function"
    },
    {
      "inputs": [
        {
          "internalType": "uint256",
          "name": "tokenId",
          "type": "uint256"
        },
        {
          "internalType": "address[]",
          "name": "_poolVote",
          "type": "address[]"
        },
        {
          "internalType": "int256[]",
          "name": "_weights",
          "type": "int256[]"
        }
      ],
      "name": "vote",
      "outputs": [],
      "stateMutability": "nonpayable",
      "type": "function"
    },
    {
      "inputs": [
        {
          "internalType": "uint256",
          "name": "",
          "type": "uint256"
        },
        {
          "internalType": "address",
          "name": "",
          "type": "address"
        }
      ],
      "name": "votes",
      "outputs": [
        {
          "internalType": "int256",
          "name": "",
          "type": "int256"
        }
      ],
      "stateMutability": "view",
      "type": "function"
    },
    {
      "inputs": [
        {
          "internalType": "address",
          "name": "",
          "type": "address"
        }
      ],
      "name": "weights",
      "outputs": [
        {
          "internalType": "int256",
          "name": "",
          "type": "int256"
        }
      ],
      "stateMutability": "view",
      "type": "function"
    },
    {
      "inputs": [
        {
          "internalType": "address",
          "name": "_token",
          "type": "address"
        },
        {
          "internalType": "uint256",
          "name": "_tokenId",
          "type": "uint256"
        }
      ],
      "name": "whitelist",
      "outputs": [],
      "stateMutability": "nonpayable",
      "type": "function"
    }
  ],
  "bytecode": "0x6101206040526001600d553480156200001757600080fd5b5060405162003260380380620032608339810160408190526200003a9162000115565b6001600160a01b03808616608081905290851660a05260408051637e062a3560e11b8152905163fc0c546a916004808201926020929091908290030181865afa1580156200008c573d6000803e3d6000fd5b505050506040513d601f19601f82011682018060405250810190620000b2919062000185565b6001600160a01b0390811660c05292831660e05290821661010052600080546001600160a01b031990811633179091556001805492909316911617905550620001aa9050565b80516001600160a01b03811681146200011057600080fd5b919050565b600080600080600060a086880312156200012e57600080fd5b6200013986620000f8565b94506200014960208701620000f8565b93506200015960408701620000f8565b92506200016960608701620000f8565b91506200017960808701620000f8565b90509295509295909350565b6000602082840312156200019857600080fd5b620001a382620000f8565b9392505050565b60805160a05160c05160e05161010051612fd7620002896000396000818161032f01526117a3015260008181610451015261187a0152600081816109e501528181610a5e01528181610d9e01528181610e5a01528181611441015281816119110152611bde015260008181610623015261155a0152600081816104e40152818161078e0152818161082901528181610aeb01528181610f2a0152818161108f015281816111bf01528181611308015281816113b60152818161184c01528181611b5c01528181611dcf0152818161210f01526124920152612fd76000f3fe608060405234801561001057600080fd5b506004361061027f5760003560e01c80637625391a1161015c578063a8c5d95a116100ce578063c527ee1f11610087578063c527ee1f14610645578063d23254b414610658578063d560b0d714610683578063e4fc6b6d146103dd578063ea94ee4414610696578063fecdad60146106a957600080fd5b8063a8c5d95a1461058e578063aa79979b146105b7578063ac4afa38146105da578063b980777a146105ed578063b9a09fd5146105f5578063c45a01551461061e57600080fd5b806398fc55d81161012057806398fc55d81461050f5780639b6a9d7214610522578063a5f4301e14610535578063a61c713a14610548578063a7cac8461461055b578063a86a366d1461057b57600080fd5b80637625391a146104995780637715ee75146104ac57806379e93824146104bf5780638dd598fb146104df57806396c82e571461050657600080fd5b8063462d0b2e116101f55780636138889b116101b95780636138889b1461041357806363453ae114610426578063666256aa1461043957806368c3acb31461044c578063698473e3146104735780636ecbe38a1461048657600080fd5b8063462d0b2e146103ca57806347b3c6ba146103dd5780634eb03f6e146103e557806353d78693146103f85780635f66d2971461040057600080fd5b806332145f901161024757806332145f901461031757806338752a9d1461032a5780633af32abf146103515780633c6b16ab14610384578063402914f514610397578063411b1f77146103b757600080fd5b806306d6a1b21461028457806307546172146102ca5780631f7b6d32146102dd57806320b1cb6f146102ef578063310bd74b14610304575b600080fd5b6102ad6102923660046127be565b6005602052600090815260409020546001600160a01b031681565b6040516001600160a01b0390911681526020015b60405180910390f35b6000546102ad906001600160a01b031681565b6003545b6040519081526020016102c1565b6103026102fd366004612941565b6106bc565b005b6103026103123660046129a5565b610772565b6103026103253660046129a5565b610890565b6102ad7f000000000000000000000000000000000000000000000000000000000000000081565b61037461035f3660046127be565b600c6020526000908152604090205460ff1681565b60405190151581526020016102c1565b6103026103923660046129a5565b6109e0565b6102e16103a53660046127be565b60106020526000908152604090205481565b6103026103c53660046129be565b610ab3565b6103026103d83660046129ee565b610b8d565b610302610c08565b6103026103f33660046127be565b610c19565b610302610c89565b6001546102ad906001600160a01b031681565b610302610421366004612a35565b610c98565b6103026104343660046127be565b610cdc565b610302610447366004612a72565b610f0e565b6102ad7f000000000000000000000000000000000000000000000000000000000000000081565b6103026104813660046129be565b611057565b6103026104943660046127be565b611131565b6103026104a7366004612adf565b61113d565b6103026104ba366004612a72565b6111a3565b6102e16104cd3660046129a5565b600a6020526000908152604090205481565b6102ad7f000000000000000000000000000000000000000000000000000000000000000081565b6102e160025481565b61030261051d366004612b01565b6112ec565b610302610530366004612adf565b611482565b6102ad6105433660046127be565b6114e8565b610302610556366004612b2d565b611a8c565b6102e16105693660046127be565b60076020526000908152604090205481565b6102ad610589366004612adf565b611af4565b6102ad61059c3660046127be565b6006602052600090815260409020546001600160a01b031681565b6103746105c53660046127be565b600b6020526000908152604090205460ff1681565b6102ad6105e83660046129a5565b611b2c565b6102e1611b56565b6102ad6106033660046127be565b6004602052600090815260409020546001600160a01b031681565b6102ad7f000000000000000000000000000000000000000000000000000000000000000081565b610302610653366004612a35565b611c77565b6102e16106663660046129be565b600860209081526000928352604080842090915290825290205481565b610302610691366004612a35565b611d14565b6103026106a4366004612b2d565b611d54565b6103026106b7366004612bb1565b611db3565b60005b825181101561076d578281815181106106da576106da612c2b565b60200260200101516001600160a01b03166331279d3d3384848151811061070357610703612c2b565b60200260200101516040518363ffffffff1660e01b8152600401610728929190612c85565b600060405180830381600087803b15801561074257600080fd5b505af1158015610756573d6000803e3d6000fd5b50505050808061076590612cbf565b9150506106bf565b505050565b60405163430c208160e01b8152336004820152602481018290527f00000000000000000000000000000000000000000000000000000000000000006001600160a01b03169063430c208190604401602060405180830381865afa1580156107dd573d6000803e3d6000fd5b505050506040513d601f19601f820116820180604052508101906108019190612cda565b61080a57600080fd5b61081381611ec5565b60405163c1f0fb9f60e01b8152600481018290527f00000000000000000000000000000000000000000000000000000000000000006001600160a01b03169063c1f0fb9f90602401600060405180830381600087803b15801561087557600080fd5b505af1158015610889573d6000803e3d6000fd5b5050505050565b6000818152600960209081526040808320805482518185028101850190935280835291929091908301828280156108f057602002820191906000526020600020905b81546001600160a01b031681526001909101906020018083116108d2575b5050505050905060008151905060008167ffffffffffffffff811115610918576109186127e2565b604051908082528060200260200182016040528015610941578160200160208202803683370190505b50905060005b828110156109ce5760086000868152602001908152602001600020600085838151811061097657610976612c2b565b60200260200101516001600160a01b03166001600160a01b03168152602001908152602001600020548282815181106109b1576109b1612c2b565b6020908102919091010152806109c681612cbf565b915050610947565b506109da8484836120eb565b50505050565b610a0c7f0000000000000000000000000000000000000000000000000000000000000000333084612529565b600254600090610a2483670de0b6b3a7640000612cfc565b610a2e9190612d31565b90508015610a4e5780600e6000828254610a489190612d45565b90915550505b6040518281526001600160a01b037f0000000000000000000000000000000000000000000000000000000000000000169033907ff70d5c697de7ea828df48e5c4573cb2194c659f1901f70110c52b066dcf50826906020015b60405180910390a35050565b336000908152600b602052604090205460ff16610acf57600080fd5b8115610b5057604051634c35bec560e11b8152600481018390527f00000000000000000000000000000000000000000000000000000000000000006001600160a01b03169063986b7d8a90602401600060405180830381600087803b158015610b3757600080fd5b505af1158015610b4b573d6000803e3d6000fd5b505050505b60405182815233906001600160a01b038316907fae268d9aab12f3605f58efd74fd3801fa812b03fdb44317eb70f46dff0e19e2290602001610aa7565b6000546001600160a01b03163314610ba457600080fd5b60005b8251811015610be457610bd2838281518110610bc557610bc5612c2b565b6020026020010151612621565b80610bdc81612cbf565b915050610ba7565b50600080546001600160a01b0319166001600160a01b039290921691909117905550565b600354610c179060009061113d565b565b6000546001600160a01b03163314610c675760405162461bcd60e51b815260206004820152600c60248201526b2737ba10309036b4b73a32b960a11b60448201526064015b60405180910390fd5b600080546001600160a01b0319166001600160a01b0392909216919091179055565b600354610c1790600090611482565b60005b8151811015610cd857610cc6828281518110610cb957610cb9612c2b565b6020026020010151610cdc565b80610cd081612cbf565b915050610c9b565b5050565b600d54600114610ceb57600080fd5b6002600d8190555060008054906101000a90046001600160a01b03166001600160a01b031663ed29fc116040518163ffffffff1660e01b81526004016020604051808303816000875af1158015610d46573d6000803e3d6000fd5b505050506040513d601f19601f82011682018060405250810190610d6a9190612d5d565b50610d7481612694565b6001600160a01b0381811660008181526010602052604090819020549051634cde602960e11b81527f00000000000000000000000000000000000000000000000000000000000000009093166004840152916399bcc05290602401602060405180830381865afa158015610dec573d6000803e3d6000fd5b505050506040513d601f19601f82011682018060405250810190610e109190612d5d565b81118015610e2a57506000610e2862093a8083612d31565b115b15610f05576001600160a01b03828116600081815260106020526040808220919091555163b66503cf60e01b81527f00000000000000000000000000000000000000000000000000000000000000009092166004830152602482018390529063b66503cf90604401600060405180830381600087803b158015610eac57600080fd5b505af1158015610ec0573d6000803e3d6000fd5b50506040518381526001600160a01b03851692503391507f4fa9693cae526341d334e2862ca2413b2e503f1266255f9e0869fb36e6d89b179060200160405180910390a35b50506001600d55565b60405163430c208160e01b8152336004820152602481018290527f00000000000000000000000000000000000000000000000000000000000000006001600160a01b03169063430c208190604401602060405180830381865afa158015610f79573d6000803e3d6000fd5b505050506040513d601f19601f82011682018060405250810190610f9d9190612cda565b610fa657600080fd5b60005b83518110156109da57838181518110610fc457610fc4612c2b565b60200260200101516001600160a01b031663a7852afa83858481518110610fed57610fed612c2b565b60200260200101516040518363ffffffff1660e01b8152600401611012929190612d76565b600060405180830381600087803b15801561102c57600080fd5b505af1158015611040573d6000803e3d6000fd5b50505050808061104f90612cbf565b915050610fa9565b336000908152600b602052604090205460ff1661107357600080fd5b81156110f45760405163fbd3a29d60e01b8152600481018390527f00000000000000000000000000000000000000000000000000000000000000006001600160a01b03169063fbd3a29d90602401600060405180830381600087803b1580156110db57600080fd5b505af11580156110ef573d6000803e3d6000fd5b505050505b60405182815233906001600160a01b038316907f60940192810a6fb3bce3fd3e2e3a13fd6ccc7605e963fb87ee971aba829989bd90602001610aa7565b61113a81612694565b50565b815b8181101561076d57611191600460006003848154811061116157611161612c2b565b60009182526020808320909101546001600160a01b03908116845290830193909352604090910190205416610cdc565b8061119b81612cbf565b91505061113f565b60405163430c208160e01b8152336004820152602481018290527f00000000000000000000000000000000000000000000000000000000000000006001600160a01b03169063430c208190604401602060405180830381865afa15801561120e573d6000803e3d6000fd5b505050506040513d601f19601f820116820180604052508101906112329190612cda565b61123b57600080fd5b60005b83518110156109da5783818151811061125957611259612c2b565b60200260200101516001600160a01b031663a7852afa8385848151811061128257611282612c2b565b60200260200101516040518363ffffffff1660e01b81526004016112a7929190612d76565b600060405180830381600087803b1580156112c157600080fd5b505af11580156112d5573d6000803e3d6000fd5b5050505080806112e490612cbf565b91505061123e565b8015611438576040516331a9108f60e11b8152600481018290527f00000000000000000000000000000000000000000000000000000000000000006001600160a01b031690636352211e90602401602060405180830381865afa158015611357573d6000803e3d6000fd5b505050506040513d601f19601f8201168201806040525081019061137b9190612d8f565b6001600160a01b0316336001600160a01b03161461139857600080fd5b6113a0611b56565b6040516339f890b560e21b8152600481018390527f00000000000000000000000000000000000000000000000000000000000000006001600160a01b03169063e7e242d490602401602060405180830381865afa158015611405573d6000803e3d6000fd5b505050506040513d601f19601f820116820180604052508101906114299190612d5d565b1161143357600080fd5b611479565b600054611479907f00000000000000000000000000000000000000000000000000000000000000009033906001600160a01b0316611474611b56565b612529565b610cd882612621565b815b8181101561076d576114d660046000600384815481106114a6576114a6612c2b565b60009182526020808320909101546001600160a01b03908116845290830193909352604090910190205416612694565b806114e081612cbf565b915050611484565b6001600160a01b038181166000908152600460205260408120549091161561153b5760405162461bcd60e51b815260206004820152600660248201526565786973747360d01b6044820152606401610c5e565b60405163e5e31b1360e01b81526001600160a01b0383811660048301527f0000000000000000000000000000000000000000000000000000000000000000169063e5e31b1390602401602060405180830381865afa1580156115a1573d6000803e3d6000fd5b505050506040513d601f19601f820116820180604052508101906115c59190612cda565b6115fa5760405162461bcd60e51b81526020600482015260066024820152650857dc1bdbdb60d21b6044820152606401610c5e565b600080836001600160a01b0316639d63848a6040518163ffffffff1660e01b815260040160408051808303816000875af115801561163c573d6000803e3d6000fd5b505050506040513d601f19601f820116820180604052508101906116609190612dac565b6001600160a01b0382166000908152600c6020526040902054919350915060ff1680156116a557506001600160a01b0381166000908152600c602052604090205460ff165b6116e05760405162461bcd60e51b815260206004820152600c60248201526b085dda1a5d195b1a5cdd195960a21b6044820152606401610c5e565b6001546040516303907c0560e11b81526001600160a01b0384811660048301528381166024830152868116604483015290911690630720f80a90606401602060405180830381865afa15801561173a573d6000803e3d6000fd5b505050506040513d601f19601f8201168201806040525081019061175e9190612cda565b61179f5760405162461bcd60e51b81526020600482015260126024820152710851d85d59d94815da1a5d19531a5cdd195960721b6044820152606401610c5e565b60007f00000000000000000000000000000000000000000000000000000000000000006001600160a01b031663d27b9a786040518163ffffffff1660e01b81526004016020604051808303816000875af1158015611801573d6000803e3d6000fd5b505050506040513d601f19601f820116820180604052508101906118259190612d8f565b604051630e24707d60e11b81526001600160a01b03878116600483015280831660248301527f0000000000000000000000000000000000000000000000000000000000000000811660448301529192506000917f00000000000000000000000000000000000000000000000000000000000000001690631c48e0fa906064016020604051808303816000875af11580156118c3573d6000803e3d6000fd5b505050506040513d601f19601f820116820180604052508101906118e79190612d8f565b60405163095ea7b360e01b81526001600160a01b03808316600483015260001960248301529192507f00000000000000000000000000000000000000000000000000000000000000009091169063095ea7b3906044016020604051808303816000875af115801561195c573d6000803e3d6000fd5b505050506040513d601f19601f820116820180604052508101906119809190612cda565b506001600160a01b03808216600081815260066020908152604080832080548689166001600160a01b031991821617909155948b16808452600483528184208054871686179055938352600582528083208054909516909317909355600b9092529020805460ff191660011790556119f781612694565b600380546001810182556000919091527fc2575a0e9e593c00f959f8c92f12db2869c3395a3b0502d05e2516446f71f85b0180546001600160a01b0319166001600160a01b03888116918217909255604051338152909184811691908416907f48d3c521fd0d5541640f58c6d6381eed7cb2e8c9df421ae165a4f4c2d221ee0d9060200160405180910390a495945050505050565b336000908152600b602052604090205460ff16611aa857600080fd5b604080518481526020810183905233916001600160a01b038516917fdcbc1c05240f31ff3ad067ef1ee35ce4997762752e3a095284754544f4c709d791015b60405180910390a3505050565b60096020528160005260406000208181548110611b1057600080fd5b6000918252602090912001546001600160a01b03169150829050565b60038181548110611b3c57600080fd5b6000918252602090912001546001600160a01b0316905081565b600060c87f00000000000000000000000000000000000000000000000000000000000000006001600160a01b03166318160ddd6040518163ffffffff1660e01b8152600401602060405180830381865afa158015611bb8573d6000803e3d6000fd5b505050506040513d601f19601f82011682018060405250810190611bdc9190612d5d565b7f00000000000000000000000000000000000000000000000000000000000000006001600160a01b03166318160ddd6040518163ffffffff1660e01b8152600401602060405180830381865afa158015611c3a573d6000803e3d6000fd5b505050506040513d601f19601f82011682018060405250810190611c5e9190612d5d565b611c689190612ddb565b611c729190612d31565b905090565b60005b8151811015610cd857818181518110611c9557611c95612c2b565b60200260200101516001600160a01b031663d294f0936040518163ffffffff1660e01b815260040160408051808303816000875af1158015611cdb573d6000803e3d6000fd5b505050506040513d601f19601f82011682018060405250810190611cff9190612df2565b50508080611d0c90612cbf565b915050611c7a565b60005b8151811015610cd857611d42828281518110611d3557611d35612c2b565b6020026020010151612694565b80611d4c81612cbf565b915050611d17565b336000908152600b602052604090205460ff16611d7057600080fd5b604080518481526020810183905233916001600160a01b038516917ff341246adaac6f497bc2a656f546ab9e182111d630394f0c57c710a59a2cb5679101611ae7565b60405163430c208160e01b8152336004820152602481018690527f00000000000000000000000000000000000000000000000000000000000000006001600160a01b03169063430c208190604401602060405180830381865afa158015611e1e573d6000803e3d6000fd5b505050506040513d601f19601f82011682018060405250810190611e429190612cda565b611e4b57600080fd5b828114611e5757600080fd5b61088985858580806020026020016040519081016040528093929190818152602001838360200280828437600092019190915250506040805160208089028281018201909352888252909350889250879182918501908490808284376000920191909152506120eb92505050565b600081815260096020526040812080549091805b828110156120af576000848281548110611ef557611ef5612c2b565b60009182526020808320909101548883526008825260408084206001600160a01b0390921680855291909252912054909150801561209a576001600160a01b03808316600090815260046020526040902054611f519116612694565b6001600160a01b03821660009081526007602052604081208054839290611f79908490612e16565b909155505060008781526008602090815260408083206001600160a01b038616845290915281208054839290611fb0908490612e16565b90915550506000811315612053576001600160a01b038281166000908152600460208181526040808420548516845260069091529182902054915163278afc8b60e21b8152908101849052602481018a9052911690639e2bf22c90604401600060405180830381600087803b15801561202857600080fd5b505af115801561203c573d6000803e3d6000fd5b50505050808461204c9190612e55565b9350612060565b61205d8185612e16565b93505b60408051888152602081018390527f6b3894ce60b9bbe9d93f1a4e6fc25b6b93cd8222e73ab6348d79c596f5b51de9910160405180910390a15b505080806120a790612cbf565b915050611ed9565b5080600260008282546120c29190612ddb565b90915550506000848152600a60209081526040808320839055600990915281206109da91612777565b6120f483611ec5565b81516040516339f890b560e21b8152600481018590526000907f00000000000000000000000000000000000000000000000000000000000000006001600160a01b03169063e7e242d490602401602060405180830381865afa15801561215e573d6000803e3d6000fd5b505050506040513d601f19601f820116820180604052508101906121829190612d5d565b90506000806000805b858110156122155760008782815181106121a7576121a7612c2b565b6020026020010151136121dc578681815181106121c6576121c6612c2b565b60200260200101516121d790612e96565b6121f7565b8681815181106121ee576121ee612c2b565b60200260200101515b6122019085612e55565b93508061220d81612cbf565b91505061218b565b5060005b8581101561247257600088828151811061223557612235612c2b565b6020908102919091018101516001600160a01b03808216600090815260048452604080822054909216808252600b909452205490925060ff161561245d57600086888b868151811061228957612289612c2b565b602002602001015161229b9190612eb3565b6122a59190612f38565b60008d81526008602090815260408083206001600160a01b0388168452909152902054909150156122d557600080fd5b806122df57600080fd5b6122e882612694565b60008c815260096020908152604080832080546001810182559084528284200180546001600160a01b0319166001600160a01b038816908117909155835260079091528120805483929061233d908490612e55565b909155505060008c81526008602090815260408083206001600160a01b038716845290915281208054839290612374908490612e55565b909155505060008113156123fb576001600160a01b038083166000908152600660205260409081902054905163f320772360e01b815260048101849052602481018f905291169063f320772390604401600060405180830381600087803b1580156123de57600080fd5b505af11580156123f2573d6000803e3d6000fd5b50505050612407565b61240481612e96565b90505b6124118186612e55565b945061241d8187612e55565b604080518e81526020810184905291975033917f1263a2295e53acd6ef8f655b8afc11fa0f2cf11925be7aa1757d741ef32a926c910160405180910390a2505b5050808061246a90612cbf565b915050612219565b5060008113156124f75760405163fd4a77f160e01b8152600481018990527f00000000000000000000000000000000000000000000000000000000000000006001600160a01b03169063fd4a77f190602401600060405180830381600087803b1580156124de57600080fd5b505af11580156124f2573d6000803e3d6000fd5b505050505b81600260008282546125099190612d45565b90915550506000978852600a602052604090972096909655505050505050565b6000846001600160a01b03163b1161254057600080fd5b604080516001600160a01b0385811660248301528481166044830152606480830185905283518084039091018152608490920183526020820180516001600160e01b03166323b872dd60e01b17905291516000928392908816916125a49190612f66565b6000604051808303816000865af19150503d80600081146125e1576040519150601f19603f3d011682016040523d82523d6000602084013e6125e6565b606091505b50915091508180156126105750805115806126105750808060200190518101906126109190612cda565b61261957600080fd5b505050505050565b6001600160a01b0381166000908152600c602052604090205460ff161561264757600080fd5b6001600160a01b0381166000818152600c6020526040808220805460ff191660011790555133917f6661a7108aecd07864384529117d96c319c1163e3010c01390f6b704726e07de91a350565b6001600160a01b0380821660009081526005602090815260408083205490931680835260079091529181205490811315612756576001600160a01b0383166000908152600f602052604081208054600e5491829055916126f48383612ddb565b90508015612619576000670de0b6b3a76400006127118387612cfc565b61271b9190612d31565b6001600160a01b038816600090815260106020526040812080549293508392909190612748908490612d45565b909155505050505050505050565b600e546001600160a01b0384166000908152600f6020526040902055505050565b508054600082559060005260206000209081019061113a91905b808211156127a55760008155600101612791565b5090565b6001600160a01b038116811461113a57600080fd5b6000602082840312156127d057600080fd5b81356127db816127a9565b9392505050565b634e487b7160e01b600052604160045260246000fd5b604051601f8201601f1916810167ffffffffffffffff81118282101715612821576128216127e2565b604052919050565b600067ffffffffffffffff821115612843576128436127e2565b5060051b60200190565b600082601f83011261285e57600080fd5b8135602061287361286e83612829565b6127f8565b82815260059290921b8401810191818101908684111561289257600080fd5b8286015b848110156128b65780356128a9816127a9565b8352918301918301612896565b509695505050505050565b600082601f8301126128d257600080fd5b813560206128e261286e83612829565b82815260059290921b8401810191818101908684111561290157600080fd5b8286015b848110156128b657803567ffffffffffffffff8111156129255760008081fd5b6129338986838b010161284d565b845250918301918301612905565b6000806040838503121561295457600080fd5b823567ffffffffffffffff8082111561296c57600080fd5b6129788683870161284d565b9350602085013591508082111561298e57600080fd5b5061299b858286016128c1565b9150509250929050565b6000602082840312156129b757600080fd5b5035919050565b600080604083850312156129d157600080fd5b8235915060208301356129e3816127a9565b809150509250929050565b60008060408385031215612a0157600080fd5b823567ffffffffffffffff811115612a1857600080fd5b612a248582860161284d565b92505060208301356129e3816127a9565b600060208284031215612a4757600080fd5b813567ffffffffffffffff811115612a5e57600080fd5b612a6a8482850161284d565b949350505050565b600080600060608486031215612a8757600080fd5b833567ffffffffffffffff80821115612a9f57600080fd5b612aab8783880161284d565b94506020860135915080821115612ac157600080fd5b50612ace868287016128c1565b925050604084013590509250925092565b60008060408385031215612af257600080fd5b50508035926020909101359150565b60008060408385031215612b1457600080fd5b8235612b1f816127a9565b946020939093013593505050565b600080600060608486031215612b4257600080fd5b833592506020840135612b54816127a9565b929592945050506040919091013590565b60008083601f840112612b7757600080fd5b50813567ffffffffffffffff811115612b8f57600080fd5b6020830191508360208260051b8501011115612baa57600080fd5b9250929050565b600080600080600060608688031215612bc957600080fd5b85359450602086013567ffffffffffffffff80821115612be857600080fd5b612bf489838a01612b65565b90965094506040880135915080821115612c0d57600080fd5b50612c1a88828901612b65565b969995985093965092949392505050565b634e487b7160e01b600052603260045260246000fd5b600081518084526020808501945080840160005b83811015612c7a5781516001600160a01b031687529582019590820190600101612c55565b509495945050505050565b6001600160a01b0383168152604060208201819052600090612a6a90830184612c41565b634e487b7160e01b600052601160045260246000fd5b6000600019821415612cd357612cd3612ca9565b5060010190565b600060208284031215612cec57600080fd5b815180151581146127db57600080fd5b6000816000190483118215151615612d1657612d16612ca9565b500290565b634e487b7160e01b600052601260045260246000fd5b600082612d4057612d40612d1b565b500490565b60008219821115612d5857612d58612ca9565b500190565b600060208284031215612d6f57600080fd5b5051919050565b828152604060208201526000612a6a6040830184612c41565b600060208284031215612da157600080fd5b81516127db816127a9565b60008060408385031215612dbf57600080fd5b8251612dca816127a9565b60208401519092506129e3816127a9565b600082821015612ded57612ded612ca9565b500390565b60008060408385031215612e0557600080fd5b505080516020909101519092909150565b60008083128015600160ff1b850184121615612e3457612e34612ca9565b6001600160ff1b0384018313811615612e4f57612e4f612ca9565b50500390565b600080821280156001600160ff1b0384900385131615612e7757612e77612ca9565b600160ff1b8390038412811615612e9057612e90612ca9565b50500190565b6000600160ff1b821415612eac57612eac612ca9565b5060000390565b60006001600160ff1b0381841382841380821686840486111615612ed957612ed9612ca9565b600160ff1b6000871282811687830589121615612ef857612ef8612ca9565b60008712925087820587128484161615612f1457612f14612ca9565b87850587128184161615612f2a57612f2a612ca9565b505050929093029392505050565b600082612f4757612f47612d1b565b600160ff1b821460001984141615612f6157612f61612ca9565b500590565b6000825160005b81811015612f875760208186018101518583015201612f6d565b81811115612f96576000828501525b50919091019291505056fea26469706673582212204873f90efa6ff7807c543c21782d19532924c1147de47fc032729e3f26a1b40b64736f6c634300080b0033",
  "linkReferences": {},
  "deployedLinkReferences": {}
}