{
  "_format": "hh-sol-artifact-1",
  "contractName": "BaseV1Voter",
  "sourceName": "contracts/BaseV1-voter.sol",
  "abi": [
    {
      "inputs": [
        {
          "internalType": "address",
          "name": "__ve",
          "type": "address"
        },
        {
          "internalType": "address",
          "name": "_factory",
          "type": "address"
        },
        {
          "internalType": "address",
          "name": "_gauges",
          "type": "address"
        },
        {
          "internalType": "address",
          "name": "_bribes",
          "type": "address"
        }
      ],
      "stateMutability": "nonpayable",
      "type": "constructor"
    },
    {
      "anonymous": false,
      "inputs": [
        {
          "indexed": false,
          "internalType": "uint256",
          "name": "tokenId",
          "type": "uint256"
        },
        {
          "indexed": false,
          "internalType": "int256",
          "name": "weight",
          "type": "int256"
        }
      ],
      "name": "Abstained",
      "type": "event"
    },
    {
      "anonymous": false,
      "inputs": [
        {
          "indexed": true,
          "internalType": "address",
          "name": "owner",
          "type": "address"
        },
        {
          "indexed": true,
          "internalType": "address",
          "name": "gauge",
          "type": "address"
        },
        {
          "indexed": false,
          "internalType": "uint256",
          "name": "tokenId",
          "type": "uint256"
        }
      ],
      "name": "Attach",
      "type": "event"
    },
    {
      "anonymous": false,
      "inputs": [
        {
          "indexed": true,
          "internalType": "address",
          "name": "lp",
          "type": "address"
        },
        {
          "indexed": true,
          "internalType": "address",
          "name": "gauge",
          "type": "address"
        },
        {
          "indexed": false,
          "internalType": "uint256",
          "name": "tokenId",
          "type": "uint256"
        },
        {
          "indexed": false,
          "internalType": "uint256",
          "name": "amount",
          "type": "uint256"
        }
      ],
      "name": "Deposit",
      "type": "event"
    },
    {
      "anonymous": false,
      "inputs": [
        {
          "indexed": true,
          "internalType": "address",
          "name": "owner",
          "type": "address"
        },
        {
          "indexed": true,
          "internalType": "address",
          "name": "gauge",
          "type": "address"
        },
        {
          "indexed": false,
          "internalType": "uint256",
          "name": "tokenId",
          "type": "uint256"
        }
      ],
      "name": "Detach",
      "type": "event"
    },
    {
      "anonymous": false,
      "inputs": [
        {
          "indexed": true,
          "internalType": "address",
          "name": "sender",
          "type": "address"
        },
        {
          "indexed": true,
          "internalType": "address",
          "name": "gauge",
          "type": "address"
        },
        {
          "indexed": false,
          "internalType": "uint256",
          "name": "amount",
          "type": "uint256"
        }
      ],
      "name": "DistributeReward",
      "type": "event"
    },
    {
      "anonymous": false,
      "inputs": [
        {
          "indexed": true,
          "internalType": "address",
          "name": "gauge",
          "type": "address"
        },
        {
          "indexed": false,
          "internalType": "address",
          "name": "creator",
          "type": "address"
        },
        {
          "indexed": true,
          "internalType": "address",
          "name": "bribe",
          "type": "address"
        },
        {
          "indexed": true,
          "internalType": "address",
          "name": "pool",
          "type": "address"
        }
      ],
      "name": "GaugeCreated",
      "type": "event"
    },
    {
      "anonymous": false,
      "inputs": [
        {
          "indexed": true,
          "internalType": "address",
          "name": "sender",
          "type": "address"
        },
        {
          "indexed": true,
          "internalType": "address",
          "name": "reward",
          "type": "address"
        },
        {
          "indexed": false,
          "internalType": "uint256",
          "name": "amount",
          "type": "uint256"
        }
      ],
      "name": "NotifyReward",
      "type": "event"
    },
    {
      "anonymous": false,
      "inputs": [
        {
          "indexed": true,
          "internalType": "address",
          "name": "voter",
          "type": "address"
        },
        {
          "indexed": false,
          "internalType": "uint256",
          "name": "tokenId",
          "type": "uint256"
        },
        {
          "indexed": false,
          "internalType": "int256",
          "name": "weight",
          "type": "int256"
        }
      ],
      "name": "Voted",
      "type": "event"
    },
    {
      "anonymous": false,
      "inputs": [
        {
          "indexed": true,
          "internalType": "address",
          "name": "whitelister",
          "type": "address"
        },
        {
          "indexed": true,
          "internalType": "address",
          "name": "token",
          "type": "address"
        }
      ],
      "name": "Whitelisted",
      "type": "event"
    },
    {
      "anonymous": false,
      "inputs": [
        {
          "indexed": true,
          "internalType": "address",
          "name": "lp",
          "type": "address"
        },
        {
          "indexed": true,
          "internalType": "address",
          "name": "gauge",
          "type": "address"
        },
        {
          "indexed": false,
          "internalType": "uint256",
          "name": "tokenId",
          "type": "uint256"
        },
        {
          "indexed": false,
          "internalType": "uint256",
          "name": "amount",
          "type": "uint256"
        }
      ],
      "name": "Withdraw",
      "type": "event"
    },
    {
      "inputs": [],
      "name": "_ve",
      "outputs": [
        {
          "internalType": "address",
          "name": "",
          "type": "address"
        }
      ],
      "stateMutability": "view",
      "type": "function"
    },
    {
      "inputs": [
        {
          "internalType": "uint256",
          "name": "tokenId",
          "type": "uint256"
        },
        {
          "internalType": "address",
          "name": "account",
          "type": "address"
        }
      ],
      "name": "attachTokenToGauge",
      "outputs": [],
      "stateMutability": "nonpayable",
      "type": "function"
    },
    {
      "inputs": [],
      "name": "bribefactory",
      "outputs": [
        {
          "internalType": "address",
          "name": "",
          "type": "address"
        }
      ],
      "stateMutability": "view",
      "type": "function"
    },
    {
      "inputs": [
        {
          "internalType": "address",
          "name": "",
          "type": "address"
        }
      ],
      "name": "bribes",
      "outputs": [
        {
          "internalType": "address",
          "name": "",
          "type": "address"
        }
      ],
      "stateMutability": "view",
      "type": "function"
    },
    {
      "inputs": [
        {
          "internalType": "address[]",
          "name": "_bribes",
          "type": "address[]"
        },
        {
          "internalType": "address[][]",
          "name": "_tokens",
          "type": "address[][]"
        },
        {
          "internalType": "uint256",
          "name": "_tokenId",
          "type": "uint256"
        }
      ],
      "name": "claimBribes",
      "outputs": [],
      "stateMutability": "nonpayable",
      "type": "function"
    },
    {
      "inputs": [
        {
          "internalType": "address[]",
          "name": "_fees",
          "type": "address[]"
        },
        {
          "internalType": "address[][]",
          "name": "_tokens",
          "type": "address[][]"
        },
        {
          "internalType": "uint256",
          "name": "_tokenId",
          "type": "uint256"
        }
      ],
      "name": "claimFees",
      "outputs": [],
      "stateMutability": "nonpayable",
      "type": "function"
    },
    {
      "inputs": [
        {
          "internalType": "address[]",
          "name": "_gauges",
          "type": "address[]"
        },
        {
          "internalType": "address[][]",
          "name": "_tokens",
          "type": "address[][]"
        }
      ],
      "name": "claimRewards",
      "outputs": [],
      "stateMutability": "nonpayable",
      "type": "function"
    },
    {
      "inputs": [
        {
          "internalType": "address",
          "name": "",
          "type": "address"
        }
      ],
      "name": "claimable",
      "outputs": [
        {
          "internalType": "uint256",
          "name": "",
          "type": "uint256"
        }
      ],
      "stateMutability": "view",
      "type": "function"
    },
    {
      "inputs": [
        {
          "internalType": "address",
          "name": "_pool",
          "type": "address"
        }
      ],
      "name": "createGauge",
      "outputs": [
        {
          "internalType": "address",
          "name": "",
          "type": "address"
        }
      ],
      "stateMutability": "nonpayable",
      "type": "function"
    },
    {
      "inputs": [
        {
          "internalType": "uint256",
          "name": "tokenId",
          "type": "uint256"
        },
        {
          "internalType": "address",
          "name": "account",
          "type": "address"
        }
      ],
      "name": "detachTokenFromGauge",
      "outputs": [],
      "stateMutability": "nonpayable",
      "type": "function"
    },
    {
      "inputs": [
        {
          "internalType": "address[]",
          "name": "_gauges",
          "type": "address[]"
        }
      ],
      "name": "distribute",
      "outputs": [],
      "stateMutability": "nonpayable",
      "type": "function"
    },
    {
      "inputs": [
        {
          "internalType": "address",
          "name": "_gauge",
          "type": "address"
        }
      ],
      "name": "distribute",
      "outputs": [],
      "stateMutability": "nonpayable",
      "type": "function"
    },
    {
      "inputs": [
        {
          "internalType": "uint256",
          "name": "start",
          "type": "uint256"
        },
        {
          "internalType": "uint256",
          "name": "finish",
          "type": "uint256"
        }
      ],
      "name": "distribute",
      "outputs": [],
      "stateMutability": "nonpayable",
      "type": "function"
    },
    {
      "inputs": [],
      "name": "distribute",
      "outputs": [],
      "stateMutability": "nonpayable",
      "type": "function"
    },
    {
      "inputs": [
        {
          "internalType": "address[]",
          "name": "_gauges",
          "type": "address[]"
        }
      ],
      "name": "distributeFees",
      "outputs": [],
      "stateMutability": "nonpayable",
      "type": "function"
    },
    {
      "inputs": [],
      "name": "distro",
      "outputs": [],
      "stateMutability": "nonpayable",
      "type": "function"
    },
    {
      "inputs": [
        {
          "internalType": "uint256",
          "name": "tokenId",
          "type": "uint256"
        },
        {
          "internalType": "address",
          "name": "account",
          "type": "address"
        },
        {
          "internalType": "uint256",
          "name": "amount",
          "type": "uint256"
        }
      ],
      "name": "emitDeposit",
      "outputs": [],
      "stateMutability": "nonpayable",
      "type": "function"
    },
    {
      "inputs": [
        {
          "internalType": "uint256",
          "name": "tokenId",
          "type": "uint256"
        },
        {
          "internalType": "address",
          "name": "account",
          "type": "address"
        },
        {
          "internalType": "uint256",
          "name": "amount",
          "type": "uint256"
        }
      ],
      "name": "emitWithdraw",
      "outputs": [],
      "stateMutability": "nonpayable",
      "type": "function"
    },
    {
      "inputs": [],
      "name": "factory",
      "outputs": [
        {
          "internalType": "address",
          "name": "",
          "type": "address"
        }
      ],
      "stateMutability": "view",
      "type": "function"
    },
    {
      "inputs": [],
      "name": "gaugefactory",
      "outputs": [
        {
          "internalType": "address",
          "name": "",
          "type": "address"
        }
      ],
      "stateMutability": "view",
      "type": "function"
    },
    {
      "inputs": [
        {
          "internalType": "address",
          "name": "",
          "type": "address"
        }
      ],
      "name": "gauges",
      "outputs": [
        {
          "internalType": "address",
          "name": "",
          "type": "address"
        }
      ],
      "stateMutability": "view",
      "type": "function"
    },
    {
      "inputs": [
        {
          "internalType": "address[]",
          "name": "_tokens",
          "type": "address[]"
        },
        {
          "internalType": "address",
          "name": "_minter",
          "type": "address"
        }
      ],
      "name": "initialize",
      "outputs": [],
      "stateMutability": "nonpayable",
      "type": "function"
    },
    {
      "inputs": [
        {
          "internalType": "address",
          "name": "",
          "type": "address"
        }
      ],
      "name": "isGauge",
      "outputs": [
        {
          "internalType": "bool",
          "name": "",
          "type": "bool"
        }
      ],
      "stateMutability": "view",
      "type": "function"
    },
    {
      "inputs": [
        {
          "internalType": "address",
          "name": "",
          "type": "address"
        }
      ],
      "name": "isWhitelisted",
      "outputs": [
        {
          "internalType": "bool",
          "name": "",
          "type": "bool"
        }
      ],
      "stateMutability": "view",
      "type": "function"
    },
    {
      "inputs": [],
      "name": "length",
      "outputs": [
        {
          "internalType": "uint256",
          "name": "",
          "type": "uint256"
        }
      ],
      "stateMutability": "view",
      "type": "function"
    },
    {
      "inputs": [],
      "name": "listing_fee",
      "outputs": [
        {
          "internalType": "uint256",
          "name": "",
          "type": "uint256"
        }
      ],
      "stateMutability": "view",
      "type": "function"
    },
    {
      "inputs": [],
      "name": "minter",
      "outputs": [
        {
          "internalType": "address",
          "name": "",
          "type": "address"
        }
      ],
      "stateMutability": "view",
      "type": "function"
    },
    {
      "inputs": [
        {
          "internalType": "uint256",
          "name": "amount",
          "type": "uint256"
        }
      ],
      "name": "notifyRewardAmount",
      "outputs": [],
      "stateMutability": "nonpayable",
      "type": "function"
    },
    {
      "inputs": [
        {
          "internalType": "uint256",
          "name": "_tokenId",
          "type": "uint256"
        }
      ],
      "name": "poke",
      "outputs": [],
      "stateMutability": "nonpayable",
      "type": "function"
    },
    {
      "inputs": [
        {
          "internalType": "address",
          "name": "",
          "type": "address"
        }
      ],
      "name": "poolForGauge",
      "outputs": [
        {
          "internalType": "address",
          "name": "",
          "type": "address"
        }
      ],
      "stateMutability": "view",
      "type": "function"
    },
    {
      "inputs": [
        {
          "internalType": "uint256",
          "name": "",
          "type": "uint256"
        },
        {
          "internalType": "uint256",
          "name": "",
          "type": "uint256"
        }
      ],
      "name": "poolVote",
      "outputs": [
        {
          "internalType": "address",
          "name": "",
          "type": "address"
        }
      ],
      "stateMutability": "view",
      "type": "function"
    },
    {
      "inputs": [
        {
          "internalType": "uint256",
          "name": "",
          "type": "uint256"
        }
      ],
      "name": "pools",
      "outputs": [
        {
          "internalType": "address",
          "name": "",
          "type": "address"
        }
      ],
      "stateMutability": "view",
      "type": "function"
    },
    {
      "inputs": [
        {
          "internalType": "uint256",
          "name": "_tokenId",
          "type": "uint256"
        }
      ],
      "name": "reset",
      "outputs": [],
      "stateMutability": "nonpayable",
      "type": "function"
    },
    {
      "inputs": [],
      "name": "totalWeight",
      "outputs": [
        {
          "internalType": "uint256",
          "name": "",
          "type": "uint256"
        }
      ],
      "stateMutability": "view",
      "type": "function"
    },
    {
      "inputs": [],
      "name": "updateAll",
      "outputs": [],
      "stateMutability": "nonpayable",
      "type": "function"
    },
    {
      "inputs": [
        {
          "internalType": "address[]",
          "name": "_gauges",
          "type": "address[]"
        }
      ],
      "name": "updateFor",
      "outputs": [],
      "stateMutability": "nonpayable",
      "type": "function"
    },
    {
      "inputs": [
        {
          "internalType": "uint256",
          "name": "start",
          "type": "uint256"
        },
        {
          "internalType": "uint256",
          "name": "end",
          "type": "uint256"
        }
      ],
      "name": "updateForRange",
      "outputs": [],
      "stateMutability": "nonpayable",
      "type": "function"
    },
    {
      "inputs": [
        {
          "internalType": "address",
          "name": "_gauge",
          "type": "address"
        }
      ],
      "name": "updateGauge",
      "outputs": [],
      "stateMutability": "nonpayable",
      "type": "function"
    },
    {
      "inputs": [
        {
          "internalType": "address",
          "name": "_newMinter",
          "type": "address"
        }
      ],
      "name": "updateMinter",
      "outputs": [],
      "stateMutability": "nonpayable",
      "type": "function"
    },
    {
      "inputs": [
        {
          "internalType": "uint256",
          "name": "",
          "type": "uint256"
        }
      ],
      "name": "usedWeights",
      "outputs": [
        {
          "internalType": "uint256",
          "name": "",
          "type": "uint256"
        }
      ],
      "stateMutability": "view",
      "type": "function"
    },
    {
      "inputs": [
        {
          "internalType": "uint256",
          "name": "tokenId",
          "type": "uint256"
        },
        {
          "internalType": "address[]",
          "name": "_poolVote",
          "type": "address[]"
        },
        {
          "internalType": "int256[]",
          "name": "_weights",
          "type": "int256[]"
        }
      ],
      "name": "vote",
      "outputs": [],
      "stateMutability": "nonpayable",
      "type": "function"
    },
    {
      "inputs": [
        {
          "internalType": "uint256",
          "name": "",
          "type": "uint256"
        },
        {
          "internalType": "address",
          "name": "",
          "type": "address"
        }
      ],
      "name": "votes",
      "outputs": [
        {
          "internalType": "int256",
          "name": "",
          "type": "int256"
        }
      ],
      "stateMutability": "view",
      "type": "function"
    },
    {
      "inputs": [
        {
          "internalType": "address",
          "name": "",
          "type": "address"
        }
      ],
      "name": "weights",
      "outputs": [
        {
          "internalType": "int256",
          "name": "",
          "type": "int256"
        }
      ],
      "stateMutability": "view",
      "type": "function"
    },
    {
      "inputs": [
        {
          "internalType": "address",
          "name": "_token",
          "type": "address"
        },
        {
          "internalType": "uint256",
          "name": "_tokenId",
          "type": "uint256"
        }
      ],
      "name": "whitelist",
      "outputs": [],
      "stateMutability": "nonpayable",
      "type": "function"
    }
  ],
  "bytecode": "0x6101206040526001600c553480156200001757600080fd5b506040516200315e3803806200315e8339810160408190526200003a9162000102565b6001600160a01b03808516608081905290841660a05260408051637e062a3560e11b8152905163fc0c546a916004808201926020929091908290030181865afa1580156200008c573d6000803e3d6000fd5b505050506040513d601f19601f82011682018060405250810190620000b291906200015f565b6001600160a01b0390811660c05291821660e05216610100525050600080546001600160a01b0319163317905562000184565b80516001600160a01b0381168114620000fd57600080fd5b919050565b600080600080608085870312156200011957600080fd5b6200012485620000e5565b93506200013460208601620000e5565b92506200014460408601620000e5565b91506200015460608601620000e5565b905092959194509250565b6000602082840312156200017257600080fd5b6200017d82620000e5565b9392505050565b60805160a05160c05160e05161010051612efb620002636000396000818161032401526116c6015260008181610433015261179d0152600081816109c701528181610a4001528181610d8001528181610e3c01528181611423015281816118340152611b01015260008181610605015261153c0152600081816104c6015281816107700152818161080b01528181610acd01528181610f0c01528181611071015281816111a1015281816112ea015281816113980152818161176f01528181611a7f01528181611cf20152818161203301526123b60152612efb6000f3fe608060405234801561001057600080fd5b50600436106102745760003560e01c80637715ee7511610151578063aa79979b116100c3578063c527ee1f11610087578063c527ee1f14610627578063d23254b41461063a578063d560b0d714610665578063e4fc6b6d146103d2578063ea94ee4414610678578063fecdad601461068b57600080fd5b8063aa79979b14610599578063ac4afa38146105bc578063b980777a146105cf578063b9a09fd5146105d7578063c45a01551461060057600080fd5b80639b6a9d72116101155780639b6a9d7214610504578063a5f4301e14610517578063a61c713a1461052a578063a7cac8461461053d578063a86a366d1461055d578063a8c5d95a1461057057600080fd5b80637715ee751461048e57806379e93824146104a15780638dd598fb146104c157806396c82e57146104e857806398fc55d8146104f157600080fd5b8063462d0b2e116101ea57806363453ae1116101ae57806363453ae114610408578063666256aa1461041b57806368c3acb31461042e578063698473e3146104555780636ecbe38a146104685780637625391a1461047b57600080fd5b8063462d0b2e146103bf57806347b3c6ba146103d25780634eb03f6e146103da57806353d78693146103ed5780636138889b146103f557600080fd5b806332145f901161023c57806332145f901461030c57806338752a9d1461031f5780633af32abf146103465780633c6b16ab14610379578063402914f51461038c578063411b1f77146103ac57600080fd5b806306d6a1b21461027957806307546172146102bf5780631f7b6d32146102d257806320b1cb6f146102e4578063310bd74b146102f9575b600080fd5b6102a26102873660046126e2565b6004602052600090815260409020546001600160a01b031681565b6040516001600160a01b0390911681526020015b60405180910390f35b6000546102a2906001600160a01b031681565b6002545b6040519081526020016102b6565b6102f76102f2366004612865565b61069e565b005b6102f76103073660046128c9565b610754565b6102f761031a3660046128c9565b610872565b6102a27f000000000000000000000000000000000000000000000000000000000000000081565b6103696103543660046126e2565b600b6020526000908152604090205460ff1681565b60405190151581526020016102b6565b6102f76103873660046128c9565b6109c2565b6102d661039a3660046126e2565b600f6020526000908152604090205481565b6102f76103ba3660046128e2565b610a95565b6102f76103cd366004612912565b610b6f565b6102f7610bea565b6102f76103e83660046126e2565b610bfb565b6102f7610c6b565b6102f7610403366004612959565b610c7a565b6102f76104163660046126e2565b610cbe565b6102f7610429366004612996565b610ef0565b6102a27f000000000000000000000000000000000000000000000000000000000000000081565b6102f76104633660046128e2565b611039565b6102f76104763660046126e2565b611113565b6102f7610489366004612a03565b61111f565b6102f761049c366004612996565b611185565b6102d66104af3660046128c9565b60096020526000908152604090205481565b6102a27f000000000000000000000000000000000000000000000000000000000000000081565b6102d660015481565b6102f76104ff366004612a25565b6112ce565b6102f7610512366004612a03565b611464565b6102a26105253660046126e2565b6114ca565b6102f7610538366004612a51565b6119af565b6102d661054b3660046126e2565b60066020526000908152604090205481565b6102a261056b366004612a03565b611a17565b6102a261057e3660046126e2565b6005602052600090815260409020546001600160a01b031681565b6103696105a73660046126e2565b600a6020526000908152604090205460ff1681565b6102a26105ca3660046128c9565b611a4f565b6102d6611a79565b6102a26105e53660046126e2565b6003602052600090815260409020546001600160a01b031681565b6102a27f000000000000000000000000000000000000000000000000000000000000000081565b6102f7610635366004612959565b611b9a565b6102d66106483660046128e2565b600760209081526000928352604080842090915290825290205481565b6102f7610673366004612959565b611c37565b6102f7610686366004612a51565b611c77565b6102f7610699366004612ad5565b611cd6565b60005b825181101561074f578281815181106106bc576106bc612b4f565b60200260200101516001600160a01b03166331279d3d338484815181106106e5576106e5612b4f565b60200260200101516040518363ffffffff1660e01b815260040161070a929190612ba9565b600060405180830381600087803b15801561072457600080fd5b505af1158015610738573d6000803e3d6000fd5b50505050808061074790612be3565b9150506106a1565b505050565b60405163430c208160e01b8152336004820152602481018290527f00000000000000000000000000000000000000000000000000000000000000006001600160a01b03169063430c208190604401602060405180830381865afa1580156107bf573d6000803e3d6000fd5b505050506040513d601f19601f820116820180604052508101906107e39190612bfe565b6107ec57600080fd5b6107f581611de8565b60405163c1f0fb9f60e01b8152600481018290527f00000000000000000000000000000000000000000000000000000000000000006001600160a01b03169063c1f0fb9f90602401600060405180830381600087803b15801561085757600080fd5b505af115801561086b573d6000803e3d6000fd5b5050505050565b6000818152600860209081526040808320805482518185028101850190935280835291929091908301828280156108d257602002820191906000526020600020905b81546001600160a01b031681526001909101906020018083116108b4575b5050505050905060008151905060008167ffffffffffffffff8111156108fa576108fa612706565b604051908082528060200260200182016040528015610923578160200160208202803683370190505b50905060005b828110156109b05760076000868152602001908152602001600020600085838151811061095857610958612b4f565b60200260200101516001600160a01b03166001600160a01b031681526020019081526020016000205482828151811061099357610993612b4f565b6020908102919091010152806109a881612be3565b915050610929565b506109bc84848361200f565b50505050565b6109ee7f000000000000000000000000000000000000000000000000000000000000000033308461244d565b600154600090610a0683670de0b6b3a7640000612c20565b610a109190612c55565b90508015610a305780600d6000828254610a2a9190612c69565b90915550505b6040518281526001600160a01b037f0000000000000000000000000000000000000000000000000000000000000000169033907ff70d5c697de7ea828df48e5c4573cb2194c659f1901f70110c52b066dcf50826906020015b60405180910390a35050565b336000908152600a602052604090205460ff16610ab157600080fd5b8115610b3257604051634c35bec560e11b8152600481018390527f00000000000000000000000000000000000000000000000000000000000000006001600160a01b03169063986b7d8a90602401600060405180830381600087803b158015610b1957600080fd5b505af1158015610b2d573d6000803e3d6000fd5b505050505b60405182815233906001600160a01b038316907fae268d9aab12f3605f58efd74fd3801fa812b03fdb44317eb70f46dff0e19e2290602001610a89565b6000546001600160a01b03163314610b8657600080fd5b60005b8251811015610bc657610bb4838281518110610ba757610ba7612b4f565b6020026020010151612545565b80610bbe81612be3565b915050610b89565b50600080546001600160a01b0319166001600160a01b039290921691909117905550565b600254610bf99060009061111f565b565b6000546001600160a01b03163314610c495760405162461bcd60e51b815260206004820152600c60248201526b2737ba10309036b4b73a32b960a11b60448201526064015b60405180910390fd5b600080546001600160a01b0319166001600160a01b0392909216919091179055565b600254610bf990600090611464565b60005b8151811015610cba57610ca8828281518110610c9b57610c9b612b4f565b6020026020010151610cbe565b80610cb281612be3565b915050610c7d565b5050565b600c54600114610ccd57600080fd5b6002600c8190555060008054906101000a90046001600160a01b03166001600160a01b031663ed29fc116040518163ffffffff1660e01b81526004016020604051808303816000875af1158015610d28573d6000803e3d6000fd5b505050506040513d601f19601f82011682018060405250810190610d4c9190612c81565b50610d56816125b8565b6001600160a01b038181166000818152600f602052604090819020549051634cde602960e11b81527f00000000000000000000000000000000000000000000000000000000000000009093166004840152916399bcc05290602401602060405180830381865afa158015610dce573d6000803e3d6000fd5b505050506040513d601f19601f82011682018060405250810190610df29190612c81565b81118015610e0c57506000610e0a62093a8083612c55565b115b15610ee7576001600160a01b038281166000818152600f6020526040808220919091555163b66503cf60e01b81527f00000000000000000000000000000000000000000000000000000000000000009092166004830152602482018390529063b66503cf90604401600060405180830381600087803b158015610e8e57600080fd5b505af1158015610ea2573d6000803e3d6000fd5b50506040518381526001600160a01b03851692503391507f4fa9693cae526341d334e2862ca2413b2e503f1266255f9e0869fb36e6d89b179060200160405180910390a35b50506001600c55565b60405163430c208160e01b8152336004820152602481018290527f00000000000000000000000000000000000000000000000000000000000000006001600160a01b03169063430c208190604401602060405180830381865afa158015610f5b573d6000803e3d6000fd5b505050506040513d601f19601f82011682018060405250810190610f7f9190612bfe565b610f8857600080fd5b60005b83518110156109bc57838181518110610fa657610fa6612b4f565b60200260200101516001600160a01b031663a7852afa83858481518110610fcf57610fcf612b4f565b60200260200101516040518363ffffffff1660e01b8152600401610ff4929190612c9a565b600060405180830381600087803b15801561100e57600080fd5b505af1158015611022573d6000803e3d6000fd5b50505050808061103190612be3565b915050610f8b565b336000908152600a602052604090205460ff1661105557600080fd5b81156110d65760405163fbd3a29d60e01b8152600481018390527f00000000000000000000000000000000000000000000000000000000000000006001600160a01b03169063fbd3a29d90602401600060405180830381600087803b1580156110bd57600080fd5b505af11580156110d1573d6000803e3d6000fd5b505050505b60405182815233906001600160a01b038316907f60940192810a6fb3bce3fd3e2e3a13fd6ccc7605e963fb87ee971aba829989bd90602001610a89565b61111c816125b8565b50565b815b8181101561074f57611173600360006002848154811061114357611143612b4f565b60009182526020808320909101546001600160a01b03908116845290830193909352604090910190205416610cbe565b8061117d81612be3565b915050611121565b60405163430c208160e01b8152336004820152602481018290527f00000000000000000000000000000000000000000000000000000000000000006001600160a01b03169063430c208190604401602060405180830381865afa1580156111f0573d6000803e3d6000fd5b505050506040513d601f19601f820116820180604052508101906112149190612bfe565b61121d57600080fd5b60005b83518110156109bc5783818151811061123b5761123b612b4f565b60200260200101516001600160a01b031663a7852afa8385848151811061126457611264612b4f565b60200260200101516040518363ffffffff1660e01b8152600401611289929190612c9a565b600060405180830381600087803b1580156112a357600080fd5b505af11580156112b7573d6000803e3d6000fd5b5050505080806112c690612be3565b915050611220565b801561141a576040516331a9108f60e11b8152600481018290527f00000000000000000000000000000000000000000000000000000000000000006001600160a01b031690636352211e90602401602060405180830381865afa158015611339573d6000803e3d6000fd5b505050506040513d601f19601f8201168201806040525081019061135d9190612cb3565b6001600160a01b0316336001600160a01b03161461137a57600080fd5b611382611a79565b6040516339f890b560e21b8152600481018390527f00000000000000000000000000000000000000000000000000000000000000006001600160a01b03169063e7e242d490602401602060405180830381865afa1580156113e7573d6000803e3d6000fd5b505050506040513d601f19601f8201168201806040525081019061140b9190612c81565b1161141557600080fd5b61145b565b60005461145b907f00000000000000000000000000000000000000000000000000000000000000009033906001600160a01b0316611456611a79565b61244d565b610cba82612545565b815b8181101561074f576114b8600360006002848154811061148857611488612b4f565b60009182526020808320909101546001600160a01b039081168452908301939093526040909101902054166125b8565b806114c281612be3565b915050611466565b6001600160a01b038181166000908152600360205260408120549091161561151d5760405162461bcd60e51b815260206004820152600660248201526565786973747360d01b6044820152606401610c40565b60405163e5e31b1360e01b81526001600160a01b0383811660048301527f0000000000000000000000000000000000000000000000000000000000000000169063e5e31b1390602401602060405180830381865afa158015611583573d6000803e3d6000fd5b505050506040513d601f19601f820116820180604052508101906115a79190612bfe565b6115dc5760405162461bcd60e51b81526020600482015260066024820152650857dc1bdbdb60d21b6044820152606401610c40565b600080836001600160a01b0316639d63848a6040518163ffffffff1660e01b815260040160408051808303816000875af115801561161e573d6000803e3d6000fd5b505050506040513d601f19601f820116820180604052508101906116429190612cd0565b6001600160a01b0382166000908152600b6020526040902054919350915060ff16801561168757506001600160a01b0381166000908152600b602052604090205460ff165b6116c25760405162461bcd60e51b815260206004820152600c60248201526b085dda1a5d195b1a5cdd195960a21b6044820152606401610c40565b60007f00000000000000000000000000000000000000000000000000000000000000006001600160a01b031663d27b9a786040518163ffffffff1660e01b81526004016020604051808303816000875af1158015611724573d6000803e3d6000fd5b505050506040513d601f19601f820116820180604052508101906117489190612cb3565b604051630e24707d60e11b81526001600160a01b03878116600483015280831660248301527f0000000000000000000000000000000000000000000000000000000000000000811660448301529192506000917f00000000000000000000000000000000000000000000000000000000000000001690631c48e0fa906064016020604051808303816000875af11580156117e6573d6000803e3d6000fd5b505050506040513d601f19601f8201168201806040525081019061180a9190612cb3565b60405163095ea7b360e01b81526001600160a01b03808316600483015260001960248301529192507f00000000000000000000000000000000000000000000000000000000000000009091169063095ea7b3906044016020604051808303816000875af115801561187f573d6000803e3d6000fd5b505050506040513d601f19601f820116820180604052508101906118a39190612bfe565b506001600160a01b03808216600081815260056020908152604080832080548689166001600160a01b031991821617909155948b16808452600383528184208054871686179055938352600482528083208054909516909317909355600a9092529020805460ff1916600117905561191a816125b8565b600280546001810182556000919091527f405787fa12a823e0f2b7631cc41b3ba8828b3321ca811111fa75cd3aa3bb5ace0180546001600160a01b0319166001600160a01b03888116918217909255604051338152909184811691908416907f48d3c521fd0d5541640f58c6d6381eed7cb2e8c9df421ae165a4f4c2d221ee0d9060200160405180910390a495945050505050565b336000908152600a602052604090205460ff166119cb57600080fd5b604080518481526020810183905233916001600160a01b038516917fdcbc1c05240f31ff3ad067ef1ee35ce4997762752e3a095284754544f4c709d791015b60405180910390a3505050565b60086020528160005260406000208181548110611a3357600080fd5b6000918252602090912001546001600160a01b03169150829050565b60028181548110611a5f57600080fd5b6000918252602090912001546001600160a01b0316905081565b600060c87f00000000000000000000000000000000000000000000000000000000000000006001600160a01b03166318160ddd6040518163ffffffff1660e01b8152600401602060405180830381865afa158015611adb573d6000803e3d6000fd5b505050506040513d601f19601f82011682018060405250810190611aff9190612c81565b7f00000000000000000000000000000000000000000000000000000000000000006001600160a01b03166318160ddd6040518163ffffffff1660e01b8152600401602060405180830381865afa158015611b5d573d6000803e3d6000fd5b505050506040513d601f19601f82011682018060405250810190611b819190612c81565b611b8b9190612cff565b611b959190612c55565b905090565b60005b8151811015610cba57818181518110611bb857611bb8612b4f565b60200260200101516001600160a01b031663d294f0936040518163ffffffff1660e01b815260040160408051808303816000875af1158015611bfe573d6000803e3d6000fd5b505050506040513d601f19601f82011682018060405250810190611c229190612d16565b50508080611c2f90612be3565b915050611b9d565b60005b8151811015610cba57611c65828281518110611c5857611c58612b4f565b60200260200101516125b8565b80611c6f81612be3565b915050611c3a565b336000908152600a602052604090205460ff16611c9357600080fd5b604080518481526020810183905233916001600160a01b038516917ff341246adaac6f497bc2a656f546ab9e182111d630394f0c57c710a59a2cb5679101611a0a565b60405163430c208160e01b8152336004820152602481018690527f00000000000000000000000000000000000000000000000000000000000000006001600160a01b03169063430c208190604401602060405180830381865afa158015611d41573d6000803e3d6000fd5b505050506040513d601f19601f82011682018060405250810190611d659190612bfe565b611d6e57600080fd5b828114611d7a57600080fd5b61086b858585808060200260200160405190810160405280939291908181526020018383602002808284376000920191909152505060408051602080890282810182019093528882529093508892508791829185019084908082843760009201919091525061200f92505050565b600081815260086020526040812080549091805b82811015611fd3576000848281548110611e1857611e18612b4f565b60009182526020808320909101548883526007825260408084206001600160a01b03909216808552919092529120549091508015611fbe576001600160a01b03808316600090815260036020526040902054611e7491166125b8565b6001600160a01b03821660009081526006602052604081208054839290611e9c908490612d3a565b909155505060008781526007602090815260408083206001600160a01b038616845290915281208054839290611ed3908490612d3a565b90915550506000811315611f77576001600160a01b038281166000908152600360209081526040808320548416835260059091529081902054905163278afc8b60e21b815260048101849052602481018a9052911690639e2bf22c90604401600060405180830381600087803b158015611f4c57600080fd5b505af1158015611f60573d6000803e3d6000fd5b505050508084611f709190612d79565b9350611f84565b611f818185612d3a565b93505b60408051888152602081018390527f6b3894ce60b9bbe9d93f1a4e6fc25b6b93cd8222e73ab6348d79c596f5b51de9910160405180910390a15b50508080611fcb90612be3565b915050611dfc565b508060016000828254611fe69190612cff565b90915550506000848152600960209081526040808320839055600890915281206109bc9161269b565b61201883611de8565b81516040516339f890b560e21b8152600481018590526000907f00000000000000000000000000000000000000000000000000000000000000006001600160a01b03169063e7e242d490602401602060405180830381865afa158015612082573d6000803e3d6000fd5b505050506040513d601f19601f820116820180604052508101906120a69190612c81565b90506000806000805b858110156121395760008782815181106120cb576120cb612b4f565b602002602001015113612100578681815181106120ea576120ea612b4f565b60200260200101516120fb90612dba565b61211b565b86818151811061211257612112612b4f565b60200260200101515b6121259085612d79565b93508061213181612be3565b9150506120af565b5060005b8581101561239657600088828151811061215957612159612b4f565b6020908102919091018101516001600160a01b03808216600090815260038452604080822054909216808252600a909452205490925060ff161561238157600086888b86815181106121ad576121ad612b4f565b60200260200101516121bf9190612dd7565b6121c99190612e5c565b60008d81526007602090815260408083206001600160a01b0388168452909152902054909150156121f957600080fd5b8061220357600080fd5b61220c826125b8565b60008c815260086020908152604080832080546001810182559084528284200180546001600160a01b0319166001600160a01b0388169081179091558352600690915281208054839290612261908490612d79565b909155505060008c81526007602090815260408083206001600160a01b038716845290915281208054839290612298908490612d79565b9091555050600081131561231f576001600160a01b038083166000908152600560205260409081902054905163f320772360e01b815260048101849052602481018f905291169063f320772390604401600060405180830381600087803b15801561230257600080fd5b505af1158015612316573d6000803e3d6000fd5b5050505061232b565b61232881612dba565b90505b6123358186612d79565b94506123418187612d79565b604080518e81526020810184905291975033917f1263a2295e53acd6ef8f655b8afc11fa0f2cf11925be7aa1757d741ef32a926c910160405180910390a2505b5050808061238e90612be3565b91505061213d565b50600081131561241b5760405163fd4a77f160e01b8152600481018990527f00000000000000000000000000000000000000000000000000000000000000006001600160a01b03169063fd4a77f190602401600060405180830381600087803b15801561240257600080fd5b505af1158015612416573d6000803e3d6000fd5b505050505b816001600082825461242d9190612c69565b909155505060009788526009602052604090972096909655505050505050565b6000846001600160a01b03163b1161246457600080fd5b604080516001600160a01b0385811660248301528481166044830152606480830185905283518084039091018152608490920183526020820180516001600160e01b03166323b872dd60e01b17905291516000928392908816916124c89190612e8a565b6000604051808303816000865af19150503d8060008114612505576040519150601f19603f3d011682016040523d82523d6000602084013e61250a565b606091505b50915091508180156125345750805115806125345750808060200190518101906125349190612bfe565b61253d57600080fd5b505050505050565b6001600160a01b0381166000908152600b602052604090205460ff161561256b57600080fd5b6001600160a01b0381166000818152600b6020526040808220805460ff191660011790555133917f6661a7108aecd07864384529117d96c319c1163e3010c01390f6b704726e07de91a350565b6001600160a01b038082166000908152600460209081526040808320549093168083526006909152918120549081131561267a576001600160a01b0383166000908152600e602052604081208054600d5491829055916126188383612cff565b9050801561253d576000670de0b6b3a76400006126358387612c20565b61263f9190612c55565b6001600160a01b0388166000908152600f602052604081208054929350839290919061266c908490612c69565b909155505050505050505050565b600d546001600160a01b0384166000908152600e6020526040902055505050565b508054600082559060005260206000209081019061111c91905b808211156126c957600081556001016126b5565b5090565b6001600160a01b038116811461111c57600080fd5b6000602082840312156126f457600080fd5b81356126ff816126cd565b9392505050565b634e487b7160e01b600052604160045260246000fd5b604051601f8201601f1916810167ffffffffffffffff8111828210171561274557612745612706565b604052919050565b600067ffffffffffffffff82111561276757612767612706565b5060051b60200190565b600082601f83011261278257600080fd5b813560206127976127928361274d565b61271c565b82815260059290921b840181019181810190868411156127b657600080fd5b8286015b848110156127da5780356127cd816126cd565b83529183019183016127ba565b509695505050505050565b600082601f8301126127f657600080fd5b813560206128066127928361274d565b82815260059290921b8401810191818101908684111561282557600080fd5b8286015b848110156127da57803567ffffffffffffffff8111156128495760008081fd5b6128578986838b0101612771565b845250918301918301612829565b6000806040838503121561287857600080fd5b823567ffffffffffffffff8082111561289057600080fd5b61289c86838701612771565b935060208501359150808211156128b257600080fd5b506128bf858286016127e5565b9150509250929050565b6000602082840312156128db57600080fd5b5035919050565b600080604083850312156128f557600080fd5b823591506020830135612907816126cd565b809150509250929050565b6000806040838503121561292557600080fd5b823567ffffffffffffffff81111561293c57600080fd5b61294885828601612771565b9250506020830135612907816126cd565b60006020828403121561296b57600080fd5b813567ffffffffffffffff81111561298257600080fd5b61298e84828501612771565b949350505050565b6000806000606084860312156129ab57600080fd5b833567ffffffffffffffff808211156129c357600080fd5b6129cf87838801612771565b945060208601359150808211156129e557600080fd5b506129f2868287016127e5565b925050604084013590509250925092565b60008060408385031215612a1657600080fd5b50508035926020909101359150565b60008060408385031215612a3857600080fd5b8235612a43816126cd565b946020939093013593505050565b600080600060608486031215612a6657600080fd5b833592506020840135612a78816126cd565b929592945050506040919091013590565b60008083601f840112612a9b57600080fd5b50813567ffffffffffffffff811115612ab357600080fd5b6020830191508360208260051b8501011115612ace57600080fd5b9250929050565b600080600080600060608688031215612aed57600080fd5b85359450602086013567ffffffffffffffff80821115612b0c57600080fd5b612b1889838a01612a89565b90965094506040880135915080821115612b3157600080fd5b50612b3e88828901612a89565b969995985093965092949392505050565b634e487b7160e01b600052603260045260246000fd5b600081518084526020808501945080840160005b83811015612b9e5781516001600160a01b031687529582019590820190600101612b79565b509495945050505050565b6001600160a01b038316815260406020820181905260009061298e90830184612b65565b634e487b7160e01b600052601160045260246000fd5b6000600019821415612bf757612bf7612bcd565b5060010190565b600060208284031215612c1057600080fd5b815180151581146126ff57600080fd5b6000816000190483118215151615612c3a57612c3a612bcd565b500290565b634e487b7160e01b600052601260045260246000fd5b600082612c6457612c64612c3f565b500490565b60008219821115612c7c57612c7c612bcd565b500190565b600060208284031215612c9357600080fd5b5051919050565b82815260406020820152600061298e6040830184612b65565b600060208284031215612cc557600080fd5b81516126ff816126cd565b60008060408385031215612ce357600080fd5b8251612cee816126cd565b6020840151909250612907816126cd565b600082821015612d1157612d11612bcd565b500390565b60008060408385031215612d2957600080fd5b505080516020909101519092909150565b60008083128015600160ff1b850184121615612d5857612d58612bcd565b6001600160ff1b0384018313811615612d7357612d73612bcd565b50500390565b600080821280156001600160ff1b0384900385131615612d9b57612d9b612bcd565b600160ff1b8390038412811615612db457612db4612bcd565b50500190565b6000600160ff1b821415612dd057612dd0612bcd565b5060000390565b60006001600160ff1b0381841382841380821686840486111615612dfd57612dfd612bcd565b600160ff1b6000871282811687830589121615612e1c57612e1c612bcd565b60008712925087820587128484161615612e3857612e38612bcd565b87850587128184161615612e4e57612e4e612bcd565b505050929093029392505050565b600082612e6b57612e6b612c3f565b600160ff1b821460001984141615612e8557612e85612bcd565b500590565b6000825160005b81811015612eab5760208186018101518583015201612e91565b81811115612eba576000828501525b50919091019291505056fea2646970667358221220a2c830772c8898742fecd32a97578f723c84dc434bdf6ff1060faace91d2fe5164736f6c634300080b0033",
  "linkReferences": {},
  "deployedLinkReferences": {}
}