{
  "_format": "hh-sol-artifact-1",
  "contractName": "OperWallet",
  "sourceName": "contracts/OperWallet.sol",
  "abi": [
    {
      "inputs": [
        {
          "internalType": "address",
          "name": "_platformToken",
          "type": "address"
        }
      ],
      "stateMutability": "nonpayable",
      "type": "constructor"
    },
    {
      "anonymous": false,
      "inputs": [
        {
          "indexed": true,
          "internalType": "address",
          "name": "previousOwner",
          "type": "address"
        },
        {
          "indexed": true,
          "internalType": "address",
          "name": "newOwner",
          "type": "address"
        }
      ],
      "name": "OwnershipTransferred",
      "type": "event"
    },
    {
      "inputs": [],
      "name": "owner",
      "outputs": [
        {
          "internalType": "address",
          "name": "",
          "type": "address"
        }
      ],
      "stateMutability": "view",
      "type": "function"
    },
    {
      "inputs": [],
      "name": "periodDeadline",
      "outputs": [
        {
          "internalType": "uint256",
          "name": "",
          "type": "uint256"
        }
      ],
      "stateMutability": "view",
      "type": "function"
    },
    {
      "inputs": [],
      "name": "periodIndex",
      "outputs": [
        {
          "internalType": "uint256",
          "name": "",
          "type": "uint256"
        }
      ],
      "stateMutability": "view",
      "type": "function"
    },
    {
      "inputs": [],
      "name": "platformToken",
      "outputs": [
        {
          "internalType": "contract IERC20",
          "name": "",
          "type": "address"
        }
      ],
      "stateMutability": "view",
      "type": "function"
    },
    {
      "inputs": [],
      "name": "renounceOwnership",
      "outputs": [],
      "stateMutability": "nonpayable",
      "type": "function"
    },
    {
      "inputs": [
        {
          "internalType": "address",
          "name": "",
          "type": "address"
        }
      ],
      "name": "shares",
      "outputs": [
        {
          "internalType": "uint256",
          "name": "",
          "type": "uint256"
        }
      ],
      "stateMutability": "view",
      "type": "function"
    },
    {
      "inputs": [
        {
          "internalType": "uint256",
          "name": "",
          "type": "uint256"
        }
      ],
      "name": "sharesRemoved",
      "outputs": [
        {
          "internalType": "uint256",
          "name": "",
          "type": "uint256"
        }
      ],
      "stateMutability": "view",
      "type": "function"
    },
    {
      "inputs": [],
      "name": "totalShares",
      "outputs": [
        {
          "internalType": "uint256",
          "name": "",
          "type": "uint256"
        }
      ],
      "stateMutability": "view",
      "type": "function"
    },
    {
      "inputs": [
        {
          "internalType": "address",
          "name": "newOwner",
          "type": "address"
        }
      ],
      "name": "transferOwnership",
      "outputs": [],
      "stateMutability": "nonpayable",
      "type": "function"
    },
    {
      "inputs": [
        {
          "internalType": "address",
          "name": "_holder",
          "type": "address"
        },
        {
          "internalType": "uint256",
          "name": "_share",
          "type": "uint256"
        }
      ],
      "name": "updateShares",
      "outputs": [],
      "stateMutability": "nonpayable",
      "type": "function"
    },
    {
      "inputs": [
        {
          "internalType": "uint256",
          "name": "",
          "type": "uint256"
        },
        {
          "internalType": "address",
          "name": "",
          "type": "address"
        }
      ],
      "name": "userRemoved",
      "outputs": [
        {
          "internalType": "bool",
          "name": "",
          "type": "bool"
        }
      ],
      "stateMutability": "view",
      "type": "function"
    },
    {
      "inputs": [],
      "name": "withdraw",
      "outputs": [],
      "stateMutability": "nonpayable",
      "type": "function"
    },
    {
      "stateMutability": "payable",
      "type": "receive"
    }
  ],
  "bytecode": "0x608060405234801561001057600080fd5b50604051610bfb380380610bfb83398101604081905261002f916100a5565b600080546001600160a01b031916339081178255604051909182917f8be0079c531659141344cd1fd0a4f28419497f9722a3daafe3b4186f6b6457e0908290a35061007d4262093a806100d5565b600355600480546001600160a01b0319166001600160a01b03929092169190911790556100fb565b6000602082840312156100b757600080fd5b81516001600160a01b03811681146100ce57600080fd5b9392505050565b600082198211156100f657634e487b7160e01b600052601160045260246000fd5b500190565b610af18061010a6000396000f3fe6080604052600436106100ab5760003560e01c8063ce7c2ac211610064578063ce7c2ac21461019f578063d1b812cd146101cc578063d7e583ee146101ec578063de4e05fb14610219578063e5d0821f1461022f578063f2fde38b1461024f57600080fd5b806319b47ce6146100b75780633a98ef39146101075780633ccfd60b1461012b578063560f66ea14610142578063715018a6146101585780638da5cb5b1461016d57600080fd5b366100b257005b600080fd5b3480156100c357600080fd5b506100f26100d23660046108e6565b600760209081526000928352604080842090915290825290205460ff1681565b60405190151581526020015b60405180910390f35b34801561011357600080fd5b5061011d60015481565b6040519081526020016100fe565b34801561013757600080fd5b5061014061026f565b005b34801561014e57600080fd5b5061011d60025481565b34801561016457600080fd5b506101406104fb565b34801561017957600080fd5b506000546001600160a01b03165b6040516001600160a01b0390911681526020016100fe565b3480156101ab57600080fd5b5061011d6101ba366004610912565b60056020526000908152604090205481565b3480156101d857600080fd5b50600454610187906001600160a01b031681565b3480156101f857600080fd5b5061011d61020736600461092d565b60066020526000908152604090205481565b34801561022557600080fd5b5061011d60035481565b34801561023b57600080fd5b5061014061024a366004610946565b61056f565b34801561025b57600080fd5b5061014061026a366004610912565b6105f0565b6102776106da565b33600090815260056020526040902054806102c85760405162461bcd60e51b815260206004820152600c60248201526b456d7074792073686172657360a01b60448201526064015b60405180910390fd5b600254600090815260076020908152604080832033845290915290205460ff16156103225760405162461bcd60e51b815260206004820152600a60248201526915da5d1a191c985dd95960b21b60448201526064016102bf565b6002546000908152600660205260408120546001549091479161035c9085906103569061034f90876106f7565b8590610742565b90610784565b600480546040516370a0823160e01b815230928101929092529192506000916001600160a01b0316906370a0823190602401602060405180830381865afa1580156103ab573d6000803e3d6000fd5b505050506040513d601f19601f820116820180604052508101906103cf9190610970565b905060006103ef8661035661034f886001546106f790919063ffffffff16565b6002805460009081526007602090815260408083203384528252808320805460ff191660011790559254825260069052205490915061042e9087610803565b600254600090815260066020526040902055821561047557604051339084156108fc029085906000818181858888f19350505050158015610473573d6000803e3d6000fd5b505b80156104f3576004805460405163a9059cbb60e01b81523392810192909252602482018390526001600160a01b03169063a9059cbb906044016020604051808303816000875af11580156104cd573d6000803e3d6000fd5b505050506040513d601f19601f820116820180604052508101906104f19190610989565b505b505050505050565b6000546001600160a01b031633146105255760405162461bcd60e51b81526004016102bf906109ab565b600080546040516001600160a01b03909116907f8be0079c531659141344cd1fd0a4f28419497f9722a3daafe3b4186f6b6457e0908390a3600080546001600160a01b0319169055565b6000546001600160a01b031633146105995760405162461bcd60e51b81526004016102bf906109ab565b6001600160a01b0382166000908152600560205260409020546001546105be916106f7565b60019081556001600160a01b0383166000908152600560205260409020829055546105e99082610803565b6001555050565b6000546001600160a01b0316331461061a5760405162461bcd60e51b81526004016102bf906109ab565b6001600160a01b03811661067f5760405162461bcd60e51b815260206004820152602660248201527f4f776e61626c653a206e6577206f776e657220697320746865207a65726f206160448201526564647265737360d01b60648201526084016102bf565b600080546040516001600160a01b03808516939216917f8be0079c531659141344cd1fd0a4f28419497f9722a3daafe3b4186f6b6457e091a3600080546001600160a01b0319166001600160a01b0392909216919091179055565b60035442106106f5576002546106f19060016109f6565b6002555b565b600061073983836040518060400160405280601e81526020017f536166654d6174683a207375627472616374696f6e206f766572666c6f770000815250610862565b90505b92915050565b600061073983836040518060400160405280601a81526020017f536166654d6174683a206469766973696f6e206279207a65726f00000000000081525061089c565b6000826107935750600061073c565b600061079f8385610a0e565b9050826107ac8583610a2d565b146107395760405162461bcd60e51b815260206004820152602160248201527f536166654d6174683a206d756c7469706c69636174696f6e206f766572666c6f6044820152607760f81b60648201526084016102bf565b60008061081083856109f6565b9050838110156107395760405162461bcd60e51b815260206004820152601b60248201527f536166654d6174683a206164646974696f6e206f766572666c6f77000000000060448201526064016102bf565b600081848411156108865760405162461bcd60e51b81526004016102bf9190610a4f565b5060006108938486610aa4565b95945050505050565b600081836108bd5760405162461bcd60e51b81526004016102bf9190610a4f565b5060006108938486610a2d565b80356001600160a01b03811681146108e157600080fd5b919050565b600080604083850312156108f957600080fd5b82359150610909602084016108ca565b90509250929050565b60006020828403121561092457600080fd5b610739826108ca565b60006020828403121561093f57600080fd5b5035919050565b6000806040838503121561095957600080fd5b610962836108ca565b946020939093013593505050565b60006020828403121561098257600080fd5b5051919050565b60006020828403121561099b57600080fd5b8151801515811461073957600080fd5b6020808252818101527f4f776e61626c653a2063616c6c6572206973206e6f7420746865206f776e6572604082015260600190565b634e487b7160e01b600052601160045260246000fd5b60008219821115610a0957610a096109e0565b500190565b6000816000190483118215151615610a2857610a286109e0565b500290565b600082610a4a57634e487b7160e01b600052601260045260246000fd5b500490565b600060208083528351808285015260005b81811015610a7c57858101830151858201604001528201610a60565b81811115610a8e576000604083870101525b50601f01601f1916929092016040019392505050565b600082821015610ab657610ab66109e0565b50039056fea2646970667358221220fa61e64af62760c82a4f85f7b918d5aea62004c3be09e04fc48c1ff9895f456e64736f6c634300080b0033",
  "linkReferences": {},
  "deployedLinkReferences": {}
}