{
  "_format": "hh-sol-artifact-1",
  "contractName": "GaugesRewardDistributor",
  "sourceName": "contracts/GaugesRewardDistributor.sol",
  "abi": [
    {
      "inputs": [
        {
          "internalType": "address[]",
          "name": "_gauges",
          "type": "address[]"
        },
        {
          "internalType": "uint256[]",
          "name": "_shares",
          "type": "uint256[]"
        }
      ],
      "stateMutability": "nonpayable",
      "type": "constructor"
    },
    {
      "anonymous": false,
      "inputs": [
        {
          "indexed": true,
          "internalType": "address",
          "name": "previousOwner",
          "type": "address"
        },
        {
          "indexed": true,
          "internalType": "address",
          "name": "newOwner",
          "type": "address"
        }
      ],
      "name": "OwnershipTransferred",
      "type": "event"
    },
    {
      "inputs": [
        {
          "internalType": "address",
          "name": "_token",
          "type": "address"
        }
      ],
      "name": "destribute",
      "outputs": [],
      "stateMutability": "nonpayable",
      "type": "function"
    },
    {
      "inputs": [
        {
          "internalType": "uint256",
          "name": "",
          "type": "uint256"
        }
      ],
      "name": "gauges",
      "outputs": [
        {
          "internalType": "address",
          "name": "",
          "type": "address"
        }
      ],
      "stateMutability": "view",
      "type": "function"
    },
    {
      "inputs": [],
      "name": "owner",
      "outputs": [
        {
          "internalType": "address",
          "name": "",
          "type": "address"
        }
      ],
      "stateMutability": "view",
      "type": "function"
    },
    {
      "inputs": [],
      "name": "renounceOwnership",
      "outputs": [],
      "stateMutability": "nonpayable",
      "type": "function"
    },
    {
      "inputs": [
        {
          "internalType": "uint256",
          "name": "",
          "type": "uint256"
        }
      ],
      "name": "shares",
      "outputs": [
        {
          "internalType": "uint256",
          "name": "",
          "type": "uint256"
        }
      ],
      "stateMutability": "view",
      "type": "function"
    },
    {
      "inputs": [],
      "name": "totalGauges",
      "outputs": [
        {
          "internalType": "uint256",
          "name": "",
          "type": "uint256"
        }
      ],
      "stateMutability": "view",
      "type": "function"
    },
    {
      "inputs": [],
      "name": "totalShares",
      "outputs": [
        {
          "internalType": "uint256",
          "name": "",
          "type": "uint256"
        }
      ],
      "stateMutability": "view",
      "type": "function"
    },
    {
      "inputs": [
        {
          "internalType": "address",
          "name": "newOwner",
          "type": "address"
        }
      ],
      "name": "transferOwnership",
      "outputs": [],
      "stateMutability": "nonpayable",
      "type": "function"
    },
    {
      "inputs": [
        {
          "internalType": "address[]",
          "name": "_gauges",
          "type": "address[]"
        },
        {
          "internalType": "uint256[]",
          "name": "_shares",
          "type": "uint256[]"
        }
      ],
      "name": "update",
      "outputs": [],
      "stateMutability": "nonpayable",
      "type": "function"
    }
  ],
  "bytecode": "0x60806040523480156200001157600080fd5b5060405162000e1d38038062000e1d833981016040819052620000349162000317565b6200003f3362000053565b6200004b8282620000a3565b50506200045a565b600080546001600160a01b038381166001600160a01b0319831681178455604051919092169283917f8be0079c531659141344cd1fd0a4f28419497f9722a3daafe3b4186f6b6457e09190a35050565b8051825114620000e85760405162461bcd60e51b815260206004820152600c60248201526b0aee4dedcce40d8cadccee8d60a31b604482015260640160405180910390fd5b8151620000fd90600190602085019062000176565b50805162000113906002906020840190620001e0565b50600060038190555b815181101562000171578181815181106200013b576200013b620003f5565b60200260200101516003600082825462000156919062000421565b9091555081905062000168816200043c565b9150506200011c565b505050565b828054828255906000526020600020908101928215620001ce579160200282015b82811115620001ce57825182546001600160a01b0319166001600160a01b0390911617825560209092019160019091019062000197565b50620001dc9291506200021e565b5090565b828054828255906000526020600020908101928215620001ce579160200282015b82811115620001ce57825182559160200191906001019062000201565b5b80821115620001dc57600081556001016200021f565b634e487b7160e01b600052604160045260246000fd5b604051601f8201601f191681016001600160401b038111828210171562000276576200027662000235565b604052919050565b60006001600160401b038211156200029a576200029a62000235565b5060051b60200190565b600082601f830112620002b657600080fd5b81516020620002cf620002c9836200027e565b6200024b565b82815260059290921b84018101918181019086841115620002ef57600080fd5b8286015b848110156200030c5780518352918301918301620002f3565b509695505050505050565b600080604083850312156200032b57600080fd5b82516001600160401b03808211156200034357600080fd5b818501915085601f8301126200035857600080fd5b815160206200036b620002c9836200027e565b82815260059290921b840181019181810190898411156200038b57600080fd5b948201945b83861015620003c25785516001600160a01b0381168114620003b25760008081fd5b8252948201949082019062000390565b91880151919650909350505080821115620003dc57600080fd5b50620003eb85828601620002a4565b9150509250929050565b634e487b7160e01b600052603260045260246000fd5b634e487b7160e01b600052601160045260246000fd5b600082198211156200043757620004376200040b565b500190565b60006000198214156200045357620004536200040b565b5060010190565b6109b3806200046a6000396000f3fe608060405234801561001057600080fd5b50600436106100935760003560e01c8063715018a611610066578063715018a6146100e0578063845003e8146100e85780638da5cb5b146100fb578063b053918714610120578063f2fde38b1461013357600080fd5b80632ba27111146100985780632c10e90c146100af5780633a98ef39146100c457806357a858fc146100cd575b600080fd5b6001545b6040519081526020015b60405180910390f35b6100c26100bd366004610772565b610146565b005b61009c60035481565b61009c6100db366004610832565b610187565b6100c26101a8565b6100c26100f636600461084b565b6101de565b6000546001600160a01b03165b6040516001600160a01b0390911681526020016100a6565b61010861012e366004610832565b6103fa565b6100c261014136600461084b565b610424565b6000546001600160a01b031633146101795760405162461bcd60e51b81526004016101709061086d565b60405180910390fd5b61018382826104bf565b5050565b6002818154811061019757600080fd5b600091825260209091200154905081565b6000546001600160a01b031633146101d25760405162461bcd60e51b81526004016101709061086d565b6101dc600061057b565b565b6040516370a0823160e01b81523060048201526000906001600160a01b038316906370a0823190602401602060405180830381865afa158015610225573d6000803e3d6000fd5b505050506040513d601f19601f8201168201806040525081019061024991906108a2565b905060035481101561029d5760405162461bcd60e51b815260206004820152601e60248201527f4e6f7420656e6f756768207265776172647320746f20776974686472617700006044820152606401610170565b60005b6001548110156103f5576000600282815481106102bf576102bf6108bb565b9060005260206000200154600354846102d891906108e7565b6102e29190610909565b90506000600183815481106102f9576102f96108bb565b60009182526020909120015460405163095ea7b360e01b81526001600160a01b03918216600482018190526024820185905292509086169063095ea7b3906044016020604051808303816000875af1158015610359573d6000803e3d6000fd5b505050506040513d601f19601f8201168201806040525081019061037d9190610928565b5060405163b66503cf60e01b81526001600160a01b0386811660048301526024820184905282169063b66503cf90604401600060405180830381600087803b1580156103c857600080fd5b505af11580156103dc573d6000803e3d6000fd5b50505050505080806103ed9061094a565b9150506102a0565b505050565b6001818154811061040a57600080fd5b6000918252602090912001546001600160a01b0316905081565b6000546001600160a01b0316331461044e5760405162461bcd60e51b81526004016101709061086d565b6001600160a01b0381166104b35760405162461bcd60e51b815260206004820152602660248201527f4f776e61626c653a206e6577206f776e657220697320746865207a65726f206160448201526564647265737360d01b6064820152608401610170565b6104bc8161057b565b50565b80518251146104ff5760405162461bcd60e51b815260206004820152600c60248201526b0aee4dedcce40d8cadccee8d60a31b6044820152606401610170565b81516105129060019060208501906105cb565b508051610526906002906020840190610630565b50600060038190555b81518110156103f55781818151811061054a5761054a6108bb565b6020026020010151600360008282546105639190610965565b909155508190506105738161094a565b91505061052f565b600080546001600160a01b038381166001600160a01b0319831681178455604051919092169283917f8be0079c531659141344cd1fd0a4f28419497f9722a3daafe3b4186f6b6457e09190a35050565b828054828255906000526020600020908101928215610620579160200282015b8281111561062057825182546001600160a01b0319166001600160a01b039091161782556020909201916001909101906105eb565b5061062c92915061066b565b5090565b828054828255906000526020600020908101928215610620579160200282015b82811115610620578251825591602001919060010190610650565b5b8082111561062c576000815560010161066c565b634e487b7160e01b600052604160045260246000fd5b604051601f8201601f1916810167ffffffffffffffff811182821017156106bf576106bf610680565b604052919050565b600067ffffffffffffffff8211156106e1576106e1610680565b5060051b60200190565b80356001600160a01b038116811461070257600080fd5b919050565b600082601f83011261071857600080fd5b8135602061072d610728836106c7565b610696565b82815260059290921b8401810191818101908684111561074c57600080fd5b8286015b848110156107675780358352918301918301610750565b509695505050505050565b6000806040838503121561078557600080fd5b823567ffffffffffffffff8082111561079d57600080fd5b818501915085601f8301126107b157600080fd5b813560206107c1610728836106c7565b82815260059290921b840181019181810190898411156107e057600080fd5b948201945b83861015610805576107f6866106eb565b825294820194908201906107e5565b9650508601359250508082111561081b57600080fd5b5061082885828601610707565b9150509250929050565b60006020828403121561084457600080fd5b5035919050565b60006020828403121561085d57600080fd5b610866826106eb565b9392505050565b6020808252818101527f4f776e61626c653a2063616c6c6572206973206e6f7420746865206f776e6572604082015260600190565b6000602082840312156108b457600080fd5b5051919050565b634e487b7160e01b600052603260045260246000fd5b634e487b7160e01b600052601160045260246000fd5b60008261090457634e487b7160e01b600052601260045260246000fd5b500490565b6000816000190483118215151615610923576109236108d1565b500290565b60006020828403121561093a57600080fd5b8151801515811461086657600080fd5b600060001982141561095e5761095e6108d1565b5060010190565b60008219821115610978576109786108d1565b50019056fea264697066735822122011c55b4cebe5e8ed82f176bcde04ef935c373c867662779b0db6c35dc0e57e1e64736f6c634300080b0033",
  "linkReferences": {},
  "deployedLinkReferences": {}
}