{
  "_format": "hh-sol-artifact-1",
  "contractName": "GaugesRewardDistributor",
  "sourceName": "contracts/GaugesRewardDistributor.sol",
  "abi": [
    {
      "inputs": [
        {
          "internalType": "address[]",
          "name": "_gauges",
          "type": "address[]"
        },
        {
          "internalType": "uint256[]",
          "name": "_shares",
          "type": "uint256[]"
        }
      ],
      "stateMutability": "nonpayable",
      "type": "constructor"
    },
    {
      "anonymous": false,
      "inputs": [
        {
          "indexed": true,
          "internalType": "address",
          "name": "previousOwner",
          "type": "address"
        },
        {
          "indexed": true,
          "internalType": "address",
          "name": "newOwner",
          "type": "address"
        }
      ],
      "name": "OwnershipTransferred",
      "type": "event"
    },
    {
      "inputs": [
        {
          "internalType": "address",
          "name": "_token",
          "type": "address"
        }
      ],
      "name": "destribute",
      "outputs": [],
      "stateMutability": "nonpayable",
      "type": "function"
    },
    {
      "inputs": [
        {
          "internalType": "uint256",
          "name": "",
          "type": "uint256"
        }
      ],
      "name": "gauges",
      "outputs": [
        {
          "internalType": "address",
          "name": "",
          "type": "address"
        }
      ],
      "stateMutability": "view",
      "type": "function"
    },
    {
      "inputs": [],
      "name": "owner",
      "outputs": [
        {
          "internalType": "address",
          "name": "",
          "type": "address"
        }
      ],
      "stateMutability": "view",
      "type": "function"
    },
    {
      "inputs": [],
      "name": "renounceOwnership",
      "outputs": [],
      "stateMutability": "nonpayable",
      "type": "function"
    },
    {
      "inputs": [
        {
          "internalType": "uint256",
          "name": "",
          "type": "uint256"
        }
      ],
      "name": "shares",
      "outputs": [
        {
          "internalType": "uint256",
          "name": "",
          "type": "uint256"
        }
      ],
      "stateMutability": "view",
      "type": "function"
    },
    {
      "inputs": [],
      "name": "totalGauges",
      "outputs": [
        {
          "internalType": "uint256",
          "name": "",
          "type": "uint256"
        }
      ],
      "stateMutability": "view",
      "type": "function"
    },
    {
      "inputs": [],
      "name": "totalShares",
      "outputs": [
        {
          "internalType": "uint256",
          "name": "",
          "type": "uint256"
        }
      ],
      "stateMutability": "view",
      "type": "function"
    },
    {
      "inputs": [
        {
          "internalType": "address",
          "name": "newOwner",
          "type": "address"
        }
      ],
      "name": "transferOwnership",
      "outputs": [],
      "stateMutability": "nonpayable",
      "type": "function"
    },
    {
      "inputs": [
        {
          "internalType": "address[]",
          "name": "_gauges",
          "type": "address[]"
        },
        {
          "internalType": "uint256[]",
          "name": "_shares",
          "type": "uint256[]"
        }
      ],
      "name": "update",
      "outputs": [],
      "stateMutability": "nonpayable",
      "type": "function"
    }
  ],
  "bytecode": "0x60806040523480156200001157600080fd5b5060405162000f7238038062000f72833981016040819052620000349162000317565b6200003f3362000053565b6200004b8282620000a3565b50506200045a565b600080546001600160a01b038381166001600160a01b0319831681178455604051919092169283917f8be0079c531659141344cd1fd0a4f28419497f9722a3daafe3b4186f6b6457e09190a35050565b8051825114620000e85760405162461bcd60e51b815260206004820152600c60248201526b0aee4dedcce40d8cadccee8d60a31b604482015260640160405180910390fd5b8151620000fd90600190602085019062000176565b50805162000113906002906020840190620001e0565b50600060038190555b815181101562000171578181815181106200013b576200013b620003f5565b60200260200101516003600082825462000156919062000421565b9091555081905062000168816200043c565b9150506200011c565b505050565b828054828255906000526020600020908101928215620001ce579160200282015b82811115620001ce57825182546001600160a01b0319166001600160a01b0390911617825560209092019160019091019062000197565b50620001dc9291506200021e565b5090565b828054828255906000526020600020908101928215620001ce579160200282015b82811115620001ce57825182559160200191906001019062000201565b5b80821115620001dc57600081556001016200021f565b634e487b7160e01b600052604160045260246000fd5b604051601f8201601f191681016001600160401b038111828210171562000276576200027662000235565b604052919050565b60006001600160401b038211156200029a576200029a62000235565b5060051b60200190565b600082601f830112620002b657600080fd5b81516020620002cf620002c9836200027e565b6200024b565b82815260059290921b84018101918181019086841115620002ef57600080fd5b8286015b848110156200030c5780518352918301918301620002f3565b509695505050505050565b600080604083850312156200032b57600080fd5b82516001600160401b03808211156200034357600080fd5b818501915085601f8301126200035857600080fd5b815160206200036b620002c9836200027e565b82815260059290921b840181019181810190898411156200038b57600080fd5b948201945b83861015620003c25785516001600160a01b0381168114620003b25760008081fd5b8252948201949082019062000390565b91880151919650909350505080821115620003dc57600080fd5b50620003eb85828601620002a4565b9150509250929050565b634e487b7160e01b600052603260045260246000fd5b634e487b7160e01b600052601160045260246000fd5b600082198211156200043757620004376200040b565b500190565b60006000198214156200045357620004536200040b565b5060010190565b610b08806200046a6000396000f3fe608060405234801561001057600080fd5b50600436106100935760003560e01c8063715018a611610066578063715018a6146100e0578063845003e8146100e85780638da5cb5b146100fb578063b053918714610120578063f2fde38b1461013357600080fd5b80632ba27111146100985780632c10e90c146100af5780633a98ef39146100c457806357a858fc146100cd575b600080fd5b6001545b6040519081526020015b60405180910390f35b6100c26100bd366004610879565b610146565b005b61009c60035481565b61009c6100db366004610939565b610187565b6100c26101a8565b6100c26100f6366004610952565b6101de565b6000546001600160a01b03165b6040516001600160a01b0390911681526020016100a6565b61010861012e366004610939565b610400565b6100c2610141366004610952565b61042a565b6000546001600160a01b031633146101795760405162461bcd60e51b81526004016101709061096d565b60405180910390fd5b61018382826104c5565b5050565b6002818154811061019757600080fd5b600091825260209091200154905081565b6000546001600160a01b031633146101d25760405162461bcd60e51b81526004016101709061096d565b6101dc6000610581565b565b6040516370a0823160e01b81523060048201526000906001600160a01b038316906370a0823190602401602060405180830381865afa158015610225573d6000803e3d6000fd5b505050506040513d601f19601f8201168201806040525081019061024991906109a2565b905060035481101561029d5760405162461bcd60e51b815260206004820152601e60248201527f4e6f7420656e6f756768207265776172647320746f20776974686472617700006044820152606401610170565b60005b6001548110156103fb5760006102e8600283815481106102c2576102c26109bb565b90600052602060002001546102e2600354866105d190919063ffffffff16565b9061061c565b90506000600183815481106102ff576102ff6109bb565b60009182526020909120015460405163095ea7b360e01b81526001600160a01b03918216600482018190526024820185905292509086169063095ea7b3906044016020604051808303816000875af115801561035f573d6000803e3d6000fd5b505050506040513d601f19601f8201168201806040525081019061038391906109d1565b5060405163b66503cf60e01b81526001600160a01b0386811660048301526024820184905282169063b66503cf90604401600060405180830381600087803b1580156103ce57600080fd5b505af11580156103e2573d6000803e3d6000fd5b50505050505080806103f390610a09565b9150506102a0565b505050565b6001818154811061041057600080fd5b6000918252602090912001546001600160a01b0316905081565b6000546001600160a01b031633146104545760405162461bcd60e51b81526004016101709061096d565b6001600160a01b0381166104b95760405162461bcd60e51b815260206004820152602660248201527f4f776e61626c653a206e6577206f776e657220697320746865207a65726f206160448201526564647265737360d01b6064820152608401610170565b6104c281610581565b50565b80518251146105055760405162461bcd60e51b815260206004820152600c60248201526b0aee4dedcce40d8cadccee8d60a31b6044820152606401610170565b81516105189060019060208501906106d2565b50805161052c906002906020840190610737565b50600060038190555b81518110156103fb57818181518110610550576105506109bb565b6020026020010151600360008282546105699190610a24565b9091555081905061057981610a09565b915050610535565b600080546001600160a01b038381166001600160a01b0319831681178455604051919092169283917f8be0079c531659141344cd1fd0a4f28419497f9722a3daafe3b4186f6b6457e09190a35050565b600061061383836040518060400160405280601a81526020017f536166654d6174683a206469766973696f6e206279207a65726f00000000000081525061069b565b90505b92915050565b60008261062b57506000610616565b60006106378385610a3c565b9050826106448583610a5b565b146106135760405162461bcd60e51b815260206004820152602160248201527f536166654d6174683a206d756c7469706c69636174696f6e206f766572666c6f6044820152607760f81b6064820152608401610170565b600081836106bc5760405162461bcd60e51b81526004016101709190610a7d565b5060006106c98486610a5b565b95945050505050565b828054828255906000526020600020908101928215610727579160200282015b8281111561072757825182546001600160a01b0319166001600160a01b039091161782556020909201916001909101906106f2565b50610733929150610772565b5090565b828054828255906000526020600020908101928215610727579160200282015b82811115610727578251825591602001919060010190610757565b5b808211156107335760008155600101610773565b634e487b7160e01b600052604160045260246000fd5b604051601f8201601f1916810167ffffffffffffffff811182821017156107c6576107c6610787565b604052919050565b600067ffffffffffffffff8211156107e8576107e8610787565b5060051b60200190565b80356001600160a01b038116811461080957600080fd5b919050565b600082601f83011261081f57600080fd5b8135602061083461082f836107ce565b61079d565b82815260059290921b8401810191818101908684111561085357600080fd5b8286015b8481101561086e5780358352918301918301610857565b509695505050505050565b6000806040838503121561088c57600080fd5b823567ffffffffffffffff808211156108a457600080fd5b818501915085601f8301126108b857600080fd5b813560206108c861082f836107ce565b82815260059290921b840181019181810190898411156108e757600080fd5b948201945b8386101561090c576108fd866107f2565b825294820194908201906108ec565b9650508601359250508082111561092257600080fd5b5061092f8582860161080e565b9150509250929050565b60006020828403121561094b57600080fd5b5035919050565b60006020828403121561096457600080fd5b610613826107f2565b6020808252818101527f4f776e61626c653a2063616c6c6572206973206e6f7420746865206f776e6572604082015260600190565b6000602082840312156109b457600080fd5b5051919050565b634e487b7160e01b600052603260045260246000fd5b6000602082840312156109e357600080fd5b8151801515811461061357600080fd5b634e487b7160e01b600052601160045260246000fd5b6000600019821415610a1d57610a1d6109f3565b5060010190565b60008219821115610a3757610a376109f3565b500190565b6000816000190483118215151615610a5657610a566109f3565b500290565b600082610a7857634e487b7160e01b600052601260045260246000fd5b500490565b600060208083528351808285015260005b81811015610aaa57858101830151858201604001528201610a8e565b81811115610abc576000604083870101525b50601f01601f191692909201604001939250505056fea2646970667358221220315fe45f21a87f85342ed89e03c176e867dee46bbc9301dcc4586f1f7877a0fc64736f6c634300080b0033",
  "linkReferences": {},
  "deployedLinkReferences": {}
}