{
  "_format": "hh-sol-artifact-1",
  "contractName": "FetchFormulaMock",
  "sourceName": "contracts/FetchFormulaMock.sol",
  "abi": [
    {
      "inputs": [],
      "name": "bonus",
      "outputs": [
        {
          "internalType": "uint256",
          "name": "",
          "type": "uint256"
        }
      ],
      "stateMutability": "view",
      "type": "function"
    },
    {
      "inputs": [],
      "name": "bonusPercent",
      "outputs": [
        {
          "internalType": "uint256",
          "name": "",
          "type": "uint256"
        }
      ],
      "stateMutability": "view",
      "type": "function"
    },
    {
      "inputs": [
        {
          "internalType": "uint256",
          "name": "_bonus",
          "type": "uint256"
        }
      ],
      "name": "updateBonusPercent",
      "outputs": [],
      "stateMutability": "nonpayable",
      "type": "function"
    }
  ],
  "bytecode": "0x608060405261012c60005534801561001657600080fd5b5060c2806100256000396000f3fe6080604052348015600f57600080fd5b5060043610603c5760003560e01c806375b4d78c146041578063becf3add14605b578063ee8e993c146062575b600080fd5b604960005481565b60405190815260200160405180910390f35b6000546049565b6072606d3660046074565b600055565b005b600060208284031215608557600080fd5b503591905056fea2646970667358221220e7a508070ebc01d060e22f6801919f101a85f70745a8faec4293e7ba6d4bf2a064736f6c634300080b0033",
  "linkReferences": {},
  "deployedLinkReferences": {}
}