{
  "_format": "hh-sol-artifact-1",
  "contractName": "Fetch",
  "sourceName": "contracts/Fetch.sol",
  "abi": [
    {
      "inputs": [
        {
          "internalType": "address",
          "name": "_dexRouter",
          "type": "address"
        },
        {
          "internalType": "address",
          "name": "_token",
          "type": "address"
        },
        {
          "internalType": "address",
          "name": "_beneficiary",
          "type": "address"
        },
        {
          "internalType": "address",
          "name": "_minter",
          "type": "address"
        },
        {
          "internalType": "address",
          "name": "_VE",
          "type": "address"
        },
        {
          "internalType": "address",
          "name": "_treasury",
          "type": "address"
        },
        {
          "internalType": "address",
          "name": "_formula",
          "type": "address"
        },
        {
          "internalType": "uint256",
          "name": "_minLockTime",
          "type": "uint256"
        }
      ],
      "stateMutability": "nonpayable",
      "type": "constructor"
    },
    {
      "anonymous": false,
      "inputs": [
        {
          "indexed": true,
          "internalType": "address",
          "name": "receiver",
          "type": "address"
        },
        {
          "indexed": false,
          "internalType": "uint256",
          "name": "_lockTime",
          "type": "uint256"
        },
        {
          "indexed": false,
          "internalType": "uint256",
          "name": "_minReturn",
          "type": "uint256"
        },
        {
          "indexed": false,
          "internalType": "uint256",
          "name": "ethAmount",
          "type": "uint256"
        },
        {
          "indexed": false,
          "internalType": "uint256",
          "name": "totalReceived",
          "type": "uint256"
        }
      ],
      "name": "Fetch",
      "type": "event"
    },
    {
      "anonymous": false,
      "inputs": [
        {
          "indexed": true,
          "internalType": "address",
          "name": "previousOwner",
          "type": "address"
        },
        {
          "indexed": true,
          "internalType": "address",
          "name": "newOwner",
          "type": "address"
        }
      ],
      "name": "OwnershipTransferred",
      "type": "event"
    },
    {
      "inputs": [],
      "name": "VE",
      "outputs": [
        {
          "internalType": "contract IVE",
          "name": "",
          "type": "address"
        }
      ],
      "stateMutability": "view",
      "type": "function"
    },
    {
      "inputs": [],
      "name": "WETH",
      "outputs": [
        {
          "internalType": "address",
          "name": "",
          "type": "address"
        }
      ],
      "stateMutability": "view",
      "type": "function"
    },
    {
      "inputs": [],
      "name": "beneficiary",
      "outputs": [
        {
          "internalType": "address",
          "name": "",
          "type": "address"
        }
      ],
      "stateMutability": "view",
      "type": "function"
    },
    {
      "inputs": [
        {
          "internalType": "uint256",
          "name": "ethInput",
          "type": "uint256"
        }
      ],
      "name": "calculateToSplit",
      "outputs": [
        {
          "internalType": "uint256",
          "name": "ethToDex",
          "type": "uint256"
        },
        {
          "internalType": "uint256",
          "name": "ethToSale",
          "type": "uint256"
        }
      ],
      "stateMutability": "view",
      "type": "function"
    },
    {
      "inputs": [
        {
          "internalType": "uint256",
          "name": "_lockTime",
          "type": "uint256"
        },
        {
          "internalType": "uint256",
          "name": "_minReturn",
          "type": "uint256"
        }
      ],
      "name": "convert",
      "outputs": [],
      "stateMutability": "payable",
      "type": "function"
    },
    {
      "inputs": [
        {
          "internalType": "address",
          "name": "receiver",
          "type": "address"
        },
        {
          "internalType": "uint256",
          "name": "_lockTime",
          "type": "uint256"
        },
        {
          "internalType": "uint256",
          "name": "_minReturn",
          "type": "uint256"
        }
      ],
      "name": "convertFor",
      "outputs": [],
      "stateMutability": "payable",
      "type": "function"
    },
    {
      "inputs": [],
      "name": "dexRouter",
      "outputs": [
        {
          "internalType": "address",
          "name": "",
          "type": "address"
        }
      ],
      "stateMutability": "view",
      "type": "function"
    },
    {
      "inputs": [],
      "name": "formula",
      "outputs": [
        {
          "internalType": "contract IFetchFormula",
          "name": "",
          "type": "address"
        }
      ],
      "stateMutability": "view",
      "type": "function"
    },
    {
      "inputs": [
        {
          "internalType": "uint256",
          "name": "_ethAmount",
          "type": "uint256"
        }
      ],
      "name": "getTokenPrice",
      "outputs": [
        {
          "internalType": "uint256",
          "name": "",
          "type": "uint256"
        }
      ],
      "stateMutability": "view",
      "type": "function"
    },
    {
      "inputs": [],
      "name": "minLockTime",
      "outputs": [
        {
          "internalType": "uint256",
          "name": "",
          "type": "uint256"
        }
      ],
      "stateMutability": "view",
      "type": "function"
    },
    {
      "inputs": [],
      "name": "minter",
      "outputs": [
        {
          "internalType": "contract IMinter",
          "name": "",
          "type": "address"
        }
      ],
      "stateMutability": "view",
      "type": "function"
    },
    {
      "inputs": [],
      "name": "owner",
      "outputs": [
        {
          "internalType": "address",
          "name": "",
          "type": "address"
        }
      ],
      "stateMutability": "view",
      "type": "function"
    },
    {
      "inputs": [],
      "name": "percentBenificiaryFromSale",
      "outputs": [
        {
          "internalType": "uint256",
          "name": "",
          "type": "uint256"
        }
      ],
      "stateMutability": "view",
      "type": "function"
    },
    {
      "inputs": [],
      "name": "percentLDFromSale",
      "outputs": [
        {
          "internalType": "uint256",
          "name": "",
          "type": "uint256"
        }
      ],
      "stateMutability": "view",
      "type": "function"
    },
    {
      "inputs": [],
      "name": "percentSendNow",
      "outputs": [
        {
          "internalType": "uint256",
          "name": "",
          "type": "uint256"
        }
      ],
      "stateMutability": "view",
      "type": "function"
    },
    {
      "inputs": [],
      "name": "percentToDex",
      "outputs": [
        {
          "internalType": "uint256",
          "name": "",
          "type": "uint256"
        }
      ],
      "stateMutability": "view",
      "type": "function"
    },
    {
      "inputs": [],
      "name": "percentToSale",
      "outputs": [
        {
          "internalType": "uint256",
          "name": "",
          "type": "uint256"
        }
      ],
      "stateMutability": "view",
      "type": "function"
    },
    {
      "inputs": [],
      "name": "renounceOwnership",
      "outputs": [],
      "stateMutability": "nonpayable",
      "type": "function"
    },
    {
      "inputs": [],
      "name": "token",
      "outputs": [
        {
          "internalType": "address",
          "name": "",
          "type": "address"
        }
      ],
      "stateMutability": "view",
      "type": "function"
    },
    {
      "inputs": [
        {
          "internalType": "address",
          "name": "newOwner",
          "type": "address"
        }
      ],
      "name": "transferOwnership",
      "outputs": [],
      "stateMutability": "nonpayable",
      "type": "function"
    },
    {
      "inputs": [],
      "name": "treasury",
      "outputs": [
        {
          "internalType": "address",
          "name": "",
          "type": "address"
        }
      ],
      "stateMutability": "view",
      "type": "function"
    },
    {
      "inputs": [
        {
          "internalType": "address",
          "name": "_formula",
          "type": "address"
        }
      ],
      "name": "updateFormula",
      "outputs": [],
      "stateMutability": "nonpayable",
      "type": "function"
    },
    {
      "inputs": [
        {
          "internalType": "uint256",
          "name": "_minLockTime",
          "type": "uint256"
        }
      ],
      "name": "updateMinLockTime",
      "outputs": [],
      "stateMutability": "nonpayable",
      "type": "function"
    },
    {
      "inputs": [
        {
          "internalType": "address",
          "name": "_minter",
          "type": "address"
        }
      ],
      "name": "updateMinter",
      "outputs": [],
      "stateMutability": "nonpayable",
      "type": "function"
    },
    {
      "inputs": [
        {
          "internalType": "uint256",
          "name": "_percentSendNow",
          "type": "uint256"
        }
      ],
      "name": "updatePercentSendNow",
      "outputs": [],
      "stateMutability": "nonpayable",
      "type": "function"
    },
    {
      "inputs": [
        {
          "internalType": "uint256",
          "name": "_percentBenificiaryFromSale",
          "type": "uint256"
        },
        {
          "internalType": "uint256",
          "name": "_percentLDFromSale",
          "type": "uint256"
        }
      ],
      "name": "updateSaleSplitPercent",
      "outputs": [],
      "stateMutability": "nonpayable",
      "type": "function"
    },
    {
      "inputs": [
        {
          "internalType": "uint256",
          "name": "_percentToDex",
          "type": "uint256"
        },
        {
          "internalType": "uint256",
          "name": "_percentToSale",
          "type": "uint256"
        }
      ],
      "name": "updateSplitPercent",
      "outputs": [],
      "stateMutability": "nonpayable",
      "type": "function"
    },
    {
      "inputs": [],
      "name": "withdraw",
      "outputs": [],
      "stateMutability": "nonpayable",
      "type": "function"
    },
    {
      "stateMutability": "payable",
      "type": "receive"
    }
  ],
  "bytecode": "0x6080604052601e60055560466006556046600755601e6008556001600e553480156200002a57600080fd5b5060405162001b4738038062001b478339810160408190526200004d91620001cd565b620000583362000160565b600380546001600160a01b0319166001600160a01b038a1690811790915560408051637a7a2da360e11b8152905163f4f45b46916004808201926020929091908290030181865afa158015620000b2573d6000803e3d6000fd5b505050506040513d601f19601f82011682018060405250810190620000d891906200026c565b600180546001600160a01b03199081166001600160a01b03938416179091556004805482169983169990991790985560098054891697821697909717909655600a805488169587169590951790945560028054871693861693909317909255600b80548616918516919091179055600c8054909416921691909117909155600d555062000291565b600080546001600160a01b038381166001600160a01b0319831681178455604051919092169283917f8be0079c531659141344cd1fd0a4f28419497f9722a3daafe3b4186f6b6457e09190a35050565b80516001600160a01b0381168114620001c857600080fd5b919050565b600080600080600080600080610100898b031215620001eb57600080fd5b620001f689620001b0565b97506200020660208a01620001b0565b96506200021660408a01620001b0565b95506200022660608a01620001b0565b94506200023660808a01620001b0565b93506200024660a08a01620001b0565b92506200025660c08a01620001b0565b915060e089015190509295985092959890939650565b6000602082840312156200027f57600080fd5b6200028a82620001b0565b9392505050565b6118a680620002a16000396000f3fe6080604052600436106101bb5760003560e01c806395aa0072116100ec578063c863657d1161008a578063dfa5372411610064578063dfa53724146104af578063f2fde38b146104c5578063fbde9a9f146104e5578063fc0c546a146104fb57600080fd5b8063c863657d14610459578063d5b49a7114610479578063dd91868f1461049957600080fd5b8063ad5c4648116100c6578063ad5c4648146103d9578063bf793939146103f9578063c457fb3714610419578063c757e5b51461043957600080fd5b806395aa00721461039057806396e4ee3d146103b0578063a60ff766146103c357600080fd5b80634eb03f6e1161015957806361d027b31161013357806361d027b31461031d578063715018a61461033d57806378b30ecc146103525780638da5cb5b1461037257600080fd5b80634eb03f6e146102d45780634f783ed0146102f457806356b3620d1461030a57600080fd5b806338af3eed1161019557806338af3eed146102485780633a5b08e7146102685780633ccfd60b1461029d5780634b75f54f146102b457600080fd5b806307546172146101c75780630758d9241461020457806323019e711461022457600080fd5b366101c257005b600080fd5b3480156101d357600080fd5b50600a546101e7906001600160a01b031681565b6040516001600160a01b0390911681526020015b60405180910390f35b34801561021057600080fd5b506003546101e7906001600160a01b031681565b34801561023057600080fd5b5061023a60075481565b6040519081526020016101fb565b34801561025457600080fd5b506009546101e7906001600160a01b031681565b34801561027457600080fd5b506102886102833660046114b3565b61051b565b604080519283526020830191909152016101fb565b3480156102a957600080fd5b506102b2610531565b005b3480156102c057600080fd5b50600c546101e7906001600160a01b031681565b3480156102e057600080fd5b506102b26102ef3660046114e8565b6105a1565b34801561030057600080fd5b5061023a60065481565b6102b2610318366004611503565b6105ed565b34801561032957600080fd5b50600b546101e7906001600160a01b031681565b34801561034957600080fd5b506102b26105fd565b34801561035e57600080fd5b506102b261036d3660046114b3565b610633565b34801561037e57600080fd5b506000546001600160a01b03166101e7565b34801561039c57600080fd5b506102b26103ab366004611536565b6106a6565b6102b26103be366004611536565b610728565b3480156103cf57600080fd5b5061023a600d5481565b3480156103e557600080fd5b506001546101e7906001600160a01b031681565b34801561040557600080fd5b506102b26104143660046114b3565b610737565b34801561042557600080fd5b5061023a6104343660046114b3565b610766565b34801561044557600080fd5b506102b2610454366004611536565b6108ea565b34801561046557600080fd5b506002546101e7906001600160a01b031681565b34801561048557600080fd5b506102b26104943660046114e8565b61096c565b3480156104a557600080fd5b5061023a60085481565b3480156104bb57600080fd5b5061023a60055481565b3480156104d157600080fd5b506102b26104e03660046114e8565b6109b8565b3480156104f157600080fd5b5061023a600e5481565b34801561050757600080fd5b506004546101e7906001600160a01b031681565b60008061052783610a50565b9094909350915050565b6000546001600160a01b031633146105645760405162461bcd60e51b815260040161055b90611558565b60405180910390fd5b600080546040516001600160a01b03909116914780156108fc02929091818181858888f1935050505015801561059e573d6000803e3d6000fd5b50565b6000546001600160a01b031633146105cb5760405162461bcd60e51b815260040161055b90611558565b600a80546001600160a01b0319166001600160a01b0392909216919091179055565b6105f8838383610a8f565b505050565b6000546001600160a01b031633146106275760405162461bcd60e51b815260040161055b90611558565b6106316000610ead565b565b6000546001600160a01b0316331461065d5760405162461bcd60e51b815260040161055b90611558565b60648111156106a15760405162461bcd60e51b815260206004820152601060248201526f50657263656e74206f766572666c6f7760801b604482015260640161055b565b600e55565b6000546001600160a01b031633146106d05760405162461bcd60e51b815260040161055b90611558565b60006106dc82846115a3565b90508060641461071c5760405162461bcd60e51b815260206004820152600b60248201526a15dc9bdb99c81d1bdd185b60aa1b604482015260640161055b565b50600891909155600755565b610733338383610a8f565b5050565b6000546001600160a01b031633146107615760405162461bcd60e51b815260040161055b90611558565b600d55565b604080516001808252818301909252600091829190816020015b604080516060810182526000808252602080830182905292820152825260001990920191018161078057505060015481519192506001600160a01b03169082906000906107cf576107cf6115d1565b60209081029190910101516001600160a01b03918216905260045482519116908290600090610800576108006115d1565b6020026020010151602001906001600160a01b031690816001600160a01b031681525050600081600081518110610839576108396115d1565b602090810291909101015190151560409182015260035490516326207f2d60e21b81526000916001600160a01b031690639881fcb49061087f9087908690600401611646565b600060405180830381865afa15801561089c573d6000803e3d6000fd5b505050506040513d6000823e601f3d908101601f191682016040526108c49190810190611667565b9050806001815181106108d9576108d96115d1565b602002602001015192505050919050565b6000546001600160a01b031633146109145760405162461bcd60e51b815260040161055b90611558565b600061092082846115a3565b9050806064146109605760405162461bcd60e51b815260206004820152600b60248201526a15dc9bdb99c81d1bdd185b60aa1b604482015260640161055b565b50600591909155600655565b6000546001600160a01b031633146109965760405162461bcd60e51b815260040161055b90611558565b600c80546001600160a01b0319166001600160a01b0392909216919091179055565b6000546001600160a01b031633146109e25760405162461bcd60e51b815260040161055b90611558565b6001600160a01b038116610a475760405162461bcd60e51b815260206004820152602660248201527f4f776e61626c653a206e6577206f776e657220697320746865207a65726f206160448201526564647265737360d01b606482015260840161055b565b61059e81610ead565b600080610a73600554610a6d606486610efd90919063ffffffff16565b90610f48565b600654909250610a8890610a6d856064610efd565b9050915091565b600d54821015610ad15760405162461bcd60e51b815260206004820152600d60248201526c6d696e206c6f636b2074696d6560981b604482015260640161055b565b60003411610b0d5760405162461bcd60e51b81526020600482015260096024820152680f4cae4e4de40cae8d60bb1b604482015260640161055b565b610b1634610fc7565b600c5460405163faf1ebfd60e01b8152600481018490526000916001600160a01b03169063faf1ebfd90602401602060405180830381865afa158015610b60573d6000803e3d6000fd5b505050506040513d601f19601f82011682018060405250810190610b849190611725565b90508015610c0c576000610b9734610766565b90506000610baa83610a6d846064610efd565b600a54604051632279773760e11b8152600481018390529192506001600160a01b0316906344f2ee6e90602401600060405180830381600087803b158015610bf157600080fd5b505af1158015610c05573d6000803e3d6000fd5b5050505050505b600480546040516370a0823160e01b815230928101929092526000916001600160a01b03909116906370a0823190602401602060405180830381865afa158015610c5a573d6000803e3d6000fd5b505050506040513d601f19601f82011682018060405250810190610c7e9190611725565b905080838111610cc35760405162461bcd60e51b815260206004820152601060248201526f36b4b7103932ba3ab9371032b93937b960811b604482015260640161055b565b600e5415610d6a57600e54600090610ce090610a6d846064610efd565b6004805460405163a9059cbb60e01b81526001600160a01b038b81169382019390935260248101849052929350169063a9059cbb906044016020604051808303816000875af1158015610d37573d6000803e3d6000fd5b505050506040513d601f19601f82011682018060405250810190610d5b919061173e565b50610d66828261100a565b9150505b6004805460025460405163095ea7b360e01b81526001600160a01b039182169381019390935260248301849052169063095ea7b3906044016020604051808303816000875af1158015610dc1573d6000803e3d6000fd5b505050506040513d601f19601f82011682018060405250810190610de5919061173e565b5060025460405163d4e54c3b60e01b815260048101839052602481018790526001600160a01b0388811660448301529091169063d4e54c3b90606401600060405180830381600087803b158015610e3b57600080fd5b505af1158015610e4f573d6000803e3d6000fd5b5050604080518881526020810188905234818301526060810186905290516001600160a01b038a1693507f9564a2aee1a097a64df15cad05754d38aa702c19c3ddeb730d492a686abc01ed92509081900360800190a2505050505050565b600080546001600160a01b038381166001600160a01b0319831681178455604051919092169283917f8be0079c531659141344cd1fd0a4f28419497f9722a3daafe3b4186f6b6457e09190a35050565b6000610f3f83836040518060400160405280601a81526020017f536166654d6174683a206469766973696f6e206279207a65726f00000000000081525061104c565b90505b92915050565b600082610f5757506000610f42565b6000610f638385611760565b905082610f70858361177f565b14610f3f5760405162461bcd60e51b815260206004820152602160248201527f536166654d6174683a206d756c7469706c69636174696f6e206f766572666c6f6044820152607760f81b606482015260840161055b565b600080610fd38361051b565b90925090508115610ffb57600354600454610ffb916001600160a01b03908116911684611083565b80156105f8576105f8816111fb565b6000610f3f83836040518060400160405280601e81526020017f536166654d6174683a207375627472616374696f6e206f766572666c6f7700008152506112ce565b6000818361106d5760405162461bcd60e51b815260040161055b91906117a1565b50600061107a848661177f565b95945050505050565b604080516001808252818301909252600091816020015b604080516060810182526000808252602080830182905292820152825260001990920191018161109a57505060015481519192506001600160a01b03169082906000906110e9576110e96115d1565b6020026020010151600001906001600160a01b031690816001600160a01b0316815250508281600081518110611121576111216115d1565b6020026020010151602001906001600160a01b031690816001600160a01b03168152505060008160008151811061115a5761115a6115d1565b60209081029190910101519015156040909101526001600160a01b03841663e8ef4681836001843061118e426107086115a3565b6040518663ffffffff1660e01b81526004016111ad94939291906117f6565b60006040518083038185885af11580156111cb573d6000803e3d6000fd5b50505050506040513d6000823e601f3d908101601f191682016040526111f49190810190611667565b5050505050565b600061120682610766565b600a54604051632279773760e11b8152600481018390529192506001600160a01b0316906344f2ee6e90602401600060405180830381600087803b15801561124d57600080fd5b505af1158015611261573d6000803e3d6000fd5b50506009546008546001600160a01b0390911692506108fc915061128a90610a6d866064610efd565b6040518115909202916000818181858888f193505050501580156112b2573d6000803e3d6000fd5b50600754610733906112c990610a6d856064610efd565b6112ff565b600081848411156112f25760405162461bcd60e51b815260040161055b91906117a1565b50600061107a848661182b565b600061130a82610766565b600a54604051632279773760e11b8152600481018390529192506001600160a01b0316906344f2ee6e90602401600060405180830381600087803b15801561135157600080fd5b505af1158015611365573d6000803e3d6000fd5b50506004805460035460405163095ea7b360e01b81526001600160a01b03918216938101939093526024830186905216925063095ea7b391506044016020604051808303816000875af11580156113c0573d6000803e3d6000fd5b505050506040513d601f19601f820116820180604052508101906113e4919061173e565b50600354600454600b546001600160a01b039283169263578caf32928692908216916000918791839182911661141c426103846115a3565b60405160e08a901b6001600160e01b03191681526001600160a01b039788166004820152951515602487015260448601949094526064850192909252608484015290921660a482015260c481019190915260e40160606040518083038185885af115801561148e573d6000803e3d6000fd5b50505050506040513d601f19601f820116820180604052508101906111f49190611842565b6000602082840312156114c557600080fd5b5035919050565b80356001600160a01b03811681146114e357600080fd5b919050565b6000602082840312156114fa57600080fd5b610f3f826114cc565b60008060006060848603121561151857600080fd5b611521846114cc565b95602085013595506040909401359392505050565b6000806040838503121561154957600080fd5b50508035926020909101359150565b6020808252818101527f4f776e61626c653a2063616c6c6572206973206e6f7420746865206f776e6572604082015260600190565b634e487b7160e01b600052601160045260246000fd5b600082198211156115b6576115b661158d565b500190565b634e487b7160e01b600052604160045260246000fd5b634e487b7160e01b600052603260045260246000fd5b600081518084526020808501945080840160005b8381101561163b57815180516001600160a01b039081168952848201511684890152604090810151151590880152606090960195908201906001016115fb565b509495945050505050565b82815260406020820152600061165f60408301846115e7565b949350505050565b6000602080838503121561167a57600080fd5b825167ffffffffffffffff8082111561169257600080fd5b818501915085601f8301126116a657600080fd5b8151818111156116b8576116b86115bb565b8060051b604051601f19603f830116810181811085821117156116dd576116dd6115bb565b6040529182528482019250838101850191888311156116fb57600080fd5b938501935b8285101561171957845184529385019392850192611700565b98975050505050505050565b60006020828403121561173757600080fd5b5051919050565b60006020828403121561175057600080fd5b81518015158114610f3f57600080fd5b600081600019048311821515161561177a5761177a61158d565b500290565b60008261179c57634e487b7160e01b600052601260045260246000fd5b500490565b600060208083528351808285015260005b818110156117ce578581018301518582016040015282016117b2565b818111156117e0576000604083870101525b50601f01601f1916929092016040019392505050565b84815260806020820152600061180f60808301866115e7565b6001600160a01b03949094166040830152506060015292915050565b60008282101561183d5761183d61158d565b500390565b60008060006060848603121561185757600080fd5b835192506020840151915060408401519050925092509256fea264697066735822122043dded0336b8acaebd362b63e2d0ce281c66cfff20bffa4a455b7ba3249abd0a64736f6c634300080b0033",
  "linkReferences": {},
  "deployedLinkReferences": {}
}