{
  "_format": "hh-sol-artifact-1",
  "contractName": "Fetch",
  "sourceName": "contracts/Fetch.sol",
  "abi": [
    {
      "inputs": [
        {
          "internalType": "address",
          "name": "_dexRouter",
          "type": "address"
        },
        {
          "internalType": "address",
          "name": "_token",
          "type": "address"
        },
        {
          "internalType": "address",
          "name": "_beneficiary",
          "type": "address"
        },
        {
          "internalType": "address",
          "name": "_minter",
          "type": "address"
        },
        {
          "internalType": "address",
          "name": "_VE",
          "type": "address"
        },
        {
          "internalType": "address",
          "name": "_treasury",
          "type": "address"
        },
        {
          "internalType": "address",
          "name": "_formula",
          "type": "address"
        }
      ],
      "stateMutability": "nonpayable",
      "type": "constructor"
    },
    {
      "anonymous": false,
      "inputs": [
        {
          "indexed": true,
          "internalType": "address",
          "name": "previousOwner",
          "type": "address"
        },
        {
          "indexed": true,
          "internalType": "address",
          "name": "newOwner",
          "type": "address"
        }
      ],
      "name": "OwnershipTransferred",
      "type": "event"
    },
    {
      "inputs": [],
      "name": "VE",
      "outputs": [
        {
          "internalType": "contract IVE",
          "name": "",
          "type": "address"
        }
      ],
      "stateMutability": "view",
      "type": "function"
    },
    {
      "inputs": [],
      "name": "WETH",
      "outputs": [
        {
          "internalType": "address",
          "name": "",
          "type": "address"
        }
      ],
      "stateMutability": "view",
      "type": "function"
    },
    {
      "inputs": [],
      "name": "beneficiary",
      "outputs": [
        {
          "internalType": "address",
          "name": "",
          "type": "address"
        }
      ],
      "stateMutability": "view",
      "type": "function"
    },
    {
      "inputs": [
        {
          "internalType": "uint256",
          "name": "ethInput",
          "type": "uint256"
        }
      ],
      "name": "calculateToSplit",
      "outputs": [
        {
          "internalType": "uint256",
          "name": "ethToDex",
          "type": "uint256"
        },
        {
          "internalType": "uint256",
          "name": "ethToSale",
          "type": "uint256"
        }
      ],
      "stateMutability": "view",
      "type": "function"
    },
    {
      "inputs": [],
      "name": "convert",
      "outputs": [],
      "stateMutability": "payable",
      "type": "function"
    },
    {
      "inputs": [
        {
          "internalType": "address",
          "name": "receiver",
          "type": "address"
        }
      ],
      "name": "convertFor",
      "outputs": [],
      "stateMutability": "payable",
      "type": "function"
    },
    {
      "inputs": [
        {
          "internalType": "uint256",
          "name": "_amount",
          "type": "uint256"
        }
      ],
      "name": "depositToken",
      "outputs": [],
      "stateMutability": "nonpayable",
      "type": "function"
    },
    {
      "inputs": [],
      "name": "dexRouter",
      "outputs": [
        {
          "internalType": "address",
          "name": "",
          "type": "address"
        }
      ],
      "stateMutability": "view",
      "type": "function"
    },
    {
      "inputs": [],
      "name": "formula",
      "outputs": [
        {
          "internalType": "contract IFetchFormula",
          "name": "",
          "type": "address"
        }
      ],
      "stateMutability": "view",
      "type": "function"
    },
    {
      "inputs": [
        {
          "internalType": "uint256",
          "name": "_ethAmount",
          "type": "uint256"
        }
      ],
      "name": "getTokenPrice",
      "outputs": [
        {
          "internalType": "uint256",
          "name": "",
          "type": "uint256"
        }
      ],
      "stateMutability": "view",
      "type": "function"
    },
    {
      "inputs": [],
      "name": "isRewardsMintLocked",
      "outputs": [
        {
          "internalType": "bool",
          "name": "",
          "type": "bool"
        }
      ],
      "stateMutability": "view",
      "type": "function"
    },
    {
      "inputs": [],
      "name": "minter",
      "outputs": [
        {
          "internalType": "contract IMinter",
          "name": "",
          "type": "address"
        }
      ],
      "stateMutability": "view",
      "type": "function"
    },
    {
      "inputs": [],
      "name": "owner",
      "outputs": [
        {
          "internalType": "address",
          "name": "",
          "type": "address"
        }
      ],
      "stateMutability": "view",
      "type": "function"
    },
    {
      "inputs": [],
      "name": "percentToDex",
      "outputs": [
        {
          "internalType": "uint256",
          "name": "",
          "type": "uint256"
        }
      ],
      "stateMutability": "view",
      "type": "function"
    },
    {
      "inputs": [],
      "name": "percentToSale",
      "outputs": [
        {
          "internalType": "uint256",
          "name": "",
          "type": "uint256"
        }
      ],
      "stateMutability": "view",
      "type": "function"
    },
    {
      "inputs": [],
      "name": "renounceOwnership",
      "outputs": [],
      "stateMutability": "nonpayable",
      "type": "function"
    },
    {
      "inputs": [],
      "name": "stopMintRewards",
      "outputs": [],
      "stateMutability": "nonpayable",
      "type": "function"
    },
    {
      "inputs": [],
      "name": "token",
      "outputs": [
        {
          "internalType": "address",
          "name": "",
          "type": "address"
        }
      ],
      "stateMutability": "view",
      "type": "function"
    },
    {
      "inputs": [
        {
          "internalType": "address",
          "name": "newOwner",
          "type": "address"
        }
      ],
      "name": "transferOwnership",
      "outputs": [],
      "stateMutability": "nonpayable",
      "type": "function"
    },
    {
      "inputs": [],
      "name": "treasury",
      "outputs": [
        {
          "internalType": "address",
          "name": "",
          "type": "address"
        }
      ],
      "stateMutability": "view",
      "type": "function"
    },
    {
      "inputs": [
        {
          "internalType": "uint256",
          "name": "_percentToDex",
          "type": "uint256"
        },
        {
          "internalType": "uint256",
          "name": "_percentToSale",
          "type": "uint256"
        }
      ],
      "name": "updateSplitPercent",
      "outputs": [],
      "stateMutability": "nonpayable",
      "type": "function"
    },
    {
      "inputs": [],
      "name": "withdraw",
      "outputs": [],
      "stateMutability": "nonpayable",
      "type": "function"
    },
    {
      "stateMutability": "payable",
      "type": "receive"
    }
  ],
  "bytecode": "0x6080604052603260058190556006556009805460ff60a01b191690553480156200002857600080fd5b5060405162001935380380620019358339810160408190526200004b91620001c4565b620000563362000157565b600380546001600160a01b0319166001600160a01b03891690811790915560408051637a7a2da360e11b8152905163f4f45b46916004808201926020929091908290030181865afa158015620000b0573d6000803e3d6000fd5b505050506040513d601f19601f82011682018060405250810190620000d6919062000259565b600180546001600160a01b03199081166001600160a01b039384161790915560048054821698831698909817909755600780548816968216969096179095556008805487169486169490941790935560028054861692851692909217909155600980548516918416919091179055600a80549093169116179055506200027e565b600080546001600160a01b038381166001600160a01b0319831681178455604051919092169283917f8be0079c531659141344cd1fd0a4f28419497f9722a3daafe3b4186f6b6457e09190a35050565b80516001600160a01b0381168114620001bf57600080fd5b919050565b600080600080600080600060e0888a031215620001e057600080fd5b620001eb88620001a7565b9650620001fb60208901620001a7565b95506200020b60408901620001a7565b94506200021b60608901620001a7565b93506200022b60808901620001a7565b92506200023b60a08901620001a7565b91506200024b60c08901620001a7565b905092959891949750929550565b6000602082840312156200026c57600080fd5b6200027782620001a7565b9392505050565b6116a7806200028e6000396000f3fe6080604052600436106101395760003560e01c80638da5cb5b116100ab578063c457fb371161006f578063c457fb3714610346578063c757e5b514610366578063c863657d14610386578063dfa53724146103a6578063f2fde38b146103bc578063fc0c546a146103dc57600080fd5b80638da5cb5b146102d857806391bbdcc7146102f6578063ad5c4648146102fe578063b42568c81461031e578063c02c36c21461033357600080fd5b80633ccfd60b116100fd5780633ccfd60b146102285780634b75f54f1461023f5780634f783ed01461025f57806361d027b3146102835780636215be77146102a3578063715018a6146102c357600080fd5b806307546172146101455780630758d9241461018257806315ba0e16146101a257806338af3eed146101d35780633a5b08e7146101f357600080fd5b3661014057005b600080fd5b34801561015157600080fd5b50600854610165906001600160a01b031681565b6040516001600160a01b0390911681526020015b60405180910390f35b34801561018e57600080fd5b50600354610165906001600160a01b031681565b3480156101ae57600080fd5b506009546101c390600160a01b900460ff1681565b6040519015158152602001610179565b3480156101df57600080fd5b50600754610165906001600160a01b031681565b3480156101ff57600080fd5b5061021361020e36600461130c565b6103fc565b60408051928352602083019190915201610179565b34801561023457600080fd5b5061023d610412565b005b34801561024b57600080fd5b50600a54610165906001600160a01b031681565b34801561026b57600080fd5b5061027560065481565b604051908152602001610179565b34801561028f57600080fd5b50600954610165906001600160a01b031681565b3480156102af57600080fd5b5061023d6102be36600461130c565b610482565b3480156102cf57600080fd5b5061023d6106ed565b3480156102e457600080fd5b506000546001600160a01b0316610165565b61023d610723565b34801561030a57600080fd5b50600154610165906001600160a01b031681565b34801561032a57600080fd5b5061023d61072c565b61023d610341366004611325565b61076b565b34801561035257600080fd5b5061027561036136600461130c565b610774565b34801561037257600080fd5b5061023d61038136600461134e565b6108f8565b34801561039257600080fd5b50600254610165906001600160a01b031681565b3480156103b257600080fd5b5061027560055481565b3480156103c857600080fd5b5061023d6103d7366004611325565b61097a565b3480156103e857600080fd5b50600454610165906001600160a01b031681565b60008061040883610a12565b9094909350915050565b6000546001600160a01b031633146104455760405162461bcd60e51b815260040161043c90611370565b60405180910390fd5b600080546040516001600160a01b03909116914780156108fc02929091818181858888f1935050505015801561047f573d6000803e3d6000fd5b50565b600480546040516323b872dd60e01b81523392810192909252306024830152604482018390526001600160a01b0316906323b872dd906064016020604051808303816000875af11580156104da573d6000803e3d6000fd5b505050506040513d601f19601f820116820180604052508101906104fe91906113a5565b50600a546040805163becf3add60e01b815290516000926001600160a01b03169163becf3add9160048083019260209291908290030181865afa158015610549573d6000803e3d6000fd5b505050506040513d601f19601f8201168201806040525081019061056d91906113c7565b9050600081156105ec5761058c82610586856064610a4b565b90610a96565b600854604051632279773760e11b8152600481018390529192506001600160a01b0316906344f2ee6e90602401600060405180830381600087803b1580156105d357600080fd5b505af11580156105e7573d6000803e3d6000fd5b505050505b60006105f88483610b15565b6004805460025460405163095ea7b360e01b81526001600160a01b039182169381019390935260248301849052929350919091169063095ea7b3906044016020604051808303816000875af1158015610655573d6000803e3d6000fd5b505050506040513d601f19601f8201168201806040525081019061067991906113a5565b5060025460405163d4e54c3b60e01b8152600481018390526293a80060248201523360448201526001600160a01b039091169063d4e54c3b90606401600060405180830381600087803b1580156106cf57600080fd5b505af11580156106e3573d6000803e3d6000fd5b5050505050505050565b6000546001600160a01b031633146107175760405162461bcd60e51b815260040161043c90611370565b6107216000610b74565b565b61072133610bc4565b6000546001600160a01b031633146107565760405162461bcd60e51b815260040161043c90611370565b6009805460ff60a01b1916600160a01b179055565b61047f81610bc4565b604080516001808252818301909252600091829190816020015b604080516060810182526000808252602080830182905292820152825260001990920191018161078e57505060015481519192506001600160a01b03169082906000906107dd576107dd6113f6565b60209081029190910101516001600160a01b0391821690526004548251911690829060009061080e5761080e6113f6565b6020026020010151602001906001600160a01b031690816001600160a01b031681525050600081600081518110610847576108476113f6565b602090810291909101015190151560409182015260035490516326207f2d60e21b81526000916001600160a01b031690639881fcb49061088d908790869060040161146b565b600060405180830381865afa1580156108aa573d6000803e3d6000fd5b505050506040513d6000823e601f3d908101601f191682016040526108d2919081019061148c565b9050806001815181106108e7576108e76113f6565b602002602001015192505050919050565b6000546001600160a01b031633146109225760405162461bcd60e51b815260040161043c90611370565b600061092e8284611560565b90508060641461096e5760405162461bcd60e51b815260206004820152600b60248201526a15dc9bdb99c81d1bdd185b60aa1b604482015260640161043c565b50600591909155600655565b6000546001600160a01b031633146109a45760405162461bcd60e51b815260040161043c90611370565b6001600160a01b038116610a095760405162461bcd60e51b815260206004820152602660248201527f4f776e61626c653a206e6577206f776e657220697320746865207a65726f206160448201526564647265737360d01b606482015260840161043c565b61047f81610b74565b600080610a2f600554610586606486610a4b90919063ffffffff16565b600654909250610a4490610586856064610a4b565b9050915091565b6000610a8d83836040518060400160405280601a81526020017f536166654d6174683a206469766973696f6e206279207a65726f000000000000815250610ea1565b90505b92915050565b600082610aa557506000610a90565b6000610ab18385611578565b905082610abe8583611597565b14610a8d5760405162461bcd60e51b815260206004820152602160248201527f536166654d6174683a206d756c7469706c69636174696f6e206f766572666c6f6044820152607760f81b606482015260840161043c565b600080610b228385611560565b905083811015610a8d5760405162461bcd60e51b815260206004820152601b60248201527f536166654d6174683a206164646974696f6e206f766572666c6f770000000000604482015260640161043c565b600080546001600160a01b038381166001600160a01b0319831681178455604051919092169283917f8be0079c531659141344cd1fd0a4f28419497f9722a3daafe3b4186f6b6457e09190a35050565b60003411610c005760405162461bcd60e51b81526020600482015260096024820152680f4cae4e4de40cae8d60bb1b604482015260640161043c565b610c0934610ed8565b600a546040805163becf3add60e01b815290516000926001600160a01b03169163becf3add9160048083019260209291908290030181865afa158015610c53573d6000803e3d6000fd5b505050506040513d601f19601f82011682018060405250810190610c7791906113c7565b90508015610cff576000610c8a34610774565b90506000610c9d83610586846064610a4b565b600854604051632279773760e11b8152600481018390529192506001600160a01b0316906344f2ee6e90602401600060405180830381600087803b158015610ce457600080fd5b505af1158015610cf8573d6000803e3d6000fd5b5050505050505b600480546040516370a0823160e01b815230928101929092526000916001600160a01b03909116906370a0823190602401602060405180830381865afa158015610d4d573d6000803e3d6000fd5b505050506040513d601f19601f82011682018060405250810190610d7191906113c7565b905060008111610db15760405162461bcd60e51b815260206004820152600b60248201526a1b9bdd081cddd85c1c195960aa1b604482015260640161043c565b6004805460025460405163095ea7b360e01b81526001600160a01b039182169381019390935260248301849052169063095ea7b3906044016020604051808303816000875af1158015610e08573d6000803e3d6000fd5b505050506040513d601f19601f82011682018060405250810190610e2c91906113a5565b5060025460405163d4e54c3b60e01b8152600481018390526293a80060248201526001600160a01b0385811660448301529091169063d4e54c3b90606401600060405180830381600087803b158015610e8457600080fd5b505af1158015610e98573d6000803e3d6000fd5b50505050505050565b60008183610ec25760405162461bcd60e51b815260040161043c91906115b9565b506000610ecf8486611597565b95945050505050565b600080610ee4836103fc565b90925090508115610f0c57600354600454610f0c916001600160a01b03908116911684610f20565b8015610f1b57610f1b81611098565b505050565b604080516001808252818301909252600091816020015b6040805160608101825260008082526020808301829052928201528252600019909201910181610f3757505060015481519192506001600160a01b0316908290600090610f8657610f866113f6565b6020026020010151600001906001600160a01b031690816001600160a01b0316815250508281600081518110610fbe57610fbe6113f6565b6020026020010151602001906001600160a01b031690816001600160a01b031681525050600081600081518110610ff757610ff76113f6565b60209081029190910101519015156040909101526001600160a01b03841663e8ef4681836001843061102b42610708611560565b6040518663ffffffff1660e01b815260040161104a949392919061160e565b60006040518083038185885af1158015611068573d6000803e3d6000fd5b50505050506040513d6000823e601f3d908101601f19168201604052611091919081019061148c565b5050505050565b60006110a382610774565b600854604051632279773760e11b8152600481018390529192506001600160a01b0316906344f2ee6e90602401600060405180830381600087803b1580156110ea57600080fd5b505af11580156110fe573d6000803e3d6000fd5b505050506000611118600284610a4b90919063ffffffff16565b6007546040519192506001600160a01b03169082156108fc029083906000818181858888f19350505050158015611153573d6000803e3d6000fd5b50610f1b81600061116382610774565b600854604051632279773760e11b8152600481018390529192506001600160a01b0316906344f2ee6e90602401600060405180830381600087803b1580156111aa57600080fd5b505af11580156111be573d6000803e3d6000fd5b50506004805460035460405163095ea7b360e01b81526001600160a01b03918216938101939093526024830186905216925063095ea7b391506044016020604051808303816000875af1158015611219573d6000803e3d6000fd5b505050506040513d601f19601f8201168201806040525081019061123d91906113a5565b506003546004546009546001600160a01b039283169263578caf32928692908216916000918791839182911661127542610384611560565b60405160e08a901b6001600160e01b03191681526001600160a01b039788166004820152951515602487015260448601949094526064850192909252608484015290921660a482015260c481019190915260e40160606040518083038185885af11580156112e7573d6000803e3d6000fd5b50505050506040513d601f19601f820116820180604052508101906110919190611643565b60006020828403121561131e57600080fd5b5035919050565b60006020828403121561133757600080fd5b81356001600160a01b0381168114610a8d57600080fd5b6000806040838503121561136157600080fd5b50508035926020909101359150565b6020808252818101527f4f776e61626c653a2063616c6c6572206973206e6f7420746865206f776e6572604082015260600190565b6000602082840312156113b757600080fd5b81518015158114610a8d57600080fd5b6000602082840312156113d957600080fd5b5051919050565b634e487b7160e01b600052604160045260246000fd5b634e487b7160e01b600052603260045260246000fd5b600081518084526020808501945080840160005b8381101561146057815180516001600160a01b03908116895284820151168489015260409081015115159088015260609096019590820190600101611420565b509495945050505050565b828152604060208201526000611484604083018461140c565b949350505050565b6000602080838503121561149f57600080fd5b825167ffffffffffffffff808211156114b757600080fd5b818501915085601f8301126114cb57600080fd5b8151818111156114dd576114dd6113e0565b8060051b604051601f19603f83011681018181108582111715611502576115026113e0565b60405291825284820192508381018501918883111561152057600080fd5b938501935b8285101561153e57845184529385019392850192611525565b98975050505050505050565b634e487b7160e01b600052601160045260246000fd5b600082198211156115735761157361154a565b500190565b60008160001904831182151516156115925761159261154a565b500290565b6000826115b457634e487b7160e01b600052601260045260246000fd5b500490565b600060208083528351808285015260005b818110156115e6578581018301518582016040015282016115ca565b818111156115f8576000604083870101525b50601f01601f1916929092016040019392505050565b848152608060208201526000611627608083018661140c565b6001600160a01b03949094166040830152506060015292915050565b60008060006060848603121561165857600080fd5b835192506020840151915060408401519050925092509256fea2646970667358221220c79dc6a03b3dd41ff61b6b90dbacd006d9bf522b6c55eaaa40101d992c8c8d7e64736f6c634300080b0033",
  "linkReferences": {},
  "deployedLinkReferences": {}
}