{
  "_format": "hh-sol-artifact-1",
  "contractName": "Fetch",
  "sourceName": "contracts/Fetch.sol",
  "abi": [
    {
      "inputs": [
        {
          "internalType": "address",
          "name": "_dexRouter",
          "type": "address"
        },
        {
          "internalType": "address",
          "name": "_token",
          "type": "address"
        },
        {
          "internalType": "address",
          "name": "_beneficiary",
          "type": "address"
        },
        {
          "internalType": "address",
          "name": "_minter",
          "type": "address"
        },
        {
          "internalType": "address",
          "name": "_VE",
          "type": "address"
        },
        {
          "internalType": "address",
          "name": "_treasury",
          "type": "address"
        },
        {
          "internalType": "address",
          "name": "_formula",
          "type": "address"
        },
        {
          "internalType": "uint256",
          "name": "_minLockTime",
          "type": "uint256"
        }
      ],
      "stateMutability": "nonpayable",
      "type": "constructor"
    },
    {
      "anonymous": false,
      "inputs": [
        {
          "indexed": true,
          "internalType": "address",
          "name": "previousOwner",
          "type": "address"
        },
        {
          "indexed": true,
          "internalType": "address",
          "name": "newOwner",
          "type": "address"
        }
      ],
      "name": "OwnershipTransferred",
      "type": "event"
    },
    {
      "inputs": [],
      "name": "VE",
      "outputs": [
        {
          "internalType": "contract IVE",
          "name": "",
          "type": "address"
        }
      ],
      "stateMutability": "view",
      "type": "function"
    },
    {
      "inputs": [],
      "name": "WETH",
      "outputs": [
        {
          "internalType": "address",
          "name": "",
          "type": "address"
        }
      ],
      "stateMutability": "view",
      "type": "function"
    },
    {
      "inputs": [],
      "name": "beneficiary",
      "outputs": [
        {
          "internalType": "address",
          "name": "",
          "type": "address"
        }
      ],
      "stateMutability": "view",
      "type": "function"
    },
    {
      "inputs": [
        {
          "internalType": "uint256",
          "name": "ethInput",
          "type": "uint256"
        }
      ],
      "name": "calculateToSplit",
      "outputs": [
        {
          "internalType": "uint256",
          "name": "ethToDex",
          "type": "uint256"
        },
        {
          "internalType": "uint256",
          "name": "ethToSale",
          "type": "uint256"
        }
      ],
      "stateMutability": "view",
      "type": "function"
    },
    {
      "inputs": [
        {
          "internalType": "uint256",
          "name": "_lockTime",
          "type": "uint256"
        },
        {
          "internalType": "uint256",
          "name": "_minReturn",
          "type": "uint256"
        }
      ],
      "name": "convert",
      "outputs": [],
      "stateMutability": "payable",
      "type": "function"
    },
    {
      "inputs": [
        {
          "internalType": "address",
          "name": "receiver",
          "type": "address"
        },
        {
          "internalType": "uint256",
          "name": "_lockTime",
          "type": "uint256"
        },
        {
          "internalType": "uint256",
          "name": "_minReturn",
          "type": "uint256"
        }
      ],
      "name": "convertFor",
      "outputs": [],
      "stateMutability": "payable",
      "type": "function"
    },
    {
      "inputs": [],
      "name": "dexRouter",
      "outputs": [
        {
          "internalType": "address",
          "name": "",
          "type": "address"
        }
      ],
      "stateMutability": "view",
      "type": "function"
    },
    {
      "inputs": [],
      "name": "formula",
      "outputs": [
        {
          "internalType": "contract IFetchFormula",
          "name": "",
          "type": "address"
        }
      ],
      "stateMutability": "view",
      "type": "function"
    },
    {
      "inputs": [
        {
          "internalType": "uint256",
          "name": "_ethAmount",
          "type": "uint256"
        }
      ],
      "name": "getTokenPrice",
      "outputs": [
        {
          "internalType": "uint256",
          "name": "",
          "type": "uint256"
        }
      ],
      "stateMutability": "view",
      "type": "function"
    },
    {
      "inputs": [],
      "name": "minLockTime",
      "outputs": [
        {
          "internalType": "uint256",
          "name": "",
          "type": "uint256"
        }
      ],
      "stateMutability": "view",
      "type": "function"
    },
    {
      "inputs": [],
      "name": "minter",
      "outputs": [
        {
          "internalType": "contract IMinter",
          "name": "",
          "type": "address"
        }
      ],
      "stateMutability": "view",
      "type": "function"
    },
    {
      "inputs": [],
      "name": "owner",
      "outputs": [
        {
          "internalType": "address",
          "name": "",
          "type": "address"
        }
      ],
      "stateMutability": "view",
      "type": "function"
    },
    {
      "inputs": [],
      "name": "percentSendNow",
      "outputs": [
        {
          "internalType": "uint256",
          "name": "",
          "type": "uint256"
        }
      ],
      "stateMutability": "view",
      "type": "function"
    },
    {
      "inputs": [],
      "name": "percentToDex",
      "outputs": [
        {
          "internalType": "uint256",
          "name": "",
          "type": "uint256"
        }
      ],
      "stateMutability": "view",
      "type": "function"
    },
    {
      "inputs": [],
      "name": "percentToSale",
      "outputs": [
        {
          "internalType": "uint256",
          "name": "",
          "type": "uint256"
        }
      ],
      "stateMutability": "view",
      "type": "function"
    },
    {
      "inputs": [],
      "name": "renounceOwnership",
      "outputs": [],
      "stateMutability": "nonpayable",
      "type": "function"
    },
    {
      "inputs": [],
      "name": "token",
      "outputs": [
        {
          "internalType": "address",
          "name": "",
          "type": "address"
        }
      ],
      "stateMutability": "view",
      "type": "function"
    },
    {
      "inputs": [
        {
          "internalType": "address",
          "name": "newOwner",
          "type": "address"
        }
      ],
      "name": "transferOwnership",
      "outputs": [],
      "stateMutability": "nonpayable",
      "type": "function"
    },
    {
      "inputs": [],
      "name": "treasury",
      "outputs": [
        {
          "internalType": "address",
          "name": "",
          "type": "address"
        }
      ],
      "stateMutability": "view",
      "type": "function"
    },
    {
      "inputs": [
        {
          "internalType": "address",
          "name": "_formula",
          "type": "address"
        }
      ],
      "name": "updateFormula",
      "outputs": [],
      "stateMutability": "nonpayable",
      "type": "function"
    },
    {
      "inputs": [
        {
          "internalType": "uint256",
          "name": "_minLockTime",
          "type": "uint256"
        }
      ],
      "name": "updateMinLockTime",
      "outputs": [],
      "stateMutability": "nonpayable",
      "type": "function"
    },
    {
      "inputs": [
        {
          "internalType": "address",
          "name": "_minter",
          "type": "address"
        }
      ],
      "name": "updateMinter",
      "outputs": [],
      "stateMutability": "nonpayable",
      "type": "function"
    },
    {
      "inputs": [
        {
          "internalType": "uint256",
          "name": "_percentSendNow",
          "type": "uint256"
        }
      ],
      "name": "updatePercentSendNow",
      "outputs": [],
      "stateMutability": "nonpayable",
      "type": "function"
    },
    {
      "inputs": [
        {
          "internalType": "uint256",
          "name": "_percentToDex",
          "type": "uint256"
        },
        {
          "internalType": "uint256",
          "name": "_percentToSale",
          "type": "uint256"
        }
      ],
      "name": "updateSplitPercent",
      "outputs": [],
      "stateMutability": "nonpayable",
      "type": "function"
    },
    {
      "inputs": [],
      "name": "withdraw",
      "outputs": [],
      "stateMutability": "nonpayable",
      "type": "function"
    },
    {
      "stateMutability": "payable",
      "type": "receive"
    }
  ],
  "bytecode": "0x6080604052602160055560436006556001600c553480156200002057600080fd5b50604051620019bc380380620019bc8339810160408190526200004391620001c3565b6200004e3362000156565b600380546001600160a01b0319166001600160a01b038a1690811790915560408051637a7a2da360e11b8152905163f4f45b46916004808201926020929091908290030181865afa158015620000a8573d6000803e3d6000fd5b505050506040513d601f19601f82011682018060405250810190620000ce919062000262565b600180546001600160a01b03199081166001600160a01b039384161790915560048054821699831699909917909855600780548916978216979097179096556008805488169587169590951790945560028054871693861693909317909255600980548616918516919091179055600a8054909416921691909117909155600b555062000287565b600080546001600160a01b038381166001600160a01b0319831681178455604051919092169283917f8be0079c531659141344cd1fd0a4f28419497f9722a3daafe3b4186f6b6457e09190a35050565b80516001600160a01b0381168114620001be57600080fd5b919050565b600080600080600080600080610100898b031215620001e157600080fd5b620001ec89620001a6565b9750620001fc60208a01620001a6565b96506200020c60408a01620001a6565b95506200021c60608a01620001a6565b94506200022c60808a01620001a6565b93506200023c60a08a01620001a6565b92506200024c60c08a01620001a6565b915060e089015190509295985092959890939650565b6000602082840312156200027557600080fd5b6200028082620001a6565b9392505050565b61172580620002976000396000f3fe60806040526004361061016a5760003560e01c80638da5cb5b116100d1578063c757e5b51161008a578063dfa5372411610064578063dfa5372414610412578063f2fde38b14610428578063fbde9a9f14610448578063fc0c546a1461045e57600080fd5b8063c757e5b5146103b2578063c863657d146103d2578063d5b49a71146103f257600080fd5b80638da5cb5b1461030b57806396e4ee3d14610329578063a60ff7661461033c578063ad5c464814610352578063bf79393914610372578063c457fb371461039257600080fd5b80634eb03f6e116101235780634eb03f6e1461025f5780634f783ed01461027f57806356b3620d146102a357806361d027b3146102b6578063715018a6146102d657806378b30ecc146102eb57600080fd5b806307546172146101765780630758d924146101b357806338af3eed146101d35780633a5b08e7146101f35780633ccfd60b146102285780634b75f54f1461023f57600080fd5b3661017157005b600080fd5b34801561018257600080fd5b50600854610196906001600160a01b031681565b6040516001600160a01b0390911681526020015b60405180910390f35b3480156101bf57600080fd5b50600354610196906001600160a01b031681565b3480156101df57600080fd5b50600754610196906001600160a01b031681565b3480156101ff57600080fd5b5061021361020e366004611332565b61047e565b604080519283526020830191909152016101aa565b34801561023457600080fd5b5061023d610494565b005b34801561024b57600080fd5b50600a54610196906001600160a01b031681565b34801561026b57600080fd5b5061023d61027a366004611367565b610504565b34801561028b57600080fd5b5061029560065481565b6040519081526020016101aa565b61023d6102b1366004611382565b610550565b3480156102c257600080fd5b50600954610196906001600160a01b031681565b3480156102e257600080fd5b5061023d610560565b3480156102f757600080fd5b5061023d610306366004611332565b610596565b34801561031757600080fd5b506000546001600160a01b0316610196565b61023d6103373660046113b5565b610609565b34801561034857600080fd5b50610295600b5481565b34801561035e57600080fd5b50600154610196906001600160a01b031681565b34801561037e57600080fd5b5061023d61038d366004611332565b610618565b34801561039e57600080fd5b506102956103ad366004611332565b610647565b3480156103be57600080fd5b5061023d6103cd3660046113b5565b6107cb565b3480156103de57600080fd5b50600254610196906001600160a01b031681565b3480156103fe57600080fd5b5061023d61040d366004611367565b61084d565b34801561041e57600080fd5b5061029560055481565b34801561043457600080fd5b5061023d610443366004611367565b610899565b34801561045457600080fd5b50610295600c5481565b34801561046a57600080fd5b50600454610196906001600160a01b031681565b60008061048a83610931565b9094909350915050565b6000546001600160a01b031633146104c75760405162461bcd60e51b81526004016104be906113d7565b60405180910390fd5b600080546040516001600160a01b03909116914780156108fc02929091818181858888f19350505050158015610501573d6000803e3d6000fd5b50565b6000546001600160a01b0316331461052e5760405162461bcd60e51b81526004016104be906113d7565b600880546001600160a01b0319166001600160a01b0392909216919091179055565b61055b838383610970565b505050565b6000546001600160a01b0316331461058a5760405162461bcd60e51b81526004016104be906113d7565b6105946000610d3a565b565b6000546001600160a01b031633146105c05760405162461bcd60e51b81526004016104be906113d7565b60648111156106045760405162461bcd60e51b815260206004820152601060248201526f50657263656e74206f766572666c6f7760801b60448201526064016104be565b600c55565b610614338383610970565b5050565b6000546001600160a01b031633146106425760405162461bcd60e51b81526004016104be906113d7565b600b55565b604080516001808252818301909252600091829190816020015b604080516060810182526000808252602080830182905292820152825260001990920191018161066157505060015481519192506001600160a01b03169082906000906106b0576106b0611422565b60209081029190910101516001600160a01b039182169052600454825191169082906000906106e1576106e1611422565b6020026020010151602001906001600160a01b031690816001600160a01b03168152505060008160008151811061071a5761071a611422565b602090810291909101015190151560409182015260035490516326207f2d60e21b81526000916001600160a01b031690639881fcb4906107609087908690600401611497565b600060405180830381865afa15801561077d573d6000803e3d6000fd5b505050506040513d6000823e601f3d908101601f191682016040526107a591908101906114b8565b9050806001815181106107ba576107ba611422565b602002602001015192505050919050565b6000546001600160a01b031633146107f55760405162461bcd60e51b81526004016104be906113d7565b6000610801828461158c565b9050806064146108415760405162461bcd60e51b815260206004820152600b60248201526a15dc9bdb99c81d1bdd185b60aa1b60448201526064016104be565b50600591909155600655565b6000546001600160a01b031633146108775760405162461bcd60e51b81526004016104be906113d7565b600a80546001600160a01b0319166001600160a01b0392909216919091179055565b6000546001600160a01b031633146108c35760405162461bcd60e51b81526004016104be906113d7565b6001600160a01b0381166109285760405162461bcd60e51b815260206004820152602660248201527f4f776e61626c653a206e6577206f776e657220697320746865207a65726f206160448201526564647265737360d01b60648201526084016104be565b61050181610d3a565b60008061095460055461094e606486610d8a90919063ffffffff16565b90610dd5565b6006549092506109699061094e856064610d8a565b9050915091565b600b548210156109b25760405162461bcd60e51b815260206004820152600d60248201526c6d696e206c6f636b2074696d6560981b60448201526064016104be565b600034116109ee5760405162461bcd60e51b81526020600482015260096024820152680f4cae4e4de40cae8d60bb1b60448201526064016104be565b6109f734610e54565b600a5460405163faf1ebfd60e01b8152600481018490526000916001600160a01b03169063faf1ebfd90602401602060405180830381865afa158015610a41573d6000803e3d6000fd5b505050506040513d601f19601f82011682018060405250810190610a6591906115a4565b90508015610aed576000610a7834610647565b90506000610a8b8361094e846064610d8a565b600854604051632279773760e11b8152600481018390529192506001600160a01b0316906344f2ee6e90602401600060405180830381600087803b158015610ad257600080fd5b505af1158015610ae6573d6000803e3d6000fd5b5050505050505b600480546040516370a0823160e01b815230928101929092526000916001600160a01b03909116906370a0823190602401602060405180830381865afa158015610b3b573d6000803e3d6000fd5b505050506040513d601f19601f82011682018060405250810190610b5f91906115a4565b9050828111610ba35760405162461bcd60e51b815260206004820152601060248201526f36b4b7103932ba3ab9371032b93937b960811b60448201526064016104be565b600c5415610c4a57600c54600090610bc09061094e846064610d8a565b6004805460405163a9059cbb60e01b81526001600160a01b038a81169382019390935260248101849052929350169063a9059cbb906044016020604051808303816000875af1158015610c17573d6000803e3d6000fd5b505050506040513d601f19601f82011682018060405250810190610c3b91906115bd565b50610c468282610e97565b9150505b6004805460025460405163095ea7b360e01b81526001600160a01b039182169381019390935260248301849052169063095ea7b3906044016020604051808303816000875af1158015610ca1573d6000803e3d6000fd5b505050506040513d601f19601f82011682018060405250810190610cc591906115bd565b5060025460405163d4e54c3b60e01b815260048101839052602481018690526001600160a01b0387811660448301529091169063d4e54c3b90606401600060405180830381600087803b158015610d1b57600080fd5b505af1158015610d2f573d6000803e3d6000fd5b505050505050505050565b600080546001600160a01b038381166001600160a01b0319831681178455604051919092169283917f8be0079c531659141344cd1fd0a4f28419497f9722a3daafe3b4186f6b6457e09190a35050565b6000610dcc83836040518060400160405280601a81526020017f536166654d6174683a206469766973696f6e206279207a65726f000000000000815250610ed9565b90505b92915050565b600082610de457506000610dcf565b6000610df083856115df565b905082610dfd85836115fe565b14610dcc5760405162461bcd60e51b815260206004820152602160248201527f536166654d6174683a206d756c7469706c69636174696f6e206f766572666c6f6044820152607760f81b60648201526084016104be565b600080610e608361047e565b90925090508115610e8857600354600454610e88916001600160a01b03908116911684610f10565b801561055b5761055b81611088565b6000610dcc83836040518060400160405280601e81526020017f536166654d6174683a207375627472616374696f6e206f766572666c6f77000081525061114d565b60008183610efa5760405162461bcd60e51b81526004016104be9190611620565b506000610f0784866115fe565b95945050505050565b604080516001808252818301909252600091816020015b6040805160608101825260008082526020808301829052928201528252600019909201910181610f2757505060015481519192506001600160a01b0316908290600090610f7657610f76611422565b6020026020010151600001906001600160a01b031690816001600160a01b0316815250508281600081518110610fae57610fae611422565b6020026020010151602001906001600160a01b031690816001600160a01b031681525050600081600081518110610fe757610fe7611422565b60209081029190910101519015156040909101526001600160a01b03841663e8ef4681836001843061101b4261070861158c565b6040518663ffffffff1660e01b815260040161103a9493929190611675565b60006040518083038185885af1158015611058573d6000803e3d6000fd5b50505050506040513d6000823e601f3d908101601f1916820160405261108191908101906114b8565b5050505050565b600061109382610647565b600854604051632279773760e11b8152600481018390529192506001600160a01b0316906344f2ee6e90602401600060405180830381600087803b1580156110da57600080fd5b505af11580156110ee573d6000803e3d6000fd5b505050506000611108600284610d8a90919063ffffffff16565b6007546040519192506001600160a01b03169082156108fc029083906000818181858888f19350505050158015611143573d6000803e3d6000fd5b5061055b8161117e565b600081848411156111715760405162461bcd60e51b81526004016104be9190611620565b506000610f0784866116aa565b600061118982610647565b600854604051632279773760e11b8152600481018390529192506001600160a01b0316906344f2ee6e90602401600060405180830381600087803b1580156111d057600080fd5b505af11580156111e4573d6000803e3d6000fd5b50506004805460035460405163095ea7b360e01b81526001600160a01b03918216938101939093526024830186905216925063095ea7b391506044016020604051808303816000875af115801561123f573d6000803e3d6000fd5b505050506040513d601f19601f8201168201806040525081019061126391906115bd565b506003546004546009546001600160a01b039283169263578caf32928692908216916000918791839182911661129b4261038461158c565b60405160e08a901b6001600160e01b03191681526001600160a01b039788166004820152951515602487015260448601949094526064850192909252608484015290921660a482015260c481019190915260e40160606040518083038185885af115801561130d573d6000803e3d6000fd5b50505050506040513d601f19601f8201168201806040525081019061108191906116c1565b60006020828403121561134457600080fd5b5035919050565b80356001600160a01b038116811461136257600080fd5b919050565b60006020828403121561137957600080fd5b610dcc8261134b565b60008060006060848603121561139757600080fd5b6113a08461134b565b95602085013595506040909401359392505050565b600080604083850312156113c857600080fd5b50508035926020909101359150565b6020808252818101527f4f776e61626c653a2063616c6c6572206973206e6f7420746865206f776e6572604082015260600190565b634e487b7160e01b600052604160045260246000fd5b634e487b7160e01b600052603260045260246000fd5b600081518084526020808501945080840160005b8381101561148c57815180516001600160a01b0390811689528482015116848901526040908101511515908801526060909601959082019060010161144c565b509495945050505050565b8281526040602082015260006114b06040830184611438565b949350505050565b600060208083850312156114cb57600080fd5b825167ffffffffffffffff808211156114e357600080fd5b818501915085601f8301126114f757600080fd5b8151818111156115095761150961140c565b8060051b604051601f19603f8301168101818110858211171561152e5761152e61140c565b60405291825284820192508381018501918883111561154c57600080fd5b938501935b8285101561156a57845184529385019392850192611551565b98975050505050505050565b634e487b7160e01b600052601160045260246000fd5b6000821982111561159f5761159f611576565b500190565b6000602082840312156115b657600080fd5b5051919050565b6000602082840312156115cf57600080fd5b81518015158114610dcc57600080fd5b60008160001904831182151516156115f9576115f9611576565b500290565b60008261161b57634e487b7160e01b600052601260045260246000fd5b500490565b600060208083528351808285015260005b8181101561164d57858101830151858201604001528201611631565b8181111561165f576000604083870101525b50601f01601f1916929092016040019392505050565b84815260806020820152600061168e6080830186611438565b6001600160a01b03949094166040830152506060015292915050565b6000828210156116bc576116bc611576565b500390565b6000806000606084860312156116d657600080fd5b835192506020840151915060408401519050925092509256fea264697066735822122025312d749c23195f56f7dbe1f90e692c6c53e1eb94e0cfc8cb8fdaa33fcf4db764736f6c634300080b0033",
  "linkReferences": {},
  "deployedLinkReferences": {}
}