{
  "_format": "hh-sol-artifact-1",
  "contractName": "Fetch",
  "sourceName": "contracts/Fetch.sol",
  "abi": [
    {
      "inputs": [
        {
          "internalType": "address",
          "name": "_dexRouter",
          "type": "address"
        },
        {
          "internalType": "address",
          "name": "_token",
          "type": "address"
        },
        {
          "internalType": "address",
          "name": "_beneficiary",
          "type": "address"
        },
        {
          "internalType": "address",
          "name": "_minter",
          "type": "address"
        },
        {
          "internalType": "address",
          "name": "_VE",
          "type": "address"
        },
        {
          "internalType": "address",
          "name": "_treasury",
          "type": "address"
        },
        {
          "internalType": "address",
          "name": "_formula",
          "type": "address"
        }
      ],
      "stateMutability": "nonpayable",
      "type": "constructor"
    },
    {
      "anonymous": false,
      "inputs": [
        {
          "indexed": true,
          "internalType": "address",
          "name": "previousOwner",
          "type": "address"
        },
        {
          "indexed": true,
          "internalType": "address",
          "name": "newOwner",
          "type": "address"
        }
      ],
      "name": "OwnershipTransferred",
      "type": "event"
    },
    {
      "inputs": [],
      "name": "VE",
      "outputs": [
        {
          "internalType": "contract IVE",
          "name": "",
          "type": "address"
        }
      ],
      "stateMutability": "view",
      "type": "function"
    },
    {
      "inputs": [],
      "name": "WETH",
      "outputs": [
        {
          "internalType": "address",
          "name": "",
          "type": "address"
        }
      ],
      "stateMutability": "view",
      "type": "function"
    },
    {
      "inputs": [],
      "name": "beneficiary",
      "outputs": [
        {
          "internalType": "address",
          "name": "",
          "type": "address"
        }
      ],
      "stateMutability": "view",
      "type": "function"
    },
    {
      "inputs": [
        {
          "internalType": "uint256",
          "name": "ethInput",
          "type": "uint256"
        }
      ],
      "name": "calculateToSplit",
      "outputs": [
        {
          "internalType": "uint256",
          "name": "ethToDex",
          "type": "uint256"
        },
        {
          "internalType": "uint256",
          "name": "ethToSale",
          "type": "uint256"
        }
      ],
      "stateMutability": "view",
      "type": "function"
    },
    {
      "inputs": [
        {
          "internalType": "uint256",
          "name": "_lockTime",
          "type": "uint256"
        }
      ],
      "name": "convert",
      "outputs": [],
      "stateMutability": "payable",
      "type": "function"
    },
    {
      "inputs": [
        {
          "internalType": "address",
          "name": "receiver",
          "type": "address"
        },
        {
          "internalType": "uint256",
          "name": "_lockTime",
          "type": "uint256"
        }
      ],
      "name": "convertFor",
      "outputs": [],
      "stateMutability": "payable",
      "type": "function"
    },
    {
      "inputs": [
        {
          "internalType": "uint256",
          "name": "_amount",
          "type": "uint256"
        },
        {
          "internalType": "uint256",
          "name": "_lockTime",
          "type": "uint256"
        }
      ],
      "name": "depositToken",
      "outputs": [],
      "stateMutability": "nonpayable",
      "type": "function"
    },
    {
      "inputs": [],
      "name": "dexRouter",
      "outputs": [
        {
          "internalType": "address",
          "name": "",
          "type": "address"
        }
      ],
      "stateMutability": "view",
      "type": "function"
    },
    {
      "inputs": [],
      "name": "formula",
      "outputs": [
        {
          "internalType": "contract IFetchFormula",
          "name": "",
          "type": "address"
        }
      ],
      "stateMutability": "view",
      "type": "function"
    },
    {
      "inputs": [
        {
          "internalType": "uint256",
          "name": "_ethAmount",
          "type": "uint256"
        }
      ],
      "name": "getTokenPrice",
      "outputs": [
        {
          "internalType": "uint256",
          "name": "",
          "type": "uint256"
        }
      ],
      "stateMutability": "view",
      "type": "function"
    },
    {
      "inputs": [],
      "name": "minter",
      "outputs": [
        {
          "internalType": "contract IMinter",
          "name": "",
          "type": "address"
        }
      ],
      "stateMutability": "view",
      "type": "function"
    },
    {
      "inputs": [],
      "name": "owner",
      "outputs": [
        {
          "internalType": "address",
          "name": "",
          "type": "address"
        }
      ],
      "stateMutability": "view",
      "type": "function"
    },
    {
      "inputs": [],
      "name": "percentToDex",
      "outputs": [
        {
          "internalType": "uint256",
          "name": "",
          "type": "uint256"
        }
      ],
      "stateMutability": "view",
      "type": "function"
    },
    {
      "inputs": [],
      "name": "percentToSale",
      "outputs": [
        {
          "internalType": "uint256",
          "name": "",
          "type": "uint256"
        }
      ],
      "stateMutability": "view",
      "type": "function"
    },
    {
      "inputs": [],
      "name": "renounceOwnership",
      "outputs": [],
      "stateMutability": "nonpayable",
      "type": "function"
    },
    {
      "inputs": [],
      "name": "token",
      "outputs": [
        {
          "internalType": "address",
          "name": "",
          "type": "address"
        }
      ],
      "stateMutability": "view",
      "type": "function"
    },
    {
      "inputs": [
        {
          "internalType": "address",
          "name": "newOwner",
          "type": "address"
        }
      ],
      "name": "transferOwnership",
      "outputs": [],
      "stateMutability": "nonpayable",
      "type": "function"
    },
    {
      "inputs": [],
      "name": "treasury",
      "outputs": [
        {
          "internalType": "address",
          "name": "",
          "type": "address"
        }
      ],
      "stateMutability": "view",
      "type": "function"
    },
    {
      "inputs": [
        {
          "internalType": "address",
          "name": "_formula",
          "type": "address"
        }
      ],
      "name": "updateFormula",
      "outputs": [],
      "stateMutability": "nonpayable",
      "type": "function"
    },
    {
      "inputs": [
        {
          "internalType": "address",
          "name": "_minter",
          "type": "address"
        }
      ],
      "name": "updateMinter",
      "outputs": [],
      "stateMutability": "nonpayable",
      "type": "function"
    },
    {
      "inputs": [
        {
          "internalType": "uint256",
          "name": "_percentToDex",
          "type": "uint256"
        },
        {
          "internalType": "uint256",
          "name": "_percentToSale",
          "type": "uint256"
        }
      ],
      "name": "updateSplitPercent",
      "outputs": [],
      "stateMutability": "nonpayable",
      "type": "function"
    },
    {
      "inputs": [],
      "name": "withdraw",
      "outputs": [],
      "stateMutability": "nonpayable",
      "type": "function"
    },
    {
      "stateMutability": "payable",
      "type": "receive"
    }
  ],
  "bytecode": "0x6080604052602160055560436006553480156200001b57600080fd5b50604051620019c6380380620019c68339810160408190526200003e91620001b7565b62000049336200014a565b600380546001600160a01b0319166001600160a01b03891690811790915560408051637a7a2da360e11b8152905163f4f45b46916004808201926020929091908290030181865afa158015620000a3573d6000803e3d6000fd5b505050506040513d601f19601f82011682018060405250810190620000c991906200024c565b600180546001600160a01b03199081166001600160a01b039384161790915560048054821698831698909817909755600780548816968216969096179095556008805487169486169490941790935560028054861692851692909217909155600980548516918416919091179055600a805490931691161790555062000271565b600080546001600160a01b038381166001600160a01b0319831681178455604051919092169283917f8be0079c531659141344cd1fd0a4f28419497f9722a3daafe3b4186f6b6457e09190a35050565b80516001600160a01b0381168114620001b257600080fd5b919050565b600080600080600080600060e0888a031215620001d357600080fd5b620001de886200019a565b9650620001ee602089016200019a565b9550620001fe604089016200019a565b94506200020e606089016200019a565b93506200021e608089016200019a565b92506200022e60a089016200019a565b91506200023e60c089016200019a565b905092959891949750929550565b6000602082840312156200025f57600080fd5b6200026a826200019a565b9392505050565b61174580620002816000396000f3fe6080604052600436106101395760003560e01c80639d2d04d1116100ab578063c757e5b51161006f578063c757e5b51461034b578063c863657d1461036b578063d5b49a711461038b578063dfa53724146103ab578063f2fde38b146103c1578063fc0c546a146103e157600080fd5b80639d2d04d1146102c5578063a3908e1b146102e5578063aaa07362146102f8578063ad5c46481461030b578063c457fb371461032b57600080fd5b80634b75f54f116100fd5780634b75f54f1461020e5780634eb03f6e1461022e5780634f783ed01461024e57806361d027b314610272578063715018a6146102925780638da5cb5b146102a757600080fd5b806307546172146101455780630758d9241461018257806338af3eed146101a25780633a5b08e7146101c25780633ccfd60b146101f757600080fd5b3661014057005b600080fd5b34801561015157600080fd5b50600854610165906001600160a01b031681565b6040516001600160a01b0390911681526020015b60405180910390f35b34801561018e57600080fd5b50600354610165906001600160a01b031681565b3480156101ae57600080fd5b50600754610165906001600160a01b031681565b3480156101ce57600080fd5b506101e26101dd366004611372565b610401565b60408051928352602083019190915201610179565b34801561020357600080fd5b5061020c610417565b005b34801561021a57600080fd5b50600a54610165906001600160a01b031681565b34801561023a57600080fd5b5061020c6102493660046113a7565b610487565b34801561025a57600080fd5b5061026460065481565b604051908152602001610179565b34801561027e57600080fd5b50600954610165906001600160a01b031681565b34801561029e57600080fd5b5061020c6104d3565b3480156102b357600080fd5b506000546001600160a01b0316610165565b3480156102d157600080fd5b5061020c6102e03660046113c2565b610509565b61020c6102f3366004611372565b610775565b61020c6103063660046113e4565b61077f565b34801561031757600080fd5b50600154610165906001600160a01b031681565b34801561033757600080fd5b50610264610346366004611372565b61078d565b34801561035757600080fd5b5061020c6103663660046113c2565b610911565b34801561037757600080fd5b50600254610165906001600160a01b031681565b34801561039757600080fd5b5061020c6103a63660046113a7565b610993565b3480156103b757600080fd5b5061026460055481565b3480156103cd57600080fd5b5061020c6103dc3660046113a7565b6109df565b3480156103ed57600080fd5b50600454610165906001600160a01b031681565b60008061040d83610a77565b9094909350915050565b6000546001600160a01b0316331461044a5760405162461bcd60e51b81526004016104419061140e565b60405180910390fd5b600080546040516001600160a01b03909116914780156108fc02929091818181858888f19350505050158015610484573d6000803e3d6000fd5b50565b6000546001600160a01b031633146104b15760405162461bcd60e51b81526004016104419061140e565b600880546001600160a01b0319166001600160a01b0392909216919091179055565b6000546001600160a01b031633146104fd5760405162461bcd60e51b81526004016104419061140e565b6105076000610ab0565b565b600480546040516323b872dd60e01b81523392810192909252306024830152604482018490526001600160a01b0316906323b872dd906064016020604051808303816000875af1158015610561573d6000803e3d6000fd5b505050506040513d601f19601f820116820180604052508101906105859190611443565b50600a5460405163faf1ebfd60e01b8152600481018390526000916001600160a01b03169063faf1ebfd90602401602060405180830381865afa1580156105d0573d6000803e3d6000fd5b505050506040513d601f19601f820116820180604052508101906105f49190611465565b905060008115610673576106138261060d866064610b00565b90610b4b565b600854604051632279773760e11b8152600481018390529192506001600160a01b0316906344f2ee6e90602401600060405180830381600087803b15801561065a57600080fd5b505af115801561066e573d6000803e3d6000fd5b505050505b600061067f8583610bca565b6004805460025460405163095ea7b360e01b81526001600160a01b039182169381019390935260248301849052929350919091169063095ea7b3906044016020604051808303816000875af11580156106dc573d6000803e3d6000fd5b505050506040513d601f19601f820116820180604052508101906107009190611443565b5060025460405163d4e54c3b60e01b8152600481018390526293a80060248201523360448201526001600160a01b039091169063d4e54c3b90606401600060405180830381600087803b15801561075657600080fd5b505af115801561076a573d6000803e3d6000fd5b505050505050505050565b6104843382610c29565b6107898282610c29565b5050565b604080516001808252818301909252600091829190816020015b60408051606081018252600080825260208083018290529282015282526000199092019101816107a757505060015481519192506001600160a01b03169082906000906107f6576107f6611494565b60209081029190910101516001600160a01b0391821690526004548251911690829060009061082757610827611494565b6020026020010151602001906001600160a01b031690816001600160a01b03168152505060008160008151811061086057610860611494565b602090810291909101015190151560409182015260035490516326207f2d60e21b81526000916001600160a01b031690639881fcb4906108a69087908690600401611509565b600060405180830381865afa1580156108c3573d6000803e3d6000fd5b505050506040513d6000823e601f3d908101601f191682016040526108eb919081019061152a565b90508060018151811061090057610900611494565b602002602001015192505050919050565b6000546001600160a01b0316331461093b5760405162461bcd60e51b81526004016104419061140e565b600061094782846115fe565b9050806064146109875760405162461bcd60e51b815260206004820152600b60248201526a15dc9bdb99c81d1bdd185b60aa1b6044820152606401610441565b50600591909155600655565b6000546001600160a01b031633146109bd5760405162461bcd60e51b81526004016104419061140e565b600a80546001600160a01b0319166001600160a01b0392909216919091179055565b6000546001600160a01b03163314610a095760405162461bcd60e51b81526004016104419061140e565b6001600160a01b038116610a6e5760405162461bcd60e51b815260206004820152602660248201527f4f776e61626c653a206e6577206f776e657220697320746865207a65726f206160448201526564647265737360d01b6064820152608401610441565b61048481610ab0565b600080610a9460055461060d606486610b0090919063ffffffff16565b600654909250610aa99061060d856064610b00565b9050915091565b600080546001600160a01b038381166001600160a01b0319831681178455604051919092169283917f8be0079c531659141344cd1fd0a4f28419497f9722a3daafe3b4186f6b6457e09190a35050565b6000610b4283836040518060400160405280601a81526020017f536166654d6174683a206469766973696f6e206279207a65726f000000000000815250610f07565b90505b92915050565b600082610b5a57506000610b45565b6000610b668385611616565b905082610b738583611635565b14610b425760405162461bcd60e51b815260206004820152602160248201527f536166654d6174683a206d756c7469706c69636174696f6e206f766572666c6f6044820152607760f81b6064820152608401610441565b600080610bd783856115fe565b905083811015610b425760405162461bcd60e51b815260206004820152601b60248201527f536166654d6174683a206164646974696f6e206f766572666c6f7700000000006044820152606401610441565b60003411610c655760405162461bcd60e51b81526020600482015260096024820152680f4cae4e4de40cae8d60bb1b6044820152606401610441565b610c6e34610f3e565b600a5460405163faf1ebfd60e01b8152600481018390526000916001600160a01b03169063faf1ebfd90602401602060405180830381865afa158015610cb8573d6000803e3d6000fd5b505050506040513d601f19601f82011682018060405250810190610cdc9190611465565b90508015610d64576000610cef3461078d565b90506000610d028361060d846064610b00565b600854604051632279773760e11b8152600481018390529192506001600160a01b0316906344f2ee6e90602401600060405180830381600087803b158015610d4957600080fd5b505af1158015610d5d573d6000803e3d6000fd5b5050505050505b600480546040516370a0823160e01b815230928101929092526000916001600160a01b03909116906370a0823190602401602060405180830381865afa158015610db2573d6000803e3d6000fd5b505050506040513d601f19601f82011682018060405250810190610dd69190611465565b905060008111610e165760405162461bcd60e51b815260206004820152600b60248201526a1b9bdd081cddd85c1c195960aa1b6044820152606401610441565b6004805460025460405163095ea7b360e01b81526001600160a01b039182169381019390935260248301849052169063095ea7b3906044016020604051808303816000875af1158015610e6d573d6000803e3d6000fd5b505050506040513d601f19601f82011682018060405250810190610e919190611443565b5060025460405163d4e54c3b60e01b8152600481018390526293a80060248201526001600160a01b0386811660448301529091169063d4e54c3b90606401600060405180830381600087803b158015610ee957600080fd5b505af1158015610efd573d6000803e3d6000fd5b5050505050505050565b60008183610f285760405162461bcd60e51b81526004016104419190611657565b506000610f358486611635565b95945050505050565b600080610f4a83610401565b90925090508115610f7257600354600454610f72916001600160a01b03908116911684610f86565b8015610f8157610f81816110fe565b505050565b604080516001808252818301909252600091816020015b6040805160608101825260008082526020808301829052928201528252600019909201910181610f9d57505060015481519192506001600160a01b0316908290600090610fec57610fec611494565b6020026020010151600001906001600160a01b031690816001600160a01b031681525050828160008151811061102457611024611494565b6020026020010151602001906001600160a01b031690816001600160a01b03168152505060008160008151811061105d5761105d611494565b60209081029190910101519015156040909101526001600160a01b03841663e8ef46818360018430611091426107086115fe565b6040518663ffffffff1660e01b81526004016110b094939291906116ac565b60006040518083038185885af11580156110ce573d6000803e3d6000fd5b50505050506040513d6000823e601f3d908101601f191682016040526110f7919081019061152a565b5050505050565b60006111098261078d565b600854604051632279773760e11b8152600481018390529192506001600160a01b0316906344f2ee6e90602401600060405180830381600087803b15801561115057600080fd5b505af1158015611164573d6000803e3d6000fd5b50505050600061117e600284610b0090919063ffffffff16565b6007546040519192506001600160a01b03169082156108fc029083906000818181858888f193505050501580156111b9573d6000803e3d6000fd5b50610f818160006111c98261078d565b600854604051632279773760e11b8152600481018390529192506001600160a01b0316906344f2ee6e90602401600060405180830381600087803b15801561121057600080fd5b505af1158015611224573d6000803e3d6000fd5b50506004805460035460405163095ea7b360e01b81526001600160a01b03918216938101939093526024830186905216925063095ea7b391506044016020604051808303816000875af115801561127f573d6000803e3d6000fd5b505050506040513d601f19601f820116820180604052508101906112a39190611443565b506003546004546009546001600160a01b039283169263578caf3292869290821691600091879183918291166112db426103846115fe565b60405160e08a901b6001600160e01b03191681526001600160a01b039788166004820152951515602487015260448601949094526064850192909252608484015290921660a482015260c481019190915260e40160606040518083038185885af115801561134d573d6000803e3d6000fd5b50505050506040513d601f19601f820116820180604052508101906110f791906116e1565b60006020828403121561138457600080fd5b5035919050565b80356001600160a01b03811681146113a257600080fd5b919050565b6000602082840312156113b957600080fd5b610b428261138b565b600080604083850312156113d557600080fd5b50508035926020909101359150565b600080604083850312156113f757600080fd5b6114008361138b565b946020939093013593505050565b6020808252818101527f4f776e61626c653a2063616c6c6572206973206e6f7420746865206f776e6572604082015260600190565b60006020828403121561145557600080fd5b81518015158114610b4257600080fd5b60006020828403121561147757600080fd5b5051919050565b634e487b7160e01b600052604160045260246000fd5b634e487b7160e01b600052603260045260246000fd5b600081518084526020808501945080840160005b838110156114fe57815180516001600160a01b039081168952848201511684890152604090810151151590880152606090960195908201906001016114be565b509495945050505050565b82815260406020820152600061152260408301846114aa565b949350505050565b6000602080838503121561153d57600080fd5b825167ffffffffffffffff8082111561155557600080fd5b818501915085601f83011261156957600080fd5b81518181111561157b5761157b61147e565b8060051b604051601f19603f830116810181811085821117156115a0576115a061147e565b6040529182528482019250838101850191888311156115be57600080fd5b938501935b828510156115dc578451845293850193928501926115c3565b98975050505050505050565b634e487b7160e01b600052601160045260246000fd5b60008219821115611611576116116115e8565b500190565b6000816000190483118215151615611630576116306115e8565b500290565b60008261165257634e487b7160e01b600052601260045260246000fd5b500490565b600060208083528351808285015260005b8181101561168457858101830151858201604001528201611668565b81811115611696576000604083870101525b50601f01601f1916929092016040019392505050565b8481526080602082015260006116c560808301866114aa565b6001600160a01b03949094166040830152506060015292915050565b6000806000606084860312156116f657600080fd5b835192506020840151915060408401519050925092509256fea2646970667358221220fc83be52d337c10975a385625b3bf6e6b06b2b687d278db190c6a17bd490ab1d64736f6c634300080b0033",
  "linkReferences": {},
  "deployedLinkReferences": {}
}