{
  "_format": "hh-sol-artifact-1",
  "contractName": "Fetch",
  "sourceName": "contracts/Fetch.sol",
  "abi": [
    {
      "inputs": [
        {
          "internalType": "address",
          "name": "_dexRouter",
          "type": "address"
        },
        {
          "internalType": "address",
          "name": "_token",
          "type": "address"
        },
        {
          "internalType": "address",
          "name": "_beneficiary",
          "type": "address"
        },
        {
          "internalType": "address",
          "name": "_minter",
          "type": "address"
        },
        {
          "internalType": "address",
          "name": "_VE",
          "type": "address"
        },
        {
          "internalType": "address",
          "name": "_treasury",
          "type": "address"
        },
        {
          "internalType": "address",
          "name": "_formula",
          "type": "address"
        },
        {
          "internalType": "uint256",
          "name": "_minLockTime",
          "type": "uint256"
        }
      ],
      "stateMutability": "nonpayable",
      "type": "constructor"
    },
    {
      "anonymous": false,
      "inputs": [
        {
          "indexed": true,
          "internalType": "address",
          "name": "previousOwner",
          "type": "address"
        },
        {
          "indexed": true,
          "internalType": "address",
          "name": "newOwner",
          "type": "address"
        }
      ],
      "name": "OwnershipTransferred",
      "type": "event"
    },
    {
      "inputs": [],
      "name": "VE",
      "outputs": [
        {
          "internalType": "contract IVE",
          "name": "",
          "type": "address"
        }
      ],
      "stateMutability": "view",
      "type": "function"
    },
    {
      "inputs": [],
      "name": "WETH",
      "outputs": [
        {
          "internalType": "address",
          "name": "",
          "type": "address"
        }
      ],
      "stateMutability": "view",
      "type": "function"
    },
    {
      "inputs": [],
      "name": "beneficiary",
      "outputs": [
        {
          "internalType": "address",
          "name": "",
          "type": "address"
        }
      ],
      "stateMutability": "view",
      "type": "function"
    },
    {
      "inputs": [
        {
          "internalType": "uint256",
          "name": "ethInput",
          "type": "uint256"
        }
      ],
      "name": "calculateToSplit",
      "outputs": [
        {
          "internalType": "uint256",
          "name": "ethToDex",
          "type": "uint256"
        },
        {
          "internalType": "uint256",
          "name": "ethToSale",
          "type": "uint256"
        }
      ],
      "stateMutability": "view",
      "type": "function"
    },
    {
      "inputs": [
        {
          "internalType": "uint256",
          "name": "_lockTime",
          "type": "uint256"
        }
      ],
      "name": "convert",
      "outputs": [],
      "stateMutability": "payable",
      "type": "function"
    },
    {
      "inputs": [
        {
          "internalType": "address",
          "name": "receiver",
          "type": "address"
        },
        {
          "internalType": "uint256",
          "name": "_lockTime",
          "type": "uint256"
        }
      ],
      "name": "convertFor",
      "outputs": [],
      "stateMutability": "payable",
      "type": "function"
    },
    {
      "inputs": [],
      "name": "dexRouter",
      "outputs": [
        {
          "internalType": "address",
          "name": "",
          "type": "address"
        }
      ],
      "stateMutability": "view",
      "type": "function"
    },
    {
      "inputs": [],
      "name": "formula",
      "outputs": [
        {
          "internalType": "contract IFetchFormula",
          "name": "",
          "type": "address"
        }
      ],
      "stateMutability": "view",
      "type": "function"
    },
    {
      "inputs": [
        {
          "internalType": "uint256",
          "name": "_ethAmount",
          "type": "uint256"
        }
      ],
      "name": "getTokenPrice",
      "outputs": [
        {
          "internalType": "uint256",
          "name": "",
          "type": "uint256"
        }
      ],
      "stateMutability": "view",
      "type": "function"
    },
    {
      "inputs": [],
      "name": "minLockTime",
      "outputs": [
        {
          "internalType": "uint256",
          "name": "",
          "type": "uint256"
        }
      ],
      "stateMutability": "view",
      "type": "function"
    },
    {
      "inputs": [],
      "name": "minter",
      "outputs": [
        {
          "internalType": "contract IMinter",
          "name": "",
          "type": "address"
        }
      ],
      "stateMutability": "view",
      "type": "function"
    },
    {
      "inputs": [],
      "name": "owner",
      "outputs": [
        {
          "internalType": "address",
          "name": "",
          "type": "address"
        }
      ],
      "stateMutability": "view",
      "type": "function"
    },
    {
      "inputs": [],
      "name": "percentSendNow",
      "outputs": [
        {
          "internalType": "uint256",
          "name": "",
          "type": "uint256"
        }
      ],
      "stateMutability": "view",
      "type": "function"
    },
    {
      "inputs": [],
      "name": "percentToDex",
      "outputs": [
        {
          "internalType": "uint256",
          "name": "",
          "type": "uint256"
        }
      ],
      "stateMutability": "view",
      "type": "function"
    },
    {
      "inputs": [],
      "name": "percentToSale",
      "outputs": [
        {
          "internalType": "uint256",
          "name": "",
          "type": "uint256"
        }
      ],
      "stateMutability": "view",
      "type": "function"
    },
    {
      "inputs": [],
      "name": "renounceOwnership",
      "outputs": [],
      "stateMutability": "nonpayable",
      "type": "function"
    },
    {
      "inputs": [],
      "name": "token",
      "outputs": [
        {
          "internalType": "address",
          "name": "",
          "type": "address"
        }
      ],
      "stateMutability": "view",
      "type": "function"
    },
    {
      "inputs": [
        {
          "internalType": "address",
          "name": "newOwner",
          "type": "address"
        }
      ],
      "name": "transferOwnership",
      "outputs": [],
      "stateMutability": "nonpayable",
      "type": "function"
    },
    {
      "inputs": [],
      "name": "treasury",
      "outputs": [
        {
          "internalType": "address",
          "name": "",
          "type": "address"
        }
      ],
      "stateMutability": "view",
      "type": "function"
    },
    {
      "inputs": [
        {
          "internalType": "address",
          "name": "_formula",
          "type": "address"
        }
      ],
      "name": "updateFormula",
      "outputs": [],
      "stateMutability": "nonpayable",
      "type": "function"
    },
    {
      "inputs": [
        {
          "internalType": "uint256",
          "name": "_minLockTime",
          "type": "uint256"
        }
      ],
      "name": "updateMinLockTime",
      "outputs": [],
      "stateMutability": "nonpayable",
      "type": "function"
    },
    {
      "inputs": [
        {
          "internalType": "address",
          "name": "_minter",
          "type": "address"
        }
      ],
      "name": "updateMinter",
      "outputs": [],
      "stateMutability": "nonpayable",
      "type": "function"
    },
    {
      "inputs": [
        {
          "internalType": "uint256",
          "name": "_percentSendNow",
          "type": "uint256"
        }
      ],
      "name": "updatePercentSendNow",
      "outputs": [],
      "stateMutability": "nonpayable",
      "type": "function"
    },
    {
      "inputs": [
        {
          "internalType": "uint256",
          "name": "_percentToDex",
          "type": "uint256"
        },
        {
          "internalType": "uint256",
          "name": "_percentToSale",
          "type": "uint256"
        }
      ],
      "name": "updateSplitPercent",
      "outputs": [],
      "stateMutability": "nonpayable",
      "type": "function"
    },
    {
      "inputs": [],
      "name": "withdraw",
      "outputs": [],
      "stateMutability": "nonpayable",
      "type": "function"
    },
    {
      "stateMutability": "payable",
      "type": "receive"
    }
  ],
  "bytecode": "0x6080604052602160055560436006556001600c553480156200002057600080fd5b50604051620019ac380380620019ac8339810160408190526200004391620001c3565b6200004e3362000156565b600380546001600160a01b0319166001600160a01b038a1690811790915560408051637a7a2da360e11b8152905163f4f45b46916004808201926020929091908290030181865afa158015620000a8573d6000803e3d6000fd5b505050506040513d601f19601f82011682018060405250810190620000ce919062000262565b600180546001600160a01b03199081166001600160a01b039384161790915560048054821699831699909917909855600780548916978216979097179096556008805488169587169590951790945560028054871693861693909317909255600980548616918516919091179055600a8054909416921691909117909155600b555062000287565b600080546001600160a01b038381166001600160a01b0319831681178455604051919092169283917f8be0079c531659141344cd1fd0a4f28419497f9722a3daafe3b4186f6b6457e09190a35050565b80516001600160a01b0381168114620001be57600080fd5b919050565b600080600080600080600080610100898b031215620001e157600080fd5b620001ec89620001a6565b9750620001fc60208a01620001a6565b96506200020c60408a01620001a6565b95506200021c60608a01620001a6565b94506200022c60808a01620001a6565b93506200023c60a08a01620001a6565b92506200024c60c08a01620001a6565b915060e089015190509295985092959890939650565b6000602082840312156200027557600080fd5b6200028082620001a6565b9392505050565b61171580620002976000396000f3fe60806040526004361061016a5760003560e01c8063a3908e1b116100d1578063c757e5b51161008a578063dfa5372411610064578063dfa5372414610412578063f2fde38b14610428578063fbde9a9f14610448578063fc0c546a1461045e57600080fd5b8063c757e5b5146103b2578063c863657d146103d2578063d5b49a71146103f257600080fd5b8063a3908e1b14610316578063a60ff76614610329578063aaa073621461033f578063ad5c464814610352578063bf79393914610372578063c457fb371461039257600080fd5b80634eb03f6e116101235780634eb03f6e1461025f5780634f783ed01461027f57806361d027b3146102a3578063715018a6146102c357806378b30ecc146102d85780638da5cb5b146102f857600080fd5b806307546172146101765780630758d924146101b357806338af3eed146101d35780633a5b08e7146101f35780633ccfd60b146102285780634b75f54f1461023f57600080fd5b3661017157005b600080fd5b34801561018257600080fd5b50600854610196906001600160a01b031681565b6040516001600160a01b0390911681526020015b60405180910390f35b3480156101bf57600080fd5b50600354610196906001600160a01b031681565b3480156101df57600080fd5b50600754610196906001600160a01b031681565b3480156101ff57600080fd5b5061021361020e36600461132b565b61047e565b604080519283526020830191909152016101aa565b34801561023457600080fd5b5061023d610494565b005b34801561024b57600080fd5b50600a54610196906001600160a01b031681565b34801561026b57600080fd5b5061023d61027a366004611360565b610504565b34801561028b57600080fd5b5061029560065481565b6040519081526020016101aa565b3480156102af57600080fd5b50600954610196906001600160a01b031681565b3480156102cf57600080fd5b5061023d610550565b3480156102e457600080fd5b5061023d6102f336600461132b565b610586565b34801561030457600080fd5b506000546001600160a01b0316610196565b61023d61032436600461132b565b6105f9565b34801561033557600080fd5b50610295600b5481565b61023d61034d36600461137b565b610603565b34801561035e57600080fd5b50600154610196906001600160a01b031681565b34801561037e57600080fd5b5061023d61038d36600461132b565b610611565b34801561039e57600080fd5b506102956103ad36600461132b565b610640565b3480156103be57600080fd5b5061023d6103cd3660046113a5565b6107c4565b3480156103de57600080fd5b50600254610196906001600160a01b031681565b3480156103fe57600080fd5b5061023d61040d366004611360565b610846565b34801561041e57600080fd5b5061029560055481565b34801561043457600080fd5b5061023d610443366004611360565b610892565b34801561045457600080fd5b50610295600c5481565b34801561046a57600080fd5b50600454610196906001600160a01b031681565b60008061048a8361092a565b9094909350915050565b6000546001600160a01b031633146104c75760405162461bcd60e51b81526004016104be906113c7565b60405180910390fd5b600080546040516001600160a01b03909116914780156108fc02929091818181858888f19350505050158015610501573d6000803e3d6000fd5b50565b6000546001600160a01b0316331461052e5760405162461bcd60e51b81526004016104be906113c7565b600880546001600160a01b0319166001600160a01b0392909216919091179055565b6000546001600160a01b0316331461057a5760405162461bcd60e51b81526004016104be906113c7565b6105846000610969565b565b6000546001600160a01b031633146105b05760405162461bcd60e51b81526004016104be906113c7565b60648111156105f45760405162461bcd60e51b815260206004820152601060248201526f50657263656e74206f766572666c6f7760801b60448201526064016104be565b600c55565b61050133826109b9565b61060d82826109b9565b5050565b6000546001600160a01b0316331461063b5760405162461bcd60e51b81526004016104be906113c7565b600b55565b604080516001808252818301909252600091829190816020015b604080516060810182526000808252602080830182905292820152825260001990920191018161065a57505060015481519192506001600160a01b03169082906000906106a9576106a9611412565b60209081029190910101516001600160a01b039182169052600454825191169082906000906106da576106da611412565b6020026020010151602001906001600160a01b031690816001600160a01b03168152505060008160008151811061071357610713611412565b602090810291909101015190151560409182015260035490516326207f2d60e21b81526000916001600160a01b031690639881fcb4906107599087908690600401611487565b600060405180830381865afa158015610776573d6000803e3d6000fd5b505050506040513d6000823e601f3d908101601f1916820160405261079e91908101906114a8565b9050806001815181106107b3576107b3611412565b602002602001015192505050919050565b6000546001600160a01b031633146107ee5760405162461bcd60e51b81526004016104be906113c7565b60006107fa828461157c565b90508060641461083a5760405162461bcd60e51b815260206004820152600b60248201526a15dc9bdb99c81d1bdd185b60aa1b60448201526064016104be565b50600591909155600655565b6000546001600160a01b031633146108705760405162461bcd60e51b81526004016104be906113c7565b600a80546001600160a01b0319166001600160a01b0392909216919091179055565b6000546001600160a01b031633146108bc5760405162461bcd60e51b81526004016104be906113c7565b6001600160a01b0381166109215760405162461bcd60e51b815260206004820152602660248201527f4f776e61626c653a206e6577206f776e657220697320746865207a65726f206160448201526564647265737360d01b60648201526084016104be565b61050181610969565b60008061094d600554610947606486610d7e90919063ffffffff16565b90610dc9565b60065490925061096290610947856064610d7e565b9050915091565b600080546001600160a01b038381166001600160a01b0319831681178455604051919092169283917f8be0079c531659141344cd1fd0a4f28419497f9722a3daafe3b4186f6b6457e09190a35050565b600b548110156109fb5760405162461bcd60e51b815260206004820152600d60248201526c6d696e206c6f636b2074696d6560981b60448201526064016104be565b60003411610a375760405162461bcd60e51b81526020600482015260096024820152680f4cae4e4de40cae8d60bb1b60448201526064016104be565b610a4034610e48565b600a5460405163faf1ebfd60e01b8152600481018390526000916001600160a01b03169063faf1ebfd90602401602060405180830381865afa158015610a8a573d6000803e3d6000fd5b505050506040513d601f19601f82011682018060405250810190610aae9190611594565b90508015610b36576000610ac134610640565b90506000610ad483610947846064610d7e565b600854604051632279773760e11b8152600481018390529192506001600160a01b0316906344f2ee6e90602401600060405180830381600087803b158015610b1b57600080fd5b505af1158015610b2f573d6000803e3d6000fd5b5050505050505b600480546040516370a0823160e01b815230928101929092526000916001600160a01b03909116906370a0823190602401602060405180830381865afa158015610b84573d6000803e3d6000fd5b505050506040513d601f19601f82011682018060405250810190610ba89190611594565b905060008111610be85760405162461bcd60e51b815260206004820152600b60248201526a1b9bdd081cddd85c1c195960aa1b60448201526064016104be565b600c5415610c8f57600c54600090610c0590610947846064610d7e565b6004805460405163a9059cbb60e01b81526001600160a01b038981169382019390935260248101849052929350169063a9059cbb906044016020604051808303816000875af1158015610c5c573d6000803e3d6000fd5b505050506040513d601f19601f82011682018060405250810190610c8091906115ad565b50610c8b8282610e90565b9150505b6004805460025460405163095ea7b360e01b81526001600160a01b039182169381019390935260248301849052169063095ea7b3906044016020604051808303816000875af1158015610ce6573d6000803e3d6000fd5b505050506040513d601f19601f82011682018060405250810190610d0a91906115ad565b5060025460405163d4e54c3b60e01b815260048101839052602481018590526001600160a01b0386811660448301529091169063d4e54c3b90606401600060405180830381600087803b158015610d6057600080fd5b505af1158015610d74573d6000803e3d6000fd5b5050505050505050565b6000610dc083836040518060400160405280601a81526020017f536166654d6174683a206469766973696f6e206279207a65726f000000000000815250610ed2565b90505b92915050565b600082610dd857506000610dc3565b6000610de483856115cf565b905082610df185836115ee565b14610dc05760405162461bcd60e51b815260206004820152602160248201527f536166654d6174683a206d756c7469706c69636174696f6e206f766572666c6f6044820152607760f81b60648201526084016104be565b600080610e548361047e565b90925090508115610e7c57600354600454610e7c916001600160a01b03908116911684610f09565b8015610e8b57610e8b81611081565b505050565b6000610dc083836040518060400160405280601e81526020017f536166654d6174683a207375627472616374696f6e206f766572666c6f770000815250611146565b60008183610ef35760405162461bcd60e51b81526004016104be9190611610565b506000610f0084866115ee565b95945050505050565b604080516001808252818301909252600091816020015b6040805160608101825260008082526020808301829052928201528252600019909201910181610f2057505060015481519192506001600160a01b0316908290600090610f6f57610f6f611412565b6020026020010151600001906001600160a01b031690816001600160a01b0316815250508281600081518110610fa757610fa7611412565b6020026020010151602001906001600160a01b031690816001600160a01b031681525050600081600081518110610fe057610fe0611412565b60209081029190910101519015156040909101526001600160a01b03841663e8ef468183600184306110144261070861157c565b6040518663ffffffff1660e01b81526004016110339493929190611665565b60006040518083038185885af1158015611051573d6000803e3d6000fd5b50505050506040513d6000823e601f3d908101601f1916820160405261107a91908101906114a8565b5050505050565b600061108c82610640565b600854604051632279773760e11b8152600481018390529192506001600160a01b0316906344f2ee6e90602401600060405180830381600087803b1580156110d357600080fd5b505af11580156110e7573d6000803e3d6000fd5b505050506000611101600284610d7e90919063ffffffff16565b6007546040519192506001600160a01b03169082156108fc029083906000818181858888f1935050505015801561113c573d6000803e3d6000fd5b50610e8b81611177565b6000818484111561116a5760405162461bcd60e51b81526004016104be9190611610565b506000610f00848661169a565b600061118282610640565b600854604051632279773760e11b8152600481018390529192506001600160a01b0316906344f2ee6e90602401600060405180830381600087803b1580156111c957600080fd5b505af11580156111dd573d6000803e3d6000fd5b50506004805460035460405163095ea7b360e01b81526001600160a01b03918216938101939093526024830186905216925063095ea7b391506044016020604051808303816000875af1158015611238573d6000803e3d6000fd5b505050506040513d601f19601f8201168201806040525081019061125c91906115ad565b506003546004546009546001600160a01b039283169263578caf3292869290821691600091879183918291166112944261038461157c565b60405160e08a901b6001600160e01b03191681526001600160a01b039788166004820152951515602487015260448601949094526064850192909252608484015290921660a482015260c481019190915260e40160606040518083038185885af1158015611306573d6000803e3d6000fd5b50505050506040513d601f19601f8201168201806040525081019061107a91906116b1565b60006020828403121561133d57600080fd5b5035919050565b80356001600160a01b038116811461135b57600080fd5b919050565b60006020828403121561137257600080fd5b610dc082611344565b6000806040838503121561138e57600080fd5b61139783611344565b946020939093013593505050565b600080604083850312156113b857600080fd5b50508035926020909101359150565b6020808252818101527f4f776e61626c653a2063616c6c6572206973206e6f7420746865206f776e6572604082015260600190565b634e487b7160e01b600052604160045260246000fd5b634e487b7160e01b600052603260045260246000fd5b600081518084526020808501945080840160005b8381101561147c57815180516001600160a01b0390811689528482015116848901526040908101511515908801526060909601959082019060010161143c565b509495945050505050565b8281526040602082015260006114a06040830184611428565b949350505050565b600060208083850312156114bb57600080fd5b825167ffffffffffffffff808211156114d357600080fd5b818501915085601f8301126114e757600080fd5b8151818111156114f9576114f96113fc565b8060051b604051601f19603f8301168101818110858211171561151e5761151e6113fc565b60405291825284820192508381018501918883111561153c57600080fd5b938501935b8285101561155a57845184529385019392850192611541565b98975050505050505050565b634e487b7160e01b600052601160045260246000fd5b6000821982111561158f5761158f611566565b500190565b6000602082840312156115a657600080fd5b5051919050565b6000602082840312156115bf57600080fd5b81518015158114610dc057600080fd5b60008160001904831182151516156115e9576115e9611566565b500290565b60008261160b57634e487b7160e01b600052601260045260246000fd5b500490565b600060208083528351808285015260005b8181101561163d57858101830151858201604001528201611621565b8181111561164f576000604083870101525b50601f01601f1916929092016040019392505050565b84815260806020820152600061167e6080830186611428565b6001600160a01b03949094166040830152506060015292915050565b6000828210156116ac576116ac611566565b500390565b6000806000606084860312156116c657600080fd5b835192506020840151915060408401519050925092509256fea2646970667358221220dcb29fb5dc9881351a683d086cac68fc409c99f96e729e64cf590619366380d964736f6c634300080b0033",
  "linkReferences": {},
  "deployedLinkReferences": {}
}