{
  "_format": "hh-sol-artifact-1",
  "contractName": "Fetch",
  "sourceName": "contracts/Fetch.sol",
  "abi": [
    {
      "inputs": [
        {
          "internalType": "address",
          "name": "_dexRouter",
          "type": "address"
        },
        {
          "internalType": "address",
          "name": "_token",
          "type": "address"
        },
        {
          "internalType": "address",
          "name": "_beneficiary",
          "type": "address"
        },
        {
          "internalType": "address",
          "name": "_minter",
          "type": "address"
        },
        {
          "internalType": "address",
          "name": "_VE",
          "type": "address"
        },
        {
          "internalType": "address",
          "name": "_treasury",
          "type": "address"
        },
        {
          "internalType": "address",
          "name": "_formula",
          "type": "address"
        }
      ],
      "stateMutability": "nonpayable",
      "type": "constructor"
    },
    {
      "anonymous": false,
      "inputs": [
        {
          "indexed": true,
          "internalType": "address",
          "name": "previousOwner",
          "type": "address"
        },
        {
          "indexed": true,
          "internalType": "address",
          "name": "newOwner",
          "type": "address"
        }
      ],
      "name": "OwnershipTransferred",
      "type": "event"
    },
    {
      "inputs": [],
      "name": "VE",
      "outputs": [
        {
          "internalType": "contract IVE",
          "name": "",
          "type": "address"
        }
      ],
      "stateMutability": "view",
      "type": "function"
    },
    {
      "inputs": [],
      "name": "WETH",
      "outputs": [
        {
          "internalType": "address",
          "name": "",
          "type": "address"
        }
      ],
      "stateMutability": "view",
      "type": "function"
    },
    {
      "inputs": [],
      "name": "beneficiary",
      "outputs": [
        {
          "internalType": "address",
          "name": "",
          "type": "address"
        }
      ],
      "stateMutability": "view",
      "type": "function"
    },
    {
      "inputs": [
        {
          "internalType": "uint256",
          "name": "ethInput",
          "type": "uint256"
        }
      ],
      "name": "calculateToSplit",
      "outputs": [
        {
          "internalType": "uint256",
          "name": "ethToDex",
          "type": "uint256"
        },
        {
          "internalType": "uint256",
          "name": "ethToSale",
          "type": "uint256"
        }
      ],
      "stateMutability": "view",
      "type": "function"
    },
    {
      "inputs": [],
      "name": "convert",
      "outputs": [],
      "stateMutability": "payable",
      "type": "function"
    },
    {
      "inputs": [
        {
          "internalType": "address",
          "name": "receiver",
          "type": "address"
        }
      ],
      "name": "convertFor",
      "outputs": [],
      "stateMutability": "payable",
      "type": "function"
    },
    {
      "inputs": [
        {
          "internalType": "uint256",
          "name": "_amount",
          "type": "uint256"
        }
      ],
      "name": "depositToken",
      "outputs": [],
      "stateMutability": "nonpayable",
      "type": "function"
    },
    {
      "inputs": [],
      "name": "dexRouter",
      "outputs": [
        {
          "internalType": "address",
          "name": "",
          "type": "address"
        }
      ],
      "stateMutability": "view",
      "type": "function"
    },
    {
      "inputs": [],
      "name": "formula",
      "outputs": [
        {
          "internalType": "contract IFetchFormula",
          "name": "",
          "type": "address"
        }
      ],
      "stateMutability": "view",
      "type": "function"
    },
    {
      "inputs": [
        {
          "internalType": "uint256",
          "name": "_ethAmount",
          "type": "uint256"
        }
      ],
      "name": "getTokenPrice",
      "outputs": [
        {
          "internalType": "uint256",
          "name": "",
          "type": "uint256"
        }
      ],
      "stateMutability": "view",
      "type": "function"
    },
    {
      "inputs": [],
      "name": "minter",
      "outputs": [
        {
          "internalType": "contract IMinter",
          "name": "",
          "type": "address"
        }
      ],
      "stateMutability": "view",
      "type": "function"
    },
    {
      "inputs": [],
      "name": "owner",
      "outputs": [
        {
          "internalType": "address",
          "name": "",
          "type": "address"
        }
      ],
      "stateMutability": "view",
      "type": "function"
    },
    {
      "inputs": [],
      "name": "percentToDex",
      "outputs": [
        {
          "internalType": "uint256",
          "name": "",
          "type": "uint256"
        }
      ],
      "stateMutability": "view",
      "type": "function"
    },
    {
      "inputs": [],
      "name": "percentToSale",
      "outputs": [
        {
          "internalType": "uint256",
          "name": "",
          "type": "uint256"
        }
      ],
      "stateMutability": "view",
      "type": "function"
    },
    {
      "inputs": [],
      "name": "renounceOwnership",
      "outputs": [],
      "stateMutability": "nonpayable",
      "type": "function"
    },
    {
      "inputs": [],
      "name": "token",
      "outputs": [
        {
          "internalType": "address",
          "name": "",
          "type": "address"
        }
      ],
      "stateMutability": "view",
      "type": "function"
    },
    {
      "inputs": [
        {
          "internalType": "address",
          "name": "newOwner",
          "type": "address"
        }
      ],
      "name": "transferOwnership",
      "outputs": [],
      "stateMutability": "nonpayable",
      "type": "function"
    },
    {
      "inputs": [],
      "name": "treasury",
      "outputs": [
        {
          "internalType": "address",
          "name": "",
          "type": "address"
        }
      ],
      "stateMutability": "view",
      "type": "function"
    },
    {
      "inputs": [
        {
          "internalType": "address",
          "name": "_formula",
          "type": "address"
        }
      ],
      "name": "updateFormula",
      "outputs": [],
      "stateMutability": "nonpayable",
      "type": "function"
    },
    {
      "inputs": [
        {
          "internalType": "address",
          "name": "_minter",
          "type": "address"
        }
      ],
      "name": "updateMinter",
      "outputs": [],
      "stateMutability": "nonpayable",
      "type": "function"
    },
    {
      "inputs": [
        {
          "internalType": "uint256",
          "name": "_percentToDex",
          "type": "uint256"
        },
        {
          "internalType": "uint256",
          "name": "_percentToSale",
          "type": "uint256"
        }
      ],
      "name": "updateSplitPercent",
      "outputs": [],
      "stateMutability": "nonpayable",
      "type": "function"
    },
    {
      "inputs": [],
      "name": "withdraw",
      "outputs": [],
      "stateMutability": "nonpayable",
      "type": "function"
    },
    {
      "stateMutability": "payable",
      "type": "receive"
    }
  ],
  "bytecode": "0x60806040526021600555604d6006553480156200001b57600080fd5b506040516200197b3803806200197b8339810160408190526200003e91620001b7565b62000049336200014a565b600380546001600160a01b0319166001600160a01b03891690811790915560408051637a7a2da360e11b8152905163f4f45b46916004808201926020929091908290030181865afa158015620000a3573d6000803e3d6000fd5b505050506040513d601f19601f82011682018060405250810190620000c991906200024c565b600180546001600160a01b03199081166001600160a01b039384161790915560048054821698831698909817909755600780548816968216969096179095556008805487169486169490941790935560028054861692851692909217909155600980548516918416919091179055600a805490931691161790555062000271565b600080546001600160a01b038381166001600160a01b0319831681178455604051919092169283917f8be0079c531659141344cd1fd0a4f28419497f9722a3daafe3b4186f6b6457e09190a35050565b80516001600160a01b0381168114620001b257600080fd5b919050565b600080600080600080600060e0888a031215620001d357600080fd5b620001de886200019a565b9650620001ee602089016200019a565b9550620001fe604089016200019a565b94506200020e606089016200019a565b93506200021e608089016200019a565b92506200022e60a089016200019a565b91506200023e60c089016200019a565b905092959891949750929550565b6000602082840312156200025f57600080fd5b6200026a826200019a565b9392505050565b6116fa80620002816000396000f3fe6080604052600436106101395760003560e01c80638da5cb5b116100ab578063c757e5b51161006f578063c757e5b514610340578063c863657d14610360578063d5b49a7114610380578063dfa53724146103a0578063f2fde38b146103b6578063fc0c546a146103d657600080fd5b80638da5cb5b146102c757806391bbdcc7146102e5578063ad5c4648146102ed578063c02c36c21461030d578063c457fb371461032057600080fd5b80634b75f54f116100fd5780634b75f54f1461020e5780634eb03f6e1461022e5780634f783ed01461024e57806361d027b3146102725780636215be7714610292578063715018a6146102b257600080fd5b806307546172146101455780630758d9241461018257806338af3eed146101a25780633a5b08e7146101c25780633ccfd60b146101f757600080fd5b3661014057005b600080fd5b34801561015157600080fd5b50600854610165906001600160a01b031681565b6040516001600160a01b0390911681526020015b60405180910390f35b34801561018e57600080fd5b50600354610165906001600160a01b031681565b3480156101ae57600080fd5b50600754610165906001600160a01b031681565b3480156101ce57600080fd5b506101e26101dd36600461135f565b6103f6565b60408051928352602083019190915201610179565b34801561020357600080fd5b5061020c61040c565b005b34801561021a57600080fd5b50600a54610165906001600160a01b031681565b34801561023a57600080fd5b5061020c610249366004611378565b61047c565b34801561025a57600080fd5b5061026460065481565b604051908152602001610179565b34801561027e57600080fd5b50600954610165906001600160a01b031681565b34801561029e57600080fd5b5061020c6102ad36600461135f565b6104c8565b3480156102be57600080fd5b5061020c610733565b3480156102d357600080fd5b506000546001600160a01b0316610165565b61020c610769565b3480156102f957600080fd5b50600154610165906001600160a01b031681565b61020c61031b366004611378565b610772565b34801561032c57600080fd5b5061026461033b36600461135f565b61077b565b34801561034c57600080fd5b5061020c61035b3660046113a1565b6108ff565b34801561036c57600080fd5b50600254610165906001600160a01b031681565b34801561038c57600080fd5b5061020c61039b366004611378565b610981565b3480156103ac57600080fd5b5061026460055481565b3480156103c257600080fd5b5061020c6103d1366004611378565b6109cd565b3480156103e257600080fd5b50600454610165906001600160a01b031681565b60008061040283610a65565b9094909350915050565b6000546001600160a01b0316331461043f5760405162461bcd60e51b8152600401610436906113c3565b60405180910390fd5b600080546040516001600160a01b03909116914780156108fc02929091818181858888f19350505050158015610479573d6000803e3d6000fd5b50565b6000546001600160a01b031633146104a65760405162461bcd60e51b8152600401610436906113c3565b600880546001600160a01b0319166001600160a01b0392909216919091179055565b600480546040516323b872dd60e01b81523392810192909252306024830152604482018390526001600160a01b0316906323b872dd906064016020604051808303816000875af1158015610520573d6000803e3d6000fd5b505050506040513d601f19601f8201168201806040525081019061054491906113f8565b50600a546040805163becf3add60e01b815290516000926001600160a01b03169163becf3add9160048083019260209291908290030181865afa15801561058f573d6000803e3d6000fd5b505050506040513d601f19601f820116820180604052508101906105b3919061141a565b905060008115610632576105d2826105cc856064610a9e565b90610ae9565b600854604051632279773760e11b8152600481018390529192506001600160a01b0316906344f2ee6e90602401600060405180830381600087803b15801561061957600080fd5b505af115801561062d573d6000803e3d6000fd5b505050505b600061063e8483610b68565b6004805460025460405163095ea7b360e01b81526001600160a01b039182169381019390935260248301849052929350919091169063095ea7b3906044016020604051808303816000875af115801561069b573d6000803e3d6000fd5b505050506040513d601f19601f820116820180604052508101906106bf91906113f8565b5060025460405163d4e54c3b60e01b8152600481018390526293a80060248201523360448201526001600160a01b039091169063d4e54c3b90606401600060405180830381600087803b15801561071557600080fd5b505af1158015610729573d6000803e3d6000fd5b5050505050505050565b6000546001600160a01b0316331461075d5760405162461bcd60e51b8152600401610436906113c3565b6107676000610bc7565b565b61076733610c17565b61047981610c17565b604080516001808252818301909252600091829190816020015b604080516060810182526000808252602080830182905292820152825260001990920191018161079557505060015481519192506001600160a01b03169082906000906107e4576107e4611449565b60209081029190910101516001600160a01b0391821690526004548251911690829060009061081557610815611449565b6020026020010151602001906001600160a01b031690816001600160a01b03168152505060008160008151811061084e5761084e611449565b602090810291909101015190151560409182015260035490516326207f2d60e21b81526000916001600160a01b031690639881fcb49061089490879086906004016114be565b600060405180830381865afa1580156108b1573d6000803e3d6000fd5b505050506040513d6000823e601f3d908101601f191682016040526108d991908101906114df565b9050806001815181106108ee576108ee611449565b602002602001015192505050919050565b6000546001600160a01b031633146109295760405162461bcd60e51b8152600401610436906113c3565b600061093582846115b3565b9050806064146109755760405162461bcd60e51b815260206004820152600b60248201526a15dc9bdb99c81d1bdd185b60aa1b6044820152606401610436565b50600591909155600655565b6000546001600160a01b031633146109ab5760405162461bcd60e51b8152600401610436906113c3565b600a80546001600160a01b0319166001600160a01b0392909216919091179055565b6000546001600160a01b031633146109f75760405162461bcd60e51b8152600401610436906113c3565b6001600160a01b038116610a5c5760405162461bcd60e51b815260206004820152602660248201527f4f776e61626c653a206e6577206f776e657220697320746865207a65726f206160448201526564647265737360d01b6064820152608401610436565b61047981610bc7565b600080610a826005546105cc606486610a9e90919063ffffffff16565b600654909250610a97906105cc856064610a9e565b9050915091565b6000610ae083836040518060400160405280601a81526020017f536166654d6174683a206469766973696f6e206279207a65726f000000000000815250610ef4565b90505b92915050565b600082610af857506000610ae3565b6000610b0483856115cb565b905082610b1185836115ea565b14610ae05760405162461bcd60e51b815260206004820152602160248201527f536166654d6174683a206d756c7469706c69636174696f6e206f766572666c6f6044820152607760f81b6064820152608401610436565b600080610b7583856115b3565b905083811015610ae05760405162461bcd60e51b815260206004820152601b60248201527f536166654d6174683a206164646974696f6e206f766572666c6f7700000000006044820152606401610436565b600080546001600160a01b038381166001600160a01b0319831681178455604051919092169283917f8be0079c531659141344cd1fd0a4f28419497f9722a3daafe3b4186f6b6457e09190a35050565b60003411610c535760405162461bcd60e51b81526020600482015260096024820152680f4cae4e4de40cae8d60bb1b6044820152606401610436565b610c5c34610f2b565b600a546040805163becf3add60e01b815290516000926001600160a01b03169163becf3add9160048083019260209291908290030181865afa158015610ca6573d6000803e3d6000fd5b505050506040513d601f19601f82011682018060405250810190610cca919061141a565b90508015610d52576000610cdd3461077b565b90506000610cf0836105cc846064610a9e565b600854604051632279773760e11b8152600481018390529192506001600160a01b0316906344f2ee6e90602401600060405180830381600087803b158015610d3757600080fd5b505af1158015610d4b573d6000803e3d6000fd5b5050505050505b600480546040516370a0823160e01b815230928101929092526000916001600160a01b03909116906370a0823190602401602060405180830381865afa158015610da0573d6000803e3d6000fd5b505050506040513d601f19601f82011682018060405250810190610dc4919061141a565b905060008111610e045760405162461bcd60e51b815260206004820152600b60248201526a1b9bdd081cddd85c1c195960aa1b6044820152606401610436565b6004805460025460405163095ea7b360e01b81526001600160a01b039182169381019390935260248301849052169063095ea7b3906044016020604051808303816000875af1158015610e5b573d6000803e3d6000fd5b505050506040513d601f19601f82011682018060405250810190610e7f91906113f8565b5060025460405163d4e54c3b60e01b8152600481018390526293a80060248201526001600160a01b0385811660448301529091169063d4e54c3b90606401600060405180830381600087803b158015610ed757600080fd5b505af1158015610eeb573d6000803e3d6000fd5b50505050505050565b60008183610f155760405162461bcd60e51b8152600401610436919061160c565b506000610f2284866115ea565b95945050505050565b600080610f37836103f6565b90925090508115610f5f57600354600454610f5f916001600160a01b03908116911684610f73565b8015610f6e57610f6e816110eb565b505050565b604080516001808252818301909252600091816020015b6040805160608101825260008082526020808301829052928201528252600019909201910181610f8a57505060015481519192506001600160a01b0316908290600090610fd957610fd9611449565b6020026020010151600001906001600160a01b031690816001600160a01b031681525050828160008151811061101157611011611449565b6020026020010151602001906001600160a01b031690816001600160a01b03168152505060008160008151811061104a5761104a611449565b60209081029190910101519015156040909101526001600160a01b03841663e8ef4681836001843061107e426107086115b3565b6040518663ffffffff1660e01b815260040161109d9493929190611661565b60006040518083038185885af11580156110bb573d6000803e3d6000fd5b50505050506040513d6000823e601f3d908101601f191682016040526110e491908101906114df565b5050505050565b60006110f68261077b565b600854604051632279773760e11b8152600481018390529192506001600160a01b0316906344f2ee6e90602401600060405180830381600087803b15801561113d57600080fd5b505af1158015611151573d6000803e3d6000fd5b50505050600061116b600284610a9e90919063ffffffff16565b6007546040519192506001600160a01b03169082156108fc029083906000818181858888f193505050501580156111a6573d6000803e3d6000fd5b50610f6e8160006111b68261077b565b600854604051632279773760e11b8152600481018390529192506001600160a01b0316906344f2ee6e90602401600060405180830381600087803b1580156111fd57600080fd5b505af1158015611211573d6000803e3d6000fd5b50506004805460035460405163095ea7b360e01b81526001600160a01b03918216938101939093526024830186905216925063095ea7b391506044016020604051808303816000875af115801561126c573d6000803e3d6000fd5b505050506040513d601f19601f8201168201806040525081019061129091906113f8565b506003546004546009546001600160a01b039283169263578caf3292869290821691600091879183918291166112c8426103846115b3565b60405160e08a901b6001600160e01b03191681526001600160a01b039788166004820152951515602487015260448601949094526064850192909252608484015290921660a482015260c481019190915260e40160606040518083038185885af115801561133a573d6000803e3d6000fd5b50505050506040513d601f19601f820116820180604052508101906110e49190611696565b60006020828403121561137157600080fd5b5035919050565b60006020828403121561138a57600080fd5b81356001600160a01b0381168114610ae057600080fd5b600080604083850312156113b457600080fd5b50508035926020909101359150565b6020808252818101527f4f776e61626c653a2063616c6c6572206973206e6f7420746865206f776e6572604082015260600190565b60006020828403121561140a57600080fd5b81518015158114610ae057600080fd5b60006020828403121561142c57600080fd5b5051919050565b634e487b7160e01b600052604160045260246000fd5b634e487b7160e01b600052603260045260246000fd5b600081518084526020808501945080840160005b838110156114b357815180516001600160a01b03908116895284820151168489015260409081015115159088015260609096019590820190600101611473565b509495945050505050565b8281526040602082015260006114d7604083018461145f565b949350505050565b600060208083850312156114f257600080fd5b825167ffffffffffffffff8082111561150a57600080fd5b818501915085601f83011261151e57600080fd5b81518181111561153057611530611433565b8060051b604051601f19603f8301168101818110858211171561155557611555611433565b60405291825284820192508381018501918883111561157357600080fd5b938501935b8285101561159157845184529385019392850192611578565b98975050505050505050565b634e487b7160e01b600052601160045260246000fd5b600082198211156115c6576115c661159d565b500190565b60008160001904831182151516156115e5576115e561159d565b500290565b60008261160757634e487b7160e01b600052601260045260246000fd5b500490565b600060208083528351808285015260005b818110156116395785810183015185820160400152820161161d565b8181111561164b576000604083870101525b50601f01601f1916929092016040019392505050565b84815260806020820152600061167a608083018661145f565b6001600160a01b03949094166040830152506060015292915050565b6000806000606084860312156116ab57600080fd5b835192506020840151915060408401519050925092509256fea26469706673582212201df2a26775d5c28583622e2cda7fd5178303c956c65ddb355f9f7ddafbcb968664736f6c634300080b0033",
  "linkReferences": {},
  "deployedLinkReferences": {}
}