{
  "_format": "hh-sol-artifact-1",
  "contractName": "Fetch",
  "sourceName": "contracts/Fetch.sol",
  "abi": [
    {
      "inputs": [
        {
          "internalType": "address",
          "name": "_dexRouter",
          "type": "address"
        },
        {
          "internalType": "address",
          "name": "_token",
          "type": "address"
        },
        {
          "internalType": "address",
          "name": "_beneficiary",
          "type": "address"
        },
        {
          "internalType": "address",
          "name": "_minter",
          "type": "address"
        },
        {
          "internalType": "address",
          "name": "_VE",
          "type": "address"
        },
        {
          "internalType": "address",
          "name": "_treasury",
          "type": "address"
        },
        {
          "internalType": "address",
          "name": "_formula",
          "type": "address"
        },
        {
          "internalType": "uint256",
          "name": "_minLockTime",
          "type": "uint256"
        }
      ],
      "stateMutability": "nonpayable",
      "type": "constructor"
    },
    {
      "anonymous": false,
      "inputs": [
        {
          "indexed": true,
          "internalType": "address",
          "name": "previousOwner",
          "type": "address"
        },
        {
          "indexed": true,
          "internalType": "address",
          "name": "newOwner",
          "type": "address"
        }
      ],
      "name": "OwnershipTransferred",
      "type": "event"
    },
    {
      "inputs": [],
      "name": "VE",
      "outputs": [
        {
          "internalType": "contract IVE",
          "name": "",
          "type": "address"
        }
      ],
      "stateMutability": "view",
      "type": "function"
    },
    {
      "inputs": [],
      "name": "WETH",
      "outputs": [
        {
          "internalType": "address",
          "name": "",
          "type": "address"
        }
      ],
      "stateMutability": "view",
      "type": "function"
    },
    {
      "inputs": [],
      "name": "beneficiary",
      "outputs": [
        {
          "internalType": "address",
          "name": "",
          "type": "address"
        }
      ],
      "stateMutability": "view",
      "type": "function"
    },
    {
      "inputs": [
        {
          "internalType": "uint256",
          "name": "ethInput",
          "type": "uint256"
        }
      ],
      "name": "calculateToSplit",
      "outputs": [
        {
          "internalType": "uint256",
          "name": "ethToDex",
          "type": "uint256"
        },
        {
          "internalType": "uint256",
          "name": "ethToSale",
          "type": "uint256"
        }
      ],
      "stateMutability": "view",
      "type": "function"
    },
    {
      "inputs": [
        {
          "internalType": "uint256",
          "name": "_lockTime",
          "type": "uint256"
        }
      ],
      "name": "convert",
      "outputs": [],
      "stateMutability": "payable",
      "type": "function"
    },
    {
      "inputs": [
        {
          "internalType": "address",
          "name": "receiver",
          "type": "address"
        },
        {
          "internalType": "uint256",
          "name": "_lockTime",
          "type": "uint256"
        }
      ],
      "name": "convertFor",
      "outputs": [],
      "stateMutability": "payable",
      "type": "function"
    },
    {
      "inputs": [
        {
          "internalType": "uint256",
          "name": "_amount",
          "type": "uint256"
        },
        {
          "internalType": "uint256",
          "name": "_lockTime",
          "type": "uint256"
        }
      ],
      "name": "depositToken",
      "outputs": [],
      "stateMutability": "nonpayable",
      "type": "function"
    },
    {
      "inputs": [],
      "name": "dexRouter",
      "outputs": [
        {
          "internalType": "address",
          "name": "",
          "type": "address"
        }
      ],
      "stateMutability": "view",
      "type": "function"
    },
    {
      "inputs": [],
      "name": "formula",
      "outputs": [
        {
          "internalType": "contract IFetchFormula",
          "name": "",
          "type": "address"
        }
      ],
      "stateMutability": "view",
      "type": "function"
    },
    {
      "inputs": [
        {
          "internalType": "uint256",
          "name": "_ethAmount",
          "type": "uint256"
        }
      ],
      "name": "getTokenPrice",
      "outputs": [
        {
          "internalType": "uint256",
          "name": "",
          "type": "uint256"
        }
      ],
      "stateMutability": "view",
      "type": "function"
    },
    {
      "inputs": [],
      "name": "minLockTime",
      "outputs": [
        {
          "internalType": "uint256",
          "name": "",
          "type": "uint256"
        }
      ],
      "stateMutability": "view",
      "type": "function"
    },
    {
      "inputs": [],
      "name": "minter",
      "outputs": [
        {
          "internalType": "contract IMinter",
          "name": "",
          "type": "address"
        }
      ],
      "stateMutability": "view",
      "type": "function"
    },
    {
      "inputs": [],
      "name": "owner",
      "outputs": [
        {
          "internalType": "address",
          "name": "",
          "type": "address"
        }
      ],
      "stateMutability": "view",
      "type": "function"
    },
    {
      "inputs": [],
      "name": "percentSendNow",
      "outputs": [
        {
          "internalType": "uint256",
          "name": "",
          "type": "uint256"
        }
      ],
      "stateMutability": "view",
      "type": "function"
    },
    {
      "inputs": [],
      "name": "percentToDex",
      "outputs": [
        {
          "internalType": "uint256",
          "name": "",
          "type": "uint256"
        }
      ],
      "stateMutability": "view",
      "type": "function"
    },
    {
      "inputs": [],
      "name": "percentToSale",
      "outputs": [
        {
          "internalType": "uint256",
          "name": "",
          "type": "uint256"
        }
      ],
      "stateMutability": "view",
      "type": "function"
    },
    {
      "inputs": [],
      "name": "renounceOwnership",
      "outputs": [],
      "stateMutability": "nonpayable",
      "type": "function"
    },
    {
      "inputs": [],
      "name": "token",
      "outputs": [
        {
          "internalType": "address",
          "name": "",
          "type": "address"
        }
      ],
      "stateMutability": "view",
      "type": "function"
    },
    {
      "inputs": [
        {
          "internalType": "address",
          "name": "newOwner",
          "type": "address"
        }
      ],
      "name": "transferOwnership",
      "outputs": [],
      "stateMutability": "nonpayable",
      "type": "function"
    },
    {
      "inputs": [],
      "name": "treasury",
      "outputs": [
        {
          "internalType": "address",
          "name": "",
          "type": "address"
        }
      ],
      "stateMutability": "view",
      "type": "function"
    },
    {
      "inputs": [
        {
          "internalType": "address",
          "name": "_formula",
          "type": "address"
        }
      ],
      "name": "updateFormula",
      "outputs": [],
      "stateMutability": "nonpayable",
      "type": "function"
    },
    {
      "inputs": [
        {
          "internalType": "uint256",
          "name": "_minLockTime",
          "type": "uint256"
        }
      ],
      "name": "updateMinLockTime",
      "outputs": [],
      "stateMutability": "nonpayable",
      "type": "function"
    },
    {
      "inputs": [
        {
          "internalType": "address",
          "name": "_minter",
          "type": "address"
        }
      ],
      "name": "updateMinter",
      "outputs": [],
      "stateMutability": "nonpayable",
      "type": "function"
    },
    {
      "inputs": [
        {
          "internalType": "uint256",
          "name": "_percentSendNow",
          "type": "uint256"
        }
      ],
      "name": "updatePercentSendNow",
      "outputs": [],
      "stateMutability": "nonpayable",
      "type": "function"
    },
    {
      "inputs": [
        {
          "internalType": "uint256",
          "name": "_percentToDex",
          "type": "uint256"
        },
        {
          "internalType": "uint256",
          "name": "_percentToSale",
          "type": "uint256"
        }
      ],
      "name": "updateSplitPercent",
      "outputs": [],
      "stateMutability": "nonpayable",
      "type": "function"
    },
    {
      "inputs": [],
      "name": "withdraw",
      "outputs": [],
      "stateMutability": "nonpayable",
      "type": "function"
    },
    {
      "stateMutability": "payable",
      "type": "receive"
    }
  ],
  "bytecode": "0x6080604052602160055560436006556001600c553480156200002057600080fd5b5060405162001caa38038062001caa8339810160408190526200004391620001c3565b6200004e3362000156565b600380546001600160a01b0319166001600160a01b038a1690811790915560408051637a7a2da360e11b8152905163f4f45b46916004808201926020929091908290030181865afa158015620000a8573d6000803e3d6000fd5b505050506040513d601f19601f82011682018060405250810190620000ce919062000262565b600180546001600160a01b03199081166001600160a01b039384161790915560048054821699831699909917909855600780548916978216979097179096556008805488169587169590951790945560028054871693861693909317909255600980548616918516919091179055600a8054909416921691909117909155600b555062000287565b600080546001600160a01b038381166001600160a01b0319831681178455604051919092169283917f8be0079c531659141344cd1fd0a4f28419497f9722a3daafe3b4186f6b6457e09190a35050565b80516001600160a01b0381168114620001be57600080fd5b919050565b600080600080600080600080610100898b031215620001e157600080fd5b620001ec89620001a6565b9750620001fc60208a01620001a6565b96506200020c60408a01620001a6565b95506200021c60608a01620001a6565b94506200022c60808a01620001a6565b93506200023c60a08a01620001a6565b92506200024c60c08a01620001a6565b915060e089015190509295985092959890939650565b6000602082840312156200027557600080fd5b6200028082620001a6565b9392505050565b611a1380620002976000396000f3fe6080604052600436106101855760003560e01c8063a3908e1b116100d1578063c757e5b51161008a578063dfa5372411610064578063dfa537241461044d578063f2fde38b14610463578063fbde9a9f14610483578063fc0c546a1461049957600080fd5b8063c757e5b5146103ed578063c863657d1461040d578063d5b49a711461042d57600080fd5b8063a3908e1b14610351578063a60ff76614610364578063aaa073621461037a578063ad5c46481461038d578063bf793939146103ad578063c457fb37146103cd57600080fd5b80634eb03f6e1161013e578063715018a611610118578063715018a6146102de57806378b30ecc146102f35780638da5cb5b146103135780639d2d04d11461033157600080fd5b80634eb03f6e1461027a5780634f783ed01461029a57806361d027b3146102be57600080fd5b806307546172146101915780630758d924146101ce57806338af3eed146101ee5780633a5b08e71461020e5780633ccfd60b146102435780634b75f54f1461025a57600080fd5b3661018c57005b600080fd5b34801561019d57600080fd5b506008546101b1906001600160a01b031681565b6040516001600160a01b0390911681526020015b60405180910390f35b3480156101da57600080fd5b506003546101b1906001600160a01b031681565b3480156101fa57600080fd5b506007546101b1906001600160a01b031681565b34801561021a57600080fd5b5061022e610229366004611629565b6104b9565b604080519283526020830191909152016101c5565b34801561024f57600080fd5b506102586104cf565b005b34801561026657600080fd5b50600a546101b1906001600160a01b031681565b34801561028657600080fd5b5061025861029536600461165e565b61053f565b3480156102a657600080fd5b506102b060065481565b6040519081526020016101c5565b3480156102ca57600080fd5b506009546101b1906001600160a01b031681565b3480156102ea57600080fd5b5061025861058b565b3480156102ff57600080fd5b5061025861030e366004611629565b6105c1565b34801561031f57600080fd5b506000546001600160a01b03166101b1565b34801561033d57600080fd5b5061025861034c366004611679565b610634565b61025861035f366004611629565b61089e565b34801561037057600080fd5b506102b0600b5481565b61025861038836600461169b565b6108a8565b34801561039957600080fd5b506001546101b1906001600160a01b031681565b3480156103b957600080fd5b506102586103c8366004611629565b6108b6565b3480156103d957600080fd5b506102b06103e8366004611629565b6108e5565b3480156103f957600080fd5b50610258610408366004611679565b610a69565b34801561041957600080fd5b506002546101b1906001600160a01b031681565b34801561043957600080fd5b5061025861044836600461165e565b610aeb565b34801561045957600080fd5b506102b060055481565b34801561046f57600080fd5b5061025861047e36600461165e565b610b37565b34801561048f57600080fd5b506102b0600c5481565b3480156104a557600080fd5b506004546101b1906001600160a01b031681565b6000806104c583610bcf565b9094909350915050565b6000546001600160a01b031633146105025760405162461bcd60e51b81526004016104f9906116c5565b60405180910390fd5b600080546040516001600160a01b03909116914780156108fc02929091818181858888f1935050505015801561053c573d6000803e3d6000fd5b50565b6000546001600160a01b031633146105695760405162461bcd60e51b81526004016104f9906116c5565b600880546001600160a01b0319166001600160a01b0392909216919091179055565b6000546001600160a01b031633146105b55760405162461bcd60e51b81526004016104f9906116c5565b6105bf6000610c08565b565b6000546001600160a01b031633146105eb5760405162461bcd60e51b81526004016104f9906116c5565b606481111561062f5760405162461bcd60e51b815260206004820152601060248201526f50657263656e74206f766572666c6f7760801b60448201526064016104f9565b600c55565b600480546040516323b872dd60e01b81523392810192909252306024830152604482018490526001600160a01b0316906323b872dd906064016020604051808303816000875af115801561068c573d6000803e3d6000fd5b505050506040513d601f19601f820116820180604052508101906106b091906116fa565b50600a5460405163faf1ebfd60e01b8152600481018390526000916001600160a01b03169063faf1ebfd90602401602060405180830381865afa1580156106fb573d6000803e3d6000fd5b505050506040513d601f19601f8201168201806040525081019061071f919061171c565b90506000811561079e5761073e82610738866064610c58565b90610ca3565b600854604051632279773760e11b8152600481018390529192506001600160a01b0316906344f2ee6e90602401600060405180830381600087803b15801561078557600080fd5b505af1158015610799573d6000803e3d6000fd5b505050505b60006107aa8583610d22565b6004805460025460405163095ea7b360e01b81526001600160a01b039182169381019390935260248301849052929350919091169063095ea7b3906044016020604051808303816000875af1158015610807573d6000803e3d6000fd5b505050506040513d601f19601f8201168201806040525081019061082b91906116fa565b5060025460405163d4e54c3b60e01b815260048101839052602481018690523360448201526001600160a01b039091169063d4e54c3b90606401600060405180830381600087803b15801561087f57600080fd5b505af1158015610893573d6000803e3d6000fd5b505050505050505050565b61053c3382610d81565b6108b28282610d81565b5050565b6000546001600160a01b031633146108e05760405162461bcd60e51b81526004016104f9906116c5565b600b55565b604080516001808252818301909252600091829190816020015b60408051606081018252600080825260208083018290529282015282526000199092019101816108ff57505060015481519192506001600160a01b031690829060009061094e5761094e61174b565b60209081029190910101516001600160a01b0391821690526004548251911690829060009061097f5761097f61174b565b6020026020010151602001906001600160a01b031690816001600160a01b0316815250506000816000815181106109b8576109b861174b565b602090810291909101015190151560409182015260035490516326207f2d60e21b81526000916001600160a01b031690639881fcb4906109fe90879086906004016117c0565b600060405180830381865afa158015610a1b573d6000803e3d6000fd5b505050506040513d6000823e601f3d908101601f19168201604052610a4391908101906117e1565b905080600181518110610a5857610a5861174b565b602002602001015192505050919050565b6000546001600160a01b03163314610a935760405162461bcd60e51b81526004016104f9906116c5565b6000610a9f82846118b5565b905080606414610adf5760405162461bcd60e51b815260206004820152600b60248201526a15dc9bdb99c81d1bdd185b60aa1b60448201526064016104f9565b50600591909155600655565b6000546001600160a01b03163314610b155760405162461bcd60e51b81526004016104f9906116c5565b600a80546001600160a01b0319166001600160a01b0392909216919091179055565b6000546001600160a01b03163314610b615760405162461bcd60e51b81526004016104f9906116c5565b6001600160a01b038116610bc65760405162461bcd60e51b815260206004820152602660248201527f4f776e61626c653a206e6577206f776e657220697320746865207a65726f206160448201526564647265737360d01b60648201526084016104f9565b61053c81610c08565b600080610bec600554610738606486610c5890919063ffffffff16565b600654909250610c0190610738856064610c58565b9050915091565b600080546001600160a01b038381166001600160a01b0319831681178455604051919092169283917f8be0079c531659141344cd1fd0a4f28419497f9722a3daafe3b4186f6b6457e09190a35050565b6000610c9a83836040518060400160405280601a81526020017f536166654d6174683a206469766973696f6e206279207a65726f000000000000815250611146565b90505b92915050565b600082610cb257506000610c9d565b6000610cbe83856118cd565b905082610ccb85836118ec565b14610c9a5760405162461bcd60e51b815260206004820152602160248201527f536166654d6174683a206d756c7469706c69636174696f6e206f766572666c6f6044820152607760f81b60648201526084016104f9565b600080610d2f83856118b5565b905083811015610c9a5760405162461bcd60e51b815260206004820152601b60248201527f536166654d6174683a206164646974696f6e206f766572666c6f77000000000060448201526064016104f9565b600b54811015610dc35760405162461bcd60e51b815260206004820152600d60248201526c6d696e206c6f636b2074696d6560981b60448201526064016104f9565b60003411610dff5760405162461bcd60e51b81526020600482015260096024820152680f4cae4e4de40cae8d60bb1b60448201526064016104f9565b610e083461117d565b600a5460405163faf1ebfd60e01b8152600481018390526000916001600160a01b03169063faf1ebfd90602401602060405180830381865afa158015610e52573d6000803e3d6000fd5b505050506040513d601f19601f82011682018060405250810190610e76919061171c565b90508015610efe576000610e89346108e5565b90506000610e9c83610738846064610c58565b600854604051632279773760e11b8152600481018390529192506001600160a01b0316906344f2ee6e90602401600060405180830381600087803b158015610ee357600080fd5b505af1158015610ef7573d6000803e3d6000fd5b5050505050505b600480546040516370a0823160e01b815230928101929092526000916001600160a01b03909116906370a0823190602401602060405180830381865afa158015610f4c573d6000803e3d6000fd5b505050506040513d601f19601f82011682018060405250810190610f70919061171c565b905060008111610fb05760405162461bcd60e51b815260206004820152600b60248201526a1b9bdd081cddd85c1c195960aa1b60448201526064016104f9565b600c541561105757600c54600090610fcd90610738846064610c58565b6004805460405163a9059cbb60e01b81526001600160a01b038981169382019390935260248101849052929350169063a9059cbb906044016020604051808303816000875af1158015611024573d6000803e3d6000fd5b505050506040513d601f19601f8201168201806040525081019061104891906116fa565b5061105382826111c5565b9150505b6004805460025460405163095ea7b360e01b81526001600160a01b039182169381019390935260248301849052169063095ea7b3906044016020604051808303816000875af11580156110ae573d6000803e3d6000fd5b505050506040513d601f19601f820116820180604052508101906110d291906116fa565b5060025460405163d4e54c3b60e01b815260048101839052602481018590526001600160a01b0386811660448301529091169063d4e54c3b90606401600060405180830381600087803b15801561112857600080fd5b505af115801561113c573d6000803e3d6000fd5b5050505050505050565b600081836111675760405162461bcd60e51b81526004016104f9919061190e565b50600061117484866118ec565b95945050505050565b600080611189836104b9565b909250905081156111b1576003546004546111b1916001600160a01b03908116911684611207565b80156111c0576111c08161137f565b505050565b6000610c9a83836040518060400160405280601e81526020017f536166654d6174683a207375627472616374696f6e206f766572666c6f770000815250611444565b604080516001808252818301909252600091816020015b604080516060810182526000808252602080830182905292820152825260001990920191018161121e57505060015481519192506001600160a01b031690829060009061126d5761126d61174b565b6020026020010151600001906001600160a01b031690816001600160a01b03168152505082816000815181106112a5576112a561174b565b6020026020010151602001906001600160a01b031690816001600160a01b0316815250506000816000815181106112de576112de61174b565b60209081029190910101519015156040909101526001600160a01b03841663e8ef46818360018430611312426107086118b5565b6040518663ffffffff1660e01b81526004016113319493929190611963565b60006040518083038185885af115801561134f573d6000803e3d6000fd5b50505050506040513d6000823e601f3d908101601f1916820160405261137891908101906117e1565b5050505050565b600061138a826108e5565b600854604051632279773760e11b8152600481018390529192506001600160a01b0316906344f2ee6e90602401600060405180830381600087803b1580156113d157600080fd5b505af11580156113e5573d6000803e3d6000fd5b5050505060006113ff600284610c5890919063ffffffff16565b6007546040519192506001600160a01b03169082156108fc029083906000818181858888f1935050505015801561143a573d6000803e3d6000fd5b506111c081611475565b600081848411156114685760405162461bcd60e51b81526004016104f9919061190e565b5060006111748486611998565b6000611480826108e5565b600854604051632279773760e11b8152600481018390529192506001600160a01b0316906344f2ee6e90602401600060405180830381600087803b1580156114c757600080fd5b505af11580156114db573d6000803e3d6000fd5b50506004805460035460405163095ea7b360e01b81526001600160a01b03918216938101939093526024830186905216925063095ea7b391506044016020604051808303816000875af1158015611536573d6000803e3d6000fd5b505050506040513d601f19601f8201168201806040525081019061155a91906116fa565b506003546004546009546001600160a01b039283169263578caf329286929082169160009187918391829116611592426103846118b5565b60405160e08a901b6001600160e01b03191681526001600160a01b039788166004820152951515602487015260448601949094526064850192909252608484015290921660a482015260c481019190915260e40160606040518083038185885af1158015611604573d6000803e3d6000fd5b50505050506040513d601f19601f8201168201806040525081019061137891906119af565b60006020828403121561163b57600080fd5b5035919050565b80356001600160a01b038116811461165957600080fd5b919050565b60006020828403121561167057600080fd5b610c9a82611642565b6000806040838503121561168c57600080fd5b50508035926020909101359150565b600080604083850312156116ae57600080fd5b6116b783611642565b946020939093013593505050565b6020808252818101527f4f776e61626c653a2063616c6c6572206973206e6f7420746865206f776e6572604082015260600190565b60006020828403121561170c57600080fd5b81518015158114610c9a57600080fd5b60006020828403121561172e57600080fd5b5051919050565b634e487b7160e01b600052604160045260246000fd5b634e487b7160e01b600052603260045260246000fd5b600081518084526020808501945080840160005b838110156117b557815180516001600160a01b03908116895284820151168489015260409081015115159088015260609096019590820190600101611775565b509495945050505050565b8281526040602082015260006117d96040830184611761565b949350505050565b600060208083850312156117f457600080fd5b825167ffffffffffffffff8082111561180c57600080fd5b818501915085601f83011261182057600080fd5b81518181111561183257611832611735565b8060051b604051601f19603f8301168101818110858211171561185757611857611735565b60405291825284820192508381018501918883111561187557600080fd5b938501935b828510156118935784518452938501939285019261187a565b98975050505050505050565b634e487b7160e01b600052601160045260246000fd5b600082198211156118c8576118c861189f565b500190565b60008160001904831182151516156118e7576118e761189f565b500290565b60008261190957634e487b7160e01b600052601260045260246000fd5b500490565b600060208083528351808285015260005b8181101561193b5785810183015185820160400152820161191f565b8181111561194d576000604083870101525b50601f01601f1916929092016040019392505050565b84815260806020820152600061197c6080830186611761565b6001600160a01b03949094166040830152506060015292915050565b6000828210156119aa576119aa61189f565b500390565b6000806000606084860312156119c457600080fd5b835192506020840151915060408401519050925092509256fea2646970667358221220fc8a989b95662d1aaadfd25d3f51932b11066289ab4f55672e969d6c2ca3699e64736f6c634300080b0033",
  "linkReferences": {},
  "deployedLinkReferences": {}
}