{
  "_format": "hh-sol-artifact-1",
  "contractName": "Fetch",
  "sourceName": "contracts/Fetch.sol",
  "abi": [
    {
      "inputs": [
        {
          "internalType": "address",
          "name": "_dexRouter",
          "type": "address"
        },
        {
          "internalType": "address",
          "name": "_token",
          "type": "address"
        },
        {
          "internalType": "address",
          "name": "_beneficiary",
          "type": "address"
        },
        {
          "internalType": "address",
          "name": "_minter",
          "type": "address"
        },
        {
          "internalType": "address",
          "name": "_VE",
          "type": "address"
        },
        {
          "internalType": "address",
          "name": "_treasury",
          "type": "address"
        },
        {
          "internalType": "address",
          "name": "_formula",
          "type": "address"
        }
      ],
      "stateMutability": "nonpayable",
      "type": "constructor"
    },
    {
      "anonymous": false,
      "inputs": [
        {
          "indexed": true,
          "internalType": "address",
          "name": "previousOwner",
          "type": "address"
        },
        {
          "indexed": true,
          "internalType": "address",
          "name": "newOwner",
          "type": "address"
        }
      ],
      "name": "OwnershipTransferred",
      "type": "event"
    },
    {
      "inputs": [],
      "name": "VE",
      "outputs": [
        {
          "internalType": "contract IVE",
          "name": "",
          "type": "address"
        }
      ],
      "stateMutability": "view",
      "type": "function"
    },
    {
      "inputs": [],
      "name": "WETH",
      "outputs": [
        {
          "internalType": "address",
          "name": "",
          "type": "address"
        }
      ],
      "stateMutability": "view",
      "type": "function"
    },
    {
      "inputs": [],
      "name": "beneficiary",
      "outputs": [
        {
          "internalType": "address",
          "name": "",
          "type": "address"
        }
      ],
      "stateMutability": "view",
      "type": "function"
    },
    {
      "inputs": [
        {
          "internalType": "uint256",
          "name": "ethInput",
          "type": "uint256"
        }
      ],
      "name": "calculateToSplit",
      "outputs": [
        {
          "internalType": "uint256",
          "name": "ethToDex",
          "type": "uint256"
        },
        {
          "internalType": "uint256",
          "name": "ethToSale",
          "type": "uint256"
        }
      ],
      "stateMutability": "view",
      "type": "function"
    },
    {
      "inputs": [],
      "name": "convert",
      "outputs": [],
      "stateMutability": "payable",
      "type": "function"
    },
    {
      "inputs": [
        {
          "internalType": "address",
          "name": "receiver",
          "type": "address"
        }
      ],
      "name": "convertFor",
      "outputs": [],
      "stateMutability": "payable",
      "type": "function"
    },
    {
      "inputs": [
        {
          "internalType": "uint256",
          "name": "_amount",
          "type": "uint256"
        }
      ],
      "name": "depositToken",
      "outputs": [],
      "stateMutability": "nonpayable",
      "type": "function"
    },
    {
      "inputs": [],
      "name": "dexRouter",
      "outputs": [
        {
          "internalType": "address",
          "name": "",
          "type": "address"
        }
      ],
      "stateMutability": "view",
      "type": "function"
    },
    {
      "inputs": [],
      "name": "formula",
      "outputs": [
        {
          "internalType": "contract IFetchFormula",
          "name": "",
          "type": "address"
        }
      ],
      "stateMutability": "view",
      "type": "function"
    },
    {
      "inputs": [
        {
          "internalType": "uint256",
          "name": "_ethAmount",
          "type": "uint256"
        }
      ],
      "name": "getTokenPrice",
      "outputs": [
        {
          "internalType": "uint256",
          "name": "",
          "type": "uint256"
        }
      ],
      "stateMutability": "view",
      "type": "function"
    },
    {
      "inputs": [],
      "name": "minter",
      "outputs": [
        {
          "internalType": "contract IMinter",
          "name": "",
          "type": "address"
        }
      ],
      "stateMutability": "view",
      "type": "function"
    },
    {
      "inputs": [],
      "name": "owner",
      "outputs": [
        {
          "internalType": "address",
          "name": "",
          "type": "address"
        }
      ],
      "stateMutability": "view",
      "type": "function"
    },
    {
      "inputs": [],
      "name": "percentToDex",
      "outputs": [
        {
          "internalType": "uint256",
          "name": "",
          "type": "uint256"
        }
      ],
      "stateMutability": "view",
      "type": "function"
    },
    {
      "inputs": [],
      "name": "percentToSale",
      "outputs": [
        {
          "internalType": "uint256",
          "name": "",
          "type": "uint256"
        }
      ],
      "stateMutability": "view",
      "type": "function"
    },
    {
      "inputs": [],
      "name": "renounceOwnership",
      "outputs": [],
      "stateMutability": "nonpayable",
      "type": "function"
    },
    {
      "inputs": [],
      "name": "token",
      "outputs": [
        {
          "internalType": "address",
          "name": "",
          "type": "address"
        }
      ],
      "stateMutability": "view",
      "type": "function"
    },
    {
      "inputs": [
        {
          "internalType": "address",
          "name": "newOwner",
          "type": "address"
        }
      ],
      "name": "transferOwnership",
      "outputs": [],
      "stateMutability": "nonpayable",
      "type": "function"
    },
    {
      "inputs": [],
      "name": "treasury",
      "outputs": [
        {
          "internalType": "address",
          "name": "",
          "type": "address"
        }
      ],
      "stateMutability": "view",
      "type": "function"
    },
    {
      "inputs": [
        {
          "internalType": "address",
          "name": "_formula",
          "type": "address"
        }
      ],
      "name": "updateFormula",
      "outputs": [],
      "stateMutability": "nonpayable",
      "type": "function"
    },
    {
      "inputs": [
        {
          "internalType": "uint256",
          "name": "_percentToDex",
          "type": "uint256"
        },
        {
          "internalType": "uint256",
          "name": "_percentToSale",
          "type": "uint256"
        }
      ],
      "name": "updateSplitPercent",
      "outputs": [],
      "stateMutability": "nonpayable",
      "type": "function"
    },
    {
      "inputs": [],
      "name": "withdraw",
      "outputs": [],
      "stateMutability": "nonpayable",
      "type": "function"
    },
    {
      "stateMutability": "payable",
      "type": "receive"
    }
  ],
  "bytecode": "0x6080604052603260055560326006553480156200001b57600080fd5b5060405162001904380380620019048339810160408190526200003e91620001b7565b62000049336200014a565b600380546001600160a01b0319166001600160a01b03891690811790915560408051637a7a2da360e11b8152905163f4f45b46916004808201926020929091908290030181865afa158015620000a3573d6000803e3d6000fd5b505050506040513d601f19601f82011682018060405250810190620000c991906200024c565b600180546001600160a01b03199081166001600160a01b039384161790915560048054821698831698909817909755600780548816968216969096179095556008805487169486169490941790935560028054861692851692909217909155600980548516918416919091179055600a805490931691161790555062000271565b600080546001600160a01b038381166001600160a01b0319831681178455604051919092169283917f8be0079c531659141344cd1fd0a4f28419497f9722a3daafe3b4186f6b6457e09190a35050565b80516001600160a01b0381168114620001b257600080fd5b919050565b600080600080600080600060e0888a031215620001d357600080fd5b620001de886200019a565b9650620001ee602089016200019a565b9550620001fe604089016200019a565b94506200020e606089016200019a565b93506200021e608089016200019a565b92506200022e60a089016200019a565b91506200023e60c089016200019a565b905092959891949750929550565b6000602082840312156200025f57600080fd5b6200026a826200019a565b9392505050565b61168380620002816000396000f3fe60806040526004361061012e5760003560e01c80638da5cb5b116100ab578063c757e5b51161006f578063c757e5b514610315578063c863657d14610335578063d5b49a7114610355578063dfa5372414610375578063f2fde38b1461038b578063fc0c546a146103ab57600080fd5b80638da5cb5b1461029c57806391bbdcc7146102ba578063ad5c4648146102c2578063c02c36c2146102e2578063c457fb37146102f557600080fd5b80634b75f54f116100f25780634b75f54f146102035780634f783ed01461022357806361d027b3146102475780636215be7714610267578063715018a61461028757600080fd5b8063075461721461013a5780630758d9241461017757806338af3eed146101975780633a5b08e7146101b75780633ccfd60b146101ec57600080fd5b3661013557005b600080fd5b34801561014657600080fd5b5060085461015a906001600160a01b031681565b6040516001600160a01b0390911681526020015b60405180910390f35b34801561018357600080fd5b5060035461015a906001600160a01b031681565b3480156101a357600080fd5b5060075461015a906001600160a01b031681565b3480156101c357600080fd5b506101d76101d23660046112e8565b6103cb565b6040805192835260208301919091520161016e565b3480156101f857600080fd5b506102016103e1565b005b34801561020f57600080fd5b50600a5461015a906001600160a01b031681565b34801561022f57600080fd5b5061023960065481565b60405190815260200161016e565b34801561025357600080fd5b5060095461015a906001600160a01b031681565b34801561027357600080fd5b506102016102823660046112e8565b610451565b34801561029357600080fd5b506102016106bc565b3480156102a857600080fd5b506000546001600160a01b031661015a565b6102016106f2565b3480156102ce57600080fd5b5060015461015a906001600160a01b031681565b6102016102f0366004611301565b6106fb565b34801561030157600080fd5b506102396103103660046112e8565b610704565b34801561032157600080fd5b5061020161033036600461132a565b610888565b34801561034157600080fd5b5060025461015a906001600160a01b031681565b34801561036157600080fd5b50610201610370366004611301565b61090a565b34801561038157600080fd5b5061023960055481565b34801561039757600080fd5b506102016103a6366004611301565b610956565b3480156103b757600080fd5b5060045461015a906001600160a01b031681565b6000806103d7836109ee565b9094909350915050565b6000546001600160a01b031633146104145760405162461bcd60e51b815260040161040b9061134c565b60405180910390fd5b600080546040516001600160a01b03909116914780156108fc02929091818181858888f1935050505015801561044e573d6000803e3d6000fd5b50565b600480546040516323b872dd60e01b81523392810192909252306024830152604482018390526001600160a01b0316906323b872dd906064016020604051808303816000875af11580156104a9573d6000803e3d6000fd5b505050506040513d601f19601f820116820180604052508101906104cd9190611381565b50600a546040805163becf3add60e01b815290516000926001600160a01b03169163becf3add9160048083019260209291908290030181865afa158015610518573d6000803e3d6000fd5b505050506040513d601f19601f8201168201806040525081019061053c91906113a3565b9050600081156105bb5761055b82610555856064610a27565b90610a72565b600854604051632279773760e11b8152600481018390529192506001600160a01b0316906344f2ee6e90602401600060405180830381600087803b1580156105a257600080fd5b505af11580156105b6573d6000803e3d6000fd5b505050505b60006105c78483610af1565b6004805460025460405163095ea7b360e01b81526001600160a01b039182169381019390935260248301849052929350919091169063095ea7b3906044016020604051808303816000875af1158015610624573d6000803e3d6000fd5b505050506040513d601f19601f820116820180604052508101906106489190611381565b5060025460405163d4e54c3b60e01b8152600481018390526293a80060248201523360448201526001600160a01b039091169063d4e54c3b90606401600060405180830381600087803b15801561069e57600080fd5b505af11580156106b2573d6000803e3d6000fd5b5050505050505050565b6000546001600160a01b031633146106e65760405162461bcd60e51b815260040161040b9061134c565b6106f06000610b50565b565b6106f033610ba0565b61044e81610ba0565b604080516001808252818301909252600091829190816020015b604080516060810182526000808252602080830182905292820152825260001990920191018161071e57505060015481519192506001600160a01b031690829060009061076d5761076d6113d2565b60209081029190910101516001600160a01b0391821690526004548251911690829060009061079e5761079e6113d2565b6020026020010151602001906001600160a01b031690816001600160a01b0316815250506000816000815181106107d7576107d76113d2565b602090810291909101015190151560409182015260035490516326207f2d60e21b81526000916001600160a01b031690639881fcb49061081d9087908690600401611447565b600060405180830381865afa15801561083a573d6000803e3d6000fd5b505050506040513d6000823e601f3d908101601f191682016040526108629190810190611468565b905080600181518110610877576108776113d2565b602002602001015192505050919050565b6000546001600160a01b031633146108b25760405162461bcd60e51b815260040161040b9061134c565b60006108be828461153c565b9050806064146108fe5760405162461bcd60e51b815260206004820152600b60248201526a15dc9bdb99c81d1bdd185b60aa1b604482015260640161040b565b50600591909155600655565b6000546001600160a01b031633146109345760405162461bcd60e51b815260040161040b9061134c565b600a80546001600160a01b0319166001600160a01b0392909216919091179055565b6000546001600160a01b031633146109805760405162461bcd60e51b815260040161040b9061134c565b6001600160a01b0381166109e55760405162461bcd60e51b815260206004820152602660248201527f4f776e61626c653a206e6577206f776e657220697320746865207a65726f206160448201526564647265737360d01b606482015260840161040b565b61044e81610b50565b600080610a0b600554610555606486610a2790919063ffffffff16565b600654909250610a2090610555856064610a27565b9050915091565b6000610a6983836040518060400160405280601a81526020017f536166654d6174683a206469766973696f6e206279207a65726f000000000000815250610e7d565b90505b92915050565b600082610a8157506000610a6c565b6000610a8d8385611554565b905082610a9a8583611573565b14610a695760405162461bcd60e51b815260206004820152602160248201527f536166654d6174683a206d756c7469706c69636174696f6e206f766572666c6f6044820152607760f81b606482015260840161040b565b600080610afe838561153c565b905083811015610a695760405162461bcd60e51b815260206004820152601b60248201527f536166654d6174683a206164646974696f6e206f766572666c6f770000000000604482015260640161040b565b600080546001600160a01b038381166001600160a01b0319831681178455604051919092169283917f8be0079c531659141344cd1fd0a4f28419497f9722a3daafe3b4186f6b6457e09190a35050565b60003411610bdc5760405162461bcd60e51b81526020600482015260096024820152680f4cae4e4de40cae8d60bb1b604482015260640161040b565b610be534610eb4565b600a546040805163becf3add60e01b815290516000926001600160a01b03169163becf3add9160048083019260209291908290030181865afa158015610c2f573d6000803e3d6000fd5b505050506040513d601f19601f82011682018060405250810190610c5391906113a3565b90508015610cdb576000610c6634610704565b90506000610c7983610555846064610a27565b600854604051632279773760e11b8152600481018390529192506001600160a01b0316906344f2ee6e90602401600060405180830381600087803b158015610cc057600080fd5b505af1158015610cd4573d6000803e3d6000fd5b5050505050505b600480546040516370a0823160e01b815230928101929092526000916001600160a01b03909116906370a0823190602401602060405180830381865afa158015610d29573d6000803e3d6000fd5b505050506040513d601f19601f82011682018060405250810190610d4d91906113a3565b905060008111610d8d5760405162461bcd60e51b815260206004820152600b60248201526a1b9bdd081cddd85c1c195960aa1b604482015260640161040b565b6004805460025460405163095ea7b360e01b81526001600160a01b039182169381019390935260248301849052169063095ea7b3906044016020604051808303816000875af1158015610de4573d6000803e3d6000fd5b505050506040513d601f19601f82011682018060405250810190610e089190611381565b5060025460405163d4e54c3b60e01b8152600481018390526293a80060248201526001600160a01b0385811660448301529091169063d4e54c3b90606401600060405180830381600087803b158015610e6057600080fd5b505af1158015610e74573d6000803e3d6000fd5b50505050505050565b60008183610e9e5760405162461bcd60e51b815260040161040b9190611595565b506000610eab8486611573565b95945050505050565b600080610ec0836103cb565b90925090508115610ee857600354600454610ee8916001600160a01b03908116911684610efc565b8015610ef757610ef781611074565b505050565b604080516001808252818301909252600091816020015b6040805160608101825260008082526020808301829052928201528252600019909201910181610f1357505060015481519192506001600160a01b0316908290600090610f6257610f626113d2565b6020026020010151600001906001600160a01b031690816001600160a01b0316815250508281600081518110610f9a57610f9a6113d2565b6020026020010151602001906001600160a01b031690816001600160a01b031681525050600081600081518110610fd357610fd36113d2565b60209081029190910101519015156040909101526001600160a01b03841663e8ef468183600184306110074261070861153c565b6040518663ffffffff1660e01b815260040161102694939291906115ea565b60006040518083038185885af1158015611044573d6000803e3d6000fd5b50505050506040513d6000823e601f3d908101601f1916820160405261106d9190810190611468565b5050505050565b600061107f82610704565b600854604051632279773760e11b8152600481018390529192506001600160a01b0316906344f2ee6e90602401600060405180830381600087803b1580156110c657600080fd5b505af11580156110da573d6000803e3d6000fd5b5050505060006110f4600284610a2790919063ffffffff16565b6007546040519192506001600160a01b03169082156108fc029083906000818181858888f1935050505015801561112f573d6000803e3d6000fd5b50610ef781600061113f82610704565b600854604051632279773760e11b8152600481018390529192506001600160a01b0316906344f2ee6e90602401600060405180830381600087803b15801561118657600080fd5b505af115801561119a573d6000803e3d6000fd5b50506004805460035460405163095ea7b360e01b81526001600160a01b03918216938101939093526024830186905216925063095ea7b391506044016020604051808303816000875af11580156111f5573d6000803e3d6000fd5b505050506040513d601f19601f820116820180604052508101906112199190611381565b506003546004546009546001600160a01b039283169263578caf3292869290821691600091879183918291166112514261038461153c565b60405160e08a901b6001600160e01b03191681526001600160a01b039788166004820152951515602487015260448601949094526064850192909252608484015290921660a482015260c481019190915260e40160606040518083038185885af11580156112c3573d6000803e3d6000fd5b50505050506040513d601f19601f8201168201806040525081019061106d919061161f565b6000602082840312156112fa57600080fd5b5035919050565b60006020828403121561131357600080fd5b81356001600160a01b0381168114610a6957600080fd5b6000806040838503121561133d57600080fd5b50508035926020909101359150565b6020808252818101527f4f776e61626c653a2063616c6c6572206973206e6f7420746865206f776e6572604082015260600190565b60006020828403121561139357600080fd5b81518015158114610a6957600080fd5b6000602082840312156113b557600080fd5b5051919050565b634e487b7160e01b600052604160045260246000fd5b634e487b7160e01b600052603260045260246000fd5b600081518084526020808501945080840160005b8381101561143c57815180516001600160a01b039081168952848201511684890152604090810151151590880152606090960195908201906001016113fc565b509495945050505050565b82815260406020820152600061146060408301846113e8565b949350505050565b6000602080838503121561147b57600080fd5b825167ffffffffffffffff8082111561149357600080fd5b818501915085601f8301126114a757600080fd5b8151818111156114b9576114b96113bc565b8060051b604051601f19603f830116810181811085821117156114de576114de6113bc565b6040529182528482019250838101850191888311156114fc57600080fd5b938501935b8285101561151a57845184529385019392850192611501565b98975050505050505050565b634e487b7160e01b600052601160045260246000fd5b6000821982111561154f5761154f611526565b500190565b600081600019048311821515161561156e5761156e611526565b500290565b60008261159057634e487b7160e01b600052601260045260246000fd5b500490565b600060208083528351808285015260005b818110156115c2578581018301518582016040015282016115a6565b818111156115d4576000604083870101525b50601f01601f1916929092016040019392505050565b84815260806020820152600061160360808301866113e8565b6001600160a01b03949094166040830152506060015292915050565b60008060006060848603121561163457600080fd5b835192506020840151915060408401519050925092509256fea2646970667358221220f869243421dfeaed6eeadff9c4b6582e724f25b2cf7bedce20124f78463367b664736f6c634300080b0033",
  "linkReferences": {},
  "deployedLinkReferences": {}
}