{
  "_format": "hh-sol-artifact-1",
  "contractName": "Fetch",
  "sourceName": "contracts/Fetch.sol",
  "abi": [
    {
      "inputs": [
        {
          "internalType": "address",
          "name": "_dexRouter",
          "type": "address"
        },
        {
          "internalType": "address",
          "name": "_token",
          "type": "address"
        },
        {
          "internalType": "address",
          "name": "_beneficiary",
          "type": "address"
        },
        {
          "internalType": "address",
          "name": "_minter",
          "type": "address"
        },
        {
          "internalType": "address",
          "name": "_VE",
          "type": "address"
        },
        {
          "internalType": "address",
          "name": "_treasury",
          "type": "address"
        }
      ],
      "stateMutability": "nonpayable",
      "type": "constructor"
    },
    {
      "anonymous": false,
      "inputs": [
        {
          "indexed": true,
          "internalType": "address",
          "name": "previousOwner",
          "type": "address"
        },
        {
          "indexed": true,
          "internalType": "address",
          "name": "newOwner",
          "type": "address"
        }
      ],
      "name": "OwnershipTransferred",
      "type": "event"
    },
    {
      "inputs": [],
      "name": "VE",
      "outputs": [
        {
          "internalType": "contract IVE",
          "name": "",
          "type": "address"
        }
      ],
      "stateMutability": "view",
      "type": "function"
    },
    {
      "inputs": [],
      "name": "WETH",
      "outputs": [
        {
          "internalType": "address",
          "name": "",
          "type": "address"
        }
      ],
      "stateMutability": "view",
      "type": "function"
    },
    {
      "inputs": [],
      "name": "beneficiary",
      "outputs": [
        {
          "internalType": "address",
          "name": "",
          "type": "address"
        }
      ],
      "stateMutability": "view",
      "type": "function"
    },
    {
      "inputs": [],
      "name": "bonusPercent",
      "outputs": [
        {
          "internalType": "uint256",
          "name": "",
          "type": "uint256"
        }
      ],
      "stateMutability": "view",
      "type": "function"
    },
    {
      "inputs": [
        {
          "internalType": "uint256",
          "name": "ethInput",
          "type": "uint256"
        }
      ],
      "name": "calculateToSplit",
      "outputs": [
        {
          "internalType": "uint256",
          "name": "ethToDex",
          "type": "uint256"
        },
        {
          "internalType": "uint256",
          "name": "ethToSale",
          "type": "uint256"
        }
      ],
      "stateMutability": "view",
      "type": "function"
    },
    {
      "inputs": [],
      "name": "convert",
      "outputs": [],
      "stateMutability": "payable",
      "type": "function"
    },
    {
      "inputs": [
        {
          "internalType": "address",
          "name": "receiver",
          "type": "address"
        }
      ],
      "name": "convertFor",
      "outputs": [],
      "stateMutability": "payable",
      "type": "function"
    },
    {
      "inputs": [],
      "name": "dexRouter",
      "outputs": [
        {
          "internalType": "address",
          "name": "",
          "type": "address"
        }
      ],
      "stateMutability": "view",
      "type": "function"
    },
    {
      "inputs": [
        {
          "internalType": "uint256",
          "name": "_ethAmount",
          "type": "uint256"
        }
      ],
      "name": "getTokenPrice",
      "outputs": [
        {
          "internalType": "uint256",
          "name": "",
          "type": "uint256"
        }
      ],
      "stateMutability": "view",
      "type": "function"
    },
    {
      "inputs": [
        {
          "internalType": "address",
          "name": "_rewarder",
          "type": "address"
        }
      ],
      "name": "initializeRewarder",
      "outputs": [],
      "stateMutability": "nonpayable",
      "type": "function"
    },
    {
      "inputs": [],
      "name": "isRewardsMintLocked",
      "outputs": [
        {
          "internalType": "bool",
          "name": "",
          "type": "bool"
        }
      ],
      "stateMutability": "view",
      "type": "function"
    },
    {
      "inputs": [
        {
          "internalType": "uint256",
          "name": "amount",
          "type": "uint256"
        }
      ],
      "name": "mint",
      "outputs": [],
      "stateMutability": "nonpayable",
      "type": "function"
    },
    {
      "inputs": [],
      "name": "minter",
      "outputs": [
        {
          "internalType": "contract IMinter",
          "name": "",
          "type": "address"
        }
      ],
      "stateMutability": "view",
      "type": "function"
    },
    {
      "inputs": [],
      "name": "owner",
      "outputs": [
        {
          "internalType": "address",
          "name": "",
          "type": "address"
        }
      ],
      "stateMutability": "view",
      "type": "function"
    },
    {
      "inputs": [],
      "name": "percentToDex",
      "outputs": [
        {
          "internalType": "uint256",
          "name": "",
          "type": "uint256"
        }
      ],
      "stateMutability": "view",
      "type": "function"
    },
    {
      "inputs": [],
      "name": "percentToSale",
      "outputs": [
        {
          "internalType": "uint256",
          "name": "",
          "type": "uint256"
        }
      ],
      "stateMutability": "view",
      "type": "function"
    },
    {
      "inputs": [],
      "name": "renounceOwnership",
      "outputs": [],
      "stateMutability": "nonpayable",
      "type": "function"
    },
    {
      "inputs": [],
      "name": "rewarder",
      "outputs": [
        {
          "internalType": "address",
          "name": "",
          "type": "address"
        }
      ],
      "stateMutability": "view",
      "type": "function"
    },
    {
      "inputs": [],
      "name": "stopMintRewards",
      "outputs": [],
      "stateMutability": "nonpayable",
      "type": "function"
    },
    {
      "inputs": [],
      "name": "token",
      "outputs": [
        {
          "internalType": "address",
          "name": "",
          "type": "address"
        }
      ],
      "stateMutability": "view",
      "type": "function"
    },
    {
      "inputs": [
        {
          "internalType": "address",
          "name": "newOwner",
          "type": "address"
        }
      ],
      "name": "transferOwnership",
      "outputs": [],
      "stateMutability": "nonpayable",
      "type": "function"
    },
    {
      "inputs": [],
      "name": "treasury",
      "outputs": [
        {
          "internalType": "address",
          "name": "",
          "type": "address"
        }
      ],
      "stateMutability": "view",
      "type": "function"
    },
    {
      "inputs": [
        {
          "internalType": "uint256",
          "name": "_bonusPercent",
          "type": "uint256"
        }
      ],
      "name": "updateBonusPercent",
      "outputs": [],
      "stateMutability": "nonpayable",
      "type": "function"
    },
    {
      "inputs": [
        {
          "internalType": "uint256",
          "name": "_percentToDex",
          "type": "uint256"
        },
        {
          "internalType": "uint256",
          "name": "_percentToSale",
          "type": "uint256"
        }
      ],
      "name": "updateSplitPercent",
      "outputs": [],
      "stateMutability": "nonpayable",
      "type": "function"
    },
    {
      "inputs": [],
      "name": "withdraw",
      "outputs": [],
      "stateMutability": "nonpayable",
      "type": "function"
    },
    {
      "stateMutability": "payable",
      "type": "receive"
    }
  ],
  "bytecode": "0x6080604052603260058190556006556064600755600b80546001600160a81b03191690553480156200003057600080fd5b5060405162001902380380620019028339810160408190526200005391620001bc565b6200005e336200014f565b600380546001600160a01b0319166001600160a01b03881690811790915560408051637a7a2da360e11b8152905163f4f45b46916004808201926020929091908290030181865afa158015620000b8573d6000803e3d6000fd5b505050506040513d601f19601f82011682018060405250810190620000de91906200023d565b600180546001600160a01b03199081166001600160a01b0393841617909155600480548216978316979097179096556008805487169582169590951790945560098054861693851693909317909255600280548516918416919091179055600a805490931691161790555062000262565b600080546001600160a01b038381166001600160a01b0319831681178455604051919092169283917f8be0079c531659141344cd1fd0a4f28419497f9722a3daafe3b4186f6b6457e09190a35050565b80516001600160a01b0381168114620001b757600080fd5b919050565b60008060008060008060c08789031215620001d657600080fd5b620001e1876200019f565b9550620001f1602088016200019f565b945062000201604088016200019f565b935062000211606088016200019f565b925062000221608088016200019f565b91506200023160a088016200019f565b90509295509295509295565b6000602082840312156200025057600080fd5b6200025b826200019f565b9392505050565b61169080620002726000396000f3fe60806040526004361061016a5760003560e01c8063a0712d68116100d1578063c757e5b51161008a578063dfa5372411610064578063dfa537241461040d578063ee8e993c14610423578063f2fde38b14610443578063fc0c546a1461046357600080fd5b8063c757e5b5146103ad578063c863657d146103cd578063dcc3e06e146103ed57600080fd5b8063a0712d681461030f578063ad5c46481461032f578063b42568c81461034f578063becf3add14610364578063c02c36c21461037a578063c457fb371461038d57600080fd5b80634f783ed0116101235780634f783ed01461027057806361d027b31461029457806367482f00146102b4578063715018a6146102d45780638da5cb5b146102e957806391bbdcc71461030757600080fd5b806307546172146101765780630758d924146101b357806315ba0e16146101d357806338af3eed146102045780633a5b08e7146102245780633ccfd60b1461025957600080fd5b3661017157005b600080fd5b34801561018257600080fd5b50600954610196906001600160a01b031681565b6040516001600160a01b0390911681526020015b60405180910390f35b3480156101bf57600080fd5b50600354610196906001600160a01b031681565b3480156101df57600080fd5b50600b546101f490600160a01b900460ff1681565b60405190151581526020016101aa565b34801561021057600080fd5b50600854610196906001600160a01b031681565b34801561023057600080fd5b5061024461023f3660046112f5565b610483565b604080519283526020830191909152016101aa565b34801561026557600080fd5b5061026e610499565b005b34801561027c57600080fd5b5061028660065481565b6040519081526020016101aa565b3480156102a057600080fd5b50600a54610196906001600160a01b031681565b3480156102c057600080fd5b5061026e6102cf36600461130e565b610509565b3480156102e057600080fd5b5061026e610572565b3480156102f557600080fd5b506000546001600160a01b0316610196565b61026e6105a8565b34801561031b57600080fd5b5061026e61032a3660046112f5565b6105b1565b34801561033b57600080fd5b50600154610196906001600160a01b031681565b34801561035b57600080fd5b5061026e61071a565b34801561037057600080fd5b5061028660075481565b61026e61038836600461130e565b610759565b34801561039957600080fd5b506102866103a83660046112f5565b610762565b3480156103b957600080fd5b5061026e6103c8366004611337565b6108e6565b3480156103d957600080fd5b50600254610196906001600160a01b031681565b3480156103f957600080fd5b50600b54610196906001600160a01b031681565b34801561041957600080fd5b5061028660055481565b34801561042f57600080fd5b5061026e61043e3660046112f5565b610968565b34801561044f57600080fd5b5061026e61045e36600461130e565b610a1b565b34801561046f57600080fd5b50600454610196906001600160a01b031681565b60008061048f83610ab3565b9094909350915050565b6000546001600160a01b031633146104cc5760405162461bcd60e51b81526004016104c390611359565b60405180910390fd5b600080546040516001600160a01b03909116914780156108fc02929091818181858888f19350505050158015610506573d6000803e3d6000fd5b50565b600b546001600160a01b0316156105505760405162461bcd60e51b815260206004820152600b60248201526a125b9a5d1a585b1a5e995960aa1b60448201526064016104c3565b600b80546001600160a01b0319166001600160a01b0392909216919091179055565b6000546001600160a01b0316331461059c5760405162461bcd60e51b81526004016104c390611359565b6105a66000610af2565b565b6105a633610b42565b600b54600160a01b900460ff16156105f45760405162461bcd60e51b8152602060048201526006602482015265131bd8dad95960d21b60448201526064016104c3565b600b546001600160a01b031661063d5760405162461bcd60e51b815260206004820152600e60248201526d22b6b83a3c903932bbb0b93232b960911b60448201526064016104c3565b600954604051632279773760e11b8152600481018390526001600160a01b03909116906344f2ee6e90602401600060405180830381600087803b15801561068357600080fd5b505af1158015610697573d6000803e3d6000fd5b505060048054600b5460405163a9059cbb60e01b81526001600160a01b03918216938101939093526024830186905216925063a9059cbb91506044016020604051808303816000875af11580156106f2573d6000803e3d6000fd5b505050506040513d601f19601f82011682018060405250810190610716919061138e565b5050565b6000546001600160a01b031633146107445760405162461bcd60e51b81526004016104c390611359565b600b805460ff60a01b1916600160a01b179055565b61050681610b42565b604080516001808252818301909252600091829190816020015b604080516060810182526000808252602080830182905292820152825260001990920191018161077c57505060015481519192506001600160a01b03169082906000906107cb576107cb6113c6565b60209081029190910101516001600160a01b039182169052600454825191169082906000906107fc576107fc6113c6565b6020026020010151602001906001600160a01b031690816001600160a01b031681525050600081600081518110610835576108356113c6565b602090810291909101015190151560409182015260035490516326207f2d60e21b81526000916001600160a01b031690639881fcb49061087b908790869060040161143b565b600060405180830381865afa158015610898573d6000803e3d6000fd5b505050506040513d6000823e601f3d908101601f191682016040526108c0919081019061145c565b9050806001815181106108d5576108d56113c6565b602002602001015192505050919050565b6000546001600160a01b031633146109105760405162461bcd60e51b81526004016104c390611359565b600061091c8284611530565b90508060641461095c5760405162461bcd60e51b815260206004820152600b60248201526a15dc9bdb99c81d1bdd185b60aa1b60448201526064016104c3565b50600591909155600655565b6000546001600160a01b031633146109925760405162461bcd60e51b81526004016104c390611359565b6000600754116109d25760405162461bcd60e51b815260206004820152600b60248201526a5a6572726f20626f6e757360a81b60448201526064016104c3565b60646007541115610a165760405162461bcd60e51b815260206004820152600e60248201526d4f766572666c6f7720626f6e757360901b60448201526064016104c3565b600755565b6000546001600160a01b03163314610a455760405162461bcd60e51b81526004016104c390611359565b6001600160a01b038116610aaa5760405162461bcd60e51b815260206004820152602660248201527f4f776e61626c653a206e6577206f776e657220697320746865207a65726f206160448201526564647265737360d01b60648201526084016104c3565b61050681610af2565b600080610ad6600554610ad0606486610d2990919063ffffffff16565b90610d74565b600654909250610aeb90610ad0856064610d29565b9050915091565b600080546001600160a01b038381166001600160a01b0319831681178455604051919092169283917f8be0079c531659141344cd1fd0a4f28419497f9722a3daafe3b4186f6b6457e09190a35050565b60003411610b7e5760405162461bcd60e51b81526020600482015260096024820152680f4cae4e4de40cae8d60bb1b60448201526064016104c3565b610b8734610df3565b600480546040516370a0823160e01b815230928101929092526000916001600160a01b03909116906370a0823190602401602060405180830381865afa158015610bd5573d6000803e3d6000fd5b505050506040513d601f19601f82011682018060405250810190610bf99190611548565b905060008111610c395760405162461bcd60e51b815260206004820152600b60248201526a1b9bdd081cddd85c1c195960aa1b60448201526064016104c3565b6004805460025460405163095ea7b360e01b81526001600160a01b039182169381019390935260248301849052169063095ea7b3906044016020604051808303816000875af1158015610c90573d6000803e3d6000fd5b505050506040513d601f19601f82011682018060405250810190610cb4919061138e565b5060025460405163d4e54c3b60e01b815260048101839052630784ce0060248201526001600160a01b0384811660448301529091169063d4e54c3b90606401600060405180830381600087803b158015610d0d57600080fd5b505af1158015610d21573d6000803e3d6000fd5b505050505050565b6000610d6b83836040518060400160405280601a81526020017f536166654d6174683a206469766973696f6e206279207a65726f000000000000815250610e3b565b90505b92915050565b600082610d8357506000610d6e565b6000610d8f8385611561565b905082610d9c8583611580565b14610d6b5760405162461bcd60e51b815260206004820152602160248201527f536166654d6174683a206d756c7469706c69636174696f6e206f766572666c6f6044820152607760f81b60648201526084016104c3565b600080610dff83610483565b90925090508115610e2757600354600454610e27916001600160a01b03908116911684610e72565b8015610e3657610e3681610fea565b505050565b60008183610e5c5760405162461bcd60e51b81526004016104c391906115a2565b506000610e698486611580565b95945050505050565b604080516001808252818301909252600091816020015b6040805160608101825260008082526020808301829052928201528252600019909201910181610e8957505060015481519192506001600160a01b0316908290600090610ed857610ed86113c6565b6020026020010151600001906001600160a01b031690816001600160a01b0316815250508281600081518110610f1057610f106113c6565b6020026020010151602001906001600160a01b031690816001600160a01b031681525050600081600081518110610f4957610f496113c6565b60209081029190910101519015156040909101526001600160a01b03841663e8ef46818360018430610f7d42610708611530565b6040518663ffffffff1660e01b8152600401610f9c94939291906115f7565b60006040518083038185885af1158015610fba573d6000803e3d6000fd5b50505050506040513d6000823e601f3d908101601f19168201604052610fe3919081019061145c565b5050505050565b6000610ff582610762565b90506000611013600754610ad0606485610d2990919063ffffffff16565b6009549091506001600160a01b03166344f2ee6e61103184846110e2565b6040518263ffffffff1660e01b815260040161104f91815260200190565b600060405180830381600087803b15801561106957600080fd5b505af115801561107d573d6000803e3d6000fd5b505050506000611097600285610d2990919063ffffffff16565b6008546040519192506001600160a01b03169082156108fc029083906000818181858888f193505050501580156110d2573d6000803e3d6000fd5b506110dc81611141565b50505050565b6000806110ef8385611530565b905083811015610d6b5760405162461bcd60e51b815260206004820152601b60248201527f536166654d6174683a206164646974696f6e206f766572666c6f77000000000060448201526064016104c3565b600061114c82610762565b600954604051632279773760e11b8152600481018390529192506001600160a01b0316906344f2ee6e90602401600060405180830381600087803b15801561119357600080fd5b505af11580156111a7573d6000803e3d6000fd5b50506004805460035460405163095ea7b360e01b81526001600160a01b03918216938101939093526024830186905216925063095ea7b391506044016020604051808303816000875af1158015611202573d6000803e3d6000fd5b505050506040513d601f19601f82011682018060405250810190611226919061138e565b50600354600454600a546001600160a01b039283169263578caf32928692908216916000918791839182911661125e42610384611530565b60405160e08a901b6001600160e01b03191681526001600160a01b039788166004820152951515602487015260448601949094526064850192909252608484015290921660a482015260c481019190915260e40160606040518083038185885af11580156112d0573d6000803e3d6000fd5b50505050506040513d601f19601f82011682018060405250810190610fe3919061162c565b60006020828403121561130757600080fd5b5035919050565b60006020828403121561132057600080fd5b81356001600160a01b0381168114610d6b57600080fd5b6000806040838503121561134a57600080fd5b50508035926020909101359150565b6020808252818101527f4f776e61626c653a2063616c6c6572206973206e6f7420746865206f776e6572604082015260600190565b6000602082840312156113a057600080fd5b81518015158114610d6b57600080fd5b634e487b7160e01b600052604160045260246000fd5b634e487b7160e01b600052603260045260246000fd5b600081518084526020808501945080840160005b8381101561143057815180516001600160a01b039081168952848201511684890152604090810151151590880152606090960195908201906001016113f0565b509495945050505050565b82815260406020820152600061145460408301846113dc565b949350505050565b6000602080838503121561146f57600080fd5b825167ffffffffffffffff8082111561148757600080fd5b818501915085601f83011261149b57600080fd5b8151818111156114ad576114ad6113b0565b8060051b604051601f19603f830116810181811085821117156114d2576114d26113b0565b6040529182528482019250838101850191888311156114f057600080fd5b938501935b8285101561150e578451845293850193928501926114f5565b98975050505050505050565b634e487b7160e01b600052601160045260246000fd5b600082198211156115435761154361151a565b500190565b60006020828403121561155a57600080fd5b5051919050565b600081600019048311821515161561157b5761157b61151a565b500290565b60008261159d57634e487b7160e01b600052601260045260246000fd5b500490565b600060208083528351808285015260005b818110156115cf578581018301518582016040015282016115b3565b818111156115e1576000604083870101525b50601f01601f1916929092016040019392505050565b84815260806020820152600061161060808301866113dc565b6001600160a01b03949094166040830152506060015292915050565b60008060006060848603121561164157600080fd5b835192506020840151915060408401519050925092509256fea2646970667358221220a904e98670a92e2f432120a8a1524ac4ce8b339da8860536a409fdf949a9fb3564736f6c634300080b0033",
  "linkReferences": {},
  "deployedLinkReferences": {}
}