{
  "_format": "hh-sol-artifact-1",
  "contractName": "Fetch",
  "sourceName": "contracts/Fetch.sol",
  "abi": [
    {
      "inputs": [
        {
          "internalType": "address",
          "name": "_dexRouter",
          "type": "address"
        },
        {
          "internalType": "address",
          "name": "_token",
          "type": "address"
        },
        {
          "internalType": "address",
          "name": "_beneficiary",
          "type": "address"
        },
        {
          "internalType": "address",
          "name": "_minter",
          "type": "address"
        },
        {
          "internalType": "address",
          "name": "_VE",
          "type": "address"
        },
        {
          "internalType": "address",
          "name": "_treasury",
          "type": "address"
        },
        {
          "internalType": "address",
          "name": "_formula",
          "type": "address"
        }
      ],
      "stateMutability": "nonpayable",
      "type": "constructor"
    },
    {
      "anonymous": false,
      "inputs": [
        {
          "indexed": true,
          "internalType": "address",
          "name": "previousOwner",
          "type": "address"
        },
        {
          "indexed": true,
          "internalType": "address",
          "name": "newOwner",
          "type": "address"
        }
      ],
      "name": "OwnershipTransferred",
      "type": "event"
    },
    {
      "inputs": [],
      "name": "VE",
      "outputs": [
        {
          "internalType": "contract IVE",
          "name": "",
          "type": "address"
        }
      ],
      "stateMutability": "view",
      "type": "function"
    },
    {
      "inputs": [],
      "name": "WETH",
      "outputs": [
        {
          "internalType": "address",
          "name": "",
          "type": "address"
        }
      ],
      "stateMutability": "view",
      "type": "function"
    },
    {
      "inputs": [],
      "name": "beneficiary",
      "outputs": [
        {
          "internalType": "address",
          "name": "",
          "type": "address"
        }
      ],
      "stateMutability": "view",
      "type": "function"
    },
    {
      "inputs": [
        {
          "internalType": "uint256",
          "name": "ethInput",
          "type": "uint256"
        }
      ],
      "name": "calculateToSplit",
      "outputs": [
        {
          "internalType": "uint256",
          "name": "ethToDex",
          "type": "uint256"
        },
        {
          "internalType": "uint256",
          "name": "ethToSale",
          "type": "uint256"
        }
      ],
      "stateMutability": "view",
      "type": "function"
    },
    {
      "inputs": [],
      "name": "convert",
      "outputs": [],
      "stateMutability": "payable",
      "type": "function"
    },
    {
      "inputs": [
        {
          "internalType": "address",
          "name": "receiver",
          "type": "address"
        }
      ],
      "name": "convertFor",
      "outputs": [],
      "stateMutability": "payable",
      "type": "function"
    },
    {
      "inputs": [
        {
          "internalType": "uint256",
          "name": "_amount",
          "type": "uint256"
        }
      ],
      "name": "depositToken",
      "outputs": [],
      "stateMutability": "nonpayable",
      "type": "function"
    },
    {
      "inputs": [],
      "name": "dexRouter",
      "outputs": [
        {
          "internalType": "address",
          "name": "",
          "type": "address"
        }
      ],
      "stateMutability": "view",
      "type": "function"
    },
    {
      "inputs": [],
      "name": "formula",
      "outputs": [
        {
          "internalType": "contract IFetchFormula",
          "name": "",
          "type": "address"
        }
      ],
      "stateMutability": "view",
      "type": "function"
    },
    {
      "inputs": [
        {
          "internalType": "uint256",
          "name": "_ethAmount",
          "type": "uint256"
        }
      ],
      "name": "getTokenPrice",
      "outputs": [
        {
          "internalType": "uint256",
          "name": "",
          "type": "uint256"
        }
      ],
      "stateMutability": "view",
      "type": "function"
    },
    {
      "inputs": [
        {
          "internalType": "address",
          "name": "_rewarder",
          "type": "address"
        }
      ],
      "name": "initializeRewarder",
      "outputs": [],
      "stateMutability": "nonpayable",
      "type": "function"
    },
    {
      "inputs": [],
      "name": "isRewardsMintLocked",
      "outputs": [
        {
          "internalType": "bool",
          "name": "",
          "type": "bool"
        }
      ],
      "stateMutability": "view",
      "type": "function"
    },
    {
      "inputs": [
        {
          "internalType": "uint256",
          "name": "amount",
          "type": "uint256"
        }
      ],
      "name": "mint",
      "outputs": [],
      "stateMutability": "nonpayable",
      "type": "function"
    },
    {
      "inputs": [],
      "name": "minter",
      "outputs": [
        {
          "internalType": "contract IMinter",
          "name": "",
          "type": "address"
        }
      ],
      "stateMutability": "view",
      "type": "function"
    },
    {
      "inputs": [],
      "name": "owner",
      "outputs": [
        {
          "internalType": "address",
          "name": "",
          "type": "address"
        }
      ],
      "stateMutability": "view",
      "type": "function"
    },
    {
      "inputs": [],
      "name": "percentToDex",
      "outputs": [
        {
          "internalType": "uint256",
          "name": "",
          "type": "uint256"
        }
      ],
      "stateMutability": "view",
      "type": "function"
    },
    {
      "inputs": [],
      "name": "percentToSale",
      "outputs": [
        {
          "internalType": "uint256",
          "name": "",
          "type": "uint256"
        }
      ],
      "stateMutability": "view",
      "type": "function"
    },
    {
      "inputs": [],
      "name": "renounceOwnership",
      "outputs": [],
      "stateMutability": "nonpayable",
      "type": "function"
    },
    {
      "inputs": [],
      "name": "rewarder",
      "outputs": [
        {
          "internalType": "address",
          "name": "",
          "type": "address"
        }
      ],
      "stateMutability": "view",
      "type": "function"
    },
    {
      "inputs": [],
      "name": "stopMintRewards",
      "outputs": [],
      "stateMutability": "nonpayable",
      "type": "function"
    },
    {
      "inputs": [],
      "name": "token",
      "outputs": [
        {
          "internalType": "address",
          "name": "",
          "type": "address"
        }
      ],
      "stateMutability": "view",
      "type": "function"
    },
    {
      "inputs": [
        {
          "internalType": "address",
          "name": "newOwner",
          "type": "address"
        }
      ],
      "name": "transferOwnership",
      "outputs": [],
      "stateMutability": "nonpayable",
      "type": "function"
    },
    {
      "inputs": [],
      "name": "treasury",
      "outputs": [
        {
          "internalType": "address",
          "name": "",
          "type": "address"
        }
      ],
      "stateMutability": "view",
      "type": "function"
    },
    {
      "inputs": [
        {
          "internalType": "uint256",
          "name": "_percentToDex",
          "type": "uint256"
        },
        {
          "internalType": "uint256",
          "name": "_percentToSale",
          "type": "uint256"
        }
      ],
      "name": "updateSplitPercent",
      "outputs": [],
      "stateMutability": "nonpayable",
      "type": "function"
    },
    {
      "inputs": [],
      "name": "withdraw",
      "outputs": [],
      "stateMutability": "nonpayable",
      "type": "function"
    },
    {
      "stateMutability": "payable",
      "type": "receive"
    }
  ],
  "bytecode": "0x608060405260326005819055600655600a80546001600160a81b03191690553480156200002b57600080fd5b5060405162001b9b38038062001b9b8339810160408190526200004e91620001c7565b62000059336200015a565b600380546001600160a01b0319166001600160a01b03891690811790915560408051637a7a2da360e11b8152905163f4f45b46916004808201926020929091908290030181865afa158015620000b3573d6000803e3d6000fd5b505050506040513d601f19601f82011682018060405250810190620000d991906200025c565b600180546001600160a01b03199081166001600160a01b039384161790915560048054821698831698909817909755600780548816968216969096179095556008805487169486169490941790935560028054861692851692909217909155600980548516918416919091179055600b805490931691161790555062000281565b600080546001600160a01b038381166001600160a01b0319831681178455604051919092169283917f8be0079c531659141344cd1fd0a4f28419497f9722a3daafe3b4186f6b6457e09190a35050565b80516001600160a01b0381168114620001c257600080fd5b919050565b600080600080600080600060e0888a031215620001e357600080fd5b620001ee88620001aa565b9650620001fe60208901620001aa565b95506200020e60408901620001aa565b94506200021e60608901620001aa565b93506200022e60808901620001aa565b92506200023e60a08901620001aa565b91506200024e60c08901620001aa565b905092959891949750929550565b6000602082840312156200026f57600080fd5b6200027a82620001aa565b9392505050565b61190a80620002916000396000f3fe60806040526004361061016a5760003560e01c80638da5cb5b116100d1578063c457fb371161008a578063dcc3e06e11610064578063dcc3e06e14610417578063dfa5372414610437578063f2fde38b1461044d578063fc0c546a1461046d57600080fd5b8063c457fb37146103b7578063c757e5b5146103d7578063c863657d146103f757600080fd5b80638da5cb5b1461032957806391bbdcc714610347578063a0712d681461034f578063ad5c46481461036f578063b42568c81461038f578063c02c36c2146103a457600080fd5b80634b75f54f116101235780634b75f54f146102705780634f783ed01461029057806361d027b3146102b45780636215be77146102d457806367482f00146102f4578063715018a61461031457600080fd5b806307546172146101765780630758d924146101b357806315ba0e16146101d357806338af3eed146102045780633a5b08e7146102245780633ccfd60b1461025957600080fd5b3661017157005b600080fd5b34801561018257600080fd5b50600854610196906001600160a01b031681565b6040516001600160a01b0390911681526020015b60405180910390f35b3480156101bf57600080fd5b50600354610196906001600160a01b031681565b3480156101df57600080fd5b50600a546101f490600160a01b900460ff1681565b60405190151581526020016101aa565b34801561021057600080fd5b50600754610196906001600160a01b031681565b34801561023057600080fd5b5061024461023f36600461156f565b61048d565b604080519283526020830191909152016101aa565b34801561026557600080fd5b5061026e6104a3565b005b34801561027c57600080fd5b50600b54610196906001600160a01b031681565b34801561029c57600080fd5b506102a660065481565b6040519081526020016101aa565b3480156102c057600080fd5b50600954610196906001600160a01b031681565b3480156102e057600080fd5b5061026e6102ef36600461156f565b610513565b34801561030057600080fd5b5061026e61030f366004611588565b61077e565b34801561032057600080fd5b5061026e6107e7565b34801561033557600080fd5b506000546001600160a01b0316610196565b61026e61081d565b34801561035b57600080fd5b5061026e61036a36600461156f565b610826565b34801561037b57600080fd5b50600154610196906001600160a01b031681565b34801561039b57600080fd5b5061026e61098f565b61026e6103b2366004611588565b6109ce565b3480156103c357600080fd5b506102a66103d236600461156f565b6109d7565b3480156103e357600080fd5b5061026e6103f23660046115b1565b610b5b565b34801561040357600080fd5b50600254610196906001600160a01b031681565b34801561042357600080fd5b50600a54610196906001600160a01b031681565b34801561044357600080fd5b506102a660055481565b34801561045957600080fd5b5061026e610468366004611588565b610bdd565b34801561047957600080fd5b50600454610196906001600160a01b031681565b60008061049983610c75565b9094909350915050565b6000546001600160a01b031633146104d65760405162461bcd60e51b81526004016104cd906115d3565b60405180910390fd5b600080546040516001600160a01b03909116914780156108fc02929091818181858888f19350505050158015610510573d6000803e3d6000fd5b50565b600480546040516323b872dd60e01b81523392810192909252306024830152604482018390526001600160a01b0316906323b872dd906064016020604051808303816000875af115801561056b573d6000803e3d6000fd5b505050506040513d601f19601f8201168201806040525081019061058f9190611608565b50600b546040805163becf3add60e01b815290516000926001600160a01b03169163becf3add9160048083019260209291908290030181865afa1580156105da573d6000803e3d6000fd5b505050506040513d601f19601f820116820180604052508101906105fe919061162a565b90506000811561067d5761061d82610617856064610cae565b90610cf9565b600854604051632279773760e11b8152600481018390529192506001600160a01b0316906344f2ee6e90602401600060405180830381600087803b15801561066457600080fd5b505af1158015610678573d6000803e3d6000fd5b505050505b60006106898483610d78565b6004805460025460405163095ea7b360e01b81526001600160a01b039182169381019390935260248301849052929350919091169063095ea7b3906044016020604051808303816000875af11580156106e6573d6000803e3d6000fd5b505050506040513d601f19601f8201168201806040525081019061070a9190611608565b5060025460405163d4e54c3b60e01b8152600481018390526293a80060248201523360448201526001600160a01b039091169063d4e54c3b90606401600060405180830381600087803b15801561076057600080fd5b505af1158015610774573d6000803e3d6000fd5b5050505050505050565b600a546001600160a01b0316156107c55760405162461bcd60e51b815260206004820152600b60248201526a125b9a5d1a585b1a5e995960aa1b60448201526064016104cd565b600a80546001600160a01b0319166001600160a01b0392909216919091179055565b6000546001600160a01b031633146108115760405162461bcd60e51b81526004016104cd906115d3565b61081b6000610dd7565b565b61081b33610e27565b600a54600160a01b900460ff16156108695760405162461bcd60e51b8152602060048201526006602482015265131bd8dad95960d21b60448201526064016104cd565b600a546001600160a01b03166108b25760405162461bcd60e51b815260206004820152600e60248201526d22b6b83a3c903932bbb0b93232b960911b60448201526064016104cd565b600854604051632279773760e11b8152600481018390526001600160a01b03909116906344f2ee6e90602401600060405180830381600087803b1580156108f857600080fd5b505af115801561090c573d6000803e3d6000fd5b505060048054600a5460405163a9059cbb60e01b81526001600160a01b03918216938101939093526024830186905216925063a9059cbb91506044016020604051808303816000875af1158015610967573d6000803e3d6000fd5b505050506040513d601f19601f8201168201806040525081019061098b9190611608565b5050565b6000546001600160a01b031633146109b95760405162461bcd60e51b81526004016104cd906115d3565b600a805460ff60a01b1916600160a01b179055565b61051081610e27565b604080516001808252818301909252600091829190816020015b60408051606081018252600080825260208083018290529282015282526000199092019101816109f157505060015481519192506001600160a01b0316908290600090610a4057610a40611659565b60209081029190910101516001600160a01b03918216905260045482519116908290600090610a7157610a71611659565b6020026020010151602001906001600160a01b031690816001600160a01b031681525050600081600081518110610aaa57610aaa611659565b602090810291909101015190151560409182015260035490516326207f2d60e21b81526000916001600160a01b031690639881fcb490610af090879086906004016116ce565b600060405180830381865afa158015610b0d573d6000803e3d6000fd5b505050506040513d6000823e601f3d908101601f19168201604052610b3591908101906116ef565b905080600181518110610b4a57610b4a611659565b602002602001015192505050919050565b6000546001600160a01b03163314610b855760405162461bcd60e51b81526004016104cd906115d3565b6000610b9182846117c3565b905080606414610bd15760405162461bcd60e51b815260206004820152600b60248201526a15dc9bdb99c81d1bdd185b60aa1b60448201526064016104cd565b50600591909155600655565b6000546001600160a01b03163314610c075760405162461bcd60e51b81526004016104cd906115d3565b6001600160a01b038116610c6c5760405162461bcd60e51b815260206004820152602660248201527f4f776e61626c653a206e6577206f776e657220697320746865207a65726f206160448201526564647265737360d01b60648201526084016104cd565b61051081610dd7565b600080610c92600554610617606486610cae90919063ffffffff16565b600654909250610ca790610617856064610cae565b9050915091565b6000610cf083836040518060400160405280601a81526020017f536166654d6174683a206469766973696f6e206279207a65726f000000000000815250611104565b90505b92915050565b600082610d0857506000610cf3565b6000610d1483856117db565b905082610d2185836117fa565b14610cf05760405162461bcd60e51b815260206004820152602160248201527f536166654d6174683a206d756c7469706c69636174696f6e206f766572666c6f6044820152607760f81b60648201526084016104cd565b600080610d8583856117c3565b905083811015610cf05760405162461bcd60e51b815260206004820152601b60248201527f536166654d6174683a206164646974696f6e206f766572666c6f77000000000060448201526064016104cd565b600080546001600160a01b038381166001600160a01b0319831681178455604051919092169283917f8be0079c531659141344cd1fd0a4f28419497f9722a3daafe3b4186f6b6457e09190a35050565b60003411610e635760405162461bcd60e51b81526020600482015260096024820152680f4cae4e4de40cae8d60bb1b60448201526064016104cd565b610e6c3461113b565b600b546040805163becf3add60e01b815290516000926001600160a01b03169163becf3add9160048083019260209291908290030181865afa158015610eb6573d6000803e3d6000fd5b505050506040513d601f19601f82011682018060405250810190610eda919061162a565b90508015610f62576000610eed346109d7565b90506000610f0083610617846064610cae565b600854604051632279773760e11b8152600481018390529192506001600160a01b0316906344f2ee6e90602401600060405180830381600087803b158015610f4757600080fd5b505af1158015610f5b573d6000803e3d6000fd5b5050505050505b600480546040516370a0823160e01b815230928101929092526000916001600160a01b03909116906370a0823190602401602060405180830381865afa158015610fb0573d6000803e3d6000fd5b505050506040513d601f19601f82011682018060405250810190610fd4919061162a565b9050600081116110145760405162461bcd60e51b815260206004820152600b60248201526a1b9bdd081cddd85c1c195960aa1b60448201526064016104cd565b6004805460025460405163095ea7b360e01b81526001600160a01b039182169381019390935260248301849052169063095ea7b3906044016020604051808303816000875af115801561106b573d6000803e3d6000fd5b505050506040513d601f19601f8201168201806040525081019061108f9190611608565b5060025460405163d4e54c3b60e01b8152600481018390526293a80060248201526001600160a01b0385811660448301529091169063d4e54c3b90606401600060405180830381600087803b1580156110e757600080fd5b505af11580156110fb573d6000803e3d6000fd5b50505050505050565b600081836111255760405162461bcd60e51b81526004016104cd919061181c565b50600061113284866117fa565b95945050505050565b6000806111478361048d565b9092509050811561116f5760035460045461116f916001600160a01b03908116911684611183565b801561117e5761117e816112fb565b505050565b604080516001808252818301909252600091816020015b604080516060810182526000808252602080830182905292820152825260001990920191018161119a57505060015481519192506001600160a01b03169082906000906111e9576111e9611659565b6020026020010151600001906001600160a01b031690816001600160a01b031681525050828160008151811061122157611221611659565b6020026020010151602001906001600160a01b031690816001600160a01b03168152505060008160008151811061125a5761125a611659565b60209081029190910101519015156040909101526001600160a01b03841663e8ef4681836001843061128e426107086117c3565b6040518663ffffffff1660e01b81526004016112ad9493929190611871565b60006040518083038185885af11580156112cb573d6000803e3d6000fd5b50505050506040513d6000823e601f3d908101601f191682016040526112f491908101906116ef565b5050505050565b6000611306826109d7565b600854604051632279773760e11b8152600481018390529192506001600160a01b0316906344f2ee6e90602401600060405180830381600087803b15801561134d57600080fd5b505af1158015611361573d6000803e3d6000fd5b50505050600061137b600284610cae90919063ffffffff16565b6007546040519192506001600160a01b03169082156108fc029083906000818181858888f193505050501580156113b6573d6000803e3d6000fd5b5061117e8160006113c6826109d7565b600854604051632279773760e11b8152600481018390529192506001600160a01b0316906344f2ee6e90602401600060405180830381600087803b15801561140d57600080fd5b505af1158015611421573d6000803e3d6000fd5b50506004805460035460405163095ea7b360e01b81526001600160a01b03918216938101939093526024830186905216925063095ea7b391506044016020604051808303816000875af115801561147c573d6000803e3d6000fd5b505050506040513d601f19601f820116820180604052508101906114a09190611608565b506003546004546009546001600160a01b039283169263578caf3292869290821691600091879183918291166114d8426103846117c3565b60405160e08a901b6001600160e01b03191681526001600160a01b039788166004820152951515602487015260448601949094526064850192909252608484015290921660a482015260c481019190915260e40160606040518083038185885af115801561154a573d6000803e3d6000fd5b50505050506040513d601f19601f820116820180604052508101906112f491906118a6565b60006020828403121561158157600080fd5b5035919050565b60006020828403121561159a57600080fd5b81356001600160a01b0381168114610cf057600080fd5b600080604083850312156115c457600080fd5b50508035926020909101359150565b6020808252818101527f4f776e61626c653a2063616c6c6572206973206e6f7420746865206f776e6572604082015260600190565b60006020828403121561161a57600080fd5b81518015158114610cf057600080fd5b60006020828403121561163c57600080fd5b5051919050565b634e487b7160e01b600052604160045260246000fd5b634e487b7160e01b600052603260045260246000fd5b600081518084526020808501945080840160005b838110156116c357815180516001600160a01b03908116895284820151168489015260409081015115159088015260609096019590820190600101611683565b509495945050505050565b8281526040602082015260006116e7604083018461166f565b949350505050565b6000602080838503121561170257600080fd5b825167ffffffffffffffff8082111561171a57600080fd5b818501915085601f83011261172e57600080fd5b81518181111561174057611740611643565b8060051b604051601f19603f8301168101818110858211171561176557611765611643565b60405291825284820192508381018501918883111561178357600080fd5b938501935b828510156117a157845184529385019392850192611788565b98975050505050505050565b634e487b7160e01b600052601160045260246000fd5b600082198211156117d6576117d66117ad565b500190565b60008160001904831182151516156117f5576117f56117ad565b500290565b60008261181757634e487b7160e01b600052601260045260246000fd5b500490565b600060208083528351808285015260005b818110156118495785810183015185820160400152820161182d565b8181111561185b576000604083870101525b50601f01601f1916929092016040019392505050565b84815260806020820152600061188a608083018661166f565b6001600160a01b03949094166040830152506060015292915050565b6000806000606084860312156118bb57600080fd5b835192506020840151915060408401519050925092509256fea264697066735822122050507f3abc860a702f0c10e96a7cfc0aa17bcdbdd2397a38ab94a5ebc2d4e2bd64736f6c634300080b0033",
  "linkReferences": {},
  "deployedLinkReferences": {}
}