{
  "_format": "hh-sol-artifact-1",
  "contractName": "Fetch",
  "sourceName": "contracts/Fetch.sol",
  "abi": [
    {
      "inputs": [
        {
          "internalType": "address",
          "name": "_dexRouter",
          "type": "address"
        },
        {
          "internalType": "address",
          "name": "_token",
          "type": "address"
        },
        {
          "internalType": "address",
          "name": "_beneficiary",
          "type": "address"
        },
        {
          "internalType": "address",
          "name": "_minter",
          "type": "address"
        },
        {
          "internalType": "address",
          "name": "_VE",
          "type": "address"
        },
        {
          "internalType": "address",
          "name": "_treasury",
          "type": "address"
        }
      ],
      "stateMutability": "nonpayable",
      "type": "constructor"
    },
    {
      "anonymous": false,
      "inputs": [
        {
          "indexed": true,
          "internalType": "address",
          "name": "previousOwner",
          "type": "address"
        },
        {
          "indexed": true,
          "internalType": "address",
          "name": "newOwner",
          "type": "address"
        }
      ],
      "name": "OwnershipTransferred",
      "type": "event"
    },
    {
      "inputs": [],
      "name": "VE",
      "outputs": [
        {
          "internalType": "contract IVE",
          "name": "",
          "type": "address"
        }
      ],
      "stateMutability": "view",
      "type": "function"
    },
    {
      "inputs": [],
      "name": "WETH",
      "outputs": [
        {
          "internalType": "address",
          "name": "",
          "type": "address"
        }
      ],
      "stateMutability": "view",
      "type": "function"
    },
    {
      "inputs": [],
      "name": "beneficiary",
      "outputs": [
        {
          "internalType": "address",
          "name": "",
          "type": "address"
        }
      ],
      "stateMutability": "view",
      "type": "function"
    },
    {
      "inputs": [],
      "name": "bonusPercent",
      "outputs": [
        {
          "internalType": "uint256",
          "name": "",
          "type": "uint256"
        }
      ],
      "stateMutability": "view",
      "type": "function"
    },
    {
      "inputs": [
        {
          "internalType": "uint256",
          "name": "ethInput",
          "type": "uint256"
        }
      ],
      "name": "calculateToSplit",
      "outputs": [
        {
          "internalType": "uint256",
          "name": "ethToDex",
          "type": "uint256"
        },
        {
          "internalType": "uint256",
          "name": "ethToSale",
          "type": "uint256"
        }
      ],
      "stateMutability": "view",
      "type": "function"
    },
    {
      "inputs": [],
      "name": "convert",
      "outputs": [],
      "stateMutability": "payable",
      "type": "function"
    },
    {
      "inputs": [
        {
          "internalType": "address",
          "name": "receiver",
          "type": "address"
        }
      ],
      "name": "convertFor",
      "outputs": [],
      "stateMutability": "payable",
      "type": "function"
    },
    {
      "inputs": [],
      "name": "dexRouter",
      "outputs": [
        {
          "internalType": "address",
          "name": "",
          "type": "address"
        }
      ],
      "stateMutability": "view",
      "type": "function"
    },
    {
      "inputs": [
        {
          "internalType": "uint256",
          "name": "_ethAmount",
          "type": "uint256"
        }
      ],
      "name": "getTokenPrice",
      "outputs": [
        {
          "internalType": "uint256",
          "name": "",
          "type": "uint256"
        }
      ],
      "stateMutability": "view",
      "type": "function"
    },
    {
      "inputs": [],
      "name": "minter",
      "outputs": [
        {
          "internalType": "contract IMinter",
          "name": "",
          "type": "address"
        }
      ],
      "stateMutability": "view",
      "type": "function"
    },
    {
      "inputs": [],
      "name": "owner",
      "outputs": [
        {
          "internalType": "address",
          "name": "",
          "type": "address"
        }
      ],
      "stateMutability": "view",
      "type": "function"
    },
    {
      "inputs": [],
      "name": "percentToDex",
      "outputs": [
        {
          "internalType": "uint256",
          "name": "",
          "type": "uint256"
        }
      ],
      "stateMutability": "view",
      "type": "function"
    },
    {
      "inputs": [],
      "name": "percentToSale",
      "outputs": [
        {
          "internalType": "uint256",
          "name": "",
          "type": "uint256"
        }
      ],
      "stateMutability": "view",
      "type": "function"
    },
    {
      "inputs": [],
      "name": "renounceOwnership",
      "outputs": [],
      "stateMutability": "nonpayable",
      "type": "function"
    },
    {
      "inputs": [],
      "name": "token",
      "outputs": [
        {
          "internalType": "address",
          "name": "",
          "type": "address"
        }
      ],
      "stateMutability": "view",
      "type": "function"
    },
    {
      "inputs": [
        {
          "internalType": "address",
          "name": "newOwner",
          "type": "address"
        }
      ],
      "name": "transferOwnership",
      "outputs": [],
      "stateMutability": "nonpayable",
      "type": "function"
    },
    {
      "inputs": [],
      "name": "treasury",
      "outputs": [
        {
          "internalType": "address",
          "name": "",
          "type": "address"
        }
      ],
      "stateMutability": "view",
      "type": "function"
    },
    {
      "inputs": [
        {
          "internalType": "uint256",
          "name": "_bonusPercent",
          "type": "uint256"
        }
      ],
      "name": "updateBonusPercent",
      "outputs": [],
      "stateMutability": "nonpayable",
      "type": "function"
    },
    {
      "inputs": [
        {
          "internalType": "uint256",
          "name": "_percentToDex",
          "type": "uint256"
        },
        {
          "internalType": "uint256",
          "name": "_percentToSale",
          "type": "uint256"
        }
      ],
      "name": "updateSplitPercent",
      "outputs": [],
      "stateMutability": "nonpayable",
      "type": "function"
    },
    {
      "inputs": [],
      "name": "withdraw",
      "outputs": [],
      "stateMutability": "nonpayable",
      "type": "function"
    },
    {
      "stateMutability": "payable",
      "type": "receive"
    }
  ],
  "bytecode": "0x60806040526032600555603260065560646007553480156200002057600080fd5b50604051620015f4380380620015f48339810160408190526200004391620001ac565b6200004e336200013f565b600380546001600160a01b0319166001600160a01b03881690811790915560408051637a7a2da360e11b8152905163f4f45b46916004808201926020929091908290030181865afa158015620000a8573d6000803e3d6000fd5b505050506040513d601f19601f82011682018060405250810190620000ce91906200022d565b600180546001600160a01b03199081166001600160a01b0393841617909155600480548216978316979097179096556008805487169582169590951790945560098054861693851693909317909255600280548516918416919091179055600a805490931691161790555062000252565b600080546001600160a01b038381166001600160a01b0319831681178455604051919092169283917f8be0079c531659141344cd1fd0a4f28419497f9722a3daafe3b4186f6b6457e09190a35050565b80516001600160a01b0381168114620001a757600080fd5b919050565b60008060008060008060c08789031215620001c657600080fd5b620001d1876200018f565b9550620001e1602088016200018f565b9450620001f1604088016200018f565b935062000201606088016200018f565b925062000211608088016200018f565b91506200022160a088016200018f565b90509295509295509295565b6000602082840312156200024057600080fd5b6200024b826200018f565b9392505050565b61139280620002626000396000f3fe6080604052600436106101235760003560e01c8063ad5c4648116100a0578063c863657d11610064578063c863657d14610300578063dfa5372414610320578063ee8e993c14610336578063f2fde38b14610356578063fc0c546a1461037657600080fd5b8063ad5c464814610277578063becf3add14610297578063c02c36c2146102ad578063c457fb37146102c0578063c757e5b5146102e057600080fd5b80634f783ed0116100e75780634f783ed0146101f857806361d027b31461021c578063715018a61461023c5780638da5cb5b1461025157806391bbdcc71461026f57600080fd5b8063075461721461012f5780630758d9241461016c57806338af3eed1461018c5780633a5b08e7146101ac5780633ccfd60b146101e157600080fd5b3661012a57005b600080fd5b34801561013b57600080fd5b5060095461014f906001600160a01b031681565b6040516001600160a01b0390911681526020015b60405180910390f35b34801561017857600080fd5b5060035461014f906001600160a01b031681565b34801561019857600080fd5b5060085461014f906001600160a01b031681565b3480156101b857600080fd5b506101cc6101c7366004610ff7565b610396565b60408051928352602083019190915201610163565b3480156101ed57600080fd5b506101f66103ac565b005b34801561020457600080fd5b5061020e60065481565b604051908152602001610163565b34801561022857600080fd5b50600a5461014f906001600160a01b031681565b34801561024857600080fd5b506101f661041c565b34801561025d57600080fd5b506000546001600160a01b031661014f565b6101f6610452565b34801561028357600080fd5b5060015461014f906001600160a01b031681565b3480156102a357600080fd5b5061020e60075481565b6101f66102bb366004611010565b61045b565b3480156102cc57600080fd5b5061020e6102db366004610ff7565b610464565b3480156102ec57600080fd5b506101f66102fb366004611039565b6105e8565b34801561030c57600080fd5b5060025461014f906001600160a01b031681565b34801561032c57600080fd5b5061020e60055481565b34801561034257600080fd5b506101f6610351366004610ff7565b61066a565b34801561036257600080fd5b506101f6610371366004611010565b61071d565b34801561038257600080fd5b5060045461014f906001600160a01b031681565b6000806103a2836107b5565b9094909350915050565b6000546001600160a01b031633146103df5760405162461bcd60e51b81526004016103d69061105b565b60405180910390fd5b600080546040516001600160a01b03909116914780156108fc02929091818181858888f19350505050158015610419573d6000803e3d6000fd5b50565b6000546001600160a01b031633146104465760405162461bcd60e51b81526004016103d69061105b565b61045060006107f4565b565b61045033610844565b61041981610844565b604080516001808252818301909252600091829190816020015b604080516060810182526000808252602080830182905292820152825260001990920191018161047e57505060015481519192506001600160a01b03169082906000906104cd576104cd6110a6565b60209081029190910101516001600160a01b039182169052600454825191169082906000906104fe576104fe6110a6565b6020026020010151602001906001600160a01b031690816001600160a01b031681525050600081600081518110610537576105376110a6565b602090810291909101015190151560409182015260035490516326207f2d60e21b81526000916001600160a01b031690639881fcb49061057d908790869060040161111b565b600060405180830381865afa15801561059a573d6000803e3d6000fd5b505050506040513d6000823e601f3d908101601f191682016040526105c2919081019061113c565b9050806001815181106105d7576105d76110a6565b602002602001015192505050919050565b6000546001600160a01b031633146106125760405162461bcd60e51b81526004016103d69061105b565b600061061e8284611210565b90508060641461065e5760405162461bcd60e51b815260206004820152600b60248201526a15dc9bdb99c81d1bdd185b60aa1b60448201526064016103d6565b50600591909155600655565b6000546001600160a01b031633146106945760405162461bcd60e51b81526004016103d69061105b565b6000600754116106d45760405162461bcd60e51b815260206004820152600b60248201526a5a6572726f20626f6e757360a81b60448201526064016103d6565b606460075411156107185760405162461bcd60e51b815260206004820152600e60248201526d4f766572666c6f7720626f6e757360901b60448201526064016103d6565b600755565b6000546001600160a01b031633146107475760405162461bcd60e51b81526004016103d69061105b565b6001600160a01b0381166107ac5760405162461bcd60e51b815260206004820152602660248201527f4f776e61626c653a206e6577206f776e657220697320746865207a65726f206160448201526564647265737360d01b60648201526084016103d6565b610419816107f4565b6000806107d86005546107d2606486610a2b90919063ffffffff16565b90610a76565b6006549092506107ed906107d2856064610a2b565b9050915091565b600080546001600160a01b038381166001600160a01b0319831681178455604051919092169283917f8be0079c531659141344cd1fd0a4f28419497f9722a3daafe3b4186f6b6457e09190a35050565b600034116108805760405162461bcd60e51b81526020600482015260096024820152680f4cae4e4de40cae8d60bb1b60448201526064016103d6565b61088934610af5565b600480546040516370a0823160e01b815230928101929092526000916001600160a01b03909116906370a0823190602401602060405180830381865afa1580156108d7573d6000803e3d6000fd5b505050506040513d601f19601f820116820180604052508101906108fb9190611228565b90506000811161093b5760405162461bcd60e51b815260206004820152600b60248201526a1b9bdd081cddd85c1c195960aa1b60448201526064016103d6565b6004805460025460405163095ea7b360e01b81526001600160a01b039182169381019390935260248301849052169063095ea7b3906044016020604051808303816000875af1158015610992573d6000803e3d6000fd5b505050506040513d601f19601f820116820180604052508101906109b69190611241565b5060025460405163d4e54c3b60e01b815260048101839052630784ce0060248201526001600160a01b0384811660448301529091169063d4e54c3b90606401600060405180830381600087803b158015610a0f57600080fd5b505af1158015610a23573d6000803e3d6000fd5b505050505050565b6000610a6d83836040518060400160405280601a81526020017f536166654d6174683a206469766973696f6e206279207a65726f000000000000815250610b3d565b90505b92915050565b600082610a8557506000610a70565b6000610a918385611263565b905082610a9e8583611282565b14610a6d5760405162461bcd60e51b815260206004820152602160248201527f536166654d6174683a206d756c7469706c69636174696f6e206f766572666c6f6044820152607760f81b60648201526084016103d6565b600080610b0183610396565b90925090508115610b2957600354600454610b29916001600160a01b03908116911684610b74565b8015610b3857610b3881610cec565b505050565b60008183610b5e5760405162461bcd60e51b81526004016103d691906112a4565b506000610b6b8486611282565b95945050505050565b604080516001808252818301909252600091816020015b6040805160608101825260008082526020808301829052928201528252600019909201910181610b8b57505060015481519192506001600160a01b0316908290600090610bda57610bda6110a6565b6020026020010151600001906001600160a01b031690816001600160a01b0316815250508281600081518110610c1257610c126110a6565b6020026020010151602001906001600160a01b031690816001600160a01b031681525050600081600081518110610c4b57610c4b6110a6565b60209081029190910101519015156040909101526001600160a01b03841663e8ef46818360018430610c7f42610708611210565b6040518663ffffffff1660e01b8152600401610c9e94939291906112f9565b60006040518083038185885af1158015610cbc573d6000803e3d6000fd5b50505050506040513d6000823e601f3d908101601f19168201604052610ce5919081019061113c565b5050505050565b6000610cf782610464565b90506000610d156007546107d2606485610a2b90919063ffffffff16565b6009549091506001600160a01b03166344f2ee6e610d338484610de4565b6040518263ffffffff1660e01b8152600401610d5191815260200190565b600060405180830381600087803b158015610d6b57600080fd5b505af1158015610d7f573d6000803e3d6000fd5b505050506000610d99600285610a2b90919063ffffffff16565b6008546040519192506001600160a01b03169082156108fc029083906000818181858888f19350505050158015610dd4573d6000803e3d6000fd5b50610dde81610e43565b50505050565b600080610df18385611210565b905083811015610a6d5760405162461bcd60e51b815260206004820152601b60248201527f536166654d6174683a206164646974696f6e206f766572666c6f77000000000060448201526064016103d6565b6000610e4e82610464565b600954604051632279773760e11b8152600481018390529192506001600160a01b0316906344f2ee6e90602401600060405180830381600087803b158015610e9557600080fd5b505af1158015610ea9573d6000803e3d6000fd5b50506004805460035460405163095ea7b360e01b81526001600160a01b03918216938101939093526024830186905216925063095ea7b391506044016020604051808303816000875af1158015610f04573d6000803e3d6000fd5b505050506040513d601f19601f82011682018060405250810190610f289190611241565b50600354600454600a546001600160a01b039283169263578caf329286929082169160009187918391829116610f6042610384611210565b60405160e08a901b6001600160e01b03191681526001600160a01b039788166004820152951515602487015260448601949094526064850192909252608484015290921660a482015260c481019190915260e40160606040518083038185885af1158015610fd2573d6000803e3d6000fd5b50505050506040513d601f19601f82011682018060405250810190610ce5919061132e565b60006020828403121561100957600080fd5b5035919050565b60006020828403121561102257600080fd5b81356001600160a01b0381168114610a6d57600080fd5b6000806040838503121561104c57600080fd5b50508035926020909101359150565b6020808252818101527f4f776e61626c653a2063616c6c6572206973206e6f7420746865206f776e6572604082015260600190565b634e487b7160e01b600052604160045260246000fd5b634e487b7160e01b600052603260045260246000fd5b600081518084526020808501945080840160005b8381101561111057815180516001600160a01b039081168952848201511684890152604090810151151590880152606090960195908201906001016110d0565b509495945050505050565b82815260406020820152600061113460408301846110bc565b949350505050565b6000602080838503121561114f57600080fd5b825167ffffffffffffffff8082111561116757600080fd5b818501915085601f83011261117b57600080fd5b81518181111561118d5761118d611090565b8060051b604051601f19603f830116810181811085821117156111b2576111b2611090565b6040529182528482019250838101850191888311156111d057600080fd5b938501935b828510156111ee578451845293850193928501926111d5565b98975050505050505050565b634e487b7160e01b600052601160045260246000fd5b60008219821115611223576112236111fa565b500190565b60006020828403121561123a57600080fd5b5051919050565b60006020828403121561125357600080fd5b81518015158114610a6d57600080fd5b600081600019048311821515161561127d5761127d6111fa565b500290565b60008261129f57634e487b7160e01b600052601260045260246000fd5b500490565b600060208083528351808285015260005b818110156112d1578581018301518582016040015282016112b5565b818111156112e3576000604083870101525b50601f01601f1916929092016040019392505050565b84815260806020820152600061131260808301866110bc565b6001600160a01b03949094166040830152506060015292915050565b60008060006060848603121561134357600080fd5b835192506020840151915060408401519050925092509256fea2646970667358221220fe1405f991a0e441e5eafc5248fc240d15ad6b4a9682a3d250cf882bb8e1f2e164736f6c634300080b0033",
  "linkReferences": {},
  "deployedLinkReferences": {}
}