{
  "_format": "hh-sol-artifact-1",
  "contractName": "Fetch",
  "sourceName": "contracts/Fetch.sol",
  "abi": [
    {
      "inputs": [
        {
          "internalType": "address",
          "name": "_dexRouter",
          "type": "address"
        },
        {
          "internalType": "address",
          "name": "_token",
          "type": "address"
        },
        {
          "internalType": "address",
          "name": "_beneficiary",
          "type": "address"
        },
        {
          "internalType": "address",
          "name": "_minter",
          "type": "address"
        },
        {
          "internalType": "address",
          "name": "_VE",
          "type": "address"
        },
        {
          "internalType": "address",
          "name": "_treasury",
          "type": "address"
        }
      ],
      "stateMutability": "nonpayable",
      "type": "constructor"
    },
    {
      "anonymous": false,
      "inputs": [
        {
          "indexed": true,
          "internalType": "address",
          "name": "previousOwner",
          "type": "address"
        },
        {
          "indexed": true,
          "internalType": "address",
          "name": "newOwner",
          "type": "address"
        }
      ],
      "name": "OwnershipTransferred",
      "type": "event"
    },
    {
      "inputs": [],
      "name": "VE",
      "outputs": [
        {
          "internalType": "contract IVE",
          "name": "",
          "type": "address"
        }
      ],
      "stateMutability": "view",
      "type": "function"
    },
    {
      "inputs": [],
      "name": "WETH",
      "outputs": [
        {
          "internalType": "address",
          "name": "",
          "type": "address"
        }
      ],
      "stateMutability": "view",
      "type": "function"
    },
    {
      "inputs": [],
      "name": "beneficiary",
      "outputs": [
        {
          "internalType": "address",
          "name": "",
          "type": "address"
        }
      ],
      "stateMutability": "view",
      "type": "function"
    },
    {
      "inputs": [],
      "name": "bonusPercent",
      "outputs": [
        {
          "internalType": "uint256",
          "name": "",
          "type": "uint256"
        }
      ],
      "stateMutability": "view",
      "type": "function"
    },
    {
      "inputs": [
        {
          "internalType": "uint256",
          "name": "ethInput",
          "type": "uint256"
        }
      ],
      "name": "calculateToSplit",
      "outputs": [
        {
          "internalType": "uint256",
          "name": "ethToDex",
          "type": "uint256"
        },
        {
          "internalType": "uint256",
          "name": "ethToSale",
          "type": "uint256"
        }
      ],
      "stateMutability": "view",
      "type": "function"
    },
    {
      "inputs": [],
      "name": "convert",
      "outputs": [],
      "stateMutability": "payable",
      "type": "function"
    },
    {
      "inputs": [
        {
          "internalType": "address",
          "name": "receiver",
          "type": "address"
        }
      ],
      "name": "convertFor",
      "outputs": [],
      "stateMutability": "payable",
      "type": "function"
    },
    {
      "inputs": [],
      "name": "dexRouter",
      "outputs": [
        {
          "internalType": "address",
          "name": "",
          "type": "address"
        }
      ],
      "stateMutability": "view",
      "type": "function"
    },
    {
      "inputs": [
        {
          "internalType": "uint256",
          "name": "_ethAmount",
          "type": "uint256"
        }
      ],
      "name": "getTokenPrice",
      "outputs": [
        {
          "internalType": "uint256",
          "name": "",
          "type": "uint256"
        }
      ],
      "stateMutability": "view",
      "type": "function"
    },
    {
      "inputs": [
        {
          "internalType": "address",
          "name": "_rewarder",
          "type": "address"
        }
      ],
      "name": "initializeRewarder",
      "outputs": [],
      "stateMutability": "nonpayable",
      "type": "function"
    },
    {
      "inputs": [
        {
          "internalType": "uint256",
          "name": "amount",
          "type": "uint256"
        }
      ],
      "name": "mint",
      "outputs": [],
      "stateMutability": "nonpayable",
      "type": "function"
    },
    {
      "inputs": [],
      "name": "minter",
      "outputs": [
        {
          "internalType": "contract IMinter",
          "name": "",
          "type": "address"
        }
      ],
      "stateMutability": "view",
      "type": "function"
    },
    {
      "inputs": [],
      "name": "owner",
      "outputs": [
        {
          "internalType": "address",
          "name": "",
          "type": "address"
        }
      ],
      "stateMutability": "view",
      "type": "function"
    },
    {
      "inputs": [],
      "name": "percentToDex",
      "outputs": [
        {
          "internalType": "uint256",
          "name": "",
          "type": "uint256"
        }
      ],
      "stateMutability": "view",
      "type": "function"
    },
    {
      "inputs": [],
      "name": "percentToSale",
      "outputs": [
        {
          "internalType": "uint256",
          "name": "",
          "type": "uint256"
        }
      ],
      "stateMutability": "view",
      "type": "function"
    },
    {
      "inputs": [],
      "name": "renounceOwnership",
      "outputs": [],
      "stateMutability": "nonpayable",
      "type": "function"
    },
    {
      "inputs": [],
      "name": "rewarder",
      "outputs": [
        {
          "internalType": "address",
          "name": "",
          "type": "address"
        }
      ],
      "stateMutability": "view",
      "type": "function"
    },
    {
      "inputs": [],
      "name": "token",
      "outputs": [
        {
          "internalType": "address",
          "name": "",
          "type": "address"
        }
      ],
      "stateMutability": "view",
      "type": "function"
    },
    {
      "inputs": [
        {
          "internalType": "address",
          "name": "newOwner",
          "type": "address"
        }
      ],
      "name": "transferOwnership",
      "outputs": [],
      "stateMutability": "nonpayable",
      "type": "function"
    },
    {
      "inputs": [],
      "name": "treasury",
      "outputs": [
        {
          "internalType": "address",
          "name": "",
          "type": "address"
        }
      ],
      "stateMutability": "view",
      "type": "function"
    },
    {
      "inputs": [
        {
          "internalType": "uint256",
          "name": "_bonusPercent",
          "type": "uint256"
        }
      ],
      "name": "updateBonusPercent",
      "outputs": [],
      "stateMutability": "nonpayable",
      "type": "function"
    },
    {
      "inputs": [
        {
          "internalType": "uint256",
          "name": "_percentToDex",
          "type": "uint256"
        },
        {
          "internalType": "uint256",
          "name": "_percentToSale",
          "type": "uint256"
        }
      ],
      "name": "updateSplitPercent",
      "outputs": [],
      "stateMutability": "nonpayable",
      "type": "function"
    },
    {
      "inputs": [],
      "name": "withdraw",
      "outputs": [],
      "stateMutability": "nonpayable",
      "type": "function"
    },
    {
      "stateMutability": "payable",
      "type": "receive"
    }
  ],
  "bytecode": "0x6080604052603260058190556006556064600755600b80546001600160a01b03191690553480156200003057600080fd5b5060405162001814380380620018148339810160408190526200005391620001bc565b6200005e336200014f565b600380546001600160a01b0319166001600160a01b03881690811790915560408051637a7a2da360e11b8152905163f4f45b46916004808201926020929091908290030181865afa158015620000b8573d6000803e3d6000fd5b505050506040513d601f19601f82011682018060405250810190620000de91906200023d565b600180546001600160a01b03199081166001600160a01b0393841617909155600480548216978316979097179096556008805487169582169590951790945560098054861693851693909317909255600280548516918416919091179055600a805490931691161790555062000262565b600080546001600160a01b038381166001600160a01b0319831681178455604051919092169283917f8be0079c531659141344cd1fd0a4f28419497f9722a3daafe3b4186f6b6457e09190a35050565b80516001600160a01b0381168114620001b757600080fd5b919050565b60008060008060008060c08789031215620001d657600080fd5b620001e1876200019f565b9550620001f1602088016200019f565b945062000201604088016200019f565b935062000211606088016200019f565b925062000221608088016200019f565b91506200023160a088016200019f565b90509295509295509295565b6000602082840312156200025057600080fd5b6200025b826200019f565b9392505050565b6115a280620002726000396000f3fe6080604052600436106101445760003560e01c8063a0712d68116100b6578063c863657d1161006f578063c863657d14610361578063dcc3e06e14610381578063dfa53724146103a1578063ee8e993c146103b7578063f2fde38b146103d7578063fc0c546a146103f757600080fd5b8063a0712d68146102b8578063ad5c4648146102d8578063becf3add146102f8578063c02c36c21461030e578063c457fb3714610321578063c757e5b51461034157600080fd5b80634f783ed0116101085780634f783ed01461021957806361d027b31461023d57806367482f001461025d578063715018a61461027d5780638da5cb5b1461029257806391bbdcc7146102b057600080fd5b806307546172146101505780630758d9241461018d57806338af3eed146101ad5780633a5b08e7146101cd5780633ccfd60b1461020257600080fd5b3661014b57005b600080fd5b34801561015c57600080fd5b50600954610170906001600160a01b031681565b6040516001600160a01b0390911681526020015b60405180910390f35b34801561019957600080fd5b50600354610170906001600160a01b031681565b3480156101b957600080fd5b50600854610170906001600160a01b031681565b3480156101d957600080fd5b506101ed6101e8366004611207565b610417565b60408051928352602083019190915201610184565b34801561020e57600080fd5b5061021761042d565b005b34801561022557600080fd5b5061022f60065481565b604051908152602001610184565b34801561024957600080fd5b50600a54610170906001600160a01b031681565b34801561026957600080fd5b50610217610278366004611220565b61049d565b34801561028957600080fd5b50610217610506565b34801561029e57600080fd5b506000546001600160a01b0316610170565b61021761053c565b3480156102c457600080fd5b506102176102d3366004611207565b610545565b3480156102e457600080fd5b50600154610170906001600160a01b031681565b34801561030457600080fd5b5061022f60075481565b61021761031c366004611220565b61066b565b34801561032d57600080fd5b5061022f61033c366004611207565b610674565b34801561034d57600080fd5b5061021761035c366004611249565b6107f8565b34801561036d57600080fd5b50600254610170906001600160a01b031681565b34801561038d57600080fd5b50600b54610170906001600160a01b031681565b3480156103ad57600080fd5b5061022f60055481565b3480156103c357600080fd5b506102176103d2366004611207565b61087a565b3480156103e357600080fd5b506102176103f2366004611220565b61092d565b34801561040357600080fd5b50600454610170906001600160a01b031681565b600080610423836109c5565b9094909350915050565b6000546001600160a01b031633146104605760405162461bcd60e51b81526004016104579061126b565b60405180910390fd5b600080546040516001600160a01b03909116914780156108fc02929091818181858888f1935050505015801561049a573d6000803e3d6000fd5b50565b600b546001600160a01b0316156104e45760405162461bcd60e51b815260206004820152600b60248201526a125b9a5d1a585b1a5e995960aa1b6044820152606401610457565b600b80546001600160a01b0319166001600160a01b0392909216919091179055565b6000546001600160a01b031633146105305760405162461bcd60e51b81526004016104579061126b565b61053a6000610a04565b565b61053a33610a54565b600b546001600160a01b031661058e5760405162461bcd60e51b815260206004820152600e60248201526d22b6b83a3c903932bbb0b93232b960911b6044820152606401610457565b600954604051632279773760e11b8152600481018390526001600160a01b03909116906344f2ee6e90602401600060405180830381600087803b1580156105d457600080fd5b505af11580156105e8573d6000803e3d6000fd5b505060048054600b5460405163a9059cbb60e01b81526001600160a01b03918216938101939093526024830186905216925063a9059cbb91506044016020604051808303816000875af1158015610643573d6000803e3d6000fd5b505050506040513d601f19601f8201168201806040525081019061066791906112a0565b5050565b61049a81610a54565b604080516001808252818301909252600091829190816020015b604080516060810182526000808252602080830182905292820152825260001990920191018161068e57505060015481519192506001600160a01b03169082906000906106dd576106dd6112d8565b60209081029190910101516001600160a01b0391821690526004548251911690829060009061070e5761070e6112d8565b6020026020010151602001906001600160a01b031690816001600160a01b031681525050600081600081518110610747576107476112d8565b602090810291909101015190151560409182015260035490516326207f2d60e21b81526000916001600160a01b031690639881fcb49061078d908790869060040161134d565b600060405180830381865afa1580156107aa573d6000803e3d6000fd5b505050506040513d6000823e601f3d908101601f191682016040526107d2919081019061136e565b9050806001815181106107e7576107e76112d8565b602002602001015192505050919050565b6000546001600160a01b031633146108225760405162461bcd60e51b81526004016104579061126b565b600061082e8284611442565b90508060641461086e5760405162461bcd60e51b815260206004820152600b60248201526a15dc9bdb99c81d1bdd185b60aa1b6044820152606401610457565b50600591909155600655565b6000546001600160a01b031633146108a45760405162461bcd60e51b81526004016104579061126b565b6000600754116108e45760405162461bcd60e51b815260206004820152600b60248201526a5a6572726f20626f6e757360a81b6044820152606401610457565b606460075411156109285760405162461bcd60e51b815260206004820152600e60248201526d4f766572666c6f7720626f6e757360901b6044820152606401610457565b600755565b6000546001600160a01b031633146109575760405162461bcd60e51b81526004016104579061126b565b6001600160a01b0381166109bc5760405162461bcd60e51b815260206004820152602660248201527f4f776e61626c653a206e6577206f776e657220697320746865207a65726f206160448201526564647265737360d01b6064820152608401610457565b61049a81610a04565b6000806109e86005546109e2606486610c3b90919063ffffffff16565b90610c86565b6006549092506109fd906109e2856064610c3b565b9050915091565b600080546001600160a01b038381166001600160a01b0319831681178455604051919092169283917f8be0079c531659141344cd1fd0a4f28419497f9722a3daafe3b4186f6b6457e09190a35050565b60003411610a905760405162461bcd60e51b81526020600482015260096024820152680f4cae4e4de40cae8d60bb1b6044820152606401610457565b610a9934610d05565b600480546040516370a0823160e01b815230928101929092526000916001600160a01b03909116906370a0823190602401602060405180830381865afa158015610ae7573d6000803e3d6000fd5b505050506040513d601f19601f82011682018060405250810190610b0b919061145a565b905060008111610b4b5760405162461bcd60e51b815260206004820152600b60248201526a1b9bdd081cddd85c1c195960aa1b6044820152606401610457565b6004805460025460405163095ea7b360e01b81526001600160a01b039182169381019390935260248301849052169063095ea7b3906044016020604051808303816000875af1158015610ba2573d6000803e3d6000fd5b505050506040513d601f19601f82011682018060405250810190610bc691906112a0565b5060025460405163d4e54c3b60e01b815260048101839052630784ce0060248201526001600160a01b0384811660448301529091169063d4e54c3b90606401600060405180830381600087803b158015610c1f57600080fd5b505af1158015610c33573d6000803e3d6000fd5b505050505050565b6000610c7d83836040518060400160405280601a81526020017f536166654d6174683a206469766973696f6e206279207a65726f000000000000815250610d4d565b90505b92915050565b600082610c9557506000610c80565b6000610ca18385611473565b905082610cae8583611492565b14610c7d5760405162461bcd60e51b815260206004820152602160248201527f536166654d6174683a206d756c7469706c69636174696f6e206f766572666c6f6044820152607760f81b6064820152608401610457565b600080610d1183610417565b90925090508115610d3957600354600454610d39916001600160a01b03908116911684610d84565b8015610d4857610d4881610efc565b505050565b60008183610d6e5760405162461bcd60e51b815260040161045791906114b4565b506000610d7b8486611492565b95945050505050565b604080516001808252818301909252600091816020015b6040805160608101825260008082526020808301829052928201528252600019909201910181610d9b57505060015481519192506001600160a01b0316908290600090610dea57610dea6112d8565b6020026020010151600001906001600160a01b031690816001600160a01b0316815250508281600081518110610e2257610e226112d8565b6020026020010151602001906001600160a01b031690816001600160a01b031681525050600081600081518110610e5b57610e5b6112d8565b60209081029190910101519015156040909101526001600160a01b03841663e8ef46818360018430610e8f42610708611442565b6040518663ffffffff1660e01b8152600401610eae9493929190611509565b60006040518083038185885af1158015610ecc573d6000803e3d6000fd5b50505050506040513d6000823e601f3d908101601f19168201604052610ef5919081019061136e565b5050505050565b6000610f0782610674565b90506000610f256007546109e2606485610c3b90919063ffffffff16565b6009549091506001600160a01b03166344f2ee6e610f438484610ff4565b6040518263ffffffff1660e01b8152600401610f6191815260200190565b600060405180830381600087803b158015610f7b57600080fd5b505af1158015610f8f573d6000803e3d6000fd5b505050506000610fa9600285610c3b90919063ffffffff16565b6008546040519192506001600160a01b03169082156108fc029083906000818181858888f19350505050158015610fe4573d6000803e3d6000fd5b50610fee81611053565b50505050565b6000806110018385611442565b905083811015610c7d5760405162461bcd60e51b815260206004820152601b60248201527f536166654d6174683a206164646974696f6e206f766572666c6f7700000000006044820152606401610457565b600061105e82610674565b600954604051632279773760e11b8152600481018390529192506001600160a01b0316906344f2ee6e90602401600060405180830381600087803b1580156110a557600080fd5b505af11580156110b9573d6000803e3d6000fd5b50506004805460035460405163095ea7b360e01b81526001600160a01b03918216938101939093526024830186905216925063095ea7b391506044016020604051808303816000875af1158015611114573d6000803e3d6000fd5b505050506040513d601f19601f8201168201806040525081019061113891906112a0565b50600354600454600a546001600160a01b039283169263578caf32928692908216916000918791839182911661117042610384611442565b60405160e08a901b6001600160e01b03191681526001600160a01b039788166004820152951515602487015260448601949094526064850192909252608484015290921660a482015260c481019190915260e40160606040518083038185885af11580156111e2573d6000803e3d6000fd5b50505050506040513d601f19601f82011682018060405250810190610ef5919061153e565b60006020828403121561121957600080fd5b5035919050565b60006020828403121561123257600080fd5b81356001600160a01b0381168114610c7d57600080fd5b6000806040838503121561125c57600080fd5b50508035926020909101359150565b6020808252818101527f4f776e61626c653a2063616c6c6572206973206e6f7420746865206f776e6572604082015260600190565b6000602082840312156112b257600080fd5b81518015158114610c7d57600080fd5b634e487b7160e01b600052604160045260246000fd5b634e487b7160e01b600052603260045260246000fd5b600081518084526020808501945080840160005b8381101561134257815180516001600160a01b03908116895284820151168489015260409081015115159088015260609096019590820190600101611302565b509495945050505050565b82815260406020820152600061136660408301846112ee565b949350505050565b6000602080838503121561138157600080fd5b825167ffffffffffffffff8082111561139957600080fd5b818501915085601f8301126113ad57600080fd5b8151818111156113bf576113bf6112c2565b8060051b604051601f19603f830116810181811085821117156113e4576113e46112c2565b60405291825284820192508381018501918883111561140257600080fd5b938501935b8285101561142057845184529385019392850192611407565b98975050505050505050565b634e487b7160e01b600052601160045260246000fd5b600082198211156114555761145561142c565b500190565b60006020828403121561146c57600080fd5b5051919050565b600081600019048311821515161561148d5761148d61142c565b500290565b6000826114af57634e487b7160e01b600052601260045260246000fd5b500490565b600060208083528351808285015260005b818110156114e1578581018301518582016040015282016114c5565b818111156114f3576000604083870101525b50601f01601f1916929092016040019392505050565b84815260806020820152600061152260808301866112ee565b6001600160a01b03949094166040830152506060015292915050565b60008060006060848603121561155357600080fd5b835192506020840151915060408401519050925092509256fea2646970667358221220398d980c700658f6c6941c9bf2568e00a3121d1241d7acea446e1227c38b150264736f6c634300080b0033",
  "linkReferences": {},
  "deployedLinkReferences": {}
}