{
  "_format": "hh-sol-artifact-1",
  "contractName": "Fetch",
  "sourceName": "contracts/Fetch.sol",
  "abi": [
    {
      "inputs": [
        {
          "internalType": "address",
          "name": "_dexRouter",
          "type": "address"
        },
        {
          "internalType": "address",
          "name": "_token",
          "type": "address"
        },
        {
          "internalType": "address",
          "name": "_beneficiary",
          "type": "address"
        },
        {
          "internalType": "address",
          "name": "_minter",
          "type": "address"
        },
        {
          "internalType": "address",
          "name": "_VE",
          "type": "address"
        },
        {
          "internalType": "address",
          "name": "_treasury",
          "type": "address"
        },
        {
          "internalType": "address",
          "name": "_formula",
          "type": "address"
        },
        {
          "internalType": "uint256",
          "name": "_minLockTime",
          "type": "uint256"
        }
      ],
      "stateMutability": "nonpayable",
      "type": "constructor"
    },
    {
      "anonymous": false,
      "inputs": [
        {
          "indexed": true,
          "internalType": "address",
          "name": "previousOwner",
          "type": "address"
        },
        {
          "indexed": true,
          "internalType": "address",
          "name": "newOwner",
          "type": "address"
        }
      ],
      "name": "OwnershipTransferred",
      "type": "event"
    },
    {
      "inputs": [],
      "name": "VE",
      "outputs": [
        {
          "internalType": "contract IVE",
          "name": "",
          "type": "address"
        }
      ],
      "stateMutability": "view",
      "type": "function"
    },
    {
      "inputs": [],
      "name": "WETH",
      "outputs": [
        {
          "internalType": "address",
          "name": "",
          "type": "address"
        }
      ],
      "stateMutability": "view",
      "type": "function"
    },
    {
      "inputs": [],
      "name": "beneficiary",
      "outputs": [
        {
          "internalType": "address",
          "name": "",
          "type": "address"
        }
      ],
      "stateMutability": "view",
      "type": "function"
    },
    {
      "inputs": [
        {
          "internalType": "uint256",
          "name": "ethInput",
          "type": "uint256"
        }
      ],
      "name": "calculateToSplit",
      "outputs": [
        {
          "internalType": "uint256",
          "name": "ethToDex",
          "type": "uint256"
        },
        {
          "internalType": "uint256",
          "name": "ethToSale",
          "type": "uint256"
        }
      ],
      "stateMutability": "view",
      "type": "function"
    },
    {
      "inputs": [
        {
          "internalType": "uint256",
          "name": "_lockTime",
          "type": "uint256"
        }
      ],
      "name": "convert",
      "outputs": [],
      "stateMutability": "payable",
      "type": "function"
    },
    {
      "inputs": [
        {
          "internalType": "address",
          "name": "receiver",
          "type": "address"
        },
        {
          "internalType": "uint256",
          "name": "_lockTime",
          "type": "uint256"
        }
      ],
      "name": "convertFor",
      "outputs": [],
      "stateMutability": "payable",
      "type": "function"
    },
    {
      "inputs": [
        {
          "internalType": "uint256",
          "name": "_amount",
          "type": "uint256"
        },
        {
          "internalType": "uint256",
          "name": "_lockTime",
          "type": "uint256"
        }
      ],
      "name": "depositToken",
      "outputs": [],
      "stateMutability": "nonpayable",
      "type": "function"
    },
    {
      "inputs": [],
      "name": "dexRouter",
      "outputs": [
        {
          "internalType": "address",
          "name": "",
          "type": "address"
        }
      ],
      "stateMutability": "view",
      "type": "function"
    },
    {
      "inputs": [],
      "name": "formula",
      "outputs": [
        {
          "internalType": "contract IFetchFormula",
          "name": "",
          "type": "address"
        }
      ],
      "stateMutability": "view",
      "type": "function"
    },
    {
      "inputs": [
        {
          "internalType": "uint256",
          "name": "_ethAmount",
          "type": "uint256"
        }
      ],
      "name": "getTokenPrice",
      "outputs": [
        {
          "internalType": "uint256",
          "name": "",
          "type": "uint256"
        }
      ],
      "stateMutability": "view",
      "type": "function"
    },
    {
      "inputs": [],
      "name": "minLockTime",
      "outputs": [
        {
          "internalType": "uint256",
          "name": "",
          "type": "uint256"
        }
      ],
      "stateMutability": "view",
      "type": "function"
    },
    {
      "inputs": [],
      "name": "minter",
      "outputs": [
        {
          "internalType": "contract IMinter",
          "name": "",
          "type": "address"
        }
      ],
      "stateMutability": "view",
      "type": "function"
    },
    {
      "inputs": [],
      "name": "owner",
      "outputs": [
        {
          "internalType": "address",
          "name": "",
          "type": "address"
        }
      ],
      "stateMutability": "view",
      "type": "function"
    },
    {
      "inputs": [],
      "name": "percentToDex",
      "outputs": [
        {
          "internalType": "uint256",
          "name": "",
          "type": "uint256"
        }
      ],
      "stateMutability": "view",
      "type": "function"
    },
    {
      "inputs": [],
      "name": "percentToSale",
      "outputs": [
        {
          "internalType": "uint256",
          "name": "",
          "type": "uint256"
        }
      ],
      "stateMutability": "view",
      "type": "function"
    },
    {
      "inputs": [],
      "name": "renounceOwnership",
      "outputs": [],
      "stateMutability": "nonpayable",
      "type": "function"
    },
    {
      "inputs": [],
      "name": "token",
      "outputs": [
        {
          "internalType": "address",
          "name": "",
          "type": "address"
        }
      ],
      "stateMutability": "view",
      "type": "function"
    },
    {
      "inputs": [
        {
          "internalType": "address",
          "name": "newOwner",
          "type": "address"
        }
      ],
      "name": "transferOwnership",
      "outputs": [],
      "stateMutability": "nonpayable",
      "type": "function"
    },
    {
      "inputs": [],
      "name": "treasury",
      "outputs": [
        {
          "internalType": "address",
          "name": "",
          "type": "address"
        }
      ],
      "stateMutability": "view",
      "type": "function"
    },
    {
      "inputs": [
        {
          "internalType": "address",
          "name": "_formula",
          "type": "address"
        }
      ],
      "name": "updateFormula",
      "outputs": [],
      "stateMutability": "nonpayable",
      "type": "function"
    },
    {
      "inputs": [
        {
          "internalType": "address",
          "name": "_minter",
          "type": "address"
        }
      ],
      "name": "updateMinter",
      "outputs": [],
      "stateMutability": "nonpayable",
      "type": "function"
    },
    {
      "inputs": [
        {
          "internalType": "uint256",
          "name": "_percentToDex",
          "type": "uint256"
        },
        {
          "internalType": "uint256",
          "name": "_percentToSale",
          "type": "uint256"
        }
      ],
      "name": "updateSplitPercent",
      "outputs": [],
      "stateMutability": "nonpayable",
      "type": "function"
    },
    {
      "inputs": [],
      "name": "withdraw",
      "outputs": [],
      "stateMutability": "nonpayable",
      "type": "function"
    },
    {
      "stateMutability": "payable",
      "type": "receive"
    }
  ],
  "bytecode": "0x6080604052602160055560436006553480156200001b57600080fd5b5060405162001a3638038062001a368339810160408190526200003e91620001be565b620000493362000151565b600380546001600160a01b0319166001600160a01b038a1690811790915560408051637a7a2da360e11b8152905163f4f45b46916004808201926020929091908290030181865afa158015620000a3573d6000803e3d6000fd5b505050506040513d601f19601f82011682018060405250810190620000c991906200025d565b600180546001600160a01b03199081166001600160a01b039384161790915560048054821699831699909917909855600780548916978216979097179096556008805488169587169590951790945560028054871693861693909317909255600980548616918516919091179055600a8054909416921691909117909155600b555062000282565b600080546001600160a01b038381166001600160a01b0319831681178455604051919092169283917f8be0079c531659141344cd1fd0a4f28419497f9722a3daafe3b4186f6b6457e09190a35050565b80516001600160a01b0381168114620001b957600080fd5b919050565b600080600080600080600080610100898b031215620001dc57600080fd5b620001e789620001a1565b9750620001f760208a01620001a1565b96506200020760408a01620001a1565b95506200021760608a01620001a1565b94506200022760808a01620001a1565b93506200023760a08a01620001a1565b92506200024760c08a01620001a1565b915060e089015190509295985092959890939650565b6000602082840312156200027057600080fd5b6200027b82620001a1565b9392505050565b6117a480620002926000396000f3fe6080604052600436106101445760003560e01c80639d2d04d1116100b6578063c757e5b51161006f578063c757e5b51461036c578063c863657d1461038c578063d5b49a71146103ac578063dfa53724146103cc578063f2fde38b146103e2578063fc0c546a1461040257600080fd5b80639d2d04d1146102d0578063a3908e1b146102f0578063a60ff76614610303578063aaa0736214610319578063ad5c46481461032c578063c457fb371461034c57600080fd5b80634b75f54f116101085780634b75f54f146102195780634eb03f6e146102395780634f783ed01461025957806361d027b31461027d578063715018a61461029d5780638da5cb5b146102b257600080fd5b806307546172146101505780630758d9241461018d57806338af3eed146101ad5780633a5b08e7146101cd5780633ccfd60b1461020257600080fd5b3661014b57005b600080fd5b34801561015c57600080fd5b50600854610170906001600160a01b031681565b6040516001600160a01b0390911681526020015b60405180910390f35b34801561019957600080fd5b50600354610170906001600160a01b031681565b3480156101b957600080fd5b50600754610170906001600160a01b031681565b3480156101d957600080fd5b506101ed6101e83660046113d1565b610422565b60408051928352602083019190915201610184565b34801561020e57600080fd5b50610217610438565b005b34801561022557600080fd5b50600a54610170906001600160a01b031681565b34801561024557600080fd5b50610217610254366004611406565b6104a8565b34801561026557600080fd5b5061026f60065481565b604051908152602001610184565b34801561028957600080fd5b50600954610170906001600160a01b031681565b3480156102a957600080fd5b506102176104f4565b3480156102be57600080fd5b506000546001600160a01b0316610170565b3480156102dc57600080fd5b506102176102eb366004611421565b61052a565b6102176102fe3660046113d1565b610794565b34801561030f57600080fd5b5061026f600b5481565b610217610327366004611443565b61079e565b34801561033857600080fd5b50600154610170906001600160a01b031681565b34801561035857600080fd5b5061026f6103673660046113d1565b6107ac565b34801561037857600080fd5b50610217610387366004611421565b610930565b34801561039857600080fd5b50600254610170906001600160a01b031681565b3480156103b857600080fd5b506102176103c7366004611406565b6109b2565b3480156103d857600080fd5b5061026f60055481565b3480156103ee57600080fd5b506102176103fd366004611406565b6109fe565b34801561040e57600080fd5b50600454610170906001600160a01b031681565b60008061042e83610a96565b9094909350915050565b6000546001600160a01b0316331461046b5760405162461bcd60e51b81526004016104629061146d565b60405180910390fd5b600080546040516001600160a01b03909116914780156108fc02929091818181858888f193505050501580156104a5573d6000803e3d6000fd5b50565b6000546001600160a01b031633146104d25760405162461bcd60e51b81526004016104629061146d565b600880546001600160a01b0319166001600160a01b0392909216919091179055565b6000546001600160a01b0316331461051e5760405162461bcd60e51b81526004016104629061146d565b6105286000610acf565b565b600480546040516323b872dd60e01b81523392810192909252306024830152604482018490526001600160a01b0316906323b872dd906064016020604051808303816000875af1158015610582573d6000803e3d6000fd5b505050506040513d601f19601f820116820180604052508101906105a691906114a2565b50600a5460405163faf1ebfd60e01b8152600481018390526000916001600160a01b03169063faf1ebfd90602401602060405180830381865afa1580156105f1573d6000803e3d6000fd5b505050506040513d601f19601f8201168201806040525081019061061591906114c4565b905060008115610694576106348261062e866064610b1f565b90610b6a565b600854604051632279773760e11b8152600481018390529192506001600160a01b0316906344f2ee6e90602401600060405180830381600087803b15801561067b57600080fd5b505af115801561068f573d6000803e3d6000fd5b505050505b60006106a08583610be9565b6004805460025460405163095ea7b360e01b81526001600160a01b039182169381019390935260248301849052929350919091169063095ea7b3906044016020604051808303816000875af11580156106fd573d6000803e3d6000fd5b505050506040513d601f19601f8201168201806040525081019061072191906114a2565b5060025460405163d4e54c3b60e01b815260048101839052602481018690523360448201526001600160a01b039091169063d4e54c3b90606401600060405180830381600087803b15801561077557600080fd5b505af1158015610789573d6000803e3d6000fd5b505050505050505050565b6104a53382610c48565b6107a88282610c48565b5050565b604080516001808252818301909252600091829190816020015b60408051606081018252600080825260208083018290529282015282526000199092019101816107c657505060015481519192506001600160a01b0316908290600090610815576108156114f3565b60209081029190910101516001600160a01b03918216905260045482519116908290600090610846576108466114f3565b6020026020010151602001906001600160a01b031690816001600160a01b03168152505060008160008151811061087f5761087f6114f3565b602090810291909101015190151560409182015260035490516326207f2d60e21b81526000916001600160a01b031690639881fcb4906108c59087908690600401611568565b600060405180830381865afa1580156108e2573d6000803e3d6000fd5b505050506040513d6000823e601f3d908101601f1916820160405261090a9190810190611589565b90508060018151811061091f5761091f6114f3565b602002602001015192505050919050565b6000546001600160a01b0316331461095a5760405162461bcd60e51b81526004016104629061146d565b6000610966828461165d565b9050806064146109a65760405162461bcd60e51b815260206004820152600b60248201526a15dc9bdb99c81d1bdd185b60aa1b6044820152606401610462565b50600591909155600655565b6000546001600160a01b031633146109dc5760405162461bcd60e51b81526004016104629061146d565b600a80546001600160a01b0319166001600160a01b0392909216919091179055565b6000546001600160a01b03163314610a285760405162461bcd60e51b81526004016104629061146d565b6001600160a01b038116610a8d5760405162461bcd60e51b815260206004820152602660248201527f4f776e61626c653a206e6577206f776e657220697320746865207a65726f206160448201526564647265737360d01b6064820152608401610462565b6104a581610acf565b600080610ab360055461062e606486610b1f90919063ffffffff16565b600654909250610ac89061062e856064610b1f565b9050915091565b600080546001600160a01b038381166001600160a01b0319831681178455604051919092169283917f8be0079c531659141344cd1fd0a4f28419497f9722a3daafe3b4186f6b6457e09190a35050565b6000610b6183836040518060400160405280601a81526020017f536166654d6174683a206469766973696f6e206279207a65726f000000000000815250610f66565b90505b92915050565b600082610b7957506000610b64565b6000610b858385611675565b905082610b928583611694565b14610b615760405162461bcd60e51b815260206004820152602160248201527f536166654d6174683a206d756c7469706c69636174696f6e206f766572666c6f6044820152607760f81b6064820152608401610462565b600080610bf6838561165d565b905083811015610b615760405162461bcd60e51b815260206004820152601b60248201527f536166654d6174683a206164646974696f6e206f766572666c6f7700000000006044820152606401610462565b600b54811015610c8a5760405162461bcd60e51b815260206004820152600d60248201526c6d696e206c6f636b2074696d6560981b6044820152606401610462565b60003411610cc65760405162461bcd60e51b81526020600482015260096024820152680f4cae4e4de40cae8d60bb1b6044820152606401610462565b610ccf34610f9d565b600a5460405163faf1ebfd60e01b8152600481018390526000916001600160a01b03169063faf1ebfd90602401602060405180830381865afa158015610d19573d6000803e3d6000fd5b505050506040513d601f19601f82011682018060405250810190610d3d91906114c4565b90508015610dc5576000610d50346107ac565b90506000610d638361062e846064610b1f565b600854604051632279773760e11b8152600481018390529192506001600160a01b0316906344f2ee6e90602401600060405180830381600087803b158015610daa57600080fd5b505af1158015610dbe573d6000803e3d6000fd5b5050505050505b600480546040516370a0823160e01b815230928101929092526000916001600160a01b03909116906370a0823190602401602060405180830381865afa158015610e13573d6000803e3d6000fd5b505050506040513d601f19601f82011682018060405250810190610e3791906114c4565b905060008111610e775760405162461bcd60e51b815260206004820152600b60248201526a1b9bdd081cddd85c1c195960aa1b6044820152606401610462565b6004805460025460405163095ea7b360e01b81526001600160a01b039182169381019390935260248301849052169063095ea7b3906044016020604051808303816000875af1158015610ece573d6000803e3d6000fd5b505050506040513d601f19601f82011682018060405250810190610ef291906114a2565b5060025460405163d4e54c3b60e01b815260048101839052602481018590526001600160a01b0386811660448301529091169063d4e54c3b90606401600060405180830381600087803b158015610f4857600080fd5b505af1158015610f5c573d6000803e3d6000fd5b5050505050505050565b60008183610f875760405162461bcd60e51b815260040161046291906116b6565b506000610f948486611694565b95945050505050565b600080610fa983610422565b90925090508115610fd157600354600454610fd1916001600160a01b03908116911684610fe5565b8015610fe057610fe08161115d565b505050565b604080516001808252818301909252600091816020015b6040805160608101825260008082526020808301829052928201528252600019909201910181610ffc57505060015481519192506001600160a01b031690829060009061104b5761104b6114f3565b6020026020010151600001906001600160a01b031690816001600160a01b0316815250508281600081518110611083576110836114f3565b6020026020010151602001906001600160a01b031690816001600160a01b0316815250506000816000815181106110bc576110bc6114f3565b60209081029190910101519015156040909101526001600160a01b03841663e8ef468183600184306110f04261070861165d565b6040518663ffffffff1660e01b815260040161110f949392919061170b565b60006040518083038185885af115801561112d573d6000803e3d6000fd5b50505050506040513d6000823e601f3d908101601f191682016040526111569190810190611589565b5050505050565b6000611168826107ac565b600854604051632279773760e11b8152600481018390529192506001600160a01b0316906344f2ee6e90602401600060405180830381600087803b1580156111af57600080fd5b505af11580156111c3573d6000803e3d6000fd5b5050505060006111dd600284610b1f90919063ffffffff16565b6007546040519192506001600160a01b03169082156108fc029083906000818181858888f19350505050158015611218573d6000803e3d6000fd5b50610fe0816000611228826107ac565b600854604051632279773760e11b8152600481018390529192506001600160a01b0316906344f2ee6e90602401600060405180830381600087803b15801561126f57600080fd5b505af1158015611283573d6000803e3d6000fd5b50506004805460035460405163095ea7b360e01b81526001600160a01b03918216938101939093526024830186905216925063095ea7b391506044016020604051808303816000875af11580156112de573d6000803e3d6000fd5b505050506040513d601f19601f8201168201806040525081019061130291906114a2565b506003546004546009546001600160a01b039283169263578caf32928692908216916000918791839182911661133a4261038461165d565b60405160e08a901b6001600160e01b03191681526001600160a01b039788166004820152951515602487015260448601949094526064850192909252608484015290921660a482015260c481019190915260e40160606040518083038185885af11580156113ac573d6000803e3d6000fd5b50505050506040513d601f19601f820116820180604052508101906111569190611740565b6000602082840312156113e357600080fd5b5035919050565b80356001600160a01b038116811461140157600080fd5b919050565b60006020828403121561141857600080fd5b610b61826113ea565b6000806040838503121561143457600080fd5b50508035926020909101359150565b6000806040838503121561145657600080fd5b61145f836113ea565b946020939093013593505050565b6020808252818101527f4f776e61626c653a2063616c6c6572206973206e6f7420746865206f776e6572604082015260600190565b6000602082840312156114b457600080fd5b81518015158114610b6157600080fd5b6000602082840312156114d657600080fd5b5051919050565b634e487b7160e01b600052604160045260246000fd5b634e487b7160e01b600052603260045260246000fd5b600081518084526020808501945080840160005b8381101561155d57815180516001600160a01b0390811689528482015116848901526040908101511515908801526060909601959082019060010161151d565b509495945050505050565b8281526040602082015260006115816040830184611509565b949350505050565b6000602080838503121561159c57600080fd5b825167ffffffffffffffff808211156115b457600080fd5b818501915085601f8301126115c857600080fd5b8151818111156115da576115da6114dd565b8060051b604051601f19603f830116810181811085821117156115ff576115ff6114dd565b60405291825284820192508381018501918883111561161d57600080fd5b938501935b8285101561163b57845184529385019392850192611622565b98975050505050505050565b634e487b7160e01b600052601160045260246000fd5b6000821982111561167057611670611647565b500190565b600081600019048311821515161561168f5761168f611647565b500290565b6000826116b157634e487b7160e01b600052601260045260246000fd5b500490565b600060208083528351808285015260005b818110156116e3578581018301518582016040015282016116c7565b818111156116f5576000604083870101525b50601f01601f1916929092016040019392505050565b8481526080602082015260006117246080830186611509565b6001600160a01b03949094166040830152506060015292915050565b60008060006060848603121561175557600080fd5b835192506020840151915060408401519050925092509256fea2646970667358221220ad19ec4cf546c631213790dbd5b5e7573a46ff4e76fd844e3645a59bbf6d3e1f64736f6c634300080b0033",
  "linkReferences": {},
  "deployedLinkReferences": {}
}