{
  "_format": "hh-sol-artifact-1",
  "contractName": "Treasury",
  "sourceName": "contracts/Treasury.sol",
  "abi": [
    {
      "anonymous": false,
      "inputs": [
        {
          "indexed": true,
          "internalType": "address",
          "name": "previousOwner",
          "type": "address"
        },
        {
          "indexed": true,
          "internalType": "address",
          "name": "newOwner",
          "type": "address"
        }
      ],
      "name": "OwnershipTransferred",
      "type": "event"
    },
    {
      "inputs": [
        {
          "internalType": "uint256",
          "name": "_amount",
          "type": "uint256"
        },
        {
          "internalType": "address",
          "name": "_token",
          "type": "address"
        }
      ],
      "name": "manage",
      "outputs": [],
      "stateMutability": "nonpayable",
      "type": "function"
    },
    {
      "inputs": [],
      "name": "owner",
      "outputs": [
        {
          "internalType": "address",
          "name": "",
          "type": "address"
        }
      ],
      "stateMutability": "view",
      "type": "function"
    },
    {
      "inputs": [],
      "name": "renounceOwnership",
      "outputs": [],
      "stateMutability": "nonpayable",
      "type": "function"
    },
    {
      "inputs": [
        {
          "internalType": "address",
          "name": "newOwner",
          "type": "address"
        }
      ],
      "name": "transferOwnership",
      "outputs": [],
      "stateMutability": "nonpayable",
      "type": "function"
    }
  ],
  "bytecode": "0x608060405234801561001057600080fd5b5061001a3361001f565b61006f565b600080546001600160a01b038381166001600160a01b0319831681178455604051919092169283917f8be0079c531659141344cd1fd0a4f28419497f9722a3daafe3b4186f6b6457e09190a35050565b6105ee8061007e6000396000f3fe608060405234801561001057600080fd5b506004361061004c5760003560e01c806311e2564b14610051578063715018a6146100665780638da5cb5b1461006e578063f2fde38b1461008d575b600080fd5b61006461005f366004610494565b6100a0565b005b6100646100eb565b600054604080516001600160a01b039092168252519081900360200190f35b61006461009b3660046104c0565b610121565b6000546001600160a01b031633146100d35760405162461bcd60e51b81526004016100ca906104e2565b60405180910390fd5b6100e76001600160a01b03821633846101bc565b5050565b6000546001600160a01b031633146101155760405162461bcd60e51b81526004016100ca906104e2565b61011f6000610213565b565b6000546001600160a01b0316331461014b5760405162461bcd60e51b81526004016100ca906104e2565b6001600160a01b0381166101b05760405162461bcd60e51b815260206004820152602660248201527f4f776e61626c653a206e6577206f776e657220697320746865207a65726f206160448201526564647265737360d01b60648201526084016100ca565b6101b981610213565b50565b604080516001600160a01b038416602482015260448082018490528251808303909101815260649091019091526020810180516001600160e01b031663a9059cbb60e01b17905261020e908490610263565b505050565b600080546001600160a01b038381166001600160a01b0319831681178455604051919092169283917f8be0079c531659141344cd1fd0a4f28419497f9722a3daafe3b4186f6b6457e09190a35050565b60006102b8826040518060400160405280602081526020017f5361666545524332303a206c6f772d6c6576656c2063616c6c206661696c6564815250856001600160a01b03166103359092919063ffffffff16565b80519091501561020e57808060200190518101906102d69190610517565b61020e5760405162461bcd60e51b815260206004820152602a60248201527f5361666545524332303a204552433230206f7065726174696f6e20646964206e6044820152691bdd081cdd58d8d9595960b21b60648201526084016100ca565b6060610344848460008561034c565b949350505050565b60606103578561043f565b6103a35760405162461bcd60e51b815260206004820152601d60248201527f416464726573733a2063616c6c20746f206e6f6e2d636f6e747261637400000060448201526064016100ca565b600080866001600160a01b031685876040516103bf9190610569565b60006040518083038185875af1925050503d80600081146103fc576040519150601f19603f3d011682016040523d82523d6000602084013e610401565b606091505b509150915081156104155791506103449050565b8051156104255780518082602001fd5b8360405162461bcd60e51b81526004016100ca9190610585565b6000813f7fc5d2460186f7233c927e7db2dcc703c0e500b653ca82273b7bfad8045d85a470818114801590610344575050151592915050565b80356001600160a01b038116811461048f57600080fd5b919050565b600080604083850312156104a757600080fd5b823591506104b760208401610478565b90509250929050565b6000602082840312156104d257600080fd5b6104db82610478565b9392505050565b6020808252818101527f4f776e61626c653a2063616c6c6572206973206e6f7420746865206f776e6572604082015260600190565b60006020828403121561052957600080fd5b815180151581146104db57600080fd5b60005b8381101561055457818101518382015260200161053c565b83811115610563576000848401525b50505050565b6000825161057b818460208701610539565b9190910192915050565b60208152600082518060208401526105a4816040850160208701610539565b601f01601f1916919091016040019291505056fea26469706673582212204b61e3a80a6079a3702b88a447f30dd0874866e49649c3113c1e91e61a8843d864736f6c634300080b0033",
  "linkReferences": {},
  "deployedLinkReferences": {}
}