{
  "_format": "hh-sol-artifact-1",
  "contractName": "Treasury",
  "sourceName": "contracts/Treasury.sol",
  "abi": [
    {
      "anonymous": false,
      "inputs": [
        {
          "indexed": true,
          "internalType": "address",
          "name": "previousOwner",
          "type": "address"
        },
        {
          "indexed": true,
          "internalType": "address",
          "name": "newOwner",
          "type": "address"
        }
      ],
      "name": "OwnershipTransferred",
      "type": "event"
    },
    {
      "inputs": [
        {
          "internalType": "uint256",
          "name": "_amount",
          "type": "uint256"
        },
        {
          "internalType": "address",
          "name": "_token",
          "type": "address"
        },
        {
          "internalType": "address",
          "name": "_to",
          "type": "address"
        }
      ],
      "name": "manage",
      "outputs": [],
      "stateMutability": "nonpayable",
      "type": "function"
    },
    {
      "inputs": [],
      "name": "owner",
      "outputs": [
        {
          "internalType": "address",
          "name": "",
          "type": "address"
        }
      ],
      "stateMutability": "view",
      "type": "function"
    },
    {
      "inputs": [],
      "name": "renounceOwnership",
      "outputs": [],
      "stateMutability": "nonpayable",
      "type": "function"
    },
    {
      "inputs": [
        {
          "internalType": "address",
          "name": "newOwner",
          "type": "address"
        }
      ],
      "name": "transferOwnership",
      "outputs": [],
      "stateMutability": "nonpayable",
      "type": "function"
    }
  ],
  "bytecode": "0x608060405234801561001057600080fd5b5061001a3361001f565b61006f565b600080546001600160a01b038381166001600160a01b0319831681178455604051919092169283917f8be0079c531659141344cd1fd0a4f28419497f9722a3daafe3b4186f6b6457e09190a35050565b6105fa8061007e6000396000f3fe608060405234801561001057600080fd5b506004361061004c5760003560e01c80633b1b77e114610051578063715018a6146100665780638da5cb5b1461006e578063f2fde38b1461008d575b600080fd5b61006461005f366004610490565b6100a0565b005b6100646100ec565b600054604080516001600160a01b039092168252519081900360200190f35b61006461009b3660046104cc565b610122565b6000546001600160a01b031633146100d35760405162461bcd60e51b81526004016100ca906104ee565b60405180910390fd5b6100e76001600160a01b03831682856101bd565b505050565b6000546001600160a01b031633146101165760405162461bcd60e51b81526004016100ca906104ee565b610120600061020f565b565b6000546001600160a01b0316331461014c5760405162461bcd60e51b81526004016100ca906104ee565b6001600160a01b0381166101b15760405162461bcd60e51b815260206004820152602660248201527f4f776e61626c653a206e6577206f776e657220697320746865207a65726f206160448201526564647265737360d01b60648201526084016100ca565b6101ba8161020f565b50565b604080516001600160a01b038416602482015260448082018490528251808303909101815260649091019091526020810180516001600160e01b031663a9059cbb60e01b1790526100e790849061025f565b600080546001600160a01b038381166001600160a01b0319831681178455604051919092169283917f8be0079c531659141344cd1fd0a4f28419497f9722a3daafe3b4186f6b6457e09190a35050565b60006102b4826040518060400160405280602081526020017f5361666545524332303a206c6f772d6c6576656c2063616c6c206661696c6564815250856001600160a01b03166103319092919063ffffffff16565b8051909150156100e757808060200190518101906102d29190610523565b6100e75760405162461bcd60e51b815260206004820152602a60248201527f5361666545524332303a204552433230206f7065726174696f6e20646964206e6044820152691bdd081cdd58d8d9595960b21b60648201526084016100ca565b60606103408484600085610348565b949350505050565b60606103538561043b565b61039f5760405162461bcd60e51b815260206004820152601d60248201527f416464726573733a2063616c6c20746f206e6f6e2d636f6e747261637400000060448201526064016100ca565b600080866001600160a01b031685876040516103bb9190610575565b60006040518083038185875af1925050503d80600081146103f8576040519150601f19603f3d011682016040523d82523d6000602084013e6103fd565b606091505b509150915081156104115791506103409050565b8051156104215780518082602001fd5b8360405162461bcd60e51b81526004016100ca9190610591565b6000813f7fc5d2460186f7233c927e7db2dcc703c0e500b653ca82273b7bfad8045d85a470818114801590610340575050151592915050565b80356001600160a01b038116811461048b57600080fd5b919050565b6000806000606084860312156104a557600080fd5b833592506104b560208501610474565b91506104c360408501610474565b90509250925092565b6000602082840312156104de57600080fd5b6104e782610474565b9392505050565b6020808252818101527f4f776e61626c653a2063616c6c6572206973206e6f7420746865206f776e6572604082015260600190565b60006020828403121561053557600080fd5b815180151581146104e757600080fd5b60005b83811015610560578181015183820152602001610548565b8381111561056f576000848401525b50505050565b60008251610587818460208701610545565b9190910192915050565b60208152600082518060208401526105b0816040850160208701610545565b601f01601f1916919091016040019291505056fea2646970667358221220940b7c83b8a1626a9a97c268f37d1c47be6b4babe777f3d8ab1100589cfb17e764736f6c634300080b0033",
  "linkReferences": {},
  "deployedLinkReferences": {}
}