{
  "_format": "hh-sol-artifact-1",
  "contractName": "VotersRewardsFormula",
  "sourceName": "contracts/VotersRewardsFormula.sol",
  "abi": [
    {
      "inputs": [
        {
          "internalType": "address",
          "name": "_usdPool",
          "type": "address"
        },
        {
          "internalType": "address",
          "name": "_usdToken",
          "type": "address"
        },
        {
          "internalType": "address",
          "name": "_rewardsLocker",
          "type": "address"
        },
        {
          "internalType": "address",
          "name": "_rewardToken",
          "type": "address"
        }
      ],
      "stateMutability": "nonpayable",
      "type": "constructor"
    },
    {
      "inputs": [],
      "name": "computeRewards",
      "outputs": [
        {
          "internalType": "uint256",
          "name": "",
          "type": "uint256"
        }
      ],
      "stateMutability": "view",
      "type": "function"
    },
    {
      "inputs": [],
      "name": "rewardToken",
      "outputs": [
        {
          "internalType": "address",
          "name": "",
          "type": "address"
        }
      ],
      "stateMutability": "view",
      "type": "function"
    },
    {
      "inputs": [],
      "name": "rewardsLocker",
      "outputs": [
        {
          "internalType": "address",
          "name": "",
          "type": "address"
        }
      ],
      "stateMutability": "view",
      "type": "function"
    },
    {
      "inputs": [],
      "name": "usdGoal",
      "outputs": [
        {
          "internalType": "uint256",
          "name": "",
          "type": "uint256"
        }
      ],
      "stateMutability": "view",
      "type": "function"
    },
    {
      "inputs": [],
      "name": "usdPool",
      "outputs": [
        {
          "internalType": "address",
          "name": "",
          "type": "address"
        }
      ],
      "stateMutability": "view",
      "type": "function"
    },
    {
      "inputs": [],
      "name": "usdToken",
      "outputs": [
        {
          "internalType": "address",
          "name": "",
          "type": "address"
        }
      ],
      "stateMutability": "view",
      "type": "function"
    }
  ],
  "bytecode": "0x608060405269d3c21bcecceda100000060045534801561001e57600080fd5b5060405161054338038061054383398101604081905261003d916100ac565b600080546001600160a01b039586166001600160a01b0319918216179091556001805494861694821694909417909355600280549285169284169290921790915560038054919093169116179055610100565b80516001600160a01b03811681146100a757600080fd5b919050565b600080600080608085870312156100c257600080fd5b6100cb85610090565b93506100d960208601610090565b92506100e760408601610090565b91506100f560608601610090565b905092959194509250565b6104348061010f6000396000f3fe608060405234801561001057600080fd5b50600436106100625760003560e01c80634fec5b67146100675780637c1b7f8a14610097578063b8b94c6e146100ad578063e2f5c3a1146100c0578063f7c618c1146100c9578063f897a22b146100dc575b600080fd5b60005461007a906001600160a01b031681565b6040516001600160a01b0390911681526020015b60405180910390f35b61009f6100ef565b60405190815260200161008e565b60025461007a906001600160a01b031681565b61009f60045481565b60035461007a906001600160a01b031681565b60015461007a906001600160a01b031681565b600154600080546040516370a0823160e01b81526001600160a01b039182166004820152919283929116906370a0823190602401602060405180830381865afa158015610140573d6000803e3d6000fd5b505050506040513d601f19601f820116820180604052508101906101649190610341565b6003546002546040516370a0823160e01b81526001600160a01b0391821660048201529293506000929116906370a0823190602401602060405180830381865afa1580156101b6573d6000803e3d6000fd5b505050506040513d601f19601f820116820180604052508101906101da9190610341565b905060045482106101eb5792915050565b816101f95760009250505090565b61023461020e670de0b6b3a76400008461035a565b61022e670de0b6b3a7640000600454610227919061035a565b849061023b565b90610286565b9250505090565b600061027d83836040518060400160405280601a81526020017f536166654d6174683a206469766973696f6e206279207a65726f00000000000081525061030a565b90505b92915050565b60008261029557506000610280565b60006102a1838561037c565b9050826102ae858361035a565b1461027d5760405162461bcd60e51b815260206004820152602160248201527f536166654d6174683a206d756c7469706c69636174696f6e206f766572666c6f6044820152607760f81b60648201526084015b60405180910390fd5b6000818361032b5760405162461bcd60e51b815260040161030191906103a9565b506000610338848661035a565b95945050505050565b60006020828403121561035357600080fd5b5051919050565b60008261037757634e487b7160e01b600052601260045260246000fd5b500490565b60008160001904831182151516156103a457634e487b7160e01b600052601160045260246000fd5b500290565b600060208083528351808285015260005b818110156103d6578581018301518582016040015282016103ba565b818111156103e8576000604083870101525b50601f01601f191692909201604001939250505056fea264697066735822122086650c6d4d38b29754d5a7ae5da9b6fed873387b5325209ca6a1ade715747d1e64736f6c634300080b0033",
  "linkReferences": {},
  "deployedLinkReferences": {}
}