{
  "_format": "hh-sol-artifact-1",
  "contractName": "VotersRewardsFormula",
  "sourceName": "contracts/VotersRewardsFormula.sol",
  "abi": [
    {
      "inputs": [
        {
          "internalType": "address",
          "name": "_voter",
          "type": "address"
        },
        {
          "internalType": "address",
          "name": "_rewardsLocker",
          "type": "address"
        },
        {
          "internalType": "address",
          "name": "_rewardToken",
          "type": "address"
        }
      ],
      "stateMutability": "nonpayable",
      "type": "constructor"
    },
    {
      "inputs": [],
      "name": "computeRewards",
      "outputs": [
        {
          "internalType": "uint256",
          "name": "",
          "type": "uint256"
        }
      ],
      "stateMutability": "view",
      "type": "function"
    },
    {
      "inputs": [],
      "name": "rewardToken",
      "outputs": [
        {
          "internalType": "address",
          "name": "",
          "type": "address"
        }
      ],
      "stateMutability": "view",
      "type": "function"
    },
    {
      "inputs": [],
      "name": "rewardsLocker",
      "outputs": [
        {
          "internalType": "address",
          "name": "",
          "type": "address"
        }
      ],
      "stateMutability": "view",
      "type": "function"
    },
    {
      "inputs": [],
      "name": "voter",
      "outputs": [
        {
          "internalType": "contract IVoter",
          "name": "",
          "type": "address"
        }
      ],
      "stateMutability": "view",
      "type": "function"
    }
  ],
  "bytecode": "0x608060405234801561001057600080fd5b5060405161039238038061039283398101604081905261002f9161008d565b600080546001600160a01b039485166001600160a01b0319918216179091556001805493851693821693909317909255600280549190931691161790556100d0565b80516001600160a01b038116811461008857600080fd5b919050565b6000806000606084860312156100a257600080fd5b6100ab84610071565b92506100b960208501610071565b91506100c760408501610071565b90509250925092565b6102b3806100df6000396000f3fe608060405234801561001057600080fd5b506004361061004c5760003560e01c806346c96aac146100515780637c1b7f8a14610081578063b8b94c6e14610097578063f7c618c1146100aa575b600080fd5b600054610064906001600160a01b031681565b6040516001600160a01b0390911681526020015b60405180910390f35b6100896100bd565b604051908152602001610078565b600154610064906001600160a01b031681565b600254610064906001600160a01b031681565b60008054604080516396c82e5760e01b8152905183926001600160a01b0316916396c82e579160048083019260209291908290030181865afa158015610107573d6000803e3d6000fd5b505050506040513d601f19601f8201168201806040525081019061012b9190610215565b6002546001546040516370a0823160e01b81526001600160a01b0391821660048201529293506000929116906370a0823190602401602060405180830381865afa15801561017d573d6000803e3d6000fd5b505050506040513d601f19601f820116820180604052508101906101a19190610215565b905060006101b082600a61022e565b90508083106101c0575092915050565b6101cb60648261025b565b8310156101dc576000935050505090565b6000816101ea85606461022e565b6101f4919061025b565b90508061020260648561025b565b61020c919061022e565b94505050505090565b60006020828403121561022757600080fd5b5051919050565b600081600019048311821515161561025657634e487b7160e01b600052601160045260246000fd5b500290565b60008261027857634e487b7160e01b600052601260045260246000fd5b50049056fea264697066735822122042ebbcfa3753671e2697f27ac5684020a6579c8da4b9cceb42c1e5c4895c5ea464736f6c634300080b0033",
  "linkReferences": {},
  "deployedLinkReferences": {}
}