{
  "_format": "hh-sol-artifact-1",
  "contractName": "VotersRewardsFormula",
  "sourceName": "contracts/VotersRewardsFormula.sol",
  "abi": [
    {
      "inputs": [
        {
          "internalType": "address",
          "name": "_usdPool",
          "type": "address"
        },
        {
          "internalType": "address",
          "name": "_usdToken",
          "type": "address"
        },
        {
          "internalType": "address",
          "name": "_rewardsLocker",
          "type": "address"
        },
        {
          "internalType": "address",
          "name": "_rewardToken",
          "type": "address"
        },
        {
          "internalType": "uint256",
          "name": "_usdGoal",
          "type": "uint256"
        }
      ],
      "stateMutability": "nonpayable",
      "type": "constructor"
    },
    {
      "inputs": [],
      "name": "computeRewards",
      "outputs": [
        {
          "internalType": "uint256",
          "name": "",
          "type": "uint256"
        }
      ],
      "stateMutability": "view",
      "type": "function"
    },
    {
      "inputs": [],
      "name": "rewardToken",
      "outputs": [
        {
          "internalType": "address",
          "name": "",
          "type": "address"
        }
      ],
      "stateMutability": "view",
      "type": "function"
    },
    {
      "inputs": [],
      "name": "rewardsLocker",
      "outputs": [
        {
          "internalType": "address",
          "name": "",
          "type": "address"
        }
      ],
      "stateMutability": "view",
      "type": "function"
    },
    {
      "inputs": [],
      "name": "usdGoal",
      "outputs": [
        {
          "internalType": "uint256",
          "name": "",
          "type": "uint256"
        }
      ],
      "stateMutability": "view",
      "type": "function"
    },
    {
      "inputs": [],
      "name": "usdPool",
      "outputs": [
        {
          "internalType": "address",
          "name": "",
          "type": "address"
        }
      ],
      "stateMutability": "view",
      "type": "function"
    },
    {
      "inputs": [],
      "name": "usdToken",
      "outputs": [
        {
          "internalType": "address",
          "name": "",
          "type": "address"
        }
      ],
      "stateMutability": "view",
      "type": "function"
    }
  ],
  "bytecode": "0x608060405234801561001057600080fd5b5060405161054238038061054283398101604081905261002f916100a1565b600080546001600160a01b03199081166001600160a01b039788161790915560018054821695871695909517909455600280548516938616939093179092556003805490931693169290921790556004556100ff565b80516001600160a01b038116811461009c57600080fd5b919050565b600080600080600060a086880312156100b957600080fd5b6100c286610085565b94506100d060208701610085565b93506100de60408701610085565b92506100ec60608701610085565b9150608086015190509295509295909350565b6104348061010e6000396000f3fe608060405234801561001057600080fd5b50600436106100625760003560e01c80634fec5b67146100675780637c1b7f8a14610097578063b8b94c6e146100ad578063e2f5c3a1146100c0578063f7c618c1146100c9578063f897a22b146100dc575b600080fd5b60005461007a906001600160a01b031681565b6040516001600160a01b0390911681526020015b60405180910390f35b61009f6100ef565b60405190815260200161008e565b60025461007a906001600160a01b031681565b61009f60045481565b60035461007a906001600160a01b031681565b60015461007a906001600160a01b031681565b600154600080546040516370a0823160e01b81526001600160a01b039182166004820152919283929116906370a0823190602401602060405180830381865afa158015610140573d6000803e3d6000fd5b505050506040513d601f19601f820116820180604052508101906101649190610341565b6003546002546040516370a0823160e01b81526001600160a01b0391821660048201529293506000929116906370a0823190602401602060405180830381865afa1580156101b6573d6000803e3d6000fd5b505050506040513d601f19601f820116820180604052508101906101da9190610341565b905060045482106101eb5792915050565b816101f95760009250505090565b61023461020e670de0b6b3a76400008461035a565b61022e670de0b6b3a7640000600454610227919061035a565b849061023b565b90610286565b9250505090565b600061027d83836040518060400160405280601a81526020017f536166654d6174683a206469766973696f6e206279207a65726f00000000000081525061030a565b90505b92915050565b60008261029557506000610280565b60006102a1838561037c565b9050826102ae858361035a565b1461027d5760405162461bcd60e51b815260206004820152602160248201527f536166654d6174683a206d756c7469706c69636174696f6e206f766572666c6f6044820152607760f81b60648201526084015b60405180910390fd5b6000818361032b5760405162461bcd60e51b815260040161030191906103a9565b506000610338848661035a565b95945050505050565b60006020828403121561035357600080fd5b5051919050565b60008261037757634e487b7160e01b600052601260045260246000fd5b500490565b60008160001904831182151516156103a457634e487b7160e01b600052601160045260246000fd5b500290565b600060208083528351808285015260005b818110156103d6578581018301518582016040015282016103ba565b818111156103e8576000604083870101525b50601f01601f191692909201604001939250505056fea26469706673582212207af73310c43e458fa8cc249a1ddb05028f26286d1e78fd4be4b711049e4382df64736f6c634300080b0033",
  "linkReferences": {},
  "deployedLinkReferences": {}
}