{
  "_format": "hh-sol-artifact-1",
  "contractName": "BaseV1",
  "sourceName": "contracts/BaseV1-token.sol",
  "abi": [
    {
      "inputs": [],
      "stateMutability": "nonpayable",
      "type": "constructor"
    },
    {
      "anonymous": false,
      "inputs": [
        {
          "indexed": true,
          "internalType": "address",
          "name": "owner",
          "type": "address"
        },
        {
          "indexed": true,
          "internalType": "address",
          "name": "spender",
          "type": "address"
        },
        {
          "indexed": false,
          "internalType": "uint256",
          "name": "value",
          "type": "uint256"
        }
      ],
      "name": "Approval",
      "type": "event"
    },
    {
      "anonymous": false,
      "inputs": [
        {
          "indexed": true,
          "internalType": "address",
          "name": "from",
          "type": "address"
        },
        {
          "indexed": true,
          "internalType": "address",
          "name": "to",
          "type": "address"
        },
        {
          "indexed": false,
          "internalType": "uint256",
          "name": "value",
          "type": "uint256"
        }
      ],
      "name": "Transfer",
      "type": "event"
    },
    {
      "inputs": [
        {
          "internalType": "address",
          "name": "",
          "type": "address"
        },
        {
          "internalType": "address",
          "name": "",
          "type": "address"
        }
      ],
      "name": "allowance",
      "outputs": [
        {
          "internalType": "uint256",
          "name": "",
          "type": "uint256"
        }
      ],
      "stateMutability": "view",
      "type": "function"
    },
    {
      "inputs": [
        {
          "internalType": "address",
          "name": "_spender",
          "type": "address"
        },
        {
          "internalType": "uint256",
          "name": "_value",
          "type": "uint256"
        }
      ],
      "name": "approve",
      "outputs": [
        {
          "internalType": "bool",
          "name": "",
          "type": "bool"
        }
      ],
      "stateMutability": "nonpayable",
      "type": "function"
    },
    {
      "inputs": [
        {
          "internalType": "address",
          "name": "",
          "type": "address"
        }
      ],
      "name": "balanceOf",
      "outputs": [
        {
          "internalType": "uint256",
          "name": "",
          "type": "uint256"
        }
      ],
      "stateMutability": "view",
      "type": "function"
    },
    {
      "inputs": [],
      "name": "decimals",
      "outputs": [
        {
          "internalType": "uint8",
          "name": "",
          "type": "uint8"
        }
      ],
      "stateMutability": "view",
      "type": "function"
    },
    {
      "inputs": [
        {
          "internalType": "address",
          "name": "account",
          "type": "address"
        },
        {
          "internalType": "uint256",
          "name": "amount",
          "type": "uint256"
        }
      ],
      "name": "mint",
      "outputs": [
        {
          "internalType": "bool",
          "name": "",
          "type": "bool"
        }
      ],
      "stateMutability": "nonpayable",
      "type": "function"
    },
    {
      "inputs": [],
      "name": "minter",
      "outputs": [
        {
          "internalType": "address",
          "name": "",
          "type": "address"
        }
      ],
      "stateMutability": "view",
      "type": "function"
    },
    {
      "inputs": [],
      "name": "name",
      "outputs": [
        {
          "internalType": "string",
          "name": "",
          "type": "string"
        }
      ],
      "stateMutability": "view",
      "type": "function"
    },
    {
      "inputs": [
        {
          "internalType": "address",
          "name": "_minter",
          "type": "address"
        }
      ],
      "name": "setMinter",
      "outputs": [],
      "stateMutability": "nonpayable",
      "type": "function"
    },
    {
      "inputs": [],
      "name": "symbol",
      "outputs": [
        {
          "internalType": "string",
          "name": "",
          "type": "string"
        }
      ],
      "stateMutability": "view",
      "type": "function"
    },
    {
      "inputs": [],
      "name": "totalSupply",
      "outputs": [
        {
          "internalType": "uint256",
          "name": "",
          "type": "uint256"
        }
      ],
      "stateMutability": "view",
      "type": "function"
    },
    {
      "inputs": [
        {
          "internalType": "address",
          "name": "_to",
          "type": "address"
        },
        {
          "internalType": "uint256",
          "name": "_value",
          "type": "uint256"
        }
      ],
      "name": "transfer",
      "outputs": [
        {
          "internalType": "bool",
          "name": "",
          "type": "bool"
        }
      ],
      "stateMutability": "nonpayable",
      "type": "function"
    },
    {
      "inputs": [
        {
          "internalType": "address",
          "name": "_from",
          "type": "address"
        },
        {
          "internalType": "address",
          "name": "_to",
          "type": "address"
        },
        {
          "internalType": "uint256",
          "name": "_value",
          "type": "uint256"
        }
      ],
      "name": "transferFrom",
      "outputs": [
        {
          "internalType": "bool",
          "name": "",
          "type": "bool"
        }
      ],
      "stateMutability": "nonpayable",
      "type": "function"
    }
  ],
  "bytecode": "0x60806040526000805534801561001457600080fd5b50600380546001600160a01b0319163390811790915561003590600061003b565b506100f2565b6001600160a01b0382166000908152600160205260408120805483919083906100659084906100cc565b925050819055508160008082825461007d91906100cc565b90915550506040518281526001600160a01b038416906000907fddf252ad1be2c89b69c2b068fc378daa952ba7f163c4a11628f55a4df523b3ef9060200160405180910390a350600192915050565b600082198211156100ed57634e487b7160e01b600052601160045260246000fd5b500190565b61066e806101016000396000f3fe608060405234801561001057600080fd5b50600436106100b45760003560e01c806340c10f191161007157806340c10f191461018957806370a082311461019c57806395d89b41146101bc578063a9059cbb146101e0578063dd62ed3e146101f3578063fca3b5aa1461021e57600080fd5b806306fdde03146100b957806307546172146100f7578063095ea7b31461012257806318160ddd1461014557806323b872dd1461015c578063313ce5671461016f575b600080fd5b6100e1604051806040016040528060098152602001684d696e74792044414f60b81b81525081565b6040516100ee91906104ce565b60405180910390f35b60035461010a906001600160a01b031681565b6040516001600160a01b0390911681526020016100ee565b61013561013036600461053f565b610233565b60405190151581526020016100ee565b61014e60005481565b6040519081526020016100ee565b61013561016a366004610569565b61029f565b610177601281565b60405160ff90911681526020016100ee565b61013561019736600461053f565b610319565b61014e6101aa3660046105a5565b60016020526000908152604090205481565b6100e1604051806040016040528060058152602001644d494e545360d81b81525081565b6101356101ee36600461053f565b610347565b61014e6102013660046105c0565b600260209081526000928352604080842090915290825290205481565b61023161022c3660046105a5565b61035b565b005b3360008181526002602090815260408083206001600160a01b038716808552925280832085905551919290917f8c5be1e5ebec7d5bd14f71427d1e84f3dd0314c0f7b2291e5b200ac8c7c3b9259061028e9086815260200190565b60405180910390a350600192915050565b6001600160a01b03831660009081526002602090815260408083203384529091528120546000198114610305576001600160a01b0385166000908152600260209081526040808320338452909152812080548592906102ff908490610609565b90915550505b610310858585610394565b95945050505050565b6003546000906001600160a01b0316331461033357600080fd5b61033d8383610449565b5060019392505050565b6000610354338484610394565b9392505050565b6003546001600160a01b0316331461037257600080fd5b600380546001600160a01b0319166001600160a01b0392909216919091179055565b6001600160a01b0383166000908152600160205260408120805483919083906103be908490610609565b90915550506001600160a01b038316600090815260016020526040812080548492906103eb908490610620565b92505081905550826001600160a01b0316846001600160a01b03167fddf252ad1be2c89b69c2b068fc378daa952ba7f163c4a11628f55a4df523b3ef8460405161043791815260200190565b60405180910390a35060019392505050565b6001600160a01b038216600090815260016020526040812080548391908390610473908490610620565b925050819055508160008082825461048b9190610620565b90915550506040518281526001600160a01b038416906000907fddf252ad1be2c89b69c2b068fc378daa952ba7f163c4a11628f55a4df523b3ef9060200161028e565b600060208083528351808285015260005b818110156104fb578581018301518582016040015282016104df565b8181111561050d576000604083870101525b50601f01601f1916929092016040019392505050565b80356001600160a01b038116811461053a57600080fd5b919050565b6000806040838503121561055257600080fd5b61055b83610523565b946020939093013593505050565b60008060006060848603121561057e57600080fd5b61058784610523565b925061059560208501610523565b9150604084013590509250925092565b6000602082840312156105b757600080fd5b61035482610523565b600080604083850312156105d357600080fd5b6105dc83610523565b91506105ea60208401610523565b90509250929050565b634e487b7160e01b600052601160045260246000fd5b60008282101561061b5761061b6105f3565b500390565b60008219821115610633576106336105f3565b50019056fea2646970667358221220d1af71383ebae00828484489c4210b7239d3d8e6e9e7ec83de737c6b904838ab64736f6c634300080b0033",
  "linkReferences": {},
  "deployedLinkReferences": {}
}