{
  "_format": "hh-sol-artifact-1",
  "contractName": "yMetaPool",
  "sourceName": "contracts/Pool.sol",
  "abi": [
    {
      "inputs": [],
      "stateMutability": "nonpayable",
      "type": "constructor"
    },
    {
      "anonymous": false,
      "inputs": [
        {
          "indexed": false,
          "internalType": "address",
          "name": "tokenRecovered",
          "type": "address"
        },
        {
          "indexed": false,
          "internalType": "uint256",
          "name": "amount",
          "type": "uint256"
        }
      ],
      "name": "AdminTokenRecovered",
      "type": "event"
    },
    {
      "anonymous": false,
      "inputs": [
        {
          "indexed": true,
          "internalType": "address",
          "name": "user",
          "type": "address"
        },
        {
          "indexed": false,
          "internalType": "uint256",
          "name": "amount",
          "type": "uint256"
        }
      ],
      "name": "Deposit",
      "type": "event"
    },
    {
      "anonymous": false,
      "inputs": [
        {
          "indexed": false,
          "internalType": "uint256",
          "name": "_duration",
          "type": "uint256"
        }
      ],
      "name": "DurationUpdated",
      "type": "event"
    },
    {
      "anonymous": false,
      "inputs": [
        {
          "indexed": true,
          "internalType": "address",
          "name": "user",
          "type": "address"
        },
        {
          "indexed": false,
          "internalType": "uint256",
          "name": "amount",
          "type": "uint256"
        }
      ],
      "name": "EmergencyWithdraw",
      "type": "event"
    },
    {
      "anonymous": false,
      "inputs": [
        {
          "indexed": false,
          "internalType": "uint256",
          "name": "poolLimitPerUser",
          "type": "uint256"
        }
      ],
      "name": "NewPoolLimit",
      "type": "event"
    },
    {
      "anonymous": false,
      "inputs": [
        {
          "indexed": false,
          "internalType": "uint256",
          "name": "rewardPerBlock",
          "type": "uint256"
        }
      ],
      "name": "NewRewardPerBlock",
      "type": "event"
    },
    {
      "anonymous": false,
      "inputs": [
        {
          "indexed": false,
          "internalType": "uint256",
          "name": "startBlock",
          "type": "uint256"
        },
        {
          "indexed": false,
          "internalType": "uint256",
          "name": "endBlock",
          "type": "uint256"
        }
      ],
      "name": "NewStartAndEndBlocks",
      "type": "event"
    },
    {
      "anonymous": false,
      "inputs": [
        {
          "indexed": true,
          "internalType": "address",
          "name": "previousOwner",
          "type": "address"
        },
        {
          "indexed": true,
          "internalType": "address",
          "name": "newOwner",
          "type": "address"
        }
      ],
      "name": "OwnershipTransferred",
      "type": "event"
    },
    {
      "anonymous": false,
      "inputs": [
        {
          "indexed": false,
          "internalType": "uint256",
          "name": "blockNumber",
          "type": "uint256"
        }
      ],
      "name": "RewardsStop",
      "type": "event"
    },
    {
      "anonymous": false,
      "inputs": [
        {
          "indexed": false,
          "internalType": "address",
          "name": "_addr",
          "type": "address"
        },
        {
          "indexed": false,
          "internalType": "uint256",
          "name": "_fee",
          "type": "uint256"
        }
      ],
      "name": "ServiceInfoUpadted",
      "type": "event"
    },
    {
      "anonymous": false,
      "inputs": [
        {
          "indexed": false,
          "internalType": "uint256",
          "name": "_depositFee",
          "type": "uint256"
        },
        {
          "indexed": false,
          "internalType": "uint256",
          "name": "_withdrawFee",
          "type": "uint256"
        },
        {
          "indexed": false,
          "internalType": "uint256",
          "name": "_walletARate",
          "type": "uint256"
        },
        {
          "indexed": false,
          "internalType": "uint256",
          "name": "_slippageFactor",
          "type": "uint256"
        },
        {
          "indexed": false,
          "internalType": "address",
          "name": "_uniRouter",
          "type": "address"
        },
        {
          "indexed": false,
          "internalType": "address[]",
          "name": "_path0",
          "type": "address[]"
        },
        {
          "indexed": false,
          "internalType": "address[]",
          "name": "_path1",
          "type": "address[]"
        }
      ],
      "name": "SetSettings",
      "type": "event"
    },
    {
      "anonymous": false,
      "inputs": [
        {
          "indexed": false,
          "internalType": "address",
          "name": "_addr",
          "type": "address"
        }
      ],
      "name": "WalletAUpdated",
      "type": "event"
    },
    {
      "anonymous": false,
      "inputs": [
        {
          "indexed": true,
          "internalType": "address",
          "name": "user",
          "type": "address"
        },
        {
          "indexed": false,
          "internalType": "uint256",
          "name": "amount",
          "type": "uint256"
        }
      ],
      "name": "Withdraw",
      "type": "event"
    },
    {
      "inputs": [],
      "name": "MAX_FEE",
      "outputs": [
        {
          "internalType": "uint256",
          "name": "",
          "type": "uint256"
        }
      ],
      "stateMutability": "view",
      "type": "function"
    },
    {
      "inputs": [],
      "name": "PRECISION_FACTOR",
      "outputs": [
        {
          "internalType": "uint256",
          "name": "",
          "type": "uint256"
        }
      ],
      "stateMutability": "view",
      "type": "function"
    },
    {
      "inputs": [],
      "name": "PRECISION_FACTOR_REFLECTION",
      "outputs": [
        {
          "internalType": "uint256",
          "name": "",
          "type": "uint256"
        }
      ],
      "stateMutability": "view",
      "type": "function"
    },
    {
      "inputs": [],
      "name": "accDividendPerShare",
      "outputs": [
        {
          "internalType": "uint256",
          "name": "",
          "type": "uint256"
        }
      ],
      "stateMutability": "view",
      "type": "function"
    },
    {
      "inputs": [],
      "name": "accTokenPerShare",
      "outputs": [
        {
          "internalType": "uint256",
          "name": "",
          "type": "uint256"
        }
      ],
      "stateMutability": "view",
      "type": "function"
    },
    {
      "inputs": [],
      "name": "availableDividendTokens",
      "outputs": [
        {
          "internalType": "uint256",
          "name": "",
          "type": "uint256"
        }
      ],
      "stateMutability": "view",
      "type": "function"
    },
    {
      "inputs": [],
      "name": "availableRewardTokens",
      "outputs": [
        {
          "internalType": "uint256",
          "name": "",
          "type": "uint256"
        }
      ],
      "stateMutability": "view",
      "type": "function"
    },
    {
      "inputs": [],
      "name": "bonusEndBlock",
      "outputs": [
        {
          "internalType": "uint256",
          "name": "",
          "type": "uint256"
        }
      ],
      "stateMutability": "view",
      "type": "function"
    },
    {
      "inputs": [],
      "name": "buyBackAddress",
      "outputs": [
        {
          "internalType": "address",
          "name": "",
          "type": "address"
        }
      ],
      "stateMutability": "view",
      "type": "function"
    },
    {
      "inputs": [],
      "name": "buyBackRate",
      "outputs": [
        {
          "internalType": "uint256",
          "name": "",
          "type": "uint256"
        }
      ],
      "stateMutability": "view",
      "type": "function"
    },
    {
      "inputs": [],
      "name": "buyBackWallet",
      "outputs": [
        {
          "internalType": "address",
          "name": "",
          "type": "address"
        }
      ],
      "stateMutability": "view",
      "type": "function"
    },
    {
      "inputs": [],
      "name": "claimDividend",
      "outputs": [],
      "stateMutability": "payable",
      "type": "function"
    },
    {
      "inputs": [],
      "name": "claimReward",
      "outputs": [],
      "stateMutability": "payable",
      "type": "function"
    },
    {
      "inputs": [],
      "name": "compoundDividend",
      "outputs": [],
      "stateMutability": "payable",
      "type": "function"
    },
    {
      "inputs": [],
      "name": "compoundReward",
      "outputs": [],
      "stateMutability": "payable",
      "type": "function"
    },
    {
      "inputs": [
        {
          "internalType": "uint256",
          "name": "_amount",
          "type": "uint256"
        }
      ],
      "name": "deposit",
      "outputs": [],
      "stateMutability": "nonpayable",
      "type": "function"
    },
    {
      "inputs": [],
      "name": "depositFee",
      "outputs": [
        {
          "internalType": "uint256",
          "name": "",
          "type": "uint256"
        }
      ],
      "stateMutability": "view",
      "type": "function"
    },
    {
      "inputs": [
        {
          "internalType": "uint256",
          "name": "_amount",
          "type": "uint256"
        }
      ],
      "name": "depositRewards",
      "outputs": [],
      "stateMutability": "nonpayable",
      "type": "function"
    },
    {
      "inputs": [],
      "name": "dividendToken",
      "outputs": [
        {
          "internalType": "address",
          "name": "",
          "type": "address"
        }
      ],
      "stateMutability": "view",
      "type": "function"
    },
    {
      "inputs": [],
      "name": "duration",
      "outputs": [
        {
          "internalType": "uint256",
          "name": "",
          "type": "uint256"
        }
      ],
      "stateMutability": "view",
      "type": "function"
    },
    {
      "inputs": [
        {
          "internalType": "uint256",
          "name": "",
          "type": "uint256"
        }
      ],
      "name": "earnedToStakedPath",
      "outputs": [
        {
          "internalType": "address",
          "name": "",
          "type": "address"
        }
      ],
      "stateMutability": "view",
      "type": "function"
    },
    {
      "inputs": [],
      "name": "earnedToken",
      "outputs": [
        {
          "internalType": "contract IERC20",
          "name": "",
          "type": "address"
        }
      ],
      "stateMutability": "view",
      "type": "function"
    },
    {
      "inputs": [
        {
          "internalType": "uint256",
          "name": "_amount",
          "type": "uint256"
        }
      ],
      "name": "emergencyRewardWithdraw",
      "outputs": [],
      "stateMutability": "nonpayable",
      "type": "function"
    },
    {
      "inputs": [],
      "name": "emergencyWithdraw",
      "outputs": [],
      "stateMutability": "nonpayable",
      "type": "function"
    },
    {
      "inputs": [],
      "name": "harvest",
      "outputs": [],
      "stateMutability": "nonpayable",
      "type": "function"
    },
    {
      "inputs": [],
      "name": "hasDividend",
      "outputs": [
        {
          "internalType": "bool",
          "name": "",
          "type": "bool"
        }
      ],
      "stateMutability": "view",
      "type": "function"
    },
    {
      "inputs": [],
      "name": "hasUserLimit",
      "outputs": [
        {
          "internalType": "bool",
          "name": "",
          "type": "bool"
        }
      ],
      "stateMutability": "view",
      "type": "function"
    },
    {
      "inputs": [
        {
          "internalType": "contract IERC20",
          "name": "_stakingToken",
          "type": "address"
        },
        {
          "internalType": "contract IERC20",
          "name": "_earnedToken",
          "type": "address"
        },
        {
          "internalType": "address",
          "name": "_dividendToken",
          "type": "address"
        },
        {
          "internalType": "uint256",
          "name": "_rewardPerBlock",
          "type": "uint256"
        },
        {
          "internalType": "uint256",
          "name": "_depositFee",
          "type": "uint256"
        },
        {
          "internalType": "uint256",
          "name": "_withdrawFee",
          "type": "uint256"
        },
        {
          "internalType": "address",
          "name": "_uniRouter",
          "type": "address"
        },
        {
          "internalType": "address[]",
          "name": "_earnedToStakedPath",
          "type": "address[]"
        },
        {
          "internalType": "address[]",
          "name": "_reflectionToStakedPath",
          "type": "address[]"
        },
        {
          "internalType": "bool",
          "name": "_hasDividend",
          "type": "bool"
        }
      ],
      "name": "initialize",
      "outputs": [],
      "stateMutability": "nonpayable",
      "type": "function"
    },
    {
      "inputs": [],
      "name": "isInitialized",
      "outputs": [
        {
          "internalType": "bool",
          "name": "",
          "type": "bool"
        }
      ],
      "stateMutability": "view",
      "type": "function"
    },
    {
      "inputs": [],
      "name": "lastRewardBlock",
      "outputs": [
        {
          "internalType": "uint256",
          "name": "",
          "type": "uint256"
        }
      ],
      "stateMutability": "view",
      "type": "function"
    },
    {
      "inputs": [],
      "name": "owner",
      "outputs": [
        {
          "internalType": "address",
          "name": "",
          "type": "address"
        }
      ],
      "stateMutability": "view",
      "type": "function"
    },
    {
      "inputs": [
        {
          "internalType": "address",
          "name": "_user",
          "type": "address"
        }
      ],
      "name": "pendingDividends",
      "outputs": [
        {
          "internalType": "uint256",
          "name": "",
          "type": "uint256"
        }
      ],
      "stateMutability": "view",
      "type": "function"
    },
    {
      "inputs": [
        {
          "internalType": "address",
          "name": "_user",
          "type": "address"
        }
      ],
      "name": "pendingReward",
      "outputs": [
        {
          "internalType": "uint256",
          "name": "",
          "type": "uint256"
        }
      ],
      "stateMutability": "view",
      "type": "function"
    },
    {
      "inputs": [],
      "name": "performanceFee",
      "outputs": [
        {
          "internalType": "uint256",
          "name": "",
          "type": "uint256"
        }
      ],
      "stateMutability": "view",
      "type": "function"
    },
    {
      "inputs": [],
      "name": "poolLimitPerUser",
      "outputs": [
        {
          "internalType": "uint256",
          "name": "",
          "type": "uint256"
        }
      ],
      "stateMutability": "view",
      "type": "function"
    },
    {
      "inputs": [
        {
          "internalType": "address",
          "name": "_tokenAddress",
          "type": "address"
        },
        {
          "internalType": "uint256",
          "name": "_tokenAmount",
          "type": "uint256"
        }
      ],
      "name": "recoverWrongTokens",
      "outputs": [],
      "stateMutability": "nonpayable",
      "type": "function"
    },
    {
      "inputs": [
        {
          "internalType": "uint256",
          "name": "",
          "type": "uint256"
        }
      ],
      "name": "reflectionToStakedPath",
      "outputs": [
        {
          "internalType": "address",
          "name": "",
          "type": "address"
        }
      ],
      "stateMutability": "view",
      "type": "function"
    },
    {
      "inputs": [],
      "name": "renounceOwnership",
      "outputs": [],
      "stateMutability": "nonpayable",
      "type": "function"
    },
    {
      "inputs": [],
      "name": "resetAllowances",
      "outputs": [],
      "stateMutability": "nonpayable",
      "type": "function"
    },
    {
      "inputs": [],
      "name": "rewardPerBlock",
      "outputs": [
        {
          "internalType": "uint256",
          "name": "",
          "type": "uint256"
        }
      ],
      "stateMutability": "view",
      "type": "function"
    },
    {
      "inputs": [
        {
          "internalType": "uint256",
          "name": "_duration",
          "type": "uint256"
        }
      ],
      "name": "setDuration",
      "outputs": [],
      "stateMutability": "nonpayable",
      "type": "function"
    },
    {
      "inputs": [
        {
          "internalType": "address",
          "name": "_buyBackWallet",
          "type": "address"
        },
        {
          "internalType": "uint256",
          "name": "_fee",
          "type": "uint256"
        }
      ],
      "name": "setServiceInfo",
      "outputs": [],
      "stateMutability": "nonpayable",
      "type": "function"
    },
    {
      "inputs": [
        {
          "internalType": "uint256",
          "name": "_depositFee",
          "type": "uint256"
        },
        {
          "internalType": "uint256",
          "name": "_withdrawFee",
          "type": "uint256"
        },
        {
          "internalType": "uint256",
          "name": "_walletARate",
          "type": "uint256"
        },
        {
          "internalType": "uint256",
          "name": "_slippageFactor",
          "type": "uint256"
        },
        {
          "internalType": "address",
          "name": "_uniRouter",
          "type": "address"
        },
        {
          "internalType": "address[]",
          "name": "_earnedToStakedPath",
          "type": "address[]"
        },
        {
          "internalType": "address[]",
          "name": "_reflectionToStakedPath",
          "type": "address[]"
        }
      ],
      "name": "setSettings",
      "outputs": [],
      "stateMutability": "nonpayable",
      "type": "function"
    },
    {
      "inputs": [],
      "name": "slippageFactor",
      "outputs": [
        {
          "internalType": "uint256",
          "name": "",
          "type": "uint256"
        }
      ],
      "stateMutability": "view",
      "type": "function"
    },
    {
      "inputs": [],
      "name": "slippageFactorUL",
      "outputs": [
        {
          "internalType": "uint256",
          "name": "",
          "type": "uint256"
        }
      ],
      "stateMutability": "view",
      "type": "function"
    },
    {
      "inputs": [],
      "name": "stakingToken",
      "outputs": [
        {
          "internalType": "contract IERC20",
          "name": "",
          "type": "address"
        }
      ],
      "stateMutability": "view",
      "type": "function"
    },
    {
      "inputs": [],
      "name": "startBlock",
      "outputs": [
        {
          "internalType": "uint256",
          "name": "",
          "type": "uint256"
        }
      ],
      "stateMutability": "view",
      "type": "function"
    },
    {
      "inputs": [],
      "name": "startReward",
      "outputs": [],
      "stateMutability": "nonpayable",
      "type": "function"
    },
    {
      "inputs": [],
      "name": "stopReward",
      "outputs": [],
      "stateMutability": "nonpayable",
      "type": "function"
    },
    {
      "inputs": [],
      "name": "totalStaked",
      "outputs": [
        {
          "internalType": "uint256",
          "name": "",
          "type": "uint256"
        }
      ],
      "stateMutability": "view",
      "type": "function"
    },
    {
      "inputs": [
        {
          "internalType": "address",
          "name": "newOwner",
          "type": "address"
        }
      ],
      "name": "transferOwnership",
      "outputs": [],
      "stateMutability": "nonpayable",
      "type": "function"
    },
    {
      "inputs": [],
      "name": "uniRouterAddress",
      "outputs": [
        {
          "internalType": "address",
          "name": "",
          "type": "address"
        }
      ],
      "stateMutability": "view",
      "type": "function"
    },
    {
      "inputs": [
        {
          "internalType": "bool",
          "name": "_hasUserLimit",
          "type": "bool"
        },
        {
          "internalType": "uint256",
          "name": "_poolLimitPerUser",
          "type": "uint256"
        }
      ],
      "name": "updatePoolLimitPerUser",
      "outputs": [],
      "stateMutability": "nonpayable",
      "type": "function"
    },
    {
      "inputs": [
        {
          "internalType": "uint256",
          "name": "_rewardPerBlock",
          "type": "uint256"
        }
      ],
      "name": "updateRewardPerBlock",
      "outputs": [],
      "stateMutability": "nonpayable",
      "type": "function"
    },
    {
      "inputs": [
        {
          "internalType": "address",
          "name": "_walletA",
          "type": "address"
        }
      ],
      "name": "updateWalletA",
      "outputs": [],
      "stateMutability": "nonpayable",
      "type": "function"
    },
    {
      "inputs": [
        {
          "internalType": "address",
          "name": "",
          "type": "address"
        }
      ],
      "name": "userInfo",
      "outputs": [
        {
          "internalType": "uint256",
          "name": "amount",
          "type": "uint256"
        },
        {
          "internalType": "uint256",
          "name": "rewardDebt",
          "type": "uint256"
        },
        {
          "internalType": "uint256",
          "name": "reflectionDebt",
          "type": "uint256"
        }
      ],
      "stateMutability": "view",
      "type": "function"
    },
    {
      "inputs": [],
      "name": "walletA",
      "outputs": [
        {
          "internalType": "address",
          "name": "",
          "type": "address"
        }
      ],
      "stateMutability": "view",
      "type": "function"
    },
    {
      "inputs": [],
      "name": "walletARate",
      "outputs": [
        {
          "internalType": "uint256",
          "name": "",
          "type": "uint256"
        }
      ],
      "stateMutability": "view",
      "type": "function"
    },
    {
      "inputs": [
        {
          "internalType": "uint256",
          "name": "_amount",
          "type": "uint256"
        }
      ],
      "name": "withdraw",
      "outputs": [],
      "stateMutability": "nonpayable",
      "type": "function"
    },
    {
      "inputs": [],
      "name": "withdrawFee",
      "outputs": [
        {
          "internalType": "uint256",
          "name": "",
          "type": "uint256"
        }
      ],
      "stateMutability": "view",
      "type": "function"
    },
    {
      "stateMutability": "payable",
      "type": "receive"
    }
  ],
  "bytecode": "0x608060405261016d6003556103b6600a556109c4601055611d4c601155601380546001600160a01b031990811661dead179091556014805490911673408c4ada67ae1244dfec7d609dea3c232843189a1790556601c6bf526340006015553480156200006a57600080fd5b50620000763362000080565b60018055620000d0565b600080546001600160a01b038381166001600160a01b0319831681178455604051919092169283917f8be0079c531659141344cd1fd0a4f28419497f9722a3daafe3b4186f6b6457e09190a35050565b61451c80620000e06000396000f3fe60806040526004361061039a5760003560e01c806381b61948116101dc578063b74cd24211610102578063db2e21bc116100a0578063f2fde38b1161006f578063f2fde38b146109a1578063f40f0f52146109c1578063f6be71d1146109e1578063ffbd3b1f14610a0157600080fd5b8063db2e21bc14610958578063e4eceff01461096d578063e941fa7814610983578063f0fc6bca1461099957600080fd5b8063bc063e1a116100dc578063bc063e1a146108ec578063c1e22a6514610902578063c792645814610922578063ccd34cd51461094257600080fd5b8063b74cd242146108ae578063b77e7da0146108c4578063b88a802f146108e457600080fd5b806392b46e5b1161017a578063a5bfd0f211610149578063a5bfd0f214610837578063a9f8d18114610858578063b1722d9e1461086e578063b6b55f251461088e57600080fd5b806392b46e5b146107d257806392e8990e146107e85780639f94e27214610802578063a0b409051461081757600080fd5b80638ae39cac116101b65780638ae39cac146107685780638bdf67f21461077e5780638da5cb5b1461079e5780638f662915146107bc57600080fd5b806381b619481461071c578063877887821461073c57806388bbb0c11461075257600080fd5b806348cd4cb1116102c15780636e707b731161025f578063783478ad1161022e578063783478ad146106b15780637972271b146106d157806380dc0672146106f1578063817b1cd21461070657600080fd5b80636e707b7314610647578063715018a61461066757806372f702f31461067c578063746c8ae11461069c57600080fd5b806366fe9f8a1161029b57806366fe9f8a146105f357806367a5279314610609578063693a090b1461061f5780636d971a101461063f57600080fd5b806348cd4cb1146105c05780634de8ff21146105d65780635dde4a91146105de57600080fd5b80631aed6553116103395780633505b09f116103085780633505b09f1461054c578063392e53cd146105615780633f138d4b1461058b5780634641257d146105ab57600080fd5b80631aed6553146104d65780631cd348c0146104ec5780632e1a7d4d1461050c5780633279beab1461052c57600080fd5b80631582358e116103755780631582358e14610411578063167d2dbe14610449578063178a8d07146104695780631959a0021461047f57600080fd5b8062722765146103a657806301f8a976146103c85780630fb5a6b4146103e857600080fd5b366103a157005b600080fd5b3480156103b257600080fd5b506103c66103c1366004613e0b565b610a17565b005b3480156103d457600080fd5b506103c66103e3366004613ea8565b610bdd565b3480156103f457600080fd5b506103fe60035481565b6040519081526020015b60405180910390f35b34801561041d57600080fd5b50601a54610431906001600160a01b031681565b6040516001600160a01b039091168152602001610408565b34801561045557600080fd5b50610431610464366004613ea8565b610c43565b34801561047557600080fd5b506103fe60105481565b34801561048b57600080fd5b506104bb61049a366004613ec1565b60216020526000908152604090208054600182015460029092015490919083565b60408051938452602084019290925290820152606001610408565b3480156104e257600080fd5b506103fe60075481565b3480156104f857600080fd5b50601454610431906001600160a01b031681565b34801561051857600080fd5b506103c6610527366004613ea8565b610c6d565b34801561053857600080fd5b506103c6610547366004613ea8565b61102b565b34801561055857600080fd5b506103c661112c565b34801561056d57600080fd5b5060025461057b9060ff1681565b6040519015158152602001610408565b34801561059757600080fd5b506103c66105a6366004613ede565b611160565b3480156105b757600080fd5b506103c661135f565b3480156105cc57600080fd5b506103fe60065481565b6103c66114e2565b3480156105ea57600080fd5b506103fe611906565b3480156105ff57600080fd5b506103fe60055481565b34801561061557600080fd5b506103fe600e5481565b34801561062b57600080fd5b50600b54610431906001600160a01b031681565b6103c6611a0b565b34801561065357600080fd5b50601954610431906001600160a01b031681565b34801561067357600080fd5b506103c6611d38565b34801561068857600080fd5b50601854610431906001600160a01b031681565b3480156106a857600080fd5b506103c6611d6c565b3480156106bd57600080fd5b50601354610431906001600160a01b031681565b3480156106dd57600080fd5b506103c66106ec366004613ec1565b611e5d565b3480156106fd57600080fd5b506103c6611f38565b34801561071257600080fd5b506103fe601d5481565b34801561072857600080fd5b506103c6610737366004613ede565b611f68565b34801561074857600080fd5b506103fe60155481565b34801561075e57600080fd5b506103fe60175481565b34801561077457600080fd5b506103fe60085481565b34801561078a57600080fd5b506103c6610799366004613ea8565b612063565b3480156107aa57600080fd5b506000546001600160a01b0316610431565b3480156107c857600080fd5b506103fe601b5481565b3480156107de57600080fd5b506103fe601c5481565b3480156107f457600080fd5b5060045461057b9060ff1681565b34801561080e57600080fd5b506103fe6121b1565b34801561082357600080fd5b506103c6610832366004613f23565b612283565b34801561084357600080fd5b50601a5461057b90600160a01b900460ff1681565b34801561086457600080fd5b506103fe60095481565b34801561087a57600080fd5b506103c6610889366004613f41565b612395565b34801561089a57600080fd5b506103c66108a9366004613ea8565b612739565b3480156108ba57600080fd5b506103fe6103e381565b3480156108d057600080fd5b50601254610431906001600160a01b031681565b6103c6612bb2565b3480156108f857600080fd5b506103fe6107d081565b34801561090e57600080fd5b5061043161091d366004613ea8565b612caf565b34801561092e57600080fd5b506103fe61093d366004613ec1565b612cbf565b34801561094e57600080fd5b506103fe60165481565b34801561096457600080fd5b506103c6612dc6565b34801561097957600080fd5b506103fe60115481565b34801561098f57600080fd5b506103fe600f5481565b6103c6612e7b565b3480156109ad57600080fd5b506103c66109bc366004613ec1565b612fcf565b3480156109cd57600080fd5b506103fe6109dc366004613ec1565b613067565b3480156109ed57600080fd5b506103c66109fc366004613ea8565b613155565b348015610a0d57600080fd5b506103fe600a5481565b6000546001600160a01b03163314610a4a5760405162461bcd60e51b8152600401610a4190614017565b60405180910390fd5b6107d08710610a915760405162461bcd60e51b8152602060048201526013602482015272496e76616c6964206465706f7369742066656560681b6044820152606401610a41565b6107d08610610ad95760405162461bcd60e51b8152602060048201526014602482015273496e76616c69642077697468647261772066656560601b6044820152606401610a41565b6103e3841115610b2b5760405162461bcd60e51b815260206004820152601860248201527f5f736c697070616765466163746f7220746f6f206869676800000000000000006044820152606401610a41565b600e879055600f8690556011859055610b466127108661325c565b601055600a849055600b80546001600160a01b0319166001600160a01b0385161790558051610b7c90600c906020840190613c92565b508151610b9090600d906020850190613c92565b507fe517d267fff2c58a025040c7695bb2572821d50c6deba9d8eaebc6f84db5335b87878787878787604051610bcc9796959493929190614090565b60405180910390a150505050505050565b6000546001600160a01b03163314610c075760405162461bcd60e51b8152600401610a4190614017565b60088190556040518181527f0c4d677eef92893ac7ec52faf8140fc6c851ab4736302b4f3a89dfb20696a0df906020015b60405180910390a150565b600c8181548110610c5357600080fd5b6000918252602090912001546001600160a01b0316905081565b60026001541415610c905760405162461bcd60e51b8152600401610a41906140e9565b600260015580610ce25760405162461bcd60e51b815260206004820152601f60248201527f416d6f756e742073686f756c642062652067726561746f72207468616e2030006044820152606401610a41565b3360009081526021602052604090208054821115610d425760405162461bcd60e51b815260206004820152601b60248201527f416d6f756e7420746f20776974686472617720746f6f206869676800000000006044820152606401610a41565b610d4a613271565b805415610ea8576000610d868260010154610d80601654610d7a601b5487600001546133b090919063ffffffff16565b906133bc565b9061325c565b90508015610df15780610d976121b1565b1015610db55760405162461bcd60e51b8152600401610a4190614120565b601954610dcc906001600160a01b031633836133c8565b80601e541115610deb57601e54610de3908261325c565b601e55610df1565b6000601e555b6000610e1a8360020154610d80601754610d7a601c5488600001546133b090919063ffffffff16565b9050600081118015610e355750601a54600160a01b900460ff165b15610ea557601a546001600160a01b0316610e7d57604051339082156108fc029083906000818181858888f19350505050158015610e77573d6000803e3d6000fd5b50610e94565b601a54610e94906001600160a01b031633836133c8565b601f54610ea1908261325c565b601f555b50505b80548290811115610eb7575080545b8154610ec3908261325c565b8255601d54610ed2908261325c565b601d55600f5415610f9e576000610efa612710610d7a600f54856133b090919063ffffffff16565b90506000610f19612710610d7a601154856133b090919063ffffffff16565b90508015610f4b57601254601854610f3e916001600160a01b039182169116836133c8565b610f48838261325c565b92505b6000610f68612710610d7a601054866133b090919063ffffffff16565b90508015610f9a57601354601854610f8d916001600160a01b039182169116836133c8565b610f97848261325c565b93505b5050505b601854610fb5906001600160a01b031633836133c8565b601654601b548354610fcc9291610d7a91906133b0565b6001830155601754601c548354610fe89291610d7a91906133b0565b600283015560405183815233907f884edad9ce6fa2440d8a54cc123490eb96d2768479d49ff9c7366125a94243649060200160405180910390a250506001805550565b6000546001600160a01b031633146110555760405162461bcd60e51b8152600401610a4190614017565b60075443116110985760405162461bcd60e51b815260206004820152600f60248201526e506f6f6c2069732072756e6e696e6760881b6044820152606401610a41565b601a546019546001600160a01b039081169116146110d757806110b96121b1565b10156110d75760405162461bcd60e51b8152600401610a4190614120565b806110e7576110e46121b1565b90505b6019546110fe906001600160a01b031633836133c8565b601e541561112957601e54811115611118576000601e5550565b601e54611125908261325c565b601e555b50565b6000546001600160a01b031633146111565760405162461bcd60e51b8152600401610a4190614017565b61115e613430565b565b6000546001600160a01b0316331461118a5760405162461bcd60e51b8152600401610a4190614017565b6019546001600160a01b03838116911614156111e15760405162461bcd60e51b815260206004820152601660248201527521b0b73737ba103132903932bbb0b932103a37b5b2b760511b6044820152606401610a41565b6018546001600160a01b03838116911614156112c3576018546040516370a0823160e01b81523060048201526000916001600160a01b0316906370a0823190602401602060405180830381865afa158015611240573d6000803e3d6000fd5b505050506040513d601f19601f820116820180604052508101906112649190614157565b905061127b601d548261325c90919063ffffffff16565b8211156112c15760405162461bcd60e51b8152602060048201526014602482015273496e73756666696369656e742062616c616e636560601b6044820152606401610a41565b505b6001600160a01b03821661130457604051339082156108fc029083906000818181858888f193505050501580156112fe573d6000803e3d6000fd5b50611318565b6113186001600160a01b03831633836133c8565b604080516001600160a01b0384168152602081018390527f74f5dcd55c394cb1c6d3b9da22c2464bcc46c38cc3865bd629ed75823249b40b91015b60405180910390a15050565b6000546001600160a01b031633146113895760405162461bcd60e51b8152600401610a4190614017565b611391613271565b6018546040516370a0823160e01b81523060048201526000916001600160a01b0316906370a0823190602401602060405180830381865afa1580156113da573d6000803e3d6000fd5b505050506040513d601f19601f820116820180604052508101906113fe9190614157565b9050611415601d548261325c90919063ffffffff16565b9050600061143a602054610d80601754610d7a601c54876133b090919063ffffffff16565b905080156114c057601a546001600160a01b0316611492576012546040516001600160a01b039091169082156108fc029083906000818181858888f1935050505015801561148c573d6000803e3d6000fd5b506114af565b601254601a546114af916001600160a01b039182169116836133c8565b601f546114bc908261325c565b601f555b6114db601754610d7a601c54856133b090919063ffffffff16565b6020555050565b600260015414156115055760405162461bcd60e51b8152600401610a41906140e9565b60026001908155601a54600160a01b900460ff161515146115595760405162461bcd60e51b815260206004820152600e60248201526d4e6f207265666c656374696f6e7360901b6044820152606401610a41565b336000908152602160205260409020611570613562565b611578613271565b80546115845750611900565b60006115ad8260020154610d80601754610d7a601c5487600001546133b090919063ffffffff16565b905080156118de57601f546115c2908261325c565b601f55601a546018546001600160a01b0390811691161461180557601a546001600160a01b03166116b357600b54604080516315ab88c960e31b815290516000926001600160a01b03169163ad5c46489160048083019260209291908290030181865afa158015611637573d6000803e3d6000fd5b505050506040513d601f19601f8201168201806040525081019061165b9190614170565b9050806001600160a01b031663d0e30db0836040518263ffffffff1660e01b81526004016000604051808303818588803b15801561169857600080fd5b505af11580156116ac573d6000803e3d6000fd5b5050505050505b6018546040516370a0823160e01b81523060048201526000916001600160a01b0316906370a0823190602401602060405180830381865afa1580156116fc573d6000803e3d6000fd5b505050506040513d601f19601f820116820180604052508101906117209190614157565b905061178782600c80548060200260200160405190810160405280929190818152602001828054801561177c57602002820191906000526020600020905b81546001600160a01b0316815260019091019060200180831161175e575b50505050503061364b565b6018546040516370a0823160e01b81523060048201526000916001600160a01b0316906370a0823190602401602060405180830381865afa1580156117d0573d6000803e3d6000fd5b505050506040513d601f19601f820116820180604052508101906117f49190614157565b9050611800818361325c565b925050505b60045460ff161561183e5760055482546118209083906137b4565b111561183e5760405162461bcd60e51b8152600401610a419061418d565b601d5461184b90826137b4565b601d55815461185a90826137b4565b8083556001830154601654601b546118a39361188c9392610d80929091610d7a9190611886908961325c565b906133b0565b601654601b548554610d809291610d7a91906133b0565b600183015560405181815233907fe1fffcc4923d04b559f4d29a8bfc6cda04eb5b0d3c460751c2402c5c5cc9109c9060200160405180910390a25b601754601c5483546118f59291610d7a91906133b0565b826002018190555050505b60018055565b601a546000906001600160a01b031661191e57504790565b601a546040516370a0823160e01b81523060048201526000916001600160a01b0316906370a0823190602401602060405180830381865afa158015611967573d6000803e3d6000fd5b505050506040513d601f19601f8201168201806040525081019061198b9190614157565b601954601a549192506001600160a01b03918216911614156119ca57601e548110156119b957600091505090565b601e546119c790829061325c565b90505b601854601a546001600160a01b0390811691161415611a0657601d548110156119f557600091505090565b601d54611a0390829061325c565b90505b919050565b60026001541415611a2e5760405162461bcd60e51b8152600401610a41906140e9565b6002600155336000908152602160205260409020611a4a613562565b611a52613271565b8054611a5e5750611900565b6000611a878260010154610d80601654610d7a601b5487600001546133b090919063ffffffff16565b90508015611d165780611a986121b1565b1015611ab65760405162461bcd60e51b8152600401610a4190614120565b80601e541115611ad557601e54611acd908261325c565b601e55611adb565b6000601e555b6019546018546001600160a01b03908116911614611c43576018546040516370a0823160e01b81523060048201526000916001600160a01b0316906370a0823190602401602060405180830381865afa158015611b3c573d6000803e3d6000fd5b505050506040513d601f19601f82011682018060405250810190611b609190614157565b9050611bc582600d80548060200260200160405190810160405280929190818152602001828054801561177c576020028201919060005260206000209081546001600160a01b0316815260019091019060200180831161175e5750505050503061364b565b6018546040516370a0823160e01b81523060048201526000916001600160a01b0316906370a0823190602401602060405180830381865afa158015611c0e573d6000803e3d6000fd5b505050506040513d601f19601f82011682018060405250810190611c329190614157565b9050611c3e818361325c565b925050505b60045460ff1615611c7c576005548254611c5e9083906137b4565b1115611c7c5760405162461bcd60e51b8152600401610a419061418d565b601d54611c8990826137b4565b601d558154611c9890826137b4565b8083556002830154601754601c54611cdb93611cc49392610d80929091610d7a9190611886908961325c565b601754601c548554610d809291610d7a91906133b0565b600283015560405181815233907fe1fffcc4923d04b559f4d29a8bfc6cda04eb5b0d3c460751c2402c5c5cc9109c9060200160405180910390a25b601654601b548354611d2d9291610d7a91906133b0565b600192830155508055565b6000546001600160a01b03163314611d625760405162461bcd60e51b8152600401610a4190614017565b61115e60006137c0565b6000546001600160a01b03163314611d965760405162461bcd60e51b8152600401610a4190614017565b60065415611de65760405162461bcd60e51b815260206004820152601860248201527f506f6f6c2077617320616c7265616479207374617274656400000000000000006044820152606401610a41565b611df14360646137b4565b600655600354611e1090611e07906170806141da565b600654906137b4565b600781905560065460098190556040517f7cd0ab87d19036f3dfadadb232c78aa4879dda3f0c994a9d637532410ee2ce0692611e53928252602082015260400190565b60405180910390a1565b6000546001600160a01b03163314611e875760405162461bcd60e51b8152600401610a4190614017565b6001600160a01b038116151580611eac57506012546001600160a01b03828116911614155b611eea5760405162461bcd60e51b815260206004820152600f60248201526e496e76616c6964206164647265737360881b6044820152606401610a41565b601280546001600160a01b0319166001600160a01b0383169081179091556040519081527f6de6ddf87fbce1f42220b349684d9b952eac9bffd639fd2093096032cb1d4d4e90602001610c38565b6000546001600160a01b03163314611f625760405162461bcd60e51b8152600401610a4190614017565b43600755565b6014546001600160a01b03163314611fc25760405162461bcd60e51b815260206004820152601960248201527f73657453657276696365496e666f3a20464f5242494444454e000000000000006044820152606401610a41565b6001600160a01b03821661200a5760405162461bcd60e51b815260206004820152600f60248201526e496e76616c6964206164647265737360881b6044820152606401610a41565b601480546001600160a01b0319166001600160a01b038416908117909155601582905560408051918252602082018390527f232f2e6280d2064b1e439bf40ecdada042d84eefbb55039e4c49e8dc4f4c90c99101611353565b600260015414156120865760405162461bcd60e51b8152600401610a41906140e9565b60026001558061209557600080fd5b6019546040516370a0823160e01b81523060048201526000916001600160a01b0316906370a0823190602401602060405180830381865afa1580156120de573d6000803e3d6000fd5b505050506040513d601f19601f820116820180604052508101906121029190614157565b60195490915061211d906001600160a01b0316333085613810565b6019546040516370a0823160e01b81523060048201526000916001600160a01b0316906370a0823190602401602060405180830381865afa158015612166573d6000803e3d6000fd5b505050506040513d601f19601f8201168201806040525081019061218a9190614157565b90506121a582610d8083601e546137b490919063ffffffff16565b601e5550506001805550565b601a546019546000916001600160a01b03918216911614156121d45750601e5490565b6019546040516370a0823160e01b81523060048201526000916001600160a01b0316906370a0823190602401602060405180830381865afa15801561221d573d6000803e3d6000fd5b505050506040513d601f19601f820116820180604052508101906122419190614157565b6018546019549192506001600160a01b0391821691161415611a0657601d5481101561226f57600091505090565b601d5461227d90829061325c565b91505090565b6000546001600160a01b031633146122ad5760405162461bcd60e51b8152600401610a4190614017565b60045460ff166122ed5760405162461bcd60e51b815260206004820152600b60248201526a135d5cdd081899481cd95d60aa1b6044820152606401610a41565b811561234e5760055481116123445760405162461bcd60e51b815260206004820152601860248201527f4e6577206c696d6974206d7573742062652068696768657200000000000000006044820152606401610a41565b6005819055612362565b6004805460ff191683151517905560006005555b7f241f67ee5f41b7a5cabf911367329be7215900f602ebfc47f89dce2a6bcd847c60055460405161135391815260200190565b6000546001600160a01b031633146123bf5760405162461bcd60e51b8152600401610a4190614017565b60025460ff16156124085760405162461bcd60e51b8152602060048201526013602482015272105b1c9958591e481a5b9a5d1a585b1a5e9959606a1b6044820152606401610a41565b6002805460ff19166001179055601880546001600160a01b03808d166001600160a01b031992831617909255601980548c84169216919091179055601a8054831515600160a01b026001600160a81b0319909116928b169290921791909117905560088790556107d086106124b55760405162461bcd60e51b8152602060048201526013602482015272496e76616c6964206465706f7369742066656560681b6044820152606401610a41565b6107d085106124fd5760405162461bcd60e51b8152602060048201526014602482015273496e76616c69642077697468647261772066656560601b6044820152606401610a41565b600e869055600f859055601280546001600160a01b031916331790556019546040805163313ce56760e01b815290516000926001600160a01b03169163313ce5679160048083019260209291908290030181865afa158015612563573d6000803e3d6000fd5b505050506040513d601f19601f8201168201806040525081019061258791906141f9565b60ff169050601e81106125d55760405162461bcd60e51b815260206004820152601660248201527504d75737420626520696e666572696f7220746f2033360541b6044820152606401610a41565b6125e060288261325c565b6125eb90600a614300565b601655601a546012906001600160a01b0316156126c757601a60009054906101000a90046001600160a01b03166001600160a01b031663313ce5676040518163ffffffff1660e01b8152600401602060405180830381865afa158015612655573d6000803e3d6000fd5b505050506040513d601f19601f8201168201806040525081019061267991906141f9565b60ff169050601e81106126c75760405162461bcd60e51b815260206004820152601660248201527504d75737420626520696e666572696f7220746f2033360541b6044820152606401610a41565b6126d260288261325c565b6126dd90600a614300565b601755600b80546001600160a01b0319166001600160a01b038816179055845161270e90600d906020880190613c92565b50835161272290600c906020870190613c92565b5061272b613430565b505050505050505050505050565b6002600154141561275c5760405162461bcd60e51b8152600401610a41906140e9565b6002600155806127ae5760405162461bcd60e51b815260206004820152601f60248201527f416d6f756e742073686f756c642062652067726561746f72207468616e2030006044820152606401610a41565b33600090815260216020526040902060045460ff16156127f65760055481546127d89084906137b4565b11156127f65760405162461bcd60e51b8152600401610a419061418d565b6127fe613271565b80541561295057600061282e8260010154610d80601654610d7a601b5487600001546133b090919063ffffffff16565b90508015612899578061283f6121b1565b101561285d5760405162461bcd60e51b8152600401610a4190614120565b601954612874906001600160a01b031633836133c8565b80601e54111561289357601e5461288b908261325c565b601e55612899565b6000601e555b60006128c28360020154610d80601754610d7a601c5488600001546133b090919063ffffffff16565b90506000811180156128dd5750601a54600160a01b900460ff165b1561294d57601a546001600160a01b031661292557604051339082156108fc029083906000818181858888f1935050505015801561291f573d6000803e3d6000fd5b5061293c565b601a5461293c906001600160a01b031633836133c8565b601f54612949908261325c565b601f555b50505b6018546040516370a0823160e01b81523060048201526000916001600160a01b0316906370a0823190602401602060405180830381865afa158015612999573d6000803e3d6000fd5b505050506040513d601f19601f820116820180604052508101906129bd9190614157565b6018549091506129d8906001600160a01b0316333086613810565b6018546040516370a0823160e01b81523060048201526000916001600160a01b0316906370a0823190602401602060405180830381865afa158015612a21573d6000803e3d6000fd5b505050506040513d601f19601f82011682018060405250810190612a459190614157565b90506000612a53828461325c565b600e5490915015612b1f576000612a7b612710610d7a600e54856133b090919063ffffffff16565b90506000612a9a612710610d7a601154856133b090919063ffffffff16565b90508015612acc57601254601854612abf916001600160a01b039182169116836133c8565b612ac9838261325c565b92505b6000612ae9612710610d7a601054866133b090919063ffffffff16565b90508015612b1b57601354601854612b0e916001600160a01b039182169116836133c8565b612b18848261325c565b93505b5050505b8354612b2b90826137b4565b808555601654601b54612b4192610d7a916133b0565b6001850155601754601c548554612b5d9291610d7a91906133b0565b6002850155601d54612b6f90826137b4565b601d5560405181815233907fe1fffcc4923d04b559f4d29a8bfc6cda04eb5b0d3c460751c2402c5c5cc9109c9060200160405180910390a2505060018055505050565b60026001541415612bd55760405162461bcd60e51b8152600401610a41906140e9565b6002600155336000908152602160205260409020612bf1613562565b612bf9613271565b8054612c055750611900565b6000612c2e8260010154610d80601654610d7a601b5487600001546133b090919063ffffffff16565b90508015611d165780612c3f6121b1565b1015612c5d5760405162461bcd60e51b8152600401610a4190614120565b601954612c74906001600160a01b031633836133c8565b80601e541115612c9357601e54612c8b908261325c565b601e55611d16565b6000601e55601654601b548354611d2d9291610d7a91906133b0565b600d8181548110610c5357600080fd5b6001600160a01b0381166000908152602160205260408120601d54612ce75750600092915050565b6000612cf1611906565b6018546040516370a0823160e01b81523060048201529192506000916001600160a01b03909116906370a0823190602401602060405180830381865afa158015612d3f573d6000803e3d6000fd5b505050506040513d601f19601f82011682018060405250810190612d639190614157565b90506000612d92612d8983610d7a601754611886601f548961325c90919063ffffffff16565b601c54906137b4565b90506000612dbb8560020154610d80601754610d7a868a600001546133b090919063ffffffff16565b979650505050505050565b60026001541415612de95760405162461bcd60e51b8152600401610a41906140e9565b600260018181553360009081526021602052604081208054828255928101829055928301558015612e3c57601854612e2b906001600160a01b031633836133c8565b601d54612e38908261325c565b601d555b815460405190815233907f5fafa99d0643513820be26656b45130b01e1c03062e1266bf36f88cbd3bd96959060200160405180910390a2505060018055565b60026001541415612e9e5760405162461bcd60e51b8152600401610a41906140e9565b60026001908155601a54600160a01b900460ff16151514612ef25760405162461bcd60e51b815260206004820152600e60248201526d4e6f207265666c656374696f6e7360901b6044820152606401610a41565b336000908152602160205260409020612f09613562565b612f11613271565b8054612f1d5750611900565b6000612f468260020154610d80601754610d7a601c5487600001546133b090919063ffffffff16565b905080156118de57601a546001600160a01b0316612f9157604051339082156108fc029083906000818181858888f19350505050158015612f8b573d6000803e3d6000fd5b50612fa8565b601a54612fa8906001600160a01b031633836133c8565b601f54612fb5908261325c565b601f55601754601c5483546118f59291610d7a91906133b0565b6000546001600160a01b03163314612ff95760405162461bcd60e51b8152600401610a4190614017565b6001600160a01b03811661305e5760405162461bcd60e51b815260206004820152602660248201527f4f776e61626c653a206e6577206f776e657220697320746865207a65726f206160448201526564647265737360d01b6064820152608401610a41565b611129816137c0565b6001600160a01b0381166000908152602160205260408120600954431180156130915750601d5415155b801561309f57506000600954115b156131275760006130b26009544361384e565b905060006130cb600854836133b090919063ffffffff16565b905060006130f66130ed601d54610d7a601654866133b090919063ffffffff16565b601b54906137b4565b905061311d8460010154610d80601654610d7a8589600001546133b090919063ffffffff16565b9695505050505050565b61314e8160010154610d80601654610d7a601b5486600001546133b090919063ffffffff16565b9392505050565b6000546001600160a01b0316331461317f5760405162461bcd60e51b8152600401610a4190614017565b601e8110156131c65760405162461bcd60e51b81526020600482015260136024820152721b1bddd95c881b1a5b5a5d081c995858da1959606a1b6044820152606401610a41565b60038190556006541561322c576131e6600354617080611e0791906141da565b6007819055431061322c5760405162461bcd60e51b815260206004820152601060248201526f34b73b30b634b210323ab930ba34b7b760811b6044820152606401610a41565b6040518181527f91abcc2d6823e3a3f11d31b208dd3065d2c6a791f1c7c9fe96a42ce12897eac590602001610c38565b6000613268828461430c565b90505b92915050565b6000601d5411801561328c5750601a54600160a01b900460ff165b1561333957600061329b611906565b6018546040516370a0823160e01b81523060048201529192506000916001600160a01b03909116906370a0823190602401602060405180830381865afa1580156132e9573d6000803e3d6000fd5b505050506040513d601f19601f8201168201806040525081019061330d9190614157565b9050613331612d8982610d7a601754611886601f548861325c90919063ffffffff16565b601c5550601f555b6009544311158061334a5750600954155b1561335157565b601d5461335e5743600955565b600061336c6009544361384e565b90506000613385600854836133b090919063ffffffff16565b90506133a56130ed601d54610d7a601654856133b090919063ffffffff16565b601b55505043600955565b600061326882846141da565b60006132688284614323565b6040516001600160a01b03831660248201526044810182905261342b90849063a9059cbb60e01b906064015b60408051601f198184030181529190526020810180516001600160e01b03166001600160e01b031990931692909217909152613888565b505050565b600b5460195461344e916001600160a01b039182169116600061395a565b600b5460195461346d916001600160a01b039182169116600019613a6f565b601a546001600160a01b031661352557600b54604080516315ab88c960e31b815290516000926001600160a01b03169163ad5c46489160048083019260209291908290030181865afa1580156134c7573d6000803e3d6000fd5b505050506040513d601f19601f820116820180604052508101906134eb9190614170565b600b54909150613509906001600160a01b038084169116600061395a565b600b54611129906001600160a01b038381169116600019613a6f565b600b54601a54613543916001600160a01b039182169116600061395a565b600b54601a5461115e916001600160a01b039182169116600019613a6f565b6015543410156135c85760405162461bcd60e51b815260206004820152602b60248201527f73686f756c642070617920736d616c6c2067617320746f20636f6d706f756e6460448201526a081bdc881a185c9d995cdd60aa1b6064820152608401610a41565b6014546015546040516001600160a01b039092169181156108fc0291906000818181858888f19350505050158015613604573d6000803e3d6000fd5b5060155434111561115e5760155433906108fc9061362390349061325c565b6040518115909202916000818181858888f19350505050158015611129573d6000803e3d6000fd5b600b5460405163d06ca61f60e01b81526000916001600160a01b03169063d06ca61f9061367e9087908790600401614345565b600060405180830381865afa15801561369b573d6000803e3d6000fd5b505050506040513d6000823e601f3d908101601f191682016040526136c3919081019061435e565b90506000816136dd6001845161325c90919063ffffffff16565b815181106136ed576136ed6143e4565b60200260200101519050600b60009054906101000a90046001600160a01b03166001600160a01b03166338ed1739866137376103e8610d7a600a54876133b090919063ffffffff16565b8787613745426102586137b4565b6040518663ffffffff1660e01b81526004016137659594939291906143fa565b6000604051808303816000875af1158015613784573d6000803e3d6000fd5b505050506040513d6000823e601f3d908101601f191682016040526137ac919081019061435e565b505050505050565b60006132688284614436565b600080546001600160a01b038381166001600160a01b0319831681178455604051919092169283917f8be0079c531659141344cd1fd0a4f28419497f9722a3daafe3b4186f6b6457e09190a35050565b6040516001600160a01b03808516602483015283166044820152606481018290526138489085906323b872dd60e01b906084016133f4565b50505050565b6000600754821161386a57613863828461325c565b905061326b565b600754831061387b5750600061326b565b600754613863908461325c565b60006138dd826040518060400160405280602081526020017f5361666545524332303a206c6f772d6c6576656c2063616c6c206661696c6564815250856001600160a01b0316613b219092919063ffffffff16565b80519091501561342b57808060200190518101906138fb919061444e565b61342b5760405162461bcd60e51b815260206004820152602a60248201527f5361666545524332303a204552433230206f7065726174696f6e20646964206e6044820152691bdd081cdd58d8d9595960b21b6064820152608401610a41565b8015806139d45750604051636eb1769f60e11b81523060048201526001600160a01b03838116602483015284169063dd62ed3e90604401602060405180830381865afa1580156139ae573d6000803e3d6000fd5b505050506040513d601f19601f820116820180604052508101906139d29190614157565b155b613a3f5760405162461bcd60e51b815260206004820152603660248201527f5361666545524332303a20617070726f76652066726f6d206e6f6e2d7a65726f60448201527520746f206e6f6e2d7a65726f20616c6c6f77616e636560501b6064820152608401610a41565b6040516001600160a01b03831660248201526044810182905261342b90849063095ea7b360e01b906064016133f4565b604051636eb1769f60e11b81523060048201526001600160a01b038381166024830152600091839186169063dd62ed3e90604401602060405180830381865afa158015613ac0573d6000803e3d6000fd5b505050506040513d601f19601f82011682018060405250810190613ae49190614157565b613aee9190614436565b6040516001600160a01b03851660248201526044810182905290915061384890859063095ea7b360e01b906064016133f4565b6060613b308484600085613b38565b949350505050565b606082471015613b995760405162461bcd60e51b815260206004820152602660248201527f416464726573733a20696e73756666696369656e742062616c616e636520666f6044820152651c8818d85b1b60d21b6064820152608401610a41565b6001600160a01b0385163b613bf05760405162461bcd60e51b815260206004820152601d60248201527f416464726573733a2063616c6c20746f206e6f6e2d636f6e74726163740000006044820152606401610a41565b600080866001600160a01b03168587604051613c0c9190614497565b60006040518083038185875af1925050503d8060008114613c49576040519150601f19603f3d011682016040523d82523d6000602084013e613c4e565b606091505b5091509150612dbb82828660608315613c6857508161314e565b825115613c785782518084602001fd5b8160405162461bcd60e51b8152600401610a4191906144b3565b828054828255906000526020600020908101928215613ce7579160200282015b82811115613ce757825182546001600160a01b0319166001600160a01b03909116178255602090920191600190910190613cb2565b50613cf3929150613cf7565b5090565b5b80821115613cf35760008155600101613cf8565b6001600160a01b038116811461112957600080fd5b8035611a0681613d0c565b634e487b7160e01b600052604160045260246000fd5b604051601f8201601f1916810167ffffffffffffffff81118282101715613d6b57613d6b613d2c565b604052919050565b600067ffffffffffffffff821115613d8d57613d8d613d2c565b5060051b60200190565b600082601f830112613da857600080fd5b81356020613dbd613db883613d73565b613d42565b82815260059290921b84018101918181019086841115613ddc57600080fd5b8286015b84811015613e00578035613df381613d0c565b8352918301918301613de0565b509695505050505050565b600080600080600080600060e0888a031215613e2657600080fd5b873596506020880135955060408801359450606088013593506080880135613e4d81613d0c565b925060a088013567ffffffffffffffff80821115613e6a57600080fd5b613e768b838c01613d97565b935060c08a0135915080821115613e8c57600080fd5b50613e998a828b01613d97565b91505092959891949750929550565b600060208284031215613eba57600080fd5b5035919050565b600060208284031215613ed357600080fd5b813561314e81613d0c565b60008060408385031215613ef157600080fd5b8235613efc81613d0c565b946020939093013593505050565b801515811461112957600080fd5b8035611a0681613f0a565b60008060408385031215613f3657600080fd5b8235613efc81613f0a565b6000806000806000806000806000806101408b8d031215613f6157600080fd5b613f6a8b613d21565b9950613f7860208c01613d21565b9850613f8660408c01613d21565b975060608b0135965060808b0135955060a08b01359450613fa960c08c01613d21565b935060e08b013567ffffffffffffffff80821115613fc657600080fd5b613fd28e838f01613d97565b94506101008d0135915080821115613fe957600080fd5b50613ff68d828e01613d97565b9250506140066101208c01613f18565b90509295989b9194979a5092959850565b6020808252818101527f4f776e61626c653a2063616c6c6572206973206e6f7420746865206f776e6572604082015260600190565b600081518084526020808501945080840160005b838110156140855781516001600160a01b031687529582019590820190600101614060565b509495945050505050565b87815286602082015285604082015284606082015260018060a01b038416608082015260e060a082015260006140c960e083018561404c565b82810360c08401526140db818561404c565b9a9950505050505050505050565b6020808252601f908201527f5265656e7472616e637947756172643a207265656e7472616e742063616c6c00604082015260600190565b6020808252601a908201527f496e73756666696369656e742072657761726420746f6b656e73000000000000604082015260600190565b60006020828403121561416957600080fd5b5051919050565b60006020828403121561418257600080fd5b815161314e81613d0c565b60208082526017908201527f5573657220616d6f756e742061626f7665206c696d6974000000000000000000604082015260600190565b634e487b7160e01b600052601160045260246000fd5b60008160001904831182151516156141f4576141f46141c4565b500290565b60006020828403121561420b57600080fd5b815160ff8116811461314e57600080fd5b600181815b8085111561425757816000190482111561423d5761423d6141c4565b8085161561424a57918102915b93841c9390800290614221565b509250929050565b60008261426e5750600161326b565b8161427b5750600061326b565b8160018114614291576002811461429b576142b7565b600191505061326b565b60ff8411156142ac576142ac6141c4565b50506001821b61326b565b5060208310610133831016604e8410600b84101617156142da575081810a61326b565b6142e4838361421c565b80600019048211156142f8576142f86141c4565b029392505050565b6000613268838361425f565b60008282101561431e5761431e6141c4565b500390565b60008261434057634e487b7160e01b600052601260045260246000fd5b500490565b828152604060208201526000613b30604083018461404c565b6000602080838503121561437157600080fd5b825167ffffffffffffffff81111561438857600080fd5b8301601f8101851361439957600080fd5b80516143a7613db882613d73565b81815260059190911b820183019083810190878311156143c657600080fd5b928401925b82841015612dbb578351825292840192908401906143cb565b634e487b7160e01b600052603260045260246000fd5b85815284602082015260a06040820152600061441960a083018661404c565b6001600160a01b0394909416606083015250608001529392505050565b60008219821115614449576144496141c4565b500190565b60006020828403121561446057600080fd5b815161314e81613f0a565b60005b8381101561448657818101518382015260200161446e565b838111156138485750506000910152565b600082516144a981846020870161446b565b9190910192915050565b60208152600082518060208401526144d281604085016020870161446b565b601f01601f1916919091016040019291505056fea26469706673582212208fc1fe301777eb9cb12fe8f21963efac870f17e4ac89479e8b215d447ebbe47564736f6c634300080b0033",
  "linkReferences": {},
  "deployedLinkReferences": {}
}