{
  "_format": "hh-sol-artifact-1",
  "contractName": "PoolFactory",
  "sourceName": "contracts/PoolFactory.sol",
  "abi": [
    {
      "inputs": [],
      "stateMutability": "nonpayable",
      "type": "constructor"
    },
    {
      "anonymous": false,
      "inputs": [
        {
          "indexed": true,
          "internalType": "address",
          "name": "previousOwner",
          "type": "address"
        },
        {
          "indexed": true,
          "internalType": "address",
          "name": "newOwner",
          "type": "address"
        }
      ],
      "name": "OwnershipTransferred",
      "type": "event"
    },
    {
      "inputs": [
        {
          "internalType": "address",
          "name": "implementation",
          "type": "address"
        },
        {
          "internalType": "address",
          "name": "stakingToken",
          "type": "address"
        },
        {
          "internalType": "uint256",
          "name": "_rewardPerBlock",
          "type": "uint256"
        },
        {
          "internalType": "uint256",
          "name": "_depositFee",
          "type": "uint256"
        },
        {
          "internalType": "uint256",
          "name": "_withdrawFee",
          "type": "uint256"
        },
        {
          "internalType": "address",
          "name": "_uniRouter",
          "type": "address"
        },
        {
          "internalType": "address[]",
          "name": "_earnedToStakedPath",
          "type": "address[]"
        },
        {
          "internalType": "address[]",
          "name": "_reflectionToStakedPath",
          "type": "address[]"
        },
        {
          "internalType": "bool",
          "name": "_hasDividend",
          "type": "bool"
        }
      ],
      "name": "create",
      "outputs": [],
      "stateMutability": "nonpayable",
      "type": "function"
    },
    {
      "inputs": [],
      "name": "earnedToken",
      "outputs": [
        {
          "internalType": "address",
          "name": "",
          "type": "address"
        }
      ],
      "stateMutability": "view",
      "type": "function"
    },
    {
      "inputs": [],
      "name": "owner",
      "outputs": [
        {
          "internalType": "address",
          "name": "",
          "type": "address"
        }
      ],
      "stateMutability": "view",
      "type": "function"
    },
    {
      "inputs": [],
      "name": "poolCount",
      "outputs": [
        {
          "internalType": "uint256",
          "name": "",
          "type": "uint256"
        }
      ],
      "stateMutability": "view",
      "type": "function"
    },
    {
      "inputs": [
        {
          "internalType": "uint256",
          "name": "",
          "type": "uint256"
        }
      ],
      "name": "pools",
      "outputs": [
        {
          "internalType": "address",
          "name": "",
          "type": "address"
        }
      ],
      "stateMutability": "view",
      "type": "function"
    },
    {
      "inputs": [],
      "name": "renounceOwnership",
      "outputs": [],
      "stateMutability": "nonpayable",
      "type": "function"
    },
    {
      "inputs": [
        {
          "internalType": "address",
          "name": "_earnedToken",
          "type": "address"
        }
      ],
      "name": "setEarnedToken",
      "outputs": [],
      "stateMutability": "nonpayable",
      "type": "function"
    },
    {
      "inputs": [
        {
          "internalType": "address",
          "name": "newOwner",
          "type": "address"
        }
      ],
      "name": "transferOwnership",
      "outputs": [],
      "stateMutability": "nonpayable",
      "type": "function"
    }
  ],
  "bytecode": "0x608060405234801561001057600080fd5b5061001a33610023565b60018055610073565b600080546001600160a01b038381166001600160a01b0319831681178455604051919092169283917f8be0079c531659141344cd1fd0a4f28419497f9722a3daafe3b4186f6b6457e09190a35050565b610760806100826000396000f3fe608060405234801561001057600080fd5b50600436106100885760003560e01c8063ac4afa381161005b578063ac4afa38146100eb578063ecd0d2f714610114578063f2fde38b14610127578063f525cb681461013a57600080fd5b80631f8f952a1461008d5780636e707b73146100a2578063715018a6146100d25780638da5cb5b146100da575b600080fd5b6100a061009b3660046104fe565b610151565b005b6004546100b5906001600160a01b031681565b6040516001600160a01b0390911681526020015b60405180910390f35b6100a061021c565b6000546001600160a01b03166100b5565b6100b56100f93660046105cb565b6003602052600090815260409020546001600160a01b031681565b6100a06101223660046105e4565b61025b565b6100a06101353660046105e4565b6102a7565b61014360025481565b6040519081526020016100c9565b600061015c8a610342565b600480546040516358b916cf60e11b81529293506001600160a01b038085169363b1722d9e936101a0938f93169182918f918f918f918f918f918f918f910161064a565b600060405180830381600087803b1580156101ba57600080fd5b505af11580156101ce573d6000803e3d6000fd5b505060028054600090815260036020526040812080546001600160a01b0319166001600160a01b0387161790558154935090915061020b836106cc565b919050555050505050505050505050565b6000546001600160a01b0316331461024f5760405162461bcd60e51b8152600401610246906106f5565b60405180910390fd5b61025960006103df565b565b6000546001600160a01b031633146102855760405162461bcd60e51b8152600401610246906106f5565b600480546001600160a01b0319166001600160a01b0392909216919091179055565b6000546001600160a01b031633146102d15760405162461bcd60e51b8152600401610246906106f5565b6001600160a01b0381166103365760405162461bcd60e51b815260206004820152602660248201527f4f776e61626c653a206e6577206f776e657220697320746865207a65726f206160448201526564647265737360d01b6064820152608401610246565b61033f816103df565b50565b6000604051733d602d80600a3d3981f3363d3d373d3d3d363d7360601b81528260601b60148201526e5af43d82803e903d91602b57fd5bf360881b60288201526037816000f09150506001600160a01b0381166103da5760405162461bcd60e51b8152602060048201526016602482015275115490cc4c4d8dce8818dc99585d194819985a5b195960521b6044820152606401610246565b919050565b600080546001600160a01b038381166001600160a01b0319831681178455604051919092169283917f8be0079c531659141344cd1fd0a4f28419497f9722a3daafe3b4186f6b6457e09190a35050565b80356001600160a01b03811681146103da57600080fd5b634e487b7160e01b600052604160045260246000fd5b600082601f83011261046d57600080fd5b8135602067ffffffffffffffff8083111561048a5761048a610446565b8260051b604051601f19603f830116810181811084821117156104af576104af610446565b6040529384528581018301938381019250878511156104cd57600080fd5b83870191505b848210156104f3576104e48261042f565b835291830191908301906104d3565b979650505050505050565b60008060008060008060008060006101208a8c03121561051d57600080fd5b6105268a61042f565b985061053460208b0161042f565b975060408a0135965060608a0135955060808a0135945061055760a08b0161042f565b935060c08a013567ffffffffffffffff8082111561057457600080fd5b6105808d838e0161045c565b945060e08c013591508082111561059657600080fd5b506105a38c828d0161045c565b9250506101008a013580151581146105ba57600080fd5b809150509295985092959850929598565b6000602082840312156105dd57600080fd5b5035919050565b6000602082840312156105f657600080fd5b6105ff8261042f565b9392505050565b600081518084526020808501945080840160005b8381101561063f5781516001600160a01b03168752958201959082019060010161061a565b509495945050505050565b6001600160a01b038b811682528a811660208301528981166040830152606082018990526080820188905260a08201879052851660c082015261014060e0820181905260009061069c83820187610606565b90508281036101008401526106b18186610606565b9150508215156101208301529b9a5050505050505050505050565b60006000198214156106ee57634e487b7160e01b600052601160045260246000fd5b5060010190565b6020808252818101527f4f776e61626c653a2063616c6c6572206973206e6f7420746865206f776e657260408201526060019056fea2646970667358221220baf3d20ccc775d43019f290e20f688b4a40761f116cde7000cbc0d824e0727f864736f6c634300080b0033",
  "linkReferences": {},
  "deployedLinkReferences": {}
}