{
  "_format": "hh-sol-artifact-1",
  "contractName": "PoolFactory",
  "sourceName": "contracts/PoolFactory.sol",
  "abi": [
    {
      "inputs": [],
      "stateMutability": "nonpayable",
      "type": "constructor"
    },
    {
      "anonymous": false,
      "inputs": [
        {
          "indexed": true,
          "internalType": "address",
          "name": "pool",
          "type": "address"
        }
      ],
      "name": "Create",
      "type": "event"
    },
    {
      "anonymous": false,
      "inputs": [
        {
          "indexed": true,
          "internalType": "address",
          "name": "previousOwner",
          "type": "address"
        },
        {
          "indexed": true,
          "internalType": "address",
          "name": "newOwner",
          "type": "address"
        }
      ],
      "name": "OwnershipTransferred",
      "type": "event"
    },
    {
      "inputs": [
        {
          "internalType": "address",
          "name": "implementation",
          "type": "address"
        },
        {
          "internalType": "address",
          "name": "stakingToken",
          "type": "address"
        },
        {
          "internalType": "address",
          "name": "earnedToken",
          "type": "address"
        },
        {
          "internalType": "address",
          "name": "dividendToken",
          "type": "address"
        },
        {
          "internalType": "uint256",
          "name": "_rewardPerBlock",
          "type": "uint256"
        },
        {
          "internalType": "uint256[2]",
          "name": "_fees",
          "type": "uint256[2]"
        },
        {
          "internalType": "uint256",
          "name": "_amount",
          "type": "uint256"
        },
        {
          "internalType": "uint256",
          "name": "_duration",
          "type": "uint256"
        },
        {
          "internalType": "address",
          "name": "_uniRouter",
          "type": "address"
        },
        {
          "internalType": "address[]",
          "name": "_earnedToStakedPath",
          "type": "address[]"
        },
        {
          "internalType": "address[]",
          "name": "_reflectionToStakedPath",
          "type": "address[]"
        },
        {
          "internalType": "bool",
          "name": "_hasDividend",
          "type": "bool"
        }
      ],
      "name": "create",
      "outputs": [],
      "stateMutability": "nonpayable",
      "type": "function"
    },
    {
      "inputs": [],
      "name": "owner",
      "outputs": [
        {
          "internalType": "address",
          "name": "",
          "type": "address"
        }
      ],
      "stateMutability": "view",
      "type": "function"
    },
    {
      "inputs": [],
      "name": "poolCount",
      "outputs": [
        {
          "internalType": "uint256",
          "name": "",
          "type": "uint256"
        }
      ],
      "stateMutability": "view",
      "type": "function"
    },
    {
      "inputs": [
        {
          "internalType": "uint256",
          "name": "",
          "type": "uint256"
        }
      ],
      "name": "pools",
      "outputs": [
        {
          "internalType": "address",
          "name": "",
          "type": "address"
        }
      ],
      "stateMutability": "view",
      "type": "function"
    },
    {
      "inputs": [],
      "name": "renounceOwnership",
      "outputs": [],
      "stateMutability": "nonpayable",
      "type": "function"
    },
    {
      "inputs": [
        {
          "internalType": "address",
          "name": "newOwner",
          "type": "address"
        }
      ],
      "name": "transferOwnership",
      "outputs": [],
      "stateMutability": "nonpayable",
      "type": "function"
    }
  ],
  "bytecode": "0x608060405234801561001057600080fd5b5061001a33610023565b60018055610073565b600080546001600160a01b038381166001600160a01b0319831681178455604051919092169283917f8be0079c531659141344cd1fd0a4f28419497f9722a3daafe3b4186f6b6457e09190a35050565b610a9b806100826000396000f3fe608060405234801561001057600080fd5b50600436106100625760003560e01c8063715018a6146100675780638da5cb5b14610071578063ac4afa381461009b578063dda434f5146100c4578063f2fde38b146100d7578063f525cb68146100ea575b600080fd5b61006f610101565b005b6000546001600160a01b03165b6040516001600160a01b0390911681526020015b60405180910390f35b61007e6100a936600461067c565b6003602052600090815260409020546001600160a01b031681565b61006f6100d23660046107ed565b61016c565b61006f6100e53660046108f2565b6104c4565b6100f360025481565b604051908152602001610092565b6000546001600160a01b031633146101605760405162461bcd60e51b815260206004820181905260248201527f4f776e61626c653a2063616c6c6572206973206e6f7420746865206f776e657260448201526064015b60405180910390fd5b61016a600061058f565b565b60006101778d6105df565b90506001600160a01b03811663e241b1348d8d8d8d8d600060200201518e600160200201518d8d338e8e8e6040518d63ffffffff1660e01b81526004016101c99c9b9a99989796959493929190610958565b600060405180830381600087803b1580156101e357600080fd5b505af11580156101f7573d6000803e3d6000fd5b50506040516370a0823160e01b8152306004820152600092506001600160a01b038e1691506370a0823190602401602060405180830381865afa158015610242573d6000803e3d6000fd5b505050506040513d601f19601f8201168201806040525081019061026691906109e7565b6040516323b872dd60e01b8152336004820152306024820152604481018a90529091506001600160a01b038d16906323b872dd906064016020604051808303816000875af11580156102bc573d6000803e3d6000fd5b505050506040513d601f19601f820116820180604052508101906102e09190610a00565b506040516370a0823160e01b81523060048201526000906001600160a01b038e16906370a0823190602401602060405180830381865afa158015610328573d6000803e3d6000fd5b505050506040513d601f19601f8201168201806040525081019061034c91906109e7565b90506001600160a01b038d1663095ea7b3846103688585610a33565b6040516001600160e01b031960e085901b1681526001600160a01b03909216600483015260248201526044016020604051808303816000875af11580156103b3573d6000803e3d6000fd5b505050506040513d601f19601f820116820180604052508101906103d79190610a00565b506001600160a01b038316638bdf67f26103f18484610a33565b6040518263ffffffff1660e01b815260040161040f91815260200190565b600060405180830381600087803b15801561042957600080fd5b505af115801561043d573d6000803e3d6000fd5b505060028054600090815260036020526040812080546001600160a01b0319166001600160a01b0389161790558154935090915061047a83610a4a565b90915550506040516001600160a01b038416907fe3758539c1bd6726422843471b2886c2d2cefd3b4aead6778386283e20a32a8090600090a2505050505050505050505050505050565b6000546001600160a01b0316331461051e5760405162461bcd60e51b815260206004820181905260248201527f4f776e61626c653a2063616c6c6572206973206e6f7420746865206f776e65726044820152606401610157565b6001600160a01b0381166105835760405162461bcd60e51b815260206004820152602660248201527f4f776e61626c653a206e6577206f776e657220697320746865207a65726f206160448201526564647265737360d01b6064820152608401610157565b61058c8161058f565b50565b600080546001600160a01b038381166001600160a01b0319831681178455604051919092169283917f8be0079c531659141344cd1fd0a4f28419497f9722a3daafe3b4186f6b6457e09190a35050565b6000604051733d602d80600a3d3981f3363d3d373d3d3d363d7360601b81528260601b60148201526e5af43d82803e903d91602b57fd5bf360881b60288201526037816000f09150506001600160a01b0381166106775760405162461bcd60e51b8152602060048201526016602482015275115490cc4c4d8dce8818dc99585d194819985a5b195960521b6044820152606401610157565b919050565b60006020828403121561068e57600080fd5b5035919050565b80356001600160a01b038116811461067757600080fd5b634e487b7160e01b600052604160045260246000fd5b600082601f8301126106d357600080fd5b6040516040810181811067ffffffffffffffff821117156106f6576106f66106ac565b806040525080604084018581111561070d57600080fd5b845b8181101561072757803583526020928301920161070f565b509195945050505050565b600082601f83011261074357600080fd5b8135602067ffffffffffffffff80831115610760576107606106ac565b8260051b604051601f19603f83011681018181108482111715610785576107856106ac565b6040529384528581018301938381019250878511156107a357600080fd5b83870191505b848210156107c9576107ba82610695565b835291830191908301906107a9565b979650505050505050565b801515811461058c57600080fd5b8035610677816107d4565b6000806000806000806000806000806000806101a08d8f03121561081057600080fd5b6108198d610695565b9b5061082760208e01610695565b9a5061083560408e01610695565b995061084360608e01610695565b985060808d013597506108598e60a08f016106c2565b965060e08d013595506101008d013594506108776101208e01610695565b935067ffffffffffffffff6101408e0135111561089357600080fd5b6108a48e6101408f01358f01610732565b925067ffffffffffffffff6101608e013511156108c057600080fd5b6108d18e6101608f01358f01610732565b91506108e06101808e016107e2565b90509295989b509295989b509295989b565b60006020828403121561090457600080fd5b61090d82610695565b9392505050565b600081518084526020808501945080840160005b8381101561094d5781516001600160a01b031687529582019590820190600101610928565b509495945050505050565b600060018060a01b03808f168352808e166020840152808d1660408401528b60608401528a60808401528960a08401528860c084015280881660e0840152808716610100840152506101806101208301526109b7610180830186610914565b8281036101408401526109ca8186610914565b9150508215156101608301529d9c50505050505050505050505050565b6000602082840312156109f957600080fd5b5051919050565b600060208284031215610a1257600080fd5b815161090d816107d4565b634e487b7160e01b600052601160045260246000fd5b600082821015610a4557610a45610a1d565b500390565b6000600019821415610a5e57610a5e610a1d565b506001019056fea2646970667358221220a265931d55bd43554de58580051d70d17db097619fc3ab654f1860cbbe2fc16864736f6c634300080b0033",
  "linkReferences": {},
  "deployedLinkReferences": {}
}